
MGW-301.elf:     file format elf32-avr

Sections:
Idx Name          Size      VMA       LMA       File off  Algn
  0 .data         00000048  00800100  00005c58  00005d0c  2**0
                  CONTENTS, ALLOC, LOAD, DATA
  1 .text         00005c58  00000000  00000000  000000b4  2**1
                  CONTENTS, ALLOC, LOAD, READONLY, CODE
  2 .bss          00000549  00800148  00800148  00005d54  2**0
                  ALLOC
  3 .eeprom       0000000e  00810000  00810000  00005d54  2**0
                  CONTENTS, ALLOC, LOAD, DATA
  4 .stab         0000a05c  00000000  00000000  00005d64  2**2
                  CONTENTS, READONLY, DEBUGGING
  5 .stabstr      00003dec  00000000  00000000  0000fdc0  2**0
                  CONTENTS, READONLY, DEBUGGING

Disassembly of section .text:

00000000 <__vectors>:
       0:	0c 94 e1 02 	jmp	0x5c2	; 0x5c2 <__ctors_end>
       4:	0c 94 00 03 	jmp	0x600	; 0x600 <__bad_interrupt>
       8:	0c 94 00 03 	jmp	0x600	; 0x600 <__bad_interrupt>
       c:	0c 94 00 03 	jmp	0x600	; 0x600 <__bad_interrupt>
      10:	0c 94 00 03 	jmp	0x600	; 0x600 <__bad_interrupt>
      14:	0c 94 5e 22 	jmp	0x44bc	; 0x44bc <__vector_5>
      18:	0c 94 00 03 	jmp	0x600	; 0x600 <__bad_interrupt>
      1c:	0c 94 00 03 	jmp	0x600	; 0x600 <__bad_interrupt>
      20:	0c 94 00 03 	jmp	0x600	; 0x600 <__bad_interrupt>
      24:	0c 94 00 03 	jmp	0x600	; 0x600 <__bad_interrupt>
      28:	0c 94 00 03 	jmp	0x600	; 0x600 <__bad_interrupt>
      2c:	0c 94 00 03 	jmp	0x600	; 0x600 <__bad_interrupt>
      30:	0c 94 ac 10 	jmp	0x2158	; 0x2158 <__vector_12>
      34:	0c 94 00 03 	jmp	0x600	; 0x600 <__bad_interrupt>
      38:	0c 94 00 03 	jmp	0x600	; 0x600 <__bad_interrupt>
      3c:	0c 94 00 03 	jmp	0x600	; 0x600 <__bad_interrupt>
      40:	0c 94 00 03 	jmp	0x600	; 0x600 <__bad_interrupt>
      44:	0c 94 00 03 	jmp	0x600	; 0x600 <__bad_interrupt>
      48:	0c 94 2c 11 	jmp	0x2258	; 0x2258 <__vector_18>
      4c:	0c 94 58 11 	jmp	0x22b0	; 0x22b0 <__vector_19>
      50:	0c 94 87 11 	jmp	0x230e	; 0x230e <__vector_20>
      54:	0c 94 00 03 	jmp	0x600	; 0x600 <__bad_interrupt>
      58:	0c 94 00 03 	jmp	0x600	; 0x600 <__bad_interrupt>
      5c:	0c 94 00 03 	jmp	0x600	; 0x600 <__bad_interrupt>
      60:	0c 94 00 03 	jmp	0x600	; 0x600 <__bad_interrupt>
      64:	0c 94 00 03 	jmp	0x600	; 0x600 <__bad_interrupt>
      68:	0c 94 00 03 	jmp	0x600	; 0x600 <__bad_interrupt>
      6c:	0c 94 00 03 	jmp	0x600	; 0x600 <__bad_interrupt>
      70:	0c 94 00 03 	jmp	0x600	; 0x600 <__bad_interrupt>
      74:	0c 94 00 03 	jmp	0x600	; 0x600 <__bad_interrupt>
      78:	0c 94 f7 11 	jmp	0x23ee	; 0x23ee <__vector_30>
      7c:	0c 94 26 12 	jmp	0x244c	; 0x244c <__vector_31>
      80:	0c 94 5a 12 	jmp	0x24b4	; 0x24b4 <__vector_32>
      84:	0c 94 00 03 	jmp	0x600	; 0x600 <__bad_interrupt>
      88:	0c 94 00 03 	jmp	0x600	; 0x600 <__bad_interrupt>

0000008c <__c.2191>:
      8c:	0a 25 64 3a 20 25 30 34 58 00                       .%d: %04X.

00000096 <__c.1831>:
      96:	0a 20 53 74 61 72 74 20 54 69 6d 65 20 3a 20 25     . Start Time : %
      a6:	30 32 78 2c 20 45 6e 64 20 54 69 6d 65 20 3a 20     02x, End Time : 
      b6:	25 30 32 78 00                                      %02x.

000000bb <__c.1829>:
      bb:	0a 20 53 74 61 72 74 20 54 69 6d 65 20 3a 20 25     . Start Time : %
      cb:	64 3a 25 30 32 64 2c 20 45 6e 64 20 54 69 6d 65     d:%02d, End Time
      db:	20 3a 20 25 64 3a 25 30 32 64 00                     : %d:%02d.

000000e6 <__c.2696>:
      e6:	0a 50 72 65 73 73 20 61 6e 79 20 4e 75 6d 62 65     .Press any Numbe
      f6:	72 20 5b 31 20 7e 20 37 5d 2e 2e 2e 2e 20 00        r [1 ~ 7].... .

00000105 <__c.2602>:
     105:	0a 23 23 20 20 53 65 6e 73 6f 72 53 68 61 72 65     .##  SensorShare
     115:	4d 6f 64 65 20 3a 20 20 25 64 20 20 20 20 20 20     Mode :  %d      
     125:	20 20 20 20 20 20 20 20 23 23 00                            ##.

00000130 <__c.2600>:
     130:	0a 23 23 20 20 50 6f 72 74 20 20 20 20 20 20 20     .##  Port       
     140:	20 20 3a 20 20 25 64 20 20 20 20 20 20 20 20 20       :  %d         
     150:	20 20 20 20 23 23 00                                    ##.

00000157 <__c.2598>:
     157:	0a 23 23 20 20 53 75 62 4e 65 74 20 4d 41 53 4b     .##  SubNet MASK
     167:	20 20 3a 20 20 25 33 64 2e 25 33 64 2e 25 33 64       :  %3d.%3d.%3d
     177:	2e 25 33 64 20 20 20 23 23 00                       .%3d   ##.

00000181 <__c.2596>:
     181:	0a 23 23 20 20 44 65 66 61 75 6c 74 20 47 57 20     .##  Default GW 
     191:	20 20 3a 20 20 25 33 64 2e 25 33 64 2e 25 33 64       :  %3d.%3d.%3d
     1a1:	2e 25 33 64 20 20 20 23 23 00                       .%3d   ##.

000001ab <__c.2594>:
     1ab:	0a 23 23 20 20 47 61 74 65 77 61 79 20 49 50 20     .##  Gateway IP 
     1bb:	20 20 3a 20 20 25 33 64 2e 25 33 64 2e 25 33 64       :  %3d.%3d.%3d
     1cb:	2e 25 33 64 20 20 20 23 23 00                       .%3d   ##.

000001d5 <__c.2592>:
     1d5:	0a 23 23 20 20 53 65 72 76 65 72 20 49 50 20 20     .##  Server IP  
     1e5:	20 20 3a 20 20 25 33 64 2e 25 33 64 2e 25 33 64       :  %3d.%3d.%3d
     1f5:	2e 25 33 64 20 20 20 23 23 00                       .%3d   ##.

000001ff <__c.2553>:
     1ff:	0a 23 23 23 23 23 23 23 23 23 23 23 23 23 23 23     .###############
     20f:	23 23 23 23 23 23 23 23 23 23 23 23 23 23 23 23     ################
     21f:	23 23 23 23 23 23 23 23 23 23 00                    ##########.

0000022a <__c.2551>:
     22a:	0a 20 20 5b 37 5d 2e 20 51 75 69 74 20 3f 00        .  [7]. Quit ?.

00000239 <__c.2549>:
     239:	0a 20 20 5b 36 5d 2e 20 53 65 6e 73 6f 72 53 68     .  [6]. SensorSh
     249:	61 72 69 6e 67 3a 20 20 25 64 00                    aring:  %d.

00000254 <__c.2547>:
     254:	0a 20 20 5b 35 5d 2e 20 50 6f 72 74 20 20 20 20     .  [5]. Port    
     264:	20 20 20 20 20 3a 20 20 25 64 00                         :  %d.

0000026f <__c.2545>:
     26f:	0a 20 20 5b 34 5d 2e 20 53 75 62 4e 65 74 20 4d     .  [4]. SubNet M
     27f:	41 53 4b 20 20 3a 20 20 25 33 64 2e 25 33 64 2e     ASK  :  %3d.%3d.
     28f:	25 33 64 2e 25 33 64 00                             %3d.%3d.

00000297 <__c.2543>:
     297:	0a 20 20 5b 33 5d 2e 20 44 65 66 61 75 6c 74 20     .  [3]. Default 
     2a7:	47 57 20 20 20 3a 20 20 25 33 64 2e 25 33 64 2e     GW   :  %3d.%3d.
     2b7:	25 33 64 2e 25 33 64 00                             %3d.%3d.

000002bf <__c.2541>:
     2bf:	0a 20 20 5b 32 5d 2e 20 47 61 74 65 77 61 79 20     .  [2]. Gateway 
     2cf:	49 50 20 20 20 3a 20 20 25 33 64 2e 25 33 64 2e     IP   :  %3d.%3d.
     2df:	25 33 64 2e 25 33 64 00                             %3d.%3d.

000002e7 <__c.2539>:
     2e7:	0a 20 20 5b 31 5d 2e 20 53 65 72 76 65 72 20 49     .  [1]. Server I
     2f7:	50 20 20 20 20 3a 20 20 25 33 64 2e 25 33 64 2e     P    :  %3d.%3d.
     307:	25 33 64 2e 25 33 64 00                             %3d.%3d.

0000030f <__c.2537>:
     30f:	0a 23 23 23 23 23 23 23 23 23 23 23 23 23 23 23     .###############
     31f:	23 23 23 23 23 23 23 23 23 23 23 23 23 23 23 23     ################
     32f:	23 23 23 23 23 23 23 23 23 23 00                    ##########.

0000033a <__c.2535>:
     33a:	0a 23 20 20 20 20 20 20 53 65 6c 65 63 74 20 53     .#      Select S
     34a:	65 74 74 69 6e 67 20 49 74 65 6d 20 4e 75 6d 62     etting Item Numb
     35a:	65 72 20 20 20 20 20 20 20 23 00                    er       #.

00000365 <__c.2533>:
     365:	0a 23 23 23 23 23 23 23 23 20 47 41 54 45 57 41     .######## GATEWA
     375:	59 20 4e 45 54 57 4f 52 4b 20 53 45 54 54 49 4e     Y NETWORK SETTIN
     385:	47 20 23 23 23 23 23 23 23 23 00                    G ########.

00000390 <__c.2531>:
     390:	0a 23 23 23 23 23 23 23 23 23 23 23 23 23 23 23     .###############
     3a0:	23 23 23 23 23 23 23 23 23 23 23 23 23 23 23 23     ################
     3b0:	23 23 23 23 23 23 23 23 23 23 0a 0a 00              ##########...

000003bd <__c.2529>:
     3bd:	0a 23 20 48 6f 6d 65 70 61 67 65 20 20 3a 20 68     .# Homepage  : h
     3cd:	74 74 70 3a 2f 2f 77 77 77 2e 6d 32 6d 6b 6f 72     ttp://www.m2mkor
     3dd:	65 61 2e 63 6f 2e 6b 72 20 23 00                    ea.co.kr #.

000003e8 <__c.2527>:
     3e8:	0a 23 20 43 6f 70 79 72 69 67 68 74 20 3a 20 4d     .# Copyright : M
     3f8:	32 4d 4b 6f 72 65 61 2c 20 49 6e 63 2e 20 32 30     2MKorea, Inc. 20
     408:	31 31 20 20 20 20 20 20 20 23 00                    11       #.

00000413 <__c.2525>:
     413:	0a 23 23 23 23 23 23 23 23 23 23 23 23 23 23 23     .###############
     423:	23 23 23 23 23 23 23 23 23 23 23 23 23 23 23 23     ################
     433:	23 23 23 23 23 23 23 23 23 23 00                    ##########.

0000043e <__c.2373>:
     43e:	0a 63 6d 64 20 3e 3e 20 00                          .cmd >> .

00000447 <__c.2370>:
     447:	0a 45 78 69 74 21 0a 53 74 61 72 74 2e 2e 2e 20     .Exit!.Start... 
     457:	4d 47 57 2d 33 30 30 0a 00                          MGW-300..

00000460 <__c.2367>:
     460:	0a 63 6d 64 20 3e 3e 20 00                          .cmd >> .

00000469 <__c.2365>:
     469:	0a 4e 65 77 20 4d 6f 64 65 3a 20 25 64 00           .New Mode: %d.

00000477 <__c.2363>:
     477:	0a 69 73 4f 6e 53 65 6e 73 6f 72 53 68 61 72 69     .isOnSensorShari
     487:	6e 67 28 31 3a 20 4f 6e 2c 20 30 3a 20 6f 66 66     ng(1: On, 0: off
     497:	29 20 3e 3e 20 00                                   ) >> .

0000049d <__c.2360>:
     49d:	0a 63 6d 64 20 3e 3e 20 00                          .cmd >> .

000004a6 <__c.2358>:
     4a6:	0a 4e 65 77 20 50 6f 72 74 3a 20 25 64 00           .New Port: %d.

000004b4 <__c.2356>:
     4b4:	0a 50 6f 72 74 20 3e 3e 20 00                       .Port >> .

000004be <__c.2353>:
     4be:	0a 63 6d 64 20 3e 3e 20 00                          .cmd >> .

000004c7 <__c.2351>:
     4c7:	0a 4e 65 77 20 44 65 66 61 75 6c 74 20 47 57 3a     .New Default GW:
     4d7:	20 25 33 64 2e 25 33 64 2e 25 33 64 2e 25 33 64      %3d.%3d.%3d.%3d
	...

000004e8 <__c.2349>:
     4e8:	0a 53 75 62 20 4e 45 54 20 4d 41 53 4b 20 3e 3e     .Sub NET MASK >>
     4f8:	20 00                                                .

000004fa <__c.2346>:
     4fa:	0a 63 6d 64 20 3e 3e 20 00                          .cmd >> .

00000503 <__c.2344>:
     503:	0a 4e 65 77 20 44 65 66 61 75 6c 74 20 47 57 3a     .New Default GW:
     513:	20 25 33 64 2e 25 33 64 2e 25 33 64 2e 25 33 64      %3d.%3d.%3d.%3d
	...

00000524 <__c.2342>:
     524:	0a 4e 65 77 20 44 65 66 61 75 6c 74 20 47 2f 57     .New Default G/W
     534:	20 49 50 20 3e 3e 20 00                              IP >> .

0000053c <__c.2339>:
     53c:	0a 63 6d 64 20 3e 3e 20 00                          .cmd >> .

00000545 <__c.2337>:
     545:	0a 4e 65 77 20 47 61 74 65 77 61 79 20 49 50 3a     .New Gateway IP:
     555:	20 25 33 64 2e 25 33 64 2e 25 33 64 2e 25 33 64      %3d.%3d.%3d.%3d
	...

00000566 <__c.2335>:
     566:	0a 4e 65 77 20 47 61 74 65 77 61 79 20 49 50 20     .New Gateway IP 
     576:	3e 3e 20 00                                         >> .

0000057a <__c.2331>:
     57a:	0a 63 6d 64 20 3e 3e 20 00                          .cmd >> .

00000583 <__c.2329>:
     583:	0a 4e 65 77 20 53 65 72 76 65 72 20 49 50 3a 20     .New Server IP: 
     593:	25 33 64 2e 25 33 64 2e 25 33 64 2e 25 33 64 00     %3d.%3d.%3d.%3d.

000005a3 <__c.2327>:
     5a3:	0a 4e 65 77 20 53 65 72 76 65 72 20 49 50 20 3e     .New Server IP >
     5b3:	3e 20 00                                            > .

000005b6 <__c.1988>:
     5b6:	63 64 69 6e 6f 70 73 75 78 58 5b 00                 cdinopsuxX[.

000005c2 <__ctors_end>:
     5c2:	11 24       	eor	r1, r1
     5c4:	1f be       	out	0x3f, r1	; 63
     5c6:	cf ef       	ldi	r28, 0xFF	; 255
     5c8:	d0 e1       	ldi	r29, 0x10	; 16
     5ca:	de bf       	out	0x3e, r29	; 62
     5cc:	cd bf       	out	0x3d, r28	; 61

000005ce <__do_copy_data>:
     5ce:	11 e0       	ldi	r17, 0x01	; 1
     5d0:	a0 e0       	ldi	r26, 0x00	; 0
     5d2:	b1 e0       	ldi	r27, 0x01	; 1
     5d4:	e8 e5       	ldi	r30, 0x58	; 88
     5d6:	fc e5       	ldi	r31, 0x5C	; 92
     5d8:	00 e0       	ldi	r16, 0x00	; 0
     5da:	0b bf       	out	0x3b, r16	; 59
     5dc:	02 c0       	rjmp	.+4      	; 0x5e2 <__do_copy_data+0x14>
     5de:	07 90       	elpm	r0, Z+
     5e0:	0d 92       	st	X+, r0
     5e2:	a8 34       	cpi	r26, 0x48	; 72
     5e4:	b1 07       	cpc	r27, r17
     5e6:	d9 f7       	brne	.-10     	; 0x5de <__do_copy_data+0x10>

000005e8 <__do_clear_bss>:
     5e8:	16 e0       	ldi	r17, 0x06	; 6
     5ea:	a8 e4       	ldi	r26, 0x48	; 72
     5ec:	b1 e0       	ldi	r27, 0x01	; 1
     5ee:	01 c0       	rjmp	.+2      	; 0x5f2 <.do_clear_bss_start>

000005f0 <.do_clear_bss_loop>:
     5f0:	1d 92       	st	X+, r1

000005f2 <.do_clear_bss_start>:
     5f2:	a1 39       	cpi	r26, 0x91	; 145
     5f4:	b1 07       	cpc	r27, r17
     5f6:	e1 f7       	brne	.-8      	; 0x5f0 <.do_clear_bss_loop>
     5f8:	0e 94 39 1d 	call	0x3a72	; 0x3a72 <main>
     5fc:	0c 94 2a 2e 	jmp	0x5c54	; 0x5c54 <_exit>

00000600 <__bad_interrupt>:
     600:	0c 94 00 00 	jmp	0	; 0x0 <__vectors>

00000604 <nops>:
 NOTE: SCL max 100 KHz.
 */

#define	DELAY()		Delay_us(10)

void nops(unsigned char num) {
     604:	90 e0       	ldi	r25, 0x00	; 0
     606:	02 c0       	rjmp	.+4      	; 0x60c <nops+0x8>
	uint8 i;

	for (i = 0; i < num; i++)
		nop();
     608:	00 00       	nop
#define	DELAY()		Delay_us(10)

void nops(unsigned char num) {
	uint8 i;

	for (i = 0; i < num; i++)
     60a:	9f 5f       	subi	r25, 0xFF	; 255
     60c:	98 17       	cp	r25, r24
     60e:	e0 f3       	brcs	.-8      	; 0x608 <nops+0x4>
		nop();
}
     610:	08 95       	ret

00000612 <Delay_us>:

void Delay_us(uint8 time_us) {
     612:	90 e0       	ldi	r25, 0x00	; 0
     614:	07 c0       	rjmp	.+14     	; 0x624 <Delay_us+0x12>
	register uint8 i;

	for (i = 0; i < time_us; i++) {
		asm(" PUSH R0 ");
     616:	0f 92       	push	r0
		asm(" POP R0 ");
     618:	0f 90       	pop	r0
		asm(" PUSH R0 ");
     61a:	0f 92       	push	r0
		asm(" POP R0 ");
     61c:	0f 90       	pop	r0
		asm(" PUSH R0 ");
     61e:	0f 92       	push	r0
		asm(" POP R0 ");
     620:	0f 90       	pop	r0
}

void Delay_us(uint8 time_us) {
	register uint8 i;

	for (i = 0; i < time_us; i++) {
     622:	9f 5f       	subi	r25, 0xFF	; 255
     624:	98 17       	cp	r25, r24
     626:	b8 f3       	brcs	.-18     	; 0x616 <Delay_us+0x4>
		asm(" PUSH R0 ");
		asm(" POP R0 ");
		asm(" PUSH R0 ");
		asm(" POP R0 ");
	}
}
     628:	08 95       	ret

0000062a <Delay_ms>:

void Delay_ms(uint8 time_ms) {
     62a:	0f 93       	push	r16
     62c:	1f 93       	push	r17
     62e:	08 2f       	mov	r16, r24
     630:	10 e0       	ldi	r17, 0x00	; 0
     632:	0d c0       	rjmp	.+26     	; 0x64e <Delay_ms+0x24>
	register uint8 i;

	for (i = 0; i < time_ms; i++) {
		Delay_us(250);
     634:	8a ef       	ldi	r24, 0xFA	; 250
     636:	0e 94 09 03 	call	0x612	; 0x612 <Delay_us>
		Delay_us(250);
     63a:	8a ef       	ldi	r24, 0xFA	; 250
     63c:	0e 94 09 03 	call	0x612	; 0x612 <Delay_us>
		Delay_us(250);
     640:	8a ef       	ldi	r24, 0xFA	; 250
     642:	0e 94 09 03 	call	0x612	; 0x612 <Delay_us>
		Delay_us(250);
     646:	8a ef       	ldi	r24, 0xFA	; 250
     648:	0e 94 09 03 	call	0x612	; 0x612 <Delay_us>
}

void Delay_ms(uint8 time_ms) {
	register uint8 i;

	for (i = 0; i < time_ms; i++) {
     64c:	1f 5f       	subi	r17, 0xFF	; 255
     64e:	10 17       	cp	r17, r16
     650:	88 f3       	brcs	.-30     	; 0x634 <Delay_ms+0xa>
		Delay_us(250);
		Delay_us(250);
		Delay_us(250);
		Delay_us(250);
	}
}
     652:	1f 91       	pop	r17
     654:	0f 91       	pop	r16
     656:	08 95       	ret

00000658 <i2c_start>:

void i2c_start(void) {
	SDA_SET();
     658:	91 9a       	sbi	0x12, 1	; 18
	SCL_SET();
     65a:	90 9a       	sbi	0x12, 0	; 18
	SDA_DOUT();
     65c:	89 9a       	sbi	0x11, 1	; 17
	SCL_DOUT();
     65e:	88 9a       	sbi	0x11, 0	; 17

	Delay_us(7);
     660:	87 e0       	ldi	r24, 0x07	; 7
     662:	0e 94 09 03 	call	0x612	; 0x612 <Delay_us>

	SDA_CLR();
     666:	91 98       	cbi	0x12, 1	; 18
	Delay_us(7);
     668:	87 e0       	ldi	r24, 0x07	; 7
     66a:	0e 94 09 03 	call	0x612	; 0x612 <Delay_us>
	SCL_CLR();
     66e:	90 98       	cbi	0x12, 0	; 18
}
     670:	08 95       	ret

00000672 <i2c_stop>:

void i2c_stop(void) {
	SDA_DOUT();
     672:	89 9a       	sbi	0x11, 1	; 17
	SCL_CLR();
     674:	90 98       	cbi	0x12, 0	; 18
	Delay_us(7);
     676:	87 e0       	ldi	r24, 0x07	; 7
     678:	0e 94 09 03 	call	0x612	; 0x612 <Delay_us>

	SCL_SET();
     67c:	90 9a       	sbi	0x12, 0	; 18
	Delay_us(4);
     67e:	84 e0       	ldi	r24, 0x04	; 4
     680:	0e 94 09 03 	call	0x612	; 0x612 <Delay_us>
	SDA_SET();
     684:	91 9a       	sbi	0x12, 1	; 18
	SDA_DIN();
     686:	89 98       	cbi	0x11, 1	; 17
}
     688:	08 95       	ret

0000068a <write_i2c_byte>:

/**
 write bytes
 note: start seq is at i2c_start().
 */
void write_i2c_byte(unsigned char byte) {
     68a:	0f 93       	push	r16
     68c:	1f 93       	push	r17
     68e:	08 2f       	mov	r16, r24
	uint8 i;

	SDA_SET(); // to enable pullup.
     690:	91 9a       	sbi	0x12, 1	; 18
	SDA_DOUT();
     692:	89 9a       	sbi	0x11, 1	; 17
	SCL_CLR();
     694:	90 98       	cbi	0x12, 0	; 18
     696:	10 e0       	ldi	r17, 0x00	; 0

	for (i = 0; i < 8; i++) {
		// set data first
		if ((byte & 0x80) == 0x80)
     698:	07 ff       	sbrs	r16, 7
     69a:	02 c0       	rjmp	.+4      	; 0x6a0 <write_i2c_byte+0x16>
			SDA_SET();
     69c:	91 9a       	sbi	0x12, 1	; 18
     69e:	01 c0       	rjmp	.+2      	; 0x6a2 <write_i2c_byte+0x18>
		else
			SDA_CLR();
     6a0:	91 98       	cbi	0x12, 1	; 18
		//nops(1);
		DELAY();
     6a2:	8a e0       	ldi	r24, 0x0A	; 10
     6a4:	0e 94 09 03 	call	0x612	; 0x612 <Delay_us>

		// clk.
		SCL_SET();
     6a8:	90 9a       	sbi	0x12, 0	; 18
		byte = byte << 1; // Shift data in buffer right one
		//nops(1);			// Small Delay
		DELAY();
     6aa:	8a e0       	ldi	r24, 0x0A	; 10
     6ac:	0e 94 09 03 	call	0x612	; 0x612 <Delay_us>
		if (i == 0)
     6b0:	11 23       	and	r17, r17
     6b2:	11 f4       	brne	.+4      	; 0x6b8 <write_i2c_byte+0x2e>

void nops(unsigned char num) {
	uint8 i;

	for (i = 0; i < num; i++)
		nop();
     6b4:	00 00       	nop
     6b6:	00 00       	nop
		//nops(1);			// Small Delay
		DELAY();
		if (i == 0)
			nops(2);

		SCL_CLR();
     6b8:	90 98       	cbi	0x12, 0	; 18

	SDA_SET(); // to enable pullup.
	SDA_DOUT();
	SCL_CLR();

	for (i = 0; i < 8; i++) {
     6ba:	1f 5f       	subi	r17, 0xFF	; 255
     6bc:	18 30       	cpi	r17, 0x08	; 8
     6be:	11 f0       	breq	.+4      	; 0x6c4 <write_i2c_byte+0x3a>
		//nops(1);
		DELAY();

		// clk.
		SCL_SET();
		byte = byte << 1; // Shift data in buffer right one
     6c0:	00 0f       	add	r16, r16
     6c2:	ea cf       	rjmp	.-44     	; 0x698 <write_i2c_byte+0xe>
			nops(2);

		SCL_CLR();
	}

	SDA_SET(); // to enable pullup.
     6c4:	91 9a       	sbi	0x12, 1	; 18
	SDA_DIN();
     6c6:	89 98       	cbi	0x11, 1	; 17

	DELAY();
     6c8:	8a e0       	ldi	r24, 0x0A	; 10
     6ca:	0e 94 09 03 	call	0x612	; 0x612 <Delay_us>

	// wait ack.
	SCL_SET();
     6ce:	90 9a       	sbi	0x12, 0	; 18
	DELAY();
     6d0:	8a e0       	ldi	r24, 0x0A	; 10
     6d2:	0e 94 09 03 	call	0x612	; 0x612 <Delay_us>
	SCL_CLR();
     6d6:	90 98       	cbi	0x12, 0	; 18
	DELAY();
     6d8:	8a e0       	ldi	r24, 0x0A	; 10
     6da:	0e 94 09 03 	call	0x612	; 0x612 <Delay_us>
	//nops(45);			// Small Delay

	// wait ack.
	//if(i2c_ackn()==1)	ucNack=1;
}
     6de:	1f 91       	pop	r17
     6e0:	0f 91       	pop	r16
     6e2:	08 95       	ret

000006e4 <read_i2c_byte>:

/**
 Read ..
 */
unsigned char read_i2c_byte(unsigned char ch) {
     6e4:	ff 92       	push	r15
     6e6:	0f 93       	push	r16
     6e8:	1f 93       	push	r17
     6ea:	f8 2e       	mov	r15, r24
	uint8 i, buff = 0;

	SDA_SET(); // to enable internal pull-up : should be done..
     6ec:	91 9a       	sbi	0x12, 1	; 18
	SDA_DIN();
     6ee:	89 98       	cbi	0x11, 1	; 17
	Delay_us(5);
     6f0:	85 e0       	ldi	r24, 0x05	; 5
     6f2:	0e 94 09 03 	call	0x612	; 0x612 <Delay_us>
     6f6:	10 e0       	ldi	r17, 0x00	; 0
     6f8:	00 e0       	ldi	r16, 0x00	; 0

	for (i = 0; i < 8; i++) {
		buff <<= 1;
     6fa:	00 0f       	add	r16, r16

		SCL_SET();
     6fc:	90 9a       	sbi	0x12, 0	; 18
		//nops(3);		// Small Delay

		// Read data on SDA pin
		if (SDA_IS_HIGH()) {
     6fe:	81 99       	sbic	0x10, 1	; 16
			buff |= 0x01;
     700:	01 60       	ori	r16, 0x01	; 1
		}
		DELAY();
     702:	8a e0       	ldi	r24, 0x0A	; 10
     704:	0e 94 09 03 	call	0x612	; 0x612 <Delay_us>

		SCL_CLR();
     708:	90 98       	cbi	0x12, 0	; 18
		//nops(3);		// Small Delay
		DELAY();
     70a:	8a e0       	ldi	r24, 0x0A	; 10
     70c:	0e 94 09 03 	call	0x612	; 0x612 <Delay_us>

	SDA_SET(); // to enable internal pull-up : should be done..
	SDA_DIN();
	Delay_us(5);

	for (i = 0; i < 8; i++) {
     710:	1f 5f       	subi	r17, 0xFF	; 255
     712:	18 30       	cpi	r17, 0x08	; 8
     714:	91 f7       	brne	.-28     	; 0x6fa <read_i2c_byte+0x16>
	}

	//nops(80);			// Long Delay

	// write ack.
	SDA_DOUT();
     716:	89 9a       	sbi	0x11, 1	; 17
	if (ch == 0) // Ack
     718:	ff 20       	and	r15, r15
     71a:	11 f4       	brne	.+4      	; 0x720 <read_i2c_byte+0x3c>
			{
		SDA_CLR(); // ack..
     71c:	91 98       	cbi	0x12, 1	; 18
     71e:	01 c0       	rjmp	.+2      	; 0x722 <read_i2c_byte+0x3e>
		DELAY();
		SCL_CLR();
		SDA_CLR();
	} else // No Ack
	{
		SDA_SET();
     720:	91 9a       	sbi	0x12, 1	; 18
		SCL_SET();
     722:	90 9a       	sbi	0x12, 0	; 18
		DELAY();
     724:	8a e0       	ldi	r24, 0x0A	; 10
     726:	0e 94 09 03 	call	0x612	; 0x612 <Delay_us>
		SCL_CLR();
     72a:	90 98       	cbi	0x12, 0	; 18
		SDA_CLR();
     72c:	91 98       	cbi	0x12, 1	; 18
	}

	return buff;
}
     72e:	80 2f       	mov	r24, r16
     730:	1f 91       	pop	r17
     732:	0f 91       	pop	r16
     734:	ff 90       	pop	r15
     736:	08 95       	ret

00000738 <ds1307_initial_config>:

void ds1307_initial_config(uint8 sec, uint8 min, uint8 hour, uint8 day,
		uint8 date, uint8 month, uint8 year) {
     738:	bf 92       	push	r11
     73a:	cf 92       	push	r12
     73c:	df 92       	push	r13
     73e:	ef 92       	push	r14
     740:	ff 92       	push	r15
     742:	0f 93       	push	r16
     744:	1f 93       	push	r17
     746:	f8 2e       	mov	r15, r24
     748:	d6 2e       	mov	r13, r22
     74a:	b2 2e       	mov	r11, r18
	// Set SCL, SDA to output
	// Set SCL, SDA High
	SDA_SET();
     74c:	91 9a       	sbi	0x12, 1	; 18
	SCL_SET();
     74e:	90 9a       	sbi	0x12, 0	; 18

	SDA_DOUT();
     750:	89 9a       	sbi	0x11, 1	; 17
	SCL_DOUT();
     752:	88 9a       	sbi	0x11, 0	; 17

	uint8 _sec, _min, _hour, _day, _date, _month, _year;

	_sec = (sec / 10) << 4 | sec % 10;
	_min = (min / 10) << 4 | min % 10;
	if (hour >= 12) {
     754:	4c 30       	cpi	r20, 0x0C	; 12
     756:	b8 f0       	brcs	.+46     	; 0x786 <ds1307_initial_config+0x4e>
		_hour = 1 << 5 | ((hour - 12) / 10) << 4 | (hour - 12) % 10;
     758:	24 2f       	mov	r18, r20
     75a:	30 e0       	ldi	r19, 0x00	; 0
     75c:	2c 50       	subi	r18, 0x0C	; 12
     75e:	30 40       	sbci	r19, 0x00	; 0
     760:	c9 01       	movw	r24, r18
     762:	6a e0       	ldi	r22, 0x0A	; 10
     764:	70 e0       	ldi	r23, 0x00	; 0
     766:	0e 94 38 26 	call	0x4c70	; 0x4c70 <__divmodhi4>
     76a:	18 2f       	mov	r17, r24
     76c:	10 62       	ori	r17, 0x20	; 32
     76e:	c9 01       	movw	r24, r18
     770:	6a e0       	ldi	r22, 0x0A	; 10
     772:	70 e0       	ldi	r23, 0x00	; 0
     774:	0e 94 38 26 	call	0x4c70	; 0x4c70 <__divmodhi4>
     778:	f4 e0       	ldi	r31, 0x04	; 4
     77a:	66 0f       	add	r22, r22
     77c:	77 1f       	adc	r23, r23
     77e:	fa 95       	dec	r31
     780:	e1 f7       	brne	.-8      	; 0x77a <ds1307_initial_config+0x42>
     782:	16 2b       	or	r17, r22
     784:	10 c0       	rjmp	.+32     	; 0x7a6 <ds1307_initial_config+0x6e>
	} else {
		_hour = (hour / 10) << 4 | hour % 10;
     786:	84 2f       	mov	r24, r20
     788:	6a e0       	ldi	r22, 0x0A	; 10
     78a:	0e 94 2c 26 	call	0x4c58	; 0x4c58 <__udivmodqi4>
     78e:	28 2f       	mov	r18, r24
     790:	30 e0       	ldi	r19, 0x00	; 0
     792:	e4 e0       	ldi	r30, 0x04	; 4
     794:	22 0f       	add	r18, r18
     796:	33 1f       	adc	r19, r19
     798:	ea 95       	dec	r30
     79a:	e1 f7       	brne	.-8      	; 0x794 <ds1307_initial_config+0x5c>
     79c:	84 2f       	mov	r24, r20
     79e:	0e 94 2c 26 	call	0x4c58	; 0x4c58 <__udivmodqi4>
     7a2:	19 2f       	mov	r17, r25
     7a4:	12 2b       	or	r17, r18
	_day = day;
	_date = (date / 10) << 4 | date % 10;
	_month = (month / 10) << 4 | month % 10;
	_year = ((year % 100) / 10) << 4 | year % 10;

	i2c_start();
     7a6:	0e 94 2c 03 	call	0x658	; 0x658 <i2c_start>
	write_i2c_byte(0xD0);
     7aa:	80 ed       	ldi	r24, 0xD0	; 208
     7ac:	0e 94 45 03 	call	0x68a	; 0x68a <write_i2c_byte>
	write_i2c_byte(0x00); // Start
     7b0:	80 e0       	ldi	r24, 0x00	; 0
     7b2:	0e 94 45 03 	call	0x68a	; 0x68a <write_i2c_byte>
	write_i2c_byte(_sec); // sec
     7b6:	8f 2d       	mov	r24, r15
     7b8:	6a e0       	ldi	r22, 0x0A	; 10
     7ba:	0e 94 2c 26 	call	0x4c58	; 0x4c58 <__udivmodqi4>
     7be:	28 2f       	mov	r18, r24
     7c0:	30 e0       	ldi	r19, 0x00	; 0
     7c2:	74 e0       	ldi	r23, 0x04	; 4
     7c4:	22 0f       	add	r18, r18
     7c6:	33 1f       	adc	r19, r19
     7c8:	7a 95       	dec	r23
     7ca:	e1 f7       	brne	.-8      	; 0x7c4 <ds1307_initial_config+0x8c>
     7cc:	8f 2d       	mov	r24, r15
     7ce:	0e 94 2c 26 	call	0x4c58	; 0x4c58 <__udivmodqi4>
     7d2:	89 2f       	mov	r24, r25
     7d4:	82 2b       	or	r24, r18
     7d6:	0e 94 45 03 	call	0x68a	; 0x68a <write_i2c_byte>
	write_i2c_byte(_min); // min
     7da:	8d 2d       	mov	r24, r13
     7dc:	6a e0       	ldi	r22, 0x0A	; 10
     7de:	0e 94 2c 26 	call	0x4c58	; 0x4c58 <__udivmodqi4>
     7e2:	28 2f       	mov	r18, r24
     7e4:	30 e0       	ldi	r19, 0x00	; 0
     7e6:	54 e0       	ldi	r21, 0x04	; 4
     7e8:	22 0f       	add	r18, r18
     7ea:	33 1f       	adc	r19, r19
     7ec:	5a 95       	dec	r21
     7ee:	e1 f7       	brne	.-8      	; 0x7e8 <ds1307_initial_config+0xb0>
     7f0:	8d 2d       	mov	r24, r13
     7f2:	0e 94 2c 26 	call	0x4c58	; 0x4c58 <__udivmodqi4>
     7f6:	89 2f       	mov	r24, r25
     7f8:	82 2b       	or	r24, r18
     7fa:	0e 94 45 03 	call	0x68a	; 0x68a <write_i2c_byte>
	write_i2c_byte(_hour); // hr
     7fe:	81 2f       	mov	r24, r17
     800:	0e 94 45 03 	call	0x68a	; 0x68a <write_i2c_byte>
	write_i2c_byte(_day); // day of week
     804:	8b 2d       	mov	r24, r11
     806:	0e 94 45 03 	call	0x68a	; 0x68a <write_i2c_byte>
	write_i2c_byte(_date); // dt
     80a:	80 2f       	mov	r24, r16
     80c:	6a e0       	ldi	r22, 0x0A	; 10
     80e:	0e 94 2c 26 	call	0x4c58	; 0x4c58 <__udivmodqi4>
     812:	28 2f       	mov	r18, r24
     814:	30 e0       	ldi	r19, 0x00	; 0
     816:	44 e0       	ldi	r20, 0x04	; 4
     818:	22 0f       	add	r18, r18
     81a:	33 1f       	adc	r19, r19
     81c:	4a 95       	dec	r20
     81e:	e1 f7       	brne	.-8      	; 0x818 <ds1307_initial_config+0xe0>
     820:	80 2f       	mov	r24, r16
     822:	0e 94 2c 26 	call	0x4c58	; 0x4c58 <__udivmodqi4>
     826:	89 2f       	mov	r24, r25
     828:	82 2b       	or	r24, r18
     82a:	0e 94 45 03 	call	0x68a	; 0x68a <write_i2c_byte>
	write_i2c_byte(_month); // mon
     82e:	8e 2d       	mov	r24, r14
     830:	6a e0       	ldi	r22, 0x0A	; 10
     832:	0e 94 2c 26 	call	0x4c58	; 0x4c58 <__udivmodqi4>
     836:	28 2f       	mov	r18, r24
     838:	30 e0       	ldi	r19, 0x00	; 0
     83a:	94 e0       	ldi	r25, 0x04	; 4
     83c:	22 0f       	add	r18, r18
     83e:	33 1f       	adc	r19, r19
     840:	9a 95       	dec	r25
     842:	e1 f7       	brne	.-8      	; 0x83c <ds1307_initial_config+0x104>
     844:	8e 2d       	mov	r24, r14
     846:	0e 94 2c 26 	call	0x4c58	; 0x4c58 <__udivmodqi4>
     84a:	89 2f       	mov	r24, r25
     84c:	82 2b       	or	r24, r18
     84e:	0e 94 45 03 	call	0x68a	; 0x68a <write_i2c_byte>
	write_i2c_byte(_year); // yr
     852:	8c 2d       	mov	r24, r12
     854:	64 e6       	ldi	r22, 0x64	; 100
     856:	0e 94 2c 26 	call	0x4c58	; 0x4c58 <__udivmodqi4>
     85a:	89 2f       	mov	r24, r25
     85c:	6a e0       	ldi	r22, 0x0A	; 10
     85e:	0e 94 2c 26 	call	0x4c58	; 0x4c58 <__udivmodqi4>
     862:	28 2f       	mov	r18, r24
     864:	30 e0       	ldi	r19, 0x00	; 0
     866:	84 e0       	ldi	r24, 0x04	; 4
     868:	22 0f       	add	r18, r18
     86a:	33 1f       	adc	r19, r19
     86c:	8a 95       	dec	r24
     86e:	e1 f7       	brne	.-8      	; 0x868 <ds1307_initial_config+0x130>
     870:	8c 2d       	mov	r24, r12
     872:	0e 94 2c 26 	call	0x4c58	; 0x4c58 <__udivmodqi4>
     876:	89 2f       	mov	r24, r25
     878:	82 2b       	or	r24, r18
     87a:	0e 94 45 03 	call	0x68a	; 0x68a <write_i2c_byte>
	write_i2c_byte(0x10); // sqwe
     87e:	80 e1       	ldi	r24, 0x10	; 16
     880:	0e 94 45 03 	call	0x68a	; 0x68a <write_i2c_byte>
	i2c_stop();
     884:	0e 94 39 03 	call	0x672	; 0x672 <i2c_stop>

}
     888:	1f 91       	pop	r17
     88a:	0f 91       	pop	r16
     88c:	ff 90       	pop	r15
     88e:	ef 90       	pop	r14
     890:	df 90       	pop	r13
     892:	cf 90       	pop	r12
     894:	bf 90       	pop	r11
     896:	08 95       	ret

00000898 <ds1307_init>:

void ds1307_init(void) {
	// Set SCL, SDA to output
	// Set SCL, SDA High
	SDA_SET();
     898:	91 9a       	sbi	0x12, 1	; 18
	SCL_SET();
     89a:	90 9a       	sbi	0x12, 0	; 18

	SDA_DOUT();
     89c:	89 9a       	sbi	0x11, 1	; 17
	SCL_DOUT();
     89e:	88 9a       	sbi	0x11, 0	; 17
}
     8a0:	08 95       	ret

000008a2 <ds1307_read>:
	i2c_stop();

	return 0;
}
#else
int ds1307_read(uint8 address) {
     8a2:	0f 93       	push	r16
     8a4:	1f 93       	push	r17
     8a6:	08 2f       	mov	r16, r24
	uint8 buffer;

	i2c_start();
     8a8:	0e 94 2c 03 	call	0x658	; 0x658 <i2c_start>
	write_i2c_byte(0xD0);
     8ac:	80 ed       	ldi	r24, 0xD0	; 208
     8ae:	0e 94 45 03 	call	0x68a	; 0x68a <write_i2c_byte>
	write_i2c_byte(address);
     8b2:	80 2f       	mov	r24, r16
     8b4:	0e 94 45 03 	call	0x68a	; 0x68a <write_i2c_byte>
	i2c_stop();
     8b8:	0e 94 39 03 	call	0x672	; 0x672 <i2c_stop>

	i2c_start();
     8bc:	0e 94 2c 03 	call	0x658	; 0x658 <i2c_start>
	write_i2c_byte(0xD1); // Data Read - slave transmitter mode
     8c0:	81 ed       	ldi	r24, 0xD1	; 209
     8c2:	0e 94 45 03 	call	0x68a	; 0x68a <write_i2c_byte>
	DELAY();
     8c6:	8a e0       	ldi	r24, 0x0A	; 10
     8c8:	0e 94 09 03 	call	0x612	; 0x612 <Delay_us>

	buffer = read_i2c_byte(0); // with ack.
     8cc:	80 e0       	ldi	r24, 0x00	; 0
     8ce:	0e 94 72 03 	call	0x6e4	; 0x6e4 <read_i2c_byte>
     8d2:	18 2f       	mov	r17, r24
	i2c_stop();
     8d4:	0e 94 39 03 	call	0x672	; 0x672 <i2c_stop>

	switch (address) {
     8d8:	02 30       	cpi	r16, 0x02	; 2
     8da:	39 f0       	breq	.+14     	; 0x8ea <ds1307_read+0x48>
     8dc:	02 30       	cpi	r16, 0x02	; 2
     8de:	38 f1       	brcs	.+78     	; 0x92e <ds1307_read+0x8c>
     8e0:	03 30       	cpi	r16, 0x03	; 3
     8e2:	79 f1       	breq	.+94     	; 0x942 <ds1307_read+0xa0>
     8e4:	07 30       	cpi	r16, 0x07	; 7
     8e6:	80 f5       	brcc	.+96     	; 0x948 <ds1307_read+0xa6>
     8e8:	22 c0       	rjmp	.+68     	; 0x92e <ds1307_read+0x8c>
	case 2: //hour
		if ((buffer & 0x40) == 0) //12 hour, am/pm
     8ea:	81 2f       	mov	r24, r17
     8ec:	90 e0       	ldi	r25, 0x00	; 0
     8ee:	16 fd       	sbrc	r17, 6
     8f0:	19 c0       	rjmp	.+50     	; 0x924 <ds1307_read+0x82>
     8f2:	41 2f       	mov	r20, r17
     8f4:	4f 70       	andi	r20, 0x0F	; 15
     8f6:	9c 01       	movw	r18, r24
     8f8:	20 71       	andi	r18, 0x10	; 16
     8fa:	30 70       	andi	r19, 0x00	; 0
			if ((buffer & 0x20) == 0)
     8fc:	15 fd       	sbrc	r17, 5
				return buffer = ((buffer & 0x10) >> 4) * 10 + (buffer & 0x0F);
			else
				return buffer = 12 + ((buffer & 0x10) >> 4) * 10 + (buffer & 0x0F);
     8fe:	44 5f       	subi	r20, 0xF4	; 244
     900:	c9 01       	movw	r24, r18
     902:	14 e0       	ldi	r17, 0x04	; 4
     904:	95 95       	asr	r25
     906:	87 95       	ror	r24
     908:	1a 95       	dec	r17
     90a:	e1 f7       	brne	.-8      	; 0x904 <ds1307_read+0x62>
     90c:	9c 01       	movw	r18, r24
     90e:	b3 e0       	ldi	r27, 0x03	; 3
     910:	22 0f       	add	r18, r18
     912:	33 1f       	adc	r19, r19
     914:	ba 95       	dec	r27
     916:	e1 f7       	brne	.-8      	; 0x910 <ds1307_read+0x6e>
     918:	88 0f       	add	r24, r24
     91a:	99 1f       	adc	r25, r25
     91c:	28 0f       	add	r18, r24
     91e:	39 1f       	adc	r19, r25
     920:	42 0f       	add	r20, r18
     922:	13 c0       	rjmp	.+38     	; 0x94a <ds1307_read+0xa8>
		else
			//24hour
			return buffer = ((buffer & 0x30) >> 4) * 10 + (buffer & 0x0F);
     924:	41 2f       	mov	r20, r17
     926:	4f 70       	andi	r20, 0x0F	; 15
     928:	80 73       	andi	r24, 0x30	; 48
     92a:	90 70       	andi	r25, 0x00	; 0
     92c:	ea cf       	rjmp	.-44     	; 0x902 <ds1307_read+0x60>
	case 0: //sec
	case 1: //min
	case 4: //day
	case 5: //month
	case 6: //year
		return buffer = (buffer >> 4) * 10 + (buffer & 0x0F);
     92e:	91 2f       	mov	r25, r17
     930:	92 95       	swap	r25
     932:	9f 70       	andi	r25, 0x0F	; 15
     934:	8a e0       	ldi	r24, 0x0A	; 10
     936:	98 9f       	mul	r25, r24
     938:	40 2d       	mov	r20, r0
     93a:	11 24       	eor	r1, r1
     93c:	1f 70       	andi	r17, 0x0F	; 15
     93e:	41 0f       	add	r20, r17
     940:	04 c0       	rjmp	.+8      	; 0x94a <ds1307_read+0xa8>
		break;
	case 3: //dayOfWeak
		return buffer = buffer & 0x0F;
     942:	41 2f       	mov	r20, r17
     944:	4f 70       	andi	r20, 0x0F	; 15
     946:	01 c0       	rjmp	.+2      	; 0x94a <ds1307_read+0xa8>
		break;
	}

	return buffer;
     948:	41 2f       	mov	r20, r17
}
     94a:	84 2f       	mov	r24, r20
     94c:	90 e0       	ldi	r25, 0x00	; 0
     94e:	1f 91       	pop	r17
     950:	0f 91       	pop	r16
     952:	08 95       	ret

00000954 <debug_ReadLog>:
void debug_UpdateLog(){
	eeprom_write_block(&debug_DebugInfo, &debugInfo, sizeof(DebugInfo_st));	
}

void debug_ReadLog(){
	eeprom_read_block(&debug_DebugInfo, &debugInfo, sizeof(DebugInfo_st));
     954:	81 e0       	ldi	r24, 0x01	; 1
     956:	92 e0       	ldi	r25, 0x02	; 2
     958:	60 e0       	ldi	r22, 0x00	; 0
     95a:	70 e0       	ldi	r23, 0x00	; 0
     95c:	4e e0       	ldi	r20, 0x0E	; 14
     95e:	50 e0       	ldi	r21, 0x00	; 0
     960:	0e 94 de 2c 	call	0x59bc	; 0x59bc <__eerd_block_m128>
}
     964:	08 95       	ret

00000966 <debug_UpdateLog>:
#include "ds1307_i2c.h"

DebugInfo_st debugInfo EEMEM;

void debug_UpdateLog(){
	eeprom_write_block(&debug_DebugInfo, &debugInfo, sizeof(DebugInfo_st));	
     966:	81 e0       	ldi	r24, 0x01	; 1
     968:	92 e0       	ldi	r25, 0x02	; 2
     96a:	60 e0       	ldi	r22, 0x00	; 0
     96c:	70 e0       	ldi	r23, 0x00	; 0
     96e:	4e e0       	ldi	r20, 0x0E	; 14
     970:	50 e0       	ldi	r21, 0x00	; 0
     972:	0e 94 fc 2c 	call	0x59f8	; 0x59f8 <__eewr_block_m128>
}
     976:	08 95       	ret

00000978 <debug_UpdateConnection>:
	debug_DebugInfo.lastRebootTime[4] = ds1307_read(1);	
	debug_UpdateLog();
}

void debug_UpdateConnection(){
	debug_DebugInfo.serverConnectionCnt++;
     978:	80 91 08 02 	lds	r24, 0x0208
     97c:	90 91 09 02 	lds	r25, 0x0209
     980:	01 96       	adiw	r24, 0x01	; 1
     982:	90 93 09 02 	sts	0x0209, r25
     986:	80 93 08 02 	sts	0x0208, r24
	debug_DebugInfo.lastServerConnectionTime[0] = ds1307_read(6);
     98a:	86 e0       	ldi	r24, 0x06	; 6
     98c:	90 e0       	ldi	r25, 0x00	; 0
     98e:	0e 94 51 04 	call	0x8a2	; 0x8a2 <ds1307_read>
     992:	80 93 0a 02 	sts	0x020A, r24
	debug_DebugInfo.lastServerConnectionTime[1] = ds1307_read(5);
     996:	85 e0       	ldi	r24, 0x05	; 5
     998:	90 e0       	ldi	r25, 0x00	; 0
     99a:	0e 94 51 04 	call	0x8a2	; 0x8a2 <ds1307_read>
     99e:	80 93 0b 02 	sts	0x020B, r24
	debug_DebugInfo.lastServerConnectionTime[2] = ds1307_read(4);
     9a2:	84 e0       	ldi	r24, 0x04	; 4
     9a4:	90 e0       	ldi	r25, 0x00	; 0
     9a6:	0e 94 51 04 	call	0x8a2	; 0x8a2 <ds1307_read>
     9aa:	80 93 0c 02 	sts	0x020C, r24
	debug_DebugInfo.lastServerConnectionTime[3] = ds1307_read(2);
     9ae:	82 e0       	ldi	r24, 0x02	; 2
     9b0:	90 e0       	ldi	r25, 0x00	; 0
     9b2:	0e 94 51 04 	call	0x8a2	; 0x8a2 <ds1307_read>
     9b6:	80 93 0d 02 	sts	0x020D, r24
	debug_DebugInfo.lastServerConnectionTime[4] = ds1307_read(1);	
     9ba:	81 e0       	ldi	r24, 0x01	; 1
     9bc:	90 e0       	ldi	r25, 0x00	; 0
     9be:	0e 94 51 04 	call	0x8a2	; 0x8a2 <ds1307_read>
     9c2:	80 93 0e 02 	sts	0x020E, r24
#include "ds1307_i2c.h"

DebugInfo_st debugInfo EEMEM;

void debug_UpdateLog(){
	eeprom_write_block(&debug_DebugInfo, &debugInfo, sizeof(DebugInfo_st));	
     9c6:	81 e0       	ldi	r24, 0x01	; 1
     9c8:	92 e0       	ldi	r25, 0x02	; 2
     9ca:	60 e0       	ldi	r22, 0x00	; 0
     9cc:	70 e0       	ldi	r23, 0x00	; 0
     9ce:	4e e0       	ldi	r20, 0x0E	; 14
     9d0:	50 e0       	ldi	r21, 0x00	; 0
     9d2:	0e 94 fc 2c 	call	0x59f8	; 0x59f8 <__eewr_block_m128>
	debug_DebugInfo.lastServerConnectionTime[1] = ds1307_read(5);
	debug_DebugInfo.lastServerConnectionTime[2] = ds1307_read(4);
	debug_DebugInfo.lastServerConnectionTime[3] = ds1307_read(2);
	debug_DebugInfo.lastServerConnectionTime[4] = ds1307_read(1);	
	debug_UpdateLog();
}
     9d6:	08 95       	ret

000009d8 <debug_UpdateReboot>:
	}
	debug_UpdateLog();
}

void debug_UpdateReboot(){	
	debug_DebugInfo.rebootCnt++;
     9d8:	80 91 01 02 	lds	r24, 0x0201
     9dc:	90 91 02 02 	lds	r25, 0x0202
     9e0:	01 96       	adiw	r24, 0x01	; 1
     9e2:	90 93 02 02 	sts	0x0202, r25
     9e6:	80 93 01 02 	sts	0x0201, r24
	debug_DebugInfo.lastRebootTime[0] = ds1307_read(6);
     9ea:	86 e0       	ldi	r24, 0x06	; 6
     9ec:	90 e0       	ldi	r25, 0x00	; 0
     9ee:	0e 94 51 04 	call	0x8a2	; 0x8a2 <ds1307_read>
     9f2:	80 93 03 02 	sts	0x0203, r24
	debug_DebugInfo.lastRebootTime[1] = ds1307_read(5);
     9f6:	85 e0       	ldi	r24, 0x05	; 5
     9f8:	90 e0       	ldi	r25, 0x00	; 0
     9fa:	0e 94 51 04 	call	0x8a2	; 0x8a2 <ds1307_read>
     9fe:	80 93 04 02 	sts	0x0204, r24
	debug_DebugInfo.lastRebootTime[2] = ds1307_read(4);
     a02:	84 e0       	ldi	r24, 0x04	; 4
     a04:	90 e0       	ldi	r25, 0x00	; 0
     a06:	0e 94 51 04 	call	0x8a2	; 0x8a2 <ds1307_read>
     a0a:	80 93 05 02 	sts	0x0205, r24
	debug_DebugInfo.lastRebootTime[3] = ds1307_read(2);
     a0e:	82 e0       	ldi	r24, 0x02	; 2
     a10:	90 e0       	ldi	r25, 0x00	; 0
     a12:	0e 94 51 04 	call	0x8a2	; 0x8a2 <ds1307_read>
     a16:	80 93 06 02 	sts	0x0206, r24
	debug_DebugInfo.lastRebootTime[4] = ds1307_read(1);	
     a1a:	81 e0       	ldi	r24, 0x01	; 1
     a1c:	90 e0       	ldi	r25, 0x00	; 0
     a1e:	0e 94 51 04 	call	0x8a2	; 0x8a2 <ds1307_read>
     a22:	80 93 07 02 	sts	0x0207, r24
#include "ds1307_i2c.h"

DebugInfo_st debugInfo EEMEM;

void debug_UpdateLog(){
	eeprom_write_block(&debug_DebugInfo, &debugInfo, sizeof(DebugInfo_st));	
     a26:	81 e0       	ldi	r24, 0x01	; 1
     a28:	92 e0       	ldi	r25, 0x02	; 2
     a2a:	60 e0       	ldi	r22, 0x00	; 0
     a2c:	70 e0       	ldi	r23, 0x00	; 0
     a2e:	4e e0       	ldi	r20, 0x0E	; 14
     a30:	50 e0       	ldi	r21, 0x00	; 0
     a32:	0e 94 fc 2c 	call	0x59f8	; 0x59f8 <__eewr_block_m128>
	debug_DebugInfo.lastRebootTime[1] = ds1307_read(5);
	debug_DebugInfo.lastRebootTime[2] = ds1307_read(4);
	debug_DebugInfo.lastRebootTime[3] = ds1307_read(2);
	debug_DebugInfo.lastRebootTime[4] = ds1307_read(1);	
	debug_UpdateLog();
}
     a36:	08 95       	ret

00000a38 <debug_Reset>:
	eeprom_read_block(&debug_DebugInfo, &debugInfo, sizeof(DebugInfo_st));
}

void debug_Reset(){
	uint8 i=0;
	debug_DebugInfo.rebootCnt=0;
     a38:	10 92 02 02 	sts	0x0202, r1
     a3c:	10 92 01 02 	sts	0x0201, r1
	debug_DebugInfo.serverConnectionCnt=0;
     a40:	10 92 09 02 	sts	0x0209, r1
     a44:	10 92 08 02 	sts	0x0208, r1
     a48:	e3 e0       	ldi	r30, 0x03	; 3
     a4a:	f2 e0       	ldi	r31, 0x02	; 2
	for(i=0; i <5; i++){
		debug_DebugInfo.lastRebootTime[i]=0;
     a4c:	10 82       	st	Z, r1
		debug_DebugInfo.lastServerConnectionTime[i]=0;
     a4e:	17 82       	std	Z+7, r1	; 0x07
     a50:	31 96       	adiw	r30, 0x01	; 1

void debug_Reset(){
	uint8 i=0;
	debug_DebugInfo.rebootCnt=0;
	debug_DebugInfo.serverConnectionCnt=0;
	for(i=0; i <5; i++){
     a52:	82 e0       	ldi	r24, 0x02	; 2
     a54:	e8 30       	cpi	r30, 0x08	; 8
     a56:	f8 07       	cpc	r31, r24
     a58:	c9 f7       	brne	.-14     	; 0xa4c <debug_Reset+0x14>
#include "ds1307_i2c.h"

DebugInfo_st debugInfo EEMEM;

void debug_UpdateLog(){
	eeprom_write_block(&debug_DebugInfo, &debugInfo, sizeof(DebugInfo_st));	
     a5a:	cf 01       	movw	r24, r30
     a5c:	07 97       	sbiw	r24, 0x07	; 7
     a5e:	60 e0       	ldi	r22, 0x00	; 0
     a60:	70 e0       	ldi	r23, 0x00	; 0
     a62:	4e e0       	ldi	r20, 0x0E	; 14
     a64:	50 e0       	ldi	r21, 0x00	; 0
     a66:	0e 94 fc 2c 	call	0x59f8	; 0x59f8 <__eewr_block_m128>
	for(i=0; i <5; i++){
		debug_DebugInfo.lastRebootTime[i]=0;
		debug_DebugInfo.lastServerConnectionTime[i]=0;
	}
	debug_UpdateLog();
}
     a6a:	08 95       	ret

00000a6c <initDeviceTable>:
// ---------------------------------------------------------------------------------------------- //
// ------------------ Initialize Mapping Table  ------------------------------------------------------- //
// ---------------------------------------------------------------------------------------------- //
void initDeviceTable()
{
	deviceInfoTable.size = 0;
     a6c:	10 92 89 02 	sts	0x0289, r1
}
     a70:	08 95       	ret

00000a72 <findNodeById>:

// ---------------------------------------------------------------------------------------------- //
// ------------------ Find Node Mapping Table  ------------------------------------------------------ //
// ---------------------------------------------------------------------------------------------- //
device_Info *findNodeById(uint16 node_Id)
{
     a72:	ac 01       	movw	r20, r24
	uint8 i=0;
	for(i=0; i < deviceInfoTable.size; i++) {
     a74:	30 91 89 02 	lds	r19, 0x0289
     a78:	e1 e1       	ldi	r30, 0x11	; 17
     a7a:	f2 e0       	ldi	r31, 0x02	; 2
     a7c:	20 e0       	ldi	r18, 0x00	; 0
     a7e:	0e c0       	rjmp	.+28     	; 0xa9c <findNodeById+0x2a>
		if(deviceInfoTable.deviceInfo[i].nodeId == node_Id) return &(deviceInfoTable.deviceInfo[i]);
     a80:	80 81       	ld	r24, Z
     a82:	91 81       	ldd	r25, Z+1	; 0x01
     a84:	36 96       	adiw	r30, 0x06	; 6
     a86:	84 17       	cp	r24, r20
     a88:	95 07       	cpc	r25, r21
     a8a:	39 f4       	brne	.+14     	; 0xa9a <findNodeById+0x28>
     a8c:	86 e0       	ldi	r24, 0x06	; 6
     a8e:	28 9f       	mul	r18, r24
     a90:	90 01       	movw	r18, r0
     a92:	11 24       	eor	r1, r1
     a94:	2f 5e       	subi	r18, 0xEF	; 239
     a96:	3d 4f       	sbci	r19, 0xFD	; 253
     a98:	05 c0       	rjmp	.+10     	; 0xaa4 <findNodeById+0x32>
// ------------------ Find Node Mapping Table  ------------------------------------------------------ //
// ---------------------------------------------------------------------------------------------- //
device_Info *findNodeById(uint16 node_Id)
{
	uint8 i=0;
	for(i=0; i < deviceInfoTable.size; i++) {
     a9a:	2f 5f       	subi	r18, 0xFF	; 255
     a9c:	23 17       	cp	r18, r19
     a9e:	80 f3       	brcs	.-32     	; 0xa80 <findNodeById+0xe>
     aa0:	20 e0       	ldi	r18, 0x00	; 0
     aa2:	30 e0       	ldi	r19, 0x00	; 0
		if(deviceInfoTable.deviceInfo[i].nodeId == node_Id) return &(deviceInfoTable.deviceInfo[i]);
	}
	return NULL;
}
     aa4:	c9 01       	movw	r24, r18
     aa6:	08 95       	ret

00000aa8 <isContainNodeOfId>:

int isContainNodeOfId(uint16 nodeId)
{
     aa8:	ac 01       	movw	r20, r24
	uint8 i=0;
	for(i=0; i < deviceInfoTable.size; i++)
     aaa:	30 91 89 02 	lds	r19, 0x0289
     aae:	e1 e1       	ldi	r30, 0x11	; 17
     ab0:	f2 e0       	ldi	r31, 0x02	; 2
     ab2:	20 e0       	ldi	r18, 0x00	; 0
     ab4:	0a c0       	rjmp	.+20     	; 0xaca <isContainNodeOfId+0x22>
		if(deviceInfoTable.deviceInfo[i].nodeId == nodeId) return 1;
     ab6:	80 81       	ld	r24, Z
     ab8:	91 81       	ldd	r25, Z+1	; 0x01
     aba:	36 96       	adiw	r30, 0x06	; 6
     abc:	84 17       	cp	r24, r20
     abe:	95 07       	cpc	r25, r21
     ac0:	19 f4       	brne	.+6      	; 0xac8 <isContainNodeOfId+0x20>
     ac2:	21 e0       	ldi	r18, 0x01	; 1
     ac4:	30 e0       	ldi	r19, 0x00	; 0
     ac6:	05 c0       	rjmp	.+10     	; 0xad2 <isContainNodeOfId+0x2a>
}

int isContainNodeOfId(uint16 nodeId)
{
	uint8 i=0;
	for(i=0; i < deviceInfoTable.size; i++)
     ac8:	2f 5f       	subi	r18, 0xFF	; 255
     aca:	23 17       	cp	r18, r19
     acc:	a0 f3       	brcs	.-24     	; 0xab6 <isContainNodeOfId+0xe>
     ace:	20 e0       	ldi	r18, 0x00	; 0
     ad0:	30 e0       	ldi	r19, 0x00	; 0
		if(deviceInfoTable.deviceInfo[i].nodeId == nodeId) return 1;
	return 0;
}
     ad2:	c9 01       	movw	r24, r18
     ad4:	08 95       	ret

00000ad6 <addDeviceTable>:
// ------------------ Add & Update Mapping Table  --------------------------------------------------- //
// ---------------------------------------------------------------------------------------------- //
device_Info *addDeviceTable(uint16 node_Id, uint8 device_version, uint8 fw_version)
{
	uint8 i = 0;
	deviceInfoTable.deviceInfo[deviceInfoTable.size].nodeId = node_Id;
     ad6:	50 91 89 02 	lds	r21, 0x0289
     ada:	25 2f       	mov	r18, r21
     adc:	30 e0       	ldi	r19, 0x00	; 0
     ade:	f9 01       	movw	r30, r18
     ae0:	ee 0f       	add	r30, r30
     ae2:	ff 1f       	adc	r31, r31
     ae4:	e2 0f       	add	r30, r18
     ae6:	f3 1f       	adc	r31, r19
     ae8:	ee 0f       	add	r30, r30
     aea:	ff 1f       	adc	r31, r31
     aec:	ef 5e       	subi	r30, 0xEF	; 239
     aee:	fd 4f       	sbci	r31, 0xFD	; 253
     af0:	91 83       	std	Z+1, r25	; 0x01
     af2:	80 83       	st	Z, r24
	deviceInfoTable.deviceInfo[deviceInfoTable.size].deviceVersion = device_version;
     af4:	64 83       	std	Z+4, r22	; 0x04
	deviceInfoTable.deviceInfo[deviceInfoTable.size].fwVersion = fw_version;
     af6:	45 83       	std	Z+5, r20	; 0x05
	deviceInfoTable.size++;
     af8:	5f 5f       	subi	r21, 0xFF	; 255
     afa:	50 93 89 02 	sts	0x0289, r21

	return NULL;
}
     afe:	80 e0       	ldi	r24, 0x00	; 0
     b00:	90 e0       	ldi	r25, 0x00	; 0
     b02:	08 95       	ret

00000b04 <updateDeviceTable>:



int updateDeviceTable(uint16 node_Id, uint8 device_version, uint8 fw_version)
{
     b04:	0f 93       	push	r16
     b06:	1f 93       	push	r17
     b08:	cf 93       	push	r28
     b0a:	df 93       	push	r29
     b0c:	ec 01       	movw	r28, r24
     b0e:	16 2f       	mov	r17, r22
     b10:	04 2f       	mov	r16, r20
	device_Info *pUpdate;

	if(((pUpdate = findNodeById(node_Id)) != NULL))
     b12:	0e 94 39 05 	call	0xa72	; 0xa72 <findNodeById>
     b16:	fc 01       	movw	r30, r24
     b18:	00 97       	sbiw	r24, 0x00	; 0
     b1a:	19 f0       	breq	.+6      	; 0xb22 <updateDeviceTable+0x1e>
	{
		pUpdate->deviceVersion = device_version;
     b1c:	14 83       	std	Z+4, r17	; 0x04
		pUpdate->fwVersion = fw_version;
     b1e:	05 83       	std	Z+5, r16	; 0x05
     b20:	20 c0       	rjmp	.+64     	; 0xb62 <updateDeviceTable+0x5e>
// ------------------ Add & Update Mapping Table  --------------------------------------------------- //
// ---------------------------------------------------------------------------------------------- //
device_Info *addDeviceTable(uint16 node_Id, uint8 device_version, uint8 fw_version)
{
	uint8 i = 0;
	deviceInfoTable.deviceInfo[deviceInfoTable.size].nodeId = node_Id;
     b22:	20 91 89 02 	lds	r18, 0x0289
     b26:	82 2f       	mov	r24, r18
     b28:	90 e0       	ldi	r25, 0x00	; 0
     b2a:	fc 01       	movw	r30, r24
     b2c:	ee 0f       	add	r30, r30
     b2e:	ff 1f       	adc	r31, r31
     b30:	e8 0f       	add	r30, r24
     b32:	f9 1f       	adc	r31, r25
     b34:	ee 0f       	add	r30, r30
     b36:	ff 1f       	adc	r31, r31
     b38:	ef 5e       	subi	r30, 0xEF	; 239
     b3a:	fd 4f       	sbci	r31, 0xFD	; 253
     b3c:	d1 83       	std	Z+1, r29	; 0x01
     b3e:	c0 83       	st	Z, r28
	deviceInfoTable.deviceInfo[deviceInfoTable.size].deviceVersion = device_version;
     b40:	14 83       	std	Z+4, r17	; 0x04
	deviceInfoTable.deviceInfo[deviceInfoTable.size].fwVersion = fw_version;
     b42:	05 83       	std	Z+5, r16	; 0x05
	deviceInfoTable.size++;
     b44:	2f 5f       	subi	r18, 0xFF	; 255
     b46:	20 93 89 02 	sts	0x0289, r18
    milliseconds can be achieved.
 */
void
_delay_loop_2(uint16_t __count)
{
	__asm__ volatile (
     b4a:	80 ee       	ldi	r24, 0xE0	; 224
     b4c:	9e e2       	ldi	r25, 0x2E	; 46
     b4e:	01 97       	sbiw	r24, 0x01	; 1
     b50:	f1 f7       	brne	.-4      	; 0xb4e <updateDeviceTable+0x4a>
	else
	{
		addDeviceTable(node_Id, device_version, fw_version);
		MSLEEP(3);
	}
	pUpdate = findNodeById(node_Id);
     b52:	ce 01       	movw	r24, r28
     b54:	0e 94 39 05 	call	0xa72	; 0xa72 <findNodeById>
	pUpdate->deviceType = PLCS_LC_100Z_TYPE;
     b58:	20 e1       	ldi	r18, 0x10	; 16
     b5a:	30 e2       	ldi	r19, 0x20	; 32
     b5c:	fc 01       	movw	r30, r24
     b5e:	33 83       	std	Z+3, r19	; 0x03
     b60:	22 83       	std	Z+2, r18	; 0x02
	return 0;
}
     b62:	80 e0       	ldi	r24, 0x00	; 0
     b64:	90 e0       	ldi	r25, 0x00	; 0
     b66:	df 91       	pop	r29
     b68:	cf 91       	pop	r28
     b6a:	1f 91       	pop	r17
     b6c:	0f 91       	pop	r16
     b6e:	08 95       	ret

00000b70 <removeNode>:

// ---------------------------------------------------------------------------------------------- //
// ------------------ Remove Node & Mapping Table  ------------------------------------------------- //
// ---------------------------------------------------------------------------------------------- //
void removeNode(uint16 node_Id)
{
     b70:	ac 01       	movw	r20, r24
	uint8 i=0, j=0;

	for(i=0; i < deviceInfoTable.size; i++) {
     b72:	30 91 89 02 	lds	r19, 0x0289
     b76:	e1 e1       	ldi	r30, 0x11	; 17
     b78:	f2 e0       	ldi	r31, 0x02	; 2
     b7a:	20 e0       	ldi	r18, 0x00	; 0
     b7c:	2c c0       	rjmp	.+88     	; 0xbd6 <removeNode+0x66>
		if(deviceInfoTable.deviceInfo[i].nodeId==node_Id) {
     b7e:	80 81       	ld	r24, Z
     b80:	91 81       	ldd	r25, Z+1	; 0x01
     b82:	36 96       	adiw	r30, 0x06	; 6
     b84:	84 17       	cp	r24, r20
     b86:	95 07       	cpc	r25, r21
     b88:	29 f5       	brne	.+74     	; 0xbd4 <removeNode+0x64>
     b8a:	42 2f       	mov	r20, r18
			for(j=i; j < deviceInfoTable.size -1; j++) {
     b8c:	23 2f       	mov	r18, r19
     b8e:	30 e0       	ldi	r19, 0x00	; 0
     b90:	21 50       	subi	r18, 0x01	; 1
     b92:	30 40       	sbci	r19, 0x00	; 0
     b94:	19 c0       	rjmp	.+50     	; 0xbc8 <removeNode+0x58>
				deviceInfoTable.deviceInfo[j] = deviceInfoTable.deviceInfo[j+1];
     b96:	dc 01       	movw	r26, r24
     b98:	aa 0f       	add	r26, r26
     b9a:	bb 1f       	adc	r27, r27
     b9c:	a8 0f       	add	r26, r24
     b9e:	b9 1f       	adc	r27, r25
     ba0:	aa 0f       	add	r26, r26
     ba2:	bb 1f       	adc	r27, r27
     ba4:	01 96       	adiw	r24, 0x01	; 1
     ba6:	fc 01       	movw	r30, r24
     ba8:	ee 0f       	add	r30, r30
     baa:	ff 1f       	adc	r31, r31
     bac:	e8 0f       	add	r30, r24
     bae:	f9 1f       	adc	r31, r25
     bb0:	ee 0f       	add	r30, r30
     bb2:	ff 1f       	adc	r31, r31
     bb4:	af 5e       	subi	r26, 0xEF	; 239
     bb6:	bd 4f       	sbci	r27, 0xFD	; 253
     bb8:	ef 5e       	subi	r30, 0xEF	; 239
     bba:	fd 4f       	sbci	r31, 0xFD	; 253
     bbc:	86 e0       	ldi	r24, 0x06	; 6
     bbe:	01 90       	ld	r0, Z+
     bc0:	0d 92       	st	X+, r0
     bc2:	81 50       	subi	r24, 0x01	; 1
     bc4:	e1 f7       	brne	.-8      	; 0xbbe <removeNode+0x4e>
{
	uint8 i=0, j=0;

	for(i=0; i < deviceInfoTable.size; i++) {
		if(deviceInfoTable.deviceInfo[i].nodeId==node_Id) {
			for(j=i; j < deviceInfoTable.size -1; j++) {
     bc6:	4f 5f       	subi	r20, 0xFF	; 255
     bc8:	84 2f       	mov	r24, r20
     bca:	90 e0       	ldi	r25, 0x00	; 0
     bcc:	82 17       	cp	r24, r18
     bce:	93 07       	cpc	r25, r19
     bd0:	14 f3       	brlt	.-60     	; 0xb96 <removeNode+0x26>
     bd2:	08 95       	ret
// ---------------------------------------------------------------------------------------------- //
void removeNode(uint16 node_Id)
{
	uint8 i=0, j=0;

	for(i=0; i < deviceInfoTable.size; i++) {
     bd4:	2f 5f       	subi	r18, 0xFF	; 255
     bd6:	23 17       	cp	r18, r19
     bd8:	90 f2       	brcs	.-92     	; 0xb7e <removeNode+0xe>
     bda:	08 95       	ret

00000bdc <removeDeviceTable>:
}


void removeDeviceTable()
{
	deviceInfoTable.size = 0;
     bdc:	10 92 89 02 	sts	0x0289, r1
		free(pRemove_Table);

		pRemove_Table = pHead->next;
	}
	*/
}
     be0:	08 95       	ret

00000be2 <countDeviceTable>:

// ---------------------------------------------------------------------------------------------- //
// ------------------ Count Node & Device Table  ---------------------------------------------------- //
// ---------------------------------------------------------------------------------------------- //
uint8 countDeviceTable(uint16 node_Type)
{
     be2:	bc 01       	movw	r22, r24
	uint8 device_count=0;
	uint8 i=0;

	for(i=0; i < deviceInfoTable.size; i++)
     be4:	90 91 89 02 	lds	r25, 0x0289
     be8:	e3 e1       	ldi	r30, 0x13	; 19
     bea:	f2 e0       	ldi	r31, 0x02	; 2
     bec:	40 e0       	ldi	r20, 0x00	; 0
     bee:	83 e0       	ldi	r24, 0x03	; 3
     bf0:	98 9f       	mul	r25, r24
     bf2:	90 01       	movw	r18, r0
     bf4:	11 24       	eor	r1, r1
     bf6:	22 0f       	add	r18, r18
     bf8:	33 1f       	adc	r19, r19
     bfa:	2e 0f       	add	r18, r30
     bfc:	3f 1f       	adc	r19, r31
     bfe:	07 c0       	rjmp	.+14     	; 0xc0e <countDeviceTable+0x2c>
		if(deviceInfoTable.deviceInfo[i].deviceType == node_Type)
     c00:	80 81       	ld	r24, Z
     c02:	91 81       	ldd	r25, Z+1	; 0x01
     c04:	86 17       	cp	r24, r22
     c06:	97 07       	cpc	r25, r23
     c08:	09 f4       	brne	.+2      	; 0xc0c <countDeviceTable+0x2a>
			device_count++;
     c0a:	4f 5f       	subi	r20, 0xFF	; 255
     c0c:	36 96       	adiw	r30, 0x06	; 6
uint8 countDeviceTable(uint16 node_Type)
{
	uint8 device_count=0;
	uint8 i=0;

	for(i=0; i < deviceInfoTable.size; i++)
     c0e:	e2 17       	cp	r30, r18
     c10:	f3 07       	cpc	r31, r19
     c12:	b1 f7       	brne	.-20     	; 0xc00 <countDeviceTable+0x1e>
		pCount = pCount->next;
	}
	
	return device_count;
	*/
}
     c14:	84 2f       	mov	r24, r20
     c16:	08 95       	ret

00000c18 <countDevice>:

		pCount_Device = pCount_Device->next;
	}
	
	return device_count;*/
}
     c18:	80 91 89 02 	lds	r24, 0x0289
     c1c:	08 95       	ret

00000c1e <printDeviceTable>:

// ---------------------------------------------------------------------------------------------- //
// ------------------ Print Node & Mapping Table  ---------------------------------------------------- //
// ---------------------------------------------------------------------------------------------- //
void printDeviceTable()
{
     c1e:	1f 93       	push	r17
     c20:	cf 93       	push	r28
     c22:	df 93       	push	r29
     c24:	10 e0       	ldi	r17, 0x00	; 0
	uint8 i = 0;
	for(i=0; i < deviceInfoTable.size; i++)
		printf_P(PSTR("\n%d: %04X"), ++i, deviceInfoTable.deviceInfo[i].nodeId);
     c26:	cc e8       	ldi	r28, 0x8C	; 140
     c28:	d0 e0       	ldi	r29, 0x00	; 0
     c2a:	2b c0       	rjmp	.+86     	; 0xc82 <printDeviceTable+0x64>
     c2c:	1f 5f       	subi	r17, 0xFF	; 255
     c2e:	81 2f       	mov	r24, r17
     c30:	90 e0       	ldi	r25, 0x00	; 0
     c32:	00 d0       	rcall	.+0      	; 0xc34 <printDeviceTable+0x16>
     c34:	00 d0       	rcall	.+0      	; 0xc36 <printDeviceTable+0x18>
     c36:	00 d0       	rcall	.+0      	; 0xc38 <printDeviceTable+0x1a>
     c38:	ad b7       	in	r26, 0x3d	; 61
     c3a:	be b7       	in	r27, 0x3e	; 62
     c3c:	11 96       	adiw	r26, 0x01	; 1
     c3e:	ed b7       	in	r30, 0x3d	; 61
     c40:	fe b7       	in	r31, 0x3e	; 62
     c42:	d2 83       	std	Z+2, r29	; 0x02
     c44:	c1 83       	std	Z+1, r28	; 0x01
     c46:	13 96       	adiw	r26, 0x03	; 3
     c48:	9c 93       	st	X, r25
     c4a:	8e 93       	st	-X, r24
     c4c:	12 97       	sbiw	r26, 0x02	; 2
     c4e:	fc 01       	movw	r30, r24
     c50:	ee 0f       	add	r30, r30
     c52:	ff 1f       	adc	r31, r31
     c54:	e8 0f       	add	r30, r24
     c56:	f9 1f       	adc	r31, r25
     c58:	ee 0f       	add	r30, r30
     c5a:	ff 1f       	adc	r31, r31
     c5c:	ef 5e       	subi	r30, 0xEF	; 239
     c5e:	fd 4f       	sbci	r31, 0xFD	; 253
     c60:	80 81       	ld	r24, Z
     c62:	91 81       	ldd	r25, Z+1	; 0x01
     c64:	15 96       	adiw	r26, 0x05	; 5
     c66:	9c 93       	st	X, r25
     c68:	8e 93       	st	-X, r24
     c6a:	14 97       	sbiw	r26, 0x04	; 4
     c6c:	0e 94 d1 27 	call	0x4fa2	; 0x4fa2 <printf_P>
     c70:	1f 5f       	subi	r17, 0xFF	; 255
     c72:	8d b7       	in	r24, 0x3d	; 61
     c74:	9e b7       	in	r25, 0x3e	; 62
     c76:	06 96       	adiw	r24, 0x06	; 6
     c78:	0f b6       	in	r0, 0x3f	; 63
     c7a:	f8 94       	cli
     c7c:	9e bf       	out	0x3e, r25	; 62
     c7e:	0f be       	out	0x3f, r0	; 63
     c80:	8d bf       	out	0x3d, r24	; 61
// ------------------ Print Node & Mapping Table  ---------------------------------------------------- //
// ---------------------------------------------------------------------------------------------- //
void printDeviceTable()
{
	uint8 i = 0;
	for(i=0; i < deviceInfoTable.size; i++)
     c82:	80 91 89 02 	lds	r24, 0x0289
     c86:	18 17       	cp	r17, r24
     c88:	88 f2       	brcs	.-94     	; 0xc2c <printDeviceTable+0xe>
	{
		printf_P(PSTR("\n%d: %02X-%02X"), ++i, pMap->ieee_Id, pMap->nwk_Addr);

		pMap = pMap->next;
	}*/
}
     c8a:	df 91       	pop	r29
     c8c:	cf 91       	pop	r28
     c8e:	1f 91       	pop	r17
     c90:	08 95       	ret

00000c92 <getSeqNumGenerator>:
#include "PLCS_Protocol.h"
uint16 seqNumGenerator = 0;
uint16 getSeqNumGenerator() {
	return seqNumGenerator++;
     c92:	20 91 48 01 	lds	r18, 0x0148
     c96:	30 91 49 01 	lds	r19, 0x0149
     c9a:	2f 5f       	subi	r18, 0xFF	; 255
     c9c:	3f 4f       	sbci	r19, 0xFF	; 255
     c9e:	30 93 49 01 	sts	0x0149, r19
     ca2:	20 93 48 01 	sts	0x0148, r18
     ca6:	21 50       	subi	r18, 0x01	; 1
     ca8:	30 40       	sbci	r19, 0x00	; 0
}
     caa:	c9 01       	movw	r24, r18
     cac:	08 95       	ret

00000cae <plcs_GetNCPMessage>:

uint8 plcs_GetNCPMessage(uint8 resultMsg[], uint16 destId, uint16 srcId,
		uint8 payload[], uint8 len) {
     cae:	ef 92       	push	r14
     cb0:	ff 92       	push	r15
     cb2:	0f 93       	push	r16
     cb4:	cf 93       	push	r28
     cb6:	df 93       	push	r29
     cb8:	ec 01       	movw	r28, r24
     cba:	79 01       	movw	r14, r18
#include "PLCS_Protocol.h"
uint16 seqNumGenerator = 0;
uint16 getSeqNumGenerator() {
	return seqNumGenerator++;
     cbc:	80 91 48 01 	lds	r24, 0x0148
     cc0:	90 91 49 01 	lds	r25, 0x0149
     cc4:	01 96       	adiw	r24, 0x01	; 1
     cc6:	90 93 49 01 	sts	0x0149, r25
     cca:	80 93 48 01 	sts	0x0148, r24
     cce:	01 97       	sbiw	r24, 0x01	; 1
uint8 plcs_GetNCPMessage(uint8 resultMsg[], uint16 destId, uint16 srcId,
		uint8 payload[], uint8 len) {
	uint8 resultLen = 0;
	uint16 seqNum= getSeqNumGenerator();

	resultMsg[resultLen++] = NCP_PROTOCOL_ID;
     cd0:	20 e8       	ldi	r18, 0x80	; 128
     cd2:	28 83       	st	Y, r18
	resultMsg[resultLen++] = PLCS_NCP_PROTOCOL_ID;
     cd4:	21 e0       	ldi	r18, 0x01	; 1
     cd6:	29 83       	std	Y+1, r18	; 0x01
	resultMsg[resultLen++] = seqNum>>8;
     cd8:	9a 83       	std	Y+2, r25	; 0x02
	resultMsg[resultLen++] = seqNum;
     cda:	8b 83       	std	Y+3, r24	; 0x03
	resultMsg[resultLen++] = destId >> 8;
     cdc:	7c 83       	std	Y+4, r23	; 0x04
	resultMsg[resultLen++] = destId;
     cde:	6d 83       	std	Y+5, r22	; 0x05
	resultMsg[resultLen++] = srcId >> 8;
     ce0:	5e 83       	std	Y+6, r21	; 0x06
	resultMsg[resultLen++] = srcId;
     ce2:	4f 83       	std	Y+7, r20	; 0x07
     ce4:	40 e0       	ldi	r20, 0x00	; 0
     ce6:	50 e0       	ldi	r21, 0x00	; 0
	for (int i = 0; i < len; i++)
     ce8:	60 2f       	mov	r22, r16
     cea:	70 e0       	ldi	r23, 0x00	; 0
     cec:	0a c0       	rjmp	.+20     	; 0xd02 <plcs_GetNCPMessage+0x54>
		resultMsg[resultLen++] = payload[i];
     cee:	fe 01       	movw	r30, r28
     cf0:	e8 0f       	add	r30, r24
     cf2:	f1 1d       	adc	r31, r1
     cf4:	d7 01       	movw	r26, r14
     cf6:	a4 0f       	add	r26, r20
     cf8:	b5 1f       	adc	r27, r21
     cfa:	8c 91       	ld	r24, X
     cfc:	80 83       	st	Z, r24
	resultMsg[resultLen++] = seqNum;
	resultMsg[resultLen++] = destId >> 8;
	resultMsg[resultLen++] = destId;
	resultMsg[resultLen++] = srcId >> 8;
	resultMsg[resultLen++] = srcId;
	for (int i = 0; i < len; i++)
     cfe:	4f 5f       	subi	r20, 0xFF	; 255
     d00:	5f 4f       	sbci	r21, 0xFF	; 255
     d02:	84 2f       	mov	r24, r20
     d04:	88 5f       	subi	r24, 0xF8	; 248
     d06:	46 17       	cp	r20, r22
     d08:	57 07       	cpc	r21, r23
     d0a:	8c f3       	brlt	.-30     	; 0xcee <plcs_GetNCPMessage+0x40>
		resultMsg[resultLen++] = payload[i];
	return resultLen;
}
     d0c:	80 2f       	mov	r24, r16
     d0e:	88 5f       	subi	r24, 0xF8	; 248
     d10:	df 91       	pop	r29
     d12:	cf 91       	pop	r28
     d14:	0f 91       	pop	r16
     d16:	ff 90       	pop	r15
     d18:	ef 90       	pop	r14
     d1a:	08 95       	ret

00000d1c <plcs_GetNCPResMessage>:

uint8 plcs_GetNCPResMessage(uint8 resultMsg[], uint16 destId, uint16 srcId,
		uint8 payload[], uint8 len, uint16 seqNum) {
     d1c:	ef 92       	push	r14
     d1e:	ff 92       	push	r15
     d20:	0f 93       	push	r16
     d22:	cf 93       	push	r28
     d24:	df 93       	push	r29
     d26:	ec 01       	movw	r28, r24
	uint8 resultLen = 0;

	resultMsg[resultLen++] = NCP_PROTOCOL_ID;
     d28:	80 e8       	ldi	r24, 0x80	; 128
     d2a:	88 83       	st	Y, r24
	resultMsg[resultLen++] = PLCS_NCP_PROTOCOL_ID;
     d2c:	81 e0       	ldi	r24, 0x01	; 1
     d2e:	89 83       	std	Y+1, r24	; 0x01
	resultMsg[resultLen++] = seqNum>>8;
     d30:	fa 82       	std	Y+2, r15	; 0x02
	resultMsg[resultLen++] = seqNum;
     d32:	eb 82       	std	Y+3, r14	; 0x03
	resultMsg[resultLen++] = destId >> 8;
     d34:	7c 83       	std	Y+4, r23	; 0x04
	resultMsg[resultLen++] = destId;
     d36:	6d 83       	std	Y+5, r22	; 0x05
	resultMsg[resultLen++] = srcId >> 8;
     d38:	5e 83       	std	Y+6, r21	; 0x06
	resultMsg[resultLen++] = srcId;
     d3a:	4f 83       	std	Y+7, r20	; 0x07
     d3c:	40 e0       	ldi	r20, 0x00	; 0
     d3e:	50 e0       	ldi	r21, 0x00	; 0
	for (int i = 0; i < len; i++)
     d40:	60 2f       	mov	r22, r16
     d42:	70 e0       	ldi	r23, 0x00	; 0
     d44:	0a c0       	rjmp	.+20     	; 0xd5a <plcs_GetNCPResMessage+0x3e>
		resultMsg[resultLen++] = payload[i];
     d46:	fe 01       	movw	r30, r28
     d48:	e8 0f       	add	r30, r24
     d4a:	f1 1d       	adc	r31, r1
     d4c:	d9 01       	movw	r26, r18
     d4e:	a4 0f       	add	r26, r20
     d50:	b5 1f       	adc	r27, r21
     d52:	8c 91       	ld	r24, X
     d54:	80 83       	st	Z, r24
	resultMsg[resultLen++] = seqNum;
	resultMsg[resultLen++] = destId >> 8;
	resultMsg[resultLen++] = destId;
	resultMsg[resultLen++] = srcId >> 8;
	resultMsg[resultLen++] = srcId;
	for (int i = 0; i < len; i++)
     d56:	4f 5f       	subi	r20, 0xFF	; 255
     d58:	5f 4f       	sbci	r21, 0xFF	; 255
     d5a:	84 2f       	mov	r24, r20
     d5c:	88 5f       	subi	r24, 0xF8	; 248
     d5e:	46 17       	cp	r20, r22
     d60:	57 07       	cpc	r21, r23
     d62:	8c f3       	brlt	.-30     	; 0xd46 <plcs_GetNCPResMessage+0x2a>
		resultMsg[resultLen++] = payload[i];
	return resultLen;
}
     d64:	80 2f       	mov	r24, r16
     d66:	88 5f       	subi	r24, 0xF8	; 248
     d68:	df 91       	pop	r29
     d6a:	cf 91       	pop	r28
     d6c:	0f 91       	pop	r16
     d6e:	ff 90       	pop	r15
     d70:	ef 90       	pop	r14
     d72:	08 95       	ret

00000d74 <plcs_GetGCPMessage>:

uint8 plcs_GetGCPMessage(uint8 resultMsg[], uint16 destId, uint16 srcId,
		uint8 payload[], uint8 len) {
     d74:	ef 92       	push	r14
     d76:	ff 92       	push	r15
     d78:	0f 93       	push	r16
     d7a:	cf 93       	push	r28
     d7c:	df 93       	push	r29
     d7e:	ec 01       	movw	r28, r24
     d80:	79 01       	movw	r14, r18
#include "PLCS_Protocol.h"
uint16 seqNumGenerator = 0;
uint16 getSeqNumGenerator() {
	return seqNumGenerator++;
     d82:	80 91 48 01 	lds	r24, 0x0148
     d86:	90 91 49 01 	lds	r25, 0x0149
     d8a:	01 96       	adiw	r24, 0x01	; 1
     d8c:	90 93 49 01 	sts	0x0149, r25
     d90:	80 93 48 01 	sts	0x0148, r24
     d94:	01 97       	sbiw	r24, 0x01	; 1
uint8 plcs_GetGCPMessage(uint8 resultMsg[], uint16 destId, uint16 srcId,
		uint8 payload[], uint8 len) {
	uint8 resultLen = 0;
	uint16 seqNum = getSeqNumGenerator();

	resultMsg[resultLen++] = NCP_PROTOCOL_ID;
     d96:	20 e8       	ldi	r18, 0x80	; 128
     d98:	28 83       	st	Y, r18
	resultMsg[resultLen++] = PLCS_GCP_PROTOCOL_ID;
     d9a:	21 e2       	ldi	r18, 0x21	; 33
     d9c:	29 83       	std	Y+1, r18	; 0x01
	resultMsg[resultLen++] = seqNum>>8;
     d9e:	9a 83       	std	Y+2, r25	; 0x02
	resultMsg[resultLen++] = seqNum;
     da0:	8b 83       	std	Y+3, r24	; 0x03
	resultMsg[resultLen++] = destId >> 8;
     da2:	7c 83       	std	Y+4, r23	; 0x04
	resultMsg[resultLen++] = destId;
     da4:	6d 83       	std	Y+5, r22	; 0x05
	resultMsg[resultLen++] = srcId >> 8;
     da6:	5e 83       	std	Y+6, r21	; 0x06
	resultMsg[resultLen++] = srcId;
     da8:	4f 83       	std	Y+7, r20	; 0x07
     daa:	40 e0       	ldi	r20, 0x00	; 0
     dac:	50 e0       	ldi	r21, 0x00	; 0
	for (int i = 0; i < len; i++)
     dae:	60 2f       	mov	r22, r16
     db0:	70 e0       	ldi	r23, 0x00	; 0
     db2:	0a c0       	rjmp	.+20     	; 0xdc8 <plcs_GetGCPMessage+0x54>
		resultMsg[resultLen++] = payload[i];
     db4:	fe 01       	movw	r30, r28
     db6:	e8 0f       	add	r30, r24
     db8:	f1 1d       	adc	r31, r1
     dba:	d7 01       	movw	r26, r14
     dbc:	a4 0f       	add	r26, r20
     dbe:	b5 1f       	adc	r27, r21
     dc0:	8c 91       	ld	r24, X
     dc2:	80 83       	st	Z, r24
	resultMsg[resultLen++] = seqNum;
	resultMsg[resultLen++] = destId >> 8;
	resultMsg[resultLen++] = destId;
	resultMsg[resultLen++] = srcId >> 8;
	resultMsg[resultLen++] = srcId;
	for (int i = 0; i < len; i++)
     dc4:	4f 5f       	subi	r20, 0xFF	; 255
     dc6:	5f 4f       	sbci	r21, 0xFF	; 255
     dc8:	84 2f       	mov	r24, r20
     dca:	88 5f       	subi	r24, 0xF8	; 248
     dcc:	46 17       	cp	r20, r22
     dce:	57 07       	cpc	r21, r23
     dd0:	8c f3       	brlt	.-30     	; 0xdb4 <plcs_GetGCPMessage+0x40>
		resultMsg[resultLen++] = payload[i];
	return resultLen;
}
     dd2:	80 2f       	mov	r24, r16
     dd4:	88 5f       	subi	r24, 0xF8	; 248
     dd6:	df 91       	pop	r29
     dd8:	cf 91       	pop	r28
     dda:	0f 91       	pop	r16
     ddc:	ff 90       	pop	r15
     dde:	ef 90       	pop	r14
     de0:	08 95       	ret

00000de2 <plcs_GetGCPResMessage>:

uint8 plcs_GetGCPResMessage(uint8 resultMsg[], uint16 destId, uint16 srcId,
		uint8 payload[], uint8 len, uint16 seqNum) {
     de2:	ef 92       	push	r14
     de4:	ff 92       	push	r15
     de6:	0f 93       	push	r16
     de8:	cf 93       	push	r28
     dea:	df 93       	push	r29
     dec:	ec 01       	movw	r28, r24
	uint8 resultLen = 0;

	resultMsg[resultLen++] = NCP_PROTOCOL_ID;
     dee:	80 e8       	ldi	r24, 0x80	; 128
     df0:	88 83       	st	Y, r24
	resultMsg[resultLen++] = PLCS_GCP_PROTOCOL_ID;
     df2:	81 e2       	ldi	r24, 0x21	; 33
     df4:	89 83       	std	Y+1, r24	; 0x01
	resultMsg[resultLen++] = seqNum>>8;
     df6:	fa 82       	std	Y+2, r15	; 0x02
	resultMsg[resultLen++] = seqNum;
     df8:	eb 82       	std	Y+3, r14	; 0x03
	resultMsg[resultLen++] = destId >> 8;
     dfa:	7c 83       	std	Y+4, r23	; 0x04
	resultMsg[resultLen++] = destId;
     dfc:	6d 83       	std	Y+5, r22	; 0x05
	resultMsg[resultLen++] = srcId >> 8;
     dfe:	5e 83       	std	Y+6, r21	; 0x06
	resultMsg[resultLen++] = srcId;
     e00:	4f 83       	std	Y+7, r20	; 0x07
     e02:	40 e0       	ldi	r20, 0x00	; 0
     e04:	50 e0       	ldi	r21, 0x00	; 0
	for (int i = 0; i < len; i++)
     e06:	60 2f       	mov	r22, r16
     e08:	70 e0       	ldi	r23, 0x00	; 0
     e0a:	0a c0       	rjmp	.+20     	; 0xe20 <plcs_GetGCPResMessage+0x3e>
		resultMsg[resultLen++] = payload[i];
     e0c:	fe 01       	movw	r30, r28
     e0e:	e8 0f       	add	r30, r24
     e10:	f1 1d       	adc	r31, r1
     e12:	d9 01       	movw	r26, r18
     e14:	a4 0f       	add	r26, r20
     e16:	b5 1f       	adc	r27, r21
     e18:	8c 91       	ld	r24, X
     e1a:	80 83       	st	Z, r24
	resultMsg[resultLen++] = seqNum;
	resultMsg[resultLen++] = destId >> 8;
	resultMsg[resultLen++] = destId;
	resultMsg[resultLen++] = srcId >> 8;
	resultMsg[resultLen++] = srcId;
	for (int i = 0; i < len; i++)
     e1c:	4f 5f       	subi	r20, 0xFF	; 255
     e1e:	5f 4f       	sbci	r21, 0xFF	; 255
     e20:	84 2f       	mov	r24, r20
     e22:	88 5f       	subi	r24, 0xF8	; 248
     e24:	46 17       	cp	r20, r22
     e26:	57 07       	cpc	r21, r23
     e28:	8c f3       	brlt	.-30     	; 0xe0c <plcs_GetGCPResMessage+0x2a>
		resultMsg[resultLen++] = payload[i];
	return resultLen;
}
     e2a:	80 2f       	mov	r24, r16
     e2c:	88 5f       	subi	r24, 0xF8	; 248
     e2e:	df 91       	pop	r29
     e30:	cf 91       	pop	r28
     e32:	0f 91       	pop	r16
     e34:	ff 90       	pop	r15
     e36:	ef 90       	pop	r14
     e38:	08 95       	ret

00000e3a <plcs_NCP_LC100_GetToken>:
	MSLEEP(3);
}

uint16 plcs_NCP_LC100_GetToken() {
	return token;
}
     e3a:	80 91 00 01 	lds	r24, 0x0100
     e3e:	90 91 01 01 	lds	r25, 0x0101
     e42:	08 95       	ret

00000e44 <plcs_GCP_LC100_SendNoticeEventNeighbor>:
	resultLen = plcs_GetNCPMessage(tmp_Buff, 0xffff, NCP_GW_ID, payload, len);
	sendToController(tmp_Buff, resultLen);
}

void plcs_GCP_LC100_SendNoticeEventNeighbor(uint16 destNodeId, uint16 lcId,
		uint16 sensorId) {
     e44:	ef 92       	push	r14
     e46:	ff 92       	push	r15
     e48:	0f 93       	push	r16
     e4a:	df 93       	push	r29
     e4c:	cf 93       	push	r28
     e4e:	cd b7       	in	r28, 0x3d	; 61
     e50:	de b7       	in	r29, 0x3e	; 62
     e52:	2a 97       	sbiw	r28, 0x0a	; 10
     e54:	0f b6       	in	r0, 0x3f	; 63
     e56:	f8 94       	cli
     e58:	de bf       	out	0x3e, r29	; 62
     e5a:	0f be       	out	0x3f, r0	; 63
     e5c:	cd bf       	out	0x3d, r28	; 61
     e5e:	9c 01       	movw	r18, r24
	int len = 0;
	uint8 payload[10];
	uint8 resultLen;

	payload[len++] = PLCS_GCP_NOTICEEVENT_NEIGHBOR;
     e60:	81 e7       	ldi	r24, 0x71	; 113
     e62:	89 83       	std	Y+1, r24	; 0x01
	payload[len++] = destNodeId >> 8;
     e64:	3a 83       	std	Y+2, r19	; 0x02
	payload[len++] = destNodeId;
     e66:	2b 83       	std	Y+3, r18	; 0x03
	payload[len++] = lcId >> 8;
     e68:	7c 83       	std	Y+4, r23	; 0x04
	payload[len++] = lcId;
     e6a:	6d 83       	std	Y+5, r22	; 0x05
	payload[len++] = sensorId >> 8;
     e6c:	5e 83       	std	Y+6, r21	; 0x06
	payload[len++] = sensorId;
     e6e:	4f 83       	std	Y+7, r20	; 0x07

	resultLen = plcs_GetGCPMessage(tmp_Buff, destNodeId, NCP_GW_ID, payload, len);
     e70:	8a e8       	ldi	r24, 0x8A	; 138
     e72:	e8 2e       	mov	r14, r24
     e74:	82 e0       	ldi	r24, 0x02	; 2
     e76:	f8 2e       	mov	r15, r24
     e78:	c7 01       	movw	r24, r14
     e7a:	b9 01       	movw	r22, r18
     e7c:	41 e0       	ldi	r20, 0x01	; 1
     e7e:	50 e0       	ldi	r21, 0x00	; 0
     e80:	9e 01       	movw	r18, r28
     e82:	2f 5f       	subi	r18, 0xFF	; 255
     e84:	3f 4f       	sbci	r19, 0xFF	; 255
     e86:	07 e0       	ldi	r16, 0x07	; 7
     e88:	0e 94 ba 06 	call	0xd74	; 0xd74 <plcs_GetGCPMessage>
     e8c:	68 2f       	mov	r22, r24
	sendToController(tmp_Buff, resultLen);
     e8e:	c7 01       	movw	r24, r14
     e90:	70 e0       	ldi	r23, 0x00	; 0
     e92:	0e 94 bc 1d 	call	0x3b78	; 0x3b78 <sendToController>
}
     e96:	2a 96       	adiw	r28, 0x0a	; 10
     e98:	0f b6       	in	r0, 0x3f	; 63
     e9a:	f8 94       	cli
     e9c:	de bf       	out	0x3e, r29	; 62
     e9e:	0f be       	out	0x3f, r0	; 63
     ea0:	cd bf       	out	0x3d, r28	; 61
     ea2:	cf 91       	pop	r28
     ea4:	df 91       	pop	r29
     ea6:	0f 91       	pop	r16
     ea8:	ff 90       	pop	r15
     eaa:	ef 90       	pop	r14
     eac:	08 95       	ret

00000eae <plcs_GCP_LC100_HandleNoticeEventNeighbor>:
	plcs_NCP_SERVER_SendRegisterNodeReq(subNodeId, deviceType, deviceId,
			deviceVersion, firmVersion, netAddr);
}

void plcs_GCP_LC100_HandleNoticeEventNeighbor(uint16 seqNum, uint16 srcId,
		uint16 destId, uint8 msg[], int length) {
     eae:	ff 92       	push	r15
     eb0:	0f 93       	push	r16
     eb2:	1f 93       	push	r17
     eb4:	cf 93       	push	r28
     eb6:	df 93       	push	r29
     eb8:	f9 01       	movw	r30, r18
	uint16 sensorId;
	uint8 state;
	uint8 i;

	//msg[8] = messageType
	nodeId = msg[9] << 8 | msg[10];
     eba:	91 85       	ldd	r25, Z+9	; 0x09
     ebc:	80 e0       	ldi	r24, 0x00	; 0
     ebe:	22 85       	ldd	r18, Z+10	; 0x0a
     ec0:	02 2f       	mov	r16, r18
     ec2:	10 e0       	ldi	r17, 0x00	; 0
     ec4:	08 2b       	or	r16, r24
     ec6:	19 2b       	or	r17, r25
	sensorId = msg[12] << 8 | msg[13];
     ec8:	94 85       	ldd	r25, Z+12	; 0x0c
     eca:	80 e0       	ldi	r24, 0x00	; 0
     ecc:	25 85       	ldd	r18, Z+13	; 0x0d
     ece:	c2 2f       	mov	r28, r18
     ed0:	d0 e0       	ldi	r29, 0x00	; 0
     ed2:	c8 2b       	or	r28, r24
     ed4:	d9 2b       	or	r29, r25

	if (sensorId == 0)
     ed6:	20 97       	sbiw	r28, 0x00	; 0
     ed8:	f9 f0       	breq	.+62     	; 0xf18 <plcs_GCP_LC100_HandleNoticeEventNeighbor+0x6a>
		return;

	//if(nodeId==0x000d) return;

	if (isOnSensorSharing)
     eda:	80 91 6d 01 	lds	r24, 0x016D
     ede:	88 23       	and	r24, r24
     ee0:	d9 f0       	breq	.+54     	; 0xf18 <plcs_GCP_LC100_HandleNoticeEventNeighbor+0x6a>
     ee2:	ff 24       	eor	r15, r15
     ee4:	15 c0       	rjmp	.+42     	; 0xf10 <plcs_GCP_LC100_HandleNoticeEventNeighbor+0x62>
		for (i = 0; i < deviceInfoTable.size; i++)
			if (nodeId != deviceInfoTable.deviceInfo[i].nodeId) {
     ee6:	8f 2d       	mov	r24, r15
     ee8:	90 e0       	ldi	r25, 0x00	; 0
     eea:	fc 01       	movw	r30, r24
     eec:	ee 0f       	add	r30, r30
     eee:	ff 1f       	adc	r31, r31
     ef0:	e8 0f       	add	r30, r24
     ef2:	f9 1f       	adc	r31, r25
     ef4:	ee 0f       	add	r30, r30
     ef6:	ff 1f       	adc	r31, r31
     ef8:	ef 5e       	subi	r30, 0xEF	; 239
     efa:	fd 4f       	sbci	r31, 0xFD	; 253
     efc:	80 81       	ld	r24, Z
     efe:	91 81       	ldd	r25, Z+1	; 0x01
     f00:	08 17       	cp	r16, r24
     f02:	19 07       	cpc	r17, r25
     f04:	21 f0       	breq	.+8      	; 0xf0e <plcs_GCP_LC100_HandleNoticeEventNeighbor+0x60>
				plcs_GCP_LC100_SendNoticeEventNeighbor(
     f06:	b8 01       	movw	r22, r16
     f08:	ae 01       	movw	r20, r28
     f0a:	0e 94 22 07 	call	0xe44	; 0xe44 <plcs_GCP_LC100_SendNoticeEventNeighbor>
		return;

	//if(nodeId==0x000d) return;

	if (isOnSensorSharing)
		for (i = 0; i < deviceInfoTable.size; i++)
     f0e:	f3 94       	inc	r15
     f10:	80 91 89 02 	lds	r24, 0x0289
     f14:	f8 16       	cp	r15, r24
     f16:	38 f3       	brcs	.-50     	; 0xee6 <plcs_GCP_LC100_HandleNoticeEventNeighbor+0x38>
			if (nodeId != deviceInfoTable.deviceInfo[i].nodeId) {
				plcs_GCP_LC100_SendNoticeEventNeighbor(
						deviceInfoTable.deviceInfo[i].nodeId, nodeId, sensorId);
			}
}
     f18:	df 91       	pop	r29
     f1a:	cf 91       	pop	r28
     f1c:	1f 91       	pop	r17
     f1e:	0f 91       	pop	r16
     f20:	ff 90       	pop	r15
     f22:	08 95       	ret

00000f24 <plcs_NCP_LC100_SendRegisterBroadcastReq>:
	resultLen = plcs_GetNCPResMessage(tmp_Buff, nodeId, NCP_GW_ID, payload, len,
			seqNum);
	sendToController(tmp_Buff, resultLen);

}
void plcs_NCP_LC100_SendRegisterBroadcastReq(char flag) {
     f24:	0f 93       	push	r16
     f26:	1f 93       	push	r17
     f28:	df 93       	push	r29
     f2a:	cf 93       	push	r28
     f2c:	cd b7       	in	r28, 0x3d	; 61
     f2e:	de b7       	in	r29, 0x3e	; 62
     f30:	ec 97       	sbiw	r28, 0x3c	; 60
     f32:	0f b6       	in	r0, 0x3f	; 63
     f34:	f8 94       	cli
     f36:	de bf       	out	0x3e, r29	; 62
     f38:	0f be       	out	0x3f, r0	; 63
     f3a:	cd bf       	out	0x3d, r28	; 61
	int len = 0;
	uint8 payload[60];
	uint8 i;
	uint8 resultLen;

	payload[len++] = NCP_REQ_REGISTER_BROADCAST;
     f3c:	95 e0       	ldi	r25, 0x05	; 5
     f3e:	99 83       	std	Y+1, r25	; 0x01
	payload[len++] = 0xff;
     f40:	9f ef       	ldi	r25, 0xFF	; 255
     f42:	9a 83       	std	Y+2, r25	; 0x02
	payload[len++] = 0xff;
     f44:	9b 83       	std	Y+3, r25	; 0x03
	payload[len++] = flag;
     f46:	8c 83       	std	Y+4, r24	; 0x04
	payload[len++] = deviceInfoTable.size;
     f48:	00 91 89 02 	lds	r16, 0x0289
     f4c:	0d 83       	std	Y+5, r16	; 0x05
     f4e:	e1 e1       	ldi	r30, 0x11	; 17
     f50:	f2 e0       	ldi	r31, 0x02	; 2
     f52:	de 01       	movw	r26, r28
     f54:	16 96       	adiw	r26, 0x06	; 6
	for (i = 0; i < deviceInfoTable.size; i++) {
     f56:	86 e0       	ldi	r24, 0x06	; 6
     f58:	08 9f       	mul	r16, r24
     f5a:	90 01       	movw	r18, r0
     f5c:	11 24       	eor	r1, r1
     f5e:	2e 0f       	add	r18, r30
     f60:	3f 1f       	adc	r19, r31
     f62:	08 c0       	rjmp	.+16     	; 0xf74 <plcs_NCP_LC100_SendRegisterBroadcastReq+0x50>
		payload[len++] = deviceInfoTable.deviceInfo[i].nodeId >> 8;
     f64:	90 81       	ld	r25, Z
     f66:	81 81       	ldd	r24, Z+1	; 0x01
     f68:	8c 93       	st	X, r24
		payload[len++] = deviceInfoTable.deviceInfo[i].nodeId;
     f6a:	11 96       	adiw	r26, 0x01	; 1
     f6c:	9c 93       	st	X, r25
     f6e:	11 97       	sbiw	r26, 0x01	; 1
     f70:	36 96       	adiw	r30, 0x06	; 6
     f72:	12 96       	adiw	r26, 0x02	; 2
	payload[len++] = NCP_REQ_REGISTER_BROADCAST;
	payload[len++] = 0xff;
	payload[len++] = 0xff;
	payload[len++] = flag;
	payload[len++] = deviceInfoTable.size;
	for (i = 0; i < deviceInfoTable.size; i++) {
     f74:	e2 17       	cp	r30, r18
     f76:	f3 07       	cpc	r31, r19
     f78:	a9 f7       	brne	.-22     	; 0xf64 <plcs_NCP_LC100_SendRegisterBroadcastReq+0x40>
		payload[len++] = deviceInfoTable.deviceInfo[i].nodeId >> 8;
		payload[len++] = deviceInfoTable.deviceInfo[i].nodeId;
	}

	resultLen = plcs_GetNCPMessage(tmp_Buff, 0xffff, NCP_GW_ID, payload, len);
     f7a:	10 e0       	ldi	r17, 0x00	; 0
     f7c:	00 0f       	add	r16, r16
     f7e:	11 1f       	adc	r17, r17
     f80:	0b 5f       	subi	r16, 0xFB	; 251
     f82:	1f 4f       	sbci	r17, 0xFF	; 255
     f84:	8a e8       	ldi	r24, 0x8A	; 138
     f86:	92 e0       	ldi	r25, 0x02	; 2
     f88:	6f ef       	ldi	r22, 0xFF	; 255
     f8a:	7f ef       	ldi	r23, 0xFF	; 255
     f8c:	41 e0       	ldi	r20, 0x01	; 1
     f8e:	50 e0       	ldi	r21, 0x00	; 0
     f90:	9e 01       	movw	r18, r28
     f92:	2f 5f       	subi	r18, 0xFF	; 255
     f94:	3f 4f       	sbci	r19, 0xFF	; 255
     f96:	0e 94 57 06 	call	0xcae	; 0xcae <plcs_GetNCPMessage>
     f9a:	68 2f       	mov	r22, r24
	sendToController(tmp_Buff, resultLen);
     f9c:	8a e8       	ldi	r24, 0x8A	; 138
     f9e:	92 e0       	ldi	r25, 0x02	; 2
     fa0:	70 e0       	ldi	r23, 0x00	; 0
     fa2:	0e 94 bc 1d 	call	0x3b78	; 0x3b78 <sendToController>
}
     fa6:	ec 96       	adiw	r28, 0x3c	; 60
     fa8:	0f b6       	in	r0, 0x3f	; 63
     faa:	f8 94       	cli
     fac:	de bf       	out	0x3e, r29	; 62
     fae:	0f be       	out	0x3f, r0	; 63
     fb0:	cd bf       	out	0x3d, r28	; 61
     fb2:	cf 91       	pop	r28
     fb4:	df 91       	pop	r29
     fb6:	1f 91       	pop	r17
     fb8:	0f 91       	pop	r16
     fba:	08 95       	ret

00000fbc <plcs_NCP_LC100_SendTimeInfo>:
	sendToController(tmp_Buff, resultLen);

	MSLEEP(3);
}

void plcs_NCP_LC100_SendTimeInfo(uint16 nodeId, uint8 hour, uint8 min) {
     fbc:	ef 92       	push	r14
     fbe:	ff 92       	push	r15
     fc0:	0f 93       	push	r16
     fc2:	df 93       	push	r29
     fc4:	cf 93       	push	r28
     fc6:	cd b7       	in	r28, 0x3d	; 61
     fc8:	de b7       	in	r29, 0x3e	; 62
     fca:	2a 97       	sbiw	r28, 0x0a	; 10
     fcc:	0f b6       	in	r0, 0x3f	; 63
     fce:	f8 94       	cli
     fd0:	de bf       	out	0x3e, r29	; 62
     fd2:	0f be       	out	0x3f, r0	; 63
     fd4:	cd bf       	out	0x3d, r28	; 61
     fd6:	9c 01       	movw	r18, r24
	int len = 0;
	uint8 payload[10];
	uint8 resultLen = 0;

	payload[len++] = NCP_SEND_TIME_INFO;
     fd8:	85 e1       	ldi	r24, 0x15	; 21
     fda:	89 83       	std	Y+1, r24	; 0x01
	payload[len++] = hour;
     fdc:	6a 83       	std	Y+2, r22	; 0x02
	payload[len++] = min;
     fde:	4b 83       	std	Y+3, r20	; 0x03

	resultLen = plcs_GetNCPMessage(tmp_Buff, nodeId, NCP_GW_ID, payload, len);
     fe0:	4a e8       	ldi	r20, 0x8A	; 138
     fe2:	e4 2e       	mov	r14, r20
     fe4:	42 e0       	ldi	r20, 0x02	; 2
     fe6:	f4 2e       	mov	r15, r20
     fe8:	c7 01       	movw	r24, r14
     fea:	b9 01       	movw	r22, r18
     fec:	41 e0       	ldi	r20, 0x01	; 1
     fee:	50 e0       	ldi	r21, 0x00	; 0
     ff0:	9e 01       	movw	r18, r28
     ff2:	2f 5f       	subi	r18, 0xFF	; 255
     ff4:	3f 4f       	sbci	r19, 0xFF	; 255
     ff6:	03 e0       	ldi	r16, 0x03	; 3
     ff8:	0e 94 57 06 	call	0xcae	; 0xcae <plcs_GetNCPMessage>
     ffc:	68 2f       	mov	r22, r24
	sendToController(tmp_Buff, resultLen);
     ffe:	c7 01       	movw	r24, r14
    1000:	70 e0       	ldi	r23, 0x00	; 0
    1002:	0e 94 bc 1d 	call	0x3b78	; 0x3b78 <sendToController>
    1006:	80 ee       	ldi	r24, 0xE0	; 224
    1008:	9e e2       	ldi	r25, 0x2E	; 46
    100a:	01 97       	sbiw	r24, 0x01	; 1
    100c:	f1 f7       	brne	.-4      	; 0x100a <plcs_NCP_LC100_SendTimeInfo+0x4e>

	MSLEEP(3);
}
    100e:	2a 96       	adiw	r28, 0x0a	; 10
    1010:	0f b6       	in	r0, 0x3f	; 63
    1012:	f8 94       	cli
    1014:	de bf       	out	0x3e, r29	; 62
    1016:	0f be       	out	0x3f, r0	; 63
    1018:	cd bf       	out	0x3d, r28	; 61
    101a:	cf 91       	pop	r28
    101c:	df 91       	pop	r29
    101e:	0f 91       	pop	r16
    1020:	ff 90       	pop	r15
    1022:	ef 90       	pop	r14
    1024:	08 95       	ret

00001026 <plcs_NCP_LC100_SendReleaseTokenRes>:
	plcs_NCP_LC100_SendReleaseTokenRes(srcId, seqNum);

	token = -1;
}

void plcs_NCP_LC100_SendReleaseTokenRes(uint16 nodeId, uint16 seqNum) {
    1026:	cf 92       	push	r12
    1028:	df 92       	push	r13
    102a:	ef 92       	push	r14
    102c:	ff 92       	push	r15
    102e:	0f 93       	push	r16
    1030:	df 93       	push	r29
    1032:	cf 93       	push	r28
    1034:	cd b7       	in	r28, 0x3d	; 61
    1036:	de b7       	in	r29, 0x3e	; 62
    1038:	2a 97       	sbiw	r28, 0x0a	; 10
    103a:	0f b6       	in	r0, 0x3f	; 63
    103c:	f8 94       	cli
    103e:	de bf       	out	0x3e, r29	; 62
    1040:	0f be       	out	0x3f, r0	; 63
    1042:	cd bf       	out	0x3d, r28	; 61
    1044:	9c 01       	movw	r18, r24
    1046:	7b 01       	movw	r14, r22
	int len = 0;
	uint8 payload[10];
	uint8 resultLen = 0;

	payload[len++] = NCP_RES_TOKEN_RELEASE;
    1048:	88 e0       	ldi	r24, 0x08	; 8
    104a:	89 83       	std	Y+1, r24	; 0x01
	payload[len++] = nodeId >> 8;
    104c:	3a 83       	std	Y+2, r19	; 0x02
	payload[len++] = nodeId;
    104e:	2b 83       	std	Y+3, r18	; 0x03

	resultLen = plcs_GetNCPResMessage(tmp_Buff, nodeId, NCP_GW_ID, payload, len,
    1050:	5a e8       	ldi	r21, 0x8A	; 138
    1052:	c5 2e       	mov	r12, r21
    1054:	52 e0       	ldi	r21, 0x02	; 2
    1056:	d5 2e       	mov	r13, r21
    1058:	c6 01       	movw	r24, r12
    105a:	b9 01       	movw	r22, r18
    105c:	41 e0       	ldi	r20, 0x01	; 1
    105e:	50 e0       	ldi	r21, 0x00	; 0
    1060:	9e 01       	movw	r18, r28
    1062:	2f 5f       	subi	r18, 0xFF	; 255
    1064:	3f 4f       	sbci	r19, 0xFF	; 255
    1066:	03 e0       	ldi	r16, 0x03	; 3
    1068:	0e 94 8e 06 	call	0xd1c	; 0xd1c <plcs_GetNCPResMessage>
    106c:	68 2f       	mov	r22, r24
			seqNum);
	sendToController(tmp_Buff, resultLen);
    106e:	c6 01       	movw	r24, r12
    1070:	70 e0       	ldi	r23, 0x00	; 0
    1072:	0e 94 bc 1d 	call	0x3b78	; 0x3b78 <sendToController>

}
    1076:	2a 96       	adiw	r28, 0x0a	; 10
    1078:	0f b6       	in	r0, 0x3f	; 63
    107a:	f8 94       	cli
    107c:	de bf       	out	0x3e, r29	; 62
    107e:	0f be       	out	0x3f, r0	; 63
    1080:	cd bf       	out	0x3d, r28	; 61
    1082:	cf 91       	pop	r28
    1084:	df 91       	pop	r29
    1086:	0f 91       	pop	r16
    1088:	ff 90       	pop	r15
    108a:	ef 90       	pop	r14
    108c:	df 90       	pop	r13
    108e:	cf 90       	pop	r12
    1090:	08 95       	ret

00001092 <plcs_NCP_LC100_HandleReleaseTokenReq>:
	sendToController(tmp_Buff, resultLen);
	return 0;
}

void plcs_NCP_LC100_HandleReleaseTokenReq(uint16 seqNum, uint16 srcId,
		uint16 destId, uint8 msg[], int length) {
    1092:	9c 01       	movw	r18, r24
    1094:	cb 01       	movw	r24, r22
	plcs_NCP_LC100_SendReleaseTokenRes(srcId, seqNum);
    1096:	b9 01       	movw	r22, r18
    1098:	0e 94 13 08 	call	0x1026	; 0x1026 <plcs_NCP_LC100_SendReleaseTokenRes>

	token = -1;
    109c:	8f ef       	ldi	r24, 0xFF	; 255
    109e:	9f ef       	ldi	r25, 0xFF	; 255
    10a0:	90 93 01 01 	sts	0x0101, r25
    10a4:	80 93 00 01 	sts	0x0100, r24
}
    10a8:	08 95       	ret

000010aa <plcs_NCP_LC100_AssignToken>:

uint16 plcs_NCP_LC100_GetToken() {
	return token;
}

char plcs_NCP_LC100_AssignToken(uint16 nodeId) {
    10aa:	0f 93       	push	r16
    10ac:	df 93       	push	r29
    10ae:	cf 93       	push	r28
    10b0:	cd b7       	in	r28, 0x3d	; 61
    10b2:	de b7       	in	r29, 0x3e	; 62
    10b4:	2a 97       	sbiw	r28, 0x0a	; 10
    10b6:	0f b6       	in	r0, 0x3f	; 63
    10b8:	f8 94       	cli
    10ba:	de bf       	out	0x3e, r29	; 62
    10bc:	0f be       	out	0x3f, r0	; 63
    10be:	cd bf       	out	0x3d, r28	; 61
    10c0:	bc 01       	movw	r22, r24
	int len = 0;
	uint8 payload[10];
	uint8 resultLen = 0;

	if (token != -1)
    10c2:	80 91 00 01 	lds	r24, 0x0100
    10c6:	90 91 01 01 	lds	r25, 0x0101
    10ca:	8f 5f       	subi	r24, 0xFF	; 255
    10cc:	9f 4f       	sbci	r25, 0xFF	; 255
    10ce:	51 f4       	brne	.+20     	; 0x10e4 <plcs_NCP_LC100_AssignToken+0x3a>
		return -1; //token 이미 할당된후 해제 되지 않음.
	if (nodeId == token) { //이미 할당된 노드. 할당 해제.
    10d0:	8f ef       	ldi	r24, 0xFF	; 255
    10d2:	6f 3f       	cpi	r22, 0xFF	; 255
    10d4:	78 07       	cpc	r23, r24
    10d6:	41 f4       	brne	.+16     	; 0x10e8 <plcs_NCP_LC100_AssignToken+0x3e>
		plcs_NCP_LC100_SendReleaseTokenRes(nodeId, 0);
    10d8:	8f ef       	ldi	r24, 0xFF	; 255
    10da:	9f ef       	ldi	r25, 0xFF	; 255
    10dc:	60 e0       	ldi	r22, 0x00	; 0
    10de:	70 e0       	ldi	r23, 0x00	; 0
    10e0:	0e 94 13 08 	call	0x1026	; 0x1026 <plcs_NCP_LC100_SendReleaseTokenRes>
    10e4:	8f ef       	ldi	r24, 0xFF	; 255
    10e6:	19 c0       	rjmp	.+50     	; 0x111a <__stack+0x1b>
    10e8:	80 e2       	ldi	r24, 0x20	; 32
    10ea:	9e e4       	ldi	r25, 0x4E	; 78
    10ec:	01 97       	sbiw	r24, 0x01	; 1
    10ee:	f1 f7       	brne	.-4      	; 0x10ec <plcs_NCP_LC100_AssignToken+0x42>
		return -1;
	}

	MSLEEP(5);
	payload[len++] = NCP_ASSIGN_TOKEN;
    10f0:	86 e0       	ldi	r24, 0x06	; 6
    10f2:	89 83       	std	Y+1, r24	; 0x01
	payload[len++] = nodeId >> 8;
    10f4:	7a 83       	std	Y+2, r23	; 0x02
	payload[len++] = nodeId;
    10f6:	6b 83       	std	Y+3, r22	; 0x03

	resultLen = plcs_GetNCPMessage(tmp_Buff, nodeId, NCP_GW_ID, payload, len);
    10f8:	8a e8       	ldi	r24, 0x8A	; 138
    10fa:	92 e0       	ldi	r25, 0x02	; 2
    10fc:	41 e0       	ldi	r20, 0x01	; 1
    10fe:	50 e0       	ldi	r21, 0x00	; 0
    1100:	9e 01       	movw	r18, r28
    1102:	2f 5f       	subi	r18, 0xFF	; 255
    1104:	3f 4f       	sbci	r19, 0xFF	; 255
    1106:	03 e0       	ldi	r16, 0x03	; 3
    1108:	0e 94 57 06 	call	0xcae	; 0xcae <plcs_GetNCPMessage>
    110c:	68 2f       	mov	r22, r24
	sendToController(tmp_Buff, resultLen);
    110e:	8a e8       	ldi	r24, 0x8A	; 138
    1110:	92 e0       	ldi	r25, 0x02	; 2
    1112:	70 e0       	ldi	r23, 0x00	; 0
    1114:	0e 94 bc 1d 	call	0x3b78	; 0x3b78 <sendToController>
    1118:	80 e0       	ldi	r24, 0x00	; 0
	return 0;
}
    111a:	2a 96       	adiw	r28, 0x0a	; 10
    111c:	0f b6       	in	r0, 0x3f	; 63
    111e:	f8 94       	cli
    1120:	de bf       	out	0x3e, r29	; 62
    1122:	0f be       	out	0x3f, r0	; 63
    1124:	cd bf       	out	0x3d, r28	; 61
    1126:	cf 91       	pop	r28
    1128:	df 91       	pop	r29
    112a:	0f 91       	pop	r16
    112c:	08 95       	ret

0000112e <plcs_NCP_LC100_SendRegisterRes>:
	sendToController(tmp_Buff, resultLen);
	MSLEEP(3);
}

void plcs_NCP_LC100_SendRegisterRes(uint16 seqNum, uint16 nodeId, uint16 result,
		uint16 timeout) {
    112e:	cf 92       	push	r12
    1130:	df 92       	push	r13
    1132:	ef 92       	push	r14
    1134:	ff 92       	push	r15
    1136:	0f 93       	push	r16
    1138:	df 93       	push	r29
    113a:	cf 93       	push	r28
    113c:	cd b7       	in	r28, 0x3d	; 61
    113e:	de b7       	in	r29, 0x3e	; 62
    1140:	2a 97       	sbiw	r28, 0x0a	; 10
    1142:	0f b6       	in	r0, 0x3f	; 63
    1144:	f8 94       	cli
    1146:	de bf       	out	0x3e, r29	; 62
    1148:	0f be       	out	0x3f, r0	; 63
    114a:	cd bf       	out	0x3d, r28	; 61
    114c:	7c 01       	movw	r14, r24
	int len = 0;
	uint8 payload[10];
	uint8 resultLen = 0;

	payload[len++] = NCP_RES_REGISTER;
    114e:	82 e1       	ldi	r24, 0x12	; 18
    1150:	89 83       	std	Y+1, r24	; 0x01
	payload[len++] = (uint8) (result >> 8);
    1152:	5a 83       	std	Y+2, r21	; 0x02
	payload[len++] = (uint8) (result);
    1154:	4b 83       	std	Y+3, r20	; 0x03
	payload[len++] = (uint8) (timeout >> 8);
    1156:	3c 83       	std	Y+4, r19	; 0x04
	payload[len++] = (uint8) (timeout);
    1158:	2d 83       	std	Y+5, r18	; 0x05

	resultLen = plcs_GetNCPResMessage(tmp_Buff, nodeId, NCP_GW_ID, payload, len,
    115a:	ea e8       	ldi	r30, 0x8A	; 138
    115c:	ce 2e       	mov	r12, r30
    115e:	e2 e0       	ldi	r30, 0x02	; 2
    1160:	de 2e       	mov	r13, r30
    1162:	c6 01       	movw	r24, r12
    1164:	41 e0       	ldi	r20, 0x01	; 1
    1166:	50 e0       	ldi	r21, 0x00	; 0
    1168:	9e 01       	movw	r18, r28
    116a:	2f 5f       	subi	r18, 0xFF	; 255
    116c:	3f 4f       	sbci	r19, 0xFF	; 255
    116e:	05 e0       	ldi	r16, 0x05	; 5
    1170:	0e 94 8e 06 	call	0xd1c	; 0xd1c <plcs_GetNCPResMessage>
    1174:	68 2f       	mov	r22, r24
			seqNum);
	sendToController(tmp_Buff, resultLen);
    1176:	c6 01       	movw	r24, r12
    1178:	70 e0       	ldi	r23, 0x00	; 0
    117a:	0e 94 bc 1d 	call	0x3b78	; 0x3b78 <sendToController>
    117e:	80 ee       	ldi	r24, 0xE0	; 224
    1180:	9e e2       	ldi	r25, 0x2E	; 46
    1182:	01 97       	sbiw	r24, 0x01	; 1
    1184:	f1 f7       	brne	.-4      	; 0x1182 <plcs_NCP_LC100_SendRegisterRes+0x54>

	MSLEEP(3);
}
    1186:	2a 96       	adiw	r28, 0x0a	; 10
    1188:	0f b6       	in	r0, 0x3f	; 63
    118a:	f8 94       	cli
    118c:	de bf       	out	0x3e, r29	; 62
    118e:	0f be       	out	0x3f, r0	; 63
    1190:	cd bf       	out	0x3d, r28	; 61
    1192:	cf 91       	pop	r28
    1194:	df 91       	pop	r29
    1196:	0f 91       	pop	r16
    1198:	ff 90       	pop	r15
    119a:	ef 90       	pop	r14
    119c:	df 90       	pop	r13
    119e:	cf 90       	pop	r12
    11a0:	08 95       	ret

000011a2 <plcs_NCP_LC100_SendPingRes>:
////////////////////////////////////////////////////////////////////////////////////////////////////////////////
//SendProtocol
////////////////////////////////////////////////////////////////////////////////////////////////////////////////

void plcs_NCP_LC100_SendPingRes(uint16 seqNum, uint16 nodeId, uint8 flag,
		uint16 pingInterval) {
    11a2:	cf 92       	push	r12
    11a4:	df 92       	push	r13
    11a6:	ef 92       	push	r14
    11a8:	ff 92       	push	r15
    11aa:	0f 93       	push	r16
    11ac:	df 93       	push	r29
    11ae:	cf 93       	push	r28
    11b0:	cd b7       	in	r28, 0x3d	; 61
    11b2:	de b7       	in	r29, 0x3e	; 62
    11b4:	2a 97       	sbiw	r28, 0x0a	; 10
    11b6:	0f b6       	in	r0, 0x3f	; 63
    11b8:	f8 94       	cli
    11ba:	de bf       	out	0x3e, r29	; 62
    11bc:	0f be       	out	0x3f, r0	; 63
    11be:	cd bf       	out	0x3d, r28	; 61
    11c0:	7c 01       	movw	r14, r24
	int len = 0;
	uint8 payload[10];
	uint8 resultLen = 0;

	payload[len++] = NCP_RES_PING;
    11c2:	82 e0       	ldi	r24, 0x02	; 2
    11c4:	89 83       	std	Y+1, r24	; 0x01
	payload[len++] = flag;
    11c6:	4a 83       	std	Y+2, r20	; 0x02
	payload[len++] = pingInterval >> 8;
    11c8:	3b 83       	std	Y+3, r19	; 0x03
	payload[len++] = pingInterval;
    11ca:	2c 83       	std	Y+4, r18	; 0x04

	resultLen = plcs_GetNCPResMessage(tmp_Buff, nodeId, NCP_GW_ID, payload, len,
    11cc:	fa e8       	ldi	r31, 0x8A	; 138
    11ce:	cf 2e       	mov	r12, r31
    11d0:	f2 e0       	ldi	r31, 0x02	; 2
    11d2:	df 2e       	mov	r13, r31
    11d4:	c6 01       	movw	r24, r12
    11d6:	41 e0       	ldi	r20, 0x01	; 1
    11d8:	50 e0       	ldi	r21, 0x00	; 0
    11da:	9e 01       	movw	r18, r28
    11dc:	2f 5f       	subi	r18, 0xFF	; 255
    11de:	3f 4f       	sbci	r19, 0xFF	; 255
    11e0:	04 e0       	ldi	r16, 0x04	; 4
    11e2:	0e 94 8e 06 	call	0xd1c	; 0xd1c <plcs_GetNCPResMessage>
    11e6:	68 2f       	mov	r22, r24
			seqNum);
	sendToController(tmp_Buff, resultLen);
    11e8:	c6 01       	movw	r24, r12
    11ea:	70 e0       	ldi	r23, 0x00	; 0
    11ec:	0e 94 bc 1d 	call	0x3b78	; 0x3b78 <sendToController>
    11f0:	80 ee       	ldi	r24, 0xE0	; 224
    11f2:	9e e2       	ldi	r25, 0x2E	; 46
    11f4:	01 97       	sbiw	r24, 0x01	; 1
    11f6:	f1 f7       	brne	.-4      	; 0x11f4 <plcs_NCP_LC100_SendPingRes+0x52>
	MSLEEP(3);
}
    11f8:	2a 96       	adiw	r28, 0x0a	; 10
    11fa:	0f b6       	in	r0, 0x3f	; 63
    11fc:	f8 94       	cli
    11fe:	de bf       	out	0x3e, r29	; 62
    1200:	0f be       	out	0x3f, r0	; 63
    1202:	cd bf       	out	0x3d, r28	; 61
    1204:	cf 91       	pop	r28
    1206:	df 91       	pop	r29
    1208:	0f 91       	pop	r16
    120a:	ff 90       	pop	r15
    120c:	ef 90       	pop	r14
    120e:	df 90       	pop	r13
    1210:	cf 90       	pop	r12
    1212:	08 95       	ret

00001214 <plcs_NCP_LC100_HandleRegisterNodeReq>:

	//timer_set(NCP_PING_TIMER_ID, 1000);
}

void plcs_NCP_LC100_HandleRegisterNodeReq(uint16 seqNum, uint16 srcId,
		uint16 destId, uint8 msg[], int length) {
    1214:	ef 92       	push	r14
    1216:	ff 92       	push	r15
    1218:	0f 93       	push	r16
    121a:	1f 93       	push	r17
    121c:	d9 01       	movw	r26, r18
	deviceId = msg[13] << 8 | msg[14];
	deviceVersion = msg[15];
	firmVersion = msg[16];
	netAddr = msg[17] << 8 | msg[18];

	plcs_NCP_SERVER_SendRegisterNodeReq(subNodeId, deviceType, deviceId,
    121e:	19 96       	adiw	r26, 0x09	; 9
    1220:	9c 91       	ld	r25, X
    1222:	19 97       	sbiw	r26, 0x09	; 9
    1224:	80 e0       	ldi	r24, 0x00	; 0
    1226:	1a 96       	adiw	r26, 0x0a	; 10
    1228:	0c 91       	ld	r16, X
    122a:	1a 97       	sbiw	r26, 0x0a	; 10
    122c:	10 e0       	ldi	r17, 0x00	; 0
    122e:	1b 96       	adiw	r26, 0x0b	; 11
    1230:	7c 91       	ld	r23, X
    1232:	1b 97       	sbiw	r26, 0x0b	; 11
    1234:	60 e0       	ldi	r22, 0x00	; 0
    1236:	1c 96       	adiw	r26, 0x0c	; 12
    1238:	2c 91       	ld	r18, X
    123a:	1c 97       	sbiw	r26, 0x0c	; 12
    123c:	30 e0       	ldi	r19, 0x00	; 0
    123e:	62 2b       	or	r22, r18
    1240:	73 2b       	or	r23, r19
    1242:	1d 96       	adiw	r26, 0x0d	; 13
    1244:	5c 91       	ld	r21, X
    1246:	1d 97       	sbiw	r26, 0x0d	; 13
    1248:	40 e0       	ldi	r20, 0x00	; 0
    124a:	1e 96       	adiw	r26, 0x0e	; 14
    124c:	2c 91       	ld	r18, X
    124e:	1e 97       	sbiw	r26, 0x0e	; 14
    1250:	30 e0       	ldi	r19, 0x00	; 0
    1252:	42 2b       	or	r20, r18
    1254:	53 2b       	or	r21, r19
    1256:	51 96       	adiw	r26, 0x11	; 17
    1258:	fc 91       	ld	r31, X
    125a:	51 97       	sbiw	r26, 0x11	; 17
    125c:	e0 e0       	ldi	r30, 0x00	; 0
    125e:	52 96       	adiw	r26, 0x12	; 18
    1260:	2c 91       	ld	r18, X
    1262:	52 97       	sbiw	r26, 0x12	; 18
    1264:	30 e0       	ldi	r19, 0x00	; 0
    1266:	e2 2b       	or	r30, r18
    1268:	f3 2b       	or	r31, r19
    126a:	80 2b       	or	r24, r16
    126c:	91 2b       	or	r25, r17
    126e:	1f 96       	adiw	r26, 0x0f	; 15
    1270:	2c 91       	ld	r18, X
    1272:	1f 97       	sbiw	r26, 0x0f	; 15
    1274:	50 96       	adiw	r26, 0x10	; 16
    1276:	0c 91       	ld	r16, X
    1278:	7f 01       	movw	r14, r30
    127a:	0e 94 41 0c 	call	0x1882	; 0x1882 <plcs_NCP_SERVER_SendRegisterNodeReq>
			deviceVersion, firmVersion, netAddr);
}
    127e:	1f 91       	pop	r17
    1280:	0f 91       	pop	r16
    1282:	ff 90       	pop	r15
    1284:	ef 90       	pop	r14
    1286:	08 95       	ret

00001288 <plcs_NCP_LC100_HandlePingReq>:
	plcs_NCP_LC100_SendRegisterRes(seqNum, srcId, 0, 30);

}

void plcs_NCP_LC100_HandlePingReq(uint16 seqNum, uint16 srcId, uint16 destId,
		uint8 msg[], int length) {
    1288:	ff 92       	push	r15
    128a:	0f 93       	push	r16
    128c:	1f 93       	push	r17
    128e:	cf 93       	push	r28
    1290:	df 93       	push	r29
    1292:	8c 01       	movw	r16, r24
    1294:	eb 01       	movw	r28, r22
    1296:	f9 01       	movw	r30, r18
	uint8 protocol_Ver;
	uint8 flag = 0;

	//msg[8] = messageType
	protocol_Ver = msg[9];
	flag = msg[10];
    1298:	f2 84       	ldd	r15, Z+10	; 0x0a

	// Send Response Ping
	if (isContainNodeOfId(srcId))
    129a:	cb 01       	movw	r24, r22
    129c:	0e 94 54 05 	call	0xaa8	; 0xaa8 <isContainNodeOfId>
    12a0:	89 2b       	or	r24, r25
    12a2:	39 f0       	breq	.+14     	; 0x12b2 <plcs_NCP_LC100_HandlePingReq+0x2a>
		plcs_NCP_LC100_SendPingRes(seqNum, srcId, flag, PING_TIME);
    12a4:	c8 01       	movw	r24, r16
    12a6:	be 01       	movw	r22, r28
    12a8:	4f 2d       	mov	r20, r15
    12aa:	2c e3       	ldi	r18, 0x3C	; 60
    12ac:	30 e0       	ldi	r19, 0x00	; 0
    12ae:	0e 94 d1 08 	call	0x11a2	; 0x11a2 <plcs_NCP_LC100_SendPingRes>

	//timer_set(NCP_PING_TIMER_ID, 1000);
}
    12b2:	df 91       	pop	r29
    12b4:	cf 91       	pop	r28
    12b6:	1f 91       	pop	r17
    12b8:	0f 91       	pop	r16
    12ba:	ff 90       	pop	r15
    12bc:	08 95       	ret

000012be <plcs_NCP_LC100_HandleRegisterReq>:
		break;
	}
}

void plcs_NCP_LC100_HandleRegisterReq(uint16 seqNum, uint16 srcId,
		uint16 destId, uint8 msg[], int length) {
    12be:	7f 92       	push	r7
    12c0:	8f 92       	push	r8
    12c2:	9f 92       	push	r9
    12c4:	af 92       	push	r10
    12c6:	bf 92       	push	r11
    12c8:	cf 92       	push	r12
    12ca:	df 92       	push	r13
    12cc:	ef 92       	push	r14
    12ce:	ff 92       	push	r15
    12d0:	0f 93       	push	r16
    12d2:	1f 93       	push	r17
    12d4:	4c 01       	movw	r8, r24
    12d6:	6b 01       	movw	r12, r22
    12d8:	89 01       	movw	r16, r18
	uint8 device_Ver;
	uint8 fw_Ver;
	uint8 min, hour;

	//msg[8] = messageType
	min = ds1307_read(1);
    12da:	81 e0       	ldi	r24, 0x01	; 1
    12dc:	90 e0       	ldi	r25, 0x00	; 0
    12de:	0e 94 51 04 	call	0x8a2	; 0x8a2 <ds1307_read>
    12e2:	78 2e       	mov	r7, r24
	hour = ds1307_read(2);
    12e4:	82 e0       	ldi	r24, 0x02	; 2
    12e6:	90 e0       	ldi	r25, 0x00	; 0
    12e8:	0e 94 51 04 	call	0x8a2	; 0x8a2 <ds1307_read>
    12ec:	a8 2e       	mov	r10, r24

	deviceType = (uint16) ((msg[9] << 8) | msg[10]);
    12ee:	f8 01       	movw	r30, r16
    12f0:	91 85       	ldd	r25, Z+9	; 0x09
    12f2:	80 e0       	ldi	r24, 0x00	; 0
    12f4:	e2 84       	ldd	r14, Z+10	; 0x0a
    12f6:	ff 24       	eor	r15, r15
    12f8:	e8 2a       	or	r14, r24
    12fa:	f9 2a       	or	r15, r25
	device_Ver = msg[11];
    12fc:	b3 84       	ldd	r11, Z+11	; 0x0b
	fw_Ver = msg[12];
    12fe:	04 85       	ldd	r16, Z+12	; 0x0c

	updateDeviceTable(srcId, device_Ver, fw_Ver);
    1300:	c6 01       	movw	r24, r12
    1302:	6b 2d       	mov	r22, r11
    1304:	40 2f       	mov	r20, r16
    1306:	0e 94 82 05 	call	0xb04	; 0xb04 <updateDeviceTable>
	plcs_NCP_LC100_SendTimeInfo(srcId, hour, min);
    130a:	c6 01       	movw	r24, r12
    130c:	6a 2d       	mov	r22, r10
    130e:	47 2d       	mov	r20, r7
    1310:	0e 94 de 07 	call	0xfbc	; 0xfbc <plcs_NCP_LC100_SendTimeInfo>
	plcs_NCP_SERVER_SendRegisterNodeReq(srcId, deviceType, srcId, device_Ver,
    1314:	c6 01       	movw	r24, r12
    1316:	b7 01       	movw	r22, r14
    1318:	a6 01       	movw	r20, r12
    131a:	2b 2d       	mov	r18, r11
    131c:	76 01       	movw	r14, r12
    131e:	0e 94 41 0c 	call	0x1882	; 0x1882 <plcs_NCP_SERVER_SendRegisterNodeReq>
			fw_Ver, srcId);

	plcs_NCP_LC100_SendRegisterRes(seqNum, srcId, 0, 30);
    1322:	c4 01       	movw	r24, r8
    1324:	b6 01       	movw	r22, r12
    1326:	40 e0       	ldi	r20, 0x00	; 0
    1328:	50 e0       	ldi	r21, 0x00	; 0
    132a:	2e e1       	ldi	r18, 0x1E	; 30
    132c:	30 e0       	ldi	r19, 0x00	; 0
    132e:	0e 94 97 08 	call	0x112e	; 0x112e <plcs_NCP_LC100_SendRegisterRes>

}
    1332:	1f 91       	pop	r17
    1334:	0f 91       	pop	r16
    1336:	ff 90       	pop	r15
    1338:	ef 90       	pop	r14
    133a:	df 90       	pop	r13
    133c:	cf 90       	pop	r12
    133e:	bf 90       	pop	r11
    1340:	af 90       	pop	r10
    1342:	9f 90       	pop	r9
    1344:	8f 90       	pop	r8
    1346:	7f 90       	pop	r7
    1348:	08 95       	ret

0000134a <plcs_NCP_LC100_ProcessMessage>:
		break;
	}
}

void plcs_NCP_LC100_ProcessMessage(uint16 seqNum, uint16 srcId, uint16 destId,
		uint8 msg[], int length) {
    134a:	0f 93       	push	r16
    134c:	1f 93       	push	r17
    134e:	fc 01       	movw	r30, r24
    1350:	d9 01       	movw	r26, r18
	uint8 msgType;
	msgType = msg[8];

	switch (msgType) {
    1352:	18 96       	adiw	r26, 0x08	; 8
    1354:	8c 91       	ld	r24, X
    1356:	18 97       	sbiw	r26, 0x08	; 8
    1358:	87 30       	cpi	r24, 0x07	; 7
    135a:	b1 f0       	breq	.+44     	; 0x1388 <plcs_NCP_LC100_ProcessMessage+0x3e>
    135c:	88 30       	cpi	r24, 0x08	; 8
    135e:	18 f4       	brcc	.+6      	; 0x1366 <plcs_NCP_LC100_ProcessMessage+0x1c>
    1360:	81 30       	cpi	r24, 0x01	; 1
    1362:	e1 f4       	brne	.+56     	; 0x139c <plcs_NCP_LC100_ProcessMessage+0x52>
    1364:	09 c0       	rjmp	.+18     	; 0x1378 <plcs_NCP_LC100_ProcessMessage+0x2e>
    1366:	81 31       	cpi	r24, 0x11	; 17
    1368:	19 f0       	breq	.+6      	; 0x1370 <plcs_NCP_LC100_ProcessMessage+0x26>
    136a:	83 31       	cpi	r24, 0x13	; 19
    136c:	b9 f4       	brne	.+46     	; 0x139c <plcs_NCP_LC100_ProcessMessage+0x52>
    136e:	08 c0       	rjmp	.+16     	; 0x1380 <plcs_NCP_LC100_ProcessMessage+0x36>
	case NCP_REQ_REGISTER:
		plcs_NCP_LC100_HandleRegisterReq(seqNum, srcId, destId, msg, length);
    1370:	cf 01       	movw	r24, r30
    1372:	0e 94 5f 09 	call	0x12be	; 0x12be <plcs_NCP_LC100_HandleRegisterReq>
    1376:	12 c0       	rjmp	.+36     	; 0x139c <plcs_NCP_LC100_ProcessMessage+0x52>
		break;
	case NCP_REQ_PING:
		plcs_NCP_LC100_HandlePingReq(seqNum, srcId, destId, msg, length);
    1378:	cf 01       	movw	r24, r30
    137a:	0e 94 44 09 	call	0x1288	; 0x1288 <plcs_NCP_LC100_HandlePingReq>
    137e:	0e c0       	rjmp	.+28     	; 0x139c <plcs_NCP_LC100_ProcessMessage+0x52>
		break;
	case NCP_REQ_REGISTER_NODE:
		plcs_NCP_LC100_HandleRegisterNodeReq(seqNum, srcId, destId, msg,
    1380:	cf 01       	movw	r24, r30
    1382:	0e 94 0a 09 	call	0x1214	; 0x1214 <plcs_NCP_LC100_HandleRegisterNodeReq>
    1386:	0a c0       	rjmp	.+20     	; 0x139c <plcs_NCP_LC100_ProcessMessage+0x52>
	return 0;
}

void plcs_NCP_LC100_HandleReleaseTokenReq(uint16 seqNum, uint16 srcId,
		uint16 destId, uint8 msg[], int length) {
	plcs_NCP_LC100_SendReleaseTokenRes(srcId, seqNum);
    1388:	cb 01       	movw	r24, r22
    138a:	bf 01       	movw	r22, r30
    138c:	0e 94 13 08 	call	0x1026	; 0x1026 <plcs_NCP_LC100_SendReleaseTokenRes>

	token = -1;
    1390:	8f ef       	ldi	r24, 0xFF	; 255
    1392:	9f ef       	ldi	r25, 0xFF	; 255
    1394:	90 93 01 01 	sts	0x0101, r25
    1398:	80 93 00 01 	sts	0x0100, r24
				length);
		break;
	default:
		break;
	}
}
    139c:	1f 91       	pop	r17
    139e:	0f 91       	pop	r16
    13a0:	08 95       	ret

000013a2 <plcs_GCP_LC100_ProcessMessage>:

// --------------------------------------------------------------------------- //
// --------------------- Process PLCS (Gateway <-> LC100)  ---------------------- //
// --------------------------------------------------------------------------- //
void plcs_GCP_LC100_ProcessMessage(uint16 seqNum, uint16 srcId, uint16 destId,
		uint8 msg[], int length) {
    13a2:	ef 92       	push	r14
    13a4:	ff 92       	push	r15
    13a6:	0f 93       	push	r16
    13a8:	1f 93       	push	r17
    13aa:	cf 93       	push	r28
    13ac:	df 93       	push	r29
    13ae:	fc 01       	movw	r30, r24
    13b0:	e9 01       	movw	r28, r18
    13b2:	78 01       	movw	r14, r16
	uint8 msgType;
	msgType = msg[8];

	switch (msgType) {
    13b4:	88 85       	ldd	r24, Y+8	; 0x08
    13b6:	80 37       	cpi	r24, 0x70	; 112
    13b8:	39 f4       	brne	.+14     	; 0x13c8 <plcs_GCP_LC100_ProcessMessage+0x26>
	case PLCS_GCP_NOTICEEVENT:
		if (isOnSensorSharing)
    13ba:	80 91 6d 01 	lds	r24, 0x016D
    13be:	88 23       	and	r24, r24
    13c0:	19 f0       	breq	.+6      	; 0x13c8 <plcs_GCP_LC100_ProcessMessage+0x26>
			plcs_GCP_LC100_HandleNoticeEventNeighbor(seqNum, srcId, destId, msg,
    13c2:	cf 01       	movw	r24, r30
    13c4:	0e 94 57 07 	call	0xeae	; 0xeae <plcs_GCP_LC100_HandleNoticeEventNeighbor>
		msg[7] = NCP_GW_ID;

		sendToServer(msg, length);
		break;
	default:
		msg[6] = NCP_GW_ID >> 8;
    13c8:	1e 82       	std	Y+6, r1	; 0x06
		msg[7] = NCP_GW_ID;
    13ca:	81 e0       	ldi	r24, 0x01	; 1
    13cc:	8f 83       	std	Y+7, r24	; 0x07

		sendToServer(msg, length);
    13ce:	ce 01       	movw	r24, r28
    13d0:	b7 01       	movw	r22, r14
    13d2:	0e 94 94 1d 	call	0x3b28	; 0x3b28 <sendToServer>
		break;
	}
}
    13d6:	df 91       	pop	r29
    13d8:	cf 91       	pop	r28
    13da:	1f 91       	pop	r17
    13dc:	0f 91       	pop	r16
    13de:	ff 90       	pop	r15
    13e0:	ef 90       	pop	r14
    13e2:	08 95       	ret

000013e4 <plcs_NCP_SERVER_GetNetworkState>:
	MSLEEP(3);
}

uint8 plcs_NCP_SERVER_GetNetworkState() {
	return plcs_NCP_SERVER_NetState;
}
    13e4:	80 91 6a 01 	lds	r24, 0x016A
    13e8:	08 95       	ret

000013ea <plcs_NCP_SERVER_GetPingIntervalTime>:

uint16 plcs_NCP_SERVER_GetPingIntervalTime() {
	return plcs_NCP_SERVER_PingInterval;
}
    13ea:	80 91 3c 01 	lds	r24, 0x013C
    13ee:	90 91 3d 01 	lds	r25, 0x013D
    13f2:	08 95       	ret

000013f4 <plcs_NCP_SERVER_GetPingCount>:

uint8 plcs_NCP_SERVER_GetPingCount() {
	return plcs_NCP_SERVER_Ping_Count;
}
    13f4:	80 91 6b 01 	lds	r24, 0x016B
    13f8:	08 95       	ret

000013fa <plcs_GCP_SERVER_SendDebugLogRes>:

	sendToServer(tmp_Buff, resultLen);
	MSLEEP(3);
}

void plcs_GCP_SERVER_SendDebugLogRes(uint16 seqNum) {
    13fa:	ef 92       	push	r14
    13fc:	ff 92       	push	r15
    13fe:	0f 93       	push	r16
    1400:	df 93       	push	r29
    1402:	cf 93       	push	r28
    1404:	cd b7       	in	r28, 0x3d	; 61
    1406:	de b7       	in	r29, 0x3e	; 62
    1408:	a8 97       	sbiw	r28, 0x28	; 40
    140a:	0f b6       	in	r0, 0x3f	; 63
    140c:	f8 94       	cli
    140e:	de bf       	out	0x3e, r29	; 62
    1410:	0f be       	out	0x3f, r0	; 63
    1412:	cd bf       	out	0x3d, r28	; 61
    1414:	7c 01       	movw	r14, r24
	int len = 0;
	uint8 payload[40];
	uint8 resultLen = 0;
	uint8 i;

	payload[len++] = PLCS_GCP_RES_DEBUG_LOG;
    1416:	81 e9       	ldi	r24, 0x91	; 145
    1418:	89 83       	std	Y+1, r24	; 0x01
	payload[len++] = ds1307_read(6);
    141a:	86 e0       	ldi	r24, 0x06	; 6
    141c:	90 e0       	ldi	r25, 0x00	; 0
    141e:	0e 94 51 04 	call	0x8a2	; 0x8a2 <ds1307_read>
    1422:	8a 83       	std	Y+2, r24	; 0x02
	payload[len++] = ds1307_read(5);
    1424:	85 e0       	ldi	r24, 0x05	; 5
    1426:	90 e0       	ldi	r25, 0x00	; 0
    1428:	0e 94 51 04 	call	0x8a2	; 0x8a2 <ds1307_read>
    142c:	8b 83       	std	Y+3, r24	; 0x03
	payload[len++] = ds1307_read(4);
    142e:	84 e0       	ldi	r24, 0x04	; 4
    1430:	90 e0       	ldi	r25, 0x00	; 0
    1432:	0e 94 51 04 	call	0x8a2	; 0x8a2 <ds1307_read>
    1436:	8c 83       	std	Y+4, r24	; 0x04
	payload[len++] = ds1307_read(2);
    1438:	82 e0       	ldi	r24, 0x02	; 2
    143a:	90 e0       	ldi	r25, 0x00	; 0
    143c:	0e 94 51 04 	call	0x8a2	; 0x8a2 <ds1307_read>
    1440:	8d 83       	std	Y+5, r24	; 0x05
	payload[len++] = ds1307_read(1);
    1442:	81 e0       	ldi	r24, 0x01	; 1
    1444:	90 e0       	ldi	r25, 0x00	; 0
    1446:	0e 94 51 04 	call	0x8a2	; 0x8a2 <ds1307_read>
    144a:	8e 83       	std	Y+6, r24	; 0x06
	payload[len++] = ds1307_read(0);
    144c:	80 e0       	ldi	r24, 0x00	; 0
    144e:	90 e0       	ldi	r25, 0x00	; 0
    1450:	0e 94 51 04 	call	0x8a2	; 0x8a2 <ds1307_read>
    1454:	8f 83       	std	Y+7, r24	; 0x07
	payload[len++] = (uint8) (debug_DebugInfo.rebootCnt >> 8);
    1456:	90 91 01 02 	lds	r25, 0x0201
    145a:	80 91 02 02 	lds	r24, 0x0202
    145e:	88 87       	std	Y+8, r24	; 0x08
	payload[len++] = (uint8) debug_DebugInfo.rebootCnt;
    1460:	99 87       	std	Y+9, r25	; 0x09
    1462:	29 e0       	ldi	r18, 0x09	; 9
    1464:	30 e0       	ldi	r19, 0x00	; 0
	for (i = 0; i < 5; i++)
		payload[len++] = debug_DebugInfo.lastRebootTime[i];
    1466:	ae 01       	movw	r20, r28
    1468:	4f 5f       	subi	r20, 0xFF	; 255
    146a:	5f 4f       	sbci	r21, 0xFF	; 255
    146c:	fa 01       	movw	r30, r20
    146e:	e2 0f       	add	r30, r18
    1470:	f3 1f       	adc	r31, r19
    1472:	d9 01       	movw	r26, r18
    1474:	a6 50       	subi	r26, 0x06	; 6
    1476:	be 4f       	sbci	r27, 0xFE	; 254
    1478:	8c 91       	ld	r24, X
    147a:	80 83       	st	Z, r24
    147c:	2f 5f       	subi	r18, 0xFF	; 255
    147e:	3f 4f       	sbci	r19, 0xFF	; 255
	payload[len++] = ds1307_read(2);
	payload[len++] = ds1307_read(1);
	payload[len++] = ds1307_read(0);
	payload[len++] = (uint8) (debug_DebugInfo.rebootCnt >> 8);
	payload[len++] = (uint8) debug_DebugInfo.rebootCnt;
	for (i = 0; i < 5; i++)
    1480:	2e 30       	cpi	r18, 0x0E	; 14
    1482:	31 05       	cpc	r19, r1
    1484:	99 f7       	brne	.-26     	; 0x146c <plcs_GCP_SERVER_SendDebugLogRes+0x72>
		payload[len++] = debug_DebugInfo.lastRebootTime[i];
	payload[len++] = (uint8) (debug_DebugInfo.serverConnectionCnt >> 8);
    1486:	90 91 08 02 	lds	r25, 0x0208
    148a:	80 91 09 02 	lds	r24, 0x0209
    148e:	8f 87       	std	Y+15, r24	; 0x0f
	payload[len++] = (uint8) (debug_DebugInfo.serverConnectionCnt);
    1490:	98 8b       	std	Y+16, r25	; 0x10
    1492:	40 e1       	ldi	r20, 0x10	; 16
    1494:	50 e0       	ldi	r21, 0x00	; 0
	for (i = 0; i < 5; i++)
		payload[len++] = debug_DebugInfo.lastServerConnectionTime[i];
    1496:	9e 01       	movw	r18, r28
    1498:	2f 5f       	subi	r18, 0xFF	; 255
    149a:	3f 4f       	sbci	r19, 0xFF	; 255
    149c:	f9 01       	movw	r30, r18
    149e:	e4 0f       	add	r30, r20
    14a0:	f5 1f       	adc	r31, r21
    14a2:	da 01       	movw	r26, r20
    14a4:	a6 50       	subi	r26, 0x06	; 6
    14a6:	be 4f       	sbci	r27, 0xFE	; 254
    14a8:	8c 91       	ld	r24, X
    14aa:	80 83       	st	Z, r24
    14ac:	4f 5f       	subi	r20, 0xFF	; 255
    14ae:	5f 4f       	sbci	r21, 0xFF	; 255
	payload[len++] = (uint8) debug_DebugInfo.rebootCnt;
	for (i = 0; i < 5; i++)
		payload[len++] = debug_DebugInfo.lastRebootTime[i];
	payload[len++] = (uint8) (debug_DebugInfo.serverConnectionCnt >> 8);
	payload[len++] = (uint8) (debug_DebugInfo.serverConnectionCnt);
	for (i = 0; i < 5; i++)
    14b0:	45 31       	cpi	r20, 0x15	; 21
    14b2:	51 05       	cpc	r21, r1
    14b4:	99 f7       	brne	.-26     	; 0x149c <plcs_GCP_SERVER_SendDebugLogRes+0xa2>
		payload[len++] = debug_DebugInfo.lastServerConnectionTime[i];

	resultLen = plcs_GetGCPResMessage(tmp_Buff, 0, NCP_GW_ID, payload, len, seqNum);
    14b6:	8a e8       	ldi	r24, 0x8A	; 138
    14b8:	92 e0       	ldi	r25, 0x02	; 2
    14ba:	60 e0       	ldi	r22, 0x00	; 0
    14bc:	70 e0       	ldi	r23, 0x00	; 0
    14be:	41 e0       	ldi	r20, 0x01	; 1
    14c0:	50 e0       	ldi	r21, 0x00	; 0
    14c2:	05 e1       	ldi	r16, 0x15	; 21
    14c4:	0e 94 f1 06 	call	0xde2	; 0xde2 <plcs_GetGCPResMessage>
    14c8:	68 2f       	mov	r22, r24

	sendToServer(tmp_Buff, resultLen);
    14ca:	8a e8       	ldi	r24, 0x8A	; 138
    14cc:	92 e0       	ldi	r25, 0x02	; 2
    14ce:	70 e0       	ldi	r23, 0x00	; 0
    14d0:	0e 94 94 1d 	call	0x3b28	; 0x3b28 <sendToServer>
    14d4:	80 ee       	ldi	r24, 0xE0	; 224
    14d6:	9e e2       	ldi	r25, 0x2E	; 46
    14d8:	01 97       	sbiw	r24, 0x01	; 1
    14da:	f1 f7       	brne	.-4      	; 0x14d8 <plcs_GCP_SERVER_SendDebugLogRes+0xde>
	MSLEEP(3);
}
    14dc:	a8 96       	adiw	r28, 0x28	; 40
    14de:	0f b6       	in	r0, 0x3f	; 63
    14e0:	f8 94       	cli
    14e2:	de bf       	out	0x3e, r29	; 62
    14e4:	0f be       	out	0x3f, r0	; 63
    14e6:	cd bf       	out	0x3d, r28	; 61
    14e8:	cf 91       	pop	r28
    14ea:	df 91       	pop	r29
    14ec:	0f 91       	pop	r16
    14ee:	ff 90       	pop	r15
    14f0:	ef 90       	pop	r14
    14f2:	08 95       	ret

000014f4 <plcs_GCP_SERVER_HandleDebugLogReq>:
	} else
		sendToController(msg, length);
}

void plcs_GCP_SERVER_HandleDebugLogReq(uint16 seqNum, uint16 srcId, uint16 destId, uint8 msg[], int length) {
	plcs_GCP_SERVER_SendDebugLogRes(seqNum);
    14f4:	0e 94 fd 09 	call	0x13fa	; 0x13fa <plcs_GCP_SERVER_SendDebugLogRes>
}
    14f8:	08 95       	ret

000014fa <plcs_GCP_SERVER_SendControlGatewayRes>:

	sendToServer(tmp_Buff, resultLen);
	MSLEEP(3);
}

void plcs_GCP_SERVER_SendControlGatewayRes(uint16 seqNum, uint8 result) {
    14fa:	cf 92       	push	r12
    14fc:	df 92       	push	r13
    14fe:	ef 92       	push	r14
    1500:	ff 92       	push	r15
    1502:	0f 93       	push	r16
    1504:	df 93       	push	r29
    1506:	cf 93       	push	r28
    1508:	cd b7       	in	r28, 0x3d	; 61
    150a:	de b7       	in	r29, 0x3e	; 62
    150c:	2a 97       	sbiw	r28, 0x0a	; 10
    150e:	0f b6       	in	r0, 0x3f	; 63
    1510:	f8 94       	cli
    1512:	de bf       	out	0x3e, r29	; 62
    1514:	0f be       	out	0x3f, r0	; 63
    1516:	cd bf       	out	0x3d, r28	; 61
    1518:	7c 01       	movw	r14, r24
	uint8 payload[10];
	uint8 resultLen = 0;

	//printf_P(PSTR("\nplcs_GCP_SERVER_SendStateInfoRes"));

	payload[len++] = PLCS_GCP_RES_CONTROL_GATEWAY;
    151a:	87 e3       	ldi	r24, 0x37	; 55
    151c:	89 83       	std	Y+1, r24	; 0x01
	payload[len++] = result;
    151e:	6a 83       	std	Y+2, r22	; 0x02

	resultLen = plcs_GetGCPResMessage(tmp_Buff, 0, NCP_GW_ID, payload, len, seqNum);
    1520:	8a e8       	ldi	r24, 0x8A	; 138
    1522:	c8 2e       	mov	r12, r24
    1524:	82 e0       	ldi	r24, 0x02	; 2
    1526:	d8 2e       	mov	r13, r24
    1528:	c6 01       	movw	r24, r12
    152a:	60 e0       	ldi	r22, 0x00	; 0
    152c:	70 e0       	ldi	r23, 0x00	; 0
    152e:	41 e0       	ldi	r20, 0x01	; 1
    1530:	50 e0       	ldi	r21, 0x00	; 0
    1532:	9e 01       	movw	r18, r28
    1534:	2f 5f       	subi	r18, 0xFF	; 255
    1536:	3f 4f       	sbci	r19, 0xFF	; 255
    1538:	02 e0       	ldi	r16, 0x02	; 2
    153a:	0e 94 f1 06 	call	0xde2	; 0xde2 <plcs_GetGCPResMessage>
    153e:	68 2f       	mov	r22, r24

	sendToServer(tmp_Buff, resultLen);
    1540:	c6 01       	movw	r24, r12
    1542:	70 e0       	ldi	r23, 0x00	; 0
    1544:	0e 94 94 1d 	call	0x3b28	; 0x3b28 <sendToServer>
    1548:	80 ee       	ldi	r24, 0xE0	; 224
    154a:	9e e2       	ldi	r25, 0x2E	; 46
    154c:	01 97       	sbiw	r24, 0x01	; 1
    154e:	f1 f7       	brne	.-4      	; 0x154c <plcs_GCP_SERVER_SendControlGatewayRes+0x52>
	MSLEEP(3);
}
    1550:	2a 96       	adiw	r28, 0x0a	; 10
    1552:	0f b6       	in	r0, 0x3f	; 63
    1554:	f8 94       	cli
    1556:	de bf       	out	0x3e, r29	; 62
    1558:	0f be       	out	0x3f, r0	; 63
    155a:	cd bf       	out	0x3d, r28	; 61
    155c:	cf 91       	pop	r28
    155e:	df 91       	pop	r29
    1560:	0f 91       	pop	r16
    1562:	ff 90       	pop	r15
    1564:	ef 90       	pop	r14
    1566:	df 90       	pop	r13
    1568:	cf 90       	pop	r12
    156a:	08 95       	ret

0000156c <plcs_GCP_SERVER_SendStateInfoRes>:

	sendToServer(tmp_Buff, resultLen);
	MSLEEP(3);
}

void plcs_GCP_SERVER_SendStateInfoRes(uint16 seqNum) {
    156c:	ef 92       	push	r14
    156e:	ff 92       	push	r15
    1570:	0f 93       	push	r16
    1572:	df 93       	push	r29
    1574:	cf 93       	push	r28
    1576:	cd b7       	in	r28, 0x3d	; 61
    1578:	de b7       	in	r29, 0x3e	; 62
    157a:	a8 97       	sbiw	r28, 0x28	; 40
    157c:	0f b6       	in	r0, 0x3f	; 63
    157e:	f8 94       	cli
    1580:	de bf       	out	0x3e, r29	; 62
    1582:	0f be       	out	0x3f, r0	; 63
    1584:	cd bf       	out	0x3d, r28	; 61
    1586:	7c 01       	movw	r14, r24
	//printf_P(PSTR("\nplcs_GCP_SERVER_SendStateInfoRes"));
	subNodeId = 0;
	deviceId = 0;
	deviceType = PLCS_GW_TYPE;

	payload[len++] = PLCS_GCP_RES_STATEINFO;
    1588:	85 e2       	ldi	r24, 0x25	; 37
    158a:	89 83       	std	Y+1, r24	; 0x01
	payload[len++] = subNodeId >> 8;
    158c:	1a 82       	std	Y+2, r1	; 0x02
	payload[len++] = subNodeId;
    158e:	1b 82       	std	Y+3, r1	; 0x03
	payload[len++] = deviceId >> 8;
    1590:	1c 82       	std	Y+4, r1	; 0x04
	payload[len++] = deviceId;
    1592:	1d 82       	std	Y+5, r1	; 0x05
	payload[len++] = deviceType >> 8;
    1594:	80 e2       	ldi	r24, 0x20	; 32
    1596:	8e 83       	std	Y+6, r24	; 0x06
	payload[len++] = deviceType;
    1598:	1f 82       	std	Y+7, r1	; 0x07
    159a:	47 e0       	ldi	r20, 0x07	; 7
    159c:	50 e0       	ldi	r21, 0x00	; 0

	for (i = 0; i < 4; i++)
		payload[len++] = my_Ip[i];
    159e:	9e 01       	movw	r18, r28
    15a0:	2f 5f       	subi	r18, 0xFF	; 255
    15a2:	3f 4f       	sbci	r19, 0xFF	; 255
    15a4:	f9 01       	movw	r30, r18
    15a6:	e4 0f       	add	r30, r20
    15a8:	f5 1f       	adc	r31, r21
    15aa:	da 01       	movw	r26, r20
    15ac:	a5 5e       	subi	r26, 0xE5	; 229
    15ae:	be 4f       	sbci	r27, 0xFE	; 254
    15b0:	8c 91       	ld	r24, X
    15b2:	80 83       	st	Z, r24
    15b4:	4f 5f       	subi	r20, 0xFF	; 255
    15b6:	5f 4f       	sbci	r21, 0xFF	; 255
	payload[len++] = deviceId >> 8;
	payload[len++] = deviceId;
	payload[len++] = deviceType >> 8;
	payload[len++] = deviceType;

	for (i = 0; i < 4; i++)
    15b8:	4b 30       	cpi	r20, 0x0B	; 11
    15ba:	51 05       	cpc	r21, r1
    15bc:	99 f7       	brne	.-26     	; 0x15a4 <plcs_GCP_SERVER_SendStateInfoRes+0x38>
		payload[len++] = my_Ip[i];
	for (i = 0; i < 4; i++)
		payload[len++] = Server_Ip[i];
    15be:	9e 01       	movw	r18, r28
    15c0:	2f 5f       	subi	r18, 0xFF	; 255
    15c2:	3f 4f       	sbci	r19, 0xFF	; 255
    15c4:	f9 01       	movw	r30, r18
    15c6:	e4 0f       	add	r30, r20
    15c8:	f5 1f       	adc	r31, r21
    15ca:	da 01       	movw	r26, r20
    15cc:	ad 5e       	subi	r26, 0xED	; 237
    15ce:	be 4f       	sbci	r27, 0xFE	; 254
    15d0:	8c 91       	ld	r24, X
    15d2:	80 83       	st	Z, r24
    15d4:	4f 5f       	subi	r20, 0xFF	; 255
    15d6:	5f 4f       	sbci	r21, 0xFF	; 255
	payload[len++] = deviceType >> 8;
	payload[len++] = deviceType;

	for (i = 0; i < 4; i++)
		payload[len++] = my_Ip[i];
	for (i = 0; i < 4; i++)
    15d8:	4f 30       	cpi	r20, 0x0F	; 15
    15da:	51 05       	cpc	r21, r1
    15dc:	99 f7       	brne	.-26     	; 0x15c4 <plcs_GCP_SERVER_SendStateInfoRes+0x58>
		payload[len++] = Server_Ip[i];
	for (i = 0; i < 4; i++)
		payload[len++] = gw_Ip[i];
    15de:	9e 01       	movw	r18, r28
    15e0:	2f 5f       	subi	r18, 0xFF	; 255
    15e2:	3f 4f       	sbci	r19, 0xFF	; 255
    15e4:	f9 01       	movw	r30, r18
    15e6:	e4 0f       	add	r30, r20
    15e8:	f5 1f       	adc	r31, r21
    15ea:	da 01       	movw	r26, r20
    15ec:	a3 5e       	subi	r26, 0xE3	; 227
    15ee:	be 4f       	sbci	r27, 0xFE	; 254
    15f0:	8c 91       	ld	r24, X
    15f2:	80 83       	st	Z, r24
    15f4:	4f 5f       	subi	r20, 0xFF	; 255
    15f6:	5f 4f       	sbci	r21, 0xFF	; 255

	for (i = 0; i < 4; i++)
		payload[len++] = my_Ip[i];
	for (i = 0; i < 4; i++)
		payload[len++] = Server_Ip[i];
	for (i = 0; i < 4; i++)
    15f8:	43 31       	cpi	r20, 0x13	; 19
    15fa:	51 05       	cpc	r21, r1
    15fc:	99 f7       	brne	.-26     	; 0x15e4 <plcs_GCP_SERVER_SendStateInfoRes+0x78>
		payload[len++] = gw_Ip[i];
	for (i = 0; i < 4; i++)
		payload[len++] = sub_Net[i];
    15fe:	9e 01       	movw	r18, r28
    1600:	2f 5f       	subi	r18, 0xFF	; 255
    1602:	3f 4f       	sbci	r19, 0xFF	; 255
    1604:	f9 01       	movw	r30, r18
    1606:	e4 0f       	add	r30, r20
    1608:	f5 1f       	adc	r31, r21
    160a:	da 01       	movw	r26, r20
    160c:	a3 5e       	subi	r26, 0xE3	; 227
    160e:	be 4f       	sbci	r27, 0xFE	; 254
    1610:	8c 91       	ld	r24, X
    1612:	80 83       	st	Z, r24
    1614:	4f 5f       	subi	r20, 0xFF	; 255
    1616:	5f 4f       	sbci	r21, 0xFF	; 255
		payload[len++] = my_Ip[i];
	for (i = 0; i < 4; i++)
		payload[len++] = Server_Ip[i];
	for (i = 0; i < 4; i++)
		payload[len++] = gw_Ip[i];
	for (i = 0; i < 4; i++)
    1618:	47 31       	cpi	r20, 0x17	; 23
    161a:	51 05       	cpc	r21, r1
    161c:	99 f7       	brne	.-26     	; 0x1604 <plcs_GCP_SERVER_SendStateInfoRes+0x98>
		payload[len++] = sub_Net[i];

	payload[len++] = Server_Port >> 8;
    161e:	90 91 3f 01 	lds	r25, 0x013F
    1622:	80 91 40 01 	lds	r24, 0x0140
    1626:	88 8f       	std	Y+24, r24	; 0x18
	payload[len++] = Server_Port;
    1628:	99 8f       	std	Y+25, r25	; 0x19
	payload[len++] = isOnSensorSharing;
    162a:	80 91 6d 01 	lds	r24, 0x016D
    162e:	8a 8f       	std	Y+26, r24	; 0x1a

	resultLen = plcs_GetGCPResMessage(tmp_Buff, 0, NCP_GW_ID, payload, len, seqNum);
    1630:	8a e8       	ldi	r24, 0x8A	; 138
    1632:	92 e0       	ldi	r25, 0x02	; 2
    1634:	60 e0       	ldi	r22, 0x00	; 0
    1636:	70 e0       	ldi	r23, 0x00	; 0
    1638:	41 e0       	ldi	r20, 0x01	; 1
    163a:	50 e0       	ldi	r21, 0x00	; 0
    163c:	0a e1       	ldi	r16, 0x1A	; 26
    163e:	0e 94 f1 06 	call	0xde2	; 0xde2 <plcs_GetGCPResMessage>
    1642:	68 2f       	mov	r22, r24

	sendToServer(tmp_Buff, resultLen);
    1644:	8a e8       	ldi	r24, 0x8A	; 138
    1646:	92 e0       	ldi	r25, 0x02	; 2
    1648:	70 e0       	ldi	r23, 0x00	; 0
    164a:	0e 94 94 1d 	call	0x3b28	; 0x3b28 <sendToServer>
    164e:	80 ee       	ldi	r24, 0xE0	; 224
    1650:	9e e2       	ldi	r25, 0x2E	; 46
    1652:	01 97       	sbiw	r24, 0x01	; 1
    1654:	f1 f7       	brne	.-4      	; 0x1652 <plcs_GCP_SERVER_SendStateInfoRes+0xe6>
	MSLEEP(3);
}
    1656:	a8 96       	adiw	r28, 0x28	; 40
    1658:	0f b6       	in	r0, 0x3f	; 63
    165a:	f8 94       	cli
    165c:	de bf       	out	0x3e, r29	; 62
    165e:	0f be       	out	0x3f, r0	; 63
    1660:	cd bf       	out	0x3d, r28	; 61
    1662:	cf 91       	pop	r28
    1664:	df 91       	pop	r29
    1666:	0f 91       	pop	r16
    1668:	ff 90       	pop	r15
    166a:	ef 90       	pop	r14
    166c:	08 95       	ret

0000166e <plcs_GCP_SERVER_SendNumOfDeviceRes>:
	resultLen = plcs_GetGCPResMessage(tmp_Buff, 0, NCP_GW_ID, payload, len, seqNum);

	sendToServer(tmp_Buff, resultLen);
	MSLEEP(3);
}
void plcs_GCP_SERVER_SendNumOfDeviceRes(uint16 seqNum) {
    166e:	cf 92       	push	r12
    1670:	df 92       	push	r13
    1672:	ef 92       	push	r14
    1674:	ff 92       	push	r15
    1676:	0f 93       	push	r16
    1678:	df 93       	push	r29
    167a:	cf 93       	push	r28
    167c:	cd b7       	in	r28, 0x3d	; 61
    167e:	de b7       	in	r29, 0x3e	; 62
    1680:	2a 97       	sbiw	r28, 0x0a	; 10
    1682:	0f b6       	in	r0, 0x3f	; 63
    1684:	f8 94       	cli
    1686:	de bf       	out	0x3e, r29	; 62
    1688:	0f be       	out	0x3f, r0	; 63
    168a:	cd bf       	out	0x3d, r28	; 61
    168c:	7c 01       	movw	r14, r24
	uint8 payload[10];
	uint8 resultLen = 0;

	//printf_P(PSTR("\nplcs_GCP_SERVER_SendStateInfoRes"));
	subNodeId = 0;
	numOfDevice = deviceInfoTable.size;
    168e:	90 91 89 02 	lds	r25, 0x0289

	payload[len++] = PLCS_GCP_RES_NUMOFDEVICE;
    1692:	81 e2       	ldi	r24, 0x21	; 33
    1694:	89 83       	std	Y+1, r24	; 0x01
	payload[len++] = subNodeId >> 8;
    1696:	1a 82       	std	Y+2, r1	; 0x02
	payload[len++] = subNodeId;
    1698:	1b 82       	std	Y+3, r1	; 0x03
	payload[len++] = numOfDevice;
    169a:	9c 83       	std	Y+4, r25	; 0x04

	resultLen = plcs_GetGCPResMessage(tmp_Buff, 0, NCP_GW_ID, payload, len, seqNum);
    169c:	9a e8       	ldi	r25, 0x8A	; 138
    169e:	c9 2e       	mov	r12, r25
    16a0:	92 e0       	ldi	r25, 0x02	; 2
    16a2:	d9 2e       	mov	r13, r25
    16a4:	c6 01       	movw	r24, r12
    16a6:	60 e0       	ldi	r22, 0x00	; 0
    16a8:	70 e0       	ldi	r23, 0x00	; 0
    16aa:	41 e0       	ldi	r20, 0x01	; 1
    16ac:	50 e0       	ldi	r21, 0x00	; 0
    16ae:	9e 01       	movw	r18, r28
    16b0:	2f 5f       	subi	r18, 0xFF	; 255
    16b2:	3f 4f       	sbci	r19, 0xFF	; 255
    16b4:	04 e0       	ldi	r16, 0x04	; 4
    16b6:	0e 94 f1 06 	call	0xde2	; 0xde2 <plcs_GetGCPResMessage>
    16ba:	68 2f       	mov	r22, r24

	sendToServer(tmp_Buff, resultLen);
    16bc:	c6 01       	movw	r24, r12
    16be:	70 e0       	ldi	r23, 0x00	; 0
    16c0:	0e 94 94 1d 	call	0x3b28	; 0x3b28 <sendToServer>
    16c4:	80 ee       	ldi	r24, 0xE0	; 224
    16c6:	9e e2       	ldi	r25, 0x2E	; 46
    16c8:	01 97       	sbiw	r24, 0x01	; 1
    16ca:	f1 f7       	brne	.-4      	; 0x16c8 <plcs_GCP_SERVER_SendNumOfDeviceRes+0x5a>
	MSLEEP(3);
}
    16cc:	2a 96       	adiw	r28, 0x0a	; 10
    16ce:	0f b6       	in	r0, 0x3f	; 63
    16d0:	f8 94       	cli
    16d2:	de bf       	out	0x3e, r29	; 62
    16d4:	0f be       	out	0x3f, r0	; 63
    16d6:	cd bf       	out	0x3d, r28	; 61
    16d8:	cf 91       	pop	r28
    16da:	df 91       	pop	r29
    16dc:	0f 91       	pop	r16
    16de:	ff 90       	pop	r15
    16e0:	ef 90       	pop	r14
    16e2:	df 90       	pop	r13
    16e4:	cf 90       	pop	r12
    16e6:	08 95       	ret

000016e8 <plcs_GCP_SERVER_SendDeviceInfoRes>:

	sendToServer(tmp_Buff, resultLen);
	MSLEEP(3);
}

void plcs_GCP_SERVER_SendDeviceInfoRes(uint16 seqNum, uint8 index) {
    16e8:	ef 92       	push	r14
    16ea:	ff 92       	push	r15
    16ec:	0f 93       	push	r16
    16ee:	df 93       	push	r29
    16f0:	cf 93       	push	r28
    16f2:	cd b7       	in	r28, 0x3d	; 61
    16f4:	de b7       	in	r29, 0x3e	; 62
    16f6:	64 97       	sbiw	r28, 0x14	; 20
    16f8:	0f b6       	in	r0, 0x3f	; 63
    16fa:	f8 94       	cli
    16fc:	de bf       	out	0x3e, r29	; 62
    16fe:	0f be       	out	0x3f, r0	; 63
    1700:	cd bf       	out	0x3d, r28	; 61
    1702:	7c 01       	movw	r14, r24
	uint8 resultLen = 0;

	//printf_P(PSTR("\nplcs_GCP_SERVER_SendStateInfoRes"));
	subNodeId = 0;

	if (deviceInfoTable.size <= index)
    1704:	80 91 89 02 	lds	r24, 0x0289
    1708:	68 17       	cp	r22, r24
    170a:	a8 f5       	brcc	.+106    	; 0x1776 <plcs_GCP_SERVER_SendDeviceInfoRes+0x8e>
		return;

	deviceId = deviceInfoTable.deviceInfo[index].nodeId;
    170c:	86 2f       	mov	r24, r22
    170e:	90 e0       	ldi	r25, 0x00	; 0
    1710:	fc 01       	movw	r30, r24
    1712:	ee 0f       	add	r30, r30
    1714:	ff 1f       	adc	r31, r31
    1716:	e8 0f       	add	r30, r24
    1718:	f9 1f       	adc	r31, r25
    171a:	ee 0f       	add	r30, r30
    171c:	ff 1f       	adc	r31, r31
    171e:	df 01       	movw	r26, r30
    1720:	af 5e       	subi	r26, 0xEF	; 239
    1722:	bd 4f       	sbci	r27, 0xFD	; 253
    1724:	5c 91       	ld	r21, X
    1726:	11 96       	adiw	r26, 0x01	; 1
    1728:	3c 91       	ld	r19, X
    172a:	11 97       	sbiw	r26, 0x01	; 1
	deviceType = deviceInfoTable.deviceInfo[index].deviceType;
    172c:	ed 5e       	subi	r30, 0xED	; 237
    172e:	fd 4f       	sbci	r31, 0xFD	; 253
    1730:	40 81       	ld	r20, Z
    1732:	91 81       	ldd	r25, Z+1	; 0x01
	deviceVersion = deviceInfoTable.deviceInfo[index].deviceVersion;
    1734:	14 96       	adiw	r26, 0x04	; 4
    1736:	2c 91       	ld	r18, X

	payload[len++] = PLCS_GCP_RES_DEVICEINFO;
    1738:	83 e2       	ldi	r24, 0x23	; 35
    173a:	89 83       	std	Y+1, r24	; 0x01
	payload[len++] = subNodeId >> 8;
    173c:	1a 82       	std	Y+2, r1	; 0x02
	payload[len++] = subNodeId;
    173e:	1b 82       	std	Y+3, r1	; 0x03
	payload[len++] = deviceId >> 8;
    1740:	3c 83       	std	Y+4, r19	; 0x04
	payload[len++] = deviceId;
    1742:	5d 83       	std	Y+5, r21	; 0x05
	payload[len++] = deviceType >> 8;
    1744:	9e 83       	std	Y+6, r25	; 0x06
	payload[len++] = deviceType;
    1746:	4f 83       	std	Y+7, r20	; 0x07
	payload[len++] = deviceVersion;
    1748:	28 87       	std	Y+8, r18	; 0x08

	resultLen = plcs_GetGCPResMessage(tmp_Buff, 0, NCP_GW_ID, payload, len, seqNum);
    174a:	8a e8       	ldi	r24, 0x8A	; 138
    174c:	92 e0       	ldi	r25, 0x02	; 2
    174e:	60 e0       	ldi	r22, 0x00	; 0
    1750:	70 e0       	ldi	r23, 0x00	; 0
    1752:	41 e0       	ldi	r20, 0x01	; 1
    1754:	50 e0       	ldi	r21, 0x00	; 0
    1756:	9e 01       	movw	r18, r28
    1758:	2f 5f       	subi	r18, 0xFF	; 255
    175a:	3f 4f       	sbci	r19, 0xFF	; 255
    175c:	08 e0       	ldi	r16, 0x08	; 8
    175e:	0e 94 f1 06 	call	0xde2	; 0xde2 <plcs_GetGCPResMessage>
    1762:	68 2f       	mov	r22, r24

	sendToServer(tmp_Buff, resultLen);
    1764:	8a e8       	ldi	r24, 0x8A	; 138
    1766:	92 e0       	ldi	r25, 0x02	; 2
    1768:	70 e0       	ldi	r23, 0x00	; 0
    176a:	0e 94 94 1d 	call	0x3b28	; 0x3b28 <sendToServer>
    176e:	80 ee       	ldi	r24, 0xE0	; 224
    1770:	9e e2       	ldi	r25, 0x2E	; 46
    1772:	01 97       	sbiw	r24, 0x01	; 1
    1774:	f1 f7       	brne	.-4      	; 0x1772 <plcs_GCP_SERVER_SendDeviceInfoRes+0x8a>
	MSLEEP(3);
}
    1776:	64 96       	adiw	r28, 0x14	; 20
    1778:	0f b6       	in	r0, 0x3f	; 63
    177a:	f8 94       	cli
    177c:	de bf       	out	0x3e, r29	; 62
    177e:	0f be       	out	0x3f, r0	; 63
    1780:	cd bf       	out	0x3d, r28	; 61
    1782:	cf 91       	pop	r28
    1784:	df 91       	pop	r29
    1786:	0f 91       	pop	r16
    1788:	ff 90       	pop	r15
    178a:	ef 90       	pop	r14
    178c:	08 95       	ret

0000178e <plcs_GCP_SERVER_SendControlSensorSharingRes>:
}

////////////////////////////////////////////////////////////////////////////////////////////////////////////
//Send
////////////////////////////////////////////////////////////////////////////////////////////////////////////
void plcs_GCP_SERVER_SendControlSensorSharingRes(uint16 seqNum, uint8 result) {
    178e:	cf 92       	push	r12
    1790:	df 92       	push	r13
    1792:	ef 92       	push	r14
    1794:	ff 92       	push	r15
    1796:	0f 93       	push	r16
    1798:	df 93       	push	r29
    179a:	cf 93       	push	r28
    179c:	cd b7       	in	r28, 0x3d	; 61
    179e:	de b7       	in	r29, 0x3e	; 62
    17a0:	2a 97       	sbiw	r28, 0x0a	; 10
    17a2:	0f b6       	in	r0, 0x3f	; 63
    17a4:	f8 94       	cli
    17a6:	de bf       	out	0x3e, r29	; 62
    17a8:	0f be       	out	0x3f, r0	; 63
    17aa:	cd bf       	out	0x3d, r28	; 61
    17ac:	7c 01       	movw	r14, r24
	uint8 payload[10];
	uint8 resultLen = 0;

	//printf_P(PSTR("\nplcs_GCP_SERVER_SendStateInfoRes"));

	payload[len++] = PLCS_GCP_RES_CONTROL_SENSORSHARING;
    17ae:	85 e3       	ldi	r24, 0x35	; 53
    17b0:	89 83       	std	Y+1, r24	; 0x01
	payload[len++] = result;
    17b2:	6a 83       	std	Y+2, r22	; 0x02

	resultLen = plcs_GetGCPResMessage(tmp_Buff, 0, NCP_GW_ID, payload, len, seqNum);
    17b4:	5a e8       	ldi	r21, 0x8A	; 138
    17b6:	c5 2e       	mov	r12, r21
    17b8:	52 e0       	ldi	r21, 0x02	; 2
    17ba:	d5 2e       	mov	r13, r21
    17bc:	c6 01       	movw	r24, r12
    17be:	60 e0       	ldi	r22, 0x00	; 0
    17c0:	70 e0       	ldi	r23, 0x00	; 0
    17c2:	41 e0       	ldi	r20, 0x01	; 1
    17c4:	50 e0       	ldi	r21, 0x00	; 0
    17c6:	9e 01       	movw	r18, r28
    17c8:	2f 5f       	subi	r18, 0xFF	; 255
    17ca:	3f 4f       	sbci	r19, 0xFF	; 255
    17cc:	02 e0       	ldi	r16, 0x02	; 2
    17ce:	0e 94 f1 06 	call	0xde2	; 0xde2 <plcs_GetGCPResMessage>
    17d2:	68 2f       	mov	r22, r24

	sendToServer(tmp_Buff, resultLen);
    17d4:	c6 01       	movw	r24, r12
    17d6:	70 e0       	ldi	r23, 0x00	; 0
    17d8:	0e 94 94 1d 	call	0x3b28	; 0x3b28 <sendToServer>
    17dc:	80 ee       	ldi	r24, 0xE0	; 224
    17de:	9e e2       	ldi	r25, 0x2E	; 46
    17e0:	01 97       	sbiw	r24, 0x01	; 1
    17e2:	f1 f7       	brne	.-4      	; 0x17e0 <plcs_GCP_SERVER_SendControlSensorSharingRes+0x52>
	MSLEEP(3);
}
    17e4:	2a 96       	adiw	r28, 0x0a	; 10
    17e6:	0f b6       	in	r0, 0x3f	; 63
    17e8:	f8 94       	cli
    17ea:	de bf       	out	0x3e, r29	; 62
    17ec:	0f be       	out	0x3f, r0	; 63
    17ee:	cd bf       	out	0x3d, r28	; 61
    17f0:	cf 91       	pop	r28
    17f2:	df 91       	pop	r29
    17f4:	0f 91       	pop	r16
    17f6:	ff 90       	pop	r15
    17f8:	ef 90       	pop	r14
    17fa:	df 90       	pop	r13
    17fc:	cf 90       	pop	r12
    17fe:	08 95       	ret

00001800 <plcs_GCP_SERVER_HandleControlSensorSharingReq>:
		plcs_GCP_SERVER_SendDeviceInfoRes(seqNum, index);
	else
		sendToController(msg, length);
}

void plcs_GCP_SERVER_HandleControlSensorSharingReq(uint16 seqNum, uint16 srcId, uint16 destId, uint8 msg[], int length) {
    1800:	f9 01       	movw	r30, r18
	uint8 value;

	//msg[8] = msgtype
	value = msg[9];

	isOnSensorSharing = value;
    1802:	21 85       	ldd	r18, Z+9	; 0x09
    1804:	20 93 6d 01 	sts	0x016D, r18

	plcs_GCP_SERVER_SendControlSensorSharingRes(seqNum, 0x00);
    1808:	60 e0       	ldi	r22, 0x00	; 0
    180a:	0e 94 c7 0b 	call	0x178e	; 0x178e <plcs_GCP_SERVER_SendControlSensorSharingRes>
}
    180e:	08 95       	ret

00001810 <plcs_NCP_SERVER_SendRegisterReq>:

	sendToServer(tmp_Buff, resultLen);
	MSLEEP(3);
}

void plcs_NCP_SERVER_SendRegisterReq() {
    1810:	ef 92       	push	r14
    1812:	ff 92       	push	r15
    1814:	0f 93       	push	r16
    1816:	df 93       	push	r29
    1818:	cf 93       	push	r28
    181a:	cd b7       	in	r28, 0x3d	; 61
    181c:	de b7       	in	r29, 0x3e	; 62
    181e:	64 97       	sbiw	r28, 0x14	; 20
    1820:	0f b6       	in	r0, 0x3f	; 63
    1822:	f8 94       	cli
    1824:	de bf       	out	0x3e, r29	; 62
    1826:	0f be       	out	0x3f, r0	; 63
    1828:	cd bf       	out	0x3d, r28	; 61
	uint8 len = 0;
	uint8 resultLen = 0;

	uint8 payload[20];

	payload[len++] = NCP_REQ_REGISTER;
    182a:	81 e1       	ldi	r24, 0x11	; 17
    182c:	89 83       	std	Y+1, r24	; 0x01
	payload[len++] = (uint8) (PLCS_GW_TYPE >> 8);
    182e:	80 e2       	ldi	r24, 0x20	; 32
    1830:	8a 83       	std	Y+2, r24	; 0x02
	payload[len++] = (uint8) (PLCS_GW_TYPE);
    1832:	1b 82       	std	Y+3, r1	; 0x03
	payload[len++] = NCP_FW_VER;
    1834:	86 e0       	ldi	r24, 0x06	; 6
    1836:	8c 83       	std	Y+4, r24	; 0x04
	payload[len++] = NCP_FW_VER;
    1838:	8d 83       	std	Y+5, r24	; 0x05

	resultLen = plcs_GetNCPMessage(tmp_Buff, 0, NCP_GW_ID, payload, len);
    183a:	6a e8       	ldi	r22, 0x8A	; 138
    183c:	e6 2e       	mov	r14, r22
    183e:	62 e0       	ldi	r22, 0x02	; 2
    1840:	f6 2e       	mov	r15, r22
    1842:	c7 01       	movw	r24, r14
    1844:	60 e0       	ldi	r22, 0x00	; 0
    1846:	70 e0       	ldi	r23, 0x00	; 0
    1848:	41 e0       	ldi	r20, 0x01	; 1
    184a:	50 e0       	ldi	r21, 0x00	; 0
    184c:	9e 01       	movw	r18, r28
    184e:	2f 5f       	subi	r18, 0xFF	; 255
    1850:	3f 4f       	sbci	r19, 0xFF	; 255
    1852:	05 e0       	ldi	r16, 0x05	; 5
    1854:	0e 94 57 06 	call	0xcae	; 0xcae <plcs_GetNCPMessage>
    1858:	68 2f       	mov	r22, r24

	sendToServer(tmp_Buff, resultLen);
    185a:	c7 01       	movw	r24, r14
    185c:	70 e0       	ldi	r23, 0x00	; 0
    185e:	0e 94 94 1d 	call	0x3b28	; 0x3b28 <sendToServer>
    1862:	80 ee       	ldi	r24, 0xE0	; 224
    1864:	9e e2       	ldi	r25, 0x2E	; 46
    1866:	01 97       	sbiw	r24, 0x01	; 1
    1868:	f1 f7       	brne	.-4      	; 0x1866 <plcs_NCP_SERVER_SendRegisterReq+0x56>
	MSLEEP(3);
}
    186a:	64 96       	adiw	r28, 0x14	; 20
    186c:	0f b6       	in	r0, 0x3f	; 63
    186e:	f8 94       	cli
    1870:	de bf       	out	0x3e, r29	; 62
    1872:	0f be       	out	0x3f, r0	; 63
    1874:	cd bf       	out	0x3d, r28	; 61
    1876:	cf 91       	pop	r28
    1878:	df 91       	pop	r29
    187a:	0f 91       	pop	r16
    187c:	ff 90       	pop	r15
    187e:	ef 90       	pop	r14
    1880:	08 95       	ret

00001882 <plcs_NCP_SERVER_SendRegisterNodeReq>:

	sendToServer(tmp_Buff, resultLen);
	MSLEEP(3);
}

void plcs_NCP_SERVER_SendRegisterNodeReq(uint16 subNodeId, uint16 deviceType, uint16 deviceId, uint8 deviceVersion, uint8 firmwareVersion, uint16 netAddr) {
    1882:	ef 92       	push	r14
    1884:	0f 93       	push	r16
    1886:	df 93       	push	r29
    1888:	cf 93       	push	r28
    188a:	cd b7       	in	r28, 0x3d	; 61
    188c:	de b7       	in	r29, 0x3e	; 62
    188e:	64 97       	sbiw	r28, 0x14	; 20
    1890:	0f b6       	in	r0, 0x3f	; 63
    1892:	f8 94       	cli
    1894:	de bf       	out	0x3e, r29	; 62
    1896:	0f be       	out	0x3f, r0	; 63
    1898:	cd bf       	out	0x3d, r28	; 61
    189a:	32 2f       	mov	r19, r18
	uint8 len = 0;
	uint8 resultLen = 0;

	uint8 payload[20];

	payload[len++] = NCP_REQ_REGISTER_NODE;
    189c:	23 e1       	ldi	r18, 0x13	; 19
    189e:	29 83       	std	Y+1, r18	; 0x01
	payload[len++] = (uint8) (subNodeId >> 8);
    18a0:	9a 83       	std	Y+2, r25	; 0x02
	payload[len++] = (uint8) (subNodeId);
    18a2:	8b 83       	std	Y+3, r24	; 0x03
	payload[len++] = (uint8) (deviceType >> 8);
    18a4:	7c 83       	std	Y+4, r23	; 0x04
	payload[len++] = (uint8) (deviceType);
    18a6:	6d 83       	std	Y+5, r22	; 0x05
	if (deviceType == 0x2010) {
    18a8:	60 51       	subi	r22, 0x10	; 16
    18aa:	70 42       	sbci	r23, 0x20	; 32
    18ac:	21 f4       	brne	.+8      	; 0x18b6 <plcs_NCP_SERVER_SendRegisterNodeReq+0x34>
		payload[len++] = deviceVersion;
    18ae:	3e 83       	std	Y+6, r19	; 0x06
		payload[len++] = firmwareVersion;
    18b0:	0f 83       	std	Y+7, r16	; 0x07
    18b2:	07 e0       	ldi	r16, 0x07	; 7
    18b4:	07 c0       	rjmp	.+14     	; 0x18c4 <plcs_NCP_SERVER_SendRegisterNodeReq+0x42>
	} else {
		payload[len++] = (uint8) (deviceId >> 8);
    18b6:	5e 83       	std	Y+6, r21	; 0x06
		payload[len++] = (uint8) (deviceId);
    18b8:	4f 83       	std	Y+7, r20	; 0x07
		payload[len++] = deviceVersion;
    18ba:	38 87       	std	Y+8, r19	; 0x08
		payload[len++] = firmwareVersion;
    18bc:	09 87       	std	Y+9, r16	; 0x09
		payload[len++] = netAddr;
    18be:	ea 86       	std	Y+10, r14	; 0x0a
		payload[len++] = netAddr;
    18c0:	eb 86       	std	Y+11, r14	; 0x0b
    18c2:	0b e0       	ldi	r16, 0x0B	; 11
	}

	resultLen = plcs_GetNCPMessage(tmp_Buff, 0, NCP_GW_ID, payload, len);
    18c4:	8a e8       	ldi	r24, 0x8A	; 138
    18c6:	92 e0       	ldi	r25, 0x02	; 2
    18c8:	60 e0       	ldi	r22, 0x00	; 0
    18ca:	70 e0       	ldi	r23, 0x00	; 0
    18cc:	41 e0       	ldi	r20, 0x01	; 1
    18ce:	50 e0       	ldi	r21, 0x00	; 0
    18d0:	9e 01       	movw	r18, r28
    18d2:	2f 5f       	subi	r18, 0xFF	; 255
    18d4:	3f 4f       	sbci	r19, 0xFF	; 255
    18d6:	0e 94 57 06 	call	0xcae	; 0xcae <plcs_GetNCPMessage>
    18da:	68 2f       	mov	r22, r24

	sendToServer(tmp_Buff, resultLen);
    18dc:	8a e8       	ldi	r24, 0x8A	; 138
    18de:	92 e0       	ldi	r25, 0x02	; 2
    18e0:	70 e0       	ldi	r23, 0x00	; 0
    18e2:	0e 94 94 1d 	call	0x3b28	; 0x3b28 <sendToServer>
    18e6:	80 ee       	ldi	r24, 0xE0	; 224
    18e8:	9e e2       	ldi	r25, 0x2E	; 46
    18ea:	01 97       	sbiw	r24, 0x01	; 1
    18ec:	f1 f7       	brne	.-4      	; 0x18ea <plcs_NCP_SERVER_SendRegisterNodeReq+0x68>
	MSLEEP(3);
}
    18ee:	64 96       	adiw	r28, 0x14	; 20
    18f0:	0f b6       	in	r0, 0x3f	; 63
    18f2:	f8 94       	cli
    18f4:	de bf       	out	0x3e, r29	; 62
    18f6:	0f be       	out	0x3f, r0	; 63
    18f8:	cd bf       	out	0x3d, r28	; 61
    18fa:	cf 91       	pop	r28
    18fc:	df 91       	pop	r29
    18fe:	0f 91       	pop	r16
    1900:	ef 90       	pop	r14
    1902:	08 95       	ret

00001904 <plcs_NCP_SERVER_SendPingReq>:

	sendToServer(tmp_Buff, resultLen);
	MSLEEP(3);
}

void plcs_NCP_SERVER_SendPingReq() {
    1904:	ef 92       	push	r14
    1906:	ff 92       	push	r15
    1908:	0f 93       	push	r16
    190a:	df 93       	push	r29
    190c:	cf 93       	push	r28
    190e:	cd b7       	in	r28, 0x3d	; 61
    1910:	de b7       	in	r29, 0x3e	; 62
    1912:	64 97       	sbiw	r28, 0x14	; 20
    1914:	0f b6       	in	r0, 0x3f	; 63
    1916:	f8 94       	cli
    1918:	de bf       	out	0x3e, r29	; 62
    191a:	0f be       	out	0x3f, r0	; 63
    191c:	cd bf       	out	0x3d, r28	; 61
	uint8 len = 0;
	uint8 resultLen = 0;
	uint8 payload[20];

	payload[len++] = NCP_REQ_PING;
    191e:	81 e0       	ldi	r24, 0x01	; 1
    1920:	89 83       	std	Y+1, r24	; 0x01
	payload[len++] = 0;
    1922:	1a 82       	std	Y+2, r1	; 0x02
	payload[len++] = 0;
    1924:	1b 82       	std	Y+3, r1	; 0x03

	resultLen = plcs_GetNCPMessage(tmp_Buff, 0, NCP_GW_ID, payload, len);
    1926:	7a e8       	ldi	r23, 0x8A	; 138
    1928:	e7 2e       	mov	r14, r23
    192a:	72 e0       	ldi	r23, 0x02	; 2
    192c:	f7 2e       	mov	r15, r23
    192e:	c7 01       	movw	r24, r14
    1930:	60 e0       	ldi	r22, 0x00	; 0
    1932:	70 e0       	ldi	r23, 0x00	; 0
    1934:	41 e0       	ldi	r20, 0x01	; 1
    1936:	50 e0       	ldi	r21, 0x00	; 0
    1938:	9e 01       	movw	r18, r28
    193a:	2f 5f       	subi	r18, 0xFF	; 255
    193c:	3f 4f       	sbci	r19, 0xFF	; 255
    193e:	03 e0       	ldi	r16, 0x03	; 3
    1940:	0e 94 57 06 	call	0xcae	; 0xcae <plcs_GetNCPMessage>
    1944:	68 2f       	mov	r22, r24

	sendToServer(tmp_Buff, resultLen);
    1946:	c7 01       	movw	r24, r14
    1948:	70 e0       	ldi	r23, 0x00	; 0
    194a:	0e 94 94 1d 	call	0x3b28	; 0x3b28 <sendToServer>
    194e:	80 ee       	ldi	r24, 0xE0	; 224
    1950:	9e e2       	ldi	r25, 0x2E	; 46
    1952:	01 97       	sbiw	r24, 0x01	; 1
    1954:	f1 f7       	brne	.-4      	; 0x1952 <plcs_NCP_SERVER_SendPingReq+0x4e>
	MSLEEP(3);
}
    1956:	64 96       	adiw	r28, 0x14	; 20
    1958:	0f b6       	in	r0, 0x3f	; 63
    195a:	f8 94       	cli
    195c:	de bf       	out	0x3e, r29	; 62
    195e:	0f be       	out	0x3f, r0	; 63
    1960:	cd bf       	out	0x3d, r28	; 61
    1962:	cf 91       	pop	r28
    1964:	df 91       	pop	r29
    1966:	0f 91       	pop	r16
    1968:	ff 90       	pop	r15
    196a:	ef 90       	pop	r14
    196c:	08 95       	ret

0000196e <plcs_GCP_SERVER_HandleResetDebugLogReq>:
void plcs_GCP_SERVER_HandleDebugLogReq(uint16 seqNum, uint16 srcId, uint16 destId, uint8 msg[], int length) {
	plcs_GCP_SERVER_SendDebugLogRes(seqNum);
}

void plcs_GCP_SERVER_HandleResetDebugLogReq(uint16 seqNum, uint16 srcId, uint16 destId, uint8 msg[], int length) {
	debug_Reset();
    196e:	0e 94 1c 05 	call	0xa38	; 0xa38 <debug_Reset>
}
    1972:	08 95       	ret

00001974 <plcs_GCP_SERVER_HandleControlRebootReq>:
	eeprom_write_byte((uint8_t*) 70, isOnSensorSharing);

	plcs_GCP_SERVER_SendControlGatewayRes(seqNum, 0x00);
}

void plcs_GCP_SERVER_HandleControlRebootReq(uint16 seqNum, uint16 srcId, uint16 destId, uint8 msg[], int length) {
    1974:	0f 93       	push	r16
    1976:	1f 93       	push	r17
    1978:	f9 01       	movw	r30, r18
	uint16 subNodeId;
	uint16 deviceId;

	//msg[8] = msgtype
	subNodeId = msg[9] << 8 | msg[10];
	deviceId = msg[11] << 8 | msg[12];
    197a:	43 85       	ldd	r20, Z+11	; 0x0b
    197c:	54 85       	ldd	r21, Z+12	; 0x0c
	if (subNodeId == 0 && deviceId == 0) {
    197e:	91 85       	ldd	r25, Z+9	; 0x09
    1980:	80 e0       	ldi	r24, 0x00	; 0
    1982:	22 85       	ldd	r18, Z+10	; 0x0a
    1984:	30 e0       	ldi	r19, 0x00	; 0
    1986:	82 2b       	or	r24, r18
    1988:	93 2b       	or	r25, r19
    198a:	89 2b       	or	r24, r25
    198c:	49 f4       	brne	.+18     	; 0x19a0 <plcs_GCP_SERVER_HandleControlRebootReq+0x2c>
    198e:	94 2f       	mov	r25, r20
    1990:	80 e0       	ldi	r24, 0x00	; 0
    1992:	25 2f       	mov	r18, r21
    1994:	30 e0       	ldi	r19, 0x00	; 0
    1996:	82 2b       	or	r24, r18
    1998:	93 2b       	or	r25, r19
    199a:	89 2b       	or	r24, r25
    199c:	09 f4       	brne	.+2      	; 0x19a0 <plcs_GCP_SERVER_HandleControlRebootReq+0x2c>
    199e:	ff cf       	rjmp	.-2      	; 0x199e <plcs_GCP_SERVER_HandleControlRebootReq+0x2a>
		while (1)
			;
	} else
		sendToController(msg, length);
    19a0:	cf 01       	movw	r24, r30
    19a2:	b8 01       	movw	r22, r16
    19a4:	0e 94 bc 1d 	call	0x3b78	; 0x3b78 <sendToController>
}
    19a8:	1f 91       	pop	r17
    19aa:	0f 91       	pop	r16
    19ac:	08 95       	ret

000019ae <plcs_GCP_SERVER_HandleDeviceInfoReq>:
	if (subNodeId == 0)
		plcs_GCP_SERVER_SendNumOfDeviceRes(seqNum);
	else
		sendToController(msg, length);
}
void plcs_GCP_SERVER_HandleDeviceInfoReq(uint16 seqNum, uint16 srcId, uint16 destId, uint8 msg[], int length) {
    19ae:	0f 93       	push	r16
    19b0:	1f 93       	push	r17
    19b2:	ac 01       	movw	r20, r24
    19b4:	f9 01       	movw	r30, r18
	uint8 index;

	//msg[8] = msgtype

	subNodeId = msg[9] << 8 | msg[10];
	index = msg[11];
    19b6:	63 85       	ldd	r22, Z+11	; 0x0b

	if (subNodeId == 0)
    19b8:	91 85       	ldd	r25, Z+9	; 0x09
    19ba:	80 e0       	ldi	r24, 0x00	; 0
    19bc:	22 85       	ldd	r18, Z+10	; 0x0a
    19be:	30 e0       	ldi	r19, 0x00	; 0
    19c0:	82 2b       	or	r24, r18
    19c2:	93 2b       	or	r25, r19
    19c4:	89 2b       	or	r24, r25
    19c6:	21 f4       	brne	.+8      	; 0x19d0 <plcs_GCP_SERVER_HandleDeviceInfoReq+0x22>
		plcs_GCP_SERVER_SendDeviceInfoRes(seqNum, index);
    19c8:	ca 01       	movw	r24, r20
    19ca:	0e 94 74 0b 	call	0x16e8	; 0x16e8 <plcs_GCP_SERVER_SendDeviceInfoRes>
    19ce:	04 c0       	rjmp	.+8      	; 0x19d8 <plcs_GCP_SERVER_HandleDeviceInfoReq+0x2a>
	else
		sendToController(msg, length);
    19d0:	cf 01       	movw	r24, r30
    19d2:	b8 01       	movw	r22, r16
    19d4:	0e 94 bc 1d 	call	0x3b78	; 0x3b78 <sendToController>
}
    19d8:	1f 91       	pop	r17
    19da:	0f 91       	pop	r16
    19dc:	08 95       	ret

000019de <plcs_GCP_SERVER_HandleNumOfDeviceReq>:
		sendToController(msg, length);

	//plcs_NCP_LC100_SendStateInfoReq(nodeId, subNodeId, deviceType);
}

void plcs_GCP_SERVER_HandleNumOfDeviceReq(uint16 seqNum, uint16 srcId, uint16 destId, uint8 msg[], int length) {
    19de:	0f 93       	push	r16
    19e0:	1f 93       	push	r17
    19e2:	ac 01       	movw	r20, r24
    19e4:	f9 01       	movw	r30, r18
	uint16 subNodeId;
	//msg[8] = msgtype

	subNodeId = msg[9] << 8 | msg[10];

	if (subNodeId == 0)
    19e6:	91 85       	ldd	r25, Z+9	; 0x09
    19e8:	80 e0       	ldi	r24, 0x00	; 0
    19ea:	22 85       	ldd	r18, Z+10	; 0x0a
    19ec:	30 e0       	ldi	r19, 0x00	; 0
    19ee:	82 2b       	or	r24, r18
    19f0:	93 2b       	or	r25, r19
    19f2:	89 2b       	or	r24, r25
    19f4:	21 f4       	brne	.+8      	; 0x19fe <plcs_GCP_SERVER_HandleNumOfDeviceReq+0x20>
		plcs_GCP_SERVER_SendNumOfDeviceRes(seqNum);
    19f6:	ca 01       	movw	r24, r20
    19f8:	0e 94 37 0b 	call	0x166e	; 0x166e <plcs_GCP_SERVER_SendNumOfDeviceRes>
    19fc:	04 c0       	rjmp	.+8      	; 0x1a06 <plcs_GCP_SERVER_HandleNumOfDeviceReq+0x28>
	else
		sendToController(msg, length);
    19fe:	cf 01       	movw	r24, r30
    1a00:	b8 01       	movw	r22, r16
    1a02:	0e 94 bc 1d 	call	0x3b78	; 0x3b78 <sendToController>
}
    1a06:	1f 91       	pop	r17
    1a08:	0f 91       	pop	r16
    1a0a:	08 95       	ret

00001a0c <plcs_GCP_SERVER_HandleStateInfoReq>:
	for (i = 0; i < deviceInfoTable.size; i++) {
		plcs_NCP_LC100_SendTimeInfo(deviceInfoTable.deviceInfo[i].nodeId, hour, min);
	}
}

void plcs_GCP_SERVER_HandleStateInfoReq(uint16 seqNum, uint16 srcId, uint16 destId, uint8 msg[], int length) {
    1a0c:	0f 93       	push	r16
    1a0e:	1f 93       	push	r17
    1a10:	ac 01       	movw	r20, r24
    1a12:	f9 01       	movw	r30, r18
	uint16 deviceId;

	//msg[8] = msgtype

	subNodeId = msg[9] << 8 | msg[10];
	deviceId = msg[11] << 8 | msg[12];
    1a14:	63 85       	ldd	r22, Z+11	; 0x0b
    1a16:	74 85       	ldd	r23, Z+12	; 0x0c

	//printf_P(PSTR("\nsuNodeId (0x%04X)"), subNodeId);
	//printf_P(PSTR("\ndeviceId (0x%04X)"), deviceId);

	if (subNodeId == 0 && deviceId == 0)
    1a18:	91 85       	ldd	r25, Z+9	; 0x09
    1a1a:	80 e0       	ldi	r24, 0x00	; 0
    1a1c:	22 85       	ldd	r18, Z+10	; 0x0a
    1a1e:	30 e0       	ldi	r19, 0x00	; 0
    1a20:	82 2b       	or	r24, r18
    1a22:	93 2b       	or	r25, r19
    1a24:	89 2b       	or	r24, r25
    1a26:	61 f4       	brne	.+24     	; 0x1a40 <plcs_GCP_SERVER_HandleStateInfoReq+0x34>
    1a28:	96 2f       	mov	r25, r22
    1a2a:	80 e0       	ldi	r24, 0x00	; 0
    1a2c:	27 2f       	mov	r18, r23
    1a2e:	30 e0       	ldi	r19, 0x00	; 0
    1a30:	82 2b       	or	r24, r18
    1a32:	93 2b       	or	r25, r19
    1a34:	89 2b       	or	r24, r25
    1a36:	21 f4       	brne	.+8      	; 0x1a40 <plcs_GCP_SERVER_HandleStateInfoReq+0x34>
		plcs_GCP_SERVER_SendStateInfoRes(seqNum);
    1a38:	ca 01       	movw	r24, r20
    1a3a:	0e 94 b6 0a 	call	0x156c	; 0x156c <plcs_GCP_SERVER_SendStateInfoRes>
    1a3e:	04 c0       	rjmp	.+8      	; 0x1a48 <plcs_GCP_SERVER_HandleStateInfoReq+0x3c>
	else
		sendToController(msg, length);
    1a40:	cf 01       	movw	r24, r30
    1a42:	b8 01       	movw	r22, r16
    1a44:	0e 94 bc 1d 	call	0x3b78	; 0x3b78 <sendToController>

	//plcs_NCP_LC100_SendStateInfoReq(nodeId, subNodeId, deviceType);
}
    1a48:	1f 91       	pop	r17
    1a4a:	0f 91       	pop	r16
    1a4c:	08 95       	ret

00001a4e <plcs_GCP_SERVER_HandleControlGatewayReq>:
	isOnSensorSharing = value;

	plcs_GCP_SERVER_SendControlSensorSharingRes(seqNum, 0x00);
}

void plcs_GCP_SERVER_HandleControlGatewayReq(uint16 seqNum, uint16 srcId, uint16 destId, uint8 msg[], int length) {
    1a4e:	6f 92       	push	r6
    1a50:	7f 92       	push	r7
    1a52:	9f 92       	push	r9
    1a54:	af 92       	push	r10
    1a56:	bf 92       	push	r11
    1a58:	cf 92       	push	r12
    1a5a:	df 92       	push	r13
    1a5c:	ef 92       	push	r14
    1a5e:	ff 92       	push	r15
    1a60:	0f 93       	push	r16
    1a62:	1f 93       	push	r17
    1a64:	3c 01       	movw	r6, r24
    1a66:	f9 01       	movw	r30, r18
	uint8 i;

	//msg[8] = msgtype

	for (i = 0; i < 4; i++)
		deviceIp[i] = msg[9 + i];
    1a68:	c1 84       	ldd	r12, Z+9	; 0x09
    1a6a:	b2 84       	ldd	r11, Z+10	; 0x0a
    1a6c:	a3 84       	ldd	r10, Z+11	; 0x0b
    1a6e:	94 84       	ldd	r9, Z+12	; 0x0c
	for (i = 0; i < 4; i++)
		serverIp[i] = msg[13 + i];
    1a70:	65 85       	ldd	r22, Z+13	; 0x0d
    1a72:	86 85       	ldd	r24, Z+14	; 0x0e
    1a74:	97 85       	ldd	r25, Z+15	; 0x0f
    1a76:	40 89       	ldd	r20, Z+16	; 0x10
	for (i = 0; i < 4; i++)
		defaultGatewayIp[i] = msg[17 + i];
    1a78:	51 89       	ldd	r21, Z+17	; 0x11
    1a7a:	72 89       	ldd	r23, Z+18	; 0x12
    1a7c:	a3 89       	ldd	r26, Z+19	; 0x13
    1a7e:	b4 89       	ldd	r27, Z+20	; 0x14
	for (i = 0; i < 4; i++)
		netmask[i] = msg[21 + i];
    1a80:	15 89       	ldd	r17, Z+21	; 0x15
    1a82:	06 89       	ldd	r16, Z+22	; 0x16
    1a84:	f7 88       	ldd	r15, Z+23	; 0x17
    1a86:	e0 8c       	ldd	r14, Z+24	; 0x18

	port = msg[25] << 8 | msg[26];
    1a88:	d1 8c       	ldd	r13, Z+25	; 0x19
    1a8a:	22 8d       	ldd	r18, Z+26	; 0x1a

	sensorSharingMode = msg[27];
    1a8c:	e3 8d       	ldd	r30, Z+27	; 0x1b

	for (i = 0; i < 4; i++)
		Server_Ip[i] = serverIp[i];
    1a8e:	60 93 1e 01 	sts	0x011E, r22
    1a92:	80 93 1f 01 	sts	0x011F, r24
    1a96:	90 93 20 01 	sts	0x0120, r25
    1a9a:	40 93 21 01 	sts	0x0121, r20
	for (i = 0; i < 4; i++)
		my_Ip[i] = deviceIp[i];
    1a9e:	c0 92 22 01 	sts	0x0122, r12
    1aa2:	b0 92 23 01 	sts	0x0123, r11
    1aa6:	a0 92 24 01 	sts	0x0124, r10
    1aaa:	90 92 25 01 	sts	0x0125, r9
	for (i = 0; i < 4; i++)
		gw_Ip[i] = defaultGatewayIp[i];
    1aae:	50 93 2c 01 	sts	0x012C, r21
    1ab2:	70 93 2d 01 	sts	0x012D, r23
    1ab6:	a0 93 2e 01 	sts	0x012E, r26
    1aba:	b0 93 2f 01 	sts	0x012F, r27
	for (i = 0; i < 4; i++)
		sub_Net[i] = netmask[i];
    1abe:	10 93 30 01 	sts	0x0130, r17
    1ac2:	00 93 31 01 	sts	0x0131, r16
    1ac6:	f0 92 32 01 	sts	0x0132, r15
    1aca:	e0 92 33 01 	sts	0x0133, r14
	Server_Port = port;
    1ace:	9d 2d       	mov	r25, r13
    1ad0:	80 e0       	ldi	r24, 0x00	; 0
    1ad2:	30 e0       	ldi	r19, 0x00	; 0
    1ad4:	82 2b       	or	r24, r18
    1ad6:	93 2b       	or	r25, r19
    1ad8:	90 93 40 01 	sts	0x0140, r25
    1adc:	80 93 3f 01 	sts	0x013F, r24
	isOnSensorSharing = sensorSharingMode;
    1ae0:	e0 93 6d 01 	sts	0x016D, r30

	//eeprom에 저장.
	eeprom_write_byte((uint8_t*) 20, Server_Ip[0]);
    1ae4:	84 e1       	ldi	r24, 0x14	; 20
    1ae6:	90 e0       	ldi	r25, 0x00	; 0
    1ae8:	0e 94 06 2d 	call	0x5a0c	; 0x5a0c <__eewr_byte_m128>
	eeprom_write_byte((uint8_t*) 21, Server_Ip[1]);
    1aec:	85 e1       	ldi	r24, 0x15	; 21
    1aee:	90 e0       	ldi	r25, 0x00	; 0
    1af0:	60 91 1f 01 	lds	r22, 0x011F
    1af4:	0e 94 06 2d 	call	0x5a0c	; 0x5a0c <__eewr_byte_m128>
	eeprom_write_byte((uint8_t*) 22, Server_Ip[2]);
    1af8:	86 e1       	ldi	r24, 0x16	; 22
    1afa:	90 e0       	ldi	r25, 0x00	; 0
    1afc:	60 91 20 01 	lds	r22, 0x0120
    1b00:	0e 94 06 2d 	call	0x5a0c	; 0x5a0c <__eewr_byte_m128>
	eeprom_write_byte((uint8_t*) 23, Server_Ip[3]);
    1b04:	87 e1       	ldi	r24, 0x17	; 23
    1b06:	90 e0       	ldi	r25, 0x00	; 0
    1b08:	60 91 21 01 	lds	r22, 0x0121
    1b0c:	0e 94 06 2d 	call	0x5a0c	; 0x5a0c <__eewr_byte_m128>

	eeprom_write_byte((uint8_t*) 30, my_Ip[0]);
    1b10:	8e e1       	ldi	r24, 0x1E	; 30
    1b12:	90 e0       	ldi	r25, 0x00	; 0
    1b14:	60 91 22 01 	lds	r22, 0x0122
    1b18:	0e 94 06 2d 	call	0x5a0c	; 0x5a0c <__eewr_byte_m128>
	eeprom_write_byte((uint8_t*) 31, my_Ip[1]);
    1b1c:	8f e1       	ldi	r24, 0x1F	; 31
    1b1e:	90 e0       	ldi	r25, 0x00	; 0
    1b20:	60 91 23 01 	lds	r22, 0x0123
    1b24:	0e 94 06 2d 	call	0x5a0c	; 0x5a0c <__eewr_byte_m128>
	eeprom_write_byte((uint8_t*) 32, my_Ip[2]);
    1b28:	80 e2       	ldi	r24, 0x20	; 32
    1b2a:	90 e0       	ldi	r25, 0x00	; 0
    1b2c:	60 91 24 01 	lds	r22, 0x0124
    1b30:	0e 94 06 2d 	call	0x5a0c	; 0x5a0c <__eewr_byte_m128>
	eeprom_write_byte((uint8_t*) 33, my_Ip[3]);
    1b34:	81 e2       	ldi	r24, 0x21	; 33
    1b36:	90 e0       	ldi	r25, 0x00	; 0
    1b38:	60 91 25 01 	lds	r22, 0x0125
    1b3c:	0e 94 06 2d 	call	0x5a0c	; 0x5a0c <__eewr_byte_m128>

	eeprom_write_byte((uint8_t*) 40, gw_Ip[0]);
    1b40:	88 e2       	ldi	r24, 0x28	; 40
    1b42:	90 e0       	ldi	r25, 0x00	; 0
    1b44:	60 91 2c 01 	lds	r22, 0x012C
    1b48:	0e 94 06 2d 	call	0x5a0c	; 0x5a0c <__eewr_byte_m128>
	eeprom_write_byte((uint8_t*) 41, gw_Ip[1]);
    1b4c:	89 e2       	ldi	r24, 0x29	; 41
    1b4e:	90 e0       	ldi	r25, 0x00	; 0
    1b50:	60 91 2d 01 	lds	r22, 0x012D
    1b54:	0e 94 06 2d 	call	0x5a0c	; 0x5a0c <__eewr_byte_m128>
	eeprom_write_byte((uint8_t*) 42, gw_Ip[2]);
    1b58:	8a e2       	ldi	r24, 0x2A	; 42
    1b5a:	90 e0       	ldi	r25, 0x00	; 0
    1b5c:	60 91 2e 01 	lds	r22, 0x012E
    1b60:	0e 94 06 2d 	call	0x5a0c	; 0x5a0c <__eewr_byte_m128>
	eeprom_write_byte((uint8_t*) 43, gw_Ip[3]);
    1b64:	8b e2       	ldi	r24, 0x2B	; 43
    1b66:	90 e0       	ldi	r25, 0x00	; 0
    1b68:	60 91 2f 01 	lds	r22, 0x012F
    1b6c:	0e 94 06 2d 	call	0x5a0c	; 0x5a0c <__eewr_byte_m128>

	eeprom_write_byte((uint8_t*) 50, sub_Net[0]);
    1b70:	82 e3       	ldi	r24, 0x32	; 50
    1b72:	90 e0       	ldi	r25, 0x00	; 0
    1b74:	60 91 30 01 	lds	r22, 0x0130
    1b78:	0e 94 06 2d 	call	0x5a0c	; 0x5a0c <__eewr_byte_m128>
	eeprom_write_byte((uint8_t*) 51, sub_Net[1]);
    1b7c:	83 e3       	ldi	r24, 0x33	; 51
    1b7e:	90 e0       	ldi	r25, 0x00	; 0
    1b80:	60 91 31 01 	lds	r22, 0x0131
    1b84:	0e 94 06 2d 	call	0x5a0c	; 0x5a0c <__eewr_byte_m128>
	eeprom_write_byte((uint8_t*) 52, sub_Net[2]);
    1b88:	84 e3       	ldi	r24, 0x34	; 52
    1b8a:	90 e0       	ldi	r25, 0x00	; 0
    1b8c:	60 91 32 01 	lds	r22, 0x0132
    1b90:	0e 94 06 2d 	call	0x5a0c	; 0x5a0c <__eewr_byte_m128>
	eeprom_write_byte((uint8_t*) 53, sub_Net[3]);
    1b94:	85 e3       	ldi	r24, 0x35	; 53
    1b96:	90 e0       	ldi	r25, 0x00	; 0
    1b98:	60 91 33 01 	lds	r22, 0x0133
    1b9c:	0e 94 06 2d 	call	0x5a0c	; 0x5a0c <__eewr_byte_m128>

	eeprom_write_word((uint16_t*) 60, Server_Port);
    1ba0:	60 91 3f 01 	lds	r22, 0x013F
    1ba4:	70 91 40 01 	lds	r23, 0x0140
    1ba8:	8c e3       	ldi	r24, 0x3C	; 60
    1baa:	90 e0       	ldi	r25, 0x00	; 0
    1bac:	0e 94 13 2d 	call	0x5a26	; 0x5a26 <__eewr_word_m128>

	eeprom_write_byte((uint8_t*) 70, isOnSensorSharing);
    1bb0:	86 e4       	ldi	r24, 0x46	; 70
    1bb2:	90 e0       	ldi	r25, 0x00	; 0
    1bb4:	60 91 6d 01 	lds	r22, 0x016D
    1bb8:	0e 94 06 2d 	call	0x5a0c	; 0x5a0c <__eewr_byte_m128>

	plcs_GCP_SERVER_SendControlGatewayRes(seqNum, 0x00);
    1bbc:	c3 01       	movw	r24, r6
    1bbe:	60 e0       	ldi	r22, 0x00	; 0
    1bc0:	0e 94 7d 0a 	call	0x14fa	; 0x14fa <plcs_GCP_SERVER_SendControlGatewayRes>
}
    1bc4:	1f 91       	pop	r17
    1bc6:	0f 91       	pop	r16
    1bc8:	ff 90       	pop	r15
    1bca:	ef 90       	pop	r14
    1bcc:	df 90       	pop	r13
    1bce:	cf 90       	pop	r12
    1bd0:	bf 90       	pop	r11
    1bd2:	af 90       	pop	r10
    1bd4:	9f 90       	pop	r9
    1bd6:	7f 90       	pop	r7
    1bd8:	6f 90       	pop	r6
    1bda:	08 95       	ret

00001bdc <plcs_GCP_Server_ProcessMessage>:

// --------------------------------------------------------------------------- //
// --------------------- Process PLCS (Gateway <-> Server)  ---------------------- //
// --------------------------------------------------------------------------- //
//uint16 cntForNCPTest=0;
void plcs_GCP_Server_ProcessMessage(uint16 seqNum, uint16 srcId, uint16 destId, uint8 msg[], int length) {
    1bdc:	0f 93       	push	r16
    1bde:	1f 93       	push	r17
    1be0:	fc 01       	movw	r30, r24
    1be2:	d9 01       	movw	r26, r18
	uint8 msgType;
	msgType = msg[8];

	switch (msgType) {
    1be4:	18 96       	adiw	r26, 0x08	; 8
    1be6:	8c 91       	ld	r24, X
    1be8:	18 97       	sbiw	r26, 0x08	; 8
    1bea:	84 33       	cpi	r24, 0x34	; 52
    1bec:	09 f1       	breq	.+66     	; 0x1c30 <plcs_GCP_Server_ProcessMessage+0x54>
    1bee:	85 33       	cpi	r24, 0x35	; 53
    1bf0:	38 f4       	brcc	.+14     	; 0x1c00 <plcs_GCP_Server_ProcessMessage+0x24>
    1bf2:	82 32       	cpi	r24, 0x22	; 34
    1bf4:	c9 f0       	breq	.+50     	; 0x1c28 <plcs_GCP_Server_ProcessMessage+0x4c>
    1bf6:	84 32       	cpi	r24, 0x24	; 36
    1bf8:	79 f0       	breq	.+30     	; 0x1c18 <plcs_GCP_Server_ProcessMessage+0x3c>
    1bfa:	80 32       	cpi	r24, 0x20	; 32
    1bfc:	89 f5       	brne	.+98     	; 0x1c60 <plcs_GCP_Server_ProcessMessage+0x84>
    1bfe:	10 c0       	rjmp	.+32     	; 0x1c20 <plcs_GCP_Server_ProcessMessage+0x44>
    1c00:	8a 33       	cpi	r24, 0x3A	; 58
    1c02:	19 f1       	breq	.+70     	; 0x1c4a <plcs_GCP_Server_ProcessMessage+0x6e>
    1c04:	8b 33       	cpi	r24, 0x3B	; 59
    1c06:	18 f4       	brcc	.+6      	; 0x1c0e <plcs_GCP_Server_ProcessMessage+0x32>
    1c08:	86 33       	cpi	r24, 0x36	; 54
    1c0a:	51 f5       	brne	.+84     	; 0x1c60 <plcs_GCP_Server_ProcessMessage+0x84>
    1c0c:	1a c0       	rjmp	.+52     	; 0x1c42 <plcs_GCP_Server_ProcessMessage+0x66>
    1c0e:	80 39       	cpi	r24, 0x90	; 144
    1c10:	01 f1       	breq	.+64     	; 0x1c52 <plcs_GCP_Server_ProcessMessage+0x76>
    1c12:	82 39       	cpi	r24, 0x92	; 146
    1c14:	29 f5       	brne	.+74     	; 0x1c60 <plcs_GCP_Server_ProcessMessage+0x84>
    1c16:	21 c0       	rjmp	.+66     	; 0x1c5a <plcs_GCP_Server_ProcessMessage+0x7e>
	case PLCS_GCP_REQ_STATEINFO:
		plcs_GCP_SERVER_HandleStateInfoReq(seqNum, srcId, destId, msg, length);
    1c18:	cf 01       	movw	r24, r30
    1c1a:	0e 94 06 0d 	call	0x1a0c	; 0x1a0c <plcs_GCP_SERVER_HandleStateInfoReq>
    1c1e:	24 c0       	rjmp	.+72     	; 0x1c68 <plcs_GCP_Server_ProcessMessage+0x8c>
		break;
	case PLCS_GCP_REQ_NUMOFDEVICE:
		plcs_GCP_SERVER_HandleNumOfDeviceReq(seqNum, srcId, destId, msg, length);
    1c20:	cf 01       	movw	r24, r30
    1c22:	0e 94 ef 0c 	call	0x19de	; 0x19de <plcs_GCP_SERVER_HandleNumOfDeviceReq>
    1c26:	20 c0       	rjmp	.+64     	; 0x1c68 <plcs_GCP_Server_ProcessMessage+0x8c>
		break;
	case PLCS_GCP_REQ_DEVICEINFO:
		plcs_GCP_SERVER_HandleDeviceInfoReq(seqNum, srcId, destId, msg, length);
    1c28:	cf 01       	movw	r24, r30
    1c2a:	0e 94 d7 0c 	call	0x19ae	; 0x19ae <plcs_GCP_SERVER_HandleDeviceInfoReq>
    1c2e:	1c c0       	rjmp	.+56     	; 0x1c68 <plcs_GCP_Server_ProcessMessage+0x8c>
	uint8 value;

	//msg[8] = msgtype
	value = msg[9];

	isOnSensorSharing = value;
    1c30:	19 96       	adiw	r26, 0x09	; 9
    1c32:	8c 91       	ld	r24, X
    1c34:	80 93 6d 01 	sts	0x016D, r24

	plcs_GCP_SERVER_SendControlSensorSharingRes(seqNum, 0x00);
    1c38:	cf 01       	movw	r24, r30
    1c3a:	60 e0       	ldi	r22, 0x00	; 0
    1c3c:	0e 94 c7 0b 	call	0x178e	; 0x178e <plcs_GCP_SERVER_SendControlSensorSharingRes>
    1c40:	13 c0       	rjmp	.+38     	; 0x1c68 <plcs_GCP_Server_ProcessMessage+0x8c>
		break;
	case PLCS_GCP_REQ_CONTROL_SENSORSHARING:
		plcs_GCP_SERVER_HandleControlSensorSharingReq(seqNum, srcId, destId, msg, length);
		break;
	case PLCS_GCP_REQ_CONTROL_GATEWAY:
		plcs_GCP_SERVER_HandleControlGatewayReq(seqNum, srcId, destId, msg, length);
    1c42:	cf 01       	movw	r24, r30
    1c44:	0e 94 27 0d 	call	0x1a4e	; 0x1a4e <plcs_GCP_SERVER_HandleControlGatewayReq>
    1c48:	0f c0       	rjmp	.+30     	; 0x1c68 <plcs_GCP_Server_ProcessMessage+0x8c>
		break;
	case PLCS_GCP_REQ_CONTROL_REBOOT:
		plcs_GCP_SERVER_HandleControlRebootReq(seqNum, srcId, destId, msg, length);
    1c4a:	cf 01       	movw	r24, r30
    1c4c:	0e 94 ba 0c 	call	0x1974	; 0x1974 <plcs_GCP_SERVER_HandleControlRebootReq>
    1c50:	0b c0       	rjmp	.+22     	; 0x1c68 <plcs_GCP_Server_ProcessMessage+0x8c>
	} else
		sendToController(msg, length);
}

void plcs_GCP_SERVER_HandleDebugLogReq(uint16 seqNum, uint16 srcId, uint16 destId, uint8 msg[], int length) {
	plcs_GCP_SERVER_SendDebugLogRes(seqNum);
    1c52:	cf 01       	movw	r24, r30
    1c54:	0e 94 fd 09 	call	0x13fa	; 0x13fa <plcs_GCP_SERVER_SendDebugLogRes>
    1c58:	07 c0       	rjmp	.+14     	; 0x1c68 <plcs_GCP_Server_ProcessMessage+0x8c>
}

void plcs_GCP_SERVER_HandleResetDebugLogReq(uint16 seqNum, uint16 srcId, uint16 destId, uint8 msg[], int length) {
	debug_Reset();
    1c5a:	0e 94 1c 05 	call	0xa38	; 0xa38 <debug_Reset>
    1c5e:	04 c0       	rjmp	.+8      	; 0x1c68 <plcs_GCP_Server_ProcessMessage+0x8c>
		break;
	case PLCS_GCP_REQ_RESET_DEBUG_LOG:
		plcs_GCP_SERVER_HandleResetDebugLogReq(seqNum, srcId, destId, msg, length);
		break;
	default:
		sendToController(msg, length);
    1c60:	cd 01       	movw	r24, r26
    1c62:	b8 01       	movw	r22, r16
    1c64:	0e 94 bc 1d 	call	0x3b78	; 0x3b78 <sendToController>
		break;
	}

}
    1c68:	1f 91       	pop	r17
    1c6a:	0f 91       	pop	r16
    1c6c:	08 95       	ret

00001c6e <plcs_NCP_SERVER_HandleSendTimeInfo>:
		plcs_NCP_LC100_SendRegisterRes(seqNum, nodeId, result, 0x0030);
		plcs_NCP_LC100_SendTimeInfo(nodeId, hour, min);
	}
}

void plcs_NCP_SERVER_HandleSendTimeInfo(uint16 seqNum, uint16 srcId, uint16 destId, uint8 msg[], int length) {
    1c6e:	cf 92       	push	r12
    1c70:	ef 92       	push	r14
    1c72:	ff 92       	push	r15
    1c74:	0f 93       	push	r16
    1c76:	1f 93       	push	r17
    1c78:	f9 01       	movw	r30, r18
	dataFormat = msg[9];
	year = 10 * (msg[12] - '0') + (msg[13] - '0');
	month = 10 * (msg[14] - '0') + (msg[15] - '0');
	date = 10 * (msg[16] - '0') + (msg[17] - '0');
	day = msg[18] - '0';
	hour = 10 * (msg[19] - '0') + (msg[20] - '0');
    1c7a:	f4 88       	ldd	r15, Z+20	; 0x14
    1c7c:	80 ef       	ldi	r24, 0xF0	; 240
    1c7e:	f8 0e       	add	r15, r24
    1c80:	83 89       	ldd	r24, Z+19	; 0x13
    1c82:	aa e0       	ldi	r26, 0x0A	; 10
    1c84:	8a 9f       	mul	r24, r26
    1c86:	c0 01       	movw	r24, r0
    1c88:	11 24       	eor	r1, r1
    1c8a:	f8 0e       	add	r15, r24
	min = 10 * (msg[21] - '0') + (msg[22] - '0');
    1c8c:	16 89       	ldd	r17, Z+22	; 0x16
    1c8e:	10 51       	subi	r17, 0x10	; 16
    1c90:	85 89       	ldd	r24, Z+21	; 0x15
    1c92:	8a 9f       	mul	r24, r26
    1c94:	c0 01       	movw	r24, r0
    1c96:	11 24       	eor	r1, r1
    1c98:	18 0f       	add	r17, r24
	sec = 10 * (msg[23] - '0') + (msg[24] - '0');

	ds1307_initial_config(sec, min, hour, day, date, month, year);
    1c9a:	80 8d       	ldd	r24, Z+24	; 0x18
    1c9c:	80 51       	subi	r24, 0x10	; 16
    1c9e:	67 89       	ldd	r22, Z+23	; 0x17
    1ca0:	6a 9f       	mul	r22, r26
    1ca2:	b0 01       	movw	r22, r0
    1ca4:	11 24       	eor	r1, r1
    1ca6:	22 89       	ldd	r18, Z+18	; 0x12
    1ca8:	20 53       	subi	r18, 0x30	; 48
    1caa:	01 89       	ldd	r16, Z+17	; 0x11
    1cac:	00 51       	subi	r16, 0x10	; 16
    1cae:	40 89       	ldd	r20, Z+16	; 0x10
    1cb0:	4a 9f       	mul	r20, r26
    1cb2:	a0 01       	movw	r20, r0
    1cb4:	11 24       	eor	r1, r1
    1cb6:	04 0f       	add	r16, r20
    1cb8:	37 85       	ldd	r19, Z+15	; 0x0f
    1cba:	30 51       	subi	r19, 0x10	; 16
    1cbc:	46 85       	ldd	r20, Z+14	; 0x0e
    1cbe:	4a 9f       	mul	r20, r26
    1cc0:	a0 01       	movw	r20, r0
    1cc2:	11 24       	eor	r1, r1
    1cc4:	34 0f       	add	r19, r20
    1cc6:	95 85       	ldd	r25, Z+13	; 0x0d
    1cc8:	90 51       	subi	r25, 0x10	; 16
    1cca:	44 85       	ldd	r20, Z+12	; 0x0c
    1ccc:	4a 9f       	mul	r20, r26
    1cce:	a0 01       	movw	r20, r0
    1cd0:	11 24       	eor	r1, r1
    1cd2:	94 0f       	add	r25, r20
    1cd4:	86 0f       	add	r24, r22
    1cd6:	61 2f       	mov	r22, r17
    1cd8:	4f 2d       	mov	r20, r15
    1cda:	e3 2e       	mov	r14, r19
    1cdc:	c9 2e       	mov	r12, r25
    1cde:	0e 94 9c 03 	call	0x738	; 0x738 <ds1307_initial_config>
    1ce2:	00 e0       	ldi	r16, 0x00	; 0
    1ce4:	12 c0       	rjmp	.+36     	; 0x1d0a <plcs_NCP_SERVER_HandleSendTimeInfo+0x9c>
	for (i = 0; i < deviceInfoTable.size; i++) {
		plcs_NCP_LC100_SendTimeInfo(deviceInfoTable.deviceInfo[i].nodeId, hour, min);
    1ce6:	80 2f       	mov	r24, r16
    1ce8:	90 e0       	ldi	r25, 0x00	; 0
    1cea:	fc 01       	movw	r30, r24
    1cec:	ee 0f       	add	r30, r30
    1cee:	ff 1f       	adc	r31, r31
    1cf0:	e8 0f       	add	r30, r24
    1cf2:	f9 1f       	adc	r31, r25
    1cf4:	ee 0f       	add	r30, r30
    1cf6:	ff 1f       	adc	r31, r31
    1cf8:	ef 5e       	subi	r30, 0xEF	; 239
    1cfa:	fd 4f       	sbci	r31, 0xFD	; 253
    1cfc:	80 81       	ld	r24, Z
    1cfe:	91 81       	ldd	r25, Z+1	; 0x01
    1d00:	6f 2d       	mov	r22, r15
    1d02:	41 2f       	mov	r20, r17
    1d04:	0e 94 de 07 	call	0xfbc	; 0xfbc <plcs_NCP_LC100_SendTimeInfo>
	hour = 10 * (msg[19] - '0') + (msg[20] - '0');
	min = 10 * (msg[21] - '0') + (msg[22] - '0');
	sec = 10 * (msg[23] - '0') + (msg[24] - '0');

	ds1307_initial_config(sec, min, hour, day, date, month, year);
	for (i = 0; i < deviceInfoTable.size; i++) {
    1d08:	0f 5f       	subi	r16, 0xFF	; 255
    1d0a:	80 91 89 02 	lds	r24, 0x0289
    1d0e:	08 17       	cp	r16, r24
    1d10:	50 f3       	brcs	.-44     	; 0x1ce6 <plcs_NCP_SERVER_HandleSendTimeInfo+0x78>
		plcs_NCP_LC100_SendTimeInfo(deviceInfoTable.deviceInfo[i].nodeId, hour, min);
	}
}
    1d12:	1f 91       	pop	r17
    1d14:	0f 91       	pop	r16
    1d16:	ff 90       	pop	r15
    1d18:	ef 90       	pop	r14
    1d1a:	cf 90       	pop	r12
    1d1c:	08 95       	ret

00001d1e <plcs_NCP_SERVER_HandleRegisterNodeRes>:
			plcs_NCP_LC100_SendPingRes(0, deviceInfoTable.deviceInfo[i].nodeId, 0x01, PING_TIME);
		}
	}
}

void plcs_NCP_SERVER_HandleRegisterNodeRes(uint16 seqNum, uint16 srcId, uint16 destId, uint8 msg[], int length) {
    1d1e:	df 92       	push	r13
    1d20:	ef 92       	push	r14
    1d22:	ff 92       	push	r15
    1d24:	0f 93       	push	r16
    1d26:	1f 93       	push	r17
    1d28:	cf 93       	push	r28
    1d2a:	df 93       	push	r29
    1d2c:	ec 01       	movw	r28, r24
    1d2e:	f9 01       	movw	r30, r18
	uint16 nodeId;
	uint16 deviceType;
	uint8 result;

	//msg[8] == msgType
	nodeId = msg[9] << 8 | msg[10];
    1d30:	41 85       	ldd	r20, Z+9	; 0x09
    1d32:	02 85       	ldd	r16, Z+10	; 0x0a
	deviceType = msg[11] << 8 | msg[12];
	result = (uint16) ((msg[13] << 8) | msg[14]);
    1d34:	d6 84       	ldd	r13, Z+14	; 0x0e

	if (deviceType == DEVICETYPE_LC100) {
    1d36:	93 85       	ldd	r25, Z+11	; 0x0b
    1d38:	80 e0       	ldi	r24, 0x00	; 0
    1d3a:	24 85       	ldd	r18, Z+12	; 0x0c
    1d3c:	30 e0       	ldi	r19, 0x00	; 0
    1d3e:	82 2b       	or	r24, r18
    1d40:	93 2b       	or	r25, r19
    1d42:	80 51       	subi	r24, 0x10	; 16
    1d44:	90 42       	sbci	r25, 0x20	; 32
    1d46:	e1 f4       	brne	.+56     	; 0x1d80 <plcs_NCP_SERVER_HandleRegisterNodeRes+0x62>
	uint16 nodeId;
	uint16 deviceType;
	uint8 result;

	//msg[8] == msgType
	nodeId = msg[9] << 8 | msg[10];
    1d48:	94 2f       	mov	r25, r20
    1d4a:	80 e0       	ldi	r24, 0x00	; 0
    1d4c:	10 e0       	ldi	r17, 0x00	; 0
    1d4e:	08 2b       	or	r16, r24
    1d50:	19 2b       	or	r17, r25
	deviceType = msg[11] << 8 | msg[12];
	result = (uint16) ((msg[13] << 8) | msg[14]);

	if (deviceType == DEVICETYPE_LC100) {
		uint8 min, hour;
		min = ds1307_read(1);
    1d52:	81 e0       	ldi	r24, 0x01	; 1
    1d54:	90 e0       	ldi	r25, 0x00	; 0
    1d56:	0e 94 51 04 	call	0x8a2	; 0x8a2 <ds1307_read>
    1d5a:	e8 2e       	mov	r14, r24
		hour = ds1307_read(2);
    1d5c:	82 e0       	ldi	r24, 0x02	; 2
    1d5e:	90 e0       	ldi	r25, 0x00	; 0
    1d60:	0e 94 51 04 	call	0x8a2	; 0x8a2 <ds1307_read>
    1d64:	f8 2e       	mov	r15, r24

		plcs_NCP_LC100_SendRegisterRes(seqNum, nodeId, result, 0x0030);
    1d66:	ce 01       	movw	r24, r28
    1d68:	b8 01       	movw	r22, r16
    1d6a:	4d 2d       	mov	r20, r13
    1d6c:	50 e0       	ldi	r21, 0x00	; 0
    1d6e:	20 e3       	ldi	r18, 0x30	; 48
    1d70:	30 e0       	ldi	r19, 0x00	; 0
    1d72:	0e 94 97 08 	call	0x112e	; 0x112e <plcs_NCP_LC100_SendRegisterRes>
		plcs_NCP_LC100_SendTimeInfo(nodeId, hour, min);
    1d76:	c8 01       	movw	r24, r16
    1d78:	6f 2d       	mov	r22, r15
    1d7a:	4e 2d       	mov	r20, r14
    1d7c:	0e 94 de 07 	call	0xfbc	; 0xfbc <plcs_NCP_LC100_SendTimeInfo>
	}
}
    1d80:	df 91       	pop	r29
    1d82:	cf 91       	pop	r28
    1d84:	1f 91       	pop	r17
    1d86:	0f 91       	pop	r16
    1d88:	ff 90       	pop	r15
    1d8a:	ef 90       	pop	r14
    1d8c:	df 90       	pop	r13
    1d8e:	08 95       	ret

00001d90 <plcs_NCP_SERVER_HandlePingRes>:
			plcs_NCP_LC100_SendRegisterRes(0, deviceInfoTable.deviceInfo[i].nodeId, 0x01, PING_TIME);
		}
	}
}

void plcs_NCP_SERVER_HandlePingRes(uint16 seqNum, uint16 srcId, uint16 destId, uint8 msg[], int length) {
    1d90:	0f 93       	push	r16
    1d92:	1f 93       	push	r17
    1d94:	cf 93       	push	r28
    1d96:	df 93       	push	r29
    1d98:	f9 01       	movw	r30, r18
	uint8 protocolVer;
	uint16 pingInterval;

	//msg[8] == msgType
	protocolVer = msg[9];
	flag = msg[10];
    1d9a:	42 85       	ldd	r20, Z+10	; 0x0a
	pingInterval = (uint16) ((msg[11] << 8) | msg[12]);
    1d9c:	93 85       	ldd	r25, Z+11	; 0x0b
    1d9e:	80 e0       	ldi	r24, 0x00	; 0
    1da0:	24 85       	ldd	r18, Z+12	; 0x0c
    1da2:	30 e0       	ldi	r19, 0x00	; 0
    1da4:	28 2b       	or	r18, r24
    1da6:	39 2b       	or	r19, r25

	plcs_NCP_SERVER_Ping_Count = 0;
    1da8:	10 92 6b 01 	sts	0x016B, r1

	// Add Function Timer + Ping Interval
	if (pingInterval == 0)
    1dac:	21 15       	cp	r18, r1
    1dae:	31 05       	cpc	r19, r1
    1db0:	11 f4       	brne	.+4      	; 0x1db6 <plcs_NCP_SERVER_HandlePingRes+0x26>
    1db2:	2f ef       	ldi	r18, 0xFF	; 255
    1db4:	3f ef       	ldi	r19, 0xFF	; 255
		pingInterval = 0xffff;
	plcs_NCP_SERVER_PingInterval = pingInterval;
    1db6:	30 93 3d 01 	sts	0x013D, r19
    1dba:	20 93 3c 01 	sts	0x013C, r18

	if (flag == 0x01) { //재 등록.
    1dbe:	41 30       	cpi	r20, 0x01	; 1
    1dc0:	d1 f4       	brne	.+52     	; 0x1df6 <plcs_NCP_SERVER_HandlePingRes+0x66>
		uint16 i = 0;
		plcs_NCP_SERVER_SendRegisterReq();
    1dc2:	0e 94 08 0c 	call	0x1810	; 0x1810 <plcs_NCP_SERVER_SendRegisterReq>
    1dc6:	01 e1       	ldi	r16, 0x11	; 17
    1dc8:	12 e0       	ldi	r17, 0x02	; 2
    1dca:	c0 e0       	ldi	r28, 0x00	; 0
    1dcc:	d0 e0       	ldi	r29, 0x00	; 0
    1dce:	0d c0       	rjmp	.+26     	; 0x1dea <plcs_NCP_SERVER_HandlePingRes+0x5a>
		//하위 노드들도 재 등록 요청.
		for (i = 0; i < deviceInfoTable.size; i++) {
			plcs_NCP_LC100_SendPingRes(0, deviceInfoTable.deviceInfo[i].nodeId, 0x01, PING_TIME);
    1dd0:	f8 01       	movw	r30, r16
    1dd2:	60 81       	ld	r22, Z
    1dd4:	71 81       	ldd	r23, Z+1	; 0x01
    1dd6:	80 e0       	ldi	r24, 0x00	; 0
    1dd8:	90 e0       	ldi	r25, 0x00	; 0
    1dda:	41 e0       	ldi	r20, 0x01	; 1
    1ddc:	2c e3       	ldi	r18, 0x3C	; 60
    1dde:	30 e0       	ldi	r19, 0x00	; 0
    1de0:	0e 94 d1 08 	call	0x11a2	; 0x11a2 <plcs_NCP_LC100_SendPingRes>

	if (flag == 0x01) { //재 등록.
		uint16 i = 0;
		plcs_NCP_SERVER_SendRegisterReq();
		//하위 노드들도 재 등록 요청.
		for (i = 0; i < deviceInfoTable.size; i++) {
    1de4:	21 96       	adiw	r28, 0x01	; 1
    1de6:	0a 5f       	subi	r16, 0xFA	; 250
    1de8:	1f 4f       	sbci	r17, 0xFF	; 255
    1dea:	80 91 89 02 	lds	r24, 0x0289
    1dee:	90 e0       	ldi	r25, 0x00	; 0
    1df0:	c8 17       	cp	r28, r24
    1df2:	d9 07       	cpc	r29, r25
    1df4:	68 f3       	brcs	.-38     	; 0x1dd0 <plcs_NCP_SERVER_HandlePingRes+0x40>
			plcs_NCP_LC100_SendPingRes(0, deviceInfoTable.deviceInfo[i].nodeId, 0x01, PING_TIME);
		}
	}
}
    1df6:	df 91       	pop	r29
    1df8:	cf 91       	pop	r28
    1dfa:	1f 91       	pop	r17
    1dfc:	0f 91       	pop	r16
    1dfe:	08 95       	ret

00001e00 <plcs_NCP_SERVER_HandleRegisterRes>:
	default:
		break;
	}
}

void plcs_NCP_SERVER_HandleRegisterRes(uint16 seqNum, uint16 srcId, uint16 destId, uint8 msg[], int length) {
    1e00:	1f 93       	push	r17
    1e02:	f9 01       	movw	r30, r18

	//msg[8] == msgType
	result = (uint16) ((msg[9] << 8) | msg[10]);
	timeOut = (uint16) ((msg[11] << 8) | msg[12]);

	if (result == 0) {
    1e04:	91 85       	ldd	r25, Z+9	; 0x09
    1e06:	80 e0       	ldi	r24, 0x00	; 0
    1e08:	22 85       	ldd	r18, Z+10	; 0x0a
    1e0a:	30 e0       	ldi	r19, 0x00	; 0
    1e0c:	82 2b       	or	r24, r18
    1e0e:	93 2b       	or	r25, r19
    1e10:	89 2b       	or	r24, r25
    1e12:	41 f5       	brne	.+80     	; 0x1e64 <plcs_NCP_SERVER_HandleRegisterRes+0x64>
		if (plcs_NCP_SERVER_NetState != NET_REGISTER) {
    1e14:	80 91 6a 01 	lds	r24, 0x016A
    1e18:	81 30       	cpi	r24, 0x01	; 1
    1e1a:	11 f0       	breq	.+4      	; 0x1e20 <plcs_NCP_SERVER_HandleRegisterRes+0x20>
			debug_UpdateConnection();
    1e1c:	0e 94 bc 04 	call	0x978	; 0x978 <debug_UpdateConnection>
		}

		plcs_NCP_SERVER_NetState = NET_REGISTER;
    1e20:	81 e0       	ldi	r24, 0x01	; 1
    1e22:	80 93 6a 01 	sts	0x016A, r24
		plcs_NCP_SERVER_SendPingReq();
    1e26:	0e 94 82 0c 	call	0x1904	; 0x1904 <plcs_NCP_SERVER_SendPingReq>
    1e2a:	10 e0       	ldi	r17, 0x00	; 0
    1e2c:	16 c0       	rjmp	.+44     	; 0x1e5a <plcs_NCP_SERVER_HandleRegisterRes+0x5a>

		//하위 장치들에게 재 등록 요청.
		for (i = 0; i < deviceInfoTable.size; i++) {
			plcs_NCP_LC100_SendRegisterRes(0, deviceInfoTable.deviceInfo[i].nodeId, 0x01, PING_TIME);
    1e2e:	81 2f       	mov	r24, r17
    1e30:	90 e0       	ldi	r25, 0x00	; 0
    1e32:	fc 01       	movw	r30, r24
    1e34:	ee 0f       	add	r30, r30
    1e36:	ff 1f       	adc	r31, r31
    1e38:	e8 0f       	add	r30, r24
    1e3a:	f9 1f       	adc	r31, r25
    1e3c:	ee 0f       	add	r30, r30
    1e3e:	ff 1f       	adc	r31, r31
    1e40:	ef 5e       	subi	r30, 0xEF	; 239
    1e42:	fd 4f       	sbci	r31, 0xFD	; 253
    1e44:	60 81       	ld	r22, Z
    1e46:	71 81       	ldd	r23, Z+1	; 0x01
    1e48:	80 e0       	ldi	r24, 0x00	; 0
    1e4a:	90 e0       	ldi	r25, 0x00	; 0
    1e4c:	41 e0       	ldi	r20, 0x01	; 1
    1e4e:	50 e0       	ldi	r21, 0x00	; 0
    1e50:	2c e3       	ldi	r18, 0x3C	; 60
    1e52:	30 e0       	ldi	r19, 0x00	; 0
    1e54:	0e 94 97 08 	call	0x112e	; 0x112e <plcs_NCP_LC100_SendRegisterRes>

		plcs_NCP_SERVER_NetState = NET_REGISTER;
		plcs_NCP_SERVER_SendPingReq();

		//하위 장치들에게 재 등록 요청.
		for (i = 0; i < deviceInfoTable.size; i++) {
    1e58:	1f 5f       	subi	r17, 0xFF	; 255
    1e5a:	80 91 89 02 	lds	r24, 0x0289
    1e5e:	18 17       	cp	r17, r24
    1e60:	30 f3       	brcs	.-52     	; 0x1e2e <plcs_NCP_SERVER_HandleRegisterRes+0x2e>
    1e62:	1e c0       	rjmp	.+60     	; 0x1ea0 <plcs_NCP_SERVER_HandleRegisterRes+0xa0>
			plcs_NCP_LC100_SendRegisterRes(0, deviceInfoTable.deviceInfo[i].nodeId, 0x01, PING_TIME);
		}
	} else {
		plcs_NCP_SERVER_SendRegisterReq();
    1e64:	0e 94 08 0c 	call	0x1810	; 0x1810 <plcs_NCP_SERVER_SendRegisterReq>
    1e68:	10 e0       	ldi	r17, 0x00	; 0
    1e6a:	16 c0       	rjmp	.+44     	; 0x1e98 <plcs_NCP_SERVER_HandleRegisterRes+0x98>
		for (i = 0; i < deviceInfoTable.size; i++) {
			plcs_NCP_LC100_SendRegisterRes(0, deviceInfoTable.deviceInfo[i].nodeId, 0x01, PING_TIME);
    1e6c:	81 2f       	mov	r24, r17
    1e6e:	90 e0       	ldi	r25, 0x00	; 0
    1e70:	fc 01       	movw	r30, r24
    1e72:	ee 0f       	add	r30, r30
    1e74:	ff 1f       	adc	r31, r31
    1e76:	e8 0f       	add	r30, r24
    1e78:	f9 1f       	adc	r31, r25
    1e7a:	ee 0f       	add	r30, r30
    1e7c:	ff 1f       	adc	r31, r31
    1e7e:	ef 5e       	subi	r30, 0xEF	; 239
    1e80:	fd 4f       	sbci	r31, 0xFD	; 253
    1e82:	60 81       	ld	r22, Z
    1e84:	71 81       	ldd	r23, Z+1	; 0x01
    1e86:	80 e0       	ldi	r24, 0x00	; 0
    1e88:	90 e0       	ldi	r25, 0x00	; 0
    1e8a:	41 e0       	ldi	r20, 0x01	; 1
    1e8c:	50 e0       	ldi	r21, 0x00	; 0
    1e8e:	2c e3       	ldi	r18, 0x3C	; 60
    1e90:	30 e0       	ldi	r19, 0x00	; 0
    1e92:	0e 94 97 08 	call	0x112e	; 0x112e <plcs_NCP_LC100_SendRegisterRes>
		for (i = 0; i < deviceInfoTable.size; i++) {
			plcs_NCP_LC100_SendRegisterRes(0, deviceInfoTable.deviceInfo[i].nodeId, 0x01, PING_TIME);
		}
	} else {
		plcs_NCP_SERVER_SendRegisterReq();
		for (i = 0; i < deviceInfoTable.size; i++) {
    1e96:	1f 5f       	subi	r17, 0xFF	; 255
    1e98:	80 91 89 02 	lds	r24, 0x0289
    1e9c:	18 17       	cp	r17, r24
    1e9e:	30 f3       	brcs	.-52     	; 0x1e6c <plcs_NCP_SERVER_HandleRegisterRes+0x6c>
			plcs_NCP_LC100_SendRegisterRes(0, deviceInfoTable.deviceInfo[i].nodeId, 0x01, PING_TIME);
		}
	}
}
    1ea0:	1f 91       	pop	r17
    1ea2:	08 95       	ret

00001ea4 <plcs_NCP_Server_ProcessMessage>:
		sendToController(msg, length);
		break;
	}

}
void plcs_NCP_Server_ProcessMessage(uint16 seqNum, uint16 srcId, uint16 destId, uint8 msg[], int length) {
    1ea4:	0f 93       	push	r16
    1ea6:	1f 93       	push	r17
    1ea8:	f9 01       	movw	r30, r18
	uint8 msgType;
	msgType = msg[8];

	switch (msgType) {
    1eaa:	20 85       	ldd	r18, Z+8	; 0x08
    1eac:	22 31       	cpi	r18, 0x12	; 18
    1eae:	51 f0       	breq	.+20     	; 0x1ec4 <plcs_NCP_Server_ProcessMessage+0x20>
    1eb0:	23 31       	cpi	r18, 0x13	; 19
    1eb2:	18 f4       	brcc	.+6      	; 0x1eba <plcs_NCP_Server_ProcessMessage+0x16>
    1eb4:	22 30       	cpi	r18, 0x02	; 2
    1eb6:	a9 f4       	brne	.+42     	; 0x1ee2 <plcs_NCP_Server_ProcessMessage+0x3e>
    1eb8:	09 c0       	rjmp	.+18     	; 0x1ecc <plcs_NCP_Server_ProcessMessage+0x28>
    1eba:	24 31       	cpi	r18, 0x14	; 20
    1ebc:	59 f0       	breq	.+22     	; 0x1ed4 <plcs_NCP_Server_ProcessMessage+0x30>
    1ebe:	25 31       	cpi	r18, 0x15	; 21
    1ec0:	81 f4       	brne	.+32     	; 0x1ee2 <plcs_NCP_Server_ProcessMessage+0x3e>
    1ec2:	0c c0       	rjmp	.+24     	; 0x1edc <plcs_NCP_Server_ProcessMessage+0x38>
	case NCP_RES_REGISTER:
		plcs_NCP_SERVER_HandleRegisterRes(seqNum, srcId, destId, msg, length);
    1ec4:	9f 01       	movw	r18, r30
    1ec6:	0e 94 00 0f 	call	0x1e00	; 0x1e00 <plcs_NCP_SERVER_HandleRegisterRes>
    1eca:	0b c0       	rjmp	.+22     	; 0x1ee2 <plcs_NCP_Server_ProcessMessage+0x3e>
		break;
	case NCP_RES_PING:
		plcs_NCP_SERVER_HandlePingRes(seqNum, srcId, destId, msg, length);
    1ecc:	9f 01       	movw	r18, r30
    1ece:	0e 94 c8 0e 	call	0x1d90	; 0x1d90 <plcs_NCP_SERVER_HandlePingRes>
    1ed2:	07 c0       	rjmp	.+14     	; 0x1ee2 <plcs_NCP_Server_ProcessMessage+0x3e>
		break;
	case NCP_RES_REGISTER_NODE:
		plcs_NCP_SERVER_HandleRegisterNodeRes(seqNum, srcId, destId, msg, length);
    1ed4:	9f 01       	movw	r18, r30
    1ed6:	0e 94 8f 0e 	call	0x1d1e	; 0x1d1e <plcs_NCP_SERVER_HandleRegisterNodeRes>
    1eda:	03 c0       	rjmp	.+6      	; 0x1ee2 <plcs_NCP_Server_ProcessMessage+0x3e>
		break;
	case NCP_SEND_TIME_INFO:
		plcs_NCP_SERVER_HandleSendTimeInfo(seqNum, srcId, destId, msg, length);
    1edc:	9f 01       	movw	r18, r30
    1ede:	0e 94 37 0e 	call	0x1c6e	; 0x1c6e <plcs_NCP_SERVER_HandleSendTimeInfo>
		break;
	default:
		break;
	}
}
    1ee2:	1f 91       	pop	r17
    1ee4:	0f 91       	pop	r16
    1ee6:	08 95       	ret

00001ee8 <Find_StartTime>:
	}
}


uint8 Find_StartTime(uint8 startTime)
{
    1ee8:	38 2f       	mov	r19, r24
}


uint8 Get_ScheduleCount()
{
	return Schedule_Count;
    1eea:	20 91 4a 01 	lds	r18, 0x014A
    1eee:	e0 91 0f 02 	lds	r30, 0x020F
    1ef2:	f0 91 10 02 	lds	r31, 0x0210
    1ef6:	90 e0       	ldi	r25, 0x00	; 0
    1ef8:	07 c0       	rjmp	.+14     	; 0x1f08 <Find_StartTime+0x20>
	
	Schedule_Table *pFindStart = pNodeTime;

	for(i = 0; i < Get_ScheduleCount(); i++)
	{
		if(pFindStart[i].On_StartTime == startTime)
    1efa:	80 81       	ld	r24, Z
    1efc:	32 96       	adiw	r30, 0x02	; 2
    1efe:	83 17       	cp	r24, r19
    1f00:	11 f4       	brne	.+4      	; 0x1f06 <Find_StartTime+0x1e>
    1f02:	81 e0       	ldi	r24, 0x01	; 1
    1f04:	08 95       	ret
{
	uint8 i = 0;
	
	Schedule_Table *pFindStart = pNodeTime;

	for(i = 0; i < Get_ScheduleCount(); i++)
    1f06:	9f 5f       	subi	r25, 0xFF	; 255
    1f08:	92 17       	cp	r25, r18
    1f0a:	b8 f3       	brcs	.-18     	; 0x1efa <Find_StartTime+0x12>
    1f0c:	80 e0       	ldi	r24, 0x00	; 0
		if(pFindStart[i].On_StartTime == startTime)
			return 1;
	}

	return 0;
}
    1f0e:	08 95       	ret

00001f10 <Find_EndTime>:


uint8 Find_EndTime(uint8 endTime)
{
    1f10:	38 2f       	mov	r19, r24
}


uint8 Get_ScheduleCount()
{
	return Schedule_Count;
    1f12:	20 91 4a 01 	lds	r18, 0x014A
    1f16:	e0 91 0f 02 	lds	r30, 0x020F
    1f1a:	f0 91 10 02 	lds	r31, 0x0210
    1f1e:	90 e0       	ldi	r25, 0x00	; 0
    1f20:	07 c0       	rjmp	.+14     	; 0x1f30 <Find_EndTime+0x20>
	
	Schedule_Table *pFindEnd = pNodeTime;

	for(i = 0; i < Get_ScheduleCount(); i++)
	{
		if(pFindEnd[i].On_EndTime == endTime)
    1f22:	81 81       	ldd	r24, Z+1	; 0x01
    1f24:	32 96       	adiw	r30, 0x02	; 2
    1f26:	83 17       	cp	r24, r19
    1f28:	11 f4       	brne	.+4      	; 0x1f2e <Find_EndTime+0x1e>
    1f2a:	81 e0       	ldi	r24, 0x01	; 1
    1f2c:	08 95       	ret
{
	uint8 i = 0;
	
	Schedule_Table *pFindEnd = pNodeTime;

	for(i = 0; i < Get_ScheduleCount(); i++)
    1f2e:	9f 5f       	subi	r25, 0xFF	; 255
    1f30:	92 17       	cp	r25, r18
    1f32:	b8 f3       	brcs	.-18     	; 0x1f22 <Find_EndTime+0x12>
    1f34:	80 e0       	ldi	r24, 0x00	; 0
		if(pFindEnd[i].On_EndTime == endTime)
			return 1;
	}

	return 0;
}
    1f36:	08 95       	ret

00001f38 <Get_ScheduleCount>:


uint8 Get_ScheduleCount()
{
	return Schedule_Count;
}
    1f38:	80 91 4a 01 	lds	r24, 0x014A
    1f3c:	08 95       	ret

00001f3e <printScheduleTable>:
	return 0;
}


void printScheduleTable()
{
    1f3e:	af 92       	push	r10
    1f40:	bf 92       	push	r11
    1f42:	cf 92       	push	r12
    1f44:	df 92       	push	r13
    1f46:	ef 92       	push	r14
    1f48:	ff 92       	push	r15
    1f4a:	0f 93       	push	r16
    1f4c:	1f 93       	push	r17
    1f4e:	cf 93       	push	r28
    1f50:	df 93       	push	r29
	Schedule_Table *printTable = pNodeTime;
    1f52:	c0 91 0f 02 	lds	r28, 0x020F
    1f56:	d0 91 10 02 	lds	r29, 0x0210
    1f5a:	ff 24       	eor	r15, r15

	uint8 i = 0;

	for(i = 0; i < Get_ScheduleCount(); i++)
	{	
		printf_P(PSTR("\n Start Time : %d:%02d, End Time : %d:%02d"), (printTable[i].On_StartTime / 6), (printTable[i].On_StartTime % 6) * 10, (printTable[i].On_EndTime / 6), (printTable[i].On_EndTime % 6) * 10);
    1f5c:	3b eb       	ldi	r19, 0xBB	; 187
    1f5e:	a3 2e       	mov	r10, r19
    1f60:	30 e0       	ldi	r19, 0x00	; 0
    1f62:	b3 2e       	mov	r11, r19
    1f64:	2a e0       	ldi	r18, 0x0A	; 10
    1f66:	e2 2e       	mov	r14, r18
		printf_P(PSTR("\n Start Time : %02x, End Time : %02x"), printTable[i].On_StartTime, printTable[i].On_EndTime);
    1f68:	96 e9       	ldi	r25, 0x96	; 150
    1f6a:	c9 2e       	mov	r12, r25
    1f6c:	90 e0       	ldi	r25, 0x00	; 0
    1f6e:	d9 2e       	mov	r13, r25
    1f70:	56 c0       	rjmp	.+172    	; 0x201e <printScheduleTable+0xe0>

	uint8 i = 0;

	for(i = 0; i < Get_ScheduleCount(); i++)
	{	
		printf_P(PSTR("\n Start Time : %d:%02d, End Time : %d:%02d"), (printTable[i].On_StartTime / 6), (printTable[i].On_StartTime % 6) * 10, (printTable[i].On_EndTime / 6), (printTable[i].On_EndTime % 6) * 10);
    1f72:	0f 2d       	mov	r16, r15
    1f74:	10 e0       	ldi	r17, 0x00	; 0
    1f76:	00 0f       	add	r16, r16
    1f78:	11 1f       	adc	r17, r17
    1f7a:	0c 0f       	add	r16, r28
    1f7c:	1d 1f       	adc	r17, r29
    1f7e:	d8 01       	movw	r26, r16
    1f80:	2c 91       	ld	r18, X
    1f82:	11 96       	adiw	r26, 0x01	; 1
    1f84:	3c 91       	ld	r19, X
    1f86:	ed b7       	in	r30, 0x3d	; 61
    1f88:	fe b7       	in	r31, 0x3e	; 62
    1f8a:	3a 97       	sbiw	r30, 0x0a	; 10
    1f8c:	0f b6       	in	r0, 0x3f	; 63
    1f8e:	f8 94       	cli
    1f90:	fe bf       	out	0x3e, r31	; 62
    1f92:	0f be       	out	0x3f, r0	; 63
    1f94:	ed bf       	out	0x3d, r30	; 61
    1f96:	31 96       	adiw	r30, 0x01	; 1
    1f98:	ad b7       	in	r26, 0x3d	; 61
    1f9a:	be b7       	in	r27, 0x3e	; 62
    1f9c:	12 96       	adiw	r26, 0x02	; 2
    1f9e:	bc 92       	st	X, r11
    1fa0:	ae 92       	st	-X, r10
    1fa2:	11 97       	sbiw	r26, 0x01	; 1
    1fa4:	82 2f       	mov	r24, r18
    1fa6:	66 e0       	ldi	r22, 0x06	; 6
    1fa8:	0e 94 2c 26 	call	0x4c58	; 0x4c58 <__udivmodqi4>
    1fac:	82 83       	std	Z+2, r24	; 0x02
    1fae:	13 82       	std	Z+3, r1	; 0x03
    1fb0:	82 2f       	mov	r24, r18
    1fb2:	0e 94 2c 26 	call	0x4c58	; 0x4c58 <__udivmodqi4>
    1fb6:	9e 9d       	mul	r25, r14
    1fb8:	c0 01       	movw	r24, r0
    1fba:	11 24       	eor	r1, r1
    1fbc:	95 83       	std	Z+5, r25	; 0x05
    1fbe:	84 83       	std	Z+4, r24	; 0x04
    1fc0:	83 2f       	mov	r24, r19
    1fc2:	0e 94 2c 26 	call	0x4c58	; 0x4c58 <__udivmodqi4>
    1fc6:	86 83       	std	Z+6, r24	; 0x06
    1fc8:	17 82       	std	Z+7, r1	; 0x07
    1fca:	83 2f       	mov	r24, r19
    1fcc:	0e 94 2c 26 	call	0x4c58	; 0x4c58 <__udivmodqi4>
    1fd0:	9e 9d       	mul	r25, r14
    1fd2:	c0 01       	movw	r24, r0
    1fd4:	11 24       	eor	r1, r1
    1fd6:	91 87       	std	Z+9, r25	; 0x09
    1fd8:	80 87       	std	Z+8, r24	; 0x08
    1fda:	0e 94 d1 27 	call	0x4fa2	; 0x4fa2 <printf_P>
		printf_P(PSTR("\n Start Time : %02x, End Time : %02x"), printTable[i].On_StartTime, printTable[i].On_EndTime);
    1fde:	0f 90       	pop	r0
    1fe0:	0f 90       	pop	r0
    1fe2:	0f 90       	pop	r0
    1fe4:	0f 90       	pop	r0
    1fe6:	ed b7       	in	r30, 0x3d	; 61
    1fe8:	fe b7       	in	r31, 0x3e	; 62
    1fea:	31 96       	adiw	r30, 0x01	; 1
    1fec:	ad b7       	in	r26, 0x3d	; 61
    1fee:	be b7       	in	r27, 0x3e	; 62
    1ff0:	12 96       	adiw	r26, 0x02	; 2
    1ff2:	dc 92       	st	X, r13
    1ff4:	ce 92       	st	-X, r12
    1ff6:	11 97       	sbiw	r26, 0x01	; 1
    1ff8:	d8 01       	movw	r26, r16
    1ffa:	8c 91       	ld	r24, X
    1ffc:	82 83       	std	Z+2, r24	; 0x02
    1ffe:	13 82       	std	Z+3, r1	; 0x03
    2000:	11 96       	adiw	r26, 0x01	; 1
    2002:	8c 91       	ld	r24, X
    2004:	84 83       	std	Z+4, r24	; 0x04
    2006:	15 82       	std	Z+5, r1	; 0x05
    2008:	0e 94 d1 27 	call	0x4fa2	; 0x4fa2 <printf_P>
{
	Schedule_Table *printTable = pNodeTime;

	uint8 i = 0;

	for(i = 0; i < Get_ScheduleCount(); i++)
    200c:	f3 94       	inc	r15
    200e:	ed b7       	in	r30, 0x3d	; 61
    2010:	fe b7       	in	r31, 0x3e	; 62
    2012:	36 96       	adiw	r30, 0x06	; 6
    2014:	0f b6       	in	r0, 0x3f	; 63
    2016:	f8 94       	cli
    2018:	fe bf       	out	0x3e, r31	; 62
    201a:	0f be       	out	0x3f, r0	; 63
    201c:	ed bf       	out	0x3d, r30	; 61
    201e:	80 91 4a 01 	lds	r24, 0x014A
    2022:	f8 16       	cp	r15, r24
    2024:	08 f4       	brcc	.+2      	; 0x2028 <printScheduleTable+0xea>
    2026:	a5 cf       	rjmp	.-182    	; 0x1f72 <printScheduleTable+0x34>
	{	
		printf_P(PSTR("\n Start Time : %d:%02d, End Time : %d:%02d"), (printTable[i].On_StartTime / 6), (printTable[i].On_StartTime % 6) * 10, (printTable[i].On_EndTime / 6), (printTable[i].On_EndTime % 6) * 10);
		printf_P(PSTR("\n Start Time : %02x, End Time : %02x"), printTable[i].On_StartTime, printTable[i].On_EndTime);
	}
}
    2028:	df 91       	pop	r29
    202a:	cf 91       	pop	r28
    202c:	1f 91       	pop	r17
    202e:	0f 91       	pop	r16
    2030:	ff 90       	pop	r15
    2032:	ef 90       	pop	r14
    2034:	df 90       	pop	r13
    2036:	cf 90       	pop	r12
    2038:	bf 90       	pop	r11
    203a:	af 90       	pop	r10
    203c:	08 95       	ret

0000203e <addScheduleTable>:

// --------------------------------------------------------------------------------------------------------- //
// ------------------ Add Schedule Table ---------------------------------------------------------------------- //
// --------------------------------------------------------------------------------------------------------- //
int addScheduleTable(uint8 tmp_TimeCnt, uint8 *msg, int tmp_length)
{
    203e:	ff 92       	push	r15
    2040:	0f 93       	push	r16
    2042:	1f 93       	push	r17
    2044:	18 2f       	mov	r17, r24
    2046:	06 2f       	mov	r16, r22
    2048:	f7 2e       	mov	r15, r23
	uint8 i = 0;
	
	pNodeTime = (struct TIMETABLE *)malloc(sizeof(struct TIMETABLE) * tmp_TimeCnt);
    204a:	90 e0       	ldi	r25, 0x00	; 0
    204c:	88 0f       	add	r24, r24
    204e:	99 1f       	adc	r25, r25
    2050:	0e 94 5f 26 	call	0x4cbe	; 0x4cbe <malloc>
    2054:	ac 01       	movw	r20, r24
    2056:	90 93 10 02 	sts	0x0210, r25
    205a:	80 93 0f 02 	sts	0x020F, r24

	if(pNodeTime == NULL)
    205e:	89 2b       	or	r24, r25
    2060:	b1 f0       	breq	.+44     	; 0x208e <addScheduleTable+0x50>
    2062:	20 2f       	mov	r18, r16
    2064:	3f 2d       	mov	r19, r15
    2066:	c9 01       	movw	r24, r18
    2068:	dc 01       	movw	r26, r24
    206a:	fa 01       	movw	r30, r20
    206c:	90 e0       	ldi	r25, 0x00	; 0
    206e:	09 c0       	rjmp	.+18     	; 0x2082 <addScheduleTable+0x44>
		return 0;
	
	for(i = 0; i < tmp_TimeCnt; i ++)
	{
		pNodeTime[i].On_StartTime = msg[(i * 2)];
    2070:	8c 91       	ld	r24, X
    2072:	80 83       	st	Z, r24
		pNodeTime[i].On_EndTime = msg[1+(i * 2)];
    2074:	11 96       	adiw	r26, 0x01	; 1
    2076:	8c 91       	ld	r24, X
    2078:	11 97       	sbiw	r26, 0x01	; 1
    207a:	81 83       	std	Z+1, r24	; 0x01
	pNodeTime = (struct TIMETABLE *)malloc(sizeof(struct TIMETABLE) * tmp_TimeCnt);

	if(pNodeTime == NULL)
		return 0;
	
	for(i = 0; i < tmp_TimeCnt; i ++)
    207c:	9f 5f       	subi	r25, 0xFF	; 255
    207e:	12 96       	adiw	r26, 0x02	; 2
    2080:	32 96       	adiw	r30, 0x02	; 2
    2082:	91 17       	cp	r25, r17
    2084:	a8 f3       	brcs	.-22     	; 0x2070 <addScheduleTable+0x32>
	{
		pNodeTime[i].On_StartTime = msg[(i * 2)];
		pNodeTime[i].On_EndTime = msg[1+(i * 2)];
	}

	Schedule_Count = tmp_TimeCnt;
    2086:	10 93 4a 01 	sts	0x014A, r17

	printScheduleTable();
    208a:	0e 94 9f 0f 	call	0x1f3e	; 0x1f3e <printScheduleTable>

	return 0;
}
    208e:	80 e0       	ldi	r24, 0x00	; 0
    2090:	90 e0       	ldi	r25, 0x00	; 0
    2092:	1f 91       	pop	r17
    2094:	0f 91       	pop	r16
    2096:	ff 90       	pop	r15
    2098:	08 95       	ret

0000209a <timer_set>:
uint32 timerCount;


int timer_set(int timer_id, uint32 time_value)
{		
	if ( (timer_id >= 0) && (timer_id < MAX_SYS_TIMER) )
    209a:	8a 30       	cpi	r24, 0x0A	; 10
    209c:	91 05       	cpc	r25, r1
    209e:	78 f4       	brcc	.+30     	; 0x20be <timer_set+0x24>
	{
//		DISABLE_INTERRUPT();
		timer_list[timer_id].value = time_value;
    20a0:	fc 01       	movw	r30, r24
    20a2:	ee 0f       	add	r30, r30
    20a4:	ff 1f       	adc	r31, r31
    20a6:	ee 0f       	add	r30, r30
    20a8:	ff 1f       	adc	r31, r31
    20aa:	e8 0f       	add	r30, r24
    20ac:	f9 1f       	adc	r31, r25
    20ae:	e2 53       	subi	r30, 0x32	; 50
    20b0:	fd 4f       	sbci	r31, 0xFD	; 253
    20b2:	41 83       	std	Z+1, r20	; 0x01
    20b4:	52 83       	std	Z+2, r21	; 0x02
    20b6:	63 83       	std	Z+3, r22	; 0x03
    20b8:	74 83       	std	Z+4, r23	; 0x04
		timer_list[timer_id].running = 1;
    20ba:	81 e0       	ldi	r24, 0x01	; 1
    20bc:	80 83       	st	Z, r24
//		ENABLE_INTERRUPT();
	}
	return 0;
}
    20be:	80 e0       	ldi	r24, 0x00	; 0
    20c0:	90 e0       	ldi	r25, 0x00	; 0
    20c2:	08 95       	ret

000020c4 <timer_get>:



int timer_get(int timer_id)
{
	if ( (timer_id >= 0) && (timer_id < MAX_SYS_TIMER) )
    20c4:	8a 30       	cpi	r24, 0x0A	; 10
    20c6:	91 05       	cpc	r25, r1
    20c8:	b0 f4       	brcc	.+44     	; 0x20f6 <timer_get+0x32>
	{
		if (timer_list[timer_id].running)
    20ca:	fc 01       	movw	r30, r24
    20cc:	ee 0f       	add	r30, r30
    20ce:	ff 1f       	adc	r31, r31
    20d0:	ee 0f       	add	r30, r30
    20d2:	ff 1f       	adc	r31, r31
    20d4:	e8 0f       	add	r30, r24
    20d6:	f9 1f       	adc	r31, r25
    20d8:	e2 53       	subi	r30, 0x32	; 50
    20da:	fd 4f       	sbci	r31, 0xFD	; 253
    20dc:	80 81       	ld	r24, Z
    20de:	88 23       	and	r24, r24
    20e0:	51 f0       	breq	.+20     	; 0x20f6 <timer_get+0x32>
    20e2:	20 e0       	ldi	r18, 0x00	; 0
    20e4:	30 e0       	ldi	r19, 0x00	; 0
    20e6:	81 81       	ldd	r24, Z+1	; 0x01
    20e8:	92 81       	ldd	r25, Z+2	; 0x02
    20ea:	a3 81       	ldd	r26, Z+3	; 0x03
    20ec:	b4 81       	ldd	r27, Z+4	; 0x04
    20ee:	00 97       	sbiw	r24, 0x00	; 0
    20f0:	a1 05       	cpc	r26, r1
    20f2:	b1 05       	cpc	r27, r1
    20f4:	11 f0       	breq	.+4      	; 0x20fa <timer_get+0x36>
    20f6:	21 e0       	ldi	r18, 0x01	; 1
    20f8:	30 e0       	ldi	r19, 0x00	; 0
	else
	{
		// return as not fired.
		return 1;
	}
}
    20fa:	c9 01       	movw	r24, r18
    20fc:	08 95       	ret

000020fe <timer_clear>:



int timer_clear(int timer_id)
{	
	if ( (timer_id >= 0) && (timer_id < MAX_SYS_TIMER) )
    20fe:	8a 30       	cpi	r24, 0x0A	; 10
    2100:	91 05       	cpc	r25, r1
    2102:	50 f4       	brcc	.+20     	; 0x2118 <timer_clear+0x1a>
	{
		timer_list[timer_id].running = 0;
    2104:	fc 01       	movw	r30, r24
    2106:	ee 0f       	add	r30, r30
    2108:	ff 1f       	adc	r31, r31
    210a:	ee 0f       	add	r30, r30
    210c:	ff 1f       	adc	r31, r31
    210e:	e8 0f       	add	r30, r24
    2110:	f9 1f       	adc	r31, r25
    2112:	e2 53       	subi	r30, 0x32	; 50
    2114:	fd 4f       	sbci	r31, 0xFD	; 253
    2116:	10 82       	st	Z, r1
	}
	return 0;
}
    2118:	80 e0       	ldi	r24, 0x00	; 0
    211a:	90 e0       	ldi	r25, 0x00	; 0
    211c:	08 95       	ret

0000211e <timer_init>:
	- timer utility init
	- timer register setting
*/
void timer_init()
{
	DISABLE_INTERRUPT();
    211e:	f8 94       	cli
    2120:	ee ec       	ldi	r30, 0xCE	; 206
    2122:	f2 e0       	ldi	r31, 0x02	; 2
	for (int i=0; i<MAX_SYS_TIMER; i++)
	{
		timer_list[i].running = 0;
    2124:	10 82       	st	Z, r1
		timer_list[i].value = 0;
    2126:	11 82       	std	Z+1, r1	; 0x01
    2128:	12 82       	std	Z+2, r1	; 0x02
    212a:	13 82       	std	Z+3, r1	; 0x03
    212c:	14 82       	std	Z+4, r1	; 0x04
    212e:	35 96       	adiw	r30, 0x05	; 5
	- timer register setting
*/
void timer_init()
{
	DISABLE_INTERRUPT();
	for (int i=0; i<MAX_SYS_TIMER; i++)
    2130:	83 e0       	ldi	r24, 0x03	; 3
    2132:	e0 30       	cpi	r30, 0x00	; 0
    2134:	f8 07       	cpc	r31, r24
    2136:	b1 f7       	brne	.-20     	; 0x2124 <timer_init+0x6>
	// TCCR0 : FOC0, WGM00, COM01, COM00, WGM01, CS02, CS01, CS00
	// CS12,CS11,CS10 : 1=clk, 2=clk/8, 3=clk/32, 4=clk/64, 5=clk/128, 6=clk/256, 7=clk/1024.
	// WGM01,WGM00 : 0x10=CTC(Clear Timer on Compare match) mode; top = OCR0, 
	// timer control : CLK_io = system clock = 8 MHz.

	TCNT1H = 0x00;
    2138:	1d bc       	out	0x2d, r1	; 45
	TCNT1L = 0x00;
    213a:	1c bc       	out	0x2c, r1	; 44

	TCCR1A = 0x40;				// Normal mode.  WGMn[3-0] = b0100.
    213c:	80 e4       	ldi	r24, 0x40	; 64
    213e:	8f bd       	out	0x2f, r24	; 47
								// COM1A1,A0 = b00, normal port operation.(CTC mode)
	TCCR1B = 0x0C;				// CSn2/1/0 = b100, clk_io/256, CTC mode.
    2140:	8c e0       	ldi	r24, 0x0C	; 12
    2142:	8e bd       	out	0x2e, r24	; 46
	TCCR1C = 0x00;
    2144:	10 92 7a 00 	sts	0x007A, r1
	
	OCR1AH = 0x00;
    2148:	1b bc       	out	0x2b, r1	; 43
	OCR1AL = TIMER_TCNT;		//value=31 for 8Mhz;		// 1ms
    214a:	8e e3       	ldi	r24, 0x3E	; 62
    214c:	8a bd       	out	0x2a, r24	; 42

	TIMSK |=0x10;				// enable OCIE1A, don't touch other flags.
    214e:	87 b7       	in	r24, 0x37	; 55
    2150:	80 61       	ori	r24, 0x10	; 16
    2152:	87 bf       	out	0x37, r24	; 55
#endif

	ENABLE_INTERRUPT();
    2154:	78 94       	sei
}
    2156:	08 95       	ret

00002158 <__vector_12>:



#ifdef	USE_TIMER1
ISR(TIMER1_COMPA_vect)
{ 
    2158:	1f 92       	push	r1
    215a:	0f 92       	push	r0
    215c:	0f b6       	in	r0, 0x3f	; 63
    215e:	0f 92       	push	r0
    2160:	0b b6       	in	r0, 0x3b	; 59
    2162:	0f 92       	push	r0
    2164:	11 24       	eor	r1, r1
    2166:	8f 93       	push	r24
    2168:	9f 93       	push	r25
    216a:	af 93       	push	r26
    216c:	bf 93       	push	r27
    216e:	ef 93       	push	r30
    2170:	ff 93       	push	r31
	int i;
	
	// Need not clear TCNT1, it is automatically cleared on CTC mode.(Clear Timer on Compare match)
	// TCNT1 = 0;
	// 1ms timer.
	timerCount++;
    2172:	80 91 ca 02 	lds	r24, 0x02CA
    2176:	90 91 cb 02 	lds	r25, 0x02CB
    217a:	a0 91 cc 02 	lds	r26, 0x02CC
    217e:	b0 91 cd 02 	lds	r27, 0x02CD
    2182:	01 96       	adiw	r24, 0x01	; 1
    2184:	a1 1d       	adc	r26, r1
    2186:	b1 1d       	adc	r27, r1
    2188:	80 93 ca 02 	sts	0x02CA, r24
    218c:	90 93 cb 02 	sts	0x02CB, r25
    2190:	a0 93 cc 02 	sts	0x02CC, r26
    2194:	b0 93 cd 02 	sts	0x02CD, r27
    2198:	ef ec       	ldi	r30, 0xCF	; 207
    219a:	f2 e0       	ldi	r31, 0x02	; 2
	
	// timer decreasing.
	for (i=0; i<MAX_SYS_TIMER; i++)
	{
		if (timer_list[i].value > 0)
    219c:	80 81       	ld	r24, Z
    219e:	91 81       	ldd	r25, Z+1	; 0x01
    21a0:	a2 81       	ldd	r26, Z+2	; 0x02
    21a2:	b3 81       	ldd	r27, Z+3	; 0x03
    21a4:	00 97       	sbiw	r24, 0x00	; 0
    21a6:	a1 05       	cpc	r26, r1
    21a8:	b1 05       	cpc	r27, r1
    21aa:	39 f0       	breq	.+14     	; 0x21ba <__vector_12+0x62>
		{
			timer_list[i].value--;
    21ac:	01 97       	sbiw	r24, 0x01	; 1
    21ae:	a1 09       	sbc	r26, r1
    21b0:	b1 09       	sbc	r27, r1
    21b2:	80 83       	st	Z, r24
    21b4:	91 83       	std	Z+1, r25	; 0x01
    21b6:	a2 83       	std	Z+2, r26	; 0x02
    21b8:	b3 83       	std	Z+3, r27	; 0x03
    21ba:	35 96       	adiw	r30, 0x05	; 5
	// TCNT1 = 0;
	// 1ms timer.
	timerCount++;
	
	// timer decreasing.
	for (i=0; i<MAX_SYS_TIMER; i++)
    21bc:	83 e0       	ldi	r24, 0x03	; 3
    21be:	e1 30       	cpi	r30, 0x01	; 1
