Archive member included because of file (symbol)

c:/winavr-20100110/bin/../lib/gcc/avr/4.3.3/avr5\libgcc.a(_udivmodhi4.o)
                              ./src/RFU_Protocol.o (__udivmodhi4)
c:/winavr-20100110/bin/../lib/gcc/avr/4.3.3/avr5\libgcc.a(_exit.o)
                              c:/winavr-20100110/bin/../lib/gcc/avr/4.3.3/../../../../avr/lib/avr5/crtm328p.o (exit)
c:/winavr-20100110/bin/../lib/gcc/avr/4.3.3/avr5\libgcc.a(_copy_data.o)
                              ./src/MSN_Protocol.o (__do_copy_data)
c:/winavr-20100110/bin/../lib/gcc/avr/4.3.3/avr5\libgcc.a(_clear_bss.o)
                              ./src/MSN_Protocol.o (__do_clear_bss)
c:/winavr-20100110/bin/../lib/gcc/avr/4.3.3/avr5\libgcc.a(_gt_sf.o)
                              ./src/main.o (__gtsf2)
c:/winavr-20100110/bin/../lib/gcc/avr/4.3.3/avr5\libgcc.a(_si_to_sf.o)
                              ./src/main.o (__floatsisf)
c:/winavr-20100110/bin/../lib/gcc/avr/4.3.3/avr5\libgcc.a(_prologue.o)
                              c:/winavr-20100110/bin/../lib/gcc/avr/4.3.3/avr5\libgcc.a(_gt_sf.o) (__prologue_saves__)
c:/winavr-20100110/bin/../lib/gcc/avr/4.3.3/avr5\libgcc.a(_epilogue.o)
                              c:/winavr-20100110/bin/../lib/gcc/avr/4.3.3/avr5\libgcc.a(_gt_sf.o) (__epilogue_restores__)
c:/winavr-20100110/bin/../lib/gcc/avr/4.3.3/avr5\libgcc.a(_clzsi2.o)
                              c:/winavr-20100110/bin/../lib/gcc/avr/4.3.3/avr5\libgcc.a(_si_to_sf.o) (__clzsi2)
c:/winavr-20100110/bin/../lib/gcc/avr/4.3.3/avr5\libgcc.a(_pack_sf.o)
                              c:/winavr-20100110/bin/../lib/gcc/avr/4.3.3/avr5\libgcc.a(_si_to_sf.o) (__pack_f)
c:/winavr-20100110/bin/../lib/gcc/avr/4.3.3/avr5\libgcc.a(_unpack_sf.o)
                              c:/winavr-20100110/bin/../lib/gcc/avr/4.3.3/avr5\libgcc.a(_gt_sf.o) (__unpack_f)
c:/winavr-20100110/bin/../lib/gcc/avr/4.3.3/avr5\libgcc.a(_fpcmp_parts_sf.o)
                              c:/winavr-20100110/bin/../lib/gcc/avr/4.3.3/avr5\libgcc.a(_gt_sf.o) (__fpcmp_parts_f)
c:/winavr-20100110/bin/../lib/gcc/avr/4.3.3/avr5\libgcc.a(_clz.o)
                              c:/winavr-20100110/bin/../lib/gcc/avr/4.3.3/avr5\libgcc.a(_clzsi2.o) (__clz_tab)
c:/winavr-20100110/bin/../lib/gcc/avr/4.3.3/../../../../avr/lib/avr5\libc.a(memcpy.o)
                              ./src/ZRMProtocol.o (memcpy)

Allocating common symbols
Common symbol       size              file

msgFromZigbee       0x40              ./src/main.o
xcps_rx_packet_zigbee
                    0x40              ./src/Xcps.o
sendBuffData        0x230             ./src/ZRMProtocol.o
tmp_zrmp            0x8               ./src/MSN_Protocol.o
tmp_BuffForRFUP     0x40              ./src/RFU_Protocol.o
g_adc_data          0x2               ./src/main.o
ZigbeePacket        0x40              ./src/main.o
avrHistory          0x14              ./src/main.o
data                0x1               ./src/Uart.o
g_debug_data_history
                    0x14              ./src/main.o
payloadForMSN       0x1e              ./src/MSN_Protocol.o
timerCount          0x4               ./src/Timer.o
tmp_BuffforMSN      0x40              ./src/MSN_Protocol.o
g_prevSensingDiff   0x1               ./src/main.o
uart_rx_buff        0x40              ./src/Uart.o
timer_list          0x4b              ./src/Timer.o
status              0x1               ./src/Uart.o
tmp_BuffForZRM      0x20              ./src/ZRMProtocol.o
tmp_Buff2           0x40              ./src/NC_Protocol.o

Memory Configuration

Name             Origin             Length             Attributes
text             0x00000000         0x00020000         xr
data             0x00800060         0x0000ffa0         rw !x
eeprom           0x00810000         0x00010000         rw !x
fuse             0x00820000         0x00000400         rw !x
lock             0x00830000         0x00000400         rw !x
signature        0x00840000         0x00000400         rw !x
*default*        0x00000000         0xffffffff

Linker script and memory map

Address of section .data set to 0x800100
LOAD c:/winavr-20100110/bin/../lib/gcc/avr/4.3.3/../../../../avr/lib/avr5/crtm328p.o
LOAD ./src/Adc.o
LOAD ./src/Flash.o
LOAD ./src/MSN_Protocol.o
LOAD ./src/NC_Protocol.o
LOAD ./src/RFU_Protocol.o
LOAD ./src/Timer.o
LOAD ./src/Uart.o
LOAD ./src/XNetProtocol.o
LOAD ./src/Xcps.o
LOAD ./src/ZRMProtocol.o
LOAD ./src/main.o
LOAD ./src/rotary.o
LOAD ./src/util.o
LOAD c:/winavr-20100110/bin/../lib/gcc/avr/4.3.3/avr5\libgcc.a
LOAD c:/winavr-20100110/bin/../lib/gcc/avr/4.3.3/../../../../avr/lib/avr5\libc.a
LOAD c:/winavr-20100110/bin/../lib/gcc/avr/4.3.3/avr5\libgcc.a

.hash
 *(.hash)

.dynsym
 *(.dynsym)

.dynstr
 *(.dynstr)

.gnu.version
 *(.gnu.version)

.gnu.version_d
 *(.gnu.version_d)

.gnu.version_r
 *(.gnu.version_r)

.rel.init
 *(.rel.init)

.rela.init
 *(.rela.init)

.rel.text
 *(.rel.text)
 *(.rel.text.*)
 *(.rel.gnu.linkonce.t*)

.rela.text
 *(.rela.text)
 *(.rela.text.*)
 *(.rela.gnu.linkonce.t*)

.rel.fini
 *(.rel.fini)

.rela.fini
 *(.rela.fini)

.rel.rodata
 *(.rel.rodata)
 *(.rel.rodata.*)
 *(.rel.gnu.linkonce.r*)

.rela.rodata
 *(.rela.rodata)
 *(.rela.rodata.*)
 *(.rela.gnu.linkonce.r*)

.rel.data
 *(.rel.data)
 *(.rel.data.*)
 *(.rel.gnu.linkonce.d*)

.rela.data
 *(.rela.data)
 *(.rela.data.*)
 *(.rela.gnu.linkonce.d*)

.rel.ctors
 *(.rel.ctors)

.rela.ctors
 *(.rela.ctors)

.rel.dtors
 *(.rel.dtors)

.rela.dtors
 *(.rela.dtors)

.rel.got
 *(.rel.got)

.rela.got
 *(.rela.got)

.rel.bss
 *(.rel.bss)

.rela.bss
 *(.rela.bss)

.rel.plt
 *(.rel.plt)

.rela.plt
 *(.rela.plt)

.text           0x00000000     0x2954
 *(.vectors)
 .vectors       0x00000000       0x68 c:/winavr-20100110/bin/../lib/gcc/avr/4.3.3/../../../../avr/lib/avr5/crtm328p.o
                0x00000000                __vectors
                0x00000000                __vector_default
 *(.vectors)
 *(.progmem.gcc*)
 *(.progmem*)
                0x00000068                . = ALIGN (0x2)
                0x00000068                __trampolines_start = .
 *(.trampolines)
 .trampolines   0x00000068        0x0 linker stubs
 *(.trampolines*)
                0x00000068                __trampolines_end = .
 *(.jumptables)
 *(.jumptables*)
 *(.lowtext)
 *(.lowtext*)
                0x00000068                __ctors_start = .
 *(.ctors)
                0x00000068                __ctors_end = .
                0x00000068                __dtors_start = .
 *(.dtors)
                0x00000068                __dtors_end = .
 SORT(*)(.ctors)
 SORT(*)(.dtors)
 *(.init0)
 .init0         0x00000068        0x0 c:/winavr-20100110/bin/../lib/gcc/avr/4.3.3/../../../../avr/lib/avr5/crtm328p.o
                0x00000068                __init
 *(.init0)
 *(.init1)
 *(.init1)
 *(.init2)
 .init2         0x00000068        0xc c:/winavr-20100110/bin/../lib/gcc/avr/4.3.3/../../../../avr/lib/avr5/crtm328p.o
 *(.init2)
 *(.init3)
 *(.init3)
 *(.init4)
 .init4         0x00000074       0x16 c:/winavr-20100110/bin/../lib/gcc/avr/4.3.3/avr5\libgcc.a(_copy_data.o)
                0x00000074                __do_copy_data
 .init4         0x0000008a       0x10 c:/winavr-20100110/bin/../lib/gcc/avr/4.3.3/avr5\libgcc.a(_clear_bss.o)
                0x0000008a                __do_clear_bss
 *(.init4)
 *(.init5)
 *(.init5)
 *(.init6)
 *(.init6)
 *(.init7)
 *(.init7)
 *(.init8)
 *(.init8)
 *(.init9)
 .init9         0x0000009a        0x8 c:/winavr-20100110/bin/../lib/gcc/avr/4.3.3/../../../../avr/lib/avr5/crtm328p.o
 *(.init9)
 *(.text)
 .text          0x000000a2        0x4 c:/winavr-20100110/bin/../lib/gcc/avr/4.3.3/../../../../avr/lib/avr5/crtm328p.o
                0x000000a2                __vector_22
                0x000000a2                __vector_1
                0x000000a2                __vector_24
                0x000000a2                __vector_12
                0x000000a2                __bad_interrupt
                0x000000a2                __vector_6
                0x000000a2                __vector_3
                0x000000a2                __vector_23
                0x000000a2                __vector_25
                0x000000a2                __vector_11
                0x000000a2                __vector_13
                0x000000a2                __vector_17
                0x000000a2                __vector_19
                0x000000a2                __vector_7
                0x000000a2                __vector_5
                0x000000a2                __vector_4
                0x000000a2                __vector_9
                0x000000a2                __vector_2
                0x000000a2                __vector_21
                0x000000a2                __vector_15
                0x000000a2                __vector_8
                0x000000a2                __vector_10
                0x000000a2                __vector_16
                0x000000a2                __vector_20
 .text          0x000000a6       0x20 ./src/Adc.o
                0x000000a6                initADC
 .text          0x000000c6      0x4c2 ./src/Flash.o
                0x0000039c                flash_writeUint32
                0x000001dc                flash_bufferToMainMemory
                0x00000172                flash_bufferWrite
                0x000000c6                flash_init
                0x000000d4                clk
                0x000004b2                flash_writeBytes
                0x00000334                flash_readUint16
                0x00000268                flash_bufferReadUint8
                0x00000560                flash_readStatus
                0x0000029e                flash_readUint8
                0x000003e6                flash_readUint32
                0x000000ec                flash_writeByteToSI
                0x0000012c                flash_readByteFromSO
                0x0000022c                flash_writeUint8
                0x000002f4                flash_writeUint16
                0x000004da                flash_readBytes
 .text          0x00000588      0x3f0 ./src/MSN_Protocol.o
                0x0000060a                MSN_SetSensorDiff
                0x0000084a                GCP_ProcessSetSensingLevelReqFromZigbee
                0x0000063e                plcs_GetGCPMessage
                0x000005a6                plcs_GetGCPResMessage
                0x00000616                MSN_GetTemperature
                0x00000620                MSN_GetIllumination
                0x0000058a                getGCPSeqNumGenerator
                0x0000077e                GCP_SendSetModeRes
                0x0000062a                MSN_SetTemperature
                0x000007ec                GCP_SendSetSensingLevelRes
                0x000007d2                GCP_ProcessSetModeReqFromZigbee
                0x000008ba                GCP_SendStateInfoRes
                0x0000093e                GCP_ProcessStateInfoReqFromZigbee
                0x00000604                MSN_IsNormalMode
                0x00000634                MSN_SetIllumination
                0x00000944                GCP_ProcessMessageFromZigbee
                0x000006b4                GCP_SendNoticeEvent_Debug
                0x00000864                GCP_SendNoticeEvent
                0x00000588                GCP_ProcessRebootReqFromZigbee
                0x00000610                MSN_SetNormalMode
                0x000005fe                MSN_GetSensorDiff
 .text          0x00000978      0x1e2 ./src/NC_Protocol.o
                0x00000a08                plcs_GetNCPMessage
                0x00000a76                ncp_SendRegisterReq
                0x000009e6                ncp_ConnState
                0x000009b4                ncp_ProcessRegisterResFromZigbee
                0x00000978                NCP_ProcessMessageFromZigbee
                0x00000ae8                ncp_SendPingReq
                0x000009ec                getNCPSeqNumGenerator
                0x000009d4                ncp_ProcessPingResFromZigbee
 .text          0x00000b5a      0x5b4 ./src/RFU_Protocol.o
                0x00000ec4                plcs_RFUP_SetReadyToUpgradeFirmware
                0x00001096                plcs_RFUP_HandleUpgradeFirmwareReq
                0x000010d0                plcs_RFUP_ProcessMessage
                0x00000ed0                plcs_RFUP_SendDataRes
                0x00001016                plcs_RFUP_SendUpgradeFirmwareRes
                0x00000c3e                plcs_RFUP_CheckDownloadedFirmwareAt
                0x00000b5c                getSeqNumGeneratorForRFUP
                0x00000b78                plcs_GetRFUPMessage
                0x00000d12                plcs_RFUP_CheckDownloadedFirmware
                0x00000be6                plcs_GetRFUPResMessage
                0x00000b5a                plcs_RFUP_Reboot
                0x00000dd2                plcs_RFUP_WriteFirmwareData
                0x00000f50                plcs_RFUP_HandleSendDataReq
 .text          0x0000110e      0x138 ./src/Timer.o
                0x00001138                timer_get
                0x00001192                timer_init
                0x0000110e                timer_set
                0x000011c6                __vector_14
                0x00001172                timer_clear
 .text          0x00001246       0xdc ./src/Uart.o
                0x0000130e                USART_Transmit
                0x000012cc                USART_Receive
                0x00001246                InitUART
                0x0000126a                __vector_18
 .text          0x00001322       0x6e ./src/XNetProtocol.o
                0x00001322                XNetHandlerFromZigbee
 .text          0x00001390      0x1c2 ./src/Xcps.o
                0x00001390                xcps_init_zigbee
                0x0000141c                xcps_recv_zigbee
                0x000013a4                xcps_send_zigbee
 .text          0x00001552      0x564 ./src/ZRMProtocol.o
                0x000016ce                ZRMsendPing
                0x00001552                getZRMMessageListSize
                0x0000167c                ZRMSendSetPanID
                0x000017f6                addMessageToSendBuff
                0x000016b4                ZRMsendConfig
                0x000015c6                ZRM_getTranlatedCode
                0x0000163c                ZRMSendSetPreconfig
                0x00001566                getLastResult
                0x0000169a                ZRMSendReset
                0x0000185c                sendToZigbee
                0x000019a8                sendQueueingMessage
                0x0000165c                ZRMSendSetChannel
                0x00001560                getZigbeeState
                0x0000156c                ZRM_getOriginalCode
                0x00001920                getMessageFromSendBuff
                0x000016e2                ZRMPMessage
                0x000018a2                getMessageFromSendBuffWORemove
 .text          0x00001ab6      0x7ca ./src/main.o
                0x00002042                ZigbeeUsart_Task
                0x00001ae0                WDT_INIT
                0x00001cec                isSensored
                0x00001afe                resetZigbee
                0x00001c04                ADC_Task
                0x00001b62                TestLamp_Task
                0x00001bb2                WTD_Task
                0x00001b16                getAdc_10ms
                0x00002134                main
                0x00001ab6                InitMCU
                0x00001e5e                debugModeTask
                0x00001fe8                NCP_Task
                0x00001bda                ZigbeeSend_Task
                0x00001ef8                sensorTask
 .text          0x00002280       0x42 ./src/rotary.o
                0x00002280                initRotary
                0x0000229a                rotary_GetValue
 .text          0x000022c2       0xe0 ./src/util.o
                0x000022c2                toUint16
                0x00002320                toUint8
                0x0000237a                toHexCharacterOfLowerByte
 .text          0x000023a2        0x0 c:/winavr-20100110/bin/../lib/gcc/avr/4.3.3/avr5\libgcc.a(_udivmodhi4.o)
 .text          0x000023a2        0x0 c:/winavr-20100110/bin/../lib/gcc/avr/4.3.3/avr5\libgcc.a(_exit.o)
 .text          0x000023a2        0x0 c:/winavr-20100110/bin/../lib/gcc/avr/4.3.3/avr5\libgcc.a(_copy_data.o)
 .text          0x000023a2        0x0 c:/winavr-20100110/bin/../lib/gcc/avr/4.3.3/avr5\libgcc.a(_clear_bss.o)
 .text          0x000023a2       0x60 c:/winavr-20100110/bin/../lib/gcc/avr/4.3.3/avr5\libgcc.a(_gt_sf.o)
                0x000023a2                __gtsf2
 .text          0x00002402       0xbc c:/winavr-20100110/bin/../lib/gcc/avr/4.3.3/avr5\libgcc.a(_si_to_sf.o)
                0x00002402                __floatsisf
 .text          0x000024be        0x0 c:/winavr-20100110/bin/../lib/gcc/avr/4.3.3/avr5\libgcc.a(_prologue.o)
 .text          0x000024be        0x0 c:/winavr-20100110/bin/../lib/gcc/avr/4.3.3/avr5\libgcc.a(_epilogue.o)
 .text          0x000024be       0x9e c:/winavr-20100110/bin/../lib/gcc/avr/4.3.3/avr5\libgcc.a(_clzsi2.o)
                0x000024be                __clzsi2
 .text          0x0000255c      0x1aa c:/winavr-20100110/bin/../lib/gcc/avr/4.3.3/avr5\libgcc.a(_pack_sf.o)
                0x0000255c                __pack_f
 .text          0x00002706       0xf0 c:/winavr-20100110/bin/../lib/gcc/avr/4.3.3/avr5\libgcc.a(_unpack_sf.o)
                0x00002706                __unpack_f
 .text          0x000027f6       0xb2 c:/winavr-20100110/bin/../lib/gcc/avr/4.3.3/avr5\libgcc.a(_fpcmp_parts_sf.o)
                0x000027f6                __fpcmp_parts_f
 .text          0x000028a8        0x0 c:/winavr-20100110/bin/../lib/gcc/avr/4.3.3/avr5\libgcc.a(_clz.o)
 .text          0x000028a8        0x0 c:/winavr-20100110/bin/../lib/gcc/avr/4.3.3/../../../../avr/lib/avr5\libc.a(memcpy.o)
                0x000028a8                . = ALIGN (0x2)
 *(.text.*)
 .text.libgcc   0x000028a8       0x28 c:/winavr-20100110/bin/../lib/gcc/avr/4.3.3/avr5\libgcc.a(_udivmodhi4.o)
                0x000028a8                __udivmodhi4
 .text.libgcc   0x000028d0        0x0 c:/winavr-20100110/bin/../lib/gcc/avr/4.3.3/avr5\libgcc.a(_exit.o)
 .text.libgcc   0x000028d0        0x0 c:/winavr-20100110/bin/../lib/gcc/avr/4.3.3/avr5\libgcc.a(_copy_data.o)
 .text.libgcc   0x000028d0        0x0 c:/winavr-20100110/bin/../lib/gcc/avr/4.3.3/avr5\libgcc.a(_clear_bss.o)
 .text.libgcc   0x000028d0       0x38 c:/winavr-20100110/bin/../lib/gcc/avr/4.3.3/avr5\libgcc.a(_prologue.o)
                0x000028d0                __prologue_saves__
 .text.libgcc   0x00002908       0x36 c:/winavr-20100110/bin/../lib/gcc/avr/4.3.3/avr5\libgcc.a(_epilogue.o)
                0x00002908                __epilogue_restores__
 .text.avr-libc
                0x0000293e       0x12 c:/winavr-20100110/bin/../lib/gcc/avr/4.3.3/../../../../avr/lib/avr5\libc.a(memcpy.o)
                0x0000293e                memcpy
                0x00002950                . = ALIGN (0x2)
 *(.fini9)
 .fini9         0x00002950        0x0 c:/winavr-20100110/bin/../lib/gcc/avr/4.3.3/avr5\libgcc.a(_exit.o)
                0x00002950                exit
                0x00002950                _exit
 *(.fini9)
 *(.fini8)
 *(.fini8)
 *(.fini7)
 *(.fini7)
 *(.fini6)
 *(.fini6)
 *(.fini5)
 *(.fini5)
 *(.fini4)
 *(.fini4)
 *(.fini3)
 *(.fini3)
 *(.fini2)
 *(.fini2)
 *(.fini1)
 *(.fini1)
 *(.fini0)
 .fini0         0x00002950        0x4 c:/winavr-20100110/bin/../lib/gcc/avr/4.3.3/avr5\libgcc.a(_exit.o)
 *(.fini0)
                0x00002954                _etext = .

.data           0x00800100      0x104 load address 0x00002954
                0x00800100                PROVIDE (__data_start, .)
 *(.data)
 .data          0x00800100        0x0 c:/winavr-20100110/bin/../lib/gcc/avr/4.3.3/../../../../avr/lib/avr5/crtm328p.o
 .data          0x00800100        0x0 ./src/Adc.o
 .data          0x00800100        0x0 ./src/Flash.o
 .data          0x00800100        0x2 ./src/MSN_Protocol.o
                0x00800101                Sensing_Threshold_Avr_Diff
                0x00800100                isNormalMode
 .data          0x00800102        0x0 ./src/NC_Protocol.o
 .data          0x00800102        0x0 ./src/RFU_Protocol.o
 .data          0x00800102        0x0 ./src/Timer.o
 .data          0x00800102        0x0 ./src/Uart.o
 .data          0x00800102        0x0 ./src/XNetProtocol.o
 .data          0x00800102        0x0 ./src/Xcps.o
 .data          0x00800102        0x0 ./src/ZRMProtocol.o
 .data          0x00800102        0x2 ./src/main.o
                0x00800102                Sensing_Standard_Avr
 .data          0x00800104        0x0 ./src/rotary.o
 .data          0x00800104        0x0 ./src/util.o
 .data          0x00800104        0x0 c:/winavr-20100110/bin/../lib/gcc/avr/4.3.3/avr5\libgcc.a(_udivmodhi4.o)
 .data          0x00800104        0x0 c:/winavr-20100110/bin/../lib/gcc/avr/4.3.3/avr5\libgcc.a(_exit.o)
 .data          0x00800104        0x0 c:/winavr-20100110/bin/../lib/gcc/avr/4.3.3/avr5\libgcc.a(_copy_data.o)
 .data          0x00800104        0x0 c:/winavr-20100110/bin/../lib/gcc/avr/4.3.3/avr5\libgcc.a(_clear_bss.o)
 .data          0x00800104        0x0 c:/winavr-20100110/bin/../lib/gcc/avr/4.3.3/avr5\libgcc.a(_gt_sf.o)
 .data          0x00800104        0x0 c:/winavr-20100110/bin/../lib/gcc/avr/4.3.3/avr5\libgcc.a(_si_to_sf.o)
 .data          0x00800104        0x0 c:/winavr-20100110/bin/../lib/gcc/avr/4.3.3/avr5\libgcc.a(_prologue.o)
 .data          0x00800104        0x0 c:/winavr-20100110/bin/../lib/gcc/avr/4.3.3/avr5\libgcc.a(_epilogue.o)
 .data          0x00800104        0x0 c:/winavr-20100110/bin/../lib/gcc/avr/4.3.3/avr5\libgcc.a(_clzsi2.o)
 .data          0x00800104        0x0 c:/winavr-20100110/bin/../lib/gcc/avr/4.3.3/avr5\libgcc.a(_pack_sf.o)
 .data          0x00800104        0x0 c:/winavr-20100110/bin/../lib/gcc/avr/4.3.3/avr5\libgcc.a(_unpack_sf.o)
 .data          0x00800104        0x0 c:/winavr-20100110/bin/../lib/gcc/avr/4.3.3/avr5\libgcc.a(_fpcmp_parts_sf.o)
 .data          0x00800104      0x100 c:/winavr-20100110/bin/../lib/gcc/avr/4.3.3/avr5\libgcc.a(_clz.o)
                0x00800104                __clz_tab
 .data          0x00800204        0x0 c:/winavr-20100110/bin/../lib/gcc/avr/4.3.3/../../../../avr/lib/avr5\libc.a(memcpy.o)
 *(.data*)
 *(.rodata)
 *(.rodata*)
 *(.gnu.linkonce.d*)
                0x00800204                . = ALIGN (0x2)
                0x00800204                _edata = .
                0x00800204                PROVIDE (__data_end, .)

.bss            0x00800204      0x509
                0x00800204                PROVIDE (__bss_start, .)
 *(.bss)
 .bss           0x00800204        0x0 c:/winavr-20100110/bin/../lib/gcc/avr/4.3.3/../../../../avr/lib/avr5/crtm328p.o
 .bss           0x00800204        0x0 ./src/Adc.o
 .bss           0x00800204        0x0 ./src/Flash.o
 .bss           0x00800204        0x6 ./src/MSN_Protocol.o
                0x00800208                seqNumGeneratorForGCP
                0x00800204                temperature
                0x00800206                illumination
 .bss           0x0080020a        0x4 ./src/NC_Protocol.o
                0x0080020a                ncp_NetState
                0x0080020b                pingCount
                0x0080020c                seqNumGenerator
 .bss           0x0080020e        0x2 ./src/RFU_Protocol.o
                0x0080020e                seqNumGeneratorForRFUP
 .bss           0x00800210        0x0 ./src/Timer.o
 .bss           0x00800210        0x3 ./src/Uart.o
                0x00800210                uart_rx_front
                0x00800212                uart_rx_len
                0x00800211                uart_rx_tail
 .bss           0x00800213        0x0 ./src/XNetProtocol.o
 .bss           0x00800213        0x8 ./src/Xcps.o
                0x00800213                xcps_rxlen_zigbee
                0x00800215                xcps_pdu_len_zigbee
 .bss           0x0080021b       0x2f ./src/ZRMProtocol.o
                0x0080021d                lastResult
                0x0080021b                sendBuffForZRM_Head
                0x0080021c                sendBuffForZRM_Tail
 .bss           0x0080024a       0x11 ./src/main.o
                0x0080024a                g_isSensored
                0x00800253                sendInterval
                0x0080024b                g_isSensored_Avr
                0x00800251                sendTimer
                0x0080024f                prevSensorState
                0x0080024c                g_isSensored_Avr2
                0x0080024e                g_isSensoredForTestLamp
                0x00800255                g_timer0_count_NormalMode
                0x00800250                sensorState
                0x0080024d                g_debug_data_size
 .bss           0x0080025b        0x0 ./src/rotary.o
 .bss           0x0080025b        0x0 ./src/util.o
 .bss           0x0080025b        0x0 c:/winavr-20100110/bin/../lib/gcc/avr/4.3.3/avr5\libgcc.a(_udivmodhi4.o)
 .bss           0x0080025b        0x0 c:/winavr-20100110/bin/../lib/gcc/avr/4.3.3/avr5\libgcc.a(_exit.o)
 .bss           0x0080025b        0x0 c:/winavr-20100110/bin/../lib/gcc/avr/4.3.3/avr5\libgcc.a(_copy_data.o)
 .bss           0x0080025b        0x0 c:/winavr-20100110/bin/../lib/gcc/avr/4.3.3/avr5\libgcc.a(_clear_bss.o)
 .bss           0x0080025b        0x0 c:/winavr-20100110/bin/../lib/gcc/avr/4.3.3/avr5\libgcc.a(_gt_sf.o)
 .bss           0x0080025b        0x0 c:/winavr-20100110/bin/../lib/gcc/avr/4.3.3/avr5\libgcc.a(_si_to_sf.o)
 .bss           0x0080025b        0x0 c:/winavr-20100110/bin/../lib/gcc/avr/4.3.3/avr5\libgcc.a(_prologue.o)
 .bss           0x0080025b        0x0 c:/winavr-20100110/bin/../lib/gcc/avr/4.3.3/avr5\libgcc.a(_epilogue.o)
 .bss           0x0080025b        0x0 c:/winavr-20100110/bin/../lib/gcc/avr/4.3.3/avr5\libgcc.a(_clzsi2.o)
 .bss           0x0080025b        0x0 c:/winavr-20100110/bin/../lib/gcc/avr/4.3.3/avr5\libgcc.a(_pack_sf.o)
 .bss           0x0080025b        0x0 c:/winavr-20100110/bin/../lib/gcc/avr/4.3.3/avr5\libgcc.a(_unpack_sf.o)
 .bss           0x0080025b        0x0 c:/winavr-20100110/bin/../lib/gcc/avr/4.3.3/avr5\libgcc.a(_fpcmp_parts_sf.o)
 .bss           0x0080025b        0x0 c:/winavr-20100110/bin/../lib/gcc/avr/4.3.3/avr5\libgcc.a(_clz.o)
 .bss           0x0080025b        0x0 c:/winavr-20100110/bin/../lib/gcc/avr/4.3.3/../../../../avr/lib/avr5\libc.a(memcpy.o)
 *(.bss*)
 *(COMMON)
 COMMON         0x0080025b       0x66 ./src/MSN_Protocol.o
                0x0080025b                tmp_zrmp
                0x00800263                payloadForMSN
                0x00800281                tmp_BuffforMSN
 COMMON         0x008002c1       0x40 ./src/NC_Protocol.o
                0x008002c1                tmp_Buff2
 COMMON         0x00800301       0x40 ./src/RFU_Protocol.o
                0x00800301                tmp_BuffForRFUP
 COMMON         0x00800341       0x4f ./src/Timer.o
                0x00800341                timerCount
                0x00800345                timer_list
 COMMON         0x00800390       0x42 ./src/Uart.o
                0x00800390                data
                0x00800391                uart_rx_buff
                0x008003d1                status
 COMMON         0x008003d2       0x40 ./src/Xcps.o
                0x008003d2                xcps_rx_packet_zigbee
 COMMON         0x00800412      0x250 ./src/ZRMProtocol.o
                0x00800412                sendBuffData
                0x00800642                tmp_BuffForZRM
 COMMON         0x00800662       0xab ./src/main.o
                0x00800662                msgFromZigbee
                0x008006a2                g_adc_data
                0x008006a4                ZigbeePacket
                0x008006e4                avrHistory
                0x008006f8                g_debug_data_history
                0x0080070c                g_prevSensingDiff
                0x0080070d                PROVIDE (__bss_end, .)
                0x00002954                __data_load_start = LOADADDR (.data)
                0x00002a58                __data_load_end = (__data_load_start + SIZEOF (.data))

.noinit         0x0080070d        0x0
                0x0080070d                PROVIDE (__noinit_start, .)
 *(.noinit*)
                0x0080070d                PROVIDE (__noinit_end, .)
                0x0080070d                _end = .
                0x0080070d                PROVIDE (__heap_start, .)

.eeprom         0x00810000        0x0
 *(.eeprom*)
                0x00810000                __eeprom_end = .

.fuse
 *(.fuse)
 *(.lfuse)
 *(.hfuse)
 *(.efuse)

.lock
 *(.lock*)

.signature
 *(.signature*)

.stab           0x00000000     0x5e44
 *(.stab)
 .stab          0x00000000      0x3cc ./src/Adc.o
 .stab          0x000003cc      0xd20 ./src/Flash.o
                                0xf54 (size before relaxing)
 .stab          0x000010ec      0xcfc ./src/MSN_Protocol.o
                                0xf00 (size before relaxing)
 .stab          0x00001de8      0x5e8 ./src/NC_Protocol.o
                                0x90c (size before relaxing)
 .stab          0x000023d0      0xbdc ./src/RFU_Protocol.o
                                0xf0c (size before relaxing)
 .stab          0x00002fac      0x384 ./src/Timer.o
                                0x5b8 (size before relaxing)
 .stab          0x00003330      0x354 ./src/Uart.o
                                0x5ac (size before relaxing)
 .stab          0x00003684      0x24c ./src/XNetProtocol.o
                                0x57c (size before relaxing)
 .stab          0x000038d0      0x42c ./src/Xcps.o
                                0x66c (size before relaxing)
 .stab          0x00003cfc      0xbb8 ./src/ZRMProtocol.o
                                0xedc (size before relaxing)
 .stab          0x000048b4     0x105c ./src/main.o
                               0x132c (size before relaxing)
 .stab          0x00005910      0x240 ./src/rotary.o
                                0x480 (size before relaxing)
 .stab          0x00005b50      0x2f4 ./src/util.o
                                0x504 (size before relaxing)

.stabstr        0x00000000     0x26fe
 *(.stabstr)
 .stabstr       0x00000000     0x26fe ./src/Adc.o

.stab.excl
 *(.stab.excl)

.stab.exclstr
 *(.stab.exclstr)

.stab.index
 *(.stab.index)

.stab.indexstr
 *(.stab.indexstr)

.comment
 *(.comment)

.debug
 *(.debug)

.line
 *(.line)

.debug_srcinfo
 *(.debug_srcinfo)

.debug_sfnames
 *(.debug_sfnames)

.debug_aranges  0x00000000       0xc0
 *(.debug_aranges)
 .debug_aranges
                0x00000000       0x20 c:/winavr-20100110/bin/../lib/gcc/avr/4.3.3/avr5\libgcc.a(_gt_sf.o)
 .debug_aranges
                0x00000020       0x20 c:/winavr-20100110/bin/../lib/gcc/avr/4.3.3/avr5\libgcc.a(_si_to_sf.o)
 .debug_aranges
                0x00000040       0x20 c:/winavr-20100110/bin/../lib/gcc/avr/4.3.3/avr5\libgcc.a(_clzsi2.o)
 .debug_aranges
                0x00000060       0x20 c:/winavr-20100110/bin/../lib/gcc/avr/4.3.3/avr5\libgcc.a(_pack_sf.o)
 .debug_aranges
                0x00000080       0x20 c:/winavr-20100110/bin/../lib/gcc/avr/4.3.3/avr5\libgcc.a(_unpack_sf.o)
 .debug_aranges
                0x000000a0       0x20 c:/winavr-20100110/bin/../lib/gcc/avr/4.3.3/avr5\libgcc.a(_fpcmp_parts_sf.o)

.debug_pubnames
                0x00000000       0xe5
 *(.debug_pubnames)
 .debug_pubnames
                0x00000000       0x1e c:/winavr-20100110/bin/../lib/gcc/avr/4.3.3/avr5\libgcc.a(_gt_sf.o)
 .debug_pubnames
                0x0000001e       0x22 c:/winavr-20100110/bin/../lib/gcc/avr/4.3.3/avr5\libgcc.a(_si_to_sf.o)
 .debug_pubnames
                0x00000040       0x1f c:/winavr-20100110/bin/../lib/gcc/avr/4.3.3/avr5\libgcc.a(_clzsi2.o)
 .debug_pubnames
                0x0000005f       0x1f c:/winavr-20100110/bin/../lib/gcc/avr/4.3.3/avr5\libgcc.a(_pack_sf.o)
 .debug_pubnames
                0x0000007e       0x21 c:/winavr-20100110/bin/../lib/gcc/avr/4.3.3/avr5\libgcc.a(_unpack_sf.o)
 .debug_pubnames
                0x0000009f       0x26 c:/winavr-20100110/bin/../lib/gcc/avr/4.3.3/avr5\libgcc.a(_fpcmp_parts_sf.o)
 .debug_pubnames
                0x000000c5       0x20 c:/winavr-20100110/bin/../lib/gcc/avr/4.3.3/avr5\libgcc.a(_clz.o)

.debug_info     0x00000000      0xd86
 *(.debug_info)
 .debug_info    0x00000000      0x27f c:/winavr-20100110/bin/../lib/gcc/avr/4.3.3/avr5\libgcc.a(_gt_sf.o)
 .debug_info    0x0000027f      0x207 c:/winavr-20100110/bin/../lib/gcc/avr/4.3.3/avr5\libgcc.a(_si_to_sf.o)
 .debug_info    0x00000486      0x117 c:/winavr-20100110/bin/../lib/gcc/avr/4.3.3/avr5\libgcc.a(_clzsi2.o)
 .debug_info    0x0000059d      0x2df c:/winavr-20100110/bin/../lib/gcc/avr/4.3.3/avr5\libgcc.a(_pack_sf.o)
 .debug_info    0x0000087c      0x251 c:/winavr-20100110/bin/../lib/gcc/avr/4.3.3/avr5\libgcc.a(_unpack_sf.o)
 .debug_info    0x00000acd      0x210 c:/winavr-20100110/bin/../lib/gcc/avr/4.3.3/avr5\libgcc.a(_fpcmp_parts_sf.o)
 .debug_info    0x00000cdd       0xa9 c:/winavr-20100110/bin/../lib/gcc/avr/4.3.3/avr5\libgcc.a(_clz.o)
 *(.gnu.linkonce.wi.*)

.debug_abbrev   0x00000000      0x81f
 *(.debug_abbrev)
 .debug_abbrev  0x00000000      0x15a c:/winavr-20100110/bin/../lib/gcc/avr/4.3.3/avr5\libgcc.a(_gt_sf.o)
 .debug_abbrev  0x0000015a      0x148 c:/winavr-20100110/bin/../lib/gcc/avr/4.3.3/avr5\libgcc.a(_si_to_sf.o)
 .debug_abbrev  0x000002a2       0xc4 c:/winavr-20100110/bin/../lib/gcc/avr/4.3.3/avr5\libgcc.a(_clzsi2.o)
 .debug_abbrev  0x00000366      0x1c0 c:/winavr-20100110/bin/../lib/gcc/avr/4.3.3/avr5\libgcc.a(_pack_sf.o)
 .debug_abbrev  0x00000526      0x154 c:/winavr-20100110/bin/../lib/gcc/avr/4.3.3/avr5\libgcc.a(_unpack_sf.o)
 .debug_abbrev  0x0000067a      0x13b c:/winavr-20100110/bin/../lib/gcc/avr/4.3.3/avr5\libgcc.a(_fpcmp_parts_sf.o)
 .debug_abbrev  0x000007b5       0x6a c:/winavr-20100110/bin/../lib/gcc/avr/4.3.3/avr5\libgcc.a(_clz.o)

.debug_line     0x00000000      0x735
 *(.debug_line)
 .debug_line    0x00000000       0xd3 c:/winavr-20100110/bin/../lib/gcc/avr/4.3.3/avr5\libgcc.a(_gt_sf.o)
 .debug_line    0x000000d3      0x135 c:/winavr-20100110/bin/../lib/gcc/avr/4.3.3/avr5\libgcc.a(_si_to_sf.o)
 .debug_line    0x00000208       0xa5 c:/winavr-20100110/bin/../lib/gcc/avr/4.3.3/avr5\libgcc.a(_clzsi2.o)
 .debug_line    0x000002ad      0x18a c:/winavr-20100110/bin/../lib/gcc/avr/4.3.3/avr5\libgcc.a(_pack_sf.o)
 .debug_line    0x00000437      0x14b c:/winavr-20100110/bin/../lib/gcc/avr/4.3.3/avr5\libgcc.a(_unpack_sf.o)
 .debug_line    0x00000582      0x137 c:/winavr-20100110/bin/../lib/gcc/avr/4.3.3/avr5\libgcc.a(_fpcmp_parts_sf.o)
 .debug_line    0x000006b9       0x7c c:/winavr-20100110/bin/../lib/gcc/avr/4.3.3/avr5\libgcc.a(_clz.o)

.debug_frame    0x00000000       0xc0
 *(.debug_frame)
 .debug_frame   0x00000000       0x20 c:/winavr-20100110/bin/../lib/gcc/avr/4.3.3/avr5\libgcc.a(_gt_sf.o)
 .debug_frame   0x00000020       0x20 c:/winavr-20100110/bin/../lib/gcc/avr/4.3.3/avr5\libgcc.a(_si_to_sf.o)
 .debug_frame   0x00000040       0x20 c:/winavr-20100110/bin/../lib/gcc/avr/4.3.3/avr5\libgcc.a(_clzsi2.o)
 .debug_frame   0x00000060       0x20 c:/winavr-20100110/bin/../lib/gcc/avr/4.3.3/avr5\libgcc.a(_pack_sf.o)
 .debug_frame   0x00000080       0x20 c:/winavr-20100110/bin/../lib/gcc/avr/4.3.3/avr5\libgcc.a(_unpack_sf.o)
 .debug_frame   0x000000a0       0x20 c:/winavr-20100110/bin/../lib/gcc/avr/4.3.3/avr5\libgcc.a(_fpcmp_parts_sf.o)

.debug_str      0x00000000      0x21d
 *(.debug_str)
 .debug_str     0x00000000      0x146 c:/winavr-20100110/bin/../lib/gcc/avr/4.3.3/avr5\libgcc.a(_gt_sf.o)
                                0x195 (size before relaxing)
 .debug_str     0x00000146       0x1e c:/winavr-20100110/bin/../lib/gcc/avr/4.3.3/avr5\libgcc.a(_si_to_sf.o)
                                0x17b (size before relaxing)
 .debug_str     0x00000164       0x81 c:/winavr-20100110/bin/../lib/gcc/avr/4.3.3/avr5\libgcc.a(_clzsi2.o)
                                0x111 (size before relaxing)
 .debug_str     0x000001e5       0x1d c:/winavr-20100110/bin/../lib/gcc/avr/4.3.3/avr5\libgcc.a(_pack_sf.o)
                                0x19d (size before relaxing)
 .debug_str     0x00000202        0xb c:/winavr-20100110/bin/../lib/gcc/avr/4.3.3/avr5\libgcc.a(_unpack_sf.o)
                                0x17f (size before relaxing)
 .debug_str     0x0000020d       0x10 c:/winavr-20100110/bin/../lib/gcc/avr/4.3.3/avr5\libgcc.a(_fpcmp_parts_sf.o)
                                0x163 (size before relaxing)
 .debug_str     0x00000000       0xf4 c:/winavr-20100110/bin/../lib/gcc/avr/4.3.3/avr5\libgcc.a(_clz.o)

.debug_loc      0x00000000      0x3b6
 *(.debug_loc)
 .debug_loc     0x00000000       0x3c c:/winavr-20100110/bin/../lib/gcc/avr/4.3.3/avr5\libgcc.a(_gt_sf.o)
 .debug_loc     0x0000003c       0xac c:/winavr-20100110/bin/../lib/gcc/avr/4.3.3/avr5\libgcc.a(_si_to_sf.o)
 .debug_loc     0x000000e8       0x94 c:/winavr-20100110/bin/../lib/gcc/avr/4.3.3/avr5\libgcc.a(_clzsi2.o)
 .debug_loc     0x0000017c      0x13e c:/winavr-20100110/bin/../lib/gcc/avr/4.3.3/avr5\libgcc.a(_pack_sf.o)
 .debug_loc     0x000002ba       0xac c:/winavr-20100110/bin/../lib/gcc/avr/4.3.3/avr5\libgcc.a(_unpack_sf.o)
 .debug_loc     0x00000366       0x50 c:/winavr-20100110/bin/../lib/gcc/avr/4.3.3/avr5\libgcc.a(_fpcmp_parts_sf.o)

.debug_macinfo
 *(.debug_macinfo)
OUTPUT(MSN200.elf elf32-avr)
LOAD linker stubs
