
LC-200_V23_ILLUDIMMING_DEBUGGING.elf:     file format elf32-avr

Sections:
Idx Name          Size      VMA       LMA       File off  Algn
  0 .data         0000010e  00802200  00009a38  00009aec  2**0
                  CONTENTS, ALLOC, LOAD, DATA
  1 .text         00009a38  00000000  00000000  000000b4  2**1
                  CONTENTS, ALLOC, LOAD, READONLY, CODE
  2 .bss          00004da6  0080230e  0080230e  00009bfa  2**0
                  ALLOC
  3 .eeprom       00000b13  00810000  00810000  00009bfa  2**0
                  CONTENTS, ALLOC, LOAD, DATA
  4 .stab         00010c8c  00000000  00000000  0000a710  2**2
                  CONTENTS, READONLY, DEBUGGING
  5 .stabstr      00006e3a  00000000  00000000  0001b39c  2**0
                  CONTENTS, READONLY, DEBUGGING
  6 .debug_aranges 000001c0  00000000  00000000  000221d6  2**0
                  CONTENTS, READONLY, DEBUGGING
  7 .debug_pubnames 00000214  00000000  00000000  00022396  2**0
                  CONTENTS, READONLY, DEBUGGING
  8 .debug_info   00002612  00000000  00000000  000225aa  2**0
                  CONTENTS, READONLY, DEBUGGING
  9 .debug_abbrev 000014ce  00000000  00000000  00024bbc  2**0
                  CONTENTS, READONLY, DEBUGGING
 10 .debug_line   0000130b  00000000  00000000  0002608a  2**0
                  CONTENTS, READONLY, DEBUGGING
 11 .debug_frame  000001e0  00000000  00000000  00027398  2**2
                  CONTENTS, READONLY, DEBUGGING
 12 .debug_str    00000307  00000000  00000000  00027578  2**0
                  CONTENTS, READONLY, DEBUGGING
 13 .debug_loc    00000a1a  00000000  00000000  0002787f  2**0
                  CONTENTS, READONLY, DEBUGGING
 14 .debug_ranges 00000050  00000000  00000000  00028299  2**0
                  CONTENTS, READONLY, DEBUGGING

Disassembly of section .text:

00000000 <__vectors>:
       0:	0c 94 a7 00 	jmp	0x14e	; 0x14e <xmem_enable>
       4:	0c 94 cf 00 	jmp	0x19e	; 0x19e <__bad_interrupt>
       8:	0c 94 cf 00 	jmp	0x19e	; 0x19e <__bad_interrupt>
       c:	0c 94 cf 00 	jmp	0x19e	; 0x19e <__bad_interrupt>
      10:	0c 94 cf 00 	jmp	0x19e	; 0x19e <__bad_interrupt>
      14:	0c 94 cf 00 	jmp	0x19e	; 0x19e <__bad_interrupt>
      18:	0c 94 cf 00 	jmp	0x19e	; 0x19e <__bad_interrupt>
      1c:	0c 94 cf 00 	jmp	0x19e	; 0x19e <__bad_interrupt>
      20:	0c 94 cf 00 	jmp	0x19e	; 0x19e <__bad_interrupt>
      24:	0c 94 cf 00 	jmp	0x19e	; 0x19e <__bad_interrupt>
      28:	0c 94 cf 00 	jmp	0x19e	; 0x19e <__bad_interrupt>
      2c:	0c 94 cf 00 	jmp	0x19e	; 0x19e <__bad_interrupt>
      30:	0c 94 cf 00 	jmp	0x19e	; 0x19e <__bad_interrupt>
      34:	0c 94 cf 00 	jmp	0x19e	; 0x19e <__bad_interrupt>
      38:	0c 94 cf 00 	jmp	0x19e	; 0x19e <__bad_interrupt>
      3c:	0c 94 cf 00 	jmp	0x19e	; 0x19e <__bad_interrupt>
      40:	0c 94 cf 00 	jmp	0x19e	; 0x19e <__bad_interrupt>
      44:	0c 94 cf 00 	jmp	0x19e	; 0x19e <__bad_interrupt>
      48:	0c 94 cf 00 	jmp	0x19e	; 0x19e <__bad_interrupt>
      4c:	0c 94 cf 00 	jmp	0x19e	; 0x19e <__bad_interrupt>
      50:	0c 94 cf 00 	jmp	0x19e	; 0x19e <__bad_interrupt>
      54:	0c 94 cf 00 	jmp	0x19e	; 0x19e <__bad_interrupt>
      58:	0c 94 cf 00 	jmp	0x19e	; 0x19e <__bad_interrupt>
      5c:	0c 94 cf 00 	jmp	0x19e	; 0x19e <__bad_interrupt>
      60:	0c 94 cf 00 	jmp	0x19e	; 0x19e <__bad_interrupt>
      64:	0c 94 3c 2c 	jmp	0x5878	; 0x5878 <__vector_25>
      68:	0c 94 71 2c 	jmp	0x58e2	; 0x58e2 <__vector_26>
      6c:	0c 94 a5 2c 	jmp	0x594a	; 0x594a <__vector_27>
      70:	0c 94 cf 00 	jmp	0x19e	; 0x19e <__bad_interrupt>
      74:	0c 94 cf 00 	jmp	0x19e	; 0x19e <__bad_interrupt>
      78:	0c 94 cf 00 	jmp	0x19e	; 0x19e <__bad_interrupt>
      7c:	0c 94 cf 00 	jmp	0x19e	; 0x19e <__bad_interrupt>
      80:	0c 94 86 2b 	jmp	0x570c	; 0x570c <__vector_32>
      84:	0c 94 cf 00 	jmp	0x19e	; 0x19e <__bad_interrupt>
      88:	0c 94 cf 00 	jmp	0x19e	; 0x19e <__bad_interrupt>
      8c:	0c 94 cf 00 	jmp	0x19e	; 0x19e <__bad_interrupt>
      90:	0c 94 ff 2c 	jmp	0x59fe	; 0x59fe <__vector_36>
      94:	0c 94 34 2d 	jmp	0x5a68	; 0x5a68 <__vector_37>
      98:	0c 94 68 2d 	jmp	0x5ad0	; 0x5ad0 <__vector_38>
      9c:	0c 94 cf 00 	jmp	0x19e	; 0x19e <__bad_interrupt>
      a0:	0c 94 cf 00 	jmp	0x19e	; 0x19e <__bad_interrupt>
      a4:	0c 94 cf 00 	jmp	0x19e	; 0x19e <__bad_interrupt>
      a8:	0c 94 cf 00 	jmp	0x19e	; 0x19e <__bad_interrupt>
      ac:	0c 94 cf 00 	jmp	0x19e	; 0x19e <__bad_interrupt>
      b0:	0c 94 cf 00 	jmp	0x19e	; 0x19e <__bad_interrupt>
      b4:	0c 94 cf 00 	jmp	0x19e	; 0x19e <__bad_interrupt>
      b8:	0c 94 cf 00 	jmp	0x19e	; 0x19e <__bad_interrupt>
      bc:	0c 94 cf 00 	jmp	0x19e	; 0x19e <__bad_interrupt>
      c0:	0c 94 cf 00 	jmp	0x19e	; 0x19e <__bad_interrupt>
      c4:	0c 94 cf 00 	jmp	0x19e	; 0x19e <__bad_interrupt>
      c8:	0c 94 cf 00 	jmp	0x19e	; 0x19e <__bad_interrupt>
      cc:	0c 94 c2 2d 	jmp	0x5b84	; 0x5b84 <__vector_51>
      d0:	0c 94 f7 2d 	jmp	0x5bee	; 0x5bee <__vector_52>
      d4:	0c 94 2b 2e 	jmp	0x5c56	; 0x5c56 <__vector_53>
      d8:	0c 94 85 2e 	jmp	0x5d0a	; 0x5d0a <__vector_54>
      dc:	0c 94 ba 2e 	jmp	0x5d74	; 0x5d74 <__vector_55>
      e0:	0c 94 ee 2e 	jmp	0x5ddc	; 0x5ddc <__vector_56>

000000e4 <__c.3181>:
      e4:	3d 3d 3d 3d 3d 3d 3d 3d 3d 3d 3d 3d 3d 3d 3d 3d     ================
      f4:	0a 0d 00                                            ...

000000f7 <__c.3179>:
      f7:	53 74 61 72 74 50 72 6f 67 72 61 6d 2e 2e 2e 2e     StartProgram....
     107:	0a 0d 00                                            ...

0000010a <__c.3177>:
     10a:	3d 3d 3d 3d 3d 3d 3d 3d 3d 3d 3d 3d 3d 3d 3d 3d     ================
     11a:	0a 0d 00                                            ...

0000011d <__c.2923>:
     11d:	20 74 61 72 67 65 74 20 4c 75 78 20 3a 20 25 64      target Lux : %d
     12d:	0a 00                                               ..

0000012f <__c.2921>:
     12f:	20 41 56 52 20 4c 75 78 20 6f 66 20 43 69 72 63      AVR Lux of Circ
     13f:	75 69 74 20 3a 20 25 64 2c 20 25 64 0a 00 00        uit : %d, %d...

0000014e <xmem_enable>:
     14e:	90 e8       	ldi	r25, 0x80	; 128
     150:	95 bf       	out	0x35, r25	; 53
     152:	8a ec       	ldi	r24, 0xCA	; 202
     154:	80 93 74 00 	sts	0x0074, r24
     158:	90 93 75 00 	sts	0x0075, r25
     15c:	11 24       	eor	r1, r1
     15e:	1f be       	out	0x3f, r1	; 63
     160:	cf ef       	ldi	r28, 0xFF	; 255
     162:	d1 e2       	ldi	r29, 0x21	; 33
     164:	de bf       	out	0x3e, r29	; 62
     166:	cd bf       	out	0x3d, r28	; 61
     168:	00 e0       	ldi	r16, 0x00	; 0
     16a:	0c bf       	out	0x3c, r16	; 60

0000016c <__do_copy_data>:
     16c:	13 e2       	ldi	r17, 0x23	; 35
     16e:	a0 e0       	ldi	r26, 0x00	; 0
     170:	b2 e2       	ldi	r27, 0x22	; 34
     172:	e8 e3       	ldi	r30, 0x38	; 56
     174:	fa e9       	ldi	r31, 0x9A	; 154
     176:	00 e0       	ldi	r16, 0x00	; 0
     178:	0b bf       	out	0x3b, r16	; 59
     17a:	02 c0       	rjmp	.+4      	; 0x180 <__do_copy_data+0x14>
     17c:	07 90       	elpm	r0, Z+
     17e:	0d 92       	st	X+, r0
     180:	ae 30       	cpi	r26, 0x0E	; 14
     182:	b1 07       	cpc	r27, r17
     184:	d9 f7       	brne	.-10     	; 0x17c <__do_copy_data+0x10>

00000186 <__do_clear_bss>:
     186:	10 e7       	ldi	r17, 0x70	; 112
     188:	ae e0       	ldi	r26, 0x0E	; 14
     18a:	b3 e2       	ldi	r27, 0x23	; 35
     18c:	01 c0       	rjmp	.+2      	; 0x190 <.do_clear_bss_start>

0000018e <.do_clear_bss_loop>:
     18e:	1d 92       	st	X+, r1

00000190 <.do_clear_bss_start>:
     190:	a4 3b       	cpi	r26, 0xB4	; 180
     192:	b1 07       	cpc	r27, r17
     194:	e1 f7       	brne	.-8      	; 0x18e <.do_clear_bss_loop>
     196:	0e 94 fd 40 	call	0x81fa	; 0x81fa <main>
     19a:	0c 94 1a 4d 	jmp	0x9a34	; 0x9a34 <_exit>

0000019e <__bad_interrupt>:
     19e:	0c 94 00 00 	jmp	0	; 0x0 <__vectors>

000001a2 <findNodeById>:
}

// ---------------------------------------------------------------------------------------------- //
// ------------------ Find Node Mapping Table  ------------------------------------------------------ //
// ---------------------------------------------------------------------------------------------- //
device_Info *findNodeById(uint16 node_Id) {
     1a2:	ac 01       	movw	r20, r24
	uint8 i = 0;
	for (i = 0; i < deviceInfoTable.size; i++) {
     1a4:	30 91 f6 2c 	lds	r19, 0x2CF6
     1a8:	e8 ee       	ldi	r30, 0xE8	; 232
     1aa:	f8 e2       	ldi	r31, 0x28	; 40
     1ac:	20 e0       	ldi	r18, 0x00	; 0
     1ae:	0e c0       	rjmp	.+28     	; 0x1cc <findNodeById+0x2a>
		if (deviceInfoTable.deviceInfo[i].ieeeId == node_Id)
     1b0:	80 81       	ld	r24, Z
     1b2:	91 81       	ldd	r25, Z+1	; 0x01
     1b4:	3d 96       	adiw	r30, 0x0d	; 13
     1b6:	84 17       	cp	r24, r20
     1b8:	95 07       	cpc	r25, r21
     1ba:	39 f4       	brne	.+14     	; 0x1ca <findNodeById+0x28>
			return &(deviceInfoTable.deviceInfo[i]);
     1bc:	8d e0       	ldi	r24, 0x0D	; 13
     1be:	28 9f       	mul	r18, r24
     1c0:	90 01       	movw	r18, r0
     1c2:	11 24       	eor	r1, r1
     1c4:	2a 51       	subi	r18, 0x1A	; 26
     1c6:	37 4d       	sbci	r19, 0xD7	; 215
     1c8:	05 c0       	rjmp	.+10     	; 0x1d4 <findNodeById+0x32>
// ---------------------------------------------------------------------------------------------- //
// ------------------ Find Node Mapping Table  ------------------------------------------------------ //
// ---------------------------------------------------------------------------------------------- //
device_Info *findNodeById(uint16 node_Id) {
	uint8 i = 0;
	for (i = 0; i < deviceInfoTable.size; i++) {
     1ca:	2f 5f       	subi	r18, 0xFF	; 255
     1cc:	23 17       	cp	r18, r19
     1ce:	80 f3       	brcs	.-32     	; 0x1b0 <findNodeById+0xe>
     1d0:	20 e0       	ldi	r18, 0x00	; 0
     1d2:	30 e0       	ldi	r19, 0x00	; 0
		if (deviceInfoTable.deviceInfo[i].ieeeId == node_Id)
			return &(deviceInfoTable.deviceInfo[i]);
	}
	return NULL;
}
     1d4:	c9 01       	movw	r24, r18
     1d6:	08 95       	ret

000001d8 <isContainNodeOfId>:

int isContainNodeOfId(uint16 nodeId) {
     1d8:	ac 01       	movw	r20, r24
	uint8 i = 0;
	for (i = 0; i < deviceInfoTable.size; i++)
     1da:	30 91 f6 2c 	lds	r19, 0x2CF6
     1de:	e8 ee       	ldi	r30, 0xE8	; 232
     1e0:	f8 e2       	ldi	r31, 0x28	; 40
     1e2:	20 e0       	ldi	r18, 0x00	; 0
     1e4:	0a c0       	rjmp	.+20     	; 0x1fa <isContainNodeOfId+0x22>
		if (deviceInfoTable.deviceInfo[i].ieeeId == nodeId)
     1e6:	80 81       	ld	r24, Z
     1e8:	91 81       	ldd	r25, Z+1	; 0x01
     1ea:	3d 96       	adiw	r30, 0x0d	; 13
     1ec:	84 17       	cp	r24, r20
     1ee:	95 07       	cpc	r25, r21
     1f0:	19 f4       	brne	.+6      	; 0x1f8 <isContainNodeOfId+0x20>
     1f2:	21 e0       	ldi	r18, 0x01	; 1
     1f4:	30 e0       	ldi	r19, 0x00	; 0
     1f6:	05 c0       	rjmp	.+10     	; 0x202 <isContainNodeOfId+0x2a>
	return NULL;
}

int isContainNodeOfId(uint16 nodeId) {
	uint8 i = 0;
	for (i = 0; i < deviceInfoTable.size; i++)
     1f8:	2f 5f       	subi	r18, 0xFF	; 255
     1fa:	23 17       	cp	r18, r19
     1fc:	a0 f3       	brcs	.-24     	; 0x1e6 <isContainNodeOfId+0xe>
     1fe:	20 e0       	ldi	r18, 0x00	; 0
     200:	30 e0       	ldi	r19, 0x00	; 0
		if (deviceInfoTable.deviceInfo[i].ieeeId == nodeId)
			return 1;
	return 0;
}
     202:	c9 01       	movw	r24, r18
     204:	08 95       	ret

00000206 <addDeviceTable>:

// ---------------------------------------------------------------------------------------------- //
// ------------------ Add & Update Mapping Table  --------------------------------------------------- //
// ---------------------------------------------------------------------------------------------- //
device_Info *addDeviceTable(uint16 node_Id, uint16 node_Type, uint8 device_version, uint8 fw_version, uint16 netAddr) {
     206:	ff 92       	push	r15
     208:	0f 93       	push	r16
     20a:	1f 93       	push	r17
     20c:	dc 01       	movw	r26, r24
     20e:	f2 2e       	mov	r15, r18
	uint8 i = 0;

	if (deviceInfoTable.size >= MaxNumOfDevice)
     210:	50 91 f6 2c 	lds	r21, 0x2CF6
     214:	50 35       	cpi	r21, 0x50	; 80
     216:	f0 f4       	brcc	.+60     	; 0x254 <addDeviceTable+0x4e>
		return NULL;

	deviceInfoTable.deviceInfo[deviceInfoTable.size].ieeeId = node_Id;
     218:	25 2f       	mov	r18, r21
     21a:	30 e0       	ldi	r19, 0x00	; 0
     21c:	8d e0       	ldi	r24, 0x0D	; 13
     21e:	90 e0       	ldi	r25, 0x00	; 0
     220:	28 9f       	mul	r18, r24
     222:	f0 01       	movw	r30, r0
     224:	29 9f       	mul	r18, r25
     226:	f0 0d       	add	r31, r0
     228:	38 9f       	mul	r19, r24
     22a:	f0 0d       	add	r31, r0
     22c:	11 24       	eor	r1, r1
     22e:	ea 51       	subi	r30, 0x1A	; 26
     230:	f7 4d       	sbci	r31, 0xD7	; 215
     232:	b3 83       	std	Z+3, r27	; 0x03
     234:	a2 83       	std	Z+2, r26	; 0x02
	deviceInfoTable.deviceInfo[deviceInfoTable.size].deviceType = node_Type;
     236:	71 83       	std	Z+1, r23	; 0x01
     238:	60 83       	st	Z, r22
	deviceInfoTable.deviceInfo[deviceInfoTable.size].deviceVersion = device_version;
     23a:	44 83       	std	Z+4, r20	; 0x04
	deviceInfoTable.deviceInfo[deviceInfoTable.size].fwVersion = fw_version;
     23c:	f5 82       	std	Z+5, r15	; 0x05
	deviceInfoTable.deviceInfo[deviceInfoTable.size].cnt = 0;
     23e:	16 82       	std	Z+6, r1	; 0x06
	deviceInfoTable.deviceInfo[deviceInfoTable.size].connectionState = ONLINE;
     240:	81 e0       	ldi	r24, 0x01	; 1
     242:	80 87       	std	Z+8, r24	; 0x08
	deviceInfoTable.deviceInfo[deviceInfoTable.size].resendCnt = 0;
     244:	17 82       	std	Z+7, r1	; 0x07
	deviceInfoTable.deviceInfo[deviceInfoTable.size].luxAvr = 0;
     246:	12 86       	std	Z+10, r1	; 0x0a
     248:	11 86       	std	Z+9, r1	; 0x09
	deviceInfoTable.deviceInfo[deviceInfoTable.size].netAddr = netAddr;
     24a:	14 87       	std	Z+12, r17	; 0x0c
     24c:	03 87       	std	Z+11, r16	; 0x0b

	deviceInfoTable.size++;
     24e:	5f 5f       	subi	r21, 0xFF	; 255
     250:	50 93 f6 2c 	sts	0x2CF6, r21

	return NULL;
}
     254:	80 e0       	ldi	r24, 0x00	; 0
     256:	90 e0       	ldi	r25, 0x00	; 0
     258:	1f 91       	pop	r17
     25a:	0f 91       	pop	r16
     25c:	ff 90       	pop	r15
     25e:	08 95       	ret

00000260 <updateDeviceTable>:

int updateDeviceTable(uint16 node_Id, uint16 node_Type, uint8 device_version, uint8 fw_version) {
     260:	ef 92       	push	r14
     262:	ff 92       	push	r15
     264:	0f 93       	push	r16
     266:	1f 93       	push	r17
     268:	cf 93       	push	r28
     26a:	df 93       	push	r29
     26c:	8c 01       	movw	r16, r24
     26e:	eb 01       	movw	r28, r22
     270:	f4 2e       	mov	r15, r20
     272:	e2 2e       	mov	r14, r18
	device_Info *pUpdate;

	if ((pUpdate = findNodeById(node_Id)) != NULL) {
     274:	0e 94 d1 00 	call	0x1a2	; 0x1a2 <findNodeById>
     278:	fc 01       	movw	r30, r24
     27a:	00 97       	sbiw	r24, 0x00	; 0
     27c:	49 f0       	breq	.+18     	; 0x290 <updateDeviceTable+0x30>
		pUpdate->cnt = 0;
     27e:	16 82       	std	Z+6, r1	; 0x06
		pUpdate->connectionState = ONLINE;
     280:	81 e0       	ldi	r24, 0x01	; 1
     282:	80 87       	std	Z+8, r24	; 0x08
		pUpdate->resendCnt = 0;
     284:	17 82       	std	Z+7, r1	; 0x07
		pUpdate->deviceVersion = device_version;
     286:	f4 82       	std	Z+4, r15	; 0x04
		pUpdate->fwVersion = fw_version;
     288:	e5 82       	std	Z+5, r14	; 0x05
		pUpdate->deviceType = node_Type;
     28a:	d1 83       	std	Z+1, r29	; 0x01
     28c:	c0 83       	st	Z, r28
     28e:	08 c0       	rjmp	.+16     	; 0x2a0 <updateDeviceTable+0x40>
	} else {
		addDeviceTable(node_Id, node_Type, device_version, fw_version, 0);
     290:	c8 01       	movw	r24, r16
     292:	be 01       	movw	r22, r28
     294:	4f 2d       	mov	r20, r15
     296:	2e 2d       	mov	r18, r14
     298:	00 e0       	ldi	r16, 0x00	; 0
     29a:	10 e0       	ldi	r17, 0x00	; 0
     29c:	0e 94 03 01 	call	0x206	; 0x206 <addDeviceTable>
	}
	return 0;
}
     2a0:	80 e0       	ldi	r24, 0x00	; 0
     2a2:	90 e0       	ldi	r25, 0x00	; 0
     2a4:	df 91       	pop	r29
     2a6:	cf 91       	pop	r28
     2a8:	1f 91       	pop	r17
     2aa:	0f 91       	pop	r16
     2ac:	ff 90       	pop	r15
     2ae:	ef 90       	pop	r14
     2b0:	08 95       	ret

000002b2 <removeNode>:

// ---------------------------------------------------------------------------------------------- //
// ------------------ Remove Node & Mapping Table  ------------------------------------------------- //
// ---------------------------------------------------------------------------------------------- //
void removeNode(uint16 node_Id) {
     2b2:	bc 01       	movw	r22, r24
	uint8 i = 0, j = 0;

	for (i = 0; i < deviceInfoTable.size; i++) {
     2b4:	50 91 f6 2c 	lds	r21, 0x2CF6
     2b8:	e8 ee       	ldi	r30, 0xE8	; 232
     2ba:	f8 e2       	ldi	r31, 0x28	; 40
     2bc:	20 e0       	ldi	r18, 0x00	; 0
     2be:	31 c0       	rjmp	.+98     	; 0x322 <removeNode+0x70>
		if (deviceInfoTable.deviceInfo[i].ieeeId == node_Id) {
     2c0:	80 81       	ld	r24, Z
     2c2:	91 81       	ldd	r25, Z+1	; 0x01
     2c4:	3d 96       	adiw	r30, 0x0d	; 13
     2c6:	86 17       	cp	r24, r22
     2c8:	97 07       	cpc	r25, r23
     2ca:	51 f5       	brne	.+84     	; 0x320 <removeNode+0x6e>
     2cc:	42 2f       	mov	r20, r18
			for (j = i; j < deviceInfoTable.size - 1; j++)
     2ce:	25 2f       	mov	r18, r21
     2d0:	30 e0       	ldi	r19, 0x00	; 0
     2d2:	21 50       	subi	r18, 0x01	; 1
     2d4:	30 40       	sbci	r19, 0x00	; 0
				deviceInfoTable.deviceInfo[j] = deviceInfoTable.deviceInfo[j + 1];
     2d6:	6d e0       	ldi	r22, 0x0D	; 13
     2d8:	70 e0       	ldi	r23, 0x00	; 0
     2da:	19 c0       	rjmp	.+50     	; 0x30e <removeNode+0x5c>
     2dc:	86 9f       	mul	r24, r22
     2de:	d0 01       	movw	r26, r0
     2e0:	87 9f       	mul	r24, r23
     2e2:	b0 0d       	add	r27, r0
     2e4:	96 9f       	mul	r25, r22
     2e6:	b0 0d       	add	r27, r0
     2e8:	11 24       	eor	r1, r1
     2ea:	01 96       	adiw	r24, 0x01	; 1
     2ec:	86 9f       	mul	r24, r22
     2ee:	f0 01       	movw	r30, r0
     2f0:	87 9f       	mul	r24, r23
     2f2:	f0 0d       	add	r31, r0
     2f4:	96 9f       	mul	r25, r22
     2f6:	f0 0d       	add	r31, r0
     2f8:	11 24       	eor	r1, r1
     2fa:	aa 51       	subi	r26, 0x1A	; 26
     2fc:	b7 4d       	sbci	r27, 0xD7	; 215
     2fe:	ea 51       	subi	r30, 0x1A	; 26
     300:	f7 4d       	sbci	r31, 0xD7	; 215
     302:	8d e0       	ldi	r24, 0x0D	; 13
     304:	01 90       	ld	r0, Z+
     306:	0d 92       	st	X+, r0
     308:	81 50       	subi	r24, 0x01	; 1
     30a:	e1 f7       	brne	.-8      	; 0x304 <removeNode+0x52>
void removeNode(uint16 node_Id) {
	uint8 i = 0, j = 0;

	for (i = 0; i < deviceInfoTable.size; i++) {
		if (deviceInfoTable.deviceInfo[i].ieeeId == node_Id) {
			for (j = i; j < deviceInfoTable.size - 1; j++)
     30c:	4f 5f       	subi	r20, 0xFF	; 255
     30e:	84 2f       	mov	r24, r20
     310:	90 e0       	ldi	r25, 0x00	; 0
     312:	82 17       	cp	r24, r18
     314:	93 07       	cpc	r25, r19
     316:	14 f3       	brlt	.-60     	; 0x2dc <removeNode+0x2a>
				deviceInfoTable.deviceInfo[j] = deviceInfoTable.deviceInfo[j + 1];
			deviceInfoTable.size--;
     318:	51 50       	subi	r21, 0x01	; 1
     31a:	50 93 f6 2c 	sts	0x2CF6, r21
     31e:	08 95       	ret
// ------------------ Remove Node & Mapping Table  ------------------------------------------------- //
// ---------------------------------------------------------------------------------------------- //
void removeNode(uint16 node_Id) {
	uint8 i = 0, j = 0;

	for (i = 0; i < deviceInfoTable.size; i++) {
     320:	2f 5f       	subi	r18, 0xFF	; 255
     322:	25 17       	cp	r18, r21
     324:	68 f2       	brcs	.-102    	; 0x2c0 <removeNode+0xe>
     326:	08 95       	ret

00000328 <removeDeviceTable>:
		}
	}
}

void removeDeviceTable() {
	deviceInfoTable.size = 0;
     328:	10 92 f6 2c 	sts	0x2CF6, r1
}
     32c:	08 95       	ret

0000032e <countDeviceTable>:

// ---------------------------------------------------------------------------------------------- //
// ------------------ Count Node & Device Table  ---------------------------------------------------- //
// ---------------------------------------------------------------------------------------------- //
uint8 countDeviceTable(uint16 node_Type) {
     32e:	bc 01       	movw	r22, r24
	uint8 device_count = 0;
	uint8 i = 0;

	for (i = 0; i < deviceInfoTable.size; i++)
     330:	90 91 f6 2c 	lds	r25, 0x2CF6
     334:	e6 ee       	ldi	r30, 0xE6	; 230
     336:	f8 e2       	ldi	r31, 0x28	; 40
     338:	40 e0       	ldi	r20, 0x00	; 0
     33a:	8d e0       	ldi	r24, 0x0D	; 13
     33c:	98 9f       	mul	r25, r24
     33e:	90 01       	movw	r18, r0
     340:	11 24       	eor	r1, r1
     342:	2e 0f       	add	r18, r30
     344:	3f 1f       	adc	r19, r31
     346:	07 c0       	rjmp	.+14     	; 0x356 <countDeviceTable+0x28>
		if (deviceInfoTable.deviceInfo[i].deviceType == node_Type)
     348:	80 81       	ld	r24, Z
     34a:	91 81       	ldd	r25, Z+1	; 0x01
     34c:	86 17       	cp	r24, r22
     34e:	97 07       	cpc	r25, r23
     350:	09 f4       	brne	.+2      	; 0x354 <countDeviceTable+0x26>
			device_count++;
     352:	4f 5f       	subi	r20, 0xFF	; 255
     354:	3d 96       	adiw	r30, 0x0d	; 13
// ---------------------------------------------------------------------------------------------- //
uint8 countDeviceTable(uint16 node_Type) {
	uint8 device_count = 0;
	uint8 i = 0;

	for (i = 0; i < deviceInfoTable.size; i++)
     356:	e2 17       	cp	r30, r18
     358:	f3 07       	cpc	r31, r19
     35a:	b1 f7       	brne	.-20     	; 0x348 <countDeviceTable+0x1a>
		if (deviceInfoTable.deviceInfo[i].deviceType == node_Type)
			device_count++;
	return device_count;

}
     35c:	84 2f       	mov	r24, r20
     35e:	08 95       	ret

00000360 <countDevice>:

uint8 countDevice() {
	return deviceInfoTable.size;
}
     360:	80 91 f6 2c 	lds	r24, 0x2CF6
     364:	08 95       	ret

00000366 <deviceInfo_UpdateSSRInfo>:
// ---------------------------------------------------------------------------------------------- //
// ------------------ Get Node ID Table  ----------------------------------------------------------- //
// ---------------------------------------------------------------------------------------------- //

void deviceInfo_UpdateSSRInfo() {
	tmp_PrevCircuitInfo = tmp_CircuitInfo;
     366:	a7 ef       	ldi	r26, 0xF7	; 247
     368:	bc e2       	ldi	r27, 0x2C	; 44
     36a:	e6 e1       	ldi	r30, 0x16	; 22
     36c:	f5 e2       	ldi	r31, 0x25	; 37
     36e:	80 ee       	ldi	r24, 0xE0	; 224
     370:	91 e0       	ldi	r25, 0x01	; 1
     372:	01 90       	ld	r0, Z+
     374:	0d 92       	st	X+, r0
     376:	01 97       	sbiw	r24, 0x01	; 1
     378:	e1 f7       	brne	.-8      	; 0x372 <deviceInfo_UpdateSSRInfo+0xc>
}
     37a:	08 95       	ret

0000037c <deviceInfo_IsUpdatedSSRInfo>:

int deviceInfo_IsUpdatedSSRInfo() {
     37c:	cf 93       	push	r28
     37e:	df 93       	push	r29
     380:	e7 e0       	ldi	r30, 0x07	; 7
     382:	fd e2       	ldi	r31, 0x2D	; 45
     384:	a6 e2       	ldi	r26, 0x26	; 38
     386:	b5 e2       	ldi	r27, 0x25	; 37
     388:	af 01       	movw	r20, r30
     38a:	40 5f       	subi	r20, 0xF0	; 240
     38c:	5f 4f       	sbci	r21, 0xFF	; 255
     38e:	bd 01       	movw	r22, r26
     390:	60 5f       	subi	r22, 0xF0	; 240
     392:	7f 4f       	sbci	r23, 0xFF	; 255
	uint8 i = 0;
	for (i = 0; i < NumOfChannels; i++) {
		if (tmp_PrevCircuitInfo.state[i] != tmp_CircuitInfo.state[i])
     394:	90 81       	ld	r25, Z
     396:	8c 91       	ld	r24, X
     398:	98 17       	cp	r25, r24
     39a:	b1 f4       	brne	.+44     	; 0x3c8 <deviceInfo_IsUpdatedSSRInfo+0x4c>
			return 1;
		if (tmp_PrevCircuitInfo.expirationTime[i] != tmp_CircuitInfo.expirationTime[i])
     39c:	ea 01       	movw	r28, r20
     39e:	28 81       	ld	r18, Y
     3a0:	39 81       	ldd	r19, Y+1	; 0x01
     3a2:	eb 01       	movw	r28, r22
     3a4:	88 81       	ld	r24, Y
     3a6:	99 81       	ldd	r25, Y+1	; 0x01
     3a8:	28 17       	cp	r18, r24
     3aa:	39 07       	cpc	r19, r25
     3ac:	69 f4       	brne	.+26     	; 0x3c8 <deviceInfo_IsUpdatedSSRInfo+0x4c>
     3ae:	31 96       	adiw	r30, 0x01	; 1
     3b0:	11 96       	adiw	r26, 0x01	; 1
     3b2:	4e 5f       	subi	r20, 0xFE	; 254
     3b4:	5f 4f       	sbci	r21, 0xFF	; 255
     3b6:	6e 5f       	subi	r22, 0xFE	; 254
     3b8:	7f 4f       	sbci	r23, 0xFF	; 255
	tmp_PrevCircuitInfo = tmp_CircuitInfo;
}

int deviceInfo_IsUpdatedSSRInfo() {
	uint8 i = 0;
	for (i = 0; i < NumOfChannels; i++) {
     3ba:	8d e2       	ldi	r24, 0x2D	; 45
     3bc:	e7 31       	cpi	r30, 0x17	; 23
     3be:	f8 07       	cpc	r31, r24
     3c0:	49 f7       	brne	.-46     	; 0x394 <deviceInfo_IsUpdatedSSRInfo+0x18>
     3c2:	20 e0       	ldi	r18, 0x00	; 0
     3c4:	30 e0       	ldi	r19, 0x00	; 0
     3c6:	02 c0       	rjmp	.+4      	; 0x3cc <deviceInfo_IsUpdatedSSRInfo+0x50>
     3c8:	21 e0       	ldi	r18, 0x01	; 1
     3ca:	30 e0       	ldi	r19, 0x00	; 0
		if (tmp_PrevCircuitInfo.expirationTime[i] != tmp_CircuitInfo.expirationTime[i])
			return 1;
	}

	return 0;
}
     3cc:	c9 01       	movw	r24, r18
     3ce:	df 91       	pop	r29
     3d0:	cf 91       	pop	r28
     3d2:	08 95       	ret

000003d4 <initDeviceTable>:
 uint8 prevIlluState[NumOfChannels][11];
 uint8 prevIlluStateAge[NumOfChannels][11];
 }Circuit_State_Info;
 */

void initDeviceTable() {
     3d4:	af 92       	push	r10
     3d6:	bf 92       	push	r11
     3d8:	cf 92       	push	r12
     3da:	df 92       	push	r13
     3dc:	ef 92       	push	r14
     3de:	ff 92       	push	r15
     3e0:	0f 93       	push	r16
     3e2:	1f 93       	push	r17
     3e4:	cf 93       	push	r28
     3e6:	df 93       	push	r29
	uint8 i = 0;
	uint8 j = 0;
	deviceInfoTable.size = 0;
     3e8:	10 92 f6 2c 	sts	0x2CF6, r1

	//eeprom_read_block(&tmp_CircuitInfo, &ee_SSRInfo, sizeof(Circuit_State_Info));

	flash_readBytes(FLASH_ADDRESS_DEVICEINFO, tempBuffForDeviceInfo, 255);
     3ec:	82 e0       	ldi	r24, 0x02	; 2
     3ee:	90 e0       	ldi	r25, 0x00	; 0
     3f0:	67 e1       	ldi	r22, 0x17	; 23
     3f2:	74 e2       	ldi	r23, 0x24	; 36
     3f4:	4f ef       	ldi	r20, 0xFF	; 255
     3f6:	0e 94 a6 07 	call	0xf4c	; 0xf4c <flash_readBytes>
     3fa:	c7 e1       	ldi	r28, 0x17	; 23
     3fc:	d4 e2       	ldi	r29, 0x24	; 36
     3fe:	96 e1       	ldi	r25, 0x16	; 22
     400:	c9 2e       	mov	r12, r25
     402:	95 e2       	ldi	r25, 0x25	; 37
     404:	d9 2e       	mov	r13, r25
     406:	fe 01       	movw	r30, r28
     408:	b0 96       	adiw	r30, 0x20	; 32
     40a:	80 e2       	ldi	r24, 0x20	; 32
     40c:	e8 2e       	mov	r14, r24
     40e:	f1 2c       	mov	r15, r1
     410:	ec 0c       	add	r14, r12
     412:	fd 1c       	adc	r15, r13
     414:	07 e7       	ldi	r16, 0x77	; 119
     416:	14 e2       	ldi	r17, 0x24	; 36
     418:	66 e7       	ldi	r22, 0x76	; 118
     41a:	75 e2       	ldi	r23, 0x25	; 37
     41c:	56 01       	movw	r10, r12
	for (i = 0; i < NumOfChannels; i++) {
		wdt_reset();
     41e:	a8 95       	wdr
		tmp_CircuitInfo.ctrlMode[i] = tempBuffForDeviceInfo[0 + i];
     420:	88 81       	ld	r24, Y
     422:	d5 01       	movw	r26, r10
     424:	8c 93       	st	X, r24
		tmp_CircuitInfo.state[i] = tempBuffForDeviceInfo[NumOfChannels + i];
     426:	88 89       	ldd	r24, Y+16	; 0x10
     428:	50 96       	adiw	r26, 0x10	; 16
     42a:	8c 93       	st	X, r24
		tmp_CircuitInfo.expirationTime[i] = tempBuffForDeviceInfo[NumOfChannels * 2 + i * 2] << 8 | tempBuffForDeviceInfo[NumOfChannels * 2 + i * 2 + 1];
     42c:	50 81       	ld	r21, Z
     42e:	40 e0       	ldi	r20, 0x00	; 0
     430:	81 81       	ldd	r24, Z+1	; 0x01
     432:	90 e0       	ldi	r25, 0x00	; 0
     434:	84 2b       	or	r24, r20
     436:	95 2b       	or	r25, r21
     438:	d7 01       	movw	r26, r14
     43a:	11 96       	adiw	r26, 0x01	; 1
     43c:	9c 93       	st	X, r25
     43e:	8e 93       	st	-X, r24
		tmp_CircuitInfo.timerCnt[i] = tempBuffForDeviceInfo[NumOfChannels * 4 + i * 2] << 8 | tempBuffForDeviceInfo[NumOfChannels * 4 + i * 2 + 1];
     440:	30 a1       	ldd	r19, Z+32	; 0x20
     442:	20 e0       	ldi	r18, 0x00	; 0
     444:	81 a1       	ldd	r24, Z+33	; 0x21
     446:	90 e0       	ldi	r25, 0x00	; 0
     448:	82 2b       	or	r24, r18
     44a:	93 2b       	or	r25, r19
     44c:	91 96       	adiw	r26, 0x21	; 33
     44e:	9c 93       	st	X, r25
     450:	8e 93       	st	-X, r24
     452:	90 97       	sbiw	r26, 0x20	; 32
		tmp_CircuitInfo.onCtrlMode[i] = tempBuffForDeviceInfo[NumOfChannels * 6 + i];
     454:	d8 01       	movw	r26, r16
     456:	8c 91       	ld	r24, X
     458:	db 01       	movw	r26, r22
     45a:	8c 93       	st	X, r24
		tmp_CircuitInfo.offCtrlMode[i] = tempBuffForDeviceInfo[NumOfChannels * 7 + i];
     45c:	d8 01       	movw	r26, r16
     45e:	50 96       	adiw	r26, 0x10	; 16
     460:	8c 91       	ld	r24, X
     462:	db 01       	movw	r26, r22
     464:	50 96       	adiw	r26, 0x10	; 16
     466:	8c 93       	st	X, r24
     468:	21 96       	adiw	r28, 0x01	; 1
     46a:	08 94       	sec
     46c:	a1 1c       	adc	r10, r1
     46e:	b1 1c       	adc	r11, r1
     470:	32 96       	adiw	r30, 0x02	; 2
     472:	82 e0       	ldi	r24, 0x02	; 2
     474:	90 e0       	ldi	r25, 0x00	; 0
     476:	e8 0e       	add	r14, r24
     478:	f9 1e       	adc	r15, r25
     47a:	0f 5f       	subi	r16, 0xFF	; 255
     47c:	1f 4f       	sbci	r17, 0xFF	; 255
     47e:	6f 5f       	subi	r22, 0xFF	; 255
     480:	7f 4f       	sbci	r23, 0xFF	; 255
	deviceInfoTable.size = 0;

	//eeprom_read_block(&tmp_CircuitInfo, &ee_SSRInfo, sizeof(Circuit_State_Info));

	flash_readBytes(FLASH_ADDRESS_DEVICEINFO, tempBuffForDeviceInfo, 255);
	for (i = 0; i < NumOfChannels; i++) {
     482:	94 e2       	ldi	r25, 0x24	; 36
     484:	c7 32       	cpi	r28, 0x27	; 39
     486:	d9 07       	cpc	r29, r25
     488:	51 f6       	brne	.-108    	; 0x41e <initDeviceTable+0x4a>
		tmp_CircuitInfo.timerCnt[i] = tempBuffForDeviceInfo[NumOfChannels * 4 + i * 2] << 8 | tempBuffForDeviceInfo[NumOfChannels * 4 + i * 2 + 1];
		tmp_CircuitInfo.onCtrlMode[i] = tempBuffForDeviceInfo[NumOfChannels * 6 + i];
		tmp_CircuitInfo.offCtrlMode[i] = tempBuffForDeviceInfo[NumOfChannels * 7 + i];
	}

	flash_readBytes(FLASH_ADDRESS_DEVICEINFO + 1, tempBuffForDeviceInfo, 255);
     48a:	60 97       	sbiw	r28, 0x10	; 16
     48c:	83 e0       	ldi	r24, 0x03	; 3
     48e:	90 e0       	ldi	r25, 0x00	; 0
     490:	be 01       	movw	r22, r28
     492:	4f ef       	ldi	r20, 0xFF	; 255
     494:	0e 94 a6 07 	call	0xf4c	; 0xf4c <flash_readBytes>
     498:	2b 96       	adiw	r28, 0x0b	; 11
     49a:	a1 ea       	ldi	r26, 0xA1	; 161
     49c:	b5 e2       	ldi	r27, 0x25	; 37
     49e:	fe 01       	movw	r30, r28
	for (i = 0; i < NumOfChannels; i++) {
		wdt_reset();
     4a0:	a8 95       	wdr
     4a2:	80 e0       	ldi	r24, 0x00	; 0
		for (j = 0; j < 11; j++)
			wdt_reset();
     4a4:	a8 95       	wdr
	}

	flash_readBytes(FLASH_ADDRESS_DEVICEINFO + 1, tempBuffForDeviceInfo, 255);
	for (i = 0; i < NumOfChannels; i++) {
		wdt_reset();
		for (j = 0; j < 11; j++)
     4a6:	8f 5f       	subi	r24, 0xFF	; 255
     4a8:	8b 30       	cpi	r24, 0x0B	; 11
     4aa:	e1 f7       	brne	.-8      	; 0x4a4 <initDeviceTable+0xd0>
			wdt_reset();
		tmp_CircuitInfo.prevIlluState[i][j] = tempBuffForDeviceInfo[i * 11 + j];
     4ac:	80 81       	ld	r24, Z
     4ae:	8c 93       	st	X, r24
     4b0:	3b 96       	adiw	r30, 0x0b	; 11
     4b2:	1b 96       	adiw	r26, 0x0b	; 11
		tmp_CircuitInfo.onCtrlMode[i] = tempBuffForDeviceInfo[NumOfChannels * 6 + i];
		tmp_CircuitInfo.offCtrlMode[i] = tempBuffForDeviceInfo[NumOfChannels * 7 + i];
	}

	flash_readBytes(FLASH_ADDRESS_DEVICEINFO + 1, tempBuffForDeviceInfo, 255);
	for (i = 0; i < NumOfChannels; i++) {
     4b4:	84 e2       	ldi	r24, 0x24	; 36
     4b6:	e2 3d       	cpi	r30, 0xD2	; 210
     4b8:	f8 07       	cpc	r31, r24
     4ba:	91 f7       	brne	.-28     	; 0x4a0 <initDeviceTable+0xcc>
		wdt_reset();
		for (j = 0; j < 11; j++)
			wdt_reset();
		tmp_CircuitInfo.prevIlluState[i][j] = tempBuffForDeviceInfo[i * 11 + j];
	}
	flash_readBytes(FLASH_ADDRESS_DEVICEINFO + 2, tempBuffForDeviceInfo, 255);
     4bc:	84 e0       	ldi	r24, 0x04	; 4
     4be:	90 e0       	ldi	r25, 0x00	; 0
     4c0:	67 e1       	ldi	r22, 0x17	; 23
     4c2:	74 e2       	ldi	r23, 0x24	; 36
     4c4:	4f ef       	ldi	r20, 0xFF	; 255
     4c6:	0e 94 a6 07 	call	0xf4c	; 0xf4c <flash_readBytes>
     4ca:	e1 e5       	ldi	r30, 0x51	; 81
     4cc:	f6 e2       	ldi	r31, 0x26	; 38
	for (i = 0; i < NumOfChannels; i++) {
		wdt_reset();
     4ce:	a8 95       	wdr
     4d0:	80 e0       	ldi	r24, 0x00	; 0
		for (j = 0; j < 11; j++)
			wdt_reset();
     4d2:	a8 95       	wdr
		tmp_CircuitInfo.prevIlluState[i][j] = tempBuffForDeviceInfo[i * 11 + j];
	}
	flash_readBytes(FLASH_ADDRESS_DEVICEINFO + 2, tempBuffForDeviceInfo, 255);
	for (i = 0; i < NumOfChannels; i++) {
		wdt_reset();
		for (j = 0; j < 11; j++)
     4d4:	8f 5f       	subi	r24, 0xFF	; 255
     4d6:	8b 30       	cpi	r24, 0x0B	; 11
     4d8:	e1 f7       	brne	.-8      	; 0x4d2 <initDeviceTable+0xfe>
			wdt_reset();
		tmp_CircuitInfo.prevIlluStateAge[i][j] = tempBuffForDeviceInfo[i * 11 + j];
     4da:	88 81       	ld	r24, Y
     4dc:	80 83       	st	Z, r24
     4de:	2b 96       	adiw	r28, 0x0b	; 11
     4e0:	3b 96       	adiw	r30, 0x0b	; 11
		for (j = 0; j < 11; j++)
			wdt_reset();
		tmp_CircuitInfo.prevIlluState[i][j] = tempBuffForDeviceInfo[i * 11 + j];
	}
	flash_readBytes(FLASH_ADDRESS_DEVICEINFO + 2, tempBuffForDeviceInfo, 255);
	for (i = 0; i < NumOfChannels; i++) {
     4e2:	94 e2       	ldi	r25, 0x24	; 36
     4e4:	c2 3d       	cpi	r28, 0xD2	; 210
     4e6:	d9 07       	cpc	r29, r25
     4e8:	91 f7       	brne	.-28     	; 0x4ce <initDeviceTable+0xfa>
     4ea:	a6 e5       	ldi	r26, 0x56	; 86
     4ec:	b5 e2       	ldi	r27, 0x25	; 37
     4ee:	20 e0       	ldi	r18, 0x00	; 0
     4f0:	30 e0       	ldi	r19, 0x00	; 0
		tmp_CircuitInfo.prevIlluStateAge[i][j] = tempBuffForDeviceInfo[i * 11 + j];
	}

	for (i = 0; i < NumOfChannels; i++) {
		if (tmp_CircuitInfo.ctrlMode[i] == 0xff)
			tmp_CircuitInfo.ctrlMode[i] = ON;
     4f2:	91 e0       	ldi	r25, 0x01	; 1
		tmp_CircuitInfo.timerCnt[i] = 0;
     4f4:	4b e0       	ldi	r20, 0x0B	; 11
     4f6:	50 e0       	ldi	r21, 0x00	; 0
			wdt_reset();
		tmp_CircuitInfo.prevIlluStateAge[i][j] = tempBuffForDeviceInfo[i * 11 + j];
	}

	for (i = 0; i < NumOfChannels; i++) {
		if (tmp_CircuitInfo.ctrlMode[i] == 0xff)
     4f8:	f6 01       	movw	r30, r12
     4fa:	80 81       	ld	r24, Z
     4fc:	8f 3f       	cpi	r24, 0xFF	; 255
     4fe:	09 f4       	brne	.+2      	; 0x502 <initDeviceTable+0x12e>
			tmp_CircuitInfo.ctrlMode[i] = ON;
     500:	90 83       	st	Z, r25
		tmp_CircuitInfo.timerCnt[i] = 0;
     502:	11 96       	adiw	r26, 0x01	; 1
     504:	1c 92       	st	X, r1
     506:	1e 92       	st	-X, r1
     508:	24 9f       	mul	r18, r20
     50a:	f0 01       	movw	r30, r0
     50c:	25 9f       	mul	r18, r21
     50e:	f0 0d       	add	r31, r0
     510:	34 9f       	mul	r19, r20
     512:	f0 0d       	add	r31, r0
     514:	11 24       	eor	r1, r1
     516:	ea 56       	subi	r30, 0x6A	; 106
     518:	fa 4d       	sbci	r31, 0xDA	; 218
     51a:	80 e1       	ldi	r24, 0x10	; 16
		for (j = 0; j < 11; j++) {
			tmp_CircuitInfo.prevIlluState[i][j] = DIMMING_0 + j;
     51c:	80 83       	st	Z, r24
			tmp_CircuitInfo.prevIlluStateAge[i][j] = 0;
     51e:	e0 55       	subi	r30, 0x50	; 80
     520:	ff 4f       	sbci	r31, 0xFF	; 255
     522:	10 82       	st	Z, r1
     524:	ef 5a       	subi	r30, 0xAF	; 175
     526:	f0 40       	sbci	r31, 0x00	; 0
     528:	8f 5f       	subi	r24, 0xFF	; 255

	for (i = 0; i < NumOfChannels; i++) {
		if (tmp_CircuitInfo.ctrlMode[i] == 0xff)
			tmp_CircuitInfo.ctrlMode[i] = ON;
		tmp_CircuitInfo.timerCnt[i] = 0;
		for (j = 0; j < 11; j++) {
     52a:	8b 31       	cpi	r24, 0x1B	; 27
     52c:	b9 f7       	brne	.-18     	; 0x51c <initDeviceTable+0x148>
     52e:	2f 5f       	subi	r18, 0xFF	; 255
     530:	3f 4f       	sbci	r19, 0xFF	; 255
     532:	08 94       	sec
     534:	c1 1c       	adc	r12, r1
     536:	d1 1c       	adc	r13, r1
     538:	12 96       	adiw	r26, 0x02	; 2
		for (j = 0; j < 11; j++)
			wdt_reset();
		tmp_CircuitInfo.prevIlluStateAge[i][j] = tempBuffForDeviceInfo[i * 11 + j];
	}

	for (i = 0; i < NumOfChannels; i++) {
     53a:	20 31       	cpi	r18, 0x10	; 16
     53c:	31 05       	cpc	r19, r1
     53e:	e1 f6       	brne	.-72     	; 0x4f8 <initDeviceTable+0x124>
		for (j = 0; j < 11; j++) {
			tmp_CircuitInfo.prevIlluState[i][j] = DIMMING_0 + j;
			tmp_CircuitInfo.prevIlluStateAge[i][j] = 0;
		}
	}
}
     540:	df 91       	pop	r29
     542:	cf 91       	pop	r28
     544:	1f 91       	pop	r17
     546:	0f 91       	pop	r16
     548:	ff 90       	pop	r15
     54a:	ef 90       	pop	r14
     54c:	df 90       	pop	r13
     54e:	cf 90       	pop	r12
     550:	bf 90       	pop	r11
     552:	af 90       	pop	r10
     554:	08 95       	ret

00000556 <ssrInfo_WriteToEEPRomOfIndex>:
			tempBuffForDeviceInfo[i * 11 + j] = tmp_CircuitInfo.prevIlluStateAge[i][j];
	}
	flash_writeBytes(FLASH_ADDRESS_DEVICEINFO + 2, tempBuffForDeviceInfo, 255);
}

void ssrInfo_WriteToEEPRomOfIndex(uint8 circuitId) {
     556:	ef 92       	push	r14
     558:	ff 92       	push	r15
     55a:	0f 93       	push	r16
     55c:	1f 93       	push	r17
     55e:	cf 93       	push	r28
     560:	df 93       	push	r29
     562:	18 2f       	mov	r17, r24
	/* eeprom_write_block(&(tmp_CircuitInfo.ctrlMode[circuitId]), &(ee_SSRInfo.ctrlMode[circuitId]),
	 sizeof(uint8));
	 eeprom_write_block(&(tmp_CircuitInfo.expirationTime[circuitId]),
	 &(ee_SSRInfo.expirationTime[circuitId]), sizeof(uint16));*/

	flash_readBytes(FLASH_ADDRESS_DEVICEINFO, tempBuffForDeviceInfo, 255);
     564:	82 e0       	ldi	r24, 0x02	; 2
     566:	90 e0       	ldi	r25, 0x00	; 0
     568:	67 e1       	ldi	r22, 0x17	; 23
     56a:	74 e2       	ldi	r23, 0x24	; 36
     56c:	4f ef       	ldi	r20, 0xFF	; 255
     56e:	0e 94 a6 07 	call	0xf4c	; 0xf4c <flash_readBytes>
	tempBuffForDeviceInfo[0 + circuitId] = tmp_CircuitInfo.ctrlMode[circuitId];
     572:	c1 2f       	mov	r28, r17
     574:	d0 e0       	ldi	r29, 0x00	; 0
     576:	ae 01       	movw	r20, r28
     578:	49 5e       	subi	r20, 0xE9	; 233
     57a:	5b 4d       	sbci	r21, 0xDB	; 219
     57c:	9e 01       	movw	r18, r28
     57e:	2a 5e       	subi	r18, 0xEA	; 234
     580:	3a 4d       	sbci	r19, 0xDA	; 218
     582:	d9 01       	movw	r26, r18
     584:	8c 91       	ld	r24, X
     586:	fa 01       	movw	r30, r20
     588:	80 83       	st	Z, r24
	tempBuffForDeviceInfo[NumOfChannels + circuitId] = tmp_CircuitInfo.state[circuitId];
     58a:	fe 01       	movw	r30, r28
     58c:	70 96       	adiw	r30, 0x10	; 16
     58e:	bf 01       	movw	r22, r30
     590:	69 5e       	subi	r22, 0xE9	; 233
     592:	7b 4d       	sbci	r23, 0xDB	; 219
     594:	50 96       	adiw	r26, 0x10	; 16
     596:	8c 91       	ld	r24, X
     598:	db 01       	movw	r26, r22
     59a:	8c 93       	st	X, r24
	tempBuffForDeviceInfo[NumOfChannels * 2 + circuitId * 2] = tmp_CircuitInfo.expirationTime[circuitId] >> 8;
     59c:	ee 0f       	add	r30, r30
     59e:	ff 1f       	adc	r31, r31
     5a0:	df 01       	movw	r26, r30
     5a2:	aa 5e       	subi	r26, 0xEA	; 234
     5a4:	ba 4d       	sbci	r27, 0xDA	; 218
     5a6:	9c 91       	ld	r25, X
     5a8:	11 96       	adiw	r26, 0x01	; 1
     5aa:	8c 91       	ld	r24, X
     5ac:	e9 5e       	subi	r30, 0xE9	; 233
     5ae:	fb 4d       	sbci	r31, 0xDB	; 219
     5b0:	80 83       	st	Z, r24
	tempBuffForDeviceInfo[NumOfChannels * 2 + circuitId * 2 + 1] = tmp_CircuitInfo.expirationTime[circuitId];
     5b2:	91 83       	std	Z+1, r25	; 0x01
	tempBuffForDeviceInfo[NumOfChannels * 4 + circuitId * 2] = tmp_CircuitInfo.timerCnt[circuitId] >> 8;
     5b4:	a0 96       	adiw	r28, 0x20	; 32
     5b6:	fe 01       	movw	r30, r28
     5b8:	ee 0f       	add	r30, r30
     5ba:	ff 1f       	adc	r31, r31
     5bc:	a0 97       	sbiw	r28, 0x20	; 32
     5be:	df 01       	movw	r26, r30
     5c0:	aa 5e       	subi	r26, 0xEA	; 234
     5c2:	ba 4d       	sbci	r27, 0xDA	; 218
     5c4:	9c 91       	ld	r25, X
     5c6:	11 96       	adiw	r26, 0x01	; 1
     5c8:	8c 91       	ld	r24, X
     5ca:	e9 5e       	subi	r30, 0xE9	; 233
     5cc:	fb 4d       	sbci	r31, 0xDB	; 219
     5ce:	80 83       	st	Z, r24
	tempBuffForDeviceInfo[NumOfChannels * 4 + circuitId * 2 + 1] = tmp_CircuitInfo.timerCnt[circuitId];
     5d0:	91 83       	std	Z+1, r25	; 0x01
	tempBuffForDeviceInfo[NumOfChannels * 6 + circuitId] = tmp_CircuitInfo.onCtrlMode[circuitId];
     5d2:	40 5a       	subi	r20, 0xA0	; 160
     5d4:	5f 4f       	sbci	r21, 0xFF	; 255
     5d6:	20 5a       	subi	r18, 0xA0	; 160
     5d8:	3f 4f       	sbci	r19, 0xFF	; 255
     5da:	f9 01       	movw	r30, r18
     5dc:	80 81       	ld	r24, Z
     5de:	da 01       	movw	r26, r20
     5e0:	8c 93       	st	X, r24
	tempBuffForDeviceInfo[NumOfChannels * 7 + circuitId] = tmp_CircuitInfo.offCtrlMode[circuitId];
     5e2:	40 5f       	subi	r20, 0xF0	; 240
     5e4:	5f 4f       	sbci	r21, 0xFF	; 255
     5e6:	20 5f       	subi	r18, 0xF0	; 240
     5e8:	3f 4f       	sbci	r19, 0xFF	; 255
     5ea:	f9 01       	movw	r30, r18
     5ec:	80 81       	ld	r24, Z
     5ee:	da 01       	movw	r26, r20
     5f0:	8c 93       	st	X, r24
	flash_writeBytes(FLASH_ADDRESS_DEVICEINFO, tempBuffForDeviceInfo, 255);
     5f2:	82 e0       	ldi	r24, 0x02	; 2
     5f4:	90 e0       	ldi	r25, 0x00	; 0
     5f6:	67 e1       	ldi	r22, 0x17	; 23
     5f8:	74 e2       	ldi	r23, 0x24	; 36
     5fa:	4f ef       	ldi	r20, 0xFF	; 255
     5fc:	0e 94 92 07 	call	0xf24	; 0xf24 <flash_writeBytes>

	flash_readBytes(FLASH_ADDRESS_DEVICEINFO + 1, tempBuffForDeviceInfo, 255);
     600:	83 e0       	ldi	r24, 0x03	; 3
     602:	90 e0       	ldi	r25, 0x00	; 0
     604:	67 e1       	ldi	r22, 0x17	; 23
     606:	74 e2       	ldi	r23, 0x24	; 36
     608:	4f ef       	ldi	r20, 0xFF	; 255
     60a:	0e 94 a6 07 	call	0xf4c	; 0xf4c <flash_readBytes>
	for (j = 0; j < 11; j++)
		tempBuffForDeviceInfo[circuitId * 11 + j] = tmp_CircuitInfo.prevIlluState[circuitId][j];
     60e:	8b e0       	ldi	r24, 0x0B	; 11
     610:	90 e0       	ldi	r25, 0x00	; 0
     612:	c8 9f       	mul	r28, r24
     614:	70 01       	movw	r14, r0
     616:	c9 9f       	mul	r28, r25
     618:	f0 0c       	add	r15, r0
     61a:	d8 9f       	mul	r29, r24
     61c:	f0 0c       	add	r15, r0
     61e:	11 24       	eor	r1, r1
     620:	d7 01       	movw	r26, r14
     622:	aa 56       	subi	r26, 0x6A	; 106
     624:	ba 4d       	sbci	r27, 0xDA	; 218
     626:	87 01       	movw	r16, r14
     628:	09 5e       	subi	r16, 0xE9	; 233
     62a:	1b 4d       	sbci	r17, 0xDB	; 219
     62c:	f8 01       	movw	r30, r16
     62e:	90 e0       	ldi	r25, 0x00	; 0
     630:	8d 91       	ld	r24, X+
     632:	81 93       	st	Z+, r24
	tempBuffForDeviceInfo[NumOfChannels * 6 + circuitId] = tmp_CircuitInfo.onCtrlMode[circuitId];
	tempBuffForDeviceInfo[NumOfChannels * 7 + circuitId] = tmp_CircuitInfo.offCtrlMode[circuitId];
	flash_writeBytes(FLASH_ADDRESS_DEVICEINFO, tempBuffForDeviceInfo, 255);

	flash_readBytes(FLASH_ADDRESS_DEVICEINFO + 1, tempBuffForDeviceInfo, 255);
	for (j = 0; j < 11; j++)
     634:	9f 5f       	subi	r25, 0xFF	; 255
     636:	9b 30       	cpi	r25, 0x0B	; 11
     638:	d9 f7       	brne	.-10     	; 0x630 <ssrInfo_WriteToEEPRomOfIndex+0xda>
		tempBuffForDeviceInfo[circuitId * 11 + j] = tmp_CircuitInfo.prevIlluState[circuitId][j];
	flash_writeBytes(FLASH_ADDRESS_DEVICEINFO + 1, tempBuffForDeviceInfo, 255);
     63a:	83 e0       	ldi	r24, 0x03	; 3
     63c:	90 e0       	ldi	r25, 0x00	; 0
     63e:	67 e1       	ldi	r22, 0x17	; 23
     640:	74 e2       	ldi	r23, 0x24	; 36
     642:	4f ef       	ldi	r20, 0xFF	; 255
     644:	0e 94 92 07 	call	0xf24	; 0xf24 <flash_writeBytes>

	flash_readBytes(FLASH_ADDRESS_DEVICEINFO + 2, tempBuffForDeviceInfo, 255);
     648:	84 e0       	ldi	r24, 0x04	; 4
     64a:	90 e0       	ldi	r25, 0x00	; 0
     64c:	67 e1       	ldi	r22, 0x17	; 23
     64e:	74 e2       	ldi	r23, 0x24	; 36
     650:	4f ef       	ldi	r20, 0xFF	; 255
     652:	0e 94 a6 07 	call	0xf4c	; 0xf4c <flash_readBytes>
     656:	8b e0       	ldi	r24, 0x0B	; 11
     658:	90 e0       	ldi	r25, 0x00	; 0
     65a:	c8 9f       	mul	r28, r24
     65c:	f0 01       	movw	r30, r0
     65e:	c9 9f       	mul	r28, r25
     660:	f0 0d       	add	r31, r0
     662:	d8 9f       	mul	r29, r24
     664:	f0 0d       	add	r31, r0
     666:	11 24       	eor	r1, r1
     668:	ea 5b       	subi	r30, 0xBA	; 186
     66a:	f9 4d       	sbci	r31, 0xD9	; 217
	for (j = 0; j < 11; j++)
     66c:	97 01       	movw	r18, r14
     66e:	2e 5d       	subi	r18, 0xDE	; 222
     670:	3b 4d       	sbci	r19, 0xDB	; 219
		tempBuffForDeviceInfo[circuitId * 11 + j] = tmp_CircuitInfo.prevIlluStateAge[circuitId][j];
     672:	81 91       	ld	r24, Z+
     674:	d8 01       	movw	r26, r16
     676:	8d 93       	st	X+, r24
     678:	8d 01       	movw	r16, r26
	for (j = 0; j < 11; j++)
		tempBuffForDeviceInfo[circuitId * 11 + j] = tmp_CircuitInfo.prevIlluState[circuitId][j];
	flash_writeBytes(FLASH_ADDRESS_DEVICEINFO + 1, tempBuffForDeviceInfo, 255);

	flash_readBytes(FLASH_ADDRESS_DEVICEINFO + 2, tempBuffForDeviceInfo, 255);
	for (j = 0; j < 11; j++)
     67a:	a2 17       	cp	r26, r18
     67c:	b3 07       	cpc	r27, r19
     67e:	c9 f7       	brne	.-14     	; 0x672 <ssrInfo_WriteToEEPRomOfIndex+0x11c>
		tempBuffForDeviceInfo[circuitId * 11 + j] = tmp_CircuitInfo.prevIlluStateAge[circuitId][j];
	flash_writeBytes(FLASH_ADDRESS_DEVICEINFO + 2, tempBuffForDeviceInfo, 255);
     680:	84 e0       	ldi	r24, 0x04	; 4
     682:	90 e0       	ldi	r25, 0x00	; 0
     684:	67 e1       	ldi	r22, 0x17	; 23
     686:	74 e2       	ldi	r23, 0x24	; 36
     688:	4f ef       	ldi	r20, 0xFF	; 255
     68a:	0e 94 92 07 	call	0xf24	; 0xf24 <flash_writeBytes>
}
     68e:	df 91       	pop	r29
     690:	cf 91       	pop	r28
     692:	1f 91       	pop	r17
     694:	0f 91       	pop	r16
     696:	ff 90       	pop	r15
     698:	ef 90       	pop	r14
     69a:	08 95       	ret

0000069c <handleDeviceControl>:
//Circuit_State_Info ee_SSRInfo EEMEM;
uint8 tempBuffForDeviceInfo[255];

void handleDeviceControl(uint16 nodeId, int circuitId, uint8 ctrlMode) {

	tmp_CircuitInfo.ctrlMode[circuitId] = ctrlMode;
     69c:	db 01       	movw	r26, r22
     69e:	aa 5e       	subi	r26, 0xEA	; 234
     6a0:	ba 4d       	sbci	r27, 0xDA	; 218
     6a2:	4c 93       	st	X, r20
	tmp_CircuitInfo.state[circuitId] = ctrlMode;
     6a4:	50 96       	adiw	r26, 0x10	; 16
     6a6:	4c 93       	st	X, r20
     6a8:	50 97       	sbiw	r26, 0x10	; 16
	tmp_CircuitInfo.expirationTime[circuitId] = 0xffff;
     6aa:	fb 01       	movw	r30, r22
     6ac:	ee 0f       	add	r30, r30
     6ae:	ff 1f       	adc	r31, r31
     6b0:	ea 5c       	subi	r30, 0xCA	; 202
     6b2:	fa 4d       	sbci	r31, 0xDA	; 218
     6b4:	8f ef       	ldi	r24, 0xFF	; 255
     6b6:	9f ef       	ldi	r25, 0xFF	; 255
     6b8:	91 83       	std	Z+1, r25	; 0x01
     6ba:	80 83       	st	Z, r24
	switch (ctrlMode) {
     6bc:	42 30       	cpi	r20, 0x02	; 2
     6be:	39 f0       	breq	.+14     	; 0x6ce <handleDeviceControl+0x32>
     6c0:	42 30       	cpi	r20, 0x02	; 2
     6c2:	18 f1       	brcs	.+70     	; 0x70a <handleDeviceControl+0x6e>
     6c4:	84 2f       	mov	r24, r20
     6c6:	80 52       	subi	r24, 0x20	; 32
     6c8:	8b 30       	cpi	r24, 0x0B	; 11
     6ca:	f8 f4       	brcc	.+62     	; 0x70a <handleDeviceControl+0x6e>
     6cc:	0a c0       	rjmp	.+20     	; 0x6e2 <handleDeviceControl+0x46>
	case OFF:
		break;
	case ON:
		break;
	case SENSOR:
		tmp_CircuitInfo.onCtrlMode[circuitId] = ON;
     6ce:	fd 01       	movw	r30, r26
     6d0:	e0 5a       	subi	r30, 0xA0	; 160
     6d2:	ff 4f       	sbci	r31, 0xFF	; 255
     6d4:	81 e0       	ldi	r24, 0x01	; 1
     6d6:	80 83       	st	Z, r24
		tmp_CircuitInfo.offCtrlMode[circuitId] = OFF;
     6d8:	fd 01       	movw	r30, r26
     6da:	e0 59       	subi	r30, 0x90	; 144
     6dc:	ff 4f       	sbci	r31, 0xFF	; 255
     6de:	10 82       	st	Z, r1
     6e0:	14 c0       	rjmp	.+40     	; 0x70a <handleDeviceControl+0x6e>
	case ILLU_DIMMING_6:
	case ILLU_DIMMING_7:
	case ILLU_DIMMING_8:
	case ILLU_DIMMING_9:
	case ILLU_DIMMING_10:
		tmp_CircuitInfo.prevIlluState[circuitId][ctrlMode - ILLU_DIMMING_0] = ctrlMode - ILLU_DIMMING_0 + DIMMING_0;
     6e2:	24 2f       	mov	r18, r20
     6e4:	20 51       	subi	r18, 0x10	; 16
     6e6:	8b e0       	ldi	r24, 0x0B	; 11
     6e8:	90 e0       	ldi	r25, 0x00	; 0
     6ea:	68 9f       	mul	r22, r24
     6ec:	f0 01       	movw	r30, r0
     6ee:	69 9f       	mul	r22, r25
     6f0:	f0 0d       	add	r31, r0
     6f2:	78 9f       	mul	r23, r24
     6f4:	f0 0d       	add	r31, r0
     6f6:	11 24       	eor	r1, r1
     6f8:	ea 5e       	subi	r30, 0xEA	; 234
     6fa:	fa 4d       	sbci	r31, 0xDA	; 218
     6fc:	e4 0f       	add	r30, r20
     6fe:	f1 1d       	adc	r31, r1
     700:	e0 5a       	subi	r30, 0xA0	; 160
     702:	ff 4f       	sbci	r31, 0xFF	; 255
     704:	20 83       	st	Z, r18
		tmp_CircuitInfo.state[circuitId] = tmp_CircuitInfo.prevIlluState[circuitId][ctrlMode - ILLU_DIMMING_0];
     706:	50 96       	adiw	r26, 0x10	; 16
     708:	2c 93       	st	X, r18
		break;
	default:
		break;
	}
	//eeprom에 설정 정보 저장.
	ssrInfo_WriteToEEPRomOfIndex(circuitId);
     70a:	86 2f       	mov	r24, r22
     70c:	0e 94 ab 02 	call	0x556	; 0x556 <ssrInfo_WriteToEEPRomOfIndex>
}
     710:	08 95       	ret

00000712 <ssrInfo_WriteToEEPRom>:

void ssrInfo_WriteToEEPRom() {
     712:	0f 93       	push	r16
     714:	1f 93       	push	r17
     716:	cf 93       	push	r28
     718:	df 93       	push	r29
     71a:	c6 e1       	ldi	r28, 0x16	; 22
     71c:	d5 e2       	ldi	r29, 0x25	; 37
     71e:	27 e1       	ldi	r18, 0x17	; 23
     720:	34 e2       	ldi	r19, 0x24	; 36
     722:	de 01       	movw	r26, r28
     724:	90 96       	adiw	r26, 0x20	; 32
     726:	89 01       	movw	r16, r18
     728:	00 5e       	subi	r16, 0xE0	; 224
     72a:	1f 4f       	sbci	r17, 0xFF	; 255
     72c:	66 e7       	ldi	r22, 0x76	; 118
     72e:	75 e2       	ldi	r23, 0x25	; 37
     730:	47 e7       	ldi	r20, 0x77	; 119
     732:	54 e2       	ldi	r21, 0x24	; 36
	uint8 i, j;
//	eeprom_write_block(&tmp_CircuitInfo, &ee_SSRInfo, sizeof(Circuit_State_Info));

	for (i = 0; i < NumOfChannels; i++) {
		wdt_reset();
     734:	a8 95       	wdr
		tempBuffForDeviceInfo[0 + i] = tmp_CircuitInfo.ctrlMode[i];
     736:	88 81       	ld	r24, Y
     738:	f9 01       	movw	r30, r18
     73a:	80 83       	st	Z, r24
		tempBuffForDeviceInfo[NumOfChannels + i] = tmp_CircuitInfo.state[i];
     73c:	88 89       	ldd	r24, Y+16	; 0x10
     73e:	80 8b       	std	Z+16, r24	; 0x10
		tempBuffForDeviceInfo[NumOfChannels * 2 + i * 2] = tmp_CircuitInfo.expirationTime[i] >> 8;
     740:	9c 91       	ld	r25, X
     742:	11 96       	adiw	r26, 0x01	; 1
     744:	8c 91       	ld	r24, X
     746:	11 97       	sbiw	r26, 0x01	; 1
     748:	f8 01       	movw	r30, r16
     74a:	80 83       	st	Z, r24
		tempBuffForDeviceInfo[NumOfChannels * 2 + i * 2 + 1] = tmp_CircuitInfo.expirationTime[i];
     74c:	91 83       	std	Z+1, r25	; 0x01
		tempBuffForDeviceInfo[NumOfChannels * 4 + i * 2] = tmp_CircuitInfo.timerCnt[i] >> 8;
     74e:	90 96       	adiw	r26, 0x20	; 32
     750:	9c 91       	ld	r25, X
     752:	90 97       	sbiw	r26, 0x20	; 32
     754:	91 96       	adiw	r26, 0x21	; 33
     756:	8c 91       	ld	r24, X
     758:	91 97       	sbiw	r26, 0x21	; 33
     75a:	80 a3       	std	Z+32, r24	; 0x20
		tempBuffForDeviceInfo[NumOfChannels * 4 + i * 2 + 1] = tmp_CircuitInfo.timerCnt[i];
     75c:	91 a3       	std	Z+33, r25	; 0x21
		tempBuffForDeviceInfo[NumOfChannels * 6 + i] = tmp_CircuitInfo.onCtrlMode[i];
     75e:	fb 01       	movw	r30, r22
     760:	80 81       	ld	r24, Z
     762:	fa 01       	movw	r30, r20
     764:	80 83       	st	Z, r24
		tempBuffForDeviceInfo[NumOfChannels * 7 + i] = tmp_CircuitInfo.offCtrlMode[i];
     766:	fb 01       	movw	r30, r22
     768:	80 89       	ldd	r24, Z+16	; 0x10
     76a:	fa 01       	movw	r30, r20
     76c:	80 8b       	std	Z+16, r24	; 0x10
     76e:	21 96       	adiw	r28, 0x01	; 1
     770:	2f 5f       	subi	r18, 0xFF	; 255
     772:	3f 4f       	sbci	r19, 0xFF	; 255
     774:	12 96       	adiw	r26, 0x02	; 2
     776:	0e 5f       	subi	r16, 0xFE	; 254
     778:	1f 4f       	sbci	r17, 0xFF	; 255
     77a:	6f 5f       	subi	r22, 0xFF	; 255
     77c:	7f 4f       	sbci	r23, 0xFF	; 255
     77e:	4f 5f       	subi	r20, 0xFF	; 255
     780:	5f 4f       	sbci	r21, 0xFF	; 255

void ssrInfo_WriteToEEPRom() {
	uint8 i, j;
//	eeprom_write_block(&tmp_CircuitInfo, &ee_SSRInfo, sizeof(Circuit_State_Info));

	for (i = 0; i < NumOfChannels; i++) {
     782:	f5 e2       	ldi	r31, 0x25	; 37
     784:	c6 32       	cpi	r28, 0x26	; 38
     786:	df 07       	cpc	r29, r31
     788:	a9 f6       	brne	.-86     	; 0x734 <ssrInfo_WriteToEEPRom+0x22>
		tempBuffForDeviceInfo[NumOfChannels * 4 + i * 2] = tmp_CircuitInfo.timerCnt[i] >> 8;
		tempBuffForDeviceInfo[NumOfChannels * 4 + i * 2 + 1] = tmp_CircuitInfo.timerCnt[i];
		tempBuffForDeviceInfo[NumOfChannels * 6 + i] = tmp_CircuitInfo.onCtrlMode[i];
		tempBuffForDeviceInfo[NumOfChannels * 7 + i] = tmp_CircuitInfo.offCtrlMode[i];
	}
	flash_writeBytes(FLASH_ADDRESS_DEVICEINFO, tempBuffForDeviceInfo, 255);
     78a:	82 e0       	ldi	r24, 0x02	; 2
     78c:	90 e0       	ldi	r25, 0x00	; 0
     78e:	67 e1       	ldi	r22, 0x17	; 23
     790:	74 e2       	ldi	r23, 0x24	; 36
     792:	4f ef       	ldi	r20, 0xFF	; 255
     794:	0e 94 92 07 	call	0xf24	; 0xf24 <flash_writeBytes>
     798:	20 e0       	ldi	r18, 0x00	; 0
     79a:	30 e0       	ldi	r19, 0x00	; 0
     79c:	40 e0       	ldi	r20, 0x00	; 0
     79e:	50 e0       	ldi	r21, 0x00	; 0

	for (i = 0; i < NumOfChannels; i++) {
		wdt_reset();
     7a0:	6b e0       	ldi	r22, 0x0B	; 11
     7a2:	70 e0       	ldi	r23, 0x00	; 0
     7a4:	a8 95       	wdr
     7a6:	26 9f       	mul	r18, r22
     7a8:	f0 01       	movw	r30, r0
     7aa:	27 9f       	mul	r18, r23
     7ac:	f0 0d       	add	r31, r0
     7ae:	36 9f       	mul	r19, r22
     7b0:	f0 0d       	add	r31, r0
     7b2:	11 24       	eor	r1, r1
     7b4:	ea 56       	subi	r30, 0x6A	; 106
     7b6:	fa 4d       	sbci	r31, 0xDA	; 218
     7b8:	da 01       	movw	r26, r20
     7ba:	a9 5e       	subi	r26, 0xE9	; 233
     7bc:	bb 4d       	sbci	r27, 0xDB	; 219
     7be:	90 e0       	ldi	r25, 0x00	; 0
		for (j = 0; j < 11; j++)
			tempBuffForDeviceInfo[i * 11 + j] = tmp_CircuitInfo.prevIlluState[i][j];
     7c0:	81 91       	ld	r24, Z+
     7c2:	8d 93       	st	X+, r24
	}
	flash_writeBytes(FLASH_ADDRESS_DEVICEINFO, tempBuffForDeviceInfo, 255);

	for (i = 0; i < NumOfChannels; i++) {
		wdt_reset();
		for (j = 0; j < 11; j++)
     7c4:	9f 5f       	subi	r25, 0xFF	; 255
     7c6:	9b 30       	cpi	r25, 0x0B	; 11
     7c8:	d9 f7       	brne	.-10     	; 0x7c0 <ssrInfo_WriteToEEPRom+0xae>
     7ca:	2f 5f       	subi	r18, 0xFF	; 255
     7cc:	3f 4f       	sbci	r19, 0xFF	; 255
     7ce:	45 5f       	subi	r20, 0xF5	; 245
     7d0:	5f 4f       	sbci	r21, 0xFF	; 255
		tempBuffForDeviceInfo[NumOfChannels * 6 + i] = tmp_CircuitInfo.onCtrlMode[i];
		tempBuffForDeviceInfo[NumOfChannels * 7 + i] = tmp_CircuitInfo.offCtrlMode[i];
	}
	flash_writeBytes(FLASH_ADDRESS_DEVICEINFO, tempBuffForDeviceInfo, 255);

	for (i = 0; i < NumOfChannels; i++) {
     7d2:	20 31       	cpi	r18, 0x10	; 16
     7d4:	31 05       	cpc	r19, r1
     7d6:	31 f7       	brne	.-52     	; 0x7a4 <ssrInfo_WriteToEEPRom+0x92>
		wdt_reset();
		for (j = 0; j < 11; j++)
			tempBuffForDeviceInfo[i * 11 + j] = tmp_CircuitInfo.prevIlluState[i][j];
	}
	flash_writeBytes(FLASH_ADDRESS_DEVICEINFO + 1, tempBuffForDeviceInfo, 255);
     7d8:	83 e0       	ldi	r24, 0x03	; 3
     7da:	90 e0       	ldi	r25, 0x00	; 0
     7dc:	67 e1       	ldi	r22, 0x17	; 23
     7de:	74 e2       	ldi	r23, 0x24	; 36
     7e0:	4f ef       	ldi	r20, 0xFF	; 255
     7e2:	0e 94 92 07 	call	0xf24	; 0xf24 <flash_writeBytes>
     7e6:	20 e0       	ldi	r18, 0x00	; 0
     7e8:	30 e0       	ldi	r19, 0x00	; 0
     7ea:	40 e0       	ldi	r20, 0x00	; 0
     7ec:	50 e0       	ldi	r21, 0x00	; 0

	for (i = 0; i < NumOfChannels; i++) {
		wdt_reset();
     7ee:	6b e0       	ldi	r22, 0x0B	; 11
     7f0:	70 e0       	ldi	r23, 0x00	; 0
     7f2:	a8 95       	wdr
     7f4:	26 9f       	mul	r18, r22
     7f6:	f0 01       	movw	r30, r0
     7f8:	27 9f       	mul	r18, r23
     7fa:	f0 0d       	add	r31, r0
     7fc:	36 9f       	mul	r19, r22
     7fe:	f0 0d       	add	r31, r0
     800:	11 24       	eor	r1, r1
     802:	ea 5b       	subi	r30, 0xBA	; 186
     804:	f9 4d       	sbci	r31, 0xD9	; 217
     806:	da 01       	movw	r26, r20
     808:	a9 5e       	subi	r26, 0xE9	; 233
     80a:	bb 4d       	sbci	r27, 0xDB	; 219
     80c:	90 e0       	ldi	r25, 0x00	; 0
		for (j = 0; j < 11; j++)
			tempBuffForDeviceInfo[i * 11 + j] = tmp_CircuitInfo.prevIlluStateAge[i][j];
     80e:	81 91       	ld	r24, Z+
     810:	8d 93       	st	X+, r24
	}
	flash_writeBytes(FLASH_ADDRESS_DEVICEINFO + 1, tempBuffForDeviceInfo, 255);

	for (i = 0; i < NumOfChannels; i++) {
		wdt_reset();
		for (j = 0; j < 11; j++)
     812:	9f 5f       	subi	r25, 0xFF	; 255
     814:	9b 30       	cpi	r25, 0x0B	; 11
     816:	d9 f7       	brne	.-10     	; 0x80e <ssrInfo_WriteToEEPRom+0xfc>
     818:	2f 5f       	subi	r18, 0xFF	; 255
     81a:	3f 4f       	sbci	r19, 0xFF	; 255
     81c:	45 5f       	subi	r20, 0xF5	; 245
     81e:	5f 4f       	sbci	r21, 0xFF	; 255
		for (j = 0; j < 11; j++)
			tempBuffForDeviceInfo[i * 11 + j] = tmp_CircuitInfo.prevIlluState[i][j];
	}
	flash_writeBytes(FLASH_ADDRESS_DEVICEINFO + 1, tempBuffForDeviceInfo, 255);

	for (i = 0; i < NumOfChannels; i++) {
     820:	20 31       	cpi	r18, 0x10	; 16
     822:	31 05       	cpc	r19, r1
     824:	31 f7       	brne	.-52     	; 0x7f2 <ssrInfo_WriteToEEPRom+0xe0>
		wdt_reset();
		for (j = 0; j < 11; j++)
			tempBuffForDeviceInfo[i * 11 + j] = tmp_CircuitInfo.prevIlluStateAge[i][j];
	}
	flash_writeBytes(FLASH_ADDRESS_DEVICEINFO + 2, tempBuffForDeviceInfo, 255);
     826:	84 e0       	ldi	r24, 0x04	; 4
     828:	90 e0       	ldi	r25, 0x00	; 0
     82a:	67 e1       	ldi	r22, 0x17	; 23
     82c:	74 e2       	ldi	r23, 0x24	; 36
     82e:	4f ef       	ldi	r20, 0xFF	; 255
     830:	0e 94 92 07 	call	0xf24	; 0xf24 <flash_writeBytes>
}
     834:	df 91       	pop	r29
     836:	cf 91       	pop	r28
     838:	1f 91       	pop	r17
     83a:	0f 91       	pop	r16
     83c:	08 95       	ret

0000083e <getSeqNumGeneratorForDimmer>:
////////
uint8 tmpBuffForDimmer[32];
///////
static uint16 seqNumGeneratorForDimmer = 0;
uint16 getSeqNumGeneratorForDimmer() {
	return seqNumGeneratorForDimmer++;
     83e:	20 91 0e 23 	lds	r18, 0x230E
     842:	30 91 0f 23 	lds	r19, 0x230F
     846:	2f 5f       	subi	r18, 0xFF	; 255
     848:	3f 4f       	sbci	r19, 0xFF	; 255
     84a:	30 93 0f 23 	sts	0x230F, r19
     84e:	20 93 0e 23 	sts	0x230E, r18
     852:	21 50       	subi	r18, 0x01	; 1
     854:	30 40       	sbci	r19, 0x00	; 0
}
     856:	c9 01       	movw	r24, r18
     858:	08 95       	ret

0000085a <initDimmerControlInfoList>:

void initDimmerControlInfoList() {
	dimmerControlInfoList.size = 0;
     85a:	10 92 97 34 	sts	0x3497, r1
}
     85e:	08 95       	ret

00000860 <plcs_GetDCPMessage>:
			dimmerControlInfoList.size++;
		}
	}
}

uint8 plcs_GetDCPMessage(uint8 resultMsg[], uint16 destId, uint16 srcId, uint8 payload[], uint8 len) {
     860:	ef 92       	push	r14
     862:	ff 92       	push	r15
     864:	0f 93       	push	r16
     866:	cf 93       	push	r28
     868:	df 93       	push	r29
     86a:	ec 01       	movw	r28, r24
     86c:	79 01       	movw	r14, r18
////////
uint8 tmpBuffForDimmer[32];
///////
static uint16 seqNumGeneratorForDimmer = 0;
uint16 getSeqNumGeneratorForDimmer() {
	return seqNumGeneratorForDimmer++;
     86e:	80 91 0e 23 	lds	r24, 0x230E
     872:	90 91 0f 23 	lds	r25, 0x230F
     876:	01 96       	adiw	r24, 0x01	; 1
     878:	90 93 0f 23 	sts	0x230F, r25
     87c:	80 93 0e 23 	sts	0x230E, r24
     880:	01 97       	sbiw	r24, 0x01	; 1

uint8 plcs_GetDCPMessage(uint8 resultMsg[], uint16 destId, uint16 srcId, uint8 payload[], uint8 len) {
	uint8 resultLen = 0;
	uint16 seqNum = getSeqNumGeneratorForDimmer();

	resultMsg[resultLen++] = NCP_PROTOCOL_ID;
     882:	20 e8       	ldi	r18, 0x80	; 128
     884:	28 83       	st	Y, r18
	resultMsg[resultLen++] = PLCS_DCP_PROTOCOL_ID;
     886:	21 e1       	ldi	r18, 0x11	; 17
     888:	29 83       	std	Y+1, r18	; 0x01
	resultMsg[resultLen++] = seqNum >> 8;
     88a:	9a 83       	std	Y+2, r25	; 0x02
	resultMsg[resultLen++] = seqNum;
     88c:	8b 83       	std	Y+3, r24	; 0x03
	resultMsg[resultLen++] = destId >> 8;
     88e:	7c 83       	std	Y+4, r23	; 0x04
	resultMsg[resultLen++] = destId;
     890:	6d 83       	std	Y+5, r22	; 0x05
	resultMsg[resultLen++] = srcId >> 8;
     892:	5e 83       	std	Y+6, r21	; 0x06
	resultMsg[resultLen++] = srcId;
     894:	4f 83       	std	Y+7, r20	; 0x07
     896:	40 e0       	ldi	r20, 0x00	; 0
     898:	50 e0       	ldi	r21, 0x00	; 0
	for (int i = 0; i < len; i++)
     89a:	60 2f       	mov	r22, r16
     89c:	70 e0       	ldi	r23, 0x00	; 0
     89e:	0a c0       	rjmp	.+20     	; 0x8b4 <plcs_GetDCPMessage+0x54>
		resultMsg[resultLen++] = payload[i];
     8a0:	fe 01       	movw	r30, r28
     8a2:	e8 0f       	add	r30, r24
     8a4:	f1 1d       	adc	r31, r1
     8a6:	d7 01       	movw	r26, r14
     8a8:	a4 0f       	add	r26, r20
     8aa:	b5 1f       	adc	r27, r21
     8ac:	8c 91       	ld	r24, X
     8ae:	80 83       	st	Z, r24
	resultMsg[resultLen++] = seqNum;
	resultMsg[resultLen++] = destId >> 8;
	resultMsg[resultLen++] = destId;
	resultMsg[resultLen++] = srcId >> 8;
	resultMsg[resultLen++] = srcId;
	for (int i = 0; i < len; i++)
     8b0:	4f 5f       	subi	r20, 0xFF	; 255
     8b2:	5f 4f       	sbci	r21, 0xFF	; 255
     8b4:	84 2f       	mov	r24, r20
     8b6:	88 5f       	subi	r24, 0xF8	; 248
     8b8:	46 17       	cp	r20, r22
     8ba:	57 07       	cpc	r21, r23
     8bc:	8c f3       	brlt	.-30     	; 0x8a0 <plcs_GetDCPMessage+0x40>
		resultMsg[resultLen++] = payload[i];
	return resultLen;
}
     8be:	80 2f       	mov	r24, r16
     8c0:	88 5f       	subi	r24, 0xF8	; 248
     8c2:	df 91       	pop	r29
     8c4:	cf 91       	pop	r28
     8c6:	0f 91       	pop	r16
     8c8:	ff 90       	pop	r15
     8ca:	ef 90       	pop	r14
     8cc:	08 95       	ret

000008ce <dimmer_DimmingConvert>:
		sendMessage(MPR, dimmerControlInfo->dimmerId, tmpBuffForDimmer, resultLen);
	}
}

uint8 dimmer_DimmingConvert(uint8 DimLevel) {
	switch (DimLevel) {
     8ce:	84 31       	cpi	r24, 0x14	; 20
     8d0:	31 f1       	breq	.+76     	; 0x91e <dimmer_DimmingConvert+0x50>
     8d2:	85 31       	cpi	r24, 0x15	; 21
     8d4:	70 f4       	brcc	.+28     	; 0x8f2 <dimmer_DimmingConvert+0x24>
     8d6:	81 31       	cpi	r24, 0x11	; 17
     8d8:	d1 f0       	breq	.+52     	; 0x90e <dimmer_DimmingConvert+0x40>
     8da:	82 31       	cpi	r24, 0x12	; 18
     8dc:	28 f4       	brcc	.+10     	; 0x8e8 <dimmer_DimmingConvert+0x1a>
     8de:	88 23       	and	r24, r24
     8e0:	c1 f0       	breq	.+48     	; 0x912 <dimmer_DimmingConvert+0x44>
     8e2:	80 31       	cpi	r24, 0x10	; 16
     8e4:	41 f5       	brne	.+80     	; 0x936 <dimmer_DimmingConvert+0x68>
     8e6:	15 c0       	rjmp	.+42     	; 0x912 <dimmer_DimmingConvert+0x44>
     8e8:	82 31       	cpi	r24, 0x12	; 18
     8ea:	a9 f0       	breq	.+42     	; 0x916 <dimmer_DimmingConvert+0x48>
     8ec:	83 31       	cpi	r24, 0x13	; 19
     8ee:	19 f5       	brne	.+70     	; 0x936 <dimmer_DimmingConvert+0x68>
     8f0:	14 c0       	rjmp	.+40     	; 0x91a <dimmer_DimmingConvert+0x4c>
     8f2:	87 31       	cpi	r24, 0x17	; 23
     8f4:	d1 f0       	breq	.+52     	; 0x92a <dimmer_DimmingConvert+0x5c>
     8f6:	88 31       	cpi	r24, 0x18	; 24
     8f8:	28 f4       	brcc	.+10     	; 0x904 <dimmer_DimmingConvert+0x36>
     8fa:	85 31       	cpi	r24, 0x15	; 21
     8fc:	91 f0       	breq	.+36     	; 0x922 <dimmer_DimmingConvert+0x54>
     8fe:	86 31       	cpi	r24, 0x16	; 22
     900:	d1 f4       	brne	.+52     	; 0x936 <dimmer_DimmingConvert+0x68>
     902:	11 c0       	rjmp	.+34     	; 0x926 <dimmer_DimmingConvert+0x58>
     904:	88 31       	cpi	r24, 0x18	; 24
     906:	99 f0       	breq	.+38     	; 0x92e <dimmer_DimmingConvert+0x60>
     908:	89 31       	cpi	r24, 0x19	; 25
     90a:	a9 f4       	brne	.+42     	; 0x936 <dimmer_DimmingConvert+0x68>
     90c:	12 c0       	rjmp	.+36     	; 0x932 <dimmer_DimmingConvert+0x64>
     90e:	80 e2       	ldi	r24, 0x20	; 32
     910:	08 95       	ret
     912:	80 e0       	ldi	r24, 0x00	; 0
     914:	08 95       	ret
     916:	84 e3       	ldi	r24, 0x34	; 52
     918:	08 95       	ret
	case DIMMING_1:
		return 0x20;
		break;

	case DIMMING_2:
		return 0x34;
     91a:	8d e4       	ldi	r24, 0x4D	; 77
     91c:	08 95       	ret
		break;

	case DIMMING_3:
		return 0x4D;
     91e:	87 e6       	ldi	r24, 0x67	; 103
     920:	08 95       	ret
		break;

	case DIMMING_4:
		return 0x67;
     922:	80 e8       	ldi	r24, 0x80	; 128
     924:	08 95       	ret
		break;

	case DIMMING_5:
		return 0x80;
     926:	8a e9       	ldi	r24, 0x9A	; 154
     928:	08 95       	ret
		break;

	case DIMMING_6:
		return 0x9A;
     92a:	83 eb       	ldi	r24, 0xB3	; 179
     92c:	08 95       	ret
		break;

	case DIMMING_7:
		return 0xB3;
     92e:	8d ec       	ldi	r24, 0xCD	; 205
     930:	08 95       	ret
		break;

	case DIMMING_8:
		return 0xCD;
     932:	86 ee       	ldi	r24, 0xE6	; 230
     934:	08 95       	ret
		break;

	case DIMMING_9:
		return 0xE6;
     936:	8e ef       	ldi	r24, 0xFE	; 254
	default:
		return 0xFE;
		break;
	}
	return 0xFE;
}
     938:	08 95       	ret

0000093a <dimmer_SendReqDimming>:
	for (int i = 0; i < len; i++)
		resultMsg[resultLen++] = payload[i];
	return resultLen;
}

void dimmer_SendReqDimming(dimmerControl_Info_st *dimmerControlInfo) {
     93a:	8f 92       	push	r8
     93c:	9f 92       	push	r9
     93e:	af 92       	push	r10
     940:	bf 92       	push	r11
     942:	cf 92       	push	r12
     944:	df 92       	push	r13
     946:	ef 92       	push	r14
     948:	ff 92       	push	r15
     94a:	0f 93       	push	r16
     94c:	1f 93       	push	r17
     94e:	df 93       	push	r29
     950:	cf 93       	push	r28
     952:	cd b7       	in	r28, 0x3d	; 61
     954:	de b7       	in	r29, 0x3e	; 62
     956:	2a 97       	sbiw	r28, 0x0a	; 10
     958:	0f b6       	in	r0, 0x3f	; 63
     95a:	f8 94       	cli
     95c:	de bf       	out	0x3e, r29	; 62
     95e:	0f be       	out	0x3f, r0	; 63
     960:	cd bf       	out	0x3d, r28	; 61
     962:	4c 01       	movw	r8, r24
	int len = 0;
	uint8 payload[10];
	uint8 resultLen;
	device_Info* deviceInfo_P;

	if (dimmerControlInfo == NULL)
     964:	00 97       	sbiw	r24, 0x00	; 0
     966:	09 f4       	brne	.+2      	; 0x96a <dimmer_SendReqDimming+0x30>
     968:	5e c0       	rjmp	.+188    	; 0xa26 <dimmer_SendReqDimming+0xec>
		return;

	len = 0;
	payload[len++] = PLCS_DCP_REQ_DIMMING;
     96a:	82 e3       	ldi	r24, 0x32	; 50
     96c:	89 83       	std	Y+1, r24	; 0x01
	payload[len++] = dimmerControlInfo->dimmerId >> 8;
     96e:	f4 01       	movw	r30, r8
     970:	81 81       	ldd	r24, Z+1	; 0x01
     972:	8a 83       	std	Y+2, r24	; 0x02
	payload[len++] = dimmerControlInfo->dimmerId;
     974:	80 81       	ld	r24, Z
     976:	8b 83       	std	Y+3, r24	; 0x03
	payload[len++] = dimmer_DimmingConvert(*(dimmerControlInfo->channelState[0]));
     978:	a6 80       	ldd	r10, Z+6	; 0x06
     97a:	b7 80       	ldd	r11, Z+7	; 0x07
     97c:	f5 01       	movw	r30, r10
     97e:	80 81       	ld	r24, Z
     980:	0e 94 67 04 	call	0x8ce	; 0x8ce <dimmer_DimmingConvert>
     984:	8c 83       	std	Y+4, r24	; 0x04
	payload[len++] = dimmer_DimmingConvert(*(dimmerControlInfo->channelState[1]));
     986:	f4 01       	movw	r30, r8
     988:	c0 84       	ldd	r12, Z+8	; 0x08
     98a:	d1 84       	ldd	r13, Z+9	; 0x09
     98c:	f6 01       	movw	r30, r12
     98e:	80 81       	ld	r24, Z
     990:	0e 94 67 04 	call	0x8ce	; 0x8ce <dimmer_DimmingConvert>
     994:	8d 83       	std	Y+5, r24	; 0x05
	payload[len++] = dimmer_DimmingConvert(*(dimmerControlInfo->channelState[2]));
     996:	f4 01       	movw	r30, r8
     998:	e2 84       	ldd	r14, Z+10	; 0x0a
     99a:	f3 84       	ldd	r15, Z+11	; 0x0b
     99c:	f7 01       	movw	r30, r14
     99e:	80 81       	ld	r24, Z
     9a0:	0e 94 67 04 	call	0x8ce	; 0x8ce <dimmer_DimmingConvert>
     9a4:	8e 83       	std	Y+6, r24	; 0x06
	payload[len++] = dimmer_DimmingConvert(*(dimmerControlInfo->channelState[3]));
     9a6:	f4 01       	movw	r30, r8
     9a8:	04 85       	ldd	r16, Z+12	; 0x0c
     9aa:	15 85       	ldd	r17, Z+13	; 0x0d
     9ac:	f8 01       	movw	r30, r16
     9ae:	80 81       	ld	r24, Z
     9b0:	0e 94 67 04 	call	0x8ce	; 0x8ce <dimmer_DimmingConvert>
     9b4:	8f 83       	std	Y+7, r24	; 0x07

	dimmerControlInfo->prevChannelState[0] = *(dimmerControlInfo->channelState[0]);
     9b6:	f5 01       	movw	r30, r10
     9b8:	80 81       	ld	r24, Z
     9ba:	f4 01       	movw	r30, r8
     9bc:	82 83       	std	Z+2, r24	; 0x02
	dimmerControlInfo->prevChannelState[1] = *(dimmerControlInfo->channelState[1]);
     9be:	f6 01       	movw	r30, r12
     9c0:	80 81       	ld	r24, Z
     9c2:	f4 01       	movw	r30, r8
     9c4:	83 83       	std	Z+3, r24	; 0x03
	dimmerControlInfo->prevChannelState[2] = *(dimmerControlInfo->channelState[2]);
     9c6:	f7 01       	movw	r30, r14
     9c8:	80 81       	ld	r24, Z
     9ca:	f4 01       	movw	r30, r8
     9cc:	84 83       	std	Z+4, r24	; 0x04
	dimmerControlInfo->prevChannelState[3] = *(dimmerControlInfo->channelState[3]);
     9ce:	f8 01       	movw	r30, r16
     9d0:	80 81       	ld	r24, Z
     9d2:	f4 01       	movw	r30, r8
     9d4:	85 83       	std	Z+5, r24	; 0x05

	resultLen = plcs_GetDCPMessage(tmpBuffForDimmer, dimmerControlInfo->dimmerId, zrmpInfo_0.zrm_Id,
     9d6:	60 81       	ld	r22, Z
     9d8:	71 81       	ldd	r23, Z+1	; 0x01
     9da:	40 91 b6 3d 	lds	r20, 0x3DB6
     9de:	50 91 b7 3d 	lds	r21, 0x3DB7
     9e2:	8e e9       	ldi	r24, 0x9E	; 158
     9e4:	94 e3       	ldi	r25, 0x34	; 52
     9e6:	9e 01       	movw	r18, r28
     9e8:	2f 5f       	subi	r18, 0xFF	; 255
     9ea:	3f 4f       	sbci	r19, 0xFF	; 255
     9ec:	07 e0       	ldi	r16, 0x07	; 7
     9ee:	0e 94 30 04 	call	0x860	; 0x860 <plcs_GetDCPMessage>
     9f2:	08 2f       	mov	r16, r24
			payload, len);

	deviceInfo_P = findNodeById(dimmerControlInfo->dimmerId);
     9f4:	f4 01       	movw	r30, r8
     9f6:	80 81       	ld	r24, Z
     9f8:	91 81       	ldd	r25, Z+1	; 0x01
     9fa:	0e 94 d1 00 	call	0x1a2	; 0x1a2 <findNodeById>
     9fe:	fc 01       	movw	r30, r24
	if (deviceInfo_P != NULL) {
     a00:	00 97       	sbiw	r24, 0x00	; 0
     a02:	89 f0       	breq	.+34     	; 0xa26 <dimmer_SendReqDimming+0xec>
		sendToZigbee(ZIGBEE_1, deviceInfo_P->netAddr, tmpBuffForDimmer, resultLen);
     a04:	63 85       	ldd	r22, Z+11	; 0x0b
     a06:	74 85       	ldd	r23, Z+12	; 0x0c
     a08:	82 e0       	ldi	r24, 0x02	; 2
     a0a:	4e e9       	ldi	r20, 0x9E	; 158
     a0c:	54 e3       	ldi	r21, 0x34	; 52
     a0e:	20 2f       	mov	r18, r16
     a10:	0e 94 3d 38 	call	0x707a	; 0x707a <sendToZigbee>
		sendMessage(MPR, dimmerControlInfo->dimmerId, tmpBuffForDimmer, resultLen);
     a14:	f4 01       	movw	r30, r8
     a16:	60 81       	ld	r22, Z
     a18:	71 81       	ldd	r23, Z+1	; 0x01
     a1a:	84 e0       	ldi	r24, 0x04	; 4
     a1c:	4e e9       	ldi	r20, 0x9E	; 158
     a1e:	54 e3       	ldi	r21, 0x34	; 52
     a20:	20 2f       	mov	r18, r16
     a22:	0e 94 ed 2f 	call	0x5fda	; 0x5fda <sendMessage>
	}
}
     a26:	2a 96       	adiw	r28, 0x0a	; 10
     a28:	0f b6       	in	r0, 0x3f	; 63
     a2a:	f8 94       	cli
     a2c:	de bf       	out	0x3e, r29	; 62
     a2e:	0f be       	out	0x3f, r0	; 63
     a30:	cd bf       	out	0x3d, r28	; 61
     a32:	cf 91       	pop	r28
     a34:	df 91       	pop	r29
     a36:	1f 91       	pop	r17
     a38:	0f 91       	pop	r16
     a3a:	ff 90       	pop	r15
     a3c:	ef 90       	pop	r14
     a3e:	df 90       	pop	r13
     a40:	cf 90       	pop	r12
     a42:	bf 90       	pop	r11
     a44:	af 90       	pop	r10
     a46:	9f 90       	pop	r9
     a48:	8f 90       	pop	r8
     a4a:	08 95       	ret

00000a4c <updateDimmerControlInfoList>:

void initDimmerControlInfoList() {
	dimmerControlInfoList.size = 0;
}

void updateDimmerControlInfoList() {
     a4c:	0f 93       	push	r16
     a4e:	1f 93       	push	r17
uint16 getSeqNumGeneratorForDimmer() {
	return seqNumGeneratorForDimmer++;
}

void initDimmerControlInfoList() {
	dimmerControlInfoList.size = 0;
     a50:	10 92 97 34 	sts	0x3497, r1
     a54:	00 e0       	ldi	r16, 0x00	; 0
     a56:	36 c0       	rjmp	.+108    	; 0xac4 <updateDimmerControlInfoList+0x78>

	initDimmerControlInfoList();

	for (i = 0; i < getDimmerMappingTableSize(); i++) {
		isContainDimmerInfo = 0;
		DimmerMappingInfo_st *info = getDimmerMappingInfoByIndex(i);
     a58:	80 2f       	mov	r24, r16
     a5a:	0e 94 ee 08 	call	0x11dc	; 0x11dc <getDimmerMappingInfoByIndex>
     a5e:	dc 01       	movw	r26, r24
		if (info == NULL)
     a60:	00 97       	sbiw	r24, 0x00	; 0
     a62:	79 f1       	breq	.+94     	; 0xac2 <updateDimmerControlInfoList+0x76>
			continue;
		for (j = 0; j < dimmerControlInfoList.size; j++)
     a64:	10 91 97 34 	lds	r17, 0x3497
     a68:	ef e7       	ldi	r30, 0x7F	; 127
     a6a:	f3 e3       	ldi	r31, 0x33	; 51
     a6c:	20 e0       	ldi	r18, 0x00	; 0
     a6e:	30 e0       	ldi	r19, 0x00	; 0
     a70:	22 c0       	rjmp	.+68     	; 0xab6 <updateDimmerControlInfoList+0x6a>
     a72:	a9 01       	movw	r20, r18
			if (dimmerControlInfoList.info[j].dimmerId == info->dimmerId) {
     a74:	80 81       	ld	r24, Z
     a76:	91 81       	ldd	r25, Z+1	; 0x01
     a78:	2f 5f       	subi	r18, 0xFF	; 255
     a7a:	3f 4f       	sbci	r19, 0xFF	; 255
     a7c:	3e 96       	adiw	r30, 0x0e	; 14
     a7e:	86 17       	cp	r24, r22
     a80:	97 07       	cpc	r25, r23
     a82:	c9 f4       	brne	.+50     	; 0xab6 <updateDimmerControlInfoList+0x6a>

				dimmerControlInfoList.info[j].channelState[info->channelId] =
     a84:	12 96       	adiw	r26, 0x02	; 2
     a86:	8c 91       	ld	r24, X
     a88:	12 97       	sbiw	r26, 0x02	; 2
     a8a:	fa 01       	movw	r30, r20
     a8c:	73 e0       	ldi	r23, 0x03	; 3
     a8e:	ee 0f       	add	r30, r30
     a90:	ff 1f       	adc	r31, r31
     a92:	7a 95       	dec	r23
     a94:	e1 f7       	brne	.-8      	; 0xa8e <updateDimmerControlInfoList+0x42>
     a96:	e4 1b       	sub	r30, r20
     a98:	f5 0b       	sbc	r31, r21
     a9a:	e8 0f       	add	r30, r24
     a9c:	f1 1d       	adc	r31, r1
     a9e:	ee 0f       	add	r30, r30
     aa0:	ff 1f       	adc	r31, r31
     aa2:	eb 57       	subi	r30, 0x7B	; 123
     aa4:	fc 4c       	sbci	r31, 0xCC	; 204
     aa6:	13 96       	adiw	r26, 0x03	; 3
     aa8:	8c 91       	ld	r24, X
     aaa:	90 e0       	ldi	r25, 0x00	; 0
     aac:	8a 5d       	subi	r24, 0xDA	; 218
     aae:	9a 4d       	sbci	r25, 0xDA	; 218
     ab0:	91 83       	std	Z+1, r25	; 0x01
     ab2:	80 83       	st	Z, r24
     ab4:	06 c0       	rjmp	.+12     	; 0xac2 <updateDimmerControlInfoList+0x76>
     ab6:	6d 91       	ld	r22, X+
     ab8:	7c 91       	ld	r23, X
     aba:	11 97       	sbiw	r26, 0x01	; 1
	for (i = 0; i < getDimmerMappingTableSize(); i++) {
		isContainDimmerInfo = 0;
		DimmerMappingInfo_st *info = getDimmerMappingInfoByIndex(i);
		if (info == NULL)
			continue;
		for (j = 0; j < dimmerControlInfoList.size; j++)
     abc:	21 17       	cp	r18, r17
     abe:	c8 f2       	brcs	.-78     	; 0xa72 <updateDimmerControlInfoList+0x26>
     ac0:	06 c0       	rjmp	.+12     	; 0xace <updateDimmerControlInfoList+0x82>
	uint8 j = 0;
	uint8 isContainDimmerInfo = 0;

	initDimmerControlInfoList();

	for (i = 0; i < getDimmerMappingTableSize(); i++) {
     ac2:	0f 5f       	subi	r16, 0xFF	; 255
     ac4:	0e 94 e0 08 	call	0x11c0	; 0x11c0 <getDimmerMappingTableSize>
     ac8:	08 17       	cp	r16, r24
     aca:	30 f2       	brcs	.-116    	; 0xa58 <updateDimmerControlInfoList+0xc>
     acc:	35 c0       	rjmp	.+106    	; 0xb38 <updateDimmerControlInfoList+0xec>
						&(tmp_CircuitInfo.state[info->circuitId]);
				isContainDimmerInfo = 1;
				break;
			}
		if (isContainDimmerInfo == 0) {
			dimmerControlInfoList.info[dimmerControlInfoList.size].dimmerId = info->dimmerId;
     ace:	21 2f       	mov	r18, r17
     ad0:	30 e0       	ldi	r19, 0x00	; 0
     ad2:	c9 01       	movw	r24, r18
     ad4:	88 0f       	add	r24, r24
     ad6:	99 1f       	adc	r25, r25
     ad8:	fc 01       	movw	r30, r24
     ada:	43 e0       	ldi	r20, 0x03	; 3
     adc:	ee 0f       	add	r30, r30
     ade:	ff 1f       	adc	r31, r31
     ae0:	4a 95       	dec	r20
     ae2:	e1 f7       	brne	.-8      	; 0xadc <updateDimmerControlInfoList+0x90>
     ae4:	e8 1b       	sub	r30, r24
     ae6:	f9 0b       	sbc	r31, r25
     ae8:	e1 58       	subi	r30, 0x81	; 129
     aea:	fc 4c       	sbci	r31, 0xCC	; 204
     aec:	71 83       	std	Z+1, r23	; 0x01
     aee:	60 83       	st	Z, r22

			dimmerControlInfoList.info[dimmerControlInfoList.size].channelState[0] = NULL;
     af0:	17 82       	std	Z+7, r1	; 0x07
     af2:	16 82       	std	Z+6, r1	; 0x06
			dimmerControlInfoList.info[dimmerControlInfoList.size].channelState[1] = NULL;
     af4:	11 86       	std	Z+9, r1	; 0x09
     af6:	10 86       	std	Z+8, r1	; 0x08
			dimmerControlInfoList.info[dimmerControlInfoList.size].channelState[2] = NULL;
     af8:	13 86       	std	Z+11, r1	; 0x0b
     afa:	12 86       	std	Z+10, r1	; 0x0a
			dimmerControlInfoList.info[dimmerControlInfoList.size].channelState[3] = NULL;
     afc:	15 86       	std	Z+13, r1	; 0x0d
     afe:	14 86       	std	Z+12, r1	; 0x0c

			dimmerControlInfoList.info[dimmerControlInfoList.size].channelState[info->channelId] =
     b00:	12 96       	adiw	r26, 0x02	; 2
     b02:	8c 91       	ld	r24, X
     b04:	12 97       	sbiw	r26, 0x02	; 2
     b06:	f9 01       	movw	r30, r18
     b08:	93 e0       	ldi	r25, 0x03	; 3
     b0a:	ee 0f       	add	r30, r30
     b0c:	ff 1f       	adc	r31, r31
     b0e:	9a 95       	dec	r25
     b10:	e1 f7       	brne	.-8      	; 0xb0a <updateDimmerControlInfoList+0xbe>
     b12:	e2 1b       	sub	r30, r18
     b14:	f3 0b       	sbc	r31, r19
     b16:	e8 0f       	add	r30, r24
     b18:	f1 1d       	adc	r31, r1
     b1a:	ee 0f       	add	r30, r30
     b1c:	ff 1f       	adc	r31, r31
     b1e:	eb 57       	subi	r30, 0x7B	; 123
     b20:	fc 4c       	sbci	r31, 0xCC	; 204
     b22:	13 96       	adiw	r26, 0x03	; 3
     b24:	8c 91       	ld	r24, X
     b26:	90 e0       	ldi	r25, 0x00	; 0
     b28:	8a 5d       	subi	r24, 0xDA	; 218
     b2a:	9a 4d       	sbci	r25, 0xDA	; 218
     b2c:	91 83       	std	Z+1, r25	; 0x01
     b2e:	80 83       	st	Z, r24
					&(tmp_CircuitInfo.state[info->circuitId]);
			dimmerControlInfoList.size++;
     b30:	1f 5f       	subi	r17, 0xFF	; 255
     b32:	10 93 97 34 	sts	0x3497, r17
     b36:	c5 cf       	rjmp	.-118    	; 0xac2 <updateDimmerControlInfoList+0x76>
		}
	}
}
     b38:	1f 91       	pop	r17
     b3a:	0f 91       	pop	r16
     b3c:	08 95       	ret

00000b3e <flash_init>:
#define CLEAR_SI() (PORTD &= ~(0x40))

#define GET_SO() (PIND & 0x80)

void flash_init() {
	DDRD |= 0x43;
     b3e:	8a b1       	in	r24, 0x0a	; 10
     b40:	83 64       	ori	r24, 0x43	; 67
     b42:	8a b9       	out	0x0a, r24	; 10
	DDRD &= ~(0x80);
     b44:	57 98       	cbi	0x0a, 7	; 10

	//DDRC |= 0x60;

	//PORTC |= (0x04);

	SET_NCS();
     b46:	58 9a       	sbi	0x0b, 0	; 11
}
     b48:	08 95       	ret

00000b4a <clk>:
    can be achieved.
*/
void
_delay_loop_1(uint8_t __count)
{
	__asm__ volatile (
     b4a:	8a e1       	ldi	r24, 0x1A	; 26
     b4c:	98 2f       	mov	r25, r24
     b4e:	9a 95       	dec	r25
     b50:	f1 f7       	brne	.-4      	; 0xb4e <clk+0x4>

void clk() {
	USLEEP(5);
	SET_CLK();
     b52:	59 9a       	sbi	0x0b, 1	; 11
     b54:	8a 95       	dec	r24
     b56:	f1 f7       	brne	.-4      	; 0xb54 <clk+0xa>
	USLEEP(5);
	// MIN: 7ns
	CLEAR_CLK();
     b58:	59 98       	cbi	0x0b, 1	; 11
}
     b5a:	08 95       	ret

00000b5c <flash_writeByteToSI>:

void flash_writeByteToSI(uint8 data) {
     b5c:	0f 93       	push	r16
     b5e:	1f 93       	push	r17
     b60:	cf 93       	push	r28
     b62:	df 93       	push	r29
     b64:	c7 e0       	ldi	r28, 0x07	; 7
     b66:	d0 e0       	ldi	r29, 0x00	; 0
	int i = 0;
	for (i = 7; i >= 0; i--) {
		if ((data & (1 << i)) != 0)
     b68:	08 2f       	mov	r16, r24
     b6a:	10 e0       	ldi	r17, 0x00	; 0
     b6c:	c8 01       	movw	r24, r16
     b6e:	0c 2e       	mov	r0, r28
     b70:	02 c0       	rjmp	.+4      	; 0xb76 <flash_writeByteToSI+0x1a>
     b72:	95 95       	asr	r25
     b74:	87 95       	ror	r24
     b76:	0a 94       	dec	r0
     b78:	e2 f7       	brpl	.-8      	; 0xb72 <flash_writeByteToSI+0x16>
     b7a:	80 ff       	sbrs	r24, 0
     b7c:	02 c0       	rjmp	.+4      	; 0xb82 <flash_writeByteToSI+0x26>
			SET_SI();
     b7e:	5e 9a       	sbi	0x0b, 6	; 11
     b80:	01 c0       	rjmp	.+2      	; 0xb84 <flash_writeByteToSI+0x28>
		else
			CLEAR_SI();
     b82:	5e 98       	cbi	0x0b, 6	; 11
		clk();
     b84:	0e 94 a5 05 	call	0xb4a	; 0xb4a <clk>
	CLEAR_CLK();
}

void flash_writeByteToSI(uint8 data) {
	int i = 0;
	for (i = 7; i >= 0; i--) {
     b88:	21 97       	sbiw	r28, 0x01	; 1
     b8a:	8f ef       	ldi	r24, 0xFF	; 255
     b8c:	cf 3f       	cpi	r28, 0xFF	; 255
     b8e:	d8 07       	cpc	r29, r24
     b90:	69 f7       	brne	.-38     	; 0xb6c <flash_writeByteToSI+0x10>
			SET_SI();
		else
			CLEAR_SI();
		clk();
	}
}
     b92:	df 91       	pop	r29
     b94:	cf 91       	pop	r28
     b96:	1f 91       	pop	r17
     b98:	0f 91       	pop	r16
     b9a:	08 95       	ret

00000b9c <flash_readByteFromSO>:

uint8 flash_readByteFromSO() {
     b9c:	ef 92       	push	r14
     b9e:	ff 92       	push	r15
     ba0:	1f 93       	push	r17
     ba2:	cf 93       	push	r28
     ba4:	df 93       	push	r29
     ba6:	c7 e0       	ldi	r28, 0x07	; 7
     ba8:	d0 e0       	ldi	r29, 0x00	; 0
     baa:	10 e0       	ldi	r17, 0x00	; 0

	for (i = 7; i >= 0; i--) {
		if (GET_SO() == 0)
			data |= 0;
		else
			data |= (0x01 << i);
     bac:	81 e0       	ldi	r24, 0x01	; 1
     bae:	e8 2e       	mov	r14, r24
     bb0:	f1 2c       	mov	r15, r1
uint8 flash_readByteFromSO() {
	int i = 0;
	uint8 data = 0;

	for (i = 7; i >= 0; i--) {
		if (GET_SO() == 0)
     bb2:	4f 9b       	sbis	0x09, 7	; 9
     bb4:	08 c0       	rjmp	.+16     	; 0xbc6 <flash_readByteFromSO+0x2a>
			data |= 0;
		else
			data |= (0x01 << i);
     bb6:	c7 01       	movw	r24, r14
     bb8:	0c 2e       	mov	r0, r28
     bba:	02 c0       	rjmp	.+4      	; 0xbc0 <flash_readByteFromSO+0x24>
     bbc:	88 0f       	add	r24, r24
     bbe:	99 1f       	adc	r25, r25
     bc0:	0a 94       	dec	r0
     bc2:	e2 f7       	brpl	.-8      	; 0xbbc <flash_readByteFromSO+0x20>
     bc4:	18 2b       	or	r17, r24
		clk();
     bc6:	0e 94 a5 05 	call	0xb4a	; 0xb4a <clk>

uint8 flash_readByteFromSO() {
	int i = 0;
	uint8 data = 0;

	for (i = 7; i >= 0; i--) {
     bca:	21 97       	sbiw	r28, 0x01	; 1
     bcc:	8f ef       	ldi	r24, 0xFF	; 255
     bce:	cf 3f       	cpi	r28, 0xFF	; 255
     bd0:	d8 07       	cpc	r29, r24
     bd2:	79 f7       	brne	.-34     	; 0xbb2 <flash_readByteFromSO+0x16>
			data |= (0x01 << i);
		clk();
	}

	return data;
}
     bd4:	81 2f       	mov	r24, r17
     bd6:	df 91       	pop	r29
     bd8:	cf 91       	pop	r28
     bda:	1f 91       	pop	r17
     bdc:	ff 90       	pop	r15
     bde:	ef 90       	pop	r14
     be0:	08 95       	ret

00000be2 <flash_bufferWrite>:

void flash_bufferWrite(uint16 address, uint8 size, uint8 *data) {
     be2:	df 92       	push	r13
     be4:	ef 92       	push	r14
     be6:	ff 92       	push	r15
     be8:	0f 93       	push	r16
     bea:	1f 93       	push	r17
     bec:	cf 93       	push	r28
     bee:	df 93       	push	r29
     bf0:	8c 01       	movw	r16, r24
     bf2:	d6 2e       	mov	r13, r22
     bf4:	f4 2e       	mov	r15, r20
     bf6:	e5 2e       	mov	r14, r21
	uint8 i = 0;
	uint8 cmd = 0x84;

	CLEAR_NCS();
     bf8:	58 98       	cbi	0x0b, 0	; 11
    milliseconds can be achieved.
 */
void
_delay_loop_2(uint16_t __count)
{
	__asm__ volatile (
     bfa:	80 ea       	ldi	r24, 0xA0	; 160
     bfc:	9f e0       	ldi	r25, 0x0F	; 15
     bfe:	01 97       	sbiw	r24, 0x01	; 1
     c00:	f1 f7       	brne	.-4      	; 0xbfe <flash_bufferWrite+0x1c>
	MSLEEP(1);

	flash_writeByteToSI(cmd);
     c02:	84 e8       	ldi	r24, 0x84	; 132
     c04:	0e 94 ae 05 	call	0xb5c	; 0xb5c <flash_writeByteToSI>
	flash_writeByteToSI(0);
     c08:	80 e0       	ldi	r24, 0x00	; 0
     c0a:	0e 94 ae 05 	call	0xb5c	; 0xb5c <flash_writeByteToSI>
	flash_writeByteToSI(address >> 8);
     c0e:	81 2f       	mov	r24, r17
     c10:	0e 94 ae 05 	call	0xb5c	; 0xb5c <flash_writeByteToSI>
	flash_writeByteToSI(address);
     c14:	80 2f       	mov	r24, r16
     c16:	0e 94 ae 05 	call	0xb5c	; 0xb5c <flash_writeByteToSI>
     c1a:	2f 2d       	mov	r18, r15
     c1c:	3e 2d       	mov	r19, r14
     c1e:	c9 01       	movw	r24, r18
     c20:	ec 01       	movw	r28, r24
     c22:	10 e0       	ldi	r17, 0x00	; 0
     c24:	04 c0       	rjmp	.+8      	; 0xc2e <flash_bufferWrite+0x4c>

	for (i = 0; i < size; i++) {
		flash_writeByteToSI(data[i]);
     c26:	89 91       	ld	r24, Y+
     c28:	0e 94 ae 05 	call	0xb5c	; 0xb5c <flash_writeByteToSI>
	flash_writeByteToSI(cmd);
	flash_writeByteToSI(0);
	flash_writeByteToSI(address >> 8);
	flash_writeByteToSI(address);

	for (i = 0; i < size; i++) {
     c2c:	1f 5f       	subi	r17, 0xFF	; 255
     c2e:	1d 15       	cp	r17, r13
     c30:	d0 f3       	brcs	.-12     	; 0xc26 <flash_bufferWrite+0x44>
     c32:	80 ea       	ldi	r24, 0xA0	; 160
     c34:	9f e0       	ldi	r25, 0x0F	; 15
     c36:	01 97       	sbiw	r24, 0x01	; 1
     c38:	f1 f7       	brne	.-4      	; 0xc36 <flash_bufferWrite+0x54>
		flash_writeByteToSI(data[i]);
	}
	MSLEEP(1);
	SET_NCS();
     c3a:	58 9a       	sbi	0x0b, 0	; 11
}
     c3c:	df 91       	pop	r29
     c3e:	cf 91       	pop	r28
     c40:	1f 91       	pop	r17
     c42:	0f 91       	pop	r16
     c44:	ff 90       	pop	r15
     c46:	ef 90       	pop	r14
     c48:	df 90       	pop	r13
     c4a:	08 95       	ret

00000c4c <flash_bufferToMainMemory>:

void flash_bufferToMainMemory(uint16 address) {
     c4c:	ef 92       	push	r14
     c4e:	ff 92       	push	r15
     c50:	0f 93       	push	r16
     c52:	1f 93       	push	r17
     c54:	8c 01       	movw	r16, r24
	uint8 cmd = 0x83;

	CLEAR_NCS();
     c56:	58 98       	cbi	0x0b, 0	; 11
     c58:	30 ea       	ldi	r19, 0xA0	; 160
     c5a:	e3 2e       	mov	r14, r19
     c5c:	3f e0       	ldi	r19, 0x0F	; 15
     c5e:	f3 2e       	mov	r15, r19
     c60:	c7 01       	movw	r24, r14
     c62:	01 97       	sbiw	r24, 0x01	; 1
     c64:	f1 f7       	brne	.-4      	; 0xc62 <flash_bufferToMainMemory+0x16>
	MSLEEP(1);

	flash_writeByteToSI(cmd);
     c66:	83 e8       	ldi	r24, 0x83	; 131
     c68:	0e 94 ae 05 	call	0xb5c	; 0xb5c <flash_writeByteToSI>
	flash_writeByteToSI(address >> 7);
     c6c:	c8 01       	movw	r24, r16
     c6e:	88 0f       	add	r24, r24
     c70:	89 2f       	mov	r24, r25
     c72:	88 1f       	adc	r24, r24
     c74:	99 0b       	sbc	r25, r25
     c76:	91 95       	neg	r25
     c78:	0e 94 ae 05 	call	0xb5c	; 0xb5c <flash_writeByteToSI>
	flash_writeByteToSI(address << 1);
     c7c:	80 2f       	mov	r24, r16
     c7e:	88 0f       	add	r24, r24
     c80:	0e 94 ae 05 	call	0xb5c	; 0xb5c <flash_writeByteToSI>
	flash_writeByteToSI(0);
     c84:	80 e0       	ldi	r24, 0x00	; 0
     c86:	0e 94 ae 05 	call	0xb5c	; 0xb5c <flash_writeByteToSI>
     c8a:	c7 01       	movw	r24, r14
     c8c:	01 97       	sbiw	r24, 0x01	; 1
     c8e:	f1 f7       	brne	.-4      	; 0xc8c <flash_bufferToMainMemory+0x40>

	MSLEEP(1);
	SET_NCS();
     c90:	58 9a       	sbi	0x0b, 0	; 11
}
     c92:	1f 91       	pop	r17
     c94:	0f 91       	pop	r16
     c96:	ff 90       	pop	r15
     c98:	ef 90       	pop	r14
     c9a:	08 95       	ret

00000c9c <flash_writeUint8>:

void flash_writeUint8(uint16 address, uint8 data) {
     c9c:	0f 93       	push	r16
     c9e:	1f 93       	push	r17
     ca0:	df 93       	push	r29
     ca2:	cf 93       	push	r28
     ca4:	0f 92       	push	r0
     ca6:	cd b7       	in	r28, 0x3d	; 61
     ca8:	de b7       	in	r29, 0x3e	; 62
     caa:	8c 01       	movw	r16, r24
     cac:	69 83       	std	Y+1, r22	; 0x01
	flash_bufferWrite(0, 1, &data);
     cae:	80 e0       	ldi	r24, 0x00	; 0
     cb0:	90 e0       	ldi	r25, 0x00	; 0
     cb2:	61 e0       	ldi	r22, 0x01	; 1
     cb4:	ae 01       	movw	r20, r28
     cb6:	4f 5f       	subi	r20, 0xFF	; 255
     cb8:	5f 4f       	sbci	r21, 0xFF	; 255
     cba:	0e 94 f1 05 	call	0xbe2	; 0xbe2 <flash_bufferWrite>
	flash_bufferToMainMemory(address);
     cbe:	c8 01       	movw	r24, r16
     cc0:	0e 94 26 06 	call	0xc4c	; 0xc4c <flash_bufferToMainMemory>
     cc4:	80 e4       	ldi	r24, 0x40	; 64
     cc6:	9c e9       	ldi	r25, 0x9C	; 156
     cc8:	01 97       	sbiw	r24, 0x01	; 1
     cca:	f1 f7       	brne	.-4      	; 0xcc8 <flash_writeUint8+0x2c>

	MSLEEP(10);
}
     ccc:	0f 90       	pop	r0
     cce:	cf 91       	pop	r28
     cd0:	df 91       	pop	r29
     cd2:	1f 91       	pop	r17
     cd4:	0f 91       	pop	r16
     cd6:	08 95       	ret

00000cd8 <flash_bufferReadUint8>:

uint8 flash_bufferReadUint8(uint16 address) {
     cd8:	0f 93       	push	r16
     cda:	1f 93       	push	r17
     cdc:	8c 01       	movw	r16, r24
	uint8 data = 0x00;
	uint8 cmd = 0xd4;
	uint8 i = 0;

	CLEAR_NCS();
     cde:	58 98       	cbi	0x0b, 0	; 11
	clk();
     ce0:	0e 94 a5 05 	call	0xb4a	; 0xb4a <clk>

	flash_writeByteToSI(cmd);
     ce4:	84 ed       	ldi	r24, 0xD4	; 212
     ce6:	0e 94 ae 05 	call	0xb5c	; 0xb5c <flash_writeByteToSI>
	flash_writeByteToSI(0);
     cea:	80 e0       	ldi	r24, 0x00	; 0
     cec:	0e 94 ae 05 	call	0xb5c	; 0xb5c <flash_writeByteToSI>
	flash_writeByteToSI(address >> 8);
     cf0:	81 2f       	mov	r24, r17
     cf2:	0e 94 ae 05 	call	0xb5c	; 0xb5c <flash_writeByteToSI>
	flash_writeByteToSI(address);
     cf6:	80 2f       	mov	r24, r16
     cf8:	0e 94 ae 05 	call	0xb5c	; 0xb5c <flash_writeByteToSI>
	flash_writeByteToSI(0);
     cfc:	80 e0       	ldi	r24, 0x00	; 0
     cfe:	0e 94 ae 05 	call	0xb5c	; 0xb5c <flash_writeByteToSI>

	data = flash_readByteFromSO();
     d02:	0e 94 ce 05 	call	0xb9c	; 0xb9c <flash_readByteFromSO>

	SET_NCS();
     d06:	58 9a       	sbi	0x0b, 0	; 11
	return data;
}
     d08:	1f 91       	pop	r17
     d0a:	0f 91       	pop	r16
     d0c:	08 95       	ret

00000d0e <flash_readUint8>:

uint8 flash_readUint8(uint16 address) {
     d0e:	0f 93       	push	r16
     d10:	1f 93       	push	r17
     d12:	8c 01       	movw	r16, r24
	uint8 data = 0x00;
	uint8 cmd = 0xd2;
	uint8 i = 0;

	CLEAR_NCS();
     d14:	58 98       	cbi	0x0b, 0	; 11
     d16:	80 ea       	ldi	r24, 0xA0	; 160
     d18:	9f e0       	ldi	r25, 0x0F	; 15
     d1a:	01 97       	sbiw	r24, 0x01	; 1
     d1c:	f1 f7       	brne	.-4      	; 0xd1a <flash_readUint8+0xc>
	MSLEEP(1);

	flash_writeByteToSI(cmd);
     d1e:	82 ed       	ldi	r24, 0xD2	; 210
     d20:	0e 94 ae 05 	call	0xb5c	; 0xb5c <flash_writeByteToSI>
	flash_writeByteToSI(address >> 7);
     d24:	c8 01       	movw	r24, r16
     d26:	88 0f       	add	r24, r24
     d28:	89 2f       	mov	r24, r25
     d2a:	88 1f       	adc	r24, r24
     d2c:	99 0b       	sbc	r25, r25
     d2e:	91 95       	neg	r25
     d30:	0e 94 ae 05 	call	0xb5c	; 0xb5c <flash_writeByteToSI>
	flash_writeByteToSI(address << 1 | 0);
     d34:	80 2f       	mov	r24, r16
     d36:	88 0f       	add	r24, r24
     d38:	0e 94 ae 05 	call	0xb5c	; 0xb5c <flash_writeByteToSI>
	flash_writeByteToSI(0);
     d3c:	80 e0       	ldi	r24, 0x00	; 0
     d3e:	0e 94 ae 05 	call	0xb5c	; 0xb5c <flash_writeByteToSI>
     d42:	00 e0       	ldi	r16, 0x00	; 0

	for (i = 0; i < 4; i++)
		flash_writeByteToSI(0);
     d44:	80 e0       	ldi	r24, 0x00	; 0
     d46:	0e 94 ae 05 	call	0xb5c	; 0xb5c <flash_writeByteToSI>
	flash_writeByteToSI(cmd);
	flash_writeByteToSI(address >> 7);
	flash_writeByteToSI(address << 1 | 0);
	flash_writeByteToSI(0);

	for (i = 0; i < 4; i++)
     d4a:	0f 5f       	subi	r16, 0xFF	; 255
     d4c:	04 30       	cpi	r16, 0x04	; 4
     d4e:	d1 f7       	brne	.-12     	; 0xd44 <flash_readUint8+0x36>
		flash_writeByteToSI(0);

	data = flash_readByteFromSO();
     d50:	0e 94 ce 05 	call	0xb9c	; 0xb9c <flash_readByteFromSO>
     d54:	e0 ea       	ldi	r30, 0xA0	; 160
     d56:	ff e0       	ldi	r31, 0x0F	; 15
     d58:	31 97       	sbiw	r30, 0x01	; 1
     d5a:	f1 f7       	brne	.-4      	; 0xd58 <flash_readUint8+0x4a>

	MSLEEP(1);
	SET_NCS();
     d5c:	58 9a       	sbi	0x0b, 0	; 11
	return data;
}
     d5e:	1f 91       	pop	r17
     d60:	0f 91       	pop	r16
     d62:	08 95       	ret

00000d64 <flash_writeUint16>:

void flash_writeUint16(uint16 address, uint16 data) {
     d64:	0f 93       	push	r16
     d66:	1f 93       	push	r17
     d68:	df 93       	push	r29
     d6a:	cf 93       	push	r28
     d6c:	0f 92       	push	r0
     d6e:	0f 92       	push	r0
     d70:	cd b7       	in	r28, 0x3d	; 61
     d72:	de b7       	in	r29, 0x3e	; 62
     d74:	8c 01       	movw	r16, r24
     d76:	7a 83       	std	Y+2, r23	; 0x02
     d78:	69 83       	std	Y+1, r22	; 0x01
	flash_bufferWrite(0, 2, &data);
     d7a:	80 e0       	ldi	r24, 0x00	; 0
     d7c:	90 e0       	ldi	r25, 0x00	; 0
     d7e:	62 e0       	ldi	r22, 0x02	; 2
     d80:	ae 01       	movw	r20, r28
     d82:	4f 5f       	subi	r20, 0xFF	; 255
     d84:	5f 4f       	sbci	r21, 0xFF	; 255
     d86:	0e 94 f1 05 	call	0xbe2	; 0xbe2 <flash_bufferWrite>
	flash_bufferToMainMemory(address);
     d8a:	c8 01       	movw	r24, r16
     d8c:	0e 94 26 06 	call	0xc4c	; 0xc4c <flash_bufferToMainMemory>
     d90:	80 e4       	ldi	r24, 0x40	; 64
     d92:	9c e9       	ldi	r25, 0x9C	; 156
     d94:	01 97       	sbiw	r24, 0x01	; 1
     d96:	f1 f7       	brne	.-4      	; 0xd94 <flash_writeUint16+0x30>

	MSLEEP(10);
}
     d98:	0f 90       	pop	r0
     d9a:	0f 90       	pop	r0
     d9c:	cf 91       	pop	r28
     d9e:	df 91       	pop	r29
     da0:	1f 91       	pop	r17
     da2:	0f 91       	pop	r16
     da4:	08 95       	ret

00000da6 <flash_readUint16>:
uint16 flash_readUint16(uint16 address) {
     da6:	0f 93       	push	r16
     da8:	1f 93       	push	r17
     daa:	8c 01       	movw	r16, r24
	uint16 data = 0x00;
	uint8 cmd = 0xd2;
	uint8 i = 0;

	CLEAR_NCS();
     dac:	58 98       	cbi	0x0b, 0	; 11
     dae:	80 ea       	ldi	r24, 0xA0	; 160
     db0:	9f e0       	ldi	r25, 0x0F	; 15
     db2:	01 97       	sbiw	r24, 0x01	; 1
     db4:	f1 f7       	brne	.-4      	; 0xdb2 <flash_readUint16+0xc>
	MSLEEP(1);

	flash_writeByteToSI(cmd);
     db6:	82 ed       	ldi	r24, 0xD2	; 210
     db8:	0e 94 ae 05 	call	0xb5c	; 0xb5c <flash_writeByteToSI>
	flash_writeByteToSI(address >> 7);
     dbc:	c8 01       	movw	r24, r16
     dbe:	88 0f       	add	r24, r24
     dc0:	89 2f       	mov	r24, r25
     dc2:	88 1f       	adc	r24, r24
     dc4:	99 0b       	sbc	r25, r25
     dc6:	91 95       	neg	r25
     dc8:	0e 94 ae 05 	call	0xb5c	; 0xb5c <flash_writeByteToSI>
	flash_writeByteToSI(address << 1 | 0);
     dcc:	80 2f       	mov	r24, r16
     dce:	88 0f       	add	r24, r24
     dd0:	0e 94 ae 05 	call	0xb5c	; 0xb5c <flash_writeByteToSI>
	flash_writeByteToSI(0);
     dd4:	80 e0       	ldi	r24, 0x00	; 0
     dd6:	0e 94 ae 05 	call	0xb5c	; 0xb5c <flash_writeByteToSI>
     dda:	00 e0       	ldi	r16, 0x00	; 0

	for (i = 0; i < 4; i++)
		flash_writeByteToSI(0);
     ddc:	80 e0       	ldi	r24, 0x00	; 0
     dde:	0e 94 ae 05 	call	0xb5c	; 0xb5c <flash_writeByteToSI>
	flash_writeByteToSI(cmd);
	flash_writeByteToSI(address >> 7);
	flash_writeByteToSI(address << 1 | 0);
	flash_writeByteToSI(0);

	for (i = 0; i < 4; i++)
     de2:	0f 5f       	subi	r16, 0xFF	; 255
     de4:	04 30       	cpi	r16, 0x04	; 4
     de6:	d1 f7       	brne	.-12     	; 0xddc <flash_readUint16+0x36>
		flash_writeByteToSI(0);

	data = flash_readByteFromSO();
     de8:	0e 94 ce 05 	call	0xb9c	; 0xb9c <flash_readByteFromSO>
     dec:	08 2f       	mov	r16, r24
     dee:	10 e0       	ldi	r17, 0x00	; 0
	data |= flash_readByteFromSO() << 8;
     df0:	0e 94 ce 05 	call	0xb9c	; 0xb9c <flash_readByteFromSO>
     df4:	e0 ea       	ldi	r30, 0xA0	; 160
     df6:	ff e0       	ldi	r31, 0x0F	; 15
     df8:	31 97       	sbiw	r30, 0x01	; 1
     dfa:	f1 f7       	brne	.-4      	; 0xdf8 <flash_readUint16+0x52>

	MSLEEP(1);
	SET_NCS();
     dfc:	58 9a       	sbi	0x0b, 0	; 11
     dfe:	38 2f       	mov	r19, r24
     e00:	20 e0       	ldi	r18, 0x00	; 0
     e02:	20 2b       	or	r18, r16
     e04:	31 2b       	or	r19, r17
	return data;
}
     e06:	c9 01       	movw	r24, r18
     e08:	1f 91       	pop	r17
     e0a:	0f 91       	pop	r16
     e0c:	08 95       	ret

00000e0e <flash_writeUint32>:

void flash_writeUint32(uint16 address, uint32 data) {
     e0e:	0f 93       	push	r16
     e10:	1f 93       	push	r17
     e12:	df 93       	push	r29
     e14:	cf 93       	push	r28
     e16:	00 d0       	rcall	.+0      	; 0xe18 <flash_writeUint32+0xa>
     e18:	0f 92       	push	r0
     e1a:	cd b7       	in	r28, 0x3d	; 61
     e1c:	de b7       	in	r29, 0x3e	; 62
     e1e:	8c 01       	movw	r16, r24
     e20:	49 83       	std	Y+1, r20	; 0x01
     e22:	5a 83       	std	Y+2, r21	; 0x02
     e24:	6b 83       	std	Y+3, r22	; 0x03
     e26:	7c 83       	std	Y+4, r23	; 0x04
	flash_bufferWrite(0, 4, &data);
     e28:	80 e0       	ldi	r24, 0x00	; 0
     e2a:	90 e0       	ldi	r25, 0x00	; 0
     e2c:	64 e0       	ldi	r22, 0x04	; 4
     e2e:	ae 01       	movw	r20, r28
     e30:	4f 5f       	subi	r20, 0xFF	; 255
     e32:	5f 4f       	sbci	r21, 0xFF	; 255
     e34:	0e 94 f1 05 	call	0xbe2	; 0xbe2 <flash_bufferWrite>
	flash_bufferToMainMemory(address);
     e38:	c8 01       	movw	r24, r16
     e3a:	0e 94 26 06 	call	0xc4c	; 0xc4c <flash_bufferToMainMemory>
     e3e:	80 e4       	ldi	r24, 0x40	; 64
     e40:	9c e9       	ldi	r25, 0x9C	; 156
     e42:	01 97       	sbiw	r24, 0x01	; 1
     e44:	f1 f7       	brne	.-4      	; 0xe42 <flash_writeUint32+0x34>

	MSLEEP(10);
}
     e46:	0f 90       	pop	r0
     e48:	0f 90       	pop	r0
     e4a:	0f 90       	pop	r0
     e4c:	0f 90       	pop	r0
     e4e:	cf 91       	pop	r28
     e50:	df 91       	pop	r29
     e52:	1f 91       	pop	r17
     e54:	0f 91       	pop	r16
     e56:	08 95       	ret

00000e58 <flash_readUint32>:

uint32 flash_readUint32(uint16 address) {
     e58:	9f 92       	push	r9
     e5a:	af 92       	push	r10
     e5c:	bf 92       	push	r11
     e5e:	cf 92       	push	r12
     e60:	df 92       	push	r13
     e62:	ef 92       	push	r14
     e64:	ff 92       	push	r15
     e66:	0f 93       	push	r16
     e68:	1f 93       	push	r17
     e6a:	8c 01       	movw	r16, r24
	uint32 data = 0;
	uint8 cmd = 0xd2;
	uint8 i = 0;

	CLEAR_NCS();
     e6c:	58 98       	cbi	0x0b, 0	; 11
     e6e:	80 ea       	ldi	r24, 0xA0	; 160
     e70:	9f e0       	ldi	r25, 0x0F	; 15
     e72:	01 97       	sbiw	r24, 0x01	; 1
     e74:	f1 f7       	brne	.-4      	; 0xe72 <flash_readUint32+0x1a>
	MSLEEP(1);

	flash_writeByteToSI(cmd);
     e76:	82 ed       	ldi	r24, 0xD2	; 210
     e78:	0e 94 ae 05 	call	0xb5c	; 0xb5c <flash_writeByteToSI>
	flash_writeByteToSI(address >> 7);
     e7c:	c8 01       	movw	r24, r16
     e7e:	88 0f       	add	r24, r24
     e80:	89 2f       	mov	r24, r25
     e82:	88 1f       	adc	r24, r24
     e84:	99 0b       	sbc	r25, r25
     e86:	91 95       	neg	r25
     e88:	0e 94 ae 05 	call	0xb5c	; 0xb5c <flash_writeByteToSI>
	flash_writeByteToSI(address << 1 | 0);
     e8c:	80 2f       	mov	r24, r16
     e8e:	88 0f       	add	r24, r24
     e90:	0e 94 ae 05 	call	0xb5c	; 0xb5c <flash_writeByteToSI>
	flash_writeByteToSI(0);
     e94:	80 e0       	ldi	r24, 0x00	; 0
     e96:	0e 94 ae 05 	call	0xb5c	; 0xb5c <flash_writeByteToSI>
     e9a:	00 e0       	ldi	r16, 0x00	; 0

	for (i = 0; i < 4; i++)
		flash_writeByteToSI(0);
     e9c:	80 e0       	ldi	r24, 0x00	; 0
     e9e:	0e 94 ae 05 	call	0xb5c	; 0xb5c <flash_writeByteToSI>
	flash_writeByteToSI(cmd);
	flash_writeByteToSI(address >> 7);
	flash_writeByteToSI(address << 1 | 0);
	flash_writeByteToSI(0);

	for (i = 0; i < 4; i++)
     ea2:	0f 5f       	subi	r16, 0xFF	; 255
     ea4:	04 30       	cpi	r16, 0x04	; 4
     ea6:	d1 f7       	brne	.-12     	; 0xe9c <flash_readUint32+0x44>
		flash_writeByteToSI(0);

	data = flash_readByteFromSO();
     ea8:	0e 94 ce 05 	call	0xb9c	; 0xb9c <flash_readByteFromSO>
     eac:	a8 2e       	mov	r10, r24
     eae:	bb 24       	eor	r11, r11
     eb0:	cc 24       	eor	r12, r12
     eb2:	dd 24       	eor	r13, r13
	data |= (flash_readByteFromSO() << 8);
     eb4:	0e 94 ce 05 	call	0xb9c	; 0xb9c <flash_readByteFromSO>
     eb8:	98 2e       	mov	r9, r24
	data |= ((uint32) flash_readByteFromSO()) << 16;
     eba:	0e 94 ce 05 	call	0xb9c	; 0xb9c <flash_readByteFromSO>
     ebe:	e8 2e       	mov	r14, r24
	data |= ((uint32) flash_readByteFromSO()) << 24;
     ec0:	0e 94 ce 05 	call	0xb9c	; 0xb9c <flash_readByteFromSO>

	for (i = 0; i < 4; i++)
		flash_writeByteToSI(0);

	data = flash_readByteFromSO();
	data |= (flash_readByteFromSO() << 8);
     ec4:	ff 24       	eor	r15, r15
     ec6:	00 e0       	ldi	r16, 0x00	; 0
     ec8:	10 e0       	ldi	r17, 0x00	; 0
     eca:	87 01       	movw	r16, r14
     ecc:	ff 24       	eor	r15, r15
     ece:	ee 24       	eor	r14, r14
     ed0:	90 e0       	ldi	r25, 0x00	; 0
     ed2:	a0 e0       	ldi	r26, 0x00	; 0
     ed4:	b0 e0       	ldi	r27, 0x00	; 0
     ed6:	b8 2f       	mov	r27, r24
     ed8:	aa 27       	eor	r26, r26
     eda:	99 27       	eor	r25, r25
     edc:	88 27       	eor	r24, r24
     ede:	e8 2a       	or	r14, r24
     ee0:	f9 2a       	or	r15, r25
     ee2:	0a 2b       	or	r16, r26
     ee4:	1b 2b       	or	r17, r27
	data |= ((uint32) flash_readByteFromSO()) << 16;
     ee6:	ea 28       	or	r14, r10
     ee8:	fb 28       	or	r15, r11
     eea:	0c 29       	or	r16, r12
     eec:	1d 29       	or	r17, r13
     eee:	80 ea       	ldi	r24, 0xA0	; 160
     ef0:	9f e0       	ldi	r25, 0x0F	; 15
     ef2:	01 97       	sbiw	r24, 0x01	; 1
     ef4:	f1 f7       	brne	.-4      	; 0xef2 <flash_readUint32+0x9a>
	data |= ((uint32) flash_readByteFromSO()) << 24;

	MSLEEP(1);
	SET_NCS();
     ef6:	58 9a       	sbi	0x0b, 0	; 11
     ef8:	99 2d       	mov	r25, r9
     efa:	80 e0       	ldi	r24, 0x00	; 0
     efc:	aa 27       	eor	r26, r26
     efe:	97 fd       	sbrc	r25, 7
     f00:	a0 95       	com	r26
     f02:	ba 2f       	mov	r27, r26
     f04:	e8 2a       	or	r14, r24
     f06:	f9 2a       	or	r15, r25
     f08:	0a 2b       	or	r16, r26
     f0a:	1b 2b       	or	r17, r27
	return data;
}
     f0c:	b7 01       	movw	r22, r14
     f0e:	c8 01       	movw	r24, r16
     f10:	1f 91       	pop	r17
     f12:	0f 91       	pop	r16
     f14:	ff 90       	pop	r15
     f16:	ef 90       	pop	r14
     f18:	df 90       	pop	r13
     f1a:	cf 90       	pop	r12
     f1c:	bf 90       	pop	r11
     f1e:	af 90       	pop	r10
     f20:	9f 90       	pop	r9
     f22:	08 95       	ret

00000f24 <flash_writeBytes>:

void flash_writeBytes(uint16 address, uint8* data, uint8 length) {
     f24:	0f 93       	push	r16
     f26:	1f 93       	push	r17
     f28:	8c 01       	movw	r16, r24
     f2a:	9b 01       	movw	r18, r22
	flash_bufferWrite(0, length, data);
     f2c:	80 e0       	ldi	r24, 0x00	; 0
     f2e:	90 e0       	ldi	r25, 0x00	; 0
     f30:	64 2f       	mov	r22, r20
     f32:	a9 01       	movw	r20, r18
     f34:	0e 94 f1 05 	call	0xbe2	; 0xbe2 <flash_bufferWrite>
	flash_bufferToMainMemory(address);
     f38:	c8 01       	movw	r24, r16
     f3a:	0e 94 26 06 	call	0xc4c	; 0xc4c <flash_bufferToMainMemory>
     f3e:	80 e4       	ldi	r24, 0x40	; 64
     f40:	9c e9       	ldi	r25, 0x9C	; 156
     f42:	01 97       	sbiw	r24, 0x01	; 1
     f44:	f1 f7       	brne	.-4      	; 0xf42 <flash_writeBytes+0x1e>

	MSLEEP(10);
}
     f46:	1f 91       	pop	r17
     f48:	0f 91       	pop	r16
     f4a:	08 95       	ret

00000f4c <flash_readBytes>:
uint8 flash_readBytes(uint16 address, uint8 *data, uint8 length) {
     f4c:	df 92       	push	r13
     f4e:	ef 92       	push	r14
     f50:	ff 92       	push	r15
     f52:	0f 93       	push	r16
     f54:	1f 93       	push	r17
     f56:	cf 93       	push	r28
     f58:	df 93       	push	r29
     f5a:	8c 01       	movw	r16, r24
     f5c:	f6 2e       	mov	r15, r22
     f5e:	e7 2e       	mov	r14, r23
     f60:	d4 2e       	mov	r13, r20
	uint8 cmd = 0xd2;
	uint8 i = 0;

	CLEAR_NCS();
     f62:	58 98       	cbi	0x0b, 0	; 11
     f64:	80 ea       	ldi	r24, 0xA0	; 160
     f66:	9f e0       	ldi	r25, 0x0F	; 15
     f68:	01 97       	sbiw	r24, 0x01	; 1
     f6a:	f1 f7       	brne	.-4      	; 0xf68 <flash_readBytes+0x1c>
	MSLEEP(1);

	flash_writeByteToSI(cmd);
     f6c:	82 ed       	ldi	r24, 0xD2	; 210
     f6e:	0e 94 ae 05 	call	0xb5c	; 0xb5c <flash_writeByteToSI>
	flash_writeByteToSI(address >> 7);
     f72:	c8 01       	movw	r24, r16
     f74:	88 0f       	add	r24, r24
     f76:	89 2f       	mov	r24, r25
     f78:	88 1f       	adc	r24, r24
     f7a:	99 0b       	sbc	r25, r25
     f7c:	91 95       	neg	r25
     f7e:	0e 94 ae 05 	call	0xb5c	; 0xb5c <flash_writeByteToSI>
	flash_writeByteToSI(address << 1 | 0);
     f82:	80 2f       	mov	r24, r16
     f84:	88 0f       	add	r24, r24
     f86:	0e 94 ae 05 	call	0xb5c	; 0xb5c <flash_writeByteToSI>
	flash_writeByteToSI(0);
     f8a:	80 e0       	ldi	r24, 0x00	; 0
     f8c:	0e 94 ae 05 	call	0xb5c	; 0xb5c <flash_writeByteToSI>
     f90:	00 e0       	ldi	r16, 0x00	; 0

	for (i = 0; i < 4; i++)
		flash_writeByteToSI(0);
     f92:	80 e0       	ldi	r24, 0x00	; 0
     f94:	0e 94 ae 05 	call	0xb5c	; 0xb5c <flash_writeByteToSI>
	flash_writeByteToSI(cmd);
	flash_writeByteToSI(address >> 7);
	flash_writeByteToSI(address << 1 | 0);
	flash_writeByteToSI(0);

	for (i = 0; i < 4; i++)
     f98:	0f 5f       	subi	r16, 0xFF	; 255
     f9a:	04 30       	cpi	r16, 0x04	; 4
     f9c:	d1 f7       	brne	.-12     	; 0xf92 <flash_readBytes+0x46>
     f9e:	8f 2d       	mov	r24, r15
     fa0:	9e 2d       	mov	r25, r14
     fa2:	9c 01       	movw	r18, r24
     fa4:	e9 01       	movw	r28, r18
     fa6:	00 e0       	ldi	r16, 0x00	; 0
     fa8:	04 c0       	rjmp	.+8      	; 0xfb2 <flash_readBytes+0x66>
		flash_writeByteToSI(0);

	for (i = 0; i < length; i++)
		data[i] = flash_readByteFromSO();
     faa:	0e 94 ce 05 	call	0xb9c	; 0xb9c <flash_readByteFromSO>
     fae:	89 93       	st	Y+, r24
	flash_writeByteToSI(0);

	for (i = 0; i < 4; i++)
		flash_writeByteToSI(0);

	for (i = 0; i < length; i++)
     fb0:	0f 5f       	subi	r16, 0xFF	; 255
     fb2:	0d 15       	cp	r16, r13
     fb4:	d0 f3       	brcs	.-12     	; 0xfaa <flash_readBytes+0x5e>
     fb6:	80 ea       	ldi	r24, 0xA0	; 160
     fb8:	9f e0       	ldi	r25, 0x0F	; 15
     fba:	01 97       	sbiw	r24, 0x01	; 1
     fbc:	f1 f7       	brne	.-4      	; 0xfba <flash_readBytes+0x6e>
		data[i] = flash_readByteFromSO();

	MSLEEP(1);
	SET_NCS();
     fbe:	58 9a       	sbi	0x0b, 0	; 11

	return length;
}
     fc0:	8d 2d       	mov	r24, r13
     fc2:	df 91       	pop	r29
     fc4:	cf 91       	pop	r28
     fc6:	1f 91       	pop	r17
     fc8:	0f 91       	pop	r16
     fca:	ff 90       	pop	r15
     fcc:	ef 90       	pop	r14
     fce:	df 90       	pop	r13
     fd0:	08 95       	ret

00000fd2 <flash_readStatus>:

uint8 flash_readStatus() {
     fd2:	0f 93       	push	r16
     fd4:	1f 93       	push	r17
	uint8 cmd = 0xd7;
	uint8 data = 0;

	CLEAR_NCS();
     fd6:	58 98       	cbi	0x0b, 0	; 11
     fd8:	00 ea       	ldi	r16, 0xA0	; 160
     fda:	1f e0       	ldi	r17, 0x0F	; 15
     fdc:	c8 01       	movw	r24, r16
     fde:	01 97       	sbiw	r24, 0x01	; 1
     fe0:	f1 f7       	brne	.-4      	; 0xfde <flash_readStatus+0xc>
	MSLEEP(1);

	flash_writeByteToSI(cmd);
     fe2:	87 ed       	ldi	r24, 0xD7	; 215
     fe4:	0e 94 ae 05 	call	0xb5c	; 0xb5c <flash_writeByteToSI>
	data = flash_readByteFromSO();
     fe8:	0e 94 ce 05 	call	0xb9c	; 0xb9c <flash_readByteFromSO>
     fec:	f8 01       	movw	r30, r16
     fee:	31 97       	sbiw	r30, 0x01	; 1
     ff0:	f1 f7       	brne	.-4      	; 0xfee <flash_readStatus+0x1c>

	MSLEEP(1);
	SET_NCS();
     ff2:	58 9a       	sbi	0x0b, 0	; 11

	return data;
}
     ff4:	1f 91       	pop	r17
     ff6:	0f 91       	pop	r16
     ff8:	08 95       	ret

00000ffa <mpr_GetAssignedTokenId>:
int mprToken = -1;
uint8 tmp_Buff_MPR[MAX_TX_BUFF];

char mpr_GetAssignedTokenId() {
	return mprToken;
}
     ffa:	80 91 00 22 	lds	r24, 0x2200
     ffe:	08 95       	ret

00001000 <mpr_HasToken>:

char mpr_HasToken() {
    1000:	20 e0       	ldi	r18, 0x00	; 0
    1002:	80 91 00 22 	lds	r24, 0x2200
    1006:	90 91 01 22 	lds	r25, 0x2201
    100a:	8f 5f       	subi	r24, 0xFF	; 255
    100c:	9f 4f       	sbci	r25, 0xFF	; 255
    100e:	09 f4       	brne	.+2      	; 0x1012 <mpr_HasToken+0x12>
    1010:	21 e0       	ldi	r18, 0x01	; 1
	if (mprToken == -1)
		return 1;

	return 0;
}
    1012:	82 2f       	mov	r24, r18
    1014:	08 95       	ret

00001016 <mpr_ReleaseToken>:
	plcs_NCP_AssignToken(id);
	mprToken = id;
}

void mpr_ReleaseToken() {
	mprToken = -1;
    1016:	8f ef       	ldi	r24, 0xFF	; 255
    1018:	9f ef       	ldi	r25, 0xFF	; 255
    101a:	90 93 01 22 	sts	0x2201, r25
    101e:	80 93 00 22 	sts	0x2200, r24
}
    1022:	08 95       	ret

00001024 <plcs_NCP_AssignToken>:

char plcs_NCP_AssignToken(uint16 nodeId) {
    1024:	ef 92       	push	r14
    1026:	ff 92       	push	r15
    1028:	0f 93       	push	r16
    102a:	df 93       	push	r29
    102c:	cf 93       	push	r28
    102e:	cd b7       	in	r28, 0x3d	; 61
    1030:	de b7       	in	r29, 0x3e	; 62
    1032:	2a 97       	sbiw	r28, 0x0a	; 10
    1034:	0f b6       	in	r0, 0x3f	; 63
    1036:	f8 94       	cli
    1038:	de bf       	out	0x3e, r29	; 62
    103a:	0f be       	out	0x3f, r0	; 63
    103c:	cd bf       	out	0x3d, r28	; 61
    103e:	bc 01       	movw	r22, r24
	int len = 0;
	uint8 payload[10];
	uint8 resultLen = 0;

	payload[len++] = NCP_ASSIGN_TOKEN;
    1040:	86 e0       	ldi	r24, 0x06	; 6
    1042:	89 83       	std	Y+1, r24	; 0x01
	payload[len++] = nodeId >> 8;
    1044:	7a 83       	std	Y+2, r23	; 0x02
	payload[len++] = nodeId;
    1046:	6b 83       	std	Y+3, r22	; 0x03

	resultLen = plcs_GetNCPMessage(tmp_Buff_MPR, nodeId, 0, payload, len);
    1048:	8b eb       	ldi	r24, 0xBB	; 187
    104a:	e8 2e       	mov	r14, r24
    104c:	8d e3       	ldi	r24, 0x3D	; 61
    104e:	f8 2e       	mov	r15, r24
    1050:	c7 01       	movw	r24, r14
    1052:	40 e0       	ldi	r20, 0x00	; 0
    1054:	50 e0       	ldi	r21, 0x00	; 0
    1056:	9e 01       	movw	r18, r28
    1058:	2f 5f       	subi	r18, 0xFF	; 255
    105a:	3f 4f       	sbci	r19, 0xFF	; 255
    105c:	03 e0       	ldi	r16, 0x03	; 3
    105e:	0e 94 89 0c 	call	0x1912	; 0x1912 <plcs_GetNCPMessage>
    1062:	68 2f       	mov	r22, r24
	xcps_send_rs485ForMPR(tmp_Buff_MPR, resultLen);
    1064:	c7 01       	movw	r24, r14
    1066:	0e 94 29 35 	call	0x6a52	; 0x6a52 <xcps_send_rs485ForMPR>
	return 0;
}
    106a:	80 e0       	ldi	r24, 0x00	; 0
    106c:	2a 96       	adiw	r28, 0x0a	; 10
    106e:	0f b6       	in	r0, 0x3f	; 63
    1070:	f8 94       	cli
    1072:	de bf       	out	0x3e, r29	; 62
    1074:	0f be       	out	0x3f, r0	; 63
    1076:	cd bf       	out	0x3d, r28	; 61
    1078:	cf 91       	pop	r28
    107a:	df 91       	pop	r29
    107c:	0f 91       	pop	r16
    107e:	ff 90       	pop	r15
    1080:	ef 90       	pop	r14
    1082:	08 95       	ret

00001084 <mpr_AssignToken>:
		return 1;

	return 0;
}

void mpr_AssignToken(int id) {
    1084:	0f 93       	push	r16
    1086:	1f 93       	push	r17
    1088:	8c 01       	movw	r16, r24
	plcs_NCP_AssignToken(id);
    108a:	0e 94 12 08 	call	0x1024	; 0x1024 <plcs_NCP_AssignToken>
	mprToken = id;
    108e:	10 93 01 22 	sts	0x2201, r17
    1092:	00 93 00 22 	sts	0x2200, r16
}
    1096:	1f 91       	pop	r17
    1098:	0f 91       	pop	r16
    109a:	08 95       	ret

0000109c <getSensorMappingTableSize>:

}
// ---------------------------------------------------------------------------------------------- //
// ------------------ Add & Update Mapping Table  --------------------------------------------------- //
// ---------------------------------------------------------------------------------------------- //
uint16 getSensorMappingTableSize() {
    109c:	e6 ec       	ldi	r30, 0xC6	; 198
    109e:	f4 e3       	ldi	r31, 0x34	; 52
    10a0:	20 e0       	ldi	r18, 0x00	; 0
    10a2:	30 e0       	ldi	r19, 0x00	; 0
	uint16 i;
	uint16 size = 0;
	for (i = 0; i < MaxNumOfSensorMappingInfo; i++)
		if (sensorMappingTable.mappingInfo[i].isEnable == 1)
    10a4:	80 81       	ld	r24, Z
    10a6:	81 30       	cpi	r24, 0x01	; 1
    10a8:	11 f4       	brne	.+4      	; 0x10ae <getSensorMappingTableSize+0x12>
			size++;
    10aa:	2f 5f       	subi	r18, 0xFF	; 255
    10ac:	3f 4f       	sbci	r19, 0xFF	; 255
    10ae:	39 96       	adiw	r30, 0x09	; 9
// ------------------ Add & Update Mapping Table  --------------------------------------------------- //
// ---------------------------------------------------------------------------------------------- //
uint16 getSensorMappingTableSize() {
	uint16 i;
	uint16 size = 0;
	for (i = 0; i < MaxNumOfSensorMappingInfo; i++)
    10b0:	8d e3       	ldi	r24, 0x3D	; 61
    10b2:	ed 3b       	cpi	r30, 0xBD	; 189
    10b4:	f8 07       	cpc	r31, r24
    10b6:	b1 f7       	brne	.-20     	; 0x10a4 <getSensorMappingTableSize+0x8>
		if (sensorMappingTable.mappingInfo[i].isEnable == 1)
			size++;
	return size;
}
    10b8:	c9 01       	movw	r24, r18
    10ba:	08 95       	ret

000010bc <getSensorMappingInfoByIndex>:

SensorMappingInfo_st * getSensorMappingInfoByIndex(uint16 index) {
    10bc:	bc 01       	movw	r22, r24
    10be:	e6 ec       	ldi	r30, 0xC6	; 198
    10c0:	f4 e3       	ldi	r31, 0x34	; 52
    10c2:	20 e0       	ldi	r18, 0x00	; 0
    10c4:	30 e0       	ldi	r19, 0x00	; 0
    10c6:	40 e0       	ldi	r20, 0x00	; 0
    10c8:	50 e0       	ldi	r21, 0x00	; 0
	uint16 cnt = 0;
	uint16 i = 0;
	for (i = 0; i < MaxNumOfSensorMappingInfo; i++)
		if (sensorMappingTable.mappingInfo[i].isEnable == 1) {
    10ca:	80 81       	ld	r24, Z
    10cc:	81 30       	cpi	r24, 0x01	; 1
    10ce:	81 f4       	brne	.+32     	; 0x10f0 <getSensorMappingInfoByIndex+0x34>
			if (cnt == index) {
    10d0:	26 17       	cp	r18, r22
    10d2:	37 07       	cpc	r19, r23
    10d4:	59 f4       	brne	.+22     	; 0x10ec <getSensorMappingInfoByIndex+0x30>
				return &(sensorMappingTable.mappingInfo[i]);
    10d6:	9a 01       	movw	r18, r20
    10d8:	83 e0       	ldi	r24, 0x03	; 3
    10da:	22 0f       	add	r18, r18
    10dc:	33 1f       	adc	r19, r19
    10de:	8a 95       	dec	r24
    10e0:	e1 f7       	brne	.-8      	; 0x10da <getSensorMappingInfoByIndex+0x1e>
    10e2:	24 0f       	add	r18, r20
    10e4:	35 1f       	adc	r19, r21
    10e6:	22 54       	subi	r18, 0x42	; 66
    10e8:	3b 4c       	sbci	r19, 0xCB	; 203
    10ea:	0a c0       	rjmp	.+20     	; 0x1100 <getSensorMappingInfoByIndex+0x44>
			}
			cnt++;
    10ec:	2f 5f       	subi	r18, 0xFF	; 255
    10ee:	3f 4f       	sbci	r19, 0xFF	; 255
}

SensorMappingInfo_st * getSensorMappingInfoByIndex(uint16 index) {
	uint16 cnt = 0;
	uint16 i = 0;
	for (i = 0; i < MaxNumOfSensorMappingInfo; i++)
    10f0:	4f 5f       	subi	r20, 0xFF	; 255
    10f2:	5f 4f       	sbci	r21, 0xFF	; 255
    10f4:	39 96       	adiw	r30, 0x09	; 9
    10f6:	4f 3f       	cpi	r20, 0xFF	; 255
    10f8:	51 05       	cpc	r21, r1
    10fa:	39 f7       	brne	.-50     	; 0x10ca <getSensorMappingInfoByIndex+0xe>
    10fc:	20 e0       	ldi	r18, 0x00	; 0
    10fe:	30 e0       	ldi	r19, 0x00	; 0
				return &(sensorMappingTable.mappingInfo[i]);
			}
			cnt++;
		}
	return NULL;
}
    1100:	c9 01       	movw	r24, r18
    1102:	08 95       	ret

00001104 <addSensorMappingTable>:

SensorMappingInfo_st *addSensorMappingTable(uint16 lcId, uint16 sensorId, uint8 circuitId, uint8 onTime, uint8 onCtrlMode, uint8 offCtrlMode) {
    1104:	cf 92       	push	r12
    1106:	df 92       	push	r13
    1108:	ef 92       	push	r14
    110a:	ff 92       	push	r15
    110c:	0f 93       	push	r16
    110e:	1f 93       	push	r17
    1110:	cf 93       	push	r28
    1112:	df 93       	push	r29
    1114:	ec 01       	movw	r28, r24
    1116:	6b 01       	movw	r12, r22
    1118:	14 2f       	mov	r17, r20
    111a:	f2 2e       	mov	r15, r18
	uint16 i = 0;
	if (getSensorMappingTableSize() >= MaxNumOfSensorMappingInfo)
    111c:	0e 94 4e 08 	call	0x109c	; 0x109c <getSensorMappingTableSize>
    1120:	8f 3f       	cpi	r24, 0xFF	; 255
    1122:	91 05       	cpc	r25, r1
    1124:	40 f5       	brcc	.+80     	; 0x1176 <addSensorMappingTable+0x72>
    1126:	e6 ec       	ldi	r30, 0xC6	; 198
    1128:	f4 e3       	ldi	r31, 0x34	; 52
    112a:	20 e0       	ldi	r18, 0x00	; 0
    112c:	30 e0       	ldi	r19, 0x00	; 0
		return NULL;

	for (i = 0; i < MaxNumOfSensorMappingInfo; i++)
		if (sensorMappingTable.mappingInfo[i].isEnable != 1) {
    112e:	80 81       	ld	r24, Z
    1130:	81 30       	cpi	r24, 0x01	; 1
    1132:	c1 f0       	breq	.+48     	; 0x1164 <addSensorMappingTable+0x60>
			sensorMappingTable.mappingInfo[i].lcId = lcId;
    1134:	f9 01       	movw	r30, r18
    1136:	93 e0       	ldi	r25, 0x03	; 3
    1138:	ee 0f       	add	r30, r30
    113a:	ff 1f       	adc	r31, r31
    113c:	9a 95       	dec	r25
    113e:	e1 f7       	brne	.-8      	; 0x1138 <addSensorMappingTable+0x34>
    1140:	e2 0f       	add	r30, r18
    1142:	f3 1f       	adc	r31, r19
    1144:	e2 54       	subi	r30, 0x42	; 66
    1146:	fb 4c       	sbci	r31, 0xCB	; 203
    1148:	d1 83       	std	Z+1, r29	; 0x01
    114a:	c0 83       	st	Z, r28
			sensorMappingTable.mappingInfo[i].sensorId = sensorId;
    114c:	d3 82       	std	Z+3, r13	; 0x03
    114e:	c2 82       	std	Z+2, r12	; 0x02
			sensorMappingTable.mappingInfo[i].circuitId = circuitId;
    1150:	14 83       	std	Z+4, r17	; 0x04
			sensorMappingTable.mappingInfo[i].onTime = onTime;
    1152:	f5 82       	std	Z+5, r15	; 0x05
			sensorMappingTable.mappingInfo[i].onCtrlMode = onCtrlMode;
    1154:	06 83       	std	Z+6, r16	; 0x06
			sensorMappingTable.mappingInfo[i].offCtrlMode = offCtrlMode;
    1156:	e7 82       	std	Z+7, r14	; 0x07
			sensorMappingTable.mappingInfo[i].isEnable = 1;
    1158:	81 e0       	ldi	r24, 0x01	; 1
    115a:	80 87       	std	Z+8, r24	; 0x08
			break;
		}

	if (i == MaxNumOfSensorMappingInfo) {
    115c:	2f 3f       	cpi	r18, 0xFF	; 255
    115e:	31 05       	cpc	r19, r1
    1160:	41 f4       	brne	.+16     	; 0x1172 <addSensorMappingTable+0x6e>
    1162:	09 c0       	rjmp	.+18     	; 0x1176 <addSensorMappingTable+0x72>
SensorMappingInfo_st *addSensorMappingTable(uint16 lcId, uint16 sensorId, uint8 circuitId, uint8 onTime, uint8 onCtrlMode, uint8 offCtrlMode) {
	uint16 i = 0;
	if (getSensorMappingTableSize() >= MaxNumOfSensorMappingInfo)
		return NULL;

	for (i = 0; i < MaxNumOfSensorMappingInfo; i++)
    1164:	2f 5f       	subi	r18, 0xFF	; 255
    1166:	3f 4f       	sbci	r19, 0xFF	; 255
    1168:	39 96       	adiw	r30, 0x09	; 9
    116a:	2f 3f       	cpi	r18, 0xFF	; 255
    116c:	31 05       	cpc	r19, r1
    116e:	f9 f6       	brne	.-66     	; 0x112e <addSensorMappingTable+0x2a>
    1170:	02 c0       	rjmp	.+4      	; 0x1176 <addSensorMappingTable+0x72>

	if (i == MaxNumOfSensorMappingInfo) {
		return NULL;
	}

	return &(sensorMappingTable.mappingInfo[i]);
    1172:	9f 01       	movw	r18, r30
    1174:	02 c0       	rjmp	.+4      	; 0x117a <addSensorMappingTable+0x76>
    1176:	20 e0       	ldi	r18, 0x00	; 0
    1178:	30 e0       	ldi	r19, 0x00	; 0
}
    117a:	c9 01       	movw	r24, r18
    117c:	df 91       	pop	r29
    117e:	cf 91       	pop	r28
    1180:	1f 91       	pop	r17
    1182:	0f 91       	pop	r16
    1184:	ff 90       	pop	r15
    1186:	ef 90       	pop	r14
    1188:	df 90       	pop	r13
    118a:	cf 90       	pop	r12
    118c:	08 95       	ret

0000118e <findSensorMappingInfoById>:
	}

	return result;
}

int findSensorMappingInfoById(uint16 lcId, uint16 sensorId, uint8 circuitId) {
    118e:	e0 ec       	ldi	r30, 0xC0	; 192
    1190:	f4 e3       	ldi	r31, 0x34	; 52
    1192:	20 e0       	ldi	r18, 0x00	; 0
    1194:	30 e0       	ldi	r19, 0x00	; 0
	uint16 i = 0;
	for (i = 0; i < MaxNumOfSensorMappingInfo; i++) {
		if (sensorId == sensorMappingTable.mappingInfo[i].sensorId && circuitId == sensorMappingTable.mappingInfo[i].circuitId && sensorMappingTable.mappingInfo[i].isEnable == 1) {
    1196:	80 81       	ld	r24, Z
    1198:	91 81       	ldd	r25, Z+1	; 0x01
    119a:	68 17       	cp	r22, r24
    119c:	79 07       	cpc	r23, r25
    119e:	31 f4       	brne	.+12     	; 0x11ac <findSensorMappingInfoById+0x1e>
    11a0:	82 81       	ldd	r24, Z+2	; 0x02
    11a2:	48 17       	cp	r20, r24
    11a4:	19 f4       	brne	.+6      	; 0x11ac <findSensorMappingInfoById+0x1e>
    11a6:	86 81       	ldd	r24, Z+6	; 0x06
    11a8:	81 30       	cpi	r24, 0x01	; 1
    11aa:	41 f0       	breq	.+16     	; 0x11bc <findSensorMappingInfoById+0x2e>
	return result;
}

int findSensorMappingInfoById(uint16 lcId, uint16 sensorId, uint8 circuitId) {
	uint16 i = 0;
	for (i = 0; i < MaxNumOfSensorMappingInfo; i++) {
    11ac:	2f 5f       	subi	r18, 0xFF	; 255
    11ae:	3f 4f       	sbci	r19, 0xFF	; 255
    11b0:	39 96       	adiw	r30, 0x09	; 9
    11b2:	2f 3f       	cpi	r18, 0xFF	; 255
    11b4:	31 05       	cpc	r19, r1
    11b6:	79 f7       	brne	.-34     	; 0x1196 <findSensorMappingInfoById+0x8>
    11b8:	2f ef       	ldi	r18, 0xFF	; 255
    11ba:	3f ef       	ldi	r19, 0xFF	; 255
		if (sensorId == sensorMappingTable.mappingInfo[i].sensorId && circuitId == sensorMappingTable.mappingInfo[i].circuitId && sensorMappingTable.mappingInfo[i].isEnable == 1) {
			return i;
		}
	}
	return -1; // 찾는 값이 없으면 '-1'을 리턴
}
    11bc:	c9 01       	movw	r24, r18
    11be:	08 95       	ret

000011c0 <getDimmerMappingTableSize>:

// ---------------------------------------------------------------------------------------------- //
// ------------------ Add & Update Mapping Table  --------------------------------------------------- //
// ---------------------------------------------------------------------------------------------- //

uint8 getDimmerMappingTableSize() {
    11c0:	eb eb       	ldi	r30, 0xBB	; 187
    11c2:	f2 e3       	ldi	r31, 0x32	; 50
    11c4:	90 e0       	ldi	r25, 0x00	; 0
	uint8 i;
	uint8 size = 0;
	for (i = 0; i < MaxNumOfDimmerMappingInfo; i++)
		if (dimmerMappingTable.mappingInfo[i].isEnable == 1)
    11c6:	80 81       	ld	r24, Z
    11c8:	81 30       	cpi	r24, 0x01	; 1
    11ca:	09 f4       	brne	.+2      	; 0x11ce <getDimmerMappingTableSize+0xe>
			size++;
    11cc:	9f 5f       	subi	r25, 0xFF	; 255
    11ce:	35 96       	adiw	r30, 0x05	; 5
// ---------------------------------------------------------------------------------------------- //

uint8 getDimmerMappingTableSize() {
	uint8 i;
	uint8 size = 0;
	for (i = 0; i < MaxNumOfDimmerMappingInfo; i++)
    11d0:	83 e3       	ldi	r24, 0x33	; 51
    11d2:	e3 38       	cpi	r30, 0x83	; 131
    11d4:	f8 07       	cpc	r31, r24
    11d6:	b9 f7       	brne	.-18     	; 0x11c6 <getDimmerMappingTableSize+0x6>
		if (dimmerMappingTable.mappingInfo[i].isEnable == 1)
			size++;
	return size;
}
    11d8:	89 2f       	mov	r24, r25
    11da:	08 95       	ret

000011dc <getDimmerMappingInfoByIndex>:

DimmerMappingInfo_st * getDimmerMappingInfoByIndex(uint8 index) {
    11dc:	38 2f       	mov	r19, r24
    11de:	eb eb       	ldi	r30, 0xBB	; 187
    11e0:	f2 e3       	ldi	r31, 0x32	; 50
    11e2:	20 e0       	ldi	r18, 0x00	; 0
    11e4:	90 e0       	ldi	r25, 0x00	; 0
	uint8 cnt = 0;
	uint8 i = 0;
	for (i = 0; i < MaxNumOfDimmerMappingInfo; i++)
		if (dimmerMappingTable.mappingInfo[i].isEnable == 1) {
    11e6:	80 81       	ld	r24, Z
    11e8:	81 30       	cpi	r24, 0x01	; 1
    11ea:	51 f4       	brne	.+20     	; 0x1200 <getDimmerMappingInfoByIndex+0x24>
			if (cnt == index) {
    11ec:	23 17       	cp	r18, r19
    11ee:	39 f4       	brne	.+14     	; 0x11fe <getDimmerMappingInfoByIndex+0x22>
				return &(dimmerMappingTable.mappingInfo[i]);
    11f0:	85 e0       	ldi	r24, 0x05	; 5
    11f2:	98 9f       	mul	r25, r24
    11f4:	90 01       	movw	r18, r0
    11f6:	11 24       	eor	r1, r1
    11f8:	29 54       	subi	r18, 0x49	; 73
    11fa:	3d 4c       	sbci	r19, 0xCD	; 205
    11fc:	07 c0       	rjmp	.+14     	; 0x120c <getDimmerMappingInfoByIndex+0x30>
			}
			cnt++;
    11fe:	2f 5f       	subi	r18, 0xFF	; 255
}

DimmerMappingInfo_st * getDimmerMappingInfoByIndex(uint8 index) {
	uint8 cnt = 0;
	uint8 i = 0;
	for (i = 0; i < MaxNumOfDimmerMappingInfo; i++)
    1200:	9f 5f       	subi	r25, 0xFF	; 255
    1202:	35 96       	adiw	r30, 0x05	; 5
    1204:	98 32       	cpi	r25, 0x28	; 40
    1206:	79 f7       	brne	.-34     	; 0x11e6 <getDimmerMappingInfoByIndex+0xa>
    1208:	20 e0       	ldi	r18, 0x00	; 0
    120a:	30 e0       	ldi	r19, 0x00	; 0
				return &(dimmerMappingTable.mappingInfo[i]);
			}
			cnt++;
		}
	return NULL;
}
    120c:	c9 01       	movw	r24, r18
    120e:	08 95       	ret

00001210 <addDimmerMappingTable>:

DimmerMappingInfo_st *addDimmerMappingTable(uint16 dimmerId, uint8 channelId, uint8 circuitId) {
    1210:	0f 93       	push	r16
    1212:	1f 93       	push	r17
    1214:	cf 93       	push	r28
    1216:	df 93       	push	r29
    1218:	ec 01       	movw	r28, r24
    121a:	16 2f       	mov	r17, r22
    121c:	04 2f       	mov	r16, r20
	uint16 i = 0;

	if (getDimmerMappingTableSize() >= MaxNumOfDimmerMappingInfo)
    121e:	0e 94 e0 08 	call	0x11c0	; 0x11c0 <getDimmerMappingTableSize>
    1222:	88 32       	cpi	r24, 0x28	; 40
    1224:	18 f5       	brcc	.+70     	; 0x126c <addDimmerMappingTable+0x5c>
    1226:	eb eb       	ldi	r30, 0xBB	; 187
    1228:	f2 e3       	ldi	r31, 0x32	; 50
    122a:	20 e0       	ldi	r18, 0x00	; 0
    122c:	30 e0       	ldi	r19, 0x00	; 0
		return NULL;

	for (i = 0; i < MaxNumOfDimmerMappingInfo; i++) {
		if (dimmerMappingTable.mappingInfo[i].isEnable != 1) {
    122e:	80 81       	ld	r24, Z
    1230:	81 30       	cpi	r24, 0x01	; 1
    1232:	99 f0       	breq	.+38     	; 0x125a <addDimmerMappingTable+0x4a>
			dimmerMappingTable.mappingInfo[i].dimmerId = dimmerId;
    1234:	f9 01       	movw	r30, r18
    1236:	ee 0f       	add	r30, r30
    1238:	ff 1f       	adc	r31, r31
    123a:	ee 0f       	add	r30, r30
    123c:	ff 1f       	adc	r31, r31
    123e:	e2 0f       	add	r30, r18
    1240:	f3 1f       	adc	r31, r19
    1242:	e9 54       	subi	r30, 0x49	; 73
    1244:	fd 4c       	sbci	r31, 0xCD	; 205
    1246:	d1 83       	std	Z+1, r29	; 0x01
    1248:	c0 83       	st	Z, r28
			dimmerMappingTable.mappingInfo[i].channelId = channelId;
    124a:	12 83       	std	Z+2, r17	; 0x02
			dimmerMappingTable.mappingInfo[i].circuitId = circuitId;
    124c:	03 83       	std	Z+3, r16	; 0x03
			dimmerMappingTable.mappingInfo[i].isEnable = 1;
    124e:	81 e0       	ldi	r24, 0x01	; 1
    1250:	84 83       	std	Z+4, r24	; 0x04
			break;
		}
	}

	if (i == MaxNumOfDimmerMappingInfo)
    1252:	28 32       	cpi	r18, 0x28	; 40
    1254:	31 05       	cpc	r19, r1
    1256:	41 f4       	brne	.+16     	; 0x1268 <addDimmerMappingTable+0x58>
    1258:	09 c0       	rjmp	.+18     	; 0x126c <addDimmerMappingTable+0x5c>
	uint16 i = 0;

	if (getDimmerMappingTableSize() >= MaxNumOfDimmerMappingInfo)
		return NULL;

	for (i = 0; i < MaxNumOfDimmerMappingInfo; i++) {
    125a:	2f 5f       	subi	r18, 0xFF	; 255
    125c:	3f 4f       	sbci	r19, 0xFF	; 255
    125e:	35 96       	adiw	r30, 0x05	; 5
    1260:	28 32       	cpi	r18, 0x28	; 40
    1262:	31 05       	cpc	r19, r1
    1264:	21 f7       	brne	.-56     	; 0x122e <addDimmerMappingTable+0x1e>
    1266:	02 c0       	rjmp	.+4      	; 0x126c <addDimmerMappingTable+0x5c>
	}

	if (i == MaxNumOfDimmerMappingInfo)
		return NULL;

	return &(dimmerMappingTable.mappingInfo[i]);
    1268:	9f 01       	movw	r18, r30
    126a:	02 c0       	rjmp	.+4      	; 0x1270 <addDimmerMappingTable+0x60>
    126c:	20 e0       	ldi	r18, 0x00	; 0
    126e:	30 e0       	ldi	r19, 0x00	; 0
}
    1270:	c9 01       	movw	r24, r18
    1272:	df 91       	pop	r29
    1274:	cf 91       	pop	r28
    1276:	1f 91       	pop	r17
    1278:	0f 91       	pop	r16
    127a:	08 95       	ret

0000127c <findDimmerMappingInfoByPair>:
	if (index != -1)
		dimmerMappingInfo_WriteToEEPRom(index);
	return result;
}

int findDimmerMappingInfoByPair(uint16 dimmerId, uint8 channelId, uint8 circuitId) {
    127c:	dc 01       	movw	r26, r24
    127e:	e7 eb       	ldi	r30, 0xB7	; 183
    1280:	f2 e3       	ldi	r31, 0x32	; 50
    1282:	20 e0       	ldi	r18, 0x00	; 0
    1284:	30 e0       	ldi	r19, 0x00	; 0
	uint16 i = 0;
	for (i = 0; i < MaxNumOfDimmerMappingInfo; i++)
		if (dimmerId == dimmerMappingTable.mappingInfo[i].dimmerId && channelId == dimmerMappingTable.mappingInfo[i].channelId && circuitId == dimmerMappingTable.mappingInfo[i].circuitId)
    1286:	80 81       	ld	r24, Z
    1288:	91 81       	ldd	r25, Z+1	; 0x01
    128a:	a8 17       	cp	r26, r24
    128c:	b9 07       	cpc	r27, r25
    128e:	31 f4       	brne	.+12     	; 0x129c <findDimmerMappingInfoByPair+0x20>
    1290:	82 81       	ldd	r24, Z+2	; 0x02
    1292:	68 17       	cp	r22, r24
    1294:	19 f4       	brne	.+6      	; 0x129c <findDimmerMappingInfoByPair+0x20>
    1296:	83 81       	ldd	r24, Z+3	; 0x03
    1298:	48 17       	cp	r20, r24
    129a:	41 f0       	breq	.+16     	; 0x12ac <findDimmerMappingInfoByPair+0x30>
	return result;
}

int findDimmerMappingInfoByPair(uint16 dimmerId, uint8 channelId, uint8 circuitId) {
	uint16 i = 0;
	for (i = 0; i < MaxNumOfDimmerMappingInfo; i++)
    129c:	2f 5f       	subi	r18, 0xFF	; 255
    129e:	3f 4f       	sbci	r19, 0xFF	; 255
    12a0:	35 96       	adiw	r30, 0x05	; 5
    12a2:	28 32       	cpi	r18, 0x28	; 40
    12a4:	31 05       	cpc	r19, r1
    12a6:	79 f7       	brne	.-34     	; 0x1286 <findDimmerMappingInfoByPair+0xa>
    12a8:	2f ef       	ldi	r18, 0xFF	; 255
    12aa:	3f ef       	ldi	r19, 0xFF	; 255
		if (dimmerId == dimmerMappingTable.mappingInfo[i].dimmerId && channelId == dimmerMappingTable.mappingInfo[i].channelId && circuitId == dimmerMappingTable.mappingInfo[i].circuitId)
			return i;
	return -1; // 찾는 값이 없으면 '-1'을 리턴
}
    12ac:	c9 01       	movw	r24, r18
    12ae:	08 95       	ret

000012b0 <findDimmerMappingInfoById>:

int findDimmerMappingInfoById(uint16 dimmerId, uint8 channelId) {
    12b0:	ac 01       	movw	r20, r24
    12b2:	e7 eb       	ldi	r30, 0xB7	; 183
    12b4:	f2 e3       	ldi	r31, 0x32	; 50
    12b6:	20 e0       	ldi	r18, 0x00	; 0
    12b8:	30 e0       	ldi	r19, 0x00	; 0
	uint16 i = 0;
	for (i = 0; i < MaxNumOfDimmerMappingInfo; i++)
		if (dimmerId == dimmerMappingTable.mappingInfo[i].dimmerId && channelId == dimmerMappingTable.mappingInfo[i].channelId && dimmerMappingTable.mappingInfo[i].isEnable == 1)
    12ba:	80 81       	ld	r24, Z
    12bc:	91 81       	ldd	r25, Z+1	; 0x01
    12be:	48 17       	cp	r20, r24
    12c0:	59 07       	cpc	r21, r25
    12c2:	31 f4       	brne	.+12     	; 0x12d0 <findDimmerMappingInfoById+0x20>
    12c4:	82 81       	ldd	r24, Z+2	; 0x02
    12c6:	68 17       	cp	r22, r24
    12c8:	19 f4       	brne	.+6      	; 0x12d0 <findDimmerMappingInfoById+0x20>
    12ca:	84 81       	ldd	r24, Z+4	; 0x04
    12cc:	81 30       	cpi	r24, 0x01	; 1
    12ce:	41 f0       	breq	.+16     	; 0x12e0 <findDimmerMappingInfoById+0x30>
	return -1; // 찾는 값이 없으면 '-1'을 리턴
}

int findDimmerMappingInfoById(uint16 dimmerId, uint8 channelId) {
	uint16 i = 0;
	for (i = 0; i < MaxNumOfDimmerMappingInfo; i++)
    12d0:	2f 5f       	subi	r18, 0xFF	; 255
    12d2:	3f 4f       	sbci	r19, 0xFF	; 255
    12d4:	35 96       	adiw	r30, 0x05	; 5
    12d6:	28 32       	cpi	r18, 0x28	; 40
    12d8:	31 05       	cpc	r19, r1
    12da:	79 f7       	brne	.-34     	; 0x12ba <findDimmerMappingInfoById+0xa>
    12dc:	2f ef       	ldi	r18, 0xFF	; 255
    12de:	3f ef       	ldi	r19, 0xFF	; 255
		if (dimmerId == dimmerMappingTable.mappingInfo[i].dimmerId && channelId == dimmerMappingTable.mappingInfo[i].channelId && dimmerMappingTable.mappingInfo[i].isEnable == 1)
			return i;
	return -1; // 찾는 값이 없으면 '-1'을 리턴
}
    12e0:	c9 01       	movw	r24, r18
    12e2:	08 95       	ret

000012e4 <dimmerMappingInfo_WriteAll>:

	/*eeprom_write_block(&(dimmerMappingTable.mappingInfo[index]), &(ee_DimmerSSRMappingInfo[index]),
	 sizeof(DimmerMappingInfo_st));*/
}

void dimmerMappingInfo_WriteAll() {
    12e4:	0f 93       	push	r16
    12e6:	1f 93       	push	r17
    12e8:	cf 93       	push	r28
    12ea:	df 93       	push	r29
    12ec:	00 e0       	ldi	r16, 0x00	; 0
    12ee:	10 e0       	ldi	r17, 0x00	; 0
	uint16 i = 0;
	uint8 j = 0;

	//Page당 51개 mapping 정보 기록. 총 255바이트.
	for (i = 0; i < MaxNumOfDimmerMappingInfo; i += 5) {
		wdt_reset();
    12f0:	a8 95       	wdr
    12f2:	f8 01       	movw	r30, r16
    12f4:	ee 0f       	add	r30, r30
    12f6:	ff 1f       	adc	r31, r31
    12f8:	ee 0f       	add	r30, r30
    12fa:	ff 1f       	adc	r31, r31
    12fc:	e0 0f       	add	r30, r16
    12fe:	f1 1f       	adc	r31, r17
    1300:	e9 54       	subi	r30, 0x49	; 73
    1302:	fd 4c       	sbci	r31, 0xCD	; 205
    1304:	cb ef       	ldi	r28, 0xFB	; 251
    1306:	dd e3       	ldi	r29, 0x3D	; 61
		for (j = 0; j < 5; j++) {
			tempBuffForMappingInfo[0 + 5 * j] = dimmerMappingTable.mappingInfo[i + j].channelId;
    1308:	82 81       	ldd	r24, Z+2	; 0x02
    130a:	88 83       	st	Y, r24
			tempBuffForMappingInfo[1 + 5 * j] = dimmerMappingTable.mappingInfo[i + j].circuitId;
    130c:	83 81       	ldd	r24, Z+3	; 0x03
    130e:	89 83       	std	Y+1, r24	; 0x01
			tempBuffForMappingInfo[2 + 5 * j] = dimmerMappingTable.mappingInfo[i + j].dimmerId >> 8;
    1310:	90 81       	ld	r25, Z
    1312:	81 81       	ldd	r24, Z+1	; 0x01
    1314:	8a 83       	std	Y+2, r24	; 0x02
			tempBuffForMappingInfo[3 + 5 * j] = dimmerMappingTable.mappingInfo[i + j].dimmerId;
    1316:	9b 83       	std	Y+3, r25	; 0x03
			tempBuffForMappingInfo[4 + 5 * j] = dimmerMappingTable.mappingInfo[i + j].isEnable;
    1318:	84 81       	ldd	r24, Z+4	; 0x04
    131a:	8c 83       	std	Y+4, r24	; 0x04
    131c:	35 96       	adiw	r30, 0x05	; 5
    131e:	25 96       	adiw	r28, 0x05	; 5
	uint8 j = 0;

	//Page당 51개 mapping 정보 기록. 총 255바이트.
	for (i = 0; i < MaxNumOfDimmerMappingInfo; i += 5) {
		wdt_reset();
		for (j = 0; j < 5; j++) {
    1320:	8e e3       	ldi	r24, 0x3E	; 62
    1322:	c4 31       	cpi	r28, 0x14	; 20
    1324:	d8 07       	cpc	r29, r24
    1326:	81 f7       	brne	.-32     	; 0x1308 <dimmerMappingInfo_WriteAll+0x24>
			tempBuffForMappingInfo[2 + 5 * j] = dimmerMappingTable.mappingInfo[i + j].dimmerId >> 8;
			tempBuffForMappingInfo[3 + 5 * j] = dimmerMappingTable.mappingInfo[i + j].dimmerId;
			tempBuffForMappingInfo[4 + 5 * j] = dimmerMappingTable.mappingInfo[i + j].isEnable;

		}
		flash_writeBytes(FLASH_ADDR_DIMMERMAPPING_INFO + i / 5, tempBuffForMappingInfo, 255);
    1328:	c8 01       	movw	r24, r16
    132a:	65 e0       	ldi	r22, 0x05	; 5
    132c:	70 e0       	ldi	r23, 0x00	; 0
    132e:	0e 94 c0 49 	call	0x9380	; 0x9380 <__udivmodhi4>
    1332:	cb 01       	movw	r24, r22
    1334:	69 97       	sbiw	r28, 0x19	; 25
    1336:	44 96       	adiw	r24, 0x14	; 20
    1338:	be 01       	movw	r22, r28
    133a:	4f ef       	ldi	r20, 0xFF	; 255
    133c:	0e 94 92 07 	call	0xf24	; 0xf24 <flash_writeBytes>
void dimmerMappingInfo_WriteAll() {
	uint16 i = 0;
	uint8 j = 0;

	//Page당 51개 mapping 정보 기록. 총 255바이트.
	for (i = 0; i < MaxNumOfDimmerMappingInfo; i += 5) {
    1340:	0b 5f       	subi	r16, 0xFB	; 251
    1342:	1f 4f       	sbci	r17, 0xFF	; 255
    1344:	08 32       	cpi	r16, 0x28	; 40
    1346:	11 05       	cpc	r17, r1
    1348:	99 f6       	brne	.-90     	; 0x12f0 <dimmerMappingInfo_WriteAll+0xc>
			tempBuffForMappingInfo[4 + 5 * j] = dimmerMappingTable.mappingInfo[i + j].isEnable;

		}
		flash_writeBytes(FLASH_ADDR_DIMMERMAPPING_INFO + i / 5, tempBuffForMappingInfo, 255);
	}
}
    134a:	df 91       	pop	r29
    134c:	cf 91       	pop	r28
    134e:	1f 91       	pop	r17
    1350:	0f 91       	pop	r16
    1352:	08 95       	ret

00001354 <sensorMappingInfo_WriteAll>:
	 eeprom_read_block(&(sensorMappingTable.mappingInfo[i]),
	 &(ee_SensorMappingInfo[i]), sizeof(SensorMappingInfo_st));
	 */
}

void sensorMappingInfo_WriteAll() {
    1354:	cf 93       	push	r28
    1356:	df 93       	push	r29
    1358:	c0 e0       	ldi	r28, 0x00	; 0
    135a:	d0 e0       	ldi	r29, 0x00	; 0
	uint16 i = 0;
	uint8 j = 0;

	//Page당 28개 mapping 정보 기록. 총 252바이트.
	for (i = 0; i < MaxNumOfSensorMappingInfo; i += 28) {
		wdt_reset();
    135c:	a8 95       	wdr
    135e:	fe 01       	movw	r30, r28
    1360:	63 e0       	ldi	r22, 0x03	; 3
    1362:	ee 0f       	add	r30, r30
    1364:	ff 1f       	adc	r31, r31
    1366:	6a 95       	dec	r22
    1368:	e1 f7       	brne	.-8      	; 0x1362 <sensorMappingInfo_WriteAll+0xe>
    136a:	ec 0f       	add	r30, r28
    136c:	fd 1f       	adc	r31, r29
    136e:	e2 54       	subi	r30, 0x42	; 66
    1370:	fb 4c       	sbci	r31, 0xCB	; 203
    1372:	ab ef       	ldi	r26, 0xFB	; 251
    1374:	bd e3       	ldi	r27, 0x3D	; 61
		for (j = 0; j < 28; j++) {
			tempBuffForMappingInfo[0 + 9 * j] = sensorMappingTable.mappingInfo[i + j].circuitId;
    1376:	84 81       	ldd	r24, Z+4	; 0x04
    1378:	8c 93       	st	X, r24
			tempBuffForMappingInfo[1 + 9 * j] = sensorMappingTable.mappingInfo[i + j].isEnable;
    137a:	80 85       	ldd	r24, Z+8	; 0x08
    137c:	11 96       	adiw	r26, 0x01	; 1
    137e:	8c 93       	st	X, r24
    1380:	11 97       	sbiw	r26, 0x01	; 1
			tempBuffForMappingInfo[2 + 9 * j] = sensorMappingTable.mappingInfo[i + j].lcId >> 8;
    1382:	90 81       	ld	r25, Z
    1384:	81 81       	ldd	r24, Z+1	; 0x01
    1386:	12 96       	adiw	r26, 0x02	; 2
    1388:	8c 93       	st	X, r24
    138a:	12 97       	sbiw	r26, 0x02	; 2
			tempBuffForMappingInfo[3 + 9 * j] = sensorMappingTable.mappingInfo[i + j].lcId;
    138c:	13 96       	adiw	r26, 0x03	; 3
    138e:	9c 93       	st	X, r25
    1390:	13 97       	sbiw	r26, 0x03	; 3
			tempBuffForMappingInfo[4 + 9 * j] = sensorMappingTable.mappingInfo[i + j].offCtrlMode;
    1392:	87 81       	ldd	r24, Z+7	; 0x07
    1394:	14 96       	adiw	r26, 0x04	; 4
    1396:	8c 93       	st	X, r24
    1398:	14 97       	sbiw	r26, 0x04	; 4
			tempBuffForMappingInfo[5 + 9 * j] = sensorMappingTable.mappingInfo[i + j].onCtrlMode;
    139a:	86 81       	ldd	r24, Z+6	; 0x06
    139c:	15 96       	adiw	r26, 0x05	; 5
    139e:	8c 93       	st	X, r24
    13a0:	15 97       	sbiw	r26, 0x05	; 5
			tempBuffForMappingInfo[6 + 9 * j] = sensorMappingTable.mappingInfo[i + j].onTime;
    13a2:	85 81       	ldd	r24, Z+5	; 0x05
    13a4:	16 96       	adiw	r26, 0x06	; 6
    13a6:	8c 93       	st	X, r24
    13a8:	16 97       	sbiw	r26, 0x06	; 6
			tempBuffForMappingInfo[7 + 9 * j] = sensorMappingTable.mappingInfo[i + j].sensorId >> 8;
    13aa:	92 81       	ldd	r25, Z+2	; 0x02
    13ac:	83 81       	ldd	r24, Z+3	; 0x03
    13ae:	17 96       	adiw	r26, 0x07	; 7
    13b0:	8c 93       	st	X, r24
    13b2:	17 97       	sbiw	r26, 0x07	; 7
			tempBuffForMappingInfo[8 + 9 * j] = sensorMappingTable.mappingInfo[i + j].sensorId;
    13b4:	18 96       	adiw	r26, 0x08	; 8
    13b6:	9c 93       	st	X, r25
    13b8:	18 97       	sbiw	r26, 0x08	; 8
    13ba:	39 96       	adiw	r30, 0x09	; 9
    13bc:	19 96       	adiw	r26, 0x09	; 9
	uint8 j = 0;

	//Page당 28개 mapping 정보 기록. 총 252바이트.
	for (i = 0; i < MaxNumOfSensorMappingInfo; i += 28) {
		wdt_reset();
		for (j = 0; j < 28; j++) {
    13be:	8e e3       	ldi	r24, 0x3E	; 62
    13c0:	a7 3f       	cpi	r26, 0xF7	; 247
    13c2:	b8 07       	cpc	r27, r24
    13c4:	c1 f6       	brne	.-80     	; 0x1376 <sensorMappingInfo_WriteAll+0x22>
			tempBuffForMappingInfo[6 + 9 * j] = sensorMappingTable.mappingInfo[i + j].onTime;
			tempBuffForMappingInfo[7 + 9 * j] = sensorMappingTable.mappingInfo[i + j].sensorId >> 8;
			tempBuffForMappingInfo[8 + 9 * j] = sensorMappingTable.mappingInfo[i + j].sensorId;
		}

		flash_writeBytes(FLASH_ADDR_SENSORMAPPING_INFO + i / 28, tempBuffForMappingInfo, 255);
    13c6:	ce 01       	movw	r24, r28
    13c8:	6c e1       	ldi	r22, 0x1C	; 28
    13ca:	70 e0       	ldi	r23, 0x00	; 0
    13cc:	0e 94 c0 49 	call	0x9380	; 0x9380 <__udivmodhi4>
    13d0:	cb 01       	movw	r24, r22
    13d2:	0a 96       	adiw	r24, 0x0a	; 10
    13d4:	6b ef       	ldi	r22, 0xFB	; 251
    13d6:	7d e3       	ldi	r23, 0x3D	; 61
    13d8:	4f ef       	ldi	r20, 0xFF	; 255
    13da:	0e 94 92 07 	call	0xf24	; 0xf24 <flash_writeBytes>
void sensorMappingInfo_WriteAll() {
	uint16 i = 0;
	uint8 j = 0;

	//Page당 28개 mapping 정보 기록. 총 252바이트.
	for (i = 0; i < MaxNumOfSensorMappingInfo; i += 28) {
    13de:	6c 96       	adiw	r28, 0x1c	; 28
    13e0:	81 e0       	ldi	r24, 0x01	; 1
    13e2:	c8 31       	cpi	r28, 0x18	; 24
    13e4:	d8 07       	cpc	r29, r24
    13e6:	09 f0       	breq	.+2      	; 0x13ea <sensorMappingInfo_WriteAll+0x96>
    13e8:	b9 cf       	rjmp	.-142    	; 0x135c <sensorMappingInfo_WriteAll+0x8>
			tempBuffForMappingInfo[8 + 9 * j] = sensorMappingTable.mappingInfo[i + j].sensorId;
		}

		flash_writeBytes(FLASH_ADDR_SENSORMAPPING_INFO + i / 28, tempBuffForMappingInfo, 255);
	}
}
    13ea:	df 91       	pop	r29
    13ec:	cf 91       	pop	r28
    13ee:	08 95       	ret

000013f0 <dimmerMappingInfo_WriteToEEPRom>:
	/*for (i = 0; i < MaxNumOfDimmerMappingInfo; i++)
	 eeprom_read_block(&(dimmerMappingTable.mappingInfo[i]), &(ee_DimmerSSRMappingInfo[i]),
	 sizeof(DimmerMappingInfo_st));*/
}

void dimmerMappingInfo_WriteToEEPRom(uint16 index) {
    13f0:	df 92       	push	r13
    13f2:	ef 92       	push	r14
    13f4:	ff 92       	push	r15
    13f6:	0f 93       	push	r16
    13f8:	1f 93       	push	r17
    13fa:	8c 01       	movw	r16, r24
	uint8 pageAddr = FLASH_ADDR_DIMMERMAPPING_INFO + index / 5;
	flash_readBytes(pageAddr, tempBuffForMappingInfo, 255);
    13fc:	65 e0       	ldi	r22, 0x05	; 5
    13fe:	70 e0       	ldi	r23, 0x00	; 0
    1400:	0e 94 c0 49 	call	0x9380	; 0x9380 <__udivmodhi4>
    1404:	d6 2e       	mov	r13, r22
    1406:	84 e1       	ldi	r24, 0x14	; 20
    1408:	d8 0e       	add	r13, r24
    140a:	fb ef       	ldi	r31, 0xFB	; 251
    140c:	ef 2e       	mov	r14, r31
    140e:	fd e3       	ldi	r31, 0x3D	; 61
    1410:	ff 2e       	mov	r15, r31
    1412:	8d 2d       	mov	r24, r13
    1414:	90 e0       	ldi	r25, 0x00	; 0
    1416:	b7 01       	movw	r22, r14
    1418:	4f ef       	ldi	r20, 0xFF	; 255
    141a:	0e 94 a6 07 	call	0xf4c	; 0xf4c <flash_readBytes>
	uint8 slotIndex = (index % 5) * 5;
	;

	//Page당 28개 mapping 정보 기록. 총 252바이트.

	tempBuffForMappingInfo[0 + slotIndex] = dimmerMappingTable.mappingInfo[index].channelId;
    141e:	c8 01       	movw	r24, r16
    1420:	65 e0       	ldi	r22, 0x05	; 5
    1422:	70 e0       	ldi	r23, 0x00	; 0
    1424:	0e 94 c0 49 	call	0x9380	; 0x9380 <__udivmodhi4>
    1428:	9c 01       	movw	r18, r24
    142a:	22 0f       	add	r18, r18
    142c:	33 1f       	adc	r19, r19
    142e:	22 0f       	add	r18, r18
    1430:	33 1f       	adc	r19, r19
    1432:	82 0f       	add	r24, r18
    1434:	d7 01       	movw	r26, r14
    1436:	a8 0f       	add	r26, r24
    1438:	b1 1d       	adc	r27, r1
    143a:	f8 01       	movw	r30, r16
    143c:	ee 0f       	add	r30, r30
    143e:	ff 1f       	adc	r31, r31
    1440:	ee 0f       	add	r30, r30
    1442:	ff 1f       	adc	r31, r31
    1444:	e0 0f       	add	r30, r16
    1446:	f1 1f       	adc	r31, r17
    1448:	e9 54       	subi	r30, 0x49	; 73
    144a:	fd 4c       	sbci	r31, 0xCD	; 205
    144c:	82 81       	ldd	r24, Z+2	; 0x02
    144e:	8c 93       	st	X, r24
	tempBuffForMappingInfo[1 + slotIndex] = dimmerMappingTable.mappingInfo[index].circuitId;
    1450:	83 81       	ldd	r24, Z+3	; 0x03
    1452:	11 96       	adiw	r26, 0x01	; 1
    1454:	8c 93       	st	X, r24
    1456:	11 97       	sbiw	r26, 0x01	; 1
	tempBuffForMappingInfo[2 + slotIndex] = dimmerMappingTable.mappingInfo[index].dimmerId >> 8;
    1458:	90 81       	ld	r25, Z
    145a:	81 81       	ldd	r24, Z+1	; 0x01
    145c:	12 96       	adiw	r26, 0x02	; 2
    145e:	8c 93       	st	X, r24
    1460:	12 97       	sbiw	r26, 0x02	; 2
	tempBuffForMappingInfo[3 + slotIndex] = dimmerMappingTable.mappingInfo[index].dimmerId;
    1462:	13 96       	adiw	r26, 0x03	; 3
    1464:	9c 93       	st	X, r25
    1466:	13 97       	sbiw	r26, 0x03	; 3
	tempBuffForMappingInfo[4 + slotIndex] = dimmerMappingTable.mappingInfo[index].isEnable;
    1468:	84 81       	ldd	r24, Z+4	; 0x04
    146a:	14 96       	adiw	r26, 0x04	; 4
    146c:	8c 93       	st	X, r24

	flash_writeBytes(pageAddr, tempBuffForMappingInfo, 255);
    146e:	8d 2d       	mov	r24, r13
    1470:	90 e0       	ldi	r25, 0x00	; 0
    1472:	b7 01       	movw	r22, r14
    1474:	4f ef       	ldi	r20, 0xFF	; 255
    1476:	0e 94 92 07 	call	0xf24	; 0xf24 <flash_writeBytes>

	/*eeprom_write_block(&(dimmerMappingTable.mappingInfo[index]), &(ee_DimmerSSRMappingInfo[index]),
	 sizeof(DimmerMappingInfo_st));*/
}
    147a:	1f 91       	pop	r17
    147c:	0f 91       	pop	r16
    147e:	ff 90       	pop	r15
    1480:	ef 90       	pop	r14
    1482:	df 90       	pop	r13
    1484:	08 95       	ret

00001486 <updateDimmerMappingTable>:
		return NULL;

	return &(dimmerMappingTable.mappingInfo[i]);
}

int updateDimmerMappingTable(uint16 dimmerId, uint8 channelId, uint8 circuitId) {
    1486:	0f 93       	push	r16
    1488:	1f 93       	push	r17
    148a:	cf 93       	push	r28
    148c:	df 93       	push	r29
    148e:	ec 01       	movw	r28, r24
    1490:	16 2f       	mov	r17, r22
    1492:	04 2f       	mov	r16, r20
	int index;
	int result;

	if ((index = findDimmerMappingInfoById(dimmerId, channelId)) != -1) {
    1494:	0e 94 58 09 	call	0x12b0	; 0x12b0 <findDimmerMappingInfoById>
    1498:	8f 5f       	subi	r24, 0xFF	; 255
    149a:	9f 4f       	sbci	r25, 0xFF	; 255
    149c:	19 f0       	breq	.+6      	; 0x14a4 <updateDimmerMappingTable+0x1e>
    149e:	20 e0       	ldi	r18, 0x00	; 0
    14a0:	30 e0       	ldi	r19, 0x00	; 0
    14a2:	16 c0       	rjmp	.+44     	; 0x14d0 <updateDimmerMappingTable+0x4a>
		return 0;
	} else {
		if (addDimmerMappingTable(dimmerId, channelId, circuitId) == NULL)
    14a4:	ce 01       	movw	r24, r28
    14a6:	61 2f       	mov	r22, r17
    14a8:	40 2f       	mov	r20, r16
    14aa:	0e 94 08 09 	call	0x1210	; 0x1210 <addDimmerMappingTable>
    14ae:	89 2b       	or	r24, r25
    14b0:	19 f4       	brne	.+6      	; 0x14b8 <updateDimmerMappingTable+0x32>
    14b2:	22 e0       	ldi	r18, 0x02	; 2
    14b4:	30 e0       	ldi	r19, 0x00	; 0
    14b6:	0c c0       	rjmp	.+24     	; 0x14d0 <updateDimmerMappingTable+0x4a>
			return 2;
		else
			result = 1;
	}

	index = findDimmerMappingInfoById(dimmerId, channelId);
    14b8:	ce 01       	movw	r24, r28
    14ba:	61 2f       	mov	r22, r17
    14bc:	0e 94 58 09 	call	0x12b0	; 0x12b0 <findDimmerMappingInfoById>
	if (index != -1)
    14c0:	2f ef       	ldi	r18, 0xFF	; 255
    14c2:	8f 3f       	cpi	r24, 0xFF	; 255
    14c4:	92 07       	cpc	r25, r18
    14c6:	11 f0       	breq	.+4      	; 0x14cc <updateDimmerMappingTable+0x46>
		dimmerMappingInfo_WriteToEEPRom(index);
    14c8:	0e 94 f8 09 	call	0x13f0	; 0x13f0 <dimmerMappingInfo_WriteToEEPRom>
    14cc:	21 e0       	ldi	r18, 0x01	; 1
    14ce:	30 e0       	ldi	r19, 0x00	; 0
	return result;
}
    14d0:	c9 01       	movw	r24, r18
    14d2:	df 91       	pop	r29
    14d4:	cf 91       	pop	r28
    14d6:	1f 91       	pop	r17
    14d8:	0f 91       	pop	r16
    14da:	08 95       	ret

000014dc <initDimmerMappingTable>:
		if (dimmerId == dimmerMappingTable.mappingInfo[i].dimmerId && channelId == dimmerMappingTable.mappingInfo[i].channelId && dimmerMappingTable.mappingInfo[i].isEnable == 1)
			return i;
	return -1; // 찾는 값이 없으면 '-1'을 리턴
}

void initDimmerMappingTable() {
    14dc:	0f 93       	push	r16
    14de:	1f 93       	push	r17
    14e0:	cf 93       	push	r28
    14e2:	df 93       	push	r29
    14e4:	c0 e0       	ldi	r28, 0x00	; 0
    14e6:	d0 e0       	ldi	r29, 0x00	; 0
	uint16 i = 0;
	uint8 j = 0;

	//Page당 51개 mapping 정보 기록. 총 255바이트.
	for (i = 0; i < MaxNumOfDimmerMappingInfo; i += 5) {
		wdt_reset();
    14e8:	a8 95       	wdr
		flash_readBytes(FLASH_ADDR_DIMMERMAPPING_INFO + i / 5, tempBuffForMappingInfo, 255);
    14ea:	ce 01       	movw	r24, r28
    14ec:	65 e0       	ldi	r22, 0x05	; 5
    14ee:	70 e0       	ldi	r23, 0x00	; 0
    14f0:	0e 94 c0 49 	call	0x9380	; 0x9380 <__udivmodhi4>
    14f4:	cb 01       	movw	r24, r22
    14f6:	44 96       	adiw	r24, 0x14	; 20
    14f8:	6b ef       	ldi	r22, 0xFB	; 251
    14fa:	7d e3       	ldi	r23, 0x3D	; 61
    14fc:	4f ef       	ldi	r20, 0xFF	; 255
    14fe:	0e 94 a6 07 	call	0xf4c	; 0xf4c <flash_readBytes>
    1502:	ab ef       	ldi	r26, 0xFB	; 251
    1504:	bd e3       	ldi	r27, 0x3D	; 61
    1506:	fe 01       	movw	r30, r28
    1508:	ee 0f       	add	r30, r30
    150a:	ff 1f       	adc	r31, r31
    150c:	ee 0f       	add	r30, r30
    150e:	ff 1f       	adc	r31, r31
    1510:	ec 0f       	add	r30, r28
    1512:	fd 1f       	adc	r31, r29
    1514:	e9 54       	subi	r30, 0x49	; 73
    1516:	fd 4c       	sbci	r31, 0xCD	; 205
		for (j = 0; j < 5; j++) {
			dimmerMappingTable.mappingInfo[i + j].channelId = tempBuffForMappingInfo[0 + 5 * j];
    1518:	8c 91       	ld	r24, X
    151a:	82 83       	std	Z+2, r24	; 0x02
			dimmerMappingTable.mappingInfo[i + j].circuitId = tempBuffForMappingInfo[1 + 5 * j];
    151c:	11 96       	adiw	r26, 0x01	; 1
    151e:	8c 91       	ld	r24, X
    1520:	11 97       	sbiw	r26, 0x01	; 1
    1522:	83 83       	std	Z+3, r24	; 0x03
			dimmerMappingTable.mappingInfo[i + j].dimmerId = (tempBuffForMappingInfo[2 + 5 * j] << 8) | tempBuffForMappingInfo[3 + 5 * j];
    1524:	12 96       	adiw	r26, 0x02	; 2
    1526:	1c 91       	ld	r17, X
    1528:	12 97       	sbiw	r26, 0x02	; 2
    152a:	00 e0       	ldi	r16, 0x00	; 0
    152c:	13 96       	adiw	r26, 0x03	; 3
    152e:	8c 91       	ld	r24, X
    1530:	13 97       	sbiw	r26, 0x03	; 3
    1532:	90 e0       	ldi	r25, 0x00	; 0
    1534:	80 2b       	or	r24, r16
    1536:	91 2b       	or	r25, r17
    1538:	91 83       	std	Z+1, r25	; 0x01
    153a:	80 83       	st	Z, r24
			dimmerMappingTable.mappingInfo[i + j].isEnable = tempBuffForMappingInfo[4 + 5 * j];
    153c:	14 96       	adiw	r26, 0x04	; 4
    153e:	8c 91       	ld	r24, X
    1540:	14 97       	sbiw	r26, 0x04	; 4
    1542:	84 83       	std	Z+4, r24	; 0x04
    1544:	15 96       	adiw	r26, 0x05	; 5
    1546:	35 96       	adiw	r30, 0x05	; 5

	//Page당 51개 mapping 정보 기록. 총 255바이트.
	for (i = 0; i < MaxNumOfDimmerMappingInfo; i += 5) {
		wdt_reset();
		flash_readBytes(FLASH_ADDR_DIMMERMAPPING_INFO + i / 5, tempBuffForMappingInfo, 255);
		for (j = 0; j < 5; j++) {
    1548:	8e e3       	ldi	r24, 0x3E	; 62
    154a:	a4 31       	cpi	r26, 0x14	; 20
    154c:	b8 07       	cpc	r27, r24
    154e:	21 f7       	brne	.-56     	; 0x1518 <initDimmerMappingTable+0x3c>
void initDimmerMappingTable() {
	uint16 i = 0;
	uint8 j = 0;

	//Page당 51개 mapping 정보 기록. 총 255바이트.
	for (i = 0; i < MaxNumOfDimmerMappingInfo; i += 5) {
    1550:	25 96       	adiw	r28, 0x05	; 5
    1552:	c8 32       	cpi	r28, 0x28	; 40
    1554:	d1 05       	cpc	r29, r1
    1556:	41 f6       	brne	.-112    	; 0x14e8 <initDimmerMappingTable+0xc>
	}

	/*for (i = 0; i < MaxNumOfDimmerMappingInfo; i++)
	 eeprom_read_block(&(dimmerMappingTable.mappingInfo[i]), &(ee_DimmerSSRMappingInfo[i]),
	 sizeof(DimmerMappingInfo_st));*/
}
    1558:	df 91       	pop	r29
    155a:	cf 91       	pop	r28
    155c:	1f 91       	pop	r17
    155e:	0f 91       	pop	r16
    1560:	08 95       	ret

00001562 <sensorMappingInfo_WriteToEEPRom>:
		}

		flash_writeBytes(FLASH_ADDR_SENSORMAPPING_INFO + i / 28, tempBuffForMappingInfo, 255);
	}
}
void sensorMappingInfo_WriteToEEPRom(uint16 index) {
    1562:	df 92       	push	r13
    1564:	ef 92       	push	r14
    1566:	ff 92       	push	r15
    1568:	0f 93       	push	r16
    156a:	1f 93       	push	r17
    156c:	8c 01       	movw	r16, r24
	uint8 pageAddr = FLASH_ADDR_SENSORMAPPING_INFO + index / 28;
	flash_readBytes(pageAddr, tempBuffForMappingInfo, 255);
    156e:	6c e1       	ldi	r22, 0x1C	; 28
    1570:	70 e0       	ldi	r23, 0x00	; 0
    1572:	0e 94 c0 49 	call	0x9380	; 0x9380 <__udivmodhi4>
    1576:	d6 2e       	mov	r13, r22
    1578:	8a e0       	ldi	r24, 0x0A	; 10
    157a:	d8 0e       	add	r13, r24
    157c:	2b ef       	ldi	r18, 0xFB	; 251
    157e:	e2 2e       	mov	r14, r18
    1580:	2d e3       	ldi	r18, 0x3D	; 61
    1582:	f2 2e       	mov	r15, r18
    1584:	8d 2d       	mov	r24, r13
    1586:	90 e0       	ldi	r25, 0x00	; 0
    1588:	b7 01       	movw	r22, r14
    158a:	4f ef       	ldi	r20, 0xFF	; 255
    158c:	0e 94 a6 07 	call	0xf4c	; 0xf4c <flash_readBytes>
	uint8 slotIndex = (index % 28) * 9;
	;

	//Page당 28개 mapping 정보 기록. 총 252바이트.

	tempBuffForMappingInfo[0 + slotIndex] = sensorMappingTable.mappingInfo[index].circuitId;
    1590:	c8 01       	movw	r24, r16
    1592:	6c e1       	ldi	r22, 0x1C	; 28
    1594:	70 e0       	ldi	r23, 0x00	; 0
    1596:	0e 94 c0 49 	call	0x9380	; 0x9380 <__udivmodhi4>
    159a:	9c 01       	movw	r18, r24
    159c:	93 e0       	ldi	r25, 0x03	; 3
    159e:	22 0f       	add	r18, r18
    15a0:	33 1f       	adc	r19, r19
    15a2:	9a 95       	dec	r25
    15a4:	e1 f7       	brne	.-8      	; 0x159e <sensorMappingInfo_WriteToEEPRom+0x3c>
    15a6:	82 0f       	add	r24, r18
    15a8:	d7 01       	movw	r26, r14
    15aa:	a8 0f       	add	r26, r24
    15ac:	b1 1d       	adc	r27, r1
    15ae:	f8 01       	movw	r30, r16
    15b0:	83 e0       	ldi	r24, 0x03	; 3
    15b2:	ee 0f       	add	r30, r30
    15b4:	ff 1f       	adc	r31, r31
    15b6:	8a 95       	dec	r24
    15b8:	e1 f7       	brne	.-8      	; 0x15b2 <sensorMappingInfo_WriteToEEPRom+0x50>
    15ba:	e0 0f       	add	r30, r16
    15bc:	f1 1f       	adc	r31, r17
    15be:	e2 54       	subi	r30, 0x42	; 66
    15c0:	fb 4c       	sbci	r31, 0xCB	; 203
    15c2:	84 81       	ldd	r24, Z+4	; 0x04
    15c4:	8c 93       	st	X, r24
	tempBuffForMappingInfo[1 + slotIndex] = sensorMappingTable.mappingInfo[index].isEnable;
    15c6:	80 85       	ldd	r24, Z+8	; 0x08
    15c8:	11 96       	adiw	r26, 0x01	; 1
    15ca:	8c 93       	st	X, r24
    15cc:	11 97       	sbiw	r26, 0x01	; 1
	tempBuffForMappingInfo[2 + slotIndex] = sensorMappingTable.mappingInfo[index].lcId >> 8;
    15ce:	90 81       	ld	r25, Z
    15d0:	81 81       	ldd	r24, Z+1	; 0x01
    15d2:	12 96       	adiw	r26, 0x02	; 2
    15d4:	8c 93       	st	X, r24
    15d6:	12 97       	sbiw	r26, 0x02	; 2
	tempBuffForMappingInfo[3 + slotIndex] = sensorMappingTable.mappingInfo[index].lcId;
    15d8:	13 96       	adiw	r26, 0x03	; 3
    15da:	9c 93       	st	X, r25
    15dc:	13 97       	sbiw	r26, 0x03	; 3
	tempBuffForMappingInfo[4 + slotIndex] = sensorMappingTable.mappingInfo[index].offCtrlMode;
    15de:	87 81       	ldd	r24, Z+7	; 0x07
    15e0:	14 96       	adiw	r26, 0x04	; 4
    15e2:	8c 93       	st	X, r24
    15e4:	14 97       	sbiw	r26, 0x04	; 4
	tempBuffForMappingInfo[5 + slotIndex] = sensorMappingTable.mappingInfo[index].onCtrlMode;
    15e6:	86 81       	ldd	r24, Z+6	; 0x06
    15e8:	15 96       	adiw	r26, 0x05	; 5
    15ea:	8c 93       	st	X, r24
    15ec:	15 97       	sbiw	r26, 0x05	; 5
	tempBuffForMappingInfo[6 + slotIndex] = sensorMappingTable.mappingInfo[index].onTime;
    15ee:	85 81       	ldd	r24, Z+5	; 0x05
    15f0:	16 96       	adiw	r26, 0x06	; 6
    15f2:	8c 93       	st	X, r24
    15f4:	16 97       	sbiw	r26, 0x06	; 6
	tempBuffForMappingInfo[7 + slotIndex] = sensorMappingTable.mappingInfo[index].sensorId >> 8;
    15f6:	92 81       	ldd	r25, Z+2	; 0x02
    15f8:	83 81       	ldd	r24, Z+3	; 0x03
    15fa:	17 96       	adiw	r26, 0x07	; 7
    15fc:	8c 93       	st	X, r24
    15fe:	17 97       	sbiw	r26, 0x07	; 7
	tempBuffForMappingInfo[8 + slotIndex] = sensorMappingTable.mappingInfo[index].sensorId;
    1600:	18 96       	adiw	r26, 0x08	; 8
    1602:	9c 93       	st	X, r25

	flash_writeBytes(pageAddr, tempBuffForMappingInfo, 255);
    1604:	8d 2d       	mov	r24, r13
    1606:	90 e0       	ldi	r25, 0x00	; 0
    1608:	b7 01       	movw	r22, r14
    160a:	4f ef       	ldi	r20, 0xFF	; 255
    160c:	0e 94 92 07 	call	0xf24	; 0xf24 <flash_writeBytes>

	//eeprom_write_block(&(sensorMappingTable.mappingInfo[index]), &(ee_SensorMappingInfo[index]),
	//	sizeof(SensorMappingInfo_st));

}
    1610:	1f 91       	pop	r17
    1612:	0f 91       	pop	r16
    1614:	ff 90       	pop	r15
    1616:	ef 90       	pop	r14
    1618:	df 90       	pop	r13
    161a:	08 95       	ret

0000161c <updateSensorMappingTable>:
		}

	return result;
}

int updateSensorMappingTable(uint16 lcId, uint16 sensorId, uint8 circuitId, uint8 onTime, uint8 onCtrlMode, uint8 offCtrlMode) {
    161c:	af 92       	push	r10
    161e:	bf 92       	push	r11
    1620:	cf 92       	push	r12
    1622:	df 92       	push	r13
    1624:	ef 92       	push	r14
    1626:	ff 92       	push	r15
    1628:	0f 93       	push	r16
    162a:	1f 93       	push	r17
    162c:	cf 93       	push	r28
    162e:	df 93       	push	r29
    1630:	6c 01       	movw	r12, r24
    1632:	5b 01       	movw	r10, r22
    1634:	14 2f       	mov	r17, r20
    1636:	f2 2e       	mov	r15, r18
	int index;
	int result = 0;
	if ((index = findSensorMappingInfoById(lcId, sensorId, circuitId)) != -1) {
    1638:	0e 94 c7 08 	call	0x118e	; 0x118e <findSensorMappingInfoById>
    163c:	2f ef       	ldi	r18, 0xFF	; 255
    163e:	8f 3f       	cpi	r24, 0xFF	; 255
    1640:	92 07       	cpc	r25, r18
    1642:	81 f0       	breq	.+32     	; 0x1664 <updateSensorMappingTable+0x48>
		sensorMappingTable.mappingInfo[index].onTime = onTime;
    1644:	fc 01       	movw	r30, r24
    1646:	33 e0       	ldi	r19, 0x03	; 3
    1648:	ee 0f       	add	r30, r30
    164a:	ff 1f       	adc	r31, r31
    164c:	3a 95       	dec	r19
    164e:	e1 f7       	brne	.-8      	; 0x1648 <updateSensorMappingTable+0x2c>
    1650:	e8 0f       	add	r30, r24
    1652:	f9 1f       	adc	r31, r25
    1654:	e2 54       	subi	r30, 0x42	; 66
    1656:	fb 4c       	sbci	r31, 0xCB	; 203
    1658:	f5 82       	std	Z+5, r15	; 0x05
		sensorMappingTable.mappingInfo[index].onCtrlMode = onCtrlMode;
    165a:	06 83       	std	Z+6, r16	; 0x06
		sensorMappingTable.mappingInfo[index].offCtrlMode = offCtrlMode;
    165c:	e7 82       	std	Z+7, r14	; 0x07
    165e:	c2 e0       	ldi	r28, 0x02	; 2
    1660:	d0 e0       	ldi	r29, 0x00	; 0
    1662:	0d c0       	rjmp	.+26     	; 0x167e <updateSensorMappingTable+0x62>
		result = 2;
	} else if (addSensorMappingTable(lcId, sensorId, circuitId, onTime, onCtrlMode, offCtrlMode) != NULL) {
    1664:	c6 01       	movw	r24, r12
    1666:	b5 01       	movw	r22, r10
    1668:	41 2f       	mov	r20, r17
    166a:	2f 2d       	mov	r18, r15
    166c:	0e 94 82 08 	call	0x1104	; 0x1104 <addSensorMappingTable>
    1670:	89 2b       	or	r24, r25
    1672:	19 f4       	brne	.+6      	; 0x167a <updateSensorMappingTable+0x5e>
    1674:	c0 e0       	ldi	r28, 0x00	; 0
    1676:	d0 e0       	ldi	r29, 0x00	; 0
    1678:	0d c0       	rjmp	.+26     	; 0x1694 <updateSensorMappingTable+0x78>
    167a:	c1 e0       	ldi	r28, 0x01	; 1
    167c:	d0 e0       	ldi	r29, 0x00	; 0
		result = 1;
	} else {
		return 0;
	}

	index = findSensorMappingInfoById(lcId, sensorId, circuitId);
    167e:	c6 01       	movw	r24, r12
    1680:	b5 01       	movw	r22, r10
    1682:	41 2f       	mov	r20, r17
    1684:	0e 94 c7 08 	call	0x118e	; 0x118e <findSensorMappingInfoById>

	if (index != -1) {
    1688:	2f ef       	ldi	r18, 0xFF	; 255
    168a:	8f 3f       	cpi	r24, 0xFF	; 255
    168c:	92 07       	cpc	r25, r18
    168e:	11 f0       	breq	.+4      	; 0x1694 <updateSensorMappingTable+0x78>
		sensorMappingInfo_WriteToEEPRom(index);
    1690:	0e 94 b1 0a 	call	0x1562	; 0x1562 <sensorMappingInfo_WriteToEEPRom>
	}

	return result;
}
    1694:	ce 01       	movw	r24, r28
    1696:	df 91       	pop	r29
    1698:	cf 91       	pop	r28
    169a:	1f 91       	pop	r17
    169c:	0f 91       	pop	r16
    169e:	ff 90       	pop	r15
    16a0:	ef 90       	pop	r14
    16a2:	df 90       	pop	r13
    16a4:	cf 90       	pop	r12
    16a6:	bf 90       	pop	r11
    16a8:	af 90       	pop	r10
    16aa:	08 95       	ret

000016ac <updateSensorMappingTableByCircuit>:
	}

	return &(sensorMappingTable.mappingInfo[i]);
}

int updateSensorMappingTableByCircuit(uint8 circuitId, uint8 onTime, uint8 onCtrlMode, uint8 offCtrlMode) {
    16ac:	cf 92       	push	r12
    16ae:	df 92       	push	r13
    16b0:	ef 92       	push	r14
    16b2:	ff 92       	push	r15
    16b4:	0f 93       	push	r16
    16b6:	1f 93       	push	r17
    16b8:	cf 93       	push	r28
    16ba:	df 93       	push	r29
    16bc:	c8 2e       	mov	r12, r24
    16be:	d6 2e       	mov	r13, r22
    16c0:	e4 2e       	mov	r14, r20
    16c2:	f2 2e       	mov	r15, r18
    16c4:	c2 ec       	ldi	r28, 0xC2	; 194
    16c6:	d4 e3       	ldi	r29, 0x34	; 52
    16c8:	00 e0       	ldi	r16, 0x00	; 0
    16ca:	10 e0       	ldi	r17, 0x00	; 0
	int index;
	int result = 0;
	uint16 i = 0;

	for (i = 0; i < MaxNumOfSensorMappingInfo; i++)
		if (circuitId == sensorMappingTable.mappingInfo[i].circuitId && sensorMappingTable.mappingInfo[i].isEnable == 1) {
    16cc:	88 81       	ld	r24, Y
    16ce:	c8 16       	cp	r12, r24
    16d0:	51 f4       	brne	.+20     	; 0x16e6 <updateSensorMappingTableByCircuit+0x3a>
    16d2:	8c 81       	ldd	r24, Y+4	; 0x04
    16d4:	81 30       	cpi	r24, 0x01	; 1
    16d6:	39 f4       	brne	.+14     	; 0x16e6 <updateSensorMappingTableByCircuit+0x3a>
			sensorMappingTable.mappingInfo[i].onTime = onTime;
    16d8:	d9 82       	std	Y+1, r13	; 0x01
			sensorMappingTable.mappingInfo[i].onCtrlMode = onCtrlMode;
    16da:	ea 82       	std	Y+2, r14	; 0x02
			sensorMappingTable.mappingInfo[i].offCtrlMode = offCtrlMode;
    16dc:	fb 82       	std	Y+3, r15	; 0x03
			sensorMappingInfo_WriteToEEPRom(i);
    16de:	c8 01       	movw	r24, r16
    16e0:	0e 94 b1 0a 	call	0x1562	; 0x1562 <sensorMappingInfo_WriteToEEPRom>
			wdt_reset();
    16e4:	a8 95       	wdr
int updateSensorMappingTableByCircuit(uint8 circuitId, uint8 onTime, uint8 onCtrlMode, uint8 offCtrlMode) {
	int index;
	int result = 0;
	uint16 i = 0;

	for (i = 0; i < MaxNumOfSensorMappingInfo; i++)
    16e6:	0f 5f       	subi	r16, 0xFF	; 255
    16e8:	1f 4f       	sbci	r17, 0xFF	; 255
    16ea:	29 96       	adiw	r28, 0x09	; 9
    16ec:	0f 3f       	cpi	r16, 0xFF	; 255
    16ee:	11 05       	cpc	r17, r1
    16f0:	69 f7       	brne	.-38     	; 0x16cc <updateSensorMappingTableByCircuit+0x20>
			sensorMappingInfo_WriteToEEPRom(i);
			wdt_reset();
		}

	return result;
}
    16f2:	80 e0       	ldi	r24, 0x00	; 0
    16f4:	90 e0       	ldi	r25, 0x00	; 0
    16f6:	df 91       	pop	r29
    16f8:	cf 91       	pop	r28
    16fa:	1f 91       	pop	r17
    16fc:	0f 91       	pop	r16
    16fe:	ff 90       	pop	r15
    1700:	ef 90       	pop	r14
    1702:	df 90       	pop	r13
    1704:	cf 90       	pop	r12
    1706:	08 95       	ret

00001708 <initMappingTable>:

// ---------------------------------------------------------------------------------------------- //
// ------------------ Initialize Mapping Table  ------------------------------------------------------- //
// ---------------------------------------------------------------------------------------------- //
uint8 tempBuffForMappingInfo[255];
void initMappingTable() {
    1708:	ef 92       	push	r14
    170a:	ff 92       	push	r15
    170c:	0f 93       	push	r16
    170e:	1f 93       	push	r17
    1710:	cf 93       	push	r28
    1712:	df 93       	push	r29
    1714:	00 e0       	ldi	r16, 0x00	; 0
    1716:	10 e0       	ldi	r17, 0x00	; 0
	uint16 i = 0;
	uint8 j = 0;

	//Page당 28개 mapping 정보 기록. 총 252바이트.
	for (i = 0; i < MaxNumOfSensorMappingInfo; i += 28) {
		wdt_reset();
    1718:	a8 95       	wdr
		flash_readBytes(FLASH_ADDR_SENSORMAPPING_INFO + i / 28, tempBuffForMappingInfo, 255);
    171a:	c8 01       	movw	r24, r16
    171c:	6c e1       	ldi	r22, 0x1C	; 28
    171e:	70 e0       	ldi	r23, 0x00	; 0
    1720:	0e 94 c0 49 	call	0x9380	; 0x9380 <__udivmodhi4>
    1724:	cb 01       	movw	r24, r22
    1726:	0a 96       	adiw	r24, 0x0a	; 10
    1728:	6b ef       	ldi	r22, 0xFB	; 251
    172a:	7d e3       	ldi	r23, 0x3D	; 61
    172c:	4f ef       	ldi	r20, 0xFF	; 255
    172e:	0e 94 a6 07 	call	0xf4c	; 0xf4c <flash_readBytes>
    1732:	ab ef       	ldi	r26, 0xFB	; 251
    1734:	bd e3       	ldi	r27, 0x3D	; 61
    1736:	f8 01       	movw	r30, r16
    1738:	43 e0       	ldi	r20, 0x03	; 3
    173a:	ee 0f       	add	r30, r30
    173c:	ff 1f       	adc	r31, r31
    173e:	4a 95       	dec	r20
    1740:	e1 f7       	brne	.-8      	; 0x173a <initMappingTable+0x32>
    1742:	e0 0f       	add	r30, r16
    1744:	f1 1f       	adc	r31, r17
    1746:	e2 54       	subi	r30, 0x42	; 66
    1748:	fb 4c       	sbci	r31, 0xCB	; 203
		for (j = 0; j < 28; j++) {
			sensorMappingTable.mappingInfo[i + j].circuitId = tempBuffForMappingInfo[0 + 9 * j];
    174a:	8c 91       	ld	r24, X
    174c:	84 83       	std	Z+4, r24	; 0x04
			sensorMappingTable.mappingInfo[i + j].isEnable = tempBuffForMappingInfo[1 + 9 * j];
    174e:	11 96       	adiw	r26, 0x01	; 1
    1750:	8c 91       	ld	r24, X
    1752:	11 97       	sbiw	r26, 0x01	; 1
    1754:	80 87       	std	Z+8, r24	; 0x08
			sensorMappingTable.mappingInfo[i + j].lcId = (tempBuffForMappingInfo[2 + 9 * j] << 8) | tempBuffForMappingInfo[3 + 9 * j];
    1756:	12 96       	adiw	r26, 0x02	; 2
    1758:	fc 90       	ld	r15, X
    175a:	12 97       	sbiw	r26, 0x02	; 2
    175c:	ee 24       	eor	r14, r14
    175e:	13 96       	adiw	r26, 0x03	; 3
    1760:	8c 91       	ld	r24, X
    1762:	13 97       	sbiw	r26, 0x03	; 3
    1764:	90 e0       	ldi	r25, 0x00	; 0
    1766:	8e 29       	or	r24, r14
    1768:	9f 29       	or	r25, r15
    176a:	91 83       	std	Z+1, r25	; 0x01
    176c:	80 83       	st	Z, r24
			sensorMappingTable.mappingInfo[i + j].offCtrlMode = tempBuffForMappingInfo[4 + 9 * j];
    176e:	14 96       	adiw	r26, 0x04	; 4
    1770:	8c 91       	ld	r24, X
    1772:	14 97       	sbiw	r26, 0x04	; 4
    1774:	87 83       	std	Z+7, r24	; 0x07
			sensorMappingTable.mappingInfo[i + j].onCtrlMode = tempBuffForMappingInfo[5 + 9 * j];
    1776:	15 96       	adiw	r26, 0x05	; 5
    1778:	8c 91       	ld	r24, X
    177a:	15 97       	sbiw	r26, 0x05	; 5
    177c:	86 83       	std	Z+6, r24	; 0x06
			sensorMappingTable.mappingInfo[i + j].onTime = tempBuffForMappingInfo[6 + 9 * j];
    177e:	16 96       	adiw	r26, 0x06	; 6
    1780:	8c 91       	ld	r24, X
    1782:	16 97       	sbiw	r26, 0x06	; 6
    1784:	85 83       	std	Z+5, r24	; 0x05
			sensorMappingTable.mappingInfo[i + j].sensorId = (tempBuffForMappingInfo[7 + 9 * j] << 8) | tempBuffForMappingInfo[8 + 9 * j];
    1786:	17 96       	adiw	r26, 0x07	; 7
    1788:	dc 91       	ld	r29, X
    178a:	17 97       	sbiw	r26, 0x07	; 7
    178c:	c0 e0       	ldi	r28, 0x00	; 0
    178e:	18 96       	adiw	r26, 0x08	; 8
    1790:	8c 91       	ld	r24, X
    1792:	18 97       	sbiw	r26, 0x08	; 8
    1794:	90 e0       	ldi	r25, 0x00	; 0
    1796:	8c 2b       	or	r24, r28
    1798:	9d 2b       	or	r25, r29
    179a:	93 83       	std	Z+3, r25	; 0x03
    179c:	82 83       	std	Z+2, r24	; 0x02
    179e:	19 96       	adiw	r26, 0x09	; 9
    17a0:	39 96       	adiw	r30, 0x09	; 9

	//Page당 28개 mapping 정보 기록. 총 252바이트.
	for (i = 0; i < MaxNumOfSensorMappingInfo; i += 28) {
		wdt_reset();
		flash_readBytes(FLASH_ADDR_SENSORMAPPING_INFO + i / 28, tempBuffForMappingInfo, 255);
		for (j = 0; j < 28; j++) {
    17a2:	8e e3       	ldi	r24, 0x3E	; 62
    17a4:	a7 3f       	cpi	r26, 0xF7	; 247
    17a6:	b8 07       	cpc	r27, r24
    17a8:	81 f6       	brne	.-96     	; 0x174a <initMappingTable+0x42>
void initMappingTable() {
	uint16 i = 0;
	uint8 j = 0;

	//Page당 28개 mapping 정보 기록. 총 252바이트.
	for (i = 0; i < MaxNumOfSensorMappingInfo; i += 28) {
    17aa:	04 5e       	subi	r16, 0xE4	; 228
    17ac:	1f 4f       	sbci	r17, 0xFF	; 255
    17ae:	81 e0       	ldi	r24, 0x01	; 1
    17b0:	08 31       	cpi	r16, 0x18	; 24
    17b2:	18 07       	cpc	r17, r24
    17b4:	09 f0       	breq	.+2      	; 0x17b8 <initMappingTable+0xb0>
    17b6:	b0 cf       	rjmp	.-160    	; 0x1718 <initMappingTable+0x10>

	/*for (i = 0; i < MaxNumOfSensorMappingInfo; i++)
	 eeprom_read_block(&(sensorMappingTable.mappingInfo[i]),
	 &(ee_SensorMappingInfo[i]), sizeof(SensorMappingInfo_st));
	 */
}
    17b8:	df 91       	pop	r29
    17ba:	cf 91       	pop	r28
    17bc:	1f 91       	pop	r17
    17be:	0f 91       	pop	r16
    17c0:	ff 90       	pop	r15
    17c2:	ef 90       	pop	r14
    17c4:	08 95       	ret

000017c6 <npc_ProcessSendTimeInfo>:
	}

	timer_set(NCP_PING_TIMER_ID, (pingInterval * 1000));
}

void npc_ProcessSendTimeInfo(uint8 srcNodeType, uint16 seqNum, uint16 srcId, uint16 destId, uint8 msg[], int length) {
    17c6:	0f 93       	push	r16
    17c8:	1f 93       	push	r17
    17ca:	f8 01       	movw	r30, r16
	uint8 hour;
	uint8 min;
	hour = msg[9];
	min = msg[10];
    17cc:	92 85       	ldd	r25, Z+10	; 0x0a

	Hour = hour;
    17ce:	81 85       	ldd	r24, Z+9	; 0x09
    17d0:	80 93 ec 6f 	sts	0x6FEC, r24
	Min = min;
    17d4:	90 93 eb 6f 	sts	0x6FEB, r25
}
    17d8:	1f 91       	pop	r17
    17da:	0f 91       	pop	r16
    17dc:	08 95       	ret

000017de <ncp_ConnState>:
		npc_SendRegisterNodeReq(0, deviceInfoTable.deviceInfo[i].ieeeId, deviceInfoTable.deviceInfo[i].deviceType, deviceInfoTable.deviceInfo[i].ieeeId);

}
uint8 ncp_ConnState() {
	return ncp_NetState;
}
    17de:	80 91 10 23 	lds	r24, 0x2310
    17e2:	08 95       	ret

000017e4 <hasToken>:

char hasToken() {
    17e4:	80 91 11 23 	lds	r24, 0x2311
    17e8:	81 11       	cpse	r24, r1
    17ea:	81 e0       	ldi	r24, 0x01	; 1
	if (token == 0)
		return 0;

	return 1;
}
    17ec:	08 95       	ret

000017ee <plcs_NCP_ProcessAssignToken>:
		ncp_SendRegisterReqWithoutQueue(zrmpInfo_0.zrm_Id);
	}
}

void plcs_NCP_ProcessAssignToken(uint8 srcNodeType, uint16 seqNum, uint16 srcId, uint16 destId, uint8 msg[], int length) {
	token = 1;
    17ee:	81 e0       	ldi	r24, 0x01	; 1
    17f0:	80 93 11 23 	sts	0x2311, r24
}
    17f4:	08 95       	ret

000017f6 <plcs_NCP_ProcessReleaseTokenRes>:

void plcs_NCP_ProcessReleaseTokenRes(uint8 srcNodeType, uint16 seqNum, uint16 srcId, uint16 destId, uint8 msg[], int length) {
	token = 0;
    17f6:	10 92 11 23 	sts	0x2311, r1
}
    17fa:	08 95       	ret

000017fc <handleSensorEvent>:
	sensorId = msg[12] << 8 | msg[13];

	handleSensorEvent(nodeId, sensorId);
}

void handleSensorEvent(uint16 lcId, uint16 sensorId) {
    17fc:	cf 93       	push	r28
    17fe:	df 93       	push	r29
    1800:	9c 01       	movw	r18, r24
    1802:	ce eb       	ldi	r28, 0xBE	; 190
    1804:	d4 e3       	ldi	r29, 0x34	; 52
	uint16 i = 0;
	uint8 circuitId;
	for (i = 0; i < MaxNumOfSensorMappingInfo; i++) {
		if (sensorMappingTable.mappingInfo[i].sensorId == sensorId && sensorMappingTable.mappingInfo[i].lcId == lcId && sensorMappingTable.mappingInfo[i].isEnable == 1) {
    1806:	8a 81       	ldd	r24, Y+2	; 0x02
    1808:	9b 81       	ldd	r25, Y+3	; 0x03
    180a:	86 17       	cp	r24, r22
    180c:	97 07       	cpc	r25, r23
    180e:	09 f0       	breq	.+2      	; 0x1812 <handleSensorEvent+0x16>
    1810:	41 c0       	rjmp	.+130    	; 0x1894 <handleSensorEvent+0x98>
    1812:	88 81       	ld	r24, Y
    1814:	99 81       	ldd	r25, Y+1	; 0x01
    1816:	82 17       	cp	r24, r18
    1818:	93 07       	cpc	r25, r19
    181a:	e1 f5       	brne	.+120    	; 0x1894 <handleSensorEvent+0x98>
    181c:	88 85       	ldd	r24, Y+8	; 0x08
    181e:	81 30       	cpi	r24, 0x01	; 1
    1820:	c9 f5       	brne	.+114    	; 0x1894 <handleSensorEvent+0x98>
			circuitId = sensorMappingTable.mappingInfo[i].circuitId;
			if (tmp_CircuitInfo.ctrlMode[circuitId] == SENSOR || tmp_CircuitInfo.ctrlMode[circuitId] == SCHEDULE) {
    1822:	8c 81       	ldd	r24, Y+4	; 0x04
    1824:	a8 2f       	mov	r26, r24
    1826:	b0 e0       	ldi	r27, 0x00	; 0
    1828:	fd 01       	movw	r30, r26
    182a:	ea 5e       	subi	r30, 0xEA	; 234
    182c:	fa 4d       	sbci	r31, 0xDA	; 218
    182e:	80 81       	ld	r24, Z
    1830:	82 50       	subi	r24, 0x02	; 2
    1832:	82 30       	cpi	r24, 0x02	; 2
    1834:	78 f5       	brcc	.+94     	; 0x1894 <handleSensorEvent+0x98>
				if (tmp_CircuitInfo.expirationTime[circuitId] < sensorMappingTable.mappingInfo[i].onTime || tmp_CircuitInfo.expirationTime[circuitId] == 0xffff) {
    1836:	fd 01       	movw	r30, r26
    1838:	ee 0f       	add	r30, r30
    183a:	ff 1f       	adc	r31, r31
    183c:	ea 5c       	subi	r30, 0xCA	; 202
    183e:	fa 4d       	sbci	r31, 0xDA	; 218
    1840:	01 90       	ld	r0, Z+
    1842:	f0 81       	ld	r31, Z
    1844:	e0 2d       	mov	r30, r0
    1846:	8d 81       	ldd	r24, Y+5	; 0x05
    1848:	90 e0       	ldi	r25, 0x00	; 0
    184a:	e8 17       	cp	r30, r24
    184c:	f9 07       	cpc	r31, r25
    184e:	18 f0       	brcs	.+6      	; 0x1856 <handleSensorEvent+0x5a>
    1850:	ef 5f       	subi	r30, 0xFF	; 255
    1852:	ff 4f       	sbci	r31, 0xFF	; 255
    1854:	c9 f4       	brne	.+50     	; 0x1888 <handleSensorEvent+0x8c>
					tmp_CircuitInfo.timerCnt[circuitId] = 0;
    1856:	fd 01       	movw	r30, r26
    1858:	ee 0f       	add	r30, r30
    185a:	ff 1f       	adc	r31, r31
    185c:	ea 5a       	subi	r30, 0xAA	; 170
    185e:	fa 4d       	sbci	r31, 0xDA	; 218
    1860:	11 82       	std	Z+1, r1	; 0x01
    1862:	10 82       	st	Z, r1
					tmp_CircuitInfo.expirationTime[circuitId] = sensorMappingTable.mappingInfo[i].onTime;
    1864:	fd 01       	movw	r30, r26
    1866:	ee 0f       	add	r30, r30
    1868:	ff 1f       	adc	r31, r31
    186a:	ea 5c       	subi	r30, 0xCA	; 202
    186c:	fa 4d       	sbci	r31, 0xDA	; 218
    186e:	91 83       	std	Z+1, r25	; 0x01
    1870:	80 83       	st	Z, r24
					tmp_CircuitInfo.offCtrlMode[circuitId] = sensorMappingTable.mappingInfo[i].offCtrlMode;
    1872:	fd 01       	movw	r30, r26
    1874:	ea 5e       	subi	r30, 0xEA	; 234
    1876:	fa 4d       	sbci	r31, 0xDA	; 218
    1878:	e0 59       	subi	r30, 0x90	; 144
    187a:	ff 4f       	sbci	r31, 0xFF	; 255
    187c:	8f 81       	ldd	r24, Y+7	; 0x07
    187e:	80 83       	st	Z, r24
					tmp_CircuitInfo.onCtrlMode[circuitId] = sensorMappingTable.mappingInfo[i].onCtrlMode;
    1880:	70 97       	sbiw	r30, 0x10	; 16
    1882:	8e 81       	ldd	r24, Y+6	; 0x06
    1884:	80 83       	st	Z, r24
    1886:	06 c0       	rjmp	.+12     	; 0x1894 <handleSensorEvent+0x98>
				} else {
					tmp_CircuitInfo.timerCnt[circuitId] = 0;
    1888:	aa 0f       	add	r26, r26
    188a:	bb 1f       	adc	r27, r27
    188c:	aa 5a       	subi	r26, 0xAA	; 170
    188e:	ba 4d       	sbci	r27, 0xDA	; 218
    1890:	1d 92       	st	X+, r1
    1892:	1c 92       	st	X, r1
    1894:	29 96       	adiw	r28, 0x09	; 9
}

void handleSensorEvent(uint16 lcId, uint16 sensorId) {
	uint16 i = 0;
	uint8 circuitId;
	for (i = 0; i < MaxNumOfSensorMappingInfo; i++) {
    1896:	8d e3       	ldi	r24, 0x3D	; 61
    1898:	c5 3b       	cpi	r28, 0xB5	; 181
    189a:	d8 07       	cpc	r29, r24
    189c:	09 f0       	breq	.+2      	; 0x18a0 <handleSensorEvent+0xa4>
    189e:	b3 cf       	rjmp	.-154    	; 0x1806 <handleSensorEvent+0xa>
					tmp_CircuitInfo.timerCnt[circuitId] = 0;
				}
			}
		}
	}
}
    18a0:	df 91       	pop	r29
    18a2:	cf 91       	pop	r28
    18a4:	08 95       	ret

000018a6 <plcs_GCP_HandleSensorEvent>:

void plcs_GCP_HandleDebugLogLCReset(uint8 srcNodeType, uint16 seqNum, uint16 srcId, uint16 destId, uint8 msg[], int length) {
	debug_Reset();
}

void plcs_GCP_HandleSensorEvent(uint8 srcNodeType, uint16 seqNum, uint16 srcId, uint16 destId, uint8 msg[], int length) {
    18a6:	0f 93       	push	r16
    18a8:	1f 93       	push	r17
    18aa:	f8 01       	movw	r30, r16

	//msg[8]=messagetype
	nodeId = msg[9] << 8 | msg[10];
	sensorId = msg[12] << 8 | msg[13];

	handleSensorEvent(nodeId, sensorId);
    18ac:	91 85       	ldd	r25, Z+9	; 0x09
    18ae:	80 e0       	ldi	r24, 0x00	; 0
    18b0:	42 85       	ldd	r20, Z+10	; 0x0a
    18b2:	50 e0       	ldi	r21, 0x00	; 0
    18b4:	74 85       	ldd	r23, Z+12	; 0x0c
    18b6:	60 e0       	ldi	r22, 0x00	; 0
    18b8:	25 85       	ldd	r18, Z+13	; 0x0d
    18ba:	30 e0       	ldi	r19, 0x00	; 0
    18bc:	62 2b       	or	r22, r18
    18be:	73 2b       	or	r23, r19
    18c0:	84 2b       	or	r24, r20
    18c2:	95 2b       	or	r25, r21
    18c4:	0e 94 fe 0b 	call	0x17fc	; 0x17fc <handleSensorEvent>
}
    18c8:	1f 91       	pop	r17
    18ca:	0f 91       	pop	r16
    18cc:	08 95       	ret

000018ce <plcs_GCP_HandleNoticeEventNeighbor>:
		applyingSchedule = scheduleType;

	plcs_GCP_SendApplyingScheduleRes(srcNodeType, srcId, seqNum, nodeId, applyingSchedule);
}

void plcs_GCP_HandleNoticeEventNeighbor(uint8 srcNodeType, uint16 seqNum, uint16 srcId, uint16 destId, uint8 msg[], int length) {
    18ce:	0f 93       	push	r16
    18d0:	1f 93       	push	r17
    18d2:	f8 01       	movw	r30, r16

	//msg[8]=messagetype
	lcId = msg[11] << 8 | msg[12];
	sensorId = msg[13] << 8 | msg[14];

	handleSensorEvent(lcId, sensorId);
    18d4:	93 85       	ldd	r25, Z+11	; 0x0b
    18d6:	80 e0       	ldi	r24, 0x00	; 0
    18d8:	44 85       	ldd	r20, Z+12	; 0x0c
    18da:	50 e0       	ldi	r21, 0x00	; 0
    18dc:	75 85       	ldd	r23, Z+13	; 0x0d
    18de:	60 e0       	ldi	r22, 0x00	; 0
    18e0:	26 85       	ldd	r18, Z+14	; 0x0e
    18e2:	30 e0       	ldi	r19, 0x00	; 0
    18e4:	62 2b       	or	r22, r18
    18e6:	73 2b       	or	r23, r19
    18e8:	84 2b       	or	r24, r20
    18ea:	95 2b       	or	r25, r21
    18ec:	0e 94 fe 0b 	call	0x17fc	; 0x17fc <handleSensorEvent>
}
    18f0:	1f 91       	pop	r17
    18f2:	0f 91       	pop	r16
    18f4:	08 95       	ret

000018f6 <getSeqNumGenerator>:
/////////////////////////////////////////////////////////////////////////////////////////////////////////
//Send
/////////////////////////////////////////////////////////////////////////////////////////////////////////
uint16 seqNumGenerator = 0;
uint16 getSeqNumGenerator() {
	return seqNumGenerator++;
    18f6:	20 91 12 23 	lds	r18, 0x2312
    18fa:	30 91 13 23 	lds	r19, 0x2313
    18fe:	2f 5f       	subi	r18, 0xFF	; 255
    1900:	3f 4f       	sbci	r19, 0xFF	; 255
    1902:	30 93 13 23 	sts	0x2313, r19
    1906:	20 93 12 23 	sts	0x2312, r18
    190a:	21 50       	subi	r18, 0x01	; 1
    190c:	30 40       	sbci	r19, 0x00	; 0
}
    190e:	c9 01       	movw	r24, r18
    1910:	08 95       	ret

00001912 <plcs_GetNCPMessage>:

uint8 plcs_GetNCPMessage(uint8 resultMsg[], uint16 destId, uint16 srcId, uint8 payload[], uint8 len) {
    1912:	ef 92       	push	r14
    1914:	ff 92       	push	r15
    1916:	0f 93       	push	r16
    1918:	cf 93       	push	r28
    191a:	df 93       	push	r29
    191c:	ec 01       	movw	r28, r24
    191e:	79 01       	movw	r14, r18
/////////////////////////////////////////////////////////////////////////////////////////////////////////
//Send
/////////////////////////////////////////////////////////////////////////////////////////////////////////
uint16 seqNumGenerator = 0;
uint16 getSeqNumGenerator() {
	return seqNumGenerator++;
    1920:	80 91 12 23 	lds	r24, 0x2312
    1924:	90 91 13 23 	lds	r25, 0x2313
    1928:	01 96       	adiw	r24, 0x01	; 1
    192a:	90 93 13 23 	sts	0x2313, r25
    192e:	80 93 12 23 	sts	0x2312, r24
    1932:	01 97       	sbiw	r24, 0x01	; 1

uint8 plcs_GetNCPMessage(uint8 resultMsg[], uint16 destId, uint16 srcId, uint8 payload[], uint8 len) {
	uint8 resultLen = 0;
	uint16 seqNum = getSeqNumGenerator();

	resultMsg[resultLen++] = NCP_PROTOCOL_ID;
    1934:	20 e8       	ldi	r18, 0x80	; 128
    1936:	28 83       	st	Y, r18
	resultMsg[resultLen++] = PLCS_NCP_PROTOCOL_ID;
    1938:	21 e0       	ldi	r18, 0x01	; 1
    193a:	29 83       	std	Y+1, r18	; 0x01
	resultMsg[resultLen++] = seqNum >> 8;
    193c:	9a 83       	std	Y+2, r25	; 0x02
	resultMsg[resultLen++] = seqNum;
    193e:	8b 83       	std	Y+3, r24	; 0x03
	resultMsg[resultLen++] = destId >> 8;
    1940:	7c 83       	std	Y+4, r23	; 0x04
	resultMsg[resultLen++] = destId;
    1942:	6d 83       	std	Y+5, r22	; 0x05
	resultMsg[resultLen++] = srcId >> 8;
    1944:	5e 83       	std	Y+6, r21	; 0x06
	resultMsg[resultLen++] = srcId;
    1946:	4f 83       	std	Y+7, r20	; 0x07
    1948:	40 e0       	ldi	r20, 0x00	; 0
    194a:	50 e0       	ldi	r21, 0x00	; 0
	for (int i = 0; i < len; i++)
    194c:	60 2f       	mov	r22, r16
    194e:	70 e0       	ldi	r23, 0x00	; 0
    1950:	0a c0       	rjmp	.+20     	; 0x1966 <plcs_GetNCPMessage+0x54>
		resultMsg[resultLen++] = payload[i];
    1952:	fe 01       	movw	r30, r28
    1954:	e8 0f       	add	r30, r24
    1956:	f1 1d       	adc	r31, r1
    1958:	d7 01       	movw	r26, r14
    195a:	a4 0f       	add	r26, r20
    195c:	b5 1f       	adc	r27, r21
    195e:	8c 91       	ld	r24, X
    1960:	80 83       	st	Z, r24
	resultMsg[resultLen++] = seqNum;
	resultMsg[resultLen++] = destId >> 8;
	resultMsg[resultLen++] = destId;
	resultMsg[resultLen++] = srcId >> 8;
	resultMsg[resultLen++] = srcId;
	for (int i = 0; i < len; i++)
    1962:	4f 5f       	subi	r20, 0xFF	; 255
    1964:	5f 4f       	sbci	r21, 0xFF	; 255
    1966:	84 2f       	mov	r24, r20
    1968:	88 5f       	subi	r24, 0xF8	; 248
    196a:	46 17       	cp	r20, r22
    196c:	57 07       	cpc	r21, r23
    196e:	8c f3       	brlt	.-30     	; 0x1952 <plcs_GetNCPMessage+0x40>
		resultMsg[resultLen++] = payload[i];
	return resultLen;
}
    1970:	80 2f       	mov	r24, r16
    1972:	88 5f       	subi	r24, 0xF8	; 248
    1974:	df 91       	pop	r29
    1976:	cf 91       	pop	r28
    1978:	0f 91       	pop	r16
    197a:	ff 90       	pop	r15
    197c:	ef 90       	pop	r14
    197e:	08 95       	ret

00001980 <plcs_GetNCPResMessage>:

uint8 plcs_GetNCPResMessage(uint8 resultMsg[], uint16 destId, uint16 srcId, uint8 payload[], uint8 len, uint16 seqNum) {
    1980:	ef 92       	push	r14
    1982:	ff 92       	push	r15
    1984:	0f 93       	push	r16
    1986:	cf 93       	push	r28
    1988:	df 93       	push	r29
    198a:	ec 01       	movw	r28, r24
	uint8 resultLen = 0;

	resultMsg[resultLen++] = NCP_PROTOCOL_ID;
    198c:	80 e8       	ldi	r24, 0x80	; 128
    198e:	88 83       	st	Y, r24
	resultMsg[resultLen++] = PLCS_NCP_PROTOCOL_ID;
    1990:	81 e0       	ldi	r24, 0x01	; 1
    1992:	89 83       	std	Y+1, r24	; 0x01
	resultMsg[resultLen++] = seqNum >> 8;
    1994:	fa 82       	std	Y+2, r15	; 0x02
	resultMsg[resultLen++] = seqNum;
    1996:	eb 82       	std	Y+3, r14	; 0x03
	resultMsg[resultLen++] = destId >> 8;
    1998:	7c 83       	std	Y+4, r23	; 0x04
	resultMsg[resultLen++] = destId;
    199a:	6d 83       	std	Y+5, r22	; 0x05
	resultMsg[resultLen++] = srcId >> 8;
    199c:	5e 83       	std	Y+6, r21	; 0x06
	resultMsg[resultLen++] = srcId;
    199e:	4f 83       	std	Y+7, r20	; 0x07
    19a0:	40 e0       	ldi	r20, 0x00	; 0
    19a2:	50 e0       	ldi	r21, 0x00	; 0
	for (int i = 0; i < len; i++)
    19a4:	60 2f       	mov	r22, r16
    19a6:	70 e0       	ldi	r23, 0x00	; 0
    19a8:	0a c0       	rjmp	.+20     	; 0x19be <plcs_GetNCPResMessage+0x3e>
		resultMsg[resultLen++] = payload[i];
    19aa:	fe 01       	movw	r30, r28
    19ac:	e8 0f       	add	r30, r24
    19ae:	f1 1d       	adc	r31, r1
    19b0:	d9 01       	movw	r26, r18
    19b2:	a4 0f       	add	r26, r20
    19b4:	b5 1f       	adc	r27, r21
    19b6:	8c 91       	ld	r24, X
    19b8:	80 83       	st	Z, r24
	resultMsg[resultLen++] = seqNum;
	resultMsg[resultLen++] = destId >> 8;
	resultMsg[resultLen++] = destId;
	resultMsg[resultLen++] = srcId >> 8;
	resultMsg[resultLen++] = srcId;
	for (int i = 0; i < len; i++)
    19ba:	4f 5f       	subi	r20, 0xFF	; 255
    19bc:	5f 4f       	sbci	r21, 0xFF	; 255
    19be:	84 2f       	mov	r24, r20
    19c0:	88 5f       	subi	r24, 0xF8	; 248
    19c2:	46 17       	cp	r20, r22
    19c4:	57 07       	cpc	r21, r23
    19c6:	8c f3       	brlt	.-30     	; 0x19aa <plcs_GetNCPResMessage+0x2a>
		resultMsg[resultLen++] = payload[i];
	return resultLen;
}
    19c8:	80 2f       	mov	r24, r16
    19ca:	88 5f       	subi	r24, 0xF8	; 248
    19cc:	df 91       	pop	r29
    19ce:	cf 91       	pop	r28
    19d0:	0f 91       	pop	r16
    19d2:	ff 90       	pop	r15
    19d4:	ef 90       	pop	r14
    19d6:	08 95       	ret

000019d8 <plcs_GetGCPMessage>:

uint8 plcs_GetGCPMessage(uint8 resultMsg[], uint16 destId, uint16 srcId, uint8 payload[], uint8 len) {
    19d8:	ef 92       	push	r14
    19da:	ff 92       	push	r15
    19dc:	0f 93       	push	r16
    19de:	cf 93       	push	r28
    19e0:	df 93       	push	r29
    19e2:	ec 01       	movw	r28, r24
    19e4:	79 01       	movw	r14, r18
/////////////////////////////////////////////////////////////////////////////////////////////////////////
//Send
/////////////////////////////////////////////////////////////////////////////////////////////////////////
uint16 seqNumGenerator = 0;
uint16 getSeqNumGenerator() {
	return seqNumGenerator++;
    19e6:	80 91 12 23 	lds	r24, 0x2312
    19ea:	90 91 13 23 	lds	r25, 0x2313
    19ee:	01 96       	adiw	r24, 0x01	; 1
    19f0:	90 93 13 23 	sts	0x2313, r25
    19f4:	80 93 12 23 	sts	0x2312, r24
    19f8:	01 97       	sbiw	r24, 0x01	; 1

uint8 plcs_GetGCPMessage(uint8 resultMsg[], uint16 destId, uint16 srcId, uint8 payload[], uint8 len) {
	uint8 resultLen = 0;
	uint16 seqNum = getSeqNumGenerator();

	resultMsg[resultLen++] = NCP_PROTOCOL_ID;
    19fa:	20 e8       	ldi	r18, 0x80	; 128
    19fc:	28 83       	st	Y, r18
	resultMsg[resultLen++] = PLCS_GCP_PROTOCOL_ID;
    19fe:	21 e2       	ldi	r18, 0x21	; 33
    1a00:	29 83       	std	Y+1, r18	; 0x01
	resultMsg[resultLen++] = seqNum >> 8;
    1a02:	9a 83       	std	Y+2, r25	; 0x02
	resultMsg[resultLen++] = seqNum;
    1a04:	8b 83       	std	Y+3, r24	; 0x03
	resultMsg[resultLen++] = destId >> 8;
    1a06:	7c 83       	std	Y+4, r23	; 0x04
	resultMsg[resultLen++] = destId;
    1a08:	6d 83       	std	Y+5, r22	; 0x05
	resultMsg[resultLen++] = srcId >> 8;
    1a0a:	5e 83       	std	Y+6, r21	; 0x06
	resultMsg[resultLen++] = srcId;
    1a0c:	4f 83       	std	Y+7, r20	; 0x07
    1a0e:	40 e0       	ldi	r20, 0x00	; 0
    1a10:	50 e0       	ldi	r21, 0x00	; 0
	for (int i = 0; i < len; i++)
    1a12:	60 2f       	mov	r22, r16
    1a14:	70 e0       	ldi	r23, 0x00	; 0
    1a16:	0a c0       	rjmp	.+20     	; 0x1a2c <plcs_GetGCPMessage+0x54>
		resultMsg[resultLen++] = payload[i];
    1a18:	fe 01       	movw	r30, r28
    1a1a:	e8 0f       	add	r30, r24
    1a1c:	f1 1d       	adc	r31, r1
    1a1e:	d7 01       	movw	r26, r14
    1a20:	a4 0f       	add	r26, r20
    1a22:	b5 1f       	adc	r27, r21
    1a24:	8c 91       	ld	r24, X
    1a26:	80 83       	st	Z, r24
	resultMsg[resultLen++] = seqNum;
	resultMsg[resultLen++] = destId >> 8;
	resultMsg[resultLen++] = destId;
	resultMsg[resultLen++] = srcId >> 8;
	resultMsg[resultLen++] = srcId;
	for (int i = 0; i < len; i++)
    1a28:	4f 5f       	subi	r20, 0xFF	; 255
    1a2a:	5f 4f       	sbci	r21, 0xFF	; 255
    1a2c:	84 2f       	mov	r24, r20
    1a2e:	88 5f       	subi	r24, 0xF8	; 248
    1a30:	46 17       	cp	r20, r22
    1a32:	57 07       	cpc	r21, r23
    1a34:	8c f3       	brlt	.-30     	; 0x1a18 <plcs_GetGCPMessage+0x40>
		resultMsg[resultLen++] = payload[i];
	return resultLen;
}
    1a36:	80 2f       	mov	r24, r16
    1a38:	88 5f       	subi	r24, 0xF8	; 248
    1a3a:	df 91       	pop	r29
    1a3c:	cf 91       	pop	r28
    1a3e:	0f 91       	pop	r16
    1a40:	ff 90       	pop	r15
    1a42:	ef 90       	pop	r14
    1a44:	08 95       	ret

00001a46 <plcs_GetGCPResMessage>:

uint8 plcs_GetGCPResMessage(uint8 resultMsg[], uint16 destId, uint16 srcId, uint8 payload[], uint8 len, uint16 seqNum) {
    1a46:	ef 92       	push	r14
    1a48:	ff 92       	push	r15
    1a4a:	0f 93       	push	r16
    1a4c:	cf 93       	push	r28
    1a4e:	df 93       	push	r29
    1a50:	ec 01       	movw	r28, r24
	uint8 resultLen = 0;

	resultMsg[resultLen++] = NCP_PROTOCOL_ID;
    1a52:	80 e8       	ldi	r24, 0x80	; 128
    1a54:	88 83       	st	Y, r24
	resultMsg[resultLen++] = PLCS_GCP_PROTOCOL_ID;
    1a56:	81 e2       	ldi	r24, 0x21	; 33
    1a58:	89 83       	std	Y+1, r24	; 0x01
	resultMsg[resultLen++] = seqNum >> 8;
    1a5a:	fa 82       	std	Y+2, r15	; 0x02
	resultMsg[resultLen++] = seqNum;
    1a5c:	eb 82       	std	Y+3, r14	; 0x03
	resultMsg[resultLen++] = destId >> 8;
    1a5e:	7c 83       	std	Y+4, r23	; 0x04
	resultMsg[resultLen++] = destId;
    1a60:	6d 83       	std	Y+5, r22	; 0x05
	resultMsg[resultLen++] = srcId >> 8;
    1a62:	5e 83       	std	Y+6, r21	; 0x06
	resultMsg[resultLen++] = srcId;
    1a64:	4f 83       	std	Y+7, r20	; 0x07
    1a66:	40 e0       	ldi	r20, 0x00	; 0
    1a68:	50 e0       	ldi	r21, 0x00	; 0
	for (int i = 0; i < len; i++)
    1a6a:	60 2f       	mov	r22, r16
    1a6c:	70 e0       	ldi	r23, 0x00	; 0
    1a6e:	0a c0       	rjmp	.+20     	; 0x1a84 <plcs_GetGCPResMessage+0x3e>
		resultMsg[resultLen++] = payload[i];
    1a70:	fe 01       	movw	r30, r28
    1a72:	e8 0f       	add	r30, r24
    1a74:	f1 1d       	adc	r31, r1
    1a76:	d9 01       	movw	r26, r18
    1a78:	a4 0f       	add	r26, r20
    1a7a:	b5 1f       	adc	r27, r21
    1a7c:	8c 91       	ld	r24, X
    1a7e:	80 83       	st	Z, r24
	resultMsg[resultLen++] = seqNum;
	resultMsg[resultLen++] = destId >> 8;
	resultMsg[resultLen++] = destId;
	resultMsg[resultLen++] = srcId >> 8;
	resultMsg[resultLen++] = srcId;
	for (int i = 0; i < len; i++)
    1a80:	4f 5f       	subi	r20, 0xFF	; 255
    1a82:	5f 4f       	sbci	r21, 0xFF	; 255
    1a84:	84 2f       	mov	r24, r20
    1a86:	88 5f       	subi	r24, 0xF8	; 248
    1a88:	46 17       	cp	r20, r22
    1a8a:	57 07       	cpc	r21, r23
    1a8c:	8c f3       	brlt	.-30     	; 0x1a70 <plcs_GetGCPResMessage+0x2a>
		resultMsg[resultLen++] = payload[i];
	return resultLen;
}
    1a8e:	80 2f       	mov	r24, r16
    1a90:	88 5f       	subi	r24, 0xF8	; 248
    1a92:	df 91       	pop	r29
    1a94:	cf 91       	pop	r28
    1a96:	0f 91       	pop	r16
    1a98:	ff 90       	pop	r15
    1a9a:	ef 90       	pop	r14
    1a9c:	08 95       	ret

00001a9e <gcp_GetNoticeMode>:
	sendMessage(dstNodeType, dstNodeId, tmp_Buff, resultLen);
}

uint8 gcp_GetNoticeMode() {
	return g_NoticeMode;
}
    1a9e:	80 91 02 22 	lds	r24, 0x2202
    1aa2:	08 95       	ret

00001aa4 <gcp_SetNoticeMode>:
void gcp_SetNoticeMode(uint8 enable) {
	g_NoticeMode = enable;
    1aa4:	80 93 02 22 	sts	0x2202, r24
}
    1aa8:	08 95       	ret

00001aaa <plcs_GCP_SendDebugLogLCRes>:
	resultLen = plcs_GetGCPMessage(tmp_Buff, 0, zrmpInfo_0.zrm_Id, payload, len);
	sendMessage(dstNodeType, dstNodeId, tmp_Buff, resultLen);
}

void plcs_GCP_SendDebugLogLCRes(uint8 dstNodeType, uint16 dstNodeId, uint16 seqNum, uint16 nodeId, uint16 rebootCnt, uint8 lastRebootTime[], uint16 serverConnectionCnt,
		uint8 lastServerConnectionTime[]) {
    1aaa:	5f 92       	push	r5
    1aac:	6f 92       	push	r6
    1aae:	7f 92       	push	r7
    1ab0:	8f 92       	push	r8
    1ab2:	9f 92       	push	r9
    1ab4:	af 92       	push	r10
    1ab6:	bf 92       	push	r11
    1ab8:	cf 92       	push	r12
    1aba:	df 92       	push	r13
    1abc:	ef 92       	push	r14
    1abe:	ff 92       	push	r15
    1ac0:	0f 93       	push	r16
    1ac2:	1f 93       	push	r17
    1ac4:	df 93       	push	r29
    1ac6:	cf 93       	push	r28
    1ac8:	cd b7       	in	r28, 0x3d	; 61
    1aca:	de b7       	in	r29, 0x3e	; 62
    1acc:	a8 97       	sbiw	r28, 0x28	; 40
    1ace:	0f b6       	in	r0, 0x3f	; 63
    1ad0:	f8 94       	cli
    1ad2:	de bf       	out	0x3e, r29	; 62
    1ad4:	0f be       	out	0x3f, r0	; 63
    1ad6:	cd bf       	out	0x3d, r28	; 61
    1ad8:	58 2e       	mov	r5, r24
    1ada:	3b 01       	movw	r6, r22
    1adc:	4a 01       	movw	r8, r20
    1ade:	f7 01       	movw	r30, r14
    1ae0:	d5 01       	movw	r26, r10
	int len = 0;
	uint8 i = 0;
	uint8 payload[40];
	uint8 resultLen = 0;

	payload[len++] = PLCS_GCP_RES_DEBUG_LOG_LC;
    1ae2:	84 e9       	ldi	r24, 0x94	; 148
    1ae4:	89 83       	std	Y+1, r24	; 0x01
	payload[len++] = (uint8) (nodeId >> 8);
    1ae6:	3a 83       	std	Y+2, r19	; 0x02
	payload[len++] = (uint8) nodeId;
    1ae8:	2b 83       	std	Y+3, r18	; 0x03
	payload[len++] = (uint8) (rebootCnt >> 8);
    1aea:	1c 83       	std	Y+4, r17	; 0x04
	payload[len++] = (uint8) rebootCnt;
    1aec:	0d 83       	std	Y+5, r16	; 0x05

	for (i = 0; i < 2; i++)
		payload[len++] = lastRebootTime[i];
    1aee:	80 81       	ld	r24, Z
    1af0:	8e 83       	std	Y+6, r24	; 0x06
    1af2:	81 81       	ldd	r24, Z+1	; 0x01
    1af4:	8f 83       	std	Y+7, r24	; 0x07

	payload[len++] = (uint8) (serverConnectionCnt >> 8);
    1af6:	d8 86       	std	Y+8, r13	; 0x08
	payload[len++] = (uint8) (serverConnectionCnt);
    1af8:	c9 86       	std	Y+9, r12	; 0x09
	for (i = 0; i < 2; i++)
		payload[len++] = lastServerConnectionTime[i];
    1afa:	8c 91       	ld	r24, X
    1afc:	8a 87       	std	Y+10, r24	; 0x0a
    1afe:	11 96       	adiw	r26, 0x01	; 1
    1b00:	8c 91       	ld	r24, X
    1b02:	8b 87       	std	Y+11, r24	; 0x0b

	resultLen = plcs_GetGCPResMessage(tmp_Buff, 0, zrmpInfo_0.zrm_Id, payload, len, seqNum);
    1b04:	92 e1       	ldi	r25, 0x12	; 18
    1b06:	c9 2e       	mov	r12, r25
    1b08:	9f e3       	ldi	r25, 0x3F	; 63
    1b0a:	d9 2e       	mov	r13, r25
    1b0c:	40 91 b6 3d 	lds	r20, 0x3DB6
    1b10:	50 91 b7 3d 	lds	r21, 0x3DB7
    1b14:	c6 01       	movw	r24, r12
    1b16:	60 e0       	ldi	r22, 0x00	; 0
    1b18:	70 e0       	ldi	r23, 0x00	; 0
    1b1a:	9e 01       	movw	r18, r28
    1b1c:	2f 5f       	subi	r18, 0xFF	; 255
    1b1e:	3f 4f       	sbci	r19, 0xFF	; 255
    1b20:	0b e0       	ldi	r16, 0x0B	; 11
    1b22:	74 01       	movw	r14, r8
    1b24:	0e 94 23 0d 	call	0x1a46	; 0x1a46 <plcs_GetGCPResMessage>
    1b28:	28 2f       	mov	r18, r24
	sendMessage(dstNodeType, dstNodeId, tmp_Buff, resultLen);
    1b2a:	85 2d       	mov	r24, r5
    1b2c:	b3 01       	movw	r22, r6
    1b2e:	a6 01       	movw	r20, r12
    1b30:	0e 94 ed 2f 	call	0x5fda	; 0x5fda <sendMessage>
}
    1b34:	a8 96       	adiw	r28, 0x28	; 40
    1b36:	0f b6       	in	r0, 0x3f	; 63
    1b38:	f8 94       	cli
    1b3a:	de bf       	out	0x3e, r29	; 62
    1b3c:	0f be       	out	0x3f, r0	; 63
    1b3e:	cd bf       	out	0x3d, r28	; 61
    1b40:	cf 91       	pop	r28
    1b42:	df 91       	pop	r29
    1b44:	1f 91       	pop	r17
    1b46:	0f 91       	pop	r16
    1b48:	ff 90       	pop	r15
    1b4a:	ef 90       	pop	r14
    1b4c:	df 90       	pop	r13
    1b4e:	cf 90       	pop	r12
    1b50:	bf 90       	pop	r11
    1b52:	af 90       	pop	r10
    1b54:	9f 90       	pop	r9
    1b56:	8f 90       	pop	r8
    1b58:	7f 90       	pop	r7
    1b5a:	6f 90       	pop	r6
    1b5c:	5f 90       	pop	r5
    1b5e:	08 95       	ret

00001b60 <plcs_GCP_HandleDebugLogLCReq>:
	sensorId = msg[13] << 8 | msg[14];

	handleSensorEvent(lcId, sensorId);
}

void plcs_GCP_HandleDebugLogLCReq(uint8 srcNodeType, uint16 seqNum, uint16 srcId, uint16 destId, uint8 msg[], int length) {
    1b60:	af 92       	push	r10
    1b62:	bf 92       	push	r11
    1b64:	cf 92       	push	r12
    1b66:	df 92       	push	r13
    1b68:	ef 92       	push	r14
    1b6a:	ff 92       	push	r15
    1b6c:	0f 93       	push	r16
    1b6e:	1f 93       	push	r17
    1b70:	7b 01       	movw	r14, r22
    1b72:	f8 01       	movw	r30, r16
	uint16 nodeId;

	//msg[8]=messagetype
	nodeId = msg[9] << 8 | msg[10];

	plcs_GCP_SendDebugLogLCRes(srcNodeType, srcId, seqNum, nodeId, debug_DebugInfo.rebootCnt, debug_DebugInfo.lastRebootTime, debug_DebugInfo.serverConnectionCnt,
    1b74:	31 85       	ldd	r19, Z+9	; 0x09
    1b76:	20 e0       	ldi	r18, 0x00	; 0
    1b78:	62 85       	ldd	r22, Z+10	; 0x0a
    1b7a:	70 e0       	ldi	r23, 0x00	; 0
    1b7c:	26 2b       	or	r18, r22
    1b7e:	37 2b       	or	r19, r23
    1b80:	ea ef       	ldi	r30, 0xFA	; 250
    1b82:	fe e3       	ldi	r31, 0x3E	; 62
    1b84:	00 91 fa 3e 	lds	r16, 0x3EFA
    1b88:	10 91 fb 3e 	lds	r17, 0x3EFB
    1b8c:	c0 90 fe 3e 	lds	r12, 0x3EFE
    1b90:	d0 90 ff 3e 	lds	r13, 0x3EFF
    1b94:	df 01       	movw	r26, r30
    1b96:	16 96       	adiw	r26, 0x06	; 6
    1b98:	ba 01       	movw	r22, r20
    1b9a:	a7 01       	movw	r20, r14
    1b9c:	32 96       	adiw	r30, 0x02	; 2
    1b9e:	7f 01       	movw	r14, r30
    1ba0:	5d 01       	movw	r10, r26
    1ba2:	0e 94 55 0d 	call	0x1aaa	; 0x1aaa <plcs_GCP_SendDebugLogLCRes>
			debug_DebugInfo.lastServerConnectionTime);
}
    1ba6:	1f 91       	pop	r17
    1ba8:	0f 91       	pop	r16
    1baa:	ff 90       	pop	r15
    1bac:	ef 90       	pop	r14
    1bae:	df 90       	pop	r13
    1bb0:	cf 90       	pop	r12
    1bb2:	bf 90       	pop	r11
    1bb4:	af 90       	pop	r10
    1bb6:	08 95       	ret

00001bb8 <plcs_GCP_SendNoticeEvent>:

	resultLen = plcs_GetGCPResMessage(tmp_Buff, 0, zrmpInfo_0.zrm_Id, payload, len, seqNum);

	sendMessage(dstNodeType, dstNodeId, tmp_Buff, resultLen);
}
void plcs_GCP_SendNoticeEvent(uint8 dstNodeType, uint16 dstNodeId, uint16 nodeId, uint8 dataFormat, uint16 sensorId) {
    1bb8:	bf 92       	push	r11
    1bba:	cf 92       	push	r12
    1bbc:	df 92       	push	r13
    1bbe:	ef 92       	push	r14
    1bc0:	ff 92       	push	r15
    1bc2:	0f 93       	push	r16
    1bc4:	1f 93       	push	r17
    1bc6:	df 93       	push	r29
    1bc8:	cf 93       	push	r28
    1bca:	cd b7       	in	r28, 0x3d	; 61
    1bcc:	de b7       	in	r29, 0x3e	; 62
    1bce:	2a 97       	sbiw	r28, 0x0a	; 10
    1bd0:	0f b6       	in	r0, 0x3f	; 63
    1bd2:	f8 94       	cli
    1bd4:	de bf       	out	0x3e, r29	; 62
    1bd6:	0f be       	out	0x3f, r0	; 63
    1bd8:	cd bf       	out	0x3d, r28	; 61
    1bda:	b8 2e       	mov	r11, r24
    1bdc:	6b 01       	movw	r12, r22
	int len = 0;
	uint8 payload[10];
	uint8 resultLen = 0;

	payload[len++] = PLCS_GCP_NOTICEEVENT;
    1bde:	80 e7       	ldi	r24, 0x70	; 112
    1be0:	89 83       	std	Y+1, r24	; 0x01
	payload[len++] = (uint8) (nodeId >> 8);
    1be2:	5a 83       	std	Y+2, r21	; 0x02
	payload[len++] = (uint8) nodeId;
    1be4:	4b 83       	std	Y+3, r20	; 0x03
	payload[len++] = (uint8) (dataFormat);
    1be6:	2c 83       	std	Y+4, r18	; 0x04
	payload[len++] = (uint8) (sensorId >> 8);
    1be8:	1d 83       	std	Y+5, r17	; 0x05
	payload[len++] = (uint8) sensorId;
    1bea:	0e 83       	std	Y+6, r16	; 0x06

	resultLen = plcs_GetGCPMessage(tmp_Buff, 0, zrmpInfo_0.zrm_Id, payload, len);
    1bec:	22 e1       	ldi	r18, 0x12	; 18
    1bee:	e2 2e       	mov	r14, r18
    1bf0:	2f e3       	ldi	r18, 0x3F	; 63
    1bf2:	f2 2e       	mov	r15, r18
    1bf4:	40 91 b6 3d 	lds	r20, 0x3DB6
    1bf8:	50 91 b7 3d 	lds	r21, 0x3DB7
    1bfc:	c7 01       	movw	r24, r14
    1bfe:	60 e0       	ldi	r22, 0x00	; 0
    1c00:	70 e0       	ldi	r23, 0x00	; 0
    1c02:	9e 01       	movw	r18, r28
    1c04:	2f 5f       	subi	r18, 0xFF	; 255
    1c06:	3f 4f       	sbci	r19, 0xFF	; 255
    1c08:	06 e0       	ldi	r16, 0x06	; 6
    1c0a:	0e 94 ec 0c 	call	0x19d8	; 0x19d8 <plcs_GetGCPMessage>
    1c0e:	28 2f       	mov	r18, r24
	sendMessage(dstNodeType, dstNodeId, tmp_Buff, resultLen);
    1c10:	8b 2d       	mov	r24, r11
    1c12:	b6 01       	movw	r22, r12
    1c14:	a7 01       	movw	r20, r14
    1c16:	0e 94 ed 2f 	call	0x5fda	; 0x5fda <sendMessage>
}
    1c1a:	2a 96       	adiw	r28, 0x0a	; 10
    1c1c:	0f b6       	in	r0, 0x3f	; 63
    1c1e:	f8 94       	cli
    1c20:	de bf       	out	0x3e, r29	; 62
    1c22:	0f be       	out	0x3f, r0	; 63
    1c24:	cd bf       	out	0x3d, r28	; 61
    1c26:	cf 91       	pop	r28
    1c28:	df 91       	pop	r29
    1c2a:	1f 91       	pop	r17
    1c2c:	0f 91       	pop	r16
    1c2e:	ff 90       	pop	r15
    1c30:	ef 90       	pop	r14
    1c32:	df 90       	pop	r13
    1c34:	cf 90       	pop	r12
    1c36:	bf 90       	pop	r11
    1c38:	08 95       	ret

00001c3a <plcs_GCP_SendAddScheduleListRes>:
	resultLen = plcs_GetGCPResMessage(tmp_Buff, 0, zrmpInfo_0.zrm_Id, payload, len, seqNum);

	sendMessage(dstNodeType, dstNodeId, tmp_Buff, resultLen);
}

void plcs_GCP_SendAddScheduleListRes(uint8 dstNodeType, uint16 dstNodeId, uint16 seqNum, uint16 nodeId, uint8 result) {
    1c3a:	af 92       	push	r10
    1c3c:	bf 92       	push	r11
    1c3e:	cf 92       	push	r12
    1c40:	df 92       	push	r13
    1c42:	ef 92       	push	r14
    1c44:	ff 92       	push	r15
    1c46:	0f 93       	push	r16
