:100000000C9446000C9465000C9465000C946500FB
:100010000C9465000C9465000C9465000C946500CC
:100020000C9465000C9465000C9465000C946500BC
:100030000C9465000C9465000C9465000C946500AC
:100040000C9465000C9465000C946A0B0C94940B52
:100050000C94C10B0C9465000C9465000C94650025
:100060000C9465000C9465000C940F0B0C946500C7
:100070000C9465000C9465000C94110C0C943E0CCF
:100080000C94700C0C9465000C94650011241FBE38
:10009000CFEFD0E1DEBFCDBF11E0A0E0B1E0E0E402
:1000A000F5E200E00BBF02C007900D92A430B1074B
:1000B000D9F71AE0A4E0B1E001C01D92AD30B1075C
:1000C000E1F70E943F050C949E120C94000084B34B
:1000D000876084BBA398A89A089585E0982F9A9585
:1000E000F1F7A99A982F9A95F1F7A9988A95F1F7BF
:1000F00008950F931F93CF93DF93C7E0D0E0082FAD
:1001000010E0C8010C2E02C0959587950A94E2F77D
:1001100080FF02C0AA9A01C0AA980E946D00219790
:100120008FEFCF3FD80769F7DF91CF911F910F91E4
:100130000895EF92FF921F93CF93DF93C7E0D0E033
:1001400010E081E0E82EF12C9B9B08C0C7010C2E2B
:1001500002C0880F991F0A94E2F7182B0E946D00C5
:1001600021978FEFCF3FD80779F7812FDF91CF917C
:100170001F91FF90EF900895DF92EF92FF920F93FF
:100180001F93CF93DF938C01D62EF42EE52EA898E3
:1001900080EA9FE00197F1F784E80E94790080E00F
:1001A0000E947900812F0E947900802F0E9479009F
:1001B0002F2D3E2DC901EC0110E004C089910E9451
:1001C00079001F5F1D15D0F380EA9FE00197F1F7DA
:1001D000A89ADF91CF911F910F91FF90EF90DF9040
:1001E0000895EF92FF920F931F938C01A89830EA25
:1001F000E32E3FE0F32EC7010197F1F783E80E9459
:100200007900C801880F892F881F990B91950E944A
:100210007900802F880F0E94790080E00E94790089
:10022000C7010197F1F7A89A1F910F91FF90EF90E6
:1002300008950F931F93DF93CF930F92CDB7DEB73F
:100240008C01698380E090E061E0AE014F5F5F4F19
:100250000E94BC00C8010E94F10080E49CE9019763
:10026000F1F70F90CF91DF911F910F9108950F93A8
:100270001F938C01A8980E946D0084ED0E94790064
:1002800080E00E947900812F0E947900802F0E94D7
:10029000790080E00E9479000E949900A89A1F913D
:1002A0000F9108950F931F938C01A89880EA9FE007
:1002B0000197F1F782ED0E947900C801880F892F1C
:1002C000881F990B91950E947900802F880F0E94BA
:1002D000790080E00E94790000E080E00E947900CF
:1002E0000F5F0430D1F70E949900E0EAFFE03197F8
:1002F000F1F7A89A1F910F9108950F931F93DF9321
:10030000CF9300D0CDB7DEB78C017A83698380E0CC
:1003100090E062E0AE014F5F5F4F0E94BC00C801F9
:100320000E94F10080E49CE90197F1F70F900F9093
:10033000CF91DF911F910F9108950F931F938C011F
:10034000A89880EA9FE00197F1F782ED0E9479007A
:10035000C801880F892F881F990B91950E947900F9
:10036000802F880F0E94790080E00E94790000E0D1
:1003700080E00E9479000F5F0430D1F70E9499005D
:10038000082F10E00E949900E0EAFFE03197F1F7B2
:10039000A89A382F20E0202B312BC9011F910F91F3
:1003A00008950F931F93DF93CF9300D000D0CDB764
:1003B000DEB78C0149835A836B837C8380E090E0B5
:1003C00064E0AE014F5F5F4F0E94BC00C8010E9415
:1003D000F10080E49CE90197F1F70F900F900F90E6
:1003E0000F90CF91DF911F910F9108959F92AF923F
:1003F000BF92CF92DF92EF92FF920F931F938C01E7
:10040000A89880EA9FE00197F1F782ED0E947900B9
:10041000C801880F892F881F990B91950E94790038
:10042000802F880F0E94790080E00E94790000E010
:1004300080E00E9479000F5F0430D1F70E9499009C
:10044000A82EBB24CC24DD240E949900982E0E9463
:100450009900E82E0E949900FF2400E010E0870137
:10046000FF24EE2490E0A0E0B0E0B82FAA2799275F
:100470008827E82AF92A0A2B1B2BEA28FB280C29B3
:100480001D2980EA9FE00197F1F7A89A992D80E055
:10049000AA2797FDA095BA2FE82AF92A0A2B1B2B29
:1004A000B701C8011F910F91FF90EF90DF90CF909F
:1004B000BF90AF909F9008950F931F938C019B0165
:1004C00080E090E0642FA9010E94BC00C8010E9456
:1004D000F10080E49CE90197F1F71F910F910895D5
:1004E000DF92EF92FF920F931F93CF93DF938C01D4
:1004F000F62EE72ED42EA89880EA9FE00197F1F718
:1005000082ED0E947900C801880F892F881F990BFE
:1005100091950E947900802F880F0E94790080E0D9
:100520000E94790000E080E00E9479000F5F0430B3
:10053000D1F78F2D9E2D9C01E90100E004C00E949F
:10054000990089930F5F0D15D0F380EA9FE0019722
:10055000F1F7A89A8D2DDF91CF911F910F91FF9008
:10056000EF90DF9008950F931F93A89800EA1FE083
:10057000C8010197F1F787ED0E9479000E94990068
:10058000F8013197F1F7A89A1F910F9108952091E2
:100590000401309105012F5F3F4F309305012093F7
:1005A000040121503040C9010895EF92FF920F934A
:1005B000CF93DF93EC0179018091040190910501C3
:1005C00001969093050180930401019720E8288308
:1005D00021E229839A838B837C836D835E834F839F
:1005E00040E050E0602F70E00AC0FE01E80FF11D0E
:1005F000D701A40FB51F8C9180834F5F5F4F842F6D
:10060000885F461757078CF3802F885FDF91CF9163
:100610000F91FF90EF900895EF92FF920F93CF9379
:10062000DF93EC0180E8888381E28983FA82EB82A0
:100630007C836D835E834F8340E050E0602F70E0E9
:100640000AC0FE01E80FF11DD901A40FB51F8C915E
:1006500080834F5F5F4F842F885F461757078CF367
:10066000802F885FDF91CF910F91FF90EF900895D9
:10067000CF92DF92EF92FF920F93DF93CF93CDB79C
:10068000DEB7A0970FB6F894DEBF0FBECDBF7C01DA
:10069000942F85E289831A821B8240915E015091DA
:1006A0005F015C834D8380E28E8380E48F83988733
:1006B00085E6C82E81E0D82EC60160E070E09E017C
:1006C0002F5F3F4F08E00E940C03482F80E090E02E
:1006D000B6010E949610A0960FB6F894DEBF0FBE2A
:1006E000CDBFCF91DF910F91FF90EF90DF90CF9032
:1006F0000895FB01928180E0238130E060915E01EA
:1007000070915F01822B932B40E00E943803089583
:10071000FB012085243219F02A3329F403C00E94FA
:1007200079030895FFCF08951BBA8FEF8ABB9FE02E
:1007300095BB84BB9FE992BB81BB80936200809391
:10074000610080936500809364000895979888EE17
:1007500093E020E931E0F9013197F1F70197D9F7FA
:10076000979A089584B7877F84BF2FE088E190E04F
:100770000FB6F894A89581BD0FBE21BD08958AE0FB
:1007800090E00E94BD0A892BA9F48AE090E00E94C3
:10079000DA0A8AE090E040E355E760E070E00E940A
:1007A000A80A60915E0170915F0180E090E040E0F6
:1007B0000E943803089584E090E00E94BD0A892BCE
:1007C00031F50E94140F8330B1F40E941E07882374
:1007D00019F40E945B0702C00E94930784E090E036
:1007E0000E94DA0A84E090E048E853E160E070E0BB
:1007F0000E94A80A089584E090E00E94DA0A84E04A
:1008000090E048EE53E060E070E00E94A80A08958E
:100810000F931F9382E090E00E94BD0A892B11F58F
:100820000E94CB0F809106018F5F809306010E948A
:10083000140F833059F482E090E00E94DA0A82E0DB
:1008400090E040E157E260E070E00AC082E090E0B2
:100850000E94DA0A82E090E048EE53E060E070E047
:100860000E94A80A0E94140F823020F48091060191
:10087000863010F01092060185EE91E060E40E944F
:100880004C0D482F90E09093080180930701892B2D
:10089000A9F18091E501882319F0803179F508C02C
:1008A000415086EE91E0642F70E00E94D50F26C083
:1008B0001091E8010091E901455085EA91E06AEE66
:1008C00071E00E941A0F482F9091A90180E02091B9
:1008D000AA0130E0822B932B20915E0130915F01C1
:1008E0008217930759F4912F80E0202F30E0822B5C
:1008F000932B65EA71E050E00E94C50C1F910F91A7
:10090000089589E090E00E94BD0A892B71F489E086
:1009100090E00E94DA0A89E090E044E650E060E06E
:1009200070E00E94A80A0E943C1108951F9381E084
:1009300090E00E94BD0A892B91F4A895849B02C087
:10094000949801C0949A81E090E00E94DA0A81E0D4
:1009500090E044EF51E060E070E00E94A80A86E079
:1009600090E00E94BD0A892B09F087C00E94FE1109
:10097000882309F05DC080910901882361F481E03A
:10098000809309018FEF60E00E946E0680E00E9474
:10099000CA118FEF0DC0813071F482E0809309019C
:1009A0008FEF63E30E946E0683E30E94CA118CEC12
:1009B0000E94E31139C0823061F483E08093090121
:1009C0008FEF66E60E946E0686E60E94CA1189E9EC
:1009D000EFCF833061F484E0809309018FEF69E900
:1009E0000E946E0689E90E94CA1186E6E1CF843032
:1009F00061F485E0809309018FEF6CEC0E946E0634
:100A00008CEC0E94CA1183E3D3CF853059F4109245
:100A100009018FEF6EEF0E946E068EEF0E94CA11E1
:100A200080E0C6CF1092090180E00E94390619C00B
:100A300010E0812F0E943306682F812F0E946E06DE
:100A40001F5F1430B1F780E00E9433060E94CA1184
:100A500081E00E94390680E00E94330680950E9462
:100A6000E31186E090E00E94DA0A86E090E048E830
:100A700053E160E070E00E94A80A1F9108950E946F
:100A800094030E94E7110E94520B0E94EA0A0E94FE
:100A9000C3110E94DD1184B7877F84BF2FE088E1F6
:100AA00090E00FB6F894A89581BD0FBE21BD8FEFE1
:100AB0006FEF0E946E068EEF0E94CA1180E00E94C6
:100AC000E31115BA1FBC86E08EBD8FEF8DBD8CBDC6
:100AD00087B7846087BFA89580E197E220E931E07D
:100AE000F9013197F1F70197D9F7A89581E090E0E6
:100AF00044EF51E060E070E00E94A80A86E090E0D8
:100B000048EB5BE060E070E00E94A80A84E090E0BF
:100B100040E157E260E070E00E94A80A89E090E0BE
:100B200040E157E260E070E00E94A80A82E090E0B5
:100B300048EE53E060E070E00E94A80A8AE090E08E
:100B400040E157E260E070E00E94A80A10925D0167
:100B50008DEE9BE06BE07CE00E94FC0C8DE99CE05C
:100B60006BEB7CE00E94060D85E10E94820F0E94E3
:100B700096040E9408040E94DB030E9481040E94E4
:100B8000BF03F5CF20910A0130910B012F5F3F4F3A
:100B900030930B0120930A0121503040C901089580
:100BA000EF92FF920F93CF93DF93EC017901809145
:100BB0000A0190910B01019690930B0180930A0119
:100BC000019720E8288321E129839A838B837C8302
:100BD0006D835E834F8340E050E0602F70E00AC079
:100BE000FE01E80FF11DD701A40FB51F8C91808382
:100BF0004F5F5F4F842F885F461757078CF3802F16
:100C0000885FDF91CF910F91FF90EF900895EF9261
:100C1000FF920F93CF93DF93EC0180E8888381E10B
:100C20008983FA82EB827C836D835E834F8340E00D
:100C300050E0602F70E00AC0FE01E80FF11DD901FD
:100C4000A40FB51F8C9180834F5F5F4F842F885F07
:100C5000461757078CF3802F885FDF91CF910F9154
:100C6000FF90EF900895E0E0F1E0E80FF11D808142
:100C70000895EF92FF920F93DF93CF93CDB7DEB736
:100C80002A970FB6F894DEBF0FBECDBF90E49983CC
:100C900020915E0190915F019A832B838C8385E282
:100CA000E82E82E0F82EC70160E070E040E050E0FE
:100CB0009E012F5F3F4F04E00E94D005682FC701BF
:100CC0000E94E70D2A960FB6F894DEBF0FBECDBF87
:100CD000CF91DF910F91FF90EF900895EF92FF92E7
:100CE0000F93DF93CF93CDB7DEB72A970FB6F89463
:100CF000DEBF0FBECDBF92E3998320915E0190913C
:100D00005F019A832B838C836D8395E2E92E92E0B9
:100D1000F92EC70160E070E040E050E09E012F5FD7
:100D20003F4F05E00E94D005682FC7010E94E70DE4
:100D30002A960FB6F894DEBF0FBECDBFCF91DF91DC
:100D40000F91FF90EF900895EF92FF921F93CF9332
:100D5000DF937C01C0E0D0E0F7011385FE01E05095
:100D6000FF4F10838C2F612F0E946E06CC2359F405
:100D7000812F0E94CA111E3F10F080E002C0812F17
:100D800080950E94E31121960894E11CF11CC43067
:100D9000D10511F7DF91CF911F91FF90EF9008954A
:100DA000FB018085823321F4CB01BA010E94A406A5
:100DB0000895FB018085823019F08231B9F408C0B2
:100DC0008285813011F410920C0110920D0108956A
:100DD000918580E0228530E0822B932B892B21F4B2
:100DE00081E080930C01089510920C010895FB019D
:100DF0008285813011F410920C0110920D0108953A
:100E0000FB01918580E0228530E0822B932B892B9A
:100E100021F481E080930C01089510920C01089553
:100E200020910E0130910F012F5F3F4F30930F0142
:100E300020930E0121503040C901089580910C018A
:100E4000089580930C010895EF92FF920F93CF9332
:100E5000DF93EC01790180910E0190910F010196D1
:100E600090930F0180930E01019720E8288321E0E1
:100E700029839A838B837C836D835E834F8340E0D9
:100E800050E0602F70E00AC0FE01E80FF11DD701AD
:100E9000A40FB51F8C9180834F5F5F4F842F885FB5
:100EA000461757078CF3802F885FDF91CF910F9102
:100EB000FF90EF900895EF92FF920F93DF93CF93FF
:100EC000CDB7DEB72A970FB6F894DEBF0FBECDBF01
:100ED00091E1998380E28A8380E48B839C839D8364
:100EE00088E6E82E82E0F82E40915E0150915F0185
:100EF000C70160E070E09E012F5F3F4F05E00E9458
:100F00002407482F80E090E0B7010E9496102A96AF
:100F10000FB6F894DEBF0FBECDBFCF91DF910F911A
:100F2000FF90EF9008950F93DF93CF93CDB7DEB787
:100F30002A970FB6F894DEBF0FBECDBF80910D018A
:100F40008F5F80930D0181E089831A821B8240911B
:100F50005E0150915F0188E692E060E070E09E01E2
:100F60002F5F3F4F03E00E942407482F80910D011F
:100F7000843020F010920C0110920D0180E090E07E
:100F800068E672E00E9496102A960FB6F894DEBFCB
:100F90000FBECDBFCF91DF910F910895FFCF20916C
:100FA0001001309111012F5F3F4F309311012093B9
:100FB000100121503040C9010895EF92FF920F9324
:100FC000CF93DF93EC017901809110019091110191
:100FD00001969093110180931001019720E82883D6
:100FE00020EA29839A838B837C836D835E834F837E
:100FF00040E050E0602F70E00AC0FE01E80FF11DF4
:10100000D701A40FB51F8C9180834F5F5F4F842F52
:10101000885F461757078CF3802F885FDF91CF9149
:101020000F91FF90EF900895EF92FF920F93CF935F
:10103000DF93EC0180E8888380EA8983FA82EB827F
:101040007C836D835E834F8340E050E0602F70E0CF
:101050000AC0FE01E80FF11DD901A40FB51F8C9144
:1010600080834F5F5F4F842F885F461757078CF34D
:10107000802F885FDF91CF910F91FF90EF900895BF
:10108000EF92FF920F931F93DF93CF93CDB7DEB70D
:10109000C050D1400FB6F894DEBF0FBECDBF8C015B
:1010A0006CE070E00E948112CB0141967E010894B1
:1010B000E11CF11CB7014FEF0E947002C8016CE007
:1010C00070E00E9481129C0185E190E0289F602DD4
:1010D00011242F5F3F4F289FD001299FB00D389FCB
:1010E000B00D11248E010C5F1F4FA7011FC0A895E2
:1010F000F801E20FF31F9081FA01E20FF31F8081E4
:10110000882311F49130B9F0FA01E20FF31F90E057
:101110002B5E3F4F240F351F8191980FE217F30785
:10112000D9F7992311F080E007C06B5E262F30E0DD
:101130002A173B07E0F281E0C050DF4F0FB6F8946A
:10114000DEBF0FBECDBFCF91DF911F910F91FF90FA
:10115000EF900895CF92DF92EF92FF920F931F933B
:10116000DF93CF93CDB7DEB7C050D1400FB6F89420
:10117000DEBF0FBECDBF6E010894C11CD11CF601AD
:10118000CE0181961192E817F907E1F701E110E02D
:101190007E010894E11CF11CA895C801B7014FEF2E
:1011A0000E947002F60120E030E0A89593818081D2
:1011B000882311F49130E9F0D701A20FB31F90E01A
:1011C000AF014B5E5F4F8D91980FA417B507D9F70C
:1011D000992311F080E00EC02B5E3F4F2C3F31056C
:1011E00011F0FD01E2CF0F5F1F4F82E000301807C2
:1011F00099F681E0C050DF4F0FB6F894DEBF0FBE06
:10120000CDBFCF91DF911F910F91FF90EF90DF90B5
:10121000CF9008958F929F92AF92BF92CF92DF921C
:10122000EF92FF920F931F93DF93CF93CDB7DEB76B
:10123000CC5FD0400FB6F894DEBF0FBECDBF7B01B0
:10124000842ED22EC32E8617970708F447C0CB01F1
:101250006CE070E00E9481125B0181E190E0A80ED9
:10126000B91EC5018E010F5F1F4FB8014CEF0E94E0
:1012700070022D2D3C2DC9016C01C7016CE070E09E
:101280000E94811295E1899F70011124E00EF11EE8
:10129000F601D7019C2C02C081918D938E2F891964
:1012A0008815D0F3C5018E010F5F1F4FB8014CEFB9
:1012B0000E945C02C501B8014CEF0E94700208C098
:1012C000F60191916F01F70181917F01981731F437
:1012D0008C2D89198815A0F381E001C080E0C450ED
:1012E000DF4F0FB6F894DEBF0FBECDBFCF91DF91B9
:1012F0001F910F91FF90EF90DF90CF90BF90AF9034
:101300009F908F900895682F80E190E00E941901CE
:101310000895CF92DF92EF92FF920F93DF93CF93D6
:10132000CDB7DEB72A970FB6F894DEBF0FBECDBF9C
:101330007C0184E0898380E28A8380E48B831C8241
:101340001D8240915E0150915F015E834F836887EB
:101350008EEAC82E82E0D82EC60160E070E09E01C1
:101360002F5F3F4F08E00E941408482F80E090E074
:10137000B6010E9496102A960FB6F894DEBF0FBEF3
:10138000CDBFCF91DF910F91FF90EF90DF90CF9085
:101390000895EF92FF920F931F93DF93CF93CDB7F2
:1013A000DEB765970FB6F894DEBF0FBECDBF7C01E8
:1013B000D9011F967C911F9750962C91509751966A
:1013C0000C91519752966C91529753961C9153974A
:1013D0001631A8F5AE014F5F5F4FFA01CE01469678
:1013E0001192E817F907E1F7FA0104C053968C91BE
:1013F0005397819311968E2F841B8117B8F3902FEA
:1014000080E0062F10E0082B192B972F80E030E0AA
:10141000822B932BB80145E19E012F5F3F4F0E9425
:101420000A09882341F0C8010E944008882319F066
:10143000C70160E002C0C70160E10E9489096596AA
:101440000FB6F894DEBF0FBECDBFCF91DF911F91D5
:101450000F91FF90EF900895CF92DF92EF92FF925D
:101460000F93DF93CF93CDB7DEB72A970FB6F894DB
:10147000DEBF0FBECDBF7C0182E0898380E28A831C
:1014800080E48B831C821D8240915E0150915F013C
:101490005E834F8368879EEAC92E92E0D92EC601EB
:1014A00060E070E09E012F5F3F4F08E00E9414084B
:1014B000482F80E090E0B6010E9496102A960FB661
:1014C000F894DEBF0FBECDBFCF91DF910F91FF909B
:1014D000EF90DF90CF900895CF93DF93EC0181E1FF
:1014E00090E00E94AA08882341F080E190E061E04A
:1014F0000E941901CE0160E007C080E190E060E049
:101500000E941901CE0160E10E942C0ADF91CF9167
:101510000895EF92FF920F931F93F801A085A130D9
:1015200019F0A33081F408C0CB01BA01A9019801D8
:1015300087010E946C0A07C0CB01BA01A90198017A
:1015400087010E94C9091F910F91FF90EF900895A4
:101550008F30910578F4FC01EE0FFF1FEE0FFF1F97
:10156000E80FF91FEE50FD4F41835283638374836C
:1015700081E0808380E090E008958F309105B0F4A1
:10158000FC01EE0FFF1FEE0FFF1FE80FF91FEE50DB
:10159000FD4F8081882351F020E030E081819281ED
:1015A000A381B4810097A105B10511F021E030E0DD
:1015B000C90108958F30910550F4FC01EE0FFF1F13
:1015C000EE0FFF1FE80FF91FEE50FD4F108280E075
:1015D00090E00895F894E2EFF2E010821182128216
:1015E00013821482359683E0ED33F807B1F7109239
:1015F00089001092880080E480938B008CE08093B7
:101600008A0010928C00109287008EE380938600EF
:1016100080917D00806180937D00789408951F9271
:101620000F920FB60F920BB60F9211248F939F93C8
:10163000AF93BF93EF93FF938091EE029091EF02EF
:10164000A091F002B091F1020196A11DB11D80930D
:10165000EE029093EF02A093F002B093F102E3EF59
:10166000F2E080819181A281B3810097A105B1054B
:1016700039F00197A109B10980839183A283B383D3
:10168000359683E0EE33F80761F7FF91EF91BF9154
:10169000AF919F918F910F900BBE0F900FBE0F9047
:1016A0001F90189582E08BB988E98AB996E09093EB
:1016B00095001092900080E189B910929B0088E01B
:1016C00080939A0090939D001092980087E68093F3
:1016D000990008951F920F920FB60F920BB60F92BA
:1016E00011242F938F939F93EF93FF935F9BFECFD4
:1016F0002CB18091130190E0FC01E35CFB4F20834F
:10170000019680931301809114018F5F80931401DF
:10171000FF91EF919F918F912F910F900BBE0F90A2
:101720000FBE0F901F9018951F920F920FB60F9239
:101730000BB60F9211242F933F938F939F93EF93A8
:10174000FF9330911701332371F08091150190E0E0
:10175000FC01E35CFA4F20812CB9019680931501BE
:101760003150309317015598FF91EF919F918F91D0
:101770003F912F910F900BBE0F900FBE0F901F90B7
:1017800018951F920F920FB60F920BB60F9211245D
:101790002F933F938F939F93EF93FF933091170174
:1017A000332371F08091150190E0FC01E35CFA4F66
:1017B00020812CB901968093150131503093170187
:1017C000FF91EF919F918F913F912F910F900BBEC1
:1017D0000F900FBE0F901F901895DC01F894809128
:1017E0001401882399F08150809314017894E0913A
:1017F0001201F0E0E35CFB4F80818C938091120139
:101800008F5F8093120121E030E003C0789420E0E4
:1018100030E0C90108955D9BFECF8CB981E090E076
:1018200008951F920F920FB60F920BB60F921124CC
:101830002F938F939F93EF93FF9380919B0087FF4C
:10184000FCCF20919C008091190190E0FC01E35CA9
:10185000F94F208301968093190180911A018F5FBF
:1018600080931A01FF91EF919F918F912F910F908B
:101870000BBE0F900FBE0F901F9018951F920F92E6
:101880000FB60F920BB60F9211242F933F938F93A5
:101890009F93EF93FF9330911D01332379F0809153
:1018A0001B0190E0FC01E35CFC4F208120939C0035
:1018B000019680931B01315030931D0180919A0055
:1018C0008F7D80939A00FF91EF919F918F913F912F
:1018D0002F910F900BBE0F900FBE0F901F90189579
:1018E0001F920F920FB60F920BB60F9211242F93E7
:1018F0003F938F939F93EF93FF9330911D01332379
:1019000079F080911B0190E0FC01E35CFC4F2081A9
:1019100020939C00019680931B01315030931D0150
:10192000FF91EF919F918F913F912F910F900BBE5F
:101930000F900FBE0F901F901895DC01F8948091C6
:101940001A01882399F0815080931A017894E091CC
:101950001801F0E0E35CF94F80818C9380911801CD
:101960008F5F8093180121E030E003C0789420E07D
:1019700030E0C9010895982F80919B0085FFFCCF2E
:1019800090939C0081E090E00895EF92FF920F9376
:101990001F939C01FB017A0191818081803831F590
:1019A000913191F0923118F4913001F505C09132E6
:1019B00039F0903AD9F40CC0C9010E94D90616C07A
:1019C000C9010E94880312C0C9010E94D0060EC03E
:1019D000728160E0838190E0682B792BC90140E03F
:1019E00050E020E030E08F010E94890A81E01F91E1
:1019F0000F91FF90EF90089590932B0180932A010F
:101A000070932D0160932C0180E00895909327013D
:101A100080932601709329016093280180E0089546
:101A2000FF920F931F93CF93DF93F62E40912C01DB
:101A300050912D014115510511F48FEF27C0EC0194
:101A4000FC0190E000E003C08191080F9F5F9F15AB
:101A5000D8F38AEFFA010995E0912C01F0912D015C
:101A60008F2D099510E003C0899109951F5FE091C2
:101A70002C01F0912D011F15B8F3802F0995E091ED
:101A80002C01F0912D018FEA099580E0DF91CF9133
:101A90001F910F91FF900895FF920F931F93DF9373
:101AA000CF930F92CDB7DEB7082FF92E162FE09106
:101AB0002A01F0912B01309711F44FEF80C0CE0135
:101AC00001960995181619060CF078C0212F30E000
:101AD00080911E0190911F018217930724F01092AC
:101AE0001F0110921E0140911E0150911F0129817A
:101AF000FA01E35CF84F2083CA01019690931F011D
:101B000080931E012A3F71F480913D078A3F09F4BA
:101B100055C020933D0781E090E090931F01809392
:101B20001E014CC02F3A09F049C006970CF446C07C
:101B300080913E07282F30E0CA0102972817390705
:101B4000ECF5CA0103972817390764F08217930749
:101B500049F4AFE3B7E090E0FA0131979F01235CCD
:101B6000384F07C010921F0110921E0127C08D919F
:101B7000980FA217B307D9F7E35CF84F8081981745
:101B8000E9F4802F9F2D9C01D90122E030E007C0AD
:101B9000F901E35CF84F80818D932F5F3F4F422F17
:101BA000425080911E0190911F010297281739071A
:101BB0007CF310921F0110921E0101C040E0842F9F
:101BC0000F90CF91DF911F910F91FF900895CF92C9
:101BD000DF92EF92FF920F931F93DF93CF93CDB7D6
:101BE000DEB7C054D0400FB6F894DEBF0FBECDBFF5
:101BF000AC018091280190912901892B11F48FEF7C
:101C000041C08AEF89836A83DE0113968D0170E0FB
:101C10006E5F7F4F9E012F5F3F4F260F371F06C01D
:101C2000FA018191AF01F80181938F010217130727
:101C3000B9F720E002C08D91280FA017B107D9F79E
:101C4000CE010196FC01E60FF71F20837B0108946B
:101C5000E11CF11CFC01EE0DFF1D2FEA208300E0CA
:101C600010E06C01F601E00FF11F20912801309186
:101C700029018081F90109950F5F1F4FE016F106D8
:101C80008CF780E0C05CDF4F0FB6F894DEBF0FBE6C
:101C9000CDBFCF91DF911F910F91FF90EF90DF901B
:101CA000CF9008950F931F93DF93CF930F92CDB7EB
:101CB000DEB78C01E0912601F0912701309711F4F5
:101CC0008FEFA5C0CE0101960995181619060CF0E4
:101CD0009DC080912201909123018230910509F4E9
:101CE00048C08330910534F40097A9F0019709F0BA
:101CF00089C026C08330910521F0049709F082C085
:101D000066C040912001509121014F5F5F4F90E0EC
:101D100022E030E04FC01092250110922401298169
:101D20002A3F09F073C081E090E0909323018093F3
:101D3000220120937D07909325018093240166C0A2
:101D400080912401909125012981FC01E358F84FED
:101D500020830196909325018093240182E090E0F6
:101D6000909323018093220120932001109221015E
:101D70004DC02091240130912501F901E358F84F1D
:101D8000898180832F5F3F4F309325012093240169
:101D90008091200190912101019682179307B4F55B
:101DA00083E090E00FC0F901E358F84F8081980F6D
:101DB0002F5F3F4F42175307B4F78981891711F5F9
:101DC00084E090E090932301809322011FC08981D9
:101DD0008F3AC1F41092230110922201AFE7B7E0CD
:101DE00020E030E007C0F801E20FF31F8D918083FF
:101DF0002F5F3F4F809120019091210128173907D3
:101E000094F305C0109223011092220180E00F90FC
:101E1000CF91DF911F910F91089580912F019091A3
:101E20002E01891B8F70089580915D010895809126
:101E30003001089530E050E0BFEAAAEF24C0FB0172
:101E4000E50FF11D20812F3FC1F421812F3F29F49F
:101E5000FC01E30FF11D20830DC0213029F4FC01AA
:101E6000E30FF11DA08306C0223029F4FC01E30F2B
:101E7000F11DB0833F5F5F5F05C0FC01E30FF11D03
:101E800020833F5F5F5F5417D0F2832F0895CF9375
:101E9000DF93DC01EB0180E020E03FEF62E051E006
:101EA0002CC098819A3F51F4FD01E80FF11D308359
:101EB0008F5FFD01E80FF11D50830BC09F3A59F46D
:101EC000FD01E80FF11D30838F5FFD01E80FF11D6B
:101ED00060838F5F10C0E82FF0E08F5F9F3F41F479
:101EE000EA0FFB1F9083FD01E80FF11D9083F1CFF6
:101EF000EA0FFB1F90832F5F2196241790F2DF914A
:101F0000CF9108951092ED0990E49093EE0995E039
:101F10009093EF098093F0098DEE99E064E00E94C0
:101F2000100D08951092ED0990E49093EE0992E05F
:101F30009093EF098093F0098DEE99E064E00E94A0
:101F4000100D08951092ED0920E32093EE0990936F
:101F5000EF098093F0098DEE99E064E00E94100D86
:101F600008951092ED0981E08093EE098093EF09C6
:101F70008DEE99E063E00E94100D08951092ED0936
:101F800080E18093EE091092EF098DEE99E063E015
:101F90000E94100D08951092ED091092EE098DEE39
:101FA00099E062E00E94100D08950F931F93CF9364
:101FB000DF93FC018081833009F47EC0843030F4EB
:101FC000813059F0823009F079C072C0813109F452
:101FD0004EC0813A09F072C068C0938580E02485C4
:101FE00030E0822B932B90935F0180935E01958567
:101FF00080E0268530E0822B932B909361018093C3
:102000006001978580E02089C22FD0E0C82BD92BB2
:102010008091630190916401C817D90741F084E071
:1020200090E048EE53E060E070E00E94A80AD09390
:102030006401C093630100916001109161010E94ED
:10204000FE1190E091600817190749F00E94FE11F7
:1020500090E091600E94A20F0E94B10F2FC080916A
:102060005D018330D9F081E080935D0117C0018567
:10207000009362010E94FE1110E090E008968F70BC
:1020800090700B960817190761F00E94FE1190E0FE
:1020900008968F709070855F0E94920F0E94BE0F0D
:1020A0000DC083E080935D0109C00E94CB0F06C084
:1020B00081E08093300102C010923001DF91CF9116
:1020C0001F910F9108951F93CF93DF93EC01142F6D
:1020D00090912F0180912E01292F281B822F8F7024
:1020E0008F3001F123E2929F900111242054384F48
:1020F000C90150E00E94951240912F01242F30E039
:1021000083E290E0289FF001299FF00D389FF00DA9
:102110001124E354F84F1283D183C0834F5F4F7073
:1021200040932F01DF91CF911F910895EF92FF927D
:102130000F931F93F82EE92E0DEE19E080E18093A6
:10214000ED099093EE09F092EF091092F0091092C8
:10215000F109C80105960E94470F482F4B5F8F2D4C
:102160009E2DB8010E9463101F910F91FF90EF9078
:1021700008950F931F93CF93DF93EC0190912E015D
:1021800080912F01891B8F7011F420E02BC0892FC3
:1021900090E0BE016D5F7F4F03E210E0809F9001F1
:1021A000819F300D909F300D1124F901E354F84FB9
:1021B00042812054384FCB01B90150E00E94951262
:1021C00080912E0190E0809FF001819FF00D909F03
:1021D000F00D1124E354F84F22812A8380819181EC
:1021E00099838883822FDF91CF911F910F9108955A
:1021F0000F931F93CF93DF93EC0190912E01809169
:102200002F01891B8F7011F430E030C0892F90E0CE
:10221000BE016D5F7F4F03E210E0809F9001819FC0
:10222000300D909F300D1124F901E354F84F428195
:102230002054384FCB01B90150E00E9495122091F3
:102240002E01822F90E0809FF001819FF00D909FE2
:10225000F00D1124E354F84F32813A83808191814B
:10226000998388832F5F2F7020932E01832FDF9116
:10227000CF911F910F91089580912F0190912E0180
:10228000891B8F70B1F080915D01833091F4809152
:102290003001813071F48AE391E00E94F8101092CD
:1022A00031011092320110923301109234011092D8
:1022B000300180912F0190912E01891B8F7009F4BC
:1022C00061C080915D01833009F05CC08091300174
:1022D000823011F58091350190913601A09137013E
:1022E000B09138010196A11DB11D809335019093E5
:1022F0003601A0933701B09338010397A105B105CA
:1023000008F440C010923501109236011092370146
:1023100010923801109230018AE391E00E94B910C6
:1023200080933901882371F18091310190913201BC
:10233000A0913301B09134010196A11DB11D80938C
:10234000310190933201A0933301B09334010B9784
:10235000A105B10560F01092310110923201109286
:1023600033011092340181E080933001089582E0BE
:10237000809330018DE391E060913C010E94100D4B
:1023800010923901089581B3826281BB82B38D7D41
:1023900082BB08958E3418F482B382620CC08B39EC
:1023A00018F4959A919808958E3C18F49598919AFE
:1023B000089582B38D7D82BB0895BF9A8CE685BD5A
:1023C000089515BC089583BD089513BC089587B37F
:1023D0008F7887BBE4E6F0E08081877F808382B1DD
:1023E0008F7082B988B3806788BBE5E6F0E08081B2
:1023F0008860808383B1806F83B9089586B320910C
:10240000630030E02870307094E0220F331F9A95FB
:10241000E1F78077822B91B192959F70892B8095FF
:102420000895FC0120E030E04CE050E09081892FDD
:1024300080538A3020F4892F90E0C09710C0892FF4
:102440008154863020F4892F90E0C79708C0892FE7
:102450008156863060F4892F90E087559040042E95
:1024600002C0880F991F0A94E2F7282B392B319666
:10247000445050408FEF4C3F5807C1F6C9010895B2
:10248000FC0140E024E030E09081892F80538A30C5
:1024900020F4892F90E0C09710C0892F8154863096
:1024A00020F4892F90E0C79708C0892F8156863085
:1024B00058F4892F90E087559040022E02C0880F73
:1024C000991F0A94E2F7482B3196245030408FEF41
:1024D0002C3F3807C9F6842F0895282F30E02F703D
:1024E00030702A3031051CF48F70805D08952A50B9
:1024F00030402630310510F080E008958F70895CFF
:102500000895AA1BBB1B51E107C0AA1FBB1FA6173A
:10251000B70710F0A61BB70B881F991F5A95A9F78C
:1025200080959095BC01CD010895FB01DC0102C0AE
:1025300001900D9241505040D8F70895F894FFCF84
:020000021000EC
:10F000000C9446F80C9465F80C9465F80C9465F82B
:10F010000C9465F80C9465F80C9465F80C9465F8FC
:10F020000C9465F80C9465F80C9465F80C9465F8EC
:10F030000C9465F80C9465F80C9465F80C9465F8DC
:10F040000C9465F80C9465F80C9465F80C9465F8CC
:10F050000C9465F80C9465F80C9465F80C9465F8BC
:10F060000C9465F80C9465F80C9465F80C9465F8AC
:10F070000C9465F80C9465F80C9465F80C9465F89C
:10F080000C9465F80C9465F80C9465F811241FBE77
:10F09000CFEFD0E1DEBFCDBF11E0A0E0B1E0E6EC04
:10F0A000FAEF01E00BBF02C007900D92A030B1074C
:10F0B000D9F712E0A0E0B1E001C01D92A730B1077E
:10F0C000E1F70E94B7FC0C9461FD0C9400F884B346
:10F0D000876084BBA398A89A089585E0982F9A9595
:10F0E000F1F7A99A982F9A95F1F7A9988A95F1F7CF
:10F0F00008950F931F93CF93DF93C7E0D0E0082FBD
:10F1000010E0C8010C2E02C0959587950A94E2F78D
:10F1100080FF02C0AA9A01C0AA980E946DF82197A8
:10F120008FEFCF3FD80769F7DF91CF911F910F91F4
:10F130000895EF92FF920F931F93CF93DF93C7E051
:10F14000D0E010E000E681E0E82EF12C82B38027C9
:10F1500082BB9B9B08C0C7010C2E02C0880F991F61
:10F160000A94E2F7182B0E946DF821978FEFCF3F9A
:10F17000D80761F7812FDF91CF911F910F91FF90F9
:10F18000EF900895DF92EF92FF920F931F93CF932A
:10F19000DF938C01D62EF42EE52EA89880EA9FE00E
:10F1A0000197F1F784E80E9479F880E00E9479F8ED
:10F1B000812F0E9479F8802F0E9479F82F2D3E2D03
:10F1C000C901EC0110E004C089910E9479F81F5F29
:10F1D0001D15D0F380EA9FE00197F1F7A89ADF911F
:10F1E000CF911F910F91FF90EF90DF900895EF92D4
:10F1F000FF920F931F938C01A89830EAE32E3FE013
:10F20000F32EC7010197F1F783E80E9479F8C8014E
:10F21000880F892F881F990B91950E9479F8802F6C
:10F22000880F0E9479F880E00E9479F8C701019761
:10F23000F1F7A89A1F910F91FF90EF9008950F9307
:10F240001F93DF93CF930F92CDB7DEB78C01698305
:10F2500080E090E061E0AE014F5F5F4F0E94C2F836
:10F26000C8010E94F7F880E49CE90197F1F70F903C
:10F27000CF91DF911F910F9108950F931F938C01F0
:10F28000A8980E946DF884ED0E9479F880E00E94B1
:10F2900079F8812F0E9479F8802F0E9479F880E018
:10F2A0000E9479F80E9499F8A89A1F910F910895E9
:10F2B0000F931F938C01A89880EA9FE00197F1F7C4
:10F2C00082ED0E9479F8C801880F892F881F990B59
:10F2D00091950E9479F8802F880F0E9479F880E03C
:10F2E0000E9479F800E080E00E9479F80F5F043016
:10F2F000D1F70E9499F8E0EAFFE03197F1F7A89A78
:10F300001F910F9108950F931F93DF93CF9300D018
:10F31000CDB7DEB78C017A83698380E090E062E04C
:10F32000AE014F5F5F4F0E94C2F8C8010E94F7F81C
:10F3300080E49CE90197F1F70F900F90CF91DF9156
:10F340001F910F9108950F931F938C01A89880EA45
:10F350009FE00197F1F782ED0E9479F8C801880FCC
:10F36000892F881F990B91950E9479F8802F880F1B
:10F370000E9479F880E00E9479F800E080E00E9425
:10F3800079F80F5F0430D1F70E9499F8082F10E048
:10F390000E9499F8E0EAFFE03197F1F7A89A382F38
:10F3A00020E0202B312BC9011F910F9108950F935D
:10F3B0001F93DF93CF9300D000D0CDB7DEB78C0181
:10F3C00049835A836B837C8380E090E064E0AE01E4
:10F3D0004F5F5F4F0E94C2F8C8010E94F7F880E4B7
:10F3E0009CE90197F1F70F900F900F900F90CF913C
:10F3F000DF911F910F9108959F92AF92BF92CF928C
:10F40000DF92EF92FF920F931F938C01A89880EAEE
:10F410009FE00197F1F782ED0E9479F8C801880F0B
:10F42000892F881F990B91950E9479F8802F880F5A
:10F430000E9479F880E00E9479F800E080E00E9464
:10F4400079F80F5F0430D1F70E9499F8A82EBB24F9
:10F45000CC24DD240E9499F8982E0E9499F8E82E79
:10F460000E9499F8FF2400E010E08701FF24EE24B9
:10F4700090E0A0E0B0E0B82FAA2799278827E82AD3
:10F48000F92A0A2B1B2BEA28FB280C291D2980EAC4
:10F490009FE00197F1F7A89A992D80E0AA2797FDA0
:10F4A000A095BA2FE82AF92A0A2B1B2BB701C8010D
:10F4B0001F910F91FF90EF90DF90CF90BF90AF9092
:10F4C0009F9008950F931F938C019B0180E090E023
:10F4D000642FA9010E94C2F8C8010E94F7F880E4D5
:10F4E0009CE90197F1F71F910F9108950F931F93D6
:10F4F000DF93CF93CDB7DEB7CF5FD0400FB6F89490
:10F50000DEBF0FBECDBF8C01FE013196CF01AF0132
:10F51000860F911D2FEF01C02193E817F907E1F73E
:10F5200080E090E00E94C2F8C8010E94F7F880E4F1
:10F530009CE90197F1F7C150DF4F0FB6F894DEBF99
:10F540000FBECDBFCF91DF911F910F910895DF9234
:10F55000EF92FF920F931F93CF93DF938C01F62EC0
:10F56000E72ED42EA89880EA9FE00197F1F782ED6C
:10F570000E9479F8C801880F892F881F990B9195EF
:10F580000E9479F8802F880F0E9479F880E00E940D
:10F5900079F800E080E00E9479F80F5F0430D1F73D
:10F5A0008F2D9E2D9C01E90100E004C00E9499F876
:10F5B00089930F5F0D15D0F380EA9FE00197F1F773
:10F5C000A89A8D2DDF91CF911F910F91FF90EF9011
:10F5D000DF9008950F931F93A89800EA1FE0C801D9
:10F5E0000197F1F787ED0E9479F80E9499F8F801E8
:10F5F0003197F1F7A89A1F910F91089540E050E0DC
:10F600000AC020E030E02F5F3F4F6CE02038360723
:10F61000D1F74F5F5F4F4817590798F308955D9BE7
:10F62000FECF8CB981E090E00895DF92EF92FF92D7
:10F630000F931F93E199FECFE0900002F09001023A
:10F64000009102021091030283E0F70100935B0036
:10F6500080936800E8958091680080FDFCCFA0E071
:10F66000B1E020E030E040E050E0DD24D39411969A
:10F670007C91119760E08C91FB01E80FF11DCF01A7
:10F680000C01F90140935B00D0926800E8951124C9
:10F6900012962E5F3F4F4F4F5F4FF2E0A030BF07F3
:10F6A00031F785E0F70100935B0080936800E895EF
:10F6B0008091680080FDFCCF81E180936800E8952F
:10F6C0001F910F91FF90EF90DF900895CF92DF92FE
:10F6D000EF92FF920F931F93CF93DF93E09000027E
:10F6E000F09001020091020210910302C0E0D1E00B
:10F6F000B801A701DE016BBFFA012791369111967F
:10F70000FC911197E0E08C916F01C80ED11C2C1573
:10F710003D05E9F05D9BFECF8FEF8CB95D9BFECF81
:10F720008FEF8CB95D9BFECFBB27A12F902F8F2D24
:10F730008CB95D9BFECFECB888815D9BFECF8CB908
:10F74000219682E0C030D807B9F780E00AC04E5F4A
:10F750005F4F6F4F7F4F129682E0A030B80759F687
:10F7600081E0DF91CF911F910F91FF90EF90DF909B
:10F77000CF90089508951BBE81E085BF15BE0C94FF
:10F780000000089584B7877F84BF2FE088E190E070
:10F790000FB6F894A89581BD0FBE21BD08952F9294
:10F7A0003F924F925F926F927F928F929F92AF9211
:10F7B000BF92CF92DF92EF92FF920F931F93DF934E
:10F7C000CF93CDB7DEB7CF5FD0400FB6F894DEBF92
:10F7D0000FBECDBF31E1A32EB12C00E010E04E01F1
:10F7E0000894811C911C2DEF222E312C2C0E3D1ED5
:10F7F000C501B4014FEF0E94A7FA740194E0C92E2D
:10F80000D12CF70190818381992309F076C0813052
:10F8100009F073C00115110531F10E9415FB0E941A
:10F8200066FB882309F488C0E0E0F1E08FEF819364
:10F8300092E0E030F907D9F7980140E050E080917C
:10F84000000290910102A0910202B0910302820F86
:10F85000931FA41FB51F8093000290930102A093F1
:10F860000202B09303025D9BFECF83E68CB95D9BE1
:10F87000FECF83E68CB95D9BFECF83E68CB95D9BA2
:10F88000FECF83E68CB981E058C0F801E050FF4F0D
:10F89000D301A20FB31F8C9180830F5F1F4FE1E054
:10F8A00000301E0739F50E9415FB0E9466FB882375
:10F8B00009F442C08091000290910102A0910202DD
:10F8C000B091030280509F4FAF4FBF4F8093000213
:10F8D00090930102A0930202B0930302E0E0F1E0F2
:10F8E0008FEF819392E0E030F907D1F720E031E02B
:10F8F00000E010E02F5F3F4F07C020E030E0492ECE
:10F90000552434016C0C7D1C2415350508F4BDCF3D
:10F91000E5E1F0E0EE0EFF1ECE0EDF1EE214F30472
:10F9200009F06FCF0894A11CB11CF0E0AF16F2E013
:10F93000BF0609F05DCF01C080E0C150DF4F0FB6B8
:10F94000F894DEBF0FBECDBFCF91DF911F910F9115
:10F95000FF90EF90DF90CF90BF90AF909F908F90EF
:10F960007F906F905F904F903F902F9008951F93DE
:10F97000CF93DF9384B7877F84BF2FE088E190E047
:10F980000FB6F894A89581BD0FBE21BD88E10FB6D2
:10F99000F89481BD11BC0FBE0E9467F882E08BB95C
:10F9A00088E98AB986E0809395001092900087E6F6
:10F9B00089B980E190E00E9458F9182FF89484E604
:10F9C00090E00E94FEFA8C9A20E030E071E660E15F
:10F9D00040E951E05D9BFECF7CB982B3862782BBB4
:10F9E00080ED97E0FA013197F1F70197D9F782B3EB
:10F9F000862782BB80ED97E0FA013197F1F70197F6
:10FA0000D9F72F5F3F4F2230310521F788E893E186
:10FA100020E931E0F9013197F1F70197D9F7113079
:10FA200009F50E94CFFB882369F484B7877F84BFE0
:10FA30002FE088E190E00FB6F894A89581BD0FBE45
:10FA400021BDFFCF80E190E060E00E941FF9C1E19D
:10FA5000D0E0CE016FEF0E9476FA219682E0C030AE
:10FA6000D807B9F720E030E072E660E140E951E004
:10FA70005D9BFECF7CB982B3862782BB80ED97E089
:10FA8000FA013197F1F70197D9F782B3862782BB44
:10FA900080ED97E0FA013197F1F70197D9F72F5FE1
:10FAA0003F4F2330310521F778941BBE81E085BF9D
:10FAB00015BE0C94000080E090E0DF91CF911F9183
:06FAC0000895F894FFCF49
:040000031000F000F9
:00000001FF

