:100000000C9472000C949A000C949A000C949A0030
:100010000C949A000C949A000C949A000C949A00F8
:100020000C949A000C949A000C949A000C949A00E8
:100030000C949A000C949A000C949A000C949A00D8
:100040000C949A000C949A000C949A000C949A00C8
:100050000C949A000C949A000C949A000C949A00B8
:100060000C949A000C94062C0C943B2C0C946F2C42
:100070000C949A000C949A000C949A000C949A0098
:100080000C94512B0C949A000C949A000C949A00A6
:100090000C94C92C0C94FE2C0C94322D0C949A00C8
:1000A0000C949A000C949A000C949A000C949A0068
:1000B0000C949A000C949A000C949A000C949A0058
:1000C0000C949A000C949A000C949A000C948C2D29
:1000D0000C94C12D0C94F52D0C944F2E0C94842E61
:1000E0000C94B82E90E895BF8AEC8093740090939E
:1000F000750011241FBECFEFD1E2DEBFCDBF00E0FF
:100100000CBF13E2A0E0B2E2E2E5F3E900E00BBFCE
:1001100002C007900D92AE30B107D9F710E7AEE0FC
:10012000B3E201C01D92AE3AB107E1F70E949640DA
:100130000C94A7490C940000AC013091F62CE8EE29
:10014000F8E220E00EC0808191813D9684179507EA
:1001500039F48DE0289F900111242A51374D05C0B4
:100160002F5F231780F320E030E0C9010895AC0130
:100170003091F62CE8EEF8E220E00AC0808191810F
:100180003D968417950719F421E030E005C02F5FF4
:100190002317A0F320E030E0C9010895FF920F93E8
:1001A0001F93DC01F22E5091F62C5035F0F4252FE0
:1001B00030E08DE090E0289FF001299FF00D389FFE
:1001C000F00D1124EA51F74DB383A283718360834C
:1001D0004483F582168281E0808717821286118619
:1001E000148703875F5F5093F62C80E090E01F91A7
:1001F0000F91FF900895EF92FF920F931F93CF936B
:10020000DF938C01EB01F42EE22E0E949C00FC0196
:10021000009749F0168281E080871782F482E58298
:10022000D183C08308C0C801BE014F2D2E2D00E030
:1002300010E00E94CE0080E090E0DF91CF911F910E
:100240000F91FF90EF900895BC015091F62CE8EECD
:10025000F8E220E031C0808191813D9686179707B2
:1002600051F5422F252F30E0215030406DE070E0F5
:1002700019C0869FD001879FB00D969FB00D1124A5
:100280000196869FF001879FF00D969FF00D112437
:10029000AA51B74DEA51F74D8DE001900D92815072
:1002A000E1F74F5F842F90E08217930714F35150CA
:1002B0005093F62C08952F5F251768F20895109239
:1002C000F62C0895BC019091F62CE6EEF8E240E0A1
:1002D0008DE0989F900111242E0F3F1F07C0808151
:1002E00091818617970709F44F5F3D96E217F30750
:1002F000B1F7842F08958091F62C0895A7EFBCE202
:10030000E6E1F5E280EE91E001900D920197E1F7D0
:100310000895CF93DF93E7E0FDE2A6E2B5E2AF01F7
:10032000405F5F4FBD01605F7F4F90818C91981758
:10033000B1F4EA0128813981EB018881998128177C
:10034000390769F4319611964E5F5F4F6E5F7F4FAC
:100350008DE2E731F80749F720E030E002C021E004
:1003600030E0C901DF91CF910895AF92BF92CF9253
:10037000DF92EF92FF920F931F93CF93DF93109230
:10038000F62C82E090E067E174E24FEF0E94710783
:10039000C7E1D4E296E1C92E95E2D92EFE01B096CE
:1003A00080E2E82EF12CEC0CFD1C07E714E266E776
:1003B00075E25601A8958881D5018C93888950965D
:1003C0008C93508140E0818190E0842B952BD70164
:1003D00011969C938E9330A120E081A190E0822B16
:1003E000932B91969C938E939097D8018C91DB01DF
:1003F0008C93D80150968C91DB0150968C9321966A
:100400000894A11CB11C329682E090E0E80EF91E1F
:100410000F5F1F4F6F5F7F4F94E2C732D90751F6CE
:10042000609783E090E0BE014FEF0E9471072B962A
:10043000A1EAB5E2FE01A89580E0A8958F5F8B3018
:10044000E1F780818C933B961B9684E2E23DF807AE
:1004500091F784E090E067E174E24FEF0E9471074A
:10046000E1E5F6E2A89580E0A8958F5F8B30E1F793
:10047000888180832B963B9694E2C23DD90791F701
:10048000A6E5B5E220E030E091E04BE050E0F60177
:1004900080818F3F09F4908311961C921E92249FB5
:1004A000F001259FF00D349FF00D1124EA56FA4D0E
:1004B00080E18083E055FF4F1082EF5AF0408F5F5C
:1004C0008B31B9F72F5F3F4F0894C11CD11C129696
:1004D00020313105E1F6DF91CF911F910F91FF900F
:1004E000EF90DF90CF90BF90AF900895EF92FF9282
:1004F0000F931F93CF93DF93182F82E090E067E173
:1005000074E24FEF0E947107C12FD0E0AE01495E47
:100510005B4D9E012A5E3A4DD9018C91FA01808390
:10052000FE017096BF01695E7B4D50968C91DB0198
:100530008C93EE0FFF1FDF01AA5EBA4D9C911196BE
:100540008C91E95EFB4D80839183A096FE01EE0FB6
:10055000FF1FA097DF01AA5EBA4D9C9111968C9166
:10056000E95EFB4D80839183405A5F4F205A3F4F95
:10057000F9018081DA018C93405F5F4F205F3F4F2C
:10058000F9018081DA018C9382E090E067E174E206
:100590004FEF0E945D0783E090E067E174E24FEF68
:1005A0000E9471078BE090E0C89F7001C99FF00C1A
:1005B000D89FF00C1124D701AA56BA4D8701095EC5
:1005C0001B4DF80190E08D9181939F5F9B30D9F78F
:1005D00083E090E067E174E24FEF0E945D0784E002
:1005E00090E067E174E24FEF0E9471078BE090E0CA
:1005F000C89FF001C99FF00DD89FF00D1124EA5B50
:10060000F94D97012E5D3B4D8191D8018D938D0160
:10061000A217B307C9F784E090E067E174E24FEFF7
:100620000E945D07DF91CF911F910F91FF90EF9096
:100630000895DB01AA5EBA4D4C9350964C935097A7
:10064000FB01EE0FFF1FEA5CFA4D8FEF9FEF9183E6
:100650008083423039F0423018F1842F80528B3041
:10066000F8F40AC0FD01E05AFF4F81E08083FD01EC
:10067000E059FF4F108214C0242F20518BE090E0EE
:10068000689FF001699FF00D789FF00D1124EA5EDC
:10069000FA4DE40FF11DE05AFF4F208350962C9342
:1006A000862F0E94760208950F931F93CF93DF93B6
:1006B000C6E1D5E227E134E2DE0190968901005ED1
:1006C0001F4F66E775E247E754E2A8958881F90174
:1006D00080838889808B9C9111968C911197F80169
:1006E0008083918390969C91909791968C9191970D
:1006F00080A391A3FB018081FA018083FB018089A3
:10070000FA01808B21962F5F3F4F12960E5F1F4F8D
:100710006F5F7F4F4F5F5F4FF5E2C632DF07A9F68D
:1007200082E090E067E174E24FEF0E945D0720E015
:1007300030E040E050E06BE070E0A895269FF001CB
:10074000279FF00D369FF00D1124EA56FA4DDA017D
:10075000A95EBB4D90E081918D939F5F9B30D9F74F
:100760002F5F3F4F455F5F4F2031310531F783E009
:1007700090E067E174E24FEF0E945D0720E030E017
:1007800040E050E06BE070E0A895269FF001279FC5
:10079000F00D369FF00D1124EA5BF94DDA01A95EE8
:1007A000BB4D90E081918D939F5F9B30D9F72F5F78
:1007B0003F4F455F5F4F2031310531F784E090E0D6
:1007C00067E174E24FEF0E945D07DF91CF911F91C7
:1007D0000F91089520910E2330910F232F5F3F4FEB
:1007E00030930F2320930E2321503040C9010895E8
:1007F000109297340895EF92FF920F93CF93DF9367
:10080000EC01790180910E2390910F230196909332
:100810000F2380930E23019720E8288321E1298369
:100820009A838B837C836D835E834F8340E050E0AB
:10083000602F70E00AC0FE01E80FF11DD701A40F80
:10084000B51F8C9180834F5F5F4F842F885F461761
:1008500057078CF3802F885FDF91CF910F91FF9026
:10086000EF900895843131F1853170F48131D1F008
:10087000823128F48823C1F0803141F515C08231DE
:10088000A9F0833119F514C08731D1F0883128F4EB
:10089000853191F08631D1F411C0883199F08931D8
:1008A000A9F412C080E2089580E0089584E30895D9
:1008B0008DE4089587E6089580E808958AE908950B
:1008C00083EB08958DEC089586EE08958EEF0895DC
:1008D0008F929F92AF92BF92CF92DF92EF92FF9250
:1008E0000F931F93DF93CF93CDB7DEB72A970FB641
:1008F000F894DEBF0FBECDBF4C01009709F45EC077
:1009000082E38983F40181818A8380818B83A6803D
:10091000B780F50180810E9432048C83F401C08489
:10092000D184F60180810E9432048D83F401E28437
:10093000F384F70180810E9432048E83F4010485E0
:100940001585F80180810E9432048F83F501808132
:10095000F4018283F6018081F4018383F7018081B1
:10096000F4018483F8018081F401858360817181C1
:100970004091B63D5091B73D8EE994E39E012F5FC3
:100980003F4F07E00E94FB03082FF4018081918113
:100990000E949C00FC01009789F06385748582E0C9
:1009A0004EE954E3202F0E940738F40160817181E1
:1009B00084E04EE954E3202F0E94B72F2A960FB609
:1009C000F894DEBF0FBECDBFCF91DF911F910F9185
:1009D000FF90EF90DF90CF90BF90AF909F908F905F
:1009E00008950F931F931092973400E036C0802F24
:1009F0000E94B908DC01009779F110919734EFE774
:100A0000F3E320E030E022C0A901808191812F5FD3
:100A10003F4F3E9686179707C9F412968C9112970E
:100A2000FA0173E0EE0FFF1F7A95E1F7E41BF50B77
:100A3000E80FF11DEE0FFF1FEB57FC4C13968C9146
:100A400090E08A5D9A4D9183808306C06D917C9180
:100A500011972117C8F206C00F5F0E94AB08081754
:100A600030F235C0212F30E0C901880F991FFC01F9
:100A700043E0EE0FFF1F4A95E1F7E81BF90BE15841
:100A8000FC4C718360831782168211861086138650
:100A900012861586148612968C911297F90193E0AE
:100AA000EE0FFF1F9A95E1F7E21BF30BE80FF11D24
:100AB000EE0FFF1FEB57FC4C13968C9190E08A5D74
:100AC0009A4D918380831F5F10939734C5CF1F91F8
:100AD0000F9108958AB183648AB95798589A0895F6
:100AE0008AE1982F9A95F1F7599A8A95F1F75998D2
:100AF00008950F931F93CF93DF93C7E0D0E0082FA3
:100B000010E0C8010C2E02C0959587950A94E2F773
:100B100080FF02C05E9A01C05E980E947005219716
:100B20008FEFCF3FD80769F7DF91CF911F910F91DA
:100B30000895EF92FF921F93CF93DF93C7E0D0E029
:100B400010E081E0E82EF12C4F9B08C0C7010C2E6D
:100B500002C0880F991F0A94E2F7182B0E947005B3
:100B600021978FEFCF3FD80779F7812FDF91CF9172
:100B70001F91FF90EF900895DF92EF92FF920F93F5
:100B80001F93CF93DF938C01D62EF42EE52E589829
:100B900080EA9FE00197F1F784E80E94790580E000
:100BA0000E947905812F0E947905802F0E94790586
:100BB0002F2D3E2DC901EC0110E004C089910E9447
:100BC00079051F5F1D15D0F380EA9FE00197F1F7CB
:100BD000589ADF91CF911F910F91FF90EF90DF9086
:100BE0000895EF92FF920F931F938C01589830EA6B
:100BF000E32E3FE0F32EC7010197F1F783E80E944F
:100C00007905C801880F892F881F990B91950E943B
:100C10007905802F880F0E94790580E00E94790570
:100C2000C7010197F1F7589A1F910F91FF90EF902C
:100C300008950F931F93DF93CF930F92CDB7DEB735
:100C40008C01698380E090E061E0AE014F5F5F4F0F
:100C50000E94BC05C8010E94F10580E49CE901974F
:100C6000F1F70F90CF91DF911F910F9108950F939E
:100C70001F938C0158980E94700584ED0E9479059D
:100C800080E00E947905812F0E947905802F0E94C3
:100C9000790580E00E9479050E949905589A1F9174
:100CA0000F9108950F931F938C01589880EA9FE04D
:100CB0000197F1F782ED0E947905C801880F892F0D
:100CC000881F990B91950E947905802F880F0E94AB
:100CD000790580E00E94790500E080E00E947905B6
:100CE0000F5F0430D1F70E949905E0EAFFE03197E9
:100CF000F1F7589A1F910F9108950F931F93DF9367
:100D0000CF930F920F92CDB7DEB78C017A836983B0
:100D100080E090E062E0AE014F5F5F4F0E94BC0553
:100D2000C8010E94F10580E49CE90197F1F70F905A
:100D30000F90CF91DF911F910F9108950F931F9303
:100D40008C01589880EA9FE00197F1F782ED0E94AC
:100D50007905C801880F892F881F990B91950E94EA
:100D60007905802F880F0E94790580E00E9479051F
:100D700000E080E00E9479050F5F0430D1F70E9407
:100D80009905082F10E00E949905E0EAFFE03197ED
:100D9000F1F7589A382F20E0202B312BC9011F91F1
:100DA0000F9108950F931F93DF93CF9300D00F926D
:100DB000CDB7DEB78C0149835A836B837C8380E097
:100DC00090E064E0AE014F5F5F4F0E94BC05C80138
:100DD0000E94F10580E49CE90197F1F70F900F90D4
:100DE0000F900F90CF91DF911F910F9108959F92D7
:100DF000AF92BF92CF92DF92EF92FF920F931F9329
:100E00008C01589880EA9FE00197F1F782ED0E94EB
:100E10007905C801880F892F881F990B91950E9429
:100E20007905802F880F0E94790580E00E9479055E
:100E300000E080E00E9479050F5F0430D1F70E9446
:100E40009905A82EBB24CC24DD240E949905982E58
:100E50000E949905E82E0E949905FF2400E010E009
:100E60008701FF24EE2490E0A0E0B0E0B82FAA278D
:100E700099278827E82AF92A0A2B1B2BEA28FB281E
:100E80000C291D2980EA9FE00197F1F7589A992DC6
:100E900080E0AA2797FDA095BA2FE82AF92A0A2B05
:100EA0001B2BB701C8011F910F91FF90EF90DF90AE
:100EB000CF90BF90AF909F9008950F931F938C0198
:100EC0009B0180E090E0642FA9010E94BC05C8014D
:100ED0000E94F10580E49CE90197F1F71F910F91C1
:100EE0000895DF92EF92FF920F931F93CF93DF93BA
:100EF0008C01F62EE72ED42E589880EA9FE00197B9
:100F0000F1F782ED0E947905C801880F892F881FAB
:100F1000990B91950E947905802F880F0E94790581
:100F200080E00E94790500E080E00E9479050F5F73
:100F30000430D1F78F2D9E2D9C01E90100E004C003
:100F40000E94990589930F5F0D15D0F380EA9FE009
:100F50000197F1F7589A8D2DDF91CF911F910F9145
:100F6000FF90EF90DF9008950F931F93589800EA39
:100F70001FE0C8010197F1F787ED0E9479050E94F3
:100F80009905F8013197F1F7589A1F910F9108953B
:100F900080910022089520E080910022909101220A
:100FA0008F5F9F4F09F421E0822F08958FEF9FEF0D
:100FB00090930122809300220895EF92FF920F9365
:100FC000DF93CF93CDB7DEB72A970FB6F894DEBF85
:100FD0000FBECDBFBC0186E089837A836B838BEB28
:100FE000E82E8DE3F82EC70140E050E09E012F5F10
:100FF0003F4F03E00E94540C682FC7010E94F33456
:1010000080E02A960FB6F894DEBF0FBECDBFCF9119
:10101000DF910F91FF90EF9008950F931F938C0134
:101020000E94DD0710930122009300221F910F916F
:101030000895E6ECF4E320E030E08081813011F4A3
:101040002F5F3F4F39968DE3ED3BF807B1F7C901AC
:101050000895BC01E6ECF4E320E030E040E050E02D
:101060008081813081F42617370759F49A0183E093
:10107000220F331F8A95E1F7240F351F22543B4C72
:101080000AC02F5F3F4F4F5F5F4F39964F3F51056B
:1010900039F720E030E0C9010895CF92DF92EF9256
:1010A000FF920F931F93CF93DF93EC016B01142FEB
:1010B000F22E0E9419088F3F910540F5E6ECF4E30B
:1010C00020E030E080818130C1F0F90193E0EE0F43
:1010D000FF1F9A95E1F7E20FF31FE254FB4CD18317
:1010E000C083D382C2821483F5820683E78281E0C3
:1010F00080872F3F310541F409C02F5F3F4F39965C
:101100002F3F3105F9F602C09F0102C020E030E018
:10111000C901DF91CF911F910F91FF90EF90DF9068
:10112000CF900895E0ECF4E320E030E080819181FD
:101130006817790731F48281481719F48681813064
:1011400041F02F5F3F4F39962F3F310579F72FEF51
:101150003FEFC9010895EBEBF2E390E0808181302D
:1011600009F49F5F359683E3E338F807B9F7892FD1
:101170000895382FEBEBF2E320E090E0808181309E
:1011800051F4231739F485E0989F900111242954D4
:101190003D4C07C02F5F9F5F3596983279F720E06E
:1011A00030E0C90108950F931F93CF93DF93EC01B3
:1011B000162F042F0E94AB08883218F5EBEBF2E3F0
:1011C00020E030E08081813099F0F901EE0FFF1FBF
:1011D000EE0FFF1FE20FF31FE954FD4CD183C083D4
:1011E0001283038381E084832832310541F409C0EE
:1011F0002F5F3F4F35962832310521F702C09F01FE
:1012000002C020E030E0C901DF91CF911F910F9122
:101210000895DC01E7EBF2E320E030E0808191818A
:10122000A817B90731F48281681719F48381481728
:1012300041F02F5F3F4F35962832310579F72FEF78
:101240003FEFC9010895AC01E7EBF2E320E030E0A5
:10125000808191814817590731F48281681719F408
:101260008481813041F02F5F3F4F35962832310520
:1012700079F72FEF3FEFC90108950F931F93CF9395
:10128000DF9300E010E0A895F801EE0FFF1FEE0FCE
:10129000FF1FE00FF11FE954FD4CCBEFDDE382812E
:1012A000888383818983908181818A839B838481E0
:1012B0008C83359625968EE3C431D80781F7C80113
:1012C00065E070E00E941649CB0169974496BE0123
:1012D0004FEF0E945D070B5F1F4F0832110599F613
:1012E000DF91CF911F910F910895CF93DF93C0E0CD
:1012F000D0E0A895FE0163E0EE0FFF1F6A95E1F7CD
:10130000EC0FFD1FE254FB4CABEFBDE384818C93EB
:10131000808511968C9311979081818112968C9380
:10132000129713969C931397878114968C93149716
:10133000868115968C931597858116968C931697B2
:101340009281838117968C93179718969C93189780
:10135000399619968EE3A73FB807C1F6CE016CE126
:1013600070E00E941649CB010A966BEF7DE34FEFC8
:101370000E945D076C9681E0C831D80709F0B9CFAB
:10138000DF91CF910895DF92EF92FF920F931F9319
:101390008C0165E070E00E941649D62E84E1D80EDB
:1013A000FBEFEF2EFDE3FF2E8D2D90E0B7014FEF09
:1013B0000E947107C80165E070E00E9416499C0117
:1013C000220F331F220F331F820FD701A80FB11D29
:1013D000F801EE0FFF1FEE0FFF1FE00FF11FE954A2
:1013E000FD4C82818C93838111968C93119790810F
:1013F000818112968C93129713969C9313978481F4
:1014000014968C938D2D90E0B7014FEF0E945D07ED
:101410001F910F91FF90EF90DF9008950F931F930E
:10142000CF93DF93EC01162F042F0E9423098F5FC7
:101430009F4F19F020E030E016C0CE01612F402F01
:101440000E94D308892B19F422E030E00CC0CE01B1
:10145000612F0E9423092FEF8F3F920711F00E9406
:10146000C30921E030E0C901DF91CF911F910F91B5
:1014700008950F931F93CF93DF93C0E0D0E0A8951A
:10148000CE0165E070E00E941649CB0144966BEFF7
:101490007DE34FEF0E947107ABEFBDE3FE01EE0F5E
:1014A000FF1FEE0FFF1FEC0FFD1FE954FD4C8C9149
:1014B000828311968C911197838312961C911297B7
:1014C00000E013968C91139790E0802B912B9183E1
:1014D000808314968C9114978483159635968EE3A9
:1014E000A431B80721F72596C832D10541F6DF911E
:1014F000CF911F910F910895DF92EF92FF920F937A
:101500001F938C016CE170E00E941649D62E8AE090
:10151000D80E2BEFE22E2DE3F22E8D2D90E0B701A9
:101520004FEF0E947107C8016CE170E00E941649FC
:101530009C0193E0220F331F9A95E1F7820FD701A8
:10154000A80FB11DF80183E0EE0FFF1F8A95E1F7A8
:10155000E00FF11FE254FB4C84818C93808511963F
:101560008C9311979081818112968C931297139688
:101570009C931397878114968C9314978681159664
:101580008C931597858116968C93169792818381FB
:1015900017968C93179718969C938D2D90E0B70112
:1015A0004FEF0E945D071F910F91FF90EF90DF902A
:1015B0000895AF92BF92CF92DF92EF92FF920F9376
:1015C0001F93CF93DF936C015B01142FF22E0E94C7
:1015D00092082FEF8F3F920781F0FC0133E0EE0F6E
:1015E000FF1F3A95E1F7E80FF91FE254FB4CF58233
:1015F0000683E782C2E0D0E00DC0C601B501412FED
:101600002F2D0E944D08892B19F4C0E0D0E00DC0A9
:10161000C1E0D0E0C601B501412F0E9492082FEF32
:101620008F3F920711F00E947C0ACE01DF91CF918B
:101630001F910F91FF90EF90DF90CF90BF90AF90F0
:101640000895CF92DF92EF92FF920F931F93CF9363
:10165000DF93C82ED62EE42EF22EC2ECD4E300E0A7
:1016600010E08881C81651F48C81813039F4D98218
:10167000EA82FB82C8010E947C0AA8950F5F1F4F77
:1016800029960F3F110569F780E090E0DF91CF9137
:101690001F910F91FF90EF90DF90CF900895EF9200
:1016A000FF920F931F93CF93DF9300E010E0A89574
:1016B000C8016CE170E00E941649CB010A966BEFFD
:1016C0007DE34FEF0E947107ABEFBDE3F80143E00C
:1016D000EE0FFF1F4A95E1F7E00FF11FE254FB4CBC
:1016E0008C91848311968C91119780871296FC902F
:1016F0001297EE2413968C91139790E08E299F29D0
:101700009183808314968C911497878315968C917E
:101710001597868316968C91169785831796DC917C
:101720001797C0E018968C91189790E08C2B9D2B02
:1017300093838283199639968EE3A73FB80781F683
:10174000045E1F4F81E00831180709F0B0CFDF9128
:10175000CF911F910F91FF90EF9008950F931F93DA
:10176000F801928581858093EC6F9093EB6F1F91C8
:101770000F91089580911023089580911123811174
:1017800081E0089581E08093112308951092112340
:101790000895CF93DF939C01CEEBD4E38A819B81A4
:1017A0008617970709F041C08881998182179307AE
:1017B000E1F588858130C9F58C81A82FB0E0FD0165
:1017C000EA5EFA4D80818250823078F5FD01EE0F9D
:1017D000FF1FEA5CFA4D0190F081E02D8D8190E0D1
:1017E000E817F90718F0EF5FFF4FC9F4FD01EE0F9E
:1017F000FF1FEA5AFA4D11821082FD01EE0FFF1F02
:10180000EA5CFA4D91838083FD01EA5EFA4DE0596E
:10181000FF4F8F81808370978E81808306C0AA0FCF
:10182000BB1FAA5ABA4D1D921C9229968DE3C53B47
:10183000D80709F0B3CFDF91CF9108950F931F938D
:10184000F801918580E0428550E0748560E025854F
:1018500030E0622B732B842B952B0E94C90B1F91B8
:101860000F9108950F931F93F801938580E04485AD
:1018700050E0758560E0268530E0622B732B842B69
:10188000952B0E94C90B1F910F910895209112234F
:10189000309113232F5F3F4F309313232093122354
:1018A00021503040C9010895EF92FF920F93CF93DA
:1018B000DF93EC017901809112239091132301961B
:1018C0009093132380931223019720E8288321E02B
:1018D00029839A838B837C836D835E834F8340E06F
:1018E00050E0602F70E00AC0FE01E80FF11DD70143
:1018F000A40FB51F8C9180834F5F5F4F842F885F4B
:10190000461757078CF3802F885FDF91CF910F9197
:10191000FF90EF900895EF92FF920F93CF93DF9394
:10192000EC0180E8888381E08983FA82EB827C8302
:101930006D835E834F8340E050E0602F70E00AC00B
:10194000FE01E80FF11DD901A40FB51F8C91808312
:101950004F5F5F4F842F885F461757078CF3802FA8
:10196000885FDF91CF910F91FF90EF900895EF92F4
:10197000FF920F93CF93DF93EC01790180911223B3
:101980009091132301969093132380931223019730
:1019900020E8288321E229839A838B837C836D83CB
:1019A0005E834F8340E050E0602F70E00AC0FE018C
:1019B000E80FF11DD701A40FB51F8C9180834F5FF5
:1019C0005F4F842F885F461757078CF3802F885FFF
:1019D000DF91CF910F91FF90EF900895EF92FF92DA
:1019E0000F93CF93DF93EC0180E8888381E28983B2
:1019F000FA82EB827C836D835E834F8340E050E00C
:101A0000602F70E00AC0FE01E80FF11DD901A40F9C
:101A1000B51F8C9180834F5F5F4F842F885F46177F
:101A200057078CF3802F885FDF91CF910F91FF9044
:101A3000EF900895809102220895809302220895E4
:101A40005F926F927F928F929F92AF92BF92CF924E
:101A5000DF92EF92FF920F931F93DF93CF93CDB757
:101A6000DEB7A8970FB6F894DEBF0FBECDBF582ED5
:101A70003B014A01F701D50184E989833A832B832D
:101A80001C830D8380818E8381818F83D886C98654
:101A90008C918A8711968C918B8792E1C92E9FE356
:101AA000D92E4091B63D5091B73DC60160E070E03F
:101AB0009E012F5F3F4F0BE074010E94EE0C282F18
:101AC000852DB301A6010E94B72FA8960FB6F894F2
:101AD000DEBF0FBECDBFCF91DF911F910F91FF9061
:101AE000EF90DF90CF90BF90AF909F908F907F90BE
:101AF0006F905F900895AF92BF92CF92DF92EF9276
:101B0000FF920F931F937B01F801318520E06285DE
:101B100070E0262B372BEAEFFEE30091FA3E10919E
:101B2000FB3EC090FE3ED090FF3EDF011696BA010C
:101B3000A70132967F015D010E94200D1F910F9138
:101B4000FF90EF90DF90CF90BF90AF900895BF923D
:101B5000CF92DF92EF92FF920F931F93DF93CF9379
:101B6000CDB7DEB72A970FB6F894DEBF0FBECDBF54
:101B7000B82E6B0180E789835A834B832C831D83A6
:101B80000E8322E1E22E2FE3F22E4091B63D5091DA
:101B9000B73DC70160E070E09E012F5F3F4F06E058
:101BA0000E94B70C282F8B2DB601A7010E94B72FDA
:101BB0002A960FB6F894DEBF0FBECDBFCF91DF914E
:101BC0001F910F91FF90EF90DF90CF90BF900895FD
:101BD000AF92BF92CF92DF92EF92FF920F931F933B
:101BE000DF93CF93CDB7DEB72A970FB6F894DEBF59
:101BF0000FBECDBF182F5B017A018BE689833A8334
:101C00002B830C8332E1C32E3FE3D32E4091B63DAC
:101C10005091B73DC60160E070E09E012F5F3F4FDD
:101C200004E00E94EE0C282F812FB501A6010E942E
:101C3000B72F2A960FB6F894DEBF0FBECDBFCF9157
:101C4000DF911F910F91FF90EF90DF90CF90BF90A9
:101C5000AF900895AF92BF92CF92DF92EF92FF9232
:101C60000F931F93DF93CF93CDB7DEB72A970FB6AD
:101C7000F894DEBF0FBECDBF182F5B017A0189E655
:101C800089833A832B830C8342E1C42E4FE3D42E05
:101C90004091B63D5091B73DC60160E070E09E01B5
:101CA0002F5F3F4F04E00E94EE0C282F812FB501DB
:101CB000A6010E94B72F2A960FB6F894DEBF0FBE7A
:101CC000CDBFCF91DF911F910F91FF90EF90DF90EB
:101CD000CF90BF90AF900895AF92BF92CF92DF9216
:101CE000EF92FF920F931F93DF93CF93CDB7DEB7A1
:101CF0002A970FB6F894DEBF0FBECDBF182F5B0139
:101D00007A018FE689833A832B830C8352E1C52EB7
:101D10005FE3D52E4091B63D5091B73DC60160E0DE
:101D200070E09E012F5F3F4F04E00E94EE0C282FD1
:101D3000812FB501A6010E94B72F2A960FB6F894FD
:101D4000DEBF0FBECDBFCF91DF911F910F91FF90EE
:101D5000EF90DF90CF90BF90AF900895FF920F93D8
:101D60001F93F82EDB01F8016185828523852223EC
:101D700011F02093EC23362F20E090E0282B392B14
:101D80008F2DBA01AD010091EC230E946C0E1F91C2
:101D90000F91FF900895AF92BF92CF92DF92EF9292
:101DA000FF920F931F93DF93CF93CDB7DEB72A97A0
:101DB0000FB6F894DEBF0FBECDBF182F5B017A01BE
:101DC0008DE689833A832B830C8362E1C62E6FE311
:101DD000D62E4091B63D5091B73DC60160E070E00F
:101DE0009E012F5F3F4F04E00E94EE0C282F812FB1
:101DF000B501A6010E94B72F2A960FB6F894DEBF50
:101E00000FBECDBFCF91DF911F910F91FF90EF904B
:101E1000DF90CF90BF90AF900895AF92BF92CF92D6
:101E2000DF92EF92FF920F931F93DF93CF93CDB783
:101E3000DEB72A970FB6F894DEBF0FBECDBF182FBE
:101E40005B017A0187E689833A832B830C8372E1F5
:101E5000C72E7FE3D72E4091B63D5091B73DC601C6
:101E600060E070E09E012F5F3F4F04E00E94EE0CA7
:101E7000282F812FB501A6010E94B72F2A960FB6F1
:101E8000F894DEBF0FBECDBFCF91DF911F910F91B0
:101E9000FF90EF90DF90CF90BF90AF900895AF92FA
:101EA000BF92CF92DF92EF92FF920F931F93DF9337
:101EB000CF93CDB7DEB72A970FB6F894DEBF0FBE2B
:101EC000CDBF182F5B017A0185E689833A832B8386
:101ED0000C83E2E1CE2EEFE3DE2E4091B63D509131
:101EE000B73DC60160E070E09E012F5F3F4F04E008
:101EF0000E94EE0C282F812FB501A6010E94B72F5A
:101F00002A960FB6F894DEBF0FBECDBFCF91DF91FA
:101F10001F910F91FF90EF90DF90CF90BF90AF9007
:101F20000895AF92BF92CF92DF92EF92FF920F93FC
:101F30001F93DF93CF93CDB7DEB72A970FB6F894F0
:101F4000DEBF0FBECDBF182F5B017A0183E6898308
:101F50003A832B830C83F2E1CF2EFFE3DF2E4091F7
:101F6000B63D5091B73DC60160E070E09E012F5F25
:101F70003F4F04E00E94EE0C282F812FB501A601EF
:101F80000E94B72F2A960FB6F894DEBF0FBECDBFC2
:101F9000CF91DF911F910F91FF90EF90DF90CF9045
:101FA000BF90AF900895AF92BF92CF92DF92EF9221
:101FB000FF920F931F93DF93CF93CDB7DEB72A978E
:101FC0000FB6F894DEBF0FBECDBF182F5B017A01AC
:101FD00081E689833A832B830C83A2E1CA2EAFE387
:101FE000DA2E4091B63D5091B73DC60160E070E0F9
:101FF0009E012F5F3F4F04E00E94EE0C282F812F9F
:10200000B501A6010E94B72F2A960FB6F894DEBF3D
:102010000FBECDBFCF91DF911F910F91FF90EF9039
:10202000DF90CF90BF90AF900895AF92BF92CF92C4
:10203000DF92EF92FF920F931F93DF93CF93CDB771
:10204000DEB72A970FB6F894DEBF0FBECDBF182FAC
:102050005B017A018FE589833A832B830C83B2E19C
:10206000CB2EBFE3DB2E4091B63D5091B73DC6016C
:1020700060E070E09E012F5F3F4F04E00E94EE0C95
:10208000282F812FB501A6010E94B72F2A960FB6DF
:10209000F894DEBF0FBECDBFCF91DF911F910F919E
:1020A000FF90EF90DF90CF90BF90AF900895AF92E8
:1020B000BF92CF92DF92EF92FF920F931F93DF9325
:1020C000CF93CDB7DEB72A970FB6F894DEBF0FBE19
:1020D000CDBF182F5B017A018DE589833A832B836D
:1020E0000C8302E1C02E0FE3D02E4091B63D5091FB
:1020F000B73DC60160E070E09E012F5F3F4F04E0F6
:102100000E94EE0C282F812FB501A6010E94B72F47
:102110002A960FB6F894DEBF0FBECDBFCF91DF91E8
:102120001F910F91FF90EF90DF90CF90BF90AF90F5
:102130000895AF92BF92CF92DF92EF92FF920F93EA
:102140001F93DF93CF93CDB7DEB764970FB6F894A4
:10215000DEBF0FBECDBF182F5B016A01002319F44B
:1021600066EF76E20AC0013019F467ED7EE205C041
:10217000023009F05CC067EC70E3FB01E052FE4FF7
:10218000DF0140E090E08D91480F9F5F9031D9F7DB
:10219000E41608F04CC040E090E08081480FE4165F
:1021A00020F45E2D5095540F06C09F5F31969031FC
:1021B000A1F790E050E08BE589833A832B830C8371
:1021C0009D83892F90E0FC0124E0EE0FFF1F2A95EC
:1021D000E1F7E81BF90BE50FF11DEE0FFF1FE60F0E
:1021E000F71F2081822F66E00E940A498E83822F8A
:1021F0000E940A498AE0989FC00111248F8381813F
:1022000088874091B63D5091B73D82E19FE360E001
:1022100070E09E012F5F3F4F08E076010E94EE0CB8
:10222000282F812FB50142E15FE30E94B72F64960A
:102230000FB6F894DEBF0FBECDBFCF91DF911F91D7
:102240000F91FF90EF90DF90CF90BF90AF900895E7
:10225000EF920F931F93DB01F801318520E0628537
:1022600070E0262B372BBA01AD010385E4840E9470
:1022700099101F910F91EF900895AF92BF92CF9256
:10228000DF92EF92FF920F931F93DF93CF93CDB71F
:10229000DEB72A970FB6F894DEBF0FBECDBF182F5A
:1022A0005B01FA0185E589833A832B830C83ED82F8
:1022B00032E1C32E3FE3D32E4091B63D5091B73D5E
:1022C000C60160E070E09E012F5F3F4F05E07F0197
:1022D0000E94EE0C282F812FB501A6010E94B72F76
:1022E0002A960FB6F894DEBF0FBECDBFCF91DF9117
:1022F0001F910F91FF90EF90DF90CF90BF90AF9024
:102300000895EF920F931F93CF93DF93B82FEB01B4
:10231000F801618592850385002351F4E6EDF8E22A
:10232000A0E08191A80F88E2E63EF807D1F719C036
:10233000013051F4E7EBF0E3A0E08191A80F80E3D6
:10234000E73CF807D1F70DC0023011F0A0E009C05A
:10235000E7EAF2E3A0E08191A80F82E3E73BF80708
:10236000D1F7362F20E0892F90E0282B392B8B2FA7
:10237000BA01AE01EA2E0E943D11DF91CF911F916B
:102380000F91EF900895AF92BF92CF92DF92EF92AC
:10239000FF920F931F93DF93CF93CDB7DEB72A97AA
:1023A0000FB6F894DEBF0FBECDBF182F5B017A01C8
:1023B00083E589833A832B830C8342E1C42E4FE368
:1023C000D42E4091B63D5091B73DC60160E070E01B
:1023D0009E012F5F3F4F04E00E94EE0C282F812FBB
:1023E000B501A6010E94B72F2A960FB6F894DEBF5A
:1023F0000FBECDBFCF91DF911F910F91FF90EF9056
:10240000DF90CF90BF90AF900895AF92BF92CF92E0
:10241000DF92EF92FF920F931F93DF93CF93CDB78D
:10242000DEB72A970FB6F894DEBF0FBECDBF182FC8
:102430005B017A0181E589833A832B830C8352E126
:10244000C52E5FE3D52E4091B63D5091B73DC601F4
:1024500060E070E09E012F5F3F4F04E00E94EE0CB1
:10246000282F812FB501A6010E94B72F2A960FB6FB
:10247000F894DEBF0FBECDBFCF91DF911F910F91BA
:10248000FF90EF90DF90CF90BF90AF9008959F9214
:10249000AF92BF92CF92DF92EF92FF920F931F9372
:1024A000DF93CF93CDB7DEB72A970FB6F894DEBF90
:1024B0000FBECDBF982E5B01FA0181E489833A8378
:1024C0002B831C821D821E82812F9927AA27BB275E
:1024D0008F83C801AA27BB278887BB27A12F902FEE
:1024E0008F2D8987EA8662E1C62E6FE3D62E409152
:1024F000B63D5091B73DC60160E070E09E012F5F90
:102500003F4F0AE07F010E94EE0C282F892DB50174
:10251000A6010E94B72F2A960FB6F894DEBF0FBE11
:10252000CDBFCF91DF911F910F91FF90EF90DF9082
:10253000CF90BF90AF909F900895AF92BF92CF92EF
:10254000DF92EF92FF920F931F93DF93CF93CDB75C
:10255000DEB72A970FB6F894DEBF0FBECDBF182F97
:102560005B017A0183E389833A832B830C8302E145
:10257000C02E0FE3D02E4091B63D5091B73DC6011D
:1025800060E070E09E012F5F3F4F04E00E94EE0C80
:10259000282F812FB501A6010E94B72F2A960FB6CA
:1025A000F894DEBF0FBECDBFCF91DF911F910F9189
:1025B000FF90EF90DF90CF90BF90AF900895AF92D3
:1025C000BF92CF92DF92EF92FF920F931F93DF9310
:1025D000CF93CDB7DEB72A970FB6F894DEBF0FBE04
:1025E000CDBF182F5B017A0181E389833A832B8366
:1025F0000C8382E1C82E8FE3D82E4091B63D5091D6
:10260000B73DC60160E070E09E012F5F3F4F04E0E0
:102610000E94EE0C282F812FB501A6010E94B72F32
:102620002A960FB6F894DEBF0FBECDBFCF91DF91D3
:102630001F910F91FF90EF90DF90CF90BF90AF90E0
:102640000895BF92CF92DF92EF92FF920F931F9364
:10265000DF93CF93CDB7DEB7EC970FB6F894DEBF1C
:102660000FBECDBFB82E6B017A0185E289833A8314
:102670002B831C830D8380E28E8380E18F83E6E2CF
:10268000F5E2DE01189681918D9385E2E633F80735
:10269000D1F7B097DE01589681918D9385E2E632AD
:1026A000F807D1F79091B83D8091B93D88A799A7D7
:1026B0004091B63D5091B73D82E19FE3B8019E0144
:1026C0002F5F3F4F09E20E94EE0C282F8B2DB601A1
:1026D00042E15FE30E94B72FEC960FB6F894DEBF9D
:1026E0000FBECDBFCF91DF911F910F91FF90EF9063
:1026F000DF90CF90BF900895CF92DF92EF92FF923C
:102700000F931F93DF93CF93CDB7DEB72A970FB602
:10271000F894DEBF0FBECDBF182F6B017A01609118
:10272000F62C601720F4083C09F050C02AC0083C81
:1027300041F1A6EEB8E2E0E0F0E030E020E0402F2A
:1027400050E010C08D919C9111978059904209F0F2
:102750002F5FFD011D96822F90E00197841795074A
:1027600019F03F5F361770F34091B63D5091B73D79
:10277000228133816081718195816115710531F10B
:1027800007C060E170E295E140E050E020E030E019
:1027900083E289835A834B833C832D837E836F83BB
:1027A00098874091B63D5091B73D82E19FE360E04C
:1027B00070E09E012F5F3F4F08E00E94EE0C282F33
:1027C000812FB60142E15FE30E94B72F2A960FB630
:1027D000F894DEBF0FBECDBFCF91DF911F910F9157
:1027E000FF90EF90DF90CF9008950F931F93DB0140
:1027F000F801318520E0628570E0262B372BBA0185
:10280000AD0103850E947C131F910F910895AF9233
:10281000BF92CF92DF92EF92FF920F931F93DF93BD
:10282000CF93CDB7DEB72A970FB6F894DEBF0FBEB1
:10283000CDBF182F5B017A0181E289833A832B8314
:102840000C8392E1C92E9FE3D92E4091B63D509161
:10285000B73DC60160E070E09E012F5F3F4F04E08E
:102860000E94EE0C282F812FB501A6010E94B72FE0
:102870002A960FB6F894DEBF0FBECDBFCF91DF9181
:102880001F910F91FF90EF90DF90CF90BF90AF908E
:102890000895FF920F931F93F82EDB01F8016185D5
:1028A00072859091F62CE6EEF8E200E08DE0989FBC
:1028B000900111242E0F3F1F07C080819181805904
:1028C000904209F00F5F3D96E217F307B1F7362FFC
:1028D00020E0872F90E0282B392B8F2DBA01AD01F6
:1028E0000E9407141F910F91FF900895DF92EF92BD
:1028F000FF920F931F93D82EAB01F801A185B285EB
:10290000938580E02485622F70E0682B792B611518
:10291000710531F083E0A8012E2D0E94B72F13C05E
:10292000E090ED23F090EE230091EF231091F0233F
:102930003A2F20E08B2F90E0282B392B8D2D60E053
:1029400070E00E9447121F910F91FF90EF90DF906F
:102950000895EF920F931F93CF93DF93E8019B8528
:1029600080E02C85022F10E0082B192B0115110592
:1029700009F4FFCF83E0B801AE012E2D0E94B72FDE
:1029800084E0B801AE012E2D0E94B72FDF91CF91C8
:102990001F910F91EF900895EF920F931F93CF9394
:1029A000DF93A82FFB01E80169857A859B8580E08C
:1029B0002C85022F10E0082B192B0115110571F43D
:1029C000362F20E0872F90E0282B392B8A2FBA0151
:1029D000AF0100E010E00E9421130CC083E0B801B9
:1029E000AE012E2D0E94B72F84E0B801AE012E2D2E
:1029F0000E94B72FDF91CF911F910F91EF90089513
:102A0000CF92DF92EF92FF920F931F93DF93CF93BA
:102A1000CDB7DEB72A970FB6F894DEBF0FBECDBF95
:102A2000182F6B0187E089834091B63D5091B73DE7
:102A30005A834B8322E1E22E2FE3F22EC70160E09E
:102A400070E09E012F5F3F4F03E00E94540C282F3F
:102A5000812FB601A7010E94B72F2A960FB6F894CE
:102A6000DEBF0FBECDBFCF91DF911F910F91FF90C1
:102A7000EF90DF90CF900895AF92BF92CF92DF9208
:102A8000EF92FF920F931F93DF93CF93CDB7DEB7F3
:102A90002A970FB6F894DEBF0FBECDBF182F5B018B
:102AA000FA0182E18983FA82EB821C828EE18D83B6
:102AB00032E1C32E3FE3D32E4091B63D5091B73D56
:102AC000C6019E012F5F3F4F05E07F010E948B0CE6
:102AD000282F812FB501A6010E94B72F2A960FB685
:102AE000F894DEBF0FBECDBFCF91DF911F910F9144
:102AF000FF90EF90DF90CF90BF90AF900895AF928E
:102B0000BF92CF92DF92EF92FF920F931F93DF93CA
:102B1000CF93CDB7DEB72A970FB6F894DEBF0FBEBE
:102B2000CDBF182F5B01FA0182E0898381E28A839D
:102B3000EB821C82CD8242E1C42E4FE3D42E409121
:102B4000B63D5091B73DC601B9019E012F5F3F4F81
:102B500005E07F010E948B0C282F812FB501A60173
:102B60000E94B72F2A960FB6F894DEBF0FBECDBFD6
:102B7000CF91DF911F910F91FF90EF90DF90CF9059
:102B8000BF90AF900895EF92FF920F931F93DF9342
:102B9000CF93CDB7DEB72A970FB6F894DEBF0FBE3E
:102BA000CDBF182F81E1898380E28A8380E18B8306
:102BB00085E18C838D8352E1E52E5FE3F52E409114
:102BC000B63D5091B73DC70160E070E09E012F5FB8
:102BD0003F4F05E00E94540C282F812F60E070E0E9
:102BE000A7010E94B72F2A960FB6F894DEBF0FBE3A
:102BF000CDBFCF91DF911F910F91FF90EF9008957E
:102C0000EF92FF920F931F93DF93CF93CDB7DEB771
:102C10002A970FB6F894DEBF0FBECDBF182F81E004
:102C2000898381E28A831B8262E1E62E6FE3F62EBE
:102C30004091B63D5091B73DC70160E070E09E0104
:102C40002F5F3F4F03E00E94540C282F812F60E03C
:102C500070E0A7010E94B72F2A960FB6F894DEBF46
:102C60000FBECDBFCF91DF911F910F91FF90EF90DD
:102C700008959F92AF92BF92CF92DF92EF92FF9210
:102C80000F931F93982E5B016A01F801918580E0F4
:102C9000E284FF24E82AF92A0E94AB08082F892D34
:102CA000B601A50197010E94C3111F910F91FF90DA
:102CB000EF90DF90CF90BF90AF909F9008959F923C
:102CC000AF92BF92CF92DF92EF92FF920F931F933A
:102CD000DF93CF93CDB7DEB764970FB6F894DEBF1E
:102CE0000FBECDBF982E5B016A01F22E132F0E94FA
:102CF000AB08081730F5802F0E94B908FC0189E560
:102D000089831A83FB8281818C8380818D83828178
:102D10008E8383818F834091B63D5091B73D82E190
:102D20009FE360E070E09E012F5F3F4F07E0760178
:102D30000E94EE0C282F892DB50142E15FE30E942D
:102D4000B72F64960FB6F894DEBF0FBECDBFCF91FC
:102D5000DF911F910F91FF90EF90DF90CF90BF9088
:102D6000AF909F9008950F931F93DB01F801318579
:102D700020E0628570E0262B372BBA01AD01038578
:102D80000E945F161F910F9108959F92AF92BF927C
:102D9000CF92DF92EF92FF920F931F93982E5B01D9
:102DA0006A01F801918580E0E284FF24E82AF92A8B
:102DB0000E941908082F892DB601A50197010E94CC
:102DC00005121F910F91FF90EF90DF90CF90BF9071
:102DD000AF909F9008959F92AF92BF92CF92DF9253
:102DE000EF92FF920F931F93DF93CF93CDB7DEB790
:102DF00064970FB6F894DEBF0FBECDBF982E5B016F
:102E00006A01790110E00E9419080817190770F586
:102E1000C8010E942908FC0187E58983FA82EB82B8
:102E200081818C8380818D8383818E8382818F8356
:102E3000848188878581898786818A8787818B8736
:102E40004091B63D5091B73D82E19FE360E070E074
:102E50009E012F5F3F4F0BE076010E94EE0C282F62
:102E6000892DB50142E15FE30E94B72F64960FB64A
:102E7000F894DEBF0FBECDBFCF91DF911F910F91B0
:102E8000FF90EF90DF90CF90BF90AF909F9008950C
:102E90000F931F93DB01F801318520E0628570E01C
:102EA000262B372BBA01AD0103850E94EB161F912B
:102EB0000F9108950F931F93F80121853285568550
:102EC000852F63E00E940A49992311F441E005C06F
:102ED000913011F040E001C045E1922F80E0232FB6
:102EE00030E0282B392B60E070E0533010F061E0C7
:102EF00070E0C9010E9419031F910F910895BF92BC
:102F0000CF92DF92EF92FF920F931F93CF93DF93B5
:102F1000B82E6B017A01F801918580E02285C22FDD
:102F2000D0E0C82BD92B038510E0CE01B801448531
:102F30000E9419030031110534F48B2DB701A6014D
:102F40009E0100E005C08B2DB701A6019E0100E1A6
:102F50000E94DF12DF91CF911F910F91FF90EF90B0
:102F6000DF90CF90BF9008950E94E13908959F921D
:102F7000AF92BF92CF92DF92EF92FF920F931F9387
:102F8000CF93DF93982E6B017A01F801B184A2846C
:102F900003856485002319F4E6EFF6E209C00130E9
:102FA00019F4E7EDFEE204C0023039F5E7ECF0E396
:102FB0006F3F71F4EF01C052DE4F10E01992802F85
:102FC0006FEF40E00E94572A1F5F1031B9F709C028
:102FD000E60FF11DE052FE4F1082802F40E00E946C
:102FE000572A3B2D20E08A2D90E0282B392B892D64
:102FF000B701A60100E00E94CB0EDF91CF911F9197
:103000000F91FF90EF90DF90CF90BF90AF909F9087
:1030100008952F923F924F925F926F927F928F927C
:103020009F92AF92BF92CF92DF92EF92FF920F9357
:103030001F93DF93CF93CDB7DEB7AD970FB6F8945C
:10304000DEBF0FBECDBF282E2B013A01F8019185BE
:1030500080E02285C22EDD24C82AD92A33848484C4
:103060009584D80120E030E08E010F5F1F4FBE0134
:10307000605F7F4FAE01415E5F4F17C0F801E20F06
:10308000F31F1B968C911B978083FB01E20FF31FAC
:103090001C968C911C978083FA01E20FF31F1D96FA
:1030A0008C911D9780832F5F3F4F1396291530F326
:1030B0008FE0881538F4822DB301A201960101E159
:1030C0000E94E80D5E010894A11CB11CE0E1EE2E07
:1030D000F12CEC0EFD1E85010AC0832D682DF80130
:1030E00041918F01F70121917F010E94E527802FF7
:1030F0008A19891590F3832D682D492D9E012F5F24
:103100003F4F8E01005F1F4F7FE1E72EF12CEC0E49
:10311000FD1E0E94F229892B11F000E001C000E1A0
:10312000822DB301A20196010E94E80DAD960FB663
:10313000F894DEBF0FBECDBFCF91DF911F910F91ED
:10314000FF90EF90DF90CF90BF90AF909F908F90C7
:103150007F906F905F904F903F902F9008956F9267
:103160007F928F929F92AF92BF92CF92DF92EF9217
:10317000FF920F931F93CF93DF93682E4B015A0159
:10318000F801918580E02285C22FD0E0C82BD92B91
:10319000F3841485C584D6847784103138F0862D65
:1031A000BA01A4019E0101E10E942A0E8F2D612F18
:1031B0004C2D2D2D0E94E527E82E8F2D612F4C2DB3
:1031C0002D2D072D0E942028892B11F400E10AC023
:1031D00081E0E81611F401E005C08F2D612F0E94F7
:1031E000752900E0862DB501A4019E010E942A0EDA
:1031F000DF91CF911F910F91FF90EF90DF90CF90D3
:10320000BF90AF909F908F907F906F900895FF92A6
:103210000F931F93F82EDB01F801618592852385BA
:10322000EAEBF2E38181813031F48081821711F081
:103230002F3F09F41182359683E3E238F80791F7BE
:10324000362F20E0892F90E0282B392B8F2DBA01C3
:10325000AD0100E00E940D0F0E943D090E94F104A3
:103260001F910F91FF9008952F923F924F925F927E
:103270006F927F928F929F92AF92BF92CF92DF9286
:10328000EF92FF920F931F93DF93CF93CDB7DEB7EB
:10329000C154D0400FB6F894DEBF0FBECDBFA82EEC
:1032A0007FAF6EAF1A01A801D80119969C911997AA
:1032B00080E01A962C911A97422E5524482A592AB2
:1032C0001B968C9122961FAF0EAF2297B5E1CB2EA5
:1032D000D12CCC0EDD1E3E010894611C711C4601F0
:1032E0008301682F70E0FB01EE0FFF1F7601EE0EE9
:1032F000FF1E1AC02296AEADBFAD229719963C9123
:10330000199720E01A968C9190E0822B932BD40190
:103310008D939D934D012296AEADBFAD22971B9626
:103320008C91D8018D938D0122968EAD9FAD229701
:10333000039622969FAF8EAF22978E149F04D1F6EC
:10334000E60FF71FE40FF51F94859DAF903140F015
:103350008A2DB1014EAD5FAD920101E10E944F0F88
:1033600086017301BB2411C0D8018D919C91F70196
:1033700060810E9423098F5F9F4F11F0BB24B3949B
:103380000E5F1F4F0894E11CF11C0815190561F729
:10339000BB2061F00FC0D6018D919D916D01F301AD
:1033A00061913F014DAD0E940E0AA895C814D90441
:1033B00091F70AC0F1E0BF1639F48A2DB1014EAD84
:1033C0005FAD920101E306C08A2DB1014EAD5FAD44
:1033D000920100E00E944F0F0E94F104CF5BDF4F8B
:1033E0000FB6F894DEBF0FBECDBFCF91DF911F9116
:1033F0000F91FF90EF90DF90CF90BF90AF909F9094
:103400008F907F906F905F904F903F902F90089596
:103410008F929F92AF92BF92CF92DF92EF92FF92E4
:103420000F931F93CF93DF93B82E6B017A01F801AE
:10343000918580E02285C22FD0E0C82BD92BA384B0
:10344000948485841685103138F08B2DBA01A6013D
:103450009E0101E10E94910F9A2D80E0292D30E01C
:10346000822B932B682D412F0E940E0A882331F462
:103470008B2DB701A6019E0101E30DC0823031F40E
:103480008B2DB701A6019E0102E305C08B2DB7016C
:10349000A6019E0100E00E94910F0E94F104DF91BD
:1034A000CF911F910F91FF90EF90DF90CF90BF9041
:1034B000AF909F908F9008950F931F93DB01F801B9
:1034C0001385318520E0628570E0262B372BBA0109
:1034D000AD0100E00E94D30FE2ECF4E3848181307F
:1034E00031F48081811711F01F3F09F4148239965D
:1034F0008DE3E93BF80791F70E9475091F910F9141
:1035000008952F923F924F925F926F927F928F9287
:103510009F92AF92BF92CF92DF92EF92FF920F9362
:103520001F93DF93CF93CDB7DEB7AD970FB6F89467
:10353000DEBF0FBECDBF8DA71B012A01A801F80178
:10354000918580E02285622E7724682A792A9385E6
:1035500080E02485822E9924882A992A85857801FD
:103560006E010894C11CD11C5601A82FB0E08D013A
:10357000000F111FB601600F711F0BC0F7013485DA
:1035800020E0858590E0822B932BF5018193919328
:103590005F0182E090E0E80EF91EA616B70671F70B
:1035A0001796FD01EE0FFF1FE40FF51FF080FA01E3
:1035B000E00FF11F97859CA71196AA0FBB1FA40FC0
:1035C000B51F2C912BA781898AA79FE09F1538F4FE
:1035D0008DA5B201A101930101E10E9415108601A0
:1035E00019A60EC0F80160817181C4014F2D0E949F
:1035F00092088F5F9F4F11F021E029A70E5F1F4FA8
:103600000A151B0579F70CC0F601619171916F01E4
:10361000C4014F2D2CA50BA5EAA40E94D90AA89598
:10362000CA14DB0489F7F9A5F13031F48DA5B20194
:10363000A101930101E005C08DA5B201A101930193
:1036400000E00E941510AD960FB6F894DEBF0FBED5
:10365000CDBFCF91DF911F910F91FF90EF90DF9041
:10366000CF90BF90AF909F908F907F906F905F9022
:103670004F903F902F9008954F925F926F927F925C
:103680008F929F92AF92BF92CF92DF92EF92FF9272
:103690000F931F93CF93DF93F82E5B016A01F8011C
:1036A000918580E02285C22FD0E0C82BD92BE384FE
:1036B0009484858476841785408851886288103187
:1036C00038F08F2DBA01A5019E0101E10E9457102B
:1036D0009E2D80E0492D50E0782D60E0272D30E0D0
:1036E000622B732B842B952B412F242D052DE62C3B
:1036F0000E94D90A882331F48F2DB601A5019E01BD
:1037000000E10FC0813031F48F2DB601A5019E017B
:1037100000E007C0823039F48F2DB601A5019E016B
:1037200001E00E945710DF91CF911F910F91FF9000
:10373000EF90DF90CF90BF90AF909F908F907F9051
:103740006F905F904F900895EF92FF920F931F93A9
:10375000F801938580E02485622F70E0682B792B37
:103760006115710531F083E0A8012E2D0E94B72F5D
:1037700035C0E684FF2400E010E01E2D0027FF2462
:10378000EE24878590E0A0E0B0E0DC01992788274F
:10379000E82AF92A0A2B1B2B818990E0A0E0B0E0EF
:1037A000E82AF92A0A2B1B2B808990E0A0E0B0E0E0
:1037B000BA2FA92F982F8827E82AF92A0A2B1B2B22
:1037C00082ED9FE0B801A7010E948C49E092ED23B1
:1037D000F092EE230093EF231093F0231F910F91AB
:1037E000FF90EF900895EF92FF920F931F93F801CF
:1037F000938580E0248530E0822B932B892BA9F5DB
:10380000E584FF2400E010E01E2D0027FF24EE24B5
:10381000868590E0A0E0B0E0DC0199278827E82ABF
:10382000F92A0A2B1B2B808990E0A0E0B0E0E82A5F
:10383000F92A0A2B1B2B878590E0A0E0B0E0BA2F75
:10384000A92F982F8827E82AF92A0A2B1B2B82ED0B
:103850009FE0B801A7010E948C49E092ED23F0920D
:10386000EE230093EF231093F0231F910F91FF900D
:10387000EF900895DF92EF92FF920F931F93CF93F3
:10388000DF93D82E7B01EA01F801918580E0228543
:10389000022F10E0082B192B33856485458526857A
:1038A000832F90E040974CF4832F0E94210B8D2DA5
:1038B000BE01A701980100E005C08D2DBE01A70142
:1038C000980100E10E949D12DF91CF911F910F910D
:1038D000FF90EF90DF9008950F931F93F801838579
:1038E0008093022289E090E040EC57E269E070E0CA
:1038F0000E94EB2A1F910F910895DF92EF92FF92A1
:103900000F931F93DF93CF93CDB7DEB764970FB6B6
:10391000F894DEBF0FBECDBFD82E7B01890183E1B5
:1039200089839091B63D8091B73D8A839B831C83A8
:103930002D8380E22035380709F180E221353807F0
:1039400050F480E22031380799F080E220343807C3
:1039500009F045C013C080E22037380779F081E2D2
:103960002030380759F080E220363807C1F506C00C
:1039700085E18E838F8307E010E01DC0CA010E949D
:103980009C00FC019093593F8093583F009739F178
:10399000808191818017910711F583818E838281C7
:1039A0008F83848188878581898783818A878281C3
:1039B0008B870BE010E04091B63D5091B73D82E11E
:1039C0009FE360E070E09E012F5F3F4F0E94540C28
:1039D000282F8D2DB70142E15FE30E94B72F649637
:1039E0000FB6F894DEBF0FBECDBFCF91DF911F9110
:1039F0000F91FF90EF90DF9008951F93CF93DF9387
:103A000010E0CDE0D0E014C0812F90E08C9FF00159
:103A10008D9FF00D9C9FF00D1124EA51F74D2281EE
:103A200033814081518180E0B9010E947D1C1F5F7C
:103A30008091F62C181740F3DF91CF911F910895D4
:103A40000F931F93F80192851485112309F41FEF3A
:103A5000913021F40E94C3150E94FD1C212F30E0FB
:103A600088EE93E0289FA001299F500D389F500DAC
:103A70001124662757FD6095762F81E090E00E9423
:103A8000EB2A1F910F910895CF92EF92FF920F931F
:103A90001F93CF93DF93C82EEB017A01CA010E94D6
:103AA0009C00FC0116820097A9F080819181892BEE
:103AB00089F08581882371F00091AA401091AB4074
:103AC0008C2DB701AE019701EE24FEE1CF2E0E94AE
:103AD0007F150EC00091AA401091AB408C2DB7010C
:103AE00040E050E09701E1E0EE2EF12C0E943C1501
:103AF000DF91CF911F910F91FF90EF90CF9008959C
:103B0000EF92FF920F93DF93CF93CDB7DEB72A9753
:103B10000FB6F894DEBF0FBECDBFAC0181E1898343
:103B200080E28A8380E18B8385E18C838D83A2E1AF
:103B3000EA2EAFE3FA2EC70160E070E09E012F5F2E
:103B40003F4F05E00E94540C682FC70170E00E94AF
:103B5000282F2A960FB6F894DEBF0FBECDBFCF91A7
:103B6000DF910F91FF90EF900895AF92BF92CF92A7
:103B7000DF92EF92FF920F931F93CF93DF93F801A1
:103B800043857485C091B63DD091B73D60E050E06B
:103B90000CC0358520E0868590E0822B932B8C1716
:103BA0009D0709F461E05F5F3296571790F3662333
:103BB00009F0C4C1423009F49EC0433030F44423BC
:103BC00071F0413009F0B7C150C0443009F41FC151
:103BD000443008F4D6C0453009F0ADC15EC1CE0115
:103BE00061E170E00E94164926E430E0829FB00156
:103BF000839F700D929F700D112480E090E00E94D1
:103C00009C465B016C0120E030E04AE755E40E94ED
:103C1000B4437B018C0120E030E040E85FE30E9488
:103C2000BA4588230CF45DC1C801B70120E03FEF1D
:103C30004FE757E40E945A4518160CF075C1C601AB
:103C4000B50120E030E040E251E40E94B4430E941C
:103C5000DE4180E991E005C0FC013197F1F7615048
:103C6000704061157105C1F766C1CE016DE070E06D
:103C70000E94164926E430E0829FB001839F700DB8
:103C8000929F700D112480E090E00E949C465B01A1
:103C90006C0120E030E04AE755E40E94B4437B0128
:103CA0008C0120E030E040E85FE30E94BA458823C1
:103CB0000CF417C1C801B70120E03FEF4FE757E40C
:103CC0000E945A4518160CF02FC1C601B50120E01C
:103CD00030E040E251E40E94B4430E94DE4180E9BA
:103CE00091E005C0FC013197F1F76150704061151A
:103CF0007105C1F720C1CE016BE070E00E9416494A
:103D000026E430E0829FB001839F700D929F700D7A
:103D1000112480E090E00E949C465B016C0120E051
:103D200030E04AE755E40E94B4437B018C0120E077
:103D300030E040E85FE30E94BA4588230CF4D1C02C
:103D4000C801B70120E03FEF4FE757E40E945A4512
:103D500018160CF0E9C0C601B50120E030E040E2E1
:103D600051E40E94B4430E94DE4180E991E005C025
:103D7000FC013197F1F76150704061157105C1F791
:103D8000DAC0CE0167E070E00E94164926E430E018
:103D9000829FB001839F700D929F700D112480E06F
:103DA00090E00E949C465B016C0120E030E04AE715
:103DB00055E40E94B4437B018C0120E030E040E8F0
:103DC0005FE30E94BA4588230CF48BC0C801B70199
:103DD00020E03FEF4FE757E40E945A4518160CF0D9
:103DE000A3C0C601B50120E030E040E251E40E94EA
:103DF000B4430E94DE4180E991E005C0FC013197A7
:103E0000F1F76150704061157105C1F794C0CE01A2
:103E100065E070E00E94164926E430E0829FB00120
:103E2000839F700D929F700D112480E090E00E949E
:103E30009C465B016C0120E030E04AE755E40E94BB
:103E4000B4437B018C0120E030E040E85FE30E9456
:103E5000BA4588230CF445C0C801B70120E03FEF04
:103E60004FE757E40E945A4518160CF05DC0C60192
:103E7000B50120E030E040E251E40E94B4430E94EA
:103E8000DE4180E991E005C0FC013197F1F7615016
:103E9000704061157105C1F74EC0CE0163E070E05E
:103EA0000E94164926E430E0829FB001839F700D86
:103EB000929F700D112480E090E00E949C465B016F
:103EC0006C0120E030E04AE755E40E94B4437B01F6
:103ED0008C0120E030E040E85FE30E94BA4588238F
:103EE0001CF461E070E024C0C801B70120E03FEF9E
:103EF0004FE757E40E945A451816B4F4C601B501BD
:103F000020E030E040E251E40E94B4430E94DE41F0
:103F100080E991E005C0FC013197F1F761507040F4
:103F200061157105C1F707C0C801B7010E94DE41E4
:103F3000CB010197F1F7CE010E94801DDF91CF9157
:103F40001F910F91FF90EF90DF90CF90BF90AF90B7
:103F50000895FF920F931F93F82EF801918580E04A
:103F6000228530E0822B932B892BB9F4809110238A
:103F7000813011F00E94C23981E0809310238F2D8F
:103F80000E9400160E94FD1C81E090E048EE53E084
:103F900060E070E00E94EB2A03C080E00E94C3153D
:103FA0001F910F91FF9008959F92AF92BF92CF9271
:103FB000DF92EF92FF920F931F93982E7B015A018D
:103FC000F801918580E0C284DD24C82AD92ACA017B
:103FD000B601438524850E94FB00892DB501A70108
:103FE00095018601EE24FF240E943C1580E060E0EC
:103FF00070E0A50196010E947D1C1F910F91FF901A
:10400000EF90DF90CF90BF90AF909F900895EF9288
:10401000FF920F931F93F80190859630F1F097303F
:1040200028F4923051F09530F9F414C0923141F0F7
:10403000953149F09830C1F414C00E94201D20C071
:104040000E94A91F1DC0928581858093EC6F90937B
:10405000EB6F16C00E94B51D13C081E08093112341
:104060000FC0109211230CC0913019F0913141F41E
:1040700004C08F010E94441D03C08F010E94D41F01
:104080001F910F91FF90EF9008959F92AF92BF9272
:10409000CF92DF92EF92FF920F931F93CF93DF9314
:1040A000E801BE2C9885983509F494C09935A0F59F
:1040B0009B3309F4C5C09C33B0F4943209F469C051
:1040C000953238F4903209F45EC0923209F0C7C0DC
:1040D0005DC0923309F466C09A3309F45DC0903331
:1040E00009F0BDC05CC0903509F468C0913550F44A
:1040F000923409F45DC0943409F45DC0903409F041
:10410000AEC053C0943509F45FC0963509F45FC062
:10411000923509F0A4C055C0983609F473C0993699
:10412000C8F4903609F462C0913650F49C3509F415
:1041300057C09E3509F457C09A3509F090C04DC05C
:10414000943609F459C0963609F459C0923609F0EC
:1041500086C04FC0913709F45EC0923750F49C3648
:1041600009F456C09E3609F477C09A3609F077C034
:104170004CC0933909F452C0953909F452C09038B3
:1041800009F06DC051C00E94491462C10E94F5132C
:104190005FC10E94CC145CC10E94A91459C10E9445
:1041A0007F1756C10E943A1C53C10E94761450C119
:1041B0000E94F31B4DC10E94A41B4AC10E94C51658
:1041C00047C10E94391644C10E94811141C10E9419
:1041D00048173EC10E94B3163BC10E94281138C146
:1041E0000E943C1B35C10E94811A32C10E945C1A98
:1041F0002FC10E94081A2CC10E94341929C10E94A3
:10420000071926C10E94AF1823C10E94091820C1B6
:104210000E94B7171DC10E94320C1AC10E947B0D6B
:1042200017C10E94E13914C17B8560E08C8590E064
:10423000682B792B83E0A8012E2D0E94B72F08C18F
:104240008B858093022289E090E040EC57E269E0A0
:1042500070E00E94EB2AFCC00E94AE0EF9C09134BF
:1042600009F4BEC0923438F4903109F4E7C09532B5
:1042700009F0EEC04AC0903721F0913809F0E8C04B
:10428000AFC08091B73D89878091B63D8A878B8585
:10429000813031F480E08E01EB2C0E941E0C08C0AE
:1042A000803131F480E090E08E01EB2C0E945A17AF
:1042B00080910222813021F4CE016B2D0E94842F47
:1042C00010E08DE0E82EF12C1BC0812F90E08E9D38
:1042D000F0018F9DF00D9E9DF00D1124EA51F74DD8
:1042E000808191818059904251F48085813039F4E8
:1042F0006281738183E0AE012B2D0E94B72F1F5F77
:104300008091F62C181708F3A3C0AA889B889B8578
:1043100080E02C8530E0822B932B0E949C006C0166
:10432000009781F1FC01808191818055904251F587
:10433000F6016185728580E090E00E949C462DEC3C
:104340003CEC4CE45FE30E94B4437B018C017A2D8A
:1043500060E0292D30E0622B732B80E090E00E941A
:104360009C462DEC3CEC4CE45EE30E94B4439B0184
:10437000AC01C801B7010E9487430E94DE41F601EB
:10438000728761878091B73D89878091B63D8A8722
:10439000CE016B2D0E94842F10E00DE0E02EF12C59
:1043A0001AC0812F90E08E9DF0018F9DF00D9E9D93
:1043B000F00D1124EA51F74D80819181805990428E
:1043C00049F48085813031F463857485AE012B2DED
:1043D0000E9407381F5F8091F62C181710F338C021
:1043E0008091B73D89878091B63D8A87CE016B2D3C
:1043F0000E94842F10E0BDE0EB2EF12C1AC0812F1B
:1044000090E08E9DF0018F9DF00D9E9DF00D11248A
:10441000EA51F74D808191818059904249F480851D
:10442000813031F463857485AE012B2D0E940738ED
:104430001F5F8091F62C181710F30AC08091B73DCA
:1044400089878091B63D8A87CE016B2D0E94842F8B
:10445000DF91CF911F910F91FF90EF90DF90CF9060
:10446000BF90AF909F900895282F30E0F901E65655
:10447000FF4BA081AA2311F481E0089584E190E02C
:10448000289FF001299FF00D389FF00D1124E65A66
:10449000F04C50E081E040E070E00CC09081691782
:1044A00028F0941718F0818171E001C0942F5F5FAC
:1044B0003296492F5A1790F3772351F584E190E013
:1044C000289FF001299FF00D389FF00D1124E65A26
:1044D000F04C40818181F90173E0EE0FFF1F7A9566
:1044E000E1F7220F331FE20FF31FEE0FFF1FE45A15
:1044F000F04C21E00BC09081961720F0941710F03B
:10450000818101C0942F2F5F3296492F2A1798F38B
:104510000895EF92FF921F93CF93DF9310E0C0E0D6
:10452000D0E0E4E1EE2EF12CA895812F6CE00E9402
:104530000A4990E04E966CEA70E44FEF0E947107D2
:10454000AE0120E030E012C08C91818311968C91F5
:10455000119780839F5F129632969A30A9F72C5E4E
:104560003F4F4F5F5F4F203F310571F0D901A45598
:10457000BF4B4E9DF0014F9DF00D5E9DF00D11243F
:10458000E65AF04C90E0E0CF145FC057DF4F18318F
:1045900059F680E290E06CEA70E44FEF0E947107F8
:1045A000ACEAB0E4EAE9F0E48C9180838A3008F068
:1045B00010821196319680E4AC3BB807A9F7DF91E1
:1045C000CF911F91FF90EF900895DF92EF92FF92AD
:1045D0000F931F93CF93DF93D82E062FA8956CE0EF
:1045E0000E940A49E82EFF248EE190E0E80EF91EB1
:1045F000C7016CEA70E44FEF0E94710710E08D2D47
:104600006CE00E940A498AE0989FD0011124A00F13
:10461000B11FAA0FBB1FCD2DD0E0A455BF4BFE018B
:10462000EE0FFF1FCE0123E0880F991F2A95E1F7B7
:10463000E80FF91FE00FF11FEE0FFF1FE65AF04CD5
:1046400081818C93808111968C93C7016CEA70E410
:104650004FEF0E945D0780E290E06CEA70E44FEF5C
:104660000E947107FE01E656FF4B80818A3008F0F8
:104670001082FE01E656FF4B8081C455DF4B8883D4
:1046800080E290E06CEA70E44FEF0E945D07DF91FA
:10469000CF911F910F91FF90EF90DF90089580319F
:1046A00040F4E82FF0E0E656FF4B108260E00E94F5
:1046B000E5220895962F803110F5282F30E0D9019A
:1046C000A656BF4B6C916A30D0F4F90153E0EE0F5F
:1046D000FF1F5A95E1F7220F331FE20FF31FE60F7A
:1046E000F11DEE0FFF1FE65AF04C908341836F5F80
:1046F0006C9361500E94E52221E030E002C020E08E
:1047000030E0C9010895FFCF209114233091152383
:104710002F5F3F4F309315232093142321503040B7
:10472000C9010895EF92FF920F93CF93DF93EC01AD
:10473000790180911423909115230196909315236C
:1047400080931423019720E8288320EA29839A8301
:104750008B837C836D835E834F8340E050E0602FCA
:1047600070E00AC0FE01E80FF11DD701A40FB51FCC
:104770008C9180834F5F5F4F842F885F4617570768
:104780008CF3802F885FDF91CF910F91FF90EF9096
:104790000895EF92FF920F93CF93DF93EC0180E89F
:1047A000888380EA8983FA82EB827C836D835E83CF
:1047B0004F8340E050E0602F70E00AC0FE01E80F38
:1047C000F11DD901A40FB51F8C9180834F5F5F4FFE
:1047D000842F885F461757078CF3802F885FDF91FF
:1047E000CF910F91FF90EF900895EF92FF920F936A
:1047F0001F93DF93CF93CDB7DEB7C050D1400FB634
:10480000F894DEBF0FBECDBF8C016CE070E00E945B
:104810001649CB01C9967E010894E11CF11CB70131
:104820004FEF0E947107C8016CE070E00E941649CA
:104830009C0185E190E0289F602D11242F5F3F4F60
:10484000289FD001299FB00D389FB00D11248E01F3
:104850000C5F1F4FA7011FC0A895F801E20FF31FBF
:104860009081FA01E20FF31F8081882311F49130C7
:10487000B9F0FA01E20FF31F90E02B5E3F4F240FD7
:10488000351F8191980FE217F307D9F7992311F09B
:1048900080E007C06B5E262F30E02A173B07E0F26E
:1048A00081E0C050DF4F0FB6F894DEBF0FBECDBF22
:1048B000CF91DF911F910F91FF90EF900895CF92CC
:1048C000DF92EF92FF920F931F93DF93CF93CDB7B9
:1048D000DEB7C050D1400FB6F894DEBF0FBECDBFDB
:1048E0006E010894C11CD11CF601CE018196119273
:1048F000E817F907E1F709E310E07E010894E11CED
:10490000F11CA895C801B7014FEF0E947107F6018D
:1049100020E030E0A89593818081882311F49130C4
:10492000E9F0D701A20FB31F90E0AF014B5E5F4FDC
:104930008D91980FA417B507D9F7992311F080E04E
:104940000EC02B5E3F4F2C3F310511F0FD01E2CF31
:104950000F5F1F4F82E00030180799F681E0C050CA
:10496000DF4F0FB6F894DEBF0FBECDBFCF91DF9102
:104970001F910F91FF90EF90DF90CF9008958F924D
:104980009F92AF92BF92CF92DF92EF92FF920F93DE
:104990001F93DF93CF93CDB7DEB7CC5FD0400FB678
:1049A000F894DEBF0FBECDBF7B01842ED22EC32E66
:1049B0008617970708F447C0CB016CE070E00E94AF
:1049C00016495B0189E390E0A80EB91EC5018E016E
:1049D0000F5F1F4FB8014CEF0E9471072D2D3C2D2A
:1049E000C9016C01C7016CE070E00E94164995E1B5
:1049F000899F70011124E00EF11EF601D7019C2C55
:104A000002C081918D938E2F89198815D0F3C5012D
:104A10008E010F5F1F4FB8014CEF0E945D07C5016B
:104A2000B8014CEF0E94710708C0F60191916F0127
:104A3000F70181917F01981731F48C2D8919881520
:104A4000A0F381E001C080E0C450DF4F0FB6F894BE
:104A5000DEBF0FBECDBFCF91DF911F910F91FF90B1
:104A6000EF90DF90CF90BF90AF909F908F90089580
:104A7000682F88E390E00E9419060895AF92BF92D4
:104A8000CF92DF92EF92FF920F931F93DF93CF931A
:104A9000CDB7DEB72A970FB6F894DEBF0FBECDBFF5
:104AA000182F5B017A0184E0898380E28A8380E1A8
:104AB0008B834091B63D5091B73D5C834D835E83BF
:104AC0004F8328878BEAC82E81E4D82EC60160E088
:104AD00070E09E012F5F3F4F08E00E94C923282FFE
:104AE000812FB501A6010E94B72F2A960FB6F89420
:104AF000DEBF0FBECDBFCF91DF911F910F91FF9011
:104B0000EF90DF90CF90BF90AF900895AF92BF929B
:104B1000CF92DF92EF92FF920F931F93DF93CF9389
:104B2000CDB7DEB72A970FB6F894DEBF0FBECDBF64
:104B3000182F5B017A0182E0898380E28A8380E119
:104B40008B834091B63D5091B73D5C834D835E832E
:104B50004F8328879BEAC92E91E4D92EC60160E0D5
:104B600070E09E012F5F3F4F08E00E94C923282F6D
:104B7000812FB501A6010E94B72F2A960FB6F8948F
:104B8000DEBF0FBECDBFCF91DF911F910F91FF9080
:104B9000EF90DF90CF90BF90AF9008954F925F92CB
:104BA0006F927F928F929F92AF92BF92CF92DF923D
:104BB000EF92FF920F931F93DF93CF93CDB7DEB7A2
:104BC00065970FB6F894DEBF0FBECDBF782E4B01B0
:104BD0005A0168016E2CF8010185F28435857685CD
:104BE00057844088218962891389163108F05FC093
:104BF000AE014F5F5F4FFA01CE0146961192E81762
:104C0000F907E1F7D601FA0104C053968C91539746
:104C1000819311968E2F841B8117B8F3902F80E01B
:104C2000EF2CFF24E82AF92AF0E1EF16F0E2FF0664
:104C3000C9F0932F80E0072F10E0082B192BC80133
:104C40000E949C00892B99F180E7E81680E2F80623
:104C500011F484E001C083E0B801A601262D0E9472
:104C6000B72F25C0922F80E0062F10E0082B192BBC
:104C7000952D80E0242D30E0822B932BB80145E167
:104C80009E012F5F3F4F0E94BF24882351F0C8012F
:104C90000E94F523882329F0872DB501A40120E087
:104CA00004C0872DB501A40120E10E943E25659630
:104CB0000FB6F894DEBF0FBECDBFCF91DF911F912D
:104CC0000F91FF90EF90DF90CF90BF90AF909F90AB
:104CD0008F907F906F905F904F9008958F929F92EA
:104CE000AF92BF92CF92DF92EF92FF920F931F93FA
:104CF000CF93DF93F82E4B015A016801F80191859B
:104D000080E02285C22FD0E0C82BD92B258566856F
:104D1000F0E2C031DF07B9F0922F80E0062F10E0FB
:104D2000082B192BC8010E949C00892B01F1C05748
:104D3000D04211F484E001C083E0B801A6012E2D19
:104D40000E94B72F14C00E945F24882351F088E38B
:104D500090E061E00E9419068F2DB501A40120E0CA
:104D600004C08F2DB501A40120E10E948625DF91AA
:104D7000CF911F910F91FF90EF90DF90CF90BF9058
:104D8000AF909F908F900895CF92DF92EF92FF9215
:104D90000F931F93CF93DF93E8019885923081F0B2
:104DA000933018F49130E9F505C0933031F0943028
:104DB000C1F506C00E946E2634C00E94CE2531C0C7
:104DC0008091B73D8B878091B63D8C8780E060E015
:104DD00070E0AE012E2D0E94B72F10E02DE0C22E04
:104DE000D12C1BC0812F90E08C9DF0018D9DF00D8A
:104DF0009C9DF00D1124EA51F74D808191818059DD
:104E0000904251F48085813039F46281738183E06E
:104E1000AE012E2D0E94B72F1F5F8091F62C181720
:104E200008F3DF91CF911F910F91FF90EF90DF90EA
:104E3000CF9008952FB130E002C0359527958A951F
:104E4000E2F72095822F8170089588309105A8F4AB
:104E50004091080127E030E0281B390B81E090E009
:104E600002C0880F991F2A95E2F7482B409308014A
:104E700020910B01822B80930B010895FF920F93D9
:104E80001F93CF93DF93809107018FEF80930701EA
:104E900090910A0180930A0106E115E2C0E0D0E09A
:104EA000FF24F394CE010E942527F801F082F08AB6
:104EB00021960F5F1F4FC830D105A1F7DF91CF9129
:104EC0001F910F91FF90089588309105B0F44091A3
:104ED000080127E030E0281B390B81E090E002C098
:104EE000880F991F2A95E2F780954823409308017F
:104EF00020910B01822380930B0108951F93CF9380
:104F0000DF93942F122F882309F45AC0813019F4AB
:104F1000C7EDDEE205C0823009F052C0C7ECD0E335
:104F200070E0FE01E60FF71FE052FE4FE081EE2336
:104F300009F446C0AB01440F551FDB0185E0AA0F01
:104F4000BB1F8A95E1F7E13031F4A41BB50BCA0F02
:104F5000DB1F898136C026E0929F90011124812FAA
:104F60006AE00E940A49682F620FA41BB50BAC0FC0
:104F7000BD1FED0130E098EC81E00DC02881621783
:104F800030F0291710F4983C11F4898101C0292FC1
:104F90003F5F2296922F3E1788F3983C91F430E0C1
:104FA00090E00BC02C91291710F4292F03C0119603
:104FB0008C9111973F5F1296922F3E1798F301C084
:104FC00081E0DF91CF911F910895E62F942F622FFA
:104FD000882319F446EF56E209C0813019F447EDF1
:104FE0005EE204C0823051F547EC50E326E0929F28
:104FF00090011124862F6AE00E940A49280F8E2F03
:1050000090E0FA01E80FF91FE052FE4FE081DC0169
:1050100065E0AA0FBB1F6A95E1F7880F991FA81BCF
:10502000B90BA40FB51F90E007C08C9112968217A0
:1050300011F481E008959F5F9E17B8F380E0089512
:10504000BF92CF92DF92EF92FF920F931F93CF9375
:10505000DF93982FD42EC22EB02E882319F406EF9A
:1050600016E20AC0813019F407ED1EE205C0823055
:1050700009F065C007EC10E3E62EFF24E801CE0D31
:10508000DF1DC052DE4F88818F3008F058C060317C
:1050900008F055C0892F4D2D2C2D0E94E52788231F
:1050A00029F126E0D29E900111248C2D6AE00E9405
:1050B0000A49482F420F90E0DE01970154E0220F89
:1050C000331F5A95E1F72E193F090CC0F901E90F7A
:1050D000F11DEE0FFF1FE00FF11F8081841709F40F
:1050E000B1829F5F8C91981788F326C088819701C1
:1050F000B4E0220F331FBA95E1F72E193F09F901E9
:10510000E80FF11DEE0FFF1FE00FF11F46E0D49EE8
:10511000A00111248C2D6AE00E940A49840F80832B
:105120008881280F311D220F331F020F131FF80132
:10513000B18288818F5F888321E030E002C020E067
:1051400030E0C901DF91CF911F910F91FF90EF9057
:10515000DF90CF90BF9008950F931F93CF93DF936D
:10516000C0E0D0E000E010E0A895CE01E3E0969525
:105170008795EA95E1F788966BEE71E44FEF0E9410
:105180007107A80120E030E012C08C918183119654
:105190008C91119780839F5F129632969F30A9F76A
:1051A0002D5F3F4F4F5F5F4F2831310591F0D9019F
:1051B000A551BE4BCA01880F991FFA0165E0EE0F99
:1051C000FF1F6A95E1F7E81BF90BE952F14D90E0FA
:1051D000DCCF2896005C1F4FC031D10529F68AE24A
:1051E00090E06BEE71E44FEF0E94710720E030E039
:1051F000F901E954FF4CD901A551BE4B8C91808334
:105200002F5F3F4F2031310599F7C0E0D0E000E03B
:1052100010E0A895CE01E3E096958795EA95E1F731
:105220008B966BEE71E44FEF0E947107A80120E0AE
:1052300030E012C08C91818311968C9111978083FC
:105240009F5F129632969F30A9F72D5F3F4F4F5FB9
:105250005F4F2831310591F0D901A551BE4BCA01EC
:10526000880F991FFA0165E0EE0FFF1F6A95E1F7BD
:10527000E81BF90BE953FF4C90E0DCCF2896005C6B
:105280001F4FC031D10529F68DE290E06BEE71E43D
:105290004FEF0E94710720E030E0F901E955FD4C25
:1052A000D901A551BE4B8C9180832F5F3F4F203198
:1052B000310599F7C6EDD8E2A7EBB0E3E7EAF2E3F0
:1052C00018828C918F3008F01C9280818F3008F00A
:1052D000108221961196319688E2C63ED80781F752
:1052E000DF91CF911F910F910895AF92BF92DF92FE
:1052F000EF92FF920F931F93CF93DF93D62E8823C5
:1053000009F466C0813021F400E0C7EDDEE209C097
:10531000823021F403E0C7ECD0E303C000E0C0E03A
:10532000D0E0A895A02EBB248D2D869586958695D8
:10533000082F10E0085D1F4F0A0D1B1DC8016BEE02
:1053400071E44FEF0E947107ED2CFF24C701880F15
:10535000991FF701A5E0EE0FFF1FAA95E1F7E81BE3
:10536000F90BEC0FFD1F8D2D6CE00E940A4983E0C4
:10537000989FD0011124A551BE4B90E081818C9360
:10538000808111968C9311979F5F329612969F3071
:10539000A9F7C8016BEE71E44FEF0E945D0785012C
:1053A000065D1F4FC8016BEE71E44FEF0E9471075D
:1053B000CE0DDF1DC052DE4F88812BEE31E4E20EB0
:1053C000F31EF7018083C801B9014FEF0E945D070A
:1053D000DF91CF911F910F91FF90EF90DF90BF90E1
:1053E000AF9008956F927F928F929F92AF92BF92EB
:1053F000CF92DF92EF92FF920F931F93CF93DF93A1
:10540000D82EC62E390148015701882319F4E6EF3A
:10541000F6E20BC021E0821719F4E7EDFEE205C0C9
:1054200032E0831791F5E7ECF0E3E42EFF24EC0D76
:10543000F11DE052FE4F8081F701E80FF11DE031D0
:10544000F1051CF5FFE0FC1500F1C0E0D0E013C051
:10545000F301EC0FFD1FD401AC0FBD1F85010C0F34
:105460001D1F8D2D6C2D40812C91F80100810E9413
:105470002028A8952196CE15DF0554F38D2D6C2D8F
:105480000E94752921E030E002C020E030E0C9012F
:10549000DF91CF911F910F91FF90EF90DF90CF9010
:1054A000BF90AF909F908F907F906F900895CF9214
:1054B000DF92EF92FF920F931F93CF93DF93E62E2D
:1054C000F42E882309F467C0813021F480E0C7ED11
:1054D000DEE209C0823021F483E0C7ECD0E303C0F0
:1054E00080E0C0E0D0E0A895C82EDD240E2D069502
:1054F0000695069510E0085D1F4F0C0D1D1DC80197
:105500006BEE71E44FEF0E9471072F2D30E08E2D6E
:105510006CE00E940A4983E0989FD0011124C901E0
:10552000880F991FA80FB91FFF24A551BE4BF70183
:1055300094E0EE0FFF1F9A95E1F7EE19FF09E20FD5
:10554000F31FEE0FFF1FEC0FFD1F81818C938081F5
:1055500011968C93C8016BEE71E44FEF0E945D07CA
:105560002AE230E0C20ED31EC6016BEE71E44FEFAB
:105570000E947107CE0DDF1DC052DE4F8881EBEE19
:10558000F1E4EE0EFF1EF7018083C6016BEE71E4BD
:105590004FEF0E945D07DF91CF911F910F91FF9018
:1055A000EF90DF90CF900895882351F0813019F467
:1055B000E7EDFEE207C0823019F4E7ECF0E302C049
:1055C000E6EFF6E2E60FF11DE052FE4F108240E0FA
:1055D0000E94572A08958F30910578F4FC01EE0F50
:1055E000FF1FEE0FFF1FE80FF91FE251FD4B418334
:1055F00052836383748381E0808380E090E0089528
:105600008F309105B0F4FC01EE0FFF1FEE0FFF1F6E
:10561000E80FF91FE251FD4B8081882351F020E013
:1056200030E081819281A381B4810097A105B10509
:1056300011F021E030E0C90108958F30910550F458
:10564000FC01EE0FFF1FEE0FFF1FE80FF91FE251E5
:10565000FD4B108280E090E00895F894EEEEF2E4C5
:1056600010821182128213821482359683E4E93308
:10567000F807B1F7109295001092940010929000E4
:105680008CE08093910010929200109299008EE32A
:10569000809398008091710083608093710078946A
:1056A00008951F920F920FB60F920BB60F9211240E
:1056B0008F939F93AF93BF93EF93FF938091EA42B1
:1056C0009091EB42A091EC42B091ED420196A11D68
:1056D000B11D8093EA429093EB42A093EC42B093C9
:1056E000ED42EFEEF2E480819181A281B3810097D7
:1056F000A105B10539F00197A109B1098083918312
:10570000A283B383359683E4EA33F80761F7FF9108
:10571000EF91BF91AF919F918F910F900BBE0F9022
:105720000FBE0F901F90189532E03093C00028E90B
:105730002093C10096E09093C2001092C50080E1D2
:105740008093C40030933001209331019093320153
:1057500010923501809334013093D0002093D10012
:105760009093D2001092D5008093D4003093C8005B
:105770002093C9009093CA001092CD008093CC0072
:105780006898699A709A6A98729880988898A4E044
:10579000B1E08C918E7F8C938C9182608C93E5E04C
:1057A000F1E08081816080838C918B7F8C938081FC
:1057B0008B7F808381988998E1E0F1E08081866029
:1057C000808380818E7F8083E2E0F1E08081816050
:1057D00080838081897F808380818B7F8083549ABE
:1057E0005298539A5A9A5B985C9808955C9A0895D7
:1057F0005C980895E2E0F1E0808184608083089500
:10580000E2E0F1E080818B7F808308951F920F9208
:105810000FB60F920BB60F9211242F938F939F9375
:10582000EF93FF93F8948091C00087FFFCCF8093A3
:1058300044452091C600209340448091172390E076
:10584000FC01E35CFC4B208301968F779070809382
:105850001723809118238F5F809318237894FF91EA
:10586000EF919F918F912F910F900BBE0F900FBED4
:105870000F901F9018951F920F920FB60F920BB6B4
:105880000F9211242F933F938F939F93EF93FF9346
:1058900030911B23332389F08091192390E0FC0180
:1058A000E15CFB4B20812093C60001968F779070BE
:1058B00080931923315030931B238091C1008F7D39
:1058C0008093C100FF91EF919F918F913F912F9114
:1058D0000F900BBE0F900FBE0F901F9018951F9248
:1058E0000F920FB60F920BB60F9211242F933F9386
:1058F0008F939F93EF93FF9330911B23332389F072
:105900008091192390E0FC01E15CFB4B2081209306
:10591000C60001968F779070809319233150309391
:105920001B23FF91EF919F918F913F912F910F90AA
:105930000BBE0F900FBE0F901F901895DC01F894CE
:10594000809118238823B1F0815080931823789494
:10595000E0911623F0E0E35CFC4B80818C93809116
:10596000162390E001968F7790708093162321E0A4
:1059700030E003C0789420E030E0C9010895982F0A
:105980008091C00085FFFCCF9093C60081E090E03D
:1059900008951F920F920FB60F920BB60F9211241B
:1059A0002F938F939F93EF93FF93F8948091C80068
:1059B00087FFFCCF80933E442091CE0020933A4352
:1059C00080911D2390E0FC01ED53FB4B2083019659
:1059D0008F77907080931D2380911E238F5F80931B
:1059E0001E237894FF91EF919F918F912F910F90AB
:1059F0000BBE0F900FBE0F901F9018951F920F9225
:105A00000FB60F920BB60F9211242F933F938F93E3
:105A10009F93EF93FF9330912123332389F080915B
:105A20001F2390E0FC01E75CFC4B20812093CE001B
:105A300001968F77907080931F23315030932123EC
:105A40008091C9008F7D8093C900FF91EF919F9154
:105A50008F913F912F910F900BBE0F900FBE0F9023
:105A60001F9018951F920F920FB60F920BB60F92C0
:105A700011242F933F938F939F93EF93FF93309134
:105A80002123332389F080911F2390E0FC01E75C00
:105A9000FC4B20812093CE0001968F7790708093ED
:105AA0001F23315030932123FF91EF919F918F91CC
:105AB0003F912F910F900BBE0F900FBE0F901F9034
:105AC0001895DC01F89480911E238823B1F0815051
:105AD00080931E237894E0911C23F0E0ED53FB4B60
:105AE00080818C9380911C2390E001968F77907039
:105AF00080931C2321E030E003C0789420E030E064
:105B0000C9010895982F8091C80085FFFCCF90931C
:105B1000CE0081E090E008951F920F920FB60F9291
:105B20000BB60F9211242F938F939F93EF93FF93B4
:105B3000F8948091D00087FFFCCF8093BD432091E3
:105B4000D60020933B438091232390E0FC01EE5B41
:105B5000FB4B208301968F77907080932323809155
:105B600024238F5F809324237894FF91EF919F915A
:105B70008F912F910F900BBE0F900FBE0F901F9023
:105B800018951F920F920FB60F920BB60F92112419
:105B90002F933F938F939F93EF93FF9330912723FE
:105BA000332389F08091252390E0FC01EE53FB4BD9
:105BB00020812093D60001968F77907080932523C3
:105BC0003150309327238091D1008F7D8093D10075
:105BD000FF91EF919F918F913F912F910F900BBE6D
:105BE0000F900FBE0F901F9018951F920F920FB637
:105BF0000F920BB60F9211242F933F938F939F9385
:105C0000EF93FF9330912723332389F0809125234D
:105C100090E0FC01EE53FB4B20812093D6000196CF
:105C20008F77907080932523315030932723FF91F5
:105C3000EF919F918F913F912F910F900BBE0F90FD
:105C40000FBE0F901F901895DC01F89480912423CB
:105C50008823B1F08150809324237894E09122230B
:105C6000F0E0EE5BFB4B80818C938091222390E0EF
:105C700001968F7790708093222321E030E003C05B
:105C8000789420E030E0C9010895982F8091D000E9
:105C900085FFFCCF9093D60081E090E008951F929D
:105CA0000F920FB60F920BB60F9211242F938F9372
:105CB0009F93EF93FF93F8948091300187FFFCCF7F
:105CC00080933C43209136012093434580912923C2
:105CD00090E0FC01E254FC4B208301968F7790709A
:105CE0008093292380912A238F5F80932A2378949D
:105CF000FF91EF919F918F912F910F900BBE0F907D
:105D00000FBE0F901F9018951F920F920FB60F9213
:105D10000BB60F9211242F933F938F939F93EF9382
:105D2000FF9330912D23332389F080912B2390E032
:105D3000FC01EF5BFB4B20812093360101968F77AE
:105D4000907080932B23315030932D23809131011B
:105D50008F7D80933101FF91EF919F918F913F91C2
:105D60002F910F900BBE0F900FBE0F901F901895A4
:105D70001F920F920FB60F920BB60F9211242F9312
:105D80003F938F939F93EF93FF9330912D23332372
:105D900089F080912B2390E0FC01EF5BFB4B20818D
:105DA0002093360101968F77907080932B2331508A
:105DB00030932D23FF91EF919F918F913F912F91E0
:105DC0000F900BBE0F900FBE0F901F901895DC0127
:105DD000F89480912A238823B1F0815080932A235C
:105DE0007894E0912823F0E0E254FC4B80818C937E
:105DF0008091282390E001968F77907080932823DC
:105E000021E030E003C0789420E030E0C90108953B
:105E1000982F8091300185FFFCCF9093360181E06F
:105E200090E0089580912E2390912F23891710F0F0
:105E3000891B08958E5C891B089580913023909171
:105E40003123891710F0891B0895865F891B0895F7
:105E50000E946B35089590912E2380912F239817DF
:105E600008F49E5C981B11F480E008958F5F809386
:105E70002F2390E0FC01EC5BFB4A26E0880F991F82
:105E80002A95E1F78B5F9A4B60810E946B35809178
:105E90002F23823310F481E0089510922F2381E0A4
:105EA00008951F93482F792F162F2091302380912A
:105EB0003123281720F0922F981B892F05C0265FC9
:105EC000922F981B892F2A508830E0F430E056E05A
:105ED000220F331F5A95E1F72B533E4AC901642F15
:105EE000412F50E00E94834980913023E82FF0E059
:105EF000E958FB4A10838F5F809330238A3010F07B
:105F0000109230231F9108951F93482F792F162F39
:105F100020912E2380912F23281720F0922F981B59
:105F2000892F05C02E5C922F981B892F2253803316
:105F3000E0F430E066E0220F331F6A95E1F72B5B57
:105F40003A4BC901642F412F50E00E948349809150
:105F50002E23E82FF0E0EB5BFB4A10838F5F8093EA
:105F60002E23823310F010922E231F910895BF929A
:105F7000CF92DF92EF92FF920F931F93CF93DF9315
:105F8000382FEA01F22EBC80CD80DE80EF807C834A
:105F90006D838091B73D8E838091B63D8F8333238F
:105FA00029F4CA01622F0E94842F28C0343029F4BA
:105FB000CA01622F0E94512F21C0CB010E949C0078
:105FC0008C010097D9F0FC0180819181F0E280344E
:105FD0009F0751F0F80163857485892B51F481E0A6
:105FE000AE012F2D0E940738F8016385748582E089
:105FF00001C081E0AE012F2D0E940738BC82CD8206
:10600000DE82EF82DF91CF911F910F91FF90EF9091
:10601000DF90CF90BF9008959091302380913123ED
:10602000981708F4965F981B11F480E008958F5F2D
:106030008093312390E0FC01EA58FB4A76E0880F18
:10604000991F7A95E1F78B579E4A60810E94F3343D
:10605000809131238A3010F481E008951092312329
:1060600081E00895EF92FF920F931F93FC017B0153
:10607000A181B2816381148125810681478180815C
:10608000803819F59B2F80E070E0682B792B912FD9
:1060900080E030E0282B392B902F80E050E0482B17
:1060A000592BA13249F0A03A61F0A13071F484E09B
:1060B0008F010E94072009C084E08F010E944520C3
:1060C00004C084E08F010E94C4261F910F91FF90AD
:1060D000EF900895EF92FF920F931F93FC017B01C5
:1060E0001181A2816381B4812581368147818081BC
:1060F000803809F04CC09A2F80E070E0682B792B33
:106100009B2F80E0A22FB0E0A82BB92B932F80E02B
:1061100050E0482B592B1132A9F0103A31F11130CF
:10612000B1F58091B63D9091B73DA817B90721F020
:106130008FEFAF3FB80759F580E09D018F010E94B6
:10614000072025C0918580E0228530E0822B932BAB
:106150002091B63D3091B73D82179307C1F480E09E
:106160009D018F010E94452012C0938580E0248507
:1061700030E0822B932B2091B63D3091B73D8217B2
:10618000930729F480E09D018F010E94C4261F918E
:106190000F91FF90EF9008956F927F928F929F9250
:1061A000AF92BF92CF92DF92EF92FF920F931F9325
:1061B000CF93DF938C017B016A01FB01A080B1804A
:1061C0009280838074806580968180E02781C22FD1
:1061D000D0E0C82BD92B209799F0CE010E949C00CB
:1061E000FC01009731F014870387168281E08087D5
:1061F00007C0CE0160E070E040E020E00E94CE00E9
:10620000F0E8AF1649F5992D80E0682D70E0682B15
:10621000792B972D80E0262D30E0282B392B81E239
:10622000B81669F0E0EABE1689F0F1E0BF16A1F4F5
:1062300083E0AE01870176010E9407200DC083E054
:10624000AE01870176010E94452006C083E0AE01C1
:10625000870176010E94C426DF91CF911F910F9193
:10626000FF90EF90DF90CF90BF90AF909F908F9076
:106270007F906F90089590934F2380934E23709357
:1062800051236093502380E0089590934B23809393
:106290004A2370934D2360934C2380E0089590939C
:1062A000452380934423709349236093482380E0DF
:1062B000089590933F2380933E23709343236093EC
:1062C000422380E008950F931F93CF93DF939C01A7
:1062D0008091502390915123892B11F48FEF4FC05F
:1062E000D901F90190E020E003C08191280F9F5F60
:1062F0009617D8F38AEF8093C1546093C25490E00C
:1063000006C0F0E0EF53FB4A8D9180839F5FE92F39
:10631000EE5F9617B0F36E5FE62FF0E06250EF533A
:10632000FB4A2083262F2D5F862F90E004968770EE
:106330009070682F61508FEA05C0AF53BB4A8C93B1
:10634000292F6F5FA22FB0E0922F9F5F6730A8F3D5
:10635000AF53BB4A8FEA8C9301EC14E5C92FD0E010
:10636000C00FD11F08C0E0915023F0915123D801F4
:106370008D918D0119950C171D07A9F780E0DF910C
:10638000CF911F910F910895FF920F931F93DF9369
:10639000CF930F92CDB7DEB7082FF92E162FE091CD
:1063A0004E23F0914F23309711F44FEF80C0CE0170
:1063B00001961995181619060CF078C0212F30E0B7
:1063C00080913223909133238217930724F0109207
:1063D0003323109232234091322350913323298169
:1063E000FA01EF57FB4A2083CA01019690933323A9
:1063F000809332232A3F71F4809181548A3F09F4BB
:1064000055C02093815481E090E090933323809392
:1064100032234CC02F3A09F049C006970CF446C00D
:1064200080918254282F30E0CA010297281739073B
:10643000ECF5CA0103972817390764F08217930710
:1064400049F4A3E8B4E590E0FA0131979F012F5792
:106450003B4A07C0109233231092322327C08D91FC
:10646000980FA217B307D9F7EF57FB4A8081981707
:10647000E9F4802F9F2D9C01D90122E030E007C074
:10648000F901EF57FB4A80818D932F5F3F4F422FD9
:106490004250809132239091332302972817390775
:1064A0007CF3109233231092322301C040E0842FFA
:1064B0000F90CF91DF911F910F91FF9008950F934F
:1064C0001F93CF93DF939C0180914C2390914D2398
:1064D000892B11F48FEF4FC0D901F90120E090E032
:1064E00003C08191280F9F5F9617D8F38AEF80939E
:1064F000C1556093C25590E006C0F0E0EF53FA4AF0
:106500008D9180839F5FE92FEE5F9617B0F36E5FEA
:10651000E62FF0E06250EF53FA4A2083262F2D5FDA
:10652000862F90E0049687709070682F61508FEAF4
:1065300005C0AF53BA4A8C93292F6F5FA22FB0E0EA
:10654000922F9F5F6730A8F3AF53BA4A8FEA8C93BC
:1065500001EC15E5C92FD0E0C00FD11F08C0E091B4
:106560004C23F0914D23D8018D918D0119950C1775
:106570001D07A9F780E0DF91CF911F910F9108953A
:10658000FF920F931F93DF93CF930F92CDB7DEB798
:10659000082FF92E162FE0914A23F0914B233097C4
:1065A00011F44FEF80C0CE01019619951816190607
:1065B0000CF078C0212F30E0809134239091352366
:1065C0008217930724F010923523109234234091C0
:1065D0003423509135232981FA01EF5FFA4A208351
:1065E000CA01019690933523809334232A3F71F496
:1065F000809101558A3F09F455C02093015581E0EF
:1066000090E090933523809334234CC02F3A09F0C7
:1066100049C006970CF446C080910255282F30E0FF
:10662000CA01029728173907ECF5CA010397281702
:10663000390764F08217930749F4A3E0B5E590E0C9
:10664000FA0131979F012F5F3A4A07C01092352314
:106650001092342327C08D91980FA217B307D9F752
:10666000EF5FFA4A80819817E9F4802F9F2D9C01F3
:10667000D90122E030E007C0F901EF5FFA4A8081DA
:106680008D932F5F3F4F422F425080913423909142
:1066900035230297281739077CF31092352310927F
:1066A000342301C040E0842F0F90CF91DF911F91E0
:1066B0000F91FF900895EF92FF921F93DF93CF9376
:1066C0000F92CDB7DEB77C01162FE0914423F091F5
:1066D0004523309711F48FEFB3C0CE010196199581
:1066E000181619060CF0ABC02091362330913723D1
:1066F000812F90E02817390724F010924723109239
:10670000462380914623909147238230910509F4D6
:1067100045C08330910534F40097A9F0019709F042
:106720008AC026C08330910521F0049709F083C008
:1067300067C040913823509139234F5F5F4F22E06B
:1067400030E090E050C01092372310923623298118
:106750002A3F09F074C081E090E090934723809332
:10676000462320934155909337238093362367C067
:106770008981F901EF5BFA4A80832F5F3F4F3093A5
:1067800037232093362322E030E0309347232093B1
:106790004623809338231092392351C0F901EF5BCF
:1067A000FA4A898180832F5F3F4F309337232093AC
:1067B00036238091382390913923019682179307CD
:1067C00034F483E090E090934723809346238091B4
:1067D0004355803881F533C0F901EF5BFA4A808177
:1067E000980F2F5F3F4F42175307B4F789818917DE
:1067F00011F584E090E090934723809346231FC0D7
:1068000089818F3AC1F41092472310924623A3E462
:10681000B5E520E030E007C0F701E20FF31F8D91EE
:1068200080832F5F3F4F8091382390913923281721
:10683000390794F305C0109247231092462380E055
:106840000F90CF91DF911F91FF90EF900895EF92FD
:10685000FF921F93DF93CF930F92CDB7DEB77C01EA
:10686000162FE0913E23F0913F23309711F48FEFE4
:10687000B3C0CE0101961995181619060CF0ABC0DD
:1068800020913A2330913B23812F90E0281739073C
:1068900024F0109241231092402380914023909144
:1068A00041238230910509F445C08330910534F4C9
:1068B0000097A9F0019709F08AC026C0833091059E
:1068C00021F0049709F083C067C040913C235091A8
:1068D0003D234F5F5F4F22E030E090E050C01092C8
:1068E0003B2310923A2329812A3F09F074C081E0AA
:1068F00090E090934123809340232093815590937F
:106900003B2380933A2367C08981F901EF57FA4A04
:1069100080832F5F3F4F30933B2320933A2322E025
:1069200030E0309341232093402380933C23109206
:106930003D2351C0F901EF57FA4A898180832F5FC7
:106940003F4F30933B2320933A2380913C239091F7
:106950003D2301968217930734F483E090E09093EF
:1069600041238093402380918355803881F533C043
:10697000F901EF57FA4A8081980F2F5F3F4F421776
:106980005307B4F78981891711F584E090E090935B
:106990004123809340231FC089818F3AC1F4109214
:1069A000412310924023A3E8B5E520E030E007C082
:1069B000F701E20FF31F8D9180832F5F3F4F80918E
:1069C0003C2390913D232817390794F305C010927A
:1069D00041231092402380E00F90CF91DF911F91CF
:1069E000FF90EF900895CF92DF92EF92FF920F9376
:1069F0001F93DF93CF93CDB7DEB7C054D0400FB60F
:106A0000F894DEBF0FBECDBFAC01809142239091C0
:106A10004323892B11F48FEF4EC08AEF89836A8359
:106A2000DE0113968D0170E06E5F7F4F9E012F5F38
:106A30003F4F260F371F06C0FA018191AF01F801C1
:106A400081938F0102171307B9F790E002C08D916F
:106A5000980FA017B107D9F78E010F5F1F4FF801EC
:106A6000E60FF71F90836B010894C11CD11CF8013D
:106A7000EC0DFD1D8FEA80830E94FA2B80EE9EE2D2
:106A80000197F1F7EE24FF24F801EE0DFF1D209190
:106A90004223309143238081F90119950894E11C28
:106AA000F11CCE14DF0484F780EE9EE20197F1F72B
:106AB0000E94002C80E0C05CDF4F0FB6F894DEBF70
:106AC0000FBECDBFCF91DF911F910F91FF90EF903F
:106AD000DF90CF900895CF92DF92EF92FF920F93C5
:106AE0001F93DF93CF93CDB7DEB7C054D0400FB61E
:106AF000F894DEBF0FBECDBFAC01809148239091CA
:106B00004923892B11F48FEF4EC08AEF89836A8362
:106B1000DE0113968D0170E06E5F7F4F9E012F5F47
:106B20003F4F260F371F06C0FA018191AF01F801D0
:106B300081938F0102171307B9F790E002C08D917E
:106B4000980FA017B107D9F78E010F5F1F4FF801FB
:106B5000E60FF71F90836B010894C11CD11CF8014C
:106B6000EC0DFD1D8FEA80830E94F62B80EE9EE2E5
:106B70000197F1F7EE24FF24F801EE0DFF1D20919F
:106B80004823309149238081F90119950894E11C2B
:106B9000F11CCE14DF0484F780EE9EE20197F1F73A
:106BA0000E94F82B80E0C05CDF4F0FB6F894DEBF88
:106BB0000FBECDBFCF91DF911F910F91FF90EF904E
:106BC000DF90CF900895813029F4909153238091E4
:106BD000522308C0823011F090E006C090915523F6
:106BE00080915423981B9F72892F0895813019F446
:106BF0008091B53D0895809198340895813019F4BD
:106C000080915623089580915723089530E050E0F5
:106C1000BFEAAAEF24C0FB01E50FF11D20812F3F41
:106C2000C1F421812F3F29F4FC01E30FF11D2083E2
:106C30000DC0213029F4FC01E30FF11DA08306C033
:106C4000223029F4FC01E30FF11DB0833F5F5F5F49
:106C500005C0FC01E30FF11D20833F5F5F5F541708
:106C6000D0F2832F0895CF93DF93DC01EB0180E016
:106C700020E03FEF62E051E02CC098819A3F51F450
:106C8000FD01E80FF11D30838F5FFD01E80FF11D5D
:106C900050830BC09F3A59F4FD01E80FF11D30837A
:106CA0008F5FFD01E80FF11D60838F5F10C0E82F3B
:106CB000F0E08F5F9F3F41F4EA0FFB1F9083FD01DF
:106CC000E80FF11D9083F1CFEA0FFB1F90832F5F38
:106CD0002196241790F2DF91CF9108951092216FA1
:106CE00090E49093226F95E09093236F6093246FCC
:106CF000813031F481E29FE664E00E9463310895BF
:106D000081E29FE664E00E945F3208951092216F55
:106D100090E49093226F92E09093236F6093246F9E
:106D2000813031F481E29FE664E00E94633108958E
:106D300081E29FE664E00E945F3208951092216F25
:106D400090E39093226F7093236F6093246F813050
:106D500031F481E29FE664E00E946331089581E2AC
:106D60009FE664E00E945F3208951092216F91E0E7
:106D70009093226F9093236F813031F481E29FE6EC
:106D800063E00E946331089581E29FE663E00E9420
:106D90005F3208951092216F90E19093226F1092CC
:106DA000236F813031F481E29FE663E00E9463311A
:106DB000089581E29FE663E00E945F320895109299
:106DC000216F1092226F813031F481E29FE662E000
:106DD0000E946331089581E29FE662E00E945F3283
:106DE0000895FF920F931F93CF93DF93F82EFB012B
:106DF00081E0F81619F4C5EBDDE308C082E0F8166F
:106E000019F4C8E9D4E302C0C0E0D0E08081833047
:106E100009F489C0843030F4813051F0823009F0B7
:106E20008AC077C08131A9F1813A09F084C06DC070
:106E3000938580E0248530E0822B932B9A8389838D
:106E4000958580E0068510E0082B192B1C830B83A9
:106E50000E94654190E091600817190761F00E9457
:106E60006541682F70E071608F2D0E949E368F2DD6
:106E70000E94B53660C081E0F81619F48091B53DE6
:106E800002C080919834833011F081E088838F2D87
:106E900019C001850D8381E0F816B9F40E9465419F
:106EA000202F30E090E08F7090700B9628173907F4
:106EB00049F10E946541682F6F70655F81E00E9413
:106EC000863681E00E94CA3636C082E0F81699F50F
:106ED0000E946541202F30E090E008968F709070FE
:106EE0000B962817390771F00E946541682F70E0F2
:106EF000685F7F4F6F707070655F82E00E948636BA
:106F000082E0E0CF83E0888316C08F2D0E94DF36B9
:106F100012C081E0F81619F4F09256230CC081E0FB
:106F20008093572308C081E0F81619F41092562375
:106F300002C010925723DF91CF911F910F91FF90C4
:106F40000895EF92FF920F931F93CF93DF93182F23
:106F5000EB01F42EE52E022F0E94E3358F3208F06C
:106F60004FC0113031F52091532383E4289F9001C5
:106F700011242C563D49C9016F2D7E2D402F50E024
:106F80000E94834940915323242F30E083E490E012
:106F9000289FF001299FF00D389FF00D1124EF5626
:106FA000FD490283D183C0834F5F4F7240935323C7
:106FB00027C0123029F52091552383E4289F9001A2
:106FC00011242C5F394AC9016F2D7E2D402F50E0CE
:106FD0000E94834940915523242F30E083E490E0C0
:106FE000289FF001299FF00D389FF00D1124EF5FCD
:106FF000F94A0283D183C0834F5F4F724093552378
:10700000DF91CF911F910F91FF90EF900895DF9244
:10701000EF92FF920F931F93D82EF62EE72E01E2E8
:107020001FE680E18093216F7093226F6093236F3E
:107030001092246F1092256FC8010596BA01422F55
:107040000E943336282F2B5F8D2D6F2D7E2DA801AA
:107050000E94A1371F910F91FF90EF90DF9008954C
:107060000F931F93CF93DF93082FEB010E94E3351B
:10707000882309F458C0013039F58091522390E0FB
:10708000BE016D5F7F4F03E410E0809F9001819F00
:10709000300D909F300D1124F901EF56FD494281CA
:1070A0002C563D49CB01B90150E00E9483498091A3
:1070B000522390E0809FF001819FF00D909FF00D92
:1070C0001124EF56FD4928C0023069F58091542300
:1070D00090E0BE016D5F7F4F03E410E0809F900160
:1070E000819F300D909F300D1124F901EF5FF94A17
:1070F00042812C5F394ACB01B90150E00E9483499B
:107100008091542390E0809FF001819FF00D909F2B
:10711000F00D1124EF5FF94A22812A838081918149
:107120009983888301C020E0822FDF91CF911F9146
:107130000F9108950F931F93182F0E943038082F36
:10714000812F0E94E335882389F0113039F4809132
:1071500052238F5F8F728093522308C0123031F414
:10716000809154238F5F8F7280935423802F1F91BF
:107170000F9108950F931F93CF93DF93182F8130B2
:1071800019F0C7E5D3E202C0C6E5D3E2812F0E9421
:10719000E335882331F1113019F48091B53D02C0F7
:1071A000809198348330E9F4113019F4809156239A
:1071B00002C0809157238130A1F4812F69EA73E2E4
:1071C0000E949A38E12FF0E0EE0FFF1FEE0FFF1F35
:1071D000E85AFC4D1082118212821382188201E05B
:1071E00001C000E0812F0E94E335882309F46CC0C0
:1071F000113019F48091B53D02C0809198348330EC
:1072000009F062C0113019F48091562302C08091B8
:1072100057238230E1F4E12FF0E0EE0FFF1FEE0F75
:10722000FF1FE058FC4D80819181A281B3810196BE
:10723000A11DB11D80839183A283B3830397A10510
:10724000B10558F110821182128213821882812FA7
:1072500069EA73E20E9430388093A8238823A1F161
:10726000E12FF0E0EE0FFF1FEE0FFF1FE85AFC4D7D
:1072700080819181A281B3810196A11DB11D80837E
:107280009183A283B3830B97A105B10540F01082CF
:1072900011821282138281E0888300E015C082E0AF
:1072A0008883113039F48CEA93E26091AB230E9419
:1072B000633108C0123031F48CEA93E26091AB2361
:1072C0000E945F321092A823802FDF91CF911F91EF
:1072D0000F91089581E090E061E67FE64AE00E9428
:1072E00071079091616F80E02091626F30E0822B96
:1072F000932B9093FB3E8093FA3E8091636F809333
:10730000FC3E8091646F8093FD3E9091656F80E0BC
:107310002091666F30E0822B932B9093FF3E8093F9
:10732000FE3E8091676F8093003F8091686F8093ED
:10733000013F08959091FA3E8091FB3E8093616FEA
:107340009093626F8091FC3E8093636F8091FD3ECD
:107350008093646F9091FE3E8091FF3E8093656FB5
:107360009093666F8091003F8093676F8091013F9B
:107370008093686F81E090E061E67FE648E00E94DC
:107380005D0708958091EC6F8093003F8091EB6FD3
:107390008093013F0E949A3908958091FA3E90911E
:1073A000FB3E01969093FB3E8093FA3E8091EC6FFA
:1073B0008093FC3E8091EB6F8093FD3E0E949A3952
:1073C00008951092FB3E1092FA3E1092FF3E1092EA
:1073D000FE3EECEFFEE31082148231968FE3E13043
:1073E000F807C9F70E949A3908958FEF8093080132
:1073F00080930701559A5D9AEAE0F1E090818083DD
:10740000EBE0F1E0908180839D9A0895729A88EE76
:1074100093E020E931E0F9013197F1F70197D9F7CD
:10742000729808958091050184608093050188EE2B
:1074300093E020E931E0F9013197F1F70197D9F7AD
:10744000809105018B7F80930501089584B7877F24
:1074500084BF28E288E190E00FB6F894A895809365
:1074600060000FBE2093600008958BE090E00E94C2
:10747000002B892BC1F50E94CB072091F12330917D
:10748000F223882391F023333105C4F08091F32354
:1074900090E00E940D088091F3238F5F8093F32387
:1074A000883040F01092F32305C02734310534F0C2
:1074B0000E94D6071092F2231092F1238091F123BB
:1074C0009091F22301969093F2238093F1238BE025
:1074D00090E00E941D2B8BE090E041E050E060E0E6
:1074E00070E00E94EB2A089583E090E00E94002B58
:1074F000892BD9F4A89580911624813011F4A59A8E
:1075000001C0A59810921624882319F481E0809375
:10751000162483E090E00E941D2B83E090E044EF6E
:1075200051E060E070E00E94EB2A089589E090E06D
:107530000E94002B892B39F489E090E00E941D2BDA
:1075400081E00E941D0D08950F931F93CF93DF9349
:1075500087E090E00E94002B892B09F06DC087E046
:1075600090E00E941D2B87E090E044E650E060E050
:1075700070E00E94EB2A8091F4238F5F8093F423C4
:1075800010E00EE017C0CD91DC911197209761F0CB
:1075900090818881981741F0109FC0011124815873
:1075A0009C4C0E94680405C012963196A217B3073E
:1075B00051F71F5F80919734181748F5812F90E09D
:1075C0009C01220F331FD901E3E0AA0FBB1FEA95EC
:1075D000E1F7A21BB30BAB57BC4CFC0173E0EE0F01
:1075E000FF1F7A95E1F7E81BF90BEE0FFF1FEF572E
:1075F000FC4C0196880F991F9C0143E0220F331F1A
:107600004A95E1F7281B390B21583C4CBCCF80919F
:10761000F423853188F01092F42310E00EE008C0C6
:10762000109FC001112481589C4C0E9468041F5F68
:10763000809197341817A0F3DF91CF911F910F918C
:10764000089586E090E00E94002B892B91F486E05B
:1076500090E00E941D2B86E090E042E350E060E065
:1076600070E00E94EB2A81E00E94BA3882E00E941A
:10767000BA3808958AE090E00E94002B892B91F49B
:107680000E94CB07882311F00E940C308AE090E022
:107690000E941D2B8AE090E04AE050E060E070E03C
:1076A0000E94EB2A08958EE690E760E40E9427345A
:1076B000682F8093F523882329F08EE690E770E009
:1076C0000E943230089585E090E00E94002B892BC3
:1076D00031F50E94BD0B882379F00E942B2F88235F
:1076E00059F48091F6238B3038F080E060E070E050
:1076F0000E9400151092F6238091F623843618F428
:107700008F5F8093F62385E090E00E941D2B85E03B
:1077100090E04AE050E060E070E00E94EB2A82E0F6
:1077200090E00E94002B892B19F50E94BA0B813042
:1077300099F081E00E94F635833071F480E00E9478
:10774000C31582E090E00E941D2B82E090E048E8A3
:1077500053E160E070E00AC082E090E00E941D2BDF
:1077600082E090E040E65AEE60E070E00E94EB2A92
:1077700081E090E00E94002B892B81F48091B63D3E
:107780000E94001681E090E00E941D2B81E090E0B5
:1077900040E157E260E070E00E94EB2A08958EE23B
:1077A00090E760E40E945B33682F8093F72388237F
:1077B00029F08EE290E770E00E946A300895DF922F
:1077C000EF92FF920F931F9388E090E00E94002BAE
:1077D000892B09F0CBC0809103229091042201965D
:1077E00090930422809303220197059751F481E03E
:1077F0000E94DF3682E00E94DF361092042210924F
:1078000003228091FB239091FC2301969093FC230B
:107810008093FB238091F9239091FA230196909312
:10782000FA238093F923D090F62C60E040E0ADE09D
:10783000B0E031C0242F30E02A9FF0012B9FF00DE3
:107840003A9FF00D1124EA51F74D8085813019F4EB
:1078500086818F5F86832A9FF0012B9FF00D3A9FD0
:10786000F00D1124EA51F74D8681893708F0108612
:107870002A9FF0012B9FF00D3A9FF00D1124EA5141
:10788000F74D8085882331F4808191818055904225
:1078900009F46F5F4F5F4D1568F24093F82370E075
:1078A000882777FD8095982F0E94EA457B018C01FF
:1078B0006D2D70E0882777FD8095982F0E94EA450E
:1078C0009B01AC01C801B7010E94AE442DEC3CEC19
:1078D0004CE45EE30E945A451816E4F50E94063A0D
:1078E00020E044E650E01BC0A22FB0E0FD01EA5EBC
:1078F000FA4D8081823091F4FD01EE0FFF1FEA5CAA
:10790000FA4D808191818F5F9F4F41F0AA0FBB1F7D
:10791000AA5ABA4D1D921C92518340832F5F203189
:1079200018F33091F62C20E04DE050E061E00EC0FD
:10793000822F90E0849FF001859FF00D949FF00DC1
:107940001124EA51F74D608716822F5F231780F3C9
:107950002093F82388E090E00E941D2B88E090E0BF
:1079600048EE53E060E070E00E94EB2A8091FB2338
:107970009091FC23459778F10E94063A1092FC23DF
:107980001092FB238091F62C882329F11092F82382
:1079900020E044E650E01BC0A22FB0E0FD01EA5E0B
:1079A000FA4D8081823091F4FD01EE0FFF1FEA5CF9
:1079B000FA4D808191818F5F9F4F41F0AA0FBB1FCD
:1079C000AA5ABA4D1D921C92518340832F5F2031D9
:1079D00018F32093F8238091F9239091FA23CD97FF
:1079E00030F00E94123A1092FA231092F9238DEE91
:1079F0009FE660E40E94C431482F8093FD238823D2
:107A000079F18091ED6F882321F1803149F581E092
:107A10000E94F635833021F59091F06F80E000915F
:107A2000F16F10E0082B192B4091FD2345508BEA94
:107A30009FE662EF7FE60E940636482FC8016BEA98
:107A40007FE650E00E94CC301092FC231092FB2382
:107A500007C0415081E06EEE7FE650E00E94F136B3
:107A60008DEE9FE660E40E94C032482F8093FD2394
:107A7000882379F18091ED6F882321F1803149F5D8
:107A800082E00E94F635833021F59091F06F80E01E
:107A90000091F16F10E0082B192B4091FD23455008
:107AA0008BEA9FE662EF7FE60E940636482FC80108
:107AB0006BEA7FE650E00E94CC301092FA231092DD
:107AC000F92307C0415082E06EEE7FE650E00E944D
:107AD000F1361F910F91FF90EF90DF9008952F9254
:107AE0003F924F925F926F927F928F929F92AF924E
:107AF000BF92CF92DF92EF92FF920F931F93DF938B
:107B0000CF93CDB7DEB7C25ED0400FB6F894DEBFDC
:107B10000FBECDBF84E090E00E94002B892B09F0BE
:107B2000EBC280910E2490910F24019690930F2424
:107B300080930E2488559240C0F08091EB6F8F5F48
:107B40008093EB6F8C3338F08091EC6F8F5F809374
:107B5000EC6F1092EB6F8091EC6F883110F0109207
:107B6000EC6F10920F2410920E2480910E249091AD
:107B70000F246CE271E00E941649039709F049C096
:107B8000E6EEAE2EE8E2BE2ECC24DD247BE0472ECE
:107B9000512C4C0E5D1E64E2E62E58E1852E912C90
:107BA0008C0E9D1E3E010894611C711C2CC0D201DC
:107BB000F5018DE001900D928150E1F71D85FE8465
:107BC0008B859C8580559042B9F4E982FA821B83AB
:107BD000FC821D834091B63D5091B73DC401612F99
:107BE0007F2D930105E00E94B70C282F83E0612FC1
:107BF0007F2DA4010E94B72F0894C11CD11C8DE0D9
:107C000090E0A80EB91E8091F62C90E0C816D90617
:107C100074F280910E2490910F246CE271E00E9426
:107C20001649449709F014C1662477244BE0242EAA
:107C3000312CFAC0D40112968D919C9113970E9419
:107C40009C00FC01D40118968C911897882339F177
:107C50002D913C9111978091B63D9091B73D281799
:107C60003907E9F43097D9F014968C91C052DF4F60
:107C7000B881C05ED0408B1749F481859285A0E021
:107C8000B0E0E80EF91E0A1F1B1F43948185928500
:107C9000A0E0B0E0A80EB91ECA1EDB1E5394E9E0B6
:107CA000F0E08E0E9F1EF5EB8F16FDE39F0611F69A
:107CB0009A2C8B2CCF51DF4FC882C15ED040CE5161
:107CC000DF4FD882C25ED040442061F0242D30E0E6
:107CD00040E050E0B701C8010E942A49C901DA0119
:107CE0007C018D015520B1F0252D30E040E050E0C1
:107CF000692D782DCF51DF4F8881C15ED040CE51A4
:107D0000DF4F9881C25ED0400E942A49C901DA0142
:107D10005C016D01442011F486017501F301EA5EF6
:107D2000FA4D6081862F80528B3008F055C0E62FC7
:107D3000F0E0B09726E430E0E29FC001E39F900DB1
:107D4000F29F900D1124A8EEB3E0A81BB90BCD0152
:107D50009D0140E050E0E216F30604071507A8F481
:107D60008E199F098D38910558F1629CD001639C52
:107D7000B00D729CB00D1124AE0FBF1FAA56BA4DA4
:107D80008C918131E8F081501AC02E153F054007D3
:107D90005107B0F497012A1B3B0B2D38310580F0B9
:107DA000629CD001639CB00D729CB00D1124AE0F8B
:107DB000BF1FAA56BA4D8C918A3110F48F5F8C93F5
:107DC000629CC001639C900D729C900D1124E80F81
:107DD000F91FEA5BF94D108240E0629C9001639CC0
:107DE000300D729C300D11242A5E3A4D862F805141
:107DF00010C0D901A40FB11DFD01E05DFE4F9081BF
:107E00009C3318F49F5F908303C0A058BF4F8C939E
:107E10004F5F4B3070F3409314240894611C711C25
:107E200030E16316710491F0C052DF4F6882C05E8A
:107E3000D0403EEB832E34E3932E55244424AA24D1
:107E4000BB246501EE24FF248701F4CE0E94C239D1
:107E5000809112249091132401969093132480937F
:107E6000122489559240D8F00E94BA0B813099F4BF
:107E7000E090ED23F090EE230091EF231091F0239A
:107E80002091B63D3091B73D80E060E070E040E089
:107E900050E00E94471210921324109212248091F5
:107EA000102490911124459788F02091B63D30918F
:107EB000B73D80E060E070E040E050E000E010E0BE
:107EC0000E942113109211241092102480911024EA
:107ED0009091112401969093112480931024109274
:107EE00015242BE0E22EF12CBBC0262F30E0D90167
:107EF000AA5EBA4D9C919230F1F58901000F111FD5
:107F00000A5C1A4DF801408151814115510521F457
:107F1000FD01E059FF4F2BC0FFEF4F3F5F0721F1FD
:107F2000B901660F771F6A5A7A4DFB0120813181B2
:107F30002F5F3F4F31832083CA01F3E0880F991FE1
:107F4000FA95E1F7440F551F840F951F281739073D
:107F500058F0FD01E059FF4F808150968C93DB0172
:107F60001D921C92F80157C0FD01E05AFF4F80811D
:107F700050968C9370C0933009F05BC08091EC23D5
:107F80004091EC6F2091EB6F0E947E27E0911524C9
:107F9000823009F049C0F0E0BF01660F771F6A5CCC
:107FA0007A4DDB014D915C914115510541F4EA5E3A
:107FB000FA4DE059FF4F8081E057F04038C0BFEFE5
:107FC0004F3F5B0719F4EA5EFA4D28C0DF01AA0FA4
:107FD000BB1FAA5ABA4D2D913C9111972F5F3F4F6D
:107FE00011963C932E93CA0103E0880F991F0A95BE
:107FF000E1F7440F551F840F951FEA5EFA4D2817CD
:10800000390760F0E059FF4F8081E057F040808BE6
:108010001D921C92FB01118210821DC0E05AFF4F7D
:108020008081E056F04003C0F0E0EA5EFA4D808BBC
:1080300012C0892F80528B3060F42E9DF0012F9D4D
:10804000F00D3E9DF00D1124EA5EFA4DE90FF11D91
:108050008CCF50969C93809115248F5F809315242C
:1080600060911524603108F440CF1092152430C07F
:1080700090E0FC01EA5EFA4D2089222319F40E9467
:10808000642702C00E942527E0911524F0E0DF015B
:10809000AA5EBA4DE250FC4D908150968C91981793
:1080A00041F087E090E040E050E060E070E00E9446
:1080B000EB2A80911524E82FF0E0DF01AA5EBA4D8B
:1080C00050969C91E250FC4D90838F5F80931524D5
:1080D00080911524803160F28BB190E289278BB9B1
:1080E00084E090E00E941D2B84E090E044E650E0A4
:1080F00060E070E00E94EB2ACE51DF4F0FB6F8949B
:10810000DEBF0FBECDBFCF91DF911F910F91FF90CA
:10811000EF90DF90CF90BF90AF909F908F907F9027
:108120006F905F904F903F902F9008950E94F53987
:108130000E94544190E895BF8AEC8093740090931C
:1081400075000E94942B0E942D2B0E946A0584B713
:10815000877F84BF28E288E190E00FB6F894A89565
:10816000809360000FBE20936000A89580E197E2A5
:1081700020E931E0F9013197F1F70197D9F7A89596
:108180000E94AC280E94B5010E944F0B0E94390A40
:108190000E9489220E94F1040E946A390E94CD390E
:1081A000A8958EE99CE26FEB7CE20E943B3187EE62
:1081B0009EE268E07FE20E94453181E69DE262E84E
:1081C0007DE20E944F3184E29EE265E47EE20E94FD
:1081D000593183E090E044EF51E060E070E00E94AC
:1081E000EB2A84E090E040ED57E060E070E00E9410
:1081F000EB2A82E090E048E853E160E070E00E9402
:10820000EB2A85E090E04AE050E060E070E00E94F8
:10821000EB2A8AE090E04AE050E060E070E00E94E3
:10822000EB2A86E090E040E157E260E070E00E94D7
:10823000EB2A87E090E040E157E260E070E00E94C6
:10824000EB2A88E090E048EE53E060E070E00E94A6
:10825000EB2A8BE090E048EE53E060E070E00E9493
:10826000EB2A81E063E10E946E3682E063E10E94C6
:108270006E360E94063A0E94123A0E94743A0E9498
:108280006F3D0E94DF3B0E94213B0E94A43A0E9466
:10829000CF3B0E94633B0E94533B0E943A3B0E94AB
:1082A000963A0E94353AE9CFE1E0F1E080818F70A3
:1082B00080838DB18F708DB9E2E0F1E08081806FB5
:1082C00080838EB1806F8EB90895909100018CB13A
:1082D00082958F70907F892B80950895FC0120E016
:1082E00030E04CE050E09081892F80538A3020F4B8
:1082F000892F90E0C09710C0892F8154863020F4D8
:10830000892F90E0C79708C0892F8156863060F486
:10831000892F90E087559040042E02C0880F991F46
:108320000A94E2F7282B392B3196445050408FEFB6
:108330004C3F5807C1F6C9010895FC0140E024E014
:1083400030E09081892F80538A3020F4892F90E08B
:10835000C09710C0892F8154863020F4892F90E077
:10836000C79708C0892F8156863058F4892F90E02E
:1083700087559040022E02C0880F991F0A94E2F799
:10838000482B3196245030408FEF2C3F3807C9F6E8
:10839000842F0895282F30E02F7030702A30310557
:1083A0001CF48F70805D08952A50304026303105CE
:1083B00010F080E008958F70895C0895EF92FF922D
:1083C0000F931F937B018C0120E030E040E05FE4DD
:1083D0000E948A4588238CF0C801B70120E030E074
:1083E00040E05FE40E9456430E9448469B01AC0176
:1083F000205030404040504806C0C801B7010E949C
:1084000048469B01AC01B901CA011F910F91FF9031
:10841000EF900895A0E0B0E0E0E1F2E40C944C4964
:10842000DC012B01FA019C91923008F439C1EB0177
:108430008881823008F433C1943069F4843009F0C3
:108440002FC111969C9111978981981709F428C121
:10845000A5E0B2E225C1843009F421C18230A9F43B
:10846000923009F01DC19A01AD0188E0EA0109903E
:10847000AE01E90109929E018150C1F7E2018981B3
:1084800011969C918923818308C1923009F407C118
:1084900012962D903C901397EB018A819B81149644
:1084A000AD90BD90CD90DC901797EC80FD800E8153
:1084B0001F819101281B390BB90137FF04C06627C2
:1084C0007727621B730B603271050CF061C01216C6
:1084D00013066CF537014801062E04C09694879464
:1084E000779467940A94D2F721E030E040E050E0BE
:1084F00004C0220F331F441F551F6A95D2F7215025
:108500003040404050402E213F214023512321152F
:1085100031054105510521F021E030E040E050E017
:1085200079018A01E628F728082919293CC0232B5C
:10853000D1F1260E371E35014601062E04C0969451
:108540008794779467940A94D2F721E030E040E072
:1085500050E004C0220F331F441F551F6A95D2F705
:1085600021503040404050402A213B214C215D2188
:10857000211531054105510521F021E030E040E0B1
:1085800050E059016A01A628B728C828D9280BC08D
:10859000821593052CF01C01AA24BB24650103C09D
:1085A000EE24FF24870111969C91D20111968C91A3
:1085B000981709F445C0992339F0A80197012A19A1
:1085C0003B094C095D0906C0A60195012E193F091A
:1085D000400B510B57FD08C0118233822282248345
:1085E0003583468357831DC081E081833382228295
:1085F00088279927DC01821B930BA40BB50B84837E
:108600009583A683B7830DC0220F331F441F551FC8
:108610002483358346835783828193810197938393
:1086200082832481358146815781DA01C90101970E
:10863000A109B1098F5F9F4FAF4FBF4328F30BC014
:10864000918333822282EA0CFB1C0C1D1D1DE482E7
:10865000F5820683178383E08083248135814681F8
:10866000578157FF1AC0C901AA2797FDA095BA2FB5
:1086700081709070A070B07056954795379527958A
:10868000822B932BA42BB52B84839583A683B7834E
:1086900082819381019693838283DF0101C0D2019D
:1086A000CD01CDB7DEB7E2E10C946849A0E2B0E0BD
:1086B000ECE5F3E40C94584969837A838B839C83BB
:1086C0002D833E834F835887E9E0EE2EF12CEC0E8C
:1086D000FD1ECE010196B7010E9439488E010F5E42
:1086E0001F4FCE010596B8010E9439488A8991E052
:1086F00089278A8BC701B801AE01475E5F4F0E9490
:108700000A420E946447A096E6E00C947449A0E2F5
:10871000B0E0EDE8F3E40C94584969837A838B83E5
:108720009C832D833E834F835887F9E0EF2EF12CF5
:10873000EC0EFD1ECE010196B7010E9439488E0154
:108740000F5E1F4FCE010596B8010E943948C70140
:10875000B801AE01475E5F4F0E940A420E94644723
:10876000A096E6E00C947449A0E2B0E0EAEBF3E4F2
:108770000C944C4969837A838B839C832D833E833D
:108780004F835887CE010196BE01675F7F4F0E94DD
:108790003948CE010596BE016F5E7F4F0E94394871
:1087A0009985923088F089898230C8F0943019F424
:1087B000823051F404C0843029F4923081F485E091
:1087C00092E2C6C0923049F420E09A858A899813D3
:1087D00021E02A87CE010996BBC0823049F420E00F
:1087E0009A858A89981321E02A8BCE014196B0C0E0
:1087F0002D843E844F8458886D887E888F88988C1D
:10880000EE24FF248701AA24BB24650140E050E048
:1088100060E070E0E0E0F0E0C10181709070892BD1
:10882000E9F0E60CF71C081D191D9A01AB012A0D91
:108830003B1D4C1D5D1D80E090E0A0E0B0E0E61423
:10884000F7040805190520F481E090E0A0E0B0E00D
:10885000BA01A901480F591F6A1F7B1FAA0CBB1C34
:10886000CC1CDD1C97FE08C081E090E0A0E0B0E0E9
:10887000A82AB92ACA2ADB2A3196E032F10549F042
:10888000660C771C881C991C56944794379427943F
:10889000C3CFFA85EA892B893C898B859C85280F73
:1088A000391F2E5F3F4F17C0CA0181709070892B0E
:1088B00061F016950795F794E79480E090E0A0E0CA
:1088C000B0E8E82AF92A0A2B1B2B7695679557956D
:1088D00047952F5F3F4F77FDE7CF0CC0440F551FE3
:1088E000661F771F17FD4160EE0CFF1C001F111F54
:1088F00021503040403090E0590790E0690790E403
:10890000790760F32B8F3C8FDB01CA018F77907062
:10891000A070B07080349105A105B10561F447FDE8
:108920000AC0E114F1040105110529F0405C5F4F14
:108930006F4F7F4F40781A8EFE1711F081E08A8FBB
:108940004D8F5E8F6F8F78A383E0898FCE0149961C
:108950000E946447A096E2E10C946849A8E1B0E067
:10896000E4EBF4E40C94544969837A838B839C830D
:108970002D833E834F835887B9E0EB2EF12CEC0E0C
:10898000FD1ECE010196B7010E9439488E010F5E8F
:108990001F4FCE010596B8010E9439482985223023
:1089A00008F47EC03989323010F4B8017CC08A8561
:1089B0009A8989278A87243011F0223031F42317CD
:1089C00009F06EC065E072E26EC0343039F41D8685
:1089D0001E861F86188A1C861B8604C0323021F42E
:1089E00084E08987B7015FC02B853C858B899C8992
:1089F000281B390B3C872B87ED84FE840F85188953
:108A0000AD88BE88CF88D88CEA14FB040C051D0500
:108A100040F4EE0CFF1C001F111F215030403C871A
:108A20002B8720E030E040E050E080E090E0A0E0E4
:108A3000B0E460E070E0EA14FB040C051D0540F0B2
:108A4000282B392B4A2B5B2BEA18FB080C091D0934
:108A5000B695A79597958795EE0CFF1C001F111FE3
:108A60006F5F7F4F6F31710531F7DA01C9018F7781
:108A70009070A070B07080349105A105B10561F4CB
:108A800027FD0AC0E114F1040105110529F0205C5D
:108A90003F4F4F4F5F4F20782D873E874F87588B32
:108AA000BE01675F7F4FCB010E9464476896EAE092
:108AB0000C947049A8E1B0E0E0E6F5E40C94584964
:108AC00069837A838B839C832D833E834F8358876E
:108AD00089E0E82EF12CEC0EFD1ECE010196B701C7
:108AE0000E9439488E010F5E1F4FCE010596B801D6
:108AF0000E9439488985823040F08989823028F087
:108B0000C701B8010E94B14801C08FEF6896E6E046
:108B10000C947449A8E1B0E0E0E9F5E40C945849FC
:108B200069837A838B839C832D833E834F8358870D
:108B300089E0E82EF12CEC0EFD1ECE010196B70166
:108B40000E9439488E010F5E1F4FCE010596B80175
:108B50000E9439488985823040F08989823028F026
:108B6000C701B8010E94B14801C08FEF6896E6E0E6
:108B70000C947449A8E1B0E0E0ECF5E40C94584999
:108B800069837A838B839C832D833E834F835887AD
:108B900089E0E82EF12CEC0EFD1ECE010196B70106
:108BA0000E9439488E010F5E1F4FCE010596B80115
:108BB0000E9439488985823040F08989823028F0C6
:108BC000C701B8010E94B14801C081E06896E6E0A3
:108BD0000C947449A8E0B0E0E0EFF5E40C9455493A
:108BE0009B01AC0183E08983DA01C9018827B7FDC5
:108BF00083959927AA27BB27B82E21153105410552
:108C0000510519F482E089833AC08823A9F0203005
:108C100080E0380780E0480780E8580729F460E0E2
:108C200070E080E09FEC30C0EE24FF248701E21A60
:108C3000F30A040B150B02C079018A018EE1C82EDC
:108C4000D12CDC82CB82ED82FE820F831887C80193
:108C5000B7010E94154701971816190684F4082ECB
:108C600004C0EE0CFF1C001F111F0A94D2F7ED8206
:108C7000FE820F831887C81AD90ADC82CB82BA8297
:108C8000CE0101960E9464472896E9E00C94714950
:108C9000ACE0B0E0EEE4F6E40C945C4969837A83DE
:108CA0008B839C83CE010196BE016B5F7F4F0E9438
:108CB00039488D81823061F1823050F1843021F465
:108CC0008E81882351F12EC02F81388537FD20C039
:108CD0006E812F3131051CF06623F9F023C08EE13F
:108CE00090E0821B930B29853A854B855C8504C0F7
:108CF00056954795379527958A95D2F76623B1F013
:108D000050954095309521953F4F4F4F5F4F0EC086
:108D100020E030E040E050E009C02FEF3FEF4FEFA0
:108D20005FE704C020E030E040E050E8B901CA014C
:108D30002C96E2E00C947849A8E0B0E0E2EAF6E490
:108D40000C9454497B018C016115710581059105D5
:108D500019F482E0898360C083E089838EE1C82EA4
:108D6000D12CDC82CB82ED82FE820F831887C80172
:108D7000B7010E941547FC013197F7FF3BC022273E
:108D800033272E1B3F0B57016801022E04C0D694D7
:108D9000C794B794A7940A94D2F740E050E060E0FB
:108DA00070E081E090E0A0E0B0E004C0880F991F7F
:108DB000AA1FBB1F2A95D2F70197A109B1098E21DD
:108DC0009F21A023B1230097A105B10521F041E027
:108DD00050E060E070E04A295B296C297D294D83D1
:108DE0005E836F8378878EE190E08E1B9F0B9C8360
:108DF0008B8312C0309781F00E2E04C0EE0CFF1C46
:108E0000001F111F0A94D2F7ED82FE820F8318878C
:108E1000CE1ADF0ADC82CB821A82CE0101960E9432
:108E200064472896EAE00C947049EF92FF920F9302
:108E30001F937B018C0180E0E81680E0F80681E05A
:108E4000080780E0180788F48FEFE816F1040105A1
:108E5000110531F028F088E090E0A0E0B0E017C004
:108E600080E090E0A0E0B0E012C080E0E81680E092
:108E7000F80680E0080781E0180728F088E190E014
:108E8000A0E0B0E004C080E190E0A0E0B0E020E22B
:108E900030E040E050E0281B390B4A0B5B0B04C06C
:108EA00016950795F794E7948A95D2F7F701E35F53
:108EB000FD4D8081281B310941095109C9011F91CC
:108EC0000F91FF90EF900895DF92EF92FF920F9332
:108ED0001F93FC01E480F58006811781D180808199
:108EE000823048F480E090E0A0E1B0E0E82AF92A7E
:108EF0000A2B1B2BA5C0843009F49FC0823021F4BB
:108F0000EE24FF24870105C0E114F10401051105D9
:108F100019F4E0E0F0E096C0628173819FEF62385F
:108F200079070CF05BC022E83FEF261B370B2A3194
:108F300031052CF020E030E040E050E02AC0B801DC
:108F4000A701022E04C076956795579547950A9418
:108F5000D2F781E090E0A0E0B0E004C0880F991F54
:108F6000AA1FBB1F2A95D2F70197A109B1098E212B
:108F70009F21A023B1230097A105B10521F081E035
:108F800090E0A0E0B0E09A01AB01282B392B4A2BEE
:108F90005B2BDA01C9018F779070A070B0708034BC
:108FA0009105A105B10539F427FF09C0205C3F4FA9
:108FB0004F4F5F4F04C0215C3F4F4F4F5F4FE0E08A
:108FC000F0E02030A0E03A07A0E04A07A0E45A070A
:108FD00010F0E1E0F0E079018A0127C06038710506
:108FE00064F5FB01E158FF4FD801C7018F779070FE
:108FF000A070B07080349105A105B10539F4E7FE89
:109000000DC080E490E0A0E0B0E004C08FE390E009
:10901000A0E0B0E0E80EF91E0A1F1B1F17FF05C0F5
:1090200016950795F794E794319687E0169507957E
:10903000F794E7948A95D1F705C0EE24FF248701C1
:10904000EFEFF0E06E2F679566276795902F9F777B
:10905000D794DD24D7948E2F8695492F462B582FF1
:109060005D29B701CA011F910F91FF90EF90DF902A
:109070000895FC01DB01408151812281622F6F77CD
:1090800070E0221F2227221F9381892F880F822BB5
:10909000282F30E0991F9927991F11969C931197BB
:1090A00021153105A9F5411551056105710511F429
:1090B00082E037C082E89FEF13969C938E931297BD
:1090C0009A01AB0167E0220F331F441F551F6A95B9
:1090D000D1F783E08C930DC0220F331F441F551F1F
:1090E00012968D919C911397019713969C938E9352
:1090F0001297203080E0380780E0480780E4580766
:1091000058F314962D933D934D935C9317970895C0
:109110002F3F310579F4411551056105710519F4A9
:1091200084E08C93089564FF03C081E08C9312C0A7
:109130001C9210C02F57304013963C932E931297D9
:1091400083E08C9387E0440F551F661F771F8A9535
:10915000D1F7706414964D935D936D937C9317973C
:1091600008951F93DC01FB019C91923008F447C0E5
:109170008081823008F443C0943051F411961C91E0
:10918000843099F58181682F70E0611B71093FC0BF
:10919000843021F0923031F48230B9F1818188231A
:1091A00089F12DC011961C9111978230F1F08181C7
:1091B0001817D9F412962D913C91139782819381BF
:1091C0008217930794F028173907BCF014968D91F5
:1091D0009D910D90BC91A02D2481358146815781B0
:1091E000281739074A075B0718F4112341F00AC012
:1091F00082179307A407B50740F4112319F061E023
:1092000070E005C06FEF7FEF02C060E070E0CB015F
:109210001F910895991B79E004C0991F961708F0D3
:10922000961B881F7A95C9F780950895AA1BBB1BCA
:1092300051E107C0AA1FBB1FA617B70710F0A61B56
:10924000B70B881F991F5A95A9F780959095BC0177
:10925000CD010895A1E21A2EAA1BBB1BFD010DC072
:10926000AA1FBB1FEE1FFF1FA217B307E407F507D6
:1092700020F0A21BB30BE40BF50B661F771F881FB2
:10928000991F1A9469F760957095809590959B0148
:10929000AC01BD01CF0108952F923F924F925F9292
:1092A0006F927F928F929F92AF92BF92CF92DF92F6
:1092B000EF92FF920F931F93CF93DF93CDB7DEB75B
:1092C000CA1BDB0B0FB6F894DEBF0FBECDBF1994DF
:1092D0002A88398848885F846E847D848C849B8446
:1092E000AA84B984C884DF80EE80FD800C811B8154
:1092F000AA81B981CE0FD11D0FB6F894DEBF0FBE83
:10930000CDBFED010895FB01DC0102C001900D927B
:1093100041505040D8F70895242F0E949A49252F94
:109320000E949A490C9494490E949949272F0C94C1
:109330009A49262FF999FECF1FBA92BD81BD20BD53
:109340000FB6F894FA9AF99A0FBE01960895F89418
:02935000FFCF4D
:10935200FFFF010100000000000000000000010208
:1093620002030303030404040404040404050505BE
:109372000505050505050505050505050506060698
:10938200060606060606060606060606060606067B
:109392000606060606060606060606060607070768
:1093A200070707070707070707070707070707074B
:1093B200070707070707070707070707070707073B
:1093C200070707070707070707070707070707072B
:1093D2000707070707070707070707070708080818
:1093E20008080808080808080808080808080808FB
:1093F20008080808080808080808080808080808EB
:1094020008080808080808080808080808080808DA
:1094120008080808080808080808080808080808CA
:1094220008080808080808080808080808080808BA
:1094320008080808080808080808080808080808AA
:10944200080808080808080808080808080808089A
:020000023000CC
:10F000000D9472F80D9493F80D9493F80D9493F871
:10F010000D9493F80D9493F80D9493F80D9493F840
:10F020000D9493F80D9493F80D9493F80D9493F830
:10F030000D9493F80D9493F80D9493F80D9493F820
:10F040000D9493F80D9493F80D9493F80D9493F810
:10F050000D9493F80D9493F80D9493F80D9493F800
:10F060000D9493F80D9493F80D9493F80D9493F8F0
:10F070000D9493F80D9493F80D9493F80D9493F8E0
:10F080000D9493F80D9493F80D9493F80D9493F8D0
:10F090000D9493F80D9493F80D9493F80D9493F8C0
:10F0A0000D9493F80D9493F80D9493F80D9493F8B0
:10F0B0000D9493F80D9493F80D9493F80D9493F8A0
:10F0C0000D9493F80D9493F80D9493F80D9493F890
:10F0D0000D9493F80D9493F80D9493F80D9493F880
:10F0E0000D9493F811241FBECFEFD1E2DEBFCDBF48
:10F0F00001E00CBF12E0A0E0B2E0E0E8FBEF03E0CB
:10F100000BBF02C007900D92A030B107D9F713E0F2
:10F11000A0E0B2E001C01D92A730B107E1F70F9463
:10F1200004FD0D94BEFD0D9400F88AB183648AB984
:10F130005798589A08958AE1982F9A95F1F7599A15
:10F140008A95F1F7599808950F931F93CF93DF9302
:10F15000C7E0D0E0082F10E0C8010C2E02C0959542
:10F1600087950A94E2F780FF02C05E9A01C05E981C
:10F170000F949BF821978FEFCF3FD80769F7DF9166
:10F18000CF911F910F910895EF92FF920F931F93CC
:10F19000CF93DF93C7E0D0E010E000E681E0E82EF7
:10F1A000F12C8BB180278BB94F9B08C0C7010C2E67
:10F1B00002C0880F991F0A94E2F7182B0F949BF84E
:10F1C00021978FEFCF3FD80761F7812FDF91CF9144
:10F1D0001F910F91FF90EF900895DF92EF92FF92B1
:10F1E0000F931F93CF93DF938C01D62EF42EE52E31
:10F1F000589880EA9FE00197F1F784E80F94A4F80B
:10F2000080E00F94A4F8812F0F94A4F8802F0F941E
:10F21000A4F82F2D3E2DC901EC0110E004C0899106
:10F220000F94A4F81F5F1D15D0F380EA9FE00197AB
:10F23000F1F7589ADF91CF911F910F91FF90EF90C6
:10F24000DF900895EF92FF920F931F938C015898CF
:10F2500030EAE32E3FE0F32EC7010197F1F783E890
:10F260000F94A4F8C801880F892F881F990B9195D6
:10F270000F94A4F8802F880F0F94A4F880E00F94C7
:10F28000A4F8C7010197F1F7589A1F910F91FF90C9
:10F29000EF9008950F931F93DF93CF930F92CDB705
:10F2A000DEB78C01698380E090E061E0AE014F5FE2
:10F2B0005F4F0F94EDF8C8010F9422F980E49CE9A8
:10F2C0000197F1F70F90CF91DF911F910F91089562
:10F2D0000F931F938C0158980F949BF884ED0F9413
:10F2E000A4F880E00F94A4F8812F0F94A4F8802F45
:10F2F0000F94A4F880E00F94A4F80F94C4F8589ADF
:10F300001F910F9108950F931F938C01589880EAD5
:10F310009FE00197F1F782ED0F94A4F8C801880FE0
:10F32000892F881F990B91950F94A4F8802F880F2F
:10F330000F94A4F880E00F94A4F800E080E00F940C
:10F34000A4F80F5F0430D1F70F94C4F8E0EAFFE0AF
:10F350003197F1F7589A1F910F9108950F931F93CA
:10F36000DF93CF930F920F92CDB7DEB78C017A83E4
:10F37000698380E090E062E0AE014F5F5F4F0F94E1
:10F38000EDF8C8010F9422F980E49CE90197F1F7A8
:10F390000F900F90CF91DF911F910F9108950F93D0
:10F3A0001F938C01589880EA9FE00197F1F782ED56
:10F3B0000F94A4F8C801880F892F881F990B919585
:10F3C0000F94A4F8802F880F0F94A4F880E00F9476
:10F3D000A4F800E080E00F94A4F80F5F0430D1F7A8
:10F3E0000F94C4F8082F10E00F94C4F8E0EAFFE08F
:10F3F0003197F1F7589A382F20E0202B312BC90193
:10F400001F910F9108950F931F93DF93CF9300D017
:10F410000F92CDB7DEB78C0149835A836B837C830F
:10F4200080E090E064E0AE014F5F5F4F0F94EDF835
:10F43000C8010F9422F980E49CE90197F1F70F903D
:10F440000F900F900F90CF91DF911F910F91089522
:10F450009F92AF92BF92CF92DF92EF92FF920F9363
:10F460001F938C01589880EA9FE00197F1F782ED95
:10F470000F94A4F8C801880F892F881F990B9195C4
:10F480000F94A4F8802F880F0F94A4F880E00F94B5
:10F49000A4F800E080E00F94A4F80F5F0430D1F7E7
:10F4A0000F94C4F8A82EBB24CC24DD240F94C4F8F8
:10F4B000982E0F94C4F8E82E0F94C4F8FF2400E0AF
:10F4C00010E08701FF24EE2490E0A0E0B0E0B82F28
:10F4D000AA2799278827E82AF92A0A2B1B2BEA282A
:10F4E000FB280C291D2980EA9FE00197F1F7589A23
:10F4F000992D80E0AA2797FDA095BA2FE82AF92A2E
:10F500000A2B1B2BB701C8011F910F91FF90EF90A1
:10F51000DF90CF90BF90AF909F9008950F931F936F
:10F520008C019B0180E090E0642FA9010F94EDF81D
:10F53000C8010F9422F980E49CE90197F1F71F912B
:10F540000F9108950F931F93DF93CF93CDB7DEB73D
:10F55000CF5FD0400FB6F894DEBF0FBECDBF8C0199
:10F56000FE013196CF01AF01860F911D2FEF01C033
:10F570002193E817F907E1F780E090E00F94EDF8A8
:10F58000C8010F9422F980E49CE90197F1F7C1507A
:10F59000DF4F0FB6F894DEBF0FBECDBFCF91DF9126
:10F5A0001F910F910895DF92EF92FF920F931F9397
:10F5B000CF93DF938C01F62EE72ED42E589880EA55
:10F5C0009FE00197F1F782ED0F94A4F8C801880F2E
:10F5D000892F881F990B91950F94A4F8802F880F7D
:10F5E0000F94A4F880E00F94A4F800E080E00F945A
:10F5F000A4F80F5F0430D1F78F2D9E2D9C01E901F7
:10F6000000E004C00F94C4F889930F5F0D15D0F388
:10F6100080EA9FE00197F1F7589A8D2DDF91CF9105
:10F620001F910F91FF90EF90DF9008950F931F931C
:10F63000589800EA1FE0C8010197F1F787ED0F9491
:10F64000A4F80F94C4F8F8013197F1F7589A1F9174
:10F650000F91089540E050E00AC020E030E02F5FB5
:10F660003F4F6CE020383607D1F74F5F5F4F4817A8
:10F67000590798F30895982F8091C00085FFFCCF1B
:10F680009093C60081E090E00895DF92EF92FF92A0
:10F690000F931F93F999FECFE0900003F0900103C0
:10F6A000009102031091030383E0F70100935B00D4
:10F6B00080935700E89507B600FCFDCFA0E0B2E0CC
:10F6C00020E030E040E050E0DD24D39411967C91BE
:10F6D000119760E08C91FB01E80FF11DCF010C0147
:10F6E000F90140935B00D0925700E89511241296DF
:10F6F0002E5F3F4F4F4F5F4FF3E0A030BF0731F712
:10F7000085E0F70100935B0080935700E89507B60A
:10F7100000FCFDCF81E180935700E8951F910F9188
:10F72000FF90EF90DF900895CF92DF92EF92FF92DB
:10F730000F931F93CF93DF93E0900003F0900103AA
:10F740000091020310910303C0E0D2E0B801A701C9
:10F75000DE016BBFFA01279136911196FC9111974A
:10F76000E0E08C916F01C80ED11C2C153D0561F1B4
:10F770008091C00085FFFCCF8FEF8093C600809101
:10F78000C00085FFFCCF8FEF8093C6008091C00042
:10F7900085FFFCCFBB27A12F902F8F2D8093C60014
:10F7A0008091C00085FFFCCFE092C60098818091D7
:10F7B000C00085FFFCCF9093C600219683E0C03047
:10F7C000D807A1F780E00BC04E5F5F4F6F4F7F4FB0
:10F7D000129683E0A030B80709F0BBCF81E0DF913B
:10F7E000CF911F910F91FF90EF90DF90CF900895F0
:10F7F00008951BBE81E085BF15BE0C9400000895DE
:10F8000084B7877F84BF2FE088E190E00FB6F8943B
:10F81000A895809360000FBE2093600008952F92FA
:10F820003F924F925F926F927F928F929F92AF9290
:10F83000BF92CF92DF92EF92FF920F931F93DF93CD
:10F84000CF93CDB7DEB7CF5FD0400FB6F894DEBF11
:10F850000FBECDBF39E3A32EB12C00E010E03E0176
:10F860000894611C711C2DEF222E312C2C0E3D1E94
:10F87000A895C501B3014FEF0F94D3FA730194E03B
:10F88000C92ED12CF70190818381992309F082C080
:10F89000813009F07FC00115110531F10F9445FB4E
:10F8A0000F9494FB882309F494C0E0E0F2E08FEF1A
:10F8B000819393E0E030F907D9F7980140E050E0F8
:10F8C0008091000390910103A0910203B091030382
:10F8D000820F931FA41FB51F809300039093010311
:10F8E000A0930203B09303038091C00085FFFCCF77
:10F8F00083E68093C6008091C00085FFFCCF83E63D
:10F900008093C6008091C00085FFFCCF83E6809382
:10F91000C6008091C00085FFFCCF83E68093C600BF
:10F9200081E058C0F801E050FE4FD401A20FB31F90
:10F930008C9180830F5F1F4FE1E000301E0739F587
:10F940000F9445FB0F9494FB882309F442C08091E7
:10F95000000390910103A0910203B0910303805032
:10F960009F4FAF4FBF4F8093000390930103A0932D
:10F970000203B0930303E0E0F2E08FEF819393E0A2
:10F98000E030F907D1F720E031E000E010E02F5F30
:10F990003F4F07C020E030E0492E552443018C0C36
:10F9A0009D1C2415350508F4BDCFE5E1F0E0EE0E11
:10F9B000FF1ECE0EDF1EE214F30409F063CF08949D
:10F9C000A11CB11CF0E0AF16F2E0BF0609F050CF69
:10F9D00001C080E0C150DF4F0FB6F894DEBF0FBE0C
:10F9E000CDBFCF91DF911F910F91FF90EF90DF90EE
:10F9F000CF90BF90AF909F908F907F906F905F90CF
:10FA00004F903F902F9008951F93CF93DF9384B72B
:10FA1000877F84BF2FE088E190E00FB6F894A89527
:10FA2000809360000FBE209360000F9495F882E0F1
:10FA30008093C00088E98093C10086E08093C20073
:10FA40001092C50088E08093C40088E390E00F9492
:10FA500083F9182FF89484E690E00F942AFB9D9A7E
:10FA600020E030E071E660E240E951E0A895809145
:10FA7000C00085FFFCCF7093C60084B3862784BB8B
:10FA800080ED97E0FA013197F1F70197D9F784B348
:10FA9000862784BB80ED97E0FA013197F1F7019753
:10FAA000D9F72F5F3F4F2230310501F788E893E106
:10FAB00020E931E0F9013197F1F70197D9F71130D9
:10FAC00051F50F940FFC882379F484B7877F84BFA6
:10FAD0002FE088E190E00FB6F894A895809360003D
:10FAE0000FBE20936000FFCF88E390E00F9483F96E
:10FAF000813089F488E390E060E00F944AF9C9E32B
:10FB0000D0E0CE016FEF0F94A2FAA895219682E083
:10FB1000C030D807B1F720E030E072E660E240E99B
:10FB200051E0A8958091C00085FFFCCF7093C6007E
:10FB300084B3862784BB80ED97E0FA013197F1F713
:10FB40000197D9F784B3862784BB80ED97E0FA014B
:10FB50003197F1F70197D9F72F5F3F4F23303105E8
:10FB600001F778941BBE81E085BF15BE0C940000A0
:10FB700080E090E0DF91CF911F910895F894FFCF3E
:040000033000F000D9
:00000001FF
