:100000000C9475000C9494000C9494000C9494003F
:100010000C9494000C9494000C9494000C94940010
:100020000C9494000C9494000C9494000C94940000
:100030000C9494000C9494000C9494000C949400F0
:100040000C9494000C9494000C94AC0B0C94D60B70
:100050000C94030C0C9494000C9494000C94940055
:100060000C9494000C9494000C945D0B0C949400EC
:100070000C9494000C9494000C94530C0C94800CED
:100080000C94B20C0C9494000C949400256C640AAB
:100090000D003D3D3D3D3D3D3D3D3D3D3D3D3D3DFD
:1000A0000A0D003D3D3D3D3D3D3D3D3D3D3D3D3D20
:1000B0003D0A0D0073746172742E2E2E2E2E2E2E7C
:1000C0002E2E0A0D003D3D3D3D3D3D3D3D3D3D3D1E
:1000D0003D3D3D0A0D000A0D3D3D3D3D3D3D3D3D53
:1000E0003D3D3D3D3D3D0A0D000011241FBECFEFBB
:1000F000D0E1DEBFCDBF11E0A0E0B1E0E6E5FBE27C
:1001000000E00BBF02C007900D92A430B107D9F7F1
:100110001AE0A4E0B1E001C01D92A731B107E1F7F8
:100120000E94EE030C94A9150C94000084B3876020
:1001300084BBA398A89A089585E0982F9A95F1F723
:10014000A99A982F9A95F1F7A9988A95F1F70895A9
:100150000F931F93CF93DF93C7E0D0E0082F10E0F9
:10016000C8010C2E02C0959587950A94E2F780FF8E
:1001700002C0AA9A01C0AA980E949C0021978FEF02
:10018000CF3FD80769F7DF91CF911F910F91089565
:10019000EF92FF921F93CF93DF93C7E0D0E010E080
:1001A00081E0E82EF12C9B9B08C0C7010C2E02C0F9
:1001B000880F991F0A94E2F7182B0E949C00219740
:1001C0008FEFCF3FD80779F7812FDF91CF911F9124
:1001D000FF90EF900895DF92EF92FF920F931F939D
:1001E000CF93DF938C01D62EF42EE52EA89880EACB
:1001F0009FE00197F1F784E80E94A80080E00E9448
:10020000A800812F0E94A800802F0E94A8002F2DF7
:100210003E2DC901EC0110E004C089910E94A800A4
:100220001F5F1D15D0F380EA9FE00197F1F7A89AB0
:10023000DF91CF911F910F91FF90EF90DF90089584
:10024000EF92FF920F931F938C01A89830EAE32E50
:100250003FE0F32EC7010197F1F783E80E94A80061
:10026000C801880F892F881F990B91950E94A800BB
:10027000802F880F0E94A80080E00E94A800C7017C
:100280000197F1F7A89A1F910F91FF90EF900895B1
:100290000F931F93DF93CF930F92CDB7DEB78C01EF
:1002A000698380E090E061E0AE014F5F5F4F0E94A4
:1002B000EB00C8010E94200180E49CE90197F1F75E
:1002C0000F90CF91DF911F910F9108950F931F937E
:1002D0008C01A8980E949C0084ED0E94A80080E0F8
:1002E0000E94A800812F0E94A800802F0E94A800D1
:1002F00080E00E94A8000E94C800A89A1F910F9158
:1003000008950F931F938C01A89880EA9FE00197AE
:10031000F1F782ED0E94A800C801880F892F881F7D
:10032000990B91950E94A800802F880F0E94A80029
:1003300080E00E94A80000E080E00E94A8000F5F1B
:100340000430D1F70E94C800E0EAFFE03197F1F7EE
:10035000A89A1F910F9108950F931F93DF93CF9346
:1003600000D0CDB7DEB78C017A83698380E090E05E
:1003700062E0AE014F5F5F4F0E94EB00C8010E9438
:10038000200180E49CE90197F1F70F900F90CF9145
:10039000DF911F910F9108950F931F938C01A898DF
:1003A00080EA9FE00197F1F782ED0E94A800C80162
:1003B000880F892F881F990B91950E94A800802F84
:1003C000880F0E94A80080E00E94A80000E080E062
:1003D0000E94A8000F5F0430D1F70E94C800082FC8
:1003E00010E00E94C800E0EAFFE03197F1F7A89A18
:1003F000382F20E0202B312BC9011F910F91089538
:100400000F931F93DF93CF9300D000D0CDB7DEB70B
:100410008C0149835A836B837C8380E090E064E0A5
:10042000AE014F5F5F4F0E94EB00C8010E942001A8
:1004300080E49CE90197F1F70F900F900F900F90D7
:10044000CF91DF911F910F9108959F92AF92BF922C
:10045000CF92DF92EF92FF920F931F938C01A89897
:1004600080EA9FE00197F1F782ED0E94A800C801A1
:10047000880F892F881F990B91950E94A800802FC3
:10048000880F0E94A80080E00E94A80000E080E0A1
:100490000E94A8000F5F0430D1F70E94C800A82E68
:1004A000BB24CC24DD240E94C800982E0E94C800E2
:1004B000E82E0E94C800FF2400E010E08701FF241E
:1004C000EE2490E0A0E0B0E0B82FAA279927882773
:1004D000E82AF92A0A2B1B2BEA28FB280C291D29BC
:1004E00080EA9FE00197F1F7A89A992D80E0AA276A
:1004F00097FDA095BA2FE82AF92A0A2B1B2BB701E2
:10050000C8011F910F91FF90EF90DF90CF90BF90A7
:10051000AF909F9008950F931F938C019B0180E0F3
:1005200090E0642FA9010E94EB00C8010E94200105
:1005300080E49CE90197F1F71F910F910895DF92F4
:10054000EF92FF920F931F93CF93DF938C01F62EC0
:10055000E72ED42EA89880EA9FE00197F1F782ED6C
:100560000E94A800C801880F892F881F990B9195B8
:100570000E94A800802F880F0E94A80080E00E949F
:10058000A80000E080E00E94A8000F5F0430D1F7CF
:100590008F2D9E2D9C01E90100E004C00E94C8003F
:1005A00089930F5F0D15D0F380EA9FE00197F1F773
:1005B000A89A8D2DDF91CF911F910F91FF90EF9011
:1005C000DF9008950F931F93A89800EA1FE0C801D9
:1005D0000197F1F787ED0E94A8000E94C800F8017A
:1005E0003197F1F7A89A1F910F9108952091040176
:1005F000309105012F5F3F4F309305012093040197
:1006000021503040C9010895EF92FF920F93CF938C
:10061000DF93EC017901809104019091050101962D
:100620009093050180930401019720E8288321E23B
:1006300029839A838B837C836D835E834F8340E021
:1006400050E0602F70E00AC0FE01E80FF11DD701F5
:10065000A40FB51F8C9180834F5F5F4F842F885FFD
:10066000461757078CF3802F885FDF91CF910F914A
:10067000FF90EF900895EF92FF920F93CF93DF9347
:10068000EC0180E8888381E28983FA82EB827C83B3
:100690006D835E834F8340E050E0602F70E00AC0BE
:1006A000FE01E80FF11DD901A40FB51F8C918083C5
:1006B0004F5F5F4F842F885F461757078CF3802F5B
:1006C000885FDF91CF910F91FF90EF900895CF92C7
:1006D000DF92EF92FF920F93DF93CF93CDB7DEB708
:1006E000A0970FB6F894DEBF0FBECDBF7C01942F4C
:1006F00085E289831A821B824091620150916301D5
:100700005C834D8380E28E8380E48F83988789E6C3
:10071000C82E81E0D82EC60160E070E09E012F5FF8
:100720003F4F08E00E943B03482F80E090E0B60175
:100730000E94D810A0960FB6F894DEBF0FBECDBFB2
:10074000CF91DF910F91FF90EF90DF90CF900895C0
:10075000FB01928180E0238130E060916201709121
:100760006301822B932B40E00E9467030895FB01F5
:100770002085243219F02A3329F403C00E94A803EB
:100780000895FFCF08958FEF8BBB8ABB9FE095BB89
:1007900084BB9FE992BB81BB809362008093610020
:1007A00080936500809364000895979888EE93E0A5
:1007B00020E931E0F9013197F1F70197D9F7979ADC
:1007C000089584B7877F84BF2FE088E190E00FB65B
:1007D000F894A89581BD0FBE21BD0895EF92FF92B8
:1007E0000F931F93DF93CF93CDB7DEB72E970FB63E
:1007F000F894DEBF0FBECDBF0E94C3030E94291232
:100800000E94A00B0E94380B81E090E040E050E095
:1008100060E070E00E94F60A86E090E041E050E07F
:1008200060E070E00E94F60AFE0131968EE0DF0182
:100830001D928A95E9F782E08C838DE49CE09A878B
:100840008987F093140AE093130A00D086ED90E0B4
:10085000EDB7FEB7928381830E94E01285EC90E0B1
:10086000ADB7BEB712969C938E9311970E94E0127B
:1008700084EB90E0EDB7FEB7928381830E94E01293
:1008800083EA90E0ADB7BEB712969C938E93119712
:100890000E94E01282E990E0EDB7FEB79283818377
:1008A0000E94E0120F900F9000ED17E08CE8E82E08
:1008B00080E0F82E849B02C0949801C0949ADC9842
:1008C000C8010197F1F7DC9AC8010197F1F780910F
:1008D000060190910701A0910801B09109010196CC
:1008E000A11DB11D8093060190930701A0930801FB
:1008F000B093090100D000D000D0EDB7FEB7F2826E
:10090000E18283839483A583B6830E94E0128DB72E
:100910009EB706960FB6F8949EBF0FBE8DBFCACF86
:100920008AE090E00E940B0B892BA9F48AE090E00A
:100930000E94280B8AE090E040E355E760E070E019
:100940000E94F60A609162017091630180E090E07C
:1009500040E00E946703089584E090E00E940B0B42
:10096000892B31F50E94560F8330B1F40E946C0739
:10097000882319F40E94A90702C00E94E10784E0BD
:1009800090E00E94280B84E090E048E853E160E0AA
:1009900070E00E94F60A089584E090E00E94280B1F
:1009A00084E090E048EE53E060E070E00E94F60AD8
:1009B00008950F931F9382E090E00E940B0B892B08
:1009C00011F50E940D1080910A018F5F80930A013A
:1009D0000E94560F833059F482E090E00E94280B69
:1009E00082E090E040E157E260E070E00AC082E01F
:1009F00090E00E94280B82E090E048EE53E060E037
:100A000070E00E94F60A0E94560F823020F4809116
:100A10000A01863010F010920A0189EE91E060E43C
:100A20000E948E0D482F90E090930C0180930B0153
:100A3000892BA9F18091E901882319F0803179F59A
:100A400008C041508AEE91E0642F70E00E941710B8
:100A500026C01091EC010091ED01455089EA91E02A
:100A60006EEE71E00E945C0F482F9091AD0180E026
:100A70002091AE0130E0822B932B209162013091C6
:100A800063018217930759F4912F80E0202F30E003
:100A9000822B932B69EA71E050E00E94070D1F91B1
:100AA0000F91089589E090E00E940B0B892B71F45F
:100AB00089E090E00E94280B89E090E044E650E055
:100AC00060E070E00E94F60A0E947E1108951F9374
:100AD00081E090E00E940B0B892B91F4A895849BF8
:100AE00002C0949801C0949A81E090E00E94280B83
:100AF00081E090E044EF51E060E070E00E94F60A8F
:100B000086E090E00E940B0B892B09F087C00E94C1
:100B10004012882309F05DC080910D01882361F4A3
:100B200081E080930D018FEF60E00E94BC0680E0C1
:100B30000E940C128FEF0DC0813071F482E080931F
:100B40000D018FEF63E30E94BC0683E30E940C1249
:100B50008CEC0E94251239C0823061F483E08093CE
:100B60000D018FEF66E60E94BC0686E60E940C121D
:100B700089E9EFCF833061F484E080930D018FEF3A
:100B800069E90E94BC0689E90E940C1286E6E1CF61
:100B9000843061F485E080930D018FEF6CEC0E944E
:100BA000BC068CEC0E940C1283E3D3CF853059F441
:100BB00010920D018FEF6EEF0E94BC068EEF0E9427
:100BC0000C1280E0C6CF10920D0180E00E948706D3
:100BD00019C010E0812F0E948106682F812F0E948A
:100BE000BC061F5F1430B1F780E00E9481060E94AE
:100BF0000C1281E00E94870680E00E9481068095A9
:100C00000E94251286E090E00E94280B86E090E08A
:100C100048E853E160E070E00E94F60A1F910895F1
:100C200020910E0130910F012F5F3F4F30930F0144
:100C300020930E0121503040C9010895EF92FF9298
:100C40000F93CF93DF93EC01790180910E01909186
:100C50000F01019690930F0180930E01019720E8F8
:100C6000288321E129839A838B837C836D835E8330
:100C70004F8340E050E0602F70E00AC0FE01E80FB3
:100C8000F11DD701A40FB51F8C9180834F5F5F4F7B
:100C9000842F885F461757078CF3802F885FDF917A
:100CA000CF910F91FF90EF900895EF92FF920F93E5
:100CB000CF93DF93EC0180E8888381E18983FA8216
:100CC000EB827C836D835E834F8340E050E0602F36
:100CD00070E00AC0FE01E80FF11DD901A40FB51F95
:100CE0008C9180834F5F5F4F842F885F4617570733
:100CF0008CF3802F885FDF91CF910F91FF90EF9061
:100D00000895E0E0F1E0E80FF11D80810895EF9291
:100D1000FF920F93DF93CF93CDB7DEB72A970FB62D
:100D2000F894DEBF0FBECDBF90E49983209162019D
:100D3000909163019A832B838C8389E2E82E82E071
:100D4000F82EC70160E070E040E050E09E012F5FA8
:100D50003F4F04E00E941E06682FC7010E94290E23
:100D60002A960FB6F894DEBF0FBECDBFCF91DF91AC
:100D70000F91FF90EF900895EF92FF920F93DF9302
:100D8000CF93CDB7DEB72A970FB6F894DEBF0FBE6C
:100D9000CDBF92E3998320916201909163019A8380
:100DA0002B838C836D8399E2E92E92E0F92EC701A3
:100DB00060E070E040E050E09E012F5F3F4F05E0B3
:100DC0000E941E06682FC7010E94290E2A960FB6A0
:100DD000F894DEBF0FBECDBFCF91DF910F91FF9092
:100DE000EF900895EF92FF921F93CF93DF937C01D2
:100DF000C0E0D0E0F7011385FE01E050FF4F108303
:100E00008C2F612F0E94BC06CC2359F4812F0E94A5
:100E10000C121E3F10F080E002C0812F80950E94CE
:100E2000251221960894E11CF11CC430D10511F75C
:100E3000DF91CF911F91FF90EF900895FB01808586
:100E4000823321F4CB01BA010E94F2060895FB011E
:100E50008085823019F08231B9F408C082858130F2
:100E600011F410921001109211010895918580E003
:100E7000228530E0822B932B892B21F481E0809313
:100E800010010895109210010895FB0182858130B0
:100E900011F410921001109211010895FB01918537
:100EA00080E0228530E0822B932B892B21F481E096
:100EB000809310010895109210010895209112015D
:100EC000309113012F5F3F4F309313012093120194
:100ED00021503040C90108958091100108958093F8
:100EE00010010895EF92FF920F93CF93DF93EC01DF
:100EF0007901809112019091130101969093130151
:100F000080931201019720E8288321E029839A83A6
:100F10008B837C836D835E834F8340E050E0602F42
:100F200070E00AC0FE01E80FF11DD701A40FB51F44
:100F30008C9180834F5F5F4F842F885F46175707E0
:100F40008CF3802F885FDF91CF910F91FF90EF900E
:100F50000895EF92FF920F93DF93CF93CDB7DEB753
:100F60002A970FB6F894DEBF0FBECDBF91E19983EB
:100F700080E28A8380E48B839C839D838CE6E82EC9
:100F800082E0F82E4091620150916301C70160E058
:100F900070E09E012F5F3F4F05E00E947207482FCF
:100FA00080E090E0B7010E94D8102A960FB6F8941E
:100FB000DEBF0FBECDBFCF91DF910F91FF90EF90BD
:100FC00008950F93DF93CF93CDB7DEB72A970FB66F
:100FD000F894DEBF0FBECDBF809111018F5F80936B
:100FE000110181E089831A821B8240916201509134
:100FF00063018CE692E060E070E09E012F5F3F4F5E
:1010000003E00E947207482F80911101843020F084
:10101000109210011092110180E090E06CE672E0F5
:101020000E94D8102A960FB6F894DEBF0FBECDBF2F
:10103000CF91DF910F910895FFCF2091140130914E
:1010400015012F5F3F4F309315012093140121505C
:101050003040C9010895EF92FF920F93CF93DF9331
:10106000EC01790180911401909115010196909302
:10107000150180931401019720E8288320EA298331
:101080009A838B837C836D835E834F8340E050E043
:10109000602F70E00AC0FE01E80FF11DD701A40F18
:1010A000B51F8C9180834F5F5F4F842F885F4617F9
:1010B00057078CF3802F885FDF91CF910F91FF90BE
:1010C000EF900895EF92FF920F93CF93DF93EC018F
:1010D00080E8888380EA8983FA82EB827C836D834F
:1010E0005E834F8340E050E0602F70E00AC0FE0155
:1010F000E80FF11DD901A40FB51F8C9180834F5FBC
:101100005F4F842F885F461757078CF3802F885FC7
:10111000DF91CF910F91FF90EF900895EF92FF92A2
:101120000F931F93DF93CF93CDB7DEB7C050D1405D
:101130000FB6F894DEBF0FBECDBF8C016CE070E03F
:101140000E94C312CB0141967E010894E11CF11C60
:10115000B7014FEF0E949F02C8016CE070E00E944F
:10116000C3129C0185E190E0289F602D11242F5F20
:101170003F4F289FD001299FB00D389FB00D1124FB
:101180008E010C5F1F4FA7011FC0A895F801E20F49
:10119000F31F9081FA01E20FF31F8081882311F47D
:1011A0009130B9F0FA01E20FF31F90E02B5E3F4F50
:1011B000240F351F8191980FE217F307D9F7992370
:1011C00011F080E007C06B5E262F30E02A173B0746
:1011D000E0F281E0C050DF4F0FB6F894DEBF0FBEE3
:1011E000CDBFCF91DF911F910F91FF90EF900895A8
:1011F000CF92DF92EF92FF920F931F93DF93CF93E3
:10120000CDB7DEB7C050D1400FB6F894DEBF0FBEE9
:10121000CDBF6E010894C11CD11CF601CE01819690
:101220001192E817F907E1F701E110E07E01089457
:10123000E11CF11CA895C801B7014FEF0E949F0265
:10124000F60120E030E0A89593818081882311F495
:101250009130E9F0D701A20FB31F90E0AF014B5ED0
:101260005F4F8D91980FA417B507D9F7992311F007
:1012700080E00EC02B5E3F4F2C3F310511F0FD0189
:10128000E2CF0F5F1F4F82E00030180799F681E030
:10129000C050DF4F0FB6F894DEBF0FBECDBFCF9169
:1012A000DF911F910F91FF90EF90DF90CF90089505
:1012B0008F929F92AF92BF92CF92DF92EF92FF9266
:1012C0000F931F93DF93CF93CDB7DEB7CC5FD040A2
:1012D0000FB6F894DEBF0FBECDBF7B01842ED22E99
:1012E000C32E8617970708F447C0CB016CE070E067
:1012F0000E94C3125B0181E190E0A80EB91EC501F6
:101300008E010F5F1F4FB8014CEF0E949F022D2DE1
:101310003C2DC9016C01C7016CE070E00E94C31252
:1013200095E1899F70011124E00EF11EF601D701AD
:101330009C2C02C081918D938E2F89198815D0F332
:10134000C5018E010F5F1F4FB8014CEF0E948B0249
:10135000C501B8014CEF0E949F0208C0F6019191AF
:101360006F01F70181917F01981731F48C2D891954
:101370008815A0F381E001C080E0C450DF4F0FB6B4
:10138000F894DEBF0FBECDBFCF91DF911F910F91BB
:10139000FF90EF90DF90CF90BF90AF909F908F9095
:1013A0000895682F80E190E00E9448010895CF924F
:1013B000DF92EF92FF920F93DF93CF93CDB7DEB71B
:1013C0002A970FB6F894DEBF0FBECDBF7C0184E034
:1013D000898380E28A8380E48B831C821D82409112
:1013E0006201509163015E834F83688782EBC82E50
:1013F00082E0D82EC60160E070E09E012F5F3F4F73
:1014000008E00E946208482F80E090E0B6010E9448
:10141000D8102A960FB6F894DEBF0FBECDBFCF917D
:10142000DF910F91FF90EF90DF90CF900895EF92B2
:10143000FF920F931F93DF93CF93CDB7DEB76597DE
:101440000FB6F894DEBF0FBECDBF7C01D9011F9649
:101450007C911F9750962C91509751960C915197D3
:1014600052966C91529753961C9153971631A8F54A
:10147000AE014F5F5F4FFA01CE0146961192E81719
:10148000F907E1F7FA0104C053968C9153978193C1
:1014900011968E2F841B8117B8F3902F80E0062FB2
:1014A00010E0082B192B972F80E030E0822B932B34
:1014B000B80145E19E012F5F3F4F0E9458098823E4
:1014C00041F0C8010E948E08882319F0C70160E02E
:1014D00002C0C70160E10E94D70965960FB6F89473
:1014E000DEBF0FBECDBFCF91DF911F910F91FF9057
:1014F000EF900895CF92DF92EF92FF920F93DF93D8
:10150000CF93CDB7DEB72A970FB6F894DEBF0FBEE4
:10151000CDBF7C0182E0898380E28A8380E48B8373
:101520001C821D8240916201509163015E834F8352
:10153000688792EBC92E92E0D92EC60160E070E078
:101540009E012F5F3F4F08E00E946208482F80E015
:1015500090E0B6010E94D8102A960FB6F894DEBF2C
:101560000FBECDBFCF91DF910F91FF90EF90DF9035
:10157000CF900895CF93DF93EC0181E190E00E943A
:10158000F808882341F080E190E061E00E94480182
:10159000CE0160E007C080E190E060E00E94480179
:1015A000CE0160E10E947A0ADF91CF910895EF9217
:1015B000FF920F931F93F801A085A13019F0A3307B
:1015C00081F408C0CB01BA01A901980187010E94EA
:1015D000BA0A07C0CB01BA01A901980187010E948C
:1015E000170A1F910F91FF90EF9008958F3091058A
:1015F00078F4FC01EE0FFF1FEE0FFF1FE80FF91F3D
:10160000EA50FD4F418352836383748381E080837A
:1016100080E090E008958F309105B0F4FC01EE0F6A
:10162000FF1FEE0FFF1FE80FF91FEA50FD4F8081EB
:10163000882351F020E030E081819281A381B48140
:101640000097A105B10511F021E030E0C90108952E
:101650008F30910550F4FC01EE0FFF1FEE0FFF1FBE
:10166000E80FF91FEA50FD4F108280E090E00895E6
:10167000F894E6EFF2E01082118212821382148253
:10168000359683E0E134F807B1F7109289001092A3
:10169000880080E480938B008CE080938A00109215
:1016A0008C00109287008EE38093860080917D00ED
:1016B000806180937D00789408951F920F920FB6F9
:1016C0000F920BB60F9211248F939F93AF93BF93FA
:1016D000EF93FF938091F2029091F302A091F402B4
:1016E000B091F5020196A11DB11D8093F202909375
:1016F000F302A093F402B093F502E7EFF2E08081E9
:101700009181A281B3810097A105B10539F00197BC
:10171000A109B10980839183A283B383359683E0C5
:10172000E234F80761F7FF91EF91BF91AF919F917C
:101730008F910F900BBE0F900FBE0F901F901895BA
:1017400082E08BB988E98AB986E08093950010928F
:10175000900080E189B908951F920F920FB60F9201
:101760000BB60F9211242F938F939F93EF93FF93B8
:101770005F9BFECF2CB18091170190E0FC01EF5BE5
:10178000FB4F2083019680931701809118018F5F92
:1017900080931801FF91EF919F918F912F910F905E
:1017A0000BBE0F900FBE0F901F9018951F920F92B7
:1017B0000FB60F920BB60F9211242F933F938F9376
:1017C0009F93EF93FF9330911B01332371F080912E
:1017D000190190E0FC01EF5BFA4F20812CB90196D2
:1017E00080931901315030931B015598FF91EF916F
:1017F0009F918F913F912F910F900BBE0F900FBE35
:101800000F901F9018951F920F920FB60F920BB664
:101810000F9211242F933F938F939F93EF93FF93F6
:1018200030911B01332371F08091190190E0FC018C
:10183000EF5BFA4F20812CB901968093190131504A
:1018400030931B01FF91EF919F918F913F912F91C9
:101850000F900BBE0F900FBE0F901F901895DC01DC
:10186000F89480911801882399F081508093180191
:101870007894E0911601F0E0EF5BFB4F80818C9350
:10188000809116018F5F8093160121E030E003C044
:10189000789420E030E0C90108955D9BFECF8CB9BB
:1018A00081E090E008951F920F920FB60F920BB651
:1018B0000F9211242F938F939F93EF93FF93809117
:1018C0009B0087FFFCCF20919C0080911D0190E040
:1018D000FC01EF5BF94F2083019680931D018091FD
:1018E0001E018F5F80931E01FF91EF919F918F9159
:1018F0002F910F900BBE0F900FBE0F901F90189559
:101900001F920F920FB60F920BB60F9211242F93C6
:101910003F938F939F93EF93FF9330912101332354
:1019200079F080911F0190E0FC01EF5BFC4F20817A
:1019300020939C00019680931F0131503093210128
:1019400080919A008F7D80939A00FF91EF919F91F3
:101950008F913F912F910F900BBE0F900FBE0F9064
:101960001F9018951F920F920FB60F920BB60F9201
:1019700011242F933F938F939F93EF93FF93309175
:101980002101332379F080911F0190E0FC01EF5B8E
:10199000FC4F208120939C00019680931F013150C1
:1019A00030932101FF91EF919F918F913F912F9162
:1019B0000F900BBE0F900FBE0F901F901895DC017B
:1019C000F89480911E01882399F0815080931E0124
:1019D0007894E0911C01F0E0EF5BF94F80818C93EB
:1019E00080911C018F5F80931C0121E030E003C0D7
:1019F000789420E030E0C9010895982F80919B00F1
:101A000085FFFCCF90939C0081E090E00895EF92D9
:101A1000FF920F931F939C01FB017A0191818081BA
:101A2000803831F5913191F0923118F4913001F50F
:101A300005C0913239F0903AD9F40CC0C9010E9426
:101A4000270716C0C9010E94B70312C0C9010E942E
:101A50001E070EC0728160E0838190E0682B792BB5
:101A6000C90140E050E020E030E08F010E94D70A39
:101A700081E01F910F91FF90EF90089590932F01B7
:101A800080932E01709331016093300180E00895BE
:101A900090932B0180932A0170932D0160932C0168
:101AA00080E00895FF920F931F93CF93DF93F62E5C
:101AB00040913001509131014115510511F48FEFE2
:101AC00027C0EC01FC0190E000E003C08191080F09
:101AD0009F5F9F15D8F38AEFFA010995E0913001D5
:101AE000F09131018F2D099510E003C0899109957E
:101AF0001F5FE0913001F09131011F15B8F3802F85
:101B00000995E0913001F09131018FEA099580E06B
:101B1000DF91CF911F910F91FF900895FF920F9346
:101B20001F93DF93CF930F92CDB7DEB7082FF92E17
:101B3000162FE0912E01F0912F01309711F44FEF05
:101B400080C0CE0101960995181619060CF078C0D0
:101B5000212F30E080912201909123018217930779
:101B600024F0109223011092220140912201509101
:101B700023012981FA01EF5BF84F2083CA01019606
:101B800090932301809322012A3F71F480914107B1
:101B90008A3F09F455C02093410781E090E090937B
:101BA0002301809322014CC02F3A09F049C00697C7
:101BB0000CF446C080914207282F30E0CA010297FA
:101BC00028173907ECF5CA0103972817390764F07D
:101BD0008217930749F4A3E4B7E090E0FA01319744
:101BE0009F012F5B384F07C01092230110922201F2
:101BF00027C08D91980FA217B307D9F7EF5BF84F65
:101C000080819817E9F4802F9F2D9C01D90122E053
:101C100030E007C0F901EF5BF84F80818D932F5FB3
:101C20003F4F422F42508091220190912301029711
:101C3000281739077CF3109223011092220101C06A
:101C400040E0842F0F90CF91DF911F910F91FF9073
:101C50000895CF92DF92EF92FF920F931F93DF933D
:101C6000CF93CDB7DEB7C054D0400FB6F894DEBFE7
:101C70000FBECDBFAC0180912C0190912D01892B1D
:101C800011F48FEF41C08AEF89836A83DE011396D6
:101C90008D0170E06E5F7F4F9E012F5F3F4F260FDB
:101CA000371F06C0FA018191AF01F80181938F01BE
:101CB00002171307B9F720E002C08D91280FA01773
:101CC000B107D9F7CE010196FC01E60FF71F20837B
:101CD0007B010894E11CF11CFC01EE0DFF1D2FEAB5
:101CE000208300E010E06C01F601E00FF11F20916D
:101CF0002C0130912D018081F90109950F5F1F4F53
:101D0000E016F1068CF780E0C05CDF4F0FB6F89468
:101D1000DEBF0FBECDBFCF91DF911F910F91FF901E
:101D2000EF90DF90CF9008950F931F93DF93CF93A1
:101D30000F92CDB7DEB78C01E0912A01F0912B0113
:101D4000309711F48FEFA5C0CE01019609951816B2
:101D500019060CF09DC080912601909127018230D8
:101D6000910509F448C08330910534F40097A9F037
:101D7000019709F089C026C08330910521F00497AE
:101D800009F082C066C040912401509125014F5F47
:101D90005F4F90E022E030E04FC010922901109296
:101DA000280129812A3F09F073C081E090E09093D7
:101DB0002701809326012093810790932901809326
:101DC000280166C080912801909129012981FC0198
:101DD000EF57F84F208301969093290180932801B3
:101DE00082E090E0909327018093260120932401C4
:101DF000109225014DC02091280130912901F9014F
:101E0000EF57F84F898180832F5F3F4F309329012F
:101E10002093280180912401909125010196821739
:101E20009307B4F583E090E00FC0F901EF57F84F46
:101E30008081980F2F5F3F4F42175307B4F7898176
:101E4000891711F584E090E0909327018093260193
:101E50001FC089818F3AC1F4109227011092260188
:101E6000A3E8B7E020E030E007C0F801E20FF31F7D
:101E70008D9180832F5F3F4F8091240190912501A8
:101E80002817390794F305C01092270110922601F4
:101E900080E00F90CF91DF911F910F910895809175
:101EA000330190913201891B8F70089580916101F7
:101EB000089580913401089530E050E0BFEAAAEF20
:101EC00024C0FB01E50FF11D20812F3FC1F42181CA
:101ED0002F3F29F4FC01E30FF11D20830DC02130B9
:101EE00029F4FC01E30FF11DA08306C0223029F480
:101EF000FC01E30FF11DB0833F5F5F5F05C0FC0194
:101F0000E30FF11D20833F5F5F5F5417D0F2832FF3
:101F10000895CF93DF93DC01EB0180E020E03FEFF9
:101F200062E051E02CC098819A3F51F4FD01E80F26
:101F3000F11D30838F5FFD01E80FF11D50830BC051
:101F40009F3A59F4FD01E80FF11D30838F5FFD01C9
:101F5000E80FF11D60838F5F10C0E82FF0E08F5F06
:101F60009F3F41F4EA0FFB1F9083FD01E80FF11D35
:101F70009083F1CFEA0FFB1F90832F5F21962417E8
:101F800090F2DF91CF9108951092F10990E490932F
:101F9000F20995E09093F3098093F40981EF99E0B9
:101FA00064E00E94520D08951092F10990E490931C
:101FB000F20992E09093F3098093F40981EF99E09C
:101FC00064E00E94520D08951092F10920E32093DD
:101FD000F2099093F3098093F40981EF99E064E0AA
:101FE0000E94520D08951092F10981E08093F20948
:101FF0008093F30981EF99E063E00E94520D089508
:102000001092F10980E18093F2091092F30981EFB7
:1020100099E063E00E94520D08951092F109109228
:10202000F20981EF99E062E00E94520D08950F934A
:102030001F93CF93DF93FC018081833009F47EC02E
:10204000843030F4813059F0823009F079C072C0A8
:10205000813109F44EC0813A09F072C068C093859D
:1020600080E0248530E0822B932B90936301809352
:102070006201958580E0268530E0822B932B90933A
:10208000650180936401978580E02089C22FD0E0AC
:10209000C82BD92B8091670190916801C817D90787
:1020A00041F084E090E048EE53E060E070E00E9490
:1020B000F60AD0936801C093670100916401109102
:1020C00065010E94401290E091600817190749F0DD
:1020D0000E94401290E091600E94E40F0E94F30F72
:1020E0002FC0809161018330D9F081E0809361013C
:1020F00017C00185009366010E94401210E090E035
:1021000008968F7090700B960817190761F00E945F
:10211000401290E008968F709070855F0E94D40FF7
:102120000E9400100DC083E08093610109C00E94ED
:102130000D1006C081E08093340102C0109234017A
:10214000DF91CF911F910F9108951F93CF93DF934C
:10215000EC01142F9091330180913201292F281B1B
:10216000822F8F708F3001F123E2929F9001112412
:102170002C53384FC90150E00E94D71240913301CF
:10218000242F30E083E290E0289FF001299FF00D9A
:10219000389FF00D1124EF53F84F1283D183C08381
:1021A0004F5F4F7040933301DF91CF911F9108959E
:1021B000EF92FF920F931F93F82EE92E01EF19E093
:1021C00080E18093F1099093F209F092F309109263
:1021D000F4091092F509C80105960E94890F482F4D
:1021E0004B5F8F2D9E2DB8010E94A5101F910F915E
:1021F000FF90EF9008950F931F93CF93DF93EC011F
:102200009091320180913301891B8F7011F420E08D
:102210002BC0892F90E0BE016D5F7F4F03E210E07D
:10222000809F9001819F300D909F300D1124F90106
:10223000EF53F84F42812C53384FCB01B90150E096
:102240000E94D7128091320190E0809FF001819F1F
:10225000F00D909FF00D1124EF53F84F22812A8347
:102260008081918199838883822FDF91CF911F9103
:102270000F9108950F931F93CF93DF93EC019091EB
:10228000320180913301891B8F7011F430E030C02E
:10229000892F90E0BE016D5F7F4F03E210E0809FC9
:1022A0009001819F300D909F300D1124F901EF5363
:1022B000F84F42812C53384FCB01B90150E00E94B6
:1022C000D71220913201822F90E0809FF001819FF0
:1022D000F00D909FF00D1124EF53F84F32813A83A7
:1022E00080819181998388832F5F2F7020933201A1
:1022F000832FDF91CF911F910F910895809133012A
:1023000090913201891B8F70B1F08091610183300F
:1023100091F480913401813071F48EE391E00E9458
:102320003A11109235011092360110923701109235
:102330003801109234018091330190913201891B50
:102340008F7009F461C080916101833009F05CC035
:1023500080913401823011F58091390190913A01D8
:10236000A0913B01B0913C010196A11DB11D80934C
:10237000390190933A01A0933B01B0933C0103973C
:10238000A105B10508F440C01092390110923A013C
:1023900010923B0110923C01109234018EE391E0C7
:1023A0000E94FB1080933D01882371F180913501DB
:1023B00090913601A0913701B09138010196A11D8D
:1023C000B11D8093350190933601A0933701B093EE
:1023D00038010B97A105B10560F0109235011092FC
:1023E0003601109237011092380181E08093340158
:1023F000089582E08093340181E491E0609140018E
:102400000E94520D10923D01089581B3826281BBFA
:1024100082B38D7D82BB08958E3418F482B38262BC
:102420000CC08B3918F4959A919808958E3C18F445
:102430009598919A089582B38D7D82BB0895BF9A35
:102440008CE685BD089515BC089583BD089513BC21
:10245000089587B38F7887BBE4E6F0E08081877FBB
:10246000808382B18F7082B988B3806788BBE5E6CC
:10247000F0E080818860808383B1806F83B90895A4
:1024800086B32091630030E02870307094E0220F12
:10249000331F9A95E1F78077822B91B192959F70C7
:1024A000892B80950895FC0120E030E04CE050E05D
:1024B0009081892F80538A3020F4892F90E0C09733
:1024C00010C0892F8154863020F4892F90E0C7975F
:1024D00008C0892F8156863060F4892F90E0875597
:1024E0009040042E02C0880F991F0A94E2F7282B0F
:1024F000392B3196445050408FEF4C3F5807C1F66E
:10250000C9010895FC0140E024E030E09081892F6A
:1025100080538A3020F4892F90E0C09710C0892F13
:102520008154863020F4892F90E0C79708C0892F06
:102530008156863058F4892F90E087559040022EBE
:1025400002C0880F991F0A94E2F7482B3196245055
:1025500030408FEF2C3F3807C9F6842F0895282F7D
:1025600030E02F7030702A3031051CF48F70805DA0
:1025700008952A5030402630310510F080E008954B
:102580008F70895C0895AA1BBB1B51E107C0AA1F6D
:10259000BB1FA617B70710F0A61BB70B881F991F04
:1025A0005A95A9F780959095BC01CD010895FB013E
:1025B000DC0102C001900D9241505040D8F70895BF
:1025C000DF93CF93CDB7DEB7FE0135966191719160
:1025D000A091130AB091140A13968C9113978860F6
:1025E00013968C938091130A9091140AAF010E9464
:1025F0000313E091130AF091140A2381277F2383A8
:10260000CF91DF9108952F923F924F925F926F92F8
:102610007F928F929F92AF92BF92CF92DF92EF9272
:10262000FF920F931F93DF93CF93CDB7DEB72B9716
:102630000FB6F894DEBF0FBECDBF3C012B015A018F
:10264000FC0117821682838181FD03C06FEF7FEF4B
:10265000C6C19AE0892E1E010894211C311CF30189
:102660002381F20123FD859123FF81912F0188238E
:1026700009F4B2C1853239F423FD859123FF81919C
:102680002F01853229F490E0B3010E941F15E7CF96
:10269000982FFF24EE249924FFE1FF15D0F09B3200
:1026A00069F09C3228F4903259F0933291F40EC0C4
:1026B0009D3249F0903369F441E024C052E0F52A9C
:1026C00084E0F82A28C098E0F92A25C0E0E1FE2A33
:1026D00022C0F7FC29C0892F80538A3070F4F6FE9F
:1026E00005C0989C902C1124980E15C0E89CE02CF5
:1026F0001124E80EF0E2FF2A0EC09E3229F4F6FC07
:102700006BC140E4F42A07C09C3619F450E8F52A5E
:1027100002C0983649F4F20123FD959123FF91916F
:102720002F01992309F0B8CF892F8554833018F0F1
:102730008052833038F444E050E0A40EB51E5FE3CD
:1027400059830FC0933631F0933779F0933509F000
:1027500056C020C0F5018081898342E050E0A40E7C
:10276000B51E610101E010E012C0F501C080D1800A
:10277000F6FC03C06FEF7FEF02C0692D70E042E00E
:1027800050E0A40EB51EC6010E9414158C015FE72F
:10279000F52214C0F501C080D180F6FC03C06FEFB4
:1027A0007FEF02C0692D70E042E050E0A40EB51E3C
:1027B000C6010E9409158C0150E8F52AF3FE07C0F6
:1027C0001AC080E290E0B3010E941F15EA948E2D9A
:1027D00090E008171907A8F30EC0F601F7FC8591E1
:1027E000F7FE81916F0190E0B3010E941F15E11087
:1027F000EA94015010400115110579F7EAC09436AA
:1028000011F0993669F5F7FE08C0F5012081318194
:102810004281538184E090E00AC0F501808191817A
:102820009C01442737FD4095542F82E090E0A80E8C
:10283000B91E9FE6F92257FF09C050954095309583
:1028400021953F4F4F4F5F4FE0E8FE2ACA01B90183
:10285000A1012AE030E00E944B15D82ED21840C0CA
:10286000953729F41F2D1F7E2AE030E01DC01F2D53
:10287000197F9F3661F0903720F4983509F0ACC08D
:102880000FC0903739F0983709F0A6C004C028E08F
:1028900030E00AC0106114FD146020E130E004C093
:1028A00014FD166020E132E017FF08C0F5016081D9
:1028B00071818281938144E050E008C0F5018081FC
:1028C0009181BC0180E090E042E050E0A40EB51E92
:1028D000A1010E944B15D82ED2188FE7F82EF122B5
:1028E000F6FE0BC05EEFF522D91438F4F4FE07C0F3
:1028F000F2FC05C08FEEF82202C01D2D01C0192D7B
:10290000F4FE0DC0FE01ED0DF11D8081803319F440
:1029100099EEF92208C01F5FF2FE05C003C08F2D9B
:10292000867809F01F5F0F2DF3FC14C0F0FE0FC076
:102930001E1510F09D2C0BC09D2C9E0C911A1E2D67
:1029400006C080E290E0B3010E941F151F5F1E15B4
:10295000C0F304C01E1510F4E11A01C0EE2404FFF8
:102960000FC080E390E0B3010E941F1502FF1DC05D
:1029700001FD03C088E790E00EC088E590E00BC041
:10298000802F867891F001FF02C08BE201C080E2C7
:10299000F7FC8DE290E0B3010E941F1506C080E3B2
:1029A00090E0B3010E941F159A94D914C0F3DA94F1
:1029B000F101ED0DF11D808190E0B3010E941F1522
:1029C000DD20A9F706C080E290E0B3010E941F1548
:1029D000EA94EE20C1F743CEF30166817781CB0103
:1029E0002B960FB6F894DEBF0FBECDBFCF91DF910F
:1029F0001F910F91FF90EF90DF90CF90BF90AF901D
:102A00009F908F907F906F905F904F903F902F900E
:102A10000895FC010590615070400110D8F7809531
:102A200090958E0F9F1F0895FC016150704001909A
:102A30000110D8F7809590958E0F9F1F08950F93E2
:102A40001F93CF93DF938C01EB018B8181FF1BC020
:102A500082FF0DC02E813F818C819D81281739070F
:102A600064F4E881F9810193F983E88306C0E8857D
:102A7000F985802F0995892B31F48E819F810196EC
:102A80009F838E8302C00FEF1FEFC801DF91CF91AC
:102A90001F910F910895FA01AA27283051F1203192
:102AA00081F1E8946F936E7F6E5F7F4F8F4F9F4FE2
:102AB000AF4FB1E03ED0B4E03CD0670F781F891F24
:102AC0009A1FA11D680F791F8A1F911DA11D6A0FF2
:102AD000711D811D911DA11D20D009F468943F91A5
:102AE0002AE0269F11243019305D3193DEF6CF01A4
:102AF0000895462F4770405D4193B3E00FD0C9F76A
:102B0000F6CF462F4F70405D4A3318F0495D31FDD6
:102B10004052419302D0A9F7EACFB4E0A695979529
:102B2000879577956795BA95C9F7009761057105FF
:102B300008959B01AC010A2E069457954795379549
:102B40002795BA95C9F7620F731F841F951FA01DA3
:062B50000895F894FFCF88
:042B5600FFFFFFFF7F
:00000001FF
