Archive member included because of file (symbol)

c:/winavr-20100110/bin/../lib/gcc/avr/4.3.3/avr51\libgcc.a(_udivmodhi4.o)
                              ./src/RFU_Protocol.o (__udivmodhi4)
c:/winavr-20100110/bin/../lib/gcc/avr/4.3.3/avr51\libgcc.a(_exit.o)
                              c:/winavr-20100110/bin/../lib/gcc/avr/4.3.3/../../../../avr/lib/avr51/crtm128.o (exit)
c:/winavr-20100110/bin/../lib/gcc/avr/4.3.3/avr51\libgcc.a(_clear_bss.o)
                              ./src/GC_Protocol.o (__do_clear_bss)
c:/winavr-20100110/bin/../lib/gcc/avr/4.3.3/../../../../avr/lib/avr51\libc.a(memcpy.o)
                              ./src/ZRMProtocol.o (memcpy)

Allocating common symbols
Common symbol       size              file

msgFromZigbee       0x40              ./src/MDT-200Z.o
uart1_tx_buff       0x100             ./src/Uart.o
xcps_rx_packet_zigbee
                    0x40              ./src/Xcps.o
uart0_rx_buff       0x100             ./src/Uart.o
sendBuffData        0x230             ./src/ZRMProtocol.o
ctrl_Cmd            0x2               ./src/NCProtocol.o
tmp_zrmp            0x8               ./src/GC_Protocol.o
dev_Count           0x1               ./src/NCProtocol.o
tmp_BuffForGC       0x40              ./src/GC_Protocol.o
tmp_BuffForNCP      0x40              ./src/NCProtocol.o
uart0_tx_buff       0x100             ./src/Uart.o
tmp_BuffForRFUP     0x40              ./src/RFU_Protocol.o
xcps_rx_packet_rs485
                    0x40              ./src/Xcps.o
ZigbeePacket        0x40              ./src/MDT-200Z.o
uart1_rx_buff       0x100             ./src/Uart.o
z_ieee_Id           0x4               ./src/NCProtocol.o
timerCount          0x4               ./src/Timer.o
device_Type         0x2               ./src/NCProtocol.o
timer_list          0x4b              ./src/Timer.o
tmp_BuffForZRM      0x20              ./src/ZRMProtocol.o
tmpBuffForMDP       0x40              ./src/MD_Protocol.o

Memory Configuration

Name             Origin             Length             Attributes
text             0x00000000         0x00020000         xr
data             0x00800060         0x0000ffa0         rw !x
eeprom           0x00810000         0x00010000         rw !x
fuse             0x00820000         0x00000400         rw !x
lock             0x00830000         0x00000400         rw !x
signature        0x00840000         0x00000400         rw !x
*default*        0x00000000         0xffffffff

Linker script and memory map

Address of section .data set to 0x800100
LOAD c:/winavr-20100110/bin/../lib/gcc/avr/4.3.3/../../../../avr/lib/avr51/crtm128.o
LOAD ./src/Flash.o
LOAD ./src/GC_Protocol.o
LOAD ./src/MDT-200Z.o
LOAD ./src/MD_Protocol.o
LOAD ./src/NCProtocol.o
LOAD ./src/RFU_Protocol.o
LOAD ./src/Timer.o
LOAD ./src/Uart.o
LOAD ./src/XNetProtocol.o
LOAD ./src/Xcps.o
LOAD ./src/ZRMProtocol.o
LOAD ./src/luminature.o
LOAD ./src/pwm.o
LOAD ./src/rotary.o
LOAD ./src/util.o
LOAD c:/winavr-20100110/bin/../lib/gcc/avr/4.3.3/avr51\libgcc.a
LOAD c:/winavr-20100110/bin/../lib/gcc/avr/4.3.3/../../../../avr/lib/avr51\libc.a
LOAD c:/winavr-20100110/bin/../lib/gcc/avr/4.3.3/avr51\libgcc.a

.hash
 *(.hash)

.dynsym
 *(.dynsym)

.dynstr
 *(.dynstr)

.gnu.version
 *(.gnu.version)

.gnu.version_d
 *(.gnu.version_d)

.gnu.version_r
 *(.gnu.version_r)

.rel.init
 *(.rel.init)

.rela.init
 *(.rela.init)

.rel.text
 *(.rel.text)
 *(.rel.text.*)
 *(.rel.gnu.linkonce.t*)

.rela.text
 *(.rela.text)
 *(.rela.text.*)
 *(.rela.gnu.linkonce.t*)

.rel.fini
 *(.rel.fini)

.rela.fini
 *(.rela.fini)

.rel.rodata
 *(.rel.rodata)
 *(.rel.rodata.*)
 *(.rel.gnu.linkonce.r*)

.rela.rodata
 *(.rela.rodata)
 *(.rela.rodata.*)
 *(.rela.gnu.linkonce.r*)

.rel.data
 *(.rel.data)
 *(.rel.data.*)
 *(.rel.gnu.linkonce.d*)

.rela.data
 *(.rela.data)
 *(.rela.data.*)
 *(.rela.gnu.linkonce.d*)

.rel.ctors
 *(.rel.ctors)

.rela.ctors
 *(.rela.ctors)

.rel.dtors
 *(.rel.dtors)

.rela.dtors
 *(.rela.dtors)

.rel.got
 *(.rel.got)

.rela.got
 *(.rela.got)

.rel.bss
 *(.rel.bss)

.rela.bss
 *(.rela.bss)

.rel.plt
 *(.rel.plt)

.rela.plt
 *(.rela.plt)

.text           0x00000000     0x2540
 *(.vectors)
 .vectors       0x00000000       0x8c c:/winavr-20100110/bin/../lib/gcc/avr/4.3.3/../../../../avr/lib/avr51/crtm128.o
                0x00000000                __vectors
                0x00000000                __vector_default
 *(.vectors)
 *(.progmem.gcc*)
 *(.progmem*)
                0x0000008c                . = ALIGN (0x2)
                0x0000008c                __trampolines_start = .
 *(.trampolines)
 .trampolines   0x0000008c        0x0 linker stubs
 *(.trampolines*)
                0x0000008c                __trampolines_end = .
 *(.jumptables)
 *(.jumptables*)
 *(.lowtext)
 *(.lowtext*)
                0x0000008c                __ctors_start = .
 *(.ctors)
                0x0000008c                __ctors_end = .
                0x0000008c                __dtors_start = .
 *(.dtors)
                0x0000008c                __dtors_end = .
 SORT(*)(.ctors)
 SORT(*)(.dtors)
 *(.init0)
 .init0         0x0000008c        0x0 c:/winavr-20100110/bin/../lib/gcc/avr/4.3.3/../../../../avr/lib/avr51/crtm128.o
                0x0000008c                __init
 *(.init0)
 *(.init1)
 *(.init1)
 *(.init2)
 .init2         0x0000008c        0xc c:/winavr-20100110/bin/../lib/gcc/avr/4.3.3/../../../../avr/lib/avr51/crtm128.o
 *(.init2)
 *(.init3)
 *(.init3)
 *(.init4)
 .init4         0x00000098       0x1a c:/winavr-20100110/bin/../lib/gcc/avr/4.3.3/../../../../avr/lib/avr51/crtm128.o
                0x00000098                __do_copy_data
 .init4         0x000000b2       0x10 c:/winavr-20100110/bin/../lib/gcc/avr/4.3.3/avr51\libgcc.a(_clear_bss.o)
                0x000000b2                __do_clear_bss
 *(.init4)
 *(.init5)
 *(.init5)
 *(.init6)
 *(.init6)
 *(.init7)
 *(.init7)
 *(.init8)
 *(.init8)
 *(.init9)
 .init9         0x000000c2        0x8 c:/winavr-20100110/bin/../lib/gcc/avr/4.3.3/../../../../avr/lib/avr51/crtm128.o
 *(.init9)
 *(.text)
 .text          0x000000ca        0x4 c:/winavr-20100110/bin/../lib/gcc/avr/4.3.3/../../../../avr/lib/avr51/crtm128.o
                0x000000ca                __vector_22
                0x000000ca                __vector_28
                0x000000ca                __vector_1
                0x000000ca                __vector_34
                0x000000ca                __vector_24
                0x000000ca                __vector_12
                0x000000ca                __bad_interrupt
                0x000000ca                __vector_6
                0x000000ca                __vector_3
                0x000000ca                __vector_23
                0x000000ca                __vector_25
                0x000000ca                __vector_11
                0x000000ca                __vector_13
                0x000000ca                __vector_17
                0x000000ca                __vector_7
                0x000000ca                __vector_27
                0x000000ca                __vector_5
                0x000000ca                __vector_33
                0x000000ca                __vector_4
                0x000000ca                __vector_9
                0x000000ca                __vector_2
                0x000000ca                __vector_21
                0x000000ca                __vector_15
                0x000000ca                __vector_29
                0x000000ca                __vector_8
                0x000000ca                __vector_14
                0x000000ca                __vector_10
                0x000000ca                __vector_16
 .text          0x000000ce      0x4c0 ./src/Flash.o
                0x000003a2                flash_writeUint32
                0x000001e2                flash_bufferToMainMemory
                0x00000178                flash_bufferWrite
                0x000000ce                flash_init
                0x000000da                clk
                0x000004b8                flash_writeBytes
                0x0000033a                flash_readUint16
                0x0000026e                flash_bufferReadUint8
                0x00000566                flash_readStatus
                0x000002a4                flash_readUint8
                0x000003ec                flash_readUint32
                0x000000f2                flash_writeByteToSI
                0x00000132                flash_readByteFromSO
                0x00000232                flash_writeUint8
                0x000002fa                flash_writeUint16
                0x000004e0                flash_readBytes
 .text          0x0000058e      0x19a ./src/GC_Protocol.o
                0x000005aa                plcs_GetGCPMessage
                0x00000618                plcs_GetGCPResMessage
                0x00000670                plcs_gcp_SendStateInfoRes
                0x00000710                plcs_GCP_ProcessMessageFromZigbee
                0x0000058e                getSeqNumGeneratorForGCP
                0x000006f2                plcs_GCP_HandleStateInfoReq
 .text          0x00000728      0x45c ./src/MDT-200Z.o
                0x00000764                WDT_INIT
                0x0000092c                ledTask
                0x0000074c                resetZigbee
                0x00000810                ZigbeeUsartTask
                0x0000077e                TestTask
                0x00000a7e                main
                0x00000728                InitMCU
                0x000007b6                NCP_Task
                0x00000902                ZigbeeSend_Task
 .text          0x00000b84      0x22e ./src/MD_Protocol.o
                0x00000c66                MDP_GetLastSendDimmingLevel
                0x00000b84                getSeqNumGeneratorForMDP
                0x00000c72                MDP_SendSetWatchdogReqToMDP
                0x00000c0e                plcs_GetMDPResMessage
                0x00000d48                MDP_HandleDimmingReq
                0x00000da0                plcs_MDP_ProcessMessageFromZigbee
                0x00000cdc                MDP_SendDimmingReqToMDP
                0x00000ba0                plcs_GetMDPMessage
 .text          0x00000db2      0x1ea ./src/NCProtocol.o
                0x00000e48                plcs_GetNCPMessage
                0x00000e00                ncp_ProcessRegisterRes
                0x00000e42                ncp_setNCPState
                0x00000eb6                ncp_SendRegisterReq
                0x00000e20                getSeqNumGenerator
                0x00000e3c                ncp_ConnState
                0x00000dee                ncp_ProcessPingRes
                0x00000f26                ncp_SendPingReq
                0x00000db2                ncp_ProcessMessage
 .text          0x00000f9c      0x5b4 ./src/RFU_Protocol.o
                0x00001306                plcs_RFUP_SetReadyToUpgradeFirmware
                0x000014d8                plcs_RFUP_HandleUpgradeFirmwareReq
                0x00001512                plcs_RFUP_ProcessMessage
                0x00001312                plcs_RFUP_SendDataRes
                0x00001458                plcs_RFUP_SendUpgradeFirmwareRes
                0x00001080                plcs_RFUP_CheckDownloadedFirmwareAt
                0x00000f9e                getSeqNumGeneratorForRFUP
                0x00000fba                plcs_GetRFUPMessage
                0x00001154                plcs_RFUP_CheckDownloadedFirmware
                0x00001028                plcs_GetRFUPResMessage
                0x00000f9c                plcs_RFUP_Reboot
                0x00001214                plcs_RFUP_WriteFirmwareData
                0x00001392                plcs_RFUP_HandleSendDataReq
 .text          0x00001550      0x154 ./src/Timer.o
                0x0000157a                timer_get
                0x000015d4                timer_init
                0x00001550                timer_set
                0x0000161e                __vector_26
                0x000015b4                timer_clear
 .text          0x000016a4      0x2e6 ./src/Uart.o
                0x000018e0                __vector_32
                0x000017da                USART0_Receive
                0x0000187c                __vector_31
                0x00001822                __vector_30
                0x00001728                __vector_19
                0x0000193a                USART1_Receive
                0x00001976                USART1_Transmit
                0x00001816                USART0_Transmit
                0x000016a4                InitUART
                0x000016d4                __vector_18
                0x00001782                __vector_20
 .text          0x0000198a       0x6e ./src/XNetProtocol.o
                0x0000198a                XNetHandlerFromZigbee
 .text          0x000019f8      0x422 ./src/Xcps.o
                0x00001ca4                xcps_recv_rs485
                0x000019f8                xcps_init_zigbee
                0x00001a98                xcps_recv_zigbee
                0x00001a0c                xcps_init_rs485
                0x00001a20                xcps_send_zigbee
                0x00001bce                xcps_send_rs485
 .text          0x00001e1a      0x56c ./src/ZRMProtocol.o
                0x00001f96                ZRMsendPing
                0x00001e1a                getZRMMessageListSize
                0x00001f44                ZRMSendSetPanID
                0x000020c6                addMessageToSendBuff
                0x00001f7c                ZRMsendConfig
                0x00001e8e                ZRM_getTranlatedCode
                0x00001f04                ZRMSendSetPreconfig
                0x00001e2e                getLastResult
                0x00001f62                ZRMSendReset
                0x0000212c                sendToZigbee
                0x00002278                sendQueueingMessage
                0x00001f24                ZRMSendSetChannel
                0x00001e28                getZigbeeState
                0x00001e34                ZRM_getOriginalCode
                0x000021f0                getMessageFromSendBuff
                0x00001faa                ZRMPMessage
                0x00002172                getMessageFromSendBuffWORemove
 .text          0x00002386       0x34 ./src/luminature.o
                0x00002394                luminature_ControlLuminatureDimming
                0x00002386                luminature_Init
 .text          0x000023ba       0x14 ./src/pwm.o
                0x000023c2                pwm_UnInit
                0x000023c6                pwm_On
                0x000023ca                pwm_Off
                0x000023ba                pwm_Init
 .text          0x000023ce       0x54 ./src/rotary.o
                0x000023ce                initRotary
                0x000023fc                rotary_GetValue
 .text          0x00002422       0xe0 ./src/util.o
                0x00002422                toUint16
                0x00002480                toUint8
                0x000024da                toHexCharacterOfLowerByte
 .text          0x00002502        0x0 c:/winavr-20100110/bin/../lib/gcc/avr/4.3.3/avr51\libgcc.a(_udivmodhi4.o)
 .text          0x00002502        0x0 c:/winavr-20100110/bin/../lib/gcc/avr/4.3.3/avr51\libgcc.a(_exit.o)
 .text          0x00002502        0x0 c:/winavr-20100110/bin/../lib/gcc/avr/4.3.3/avr51\libgcc.a(_clear_bss.o)
 .text          0x00002502        0x0 c:/winavr-20100110/bin/../lib/gcc/avr/4.3.3/../../../../avr/lib/avr51\libc.a(memcpy.o)
                0x00002502                . = ALIGN (0x2)
 *(.text.*)
 .text.libgcc   0x00002502       0x28 c:/winavr-20100110/bin/../lib/gcc/avr/4.3.3/avr51\libgcc.a(_udivmodhi4.o)
                0x00002502                __udivmodhi4
 .text.libgcc   0x0000252a        0x0 c:/winavr-20100110/bin/../lib/gcc/avr/4.3.3/avr51\libgcc.a(_exit.o)
 .text.libgcc   0x0000252a        0x0 c:/winavr-20100110/bin/../lib/gcc/avr/4.3.3/avr51\libgcc.a(_clear_bss.o)
 .text.avr-libc
                0x0000252a       0x12 c:/winavr-20100110/bin/../lib/gcc/avr/4.3.3/../../../../avr/lib/avr51\libc.a(memcpy.o)
                0x0000252a                memcpy
                0x0000253c                . = ALIGN (0x2)
 *(.fini9)
 .fini9         0x0000253c        0x0 c:/winavr-20100110/bin/../lib/gcc/avr/4.3.3/avr51\libgcc.a(_exit.o)
                0x0000253c                exit
                0x0000253c                _exit
 *(.fini9)
 *(.fini8)
 *(.fini8)
 *(.fini7)
 *(.fini7)
 *(.fini6)
 *(.fini6)
 *(.fini5)
 *(.fini5)
 *(.fini4)
 *(.fini4)
 *(.fini3)
 *(.fini3)
 *(.fini2)
 *(.fini2)
 *(.fini1)
 *(.fini1)
 *(.fini0)
 .fini0         0x0000253c        0x4 c:/winavr-20100110/bin/../lib/gcc/avr/4.3.3/avr51\libgcc.a(_exit.o)
 *(.fini0)
                0x00002540                _etext = .

.data           0x00800100        0x4 load address 0x00002540
                0x00800100                PROVIDE (__data_start, .)
 *(.data)
 .data          0x00800100        0x0 c:/winavr-20100110/bin/../lib/gcc/avr/4.3.3/../../../../avr/lib/avr51/crtm128.o
 .data          0x00800100        0x0 ./src/Flash.o
 .data          0x00800100        0x0 ./src/GC_Protocol.o
 .data          0x00800100        0x0 ./src/MDT-200Z.o
 .data          0x00800100        0x4 ./src/MD_Protocol.o
                0x00800100                lastSendDimmingLevel
 .data          0x00800104        0x0 ./src/NCProtocol.o
 .data          0x00800104        0x0 ./src/RFU_Protocol.o
 .data          0x00800104        0x0 ./src/Timer.o
 .data          0x00800104        0x0 ./src/Uart.o
 .data          0x00800104        0x0 ./src/XNetProtocol.o
 .data          0x00800104        0x0 ./src/Xcps.o
 .data          0x00800104        0x0 ./src/ZRMProtocol.o
 .data          0x00800104        0x0 ./src/luminature.o
 .data          0x00800104        0x0 ./src/pwm.o
 .data          0x00800104        0x0 ./src/rotary.o
 .data          0x00800104        0x0 ./src/util.o
 .data          0x00800104        0x0 c:/winavr-20100110/bin/../lib/gcc/avr/4.3.3/avr51\libgcc.a(_udivmodhi4.o)
 .data          0x00800104        0x0 c:/winavr-20100110/bin/../lib/gcc/avr/4.3.3/avr51\libgcc.a(_exit.o)
 .data          0x00800104        0x0 c:/winavr-20100110/bin/../lib/gcc/avr/4.3.3/avr51\libgcc.a(_clear_bss.o)
 .data          0x00800104        0x0 c:/winavr-20100110/bin/../lib/gcc/avr/4.3.3/../../../../avr/lib/avr51\libc.a(memcpy.o)
 *(.data*)
 *(.rodata)
 *(.rodata*)
 *(.gnu.linkonce.d*)
                0x00800104                . = ALIGN (0x2)
                0x00800104                _edata = .
                0x00800104                PROVIDE (__data_end, .)

.bss            0x00800104      0x909
                0x00800104                PROVIDE (__bss_start, .)
 *(.bss)
 .bss           0x00800104        0x0 c:/winavr-20100110/bin/../lib/gcc/avr/4.3.3/../../../../avr/lib/avr51/crtm128.o
 .bss           0x00800104        0x0 ./src/Flash.o
 .bss           0x00800104        0x2 ./src/GC_Protocol.o
                0x00800104                seqNumGeneratorForGCP
 .bss           0x00800106        0x4 ./src/MDT-200Z.o
 .bss           0x0080010a        0x2 ./src/MD_Protocol.o
                0x0080010a                seqNumGeneratorForMDP
 .bss           0x0080010c        0x4 ./src/NCProtocol.o
                0x0080010c                ncp_NetState
                0x0080010d                pingCount
                0x0080010e                seqNumGenerator
 .bss           0x00800110        0x2 ./src/RFU_Protocol.o
                0x00800110                seqNumGeneratorForRFUP
 .bss           0x00800112        0x0 ./src/Timer.o
 .bss           0x00800112        0xc ./src/Uart.o
                0x00800118                uart1_rx_front
                0x00800115                uart0_tx_front
                0x0080011b                uart1_tx_front
                0x00800113                uart0_rx_tail
                0x00800119                uart1_rx_tail
                0x00800116                uart0_tx_tail
                0x0080011c                uart1_tx_tail
                0x0080011d                uart1_tx_len
                0x00800112                uart0_rx_front
                0x0080011a                uart1_rx_len
                0x00800114                uart0_rx_len
                0x00800117                uart0_tx_len
 .bss           0x0080011e        0x0 ./src/XNetProtocol.o
 .bss           0x0080011e       0x10 ./src/Xcps.o
                0x0080011e                xcps_rxlen_zigbee
                0x00800122                xcps_state_rs485
                0x00800124                xcps_rxlen_rs485
                0x00800120                xcps_pdu_len_rs485
 .bss           0x0080012e       0x2f ./src/ZRMProtocol.o
                0x00800130                lastResult
                0x0080012e                sendBuffForZRM_Head
                0x0080012f                sendBuffForZRM_Tail
 .bss           0x0080015d        0x0 ./src/luminature.o
 .bss           0x0080015d        0x0 ./src/pwm.o
 .bss           0x0080015d        0x0 ./src/rotary.o
 .bss           0x0080015d        0x0 ./src/util.o
 .bss           0x0080015d        0x0 c:/winavr-20100110/bin/../lib/gcc/avr/4.3.3/avr51\libgcc.a(_udivmodhi4.o)
 .bss           0x0080015d        0x0 c:/winavr-20100110/bin/../lib/gcc/avr/4.3.3/avr51\libgcc.a(_exit.o)
 .bss           0x0080015d        0x0 c:/winavr-20100110/bin/../lib/gcc/avr/4.3.3/avr51\libgcc.a(_clear_bss.o)
 .bss           0x0080015d        0x0 c:/winavr-20100110/bin/../lib/gcc/avr/4.3.3/../../../../avr/lib/avr51\libc.a(memcpy.o)
 *(.bss*)
 *(COMMON)
 COMMON         0x0080015d       0x48 ./src/GC_Protocol.o
                0x0080015d                tmp_zrmp
                0x00800165                tmp_BuffForGC
 COMMON         0x008001a5       0x80 ./src/MDT-200Z.o
                0x008001a5                msgFromZigbee
                0x008001e5                ZigbeePacket
 COMMON         0x00800225       0x40 ./src/MD_Protocol.o
                0x00800225                tmpBuffForMDP
 COMMON         0x00800265       0x49 ./src/NCProtocol.o
                0x00800265                ctrl_Cmd
                0x00800267                dev_Count
                0x00800268                tmp_BuffForNCP
                0x008002a8                z_ieee_Id
                0x008002ac                device_Type
 COMMON         0x008002ae       0x40 ./src/RFU_Protocol.o
                0x008002ae                tmp_BuffForRFUP
 COMMON         0x008002ee       0x4f ./src/Timer.o
                0x008002ee                timerCount
                0x008002f2                timer_list
 COMMON         0x0080033d      0x400 ./src/Uart.o
                0x0080033d                uart1_tx_buff
                0x0080043d                uart0_rx_buff
                0x0080053d                uart0_tx_buff
                0x0080063d                uart1_rx_buff
 COMMON         0x0080073d       0x80 ./src/Xcps.o
                0x0080073d                xcps_rx_packet_zigbee
                0x0080077d                xcps_rx_packet_rs485
 COMMON         0x008007bd      0x250 ./src/ZRMProtocol.o
                0x008007bd                sendBuffData
                0x008009ed                tmp_BuffForZRM
                0x00800a0d                PROVIDE (__bss_end, .)
                0x00002540                __data_load_start = LOADADDR (.data)
                0x00002544                __data_load_end = (__data_load_start + SIZEOF (.data))

.noinit         0x00800a0d        0x0
                0x00800a0d                PROVIDE (__noinit_start, .)
 *(.noinit*)
                0x00800a0d                PROVIDE (__noinit_end, .)
                0x00800a0d                _end = .
                0x00800a0d                PROVIDE (__heap_start, .)

.eeprom         0x00810000        0x0
 *(.eeprom*)
                0x00810000                __eeprom_end = .

.fuse
 *(.fuse)
 *(.lfuse)
 *(.hfuse)
 *(.efuse)

.lock
 *(.lock*)

.signature
 *(.signature*)

.stab           0x00000000     0x63b4
 *(.stab)
 .stab          0x00000000      0xf48 ./src/Flash.o
 .stab          0x00000f48      0x6c0 ./src/GC_Protocol.o
                                0x8c4 (size before relaxing)
 .stab          0x00001608      0xb04 ./src/MDT-200Z.o
                                0xe34 (size before relaxing)
 .stab          0x0000210c      0x6c0 ./src/MD_Protocol.o
                                0xa08 (size before relaxing)
 .stab          0x000027cc      0x648 ./src/NCProtocol.o
                                0x990 (size before relaxing)
 .stab          0x00002e14      0xbdc ./src/RFU_Protocol.o
                                0xf24 (size before relaxing)
 .stab          0x000039f0      0x390 ./src/Timer.o
                                0x5d0 (size before relaxing)
 .stab          0x00003d80      0x780 ./src/Uart.o
                                0x9fc (size before relaxing)
 .stab          0x00004500      0x264 ./src/XNetProtocol.o
                                0x5b8 (size before relaxing)
 .stab          0x00004764      0x768 ./src/Xcps.o
                                0x9e4 (size before relaxing)
 .stab          0x00004ecc      0xbb8 ./src/ZRMProtocol.o
                                0xef4 (size before relaxing)
 .stab          0x00005a84      0x21c ./src/luminature.o
                                0x450 (size before relaxing)
 .stab          0x00005ca0      0x21c ./src/pwm.o
                                0x45c (size before relaxing)
 .stab          0x00005ebc      0x204 ./src/rotary.o
                                0x438 (size before relaxing)
 .stab          0x000060c0      0x2f4 ./src/util.o
                                0x504 (size before relaxing)

.stabstr        0x00000000     0x279d
 *(.stabstr)
 .stabstr       0x00000000     0x279d ./src/Flash.o

.stab.excl
 *(.stab.excl)

.stab.exclstr
 *(.stab.exclstr)

.stab.index
 *(.stab.index)

.stab.indexstr
 *(.stab.indexstr)

.comment
 *(.comment)

.debug
 *(.debug)

.line
 *(.line)

.debug_srcinfo
 *(.debug_srcinfo)

.debug_sfnames
 *(.debug_sfnames)

.debug_aranges
 *(.debug_aranges)

.debug_pubnames
 *(.debug_pubnames)

.debug_info
 *(.debug_info)
 *(.gnu.linkonce.wi.*)

.debug_abbrev
 *(.debug_abbrev)

.debug_line
 *(.debug_line)

.debug_frame
 *(.debug_frame)

.debug_str
 *(.debug_str)

.debug_loc
 *(.debug_loc)

.debug_macinfo
 *(.debug_macinfo)
OUTPUT(MDT300_PWM.elf elf32-avr)
LOAD linker stubs
