
MDP-101.elf:     file format elf32-avr

Sections:
Idx Name          Size      VMA       LMA       File off  Algn
  0 .text         000004da  00000000  00000000  00000074  2**1
                  CONTENTS, ALLOC, LOAD, READONLY, CODE
  1 .bss          00000052  00800060  00800060  0000054e  2**0
                  ALLOC
  2 .stab         00000dbc  00000000  00000000  00000550  2**2
                  CONTENTS, READONLY, DEBUGGING
  3 .stabstr      00000c37  00000000  00000000  0000130c  2**0
                  CONTENTS, READONLY, DEBUGGING

Disassembly of section .text:

00000000 <__vectors>:
   0:	12 c0       	rjmp	.+36     	; 0x26 <__ctors_end>
   2:	21 c0       	rjmp	.+66     	; 0x46 <__bad_interrupt>
   4:	20 c0       	rjmp	.+64     	; 0x46 <__bad_interrupt>
   6:	1f c0       	rjmp	.+62     	; 0x46 <__bad_interrupt>
   8:	1e c0       	rjmp	.+60     	; 0x46 <__bad_interrupt>
   a:	1d c0       	rjmp	.+58     	; 0x46 <__bad_interrupt>
   c:	1c c0       	rjmp	.+56     	; 0x46 <__bad_interrupt>
   e:	1b c0       	rjmp	.+54     	; 0x46 <__bad_interrupt>
  10:	1a c0       	rjmp	.+52     	; 0x46 <__bad_interrupt>
  12:	f9 c1       	rjmp	.+1010   	; 0x406 <__vector_9>
  14:	18 c0       	rjmp	.+48     	; 0x46 <__bad_interrupt>
  16:	67 c0       	rjmp	.+206    	; 0xe6 <__vector_11>
  18:	16 c0       	rjmp	.+44     	; 0x46 <__bad_interrupt>
  1a:	15 c0       	rjmp	.+42     	; 0x46 <__bad_interrupt>
  1c:	14 c0       	rjmp	.+40     	; 0x46 <__bad_interrupt>
  1e:	13 c0       	rjmp	.+38     	; 0x46 <__bad_interrupt>
  20:	12 c0       	rjmp	.+36     	; 0x46 <__bad_interrupt>
  22:	11 c0       	rjmp	.+34     	; 0x46 <__bad_interrupt>
  24:	10 c0       	rjmp	.+32     	; 0x46 <__bad_interrupt>

00000026 <__ctors_end>:
  26:	11 24       	eor	r1, r1
  28:	1f be       	out	0x3f, r1	; 63
  2a:	cf e5       	ldi	r28, 0x5F	; 95
  2c:	d4 e0       	ldi	r29, 0x04	; 4
  2e:	de bf       	out	0x3e, r29	; 62
  30:	cd bf       	out	0x3d, r28	; 61

00000032 <__do_clear_bss>:
  32:	10 e0       	ldi	r17, 0x00	; 0
  34:	a0 e6       	ldi	r26, 0x60	; 96
  36:	b0 e0       	ldi	r27, 0x00	; 0
  38:	01 c0       	rjmp	.+2      	; 0x3c <.do_clear_bss_start>

0000003a <.do_clear_bss_loop>:
  3a:	1d 92       	st	X+, r1

0000003c <.do_clear_bss_start>:
  3c:	a2 3b       	cpi	r26, 0xB2	; 178
  3e:	b1 07       	cpc	r27, r17
  40:	e1 f7       	brne	.-8      	; 0x3a <.do_clear_bss_loop>
  42:	cb d0       	rcall	.+406    	; 0x1da <main>
  44:	48 c2       	rjmp	.+1168   	; 0x4d6 <_exit>

00000046 <__bad_interrupt>:
  46:	dc cf       	rjmp	.-72     	; 0x0 <__vectors>

00000048 <DMX512_TXC_vect>:
#if 1
ISR(DMX512_TXC_vect)
#else
ISR(USART_TXC_vect)
#endif
{
  48:	1f 92       	push	r1
  4a:	0f 92       	push	r0
  4c:	0f b6       	in	r0, 0x3f	; 63
  4e:	0f 92       	push	r0
  50:	11 24       	eor	r1, r1
  52:	2f 93       	push	r18
  54:	3f 93       	push	r19
  56:	8f 93       	push	r24
  58:	9f 93       	push	r25
  5a:	ef 93       	push	r30
  5c:	ff 93       	push	r31
	if (DMX512.Start) {
  5e:	80 91 61 00 	lds	r24, 0x0061
  62:	88 23       	and	r24, r24
  64:	a9 f1       	breq	.+106    	; 0xd0 <DMX512_TXC_vect+0x88>
		if (DMX512.Cnt >= DMX512BREAKSIZE) {
  66:	80 91 62 00 	lds	r24, 0x0062
  6a:	90 91 63 00 	lds	r25, 0x0063
  6e:	81 97       	sbiw	r24, 0x21	; 33
  70:	58 f0       	brcs	.+22     	; 0x88 <DMX512_TXC_vect+0x40>
#if ( !defined(UBRR) || defined(UBRRH) ) && ( ( !defined(UBRR0) || defined(UBRR11) ) || defined(UBRR0L) )
void _UBRR_VALUE(void) {
#undef BAUD
#define BAUD DMX_BAUD
#include <util/setbaud.h>
	_UBRRH = UBRRH_VALUE;
  72:	10 bc       	out	0x20, r1	; 32
	_UBRRL = UBRRL_VALUE;
  74:	83 e0       	ldi	r24, 0x03	; 3
  76:	89 b9       	out	0x09, r24	; 9
ISR(USART_TXC_vect)
#endif
{
	if (DMX512.Start) {
		if (DMX512.Cnt >= DMX512BREAKSIZE) {
			TX_START(); // Start Code
  78:	5d 9b       	sbis	0x0b, 5	; 11
  7a:	fe cf       	rjmp	.-4      	; 0x78 <DMX512_TXC_vect+0x30>
  7c:	10 92 63 00 	sts	0x0063, r1
  80:	10 92 62 00 	sts	0x0062, r1
  84:	1c b8       	out	0x0c, r1	; 12
  86:	24 c0       	rjmp	.+72     	; 0xd0 <DMX512_TXC_vect+0x88>
		} else if (DMX512.Cnt == DMX512SRAMSIZE || DMX512.Cnt == DMX512.Max) {
  88:	80 91 62 00 	lds	r24, 0x0062
  8c:	90 91 63 00 	lds	r25, 0x0063
  90:	80 97       	sbiw	r24, 0x20	; 32
  92:	59 f0       	breq	.+22     	; 0xaa <DMX512_TXC_vect+0x62>
  94:	20 91 62 00 	lds	r18, 0x0062
  98:	30 91 63 00 	lds	r19, 0x0063
  9c:	80 91 64 00 	lds	r24, 0x0064
  a0:	90 91 65 00 	lds	r25, 0x0065
  a4:	28 17       	cp	r18, r24
  a6:	39 07       	cpc	r19, r25
  a8:	19 f4       	brne	.+6      	; 0xb0 <DMX512_TXC_vect+0x68>
			DMX512.Start = 0; // Trans End
  aa:	10 92 61 00 	sts	0x0061, r1
  ae:	10 c0       	rjmp	.+32     	; 0xd0 <DMX512_TXC_vect+0x88>
		} else {
			asm volatile("nop\n\t nop");
  b0:	00 00       	nop
  b2:	00 00       	nop
			// 2 Cycles Delay
			_UDR = DMX512.Data[DMX512.Cnt++]; // Data Send
  b4:	80 91 62 00 	lds	r24, 0x0062
  b8:	90 91 63 00 	lds	r25, 0x0063
  bc:	fc 01       	movw	r30, r24
  be:	e0 5a       	subi	r30, 0xA0	; 160
  c0:	ff 4f       	sbci	r31, 0xFF	; 255
  c2:	26 81       	ldd	r18, Z+6	; 0x06
  c4:	2c b9       	out	0x0c, r18	; 12
  c6:	01 96       	adiw	r24, 0x01	; 1
  c8:	90 93 63 00 	sts	0x0063, r25
  cc:	80 93 62 00 	sts	0x0062, r24
		}
	}
}
  d0:	ff 91       	pop	r31
  d2:	ef 91       	pop	r30
  d4:	9f 91       	pop	r25
  d6:	8f 91       	pop	r24
  d8:	3f 91       	pop	r19
  da:	2f 91       	pop	r18
  dc:	0f 90       	pop	r0
  de:	0f be       	out	0x3f, r0	; 63
  e0:	0f 90       	pop	r0
  e2:	1f 90       	pop	r1
  e4:	18 95       	reti

000000e6 <__vector_11>:
#if 0
ISR(DMX512_RXC_vect)
#else
ISR(USART_RXC_vect)
#endif
{
  e6:	1f 92       	push	r1
  e8:	0f 92       	push	r0
  ea:	0f b6       	in	r0, 0x3f	; 63
  ec:	0f 92       	push	r0
  ee:	11 24       	eor	r1, r1
  f0:	2f 93       	push	r18
  f2:	8f 93       	push	r24
  f4:	9f 93       	push	r25
  f6:	ef 93       	push	r30
  f8:	ff 93       	push	r31
	else // No Frame Error : Data
	{
		DMX512.Data[DMX512.Cnt++] = RxBuf;
	}
#else
	RxStatus = UCSRA;
  fa:	8b b1       	in	r24, 0x0b	; 11
	RxBuf = UDR;
  fc:	2c b1       	in	r18, 0x0c	; 12

	if ((RxStatus & (1 << 4))) // Frame Error : Break
  fe:	84 ff       	sbrs	r24, 4
 100:	04 c0       	rjmp	.+8      	; 0x10a <__vector_11+0x24>
	{
		DMX512.Break = 1;
 102:	81 e0       	ldi	r24, 0x01	; 1
 104:	80 93 60 00 	sts	0x0060, r24
 108:	1e c0       	rjmp	.+60     	; 0x146 <__vector_11+0x60>
	} else if (DMX512.Break) // No Frame Error : Start
 10a:	80 91 60 00 	lds	r24, 0x0060
 10e:	88 23       	and	r24, r24
 110:	39 f0       	breq	.+14     	; 0x120 <__vector_11+0x3a>
	{
		DMX512.Break = 0;
 112:	10 92 60 00 	sts	0x0060, r1
		DMX512.Cnt = 0;
 116:	10 92 63 00 	sts	0x0063, r1
 11a:	10 92 62 00 	sts	0x0062, r1
 11e:	13 c0       	rjmp	.+38     	; 0x146 <__vector_11+0x60>
	} else // No Frame Error : Data
	{
		if (DMX512.Cnt < DMX512SRAMSIZE-1)
 120:	80 91 62 00 	lds	r24, 0x0062
 124:	90 91 63 00 	lds	r25, 0x0063
 128:	4f 97       	sbiw	r24, 0x1f	; 31
 12a:	68 f4       	brcc	.+26     	; 0x146 <__vector_11+0x60>
			DMX512.Data[DMX512.Cnt++] = RxBuf;
 12c:	80 91 62 00 	lds	r24, 0x0062
 130:	90 91 63 00 	lds	r25, 0x0063
 134:	fc 01       	movw	r30, r24
 136:	e0 5a       	subi	r30, 0xA0	; 160
 138:	ff 4f       	sbci	r31, 0xFF	; 255
 13a:	26 83       	std	Z+6, r18	; 0x06
 13c:	01 96       	adiw	r24, 0x01	; 1
 13e:	90 93 63 00 	sts	0x0063, r25
 142:	80 93 62 00 	sts	0x0062, r24
	}
#endif

}
 146:	ff 91       	pop	r31
 148:	ef 91       	pop	r30
 14a:	9f 91       	pop	r25
 14c:	8f 91       	pop	r24
 14e:	2f 91       	pop	r18
 150:	0f 90       	pop	r0
 152:	0f be       	out	0x3f, r0	; 63
 154:	0f 90       	pop	r0
 156:	1f 90       	pop	r1
 158:	18 95       	reti

0000015a <DMX512Send>:
 // Trans Break ( Baud Rate Change )
 // Trans Start Code ( UDR = 0 )
 // Trans Comp No Wait
 // Trans Start Code and End Fucntion
 ---------------------------------------------*/
void DMX512Send(void) {
 15a:	00 c0       	rjmp	.+0      	; 0x15c <DMX512Send+0x2>
	TX_BREAK();
 15c:	80 91 61 00 	lds	r24, 0x0061
 160:	88 23       	and	r24, r24
 162:	e1 f7       	brne	.-8      	; 0x15c <DMX512Send+0x2>
}
void _UBRR_VALUE2(void) {
#undef BAUD
#define BAUD BREAK_BAUD
#include <util/setbaud.h>
	_UBRRH = UBRRH_VALUE;
 164:	10 bc       	out	0x20, r1	; 32
	_UBRRL = UBRRL_VALUE;
 166:	89 e0       	ldi	r24, 0x09	; 9
 168:	89 b9       	out	0x09, r24	; 9
 // Trans Start Code ( UDR = 0 )
 // Trans Comp No Wait
 // Trans Start Code and End Fucntion
 ---------------------------------------------*/
void DMX512Send(void) {
	TX_BREAK();
 16a:	5d 9b       	sbis	0x0b, 5	; 11
 16c:	fe cf       	rjmp	.-4      	; 0x16a <DMX512Send+0x10>
 16e:	81 e0       	ldi	r24, 0x01	; 1
 170:	80 93 61 00 	sts	0x0061, r24
 174:	81 e2       	ldi	r24, 0x21	; 33
 176:	90 e0       	ldi	r25, 0x00	; 0
 178:	90 93 63 00 	sts	0x0063, r25
 17c:	80 93 62 00 	sts	0x0062, r24
 180:	1c b8       	out	0x0c, r1	; 12
}
 182:	08 95       	ret

00000184 <_WDR>:
//	functions
//
void _WDR() {
	int i = 0;

	WDTCR = 0x18;
 184:	88 e1       	ldi	r24, 0x18	; 24
 186:	81 bd       	out	0x21, r24	; 33
	WDTCR = 0x00;
 188:	11 bc       	out	0x21, r1	; 33
	for (i = 0; i < 5; i++)
		;

	WDTCR = 0x18;
 18a:	81 bd       	out	0x21, r24	; 33
	WDTCR = 0x0F;
 18c:	8f e0       	ldi	r24, 0x0F	; 15
 18e:	81 bd       	out	0x21, r24	; 33
	for (i = 0; i < 5; i++)
		;
}
 190:	08 95       	ret

00000192 <delay>:
void dmx_init(void);

void delay(long t) {
	while (t--)
		;
}
 192:	08 95       	ret

00000194 <at8_init>:

//-----------------------------------------------------------------------------
//
void at8_init(void) {
	//-------------------------------
	PORTB = 0x3F;
 194:	8f e3       	ldi	r24, 0x3F	; 63
 196:	88 bb       	out	0x18, r24	; 24
	DDRB = 0x00;
 198:	17 ba       	out	0x17, r1	; 23
	PORTC = 0x00;
 19a:	15 ba       	out	0x15, r1	; 21
	DDRC = 0x00;
 19c:	14 ba       	out	0x14, r1	; 20
	// dip switch
	// 	: PD5(8Digit)-?, PD6(4Digit)-?, PD7(2Digit)-I, PB0(1Digit)-I
	// dmx512
	// 	: PD0(UART)-I,
	//
	PORTB = 0x02;
 19e:	82 e0       	ldi	r24, 0x02	; 2
 1a0:	88 bb       	out	0x18, r24	; 24
	DDRB = 0x02;
 1a2:	87 bb       	out	0x17, r24	; 23
	PORTC = 0x1E;
 1a4:	8e e1       	ldi	r24, 0x1E	; 30
 1a6:	85 bb       	out	0x15, r24	; 21
	DDRC = 0x1E;
 1a8:	84 bb       	out	0x14, r24	; 20

	//-------------------------------
	// Timer/Counter 0 initialization
	// Clock source: System Clock
	// Clock value: 15.625 kHz
	TCCR0 = 0x05;
 1aa:	85 e0       	ldi	r24, 0x05	; 5
 1ac:	83 bf       	out	0x33, r24	; 51
//	TCNT0=0x69;
	TCNT0 = 0xF0;
 1ae:	80 ef       	ldi	r24, 0xF0	; 240
 1b0:	82 bf       	out	0x32, r24	; 50
	// Input Capture on Falling Edge
	// Timer 1 Overflow Interrupt: Off
	// Input Capture Interrupt: Off
	// Compare A Match Interrupt: Off
	// Compare B Match Interrupt: Off
	TCCR1A = 0xA1; // 0xA2: 9 bit. top=0x01FF., 0xA1: 8 bit. top=0x00FF.
 1b2:	81 ea       	ldi	r24, 0xA1	; 161
 1b4:	8f bd       	out	0x2f, r24	; 47
	TCCR1B = 0x03; // no prescaling, 2=1/8 prescale, 3=1/64 prescale, ...
 1b6:	83 e0       	ldi	r24, 0x03	; 3
 1b8:	8e bd       	out	0x2e, r24	; 46
	TCNT1H = 0x00; // initial counting value
 1ba:	1d bc       	out	0x2d, r1	; 45
	TCNT1L = 0x00;
 1bc:	1c bc       	out	0x2c, r1	; 44
	ICR1H = 0x00;
 1be:	17 bc       	out	0x27, r1	; 39
	ICR1L = 0x00; //0x00;
 1c0:	16 bc       	out	0x26, r1	; 38
	OCR1AH = 0x00;
 1c2:	1b bc       	out	0x2b, r1	; 43
	OCR1AL = 0x00; //0x00; (A-port) dimming control value. (initial value)
 1c4:	1a bc       	out	0x2a, r1	; 42
	OCR1BH = 0x00;
 1c6:	19 bc       	out	0x29, r1	; 41
	OCR1BL = 0x00; //0x00; (B-port) dimming control value. (initial value)
 1c8:	18 bc       	out	0x28, r1	; 40
	// Timer/Counter 2 initialization
	// Clock source: System Clock
	// Clock value: Timer 2 Stopped
	// Mode: Normal top=FFh
	// OC2 output: Disconnected
	ASSR = 0x00;
 1ca:	12 bc       	out	0x22, r1	; 34
	TCCR2 = 0x00;
 1cc:	15 bc       	out	0x25, r1	; 37
	TCNT2 = 0x00;
 1ce:	14 bc       	out	0x24, r1	; 36
	OCR2 = 0x00;
 1d0:	13 bc       	out	0x23, r1	; 35

	// External Interrupt(s) initialization
	// INT0: Off
	// INT1: Off
	MCUCR = 0x00;
 1d2:	15 be       	out	0x35, r1	; 53

	// Timer(s)/Counter(s) Interrupt(s) initialization
	TIMSK = 0x01;
 1d4:	81 e0       	ldi	r24, 0x01	; 1
 1d6:	89 bf       	out	0x39, r24	; 57
}
 1d8:	08 95       	ret

000001da <main>:
void delay(long t) {
	while (t--)
		;
}

int main() {
 1da:	0f 93       	push	r16
 1dc:	1f 93       	push	r17
	uint8 jiffies = 0;
	uint8 value = 0;
	uint8 fadeOutCnt=0;

	//
	_WDR();
 1de:	d2 df       	rcall	.-92     	; 0x184 <_WDR>

	//
	at8_init();
 1e0:	d9 df       	rcall	.-78     	; 0x194 <at8_init>

	// init system timer. (using TIM0)
	timer_init();
 1e2:	fe d0       	rcall	.+508    	; 0x3e0 <timer_init>

	asm("sei");
 1e4:	78 94       	sei
	// Global enable interrupts

	_WDR();
 1e6:	ce df       	rcall	.-100    	; 0x184 <_WDR>
 // DMX512.Max <= bMax ; Trans ID Limit
 //
 // Always Inline Function
 ---------------------------------------------*/
void DMX512Init(unsigned int bMax) {
	DMX512.Break = 0;
 1e8:	10 92 60 00 	sts	0x0060, r1
	DMX512.Start = 0;
 1ec:	10 92 61 00 	sts	0x0061, r1
	for (DMX512.Cnt = 0; DMX512.Cnt < DMX512SRAMSIZE; DMX512.Cnt++)
 1f0:	10 92 63 00 	sts	0x0063, r1
 1f4:	10 92 62 00 	sts	0x0062, r1
 1f8:	10 c0       	rjmp	.+32     	; 0x21a <main+0x40>
		DMX512.Data[DMX512.Cnt] = 0;
 1fa:	e0 91 62 00 	lds	r30, 0x0062
 1fe:	f0 91 63 00 	lds	r31, 0x0063
 202:	e0 5a       	subi	r30, 0xA0	; 160
 204:	ff 4f       	sbci	r31, 0xFF	; 255
 206:	16 82       	std	Z+6, r1	; 0x06
 // Always Inline Function
 ---------------------------------------------*/
void DMX512Init(unsigned int bMax) {
	DMX512.Break = 0;
	DMX512.Start = 0;
	for (DMX512.Cnt = 0; DMX512.Cnt < DMX512SRAMSIZE; DMX512.Cnt++)
 208:	80 91 62 00 	lds	r24, 0x0062
 20c:	90 91 63 00 	lds	r25, 0x0063
 210:	01 96       	adiw	r24, 0x01	; 1
 212:	90 93 63 00 	sts	0x0063, r25
 216:	80 93 62 00 	sts	0x0062, r24
 21a:	80 91 62 00 	lds	r24, 0x0062
 21e:	90 91 63 00 	lds	r25, 0x0063
 222:	80 97       	sbiw	r24, 0x20	; 32
 224:	50 f3       	brcs	.-44     	; 0x1fa <main+0x20>
		DMX512.Data[DMX512.Cnt] = 0;
	DMX512.Cnt = 0;
 226:	10 92 63 00 	sts	0x0063, r1
 22a:	10 92 62 00 	sts	0x0062, r1
	DMX512.Max = bMax;
 22e:	80 e0       	ldi	r24, 0x00	; 0
 230:	92 e0       	ldi	r25, 0x02	; 2
 232:	90 93 65 00 	sts	0x0065, r25
 236:	80 93 64 00 	sts	0x0064, r24
#if ( !defined(UBRR) || defined(UBRRH) ) && ( ( !defined(UBRR0) || defined(UBRR11) ) || defined(UBRR0L) )
void _UBRR_VALUE(void) {
#undef BAUD
#define BAUD DMX_BAUD
#include <util/setbaud.h>
	_UBRRH = UBRRH_VALUE;
 23a:	10 bc       	out	0x20, r1	; 32
	_UBRRL = UBRRL_VALUE;
 23c:	83 e0       	ldi	r24, 0x03	; 3
 23e:	89 b9       	out	0x09, r24	; 9
	DMX512.Cnt = 0;
	DMX512.Max = bMax;
	_UBRR_VALUE();

#ifndef UBRR
	_UCSRA = 0;
 240:	1b b8       	out	0x0b, r1	; 11
	_UCSRB = (1 << _TXEN) | (1 << _TXCIE) | (1 << _RXEN) | (1 << _RXCIE);
 242:	88 ed       	ldi	r24, 0xD8	; 216
 244:	8a b9       	out	0x0a, r24	; 10
#else
	_UCSRB = (1 << _TXEN) | (1 << _TXCIE) | (1 << _RXEN) | (1 << _RXCIE);
#endif

	asm("sei");
 246:	78 94       	sei

	// initialize dmx driver
	DMX512Init(512);

	// initialize dmx buffer, dmxID = 0
	DMX512.Data[dmxID] = 0xFF;
 248:	8f ef       	ldi	r24, 0xFF	; 255
 24a:	80 93 66 00 	sts	0x0066, r24

	// Shutdown is toggled for stabilization of led driver chipset
	timer_set(0, 100);
 24e:	80 e0       	ldi	r24, 0x00	; 0
 250:	90 e0       	ldi	r25, 0x00	; 0
 252:	44 e6       	ldi	r20, 0x64	; 100
 254:	50 e0       	ldi	r21, 0x00	; 0
 256:	60 e0       	ldi	r22, 0x00	; 0
 258:	70 e0       	ldi	r23, 0x00	; 0
 25a:	80 d0       	rcall	.+256    	; 0x35c <timer_set>

	//fadeIn, fadeOut Dimming control timer
	timer_set(1, 50);
 25c:	81 e0       	ldi	r24, 0x01	; 1
 25e:	90 e0       	ldi	r25, 0x00	; 0
 260:	42 e3       	ldi	r20, 0x32	; 50
 262:	50 e0       	ldi	r21, 0x00	; 0
 264:	60 e0       	ldi	r22, 0x00	; 0
 266:	70 e0       	ldi	r23, 0x00	; 0
 268:	79 d0       	rcall	.+242    	; 0x35c <timer_set>

	//ChannelId reading timer: Rotary Switch.
	timer_set(2, 1000);
 26a:	82 e0       	ldi	r24, 0x02	; 2
 26c:	90 e0       	ldi	r25, 0x00	; 0
 26e:	48 ee       	ldi	r20, 0xE8	; 232
 270:	53 e0       	ldi	r21, 0x03	; 3
 272:	60 e0       	ldi	r22, 0x00	; 0
 274:	70 e0       	ldi	r23, 0x00	; 0
 276:	72 d0       	rcall	.+228    	; 0x35c <timer_set>
	while (1) {
		SHUT_DOWN(ENABLE);
 278:	a8 98       	cbi	0x15, 0	; 21
		SHUT_DOWN(DISABLE);
 27a:	a8 9a       	sbi	0x15, 0	; 21
		if (timer_isfired(0)) {
 27c:	80 e0       	ldi	r24, 0x00	; 0
 27e:	90 e0       	ldi	r25, 0x00	; 0
 280:	82 d0       	rcall	.+260    	; 0x386 <timer_get>
 282:	89 2b       	or	r24, r25
 284:	c9 f7       	brne	.-14     	; 0x278 <main+0x9e>
			break;
		}
	}
	SHUT_DOWN(DISABLE);
 286:	a8 9a       	sbi	0x15, 0	; 21
	PWM_OUT(0xFF);
 288:	8f ef       	ldi	r24, 0xFF	; 255
 28a:	8a bd       	out	0x2a, r24	; 42
 28c:	10 e0       	ldi	r17, 0x00	; 0
 28e:	00 e0       	ldi	r16, 0x00	; 0

	while (1) {
		_WDR();
 290:	79 df       	rcall	.-270    	; 0x184 <_WDR>

		if (timer_isfired(3)) {
 292:	83 e0       	ldi	r24, 0x03	; 3
 294:	90 e0       	ldi	r25, 0x00	; 0
 296:	77 d0       	rcall	.+238    	; 0x386 <timer_get>
 298:	89 2b       	or	r24, r25
 29a:	41 f4       	brne	.+16     	; 0x2ac <main+0xd2>
			DIPC = (PINC & 0x1E);
 29c:	83 b3       	in	r24, 0x13	; 19
			if (DIPC & (0x01 << 1))
				dmxID -= 1;

			dmxID = 0;

			timer_set(3, 1000); // 1sec
 29e:	83 e0       	ldi	r24, 0x03	; 3
 2a0:	90 e0       	ldi	r25, 0x00	; 0
 2a2:	48 ee       	ldi	r20, 0xE8	; 232
 2a4:	53 e0       	ldi	r21, 0x03	; 3
 2a6:	60 e0       	ldi	r22, 0x00	; 0
 2a8:	70 e0       	ldi	r23, 0x00	; 0
 2aa:	58 d0       	rcall	.+176    	; 0x35c <timer_set>
		}

		// dimming level control : PWM
		if (OCR1AL != DMX512.Data[dmxID]) {
 2ac:	9a b5       	in	r25, 0x2a	; 42
 2ae:	80 91 66 00 	lds	r24, 0x0066
 2b2:	98 17       	cp	r25, r24
 2b4:	69 f3       	breq	.-38     	; 0x290 <main+0xb6>
			if (OCR1AL == 0x00) {
 2b6:	8a b5       	in	r24, 0x2a	; 42
 2b8:	88 23       	and	r24, r24
 2ba:	19 f4       	brne	.+6      	; 0x2c2 <main+0xe8>
				SHUT_DOWN(ENABLE);
 2bc:	a8 98       	cbi	0x15, 0	; 21
 2be:	11 e0       	ldi	r17, 0x01	; 1
 2c0:	12 c0       	rjmp	.+36     	; 0x2e6 <main+0x10c>
				jiffies = 1;
			} else {
				if (jiffies == 1) {
 2c2:	11 30       	cpi	r17, 0x01	; 1
 2c4:	79 f4       	brne	.+30     	; 0x2e4 <main+0x10a>
					jiffies = 0;

					// Shutdown is toggled for stabilization of led driver chipset
					timer_set(0, 100);
 2c6:	80 e0       	ldi	r24, 0x00	; 0
 2c8:	90 e0       	ldi	r25, 0x00	; 0
 2ca:	44 e6       	ldi	r20, 0x64	; 100
 2cc:	50 e0       	ldi	r21, 0x00	; 0
 2ce:	60 e0       	ldi	r22, 0x00	; 0
 2d0:	70 e0       	ldi	r23, 0x00	; 0
 2d2:	44 d0       	rcall	.+136    	; 0x35c <timer_set>
					while (1) {
						SHUT_DOWN(ENABLE);
 2d4:	a8 98       	cbi	0x15, 0	; 21
						SHUT_DOWN(DISABLE);
 2d6:	a8 9a       	sbi	0x15, 0	; 21
						if (timer_isfired(0))
 2d8:	80 e0       	ldi	r24, 0x00	; 0
 2da:	90 e0       	ldi	r25, 0x00	; 0
 2dc:	54 d0       	rcall	.+168    	; 0x386 <timer_get>
 2de:	89 2b       	or	r24, r25
 2e0:	c9 f7       	brne	.-14     	; 0x2d4 <main+0xfa>
							break;
					}
					SHUT_DOWN(DISABLE);
 2e2:	a8 9a       	sbi	0x15, 0	; 21
 2e4:	10 e0       	ldi	r17, 0x00	; 0
					jiffies = 0;
				}
			}

			if (timer_isfired(1)) {
 2e6:	81 e0       	ldi	r24, 0x01	; 1
 2e8:	90 e0       	ldi	r25, 0x00	; 0
 2ea:	4d d0       	rcall	.+154    	; 0x386 <timer_get>
 2ec:	89 2b       	or	r24, r25
 2ee:	81 f6       	brne	.-96     	; 0x290 <main+0xb6>
				if (DMX512.Data[dmxID] > OCR1AL) {
 2f0:	90 91 66 00 	lds	r25, 0x0066
 2f4:	8a b5       	in	r24, 0x2a	; 42
 2f6:	89 17       	cp	r24, r25
 2f8:	78 f4       	brcc	.+30     	; 0x318 <main+0x13e>
					value = (DMX512.Data[dmxID] - OCR1AL) / 10;
 2fa:	80 91 66 00 	lds	r24, 0x0066
 2fe:	2a b5       	in	r18, 0x2a	; 42
 300:	90 e0       	ldi	r25, 0x00	; 0
 302:	82 1b       	sub	r24, r18
 304:	91 09       	sbc	r25, r1
 306:	6a e0       	ldi	r22, 0x0A	; 10
 308:	70 e0       	ldi	r23, 0x00	; 0
 30a:	be d0       	rcall	.+380    	; 0x488 <__divmodhi4>
					if (value < 5)
 30c:	65 30       	cpi	r22, 0x05	; 5
 30e:	08 f4       	brcc	.+2      	; 0x312 <main+0x138>
 310:	61 e0       	ldi	r22, 0x01	; 1
						value = 1;
					PWM_OUT(OCR1AL+value);
 312:	8a b5       	in	r24, 0x2a	; 42
 314:	86 0f       	add	r24, r22
 316:	16 c0       	rjmp	.+44     	; 0x344 <main+0x16a>
				} else {
					value = (OCR1AL - DMX512.Data[dmxID]) / 10;
 318:	8a b5       	in	r24, 0x2a	; 42
 31a:	20 91 66 00 	lds	r18, 0x0066
					if (value > 5)
 31e:	90 e0       	ldi	r25, 0x00	; 0
 320:	82 1b       	sub	r24, r18
 322:	91 09       	sbc	r25, r1
 324:	6a e0       	ldi	r22, 0x0A	; 10
 326:	70 e0       	ldi	r23, 0x00	; 0
 328:	af d0       	rcall	.+350    	; 0x488 <__divmodhi4>
 32a:	66 30       	cpi	r22, 0x06	; 6
 32c:	10 f4       	brcc	.+4      	; 0x332 <main+0x158>
 32e:	91 e0       	ldi	r25, 0x01	; 1
 330:	01 c0       	rjmp	.+2      	; 0x334 <main+0x15a>
 332:	93 e0       	ldi	r25, 0x03	; 3
						value = 3;
					else
						value = 1;

					if (fadeOutCnt < 5)
 334:	05 30       	cpi	r16, 0x05	; 5
 336:	10 f0       	brcs	.+4      	; 0x33c <main+0x162>
 338:	00 e0       	ldi	r16, 0x00	; 0
 33a:	01 c0       	rjmp	.+2      	; 0x33e <main+0x164>
 33c:	90 e0       	ldi	r25, 0x00	; 0
						value = 0;
					else
						fadeOutCnt = 0;

					fadeOutCnt++;
 33e:	0f 5f       	subi	r16, 0xFF	; 255
					PWM_OUT(OCR1AL-value);
 340:	8a b5       	in	r24, 0x2a	; 42
 342:	89 1b       	sub	r24, r25
 344:	8a bd       	out	0x2a, r24	; 42
				}
				timer_clear(1);
 346:	81 e0       	ldi	r24, 0x01	; 1
 348:	90 e0       	ldi	r25, 0x00	; 0
 34a:	3a d0       	rcall	.+116    	; 0x3c0 <timer_clear>
				timer_set(1, 1);
 34c:	81 e0       	ldi	r24, 0x01	; 1
 34e:	90 e0       	ldi	r25, 0x00	; 0
 350:	41 e0       	ldi	r20, 0x01	; 1
 352:	50 e0       	ldi	r21, 0x00	; 0
 354:	60 e0       	ldi	r22, 0x00	; 0
 356:	70 e0       	ldi	r23, 0x00	; 0
 358:	01 d0       	rcall	.+2      	; 0x35c <timer_set>
 35a:	9a cf       	rjmp	.-204    	; 0x290 <main+0xb6>

0000035c <timer_set>:
uint32 timerCount;

int timer_set(int timer_id, uint32 time_value)
{
	
	if ( (timer_id >= 0) && (timer_id < MAX_SYS_TIMER) )
 35c:	88 30       	cpi	r24, 0x08	; 8
 35e:	91 05       	cpc	r25, r1
 360:	78 f4       	brcc	.+30     	; 0x380 <timer_set+0x24>
	{
	//	asm("cli");
		timer_list[timer_id].value = time_value;
 362:	fc 01       	movw	r30, r24
 364:	ee 0f       	add	r30, r30
 366:	ff 1f       	adc	r31, r31
 368:	ee 0f       	add	r30, r30
 36a:	ff 1f       	adc	r31, r31
 36c:	e8 0f       	add	r30, r24
 36e:	f9 1f       	adc	r31, r25
 370:	e6 57       	subi	r30, 0x76	; 118
 372:	ff 4f       	sbci	r31, 0xFF	; 255
 374:	41 83       	std	Z+1, r20	; 0x01
 376:	52 83       	std	Z+2, r21	; 0x02
 378:	63 83       	std	Z+3, r22	; 0x03
 37a:	74 83       	std	Z+4, r23	; 0x04
		timer_list[timer_id].running = 1;
 37c:	81 e0       	ldi	r24, 0x01	; 1
 37e:	80 83       	st	Z, r24
	//	asm("sei");
	}
	return 0;
}
 380:	80 e0       	ldi	r24, 0x00	; 0
 382:	90 e0       	ldi	r25, 0x00	; 0
 384:	08 95       	ret

00000386 <timer_get>:


int timer_get(int timer_id)
{
	if ( (timer_id >= 0) && (timer_id < MAX_SYS_TIMER) )
 386:	88 30       	cpi	r24, 0x08	; 8
 388:	91 05       	cpc	r25, r1
 38a:	b0 f4       	brcc	.+44     	; 0x3b8 <timer_get+0x32>
	{
		if (timer_list[timer_id].running)
 38c:	fc 01       	movw	r30, r24
 38e:	ee 0f       	add	r30, r30
 390:	ff 1f       	adc	r31, r31
 392:	ee 0f       	add	r30, r30
 394:	ff 1f       	adc	r31, r31
 396:	e8 0f       	add	r30, r24
 398:	f9 1f       	adc	r31, r25
 39a:	e6 57       	subi	r30, 0x76	; 118
 39c:	ff 4f       	sbci	r31, 0xFF	; 255
 39e:	80 81       	ld	r24, Z
 3a0:	88 23       	and	r24, r24
 3a2:	51 f0       	breq	.+20     	; 0x3b8 <timer_get+0x32>
 3a4:	20 e0       	ldi	r18, 0x00	; 0
 3a6:	30 e0       	ldi	r19, 0x00	; 0
 3a8:	81 81       	ldd	r24, Z+1	; 0x01
 3aa:	92 81       	ldd	r25, Z+2	; 0x02
 3ac:	a3 81       	ldd	r26, Z+3	; 0x03
 3ae:	b4 81       	ldd	r27, Z+4	; 0x04
 3b0:	00 97       	sbiw	r24, 0x00	; 0
 3b2:	a1 05       	cpc	r26, r1
 3b4:	b1 05       	cpc	r27, r1
 3b6:	11 f0       	breq	.+4      	; 0x3bc <timer_get+0x36>
 3b8:	21 e0       	ldi	r18, 0x01	; 1
 3ba:	30 e0       	ldi	r19, 0x00	; 0
	else
	{
		// return as not fired.
		return 1;
	}
}
 3bc:	c9 01       	movw	r24, r18
 3be:	08 95       	ret

000003c0 <timer_clear>:

int timer_clear(int timer_id)
{
	if ( (timer_id >= 0) && (timer_id < MAX_SYS_TIMER) )
 3c0:	88 30       	cpi	r24, 0x08	; 8
 3c2:	91 05       	cpc	r25, r1
 3c4:	50 f4       	brcc	.+20     	; 0x3da <timer_clear+0x1a>
	{
		timer_list[timer_id].running = 0;
 3c6:	fc 01       	movw	r30, r24
 3c8:	ee 0f       	add	r30, r30
 3ca:	ff 1f       	adc	r31, r31
 3cc:	ee 0f       	add	r30, r30
 3ce:	ff 1f       	adc	r31, r31
 3d0:	e8 0f       	add	r30, r24
 3d2:	f9 1f       	adc	r31, r25
 3d4:	e6 57       	subi	r30, 0x76	; 118
 3d6:	ff 4f       	sbci	r31, 0xFF	; 255
 3d8:	10 82       	st	Z, r1
	}
	return 0;
}
 3da:	80 e0       	ldi	r24, 0x00	; 0
 3dc:	90 e0       	ldi	r25, 0x00	; 0
 3de:	08 95       	ret

000003e0 <timer_init>:
	initialize timer.

	use TIM0.
*/
void timer_init()
{
 3e0:	ea e8       	ldi	r30, 0x8A	; 138
 3e2:	f0 e0       	ldi	r31, 0x00	; 0
	for (int i=0; i<MAX_SYS_TIMER; i++)
	{
		timer_list[i].running = 0;
 3e4:	10 82       	st	Z, r1
		timer_list[i].value = 0;
 3e6:	11 82       	std	Z+1, r1	; 0x01
 3e8:	12 82       	std	Z+2, r1	; 0x02
 3ea:	13 82       	std	Z+3, r1	; 0x03
 3ec:	14 82       	std	Z+4, r1	; 0x04
 3ee:	35 96       	adiw	r30, 0x05	; 5

	use TIM0.
*/
void timer_init()
{
	for (int i=0; i<MAX_SYS_TIMER; i++)
 3f0:	80 e0       	ldi	r24, 0x00	; 0
 3f2:	e2 3b       	cpi	r30, 0xB2	; 178
 3f4:	f8 07       	cpc	r31, r24
 3f6:	b1 f7       	brne	.-20     	; 0x3e4 <timer_init+0x4>
	// Mode: Normal top=FFh
	// OC0 output: Disconnected

	// TIMER_1MS	// atmega8.
	// overflow interrupt setting. 1ms interval tick.
    TCCR0=0x05;
 3f8:	85 e0       	ldi	r24, 0x05	; 5
 3fa:	83 bf       	out	0x33, r24	; 51
//    TCNT0=0x69;
	TCNT0=0xF0;
 3fc:	80 ef       	ldi	r24, 0xF0	; 240
 3fe:	82 bf       	out	0x32, r24	; 50

	TIMSK=0x01;
 400:	81 e0       	ldi	r24, 0x01	; 1
 402:	89 bf       	out	0x39, r24	; 57
		// 0x02: OCIE0 - timer0 compare match interrupt enable.
}
 404:	08 95       	ret

00000406 <__vector_9>:
#if	defined(__GNUC__) // GNU Compiler
	ISR(TIMER0_OVF_vect)
#else
interrupt [TIM0_OVF] void timer0_ovf_isr(void)
#endif
{ 
 406:	1f 92       	push	r1
 408:	0f 92       	push	r0
 40a:	0f b6       	in	r0, 0x3f	; 63
 40c:	0f 92       	push	r0
 40e:	11 24       	eor	r1, r1
 410:	8f 93       	push	r24
 412:	9f 93       	push	r25
 414:	af 93       	push	r26
 416:	bf 93       	push	r27
 418:	ef 93       	push	r30
 41a:	ff 93       	push	r31
	int i;
	// reset watchdog timer.
//	_WDR();

	// 1ms timer.
	timerCount++;
 41c:	80 91 86 00 	lds	r24, 0x0086
 420:	90 91 87 00 	lds	r25, 0x0087
 424:	a0 91 88 00 	lds	r26, 0x0088
 428:	b0 91 89 00 	lds	r27, 0x0089
 42c:	01 96       	adiw	r24, 0x01	; 1
 42e:	a1 1d       	adc	r26, r1
 430:	b1 1d       	adc	r27, r1
 432:	80 93 86 00 	sts	0x0086, r24
 436:	90 93 87 00 	sts	0x0087, r25
 43a:	a0 93 88 00 	sts	0x0088, r26
 43e:	b0 93 89 00 	sts	0x0089, r27
 442:	eb e8       	ldi	r30, 0x8B	; 139
 444:	f0 e0       	ldi	r31, 0x00	; 0

	// timer decreasing.
	for (i=0; i<MAX_SYS_TIMER; i++)
	{
		if (timer_list[i].value > 0)
 446:	80 81       	ld	r24, Z
 448:	91 81       	ldd	r25, Z+1	; 0x01
 44a:	a2 81       	ldd	r26, Z+2	; 0x02
 44c:	b3 81       	ldd	r27, Z+3	; 0x03
 44e:	00 97       	sbiw	r24, 0x00	; 0
 450:	a1 05       	cpc	r26, r1
 452:	b1 05       	cpc	r27, r1
 454:	39 f0       	breq	.+14     	; 0x464 <__stack+0x5>
		{
			timer_list[i].value--;
 456:	01 97       	sbiw	r24, 0x01	; 1
 458:	a1 09       	sbc	r26, r1
 45a:	b1 09       	sbc	r27, r1
 45c:	80 83       	st	Z, r24
 45e:	91 83       	std	Z+1, r25	; 0x01
 460:	a2 83       	std	Z+2, r26	; 0x02
 462:	b3 83       	std	Z+3, r27	; 0x03
 464:	35 96       	adiw	r30, 0x05	; 5

	// 1ms timer.
	timerCount++;

	// timer decreasing.
	for (i=0; i<MAX_SYS_TIMER; i++)
 466:	80 e0       	ldi	r24, 0x00	; 0
 468:	e3 3b       	cpi	r30, 0xB3	; 179
 46a:	f8 07       	cpc	r31, r24
 46c:	61 f7       	brne	.-40     	; 0x446 <__vector_9+0x40>
			timer_list[i].value--;
		}
	}
	
	// reset timer init.
	TCNT0=0xF0;		// init value; only OVF int.
 46e:	80 ef       	ldi	r24, 0xF0	; 240
 470:	82 bf       	out	0x32, r24	; 50
}
 472:	ff 91       	pop	r31
 474:	ef 91       	pop	r30
 476:	bf 91       	pop	r27
 478:	af 91       	pop	r26
 47a:	9f 91       	pop	r25
 47c:	8f 91       	pop	r24
 47e:	0f 90       	pop	r0
 480:	0f be       	out	0x3f, r0	; 63
 482:	0f 90       	pop	r0
 484:	1f 90       	pop	r1
 486:	18 95       	reti

00000488 <__divmodhi4>:
 488:	97 fb       	bst	r25, 7
 48a:	09 2e       	mov	r0, r25
 48c:	07 26       	eor	r0, r23
 48e:	0a d0       	rcall	.+20     	; 0x4a4 <__divmodhi4_neg1>
 490:	77 fd       	sbrc	r23, 7
 492:	04 d0       	rcall	.+8      	; 0x49c <__divmodhi4_neg2>
 494:	0c d0       	rcall	.+24     	; 0x4ae <__udivmodhi4>
 496:	06 d0       	rcall	.+12     	; 0x4a4 <__divmodhi4_neg1>
 498:	00 20       	and	r0, r0
 49a:	1a f4       	brpl	.+6      	; 0x4a2 <__divmodhi4_exit>

0000049c <__divmodhi4_neg2>:
 49c:	70 95       	com	r23
 49e:	61 95       	neg	r22
 4a0:	7f 4f       	sbci	r23, 0xFF	; 255

000004a2 <__divmodhi4_exit>:
 4a2:	08 95       	ret

000004a4 <__divmodhi4_neg1>:
 4a4:	f6 f7       	brtc	.-4      	; 0x4a2 <__divmodhi4_exit>
 4a6:	90 95       	com	r25
 4a8:	81 95       	neg	r24
 4aa:	9f 4f       	sbci	r25, 0xFF	; 255
 4ac:	08 95       	ret

000004ae <__udivmodhi4>:
 4ae:	aa 1b       	sub	r26, r26
 4b0:	bb 1b       	sub	r27, r27
 4b2:	51 e1       	ldi	r21, 0x11	; 17
 4b4:	07 c0       	rjmp	.+14     	; 0x4c4 <__udivmodhi4_ep>

000004b6 <__udivmodhi4_loop>:
 4b6:	aa 1f       	adc	r26, r26
 4b8:	bb 1f       	adc	r27, r27
 4ba:	a6 17       	cp	r26, r22
 4bc:	b7 07       	cpc	r27, r23
 4be:	10 f0       	brcs	.+4      	; 0x4c4 <__udivmodhi4_ep>
 4c0:	a6 1b       	sub	r26, r22
 4c2:	b7 0b       	sbc	r27, r23

000004c4 <__udivmodhi4_ep>:
 4c4:	88 1f       	adc	r24, r24
 4c6:	99 1f       	adc	r25, r25
 4c8:	5a 95       	dec	r21
 4ca:	a9 f7       	brne	.-22     	; 0x4b6 <__udivmodhi4_loop>
 4cc:	80 95       	com	r24
 4ce:	90 95       	com	r25
 4d0:	bc 01       	movw	r22, r24
 4d2:	cd 01       	movw	r24, r26
 4d4:	08 95       	ret

000004d6 <_exit>:
 4d6:	f8 94       	cli

000004d8 <__stop_program>:
 4d8:	ff cf       	rjmp	.-2      	; 0x4d8 <__stop_program>
