:1000000012C02CC02BC02AC029C028C027C026C0BF
:1000100025C0D0C323C08EC021C020C01FC01EC0B9
:100020001DC01CC01BC011241FBECFE5D4E0DEBF25
:10003000CDBF10E0A0E6B0E0ECE8F8E002C005902B
:100040000D92A236B107D9F711E0A2E6B0E001C0E7
:100050001D92AE31B107E1F73FD216C4D1CF682F60
:1000600080916100861729F06093610088EC90E030
:10007000FED30895809161008F3F29F488EC90E0D1
:10008000EED380936100809161000895FC01838527
:100090009485843030F4E82FF0E0EE50FF4F9083E9
:1000A0000AC08F3F41F49093F5009093F400909331
:1000B000F3009093F20081E080936F0082B390E4AC
:1000C000892782BBD7DF882311F080E0C8DF08953D
:1000D000809160008F3F29F484E690E0C0D3809344
:1000E00060008091600008951F93FC0113851093B8
:1000F000600084E690E0B3D3811721F084E690E0BD
:10010000612FB5D31F910895FC018085823319F0CA
:10011000803431F403C0CF01B9DF0895CF01E4DFAB
:1001200008951BB880E98AB986E880BD10BC83E3D6
:1001300089B908951F920F920FB60F9211242F9331
:100140008F939F93EF93FF93F8948BB187FFFDCF2D
:100150008093B1002CB1209370008091630090E0F7
:10016000FC01EF58FF4F208301968F7390708093AE
:100170006300809164008F5F809364007894FF91A6
:10018000EF919F918F912F910F900FBE0F901F9025
:100190001895DC01F894809164008823B1F08150B7
:1001A000809364007894E0916200F0E0EF58FF4F94
:1001B00080818C938091620090E001968F739070A3
:1001C0008093620021E030E003C0789420E030E0CA
:1001D000C90108955D9BFECF8CB981E090E0089540
:1001E000FC0191818081803821F4913111F4CF019B
:1001F0008BDF81E0089590936A008093690070938B
:100200006E0060936D0080E090E008950F931F935F
:10021000DF93CF930F92CDB7DEB78C01E0916900E9
:10022000F0916A00309719F42FEF3FEFACC0CE0188
:1002300001960995181619060CF0A3C020916500C7
:10024000309166002034310524F010926C00109239
:100250006B0080916B0090916C008230910509F4E5
:1002600046C08330910534F40097B1F0019709F04E
:1002700084C027C08330910521F0049709F07DC028
:1002800061C060916700709168006F5F7F4F22E0EE
:1002900030E040E050E049C01092660010926500E6
:1002A00029812A3F09F06DC081E090E090936C00B5
:1002B00080936B002093B20090936600809365005A
:1002C00060C08981F901EE54FF4F80832F5F3F4F5B
:1002D000309366002093650022E030E030936C009C
:1002E00020936B0080936700109268004AC0F90168
:1002F000EE54FF4F898180832F5F3F4F309366001C
:1003000020936500809167009091680001968217A4
:100310009307BCF583E090E010C0F901EE54FF4F65
:100320008081480F511D2F5F3F4F62177307ACF755
:100330008981841711F584E090E090936C0080939C
:100340006B001FC089818F3AC1F410926C0010922B
:100350006B00A4EBB0E040E050E007C0F801E40F10
:10036000F51F8D9180834F5F5F4F20916700309123
:1003700068004217530794F306C010926C00109265
:100380006B0020E030E0C9010F90CF91DF911F9109
:100390000F9108950F931F93A0E0B0E00FEA1AEFBA
:1003A00024C0FB01E20FF31F20812F3FC1F4218104
:1003B0002F3F29F4FC01EA0FF11D20830DC02130ED
:1003C00029F4FC01EA0FF11D108306C0223029F444
:1003D000FC01EA0FF11D0083AF5FBF5F05C0FC01A8
:1003E000EA0FF11D2083AF5FBF5F2B2F30E0241792
:1003F0003507BCF28A2F90E01F910F9108950F935B
:100400001F939C0180E0A0E0BFEF02E011E02DC04F
:10041000E60FF71F90819A3F51F4F901E80FF11DA3
:10042000B0838F5FF901E80FF11D10830BC09F3A75
:1004300059F4F901E80FF11DB0838F5FF901E80F5E
:10044000F11D00838F5F10C0E82FF0E08F5F9F3FAA
:1004500041F4E20FF31F9083F901E80FF11D90833F
:10046000F1CFE20FF31F9083AF5FEA2FF0E0E417C4
:10047000F50774F290E01F910F91089588E181BD16
:1004800011BC81BD8FE081BD089508958FE388BBC5
:1004900017BA15BA14BA92E098BB97BB8EE185BB28
:1004A00084B3817E84BB80E681BB85E083BF80EF1F
:1004B00082BF81EA8FBD9EBD1DBC1CBC17BC16BC93
:1004C0001BBC1ABC19BC18BC12BC15BC14BC13BC98
:1004D00015BE81E089BF0895CF92DF92EF92FF921F
:1004E0000F931F93DF93CF93CDB7DEB7C154D040A6
:1004F0000FB6F894DEBF0FBECDBF80E29EE428ECBD
:1005000030E0F9013197F1F70197D9F7B7DFBEDF96
:100510003ED17894B3DF05DE89EC90E06AEE70E0BE
:100520006ADE8FEF8093F5008093F4008093F300F0
:100530008093F20080E090E044E650E060E070E0FC
:10054000E4D081E090E042E350E060E070E0DDD094
:1005500082E090E048EE53E060E070E0D6D083E0C7
:1005600090E048EE53E060E070E0CFD085E090E0AE
:1005700048EE53E060E070E0C8D0A898A89A80E008
:1005800090E0D8D0892BC9F7A89A8FEF8ABD00E0F8
:1005900010E022961FAE2297FF246E010894C11C22
:1005A000D11C80E2E82EC60160E470E02FDE682FE7
:1005B000882319F0C60170E013DE8ADD8823D1F0AC
:1005C00059DD8A30B8F485E090E0B4D0892B91F4FD
:1005D00080916F008F5F80936F008B3020F04ADD39
:1005E0008F5F3DDDFFCF85E090E048EE53E060E0B7
:1005F00070E08BD083E090E09DD0892B01F53EDF49
:1006000082B38E2582BB83B38E7184FD03C0EFE07D
:10061000F0E002C0E7E0F0E083FD349782FD32971E
:1006200081FD31978F01E430F10510F003E010E017
:1006300083E090E044EF51E060E070E066D08AB57E
:10064000F801EE50FF4F9081891709F4ACCF8AB5BD
:10065000882331F4A89841E022964FAF229717C023
:1006600022965FAD2297513079F480E090E044E625
:1006700050E060E070E049D0A898A89A80E090E04F
:1006800059D0892BC9F7A89A22961FAE229781E0EC
:1006900090E050D0892B09F086CFF801EE50FF4F43
:1006A00080819AB5282F30E0981770F48AB5A90197
:1006B000481B5109CA016AE070E0AAD0653008F40D
:1006C00061E08AB5860F15C08AB590E0821B930B56
:1006D0006AE070E09DD0663010F491E001C093E0D4
:1006E00054E05F1510F4FF2401C090E0F3948AB544
:1006F000891B8ABD81E090E03AD081E090E041E042
:1007000050E060E070E001D04ECF8830910578F481
:10071000FC01EE0FFF1FEE0FFF1FE80FF91FEA505D
:10072000FF4F418352836383748381E0808380E041
:1007300090E0089588309105B0F4FC01EE0FFF1FA2
:10074000EE0FFF1FE80FF91FEA50FF4F808188234B
:1007500051F020E030E081819281A381B481009743
:10076000A105B10511F021E030E0C90108958830FC
:10077000910550F4FC01EE0FFF1FEE0FFF1FE80F75
:10078000F91FEA50FF4F108280E090E00895E6EFF5
:10079000F0E010821182128213821482359681E079
:1007A000EE31F807B1F785E083BF88EF82BF81E0C3
:1007B00089BF08951F920F920FB60F9211248F9345
:1007C0009F93AF93BF93EF93FF93E7EFF0E08081A8
:1007D0009181A281B3810097A105B10539F00197FC
:1007E000A109B10980839183A283B383359681E007
:1007F000EF31F80761F788EF82BFFF91EF91BF916A
:10080000AF919F918F910F900FBE0F901F901895F1
:1008100097FB092E07260AD077FD04D00CD006D00E
:1008200000201AF4709561957F4F0895F6F7909522
:1008300081959F4F0895AA1BBB1B51E107C0AA1FBA
:10084000BB1FA617B70710F0A61BB70B881F991F71
:100850005A95A9F780959095BC01CD010895E1992D
:10086000FECF9FBB8EBBE09A99278DB30895262FAC
:10087000E199FECF9FBB8EBB2DBB0FB6F894E29AD9
:0C088000E19A0FBE01960895F894FFCF96
:02088C00FFFF6C
:00000001FF
