:1000000019C033C032C031C030C02FC02EC02DC087
:100010002CC02BC02AC029C028C027C0D4C225C0EC
:1000200024C023C01FC321C020C01FC01EC01DC0CC
:100030001CC01BC011241FBECFEFD4E0DEBFCDBF5C
:1000400012E0A0E0B1E0E2E4FCE102C005900D9214
:10005000A430B107D9F714E0A4E0B2E001C01D92CA
:10006000A335B107E1F7FFD9EACDCACF10927C00E2
:1000700080E880BF85EA80937A00EBE7F0E080813A
:10008000887F808381E080937E000895FFCF0F9367
:10009000CF93DF93EC0180E8888380E3898340E09D
:1000A00050E0602F70E00AC0FE01E80FF11DD90199
:1000B000A40FB51F8C9180834F5F5F4F842F8E5F9D
:1000C000461757078CF3802F8E5FDF91CF910F91EA
:1000D0000895809101010895809100010895809311
:1000E00001010895809300010895EF92FF920F930C
:1000F0001F9391E590932C023091C2039091C3031A
:1001000090932D0230932E02FA01E20FF11DEF2F92
:10011000FF0FFF0BE0932F02240F209330029AE091
:10012000099F8001112400933102E99E700111247E
:10013000E092320280933302262F372FD90148E014
:1001400050E0282F30E02C5F3F4F220F331F0FC0AD
:1001500011968C911197FA01E45DFD4F80838C918B
:10016000FA01E35DFD4F80834E5F5F4F12964217A9
:10017000530771F780E880934A0280E380934B0233
:1001800020E030E0642F70E00AC0F0E0E65BFD4F55
:10019000D901A45DBD4F8C9180832F5F3F4FE22F2B
:1001A000EE5F261737078CF34E5F80E090E06AE43D
:1001B00072E050E015D61F910F91FF90EF900895D7
:1001C00081E680932C029091C2038091C3038093B7
:1001D0002D0290932E028091000180932F0280E8DF
:1001E00080934A0280E380934B02ACE4B2E020E0CB
:1001F00030E0F901E45DFD4F80818D932F5F3F4F2B
:1002000024303105B1F780E090E06AE472E046E026
:1002100050E0E6D50895FB018581813019F41092F4
:10022000000103C081E080930001CADF089581E8E6
:1002300080932C029091C2038091C30380932D027E
:1002400090932E028091010180932F0280E8809389
:100250004A0280E380934B02ACE4B2E020E030E05D
:10026000F901E45DFD4F80818D932F5F3F4F243076
:100270003105B1F780E090E06AE472E046E050E0DA
:10028000AFD50895FB01858180930101D0DF0895EA
:1002900080E580932C029091C2038091C3038093E8
:1002A0002D0290932E0281E080932F0280E88093AC
:1002B0004A0280E380934B02ACE4B2E020E030E0FD
:1002C000F901E45DFD4F80818D932F5F3F4F243016
:1002D0003105B1F780E090E06AE472E046E050E07A
:1002E0007FD5089584E080932C029091C203809181
:1002F000C30380932D0290932E028091010180937D
:100300002F0280E880934A0280E380934B02ACE4A2
:10031000B2E020E030E0F901E45DFD4F80818D9393
:100320002F5F3F4F24303105B1F780E090E06AE461
:1003300072E046E050E054D50895D4DF0895FB0103
:100340002281203659F0203821F0233041F4CADFD1
:1003500008958581809301016ADF08955CDF089527
:10036000FB018281823019F08231B9F408C08681A4
:10037000813011F4109204021092050208959581C3
:1003800080E0268130E0822B932B892B21F481E0C1
:10039000809304020895109204020895FB01958150
:1003A00080E0268130E0822B932B892B21F481E0A1
:1003B000809304020895109204020895FB0186813F
:1003C000813011F410920402109205020895809178
:1003D000040208950F93CF93DF93EC0180E88883A4
:1003E000198240E050E0602F70E00AC0FE01E80F83
:1003F000F11DD901A40FB51F8C9180834F5F5F4F12
:10040000842F8E5F461757078CF3802F8E5FDF9106
:10041000CF910F910895DF93CF93CDB7DEB72A9791
:100420000FB6F894DEBF0FBECDBF81E189839091F6
:10043000C2038091C3038A839B8380E28C8380E51F
:100440008D8381E08E838F8380E880938A0210926F
:100450008B02FE013196ACE8B2E09E01285F3F4F6F
:1004600081918D93E217F307D9F780E090E06AE875
:1004700072E049E050E0B4D42A960FB6F894DEBF9B
:100480000FBECDBFCF91DF910895DF93CF93CDB74E
:10049000DEB72A970FB6F894DEBF0FBECDBF8091AE
:1004A00005028F5F8093050281E089839091C203EA
:1004B0008091C3038A839B831C821D8280E8809382
:1004C0008A0210928B02FE013196ACE8B2E09E01E6
:1004D0002A5F3F4F81918D93E217F307D9F78091FF
:1004E0000502843020F0109204021092050280E090
:1004F00090E06AE872E047E050E072D42A960FB6C6
:10050000F894DEBF0FBECDBFCF91DF9108958A3042
:10051000910578F4FC01EE0FFF1FEE0FFF1FE80FAF
:10052000F91FE253FD4F418352836383748381E05B
:10053000808380E090E008958A309105B0F4FC015A
:10054000EE0FFF1FEE0FFF1FE80FF91FE253FD4FE5
:100550008081882351F020E030E081819281A38165
:10056000B4810097A105B10511F021E030E0C90187
:1005700008958A30910550F4FC01EE0FFF1FEE0F35
:10058000FF1FE80FF91FE253FD4F108280E090E05B
:100590000895F894EEECF2E0108211821282138238
:1005A0001482359683E0E030F807B1F716BC14BC2E
:1005B00084E085BD8FE187BD80916E00826080936D
:1005C0006E00789408951F920F920FB60F92112427
:1005D0008F939F93AF93BF93EF93FF938091CA0242
:1005E0009091CB02A091CC02B091CD020196A11DB9
:1005F000B11D8093CA029093CB02A093CC02B0931A
:10060000CD02EFECF2E080819181A281B38100976D
:10061000A105B10539F00197A109B1098083918342
:10062000A283B383359683E0E130F80761F716BC07
:10063000FF91EF91BF91AF919F918F910F900FBE5E
:100640000F901F90189582E08093C00088E98093F6
:10065000C10086E08093C2001092C50088E08093BC
:10066000C40008951F920F920FB60F9211242F937A
:100670008F939F93EF93FF93F8948091C00087FF2F
:10068000FCCF809341032091C6002093000380910A
:10069000070290E0FC01EF5FFC4F208301968F730F
:1006A000907080930702809108028F5F8093080208
:1006B0007894FF91EF919F918F912F910F900FBEA2
:1006C0000F901F901895DC01F89480910802882300
:1006D000B1F08150809308027894E0910602F0E036
:1006E000EF5FFC4F80818C938091060290E0019631
:1006F0008F7390708093060221E030E003C07894FD
:1007000020E030E0C9010895982F8091C00085FF56
:10071000FCCF9093C60081E090E00895DC01FB01DE
:1007200021818081803851F4222319F0203331F463
:1007300003C0CD0115DE02C0CD0101DE81E00895C8
:10074000909318028093170270931A026093190213
:1007500080E090E0089590931202809311027093CC
:1007600016026093150280E090E00895CF92DF9228
:10077000EF92FF920F931F93DF93CF93CDB7DEB726
:10078000C054D0400FB6F894DEBF0FBECDBFAC0151
:100790008091190290911A02892B19F42FEF3FEFE3
:1007A00050C08AEF89836A8320E030E002E010E0E5
:1007B0007E010894E11CF11C0CC0F701E00FF11F51
:1007C000DA01A20FB31F8C9180830F5F1F4F2F5F41
:1007D0003F4F261737078CF322E030E040E050E02F
:1007E000DE01119608C0FD01E20FF31F8081480F62
:1007F000511D2F5F3F4F20173107ACF3FD01E00F74
:10080000F11F408378010894E11CF11CAE0DBF1D5F
:100810008FEA8C9300E010E06E010894C11CD11C9B
:10082000F601E00FF11F2091190230911A02808128
:10083000F90109950F5F1F4FE016F1068CF720E0D4
:1008400030E0C901C05CDF4F0FB6F894DEBF0FBEC9
:10085000CDBFCF91DF911F910F91FF90EF90DF906F
:10086000CF900895CF92DF92EF92FF920F931F9354
:10087000DF93CF93CDB7DEB7C054D0400FB6F89416
:10088000DEBF0FBECDBFAC01809115029091160264
:10089000892B19F42FEF3FEF50C08AEF89836A83C9
:1008A00020E030E002E010E07E010894E11CF11C41
:1008B0000CC0F701E00FF11FDA01A20FB31F8C91FA
:1008C00080830F5F1F4F2F5F3F4F261737078CF333
:1008D00022E030E040E050E0DE01119608C0FD016A
:1008E000E20FF31F8081480F511D2F5F3F4F2017EC
:1008F0003107ACF3FD01E00FF11F4083780108944C
:10090000E11CF11CAE0DBF1D8FEA8C9300E010E0DE
:100910006E010894C11CD11CF601E00FF11F20915B
:100920001502309116028081F90109950F5F1F4F62
:10093000E016F1068CF720E030E0C901C05CDF4F23
:100940000FB6F894DEBF0FBECDBFCF91DF911F91E0
:100950000F91FF90EF90DF90CF9008950F931F932A
:10096000DF93CF930F92CDB7DEB78C01E0911102E8
:10097000F0911202309719F42FEF3FEFA8C0CE018B
:1009800001960995181619060CF09FC08091130264
:10099000909114028230910509F449C08330910589
:1009A00034F40097B1F0019709F08BC027C0833071
:1009B000910521F0049709F084C068C060910F028E
:1009C000709110026F5F7F4F22E030E040E050E016
:1009D00050C010920E0210920D0229812A3F09F098
:1009E00074C081E090E090931402809313022093EE
:1009F000820390930E0280930D0267C080910D02D6
:100A000090910E022981FC01EE57FC4F2083019644
:100A100090930E0280930D0282E090E09093140276
:100A20008093130220930F02109210024EC0209167
:100A30000D0230910E02F901EE57FC4F898180833F
:100A40002F5F3F4F30930E0220930D0280910F02D3
:100A500090911002019682179307BCF583E090E015
:100A600010C0F901EE57FC4F8081480F511D2F5FD8
:100A70003F4F62177307ACF78981841711F584E043
:100A800090E090931402809313021FC089818F3AE3
:100A9000C1F41092140210921302A4E8B3E040E0F3
:100AA00050E007C0F801E40FF51F8D9180834F5F80
:100AB0005F4F20910F02309110024217530794F3B9
:100AC00006C0109214021092130220E030E0C90117
:100AD0000F90CF91DF911F910F9108950F931F9366
:100AE000A0E0B0E00FEA1AEF24C0FB01E20FF31F11
:100AF00020812F3FC1F421812F3F29F4FC01EA0F0F
:100B0000F11D20830DC0213029F4FC01EA0FF11DF5
:100B1000108306C0223029F4FC01EA0FF11D008386
:100B2000AF5FBF5F05C0FC01EA0FF11D2083AF5F1F
:100B3000BF5F2B2F30E024173507BCF28A2F90E0DF
:100B40001F910F910895EF92FF920F931F93DF93E0
:100B5000CF93CDB7DEB7C154D0400FB6F894DEBF07
:100B60000FBECDBFF82EE92E8B01E0911702F09158
:100B70001802309719F42FEF3FEF5DC0CE010196B8
:100B80000995181619060CF054C08091090290912D
:100B90000A028017910724F010920A0210920902AB
:100BA00089818A3F49F48093420381E090E09093E9
:100BB0000A02809309023DC04091090250910A0245
:100BC0008F3A69F541505040CE01029663E473E0DC
:100BD00085DF282F22508A81281759F581E090E07F
:100BE000422F50E001C0019684179507E4F38F2D42
:100BF0009E2D9C01D90120E030E0BE016E5F7F4F49
:100C000005C0FB01E20FF31F80818D93822F2F5FC0
:100C10003F4F42175307ACF7282F30E00CC0FA01C2
:100C2000EE5BFC4F80834F5F5F4F50930A0240930F
:100C3000090220E030E0C901CF5BDF4F0FB6F89426
:100C4000DEBF0FBECDBFCF91DF911F910F91FF90FF
:100C5000EF9008950F931F939C01A0E080E0BFEFF9
:100C600002E011E02DC0E60FF71F90819A3F51F48A
:100C7000F901E80FF11DB0838F5FF901E80FF11D55
:100C800010830BC09F3A59F4F901E80FF11DB083AE
:100C90008F5FF901E80FF11D00838F5F10C0E82F0F
:100CA000F0E08F5F9F3F41F4E20FF31F9083F90163
:100CB000E80FF11D9083F1CFE20FF31F9083AF5F38
:100CC000EA2FF0E0E417F50774F290E01F910F911E
:100CD00008958091C403089521E12093C80390935F
:100CE000C9038093CA039091C2038091C303809388
:100CF000CB039093CC0388EC93E065E070E036DDA5
:100D000080E797E10197F1F708951092C80390E406
:100D10009093C90395E09093CA038093CB0388EC2A
:100D200093E064E070E022DD80E797E10197F1F75E
:100D300008951092C80390E49093C90392E09093B1
:100D4000CA038093CB0388EC93E064E070E00EDD8F
:100D500080E797E10197F1F708951092C80320E327
:100D60002093C9039093CA038093CB0388EC93E04C
:100D700064E070E0FBDC80E797E10197F1F708950C
:100D80001092C80381E08093C9038093CA0388EC62
:100D900093E063E070E0EADC80E797E10197F1F728
:100DA00008951092C80380E18093C9031092CA038A
:100DB00088EC93E063E070E0D9DC80E797E101978D
:100DC000F1F708951092C8031092C90388EC93E0DC
:100DD00062E070E0CBDC80E797E10197F1F70895DE
:100DE000EF92FF920F931F93DF93CF93CDB7DEB7B0
:100DF000C058D0400FB6F894DEBF0FBECDBF7B0108
:100E00008A0120E129839A838B839091C203809188
:100E1000C3038C839D8345E050E020E030E0BE01B9
:100E20006F5F7F4F0CC0FB01E40FF51FD701A20FCE
:100E3000B31F8C9180834F5F5F4F2F5F3F4F201711
:100E400031078CF38E010F5B1F4FC80103DFBC011C
:100E5000C8018CDC80E797E10197F1F7C058DF4FBC
:100E60000FB6F894DEBF0FBECDBFCF91DF911F91BB
:100E70000F91FF90EF900895FF920F931F93FC0145
:100E8000F08081E1F81659F181EAF816F1F181E07C
:100E9000F816E1F5938580E0248530E0822B932BD2
:100EA0009093C3038093C203958580E0068510E08C
:100EB000082B192B1093C6030093C50364D390E04D
:100EC00091600817190741F01092C4035CD390E0B9
:100ED000916043DF55DF1AC0F092C40310C0018552
:100EE0000093C70350D310E090E08F7090700B9682
:100EF0000817190731F047D38F70855F1ADF51DF6C
:100F000005C083E08093C40301C05CDF1F910F9193
:100F1000FF9008958AB1806C8AB98BB1806C8BB9CF
:100F200084B1836084B985B1836085B9229A2A9A95
:100F3000239A2B98519A509A81E08BB9089584B7DF
:100F4000877F84BF2FE088E190E00FB6F894A895E2
:100F5000809360000FBE209360000895289888EE6B
:100F600093E028EC30E0F9013197F1F70197D9F7D8
:100F7000289A0895EAE2F4E0828193818193919323
:100F800084E0EC33F807C1F78091E8039091E9031E
:100F90009183808380911E02893088F480911E02A3
:100FA000E82FF0E02091E8033091E903EE0FFF1FF6
:100FB000E25CFB4F318320838F5F80931E02089594
:100FC00085E090E0B9DA892BF9F480911F02813035
:100FD00031F42B9A10921F02109228020BC08091BC
:100FE00028028F5F809328028B3020F02B9884E1B9
:100FF0008093280285E090E0BCDA85E090E044E64A
:1010000050E060E070E083DA089582E090E094DAE6
:10101000892B01F580917A00806480937A00809119
:101020007A0084FFFCCF80917800909179009093B2
:10103000E9038093E80380917A00806180937A00CD
:1010400082E090E096DA82E090E04AE050E060E0F2
:1010500070E05DDA089581E090E06EDA892B59F452
:10106000A89581E090E085DA81E090E044E650E0E8
:1010700060E070E04CDA0895BF92CF92DF92EF9279
:10108000FF920F931F93CF93DF9310921C02109245
:101090001D0258E3C52E54E0D52E760147E0B42E4C
:1010A000F701C081D1818091020190910301C8179D
:1010B000D90708F492C0009102011091030109D8E8
:1010C000C01BD10B90E0C817D90708F486C0B394B1
:1010D00082E090E0E80EF91E9AE0B91609F784E183
:1010E00080931C02BB24B39437E0F32EF601C08139
:1010F000D18180910201909103018C179D07C0F06E
:101100000091020110910301E4D70C1B1D0B90E02C
:101110000817190768F0F39482E090E0C80ED91E12
:101120009AE0F91619F784E180931C02BB24B3946A
:101130002AE2E22E24E0F22EDD24F701C081D181E3
:1011400080910201909103018C179D0760F400913A
:10115000020110910301BDD7C01BD10B90E08C1789
:101160009D0768F40BC00091020110910301B1D7F3
:101170000C1B1D0B90E08017910708F4D39482E0BC
:1011800090E0E80EF91E9EE3E91694E0F906A9F650
:101190006D2D70E0882777FD8095982FA3D220E0F1
:1011A00030E040E950E473D218163CF4EAE0DE0E79
:1011B000D0921D02BB24B39402C0D0921D02B09203
:1011C0001B0280911B02DF91CF911F910F91FF9025
:1011D000EF90DF90CF90BF900895BB2485CFCF9242
:1011E000DF92EF920F931F9387E090E0A5D9892BB0
:1011F000A9F572D7882341F56CDD833099F41091FD
:101200001E02C0900201D090030163D7282F0091E5
:101210001C02E0901D02812F6EE374E0A60165D7E9
:1012200010921E02809126029091270201969093BF
:10123000270280932602895B9B4030F081E052D7E1
:10124000109227021092260287E090E092D987E060
:1012500090E044E650E060E070E059D91F910F91B2
:10126000EF90DF90CF9008951F93DF93CF930F926D
:10127000CDB7DEB72ED78983109152042AD718171D
:1012800051F027D780935204CE01019660E070E0C0
:1012900041E050E0BDD486E090E04ED9892B09F0C2
:1012A00050C068DE8091210280932002E5DE8093A9
:1012B0002102882329F0299A81E080931F0201C02E
:1012C000299807DD833009F580912002882321F4D5
:1012D000809121028130C9F42091220230912302B1
:1012E00080912402909125028217930770F4D0D741
:1012F00010922302109222028091240290912502E2
:10130000449690932502809324028091220290912A
:10131000230221E08D32920728F0109225021092CC
:10132000240205C00196909323028093220286E056
:1013300090E01FD986E090E04AE050E060E070E085
:10134000E6D80F90CF91DF911F91089584E090E04F
:10135000F3D8892B01F53BD8882379F4BADC8330A4
:1013600009F459D884E090E004D984E090E040E1A9
:1013700057E260E070E0CBD80895ABDC833009F42D
:1013800084D884E090E0F5D884E090E040E25EE428
:1013900060E070E0BCD8089583E090E0CDD8892B60
:1013A000E9F410DD809129028F5F8093290291DC9E
:1013B000833051F483E090E0DCD883E090E040E1BA
:1013C00057E260E070E009C083E090E0D2D883E0AB
:1013D00090E048EE53E060E070E099D87ADC82302B
:1013E00020F480912902863010F0109229028AEEB2
:1013F00093E060E470E0A7DBAC0190932B02809354
:101400002A021816190674F58091EA03882319F048
:10141000803141F507C0642F61508BEE93E070E09E
:101420002BDD08956091ED037091EE039091F2032E
:1014300080E02091F30330E0822B932B2091C203B4
:101440003091C3038217930769F4962F80E0272F0A
:1014500030E0455050E045505040822B932B6FEECA
:1014600073E05CD90895DF93CF930F92CDB7DEB7C9
:1014700051DD7CD0E8D88DD8F9D5CE01019660E059
:1014800070E041E050E0B4D3898181508E3F10F08C
:1014900080E5898389818093520421D620E032E05F
:1014A00048EC50E085B1832785B988E893E1FA01DB
:1014B0003197F1F70197D9F785B1832785B988E886
:1014C00093E1FA013197F1F70197D9F72F5F2530B2
:1014D00049F784B7877F84BF2FE088E190E00FB69B
:1014E000F894A895809360000FBE2093600083E677
:1014F00093E064E873E024D983E090E048EE53E0A1
:1015000060E070E004D884E090E048EE53E060E0F2
:1015100070E0FDD781E090E044E650E060E070E0EC
:10152000F6D787E090E044E650E060E070E0EFD767
:1015300086E090E04AE050E060E070E0E8D782E0CA
:1015400090E045E050E060E070E0E1D785E090E0B9
:1015500048EE53E060E070E0DAD778947CDD1CDF81
:10156000F5DE82DE3CDE51DD2BDDF8CF8AB1877CF3
:101570008AB987B1817C87B98BB188638BB988B10F
:101580008E6388B90895359902C088E001C080E073
:10159000349B8460339B8260329B81604D9B80686A
:1015A0004C9B80644B9B8062319B80610895FC0161
:1015B00020E030E04CE050E09081892F80538A3069
:1015C00020F4892F90E0C09710C0892F8154863075
:1015D00020F4892F90E0C79708C0892F8156863064
:1015E00060F4892F90E087559040042E02C0880F48
:1015F000991F0A94E2F7282B392B3196445050401A
:101600008FEF4C3F5807C1F6C9010895FC0140E037
:1016100024E030E09081892F80538A3020F4892F94
:1016200090E0C09710C0892F8154863020F4892F14
:1016300090E0C79708C0892F8156863058F4892FCB
:1016400090E087559040022E02C0880F991F0A949F
:10165000E2F7482B3196245030408FEF2C3F38076B
:10166000C9F6842F0895282F30E02F7030702A306B
:1016700031051CF48F70805D08952A50304026306B
:10168000310510F080E008958F70895C0895A8E11D
:10169000B0E0ECE4FBE081C269837A838B839C83B6
:1016A0002D833E834F83588789E0E82EF12CEC0E82
:1016B000FD1ECE010196B70193D18E010F5E1F4F23
:1016C000CE010596B8018CD18985823038F08989A0
:1016D000823020F0C701B801FBD101C08FEF6896BE
:1016E000E6E077C2A8E0B0E0E7E7FBE053C29B0189
:1016F000AC0183E08983DA01C9018827B7FD8395AE
:101700009927AA27BB27B82E211531054105510578
:1017100019F482E0898339C08823A9F0203080E061
:10172000380780E0480780E8580729F460E070E057
:1017300080E09FEC2EC0EE24FF248701E21AF30A1A
:10174000040B150B02C079018A018EE1C82ED12C41
:10175000DC82CB82ED82FE820F831887C801B7013D
:101760001BD001971816190684F4082E04C0EE0C3D
:10177000FF1C001F111F0A94D2F7ED82FE820F8317
:101780001887C81AD90ADC82CB82BA82CE010196A8
:1017900052D02896E9E01AC2EF92FF920F931F935E
:1017A0007B018C0180E0E81680E0F80681E0080704
:1017B00080E0180788F48FEFE816F10401051105A1
:1017C00031F028F088E090E0A0E0B0E017C080E0C1
:1017D00090E0A0E0B0E012C080E0E81680E0F806FB
:1017E00080E0080781E0180728F088E190E0A0E099
:1017F000B0E004C080E190E0A0E0B0E020E230E0A2
:1018000040E050E0281B390B4A0B5B0B04C01695D7
:101810000795F794E7948A95D2F7F701EC5FFE4FAE
:101820008081281B310941095109C9011F910F917C
:10183000FF90EF900895DF92EF92FF920F931F9326
:10184000FC01E480F58006811781D180808182309F
:1018500048F480E090E0A0E1B0E0E82AF92A0A2B01
:101860001B2BA5C0843009F49FC0823021F4EE24E4
:10187000FF24870105C0E114F1040105110519F4E5
:10188000E0E0F0E096C0628173819FEF62387907F3
:101890000CF05BC022E83FEF261B370B2A313105E5
:1018A0002CF020E030E040E050E02AC0B801A70171
:1018B000022E04C076956795579547950A94D2F7FE
:1018C00081E090E0A0E0B0E004C0880F991FAA1F5B
:1018D000BB1F2A95D2F70197A109B1098E219F213B
:1018E000A023B1230097A105B10521F081E090E08C
:1018F000A0E0B0E09A01AB01282B392B4A2B5B2BDF
:10190000DA01C9018F779070A070B07080349105B2
:10191000A105B10539F427FF09C0205C3F4F4F4FA7
:101920005F4F04C0215C3F4F4F4F5F4FE0E0F0E05E
:101930002030A0E03A07A0E04A07A0E45A0710F0E0
:10194000E1E0F0E079018A0127C06038710564F5B3
:10195000FB01E158FF4FD801C7018F779070A0704D
:10196000B07080349105A105B10539F4E7FE0DC0D2
:1019700080E490E0A0E0B0E004C08FE390E0A0E05D
:10198000B0E0E80EF91E0A1F1B1F17FF05C01695D1
:101990000795F794E794319687E016950795F794A5
:1019A000E7948A95D1F705C0EE24FF248701EFEF75
:1019B000F0E06E2F679566276795902F9F77D794F5
:1019C000DD24D7948E2F8695492F462B582F5D29DD
:1019D000B701CA011F910F91FF90EF90DF9008951A
:1019E000FC01DB01408151812281622F6F7770E021
:1019F000221F2227221F9381892F880F822B282FB5
:101A000030E0991F9927991F11969C9311972115E2
:101A10003105A9F5411551056105710511F482E003
:101A200037C082E89FEF13969C938E9312979A018A
:101A3000AB0167E0220F331F441F551F6A95D1F792
:101A400083E08C930DC0220F331F441F551F129645
:101A50008D919C911397019713969C938E93129757
:101A6000203080E0380780E0480780E4580758F3CA
:101A700014962D933D934D935C93179708952F3FA4
:101A8000310579F4411551056105710519F484E0BA
:101A90008C93089564FF03C081E08C9312C01C9264
:101AA00010C02F57304013963C932E93129783E02B
:101AB0008C9387E0440F551F661F771F8A95D1F7D7
:101AC000706414964D935D936D937C93179708956E
:101AD0001F93DC01FB019C91923008F447C0808188
:101AE000823008F443C0943051F411961C91843034
:101AF00099F58181682F70E0611B71093FC08430C6
:101B000021F0923031F48230B9F18181882389F15A
:101B10002DC011961C9111978230F1F08181181718
:101B2000D9F412962D913C9113978281938182175B
:101B3000930794F028173907BCF014968D919D9166
:101B40000D90BC91A02D24813581468157812817A5
:101B500039074A075B0718F4112341F00AC08217BE
:101B60009307A407B50740F4112319F061E070E072
:101B700005C06FEF7FEF02C060E070E0CB011F9106
:101B800008952F923F924F925F926F927F928F9221
:101B90009F92AF92BF92CF92DF92EF92FF920F93FC
:101BA0001F93CF93DF93CDB7DEB7CA1BDB0B0FB606
:101BB000F894DEBF0FBECDBF09942A8839884888C3
:101BC0005F846E847D848C849B84AA84B984C88459
:101BD000DF80EE80FD800C811B81AA81B981CE0F50
:101BE000D11D0FB6F894DEBF0FBECDBFED01089535
:101BF000DC01CB01FC01F999FECF06C0F2BDE1BDCD
:101C0000F89A319600B40D9241505040B8F70895BB
:101C1000DC01CB0102C02D9105D041505040D8F7D6
:101C20000895262FF999FECF1FBA92BD81BD20BD20
:101C30000FB6F894FA9AF99A0FBE01960895F8949F
:021C4000FFCFD4
:101C420001504001000102020303030304040404DF
:101C52000404040405050505050505050505050536
:101C62000505050506060606060606060606060616
:101C72000606060606060606060606060606060602
:101C820006060606070707070707070707070707E6
:101C920007070707070707070707070707070707D2
:101CA20007070707070707070707070707070707C2
:101CB20007070707070707070707070707070707B2
:101CC2000707070708080808080808080808080896
:101CD2000808080808080808080808080808080882
:101CE2000808080808080808080808080808080872
:101CF2000808080808080808080808080808080862
:101D02000808080808080808080808080808080851
:101D12000808080808080808080808080808080841
:101D22000808080808080808080808080808080831
:101D32000808080808080808080808080808080821
:041D4200080808087D
:00000001FF
