:100000000C944E000C946D000C946D000C946D00DB
:100010000C946D000C946D000C946D000C946D00AC
:100020000C946D000C946D000C946D000C946D009C
:100030000C946D000C946D000C946D000C946D008C
:100040000C946D000C946D000C94570A0C94810A6A
:100050000C94AE0A0C946D000C946D000C946D0021
:100060000C946D000C946D000C94FC090C946D00C4
:100070000C946D000C946D000C94FE0A0C942B0BE8
:100080000C945D0B0C946D000C946D000A25643A81
:1000900020253032582D25303258000011241FBE43
:1000A000CFEFD0E1DEBFCDBF11E0A0E0B1E0E0EAEC
:1000B000F5E200E00BBF02C007900D92AA30B10735
:1000C000D9F719E0AAE0B1E001C01D92A133B10750
:1000D000E1F70E9455040C94CE120C940000E5E365
:1000E000F1E0DF01189692E02FEF3FEF81E090837F
:1000F00011963C932E93848F808F848319961C9243
:100100001E9218973196129641E0E933F40779F779
:1001100008956430710594F5DB01AB5CBE4F4C93E0
:1001200014964C931497FB01EE0FFF1FE35CFE4FF8
:100130008FEF9FEF91838083423039F04230F0F0AF
:10014000842F80528B30D0F407C081E058968C9376
:1001500058975C961C920895242F20518BE090E0D4
:10016000689FF001699FF00D789FF00D1124E40F56
:10017000F11DEB5CFE4F208314962C930895109292
:1001800065030895AC0130916503E9E2F2E020E0F7
:1001900010C08081918138968417950749F430E02A
:1001A00083E0220F331F8A95E1F72B5D3D4F05C099
:1001B0002F5F231770F320E030E0C9010895AC01F0
:1001C00030916503E9E2F2E020E00AC0808191818C
:1001D00038968417950719F421E030E005C02F5FA9
:1001E0002317A0F320E030E0C9010895AC0130915D
:1001F0006503E5E2F2E020E00FC08081918186177F
:10020000970741F4848195818417950719F421E0BB
:1002100030E006C02F5F3896231778F320E030E0F7
:10022000C9010895AC0130916503E5E2F2E020E0F8
:100230000AC08081918138968417950719F421E0CE
:1002400030E005C02F5F2317A0F320E030E0C901A4
:100250000895EF92FF920F9330916503E32FF0E042
:10026000DF01AA0FBB1FAA0FBB1FAA0FBB1F0F2EB8
:10027000F5E2EF2EF2E0FF2EF02DAE0DBF1D15962C
:100280009C938E931497A3E0EE0FFF1FAA95E1F7BE
:10029000D701AE0FBF1F11967C936E93EE0EFF1E1B
:1002A000F7015383428316962C93169717960C9357
:1002B0003F5F3093650380E090E00F91FF90EF90F7
:1002C0000895CF92DF92EF92FF920F931F93CF93F7
:1002D000DF93EC017B016A01122F0E94C200FC0136
:1002E000009729F0808191818E159F0531F430911E
:1002F0006503E9E2F2E020E00EC0F182E082D38201
:10030000C282168307830AC08081918138968C1738
:100310009D0721F02F5F2317B8F30BC080E090E01A
:10032000DF91CF911F910F91FF90EF90DF90CF90D1
:100330000895E32FF0E0DF0123E0AA0FBB1F2A9509
:10034000E1F7A75DBD4FCD93DC9393E0EE0FFF1F68
:100350009A95E1F7DF01AB5DBD4F1196FC92EE92ED
:10036000E95DFD4FD182C08216961C9316971796B1
:100370000C933F5F30936503D1CFBC01509165036F
:10038000E9E2F2E020E027C080819181389686176B
:10039000970701F5422F252F30E02150304011C042
:1003A000FC0163E0EE0FFF1F6A95E1F7DF01AB5D33
:1003B000BD4FE35DFD4F88E001900D928150E1F764
:1003C0004F5F842F90E08217930754F3515050935E
:1003D000650308952F5F2517B8F2089510926503FD
:1003E0000895BC0180916503E7E2F2E040E0282F28
:1003F00030E0A3E0220F331FAA95E1F72E0F3F1F35
:1004000007C0808191818617970709F44F5F38965E
:10041000E217F307B1F7842F0895809165030895DB
:10042000AC0160916503A9E2B2E020E030E014C0C5
:10043000F9018D919C9111972F5F3F4F189684176A
:10044000950751F4B3E0EE0FFF1FBA95E1F7EB5DAE
:10045000FD4F2081318104C0261750F320E030E0A9
:10046000C9010895AC0160916503A5E2B2E020E006
:1004700030E014C0F9018D919C9111972F5F3F4F8F
:1004800018968417950751F483E0EE0FFF1F8A95A5
:10049000E1F7E75DFD4F2081318104C0261750F35D
:1004A00020E030E0C9010895EF92FF920F931F936F
:1004B000CF93DF930DE212E0C0E0D0E09CE8E92E9C
:1004C00090E0F92E2CC08DB79EB708970FB6F89420
:1004D0009EBF0FBE8DBFEDB7FEB73196ADB7BEB7AD
:1004E0001296FC92EE9211972196D383C283D80183
:1004F00014968D919C911597958384838D919C91F1
:10050000978386830E9405102196005F1F4F8DB749
:100510009EB708960FB6F8949EBF0FBE8DBF809110
:10052000650390E0C817D90770F2DF91CF911F9152
:100530000F91FF90EF9008951BBA8FEF8ABB9FE059
:1005400095BB84BB9FE992BB81BB80936200809383
:100550006100809365008093640082B18C6082B9F1
:1005600083B1837F83B90895979888EE93E020E95B
:1005700031E0F9013197F1F70197D9F7979A08958A
:1005800084B7877F84BF2FE088E190E00FB6F894AE
:10059000A89581BD0FBE21BD089583E090E00E9423
:1005A000AA09892B91F40E94DE0F807F803F69F0B9
:1005B000109202018CE48093030180930401109255
:1005C000050183E090E00E94C70984E090E00E946A
:1005D000AA09892B59F580E0609102010E947405F7
:1005E00081E0609103010E94740582E06091040142
:1005F0000E94740583E0609105010E94740580915A
:1006000002010E94BE0F80910201813F10F0A89864
:1006100001C0A89A84E090E00E94C70984E090E0BD
:1006200044E650E060E070E00E949509089581E0A2
:1006300090E00E94AA09892B99F40E94FD0E8091F6
:100640000A018F5F80930A0181E090E00E94C70950
:1006500081E090E040E157E260E070E00E9495099F
:100660000E947E0E823030F480910A01863020F0A4
:100670000E94B40210920A0186E693E060E470E002
:100680000E94B70DAC0190930C0180930B011816DA
:1006900019060CF098C080916603882321F0803100
:1006A00009F091C008C0642F615087E693E070E0C4
:1006B0000E945A0F08952091690330916A03809136
:1006C0006B038038D1F4922F80E0232F30E0282B69
:1006D000392B455080916C03813039F4C9016BE6A8
:1006E00073E050E00E94E40608C0803931F4C9018B
:1006F0006BE673E050E00E947B0980916B038038C9
:1007000009F061C080916C03813209F05CC0809176
:100710007303803709F057C08FEF809302018093F5
:100720000301809304018CEC809305010E94DE0F8D
:1007300090E0807F90704097F4F00E94DE0F90E090
:10074000807F9070813A9105B4F40E94DE0F82950B
:100750008F7090E0A0E0B0E0BC01CD0120E137E275
:1007600040E050E00E94E60FAB01BC0183E090E066
:100770000E94950908950E94DE0F90E0807F90709E
:10078000803B910504F10E94DE0F90E0807F907025
:10079000813E9105C4F40E94DE0F82958F7090E037
:1007A0000997AA2797FDA095BA2FBC01CD0120E695
:1007B0003AEE40E050E00E94E60FAB01BC0183E05E
:1007C00090E00E949509089582E090E00E94AA09B5
:1007D000892B91F4A895849B02C0949801C0949AA7
:1007E00082E090E00E94C70982E090E044EF51E08F
:1007F00060E070E00E94950985E090E00E94AA09FF
:10080000892B09F051C00E94DE0F8823F1F58091F9
:100810000D01882349F481E080930D018FEF63E39C
:100820000E94740583E30AC0813059F482E080930A
:100830000D018FEF6CE40E9474058CE40E94BE0FE2
:1008400022C0823049F483E080930D018FEF6FE77F
:100850000E9474058FE7F2CF833049F484E08093DF
:100860000D018FEF6CEC0E9474058CECE7CF8430A7
:1008700041F410920D018FEF6EEF0E9474058EEF20
:10088000DDCF10920D0180E001C081E00E943E05A5
:1008900085E090E00E94C70985E090E048EB5BE0CE
:1008A00060E070E00E94950908950E949C020E94F9
:1008B000D10F0E943F0A0E94D7090E94B70F84B748
:1008C000877F84BF2FE088E190E00FB6F894A89569
:1008D00081BD0FBE21BD0E94BF0015BA1FBC86E0BE
:1008E0008EBD8FEF8DBD8CBD87B7846087BF83E1E0
:1008F0000E949B0E88EE93E020E931E0F9013197E8
:10090000F1F70197D9F70E94D90E80E197E220E92B
:1009100031E0F9013197F1F70197D9F782E090E0E2
:1009200044EF51E060E070E00E94950985E090E0BE
:1009300048EB5BE060E070E00E94950981E090E0A8
:1009400048EB5BE060E070E00E94950984E090E095
:1009500044E650E060E070E00E949509109227099B
:100960008AED9AE068EF7AE00E94B40B8AE89BE097
:1009700068EA7BE00E94BF0B0E94E4030E94DE0F46
:100980008823D1F30E9417030E94CD02F5CF209156
:100990000E0130910F012F5F3F4F30930F012093D5
:1009A0000E0121503040C9010895EF92FF920F933C
:1009B000CF93DF93EC01790180910E0190910F01AB
:1009C000019690930F0180930E01019720E82883F0
:1009D00021E129839A838B837C836D835E834F839C
:1009E00040E050E0602F70E00AC0FE01E80FF11D0A
:1009F000D701A40FB51F8C9180834F5F5F4F842F69
:100A0000885F461757078CF3802F885FDF91CF915F
:100A10000F91FF90EF900895EF92FF920F93CF9375
:100A2000DF93EC0180E8888381E18983FA82EB829D
:100A30007C836D835E834F8340E050E0602F70E0E5
:100A40000AC0FE01E80FF11DD901A40FB51F8C915A
:100A500080834F5F5F4F842F885F461757078CF363
:100A6000802F885FDF91CF910F91FF90EF900895D5
:100A7000E6E0F1E0E80FF11D80810895EF92FF922A
:100A80000F93DF93CF93CDB7DEB72A970FB6F894C5
:100A9000DEBF0FBECDBF90E49983209125099091D0
:100AA00026099A832B838C8386EAE82E83E0F82E2E
:100AB000C70160E070E040E050E09E012F5F3F4FD3
:100AC00004E00E94D504682FC70170E00E94460C24
:100AD0002A960FB6F894DEBF0FBECDBFCF91DF913F
:100AE0000F91FF90EF900895EF92FF920F93DF9395
:100AF000CF93CDB7DEB72A970FB6F894DEBF0FBEFF
:100B0000CDBF92E3998320912509909126099A837C
:100B10002B838C836D8396EAE92E93E0F92EC7012F
:100B200060E070E040E050E09E012F5F3F4F05E045
:100B30000E94D504682FC70170E00E94460C2A96D7
:100B40000FB6F894DEBF0FBECDBFCF91DF910F91EE
:100B5000FF90EF9008951F93FC01838514858430E6
:100B600058F4E82FF0E0EA5FFE4F1083612F0E94F7
:100B70007405812F0E94BE0F1F910895FB0180858F
:100B8000823321F4CB01BA010E94AB050895EF92A4
:100B9000FF920F93CF93DF93EC0180E8888381E08D
:100BA0008983FA82EB827C836D835E834F8340E08E
:100BB00050E0602F70E00AC0FE01E80FF11DD9017E
:100BC000A40FB51F8C9180834F5F5F4F842F885F88
:100BD000461757078CF3802F885FDF91CF910F91D5
:100BE000FF90EF90089520911201309113012F5F33
:100BF0003F4F309313012093120121503040C9011F
:100C00000895809110010895AF92BF92CF92DF9224
:100C1000EF92FF920F931F93DF93CF93CDB7DEB781
:100C20002A970FB6F894DEBF0FBECDBF7C015B01E3
:100C300082E189831A830B831C828EE18D8389EE86
:100C4000C82E83E0D82EC601BA0140E050E09E01D4
:100C50002F5F3F4F05E00E94C705482FC501B60131
:100C600050E00E940C0F2A960FB6F894DEBF0FBE1C
:100C7000CDBFCF91DF911F910F91FF90EF90DF904B
:100C8000CF90BF90AF900895AF92BF92CF92DF9276
:100C9000EF92FF920F93DF93CF93CDB7DEB72A97F2
:100CA0000FB6F894DEBF0FBECDBF5C0182E0898332
:100CB00081E08A832B831C820D8399EEC92E93E0F9
:100CC000D92EC60140E050E09E012F5F3F4F05E066
:100CD000EE24FF240E94C705482FC501B60150E04D
:100CE0000E940C0F2A960FB6F894DEBF0FBECDBF40
:100CF000CF91DF910F91FF90EF90DF90CF90BF9059
:100D0000AF9008958F929F92AF92BF92CF92DF9251
:100D1000EF92FF920F931F935C01FB01968180E09D
:100D2000C780DD24C82AD92A918580E0E284FF2487
:100D3000E82AF92A93848484928180E0238130E038
:100D4000822B932BB501A601970100E010E00E94D1
:100D50000406C601B501A701292D082D0E946101D5
:100D60001F910F91FF90EF90DF90CF90BF90AF90C9
:100D70009F908F9008950F931F93CF93DF93EC0173
:100D8000FB01968180E02781022F10E0082B192BB0
:100D9000C8010E94C200FC01009739F08081918156
:100DA0008C179D0711F0D183C083CE01B80140E0BC
:100DB00050E020E030E00EE110E00E944406DF91B8
:100DC000CF911F910F910895FB012085213019F0DB
:100DD000213131F403C00E94BB0608950E948206AF
:100DE000089520911401309115012F5F3F4F3093EA
:100DF00015012093140121503040C9010895EF924C
:100E0000FF920F93CF93DF93EC017901809114014E
:100E1000909115010196909315018093140101970B
:100E200020E8288321E229839A838B837C836D8346
:100E30005E834F8340E050E0602F70E00AC0FE0107
:100E4000E80FF11DD701A40FB51F8C9180834F5F70
:100E50005F4F842F885F461757078CF3802F885F7A
:100E6000DF91CF910F91FF90EF900895EF92FF9255
:100E70000F93CF93DF93EC0180E8888381E289832D
:100E8000FA82EB827C836D835E834F8340E050E087
:100E9000602F70E00AC0FE01E80FF11DD901A40F18
:100EA000B51F8C9180834F5F5F4F842F885F4617FB
:100EB00057078CF3802F885FDF91CF910F91FF90C0
:100EC000EF900895809116018F5F809316018150F5
:100ED00008950F93CF93DF93EC0180E8888380E936
:100EE0008983809116018F5F8093160181508A83D8
:100EF0007B836C835D834E8340E050E0602F70E025
:100F00000AC0FE01E80FF11DD901A40FB51F8C9195
:100F100080834F5F5F4F842F895F461757078CF39D
:100F2000802F895FDF91CF910F910895EF92FF920B
:100F30000F93CF93DF93EC0180E8888380E9898366
:100F4000FA82EB827C836D835E834F8340E050E0C6
:100F5000602F70E00AC0FE01E80FF11DD901A40F57
:100F6000B51F8C9180834F5F5F4F842F885F46173A
:100F700057078CF3802F885FDF91CF910F91FF90FF
:100F8000EF900895CF92DF92EF92FF920F931F930D
:100F9000DF93CF93CDB7DEB72A970FB6F894DEBFB5
:100FA0000FBECDBF7C018B0181E489831A836B83E3
:100FB0004C83CB010E94C2006C010097A1F089EE26
:100FC00093E0B80140E050E09E012F5F3F4F04E006
:100FD0000E949607482FF6018081918169EE73E0A7
:100FE00050E00E940C0F2A960FB6F894DEBF0FBE99
:100FF000CDBFCF91DF911F910F91FF90EF90DF90C8
:10100000CF900895AF92BF92CF92DF92EF92FF926E
:101010000F93DF93CF93CDB7DEB72A970FB6F8942F
:10102000DEBF0FBECDBF5C017B0183E389835A83A2
:101030004B833C832D830E83CB010E94C2006C0145
:101040000097A9F089EE93E0B70140E050E09E01DF
:101050002F5F3F4F06E075010E949607482FF6016B
:101060008081918169EE73E050E00E940C0F2A9616
:101070000FB6F894DEBF0FBECDBFCF91DF910F91B9
:10108000FF90EF90DF90CF90BF90AF9008950F93B7
:10109000FB01A38126819781E18580916503E81793
:1010A000B8F4F0E083E0EE0FFF1F8A95E1F7EB5D07
:1010B000FD4F722F60E0892F90E0682B792B4481DF
:1010C0005581228133818A2F90E007810E94020896
:1010D0000F910895CF92DF92EF92FF920F931F939B
:1010E000DF93CF93CDB7DEB72A970FB6F894DEBF64
:1010F0000FBECDBF7C018B0181E389834A83CB0185
:101100000E94C2006C010097A1F089EE93E0B80143
:1011100040E050E09E012F5F3F4F02E00E949607A3
:10112000482FF6018081918169EE73E050E00E94C2
:101130000C0F2A960FB6F894DEBF0FBECDBFCF912D
:10114000DF911F910F91FF90EF90DF90CF90089566
:10115000FB01928180E0438150E0768160E027814D
:1011600030E0622B732B842B952B409165030E94FA
:101170006A080895CF92DF92EF92FF920F93DF9368
:10118000CF93CDB7DEB72A970FB6F894DEBF0FBE68
:10119000CDBF7C016B0181E289834A8389EE93E0B4
:1011A00040E050E09E012F5F3F4F02E00E94960713
:1011B000082FC6010E94C200FC01009741F0808107
:1011C000918169EE73E0402F50E00E940C0F2A9647
:1011D0000FB6F894DEBF0FBECDBFCF91DF910F9158
:1011E000FF90EF90DF90CF900895FB01928180E017
:1011F000438150E0768160E0278130E0622B732BE1
:10120000842B952B41E00E94BA080895EF92FF923B
:101210000F931F93DF93CF93CDB7DEB72A970FB607
:10122000F894DEBF0FBECDBF8C0180E889831A829F
:101230001B821C830D836E83C8010E94C2007C0147
:101240000097A1F089EE93E0B80140E050E09E01E4
:101250002F5F3F4F06E00E94FF06482FF701808175
:10126000918169EE73E050E00E940C0F2A960FB650
:10127000F894DEBF0FBECDBFCF91DF911F910F91CC
:10128000FF90EF900895DF92EF92FF920F931F93DC
:10129000CF93DF93FB01928180E02381E22EFF2434
:1012A000E82AF92A968180E02781022F10E0082B96
:1012B000192B918580E02285C22FD0E0C82BD92B35
:1012C000D384CE010E94C200892B21F4C701B8014A
:1012D00041E007C0CE016D2D0E940609C701B8018B
:1012E00040E00E94C207DF91CF911F910F91FF90C4
:1012F000EF90DF900895FB012085203369F02133C2
:1013000018F4203289F405C0223349F0203461F406
:1013100009C00E94F50808950E94A80808950E9437
:10132000470808950E94430908958A30910578F48A
:10133000FC01EE0FFF1FEE0FFF1FE80FF91FED5826
:10134000FB4F418352836383748381E0808380E019
:1013500090E008958A309105B0F4FC01EE0FFF1F74
:10136000EE0FFF1FE80FF91FED58FB4F8081882318
:1013700051F020E030E081819281A381B481009717
:10138000A105B10511F021E030E0C90108958A30CE
:10139000910550F4FC01EE0FFF1FEE0FFF1FE80F49
:1013A000F91FED58FB4F108280E090E00895F8940B
:1013B000E3E7F4E0108211821282138214823596E0
:1013C00084E0E53AF807B1F710928900109288009E
:1013D00080E480938B008CE080938A0010928C00D4
:1013E000109287008EE38093860080917D0080615B
:1013F00080937D00789408951F920F920FB60F92FC
:101400000BB60F9211248F939F93AF93BF93EF93DB
:10141000FF9380916F0490917004A0917104B0913A
:1014200072040196A11DB11D80936F049093700406
:10143000A0937104B0937204E4E7F4E08081918199
:10144000A281B3810097A105B10539F00197A109E7
:10145000B10980839183A283B383359684E0E63A11
:10146000F80761F7FF91EF91BF91AF919F918F9135
:101470000F900BBE0F900FBE0F901F90189582E03B
:101480008BB988ED8AB996E0909395001092900000
:1014900080E189B910929B0088E080939A00909334
:1014A0009D001092980087E68093990008951F92FE
:1014B0000F920FB60F920BB60F9211242F938F93AA
:1014C0009F93EF93FF935F9BFECF2CB18091180108
:1014D00090E0FC01EB55FA4F2083019680931801B0
:1014E000809119018F5F80931901FF91EF919F9176
:1014F0008F912F910F900BBE0F900FBE0F901F90EA
:1015000018951F920F920FB60F920BB60F921124DF
:101510002F933F938F939F93EF93FF9330911C01F1
:10152000332371F080911A0190E0FC01EB55F94FE3
:1015300020812CB9019680931A01315030931C01FF
:101540005598FF91EF919F918F913F912F910F901F
:101550000BBE0F900FBE0F901F9018951F920F9209
:101560000FB60F920BB60F9211242F933F938F93C8
:101570009F93EF93FF9330911C01332371F080917F
:101580001A0190E0FC01EB55F94F20812CB901962E
:1015900080931A01315030931C01FF91EF919F917C
:1015A0008F913F912F910F900BBE0F900FBE0F9018
:1015B0001F901895DC01F89480911901882399F007
:1015C0008150809319017894E0911701F0E0EB5578
:1015D000FA4F80818C93809117018F5F8093170160
:1015E00021E030E003C0789420E030E0C9010895A4
:1015F0005D9BFECF8CB981E090E008951F920F9221
:101600000FB60F920BB60F9211242F938F939F93C7
:10161000EF93FF9380919B0087FFFCCF20919C006C
:1016200080911E0190E0FC01EB55F84F208301965C
:1016300080931E0180911F018F5F80931F01FF9196
:10164000EF919F918F912F910F900BBE0F900FBE36
:101650000F901F9018951F920F920FB60F920BB616
:101660000F9211242F933F938F939F93EF93FF93A8
:1016700030912201332379F08091200190E0FC0128
:10168000EB55FB4F208120939C0001968093200115
:1016900031503093220180919A008F7D80939A007F
:1016A000FF91EF919F918F913F912F910F900BBEE2
:1016B0000F900FBE0F901F9018951F920F920FB6AC
:1016C0000F920BB60F9211242F933F938F939F93FA
:1016D000EF93FF9330912201332379F08091200121
:1016E00090E0FC01EB55FB4F208120939C0001967C
:1016F00080932001315030932201FF91EF919F910F
:101700008F913F912F910F900BBE0F900FBE0F90B6
:101710001F901895DC01F89480911F01882399F09F
:10172000815080931F017894E0911D01F0E0EB550A
:10173000F84F80818C9380911D018F5F80931D01F4
:1017400021E030E003C0789420E030E0C901089542
:10175000982F80919B0085FFFCCF90939C0081E0A7
:1017600090E0089508950895909332018093310197
:10177000709334016093330180E090E0089590937A
:101780002C0180932B017093300160932F0180E036
:1017900090E00895CF92DF92EF92FF920F931F9304
:1017A000DF93CF93CDB7DEB7C054D0400FB6F894D7
:1017B000DEBF0FBECDBFAC018091330190913401EB
:1017C000892B19F42FEF3FEF50C08AEF89836A838A
:1017D00020E030E002E010E07E010894E11CF11C02
:1017E0000CC0F701E00FF11FDA01A20FB31F8C91BB
:1017F00080830F5F1F4F2F5F3F4F261737078CF3F4
:1018000022E030E040E050E0DE01119608C0FD012A
:10181000E20FF31F8081480F511D2F5F3F4F2017AC
:101820003107ACF3FD01E00FF11F4083780108940C
:10183000E11CF11CAE0DBF1D8FEA8C9300E010E09F
:101840006E010894C11CD11CF601E00FF11F20911C
:101850003301309134018081F90109950F5F1F4FE9
:10186000E016F1068CF720E030E0C901C05CDF4FE4
:101870000FB6F894DEBF0FBECDBFCF91DF911F91A1
:101880000F91FF90EF90DF90CF900895CF92DF926D
:10189000EF92FF920F931F93DF93CF93CDB7DEB7F5
:1018A000C054D0400FB6F894DEBF0FBECDBFAC0120
:1018B00080912F0190913001892B19F42FEF3FEF88
:1018C00050C08AEF89836A8320E030E002E010E0B4
:1018D0007E010894E11CF11C0CC0F701E00FF11F20
:1018E000DA01A20FB31F8C9180830F5F1F4F2F5F10
:1018F0003F4F261737078CF322E030E040E050E0FE
:10190000DE01119608C0FD01E20FF31F8081480F30
:10191000511D2F5F3F4F20173107ACF3FD01E00F42
:10192000F11F408378010894E11CF11CAE0DBF1D2E
:101930008FEA8C9300E010E06E010894C11CD11C6A
:10194000F601E00FF11F20912F01309130018081CD
:10195000F90109950F5F1F4FE016F1068CF720E0A3
:1019600030E0C901C05CDF4F0FB6F894DEBF0FBE98
:10197000CDBFCF91DF911F910F91FF90EF90DF903E
:10198000CF9008950F931F93DF93CF930F92CDB70E
:10199000DEB78C01E0912B01F0912C01309719F406
:1019A0002FEF3FEFA8C0CE01019609951816190632
:1019B0000CF09FC080912D0190912E0182309105F5
:1019C00009F449C08330910534F40097B1F00197D0
:1019D00009F08BC027C08330910521F0049709F0EE
:1019E00084C068C06091290170912A016F5F7F4FA8
:1019F00022E030E040E050E050C010922801109208
:101A0000270129812A3F09F074C081E090E090937A
:101A10002E0180932D012093E50890932801809357
:101A2000270167C080912701909128012981FC013D
:101A3000EB51F74F20830196909328018093270163
:101A400082E090E090932E0180932D012093290154
:101A500010922A014EC02091270130912801F901EE
:101A6000EB51F74F898180832F5F3F4F30932801DF
:101A7000209327018091290190912A0101968217D4
:101A80009307BCF583E090E010C0F901EB51F74FEC
:101A90008081480F511D2F5F3F4F62177307ACF7CE
:101AA0008981841711F584E090E090932E01809352
:101AB0002D011FC089818F3AC1F410922E0110921E
:101AC0002D01A7EEB8E040E050E007C0F801E40FB8
:101AD000F51F8D9180834F5F5F4F209129013091D9
:101AE0002A014217530794F306C010922E01109258
:101AF0002D0120E030E0C9010F90CF91DF911F91BF
:101B00000F9108950F931F93A0E0B0E00FEA1AEF32
:101B100024C0FB01E20FF31F20812F3FC1F421817C
:101B20002F3F29F4FC01EA0FF11D20830DC0213065
:101B300029F4FC01EA0FF11D108306C0223029F4BC
:101B4000FC01EA0FF11D0083AF5FBF5F05C0FC0120
:101B5000EA0FF11D2083AF5FBF5F2B2F30E024170A
:101B60003507BCF28A2F90E01F910F910895EF92F4
:101B7000FF920F931F93DF93CF93CDB7DEB7C1547E
:101B8000D0400FB6F894DEBF0FBECDBFF82EE92EC1
:101B90008B01E0913101F0913201309719F42FEF70
:101BA0003FEF5EC0CE0101960995181619060CF09C
:101BB00055C080912301909124018017910724F052
:101BC000109224011092230189818A3F49F4809365
:101BD000A50881E090E090932401809323013EC00A
:101BE00040912301509124018F3A71F541505040AA
:101BF000CE01029666EA78E00E94820D282F2250DC
:101C00008A81281759F581E090E0422F50E001C009
:101C1000019684179507E4F38F2D9E2D9C01D90121
:101C200020E030E0BE016E5F7F4F05C0FB01E20F98
:101C3000F31F80818D93822F2F5F3F4F42175307F1
:101C4000ACF7282F30E00CC0FA01EB55F74F80833A
:101C50004F5F5F4F509324014093230120E030E019
:101C6000C901CF5BDF4F0FB6F894DEBF0FBECDBF0B
:101C7000CF91DF911F910F91FF90EF9008950F93F7
:101C80001F939C0180E0A0E0BFEF02E011E02DC0B7
:101C9000E60FF71F90819A3F51F4F901E80FF11D0B
:101CA000B0838F5FF901E80FF11D10830BC09F3ADD
:101CB00059F4F901E80FF11DB0838F5FF901E80FC6
:101CC000F11D00838F5F10C0E82FF0E08F5F9F3F12
:101CD00041F4E20FF31F9083F901E80FF11D9083A7
:101CE000F1CFE20FF31F9083AF5FEA2FF0E0E4172C
:101CF000F50774F290E01F910F91089580912709E4
:101D0000089521E12093E9039093EA038093EB0384
:101D100090912509809126098093EC039093ED031F
:101D200089EE93E065E070E00E94CA0B80EE9EE2CF
:101D30000197F1F708951092E90390E49093EA0374
:101D400095E09093EB038093EC0389EE93E064E0DD
:101D500070E00E94CA0B80EE9EE20197F1F70895B1
:101D60001092E90390E49093EA0392E09093EB03DE
:101D70008093EC0389EE93E064E070E00E94CA0B6C
:101D800080EE9EE20197F1F708951092E90320E3B7
:101D90002093EA039093EB038093EC0389EE93E0A6
:101DA00064E070E00E94CA0B80EE9EE20197F1F7BA
:101DB00008951092E90381E08093EA038093EB0396
:101DC00089EE93E063E070E00E94CA0B80EE9EE231
:101DD0000197F1F708951092E90380E18093EA03F7
:101DE0001092EB0389EE93E063E070E00E94CA0B6F
:101DF00080EE9EE20197F1F708951092E9031092A8
:101E0000EA0389EE93E062E070E00E94CA0B80EE84
:101E10009EE20197F1F70895EF92FF920F931F93BF
:101E2000DF93CF93CDB7DEB7C058D0400FB6F8944C
:101E3000DEBF0FBECDBF7B018A0120E129839A83DB
:101E40008B8390912509809126098C839D8345E0A1
:101E500050E020E030E0BE016F5F7F4F0CC0FB011F
:101E6000E40FF51FD701A20FB31F8C9180834F5F42
:101E70005F4F2F5F3F4F201731078CF38E010F5BB1
:101E80001F4FC8010E943F0EBC01C8010E94CA0B2F
:101E900080EE9EE20197F1F7C058DF4F0FB6F8943D
:101EA000DEBF0FBECDBFCF91DF911F910F91FF908D
:101EB000EF900895FF920F931F93FC01F08081E152
:101EC000F816A9F181EAF81609F44BC081E0F8167A
:101ED00009F049C0938580E0248530E0822B932B64
:101EE0009093260980932509958580E0068510E06A
:101EF000082B192B10932909009328090E94DE0F43
:101F000090E08F70907091600817190769F0109237
:101F100027090E94DE0F90E08F70907091600E9400
:101F2000C50E0E94D90E1FC0F092270913C001856B
:101F300000932A090E94DE0F10E090E08F709070ED
:101F40000B960817190749F00E94DE0F8F70855F06
:101F50000E94B00E0E94EB0E06C083E0809327091A
:101F600002C00E94FD0E1F910F91FF90089581B352
:101F7000866081BB82B3897F82BB08958E3418F45A
:101F800082B386600CC08B3918F4929A91980895A8
:101F90008E3C18F49298919A089582B3897F82BBFF
:101FA000089587B38F7087BB82B18F7082B988B371
:101FB000806F88BB83B1806F83B9089596B381B178
:101FC00082958F70907F892B80950895629FD001B4
:101FD000739FF001829FE00DF11D649FE00DF11DE4
:101FE000929FF00D839FF00D749FF00D659FF00D93
:101FF0009927729FB00DE11DF91F639FB00DE11D80
:10200000F91FBD01CF0111240895DF93CF93CDB700
:10201000DEB7FE01359661917191A0912D09B091C5
:102020002E0913968C911397886013968C93809148
:102030002D0990912E09AF010E942810E0912D09E1
:10204000F0912E092381277F2383CF91DF9108957B
:102050002F923F924F925F926F927F928F929F92B8
:10206000AF92BF92CF92DF92EF92FF920F931F93A6
:10207000DF93CF93CDB7DEB72B970FB6F894DEBFC3
:102080000FBECDBF3C012B015A01FC011782168205
:10209000838181FD03C06FEF7FEFC6C19AE0892E77
:1020A0001E010894211C311CF3012381F20123FD40
:1020B000859123FF81912F01882309F4B2C18532D4
:1020C00039F423FD859123FF81912F01853229F475
:1020D00090E0B3010E944412E7CF982FFF24EE2432
:1020E0009924FFE1FF15D0F09B3269F09C3228F46F
:1020F000903259F0933291F40EC09D3249F09033F2
:1021000069F441E024C052E0F52A84E0F82A28C0AE
:1021100098E0F92A25C0E0E1FE2A22C0F7FC29C098
:10212000892F80538A3070F4F6FE05C0989C902C5D
:102130001124980E15C0E89CE02C1124E80EF0E262
:10214000FF2A0EC09E3229F4F6FC6BC140E4F42A4B
:1021500007C09C3619F450E8F52A02C0983649F4B5
:10216000F20123FD959123FF91912F01992309F00D
:10217000B8CF892F8554833018F08052833038F4DB
:1021800044E050E0A40EB51E5FE359830FC09336C0
:1021900031F0933779F0933509F056C020C0F5013E
:1021A0008081898342E050E0A40EB51E610101E008
:1021B00010E012C0F501C080D180F6FC03C06FEFC3
:1021C0007FEF02C0692D70E042E050E0A40EB51E22
:1021D000C6010E9439128C015FE7F52214C0F50197
:1021E000C080D180F6FC03C06FEF7FEF02C0692D85
:1021F00070E042E050E0A40EB51EC6010E942E120F
:102200008C0150E8F52AF3FE07C01AC080E290E086
:10221000B3010E944412EA948E2D90E0081719072A
:10222000A8F30EC0F601F7FC8591F7FE81916F01CE
:1022300090E0B3010E944412E110EA940150104072
:102240000115110579F7EAC0943611F0993669F550
:10225000F7FE08C0F501208131814281538184E07D
:1022600090E00AC0F501808191819C01442737FDEF
:102270004095542F82E090E0A80EB91E9FE6F92207
:1022800057FF09C050954095309521953F4F4F4FCE
:102290005F4FE0E8FE2ACA01B901A1012AE030E05F
:1022A0000E947012D82ED21840C0953729F41F2DE5
:1022B0001F7E2AE030E01DC01F2D197F9F3661F080
:1022C000903720F4983509F0ACC00FC0903739F042
:1022D000983709F0A6C004C028E030E00AC01061B9
:1022E00014FD146020E130E004C014FD166020E10C
:1022F00032E017FF08C0F50160817181828193810E
:1023000044E050E008C0F50180819181BC0180E08B
:1023100090E042E050E0A40EB51EA1010E947012B0
:10232000D82ED2188FE7F82EF122F6FE0BC05EEF02
:10233000F522D91438F4F4FE07C0F2FC05C08FEE84
:10234000F82202C01D2D01C0192DF4FE0DC0FE01A2
:10235000ED0DF11D8081803319F499EEF92208C04A
:102360001F5FF2FE05C003C08F2D867809F01F5F46
:102370000F2DF3FC14C0F0FE0FC01E1510F09D2CA5
:102380000BC09D2C9E0C911A1E2D06C080E290E081
:10239000B3010E9444121F5F1E15C0F304C01E1536
:1023A00010F4E11A01C0EE2404FF0FC080E390E0B6
:1023B000B3010E94441202FF1DC001FD03C088E763
:1023C00090E00EC088E590E00BC0802F867891F0F9
:1023D00001FF02C08BE201C080E2F7FC8DE290E0D9
:1023E000B3010E94441206C080E390E0B3010E9452
:1023F00044129A94D914C0F3DA94F101ED0DF11D51
:10240000808190E0B3010E944412DD20A9F706C04C
:1024100080E290E0B3010E944412EA94EE20C1F7FA
:1024200043CEF30166817781CB012B960FB6F894EA
:10243000DEBF0FBECDBFCF91DF911F910F91FF90F7
:10244000EF90DF90CF90BF90AF909F908F907F9054
:102450006F905F904F903F902F900895FC010590F2
:10246000615070400110D8F7809590958E0F9F1F96
:102470000895FC016150704001900110D8F78095DB
:1024800090958E0F9F1F08950F931F93CF93DF9307
:102490008C01EB018B8181FF1BC082FF0DC02E815F
:1024A0003F818C819D812817390764F4E881F98187
:1024B0000193F983E88306C0E885F985802F0995A3
:1024C000892B31F48E819F8101969F838E8302C078
:1024D0000FEF1FEFC801DF91CF911F910F9108956A
:1024E000FA01AA27283051F1203181F1E8946F9345
:1024F0006E7F6E5F7F4F8F4F9F4FAF4FB1E03ED0EB
:10250000B4E03CD0670F781F891F9A1FA11D680F88
:10251000791F8A1F911DA11D6A0F711D811D911DBB
:10252000A11D20D009F468943F912AE0269F112430
:102530003019305D3193DEF6CF010895462F477094
:10254000405D4193B3E00FD0C9F7F6CF462F4F70EF
:10255000405D4A3318F0495D31FD4052419302D04D
:10256000A9F7EACFB4E0A6959795879577956795F3
:10257000BA95C9F700976105710508959B01AC01F3
:102580000A2E06945795479537952795BA95C9F71A
:10259000620F731F841F951FA01D0895F894FFCF2D
:0A25A000FFFFFFFFFFFFFFFFFFFF3B
:00000001FF
