:100000000C94E1020C9400030C9400030C94000384
:100010000C9400030C945E220C9400030C940003D7
:100020000C9400030C9400030C9400030C94000344
:100030000C94AC100C9400030C9400030C9400037B
:100040000C9400030C9400030C942C110C94581184
:100050000C9487110C9400030C9400030C9400037F
:100060000C9400030C9400030C9400030C94000304
:100070000C9400030C9400030C94F7110C942612BA
:100080000C945A120C9400030C9400030A25643A51
:100090002025303458000A2053746172742054694A
:1000A0006D65203A20253032782C20456E6420542E
:1000B000696D65203A2025303278000A205374613A
:1000C00072742054696D65203A2025643A253032D7
:1000D000642C20456E642054696D65203A202564A7
:1000E0003A25303264000A507265737320616E796C
:1000F000204E756D626572205B31207E20375D2E4B
:100100002E2E2E20000A2323202053656E736F723B
:1001100053686172654D6F6465203A202025642024
:1001200020202020202020202020202020232300E9
:100130000A23232020506F727420202020202020AA
:1001400020203A202025642020202020202020204C
:10015000202020202323000A232320205375624ED1
:100160006574204D41534B20203A20202533642EC6
:100170002533642E2533642E253364202020232349
:10018000000A2323202044656661756C742047575C
:100190002020203A20202533642E2533642E253359
:1001A000642E2533642020202323000A23232020CB
:1001B000476174657761792049502020203A2020DA
:1001C0002533642E2533642E2533642E2533642095
:1001D00020202323000A2323202053657276657292
:1001E000204950202020203A20202533642E25331A
:1001F000642E2533642E2533642020202323000A17
:1002000023232323232323232323232323232323BE
:1002100023232323232323232323232323232323AE
:10022000232323232323232323000A20205B375D5A
:100230002E2051756974203F000A20205B365D2E08
:100240002053656E736F7253686172696E673A20EE
:10025000202564000A20205B355D2E20506F7274CB
:100260002020202020202020203A20202564000A61
:1002700020205B345D2E205375624E6574204D4105
:10028000534B20203A20202533642E2533642E251D
:1002900033642E253364000A20205B335D2E204416
:1002A000656661756C742047572020203A20202510
:1002B00033642E2533642E2533642E253364000ADF
:1002C00020205B325D2E204761746577617920497B
:1002D000502020203A20202533642E2533642E25FB
:1002E00033642E253364000A20205B315D2E2053B9
:1002F0006572766572204950202020203A20202502
:1003000033642E2533642E2533642E253364000A8E
:1003100023232323232323232323232323232323AD
:10032000232323232323232323232323232323239D
:10033000232323232323232323000A2320202020D5
:10034000202053656C6563742053657474696E670F
:10035000204974656D204E756D62657220202020E5
:1003600020202023000A2323232323232323204781
:10037000415445574159204E4554574F524B2053F5
:10038000455454494E47202323232323232323006A
:100390000A23232323232323232323232323232346
:1003A000232323232323232323232323232323231D
:1003B000232323232323232323230A0A000A23207E
:1003C000486F6D657061676520203A2068747470AD
:1003D0003A2F2F7777772E6D326D6B6F7265612EA6
:1003E000636F2E6B722023000A2320436F70797293
:1003F00069676874203A204D324D4B6F7265612CED
:1004000020496E632E2032303131202020202020E0
:100410002023000A232323232323232323232323EB
:10042000232323232323232323232323232323239C
:1004300023232323232323232323232323000A6388
:100440006D64203E3E20000A45786974210A537489
:100450006172742E2E2E204D47572D3330300A00F6
:100460000A636D64203E3E20000A4E6577204D6F82
:1004700064653A202564000A69734F6E53656E7394
:100480006F7253686172696E6728313A204F6E2C23
:1004900020303A206F666629203E3E20000A636DB8
:1004A00064203E3E20000A4E657720506F72743AF9
:1004B000202564000A506F7274203E3E20000A63BB
:1004C0006D64203E3E20000A4E65772044656661DB
:1004D000756C742047573A202533642E2533642EDB
:1004E0002533642E253364000A537562204E45542B
:1004F000204D41534B203E3E20000A636D64203E58
:100500003E20000A4E65772044656661756C742054
:1005100047573A202533642E2533642E2533642E25
:10052000253364000A4E65772044656661756C74F6
:1005300020472F57204950203E3E20000A636D641B
:10054000203E3E20000A4E65772047617465776142
:10055000792049503A202533642E2533642E2533E3
:10056000642E253364000A4E6577204761746577F1
:100570006179204950203E3E20000A636D64203E90
:100580003E20000A4E6577205365727665722049D9
:10059000503A202533642E2533642E2533642E25CE
:1005A0003364000A4E657720536572766572204980
:1005B00050203E3E20006364696E6F7073757858FA
:1005C0005B0011241FBECFEFD0E1DEBFCDBF11E035
:1005D000A0E0B1E0E8E5FCE500E00BBF02C0079059
:1005E0000D92A834B107D9F716E0A8E4B1E001C034
:1005F0001D92A139B107E1F70E94391D0C942A2EF2
:100600000C94000090E002C000009F5F9817E0F398
:10061000089590E007C00F920F900F920F900F92E5
:100620000F909F5F9817B8F308950F931F93082FAB
:1006300010E00DC08AEF0E9409038AEF0E940903AF
:100640008AEF0E9409038AEF0E9409031F5F1017B7
:1006500088F31F910F910895919A909A899A889A98
:1006600087E00E940903919887E00E94090390980F
:100670000895899A909887E00E940903909A84E0EF
:100680000E940903919A899808950F931F93082F48
:10069000919A899A909810E007FF02C0919A01C040
:1006A00091988AE00E940903909A8AE00E940903C7
:1006B000112311F40000000090981F5F183011F012
:1006C000000FEACF919A89988AE00E940903909AD4
:1006D0008AE00E94090390988AE00E9409031F9112
:1006E0000F910895FF920F931F93F82E919A899876
:1006F00085E00E94090310E000E0000F909A8199C4
:1007000001608AE00E94090390988AE00E94090330
:100710001F5F183091F7899AFF2011F4919801C05A
:10072000919A909A8AE00E94090390989198802F5C
:100730001F910F91FF900895BF92CF92DF92EF9299
:10074000FF920F931F93F82ED62EB22E919A909A65
:10075000899A889A4C30B8F0242F30E02C503040E1
:10076000C9016AE070E00E943826182F1062C901A2
:100770006AE070E00E943826F4E0660F771FFA9571
:10078000E1F7162B10C0842F6AE00E942C26282F38
:1007900030E0E4E0220F331FEA95E1F7842F0E9456
:1007A0002C26192F122B0E942C0380ED0E9445034A
:1007B00080E00E9445038F2D6AE00E942C26282F9E
:1007C00030E074E0220F331F7A95E1F78F2D0E94FD
:1007D0002C26892F822B0E9445038D2D6AE00E94D2
:1007E0002C26282F30E054E0220F331F5A95E1F7D2
:1007F0008D2D0E942C26892F822B0E944503812F4C
:100800000E9445038B2D0E944503802F6AE00E94C1
:100810002C26282F30E044E0220F331F4A95E1F7C1
:10082000802F0E942C26892F822B0E9445038E2D1B
:100830006AE00E942C26282F30E094E0220F331F1C
:100840009A95E1F78E2D0E942C26892F822B0E94EB
:1008500045038C2D64E60E942C26892F6AE00E94B5
:100860002C26282F30E084E0220F331F8A95E1F7F1
:100870008C2D0E942C26892F822B0E94450380E11B
:100880000E9445030E9439031F910F91FF90EF9042
:10089000DF90CF90BF900895919A909A899A889A04
:1008A00008950F931F93082F0E942C0380ED0E9440
:1008B0004503802F0E9445030E9439030E942C03A8
:1008C00081ED0E9445038AE00E94090380E00E94B6
:1008D0007203182F0E943903023039F0023038F1C8
:1008E000033079F1073080F522C0812F90E016FDAA
:1008F00019C0412F4F709C012071307015FD445F6D
:10090000C90114E0959587951A95E1F79C01B3E02C
:10091000220F331FBA95E1F7880F991F280F391F4F
:10092000420F13C0412F4F7080739070EACF912F08
:1009300092959F708AE0989F402D11241F70410F5F
:1009400004C0412F4F7001C0412F842F90E01F91B0
:100950000F91089581E092E060E070E04EE050E099
:100960000E94DE2C089581E092E060E070E04EE0AD
:1009700050E00E94FC2C0895809108029091090299
:100980000196909309028093080286E090E00E940D
:10099000510480930A0285E090E00E945104809304
:1009A0000B0284E090E00E94510480930C0282E0EC
:1009B00090E00E94510480930D0281E090E00E943B
:1009C000510480930E0281E092E060E070E04EE01E
:1009D00050E00E94FC2C0895809101029091020247
:1009E0000196909302028093010286E090E00E94BB
:1009F00051048093030285E090E00E9451048093AB
:100A0000040284E090E00E9451048093050282E099
:100A100090E00E9451048093060281E090E00E94E1
:100A200051048093070281E092E060E070E04EE0C4
:100A300050E00E94FC2C08951092020210920102D4
:100A40001092090210920802E3E0F2E0108217828D
:100A5000319682E0E830F807C9F7CF01079760E0E8
:100A600070E04EE050E00E94FC2C08951092890244
:100A70000895AC0130918902E1E1F2E020E00EC07E
:100A80008081918136968417950739F486E0289FF6
:100A9000900111242F5E3D4F05C02F5F231780F377
:100AA00020E030E0C9010895AC0130918902E1E114
:100AB000F2E020E00AC08081918136968417950784
:100AC00019F421E030E005C02F5F2317A0F320E0E8
:100AD00030E0C901089550918902252F30E0F901D5
:100AE000EE0FFF1FE20FF31FEE0FFF1FEF5EFD4F34
:100AF00091838083648345835F5F5093890280E0A4
:100B000090E008950F931F93CF93DF93EC01162F7E
:100B1000042F0E943905FC01009719F01483058306
:100B200020C020918902822F90E0FC01EE0FFF1F70
:100B3000E80FF91FEE0FFF1FEF5EFD4FD183C0835B
:100B4000148305832F5F2093890280EE9EE2019734
:100B5000F1F7CE010E94390520E130E2FC01338338
:100B6000228380E090E0DF91CF911F910F91089553
:100B7000AC0130918902E1E1F2E020E02CC08081FB
:100B8000918136968417950729F5422F232F30E05F
:100B90002150304019C0DC01AA0FBB1FA80FB91F9C
:100BA000AA0FBB1F0196FC01EE0FFF1FE80FF91FF4
:100BB000EE0FFF1FAF5EBD4FEF5EFD4F86E0019071
:100BC0000D928150E1F74F5F842F90E082179307D9
:100BD00014F308952F5F231790F20895109289025D
:100BE0000895BC0190918902E3E1F2E040E083E0E6
:100BF000989F90011124220F331F2E0F3F1F07C013
:100C0000808191818617970709F44F5F3696E21726
:100C1000F307B1F7842F08958091890208951F93F7
:100C2000CF93DF9310E0CCE8D0E02BC01F5F812F83
:100C300090E000D000D000D0ADB7BEB71196EDB7B0
:100C4000FEB7D283C18313969C938E931297FC01B7
:100C5000EE0FFF1FE80FF91FEE0FFF1FEF5EFD4FB6
:100C60008081918115969C938E9314970E94D12731
:100C70001F5F8DB79EB706960FB6F8949EBF0FBE46
:100C80008DBF80918902181788F2DF91CF911F9153
:100C9000089520914801309149012F5F3F4F3093D3
:100CA00049012093480121503040C9010895EF9235
:100CB000FF920F93CF93DF93EC017901809148016C
:100CC00090914901019690934901809348010197C1
:100CD00020E8288321E029839A838B837C836D839A
:100CE0005E834F8340E050E0602F70E00AC0FE0159
:100CF000E80FF11DD701A40FB51F8C9180834F5FC2
:100D00005F4F842F885F461757078CF3802F885FCB
:100D1000DF91CF910F91FF90EF900895EF92FF92A6
:100D20000F93CF93DF93EC0180E8888381E0898380
:100D3000FA82EB827C836D835E834F8340E050E0D8
:100D4000602F70E00AC0FE01E80FF11DD901A40F69
:100D5000B51F8C9180834F5F5F4F842F885F46174C
:100D600057078CF3802F885FDF91CF910F91FF9011
:100D7000EF900895EF92FF920F93CF93DF93EC01E2
:100D80007901809148019091490101969093490120
:100D900080934801019720E8288321E229839A83E0
:100DA0008B837C836D835E834F8340E050E0602FB4
:100DB00070E00AC0FE01E80FF11DD701A40FB51FB6
:100DC0008C9180834F5F5F4F842F885F4617570752
:100DD0008CF3802F885FDF91CF910F91FF90EF9080
:100DE0000895EF92FF920F93CF93DF93EC0180E889
:100DF000888381E28983FA82EB827C836D835E83C0
:100E00004F8340E050E0602F70E00AC0FE01E80F21
:100E1000F11DD901A40FB51F8C9180834F5F5F4FE7
:100E2000842F885F461757078CF3802F885FDF91E8
:100E3000CF910F91FF90EF900895809100019091D4
:100E400001010895EF92FF920F93DF93CF93CDB7F7
:100E5000DEB72A970FB6F894DEBF0FBECDBF9C0158
:100E600081E789833A832B837C836D835E834F8301
:100E70008AE8E82E82E0F82EC701B90144E050E08C
:100E80009E012F5F3F4F07E00E94BA06682FC701FF
:100E900070E00E94BC1D2A960FB6F894DEBF0FBE0C
:100EA000CDBFCF91DF910F91FF90EF900895FF920A
:100EB0000F931F93CF93DF93F901918580E02285F3
:100EC000022F10E0082B192B948580E02585C22F76
:100ED000D0E0C82BD92B2097F9F080916D018823A1
:100EE000D9F0FF2415C08F2D90E0FC01EE0FFF1FFD
:100EF000E80FF91FEE0FFF1FEF5EFD4F808191811C
:100F00000817190721F0B801AE010E942207F394D7
:100F100080918902F81638F3DF91CF911F910F91DC
:100F2000FF9008950F931F93DF93CF93CDB7DEB754
:100F3000EC970FB6F894DEBF0FBECDBF95E0998356
:100F40009FEF9A839B838C83009189020D83E1E15B
:100F5000F2E0DE01169686E0089F900111242E0F24
:100F60003F1F08C0908181818C9311969C931197AB
:100F700036961296E217F307A9F710E0000F111F3B
:100F80000B5F1F4F8AE892E06FEF7FEF44E050E085
:100F90009E012F5F3F4F0E945706682F8AE892E01C
:100FA00070E00E94BC1DEC960FB6F894DEBF0FBE39
:100FB000CDBFCF91DF911F910F910895EF92FF92D6
:100FC0000F93DF93CF93CDB7DEB72A970FB6F89480
:100FD000DEBF0FBECDBF9C0185E189836A834B8351
:100FE0004AE8E42E42E0F42EC701B90144E050E0A3
:100FF0009E012F5F3F4F03E00E945706682FC701F5
:1010000070E00E94BC1D80EE9EE20197F1F72A96E7
:101010000FB6F894DEBF0FBECDBFCF91DF910F9119
:10102000FF90EF900895CF92DF92EF92FF920F938F
:10103000DF93CF93CDB7DEB72A970FB6F894DEBF14
:101040000FBECDBF9C017B0188E089833A832B834F
:101050005AE8C52E52E0D52EC601B90144E050E051
:101060009E012F5F3F4F03E00E948E06682FC6014E
:1010700070E00E94BC1D2A960FB6F894DEBF0FBE2A
:10108000CDBFCF91DF910F91FF90EF90DF90CF9088
:1010900008959C01CB01B9010E9413088FEF9FEFC7
:1010A000909301018093000108950F93DF93CF93F4
:1010B000CDB7DEB72A970FB6F894DEBF0FBECDBF0F
:1010C000BC0180910001909101018F5F9F4F51F40D
:1010D0008FEF6F3F780741F48FEF9FEF60E070E094
:1010E0000E9413088FEF19C080E29EE40197F1F788
:1010F00086E089837A836B838AE892E044E050E05B
:101100009E012F5F3F4F03E00E945706682F8AE839
:1011100092E070E00E94BC1D80E02A960FB6F89421
:10112000DEBF0FBECDBFCF91DF910F910895CF925B
:10113000DF92EF92FF920F93DF93CF93CDB7DEB79D
:101140002A970FB6F894DEBF0FBECDBF7C0182E1B7
:1011500089835A834B833C832D83EAE8CE2EE2E0D9
:10116000DE2EC60144E050E09E012F5F3F4F05E0B8
:101170000E948E06682FC60170E00E94BC1D80EEA2
:101180009EE20197F1F72A960FB6F894DEBF0FBEE4
:10119000CDBFCF91DF910F91FF90EF90DF90CF9077
:1011A0000895CF92DF92EF92FF920F93DF93CF9348
:1011B000CDB7DEB72A970FB6F894DEBF0FBECDBF0E
:1011C0007C0182E089834A833B832C83FAE8CF2E1B
:1011D000F2E0DF2EC60144E050E09E012F5F3F4F5A
:1011E00004E00E948E06682FC60170E00E94BC1DBC
:1011F00080EE9EE20197F1F72A960FB6F894DEBFD3
:101200000FBECDBFCF91DF910F91FF90EF90DF9098
:10121000CF900895EF92FF920F931F93D9011996E3
:101220009C91199780E01A960C911A9710E01B96E2
:101230007C911B9760E01C962C911C9730E0622BF0
:10124000732B1D965C911D9740E01E962C911E9766
:1012500030E0422B532B5196FC915197E0E052968F
:101260002C91529730E0E22BF32B802B912B1F9681
:101270002C911F9750960C917F010E94410C1F9159
:101280000F91FF90EF900895FF920F931F93CF93CC
:10129000DF938C01EB01F901F284CB010E9454052C
:1012A000892B39F0C801BE014F2D2CE330E00E949C
:1012B000D108DF91CF911F910F91FF9008957F92F8
:1012C0008F929F92AF92BF92CF92DF92EF92FF9256
:1012D0000F931F934C016B01890181E090E00E9404
:1012E0005104782E82E090E00E945104A82EF8016B
:1012F000918580E0E284FF24E82AF92AB3840485FA
:10130000C6016B2D402F0E948205C6016A2D472D14
:101310000E94DE07C601B701A6012B2D76010E94AF
:10132000410CC401B60140E050E02EE130E00E94E3
:1013300097081F910F91FF90EF90DF90CF90BF9093
:10134000AF909F908F907F9008950F931F93FC0113
:10135000D90118968C9118978730B1F0883018F41D
:101360008130E1F409C0813119F08331B9F408C04A
:10137000CF010E945F0912C0CF010E9444090EC034
:10138000CF010E940A090AC0CB01BF010E941308C5
:101390008FEF9FEF90930101809300011F910F91B8
:1013A0000895EF92FF920F931F93CF93DF93FC0169
:1013B000E90178018885803739F480916D018823AF
:1013C00019F0CF010E9457071E8284E08F83CE015F
:1013D000B7010E94941DDF91CF911F910F91FF9053
:1013E000EF90089580916A01089580913C01909159
:1013F0003D01089580916B010895EF92FF920F9344
:10140000DF93CF93CDB7DEB7A8970FB6F894DEBFC2
:101410000FBECDBF7C0181E9898386E090E00E9408
:1014200051048A8385E090E00E9451048B8384E01C
:1014300090E00E9451048C8382E090E00E9451046D
:101440008D8381E090E00E9451048E8380E090E0E3
:101450000E9451048F83909101028091020288873B
:10146000998729E030E0AE014F5F5F4FFA01E20F4C
:10147000F31FD901A650BE4F8C9180832F5F3F4F41
:101480002E30310599F790910802809109028F87DB
:10149000988B40E150E09E012F5F3F4FF901E40F30
:1014A000F51FDA01A650BE4F8C9180834F5F5F4FCE
:1014B0004531510599F78AE892E060E070E044E038
:1014C00050E005E10E94F106682F8AE892E070E0A2
:1014D0000E94941D80EE9EE20197F1F7A8960FB648
:1014E000F894DEBF0FBECDBFCF91DF910F91FF907B
:1014F000EF9008950E94FD090895CF92DF92EF9238
:10150000FF920F93DF93CF93CDB7DEB72A970FB635
:10151000F894DEBF0FBECDBF7C0187E389836A8369
:101520008AE8C82E82E0D82EC60160E070E044E070
:1015300050E09E012F5F3F4F02E00E94F106682FAE
:10154000C60170E00E94941D80EE9EE20197F1F7C3
:101550002A960FB6F894DEBF0FBECDBFCF91DF91B4
:101560000F91FF90EF90DF90CF900895EF92FF9250
:101570000F93DF93CF93CDB7DEB7A8970FB6F8944C
:10158000DEBF0FBECDBF7C0185E289831A821B823C
:101590001C821D8280E28E831F8247E050E09E0104
:1015A0002F5F3F4FF901E40FF51FDA01A55EBE4F33
:1015B0008C9180834F5F5F4F4B30510599F79E01AF
:1015C0002F5F3F4FF901E40FF51FDA01AD5EBE4F0B
:1015D0008C9180834F5F5F4F4F30510599F79E018B
:1015E0002F5F3F4FF901E40FF51FDA01A35EBE4FF5
:1015F0008C9180834F5F5F4F4331510599F79E0176
:101600002F5F3F4FF901E40FF51FDA01A35EBE4FD4
:101610008C9180834F5F5F4F4731510599F79091CF
:101620003F0180914001888F998F80916D018A8F51
:101630008AE892E060E070E044E050E00AE10E9455
:10164000F106682F8AE892E070E00E94941D80EE17
:101650009EE20197F1F7A8960FB6F894DEBF0FBE91
:10166000CDBFCF91DF910F91FF90EF900895CF9272
:10167000DF92EF92FF920F93DF93CF93CDB7DEB758
:101680002A970FB6F894DEBF0FBECDBF7C019091B4
:10169000890281E289831A821B829C839AE8C92E7F
:1016A00092E0D92EC60160E070E044E050E09E0177
:1016B0002F5F3F4F04E00E94F106682FC60170E0E3
:1016C0000E94941D80EE9EE20197F1F72A960FB6D4
:1016D000F894DEBF0FBECDBFCF91DF910F91FF9089
:1016E000EF90DF90CF900895EF92FF920F93DF93EA
:1016F000CF93CDB7DEB764970FB6F894DEBF0FBEB9
:10170000CDBF7C01809189026817A8F5862F90E0F3
:10171000FC01EE0FFF1FE80FF91FEE0FFF1FDF01A7
:10172000AF5EBD4F5C9111963C911197ED5EFD4F00
:101730004081918114962C9183E289831A821B82C5
:101740003C835D839E834F8328878AE892E060E034
:1017500070E044E050E09E012F5F3F4F08E00E94A0
:10176000F106682F8AE892E070E00E94941D80EEF6
:101770009EE20197F1F764960FB6F894DEBF0FBEB4
:10178000CDBFCF91DF910F91FF90EF900895CF9251
:10179000DF92EF92FF920F93DF93CF93CDB7DEB737
:1017A0002A970FB6F894DEBF0FBECDBF7C0185E34C
:1017B00089836A835AE8C52E52E0D52EC60160E0BF
:1017C00070E044E050E09E012F5F3F4F02E00E9436
:1017D000F106682FC60170E00E94941D80EE9EE223
:1017E0000197F1F72A960FB6F894DEBF0FBECDBF72
:1017F000CF91DF910F91FF90EF90DF90CF90089500
:10180000F901218520936D0160E00E94C70B0895C6
:10181000EF92FF920F93DF93CF93CDB7DEB764972C
:101820000FB6F894DEBF0FBECDBF81E1898380E2A1
:101830008A831B8286E08C838D836AE8E62E62E0D1
:10184000F62EC70160E070E044E050E09E012F5F9B
:101850003F4F05E00E945706682FC70170E00E94C5
:10186000941D80EE9EE20197F1F764960FB6F8940E
:10187000DEBF0FBECDBFCF91DF910F91FF90EF90F4
:101880000895EF920F93DF93CF93CDB7DEB76497B0
:101890000FB6F894DEBF0FBECDBF322F23E12983F0
:1018A0009A838B837C836D836051704221F43E83E5
:1018B0000F8307E007C05E834F8338870987EA8676
:1018C000EB860BE08AE892E060E070E044E050E0F4
:1018D0009E012F5F3F4F0E945706682F8AE892E0D3
:1018E00070E00E94941D80EE9EE20197F1F76496ED
:1018F0000FB6F894DEBF0FBECDBFCF91DF910F9131
:10190000EF900895EF92FF920F93DF93CF93CDB7AF
:10191000DEB764970FB6F894DEBF0FBECDBF81E08F
:1019200089831A821B827AE8E72E72E0F72EC701BC
:1019300060E070E044E050E09E012F5F3F4F03E025
:101940000E945706682FC70170E00E94941D80EE28
:101950009EE20197F1F764960FB6F894DEBF0FBED2
:10196000CDBFCF91DF910F91FF90EF9008950E942E
:101970001C0508950F931F93F901438554859185A4
:1019800080E0228530E0822B932B892B49F4942F21
:1019900080E0252F30E0822B932B892B09F4FFCF99
:1019A000CF01B8010E94BC1D1F910F9108950F93A4
:1019B0001F93AC01F9016385918580E0228530E0B9
:1019C000822B932B892B21F4CA010E94740B04C033
:1019D000CF01B8010E94BC1D1F910F9108950F9374
:1019E0001F93AC01F901918580E0228530E0822BC4
:1019F000932B892B21F4CA010E94370B04C0CF011D
:101A0000B8010E94BC1D1F910F9108950F931F9361
:101A1000AC01F90163857485918580E0228530E011
:101A2000822B932B892B61F4962F80E0272F30E0B7
:101A3000822B932B892B21F4CA010E94B60A04C081
:101A4000CF01B8010E94BC1D1F910F9108956F92A4
:101A50007F929F92AF92BF92CF92DF92EF92FF92CE
:101A60000F931F933C01F901C184B284A384948431
:101A7000658586859785408951897289A389B4894E
:101A800015890689F788E08CD18C228DE38D6093CF
:101A90001E0180931F019093200140932101C09269
:101AA0002201B0922301A09224019092250150932B
:101AB0002C0170932D01A0932E01B0932F01109350
:101AC000300100933101F0923201E09233019D2DFB
:101AD00080E030E0822B932B9093400180933F0174
:101AE000E0936D0184E190E00E94062D85E190E095
:101AF00060911F010E94062D86E190E06091200117
:101B00000E94062D87E190E0609121010E94062D40
:101B10008EE190E0609122010E94062D8FE190E01D
:101B2000609123010E94062D80E290E060912401E3
:101B30000E94062D81E290E0609125010E94062D11
:101B400088E290E060912C010E94062D89E290E0ED
:101B500060912D010E94062D8AE290E060912E0195
:101B60000E94062D8BE290E060912F010E94062DCD
:101B700082E390E0609130010E94062D83E390E0C3
:101B8000609131010E94062D84E390E06091320162
:101B90000E94062D85E390E0609133010E94062D9E
:101BA00060913F01709140018CE390E00E94132D01
:101BB00086E490E060916D010E94062DC30160E013
:101BC0000E947D0A1F910F91FF90EF90DF90CF90C0
:101BD000BF90AF909F907F906F9008950F931F9349
:101BE000FC01D90118968C911897843309F185333B
:101BF00038F48232C9F0843279F0803289F510C02D
:101C00008A3319F18B3318F4863351F51AC08039B1
:101C100001F1823929F521C0CF010E94060D24C0AF
:101C2000CF010E94EF0C20C0CF010E94D70C1CC036
:101C300019968C9180936D01CF0160E00E94C70BD3
:101C400013C0CF010E94270D0FC0CF010E94BA0C14
:101C50000BC0CF010E94FD0907C00E941C0504C0F3
:101C6000CD01B8010E94BC1D1F910F910895CF9224
:101C7000EF92FF920F931F93F901F48880EFF80E13
:101C80008389AAE08A9FC0011124F80E1689105199
:101C900085898A9FC0011124180F808D8051678922
:101CA0006A9FB00111242289205301890051408983
:101CB0004A9FA0011124040F3785305146854A9F61
:101CC000A0011124340F9585905144854A9FA001AD
:101CD0001124940F860F612F4F2DE32EC92E0E94E1
:101CE0009C0300E012C0802F90E0FC01EE0FFF1F6C
:101CF000E80FF91FEE0FFF1FEF5EFD4F808191810E
:101D00006F2D412F0E94DE070F5F80918902081717
:101D100050F31F910F91FF90EF90CF900895DF92B5
:101D2000EF92FF920F931F93CF93DF93EC01F90192
:101D300041850285D684938580E0248530E0822B1E
:101D4000932B80519042E1F4942F80E010E0082B17
:101D5000192B81E090E00E945104E82E82E090E08F
:101D60000E945104F82ECE01B8014D2D50E020E321
:101D700030E00E949708C8016F2D4E2D0E94DE07AB
:101D8000DF91CF911F910F91FF90EF90DF90089519
:101D90000F931F93CF93DF93F9014285938580E0E2
:101DA000248530E0282B392B10926B012115310549
:101DB00011F42FEF3FEF30933D0120933C01413070
:101DC000D1F40E94080C01E112E0C0E0D0E00DC0A7
:101DD000F8016081718180E090E041E02CE330E027
:101DE0000E94D10821960A5F1F4F8091890290E0DE
:101DF000C817D90768F3DF91CF911F910F9108950C
:101E00001F93F901918580E0228530E0822B932B8E
:101E1000892B41F580916A01813011F00E94BC0448
:101E200081E080936A010E94820C10E016C0812F2D
:101E300090E0FC01EE0FFF1FE80FF91FEE0FFF1FF0
:101E4000EF5EFD4F6081718180E090E041E050E005
:101E50002CE330E00E9497081F5F809189021817D9
:101E600030F31EC00E94080C10E016C0812F90E0D5
:101E7000FC01EE0FFF1FE80FF91FEE0FFF1FEF5ED3
:101E8000FD4F6081718180E090E041E050E02CE303
:101E900030E00E9497081F5F80918902181730F385
:101EA0001F9108950F931F93F9012085223151F05E
:101EB000233118F42230A9F409C0243159F0253116
:101EC00081F40CC09F010E94000F0BC09F010E9473
:101ED000C80E07C09F010E948F0E03C09F010E9481
:101EE000370E1F910F910895382F20914A01E091EC
:101EF0000F02F091100290E007C0808132968317A4
:101F000011F481E008959F5F9217B8F380E008957F
:101F1000382F20914A01E0910F02F091100290E0D9
:101F200007C081813296831711F481E008959F5F85
:101F30009217B8F380E0089580914A010895AF9216
:101F4000BF92CF92DF92EF92FF920F931F93CF93A6
:101F5000DF93C0910F02D0911002FF243BEBA32E20
:101F600030E0B32E2AE0E22E96E9C92E90E0D92E79
:101F700056C00F2D10E0000F111F0C0F1D1FD801B0
:101F80002C9111963C91EDB7FEB73A970FB6F894A5
:101F9000FEBF0FBEEDBF3196ADB7BEB71296BC9275
:101FA000AE921197822F66E00E942C2682831382C4
:101FB000822F0E942C269E9DC0011124958384832C
:101FC000832F0E942C2686831782832F0E942C2623
:101FD0009E9DC0011124918780870E94D1270F9078
:101FE0000F900F900F90EDB7FEB73196ADB7BEB71B
:101FF0001296DC92CE921197D8018C918283138233
:1020000011968C91848315820E94D127F394EDB7A9
:10201000FEB736960FB6F894FEBF0FBEEDBF8091A7
:102020004A01F81608F4A5CFDF91CF911F910F91C7
:10203000FF90EF90DF90CF90BF90AF900895FF9208
:102040000F931F93182F062FF72E90E0880F991FDC
:102050000E945F26AC019093100280930F02892B9F
:10206000B1F0202F3F2DC901DC01FA0190E009C039
:102070008C91808311968C91119781839F5F12962A
:1020800032969117A8F310934A010E949F0F80E0A7
:1020900090E01F910F91FF9008958A30910578F498
:1020A000FC01EE0FFF1FEE0FFF1FE80FF91FE253B9
:1020B000FD4F418352836383748381E0808380E09A
:1020C00090E008958A309105B0F4FC01EE0FFF1FF7
:1020D000EE0FFF1FE80FF91FE253FD4F80818823A9
:1020E00051F020E030E081819281A381B48100979A
:1020F000A105B10511F021E030E0C90108958A3051
:10210000910550F4FC01EE0FFF1FEE0FFF1FE80FCB
:10211000F91FE253FD4F108280E090E00895F8949B
:10212000EEECF2E010821182128213821482359654
:1021300083E0E030F807B1F71DBC1CBC80E48FBD24
:102140008CE08EBD10927A001BBC8EE38ABD87B7EF
:10215000806187BF789408951F920F920FB60F92F7
:102160000BB60F9211248F939F93AF93BF93EF936E
:10217000FF938091CA029091CB02A091CC02B091C2
:10218000CD020196A11DB11D8093CA029093CB028E
:10219000A093CC02B093CD02EFECF2E0808191816C
:1021A000A281B3810097A105B10539F00197A1097A
:1021B000B10980839183A283B383359683E0E130B4
:1021C000F80761F7FF91EF91BF91AF919F918F91C8
:1021D0000F900BBE0F900FBE0F901F9018951F937E
:1021E000182F8A3019F48DE00E94EF105D9BFECF0E
:1021F0001CB980E090E01F9108951F93BC015F9B84
:10220000FECF1CB1812F0E94EF10812F90E01F9113
:1022100008951AB81BB896E09093950088E089B9A4
:102220001092900088E18AB982E080939B0088ED4B
:1022300080939A0090939D001092980080E1809383
:10224000990082E091E090938C0680938B069093A6
:102250008E0680938D0608951F920F920FB60F92EF
:102260000BB60F9211242F938F939F93EF93FF93AD
:102270005F9BFECF2CB180914C0190E0FC01E05CB3
:10228000FC4F208301968F73907080934C01809156
:102290004D018F5F80934D01FF91EF919F918F9141
:1022A0002F910F900BBE0F900FBE0F901F9018959F
:1022B0001F920F920FB60F920BB60F9211242F930D
:1022C0003F938F939F93EF93FF933091500133236C
:1022D00081F080914E0190E0FC01E058FC4F20819C
:1022E0002CB901968F73907080934E0131503093CA
:1022F00050015598FF91EF919F918F913F912F91B0
:102300000F900BBE0F900FBE0F901F9018951F924D
:102310000F920FB60F920BB60F9211242F933F938B
:102320008F939F93EF93FF9330915001332381F06C
:1023300080914E0190E0FC01E058FC4F20812CB9C7
:1023400001968F73907080934E01315030935001FD
:10235000FF91EF919F918F913F912F910F900BBE25
:102360000F900FBE0F901F901895DC01F89480918C
:102370004D018823C1F0E0914B01F0E0E05CFC4F9F
:1023800080818C9380914B0190E001968F739070C7
:1023900080934B0180914D01815080934D01789441
:1023A00021E030E003C0789420E030E0C9010895D6
:1023B000382FF894559A20915001203498F4809148
:1023C0004F0190E0FC01E058FC4F308301968F7381
:1023D000907080934F012F5F20935001789421E0FB
:1023E00030E003C0789420E030E0C90108951F92E6
:1023F0000F920FB60F920BB60F9211242F938F935B
:102400009F93EF93FF9380919B0087FFFCCF2091D8
:102410009C008091520190E0FC01E054FC4F20832D
:1024200001968F73907080935201809153018F5F5A
:1024300080935301FF91EF919F918F912F910F9076
:102440000BBE0F900FBE0F901F9018951F920F920A
:102450000FB60F920BB60F9211242F933F938F93C9
:102460009F93EF93FF9330915601332389F080912E
:10247000540190E0FC01E050FD4F208120939C002E
:1024800001968F73907080935401315030935601B0
:1024900080919A008F7D80939A00FF91EF919F9198
:1024A0008F913F912F910F900BBE0F900FBE0F9009
:1024B0001F9018951F920F920FB60F920BB60F92A6
:1024C00011242F933F938F939F93EF93FF9330911A
:1024D0005601332389F08091540190E0FC01E050D3
:1024E000FD4F208120939C0001968F739070809304
:1024F0005401315030935601FF91EF919F918F918C
:102500003F912F910F900BBE0F900FBE0F901F9019
:102510001895DC01F894809153018823C1F0E09173
:102520005101F0E0E054FC4F80818C938091510187
:1025300090E001968F7390708093510180915301C8
:10254000815080935301789421E030E003C0789467
:1025500020E030E0C9010895382FF89480919A0066
:10256000806280939A0020915601203498F48091E3
:10257000550190E0FC01E050FD4F308301968F73D0
:102580009070809355012F5F20935601789421E03D
:1025900030E003C0789420E030E0C90108959093C2
:1025A0005C0180935B017093600160935F0180E048
:1025B00090E00895CF92DF92EF92FF920F931F93D6
:1025C000DF93CF93CDB7DEB7C054D0400FB6F894A9
:1025D000DEBF0FBECDBFAC0180915F019091600165
:1025E000892B19F42FEF3FEF50C08AEF89836A835C
:1025F00020E030E002E010E07E010894E11CF11CD4
:102600000CC0F701E00FF11FDA01A20FB31F8C918C
:1026100080830F5F1F4F2F5F3F4F261737078CF3C5
:1026200022E030E040E050E0DE01119608C0FD01FC
:10263000E20FF31F8081480F511D2F5F3F4F20177E
:102640003107ACF3FD01E00FF11F408378010894DE
:10265000E11CF11CAE0DBF1D8FEA8C9300E010E071
:102660006E010894C11CD11CF601E00FF11F2091EE
:102670005F01309160018081F90109950F5F1F4F63
:10268000E016F1068CF720E030E0C901C05CDF4FB6
:102690000FB6F894DEBF0FBECDBFCF91DF911F9173
:1026A0000F91FF90EF90DF90CF9008950F931F93BD
:1026B000DF93CF930F92CDB7DEB78C01E0915B0132
:1026C000F0915C01309719F42FEF3FEFB2C0CE01CB
:1026D00001960995181619060CF0A9C0209157010A
:1026E000309158012034310524F010925E0110928F
:1026F0005D0180915D0190915E018230910509F448
:1027000045C08330910534F40097A9F0019709F092
:102710008AC026C08330910521F0049709F083C058
:1027200067C04091590150915A014F5F5F4F22E0BD
:1027300030E090E050C0109258011092570129816A
:102740002A3F09F074C081E090E090935E0180938D
:102750005D0120930004909358018093570167C056
:102760008981F901E050FC4F80832F5F3F4F309308
:1027700058012093570122E030E030935E0120930E
:102780005D018093590110925A0151C0F901E05046
:10279000FC4F898180832F5F3F4F309358012093F6
:1027A00057018091590190915A0101968217930720
:1027B00034F483E090E090935E0180935D0180911A
:1027C0000204803881F533C0F901E050FC4F80816C
:1027D000980F2F5F3F4F42175307B4F7898189172E
:1027E00011F584E090E090935E0180935D011FC03D
:1027F00089818F3AC1F410925E0110925D01A2E0CE
:10280000B4E040E050E007C0F801E40FF51F8D91FF
:1028100080834F5F5F4F2091590130915A014217D9
:10282000530794F306C010925E0110925D0120E000
:1028300030E0C9010F90CF91DF911F910F91089562
:102840006F927F928F929F92AF92BF92CF92DF92C0
:10285000EF92FF920F931F93CF93DF937B01EC01D5
:1028600000E010E033E0A32EB12C25E0622E712CA5
:1028700094E0892E912C81E0C82ED12CB7C0809194
:102880006501909166018230910509F43DC0833065
:10289000910534F4009781F0019709F0A0C020C0A1
:1028A0008430910509F46BC0843091050CF44BC061
:1028B000059709F094C076C088818A3F09F093C0DB
:1028C0001092620110926101888180934004D0923D
:1028D0006201C0926101D0926601C092650183C01D
:1028E0008091610190916201FC01E05CFB4F2881C5
:1028F0002083019690936201809361018881809387
:102900006301109264011AC080916101909162018B
:10291000FC01E05CFB4F28812083019690936201CB
:1029200080936101888190E020916301309164017E
:10293000822B932B9093640180936301B092660184
:10294000A092650150C02091610130916201F901AE
:10295000E05CFB4F888180832F5F3F4F30936201A3
:102960002093610180916301909164010196821727
:102970009307CCF5909266018092650134C08091F6
:10298000610190916201FC01E05CFB4F2881208392
:10299000019690936201809361017092660160924A
:1029A000650121C028812F3AF1F41092660110923E
:1029B00065018091610190916201FC01E05CFB4F37
:1029C000208301969093620180936101609163017D
:1029D0007091640182E494E00E94D91D04C01092B9
:1029E0006601109265010F5F1F4F21960E151F059E
:1029F0000CF445CF80E090E0DF91CF911F910F91D3
:102A0000FF90EF90DF90CF90BF90AF909F908F900E
:102A10007F906F900895EF92FF920F931F93DF9333
:102A2000CF93CDB7DEB7C058D0400FB6F894DEBF15
:102A30000FBECDBF8C018AEF89836A8320E030E02E
:102A400042E050E07E010894E11CF11C0CC0F7014B
:102A5000E40FF51FD801A20FB31F8C9180834F5F45
:102A60005F4F2F5F3F4F261737078CF3A0E0B0E092
:102A700022E030E0BE016F5F7F4F08C0FB01E20F34
:102A8000F31F8081A80FB11D2F5F3F4F241735071B
:102A9000ACF3FB01E40FF51FA0834F5F5F4FFB0119
:102AA000E40FF51F8FEA80834F5F5F4F80E00E9445
:102AB000A52180E090E0C058DF4F0FB6F894DEBF4C
:102AC0000FBECDBFCF91DF911F910F91FF90EF907F
:102AD000089500D080E191E0EDB7FEB79283818345
:102AE0000E94BF270F900F900E94682286E291E01B
:102AF0000E94C1238CE291E00E94972380E391E041
:102B00000E94B32382E291E00E94D5238FEF6FEF02
:102B10000E946C2208958091680190916901089546
:102B2000809368019093690108958FEF8093650009
:102B30008093640012BA80E381BB80E883B982EF9E
:102B400082B910926A001ABE19BE18BE80EC85BF09
:102B500082E480936D000895982F8A3018F4282F0E
:102B600030E02EC080518A3028F4292F30E02650E2
:102B7000304026C0892F80528A3028F4292F30E037
:102B80002C5030401DC0892F80538A3028F4292FC3
:102B900030E02251304014C0892F80548A3028F40C
:102BA000292F30E0285130400BC0892F80558A30C2
:102BB00018F020E030E004C0292F30E02E513040E2
:102BC000C901089584B7877F84BF2FE088E190E032
:102BD0000FB6F894A89581BD0FBE21BD08950F933F
:102BE0001F938DB79EB70A970FB6F8949EBF0FBE7E
:102BF0008DBFEDB7FEB7319685ED91E0ADB7BEB7AD
:102C000012969C938E93119780911E01828313825A
:102C100080911F0184831582809120018683178211
:102C200080912101808711860E94D12700EA1FE050
:102C3000C8010197F1F7EDB7FEB731968BEA91E045
:102C4000ADB7BEB712969C938E93119780912201D7
:102C500082831382809123018483158280912401D1
:102C60008683178280912501808711860E94D12753
:102C7000C8010197F1F7EDB7FEB7319681E891E011
:102C8000ADB7BEB712969C938E93119780912C018D
:102C90008283138280912D018483158280912E017D
:102CA0008683178280912F01808711860E94D12709
:102CB000C8010197F1F7EDB7FEB7319687E591E0CE
:102CC000ADB7BEB712969C938E9311978091300149
:102CD0008283138280913101848315828091320135
:102CE0008683178280913301808711860E94D127C5
:102CF000C8010197F1F7EDB7FEB736960FB6F89415
:102D0000FEBF0FBEEDBF80E391E09283818380918F
:102D10003F0190914001948383830E94D127C80191
:102D20000197F1F7EDB7FEB7319685E091E0ADB7C9
:102D3000BEB712969C938E93119780916D018283FA
:102D400013820E94D1270F900F900F900F901F9128
:102D50000F9108950F931F9300D083E194E0ADB7D6
:102D6000BEB712969C938E9311970E94D12700EACA
:102D70001FE0C8010197F1F788EE93E0EDB7FEB7C9
:102D8000928381830E94D127C8010197F1F78DEBCF
:102D900093E0ADB7BEB712969C938E9311970E94A5
:102DA000D127C8010197F1F780E993E0EDB7FEB7AD
:102DB000928381830E94D127C8010197F1F785E6AC
:102DC00093E0ADB7BEB712969C938E9311970E9475
:102DD000D127C8010197F1F78AE393E0EDB7FEB779
:102DE000928381830E94D127C8010197F1F78FE078
:102DF00093E0ADB7BEB712969C938E9311970E9445
:102E0000D127C8010197F1F7EDB7FEB738970FB694
:102E1000F894FEBF0FBEEDBF319687EE92E0ADB7DE
:102E2000BEB712969C938E93119780911E01828358
:102E3000138280911F0184831582809120018683F3
:102E4000178280912101808711860E94D127C801B5
:102E50000197F1F7EDB7FEB731968FEB92E0ADB782
:102E6000BEB712969C938E93119780912201828314
:102E700013828091230184831582809124018683AB
:102E8000178280912501808711860E94D127C80171
:102E90000197F1F7EDB7FEB7319687E992E0ADB74C
:102EA000BEB712969C938E93119780912C018283CA
:102EB000138280912D018483158280912E01868357
:102EC000178280912F01808711860E94D127C80127
:102ED0000197F1F7EDB7FEB731968FE692E0ADB707
:102EE000BEB712969C938E93119780913001828386
:102EF000138280913101848315828091320186830F
:102F0000178280913301808711860E94D127C801E2
:102F10000197F1F7EDB7FEB736960FB6F894FEBFFE
:102F20000FBEEDBF84E592E09283818380913F01E3
:102F300090914001948383830E94D127C801019717
:102F4000F1F7EDB7FEB7319689E392E0ADB7BEB7C2
:102F500012969C938E93119780916D0182831382B8
:102F60000E94D127C8010197F1F70F900F908AE2D4
:102F700092E0EDB7FEB7928381830E94D127C8010A
:102F80000197F1F78FEF91E0ADB7BEB712969C9322
:102F90008E9311970E94D1270F900F901F910F9140
:102FA00008958F929F92AF92BF92CF92DF92EF924D
:102FB000FF920F931F93DF93CF93CDB7DEB7609748
:102FC0000FB6F894DEBF0FBECDBF00E010E04E019B
:102FD0000894811C911C25E0A22EB12CAC0EBD1EC4
:102FE00099E0C92ED12CCC0EDD1E8DE0E82EF12CFF
:102FF000EC0EFD1EC80144960E94EE2CF401E00F79
:10300000F11F8083C8014E960E94EE2CF501E00F5F
:10301000F11F8083C80188960E94EE2CF601E00F14
:10302000F11F8083C801C2960E94EE2CF701E00FC9
:10303000F11F80830F5F1F4F04301105D9F68CE319
:1030400090E00E94F62C6C0186E490E00E94EE2C49
:1030500080936D01823010F010926D0190E020E0BD
:1030600030E08E010F5F1F4FDE011596BE01675FD6
:103070007F4FAE01435F5F4FF801E20FF31F808186
:103080008F3F09F091E0FD01E20FF31F80818F3F38
:1030900009F091E0FB01E20FF31F80818F3F09F0FF
:1030A00091E0FA01E20FF31F80818F3F09F091E078
:1030B0002F5F3F4F24303105F9F69923C1F120E00D
:1030C00030E07E010894E11CF11C8E010B5F1F4F64
:1030D000BE01675F7F4FAE01435F5F4FD901A25EC4
:1030E000BE4FF701E20FF31F80818C93D901AE5DD3
:1030F000BE4FF801E20FF31F80818C93D901A45DCC
:10310000BE4FFB01E20FF31F80818C93D901A05DBC
:10311000BE4FFA01E20FF31F80818C932F5F3F4F68
:1031200024303105D9F6D0924001C0923F0160961B
:103130000FB6F894DEBF0FBECDBFCF91DF911F91C8
:103140000F91FF90EF90DF90CF90BF90AF909F9046
:103150008F9008951F93CF93DF93EB0164E371E0A9
:103160000E94822710E00DC00E946427FE01E10F3B
:10317000F11D80831F5F80E090E064E371E00E94B6
:103180008227009789F7DF91CF911F910895EF92E1
:10319000FF920F931F9380E00E94DB2480936F01C6
:1031A0000E94F209813061F510926C0181E090E09B
:1031B0000E946210892B21F50E94820C80916B0184
:1031C0008F5F80936B01843030F010926A0110920F
:1031D0006B010E94080C81E090E00E947F100E9429
:1031E000F50928EE33E0829FA001839F500D929F46
:1031F000500D112460E070E081E090E00E944D10DD
:1032000080916F01873139F08C3109F44AC08823ED
:1032100009F44FC082C080917001813051F40E9446
:10322000F209882309F079C00E94080C10927001FD
:1032300074C080913E01813019F482E080933E0198
:1032400080E00E94052590934505809344050097F2
:1032500009F463C08038910530F080E890E09093E5
:1032600045058093440537E4E32E35E0F32E409185
:1032700044055091450580E0B7010E94812104EC8E
:1032800014E04091440550914505C801B7010E94E2
:1032900087276091440570914505C8010E9420145C
:1032A0003CC080E00E94401F10923E0110926A01D3
:1032B00034C080913E01882319F481E080933E015F
:1032C00010926A0183E090E00E946210892B29F538
:1032D00040913F015091400180E061E020E00E9478
:1032E0004A20882319F410923E010BC040913F01FF
:1032F0005091400180E06EE171E00E94531F809385
:10330000700183E090E00E947F1083E090E048E845
:1033100053E160E070E00E944D101F910F91FF900B
:10332000EF90089584E090E00E946210892B09F0EC
:1033300046C08091710190917201893791053CF4EA
:10334000CD9744F10E941D078F5F9F4F19F5809123
:1033500089028823D9F08091730190E0FC01EE0F7F
:10336000FF1FE80FF91FEE0FFF1FEF5EFD4F80817B
:1033700091810E945508892B49F4809173016091D5
:1033800089028F5F0E942C26909373011092720124
:103390001092710180917101909172010196909348
:1033A00072018093710184E090E00E947F1084E0BC
:1033B00090E041E050E060E070E00E944D10089520
:1033C00087EC95E060E470E00E945613BC01909396
:1033D0007501809374011816190624F487EC95E0A2
:1033E0000E94411E08951F93809177018B30F0F069
:1033F00080916E018823D1F40E94691581E090E0EC
:10340000909369018093680181E080936E0110922E
:10341000770184B7877F84BF2FE088E190E00FB603
:10342000F894A89581BD0FBE21BD08C080916701A9
:10343000873321F4109277011092670185E090E0C4
:103440000E946210892B21F590917801913039F416
:1034500080916C01863008F4A895949A01C09498E4
:1034600010927801992319F481E08093780180917A
:1034700077018F5F8093770185E090E00E947F1055
:1034800085E090E044EF51E060E070E00E944D1074
:1034900088E090E00E946210892B09F053C081E01F
:1034A00090E00E9451049093C1048093C00482E094
:1034B00090E00E9451049093C3048093C20410E0F2
:1034C00018C0812F90E0FC01EE0FFF1FE80FF91FDD
:1034D000EE0FFF1FEF5EFD4F6091C2047091C304B9
:1034E0004091C0045091C104808191810E94DE0707
:1034F0001F5F80918902181720F388E090E00E94F6
:103500007F1080918902882339F488E090E040E2BE
:103510005EE460E070E006C088E090E040E65AEECD
:1035200060E070E00E944D108091760190E00E9472
:103530009207809176018F5F80937601863010F03C
:10354000109276011F9108950F931F9380916E0141
:10355000882309F08BC25F9B89C28CB1809367017D
:10356000882309F483C2843309F45DC1853350F4A0
:10357000823309F47EC0833308F0E8C0813309F058
:103580006AC20AC0863309F4FCC1863308F4B8C1A4
:10359000873309F060C238C200D083EA95E0ADB746
:1035A000BEB712969C938E9311970E94D12700D09C
:1035B00086E391E0EDB7FEB79283818305EB11E0DE
:1035C000148303830E94F4270F900F900F900F90A5
:1035D000C8016EE171E00E94AA1887E38093670139
:1035E0008DB79EB70A970FB6F8949EBF0FBE8DBFDA
:1035F000EDB7FEB7319683E895E0ADB7BEB712964A
:103600009C938E93119780911E01828313828091E7
:103610001F01848315828091200186831782809107
:103620002101808711860E94D127EDB7FEB73A9617
:103630000FB6F894FEBF0FBEEDBF84E190E060913D
:103640001E010E94062D85E190E060911F010E94FD
:10365000062D86E190E0609120010E94062D87E111
:1036600090E0609121010E94062D00D08AE795E04C
:1036700081C100D086E695E0EDB7FEB792838183E5
:103680000E94D12700D086E391E0ADB7BEB7129675
:103690009C938E93119701EA11E014961C930E935C
:1036A00013970E94F4270F900F900F900F90C8016E
:1036B00062E271E00E94AA1887E380936701EDB788
:1036C000FEB73A970FB6F894FEBF0FBEEDBF319626
:1036D00085E495E0ADB7BEB712969C938E93119793
:1036E0008091220182831382809123018483158239
:1036F000809124018683178280912501808711861D
:103700000E94D127EDB7FEB73A960FB6F894FEBFE8
:103710000FBEEDBF8EE190E0609122010E94062D68
:103720008FE190E0609123010E94062D80E290E0FD
:10373000609124010E94062D81E290E060912501B4
:103740000E94062D00D08CE395E014C100D084E2E5
:1037500095E0EDB7FEB7928381830E94D12700D018
:1037600086E391E0ADB7BEB712969C938E93119706
:103770000DE811E014961C930E9313970E94F42702
:103780000F900F900F900F90C8016CE271E00E94B3
:10379000AA1887E380936701EDB7FEB73A970FB693
:1037A000F894FEBF0FBEEDBF319683E095E0ADB754
:1037B000BEB712969C938E93119780912C018283B1
:1037C000138280912D018483158280912E0186833E
:1037D000178280912F01808711860E94D127EDB733
:1037E000FEB73A960FB6F894FEBF0FBEEDBF88E263
:1037F00090E060912C010E94062D89E290E060919A
:103800002D010E94062D8AE290E060912E010E9417
:10381000062D8BE290E060912F010E94062D00D0D2
:103820008AEF94E0A7C000D088EE94E0EDB7FEB731
:10383000928381830E94D12700D086E391E0ADB7C7
:10384000BEB712969C938E93119709E711E01496D8
:103850001C930E9313970E94F4270F900F900F90D4
:103860000F90C80160E371E00E94AA1887E380937B
:103870006701EDB7FEB73A970FB6F894FEBF0FBEDB
:10388000EDBF319687EC94E0ADB7BEB712969C932E
:103890008E93119780913001828313828091310140
:1038A000848315828091320186831782809133014F
:1038B000808711860E94D127EDB7FEB73A960FB6E2
:1038C000F894FEBF0FBEEDBF82E390E0609130013F
:1038D0000E94062D83E390E0609131010E94062D45
:1038E00084E390E0609132010E94062D85E390E030
:1038F000609133010E94062D00D08EEB94E03AC017
:1039000000D084EB94E0EDB7FEB7928381830E94F0
:10391000D12700D089E391E0ADB7BEB712969C9352
:103920008E9311978FE391E014969C938E93139747
:103930000E94F42787E38093670186EA94E0EDB75D
:10394000FEB79283818380913F01909140019483DF
:1039500083830E94D1270F900F900F900F9060915A
:103960003F01709140018CE390E00E94132D00D044
:103970008DE994E0ADB7BEB712969C938E931197E4
:1039800071C000D087E794E0EDB7FEB792838183E2
:103990000E94D12700D089E391E0ADB7BEB712965F
:1039A0009C938E9311978DE691E014969C938E9341
:1039B00013970E94F42787E380936701EDB7FEB762
:1039C000319689E694E0ADB7BEB712969C938E937C
:1039D000119780916D01828313820E94D1270F90ED
:1039E0000F900F900F9080916D01823018F081E060
:1039F00080936D0186E490E060916D010E94062D38
:103A000000D080E694E02AC000D087E494E0ADB70F
:103A1000BEB712969C938E9311970E94D1270F9058
:103A20000F900E94EF150E94691581E090E090933D
:103A300069018093680182E080936E0184B7877F7B
:103A400084BF2FE088E190E00FB6F894A89581BD7F
:103A50000FBE21BD0BC000D08EE394E0EDB7FEB7E2
:103A6000928381830E94D1270F900F901F910F9115
:103A700008950E9495150E9409110E948F100E94BE
:103A8000D1170E9436050E94AA1680EA9FE001978E
:103A9000F1F700D086EE90E0EDB7FEB79283818318
:103AA0000E94D12787B7846087BF0F900F900E9434
:103AB000AA040E94EC0485E090E044EF51E060E04D
:103AC00070E00E944D1088E090E040E355E760E030
:103AD00070E00E944D1089E892E16CEA72E10E9468
:103AE000CF1284E090E041E050E060E070E00E949E
:103AF0004D1083E090E048E853E160E070E00E9400
:103B00004D1081E090E048EE53E060E070E00E94EC
:103B10004D100E94A41A0E94F3190E94E0190E94FD
:103B2000C7180E949219F5CFCF92DF92EF92FF92C1
:103B30000F931F93D82EC92EF62EE72E80E00E94F9
:103B4000DB24873191F407E016E0C8016D2D7C2D50
:103B50004F2D5E2D0E948727C8016F2D7E2D0E945C
:103B60000B1580EE9EE20197F1F71F910F91FF90E8
:103B7000EF90DF90CF900895EF92FF920F931F93F5
:103B80009C01F62EE72E07E416E0C801B9014F2D7F
:103B90005E2D0E948727C8016F2D7E2D0E94DA12AC
:103BA00080EE9EE20197F1F71F910F91FF90EF9049
:103BB0000895FF920F931F93DF93CF93CDB7DEB796
:103BC000C054D0400FB6F894DEBF0FBECDBF9C01ED
:103BD0008B0190E0AE014F5F5F4F08C0FA01EA0F22
:103BE000FB1FA20FB31F8C9180839F5FA92FB0E0B2
:103BF000A017B1079CF3FA80D9011296EC911297A5
:103C00001396FC91139714965C91149715964C910A
:103C1000159716967C91169717966C918981803826
:103C200019F59E2F80E02F2F30E0282B392B952F70
:103C300080E050E0482B592B972F80E070E0682BF4
:103C4000792BB1E0FB1639F4C9019E012F5F3F4F7C
:103C50000E94520F09C081E2F81631F4C9019E0199
:103C60002F5F3F4F0E94EE0DC05CDF4F0FB6F89400
:103C7000DEBF0FBECDBFCF91DF911F910F91FF909F
:103C80000895FF920F931F93DF93CF93CDB7DEB7C5
:103C9000C054D0400FB6F894DEBF0FBECDBF9C011C
:103CA0008B0190E0AE014F5F5F4F08C0FA01EA0F51
:103CB000FB1FA20FB31F8C9180839F5FA92FB0E0E1
:103CC000A017B1079CF3FA80D9011296EC911297D4
:103CD0001396FC91139714965C91149715964C913A
:103CE000159716967C91169717966C918981803856
:103CF00019F59E2F80E02F2F30E0282B392B952FA0
:103D000080E050E0482B592B972F80E070E0682B23
:103D1000792BB1E0FB1639F4C9019E012F5F3F4FAB
:103D20000E94A50909C081E2F81631F4C9019E017B
:103D30002F5F3F4F0E94D109C05CDF4F0FB6F89450
:103D4000DEBF0FBECDBFCF91DF911F910F91FF90CE
:103D500008954F925F927F928F929F92AF92BF92FF
:103D6000CF92DF92EF92FF920F931F93CF93DF9347
:103D7000782E2B017A01E90148010E942A228E1532
:103D80009F0510F0670104C0872D0E942A226C0154
:103D90006881662351F48981882339F48A818823D4
:103DA00021F48B81882309F458C08114910409F40B
:103DB00054C0C114D10409F452C0A72CBB2484E818
:103DC00090E0A80EB91EFA2CEE24C7010C960E94B2
:103DD0005722C7010D9669810E945722C7010E968E
:103DE0006A810E945722C7010F966B810E94572259
:103DF0008701005F1F4FC801692D0E945722C8012B
:103E00000196682D0E945722872DB201A6010E94BB
:103E10000626E7012196CE0160E20E945722CE01DC
:103E20000E945B228823D9F70AC0C8010E945B2246
:103E300083FF09C0C80168E10E9457220EC01A2DF5
:103E400000270E5F1F4FC8010E945B2284FFEDCF49
:103E5000C80160E10E94572202C0CC24DD24C601C3
:103E6000DF91CF911F910F91FF90EF90DF90CF9056
:103E7000BF90AF909F908F907F905F904F900895EC
:103E8000CF93DF9390E0D82FCC27CF5FDB47CE01D5
:103E900068E00E945722CE010E945B228823D9F756
:103EA000DF91CF910895CF92DF92EF92FF920F931F
:103EB0001F93CF93DF93082FEB016A0168816F3F57
:103EC00051F489818F3F91F48A818F3F79F48B81FE
:103ED0008F3F61F43FC0662349F48981882331F420
:103EE0008A81882319F48B818823A1F1C114D1041C
:103EF00089F110E00C571F4FF02EEE24C7010C96ED
:103F00000E945722C7010D9669810E945722C7015E
:103F10000E966A810E945722C7010F966B810E94FC
:103F200057228701005F1F4FC8016D2D0E94572245
:103F3000C80101966C2D0E945722E7012196CE01FF
:103F400064E00E945722CE010E945B228823D9F7A9
:103F500081E001C080E0DF91CF911F910F91FF9030
:103F6000EF90DF90CF900895CF93DF9390E08C5740
:103F70009F4FD82FCC27CE0103960E945B2283311E
:103F800011F080E00BC02196CE0162E00E94572222
:103F9000CE010E945B228823D9F781E0DF91CF9187
:103FA00008950F931F93CF93DF93082F10E00C57C2
:103FB0001F4FD02FCC272196CE0160E10E945722BF
:103FC000CE010E945B228823D9F7902F8827029682
:103FD0006FEF0E945722DF91CF911F910F910895AB
:103FE000BF92CF92DF92EF92FF920F931F93CF93E6
:103FF000DF93B82E8B01EA010E942A228C179D07BD
:1040000010F07E0104C08B2D0E942A227C01E11455
:10401000F104A9F18B2DB801A7010E940626CB2D32
:10402000D0E0CC57DF4FDC2ECC2486010F5F1F4F32
:10403000C80160E20E945722C8010E945B228823C7
:10404000D9F70EC0C8010E945B22CE010E945B22FC
:1040500083FF0CC08B2D0E94D11FEE24FF240FC0C4
:10406000DC2FCC27229686010D5F1F4FCE010E94C8
:104070005B2284FFE7CFCE0160E10E945722C70197
:10408000DF91CF911F910F91FF90EF90DF90CF9034
:10409000BF900895CF92DF92EF92FF920F931F93FC
:1040A000CF93DF93082FE62EEA01F22E862F815060
:1040B000853010F080E049C0802F0E94D11F10E0B1
:1040C0000C571F4FD02ECC24FE28C6016F2D0E9406
:1040D0005722B6E0000F111FBA95E1F7209771F053
:1040E0000F5F1F4F000F111F000F111FC8016D2F11
:1040F0000E945722C80101966C2F18C02091C90157
:104100003091CA012F5F3F4F3093CA012093C901FC
:104110000F5F1F4F000F111F000F111FC801632FEA
:104120000E945722C80101966091C9010E9457223E
:1041300086010F5F1F4FC80161E00E945722C8012E
:104140000E945B228823D9F781E0DF91CF911F91F4
:104150000F91FF90EF90DF90CF9008952F923F92B4
:104160004F925F926F927F928F929F92AF92BF9287
:10417000DF92EF92FF920F931F93DF93CF93CDB710
:10418000DEB728970FB6F894DEBF0FBECDBFD82E8E
:104190002B0179011801452B19F4EE24FF2498C056
:1041A00090E08C579F4F782E662428E2A22EB12CE7
:1041B000A60CB71CC5010E945B22182F00E099E2F3
:1041C000892E912C860C971CC4010E945B22080F3B
:1041D000111DC3010E945B2290E0877090708330B4
:1041E000910549F18430910509F440C0029719F016
:1041F000EE24FF2461C08D2DB801AE014F5F5F4FEB
:1042000028E030E00E943725085F1F4F8981F701C1
:1042100080838A8181838B8182838C8183839D814A
:1042200080E02E81820F911DF101918380839F8117
:1042300080E0288517C08D2DB801AE014F5F5F4F1C
:1042400026E030E00E9437250A5F1F4F8981F70181
:1042500080838A8181838B8182838C8183839D810A
:1042600080E02E817C01E20EF11C16C08D2DB8017C
:10427000AE014F5F5F4F22E030E00E9437250E5FB6
:104280001F4F998180E02A81E22EFF242EEF3FEF1D
:10429000E20EF31EE80EF91E8D2DB801A201970162
:1042A0000E9437250E0D1F1DC501612F0E94572248
:1042B000C401602F0E94572283010F5F1F4FC80166
:1042C00060E40E945722C8010E945B228823D9F72C
:1042D000C70128960FB6F894DEBF0FBECDBFCF91B1
:1042E000DF911F910F91FF90EF90DF90BF90AF9003
:1042F0009F908F907F906F905F904F903F902F9006
:104300000895FF920F931F93CF93DF93F82E8A01A6
:104310004115510519F440E050E010C00E94852578
:10432000DF2DC0E0CF5FDB47CE0160E40E94572263
:10433000CE010E945B228823D9F7A801CA01DF9130
:10434000CF911F910F91FF9008956F927F928F925E
:104350009F92BF92CF92DF92EF92FF920F931F93A3
:10436000CF93DF93B82E3B01EA010E942A228C17DB
:104370009D0710F08E0104C08B2D0E942A228C0113
:10438000EB2CFF2484E890E0E80EF91EDE2CCC2410
:1043900053E0852E912C8C0C9D1C8B2D0E94E324C8
:1043A000EC01C4010E945B22873129F08C3119F0A5
:1043B00000E010E003C0C017D10778F38B2DB301E4
:1043C000A8010E940626E6012196CE0160E20E9425
:1043D0005722CE010E945B228823D9F70BC0C4016B
:1043E0000E945B22882349F48B2D0E94D11F00E09C
:1043F00010E00CC0DE2DCC272296CE010E945B225D
:1044000084FFEDCFCE0160E10E945722C801DF9109
:10441000CF911F910F91FF90EF90DF90CF90BF90C1
:104420009F908F907F906F900895EBECF1E0E80FF4
:10443000F11D80810895EBECF1E0E80FF11D608340
:104440000895E82FF0E0EE0FFF1FE951FE4F808145
:1044500091810895E82FF0E0EE0FFF1FE152FE4F2B
:10446000808191810895E82FF0E0EE0FFF1FE9525F
:10447000FE4F808191810895E82FF0E0EE0FFF1F3D
:10448000E153FE4F808191810895E82FF0E0EE0F17
:10449000FF1FE950FE4F808191810895E82FF0E0E1
:1044A000EE0FFF1FE151FE4F808191810895FC01C5
:1044B000608381E00895FC01808108951F920F922E
:1044C0000FB60F9211240F900FBE0F901F901895EA
:1044D00080E88093008008952F923F924F925F92E0
:1044E0006F927F928F929F92AF92BF92CF92DF9204
:1044F000EF92FF920F931F93DF93CF9300D000D0E2
:10450000CDB7DEB780931B8060931A8020E030EC3B
:104510003093F0012093EF0120E030EE3093F8016A
:104520002093F7010FED11E027EE31E03C832B8360
:10453000E7EDCE2EE1E0DE2E7FECE72E71E0F72EE8
:10454000AA24BB24662477248824992440E050E0E0
:10455000E82FF0E0FA83E983262E3324F801118254
:104560001082EB81FC8111821082F0E06F16F0E284
:104570007F06DCF589819A81042E02C09595879586
:104580000A94E2F78370907081309105A1F0823037
:1045900091051CF4892B39F028C08230910599F0DF
:1045A000039719F518C020E034E0F8013183208327
:1045B0002FEF33E017C020E038E0F801318320838B
:1045C0002FEF37E00FC020E030E1F8013183208386
:1045D0002FEF3FE007C020E030E2F8013183208375
:1045E0002FEF3FE1F7013183208330E0831630E283
:1045F00093060CF03EC0C101042E02C0959587952C
:104600000A94E2F78370907081309105A9F08230AE
:1046100091051CF4892B39F02CC082309105A9F04A
:10462000039739F51BC020E034E0EB81FC81318336
:1046300020832FEF33E01AC020E038E0EB81FC81CB
:10464000318320832FEF37E011C020E030E1EB8190
:10465000FC81318320832FEF3FE008C020E030E26F
:10466000EB81FC81318320832FEF3FE1F601318321
:104670002083F80140805180EB81FC816081718151
:10468000A114B104F1F0FA01E151FE4FDA01A35295
:10469000BE4F8D919C91329122913296820F931F41
:1046A00091838083FA01E950FE4FDA01AB51BE4F8E
:1046B0008D919C91329122913296820F931F91831A
:1046C00080830894A11CB11C0E5F1F4F4E5F5F4F8B
:1046D0002B813C812E5F3F4F3C832B8382E090E017
:1046E000C80ED91EE80EF91E94E0A916B10429F0EF
:1046F000640C751C860E971E31CF0F900F900F9093
:104700000F90CF91DF911F910F91FF90EF90DF906D
:10471000CF90BF90AF909F908F907F906F905F9061
:104720004F903F902F900895809300800895FC0152
:104730008081809301808181809302808281809337
:1047400003808381809304800895FC01809101801F
:104750008083809102808183809103808283809115
:10476000048083830895FC0180818093058081818A
:104770008093068082818093078083818093088064
:104780000895FC01808180930980818180930A8053
:10479000828180930B80838180930C8084818093BD
:1047A0000D80858180930E800895FC018081809327
:1047B0000F8081818093108082818093118083811A
:1047C00080931280089580911580089590931780AA
:1047D000809318800895809319800895809316809F
:1047E0000895FC0180910180808380910280818303
:1047F0008091038082838091048083830895FC01EB
:1048000080910580808380910680818380910780DC
:1048100082838091088083830895FC0180910980C0
:10482000808380910A80818380910B808283809134
:104830000C80838380910D80848380910E8085839A
:104840000895FC0180910F80808380911080818386
:104850008091118082838091128083830895CF9309
:10486000DF93E82FF0E0EC57FF4FBE2FAA271696F4
:104870008C911697EB01888317968C9117978983F3
:10488000FD01389680818A8319968C9119978B83C4
:104890001A968C911A978C831B968C918D83DF913D
:1048A000CF910895CF93DF93DB01E82FF0E0EC5731
:1048B000FF4F3E2F22278C91E9018E8311968C9118
:1048C00011978F8312968C911297F90138968083F5
:1048D00013968C911397898714968C9114978A87D5
:1048E00015968C918B87DF91CF910895DB01E82F8E
:1048F000F0E0EC57FF4FFE2FEE2784858C938585E3
:1049000011968C931197868512968C9312978785B2
:1049100013968C930895DB01E82FF0E0EC57FF4FDE
:10492000FE2FEE278C91848711968C9111978587A5
:1049300012968C911297868713968C91878708958B
:10494000DB01E82FF0E0FE2FEE27E05FFB478081E0
:104950008C93818111968C930895DB01E82FF0E010
:10496000FE2FEE27E05FFB478C91808311968C91A0
:1049700081830895E82FF0E0EC57FF4FFE2FEE27DC
:10498000728B638B0895E82FF0E0EC57FF4FFE2FFA
:10499000EE27668B0895E82FF0E0EC57FF4FFE2FCF
:1049A000EE27648B0895E82FF0E0FE2FEE27EE5FF0
:1049B000FB4780810895E82FF0E0EC57FF4FFE2F72
:1049C000EE2783810895CF93DF9390E0F82FEE27B1
:1049D000E05EFB47EF01219660E070E08081582F98
:1049E00040E08881DA01A80FB11D109739F080816D
:1049F000382F20E08881B901680F711D6A177B0785
:104A000069F7CB01DF91CF910895CF93DF9390E0C9
:104A10008C579F4F982F8827EC01A696DC0197961C
:104A200060E070E08881582F40E08C91FA01E80F37
:104A3000F11D309739F08881382F20E08C91B90131
:104A4000680F711D6E177F0769F7CB01DF91CF915A
:104A500008950F931F939C01CB01142F052FB901CB
:104A60000E948727812F902F1F910F910895CF9239
:104A7000DF92EF92FF920F931F93CF93DF93EA01A0
:104A80006901E82FF0E0EE0FFF1FDF01A952BE4FD2
:104A90008D919C916823792347EFE42E41E0F42E19
:104AA000EE0EFF1ED7012D913C91260F371FE951C5
:104AB000FE4F0190F081E02DC601860F971FE81789
:104AC000F907A8F48F01061B170BCE01B901A80145
:104AD0000E9487279E01200F311FF601E01BF10B7A
:104AE000D7016C9111967C91C901AF0103C0CE0131
:104AF000B901A6010E948727DF91CF911F910F91E5
:104B0000FF90EF90DF90CF900895CF92DF92EF92D9
:104B1000FF920F931F939B016A01E82EFF2444E844
:104B200050E0E40EF51EFE2CEE24F70190A5192F9F
:104B300000E091A5090F111DB801A90196010E947D
:104B400037250C0D1D1DF70110A701A71F910F910F
:104B5000FF90EF90DF90CF9008950F931F93142F45
:104B6000052F0E948727812F902F1F910F91089565
:104B7000CF92DF92EF92FF920F931F93CF93DF9329
:104B8000EB016901E82FF0E0EE0FFF1FDF01A153F9
:104B9000BE4F8D919C91482359237FEEE72E71E003
:104BA000F72EEE0EFF1ED7012D913C91240F351FDD
:104BB000E152FE4F0190F081E02DCA018C0D9D1D48
:104BC000E817F907A8F48F01041B150BC901BE01F2
:104BD000A8010E948727F601E01BF10B9E01200F20
:104BE000311FD7018C9111969C91B901AF0103C07F
:104BF000C901BE01A6010E948727DF91CF911F91B5
:104C00000F91FF90EF90DF90CF900895CF92DF92B9
:104C1000EF92FF920F931F936A01E82EFF2424E87E
:104C200030E0E20EF31EFE2CEE24F70194A1192FC2
:104C300000E095A1090F111DA80196010E94B82559
:104C40000C0D1D1DF70114A305A31F910F91FF90DB
:104C5000EF90DF90CF900895991B79E004C0991FE1
:104C6000961708F0961B881F7A95C9F780950895C6
:104C700097FB092E07260AD077FD04D00CD006D06A
:104C800000201AF4709561957F4F0895F6F790957E
:104C900081959F4F0895AA1BBB1B51E107C0AA1F16
:104CA000BB1FA617B70710F0A61BB70B881F991FCD
:104CB0005A95A9F780959095BC01CD010895CF93A1
:104CC000DF93BC018230910510F462E070E0A091A6
:104CD0008906B0918A06ED01E0E0F0E040E050E0A6
:104CE00021C0888199818617970769F48A819B8101
:104CF000309719F09383828304C090938A0680933F
:104D00008906FE0134C06817790738F4411551054A
:104D100019F08417950708F4AC01FE018A819B8184
:104D20009C01E9012097E9F641155105A9F1CA0155
:104D3000861B970B049708F4BA01E0E0F0E02AC064
:104D40008D919C91119784179507F9F46417750755
:104D500081F412968D919C911397309719F093835B
:104D6000828304C090938A0680938906FD0132965F
:104D70004FC0CA01861B970BFD01E80FF91F619315
:104D8000719302978D939C9343C0FD01828193811F
:104D90009C01D9011097A1F6809187069091880611
:104DA000892B41F4809143019091440190938806AE
:104DB0008093870640914501509146014115510568
:104DC00041F44DB75EB78091410190914201481B7B
:104DD000590B209187063091880624173507B0F4C7
:104DE000CA01821B930B8617970780F0AB014E5FB9
:104DF0005F4F8417950750F0420F531F509388065A
:104E000040938706F9016193719302C0E0E0F0E0FE
:104E1000CF01DF91CF910895CF93DF93009709F4ED
:104E200050C0EC0122971B821A82A0918906B09192
:104E30008A06109709F140E050E0AC17BD0708F171
:104E4000BB83AA83FE0121913191E20FF31FAE17BC
:104E5000BF0779F48D919C911197280F391F2E5F10
:104E60003F4F3983288312968D919C9113979B8392
:104E70008A834115510571F4D0938A06C09389063F
:104E800020C012968D919C911397AD01009711F05F
:104E9000DC01D3CFFA01D383C28321913191E20F98
:104EA000F31FCE17DF0769F488819981280F391F16
:104EB0002E5F3F4FFA01318320838A819B81938348
:104EC0008283DF91CF910895FC0188279927E89488
:104ED00021912032E9F3293010F02E30C8F32B3223
:104EE00041F02D3239F4689404C00E94B727820F34
:104EF000911D219120532A30C0F31EF49095819585
:104F00009F4F08954FEF51E00E9490270895FB01B5
:104F1000DC0102C001900D9241505040D8F7089535
:104F2000FA01A191B081009719F41097E1F0CD0139
:104F3000DC01CD010D90002011F4C00113C0FB0174
:104F40002191222319F02015D9F7F3CFFB012191EC
:104F5000201519F41E92119606C02223C1F70D9058
:104F60000020A1F7D001FA01A193B08308957AE05F
:104F7000979F902D879F802D910D11240895DF9389
:104F8000CF93CDB7DEB7FE013596619171918091D7
:104F90008D0690918E06AF010E940628CF91DF9179
:104FA0000895DF93CF93CDB7DEB7FE0135966191BB
:104FB0007191A0918D06B0918E0613968C911397E6
:104FC000886013968C9380918D0690918E06AF0128
:104FD0000E940628E0918D06F0918E062381277F9E
:104FE0002383CF91DF910895DF93CF93CDB7DEB7C1
:104FF000FE0135966191719180918B0690918C069E
:10500000AF010E94BB2BCF91DF9108952F923F9269
:105010004F925F926F927F928F929F92AF92BF92C8
:10502000CF92DF92EF92FF920F931F93DF93CF9374
:10503000CDB7DEB72B970FB6F894DEBF0FBECDBF4E
:105040003C012B015A01FC0117821682838181FDEC
:1050500003C06FEF7FEFC6C19AE0892E1E0108944E
:10506000211C311CF3012381F20123FD859123FFD3
:1050700081912F01882309F4B2C1853239F423FDCF
:10508000859123FF81912F01853229F490E0B301AE
:105090000E94832DE7CF982FFF24EE249924FFE16F
:1050A000FF15D0F09B3269F09C3228F4903259F011
:1050B000933291F40EC09D3249F0903369F441E08F
:1050C00024C052E0F52A84E0F82A28C098E0F92AA2
:1050D00025C0E0E1FE2A22C0F7FC29C0892F8053B9
:1050E0008A3070F4F6FE05C0989C902C1124980E1E
:1050F00015C0E89CE02C1124E80EF0E2FF2A0EC057
:105100009E3229F4F6FC6BC140E4F42A07C09C36B9
:1051100019F450E8F52A02C0983649F4F20123FD4B
:10512000959123FF91912F01992309F0B8CF892FF1
:105130008554833018F08052833038F444E050E0D6
:10514000A40EB51E5FE359830FC0933631F0933739
:1051500079F0933509F056C020C0F501808189832C
:1051600042E050E0A40EB51E610101E010E012C063
:10517000F501C080D180F6FC03C06FEF7FEF02C065
:10518000692D70E042E050E0A40EB51EC6010E94F9
:10519000362D8C015FE7F52214C0F501C080D18067
:1051A000F6FC03C06FEF7FEF02C0692D70E042E0B4
:1051B00050E0A40EB51EC6010E942B2D8C0150E8B4
:1051C000F52AF3FE07C01AC080E290E0B3010E9406
:1051D000832DEA948E2D90E008171907A8F30EC0CE
:1051E000F601F7FC8591F7FE81916F0190E0B30124
:1051F0000E94832DE110EA94015010400115110521
:1052000079F7EAC0943611F0993669F5F7FE08C0CF
:10521000F501208131814281538184E090E00AC010
:10522000F501808191819C01442737FD4095542FE1
:1052300082E090E0A80EB91E9FE6F92257FF09C050
:1052400050954095309521953F4F4F4F5F4FE0E887
:10525000FE2ACA01B901A1012AE030E00E94C92D4D
:10526000D82ED21840C0953729F41F2D1F7E2AE072
:1052700030E01DC01F2D197F9F3661F0903720F45C
:10528000983509F0ACC00FC0903739F0983709F065
:10529000A6C004C028E030E00AC0106114FD14600C
:1052A00020E130E004C014FD166020E132E017FF79
:1052B00008C0F501608171818281938144E050E0F2
:1052C00008C0F50180819181BC0180E090E042E05E
:1052D00050E0A40EB51EA1010E94C92DD82ED218EF
:1052E0008FE7F82EF122F6FE0BC05EEFF522D914FF
:1052F00038F4F4FE07C0F2FC05C08FEEF82202C0BD
:105300001D2D01C0192DF4FE0DC0FE01ED0DF11D86
:105310008081803319F499EEF92208C01F5FF2FEF4
:1053200005C003C08F2D867809F01F5F0F2DF3FC99
:1053300014C0F0FE0FC01E1510F09D2C0BC09D2C4C
:105340009E0C911A1E2D06C080E290E0B3010E94CF
:10535000832D1F5F1E15C0F304C01E1510F4E11A43
:1053600001C0EE2404FF0FC080E390E0B3010E946F
:10537000832D02FF1DC001FD03C088E790E00EC031
:1053800088E590E00BC0802F867891F001FF02C085
:105390008BE201C080E2F7FC8DE290E0B3010E9455
:1053A000832D06C080E390E0B3010E94832D9A9480
:1053B000D914C0F3DA94F101ED0DF11D808190E074
:1053C000B3010E94832DDD20A9F706C080E290E0A2
:1053D000B3010E94832DEA94EE20C1F743CEF3017E
:1053E00066817781CB012B960FB6F894DEBF0FBE96
:1053F000CDBFCF91DF911F910F91FF90EF90DF9084
:10540000CF90BF90AF909F908F907F906F905F9064
:105410004F903F902F900895FC0120FD08C023FD80
:1054200005C022FF02C073836283518340830895C5
:10543000EF92FF920F931F9344FF02C033E011C01D
:1054400046FF02C034E00DC0DB01FC01AA0FBB1F08
:10545000EE1FFF1F1094D1F76A0F7B1F8E1F9F1F37
:1054600031E0660F771F881F991F3150D1F77B01FC
:105470008C01E20EF11C011D111DA8019701B7015D
:10548000CA011F910F91FF90EF9008950F931F9302
:10549000CF93DF938C01C8010E94412DEC0197FD51
:1054A00008C00E94182D892BB1F7CE01B8010E94C7
:1054B000AF2DCE01DF91CF911F910F910895AF9243
:1054C000BF92CF92DF92EF92FF920F931F93CF93F1
:1054D000DF93EC01C62E5A01122F0E94412DAC0120
:1054E0008B3219F08D3251F41068CA9409F46DC0F2
:1054F000CE010E94412DAC0197FD67C06DEFD62E05
:10550000D1228D2D807301F54033F1F4CA9409F452
:1055100047C0CE010E94412DAC0197FD41C082E001
:10552000D82A483711F0483559F480E4D82ACA946B
:10553000B9F1CE010E94412DAC0199232CF430C069
:10554000D6FC02C080E1D82AEE24FF248701242F54
:105550002053283088F0D4FC09C02A3068F0D6FEE9
:1055600005C02F7D822F8151863028F0CA01BE01EF
:105570000E94AF2D12C02750C801B7014D2D0E94C7
:10558000182A7B018C0182E0D82ACA9461F0CE01EE
:105590000E94412DAC0197FFDACFD1FC04C015C0A9
:1055A000EE24FF248701D7FE08C010950095F094E3
:1055B000E094E11CF11C011D111DC501B801A701FA
:1055C0002D2D0E940C2A81E001C080E0DF91CF9157
:1055D0001F910F91FF90EF90DF90CF90BF90AF9011
:1055E00008956F927F928F929F92AF92BF92CF92C7
:1055F000DF92EF92FF920F931F93DF93CF93CDB77C
:10560000DEB7A0970FB6F894DEBF0FBECDBF6C011A
:10561000A62E8A017901FE01319680E2DF011D92FA
:105620008A95E9F770E030E060E040E050E04F013B
:10563000A1E0B0E0F6018381F70183FD259183FFAE
:1056400021917F01222309F47EC02E3519F44115E2
:10565000510569F1872F90E08417950744F42D35A3
:1056600051F12D3221F4332329F431E021C03323C9
:1056700009F4622F322F832F869586958695F40143
:10568000E80FF11D832F87703D0102C0660C771C67
:105690008A95E2F7208126292083361711F430E01D
:1056A00007C0361710F43F5FE6CF3150E4CF71E00A
:1056B0004F5F5F4FBFCF332319F08E8180628E839F
:1056C000772359F0FE0131969E012F5D3F4F808177
:1056D00080958193E217F307D1F7BB24B3944E0171
:1056E0000894811C911CC6010E94412DAC0197FDBC
:1056F00022C0869586958695F401E80FF11D80817C
:1057000090E09A012770307002C0959587952A9590
:10571000E2F780FD05C0CA01B6010E94AF2D0BC0A3
:105720000115110519F0D8014D938D01AA94BB24E0
:10573000AA20C9F602C0BB2031F40115110529F0D9
:10574000F801108202C0EE24FF24C701A0960FB614
:10575000F894DEBF0FBECDBFCF91DF911F910F91A7
:10576000FF90EF90DF90CF90BF90AF909F908F9081
:105770007F906F9008956F927F928F929F92AF92D9
:10578000BF92CF92DF92EF92FF920F931F93CF932E
:10579000DF935C016B013A01FC01178216828824B9
:1057A000EAC0812F90E00E94182D892B21F0C501BD
:1057B0000E94462AE0C0153249F4F601F3FC6591D7
:1057C000F3FE61916F01653269F415E2C5010E9433
:1057D000412D97FDDCC0181709F4CDC0B5010E941A
:1057E000AF2DDAC06A3219F0162F00E006C0F3FCC4
:1057F0001591F3FE11916F0101E099240FC0026031
:10580000692D70E080E090E040E20E94182A962E18
:10581000F601F3FC1591F3FE11916F01212F205336
:105820002A3068F301FD03C099249A9403C099209B
:1058300009F4B2C0183621F01C3699F4F6010BC0F9
:10584000F601F3FC6591F3FE6191683619F06F0182
:10585000162F07C008600460F3FC1591F3FE119148
:105860006F01112309F498C086EB95E0612F70E079
:105870000E94202D892B09F48FC0802F00FF03C0C8
:10588000EE24FF2407C0F301E080F18022E030E045
:10589000620E731E1E3651F4F5014681578160E099
:1058A00070E0C701202F0E940C2A65C0133691F4C6
:1058B00081FD02C099249394C5010E94412D97FD5A
:1058C00066C0E114F10419F0F70181937F019A9405
:1058D00099F74FC01B3559F4C501692DA7019601F1
:1058E0000E94F12A6C01009709F043C03DC0C50138
:1058F0000E94462A97FD4BC01F3659F1103728F4F5
:10590000143629F1193639F527C0133719F0153730
:1059100011F51DC0C5010E94412DEC0197FD11C07C
:105920000E94182D892B29F0CE01B5010E94AF2DC0
:1059300008C0E114F10419F0F701C1937F019A94B2
:1059400049F7E114F104A9F0F701108212C00062D6
:1059500003C0006101C00064C501692DA701202FAB
:105960000E945F2A882329F4F5018381807379F4EA
:1059700013C000FF8394F501F380F601F3FC159149
:10598000F3FE11916F01112309F00BCF05C08820A0
:1059900019F42FEF3FEF02C0282D30E0C901DF914D
:1059A000CF911F910F91FF90EF90DF90CF90BF901C
:1059B000AF909F908F907F906F900895DC01CB0106
:1059C000FC01E199FECF06C0FFBBEEBBE09A319629
:1059D0000DB20D9241505040B8F70895E199FECFB5
:1059E0009FBB8EBBE09A99278DB30895A8E1B0E0E4
:1059F00042E050E00C94E02CDC01CB0103C02D917F
:105A00000E94072D41505040D0F70895262FE1996C
:105A1000FECF9FBB8EBB2DBB0FB6F894E29AE19AE6
:105A20000FBE019608950E94062D272F0C94072D76
:105A300091110DC1803219F089508550D0F7089529
:105A4000FC010590061621F00020D9F7C001089549
:105A50003197CF010895FC0105906150704001100D
:105A6000D8F7809590958E0F9F1F0895FC01615087
:105A7000704001900110D8F7809590958E0F9F1F70
:105A80000895CF93DF93EC014B8140FF1AC046FF8E
:105A90000AC04F7B4B838E819F8101969F838E83AB
:105AA0008A81282F2BC042FF13C0E881F9818081B1
:105AB000282F332727FD30952115310529F4406221
:105AC0004B832FEF3FEF1BC03196F983E88311C062
:105AD000EA85FB85CE0109959C0197FF0AC09B8151
:105AE0002F5F3F4F11F080E201C080E1892B8B8353
:105AF000E8CF8E819F8101969F838E8330E0C9011C
:105B0000DF91CF9108950F931F93CF93DF938C0173
:105B1000EB018B8181FF1BC082FF0DC02E813F8175
:105B20008C819D812817390764F4E881F9810193FC
:105B3000F983E88306C0E885F985802F0995892BCC
:105B400031F48E819F8101969F838E8302C00FEF77
:105B50001FEFC801DF91CF911F910F9108959C0114
:105B6000FB01838180FF11C086FD0FC09FEF2F3F97
:105B7000390759F0228380648F7D838386819781E2
:105B800001979783868330E002C02FEF3FEFC90172
:105B90000895FA01AA27283051F1203181F1E894C3
:105BA0006F936E7F6E5F7F4F8F4F9F4FAF4FB1E010
:105BB0003ED0B4E03CD0670F781F891F9A1FA11D0B
:105BC000680F791F8A1F911DA11D6A0F711D811D0C
:105BD000911DA11D20D009F468943F912AE0269FD1
:105BE00011243019305D3193DEF6CF010895462F30
:105BF0004770405D4193B3E00FD0C9F7F6CF462F11
:105C00004F70405D4A3318F0495D31FD4052419379
:105C100002D0A9F7EACFB4E0A69597958795779536
:105C20006795BA95C9F700976105710508959B01BD
:105C3000AC010A2E06945795479537952795BA9546
:105C4000C9F7620F731F841F951FA01D0895992720
:085C500088270895F894FFCFA6
:105C5800FFFF0000000300000000EF10FD1000002F
:105C68000A496E697420496E69744E455400C0A88B
:105C7800000AC0A800360008DC000004C0A8000123
:105C8800FFFFFF002E002573002564001E00023B65
:085C98007520009106000000D8
:00000001FF
