Archive member included because of file (symbol)

c:/winavr-20100110/bin/../lib/gcc/avr/4.3.3/avr51\libgcc.a(_exit.o)
                              c:/winavr-20100110/bin/../lib/gcc/avr/4.3.3/../../../../avr/lib/avr51/crtm128.o (exit)
c:/winavr-20100110/bin/../lib/gcc/avr/4.3.3/avr51\libgcc.a(_clear_bss.o)
                              ./src/MegaBoot.o (__do_clear_bss)

Allocating common symbols
Common symbol       size              file

PageBuffer          0x100             ./src/MegaBoot.o
PageAddress         0x4               ./src/MegaBoot.o
RealPageAddress     0x2               ./src/MegaBoot.o
RampzFlag           0x1               ./src/MegaBoot.o

Memory Configuration

Name             Origin             Length             Attributes
text             0x00000000         0x00020000         xr
data             0x00800060         0x0000ffa0         rw !x
eeprom           0x00810000         0x00010000         rw !x
fuse             0x00820000         0x00000400         rw !x
lock             0x00830000         0x00000400         rw !x
signature        0x00840000         0x00000400         rw !x
*default*        0x00000000         0xffffffff

Linker script and memory map

Address of section .data set to 0x800100
LOAD c:/winavr-20100110/bin/../lib/gcc/avr/4.3.3/../../../../avr/lib/avr51/crtm128.o
Address of section .text set to 0x1f000
LOAD ./src/Flash.o
LOAD ./src/MegaBoot.o
LOAD c:/winavr-20100110/bin/../lib/gcc/avr/4.3.3/avr51\libgcc.a
LOAD c:/winavr-20100110/bin/../lib/gcc/avr/4.3.3/../../../../avr/lib/avr51\libc.a
LOAD c:/winavr-20100110/bin/../lib/gcc/avr/4.3.3/avr51\libgcc.a

.hash
 *(.hash)

.dynsym
 *(.dynsym)

.dynstr
 *(.dynstr)

.gnu.version
 *(.gnu.version)

.gnu.version_d
 *(.gnu.version_d)

.gnu.version_r
 *(.gnu.version_r)

.rel.init
 *(.rel.init)

.rela.init
 *(.rela.init)

.rel.text
 *(.rel.text)
 *(.rel.text.*)
 *(.rel.gnu.linkonce.t*)

.rela.text
 *(.rela.text)
 *(.rela.text.*)
 *(.rela.gnu.linkonce.t*)

.rel.fini
 *(.rel.fini)

.rela.fini
 *(.rela.fini)

.rel.rodata
 *(.rel.rodata)
 *(.rel.rodata.*)
 *(.rel.gnu.linkonce.r*)

.rela.rodata
 *(.rela.rodata)
 *(.rela.rodata.*)
 *(.rela.gnu.linkonce.r*)

.rel.data
 *(.rel.data)
 *(.rel.data.*)
 *(.rel.gnu.linkonce.d*)

.rela.data
 *(.rela.data)
 *(.rela.data.*)
 *(.rela.gnu.linkonce.d*)

.rel.ctors
 *(.rel.ctors)

.rela.ctors
 *(.rela.ctors)

.rel.dtors
 *(.rel.dtors)

.rela.dtors
 *(.rela.dtors)

.rel.got
 *(.rel.got)

.rela.got
 *(.rela.got)

.rel.bss
 *(.rel.bss)

.rela.bss
 *(.rela.bss)

.rel.plt
 *(.rel.plt)

.rela.plt
 *(.rela.plt)

.text           0x0001f000      0xac6
 *(.vectors)
 .vectors       0x0001f000       0x8c c:/winavr-20100110/bin/../lib/gcc/avr/4.3.3/../../../../avr/lib/avr51/crtm128.o
                0x0001f000                __vectors
                0x0001f000                __vector_default
 *(.vectors)
 *(.progmem.gcc*)
 *(.progmem*)
                0x0001f08c                . = ALIGN (0x2)
                0x0001f08c                __trampolines_start = .
 *(.trampolines)
 .trampolines   0x0001f08c        0x0 linker stubs
 *(.trampolines*)
                0x0001f08c                __trampolines_end = .
 *(.jumptables)
 *(.jumptables*)
 *(.lowtext)
 *(.lowtext*)
                0x0001f08c                __ctors_start = .
 *(.ctors)
                0x0001f08c                __ctors_end = .
                0x0001f08c                __dtors_start = .
 *(.dtors)
                0x0001f08c                __dtors_end = .
 SORT(*)(.ctors)
 SORT(*)(.dtors)
 *(.init0)
 .init0         0x0001f08c        0x0 c:/winavr-20100110/bin/../lib/gcc/avr/4.3.3/../../../../avr/lib/avr51/crtm128.o
                0x0001f08c                __init
 *(.init0)
 *(.init1)
 *(.init1)
 *(.init2)
 .init2         0x0001f08c        0xc c:/winavr-20100110/bin/../lib/gcc/avr/4.3.3/../../../../avr/lib/avr51/crtm128.o
 *(.init2)
 *(.init3)
 *(.init3)
 *(.init4)
 .init4         0x0001f098       0x1a c:/winavr-20100110/bin/../lib/gcc/avr/4.3.3/../../../../avr/lib/avr51/crtm128.o
                0x0001f098                __do_copy_data
 .init4         0x0001f0b2       0x10 c:/winavr-20100110/bin/../lib/gcc/avr/4.3.3/avr51\libgcc.a(_clear_bss.o)
                0x0001f0b2                __do_clear_bss
 *(.init4)
 *(.init5)
 *(.init5)
 *(.init6)
 *(.init6)
 *(.init7)
 *(.init7)
 *(.init8)
 *(.init8)
 *(.init9)
 .init9         0x0001f0c2        0x8 c:/winavr-20100110/bin/../lib/gcc/avr/4.3.3/../../../../avr/lib/avr51/crtm128.o
 *(.init9)
 *(.text)
 .text          0x0001f0ca        0x4 c:/winavr-20100110/bin/../lib/gcc/avr/4.3.3/../../../../avr/lib/avr51/crtm128.o
                0x0001f0ca                __vector_22
                0x0001f0ca                __vector_28
                0x0001f0ca                __vector_1
                0x0001f0ca                __vector_32
                0x0001f0ca                __vector_34
                0x0001f0ca                __vector_24
                0x0001f0ca                __vector_12
                0x0001f0ca                __bad_interrupt
                0x0001f0ca                __vector_6
                0x0001f0ca                __vector_31
                0x0001f0ca                __vector_3
                0x0001f0ca                __vector_23
                0x0001f0ca                __vector_30
                0x0001f0ca                __vector_25
                0x0001f0ca                __vector_11
                0x0001f0ca                __vector_13
                0x0001f0ca                __vector_17
                0x0001f0ca                __vector_19
                0x0001f0ca                __vector_7
                0x0001f0ca                __vector_27
                0x0001f0ca                __vector_5
                0x0001f0ca                __vector_33
                0x0001f0ca                __vector_4
                0x0001f0ca                __vector_9
                0x0001f0ca                __vector_2
                0x0001f0ca                __vector_21
                0x0001f0ca                __vector_15
                0x0001f0ca                __vector_29
                0x0001f0ca                __vector_8
                0x0001f0ca                __vector_26
                0x0001f0ca                __vector_14
                0x0001f0ca                __vector_10
                0x0001f0ca                __vector_16
                0x0001f0ca                __vector_18
                0x0001f0ca                __vector_20
 .text          0x0001f0ce      0x52e ./src/Flash.o
                0x0001f3ae                flash_writeUint32
                0x0001f1ee                flash_bufferToMainMemory
                0x0001f184                flash_bufferWrite
                0x0001f0ce                flash_init
                0x0001f0da                clk
                0x0001f4c4                flash_writeBytes
                0x0001f346                flash_readUint16
                0x0001f27a                flash_bufferReadUint8
                0x0001f4ec                flash_eraseBytes
                0x0001f5d4                flash_readStatus
                0x0001f2b0                flash_readUint8
                0x0001f3f8                flash_readUint32
                0x0001f0f2                flash_writeByteToSI
                0x0001f132                flash_readByteFromSO
                0x0001f23e                flash_writeUint8
                0x0001f306                flash_writeUint16
                0x0001f54e                flash_readBytes
 .text          0x0001f5fc      0x4c6 ./src/MegaBoot.o
                0x0001f784                WDT_INIT
                0x0001f79e                FlashLoad
                0x0001f774                LockBit
                0x0001f62a                WriteFlash
                0x0001f61e                USART_Transmit
                0x0001f5fc                Wait
                0x0001f776                ExecCode
                0x0001f96e                main
                0x0001f6cc                CheckFlash
 .text          0x0001fac2        0x0 c:/winavr-20100110/bin/../lib/gcc/avr/4.3.3/avr51\libgcc.a(_exit.o)
 .text          0x0001fac2        0x0 c:/winavr-20100110/bin/../lib/gcc/avr/4.3.3/avr51\libgcc.a(_clear_bss.o)
                0x0001fac2                . = ALIGN (0x2)
 *(.text.*)
 .text.libgcc   0x0001fac2        0x0 c:/winavr-20100110/bin/../lib/gcc/avr/4.3.3/avr51\libgcc.a(_exit.o)
 .text.libgcc   0x0001fac2        0x0 c:/winavr-20100110/bin/../lib/gcc/avr/4.3.3/avr51\libgcc.a(_clear_bss.o)
                0x0001fac2                . = ALIGN (0x2)
 *(.fini9)
 .fini9         0x0001fac2        0x0 c:/winavr-20100110/bin/../lib/gcc/avr/4.3.3/avr51\libgcc.a(_exit.o)
                0x0001fac2                exit
                0x0001fac2                _exit
 *(.fini9)
 *(.fini8)
 *(.fini8)
 *(.fini7)
 *(.fini7)
 *(.fini6)
 *(.fini6)
 *(.fini5)
 *(.fini5)
 *(.fini4)
 *(.fini4)
 *(.fini3)
 *(.fini3)
 *(.fini2)
 *(.fini2)
 *(.fini1)
 *(.fini1)
 *(.fini0)
 .fini0         0x0001fac2        0x4 c:/winavr-20100110/bin/../lib/gcc/avr/4.3.3/avr51\libgcc.a(_exit.o)
 *(.fini0)
                0x0001fac6                _etext = .

.data           0x00800100        0x0 load address 0x0001fac6
                0x00800100                PROVIDE (__data_start, .)
 *(.data)
 .data          0x00800100        0x0 c:/winavr-20100110/bin/../lib/gcc/avr/4.3.3/../../../../avr/lib/avr51/crtm128.o
 .data          0x00800100        0x0 ./src/Flash.o
 .data          0x00800100        0x0 ./src/MegaBoot.o
 .data          0x00800100        0x0 c:/winavr-20100110/bin/../lib/gcc/avr/4.3.3/avr51\libgcc.a(_exit.o)
 .data          0x00800100        0x0 c:/winavr-20100110/bin/../lib/gcc/avr/4.3.3/avr51\libgcc.a(_clear_bss.o)
 *(.data*)
 *(.rodata)
 *(.rodata*)
 *(.gnu.linkonce.d*)
                0x00800100                . = ALIGN (0x2)
                0x00800100                _edata = .
                0x00800100                PROVIDE (__data_end, .)

.bss            0x00800100      0x107
                0x00800100                PROVIDE (__bss_start, .)
 *(.bss)
 .bss           0x00800100        0x0 c:/winavr-20100110/bin/../lib/gcc/avr/4.3.3/../../../../avr/lib/avr51/crtm128.o
 .bss           0x00800100        0x0 ./src/Flash.o
 .bss           0x00800100        0x0 ./src/MegaBoot.o
 .bss           0x00800100        0x0 c:/winavr-20100110/bin/../lib/gcc/avr/4.3.3/avr51\libgcc.a(_exit.o)
 .bss           0x00800100        0x0 c:/winavr-20100110/bin/../lib/gcc/avr/4.3.3/avr51\libgcc.a(_clear_bss.o)
 *(.bss*)
 *(COMMON)
 COMMON         0x00800100      0x107 ./src/MegaBoot.o
                0x00800100                PageBuffer
                0x00800200                PageAddress
                0x00800204                RealPageAddress
                0x00800206                RampzFlag
                0x00800207                PROVIDE (__bss_end, .)
                0x0001fac6                __data_load_start = LOADADDR (.data)
                0x0001fac6                __data_load_end = (__data_load_start + SIZEOF (.data))

.noinit         0x00800207        0x0
                0x00800207                PROVIDE (__noinit_start, .)
 *(.noinit*)
                0x00800207                PROVIDE (__noinit_end, .)
                0x00800207                _end = .
                0x00800207                PROVIDE (__heap_start, .)

.eeprom         0x00810000        0x0
 *(.eeprom*)
                0x00810000                __eeprom_end = .

.fuse
 *(.fuse)
 *(.lfuse)
 *(.hfuse)
 *(.efuse)

.lock
 *(.lock*)

.signature
 *(.signature*)

.stab           0x00000000     0x1d1c
 *(.stab)
 .stab          0x00000000      0xfb4 ./src/Flash.o
 .stab          0x00000fb4      0xd68 ./src/MegaBoot.o
                                0xf54 (size before relaxing)

.stabstr        0x00000000      0xe03
 *(.stabstr)
 .stabstr       0x00000000      0xe03 ./src/Flash.o

.stab.excl
 *(.stab.excl)

.stab.exclstr
 *(.stab.exclstr)

.stab.index
 *(.stab.index)

.stab.indexstr
 *(.stab.indexstr)

.comment
 *(.comment)

.debug
 *(.debug)

.line
 *(.line)

.debug_srcinfo
 *(.debug_srcinfo)

.debug_sfnames
 *(.debug_sfnames)

.debug_aranges
 *(.debug_aranges)

.debug_pubnames
 *(.debug_pubnames)

.debug_info
 *(.debug_info)
 *(.gnu.linkonce.wi.*)

.debug_abbrev
 *(.debug_abbrev)

.debug_line
 *(.debug_line)

.debug_frame
 *(.debug_frame)

.debug_str
 *(.debug_str)

.debug_loc
 *(.debug_loc)

.debug_macinfo
 *(.debug_macinfo)
OUTPUT(MegabootForMDT_16Mhz.elf elf32-avr)
LOAD linker stubs
