
LC-200_STANDALONE.elf:     file format elf32-avr

Sections:
Idx Name          Size      VMA       LMA       File off  Algn
  0 .data         0000010e  00802200  00008f58  0000900c  2**0
                  CONTENTS, ALLOC, LOAD, DATA
  1 .text         00008f58  00000000  00000000  000000b4  2**1
                  CONTENTS, ALLOC, LOAD, READONLY, CODE
  2 .bss          00004dd7  0080230e  0080230e  0000911a  2**0
                  ALLOC
  3 .eeprom       00000b13  00810000  00810000  0000911a  2**0
                  CONTENTS, ALLOC, LOAD, DATA
  4 .stab         00010aac  00000000  00000000  00009c30  2**2
                  CONTENTS, READONLY, DEBUGGING
  5 .stabstr      00006e4b  00000000  00000000  0001a6dc  2**0
                  CONTENTS, READONLY, DEBUGGING
  6 .debug_aranges 00000180  00000000  00000000  00021527  2**0
                  CONTENTS, READONLY, DEBUGGING
  7 .debug_pubnames 000001d3  00000000  00000000  000216a7  2**0
                  CONTENTS, READONLY, DEBUGGING
  8 .debug_info   0000200f  00000000  00000000  0002187a  2**0
                  CONTENTS, READONLY, DEBUGGING
  9 .debug_abbrev 00001170  00000000  00000000  00023889  2**0
                  CONTENTS, READONLY, DEBUGGING
 10 .debug_line   00001001  00000000  00000000  000249f9  2**0
                  CONTENTS, READONLY, DEBUGGING
 11 .debug_frame  000001a0  00000000  00000000  000259fc  2**2
                  CONTENTS, READONLY, DEBUGGING
 12 .debug_str    000002c1  00000000  00000000  00025b9c  2**0
                  CONTENTS, READONLY, DEBUGGING
 13 .debug_loc    000008ae  00000000  00000000  00025e5d  2**0
                  CONTENTS, READONLY, DEBUGGING
 14 .debug_ranges 00000050  00000000  00000000  0002670b  2**0
                  CONTENTS, READONLY, DEBUGGING

Disassembly of section .text:

00000000 <__vectors>:
       0:	0c 94 72 00 	jmp	0xe4	; 0xe4 <xmem_enable>
       4:	0c 94 9a 00 	jmp	0x134	; 0x134 <__bad_interrupt>
       8:	0c 94 9a 00 	jmp	0x134	; 0x134 <__bad_interrupt>
       c:	0c 94 9a 00 	jmp	0x134	; 0x134 <__bad_interrupt>
      10:	0c 94 9a 00 	jmp	0x134	; 0x134 <__bad_interrupt>
      14:	0c 94 9a 00 	jmp	0x134	; 0x134 <__bad_interrupt>
      18:	0c 94 9a 00 	jmp	0x134	; 0x134 <__bad_interrupt>
      1c:	0c 94 9a 00 	jmp	0x134	; 0x134 <__bad_interrupt>
      20:	0c 94 9a 00 	jmp	0x134	; 0x134 <__bad_interrupt>
      24:	0c 94 9a 00 	jmp	0x134	; 0x134 <__bad_interrupt>
      28:	0c 94 9a 00 	jmp	0x134	; 0x134 <__bad_interrupt>
      2c:	0c 94 9a 00 	jmp	0x134	; 0x134 <__bad_interrupt>
      30:	0c 94 9a 00 	jmp	0x134	; 0x134 <__bad_interrupt>
      34:	0c 94 9a 00 	jmp	0x134	; 0x134 <__bad_interrupt>
      38:	0c 94 9a 00 	jmp	0x134	; 0x134 <__bad_interrupt>
      3c:	0c 94 9a 00 	jmp	0x134	; 0x134 <__bad_interrupt>
      40:	0c 94 9a 00 	jmp	0x134	; 0x134 <__bad_interrupt>
      44:	0c 94 9a 00 	jmp	0x134	; 0x134 <__bad_interrupt>
      48:	0c 94 9a 00 	jmp	0x134	; 0x134 <__bad_interrupt>
      4c:	0c 94 9a 00 	jmp	0x134	; 0x134 <__bad_interrupt>
      50:	0c 94 9a 00 	jmp	0x134	; 0x134 <__bad_interrupt>
      54:	0c 94 9a 00 	jmp	0x134	; 0x134 <__bad_interrupt>
      58:	0c 94 9a 00 	jmp	0x134	; 0x134 <__bad_interrupt>
      5c:	0c 94 9a 00 	jmp	0x134	; 0x134 <__bad_interrupt>
      60:	0c 94 9a 00 	jmp	0x134	; 0x134 <__bad_interrupt>
      64:	0c 94 c2 2c 	jmp	0x5984	; 0x5984 <__vector_25>
      68:	0c 94 f7 2c 	jmp	0x59ee	; 0x59ee <__vector_26>
      6c:	0c 94 2b 2d 	jmp	0x5a56	; 0x5a56 <__vector_27>
      70:	0c 94 9a 00 	jmp	0x134	; 0x134 <__bad_interrupt>
      74:	0c 94 9a 00 	jmp	0x134	; 0x134 <__bad_interrupt>
      78:	0c 94 9a 00 	jmp	0x134	; 0x134 <__bad_interrupt>
      7c:	0c 94 9a 00 	jmp	0x134	; 0x134 <__bad_interrupt>
      80:	0c 94 ed 2b 	jmp	0x57da	; 0x57da <__vector_32>
      84:	0c 94 9a 00 	jmp	0x134	; 0x134 <__bad_interrupt>
      88:	0c 94 9a 00 	jmp	0x134	; 0x134 <__bad_interrupt>
      8c:	0c 94 9a 00 	jmp	0x134	; 0x134 <__bad_interrupt>
      90:	0c 94 85 2d 	jmp	0x5b0a	; 0x5b0a <__vector_36>
      94:	0c 94 ba 2d 	jmp	0x5b74	; 0x5b74 <__vector_37>
      98:	0c 94 ee 2d 	jmp	0x5bdc	; 0x5bdc <__vector_38>
      9c:	0c 94 9a 00 	jmp	0x134	; 0x134 <__bad_interrupt>
      a0:	0c 94 9a 00 	jmp	0x134	; 0x134 <__bad_interrupt>
      a4:	0c 94 9a 00 	jmp	0x134	; 0x134 <__bad_interrupt>
      a8:	0c 94 9a 00 	jmp	0x134	; 0x134 <__bad_interrupt>
      ac:	0c 94 9a 00 	jmp	0x134	; 0x134 <__bad_interrupt>
      b0:	0c 94 9a 00 	jmp	0x134	; 0x134 <__bad_interrupt>
      b4:	0c 94 9a 00 	jmp	0x134	; 0x134 <__bad_interrupt>
      b8:	0c 94 9a 00 	jmp	0x134	; 0x134 <__bad_interrupt>
      bc:	0c 94 9a 00 	jmp	0x134	; 0x134 <__bad_interrupt>
      c0:	0c 94 9a 00 	jmp	0x134	; 0x134 <__bad_interrupt>
      c4:	0c 94 9a 00 	jmp	0x134	; 0x134 <__bad_interrupt>
      c8:	0c 94 9a 00 	jmp	0x134	; 0x134 <__bad_interrupt>
      cc:	0c 94 48 2e 	jmp	0x5c90	; 0x5c90 <__vector_51>
      d0:	0c 94 7d 2e 	jmp	0x5cfa	; 0x5cfa <__vector_52>
      d4:	0c 94 b1 2e 	jmp	0x5d62	; 0x5d62 <__vector_53>
      d8:	0c 94 0b 2f 	jmp	0x5e16	; 0x5e16 <__vector_54>
      dc:	0c 94 40 2f 	jmp	0x5e80	; 0x5e80 <__vector_55>
      e0:	0c 94 74 2f 	jmp	0x5ee8	; 0x5ee8 <__vector_56>

000000e4 <xmem_enable>:
      e4:	90 e8       	ldi	r25, 0x80	; 128
      e6:	95 bf       	out	0x35, r25	; 53
      e8:	8a ec       	ldi	r24, 0xCA	; 202
      ea:	80 93 74 00 	sts	0x0074, r24
      ee:	90 93 75 00 	sts	0x0075, r25
      f2:	11 24       	eor	r1, r1
      f4:	1f be       	out	0x3f, r1	; 63
      f6:	cf ef       	ldi	r28, 0xFF	; 255
      f8:	d1 e2       	ldi	r29, 0x21	; 33
      fa:	de bf       	out	0x3e, r29	; 62
      fc:	cd bf       	out	0x3d, r28	; 61
      fe:	00 e0       	ldi	r16, 0x00	; 0
     100:	0c bf       	out	0x3c, r16	; 60

00000102 <__do_copy_data>:
     102:	13 e2       	ldi	r17, 0x23	; 35
     104:	a0 e0       	ldi	r26, 0x00	; 0
     106:	b2 e2       	ldi	r27, 0x22	; 34
     108:	e8 e5       	ldi	r30, 0x58	; 88
     10a:	ff e8       	ldi	r31, 0x8F	; 143
     10c:	00 e0       	ldi	r16, 0x00	; 0
     10e:	0b bf       	out	0x3b, r16	; 59
     110:	02 c0       	rjmp	.+4      	; 0x116 <__do_copy_data+0x14>
     112:	07 90       	elpm	r0, Z+
     114:	0d 92       	st	X+, r0
     116:	ae 30       	cpi	r26, 0x0E	; 14
     118:	b1 07       	cpc	r27, r17
     11a:	d9 f7       	brne	.-10     	; 0x112 <__do_copy_data+0x10>

0000011c <__do_clear_bss>:
     11c:	10 e7       	ldi	r17, 0x70	; 112
     11e:	ae e0       	ldi	r26, 0x0E	; 14
     120:	b3 e2       	ldi	r27, 0x23	; 35
     122:	01 c0       	rjmp	.+2      	; 0x126 <.do_clear_bss_start>

00000124 <.do_clear_bss_loop>:
     124:	1d 92       	st	X+, r1

00000126 <.do_clear_bss_start>:
     126:	a5 3e       	cpi	r26, 0xE5	; 229
     128:	b1 07       	cpc	r27, r17
     12a:	e1 f7       	brne	.-8      	; 0x124 <.do_clear_bss_loop>
     12c:	0e 94 b7 3f 	call	0x7f6e	; 0x7f6e <main>
     130:	0c 94 aa 47 	jmp	0x8f54	; 0x8f54 <_exit>

00000134 <__bad_interrupt>:
     134:	0c 94 00 00 	jmp	0	; 0x0 <__vectors>

00000138 <findNodeById>:
}

// ---------------------------------------------------------------------------------------------- //
// ------------------ Find Node Mapping Table  ------------------------------------------------------ //
// ---------------------------------------------------------------------------------------------- //
device_Info *findNodeById(uint16 node_Id) {
     138:	ac 01       	movw	r20, r24
	uint8 i = 0;
	for (i = 0; i < deviceInfoTable.size; i++) {
     13a:	30 91 f3 2c 	lds	r19, 0x2CF3
     13e:	e5 ee       	ldi	r30, 0xE5	; 229
     140:	f8 e2       	ldi	r31, 0x28	; 40
     142:	20 e0       	ldi	r18, 0x00	; 0
     144:	0e c0       	rjmp	.+28     	; 0x162 <findNodeById+0x2a>
		if (deviceInfoTable.deviceInfo[i].ieeeId == node_Id)
     146:	80 81       	ld	r24, Z
     148:	91 81       	ldd	r25, Z+1	; 0x01
     14a:	3d 96       	adiw	r30, 0x0d	; 13
     14c:	84 17       	cp	r24, r20
     14e:	95 07       	cpc	r25, r21
     150:	39 f4       	brne	.+14     	; 0x160 <findNodeById+0x28>
			return &(deviceInfoTable.deviceInfo[i]);
     152:	8d e0       	ldi	r24, 0x0D	; 13
     154:	28 9f       	mul	r18, r24
     156:	90 01       	movw	r18, r0
     158:	11 24       	eor	r1, r1
     15a:	2d 51       	subi	r18, 0x1D	; 29
     15c:	37 4d       	sbci	r19, 0xD7	; 215
     15e:	05 c0       	rjmp	.+10     	; 0x16a <findNodeById+0x32>
// ---------------------------------------------------------------------------------------------- //
// ------------------ Find Node Mapping Table  ------------------------------------------------------ //
// ---------------------------------------------------------------------------------------------- //
device_Info *findNodeById(uint16 node_Id) {
	uint8 i = 0;
	for (i = 0; i < deviceInfoTable.size; i++) {
     160:	2f 5f       	subi	r18, 0xFF	; 255
     162:	23 17       	cp	r18, r19
     164:	80 f3       	brcs	.-32     	; 0x146 <findNodeById+0xe>
     166:	20 e0       	ldi	r18, 0x00	; 0
     168:	30 e0       	ldi	r19, 0x00	; 0
		if (deviceInfoTable.deviceInfo[i].ieeeId == node_Id)
			return &(deviceInfoTable.deviceInfo[i]);
	}
	return NULL;
}
     16a:	c9 01       	movw	r24, r18
     16c:	08 95       	ret

0000016e <isContainNodeOfId>:

int isContainNodeOfId(uint16 nodeId) {
     16e:	ac 01       	movw	r20, r24
	uint8 i = 0;
	for (i = 0; i < deviceInfoTable.size; i++)
     170:	30 91 f3 2c 	lds	r19, 0x2CF3
     174:	e5 ee       	ldi	r30, 0xE5	; 229
     176:	f8 e2       	ldi	r31, 0x28	; 40
     178:	20 e0       	ldi	r18, 0x00	; 0
     17a:	0a c0       	rjmp	.+20     	; 0x190 <isContainNodeOfId+0x22>
		if (deviceInfoTable.deviceInfo[i].ieeeId == nodeId)
     17c:	80 81       	ld	r24, Z
     17e:	91 81       	ldd	r25, Z+1	; 0x01
     180:	3d 96       	adiw	r30, 0x0d	; 13
     182:	84 17       	cp	r24, r20
     184:	95 07       	cpc	r25, r21
     186:	19 f4       	brne	.+6      	; 0x18e <isContainNodeOfId+0x20>
     188:	21 e0       	ldi	r18, 0x01	; 1
     18a:	30 e0       	ldi	r19, 0x00	; 0
     18c:	05 c0       	rjmp	.+10     	; 0x198 <isContainNodeOfId+0x2a>
	return NULL;
}

int isContainNodeOfId(uint16 nodeId) {
	uint8 i = 0;
	for (i = 0; i < deviceInfoTable.size; i++)
     18e:	2f 5f       	subi	r18, 0xFF	; 255
     190:	23 17       	cp	r18, r19
     192:	a0 f3       	brcs	.-24     	; 0x17c <isContainNodeOfId+0xe>
     194:	20 e0       	ldi	r18, 0x00	; 0
     196:	30 e0       	ldi	r19, 0x00	; 0
		if (deviceInfoTable.deviceInfo[i].ieeeId == nodeId)
			return 1;
	return 0;
}
     198:	c9 01       	movw	r24, r18
     19a:	08 95       	ret

0000019c <addDeviceTable>:

// ---------------------------------------------------------------------------------------------- //
// ------------------ Add & Update Mapping Table  --------------------------------------------------- //
// ---------------------------------------------------------------------------------------------- //
device_Info *addDeviceTable(uint16 node_Id, uint16 node_Type, uint8 device_version, uint8 fw_version, uint16 netAddr) {
     19c:	ff 92       	push	r15
     19e:	0f 93       	push	r16
     1a0:	1f 93       	push	r17
     1a2:	dc 01       	movw	r26, r24
     1a4:	f2 2e       	mov	r15, r18
	uint8 i = 0;

	if (deviceInfoTable.size >= MaxNumOfDevice)
     1a6:	50 91 f3 2c 	lds	r21, 0x2CF3
     1aa:	50 35       	cpi	r21, 0x50	; 80
     1ac:	f0 f4       	brcc	.+60     	; 0x1ea <addDeviceTable+0x4e>
		return NULL;

	deviceInfoTable.deviceInfo[deviceInfoTable.size].ieeeId = node_Id;
     1ae:	25 2f       	mov	r18, r21
     1b0:	30 e0       	ldi	r19, 0x00	; 0
     1b2:	8d e0       	ldi	r24, 0x0D	; 13
     1b4:	90 e0       	ldi	r25, 0x00	; 0
     1b6:	28 9f       	mul	r18, r24
     1b8:	f0 01       	movw	r30, r0
     1ba:	29 9f       	mul	r18, r25
     1bc:	f0 0d       	add	r31, r0
     1be:	38 9f       	mul	r19, r24
     1c0:	f0 0d       	add	r31, r0
     1c2:	11 24       	eor	r1, r1
     1c4:	ed 51       	subi	r30, 0x1D	; 29
     1c6:	f7 4d       	sbci	r31, 0xD7	; 215
     1c8:	b3 83       	std	Z+3, r27	; 0x03
     1ca:	a2 83       	std	Z+2, r26	; 0x02
	deviceInfoTable.deviceInfo[deviceInfoTable.size].deviceType = node_Type;
     1cc:	71 83       	std	Z+1, r23	; 0x01
     1ce:	60 83       	st	Z, r22
	deviceInfoTable.deviceInfo[deviceInfoTable.size].deviceVersion = device_version;
     1d0:	44 83       	std	Z+4, r20	; 0x04
	deviceInfoTable.deviceInfo[deviceInfoTable.size].fwVersion = fw_version;
     1d2:	f5 82       	std	Z+5, r15	; 0x05
	deviceInfoTable.deviceInfo[deviceInfoTable.size].cnt = 0;
     1d4:	16 82       	std	Z+6, r1	; 0x06
	deviceInfoTable.deviceInfo[deviceInfoTable.size].connectionState = ONLINE;
     1d6:	81 e0       	ldi	r24, 0x01	; 1
     1d8:	80 87       	std	Z+8, r24	; 0x08
	deviceInfoTable.deviceInfo[deviceInfoTable.size].resendCnt = 0;
     1da:	17 82       	std	Z+7, r1	; 0x07
	deviceInfoTable.deviceInfo[deviceInfoTable.size].luxAvr = 0;
     1dc:	12 86       	std	Z+10, r1	; 0x0a
     1de:	11 86       	std	Z+9, r1	; 0x09
	deviceInfoTable.deviceInfo[deviceInfoTable.size].netAddr = netAddr;
     1e0:	14 87       	std	Z+12, r17	; 0x0c
     1e2:	03 87       	std	Z+11, r16	; 0x0b

	deviceInfoTable.size++;
     1e4:	5f 5f       	subi	r21, 0xFF	; 255
     1e6:	50 93 f3 2c 	sts	0x2CF3, r21

	return NULL;
}
     1ea:	80 e0       	ldi	r24, 0x00	; 0
     1ec:	90 e0       	ldi	r25, 0x00	; 0
     1ee:	1f 91       	pop	r17
     1f0:	0f 91       	pop	r16
     1f2:	ff 90       	pop	r15
     1f4:	08 95       	ret

000001f6 <updateDeviceTable>:

int updateDeviceTable(uint16 node_Id, uint16 node_Type, uint8 device_version, uint8 fw_version) {
     1f6:	ef 92       	push	r14
     1f8:	ff 92       	push	r15
     1fa:	0f 93       	push	r16
     1fc:	1f 93       	push	r17
     1fe:	cf 93       	push	r28
     200:	df 93       	push	r29
     202:	8c 01       	movw	r16, r24
     204:	eb 01       	movw	r28, r22
     206:	f4 2e       	mov	r15, r20
     208:	e2 2e       	mov	r14, r18
	device_Info *pUpdate;

	if ((pUpdate = findNodeById(node_Id)) != NULL) {
     20a:	0e 94 9c 00 	call	0x138	; 0x138 <findNodeById>
     20e:	fc 01       	movw	r30, r24
     210:	00 97       	sbiw	r24, 0x00	; 0
     212:	49 f0       	breq	.+18     	; 0x226 <updateDeviceTable+0x30>
		DEBUG("\n    NOT NULL");
		pUpdate->cnt = 0;
     214:	16 82       	std	Z+6, r1	; 0x06
		pUpdate->connectionState = ONLINE;
     216:	81 e0       	ldi	r24, 0x01	; 1
     218:	80 87       	std	Z+8, r24	; 0x08
		pUpdate->resendCnt = 0;
     21a:	17 82       	std	Z+7, r1	; 0x07
		pUpdate->deviceVersion = device_version;
     21c:	f4 82       	std	Z+4, r15	; 0x04
		pUpdate->fwVersion = fw_version;
     21e:	e5 82       	std	Z+5, r14	; 0x05
		pUpdate->deviceType = node_Type;
     220:	d1 83       	std	Z+1, r29	; 0x01
     222:	c0 83       	st	Z, r28
     224:	08 c0       	rjmp	.+16     	; 0x236 <updateDeviceTable+0x40>
	} else {
		addDeviceTable(node_Id, node_Type, device_version, fw_version, 0);
     226:	c8 01       	movw	r24, r16
     228:	be 01       	movw	r22, r28
     22a:	4f 2d       	mov	r20, r15
     22c:	2e 2d       	mov	r18, r14
     22e:	00 e0       	ldi	r16, 0x00	; 0
     230:	10 e0       	ldi	r17, 0x00	; 0
     232:	0e 94 ce 00 	call	0x19c	; 0x19c <addDeviceTable>
	}
	return 0;
}
     236:	80 e0       	ldi	r24, 0x00	; 0
     238:	90 e0       	ldi	r25, 0x00	; 0
     23a:	df 91       	pop	r29
     23c:	cf 91       	pop	r28
     23e:	1f 91       	pop	r17
     240:	0f 91       	pop	r16
     242:	ff 90       	pop	r15
     244:	ef 90       	pop	r14
     246:	08 95       	ret

00000248 <removeNode>:

// ---------------------------------------------------------------------------------------------- //
// ------------------ Remove Node & Mapping Table  ------------------------------------------------- //
// ---------------------------------------------------------------------------------------------- //
void removeNode(uint16 node_Id) {
     248:	bc 01       	movw	r22, r24
	uint8 i = 0, j = 0;

	for (i = 0; i < deviceInfoTable.size; i++) {
     24a:	50 91 f3 2c 	lds	r21, 0x2CF3
     24e:	e5 ee       	ldi	r30, 0xE5	; 229
     250:	f8 e2       	ldi	r31, 0x28	; 40
     252:	20 e0       	ldi	r18, 0x00	; 0
     254:	31 c0       	rjmp	.+98     	; 0x2b8 <removeNode+0x70>
		if (deviceInfoTable.deviceInfo[i].ieeeId == node_Id) {
     256:	80 81       	ld	r24, Z
     258:	91 81       	ldd	r25, Z+1	; 0x01
     25a:	3d 96       	adiw	r30, 0x0d	; 13
     25c:	86 17       	cp	r24, r22
     25e:	97 07       	cpc	r25, r23
     260:	51 f5       	brne	.+84     	; 0x2b6 <removeNode+0x6e>
     262:	42 2f       	mov	r20, r18
			for (j = i; j < deviceInfoTable.size - 1; j++)
     264:	25 2f       	mov	r18, r21
     266:	30 e0       	ldi	r19, 0x00	; 0
     268:	21 50       	subi	r18, 0x01	; 1
     26a:	30 40       	sbci	r19, 0x00	; 0
				deviceInfoTable.deviceInfo[j] = deviceInfoTable.deviceInfo[j + 1];
     26c:	6d e0       	ldi	r22, 0x0D	; 13
     26e:	70 e0       	ldi	r23, 0x00	; 0
     270:	19 c0       	rjmp	.+50     	; 0x2a4 <removeNode+0x5c>
     272:	86 9f       	mul	r24, r22
     274:	d0 01       	movw	r26, r0
     276:	87 9f       	mul	r24, r23
     278:	b0 0d       	add	r27, r0
     27a:	96 9f       	mul	r25, r22
     27c:	b0 0d       	add	r27, r0
     27e:	11 24       	eor	r1, r1
     280:	01 96       	adiw	r24, 0x01	; 1
     282:	86 9f       	mul	r24, r22
     284:	f0 01       	movw	r30, r0
     286:	87 9f       	mul	r24, r23
     288:	f0 0d       	add	r31, r0
     28a:	96 9f       	mul	r25, r22
     28c:	f0 0d       	add	r31, r0
     28e:	11 24       	eor	r1, r1
     290:	ad 51       	subi	r26, 0x1D	; 29
     292:	b7 4d       	sbci	r27, 0xD7	; 215
     294:	ed 51       	subi	r30, 0x1D	; 29
     296:	f7 4d       	sbci	r31, 0xD7	; 215
     298:	8d e0       	ldi	r24, 0x0D	; 13
     29a:	01 90       	ld	r0, Z+
     29c:	0d 92       	st	X+, r0
     29e:	81 50       	subi	r24, 0x01	; 1
     2a0:	e1 f7       	brne	.-8      	; 0x29a <removeNode+0x52>
void removeNode(uint16 node_Id) {
	uint8 i = 0, j = 0;

	for (i = 0; i < deviceInfoTable.size; i++) {
		if (deviceInfoTable.deviceInfo[i].ieeeId == node_Id) {
			for (j = i; j < deviceInfoTable.size - 1; j++)
     2a2:	4f 5f       	subi	r20, 0xFF	; 255
     2a4:	84 2f       	mov	r24, r20
     2a6:	90 e0       	ldi	r25, 0x00	; 0
     2a8:	82 17       	cp	r24, r18
     2aa:	93 07       	cpc	r25, r19
     2ac:	14 f3       	brlt	.-60     	; 0x272 <removeNode+0x2a>
				deviceInfoTable.deviceInfo[j] = deviceInfoTable.deviceInfo[j + 1];
			deviceInfoTable.size--;
     2ae:	51 50       	subi	r21, 0x01	; 1
     2b0:	50 93 f3 2c 	sts	0x2CF3, r21
     2b4:	08 95       	ret
// ------------------ Remove Node & Mapping Table  ------------------------------------------------- //
// ---------------------------------------------------------------------------------------------- //
void removeNode(uint16 node_Id) {
	uint8 i = 0, j = 0;

	for (i = 0; i < deviceInfoTable.size; i++) {
     2b6:	2f 5f       	subi	r18, 0xFF	; 255
     2b8:	25 17       	cp	r18, r21
     2ba:	68 f2       	brcs	.-102    	; 0x256 <removeNode+0xe>
     2bc:	08 95       	ret

000002be <removeDeviceTable>:
		}
	}
}

void removeDeviceTable() {
	deviceInfoTable.size = 0;
     2be:	10 92 f3 2c 	sts	0x2CF3, r1
}
     2c2:	08 95       	ret

000002c4 <countDeviceTable>:

// ---------------------------------------------------------------------------------------------- //
// ------------------ Count Node & Device Table  ---------------------------------------------------- //
// ---------------------------------------------------------------------------------------------- //
uint8 countDeviceTable(uint16 node_Type) {
     2c4:	bc 01       	movw	r22, r24
	uint8 device_count = 0;
	uint8 i = 0;

	for (i = 0; i < deviceInfoTable.size; i++)
     2c6:	90 91 f3 2c 	lds	r25, 0x2CF3
     2ca:	e3 ee       	ldi	r30, 0xE3	; 227
     2cc:	f8 e2       	ldi	r31, 0x28	; 40
     2ce:	40 e0       	ldi	r20, 0x00	; 0
     2d0:	8d e0       	ldi	r24, 0x0D	; 13
     2d2:	98 9f       	mul	r25, r24
     2d4:	90 01       	movw	r18, r0
     2d6:	11 24       	eor	r1, r1
     2d8:	2e 0f       	add	r18, r30
     2da:	3f 1f       	adc	r19, r31
     2dc:	07 c0       	rjmp	.+14     	; 0x2ec <countDeviceTable+0x28>
		if (deviceInfoTable.deviceInfo[i].deviceType == node_Type)
     2de:	80 81       	ld	r24, Z
     2e0:	91 81       	ldd	r25, Z+1	; 0x01
     2e2:	86 17       	cp	r24, r22
     2e4:	97 07       	cpc	r25, r23
     2e6:	09 f4       	brne	.+2      	; 0x2ea <countDeviceTable+0x26>
			device_count++;
     2e8:	4f 5f       	subi	r20, 0xFF	; 255
     2ea:	3d 96       	adiw	r30, 0x0d	; 13
// ---------------------------------------------------------------------------------------------- //
uint8 countDeviceTable(uint16 node_Type) {
	uint8 device_count = 0;
	uint8 i = 0;

	for (i = 0; i < deviceInfoTable.size; i++)
     2ec:	e2 17       	cp	r30, r18
     2ee:	f3 07       	cpc	r31, r19
     2f0:	b1 f7       	brne	.-20     	; 0x2de <countDeviceTable+0x1a>
		if (deviceInfoTable.deviceInfo[i].deviceType == node_Type)
			device_count++;
	return device_count;

}
     2f2:	84 2f       	mov	r24, r20
     2f4:	08 95       	ret

000002f6 <countDevice>:

uint8 countDevice() {
	return deviceInfoTable.size;
}
     2f6:	80 91 f3 2c 	lds	r24, 0x2CF3
     2fa:	08 95       	ret

000002fc <deviceInfo_UpdateSSRInfo>:
// ---------------------------------------------------------------------------------------------- //
// ------------------ Get Node ID Table  ----------------------------------------------------------- //
// ---------------------------------------------------------------------------------------------- //

void deviceInfo_UpdateSSRInfo() {
	tmp_PrevCircuitInfo = tmp_CircuitInfo;
     2fc:	a4 ef       	ldi	r26, 0xF4	; 244
     2fe:	bc e2       	ldi	r27, 0x2C	; 44
     300:	e3 e1       	ldi	r30, 0x13	; 19
     302:	f5 e2       	ldi	r31, 0x25	; 37
     304:	80 ee       	ldi	r24, 0xE0	; 224
     306:	91 e0       	ldi	r25, 0x01	; 1
     308:	01 90       	ld	r0, Z+
     30a:	0d 92       	st	X+, r0
     30c:	01 97       	sbiw	r24, 0x01	; 1
     30e:	e1 f7       	brne	.-8      	; 0x308 <deviceInfo_UpdateSSRInfo+0xc>
}
     310:	08 95       	ret

00000312 <deviceInfo_IsUpdatedSSRInfo>:

int deviceInfo_IsUpdatedSSRInfo() {
     312:	cf 93       	push	r28
     314:	df 93       	push	r29
     316:	e4 e0       	ldi	r30, 0x04	; 4
     318:	fd e2       	ldi	r31, 0x2D	; 45
     31a:	a3 e2       	ldi	r26, 0x23	; 35
     31c:	b5 e2       	ldi	r27, 0x25	; 37
     31e:	af 01       	movw	r20, r30
     320:	40 5f       	subi	r20, 0xF0	; 240
     322:	5f 4f       	sbci	r21, 0xFF	; 255
     324:	bd 01       	movw	r22, r26
     326:	60 5f       	subi	r22, 0xF0	; 240
     328:	7f 4f       	sbci	r23, 0xFF	; 255
	uint8 i = 0;
	for (i = 0; i < NumOfChannels; i++) {
		if (tmp_PrevCircuitInfo.state[i] != tmp_CircuitInfo.state[i])
     32a:	90 81       	ld	r25, Z
     32c:	8c 91       	ld	r24, X
     32e:	98 17       	cp	r25, r24
     330:	b1 f4       	brne	.+44     	; 0x35e <deviceInfo_IsUpdatedSSRInfo+0x4c>
			return 1;
		if (tmp_PrevCircuitInfo.expirationTime[i] != tmp_CircuitInfo.expirationTime[i])
     332:	ea 01       	movw	r28, r20
     334:	28 81       	ld	r18, Y
     336:	39 81       	ldd	r19, Y+1	; 0x01
     338:	eb 01       	movw	r28, r22
     33a:	88 81       	ld	r24, Y
     33c:	99 81       	ldd	r25, Y+1	; 0x01
     33e:	28 17       	cp	r18, r24
     340:	39 07       	cpc	r19, r25
     342:	69 f4       	brne	.+26     	; 0x35e <deviceInfo_IsUpdatedSSRInfo+0x4c>
     344:	31 96       	adiw	r30, 0x01	; 1
     346:	11 96       	adiw	r26, 0x01	; 1
     348:	4e 5f       	subi	r20, 0xFE	; 254
     34a:	5f 4f       	sbci	r21, 0xFF	; 255
     34c:	6e 5f       	subi	r22, 0xFE	; 254
     34e:	7f 4f       	sbci	r23, 0xFF	; 255
	tmp_PrevCircuitInfo = tmp_CircuitInfo;
}

int deviceInfo_IsUpdatedSSRInfo() {
	uint8 i = 0;
	for (i = 0; i < NumOfChannels; i++) {
     350:	8d e2       	ldi	r24, 0x2D	; 45
     352:	e4 31       	cpi	r30, 0x14	; 20
     354:	f8 07       	cpc	r31, r24
     356:	49 f7       	brne	.-46     	; 0x32a <deviceInfo_IsUpdatedSSRInfo+0x18>
     358:	20 e0       	ldi	r18, 0x00	; 0
     35a:	30 e0       	ldi	r19, 0x00	; 0
     35c:	02 c0       	rjmp	.+4      	; 0x362 <deviceInfo_IsUpdatedSSRInfo+0x50>
     35e:	21 e0       	ldi	r18, 0x01	; 1
     360:	30 e0       	ldi	r19, 0x00	; 0
		if (tmp_PrevCircuitInfo.expirationTime[i] != tmp_CircuitInfo.expirationTime[i])
			return 1;
	}

	return 0;
}
     362:	c9 01       	movw	r24, r18
     364:	df 91       	pop	r29
     366:	cf 91       	pop	r28
     368:	08 95       	ret

0000036a <initDeviceTable>:
 uint8 prevIlluState[NumOfChannels][11];
 uint8 prevIlluStateAge[NumOfChannels][11];
 }Circuit_State_Info;
 */

void initDeviceTable() {
     36a:	af 92       	push	r10
     36c:	bf 92       	push	r11
     36e:	cf 92       	push	r12
     370:	df 92       	push	r13
     372:	ef 92       	push	r14
     374:	ff 92       	push	r15
     376:	0f 93       	push	r16
     378:	1f 93       	push	r17
     37a:	cf 93       	push	r28
     37c:	df 93       	push	r29
	uint8 i = 0;
	uint8 j = 0;
	deviceInfoTable.size = 0;
     37e:	10 92 f3 2c 	sts	0x2CF3, r1

	//eeprom_read_block(&tmp_CircuitInfo, &ee_SSRInfo, sizeof(Circuit_State_Info));

	flash_readBytes(FLASH_ADDRESS_DEVICEINFO, tempBuffForDeviceInfo, 255);
     382:	82 e0       	ldi	r24, 0x02	; 2
     384:	90 e0       	ldi	r25, 0x00	; 0
     386:	64 e1       	ldi	r22, 0x14	; 20
     388:	74 e2       	ldi	r23, 0x24	; 36
     38a:	4f ef       	ldi	r20, 0xFF	; 255
     38c:	0e 94 0e 08 	call	0x101c	; 0x101c <flash_readBytes>
     390:	c4 e1       	ldi	r28, 0x14	; 20
     392:	d4 e2       	ldi	r29, 0x24	; 36
     394:	93 e1       	ldi	r25, 0x13	; 19
     396:	c9 2e       	mov	r12, r25
     398:	95 e2       	ldi	r25, 0x25	; 37
     39a:	d9 2e       	mov	r13, r25
     39c:	fe 01       	movw	r30, r28
     39e:	b0 96       	adiw	r30, 0x20	; 32
     3a0:	80 e2       	ldi	r24, 0x20	; 32
     3a2:	e8 2e       	mov	r14, r24
     3a4:	f1 2c       	mov	r15, r1
     3a6:	ec 0c       	add	r14, r12
     3a8:	fd 1c       	adc	r15, r13
     3aa:	04 e7       	ldi	r16, 0x74	; 116
     3ac:	14 e2       	ldi	r17, 0x24	; 36
     3ae:	63 e7       	ldi	r22, 0x73	; 115
     3b0:	75 e2       	ldi	r23, 0x25	; 37
     3b2:	56 01       	movw	r10, r12
	for (i = 0; i < NumOfChannels; i++) {
		wdt_reset();
     3b4:	a8 95       	wdr
		tmp_CircuitInfo.ctrlMode[i] = tempBuffForDeviceInfo[0 + i];
     3b6:	88 81       	ld	r24, Y
     3b8:	d5 01       	movw	r26, r10
     3ba:	8c 93       	st	X, r24
		tmp_CircuitInfo.state[i] = tempBuffForDeviceInfo[NumOfChannels + i];
     3bc:	88 89       	ldd	r24, Y+16	; 0x10
     3be:	50 96       	adiw	r26, 0x10	; 16
     3c0:	8c 93       	st	X, r24
		tmp_CircuitInfo.expirationTime[i] = tempBuffForDeviceInfo[NumOfChannels * 2 + i * 2] << 8 | tempBuffForDeviceInfo[NumOfChannels * 2 + i * 2 + 1];
     3c2:	50 81       	ld	r21, Z
     3c4:	40 e0       	ldi	r20, 0x00	; 0
     3c6:	81 81       	ldd	r24, Z+1	; 0x01
     3c8:	90 e0       	ldi	r25, 0x00	; 0
     3ca:	84 2b       	or	r24, r20
     3cc:	95 2b       	or	r25, r21
     3ce:	d7 01       	movw	r26, r14
     3d0:	11 96       	adiw	r26, 0x01	; 1
     3d2:	9c 93       	st	X, r25
     3d4:	8e 93       	st	-X, r24
		tmp_CircuitInfo.timerCnt[i] = tempBuffForDeviceInfo[NumOfChannels * 4 + i * 2] << 8 | tempBuffForDeviceInfo[NumOfChannels * 4 + i * 2 + 1];
     3d6:	30 a1       	ldd	r19, Z+32	; 0x20
     3d8:	20 e0       	ldi	r18, 0x00	; 0
     3da:	81 a1       	ldd	r24, Z+33	; 0x21
     3dc:	90 e0       	ldi	r25, 0x00	; 0
     3de:	82 2b       	or	r24, r18
     3e0:	93 2b       	or	r25, r19
     3e2:	91 96       	adiw	r26, 0x21	; 33
     3e4:	9c 93       	st	X, r25
     3e6:	8e 93       	st	-X, r24
     3e8:	90 97       	sbiw	r26, 0x20	; 32
		tmp_CircuitInfo.onCtrlMode[i] = tempBuffForDeviceInfo[NumOfChannels * 6 + i];
     3ea:	d8 01       	movw	r26, r16
     3ec:	8c 91       	ld	r24, X
     3ee:	db 01       	movw	r26, r22
     3f0:	8c 93       	st	X, r24
		tmp_CircuitInfo.offCtrlMode[i] = tempBuffForDeviceInfo[NumOfChannels * 7 + i];
     3f2:	d8 01       	movw	r26, r16
     3f4:	50 96       	adiw	r26, 0x10	; 16
     3f6:	8c 91       	ld	r24, X
     3f8:	db 01       	movw	r26, r22
     3fa:	50 96       	adiw	r26, 0x10	; 16
     3fc:	8c 93       	st	X, r24
     3fe:	21 96       	adiw	r28, 0x01	; 1
     400:	08 94       	sec
     402:	a1 1c       	adc	r10, r1
     404:	b1 1c       	adc	r11, r1
     406:	32 96       	adiw	r30, 0x02	; 2
     408:	82 e0       	ldi	r24, 0x02	; 2
     40a:	90 e0       	ldi	r25, 0x00	; 0
     40c:	e8 0e       	add	r14, r24
     40e:	f9 1e       	adc	r15, r25
     410:	0f 5f       	subi	r16, 0xFF	; 255
     412:	1f 4f       	sbci	r17, 0xFF	; 255
     414:	6f 5f       	subi	r22, 0xFF	; 255
     416:	7f 4f       	sbci	r23, 0xFF	; 255
	deviceInfoTable.size = 0;

	//eeprom_read_block(&tmp_CircuitInfo, &ee_SSRInfo, sizeof(Circuit_State_Info));

	flash_readBytes(FLASH_ADDRESS_DEVICEINFO, tempBuffForDeviceInfo, 255);
	for (i = 0; i < NumOfChannels; i++) {
     418:	94 e2       	ldi	r25, 0x24	; 36
     41a:	c4 32       	cpi	r28, 0x24	; 36
     41c:	d9 07       	cpc	r29, r25
     41e:	51 f6       	brne	.-108    	; 0x3b4 <initDeviceTable+0x4a>
		tmp_CircuitInfo.timerCnt[i] = tempBuffForDeviceInfo[NumOfChannels * 4 + i * 2] << 8 | tempBuffForDeviceInfo[NumOfChannels * 4 + i * 2 + 1];
		tmp_CircuitInfo.onCtrlMode[i] = tempBuffForDeviceInfo[NumOfChannels * 6 + i];
		tmp_CircuitInfo.offCtrlMode[i] = tempBuffForDeviceInfo[NumOfChannels * 7 + i];
	}

	flash_readBytes(FLASH_ADDRESS_DEVICEINFO + 1, tempBuffForDeviceInfo, 255);
     420:	60 97       	sbiw	r28, 0x10	; 16
     422:	83 e0       	ldi	r24, 0x03	; 3
     424:	90 e0       	ldi	r25, 0x00	; 0
     426:	be 01       	movw	r22, r28
     428:	4f ef       	ldi	r20, 0xFF	; 255
     42a:	0e 94 0e 08 	call	0x101c	; 0x101c <flash_readBytes>
     42e:	2b 96       	adiw	r28, 0x0b	; 11
     430:	ae e9       	ldi	r26, 0x9E	; 158
     432:	b5 e2       	ldi	r27, 0x25	; 37
     434:	fe 01       	movw	r30, r28
	for (i = 0; i < NumOfChannels; i++) {
		wdt_reset();
     436:	a8 95       	wdr
     438:	80 e0       	ldi	r24, 0x00	; 0
		for (j = 0; j < 11; j++)
			wdt_reset();
     43a:	a8 95       	wdr
	}

	flash_readBytes(FLASH_ADDRESS_DEVICEINFO + 1, tempBuffForDeviceInfo, 255);
	for (i = 0; i < NumOfChannels; i++) {
		wdt_reset();
		for (j = 0; j < 11; j++)
     43c:	8f 5f       	subi	r24, 0xFF	; 255
     43e:	8b 30       	cpi	r24, 0x0B	; 11
     440:	e1 f7       	brne	.-8      	; 0x43a <initDeviceTable+0xd0>
			wdt_reset();
		tmp_CircuitInfo.prevIlluState[i][j] = tempBuffForDeviceInfo[i * 11 + j];
     442:	80 81       	ld	r24, Z
     444:	8c 93       	st	X, r24
     446:	3b 96       	adiw	r30, 0x0b	; 11
     448:	1b 96       	adiw	r26, 0x0b	; 11
		tmp_CircuitInfo.onCtrlMode[i] = tempBuffForDeviceInfo[NumOfChannels * 6 + i];
		tmp_CircuitInfo.offCtrlMode[i] = tempBuffForDeviceInfo[NumOfChannels * 7 + i];
	}

	flash_readBytes(FLASH_ADDRESS_DEVICEINFO + 1, tempBuffForDeviceInfo, 255);
	for (i = 0; i < NumOfChannels; i++) {
     44a:	84 e2       	ldi	r24, 0x24	; 36
     44c:	ef 3c       	cpi	r30, 0xCF	; 207
     44e:	f8 07       	cpc	r31, r24
     450:	91 f7       	brne	.-28     	; 0x436 <initDeviceTable+0xcc>
		wdt_reset();
		for (j = 0; j < 11; j++)
			wdt_reset();
		tmp_CircuitInfo.prevIlluState[i][j] = tempBuffForDeviceInfo[i * 11 + j];
	}
	flash_readBytes(FLASH_ADDRESS_DEVICEINFO + 2, tempBuffForDeviceInfo, 255);
     452:	84 e0       	ldi	r24, 0x04	; 4
     454:	90 e0       	ldi	r25, 0x00	; 0
     456:	64 e1       	ldi	r22, 0x14	; 20
     458:	74 e2       	ldi	r23, 0x24	; 36
     45a:	4f ef       	ldi	r20, 0xFF	; 255
     45c:	0e 94 0e 08 	call	0x101c	; 0x101c <flash_readBytes>
     460:	ee e4       	ldi	r30, 0x4E	; 78
     462:	f6 e2       	ldi	r31, 0x26	; 38
	for (i = 0; i < NumOfChannels; i++) {
		wdt_reset();
     464:	a8 95       	wdr
     466:	80 e0       	ldi	r24, 0x00	; 0
		for (j = 0; j < 11; j++)
			wdt_reset();
     468:	a8 95       	wdr
		tmp_CircuitInfo.prevIlluState[i][j] = tempBuffForDeviceInfo[i * 11 + j];
	}
	flash_readBytes(FLASH_ADDRESS_DEVICEINFO + 2, tempBuffForDeviceInfo, 255);
	for (i = 0; i < NumOfChannels; i++) {
		wdt_reset();
		for (j = 0; j < 11; j++)
     46a:	8f 5f       	subi	r24, 0xFF	; 255
     46c:	8b 30       	cpi	r24, 0x0B	; 11
     46e:	e1 f7       	brne	.-8      	; 0x468 <initDeviceTable+0xfe>
			wdt_reset();
		tmp_CircuitInfo.prevIlluStateAge[i][j] = tempBuffForDeviceInfo[i * 11 + j];
     470:	88 81       	ld	r24, Y
     472:	80 83       	st	Z, r24
     474:	2b 96       	adiw	r28, 0x0b	; 11
     476:	3b 96       	adiw	r30, 0x0b	; 11
		for (j = 0; j < 11; j++)
			wdt_reset();
		tmp_CircuitInfo.prevIlluState[i][j] = tempBuffForDeviceInfo[i * 11 + j];
	}
	flash_readBytes(FLASH_ADDRESS_DEVICEINFO + 2, tempBuffForDeviceInfo, 255);
	for (i = 0; i < NumOfChannels; i++) {
     478:	94 e2       	ldi	r25, 0x24	; 36
     47a:	cf 3c       	cpi	r28, 0xCF	; 207
     47c:	d9 07       	cpc	r29, r25
     47e:	91 f7       	brne	.-28     	; 0x464 <initDeviceTable+0xfa>
     480:	a3 e5       	ldi	r26, 0x53	; 83
     482:	b5 e2       	ldi	r27, 0x25	; 37
     484:	20 e0       	ldi	r18, 0x00	; 0
     486:	30 e0       	ldi	r19, 0x00	; 0
		tmp_CircuitInfo.prevIlluStateAge[i][j] = tempBuffForDeviceInfo[i * 11 + j];
	}

	for (i = 0; i < NumOfChannels; i++) {
		if (tmp_CircuitInfo.ctrlMode[i] == 0xff)
			tmp_CircuitInfo.ctrlMode[i] = ON;
     488:	91 e0       	ldi	r25, 0x01	; 1
		tmp_CircuitInfo.timerCnt[i] = 0;
     48a:	4b e0       	ldi	r20, 0x0B	; 11
     48c:	50 e0       	ldi	r21, 0x00	; 0
			wdt_reset();
		tmp_CircuitInfo.prevIlluStateAge[i][j] = tempBuffForDeviceInfo[i * 11 + j];
	}

	for (i = 0; i < NumOfChannels; i++) {
		if (tmp_CircuitInfo.ctrlMode[i] == 0xff)
     48e:	f6 01       	movw	r30, r12
     490:	80 81       	ld	r24, Z
     492:	8f 3f       	cpi	r24, 0xFF	; 255
     494:	09 f4       	brne	.+2      	; 0x498 <initDeviceTable+0x12e>
			tmp_CircuitInfo.ctrlMode[i] = ON;
     496:	90 83       	st	Z, r25
		tmp_CircuitInfo.timerCnt[i] = 0;
     498:	11 96       	adiw	r26, 0x01	; 1
     49a:	1c 92       	st	X, r1
     49c:	1e 92       	st	-X, r1
     49e:	24 9f       	mul	r18, r20
     4a0:	f0 01       	movw	r30, r0
     4a2:	25 9f       	mul	r18, r21
     4a4:	f0 0d       	add	r31, r0
     4a6:	34 9f       	mul	r19, r20
     4a8:	f0 0d       	add	r31, r0
     4aa:	11 24       	eor	r1, r1
     4ac:	ed 56       	subi	r30, 0x6D	; 109
     4ae:	fa 4d       	sbci	r31, 0xDA	; 218
     4b0:	80 e1       	ldi	r24, 0x10	; 16
		for (j = 0; j < 11; j++) {
			tmp_CircuitInfo.prevIlluState[i][j] = DIMMING_0 + j;
     4b2:	80 83       	st	Z, r24
			tmp_CircuitInfo.prevIlluStateAge[i][j] = 0;
     4b4:	e0 55       	subi	r30, 0x50	; 80
     4b6:	ff 4f       	sbci	r31, 0xFF	; 255
     4b8:	10 82       	st	Z, r1
     4ba:	ef 5a       	subi	r30, 0xAF	; 175
     4bc:	f0 40       	sbci	r31, 0x00	; 0
     4be:	8f 5f       	subi	r24, 0xFF	; 255

	for (i = 0; i < NumOfChannels; i++) {
		if (tmp_CircuitInfo.ctrlMode[i] == 0xff)
			tmp_CircuitInfo.ctrlMode[i] = ON;
		tmp_CircuitInfo.timerCnt[i] = 0;
		for (j = 0; j < 11; j++) {
     4c0:	8b 31       	cpi	r24, 0x1B	; 27
     4c2:	b9 f7       	brne	.-18     	; 0x4b2 <initDeviceTable+0x148>
     4c4:	2f 5f       	subi	r18, 0xFF	; 255
     4c6:	3f 4f       	sbci	r19, 0xFF	; 255
     4c8:	08 94       	sec
     4ca:	c1 1c       	adc	r12, r1
     4cc:	d1 1c       	adc	r13, r1
     4ce:	12 96       	adiw	r26, 0x02	; 2
		for (j = 0; j < 11; j++)
			wdt_reset();
		tmp_CircuitInfo.prevIlluStateAge[i][j] = tempBuffForDeviceInfo[i * 11 + j];
	}

	for (i = 0; i < NumOfChannels; i++) {
     4d0:	20 31       	cpi	r18, 0x10	; 16
     4d2:	31 05       	cpc	r19, r1
     4d4:	e1 f6       	brne	.-72     	; 0x48e <initDeviceTable+0x124>
		for (j = 0; j < 11; j++) {
			tmp_CircuitInfo.prevIlluState[i][j] = DIMMING_0 + j;
			tmp_CircuitInfo.prevIlluStateAge[i][j] = 0;
		}
	}
}
     4d6:	df 91       	pop	r29
     4d8:	cf 91       	pop	r28
     4da:	1f 91       	pop	r17
     4dc:	0f 91       	pop	r16
     4de:	ff 90       	pop	r15
     4e0:	ef 90       	pop	r14
     4e2:	df 90       	pop	r13
     4e4:	cf 90       	pop	r12
     4e6:	bf 90       	pop	r11
     4e8:	af 90       	pop	r10
     4ea:	08 95       	ret

000004ec <ssrInfo_WriteToEEPRomOfIndex>:
			tempBuffForDeviceInfo[i * 11 + j] = tmp_CircuitInfo.prevIlluStateAge[i][j];
	}
	flash_writeBytes(FLASH_ADDRESS_DEVICEINFO + 2, tempBuffForDeviceInfo, 255);
}

void ssrInfo_WriteToEEPRomOfIndex(uint8 circuitId) {
     4ec:	ef 92       	push	r14
     4ee:	ff 92       	push	r15
     4f0:	0f 93       	push	r16
     4f2:	1f 93       	push	r17
     4f4:	cf 93       	push	r28
     4f6:	df 93       	push	r29
     4f8:	18 2f       	mov	r17, r24
	/* eeprom_write_block(&(tmp_CircuitInfo.ctrlMode[circuitId]), &(ee_SSRInfo.ctrlMode[circuitId]),
	 sizeof(uint8));
	 eeprom_write_block(&(tmp_CircuitInfo.expirationTime[circuitId]),
	 &(ee_SSRInfo.expirationTime[circuitId]), sizeof(uint16));*/

	flash_readBytes(FLASH_ADDRESS_DEVICEINFO, tempBuffForDeviceInfo, 255);
     4fa:	82 e0       	ldi	r24, 0x02	; 2
     4fc:	90 e0       	ldi	r25, 0x00	; 0
     4fe:	64 e1       	ldi	r22, 0x14	; 20
     500:	74 e2       	ldi	r23, 0x24	; 36
     502:	4f ef       	ldi	r20, 0xFF	; 255
     504:	0e 94 0e 08 	call	0x101c	; 0x101c <flash_readBytes>
	tempBuffForDeviceInfo[0 + circuitId] = tmp_CircuitInfo.ctrlMode[circuitId];
     508:	c1 2f       	mov	r28, r17
     50a:	d0 e0       	ldi	r29, 0x00	; 0
     50c:	ae 01       	movw	r20, r28
     50e:	4c 5e       	subi	r20, 0xEC	; 236
     510:	5b 4d       	sbci	r21, 0xDB	; 219
     512:	9e 01       	movw	r18, r28
     514:	2d 5e       	subi	r18, 0xED	; 237
     516:	3a 4d       	sbci	r19, 0xDA	; 218
     518:	d9 01       	movw	r26, r18
     51a:	8c 91       	ld	r24, X
     51c:	fa 01       	movw	r30, r20
     51e:	80 83       	st	Z, r24
	tempBuffForDeviceInfo[NumOfChannels + circuitId] = tmp_CircuitInfo.state[circuitId];
     520:	fe 01       	movw	r30, r28
     522:	70 96       	adiw	r30, 0x10	; 16
     524:	bf 01       	movw	r22, r30
     526:	6c 5e       	subi	r22, 0xEC	; 236
     528:	7b 4d       	sbci	r23, 0xDB	; 219
     52a:	50 96       	adiw	r26, 0x10	; 16
     52c:	8c 91       	ld	r24, X
     52e:	db 01       	movw	r26, r22
     530:	8c 93       	st	X, r24
	tempBuffForDeviceInfo[NumOfChannels * 2 + circuitId * 2] = tmp_CircuitInfo.expirationTime[circuitId] >> 8;
     532:	ee 0f       	add	r30, r30
     534:	ff 1f       	adc	r31, r31
     536:	df 01       	movw	r26, r30
     538:	ad 5e       	subi	r26, 0xED	; 237
     53a:	ba 4d       	sbci	r27, 0xDA	; 218
     53c:	9c 91       	ld	r25, X
     53e:	11 96       	adiw	r26, 0x01	; 1
     540:	8c 91       	ld	r24, X
     542:	ec 5e       	subi	r30, 0xEC	; 236
     544:	fb 4d       	sbci	r31, 0xDB	; 219
     546:	80 83       	st	Z, r24
	tempBuffForDeviceInfo[NumOfChannels * 2 + circuitId * 2 + 1] = tmp_CircuitInfo.expirationTime[circuitId];
     548:	91 83       	std	Z+1, r25	; 0x01
	tempBuffForDeviceInfo[NumOfChannels * 4 + circuitId * 2] = tmp_CircuitInfo.timerCnt[circuitId] >> 8;
     54a:	a0 96       	adiw	r28, 0x20	; 32
     54c:	fe 01       	movw	r30, r28
     54e:	ee 0f       	add	r30, r30
     550:	ff 1f       	adc	r31, r31
     552:	a0 97       	sbiw	r28, 0x20	; 32
     554:	df 01       	movw	r26, r30
     556:	ad 5e       	subi	r26, 0xED	; 237
     558:	ba 4d       	sbci	r27, 0xDA	; 218
     55a:	9c 91       	ld	r25, X
     55c:	11 96       	adiw	r26, 0x01	; 1
     55e:	8c 91       	ld	r24, X
     560:	ec 5e       	subi	r30, 0xEC	; 236
     562:	fb 4d       	sbci	r31, 0xDB	; 219
     564:	80 83       	st	Z, r24
	tempBuffForDeviceInfo[NumOfChannels * 4 + circuitId * 2 + 1] = tmp_CircuitInfo.timerCnt[circuitId];
     566:	91 83       	std	Z+1, r25	; 0x01
	tempBuffForDeviceInfo[NumOfChannels * 6 + circuitId] = tmp_CircuitInfo.onCtrlMode[circuitId];
     568:	40 5a       	subi	r20, 0xA0	; 160
     56a:	5f 4f       	sbci	r21, 0xFF	; 255
     56c:	20 5a       	subi	r18, 0xA0	; 160
     56e:	3f 4f       	sbci	r19, 0xFF	; 255
     570:	f9 01       	movw	r30, r18
     572:	80 81       	ld	r24, Z
     574:	da 01       	movw	r26, r20
     576:	8c 93       	st	X, r24
	tempBuffForDeviceInfo[NumOfChannels * 7 + circuitId] = tmp_CircuitInfo.offCtrlMode[circuitId];
     578:	40 5f       	subi	r20, 0xF0	; 240
     57a:	5f 4f       	sbci	r21, 0xFF	; 255
     57c:	20 5f       	subi	r18, 0xF0	; 240
     57e:	3f 4f       	sbci	r19, 0xFF	; 255
     580:	f9 01       	movw	r30, r18
     582:	80 81       	ld	r24, Z
     584:	da 01       	movw	r26, r20
     586:	8c 93       	st	X, r24
	flash_writeBytes(FLASH_ADDRESS_DEVICEINFO, tempBuffForDeviceInfo, 255);
     588:	82 e0       	ldi	r24, 0x02	; 2
     58a:	90 e0       	ldi	r25, 0x00	; 0
     58c:	64 e1       	ldi	r22, 0x14	; 20
     58e:	74 e2       	ldi	r23, 0x24	; 36
     590:	4f ef       	ldi	r20, 0xFF	; 255
     592:	0e 94 fa 07 	call	0xff4	; 0xff4 <flash_writeBytes>

	flash_readBytes(FLASH_ADDRESS_DEVICEINFO + 1, tempBuffForDeviceInfo, 255);
     596:	83 e0       	ldi	r24, 0x03	; 3
     598:	90 e0       	ldi	r25, 0x00	; 0
     59a:	64 e1       	ldi	r22, 0x14	; 20
     59c:	74 e2       	ldi	r23, 0x24	; 36
     59e:	4f ef       	ldi	r20, 0xFF	; 255
     5a0:	0e 94 0e 08 	call	0x101c	; 0x101c <flash_readBytes>
	for (j = 0; j < 11; j++)
		tempBuffForDeviceInfo[circuitId * 11 + j] = tmp_CircuitInfo.prevIlluState[circuitId][j];
     5a4:	8b e0       	ldi	r24, 0x0B	; 11
     5a6:	90 e0       	ldi	r25, 0x00	; 0
     5a8:	c8 9f       	mul	r28, r24
     5aa:	70 01       	movw	r14, r0
     5ac:	c9 9f       	mul	r28, r25
     5ae:	f0 0c       	add	r15, r0
     5b0:	d8 9f       	mul	r29, r24
     5b2:	f0 0c       	add	r15, r0
     5b4:	11 24       	eor	r1, r1
     5b6:	d7 01       	movw	r26, r14
     5b8:	ad 56       	subi	r26, 0x6D	; 109
     5ba:	ba 4d       	sbci	r27, 0xDA	; 218
     5bc:	87 01       	movw	r16, r14
     5be:	0c 5e       	subi	r16, 0xEC	; 236
     5c0:	1b 4d       	sbci	r17, 0xDB	; 219
     5c2:	f8 01       	movw	r30, r16
     5c4:	90 e0       	ldi	r25, 0x00	; 0
     5c6:	8d 91       	ld	r24, X+
     5c8:	81 93       	st	Z+, r24
	tempBuffForDeviceInfo[NumOfChannels * 6 + circuitId] = tmp_CircuitInfo.onCtrlMode[circuitId];
	tempBuffForDeviceInfo[NumOfChannels * 7 + circuitId] = tmp_CircuitInfo.offCtrlMode[circuitId];
	flash_writeBytes(FLASH_ADDRESS_DEVICEINFO, tempBuffForDeviceInfo, 255);

	flash_readBytes(FLASH_ADDRESS_DEVICEINFO + 1, tempBuffForDeviceInfo, 255);
	for (j = 0; j < 11; j++)
     5ca:	9f 5f       	subi	r25, 0xFF	; 255
     5cc:	9b 30       	cpi	r25, 0x0B	; 11
     5ce:	d9 f7       	brne	.-10     	; 0x5c6 <ssrInfo_WriteToEEPRomOfIndex+0xda>
		tempBuffForDeviceInfo[circuitId * 11 + j] = tmp_CircuitInfo.prevIlluState[circuitId][j];
	flash_writeBytes(FLASH_ADDRESS_DEVICEINFO + 1, tempBuffForDeviceInfo, 255);
     5d0:	83 e0       	ldi	r24, 0x03	; 3
     5d2:	90 e0       	ldi	r25, 0x00	; 0
     5d4:	64 e1       	ldi	r22, 0x14	; 20
     5d6:	74 e2       	ldi	r23, 0x24	; 36
     5d8:	4f ef       	ldi	r20, 0xFF	; 255
     5da:	0e 94 fa 07 	call	0xff4	; 0xff4 <flash_writeBytes>

	flash_readBytes(FLASH_ADDRESS_DEVICEINFO + 2, tempBuffForDeviceInfo, 255);
     5de:	84 e0       	ldi	r24, 0x04	; 4
     5e0:	90 e0       	ldi	r25, 0x00	; 0
     5e2:	64 e1       	ldi	r22, 0x14	; 20
     5e4:	74 e2       	ldi	r23, 0x24	; 36
     5e6:	4f ef       	ldi	r20, 0xFF	; 255
     5e8:	0e 94 0e 08 	call	0x101c	; 0x101c <flash_readBytes>
     5ec:	8b e0       	ldi	r24, 0x0B	; 11
     5ee:	90 e0       	ldi	r25, 0x00	; 0
     5f0:	c8 9f       	mul	r28, r24
     5f2:	f0 01       	movw	r30, r0
     5f4:	c9 9f       	mul	r28, r25
     5f6:	f0 0d       	add	r31, r0
     5f8:	d8 9f       	mul	r29, r24
     5fa:	f0 0d       	add	r31, r0
     5fc:	11 24       	eor	r1, r1
     5fe:	ed 5b       	subi	r30, 0xBD	; 189
     600:	f9 4d       	sbci	r31, 0xD9	; 217
	for (j = 0; j < 11; j++)
     602:	97 01       	movw	r18, r14
     604:	21 5e       	subi	r18, 0xE1	; 225
     606:	3b 4d       	sbci	r19, 0xDB	; 219
		tempBuffForDeviceInfo[circuitId * 11 + j] = tmp_CircuitInfo.prevIlluStateAge[circuitId][j];
     608:	81 91       	ld	r24, Z+
     60a:	d8 01       	movw	r26, r16
     60c:	8d 93       	st	X+, r24
     60e:	8d 01       	movw	r16, r26
	for (j = 0; j < 11; j++)
		tempBuffForDeviceInfo[circuitId * 11 + j] = tmp_CircuitInfo.prevIlluState[circuitId][j];
	flash_writeBytes(FLASH_ADDRESS_DEVICEINFO + 1, tempBuffForDeviceInfo, 255);

	flash_readBytes(FLASH_ADDRESS_DEVICEINFO + 2, tempBuffForDeviceInfo, 255);
	for (j = 0; j < 11; j++)
     610:	a2 17       	cp	r26, r18
     612:	b3 07       	cpc	r27, r19
     614:	c9 f7       	brne	.-14     	; 0x608 <ssrInfo_WriteToEEPRomOfIndex+0x11c>
		tempBuffForDeviceInfo[circuitId * 11 + j] = tmp_CircuitInfo.prevIlluStateAge[circuitId][j];
	flash_writeBytes(FLASH_ADDRESS_DEVICEINFO + 2, tempBuffForDeviceInfo, 255);
     616:	84 e0       	ldi	r24, 0x04	; 4
     618:	90 e0       	ldi	r25, 0x00	; 0
     61a:	64 e1       	ldi	r22, 0x14	; 20
     61c:	74 e2       	ldi	r23, 0x24	; 36
     61e:	4f ef       	ldi	r20, 0xFF	; 255
     620:	0e 94 fa 07 	call	0xff4	; 0xff4 <flash_writeBytes>
}
     624:	df 91       	pop	r29
     626:	cf 91       	pop	r28
     628:	1f 91       	pop	r17
     62a:	0f 91       	pop	r16
     62c:	ff 90       	pop	r15
     62e:	ef 90       	pop	r14
     630:	08 95       	ret

00000632 <handleDeviceControl>:
//Circuit_State_Info ee_SSRInfo EEMEM;
uint8 tempBuffForDeviceInfo[255];

void handleDeviceControl(uint16 nodeId, int circuitId, uint8 ctrlMode) {

	tmp_CircuitInfo.ctrlMode[circuitId] = ctrlMode;
     632:	db 01       	movw	r26, r22
     634:	ad 5e       	subi	r26, 0xED	; 237
     636:	ba 4d       	sbci	r27, 0xDA	; 218
     638:	4c 93       	st	X, r20
	tmp_CircuitInfo.state[circuitId] = ctrlMode;
     63a:	50 96       	adiw	r26, 0x10	; 16
     63c:	4c 93       	st	X, r20
     63e:	50 97       	sbiw	r26, 0x10	; 16
	tmp_CircuitInfo.expirationTime[circuitId] = 0xffff;
     640:	fb 01       	movw	r30, r22
     642:	ee 0f       	add	r30, r30
     644:	ff 1f       	adc	r31, r31
     646:	ed 5c       	subi	r30, 0xCD	; 205
     648:	fa 4d       	sbci	r31, 0xDA	; 218
     64a:	8f ef       	ldi	r24, 0xFF	; 255
     64c:	9f ef       	ldi	r25, 0xFF	; 255
     64e:	91 83       	std	Z+1, r25	; 0x01
     650:	80 83       	st	Z, r24
	switch (ctrlMode) {
     652:	42 30       	cpi	r20, 0x02	; 2
     654:	39 f0       	breq	.+14     	; 0x664 <handleDeviceControl+0x32>
     656:	42 30       	cpi	r20, 0x02	; 2
     658:	18 f1       	brcs	.+70     	; 0x6a0 <handleDeviceControl+0x6e>
     65a:	84 2f       	mov	r24, r20
     65c:	80 52       	subi	r24, 0x20	; 32
     65e:	8b 30       	cpi	r24, 0x0B	; 11
     660:	f8 f4       	brcc	.+62     	; 0x6a0 <handleDeviceControl+0x6e>
     662:	0a c0       	rjmp	.+20     	; 0x678 <handleDeviceControl+0x46>
	case OFF:
		break;
	case ON:
		break;
	case SENSOR:
		tmp_CircuitInfo.onCtrlMode[circuitId] = ON;
     664:	fd 01       	movw	r30, r26
     666:	e0 5a       	subi	r30, 0xA0	; 160
     668:	ff 4f       	sbci	r31, 0xFF	; 255
     66a:	81 e0       	ldi	r24, 0x01	; 1
     66c:	80 83       	st	Z, r24
		tmp_CircuitInfo.offCtrlMode[circuitId] = OFF;
     66e:	fd 01       	movw	r30, r26
     670:	e0 59       	subi	r30, 0x90	; 144
     672:	ff 4f       	sbci	r31, 0xFF	; 255
     674:	10 82       	st	Z, r1
     676:	14 c0       	rjmp	.+40     	; 0x6a0 <handleDeviceControl+0x6e>
	case ILLU_DIMMING_6:
	case ILLU_DIMMING_7:
	case ILLU_DIMMING_8:
	case ILLU_DIMMING_9:
	case ILLU_DIMMING_10:
		tmp_CircuitInfo.prevIlluState[circuitId][ctrlMode - ILLU_DIMMING_0] = ctrlMode - ILLU_DIMMING_0 + DIMMING_0;
     678:	24 2f       	mov	r18, r20
     67a:	20 51       	subi	r18, 0x10	; 16
     67c:	8b e0       	ldi	r24, 0x0B	; 11
     67e:	90 e0       	ldi	r25, 0x00	; 0
     680:	68 9f       	mul	r22, r24
     682:	f0 01       	movw	r30, r0
     684:	69 9f       	mul	r22, r25
     686:	f0 0d       	add	r31, r0
     688:	78 9f       	mul	r23, r24
     68a:	f0 0d       	add	r31, r0
     68c:	11 24       	eor	r1, r1
     68e:	ed 5e       	subi	r30, 0xED	; 237
     690:	fa 4d       	sbci	r31, 0xDA	; 218
     692:	e4 0f       	add	r30, r20
     694:	f1 1d       	adc	r31, r1
     696:	e0 5a       	subi	r30, 0xA0	; 160
     698:	ff 4f       	sbci	r31, 0xFF	; 255
     69a:	20 83       	st	Z, r18
		tmp_CircuitInfo.state[circuitId] = tmp_CircuitInfo.prevIlluState[circuitId][ctrlMode - ILLU_DIMMING_0];
     69c:	50 96       	adiw	r26, 0x10	; 16
     69e:	2c 93       	st	X, r18
		break;
	default:
		break;
	}
	//eeprom에 설정 정보 저장.
	ssrInfo_WriteToEEPRomOfIndex(circuitId);
     6a0:	86 2f       	mov	r24, r22
     6a2:	0e 94 76 02 	call	0x4ec	; 0x4ec <ssrInfo_WriteToEEPRomOfIndex>
}
     6a6:	08 95       	ret

000006a8 <ssrInfo_WriteToEEPRom>:

void ssrInfo_WriteToEEPRom() {
     6a8:	0f 93       	push	r16
     6aa:	1f 93       	push	r17
     6ac:	cf 93       	push	r28
     6ae:	df 93       	push	r29
     6b0:	c3 e1       	ldi	r28, 0x13	; 19
     6b2:	d5 e2       	ldi	r29, 0x25	; 37
     6b4:	24 e1       	ldi	r18, 0x14	; 20
     6b6:	34 e2       	ldi	r19, 0x24	; 36
     6b8:	de 01       	movw	r26, r28
     6ba:	90 96       	adiw	r26, 0x20	; 32
     6bc:	89 01       	movw	r16, r18
     6be:	00 5e       	subi	r16, 0xE0	; 224
     6c0:	1f 4f       	sbci	r17, 0xFF	; 255
     6c2:	63 e7       	ldi	r22, 0x73	; 115
     6c4:	75 e2       	ldi	r23, 0x25	; 37
     6c6:	44 e7       	ldi	r20, 0x74	; 116
     6c8:	54 e2       	ldi	r21, 0x24	; 36
	uint8 i, j;
//	eeprom_write_block(&tmp_CircuitInfo, &ee_SSRInfo, sizeof(Circuit_State_Info));

	for (i = 0; i < NumOfChannels; i++) {
		wdt_reset();
     6ca:	a8 95       	wdr
		tempBuffForDeviceInfo[0 + i] = tmp_CircuitInfo.ctrlMode[i];
     6cc:	88 81       	ld	r24, Y
     6ce:	f9 01       	movw	r30, r18
     6d0:	80 83       	st	Z, r24
		tempBuffForDeviceInfo[NumOfChannels + i] = tmp_CircuitInfo.state[i];
     6d2:	88 89       	ldd	r24, Y+16	; 0x10
     6d4:	80 8b       	std	Z+16, r24	; 0x10
		tempBuffForDeviceInfo[NumOfChannels * 2 + i * 2] = tmp_CircuitInfo.expirationTime[i] >> 8;
     6d6:	9c 91       	ld	r25, X
     6d8:	11 96       	adiw	r26, 0x01	; 1
     6da:	8c 91       	ld	r24, X
     6dc:	11 97       	sbiw	r26, 0x01	; 1
     6de:	f8 01       	movw	r30, r16
     6e0:	80 83       	st	Z, r24
		tempBuffForDeviceInfo[NumOfChannels * 2 + i * 2 + 1] = tmp_CircuitInfo.expirationTime[i];
     6e2:	91 83       	std	Z+1, r25	; 0x01
		tempBuffForDeviceInfo[NumOfChannels * 4 + i * 2] = tmp_CircuitInfo.timerCnt[i] >> 8;
     6e4:	90 96       	adiw	r26, 0x20	; 32
     6e6:	9c 91       	ld	r25, X
     6e8:	90 97       	sbiw	r26, 0x20	; 32
     6ea:	91 96       	adiw	r26, 0x21	; 33
     6ec:	8c 91       	ld	r24, X
     6ee:	91 97       	sbiw	r26, 0x21	; 33
     6f0:	80 a3       	std	Z+32, r24	; 0x20
		tempBuffForDeviceInfo[NumOfChannels * 4 + i * 2 + 1] = tmp_CircuitInfo.timerCnt[i];
     6f2:	91 a3       	std	Z+33, r25	; 0x21
		tempBuffForDeviceInfo[NumOfChannels * 6 + i] = tmp_CircuitInfo.onCtrlMode[i];
     6f4:	fb 01       	movw	r30, r22
     6f6:	80 81       	ld	r24, Z
     6f8:	fa 01       	movw	r30, r20
     6fa:	80 83       	st	Z, r24
		tempBuffForDeviceInfo[NumOfChannels * 7 + i] = tmp_CircuitInfo.offCtrlMode[i];
     6fc:	fb 01       	movw	r30, r22
     6fe:	80 89       	ldd	r24, Z+16	; 0x10
     700:	fa 01       	movw	r30, r20
     702:	80 8b       	std	Z+16, r24	; 0x10
     704:	21 96       	adiw	r28, 0x01	; 1
     706:	2f 5f       	subi	r18, 0xFF	; 255
     708:	3f 4f       	sbci	r19, 0xFF	; 255
     70a:	12 96       	adiw	r26, 0x02	; 2
     70c:	0e 5f       	subi	r16, 0xFE	; 254
     70e:	1f 4f       	sbci	r17, 0xFF	; 255
     710:	6f 5f       	subi	r22, 0xFF	; 255
     712:	7f 4f       	sbci	r23, 0xFF	; 255
     714:	4f 5f       	subi	r20, 0xFF	; 255
     716:	5f 4f       	sbci	r21, 0xFF	; 255

void ssrInfo_WriteToEEPRom() {
	uint8 i, j;
//	eeprom_write_block(&tmp_CircuitInfo, &ee_SSRInfo, sizeof(Circuit_State_Info));

	for (i = 0; i < NumOfChannels; i++) {
     718:	f5 e2       	ldi	r31, 0x25	; 37
     71a:	c3 32       	cpi	r28, 0x23	; 35
     71c:	df 07       	cpc	r29, r31
     71e:	a9 f6       	brne	.-86     	; 0x6ca <ssrInfo_WriteToEEPRom+0x22>
		tempBuffForDeviceInfo[NumOfChannels * 4 + i * 2] = tmp_CircuitInfo.timerCnt[i] >> 8;
		tempBuffForDeviceInfo[NumOfChannels * 4 + i * 2 + 1] = tmp_CircuitInfo.timerCnt[i];
		tempBuffForDeviceInfo[NumOfChannels * 6 + i] = tmp_CircuitInfo.onCtrlMode[i];
		tempBuffForDeviceInfo[NumOfChannels * 7 + i] = tmp_CircuitInfo.offCtrlMode[i];
	}
	flash_writeBytes(FLASH_ADDRESS_DEVICEINFO, tempBuffForDeviceInfo, 255);
     720:	82 e0       	ldi	r24, 0x02	; 2
     722:	90 e0       	ldi	r25, 0x00	; 0
     724:	64 e1       	ldi	r22, 0x14	; 20
     726:	74 e2       	ldi	r23, 0x24	; 36
     728:	4f ef       	ldi	r20, 0xFF	; 255
     72a:	0e 94 fa 07 	call	0xff4	; 0xff4 <flash_writeBytes>
     72e:	20 e0       	ldi	r18, 0x00	; 0
     730:	30 e0       	ldi	r19, 0x00	; 0
     732:	40 e0       	ldi	r20, 0x00	; 0
     734:	50 e0       	ldi	r21, 0x00	; 0

	for (i = 0; i < NumOfChannels; i++) {
		wdt_reset();
     736:	6b e0       	ldi	r22, 0x0B	; 11
     738:	70 e0       	ldi	r23, 0x00	; 0
     73a:	a8 95       	wdr
     73c:	26 9f       	mul	r18, r22
     73e:	f0 01       	movw	r30, r0
     740:	27 9f       	mul	r18, r23
     742:	f0 0d       	add	r31, r0
     744:	36 9f       	mul	r19, r22
     746:	f0 0d       	add	r31, r0
     748:	11 24       	eor	r1, r1
     74a:	ed 56       	subi	r30, 0x6D	; 109
     74c:	fa 4d       	sbci	r31, 0xDA	; 218
     74e:	da 01       	movw	r26, r20
     750:	ac 5e       	subi	r26, 0xEC	; 236
     752:	bb 4d       	sbci	r27, 0xDB	; 219
     754:	90 e0       	ldi	r25, 0x00	; 0
		for (j = 0; j < 11; j++)
			tempBuffForDeviceInfo[i * 11 + j] = tmp_CircuitInfo.prevIlluState[i][j];
     756:	81 91       	ld	r24, Z+
     758:	8d 93       	st	X+, r24
	}
	flash_writeBytes(FLASH_ADDRESS_DEVICEINFO, tempBuffForDeviceInfo, 255);

	for (i = 0; i < NumOfChannels; i++) {
		wdt_reset();
		for (j = 0; j < 11; j++)
     75a:	9f 5f       	subi	r25, 0xFF	; 255
     75c:	9b 30       	cpi	r25, 0x0B	; 11
     75e:	d9 f7       	brne	.-10     	; 0x756 <ssrInfo_WriteToEEPRom+0xae>
     760:	2f 5f       	subi	r18, 0xFF	; 255
     762:	3f 4f       	sbci	r19, 0xFF	; 255
     764:	45 5f       	subi	r20, 0xF5	; 245
     766:	5f 4f       	sbci	r21, 0xFF	; 255
		tempBuffForDeviceInfo[NumOfChannels * 6 + i] = tmp_CircuitInfo.onCtrlMode[i];
		tempBuffForDeviceInfo[NumOfChannels * 7 + i] = tmp_CircuitInfo.offCtrlMode[i];
	}
	flash_writeBytes(FLASH_ADDRESS_DEVICEINFO, tempBuffForDeviceInfo, 255);

	for (i = 0; i < NumOfChannels; i++) {
     768:	20 31       	cpi	r18, 0x10	; 16
     76a:	31 05       	cpc	r19, r1
     76c:	31 f7       	brne	.-52     	; 0x73a <ssrInfo_WriteToEEPRom+0x92>
		wdt_reset();
		for (j = 0; j < 11; j++)
			tempBuffForDeviceInfo[i * 11 + j] = tmp_CircuitInfo.prevIlluState[i][j];
	}
	flash_writeBytes(FLASH_ADDRESS_DEVICEINFO + 1, tempBuffForDeviceInfo, 255);
     76e:	83 e0       	ldi	r24, 0x03	; 3
     770:	90 e0       	ldi	r25, 0x00	; 0
     772:	64 e1       	ldi	r22, 0x14	; 20
     774:	74 e2       	ldi	r23, 0x24	; 36
     776:	4f ef       	ldi	r20, 0xFF	; 255
     778:	0e 94 fa 07 	call	0xff4	; 0xff4 <flash_writeBytes>
     77c:	20 e0       	ldi	r18, 0x00	; 0
     77e:	30 e0       	ldi	r19, 0x00	; 0
     780:	40 e0       	ldi	r20, 0x00	; 0
     782:	50 e0       	ldi	r21, 0x00	; 0

	for (i = 0; i < NumOfChannels; i++) {
		wdt_reset();
     784:	6b e0       	ldi	r22, 0x0B	; 11
     786:	70 e0       	ldi	r23, 0x00	; 0
     788:	a8 95       	wdr
     78a:	26 9f       	mul	r18, r22
     78c:	f0 01       	movw	r30, r0
     78e:	27 9f       	mul	r18, r23
     790:	f0 0d       	add	r31, r0
     792:	36 9f       	mul	r19, r22
     794:	f0 0d       	add	r31, r0
     796:	11 24       	eor	r1, r1
     798:	ed 5b       	subi	r30, 0xBD	; 189
     79a:	f9 4d       	sbci	r31, 0xD9	; 217
     79c:	da 01       	movw	r26, r20
     79e:	ac 5e       	subi	r26, 0xEC	; 236
     7a0:	bb 4d       	sbci	r27, 0xDB	; 219
     7a2:	90 e0       	ldi	r25, 0x00	; 0
		for (j = 0; j < 11; j++)
			tempBuffForDeviceInfo[i * 11 + j] = tmp_CircuitInfo.prevIlluStateAge[i][j];
     7a4:	81 91       	ld	r24, Z+
     7a6:	8d 93       	st	X+, r24
	}
	flash_writeBytes(FLASH_ADDRESS_DEVICEINFO + 1, tempBuffForDeviceInfo, 255);

	for (i = 0; i < NumOfChannels; i++) {
		wdt_reset();
		for (j = 0; j < 11; j++)
     7a8:	9f 5f       	subi	r25, 0xFF	; 255
     7aa:	9b 30       	cpi	r25, 0x0B	; 11
     7ac:	d9 f7       	brne	.-10     	; 0x7a4 <ssrInfo_WriteToEEPRom+0xfc>
     7ae:	2f 5f       	subi	r18, 0xFF	; 255
     7b0:	3f 4f       	sbci	r19, 0xFF	; 255
     7b2:	45 5f       	subi	r20, 0xF5	; 245
     7b4:	5f 4f       	sbci	r21, 0xFF	; 255
		for (j = 0; j < 11; j++)
			tempBuffForDeviceInfo[i * 11 + j] = tmp_CircuitInfo.prevIlluState[i][j];
	}
	flash_writeBytes(FLASH_ADDRESS_DEVICEINFO + 1, tempBuffForDeviceInfo, 255);

	for (i = 0; i < NumOfChannels; i++) {
     7b6:	20 31       	cpi	r18, 0x10	; 16
     7b8:	31 05       	cpc	r19, r1
     7ba:	31 f7       	brne	.-52     	; 0x788 <ssrInfo_WriteToEEPRom+0xe0>
		wdt_reset();
		for (j = 0; j < 11; j++)
			tempBuffForDeviceInfo[i * 11 + j] = tmp_CircuitInfo.prevIlluStateAge[i][j];
	}
	flash_writeBytes(FLASH_ADDRESS_DEVICEINFO + 2, tempBuffForDeviceInfo, 255);
     7bc:	84 e0       	ldi	r24, 0x04	; 4
     7be:	90 e0       	ldi	r25, 0x00	; 0
     7c0:	64 e1       	ldi	r22, 0x14	; 20
     7c2:	74 e2       	ldi	r23, 0x24	; 36
     7c4:	4f ef       	ldi	r20, 0xFF	; 255
     7c6:	0e 94 fa 07 	call	0xff4	; 0xff4 <flash_writeBytes>
}
     7ca:	df 91       	pop	r29
     7cc:	cf 91       	pop	r28
     7ce:	1f 91       	pop	r17
     7d0:	0f 91       	pop	r16
     7d2:	08 95       	ret

000007d4 <getSeqNumGeneratorForDimmer>:
////////
uint8 tmpBuffForDimmer[32];
///////
static uint16 seqNumGeneratorForDimmer = 0;
uint16 getSeqNumGeneratorForDimmer() {
	return seqNumGeneratorForDimmer++;
     7d4:	20 91 0e 23 	lds	r18, 0x230E
     7d8:	30 91 0f 23 	lds	r19, 0x230F
     7dc:	2f 5f       	subi	r18, 0xFF	; 255
     7de:	3f 4f       	sbci	r19, 0xFF	; 255
     7e0:	30 93 0f 23 	sts	0x230F, r19
     7e4:	20 93 0e 23 	sts	0x230E, r18
     7e8:	21 50       	subi	r18, 0x01	; 1
     7ea:	30 40       	sbci	r19, 0x00	; 0
}
     7ec:	c9 01       	movw	r24, r18
     7ee:	08 95       	ret

000007f0 <initDimmerControlInfoList>:

void initDimmerControlInfoList() {
	dimmerControlInfoList.size = 0;
     7f0:	10 92 94 34 	sts	0x3494, r1
}
     7f4:	08 95       	ret

000007f6 <plcs_GetDCPMessage>:
			dimmerControlInfoList.size++;
		}
	}
}

uint8 plcs_GetDCPMessage(uint8 resultMsg[], uint16 destId, uint16 srcId, uint8 payload[], uint8 len) {
     7f6:	ef 92       	push	r14
     7f8:	ff 92       	push	r15
     7fa:	0f 93       	push	r16
     7fc:	cf 93       	push	r28
     7fe:	df 93       	push	r29
     800:	ec 01       	movw	r28, r24
     802:	79 01       	movw	r14, r18
////////
uint8 tmpBuffForDimmer[32];
///////
static uint16 seqNumGeneratorForDimmer = 0;
uint16 getSeqNumGeneratorForDimmer() {
	return seqNumGeneratorForDimmer++;
     804:	80 91 0e 23 	lds	r24, 0x230E
     808:	90 91 0f 23 	lds	r25, 0x230F
     80c:	01 96       	adiw	r24, 0x01	; 1
     80e:	90 93 0f 23 	sts	0x230F, r25
     812:	80 93 0e 23 	sts	0x230E, r24
     816:	01 97       	sbiw	r24, 0x01	; 1

uint8 plcs_GetDCPMessage(uint8 resultMsg[], uint16 destId, uint16 srcId, uint8 payload[], uint8 len) {
	uint8 resultLen = 0;
	uint16 seqNum = getSeqNumGeneratorForDimmer();

	resultMsg[resultLen++] = NCP_PROTOCOL_ID;
     818:	20 e8       	ldi	r18, 0x80	; 128
     81a:	28 83       	st	Y, r18
	resultMsg[resultLen++] = PLCS_DCP_PROTOCOL_ID;
     81c:	21 e1       	ldi	r18, 0x11	; 17
     81e:	29 83       	std	Y+1, r18	; 0x01
	resultMsg[resultLen++] = seqNum >> 8;
     820:	9a 83       	std	Y+2, r25	; 0x02
	resultMsg[resultLen++] = seqNum;
     822:	8b 83       	std	Y+3, r24	; 0x03
	resultMsg[resultLen++] = destId >> 8;
     824:	7c 83       	std	Y+4, r23	; 0x04
	resultMsg[resultLen++] = destId;
     826:	6d 83       	std	Y+5, r22	; 0x05
	resultMsg[resultLen++] = srcId >> 8;
     828:	5e 83       	std	Y+6, r21	; 0x06
	resultMsg[resultLen++] = srcId;
     82a:	4f 83       	std	Y+7, r20	; 0x07
     82c:	40 e0       	ldi	r20, 0x00	; 0
     82e:	50 e0       	ldi	r21, 0x00	; 0
	for (int i = 0; i < len; i++)
     830:	60 2f       	mov	r22, r16
     832:	70 e0       	ldi	r23, 0x00	; 0
     834:	0a c0       	rjmp	.+20     	; 0x84a <plcs_GetDCPMessage+0x54>
		resultMsg[resultLen++] = payload[i];
     836:	fe 01       	movw	r30, r28
     838:	e8 0f       	add	r30, r24
     83a:	f1 1d       	adc	r31, r1
     83c:	d7 01       	movw	r26, r14
     83e:	a4 0f       	add	r26, r20
     840:	b5 1f       	adc	r27, r21
     842:	8c 91       	ld	r24, X
     844:	80 83       	st	Z, r24
	resultMsg[resultLen++] = seqNum;
	resultMsg[resultLen++] = destId >> 8;
	resultMsg[resultLen++] = destId;
	resultMsg[resultLen++] = srcId >> 8;
	resultMsg[resultLen++] = srcId;
	for (int i = 0; i < len; i++)
     846:	4f 5f       	subi	r20, 0xFF	; 255
     848:	5f 4f       	sbci	r21, 0xFF	; 255
     84a:	84 2f       	mov	r24, r20
     84c:	88 5f       	subi	r24, 0xF8	; 248
     84e:	46 17       	cp	r20, r22
     850:	57 07       	cpc	r21, r23
     852:	8c f3       	brlt	.-30     	; 0x836 <plcs_GetDCPMessage+0x40>
		resultMsg[resultLen++] = payload[i];
	return resultLen;
}
     854:	80 2f       	mov	r24, r16
     856:	88 5f       	subi	r24, 0xF8	; 248
     858:	df 91       	pop	r29
     85a:	cf 91       	pop	r28
     85c:	0f 91       	pop	r16
     85e:	ff 90       	pop	r15
     860:	ef 90       	pop	r14
     862:	08 95       	ret

00000864 <dimmer_DimmingConvert>:
		sendMessage(MPR, dimmerControlInfo->dimmerId, tmpBuffForDimmer, resultLen);
	}
}

uint8 dimmer_DimmingConvert(uint8 DimLevel) {
	switch (DimLevel) {
     864:	84 31       	cpi	r24, 0x14	; 20
     866:	31 f1       	breq	.+76     	; 0x8b4 <dimmer_DimmingConvert+0x50>
     868:	85 31       	cpi	r24, 0x15	; 21
     86a:	70 f4       	brcc	.+28     	; 0x888 <dimmer_DimmingConvert+0x24>
     86c:	81 31       	cpi	r24, 0x11	; 17
     86e:	d1 f0       	breq	.+52     	; 0x8a4 <dimmer_DimmingConvert+0x40>
     870:	82 31       	cpi	r24, 0x12	; 18
     872:	28 f4       	brcc	.+10     	; 0x87e <dimmer_DimmingConvert+0x1a>
     874:	88 23       	and	r24, r24
     876:	c1 f0       	breq	.+48     	; 0x8a8 <dimmer_DimmingConvert+0x44>
     878:	80 31       	cpi	r24, 0x10	; 16
     87a:	41 f5       	brne	.+80     	; 0x8cc <dimmer_DimmingConvert+0x68>
     87c:	15 c0       	rjmp	.+42     	; 0x8a8 <dimmer_DimmingConvert+0x44>
     87e:	82 31       	cpi	r24, 0x12	; 18
     880:	a9 f0       	breq	.+42     	; 0x8ac <dimmer_DimmingConvert+0x48>
     882:	83 31       	cpi	r24, 0x13	; 19
     884:	19 f5       	brne	.+70     	; 0x8cc <dimmer_DimmingConvert+0x68>
     886:	14 c0       	rjmp	.+40     	; 0x8b0 <dimmer_DimmingConvert+0x4c>
     888:	87 31       	cpi	r24, 0x17	; 23
     88a:	d1 f0       	breq	.+52     	; 0x8c0 <dimmer_DimmingConvert+0x5c>
     88c:	88 31       	cpi	r24, 0x18	; 24
     88e:	28 f4       	brcc	.+10     	; 0x89a <dimmer_DimmingConvert+0x36>
     890:	85 31       	cpi	r24, 0x15	; 21
     892:	91 f0       	breq	.+36     	; 0x8b8 <dimmer_DimmingConvert+0x54>
     894:	86 31       	cpi	r24, 0x16	; 22
     896:	d1 f4       	brne	.+52     	; 0x8cc <dimmer_DimmingConvert+0x68>
     898:	11 c0       	rjmp	.+34     	; 0x8bc <dimmer_DimmingConvert+0x58>
     89a:	88 31       	cpi	r24, 0x18	; 24
     89c:	99 f0       	breq	.+38     	; 0x8c4 <dimmer_DimmingConvert+0x60>
     89e:	89 31       	cpi	r24, 0x19	; 25
     8a0:	a9 f4       	brne	.+42     	; 0x8cc <dimmer_DimmingConvert+0x68>
     8a2:	12 c0       	rjmp	.+36     	; 0x8c8 <dimmer_DimmingConvert+0x64>
     8a4:	80 e2       	ldi	r24, 0x20	; 32
     8a6:	08 95       	ret
     8a8:	80 e0       	ldi	r24, 0x00	; 0
     8aa:	08 95       	ret
     8ac:	84 e3       	ldi	r24, 0x34	; 52
     8ae:	08 95       	ret
	case DIMMING_1:
		return 0x20;
		break;

	case DIMMING_2:
		return 0x34;
     8b0:	8d e4       	ldi	r24, 0x4D	; 77
     8b2:	08 95       	ret
		break;

	case DIMMING_3:
		return 0x4D;
     8b4:	87 e6       	ldi	r24, 0x67	; 103
     8b6:	08 95       	ret
		break;

	case DIMMING_4:
		return 0x67;
     8b8:	80 e8       	ldi	r24, 0x80	; 128
     8ba:	08 95       	ret
		break;

	case DIMMING_5:
		return 0x80;
     8bc:	8a e9       	ldi	r24, 0x9A	; 154
     8be:	08 95       	ret
		break;

	case DIMMING_6:
		return 0x9A;
     8c0:	83 eb       	ldi	r24, 0xB3	; 179
     8c2:	08 95       	ret
		break;

	case DIMMING_7:
		return 0xB3;
     8c4:	8d ec       	ldi	r24, 0xCD	; 205
     8c6:	08 95       	ret
		break;

	case DIMMING_8:
		return 0xCD;
     8c8:	86 ee       	ldi	r24, 0xE6	; 230
     8ca:	08 95       	ret
		break;

	case DIMMING_9:
		return 0xE6;
     8cc:	8e ef       	ldi	r24, 0xFE	; 254
	default:
		return 0xFE;
		break;
	}
	return 0xFE;
}
     8ce:	08 95       	ret

000008d0 <dimmer_SendReqDimming>:
//		sendToZigbee(ZIGBEE_1, deviceInfo_P->netAddr, tmpBuffForDimmer, resultLen);
//		sendMessage(MPR, dimmerControlInfo->dimmerId, tmpBuffForDimmer, resultLen);
//	}
}

void dimmer_SendReqDimming(dimmerControl_Info_st *dimmerControlInfo) {
     8d0:	8f 92       	push	r8
     8d2:	9f 92       	push	r9
     8d4:	af 92       	push	r10
     8d6:	bf 92       	push	r11
     8d8:	cf 92       	push	r12
     8da:	df 92       	push	r13
     8dc:	ef 92       	push	r14
     8de:	ff 92       	push	r15
     8e0:	0f 93       	push	r16
     8e2:	1f 93       	push	r17
     8e4:	df 93       	push	r29
     8e6:	cf 93       	push	r28
     8e8:	cd b7       	in	r28, 0x3d	; 61
     8ea:	de b7       	in	r29, 0x3e	; 62
     8ec:	2a 97       	sbiw	r28, 0x0a	; 10
     8ee:	0f b6       	in	r0, 0x3f	; 63
     8f0:	f8 94       	cli
     8f2:	de bf       	out	0x3e, r29	; 62
     8f4:	0f be       	out	0x3f, r0	; 63
     8f6:	cd bf       	out	0x3d, r28	; 61
     8f8:	4c 01       	movw	r8, r24
	int len = 0;
	uint8 payload[10];
	uint8 resultLen;
	device_Info* deviceInfo_P;

	if (dimmerControlInfo == NULL)
     8fa:	00 97       	sbiw	r24, 0x00	; 0
     8fc:	09 f4       	brne	.+2      	; 0x900 <dimmer_SendReqDimming+0x30>
     8fe:	5e c0       	rjmp	.+188    	; 0x9bc <dimmer_SendReqDimming+0xec>
		return;

	len = 0;
	payload[len++] = PLCS_DCP_REQ_DIMMING;
     900:	82 e3       	ldi	r24, 0x32	; 50
     902:	89 83       	std	Y+1, r24	; 0x01
	payload[len++] = dimmerControlInfo->dimmerId >> 8;
     904:	f4 01       	movw	r30, r8
     906:	81 81       	ldd	r24, Z+1	; 0x01
     908:	8a 83       	std	Y+2, r24	; 0x02
	payload[len++] = dimmerControlInfo->dimmerId;
     90a:	80 81       	ld	r24, Z
     90c:	8b 83       	std	Y+3, r24	; 0x03
	payload[len++] = dimmer_DimmingConvert(*(dimmerControlInfo->channelState[0]));
     90e:	a6 80       	ldd	r10, Z+6	; 0x06
     910:	b7 80       	ldd	r11, Z+7	; 0x07
     912:	f5 01       	movw	r30, r10
     914:	80 81       	ld	r24, Z
     916:	0e 94 32 04 	call	0x864	; 0x864 <dimmer_DimmingConvert>
     91a:	8c 83       	std	Y+4, r24	; 0x04
	payload[len++] = dimmer_DimmingConvert(*(dimmerControlInfo->channelState[1]));
     91c:	f4 01       	movw	r30, r8
     91e:	c0 84       	ldd	r12, Z+8	; 0x08
     920:	d1 84       	ldd	r13, Z+9	; 0x09
     922:	f6 01       	movw	r30, r12
     924:	80 81       	ld	r24, Z
     926:	0e 94 32 04 	call	0x864	; 0x864 <dimmer_DimmingConvert>
     92a:	8d 83       	std	Y+5, r24	; 0x05
	payload[len++] = dimmer_DimmingConvert(*(dimmerControlInfo->channelState[2]));
     92c:	f4 01       	movw	r30, r8
     92e:	e2 84       	ldd	r14, Z+10	; 0x0a
     930:	f3 84       	ldd	r15, Z+11	; 0x0b
     932:	f7 01       	movw	r30, r14
     934:	80 81       	ld	r24, Z
     936:	0e 94 32 04 	call	0x864	; 0x864 <dimmer_DimmingConvert>
     93a:	8e 83       	std	Y+6, r24	; 0x06
	payload[len++] = dimmer_DimmingConvert(*(dimmerControlInfo->channelState[3]));
     93c:	f4 01       	movw	r30, r8
     93e:	04 85       	ldd	r16, Z+12	; 0x0c
     940:	15 85       	ldd	r17, Z+13	; 0x0d
     942:	f8 01       	movw	r30, r16
     944:	80 81       	ld	r24, Z
     946:	0e 94 32 04 	call	0x864	; 0x864 <dimmer_DimmingConvert>
     94a:	8f 83       	std	Y+7, r24	; 0x07

	dimmerControlInfo->prevChannelState[0] = *(dimmerControlInfo->channelState[0]);
     94c:	f5 01       	movw	r30, r10
     94e:	80 81       	ld	r24, Z
     950:	f4 01       	movw	r30, r8
     952:	82 83       	std	Z+2, r24	; 0x02
	dimmerControlInfo->prevChannelState[1] = *(dimmerControlInfo->channelState[1]);
     954:	f6 01       	movw	r30, r12
     956:	80 81       	ld	r24, Z
     958:	f4 01       	movw	r30, r8
     95a:	83 83       	std	Z+3, r24	; 0x03
	dimmerControlInfo->prevChannelState[2] = *(dimmerControlInfo->channelState[2]);
     95c:	f7 01       	movw	r30, r14
     95e:	80 81       	ld	r24, Z
     960:	f4 01       	movw	r30, r8
     962:	84 83       	std	Z+4, r24	; 0x04
	dimmerControlInfo->prevChannelState[3] = *(dimmerControlInfo->channelState[3]);
     964:	f8 01       	movw	r30, r16
     966:	80 81       	ld	r24, Z
     968:	f4 01       	movw	r30, r8
     96a:	85 83       	std	Z+5, r24	; 0x05

	resultLen = plcs_GetDCPMessage(tmpBuffForDimmer, dimmerControlInfo->dimmerId, zrmpInfo_0.zrm_Id, payload, len);
     96c:	60 81       	ld	r22, Z
     96e:	71 81       	ldd	r23, Z+1	; 0x01
     970:	40 91 ad 3d 	lds	r20, 0x3DAD
     974:	50 91 ae 3d 	lds	r21, 0x3DAE
     978:	85 e9       	ldi	r24, 0x95	; 149
     97a:	94 e3       	ldi	r25, 0x34	; 52
     97c:	9e 01       	movw	r18, r28
     97e:	2f 5f       	subi	r18, 0xFF	; 255
     980:	3f 4f       	sbci	r19, 0xFF	; 255
     982:	07 e0       	ldi	r16, 0x07	; 7
     984:	0e 94 fb 03 	call	0x7f6	; 0x7f6 <plcs_GetDCPMessage>
     988:	08 2f       	mov	r16, r24

	deviceInfo_P = findNodeById(dimmerControlInfo->dimmerId);
     98a:	f4 01       	movw	r30, r8
     98c:	80 81       	ld	r24, Z
     98e:	91 81       	ldd	r25, Z+1	; 0x01
     990:	0e 94 9c 00 	call	0x138	; 0x138 <findNodeById>
     994:	fc 01       	movw	r30, r24
	if (deviceInfo_P != NULL) {
     996:	00 97       	sbiw	r24, 0x00	; 0
     998:	89 f0       	breq	.+34     	; 0x9bc <dimmer_SendReqDimming+0xec>
		sendToZigbee(ZIGBEE_1, deviceInfo_P->netAddr, tmpBuffForDimmer, resultLen);
     99a:	63 85       	ldd	r22, Z+11	; 0x0b
     99c:	74 85       	ldd	r23, Z+12	; 0x0c
     99e:	82 e0       	ldi	r24, 0x02	; 2
     9a0:	45 e9       	ldi	r20, 0x95	; 149
     9a2:	54 e3       	ldi	r21, 0x34	; 52
     9a4:	20 2f       	mov	r18, r16
     9a6:	0e 94 8a 38 	call	0x7114	; 0x7114 <sendToZigbee>
		sendMessage(MPR, dimmerControlInfo->dimmerId, tmpBuffForDimmer, resultLen);
     9aa:	f4 01       	movw	r30, r8
     9ac:	60 81       	ld	r22, Z
     9ae:	71 81       	ldd	r23, Z+1	; 0x01
     9b0:	84 e0       	ldi	r24, 0x04	; 4
     9b2:	45 e9       	ldi	r20, 0x95	; 149
     9b4:	54 e3       	ldi	r21, 0x34	; 52
     9b6:	20 2f       	mov	r18, r16
     9b8:	0e 94 73 30 	call	0x60e6	; 0x60e6 <sendMessage>
	}
}
     9bc:	2a 96       	adiw	r28, 0x0a	; 10
     9be:	0f b6       	in	r0, 0x3f	; 63
     9c0:	f8 94       	cli
     9c2:	de bf       	out	0x3e, r29	; 62
     9c4:	0f be       	out	0x3f, r0	; 63
     9c6:	cd bf       	out	0x3d, r28	; 61
     9c8:	cf 91       	pop	r28
     9ca:	df 91       	pop	r29
     9cc:	1f 91       	pop	r17
     9ce:	0f 91       	pop	r16
     9d0:	ff 90       	pop	r15
     9d2:	ef 90       	pop	r14
     9d4:	df 90       	pop	r13
     9d6:	cf 90       	pop	r12
     9d8:	bf 90       	pop	r11
     9da:	af 90       	pop	r10
     9dc:	9f 90       	pop	r9
     9de:	8f 90       	pop	r8
     9e0:	08 95       	ret

000009e2 <plcs_GetMDPMessage>:
		resultMsg[resultLen++] = payload[i];
	return resultLen;
}

#define PLCS_DP_PROTOCOL_ID 			0x11
uint8 plcs_GetMDPMessage(uint8 resultMsg[], uint16 destId, uint16 srcId, uint8 payload[], uint8 len) {
     9e2:	af 92       	push	r10
     9e4:	bf 92       	push	r11
     9e6:	df 92       	push	r13
     9e8:	ef 92       	push	r14
     9ea:	ff 92       	push	r15
     9ec:	0f 93       	push	r16
     9ee:	1f 93       	push	r17
     9f0:	cf 93       	push	r28
     9f2:	df 93       	push	r29
     9f4:	ec 01       	movw	r28, r24
     9f6:	e6 2e       	mov	r14, r22
     9f8:	17 2f       	mov	r17, r23
     9fa:	d4 2e       	mov	r13, r20
     9fc:	f5 2e       	mov	r15, r21
     9fe:	59 01       	movw	r10, r18
	uint8 resultLen = 0;
	uint16 seqNum = getSeqNumGenerator();
     a00:	0e 94 e3 0c 	call	0x19c6	; 0x19c6 <getSeqNumGenerator>

	resultMsg[resultLen++] = NCP_PROTOCOL_ID;
     a04:	20 e8       	ldi	r18, 0x80	; 128
     a06:	28 83       	st	Y, r18
	resultMsg[resultLen++] = PLCS_DP_PROTOCOL_ID;
     a08:	21 e1       	ldi	r18, 0x11	; 17
     a0a:	29 83       	std	Y+1, r18	; 0x01
	resultMsg[resultLen++] = seqNum >> 8;
     a0c:	9a 83       	std	Y+2, r25	; 0x02
	resultMsg[resultLen++] = seqNum;
     a0e:	8b 83       	std	Y+3, r24	; 0x03
	resultMsg[resultLen++] = destId >> 8;
     a10:	1c 83       	std	Y+4, r17	; 0x04
	resultMsg[resultLen++] = destId;
     a12:	ed 82       	std	Y+5, r14	; 0x05
	resultMsg[resultLen++] = srcId >> 8;
     a14:	fe 82       	std	Y+6, r15	; 0x06
	resultMsg[resultLen++] = srcId;
     a16:	df 82       	std	Y+7, r13	; 0x07
     a18:	20 e0       	ldi	r18, 0x00	; 0
     a1a:	30 e0       	ldi	r19, 0x00	; 0
	for (int i = 0; i < len; i++)
     a1c:	40 2f       	mov	r20, r16
     a1e:	50 e0       	ldi	r21, 0x00	; 0
     a20:	0a c0       	rjmp	.+20     	; 0xa36 <plcs_GetMDPMessage+0x54>
		resultMsg[resultLen++] = payload[i];
     a22:	fe 01       	movw	r30, r28
     a24:	e8 0f       	add	r30, r24
     a26:	f1 1d       	adc	r31, r1
     a28:	d5 01       	movw	r26, r10
     a2a:	a2 0f       	add	r26, r18
     a2c:	b3 1f       	adc	r27, r19
     a2e:	8c 91       	ld	r24, X
     a30:	80 83       	st	Z, r24
	resultMsg[resultLen++] = seqNum;
	resultMsg[resultLen++] = destId >> 8;
	resultMsg[resultLen++] = destId;
	resultMsg[resultLen++] = srcId >> 8;
	resultMsg[resultLen++] = srcId;
	for (int i = 0; i < len; i++)
     a32:	2f 5f       	subi	r18, 0xFF	; 255
     a34:	3f 4f       	sbci	r19, 0xFF	; 255
     a36:	82 2f       	mov	r24, r18
     a38:	88 5f       	subi	r24, 0xF8	; 248
     a3a:	24 17       	cp	r18, r20
     a3c:	35 07       	cpc	r19, r21
     a3e:	8c f3       	brlt	.-30     	; 0xa22 <plcs_GetMDPMessage+0x40>
		resultMsg[resultLen++] = payload[i];
	return resultLen;
}
     a40:	80 2f       	mov	r24, r16
     a42:	88 5f       	subi	r24, 0xF8	; 248
     a44:	df 91       	pop	r29
     a46:	cf 91       	pop	r28
     a48:	1f 91       	pop	r17
     a4a:	0f 91       	pop	r16
     a4c:	ff 90       	pop	r15
     a4e:	ef 90       	pop	r14
     a50:	df 90       	pop	r13
     a52:	bf 90       	pop	r11
     a54:	af 90       	pop	r10
     a56:	08 95       	ret

00000a58 <MDP_SendDimmingReqToMDP>:

uint8 tmpBuffForMDP[64];
void MDP_SendDimmingReqToMDP(uint8 channel, uint8 dimmingLevel) {
     a58:	ef 92       	push	r14
     a5a:	ff 92       	push	r15
     a5c:	0f 93       	push	r16
     a5e:	df 93       	push	r29
     a60:	cf 93       	push	r28
     a62:	cd b7       	in	r28, 0x3d	; 61
     a64:	de b7       	in	r29, 0x3e	; 62
     a66:	2a 97       	sbiw	r28, 0x0a	; 10
     a68:	0f b6       	in	r0, 0x3f	; 63
     a6a:	f8 94       	cli
     a6c:	de bf       	out	0x3e, r29	; 62
     a6e:	0f be       	out	0x3f, r0	; 63
     a70:	cd bf       	out	0x3d, r28	; 61
	int len = 0;
	uint8 payload[10];
	uint8 resultLen;

	len = 0;
	payload[len++] = 0x32;
     a72:	92 e3       	ldi	r25, 0x32	; 50
     a74:	99 83       	std	Y+1, r25	; 0x01
//	payload[len++] = zrmpInfo_0.zrm_Id >> 8;
//	payload[len++] = zrmpInfo_0.zrm_Id;
	payload[len++] = 0;
     a76:	1a 82       	std	Y+2, r1	; 0x02
	payload[len++] = 0;
     a78:	1b 82       	std	Y+3, r1	; 0x03
	payload[len++] = channel;
     a7a:	8c 83       	std	Y+4, r24	; 0x04
	payload[len++] = dimmingLevel;
     a7c:	6d 83       	std	Y+5, r22	; 0x05

	resultLen = plcs_GetMDPMessage(tmpBuffForMDP, 0, 0, payload, len);
     a7e:	82 eb       	ldi	r24, 0xB2	; 178
     a80:	e8 2e       	mov	r14, r24
     a82:	8d e3       	ldi	r24, 0x3D	; 61
     a84:	f8 2e       	mov	r15, r24
     a86:	c7 01       	movw	r24, r14
     a88:	60 e0       	ldi	r22, 0x00	; 0
     a8a:	70 e0       	ldi	r23, 0x00	; 0
     a8c:	40 e0       	ldi	r20, 0x00	; 0
     a8e:	50 e0       	ldi	r21, 0x00	; 0
     a90:	9e 01       	movw	r18, r28
     a92:	2f 5f       	subi	r18, 0xFF	; 255
     a94:	3f 4f       	sbci	r19, 0xFF	; 255
     a96:	05 e0       	ldi	r16, 0x05	; 5
     a98:	0e 94 f1 04 	call	0x9e2	; 0x9e2 <plcs_GetMDPMessage>
     a9c:	68 2f       	mov	r22, r24

	xcps_send_rs485ForMPR(tmpBuffForMDP, resultLen);
     a9e:	c7 01       	movw	r24, r14
     aa0:	0e 94 48 35 	call	0x6a90	; 0x6a90 <xcps_send_rs485ForMPR>
}
     aa4:	2a 96       	adiw	r28, 0x0a	; 10
     aa6:	0f b6       	in	r0, 0x3f	; 63
     aa8:	f8 94       	cli
     aaa:	de bf       	out	0x3e, r29	; 62
     aac:	0f be       	out	0x3f, r0	; 63
     aae:	cd bf       	out	0x3d, r28	; 61
     ab0:	cf 91       	pop	r28
     ab2:	df 91       	pop	r29
     ab4:	0f 91       	pop	r16
     ab6:	ff 90       	pop	r15
     ab8:	ef 90       	pop	r14
     aba:	08 95       	ret

00000abc <dimmer_control>:

void dimmer_control(dimmerControl_Info_st *dimmerControlInfo) {
     abc:	ff 92       	push	r15
     abe:	0f 93       	push	r16
     ac0:	1f 93       	push	r17
     ac2:	cf 93       	push	r28
     ac4:	df 93       	push	r29
     ac6:	ec 01       	movw	r28, r24
     ac8:	8c 01       	movw	r16, r24
     aca:	ff 24       	eor	r15, r15
//	payload[len++] = dimmer_DimmingConvert(*(dimmerControlInfo->channelState[3]));

	DEBUG("***************** SEND DIMMING ***************");

	for (int i = 0; i < 4; i++) {
		MDP_SendDimmingReqToMDP(i, dimmer_DimmingConvert(*(dimmerControlInfo->channelState[i])));
     acc:	d8 01       	movw	r26, r16
     ace:	16 96       	adiw	r26, 0x06	; 6
     ad0:	ed 91       	ld	r30, X+
     ad2:	fc 91       	ld	r31, X
     ad4:	17 97       	sbiw	r26, 0x07	; 7
     ad6:	80 81       	ld	r24, Z
     ad8:	0e 94 32 04 	call	0x864	; 0x864 <dimmer_DimmingConvert>
     adc:	68 2f       	mov	r22, r24
     ade:	8f 2d       	mov	r24, r15
     ae0:	0e 94 2c 05 	call	0xa58	; 0xa58 <MDP_SendDimmingReqToMDP>
     ae4:	0e 5f       	subi	r16, 0xFE	; 254
     ae6:	1f 4f       	sbci	r17, 0xFF	; 255
     ae8:	f3 94       	inc	r15
//	payload[len++] = dimmer_DimmingConvert(*(dimmerControlInfo->channelState[2]));
//	payload[len++] = dimmer_DimmingConvert(*(dimmerControlInfo->channelState[3]));

	DEBUG("***************** SEND DIMMING ***************");

	for (int i = 0; i < 4; i++) {
     aea:	b4 e0       	ldi	r27, 0x04	; 4
     aec:	fb 16       	cp	r15, r27
     aee:	71 f7       	brne	.-36     	; 0xacc <dimmer_control+0x10>
		MDP_SendDimmingReqToMDP(i, dimmer_DimmingConvert(*(dimmerControlInfo->channelState[i])));
	}

	dimmerControlInfo->prevChannelState[0] = *(dimmerControlInfo->channelState[0]);
     af0:	ee 81       	ldd	r30, Y+6	; 0x06
     af2:	ff 81       	ldd	r31, Y+7	; 0x07
     af4:	80 81       	ld	r24, Z
     af6:	8a 83       	std	Y+2, r24	; 0x02
	dimmerControlInfo->prevChannelState[1] = *(dimmerControlInfo->channelState[1]);
     af8:	e8 85       	ldd	r30, Y+8	; 0x08
     afa:	f9 85       	ldd	r31, Y+9	; 0x09
     afc:	80 81       	ld	r24, Z
     afe:	8b 83       	std	Y+3, r24	; 0x03
	dimmerControlInfo->prevChannelState[2] = *(dimmerControlInfo->channelState[2]);
     b00:	ea 85       	ldd	r30, Y+10	; 0x0a
     b02:	fb 85       	ldd	r31, Y+11	; 0x0b
     b04:	80 81       	ld	r24, Z
     b06:	8c 83       	std	Y+4, r24	; 0x04
	dimmerControlInfo->prevChannelState[3] = *(dimmerControlInfo->channelState[3]);
     b08:	ec 85       	ldd	r30, Y+12	; 0x0c
     b0a:	fd 85       	ldd	r31, Y+13	; 0x0d
     b0c:	80 81       	ld	r24, Z
     b0e:	8d 83       	std	Y+5, r24	; 0x05
//	deviceInfo_P = findNodeById(dimmerControlInfo->dimmerId);
//	if (deviceInfo_P != NULL) {
//		sendToZigbee(ZIGBEE_1, deviceInfo_P->netAddr, tmpBuffForDimmer, resultLen);
//		sendMessage(MPR, dimmerControlInfo->dimmerId, tmpBuffForDimmer, resultLen);
//	}
}
     b10:	df 91       	pop	r29
     b12:	cf 91       	pop	r28
     b14:	1f 91       	pop	r17
     b16:	0f 91       	pop	r16
     b18:	ff 90       	pop	r15
     b1a:	08 95       	ret

00000b1c <updateDimmerControlInfoList>:

void initDimmerControlInfoList() {
	dimmerControlInfoList.size = 0;
}

void updateDimmerControlInfoList() {
     b1c:	0f 93       	push	r16
     b1e:	1f 93       	push	r17
uint16 getSeqNumGeneratorForDimmer() {
	return seqNumGeneratorForDimmer++;
}

void initDimmerControlInfoList() {
	dimmerControlInfoList.size = 0;
     b20:	10 92 94 34 	sts	0x3494, r1
     b24:	00 e0       	ldi	r16, 0x00	; 0
     b26:	36 c0       	rjmp	.+108    	; 0xb94 <updateDimmerControlInfoList+0x78>

	initDimmerControlInfoList();

	for (i = 0; i < getDimmerMappingTableSize(); i++) {
		isContainDimmerInfo = 0;
		DimmerMappingInfo_st *info = getDimmerMappingInfoByIndex(i);
     b28:	80 2f       	mov	r24, r16
     b2a:	0e 94 56 09 	call	0x12ac	; 0x12ac <getDimmerMappingInfoByIndex>
     b2e:	dc 01       	movw	r26, r24
		if (info == NULL)
     b30:	00 97       	sbiw	r24, 0x00	; 0
     b32:	79 f1       	breq	.+94     	; 0xb92 <updateDimmerControlInfoList+0x76>
			continue;
		for (j = 0; j < dimmerControlInfoList.size; j++)
     b34:	10 91 94 34 	lds	r17, 0x3494
     b38:	ec e7       	ldi	r30, 0x7C	; 124
     b3a:	f3 e3       	ldi	r31, 0x33	; 51
     b3c:	20 e0       	ldi	r18, 0x00	; 0
     b3e:	30 e0       	ldi	r19, 0x00	; 0
     b40:	22 c0       	rjmp	.+68     	; 0xb86 <updateDimmerControlInfoList+0x6a>
     b42:	a9 01       	movw	r20, r18
			if (dimmerControlInfoList.info[j].dimmerId == info->dimmerId) {
     b44:	80 81       	ld	r24, Z
     b46:	91 81       	ldd	r25, Z+1	; 0x01
     b48:	2f 5f       	subi	r18, 0xFF	; 255
     b4a:	3f 4f       	sbci	r19, 0xFF	; 255
     b4c:	3e 96       	adiw	r30, 0x0e	; 14
     b4e:	86 17       	cp	r24, r22
     b50:	97 07       	cpc	r25, r23
     b52:	c9 f4       	brne	.+50     	; 0xb86 <updateDimmerControlInfoList+0x6a>

				dimmerControlInfoList.info[j].channelState[info->channelId] = &(tmp_CircuitInfo.state[info->circuitId]);
     b54:	12 96       	adiw	r26, 0x02	; 2
     b56:	8c 91       	ld	r24, X
     b58:	12 97       	sbiw	r26, 0x02	; 2
     b5a:	fa 01       	movw	r30, r20
     b5c:	93 e0       	ldi	r25, 0x03	; 3
     b5e:	ee 0f       	add	r30, r30
     b60:	ff 1f       	adc	r31, r31
     b62:	9a 95       	dec	r25
     b64:	e1 f7       	brne	.-8      	; 0xb5e <updateDimmerControlInfoList+0x42>
     b66:	e4 1b       	sub	r30, r20
     b68:	f5 0b       	sbc	r31, r21
     b6a:	e8 0f       	add	r30, r24
     b6c:	f1 1d       	adc	r31, r1
     b6e:	ee 0f       	add	r30, r30
     b70:	ff 1f       	adc	r31, r31
     b72:	ee 57       	subi	r30, 0x7E	; 126
     b74:	fc 4c       	sbci	r31, 0xCC	; 204
     b76:	13 96       	adiw	r26, 0x03	; 3
     b78:	8c 91       	ld	r24, X
     b7a:	90 e0       	ldi	r25, 0x00	; 0
     b7c:	8d 5d       	subi	r24, 0xDD	; 221
     b7e:	9a 4d       	sbci	r25, 0xDA	; 218
     b80:	91 83       	std	Z+1, r25	; 0x01
     b82:	80 83       	st	Z, r24
     b84:	06 c0       	rjmp	.+12     	; 0xb92 <updateDimmerControlInfoList+0x76>
     b86:	6d 91       	ld	r22, X+
     b88:	7c 91       	ld	r23, X
     b8a:	11 97       	sbiw	r26, 0x01	; 1
	for (i = 0; i < getDimmerMappingTableSize(); i++) {
		isContainDimmerInfo = 0;
		DimmerMappingInfo_st *info = getDimmerMappingInfoByIndex(i);
		if (info == NULL)
			continue;
		for (j = 0; j < dimmerControlInfoList.size; j++)
     b8c:	21 17       	cp	r18, r17
     b8e:	c8 f2       	brcs	.-78     	; 0xb42 <updateDimmerControlInfoList+0x26>
     b90:	06 c0       	rjmp	.+12     	; 0xb9e <updateDimmerControlInfoList+0x82>
	uint8 j = 0;
	uint8 isContainDimmerInfo = 0;

	initDimmerControlInfoList();

	for (i = 0; i < getDimmerMappingTableSize(); i++) {
     b92:	0f 5f       	subi	r16, 0xFF	; 255
     b94:	0e 94 48 09 	call	0x1290	; 0x1290 <getDimmerMappingTableSize>
     b98:	08 17       	cp	r16, r24
     b9a:	30 f2       	brcs	.-116    	; 0xb28 <updateDimmerControlInfoList+0xc>
     b9c:	35 c0       	rjmp	.+106    	; 0xc08 <updateDimmerControlInfoList+0xec>
				dimmerControlInfoList.info[j].channelState[info->channelId] = &(tmp_CircuitInfo.state[info->circuitId]);
				isContainDimmerInfo = 1;
				break;
			}
		if (isContainDimmerInfo == 0) {
			dimmerControlInfoList.info[dimmerControlInfoList.size].dimmerId = info->dimmerId;
     b9e:	21 2f       	mov	r18, r17
     ba0:	30 e0       	ldi	r19, 0x00	; 0
     ba2:	c9 01       	movw	r24, r18
     ba4:	88 0f       	add	r24, r24
     ba6:	99 1f       	adc	r25, r25
     ba8:	fc 01       	movw	r30, r24
     baa:	53 e0       	ldi	r21, 0x03	; 3
     bac:	ee 0f       	add	r30, r30
     bae:	ff 1f       	adc	r31, r31
     bb0:	5a 95       	dec	r21
     bb2:	e1 f7       	brne	.-8      	; 0xbac <updateDimmerControlInfoList+0x90>
     bb4:	e8 1b       	sub	r30, r24
     bb6:	f9 0b       	sbc	r31, r25
     bb8:	e4 58       	subi	r30, 0x84	; 132
     bba:	fc 4c       	sbci	r31, 0xCC	; 204
     bbc:	71 83       	std	Z+1, r23	; 0x01
     bbe:	60 83       	st	Z, r22

			dimmerControlInfoList.info[dimmerControlInfoList.size].channelState[0] = NULL;
     bc0:	17 82       	std	Z+7, r1	; 0x07
     bc2:	16 82       	std	Z+6, r1	; 0x06
			dimmerControlInfoList.info[dimmerControlInfoList.size].channelState[1] = NULL;
     bc4:	11 86       	std	Z+9, r1	; 0x09
     bc6:	10 86       	std	Z+8, r1	; 0x08
			dimmerControlInfoList.info[dimmerControlInfoList.size].channelState[2] = NULL;
     bc8:	13 86       	std	Z+11, r1	; 0x0b
     bca:	12 86       	std	Z+10, r1	; 0x0a
			dimmerControlInfoList.info[dimmerControlInfoList.size].channelState[3] = NULL;
     bcc:	15 86       	std	Z+13, r1	; 0x0d
     bce:	14 86       	std	Z+12, r1	; 0x0c

			dimmerControlInfoList.info[dimmerControlInfoList.size].channelState[info->channelId] = &(tmp_CircuitInfo.state[info->circuitId]);
     bd0:	12 96       	adiw	r26, 0x02	; 2
     bd2:	8c 91       	ld	r24, X
     bd4:	12 97       	sbiw	r26, 0x02	; 2
     bd6:	f9 01       	movw	r30, r18
     bd8:	43 e0       	ldi	r20, 0x03	; 3
     bda:	ee 0f       	add	r30, r30
     bdc:	ff 1f       	adc	r31, r31
     bde:	4a 95       	dec	r20
     be0:	e1 f7       	brne	.-8      	; 0xbda <updateDimmerControlInfoList+0xbe>
     be2:	e2 1b       	sub	r30, r18
     be4:	f3 0b       	sbc	r31, r19
     be6:	e8 0f       	add	r30, r24
     be8:	f1 1d       	adc	r31, r1
     bea:	ee 0f       	add	r30, r30
     bec:	ff 1f       	adc	r31, r31
     bee:	ee 57       	subi	r30, 0x7E	; 126
     bf0:	fc 4c       	sbci	r31, 0xCC	; 204
     bf2:	13 96       	adiw	r26, 0x03	; 3
     bf4:	8c 91       	ld	r24, X
     bf6:	90 e0       	ldi	r25, 0x00	; 0
     bf8:	8d 5d       	subi	r24, 0xDD	; 221
     bfa:	9a 4d       	sbci	r25, 0xDA	; 218
     bfc:	91 83       	std	Z+1, r25	; 0x01
     bfe:	80 83       	st	Z, r24
			dimmerControlInfoList.size++;
     c00:	1f 5f       	subi	r17, 0xFF	; 255
     c02:	10 93 94 34 	sts	0x3494, r17
     c06:	c5 cf       	rjmp	.-118    	; 0xb92 <updateDimmerControlInfoList+0x76>
		}
	}
}
     c08:	1f 91       	pop	r17
     c0a:	0f 91       	pop	r16
     c0c:	08 95       	ret

00000c0e <flash_init>:
#define CLEAR_SI() (PORTD &= ~(0x40))

#define GET_SO() (PIND & 0x80)

void flash_init() {
	DDRD |= 0x43;
     c0e:	8a b1       	in	r24, 0x0a	; 10
     c10:	83 64       	ori	r24, 0x43	; 67
     c12:	8a b9       	out	0x0a, r24	; 10
	DDRD &= ~(0x80);
     c14:	57 98       	cbi	0x0a, 7	; 10

	//DDRC |= 0x60;

	//PORTC |= (0x04);

	SET_NCS();
     c16:	58 9a       	sbi	0x0b, 0	; 11
}
     c18:	08 95       	ret

00000c1a <clk>:
    can be achieved.
*/
void
_delay_loop_1(uint8_t __count)
{
	__asm__ volatile (
     c1a:	8a e1       	ldi	r24, 0x1A	; 26
     c1c:	98 2f       	mov	r25, r24
     c1e:	9a 95       	dec	r25
     c20:	f1 f7       	brne	.-4      	; 0xc1e <clk+0x4>

void clk() {
	USLEEP(5);
	SET_CLK();
     c22:	59 9a       	sbi	0x0b, 1	; 11
     c24:	8a 95       	dec	r24
     c26:	f1 f7       	brne	.-4      	; 0xc24 <clk+0xa>
	USLEEP(5);
	// MIN: 7ns
	CLEAR_CLK();
     c28:	59 98       	cbi	0x0b, 1	; 11
}
     c2a:	08 95       	ret

00000c2c <flash_writeByteToSI>:

void flash_writeByteToSI(uint8 data) {
     c2c:	0f 93       	push	r16
     c2e:	1f 93       	push	r17
     c30:	cf 93       	push	r28
     c32:	df 93       	push	r29
     c34:	c7 e0       	ldi	r28, 0x07	; 7
     c36:	d0 e0       	ldi	r29, 0x00	; 0
	int i = 0;
	for (i = 7; i >= 0; i--) {
		if ((data & (1 << i)) != 0)
     c38:	08 2f       	mov	r16, r24
     c3a:	10 e0       	ldi	r17, 0x00	; 0
     c3c:	c8 01       	movw	r24, r16
     c3e:	0c 2e       	mov	r0, r28
     c40:	02 c0       	rjmp	.+4      	; 0xc46 <flash_writeByteToSI+0x1a>
     c42:	95 95       	asr	r25
     c44:	87 95       	ror	r24
     c46:	0a 94       	dec	r0
     c48:	e2 f7       	brpl	.-8      	; 0xc42 <flash_writeByteToSI+0x16>
     c4a:	80 ff       	sbrs	r24, 0
     c4c:	02 c0       	rjmp	.+4      	; 0xc52 <flash_writeByteToSI+0x26>
			SET_SI();
     c4e:	5e 9a       	sbi	0x0b, 6	; 11
     c50:	01 c0       	rjmp	.+2      	; 0xc54 <flash_writeByteToSI+0x28>
		else
			CLEAR_SI();
     c52:	5e 98       	cbi	0x0b, 6	; 11
		clk();
     c54:	0e 94 0d 06 	call	0xc1a	; 0xc1a <clk>
	CLEAR_CLK();
}

void flash_writeByteToSI(uint8 data) {
	int i = 0;
	for (i = 7; i >= 0; i--) {
     c58:	21 97       	sbiw	r28, 0x01	; 1
     c5a:	8f ef       	ldi	r24, 0xFF	; 255
     c5c:	cf 3f       	cpi	r28, 0xFF	; 255
     c5e:	d8 07       	cpc	r29, r24
     c60:	69 f7       	brne	.-38     	; 0xc3c <flash_writeByteToSI+0x10>
			SET_SI();
		else
			CLEAR_SI();
		clk();
	}
}
     c62:	df 91       	pop	r29
     c64:	cf 91       	pop	r28
     c66:	1f 91       	pop	r17
     c68:	0f 91       	pop	r16
     c6a:	08 95       	ret

00000c6c <flash_readByteFromSO>:

uint8 flash_readByteFromSO() {
     c6c:	ef 92       	push	r14
     c6e:	ff 92       	push	r15
     c70:	1f 93       	push	r17
     c72:	cf 93       	push	r28
     c74:	df 93       	push	r29
     c76:	c7 e0       	ldi	r28, 0x07	; 7
     c78:	d0 e0       	ldi	r29, 0x00	; 0
     c7a:	10 e0       	ldi	r17, 0x00	; 0

	for (i = 7; i >= 0; i--) {
		if (GET_SO() == 0)
			data |= 0;
		else
			data |= (0x01 << i);
     c7c:	81 e0       	ldi	r24, 0x01	; 1
     c7e:	e8 2e       	mov	r14, r24
     c80:	f1 2c       	mov	r15, r1
uint8 flash_readByteFromSO() {
	int i = 0;
	uint8 data = 0;

	for (i = 7; i >= 0; i--) {
		if (GET_SO() == 0)
     c82:	4f 9b       	sbis	0x09, 7	; 9
     c84:	08 c0       	rjmp	.+16     	; 0xc96 <flash_readByteFromSO+0x2a>
			data |= 0;
		else
			data |= (0x01 << i);
     c86:	c7 01       	movw	r24, r14
     c88:	0c 2e       	mov	r0, r28
     c8a:	02 c0       	rjmp	.+4      	; 0xc90 <flash_readByteFromSO+0x24>
     c8c:	88 0f       	add	r24, r24
     c8e:	99 1f       	adc	r25, r25
     c90:	0a 94       	dec	r0
     c92:	e2 f7       	brpl	.-8      	; 0xc8c <flash_readByteFromSO+0x20>
     c94:	18 2b       	or	r17, r24
		clk();
     c96:	0e 94 0d 06 	call	0xc1a	; 0xc1a <clk>

uint8 flash_readByteFromSO() {
	int i = 0;
	uint8 data = 0;

	for (i = 7; i >= 0; i--) {
     c9a:	21 97       	sbiw	r28, 0x01	; 1
     c9c:	8f ef       	ldi	r24, 0xFF	; 255
     c9e:	cf 3f       	cpi	r28, 0xFF	; 255
     ca0:	d8 07       	cpc	r29, r24
     ca2:	79 f7       	brne	.-34     	; 0xc82 <flash_readByteFromSO+0x16>
			data |= (0x01 << i);
		clk();
	}

	return data;
}
     ca4:	81 2f       	mov	r24, r17
     ca6:	df 91       	pop	r29
     ca8:	cf 91       	pop	r28
     caa:	1f 91       	pop	r17
     cac:	ff 90       	pop	r15
     cae:	ef 90       	pop	r14
     cb0:	08 95       	ret

00000cb2 <flash_bufferWrite>:

void flash_bufferWrite(uint16 address, uint8 size, uint8 *data) {
     cb2:	df 92       	push	r13
     cb4:	ef 92       	push	r14
     cb6:	ff 92       	push	r15
     cb8:	0f 93       	push	r16
     cba:	1f 93       	push	r17
     cbc:	cf 93       	push	r28
     cbe:	df 93       	push	r29
     cc0:	8c 01       	movw	r16, r24
     cc2:	d6 2e       	mov	r13, r22
     cc4:	f4 2e       	mov	r15, r20
     cc6:	e5 2e       	mov	r14, r21
	uint8 i = 0;
	uint8 cmd = 0x84;

	CLEAR_NCS();
     cc8:	58 98       	cbi	0x0b, 0	; 11
    milliseconds can be achieved.
 */
void
_delay_loop_2(uint16_t __count)
{
	__asm__ volatile (
     cca:	80 ea       	ldi	r24, 0xA0	; 160
     ccc:	9f e0       	ldi	r25, 0x0F	; 15
     cce:	01 97       	sbiw	r24, 0x01	; 1
     cd0:	f1 f7       	brne	.-4      	; 0xcce <flash_bufferWrite+0x1c>
	MSLEEP(1);

	flash_writeByteToSI(cmd);
     cd2:	84 e8       	ldi	r24, 0x84	; 132
     cd4:	0e 94 16 06 	call	0xc2c	; 0xc2c <flash_writeByteToSI>
	flash_writeByteToSI(0);
     cd8:	80 e0       	ldi	r24, 0x00	; 0
     cda:	0e 94 16 06 	call	0xc2c	; 0xc2c <flash_writeByteToSI>
	flash_writeByteToSI(address >> 8);
     cde:	81 2f       	mov	r24, r17
     ce0:	0e 94 16 06 	call	0xc2c	; 0xc2c <flash_writeByteToSI>
	flash_writeByteToSI(address);
     ce4:	80 2f       	mov	r24, r16
     ce6:	0e 94 16 06 	call	0xc2c	; 0xc2c <flash_writeByteToSI>
     cea:	2f 2d       	mov	r18, r15
     cec:	3e 2d       	mov	r19, r14
     cee:	c9 01       	movw	r24, r18
     cf0:	ec 01       	movw	r28, r24
     cf2:	10 e0       	ldi	r17, 0x00	; 0
     cf4:	04 c0       	rjmp	.+8      	; 0xcfe <flash_bufferWrite+0x4c>

	for (i = 0; i < size; i++) {
		flash_writeByteToSI(data[i]);
     cf6:	89 91       	ld	r24, Y+
     cf8:	0e 94 16 06 	call	0xc2c	; 0xc2c <flash_writeByteToSI>
	flash_writeByteToSI(cmd);
	flash_writeByteToSI(0);
	flash_writeByteToSI(address >> 8);
	flash_writeByteToSI(address);

	for (i = 0; i < size; i++) {
     cfc:	1f 5f       	subi	r17, 0xFF	; 255
     cfe:	1d 15       	cp	r17, r13
     d00:	d0 f3       	brcs	.-12     	; 0xcf6 <flash_bufferWrite+0x44>
     d02:	80 ea       	ldi	r24, 0xA0	; 160
     d04:	9f e0       	ldi	r25, 0x0F	; 15
     d06:	01 97       	sbiw	r24, 0x01	; 1
     d08:	f1 f7       	brne	.-4      	; 0xd06 <flash_bufferWrite+0x54>
		flash_writeByteToSI(data[i]);
	}
	MSLEEP(1);
	SET_NCS();
     d0a:	58 9a       	sbi	0x0b, 0	; 11
}
     d0c:	df 91       	pop	r29
     d0e:	cf 91       	pop	r28
     d10:	1f 91       	pop	r17
     d12:	0f 91       	pop	r16
     d14:	ff 90       	pop	r15
     d16:	ef 90       	pop	r14
     d18:	df 90       	pop	r13
     d1a:	08 95       	ret

00000d1c <flash_bufferToMainMemory>:

void flash_bufferToMainMemory(uint16 address) {
     d1c:	ef 92       	push	r14
     d1e:	ff 92       	push	r15
     d20:	0f 93       	push	r16
     d22:	1f 93       	push	r17
     d24:	8c 01       	movw	r16, r24
	uint8 cmd = 0x83;

	CLEAR_NCS();
     d26:	58 98       	cbi	0x0b, 0	; 11
     d28:	30 ea       	ldi	r19, 0xA0	; 160
     d2a:	e3 2e       	mov	r14, r19
     d2c:	3f e0       	ldi	r19, 0x0F	; 15
     d2e:	f3 2e       	mov	r15, r19
     d30:	c7 01       	movw	r24, r14
     d32:	01 97       	sbiw	r24, 0x01	; 1
     d34:	f1 f7       	brne	.-4      	; 0xd32 <flash_bufferToMainMemory+0x16>
	MSLEEP(1);

	flash_writeByteToSI(cmd);
     d36:	83 e8       	ldi	r24, 0x83	; 131
     d38:	0e 94 16 06 	call	0xc2c	; 0xc2c <flash_writeByteToSI>
	flash_writeByteToSI(address >> 7);
     d3c:	c8 01       	movw	r24, r16
     d3e:	88 0f       	add	r24, r24
     d40:	89 2f       	mov	r24, r25
     d42:	88 1f       	adc	r24, r24
     d44:	99 0b       	sbc	r25, r25
     d46:	91 95       	neg	r25
     d48:	0e 94 16 06 	call	0xc2c	; 0xc2c <flash_writeByteToSI>
	flash_writeByteToSI(address << 1);
     d4c:	80 2f       	mov	r24, r16
     d4e:	88 0f       	add	r24, r24
     d50:	0e 94 16 06 	call	0xc2c	; 0xc2c <flash_writeByteToSI>
	flash_writeByteToSI(0);
     d54:	80 e0       	ldi	r24, 0x00	; 0
     d56:	0e 94 16 06 	call	0xc2c	; 0xc2c <flash_writeByteToSI>
     d5a:	c7 01       	movw	r24, r14
     d5c:	01 97       	sbiw	r24, 0x01	; 1
     d5e:	f1 f7       	brne	.-4      	; 0xd5c <flash_bufferToMainMemory+0x40>

	MSLEEP(1);
	SET_NCS();
     d60:	58 9a       	sbi	0x0b, 0	; 11
}
     d62:	1f 91       	pop	r17
     d64:	0f 91       	pop	r16
     d66:	ff 90       	pop	r15
     d68:	ef 90       	pop	r14
     d6a:	08 95       	ret

00000d6c <flash_writeUint8>:

void flash_writeUint8(uint16 address, uint8 data) {
     d6c:	0f 93       	push	r16
     d6e:	1f 93       	push	r17
     d70:	df 93       	push	r29
     d72:	cf 93       	push	r28
     d74:	0f 92       	push	r0
     d76:	cd b7       	in	r28, 0x3d	; 61
     d78:	de b7       	in	r29, 0x3e	; 62
     d7a:	8c 01       	movw	r16, r24
     d7c:	69 83       	std	Y+1, r22	; 0x01
	flash_bufferWrite(0, 1, &data);
     d7e:	80 e0       	ldi	r24, 0x00	; 0
     d80:	90 e0       	ldi	r25, 0x00	; 0
     d82:	61 e0       	ldi	r22, 0x01	; 1
     d84:	ae 01       	movw	r20, r28
     d86:	4f 5f       	subi	r20, 0xFF	; 255
     d88:	5f 4f       	sbci	r21, 0xFF	; 255
     d8a:	0e 94 59 06 	call	0xcb2	; 0xcb2 <flash_bufferWrite>
	flash_bufferToMainMemory(address);
     d8e:	c8 01       	movw	r24, r16
     d90:	0e 94 8e 06 	call	0xd1c	; 0xd1c <flash_bufferToMainMemory>
     d94:	80 e4       	ldi	r24, 0x40	; 64
     d96:	9c e9       	ldi	r25, 0x9C	; 156
     d98:	01 97       	sbiw	r24, 0x01	; 1
     d9a:	f1 f7       	brne	.-4      	; 0xd98 <flash_writeUint8+0x2c>

	MSLEEP(10);
}
     d9c:	0f 90       	pop	r0
     d9e:	cf 91       	pop	r28
     da0:	df 91       	pop	r29
     da2:	1f 91       	pop	r17
     da4:	0f 91       	pop	r16
     da6:	08 95       	ret

00000da8 <flash_bufferReadUint8>:

uint8 flash_bufferReadUint8(uint16 address) {
     da8:	0f 93       	push	r16
     daa:	1f 93       	push	r17
     dac:	8c 01       	movw	r16, r24
	uint8 data = 0x00;
	uint8 cmd = 0xd4;
	uint8 i = 0;

	CLEAR_NCS();
     dae:	58 98       	cbi	0x0b, 0	; 11
	clk();
     db0:	0e 94 0d 06 	call	0xc1a	; 0xc1a <clk>

	flash_writeByteToSI(cmd);
     db4:	84 ed       	ldi	r24, 0xD4	; 212
     db6:	0e 94 16 06 	call	0xc2c	; 0xc2c <flash_writeByteToSI>
	flash_writeByteToSI(0);
     dba:	80 e0       	ldi	r24, 0x00	; 0
     dbc:	0e 94 16 06 	call	0xc2c	; 0xc2c <flash_writeByteToSI>
	flash_writeByteToSI(address >> 8);
     dc0:	81 2f       	mov	r24, r17
     dc2:	0e 94 16 06 	call	0xc2c	; 0xc2c <flash_writeByteToSI>
	flash_writeByteToSI(address);
     dc6:	80 2f       	mov	r24, r16
     dc8:	0e 94 16 06 	call	0xc2c	; 0xc2c <flash_writeByteToSI>
	flash_writeByteToSI(0);
     dcc:	80 e0       	ldi	r24, 0x00	; 0
     dce:	0e 94 16 06 	call	0xc2c	; 0xc2c <flash_writeByteToSI>

	data = flash_readByteFromSO();
     dd2:	0e 94 36 06 	call	0xc6c	; 0xc6c <flash_readByteFromSO>

	SET_NCS();
     dd6:	58 9a       	sbi	0x0b, 0	; 11
	return data;
}
     dd8:	1f 91       	pop	r17
     dda:	0f 91       	pop	r16
     ddc:	08 95       	ret

00000dde <flash_readUint8>:

uint8 flash_readUint8(uint16 address) {
     dde:	0f 93       	push	r16
     de0:	1f 93       	push	r17
     de2:	8c 01       	movw	r16, r24
	uint8 data = 0x00;
	uint8 cmd = 0xd2;
	uint8 i = 0;

	CLEAR_NCS();
     de4:	58 98       	cbi	0x0b, 0	; 11
     de6:	80 ea       	ldi	r24, 0xA0	; 160
     de8:	9f e0       	ldi	r25, 0x0F	; 15
     dea:	01 97       	sbiw	r24, 0x01	; 1
     dec:	f1 f7       	brne	.-4      	; 0xdea <flash_readUint8+0xc>
	MSLEEP(1);

	flash_writeByteToSI(cmd);
     dee:	82 ed       	ldi	r24, 0xD2	; 210
     df0:	0e 94 16 06 	call	0xc2c	; 0xc2c <flash_writeByteToSI>
	flash_writeByteToSI(address >> 7);
     df4:	c8 01       	movw	r24, r16
     df6:	88 0f       	add	r24, r24
     df8:	89 2f       	mov	r24, r25
     dfa:	88 1f       	adc	r24, r24
     dfc:	99 0b       	sbc	r25, r25
     dfe:	91 95       	neg	r25
     e00:	0e 94 16 06 	call	0xc2c	; 0xc2c <flash_writeByteToSI>
	flash_writeByteToSI(address << 1 | 0);
     e04:	80 2f       	mov	r24, r16
     e06:	88 0f       	add	r24, r24
     e08:	0e 94 16 06 	call	0xc2c	; 0xc2c <flash_writeByteToSI>
	flash_writeByteToSI(0);
     e0c:	80 e0       	ldi	r24, 0x00	; 0
     e0e:	0e 94 16 06 	call	0xc2c	; 0xc2c <flash_writeByteToSI>
     e12:	00 e0       	ldi	r16, 0x00	; 0

	for (i = 0; i < 4; i++)
		flash_writeByteToSI(0);
     e14:	80 e0       	ldi	r24, 0x00	; 0
     e16:	0e 94 16 06 	call	0xc2c	; 0xc2c <flash_writeByteToSI>
	flash_writeByteToSI(cmd);
	flash_writeByteToSI(address >> 7);
	flash_writeByteToSI(address << 1 | 0);
	flash_writeByteToSI(0);

	for (i = 0; i < 4; i++)
     e1a:	0f 5f       	subi	r16, 0xFF	; 255
     e1c:	04 30       	cpi	r16, 0x04	; 4
     e1e:	d1 f7       	brne	.-12     	; 0xe14 <flash_readUint8+0x36>
		flash_writeByteToSI(0);

	data = flash_readByteFromSO();
     e20:	0e 94 36 06 	call	0xc6c	; 0xc6c <flash_readByteFromSO>
     e24:	e0 ea       	ldi	r30, 0xA0	; 160
     e26:	ff e0       	ldi	r31, 0x0F	; 15
     e28:	31 97       	sbiw	r30, 0x01	; 1
     e2a:	f1 f7       	brne	.-4      	; 0xe28 <flash_readUint8+0x4a>

	MSLEEP(1);
	SET_NCS();
     e2c:	58 9a       	sbi	0x0b, 0	; 11
	return data;
}
     e2e:	1f 91       	pop	r17
     e30:	0f 91       	pop	r16
     e32:	08 95       	ret

00000e34 <flash_writeUint16>:

void flash_writeUint16(uint16 address, uint16 data) {
     e34:	0f 93       	push	r16
     e36:	1f 93       	push	r17
     e38:	df 93       	push	r29
     e3a:	cf 93       	push	r28
     e3c:	0f 92       	push	r0
     e3e:	0f 92       	push	r0
     e40:	cd b7       	in	r28, 0x3d	; 61
     e42:	de b7       	in	r29, 0x3e	; 62
     e44:	8c 01       	movw	r16, r24
     e46:	7a 83       	std	Y+2, r23	; 0x02
     e48:	69 83       	std	Y+1, r22	; 0x01
	flash_bufferWrite(0, 2, &data);
     e4a:	80 e0       	ldi	r24, 0x00	; 0
     e4c:	90 e0       	ldi	r25, 0x00	; 0
     e4e:	62 e0       	ldi	r22, 0x02	; 2
     e50:	ae 01       	movw	r20, r28
     e52:	4f 5f       	subi	r20, 0xFF	; 255
     e54:	5f 4f       	sbci	r21, 0xFF	; 255
     e56:	0e 94 59 06 	call	0xcb2	; 0xcb2 <flash_bufferWrite>
	flash_bufferToMainMemory(address);
     e5a:	c8 01       	movw	r24, r16
     e5c:	0e 94 8e 06 	call	0xd1c	; 0xd1c <flash_bufferToMainMemory>
     e60:	80 e4       	ldi	r24, 0x40	; 64
     e62:	9c e9       	ldi	r25, 0x9C	; 156
     e64:	01 97       	sbiw	r24, 0x01	; 1
     e66:	f1 f7       	brne	.-4      	; 0xe64 <flash_writeUint16+0x30>

	MSLEEP(10);
}
     e68:	0f 90       	pop	r0
     e6a:	0f 90       	pop	r0
     e6c:	cf 91       	pop	r28
     e6e:	df 91       	pop	r29
     e70:	1f 91       	pop	r17
     e72:	0f 91       	pop	r16
     e74:	08 95       	ret

00000e76 <flash_readUint16>:
uint16 flash_readUint16(uint16 address) {
     e76:	0f 93       	push	r16
     e78:	1f 93       	push	r17
     e7a:	8c 01       	movw	r16, r24
	uint16 data = 0x00;
	uint8 cmd = 0xd2;
	uint8 i = 0;

	CLEAR_NCS();
     e7c:	58 98       	cbi	0x0b, 0	; 11
     e7e:	80 ea       	ldi	r24, 0xA0	; 160
     e80:	9f e0       	ldi	r25, 0x0F	; 15
     e82:	01 97       	sbiw	r24, 0x01	; 1
     e84:	f1 f7       	brne	.-4      	; 0xe82 <flash_readUint16+0xc>
	MSLEEP(1);

	flash_writeByteToSI(cmd);
     e86:	82 ed       	ldi	r24, 0xD2	; 210
     e88:	0e 94 16 06 	call	0xc2c	; 0xc2c <flash_writeByteToSI>
	flash_writeByteToSI(address >> 7);
     e8c:	c8 01       	movw	r24, r16
     e8e:	88 0f       	add	r24, r24
     e90:	89 2f       	mov	r24, r25
     e92:	88 1f       	adc	r24, r24
     e94:	99 0b       	sbc	r25, r25
     e96:	91 95       	neg	r25
     e98:	0e 94 16 06 	call	0xc2c	; 0xc2c <flash_writeByteToSI>
	flash_writeByteToSI(address << 1 | 0);
     e9c:	80 2f       	mov	r24, r16
     e9e:	88 0f       	add	r24, r24
     ea0:	0e 94 16 06 	call	0xc2c	; 0xc2c <flash_writeByteToSI>
	flash_writeByteToSI(0);
     ea4:	80 e0       	ldi	r24, 0x00	; 0
     ea6:	0e 94 16 06 	call	0xc2c	; 0xc2c <flash_writeByteToSI>
     eaa:	00 e0       	ldi	r16, 0x00	; 0

	for (i = 0; i < 4; i++)
		flash_writeByteToSI(0);
     eac:	80 e0       	ldi	r24, 0x00	; 0
     eae:	0e 94 16 06 	call	0xc2c	; 0xc2c <flash_writeByteToSI>
	flash_writeByteToSI(cmd);
	flash_writeByteToSI(address >> 7);
	flash_writeByteToSI(address << 1 | 0);
	flash_writeByteToSI(0);

	for (i = 0; i < 4; i++)
     eb2:	0f 5f       	subi	r16, 0xFF	; 255
     eb4:	04 30       	cpi	r16, 0x04	; 4
     eb6:	d1 f7       	brne	.-12     	; 0xeac <flash_readUint16+0x36>
		flash_writeByteToSI(0);

	data = flash_readByteFromSO();
     eb8:	0e 94 36 06 	call	0xc6c	; 0xc6c <flash_readByteFromSO>
     ebc:	08 2f       	mov	r16, r24
     ebe:	10 e0       	ldi	r17, 0x00	; 0
	data |= flash_readByteFromSO() << 8;
     ec0:	0e 94 36 06 	call	0xc6c	; 0xc6c <flash_readByteFromSO>
     ec4:	e0 ea       	ldi	r30, 0xA0	; 160
     ec6:	ff e0       	ldi	r31, 0x0F	; 15
     ec8:	31 97       	sbiw	r30, 0x01	; 1
     eca:	f1 f7       	brne	.-4      	; 0xec8 <flash_readUint16+0x52>

	MSLEEP(1);
	SET_NCS();
     ecc:	58 9a       	sbi	0x0b, 0	; 11
     ece:	38 2f       	mov	r19, r24
     ed0:	20 e0       	ldi	r18, 0x00	; 0
     ed2:	20 2b       	or	r18, r16
     ed4:	31 2b       	or	r19, r17
	return data;
}
     ed6:	c9 01       	movw	r24, r18
     ed8:	1f 91       	pop	r17
     eda:	0f 91       	pop	r16
     edc:	08 95       	ret

00000ede <flash_writeUint32>:

void flash_writeUint32(uint16 address, uint32 data) {
     ede:	0f 93       	push	r16
     ee0:	1f 93       	push	r17
     ee2:	df 93       	push	r29
     ee4:	cf 93       	push	r28
     ee6:	00 d0       	rcall	.+0      	; 0xee8 <flash_writeUint32+0xa>
     ee8:	0f 92       	push	r0
     eea:	cd b7       	in	r28, 0x3d	; 61
     eec:	de b7       	in	r29, 0x3e	; 62
     eee:	8c 01       	movw	r16, r24
     ef0:	49 83       	std	Y+1, r20	; 0x01
     ef2:	5a 83       	std	Y+2, r21	; 0x02
     ef4:	6b 83       	std	Y+3, r22	; 0x03
     ef6:	7c 83       	std	Y+4, r23	; 0x04
	flash_bufferWrite(0, 4, &data);
     ef8:	80 e0       	ldi	r24, 0x00	; 0
     efa:	90 e0       	ldi	r25, 0x00	; 0
     efc:	64 e0       	ldi	r22, 0x04	; 4
     efe:	ae 01       	movw	r20, r28
     f00:	4f 5f       	subi	r20, 0xFF	; 255
     f02:	5f 4f       	sbci	r21, 0xFF	; 255
     f04:	0e 94 59 06 	call	0xcb2	; 0xcb2 <flash_bufferWrite>
	flash_bufferToMainMemory(address);
     f08:	c8 01       	movw	r24, r16
     f0a:	0e 94 8e 06 	call	0xd1c	; 0xd1c <flash_bufferToMainMemory>
     f0e:	80 e4       	ldi	r24, 0x40	; 64
     f10:	9c e9       	ldi	r25, 0x9C	; 156
     f12:	01 97       	sbiw	r24, 0x01	; 1
     f14:	f1 f7       	brne	.-4      	; 0xf12 <flash_writeUint32+0x34>

	MSLEEP(10);
}
     f16:	0f 90       	pop	r0
     f18:	0f 90       	pop	r0
     f1a:	0f 90       	pop	r0
     f1c:	0f 90       	pop	r0
     f1e:	cf 91       	pop	r28
     f20:	df 91       	pop	r29
     f22:	1f 91       	pop	r17
     f24:	0f 91       	pop	r16
     f26:	08 95       	ret

00000f28 <flash_readUint32>:

uint32 flash_readUint32(uint16 address) {
     f28:	9f 92       	push	r9
     f2a:	af 92       	push	r10
     f2c:	bf 92       	push	r11
     f2e:	cf 92       	push	r12
     f30:	df 92       	push	r13
     f32:	ef 92       	push	r14
     f34:	ff 92       	push	r15
     f36:	0f 93       	push	r16
     f38:	1f 93       	push	r17
     f3a:	8c 01       	movw	r16, r24
	uint32 data = 0;
	uint8 cmd = 0xd2;
	uint8 i = 0;

	CLEAR_NCS();
     f3c:	58 98       	cbi	0x0b, 0	; 11
     f3e:	80 ea       	ldi	r24, 0xA0	; 160
     f40:	9f e0       	ldi	r25, 0x0F	; 15
     f42:	01 97       	sbiw	r24, 0x01	; 1
     f44:	f1 f7       	brne	.-4      	; 0xf42 <flash_readUint32+0x1a>
	MSLEEP(1);

	flash_writeByteToSI(cmd);
     f46:	82 ed       	ldi	r24, 0xD2	; 210
     f48:	0e 94 16 06 	call	0xc2c	; 0xc2c <flash_writeByteToSI>
	flash_writeByteToSI(address >> 7);
     f4c:	c8 01       	movw	r24, r16
     f4e:	88 0f       	add	r24, r24
     f50:	89 2f       	mov	r24, r25
     f52:	88 1f       	adc	r24, r24
     f54:	99 0b       	sbc	r25, r25
     f56:	91 95       	neg	r25
     f58:	0e 94 16 06 	call	0xc2c	; 0xc2c <flash_writeByteToSI>
	flash_writeByteToSI(address << 1 | 0);
     f5c:	80 2f       	mov	r24, r16
     f5e:	88 0f       	add	r24, r24
     f60:	0e 94 16 06 	call	0xc2c	; 0xc2c <flash_writeByteToSI>
	flash_writeByteToSI(0);
     f64:	80 e0       	ldi	r24, 0x00	; 0
     f66:	0e 94 16 06 	call	0xc2c	; 0xc2c <flash_writeByteToSI>
     f6a:	00 e0       	ldi	r16, 0x00	; 0

	for (i = 0; i < 4; i++)
		flash_writeByteToSI(0);
     f6c:	80 e0       	ldi	r24, 0x00	; 0
     f6e:	0e 94 16 06 	call	0xc2c	; 0xc2c <flash_writeByteToSI>
	flash_writeByteToSI(cmd);
	flash_writeByteToSI(address >> 7);
	flash_writeByteToSI(address << 1 | 0);
	flash_writeByteToSI(0);

	for (i = 0; i < 4; i++)
     f72:	0f 5f       	subi	r16, 0xFF	; 255
     f74:	04 30       	cpi	r16, 0x04	; 4
     f76:	d1 f7       	brne	.-12     	; 0xf6c <flash_readUint32+0x44>
		flash_writeByteToSI(0);

	data = flash_readByteFromSO();
     f78:	0e 94 36 06 	call	0xc6c	; 0xc6c <flash_readByteFromSO>
     f7c:	a8 2e       	mov	r10, r24
     f7e:	bb 24       	eor	r11, r11
     f80:	cc 24       	eor	r12, r12
     f82:	dd 24       	eor	r13, r13
	data |= (flash_readByteFromSO() << 8);
     f84:	0e 94 36 06 	call	0xc6c	; 0xc6c <flash_readByteFromSO>
     f88:	98 2e       	mov	r9, r24
	data |= ((uint32) flash_readByteFromSO()) << 16;
     f8a:	0e 94 36 06 	call	0xc6c	; 0xc6c <flash_readByteFromSO>
     f8e:	e8 2e       	mov	r14, r24
	data |= ((uint32) flash_readByteFromSO()) << 24;
     f90:	0e 94 36 06 	call	0xc6c	; 0xc6c <flash_readByteFromSO>

	for (i = 0; i < 4; i++)
		flash_writeByteToSI(0);

	data = flash_readByteFromSO();
	data |= (flash_readByteFromSO() << 8);
     f94:	ff 24       	eor	r15, r15
     f96:	00 e0       	ldi	r16, 0x00	; 0
     f98:	10 e0       	ldi	r17, 0x00	; 0
     f9a:	87 01       	movw	r16, r14
     f9c:	ff 24       	eor	r15, r15
     f9e:	ee 24       	eor	r14, r14
     fa0:	90 e0       	ldi	r25, 0x00	; 0
     fa2:	a0 e0       	ldi	r26, 0x00	; 0
     fa4:	b0 e0       	ldi	r27, 0x00	; 0
     fa6:	b8 2f       	mov	r27, r24
     fa8:	aa 27       	eor	r26, r26
     faa:	99 27       	eor	r25, r25
     fac:	88 27       	eor	r24, r24
     fae:	e8 2a       	or	r14, r24
     fb0:	f9 2a       	or	r15, r25
     fb2:	0a 2b       	or	r16, r26
     fb4:	1b 2b       	or	r17, r27
	data |= ((uint32) flash_readByteFromSO()) << 16;
     fb6:	ea 28       	or	r14, r10
     fb8:	fb 28       	or	r15, r11
     fba:	0c 29       	or	r16, r12
     fbc:	1d 29       	or	r17, r13
     fbe:	80 ea       	ldi	r24, 0xA0	; 160
     fc0:	9f e0       	ldi	r25, 0x0F	; 15
     fc2:	01 97       	sbiw	r24, 0x01	; 1
     fc4:	f1 f7       	brne	.-4      	; 0xfc2 <flash_readUint32+0x9a>
	data |= ((uint32) flash_readByteFromSO()) << 24;

	MSLEEP(1);
	SET_NCS();
     fc6:	58 9a       	sbi	0x0b, 0	; 11
     fc8:	99 2d       	mov	r25, r9
     fca:	80 e0       	ldi	r24, 0x00	; 0
     fcc:	aa 27       	eor	r26, r26
     fce:	97 fd       	sbrc	r25, 7
     fd0:	a0 95       	com	r26
     fd2:	ba 2f       	mov	r27, r26
     fd4:	e8 2a       	or	r14, r24
     fd6:	f9 2a       	or	r15, r25
     fd8:	0a 2b       	or	r16, r26
     fda:	1b 2b       	or	r17, r27
	return data;
}
     fdc:	b7 01       	movw	r22, r14
     fde:	c8 01       	movw	r24, r16
     fe0:	1f 91       	pop	r17
     fe2:	0f 91       	pop	r16
     fe4:	ff 90       	pop	r15
     fe6:	ef 90       	pop	r14
     fe8:	df 90       	pop	r13
     fea:	cf 90       	pop	r12
     fec:	bf 90       	pop	r11
     fee:	af 90       	pop	r10
     ff0:	9f 90       	pop	r9
     ff2:	08 95       	ret

00000ff4 <flash_writeBytes>:

void flash_writeBytes(uint16 address, uint8* data, uint8 length) {
     ff4:	0f 93       	push	r16
     ff6:	1f 93       	push	r17
     ff8:	8c 01       	movw	r16, r24
     ffa:	9b 01       	movw	r18, r22
	flash_bufferWrite(0, length, data);
     ffc:	80 e0       	ldi	r24, 0x00	; 0
     ffe:	90 e0       	ldi	r25, 0x00	; 0
    1000:	64 2f       	mov	r22, r20
    1002:	a9 01       	movw	r20, r18
    1004:	0e 94 59 06 	call	0xcb2	; 0xcb2 <flash_bufferWrite>
	flash_bufferToMainMemory(address);
    1008:	c8 01       	movw	r24, r16
    100a:	0e 94 8e 06 	call	0xd1c	; 0xd1c <flash_bufferToMainMemory>
    100e:	80 e4       	ldi	r24, 0x40	; 64
    1010:	9c e9       	ldi	r25, 0x9C	; 156
    1012:	01 97       	sbiw	r24, 0x01	; 1
    1014:	f1 f7       	brne	.-4      	; 0x1012 <flash_writeBytes+0x1e>

	MSLEEP(10);
}
    1016:	1f 91       	pop	r17
    1018:	0f 91       	pop	r16
    101a:	08 95       	ret

0000101c <flash_readBytes>:
uint8 flash_readBytes(uint16 address, uint8 *data, uint8 length) {
    101c:	df 92       	push	r13
    101e:	ef 92       	push	r14
    1020:	ff 92       	push	r15
    1022:	0f 93       	push	r16
    1024:	1f 93       	push	r17
    1026:	cf 93       	push	r28
    1028:	df 93       	push	r29
    102a:	8c 01       	movw	r16, r24
    102c:	f6 2e       	mov	r15, r22
    102e:	e7 2e       	mov	r14, r23
    1030:	d4 2e       	mov	r13, r20
	uint8 cmd = 0xd2;
	uint8 i = 0;

	CLEAR_NCS();
    1032:	58 98       	cbi	0x0b, 0	; 11
    1034:	80 ea       	ldi	r24, 0xA0	; 160
    1036:	9f e0       	ldi	r25, 0x0F	; 15
    1038:	01 97       	sbiw	r24, 0x01	; 1
    103a:	f1 f7       	brne	.-4      	; 0x1038 <flash_readBytes+0x1c>
	MSLEEP(1);

	flash_writeByteToSI(cmd);
    103c:	82 ed       	ldi	r24, 0xD2	; 210
    103e:	0e 94 16 06 	call	0xc2c	; 0xc2c <flash_writeByteToSI>
	flash_writeByteToSI(address >> 7);
    1042:	c8 01       	movw	r24, r16
    1044:	88 0f       	add	r24, r24
    1046:	89 2f       	mov	r24, r25
    1048:	88 1f       	adc	r24, r24
    104a:	99 0b       	sbc	r25, r25
    104c:	91 95       	neg	r25
    104e:	0e 94 16 06 	call	0xc2c	; 0xc2c <flash_writeByteToSI>
	flash_writeByteToSI(address << 1 | 0);
    1052:	80 2f       	mov	r24, r16
    1054:	88 0f       	add	r24, r24
    1056:	0e 94 16 06 	call	0xc2c	; 0xc2c <flash_writeByteToSI>
	flash_writeByteToSI(0);
    105a:	80 e0       	ldi	r24, 0x00	; 0
    105c:	0e 94 16 06 	call	0xc2c	; 0xc2c <flash_writeByteToSI>
    1060:	00 e0       	ldi	r16, 0x00	; 0

	for (i = 0; i < 4; i++)
		flash_writeByteToSI(0);
    1062:	80 e0       	ldi	r24, 0x00	; 0
    1064:	0e 94 16 06 	call	0xc2c	; 0xc2c <flash_writeByteToSI>
	flash_writeByteToSI(cmd);
	flash_writeByteToSI(address >> 7);
	flash_writeByteToSI(address << 1 | 0);
	flash_writeByteToSI(0);

	for (i = 0; i < 4; i++)
    1068:	0f 5f       	subi	r16, 0xFF	; 255
    106a:	04 30       	cpi	r16, 0x04	; 4
    106c:	d1 f7       	brne	.-12     	; 0x1062 <flash_readBytes+0x46>
    106e:	8f 2d       	mov	r24, r15
    1070:	9e 2d       	mov	r25, r14
    1072:	9c 01       	movw	r18, r24
    1074:	e9 01       	movw	r28, r18
    1076:	00 e0       	ldi	r16, 0x00	; 0
    1078:	04 c0       	rjmp	.+8      	; 0x1082 <flash_readBytes+0x66>
		flash_writeByteToSI(0);

	for (i = 0; i < length; i++)
		data[i] = flash_readByteFromSO();
    107a:	0e 94 36 06 	call	0xc6c	; 0xc6c <flash_readByteFromSO>
    107e:	89 93       	st	Y+, r24
	flash_writeByteToSI(0);

	for (i = 0; i < 4; i++)
		flash_writeByteToSI(0);

	for (i = 0; i < length; i++)
    1080:	0f 5f       	subi	r16, 0xFF	; 255
    1082:	0d 15       	cp	r16, r13
    1084:	d0 f3       	brcs	.-12     	; 0x107a <flash_readBytes+0x5e>
    1086:	80 ea       	ldi	r24, 0xA0	; 160
    1088:	9f e0       	ldi	r25, 0x0F	; 15
    108a:	01 97       	sbiw	r24, 0x01	; 1
    108c:	f1 f7       	brne	.-4      	; 0x108a <flash_readBytes+0x6e>
		data[i] = flash_readByteFromSO();

	MSLEEP(1);
	SET_NCS();
    108e:	58 9a       	sbi	0x0b, 0	; 11

	return length;
}
    1090:	8d 2d       	mov	r24, r13
    1092:	df 91       	pop	r29
    1094:	cf 91       	pop	r28
    1096:	1f 91       	pop	r17
    1098:	0f 91       	pop	r16
    109a:	ff 90       	pop	r15
    109c:	ef 90       	pop	r14
    109e:	df 90       	pop	r13
    10a0:	08 95       	ret

000010a2 <flash_readStatus>:

uint8 flash_readStatus() {
    10a2:	0f 93       	push	r16
    10a4:	1f 93       	push	r17
	uint8 cmd = 0xd7;
	uint8 data = 0;

	CLEAR_NCS();
    10a6:	58 98       	cbi	0x0b, 0	; 11
    10a8:	00 ea       	ldi	r16, 0xA0	; 160
    10aa:	1f e0       	ldi	r17, 0x0F	; 15
    10ac:	c8 01       	movw	r24, r16
    10ae:	01 97       	sbiw	r24, 0x01	; 1
    10b0:	f1 f7       	brne	.-4      	; 0x10ae <flash_readStatus+0xc>
	MSLEEP(1);

	flash_writeByteToSI(cmd);
    10b2:	87 ed       	ldi	r24, 0xD7	; 215
    10b4:	0e 94 16 06 	call	0xc2c	; 0xc2c <flash_writeByteToSI>
	data = flash_readByteFromSO();
    10b8:	0e 94 36 06 	call	0xc6c	; 0xc6c <flash_readByteFromSO>
    10bc:	f8 01       	movw	r30, r16
    10be:	31 97       	sbiw	r30, 0x01	; 1
    10c0:	f1 f7       	brne	.-4      	; 0x10be <flash_readStatus+0x1c>

	MSLEEP(1);
	SET_NCS();
    10c2:	58 9a       	sbi	0x0b, 0	; 11

	return data;
}
    10c4:	1f 91       	pop	r17
    10c6:	0f 91       	pop	r16
    10c8:	08 95       	ret

000010ca <mpr_GetAssignedTokenId>:
int mprToken = -1;
uint8 tmp_Buff_MPR[MAX_TX_BUFF];

char mpr_GetAssignedTokenId() {
	return mprToken;
}
    10ca:	80 91 00 22 	lds	r24, 0x2200
    10ce:	08 95       	ret

000010d0 <mpr_HasToken>:

char mpr_HasToken() {
    10d0:	20 e0       	ldi	r18, 0x00	; 0
    10d2:	80 91 00 22 	lds	r24, 0x2200
    10d6:	90 91 01 22 	lds	r25, 0x2201
    10da:	8f 5f       	subi	r24, 0xFF	; 255
    10dc:	9f 4f       	sbci	r25, 0xFF	; 255
    10de:	09 f4       	brne	.+2      	; 0x10e2 <mpr_HasToken+0x12>
    10e0:	21 e0       	ldi	r18, 0x01	; 1
	if (mprToken == -1)
		return 1;

	return 0;
}
    10e2:	82 2f       	mov	r24, r18
    10e4:	08 95       	ret

000010e6 <mpr_ReleaseToken>:
	plcs_NCP_AssignToken(id);
	mprToken = id;
}

void mpr_ReleaseToken() {
	mprToken = -1;
    10e6:	8f ef       	ldi	r24, 0xFF	; 255
    10e8:	9f ef       	ldi	r25, 0xFF	; 255
    10ea:	90 93 01 22 	sts	0x2201, r25
    10ee:	80 93 00 22 	sts	0x2200, r24
}
    10f2:	08 95       	ret

000010f4 <plcs_NCP_AssignToken>:

char plcs_NCP_AssignToken(uint16 nodeId) {
    10f4:	ef 92       	push	r14
    10f6:	ff 92       	push	r15
    10f8:	0f 93       	push	r16
    10fa:	df 93       	push	r29
    10fc:	cf 93       	push	r28
    10fe:	cd b7       	in	r28, 0x3d	; 61
    1100:	de b7       	in	r29, 0x3e	; 62
    1102:	2a 97       	sbiw	r28, 0x0a	; 10
    1104:	0f b6       	in	r0, 0x3f	; 63
    1106:	f8 94       	cli
    1108:	de bf       	out	0x3e, r29	; 62
    110a:	0f be       	out	0x3f, r0	; 63
    110c:	cd bf       	out	0x3d, r28	; 61
    110e:	bc 01       	movw	r22, r24
	int len = 0;
	uint8 payload[10];
	uint8 resultLen = 0;

	payload[len++] = NCP_ASSIGN_TOKEN;
    1110:	86 e0       	ldi	r24, 0x06	; 6
    1112:	89 83       	std	Y+1, r24	; 0x01
	payload[len++] = nodeId >> 8;
    1114:	7a 83       	std	Y+2, r23	; 0x02
	payload[len++] = nodeId;
    1116:	6b 83       	std	Y+3, r22	; 0x03

	resultLen = plcs_GetNCPMessage(tmp_Buff_MPR, nodeId, 0, payload, len);
    1118:	82 ef       	ldi	r24, 0xF2	; 242
    111a:	e8 2e       	mov	r14, r24
    111c:	8d e3       	ldi	r24, 0x3D	; 61
    111e:	f8 2e       	mov	r15, r24
    1120:	c7 01       	movw	r24, r14
    1122:	40 e0       	ldi	r20, 0x00	; 0
    1124:	50 e0       	ldi	r21, 0x00	; 0
    1126:	9e 01       	movw	r18, r28
    1128:	2f 5f       	subi	r18, 0xFF	; 255
    112a:	3f 4f       	sbci	r19, 0xFF	; 255
    112c:	03 e0       	ldi	r16, 0x03	; 3
    112e:	0e 94 f1 0c 	call	0x19e2	; 0x19e2 <plcs_GetNCPMessage>
    1132:	68 2f       	mov	r22, r24
	xcps_send_rs485ForMPR(tmp_Buff_MPR, resultLen);
    1134:	c7 01       	movw	r24, r14
    1136:	0e 94 48 35 	call	0x6a90	; 0x6a90 <xcps_send_rs485ForMPR>
	return 0;
}
    113a:	80 e0       	ldi	r24, 0x00	; 0
    113c:	2a 96       	adiw	r28, 0x0a	; 10
    113e:	0f b6       	in	r0, 0x3f	; 63
    1140:	f8 94       	cli
    1142:	de bf       	out	0x3e, r29	; 62
    1144:	0f be       	out	0x3f, r0	; 63
    1146:	cd bf       	out	0x3d, r28	; 61
    1148:	cf 91       	pop	r28
    114a:	df 91       	pop	r29
    114c:	0f 91       	pop	r16
    114e:	ff 90       	pop	r15
    1150:	ef 90       	pop	r14
    1152:	08 95       	ret

00001154 <mpr_AssignToken>:
		return 1;

	return 0;
}

void mpr_AssignToken(int id) {
    1154:	0f 93       	push	r16
    1156:	1f 93       	push	r17
    1158:	8c 01       	movw	r16, r24
	plcs_NCP_AssignToken(id);
    115a:	0e 94 7a 08 	call	0x10f4	; 0x10f4 <plcs_NCP_AssignToken>
	mprToken = id;
    115e:	10 93 01 22 	sts	0x2201, r17
    1162:	00 93 00 22 	sts	0x2200, r16
}
    1166:	1f 91       	pop	r17
    1168:	0f 91       	pop	r16
    116a:	08 95       	ret

0000116c <getSensorMappingTableSize>:

}
// ---------------------------------------------------------------------------------------------- //
// ------------------ Add & Update Mapping Table  --------------------------------------------------- //
// ---------------------------------------------------------------------------------------------- //
uint16 getSensorMappingTableSize() {
    116c:	ed eb       	ldi	r30, 0xBD	; 189
    116e:	f4 e3       	ldi	r31, 0x34	; 52
    1170:	20 e0       	ldi	r18, 0x00	; 0
    1172:	30 e0       	ldi	r19, 0x00	; 0
	uint16 i;
	uint16 size = 0;
	for (i = 0; i < MaxNumOfSensorMappingInfo; i++)
		if (sensorMappingTable.mappingInfo[i].isEnable == 1)
    1174:	80 81       	ld	r24, Z
    1176:	81 30       	cpi	r24, 0x01	; 1
    1178:	11 f4       	brne	.+4      	; 0x117e <getSensorMappingTableSize+0x12>
			size++;
    117a:	2f 5f       	subi	r18, 0xFF	; 255
    117c:	3f 4f       	sbci	r19, 0xFF	; 255
    117e:	39 96       	adiw	r30, 0x09	; 9
// ------------------ Add & Update Mapping Table  --------------------------------------------------- //
// ---------------------------------------------------------------------------------------------- //
uint16 getSensorMappingTableSize() {
	uint16 i;
	uint16 size = 0;
	for (i = 0; i < MaxNumOfSensorMappingInfo; i++)
    1180:	8d e3       	ldi	r24, 0x3D	; 61
    1182:	e4 3b       	cpi	r30, 0xB4	; 180
    1184:	f8 07       	cpc	r31, r24
    1186:	b1 f7       	brne	.-20     	; 0x1174 <getSensorMappingTableSize+0x8>
		if (sensorMappingTable.mappingInfo[i].isEnable == 1)
			size++;
	return size;
}
    1188:	c9 01       	movw	r24, r18
    118a:	08 95       	ret

0000118c <getSensorMappingInfoByIndex>:

SensorMappingInfo_st * getSensorMappingInfoByIndex(uint16 index) {
    118c:	bc 01       	movw	r22, r24
    118e:	ed eb       	ldi	r30, 0xBD	; 189
    1190:	f4 e3       	ldi	r31, 0x34	; 52
    1192:	20 e0       	ldi	r18, 0x00	; 0
    1194:	30 e0       	ldi	r19, 0x00	; 0
    1196:	40 e0       	ldi	r20, 0x00	; 0
    1198:	50 e0       	ldi	r21, 0x00	; 0
	uint16 cnt = 0;
	uint16 i = 0;
	for (i = 0; i < MaxNumOfSensorMappingInfo; i++)
		if (sensorMappingTable.mappingInfo[i].isEnable == 1) {
    119a:	80 81       	ld	r24, Z
    119c:	81 30       	cpi	r24, 0x01	; 1
    119e:	81 f4       	brne	.+32     	; 0x11c0 <getSensorMappingInfoByIndex+0x34>
			if (cnt == index) {
    11a0:	26 17       	cp	r18, r22
    11a2:	37 07       	cpc	r19, r23
    11a4:	59 f4       	brne	.+22     	; 0x11bc <getSensorMappingInfoByIndex+0x30>
				return &(sensorMappingTable.mappingInfo[i]);
    11a6:	9a 01       	movw	r18, r20
    11a8:	83 e0       	ldi	r24, 0x03	; 3
    11aa:	22 0f       	add	r18, r18
    11ac:	33 1f       	adc	r19, r19
    11ae:	8a 95       	dec	r24
    11b0:	e1 f7       	brne	.-8      	; 0x11aa <getSensorMappingInfoByIndex+0x1e>
    11b2:	24 0f       	add	r18, r20
    11b4:	35 1f       	adc	r19, r21
    11b6:	2b 54       	subi	r18, 0x4B	; 75
    11b8:	3b 4c       	sbci	r19, 0xCB	; 203
    11ba:	0a c0       	rjmp	.+20     	; 0x11d0 <getSensorMappingInfoByIndex+0x44>
			}
			cnt++;
    11bc:	2f 5f       	subi	r18, 0xFF	; 255
    11be:	3f 4f       	sbci	r19, 0xFF	; 255
}

SensorMappingInfo_st * getSensorMappingInfoByIndex(uint16 index) {
	uint16 cnt = 0;
	uint16 i = 0;
	for (i = 0; i < MaxNumOfSensorMappingInfo; i++)
    11c0:	4f 5f       	subi	r20, 0xFF	; 255
    11c2:	5f 4f       	sbci	r21, 0xFF	; 255
    11c4:	39 96       	adiw	r30, 0x09	; 9
    11c6:	4f 3f       	cpi	r20, 0xFF	; 255
    11c8:	51 05       	cpc	r21, r1
    11ca:	39 f7       	brne	.-50     	; 0x119a <getSensorMappingInfoByIndex+0xe>
    11cc:	20 e0       	ldi	r18, 0x00	; 0
    11ce:	30 e0       	ldi	r19, 0x00	; 0
				return &(sensorMappingTable.mappingInfo[i]);
			}
			cnt++;
		}
	return NULL;
}
    11d0:	c9 01       	movw	r24, r18
    11d2:	08 95       	ret

000011d4 <addSensorMappingTable>:

SensorMappingInfo_st *addSensorMappingTable(uint16 lcId, uint16 sensorId, uint8 circuitId,
		uint8 onTime, uint8 onCtrlMode, uint8 offCtrlMode) {
    11d4:	cf 92       	push	r12
    11d6:	df 92       	push	r13
    11d8:	ef 92       	push	r14
    11da:	ff 92       	push	r15
    11dc:	0f 93       	push	r16
    11de:	1f 93       	push	r17
    11e0:	cf 93       	push	r28
    11e2:	df 93       	push	r29
    11e4:	ec 01       	movw	r28, r24
    11e6:	6b 01       	movw	r12, r22
    11e8:	14 2f       	mov	r17, r20
    11ea:	f2 2e       	mov	r15, r18
	uint16 i = 0;
	if (getSensorMappingTableSize() >= MaxNumOfSensorMappingInfo)
    11ec:	0e 94 b6 08 	call	0x116c	; 0x116c <getSensorMappingTableSize>
    11f0:	8f 3f       	cpi	r24, 0xFF	; 255
    11f2:	91 05       	cpc	r25, r1
    11f4:	40 f5       	brcc	.+80     	; 0x1246 <addSensorMappingTable+0x72>
    11f6:	ed eb       	ldi	r30, 0xBD	; 189
    11f8:	f4 e3       	ldi	r31, 0x34	; 52
    11fa:	20 e0       	ldi	r18, 0x00	; 0
    11fc:	30 e0       	ldi	r19, 0x00	; 0
		return NULL;

	for (i = 0; i < MaxNumOfSensorMappingInfo; i++)
		if (sensorMappingTable.mappingInfo[i].isEnable != 1) {
    11fe:	80 81       	ld	r24, Z
    1200:	81 30       	cpi	r24, 0x01	; 1
    1202:	c1 f0       	breq	.+48     	; 0x1234 <addSensorMappingTable+0x60>
			sensorMappingTable.mappingInfo[i].lcId = lcId;
    1204:	f9 01       	movw	r30, r18
    1206:	93 e0       	ldi	r25, 0x03	; 3
    1208:	ee 0f       	add	r30, r30
    120a:	ff 1f       	adc	r31, r31
    120c:	9a 95       	dec	r25
    120e:	e1 f7       	brne	.-8      	; 0x1208 <addSensorMappingTable+0x34>
    1210:	e2 0f       	add	r30, r18
    1212:	f3 1f       	adc	r31, r19
    1214:	eb 54       	subi	r30, 0x4B	; 75
    1216:	fb 4c       	sbci	r31, 0xCB	; 203
    1218:	d1 83       	std	Z+1, r29	; 0x01
    121a:	c0 83       	st	Z, r28
			sensorMappingTable.mappingInfo[i].sensorId = sensorId;
    121c:	d3 82       	std	Z+3, r13	; 0x03
    121e:	c2 82       	std	Z+2, r12	; 0x02
			sensorMappingTable.mappingInfo[i].circuitId = circuitId;
    1220:	14 83       	std	Z+4, r17	; 0x04
			sensorMappingTable.mappingInfo[i].onTime = onTime;
    1222:	f5 82       	std	Z+5, r15	; 0x05
			sensorMappingTable.mappingInfo[i].onCtrlMode = onCtrlMode;
    1224:	06 83       	std	Z+6, r16	; 0x06
			sensorMappingTable.mappingInfo[i].offCtrlMode = offCtrlMode;
    1226:	e7 82       	std	Z+7, r14	; 0x07
			sensorMappingTable.mappingInfo[i].isEnable = 1;
    1228:	81 e0       	ldi	r24, 0x01	; 1
    122a:	80 87       	std	Z+8, r24	; 0x08
			break;
		}
	if (i == MaxNumOfSensorMappingInfo)
    122c:	2f 3f       	cpi	r18, 0xFF	; 255
    122e:	31 05       	cpc	r19, r1
    1230:	41 f4       	brne	.+16     	; 0x1242 <addSensorMappingTable+0x6e>
    1232:	09 c0       	rjmp	.+18     	; 0x1246 <addSensorMappingTable+0x72>
		uint8 onTime, uint8 onCtrlMode, uint8 offCtrlMode) {
	uint16 i = 0;
	if (getSensorMappingTableSize() >= MaxNumOfSensorMappingInfo)
		return NULL;

	for (i = 0; i < MaxNumOfSensorMappingInfo; i++)
    1234:	2f 5f       	subi	r18, 0xFF	; 255
    1236:	3f 4f       	sbci	r19, 0xFF	; 255
    1238:	39 96       	adiw	r30, 0x09	; 9
    123a:	2f 3f       	cpi	r18, 0xFF	; 255
    123c:	31 05       	cpc	r19, r1
    123e:	f9 f6       	brne	.-66     	; 0x11fe <addSensorMappingTable+0x2a>
    1240:	02 c0       	rjmp	.+4      	; 0x1246 <addSensorMappingTable+0x72>
			break;
		}
	if (i == MaxNumOfSensorMappingInfo)
		return NULL;

	return &(sensorMappingTable.mappingInfo[i]);
    1242:	9f 01       	movw	r18, r30
    1244:	02 c0       	rjmp	.+4      	; 0x124a <addSensorMappingTable+0x76>
    1246:	20 e0       	ldi	r18, 0x00	; 0
    1248:	30 e0       	ldi	r19, 0x00	; 0
}
    124a:	c9 01       	movw	r24, r18
    124c:	df 91       	pop	r29
    124e:	cf 91       	pop	r28
    1250:	1f 91       	pop	r17
    1252:	0f 91       	pop	r16
    1254:	ff 90       	pop	r15
    1256:	ef 90       	pop	r14
    1258:	df 90       	pop	r13
    125a:	cf 90       	pop	r12
    125c:	08 95       	ret

0000125e <findSensorMappingInfoById>:
		sensorMappingInfo_WriteToEEPRom(index);

	return result;
}

int findSensorMappingInfoById(uint16 lcId, uint16 sensorId, uint8 circuitId) {
    125e:	e7 eb       	ldi	r30, 0xB7	; 183
    1260:	f4 e3       	ldi	r31, 0x34	; 52
    1262:	20 e0       	ldi	r18, 0x00	; 0
    1264:	30 e0       	ldi	r19, 0x00	; 0
	uint16 i = 0;
	for (i = 0; i < MaxNumOfSensorMappingInfo; i++)
		if (sensorId == sensorMappingTable.mappingInfo[i].sensorId
    1266:	80 81       	ld	r24, Z
    1268:	91 81       	ldd	r25, Z+1	; 0x01
    126a:	68 17       	cp	r22, r24
    126c:	79 07       	cpc	r23, r25
    126e:	31 f4       	brne	.+12     	; 0x127c <findSensorMappingInfoById+0x1e>
    1270:	82 81       	ldd	r24, Z+2	; 0x02
    1272:	48 17       	cp	r20, r24
    1274:	19 f4       	brne	.+6      	; 0x127c <findSensorMappingInfoById+0x1e>
    1276:	86 81       	ldd	r24, Z+6	; 0x06
    1278:	81 30       	cpi	r24, 0x01	; 1
    127a:	41 f0       	breq	.+16     	; 0x128c <findSensorMappingInfoById+0x2e>
	return result;
}

int findSensorMappingInfoById(uint16 lcId, uint16 sensorId, uint8 circuitId) {
	uint16 i = 0;
	for (i = 0; i < MaxNumOfSensorMappingInfo; i++)
    127c:	2f 5f       	subi	r18, 0xFF	; 255
    127e:	3f 4f       	sbci	r19, 0xFF	; 255
    1280:	39 96       	adiw	r30, 0x09	; 9
    1282:	2f 3f       	cpi	r18, 0xFF	; 255
    1284:	31 05       	cpc	r19, r1
    1286:	79 f7       	brne	.-34     	; 0x1266 <findSensorMappingInfoById+0x8>
    1288:	2f ef       	ldi	r18, 0xFF	; 255
    128a:	3f ef       	ldi	r19, 0xFF	; 255
		if (sensorId == sensorMappingTable.mappingInfo[i].sensorId
				&& circuitId == sensorMappingTable.mappingInfo[i].circuitId
				&& sensorMappingTable.mappingInfo[i].isEnable == 1)
			return i;
	return -1; // 찾는 값이 없으면 '-1'을 리턴
}
    128c:	c9 01       	movw	r24, r18
    128e:	08 95       	ret

00001290 <getDimmerMappingTableSize>:

// ---------------------------------------------------------------------------------------------- //
// ------------------ Add & Update Mapping Table  --------------------------------------------------- //
// ---------------------------------------------------------------------------------------------- //

uint8 getDimmerMappingTableSize() {
    1290:	e8 eb       	ldi	r30, 0xB8	; 184
    1292:	f2 e3       	ldi	r31, 0x32	; 50
    1294:	90 e0       	ldi	r25, 0x00	; 0
	uint8 i;
	uint8 size = 0;
	for (i = 0; i < MaxNumOfDimmerMappingInfo; i++)
		if (dimmerMappingTable.mappingInfo[i].isEnable == 1)
    1296:	80 81       	ld	r24, Z
    1298:	81 30       	cpi	r24, 0x01	; 1
    129a:	09 f4       	brne	.+2      	; 0x129e <getDimmerMappingTableSize+0xe>
			size++;
    129c:	9f 5f       	subi	r25, 0xFF	; 255
    129e:	35 96       	adiw	r30, 0x05	; 5
// ---------------------------------------------------------------------------------------------- //

uint8 getDimmerMappingTableSize() {
	uint8 i;
	uint8 size = 0;
	for (i = 0; i < MaxNumOfDimmerMappingInfo; i++)
    12a0:	83 e3       	ldi	r24, 0x33	; 51
    12a2:	e0 38       	cpi	r30, 0x80	; 128
    12a4:	f8 07       	cpc	r31, r24
    12a6:	b9 f7       	brne	.-18     	; 0x1296 <getDimmerMappingTableSize+0x6>
		if (dimmerMappingTable.mappingInfo[i].isEnable == 1)
			size++;
	return size;
}
    12a8:	89 2f       	mov	r24, r25
    12aa:	08 95       	ret

000012ac <getDimmerMappingInfoByIndex>:

DimmerMappingInfo_st * getDimmerMappingInfoByIndex(uint8 index) {
    12ac:	38 2f       	mov	r19, r24
    12ae:	e8 eb       	ldi	r30, 0xB8	; 184
    12b0:	f2 e3       	ldi	r31, 0x32	; 50
    12b2:	20 e0       	ldi	r18, 0x00	; 0
    12b4:	90 e0       	ldi	r25, 0x00	; 0
	uint8 cnt = 0;
	uint8 i = 0;
	for (i = 0; i < MaxNumOfDimmerMappingInfo; i++)
		if (dimmerMappingTable.mappingInfo[i].isEnable == 1) {
    12b6:	80 81       	ld	r24, Z
    12b8:	81 30       	cpi	r24, 0x01	; 1
    12ba:	51 f4       	brne	.+20     	; 0x12d0 <getDimmerMappingInfoByIndex+0x24>
			if (cnt == index) {
    12bc:	23 17       	cp	r18, r19
    12be:	39 f4       	brne	.+14     	; 0x12ce <getDimmerMappingInfoByIndex+0x22>
				return &(dimmerMappingTable.mappingInfo[i]);
    12c0:	85 e0       	ldi	r24, 0x05	; 5
    12c2:	98 9f       	mul	r25, r24
    12c4:	90 01       	movw	r18, r0
    12c6:	11 24       	eor	r1, r1
    12c8:	2c 54       	subi	r18, 0x4C	; 76
    12ca:	3d 4c       	sbci	r19, 0xCD	; 205
    12cc:	07 c0       	rjmp	.+14     	; 0x12dc <getDimmerMappingInfoByIndex+0x30>
			}
			cnt++;
    12ce:	2f 5f       	subi	r18, 0xFF	; 255
}

DimmerMappingInfo_st * getDimmerMappingInfoByIndex(uint8 index) {
	uint8 cnt = 0;
	uint8 i = 0;
	for (i = 0; i < MaxNumOfDimmerMappingInfo; i++)
    12d0:	9f 5f       	subi	r25, 0xFF	; 255
    12d2:	35 96       	adiw	r30, 0x05	; 5
    12d4:	98 32       	cpi	r25, 0x28	; 40
    12d6:	79 f7       	brne	.-34     	; 0x12b6 <getDimmerMappingInfoByIndex+0xa>
    12d8:	20 e0       	ldi	r18, 0x00	; 0
    12da:	30 e0       	ldi	r19, 0x00	; 0
				return &(dimmerMappingTable.mappingInfo[i]);
			}
			cnt++;
		}
	return NULL;
}
    12dc:	c9 01       	movw	r24, r18
    12de:	08 95       	ret

000012e0 <addDimmerMappingTable>:

DimmerMappingInfo_st *addDimmerMappingTable(uint16 dimmerId, uint8 channelId, uint8 circuitId) {
    12e0:	0f 93       	push	r16
    12e2:	1f 93       	push	r17
    12e4:	cf 93       	push	r28
    12e6:	df 93       	push	r29
    12e8:	ec 01       	movw	r28, r24
    12ea:	16 2f       	mov	r17, r22
    12ec:	04 2f       	mov	r16, r20
	uint16 i = 0;

	if (getDimmerMappingTableSize() >= MaxNumOfDimmerMappingInfo)
    12ee:	0e 94 48 09 	call	0x1290	; 0x1290 <getDimmerMappingTableSize>
    12f2:	88 32       	cpi	r24, 0x28	; 40
    12f4:	18 f5       	brcc	.+70     	; 0x133c <addDimmerMappingTable+0x5c>
    12f6:	e8 eb       	ldi	r30, 0xB8	; 184
    12f8:	f2 e3       	ldi	r31, 0x32	; 50
    12fa:	20 e0       	ldi	r18, 0x00	; 0
    12fc:	30 e0       	ldi	r19, 0x00	; 0
		return NULL;

	for (i = 0; i < MaxNumOfDimmerMappingInfo; i++) {
		if (dimmerMappingTable.mappingInfo[i].isEnable != 1) {
    12fe:	80 81       	ld	r24, Z
    1300:	81 30       	cpi	r24, 0x01	; 1
    1302:	99 f0       	breq	.+38     	; 0x132a <addDimmerMappingTable+0x4a>
			dimmerMappingTable.mappingInfo[i].dimmerId = dimmerId;
    1304:	f9 01       	movw	r30, r18
    1306:	ee 0f       	add	r30, r30
    1308:	ff 1f       	adc	r31, r31
    130a:	ee 0f       	add	r30, r30
    130c:	ff 1f       	adc	r31, r31
    130e:	e2 0f       	add	r30, r18
    1310:	f3 1f       	adc	r31, r19
    1312:	ec 54       	subi	r30, 0x4C	; 76
    1314:	fd 4c       	sbci	r31, 0xCD	; 205
    1316:	d1 83       	std	Z+1, r29	; 0x01
    1318:	c0 83       	st	Z, r28
			dimmerMappingTable.mappingInfo[i].channelId = channelId;
    131a:	12 83       	std	Z+2, r17	; 0x02
			dimmerMappingTable.mappingInfo[i].circuitId = circuitId;
    131c:	03 83       	std	Z+3, r16	; 0x03
			dimmerMappingTable.mappingInfo[i].isEnable = 1;
    131e:	81 e0       	ldi	r24, 0x01	; 1
    1320:	84 83       	std	Z+4, r24	; 0x04
			break;
		}
	}

	if (i == MaxNumOfDimmerMappingInfo)
    1322:	28 32       	cpi	r18, 0x28	; 40
    1324:	31 05       	cpc	r19, r1
    1326:	41 f4       	brne	.+16     	; 0x1338 <addDimmerMappingTable+0x58>
    1328:	09 c0       	rjmp	.+18     	; 0x133c <addDimmerMappingTable+0x5c>
	uint16 i = 0;

	if (getDimmerMappingTableSize() >= MaxNumOfDimmerMappingInfo)
		return NULL;

	for (i = 0; i < MaxNumOfDimmerMappingInfo; i++) {
    132a:	2f 5f       	subi	r18, 0xFF	; 255
    132c:	3f 4f       	sbci	r19, 0xFF	; 255
    132e:	35 96       	adiw	r30, 0x05	; 5
    1330:	28 32       	cpi	r18, 0x28	; 40
    1332:	31 05       	cpc	r19, r1
    1334:	21 f7       	brne	.-56     	; 0x12fe <addDimmerMappingTable+0x1e>
    1336:	02 c0       	rjmp	.+4      	; 0x133c <addDimmerMappingTable+0x5c>
	}

	if (i == MaxNumOfDimmerMappingInfo)
		return NULL;

	return &(dimmerMappingTable.mappingInfo[i]);
    1338:	9f 01       	movw	r18, r30
    133a:	02 c0       	rjmp	.+4      	; 0x1340 <addDimmerMappingTable+0x60>
    133c:	20 e0       	ldi	r18, 0x00	; 0
    133e:	30 e0       	ldi	r19, 0x00	; 0
}
    1340:	c9 01       	movw	r24, r18
    1342:	df 91       	pop	r29
    1344:	cf 91       	pop	r28
    1346:	1f 91       	pop	r17
    1348:	0f 91       	pop	r16
    134a:	08 95       	ret

0000134c <findDimmerMappingInfoByPair>:
	if (index != -1)
		dimmerMappingInfo_WriteToEEPRom(index);
	return result;
}

int findDimmerMappingInfoByPair(uint16 dimmerId, uint8 channelId, uint8 circuitId) {
    134c:	dc 01       	movw	r26, r24
    134e:	e4 eb       	ldi	r30, 0xB4	; 180
    1350:	f2 e3       	ldi	r31, 0x32	; 50
    1352:	20 e0       	ldi	r18, 0x00	; 0
    1354:	30 e0       	ldi	r19, 0x00	; 0
	uint16 i = 0;
	for (i = 0; i < MaxNumOfDimmerMappingInfo; i++)
		if (dimmerId == dimmerMappingTable.mappingInfo[i].dimmerId
    1356:	80 81       	ld	r24, Z
    1358:	91 81       	ldd	r25, Z+1	; 0x01
    135a:	a8 17       	cp	r26, r24
    135c:	b9 07       	cpc	r27, r25
    135e:	31 f4       	brne	.+12     	; 0x136c <findDimmerMappingInfoByPair+0x20>
    1360:	82 81       	ldd	r24, Z+2	; 0x02
    1362:	68 17       	cp	r22, r24
    1364:	19 f4       	brne	.+6      	; 0x136c <findDimmerMappingInfoByPair+0x20>
    1366:	83 81       	ldd	r24, Z+3	; 0x03
    1368:	48 17       	cp	r20, r24
    136a:	41 f0       	breq	.+16     	; 0x137c <findDimmerMappingInfoByPair+0x30>
	return result;
}

int findDimmerMappingInfoByPair(uint16 dimmerId, uint8 channelId, uint8 circuitId) {
	uint16 i = 0;
	for (i = 0; i < MaxNumOfDimmerMappingInfo; i++)
    136c:	2f 5f       	subi	r18, 0xFF	; 255
    136e:	3f 4f       	sbci	r19, 0xFF	; 255
    1370:	35 96       	adiw	r30, 0x05	; 5
    1372:	28 32       	cpi	r18, 0x28	; 40
    1374:	31 05       	cpc	r19, r1
    1376:	79 f7       	brne	.-34     	; 0x1356 <findDimmerMappingInfoByPair+0xa>
    1378:	2f ef       	ldi	r18, 0xFF	; 255
    137a:	3f ef       	ldi	r19, 0xFF	; 255
		if (dimmerId == dimmerMappingTable.mappingInfo[i].dimmerId
				&& channelId == dimmerMappingTable.mappingInfo[i].channelId
				&& circuitId == dimmerMappingTable.mappingInfo[i].circuitId)
			return i;
	return -1; // 찾는 값이 없으면 '-1'을 리턴
}
    137c:	c9 01       	movw	r24, r18
    137e:	08 95       	ret

00001380 <findDimmerMappingInfoById>:

int findDimmerMappingInfoById(uint16 dimmerId, uint8 channelId) {
    1380:	ac 01       	movw	r20, r24
    1382:	e4 eb       	ldi	r30, 0xB4	; 180
    1384:	f2 e3       	ldi	r31, 0x32	; 50
    1386:	20 e0       	ldi	r18, 0x00	; 0
    1388:	30 e0       	ldi	r19, 0x00	; 0
	uint16 i = 0;
	for (i = 0; i < MaxNumOfDimmerMappingInfo; i++)
		if (dimmerId == dimmerMappingTable.mappingInfo[i].dimmerId
    138a:	80 81       	ld	r24, Z
    138c:	91 81       	ldd	r25, Z+1	; 0x01
    138e:	48 17       	cp	r20, r24
    1390:	59 07       	cpc	r21, r25
    1392:	31 f4       	brne	.+12     	; 0x13a0 <findDimmerMappingInfoById+0x20>
    1394:	82 81       	ldd	r24, Z+2	; 0x02
    1396:	68 17       	cp	r22, r24
    1398:	19 f4       	brne	.+6      	; 0x13a0 <findDimmerMappingInfoById+0x20>
    139a:	84 81       	ldd	r24, Z+4	; 0x04
    139c:	81 30       	cpi	r24, 0x01	; 1
    139e:	41 f0       	breq	.+16     	; 0x13b0 <findDimmerMappingInfoById+0x30>
	return -1; // 찾는 값이 없으면 '-1'을 리턴
}

int findDimmerMappingInfoById(uint16 dimmerId, uint8 channelId) {
	uint16 i = 0;
	for (i = 0; i < MaxNumOfDimmerMappingInfo; i++)
    13a0:	2f 5f       	subi	r18, 0xFF	; 255
    13a2:	3f 4f       	sbci	r19, 0xFF	; 255
    13a4:	35 96       	adiw	r30, 0x05	; 5
    13a6:	28 32       	cpi	r18, 0x28	; 40
    13a8:	31 05       	cpc	r19, r1
    13aa:	79 f7       	brne	.-34     	; 0x138a <findDimmerMappingInfoById+0xa>
    13ac:	2f ef       	ldi	r18, 0xFF	; 255
    13ae:	3f ef       	ldi	r19, 0xFF	; 255
		if (dimmerId == dimmerMappingTable.mappingInfo[i].dimmerId
				&& channelId == dimmerMappingTable.mappingInfo[i].channelId
				&& dimmerMappingTable.mappingInfo[i].isEnable == 1)
			return i;
	return -1; // 찾는 값이 없으면 '-1'을 리턴
}
    13b0:	c9 01       	movw	r24, r18
    13b2:	08 95       	ret

000013b4 <dimmerMappingInfo_WriteAll>:

	/*eeprom_write_block(&(dimmerMappingTable.mappingInfo[index]), &(ee_DimmerSSRMappingInfo[index]),
	 sizeof(DimmerMappingInfo_st));*/
}

void dimmerMappingInfo_WriteAll() {
    13b4:	0f 93       	push	r16
    13b6:	1f 93       	push	r17
    13b8:	cf 93       	push	r28
    13ba:	df 93       	push	r29
    13bc:	00 e0       	ldi	r16, 0x00	; 0
    13be:	10 e0       	ldi	r17, 0x00	; 0
	uint16 i = 0;
	uint8 j = 0;

	//Page당 51개 mapping 정보 기록. 총 255바이트.
	for (i = 0; i < MaxNumOfDimmerMappingInfo; i += 5) {
		wdt_reset();
    13c0:	a8 95       	wdr
    13c2:	f8 01       	movw	r30, r16
    13c4:	ee 0f       	add	r30, r30
    13c6:	ff 1f       	adc	r31, r31
    13c8:	ee 0f       	add	r30, r30
    13ca:	ff 1f       	adc	r31, r31
    13cc:	e0 0f       	add	r30, r16
    13ce:	f1 1f       	adc	r31, r17
    13d0:	ec 54       	subi	r30, 0x4C	; 76
    13d2:	fd 4c       	sbci	r31, 0xCD	; 205
    13d4:	c2 e3       	ldi	r28, 0x32	; 50
    13d6:	de e3       	ldi	r29, 0x3E	; 62
		for (j = 0; j < 5; j++) {
			tempBuffForMappingInfo[0 + 5 * j] = dimmerMappingTable.mappingInfo[i + j].channelId;
    13d8:	82 81       	ldd	r24, Z+2	; 0x02
    13da:	88 83       	st	Y, r24
			tempBuffForMappingInfo[1 + 5 * j] = dimmerMappingTable.mappingInfo[i + j].circuitId;
    13dc:	83 81       	ldd	r24, Z+3	; 0x03
    13de:	89 83       	std	Y+1, r24	; 0x01
			tempBuffForMappingInfo[2 + 5 * j] = dimmerMappingTable.mappingInfo[i + j].dimmerId >> 8;
    13e0:	90 81       	ld	r25, Z
    13e2:	81 81       	ldd	r24, Z+1	; 0x01
    13e4:	8a 83       	std	Y+2, r24	; 0x02
			tempBuffForMappingInfo[3 + 5 * j] = dimmerMappingTable.mappingInfo[i + j].dimmerId;
    13e6:	9b 83       	std	Y+3, r25	; 0x03
			tempBuffForMappingInfo[4 + 5 * j] = dimmerMappingTable.mappingInfo[i + j].isEnable;
    13e8:	84 81       	ldd	r24, Z+4	; 0x04
    13ea:	8c 83       	std	Y+4, r24	; 0x04
    13ec:	35 96       	adiw	r30, 0x05	; 5
    13ee:	25 96       	adiw	r28, 0x05	; 5
	uint8 j = 0;

	//Page당 51개 mapping 정보 기록. 총 255바이트.
	for (i = 0; i < MaxNumOfDimmerMappingInfo; i += 5) {
		wdt_reset();
		for (j = 0; j < 5; j++) {
    13f0:	8e e3       	ldi	r24, 0x3E	; 62
    13f2:	cb 34       	cpi	r28, 0x4B	; 75
    13f4:	d8 07       	cpc	r29, r24
    13f6:	81 f7       	brne	.-32     	; 0x13d8 <dimmerMappingInfo_WriteAll+0x24>
			tempBuffForMappingInfo[2 + 5 * j] = dimmerMappingTable.mappingInfo[i + j].dimmerId >> 8;
			tempBuffForMappingInfo[3 + 5 * j] = dimmerMappingTable.mappingInfo[i + j].dimmerId;
			tempBuffForMappingInfo[4 + 5 * j] = dimmerMappingTable.mappingInfo[i + j].isEnable;

		}
		flash_writeBytes(FLASH_ADDR_DIMMERMAPPING_INFO + i / 5, tempBuffForMappingInfo, 255);
    13f8:	c8 01       	movw	r24, r16
    13fa:	65 e0       	ldi	r22, 0x05	; 5
    13fc:	70 e0       	ldi	r23, 0x00	; 0
    13fe:	0e 94 3b 47 	call	0x8e76	; 0x8e76 <__udivmodhi4>
    1402:	cb 01       	movw	r24, r22
    1404:	69 97       	sbiw	r28, 0x19	; 25
    1406:	44 96       	adiw	r24, 0x14	; 20
    1408:	be 01       	movw	r22, r28
    140a:	4f ef       	ldi	r20, 0xFF	; 255
    140c:	0e 94 fa 07 	call	0xff4	; 0xff4 <flash_writeBytes>
void dimmerMappingInfo_WriteAll() {
	uint16 i = 0;
	uint8 j = 0;

	//Page당 51개 mapping 정보 기록. 총 255바이트.
	for (i = 0; i < MaxNumOfDimmerMappingInfo; i += 5) {
    1410:	0b 5f       	subi	r16, 0xFB	; 251
    1412:	1f 4f       	sbci	r17, 0xFF	; 255
    1414:	08 32       	cpi	r16, 0x28	; 40
    1416:	11 05       	cpc	r17, r1
    1418:	99 f6       	brne	.-90     	; 0x13c0 <dimmerMappingInfo_WriteAll+0xc>
			tempBuffForMappingInfo[4 + 5 * j] = dimmerMappingTable.mappingInfo[i + j].isEnable;

		}
		flash_writeBytes(FLASH_ADDR_DIMMERMAPPING_INFO + i / 5, tempBuffForMappingInfo, 255);
	}
}
    141a:	df 91       	pop	r29
    141c:	cf 91       	pop	r28
    141e:	1f 91       	pop	r17
    1420:	0f 91       	pop	r16
    1422:	08 95       	ret

00001424 <sensorMappingInfo_WriteAll>:
	 eeprom_read_block(&(sensorMappingTable.mappingInfo[i]),
	 &(ee_SensorMappingInfo[i]), sizeof(SensorMappingInfo_st));
	 */
}

void sensorMappingInfo_WriteAll() {
    1424:	cf 93       	push	r28
    1426:	df 93       	push	r29
    1428:	c0 e0       	ldi	r28, 0x00	; 0
    142a:	d0 e0       	ldi	r29, 0x00	; 0
	uint16 i = 0;
	uint8 j = 0;

	//Page당 28개 mapping 정보 기록. 총 252바이트.
	for (i = 0; i < MaxNumOfSensorMappingInfo; i += 28) {
		wdt_reset();
    142c:	a8 95       	wdr
    142e:	fe 01       	movw	r30, r28
    1430:	63 e0       	ldi	r22, 0x03	; 3
    1432:	ee 0f       	add	r30, r30
    1434:	ff 1f       	adc	r31, r31
    1436:	6a 95       	dec	r22
    1438:	e1 f7       	brne	.-8      	; 0x1432 <sensorMappingInfo_WriteAll+0xe>
    143a:	ec 0f       	add	r30, r28
    143c:	fd 1f       	adc	r31, r29
    143e:	eb 54       	subi	r30, 0x4B	; 75
    1440:	fb 4c       	sbci	r31, 0xCB	; 203
    1442:	a2 e3       	ldi	r26, 0x32	; 50
    1444:	be e3       	ldi	r27, 0x3E	; 62
		for (j = 0; j < 28; j++) {
			tempBuffForMappingInfo[0 + 9 * j] = sensorMappingTable.mappingInfo[i + j].circuitId;
    1446:	84 81       	ldd	r24, Z+4	; 0x04
    1448:	8c 93       	st	X, r24
			tempBuffForMappingInfo[1 + 9 * j] = sensorMappingTable.mappingInfo[i + j].isEnable;
    144a:	80 85       	ldd	r24, Z+8	; 0x08
    144c:	11 96       	adiw	r26, 0x01	; 1
    144e:	8c 93       	st	X, r24
    1450:	11 97       	sbiw	r26, 0x01	; 1
			tempBuffForMappingInfo[2 + 9 * j] = sensorMappingTable.mappingInfo[i + j].lcId >> 8;
    1452:	90 81       	ld	r25, Z
    1454:	81 81       	ldd	r24, Z+1	; 0x01
    1456:	12 96       	adiw	r26, 0x02	; 2
    1458:	8c 93       	st	X, r24
    145a:	12 97       	sbiw	r26, 0x02	; 2
			tempBuffForMappingInfo[3 + 9 * j] = sensorMappingTable.mappingInfo[i + j].lcId;
    145c:	13 96       	adiw	r26, 0x03	; 3
    145e:	9c 93       	st	X, r25
    1460:	13 97       	sbiw	r26, 0x03	; 3
			tempBuffForMappingInfo[4 + 9 * j] = sensorMappingTable.mappingInfo[i + j].offCtrlMode;
    1462:	87 81       	ldd	r24, Z+7	; 0x07
    1464:	14 96       	adiw	r26, 0x04	; 4
    1466:	8c 93       	st	X, r24
    1468:	14 97       	sbiw	r26, 0x04	; 4
			tempBuffForMappingInfo[5 + 9 * j] = sensorMappingTable.mappingInfo[i + j].onCtrlMode;
    146a:	86 81       	ldd	r24, Z+6	; 0x06
    146c:	15 96       	adiw	r26, 0x05	; 5
    146e:	8c 93       	st	X, r24
    1470:	15 97       	sbiw	r26, 0x05	; 5
			tempBuffForMappingInfo[6 + 9 * j] = sensorMappingTable.mappingInfo[i + j].onTime;
    1472:	85 81       	ldd	r24, Z+5	; 0x05
    1474:	16 96       	adiw	r26, 0x06	; 6
    1476:	8c 93       	st	X, r24
    1478:	16 97       	sbiw	r26, 0x06	; 6
			tempBuffForMappingInfo[7 + 9 * j] = sensorMappingTable.mappingInfo[i + j].sensorId >> 8;
    147a:	92 81       	ldd	r25, Z+2	; 0x02
    147c:	83 81       	ldd	r24, Z+3	; 0x03
    147e:	17 96       	adiw	r26, 0x07	; 7
    1480:	8c 93       	st	X, r24
    1482:	17 97       	sbiw	r26, 0x07	; 7
			tempBuffForMappingInfo[8 + 9 * j] = sensorMappingTable.mappingInfo[i + j].sensorId;
    1484:	18 96       	adiw	r26, 0x08	; 8
    1486:	9c 93       	st	X, r25
    1488:	18 97       	sbiw	r26, 0x08	; 8
    148a:	39 96       	adiw	r30, 0x09	; 9
    148c:	19 96       	adiw	r26, 0x09	; 9
	uint8 j = 0;

	//Page당 28개 mapping 정보 기록. 총 252바이트.
	for (i = 0; i < MaxNumOfSensorMappingInfo; i += 28) {
		wdt_reset();
		for (j = 0; j < 28; j++) {
    148e:	8f e3       	ldi	r24, 0x3F	; 63
    1490:	ae 32       	cpi	r26, 0x2E	; 46
    1492:	b8 07       	cpc	r27, r24
    1494:	c1 f6       	brne	.-80     	; 0x1446 <sensorMappingInfo_WriteAll+0x22>
			tempBuffForMappingInfo[6 + 9 * j] = sensorMappingTable.mappingInfo[i + j].onTime;
			tempBuffForMappingInfo[7 + 9 * j] = sensorMappingTable.mappingInfo[i + j].sensorId >> 8;
			tempBuffForMappingInfo[8 + 9 * j] = sensorMappingTable.mappingInfo[i + j].sensorId;
		}

		flash_writeBytes(FLASH_ADDR_SENSORMAPPING_INFO + i / 28, tempBuffForMappingInfo, 255);
    1496:	ce 01       	movw	r24, r28
    1498:	6c e1       	ldi	r22, 0x1C	; 28
    149a:	70 e0       	ldi	r23, 0x00	; 0
    149c:	0e 94 3b 47 	call	0x8e76	; 0x8e76 <__udivmodhi4>
    14a0:	cb 01       	movw	r24, r22
    14a2:	0a 96       	adiw	r24, 0x0a	; 10
    14a4:	62 e3       	ldi	r22, 0x32	; 50
    14a6:	7e e3       	ldi	r23, 0x3E	; 62
    14a8:	4f ef       	ldi	r20, 0xFF	; 255
    14aa:	0e 94 fa 07 	call	0xff4	; 0xff4 <flash_writeBytes>
void sensorMappingInfo_WriteAll() {
	uint16 i = 0;
	uint8 j = 0;

	//Page당 28개 mapping 정보 기록. 총 252바이트.
	for (i = 0; i < MaxNumOfSensorMappingInfo; i += 28) {
    14ae:	6c 96       	adiw	r28, 0x1c	; 28
    14b0:	81 e0       	ldi	r24, 0x01	; 1
    14b2:	c8 31       	cpi	r28, 0x18	; 24
    14b4:	d8 07       	cpc	r29, r24
    14b6:	09 f0       	breq	.+2      	; 0x14ba <sensorMappingInfo_WriteAll+0x96>
    14b8:	b9 cf       	rjmp	.-142    	; 0x142c <sensorMappingInfo_WriteAll+0x8>
			tempBuffForMappingInfo[8 + 9 * j] = sensorMappingTable.mappingInfo[i + j].sensorId;
		}

		flash_writeBytes(FLASH_ADDR_SENSORMAPPING_INFO + i / 28, tempBuffForMappingInfo, 255);
	}
}
    14ba:	df 91       	pop	r29
    14bc:	cf 91       	pop	r28
    14be:	08 95       	ret

000014c0 <dimmerMappingInfo_WriteToEEPRom>:
	/*for (i = 0; i < MaxNumOfDimmerMappingInfo; i++)
	 eeprom_read_block(&(dimmerMappingTable.mappingInfo[i]), &(ee_DimmerSSRMappingInfo[i]),
	 sizeof(DimmerMappingInfo_st));*/
}

void dimmerMappingInfo_WriteToEEPRom(uint16 index) {
    14c0:	df 92       	push	r13
    14c2:	ef 92       	push	r14
    14c4:	ff 92       	push	r15
    14c6:	0f 93       	push	r16
    14c8:	1f 93       	push	r17
    14ca:	8c 01       	movw	r16, r24
	uint8 pageAddr = FLASH_ADDR_DIMMERMAPPING_INFO + index / 5;
	flash_readBytes(pageAddr, tempBuffForMappingInfo, 255);
    14cc:	65 e0       	ldi	r22, 0x05	; 5
    14ce:	70 e0       	ldi	r23, 0x00	; 0
    14d0:	0e 94 3b 47 	call	0x8e76	; 0x8e76 <__udivmodhi4>
    14d4:	d6 2e       	mov	r13, r22
    14d6:	84 e1       	ldi	r24, 0x14	; 20
    14d8:	d8 0e       	add	r13, r24
    14da:	f2 e3       	ldi	r31, 0x32	; 50
    14dc:	ef 2e       	mov	r14, r31
    14de:	fe e3       	ldi	r31, 0x3E	; 62
    14e0:	ff 2e       	mov	r15, r31
    14e2:	8d 2d       	mov	r24, r13
    14e4:	90 e0       	ldi	r25, 0x00	; 0
    14e6:	b7 01       	movw	r22, r14
    14e8:	4f ef       	ldi	r20, 0xFF	; 255
    14ea:	0e 94 0e 08 	call	0x101c	; 0x101c <flash_readBytes>
	uint8 slotIndex = (index % 5) * 5;
	;

	//Page당 28개 mapping 정보 기록. 총 252바이트.

	tempBuffForMappingInfo[0 + slotIndex] = dimmerMappingTable.mappingInfo[index].channelId;
    14ee:	c8 01       	movw	r24, r16
    14f0:	65 e0       	ldi	r22, 0x05	; 5
    14f2:	70 e0       	ldi	r23, 0x00	; 0
    14f4:	0e 94 3b 47 	call	0x8e76	; 0x8e76 <__udivmodhi4>
    14f8:	9c 01       	movw	r18, r24
    14fa:	22 0f       	add	r18, r18
    14fc:	33 1f       	adc	r19, r19
    14fe:	22 0f       	add	r18, r18
    1500:	33 1f       	adc	r19, r19
    1502:	82 0f       	add	r24, r18
    1504:	d7 01       	movw	r26, r14
    1506:	a8 0f       	add	r26, r24
    1508:	b1 1d       	adc	r27, r1
    150a:	f8 01       	movw	r30, r16
    150c:	ee 0f       	add	r30, r30
    150e:	ff 1f       	adc	r31, r31
    1510:	ee 0f       	add	r30, r30
    1512:	ff 1f       	adc	r31, r31
    1514:	e0 0f       	add	r30, r16
    1516:	f1 1f       	adc	r31, r17
    1518:	ec 54       	subi	r30, 0x4C	; 76
    151a:	fd 4c       	sbci	r31, 0xCD	; 205
    151c:	82 81       	ldd	r24, Z+2	; 0x02
    151e:	8c 93       	st	X, r24
	tempBuffForMappingInfo[1 + slotIndex] = dimmerMappingTable.mappingInfo[index].circuitId;
    1520:	83 81       	ldd	r24, Z+3	; 0x03
    1522:	11 96       	adiw	r26, 0x01	; 1
    1524:	8c 93       	st	X, r24
    1526:	11 97       	sbiw	r26, 0x01	; 1
	tempBuffForMappingInfo[2 + slotIndex] = dimmerMappingTable.mappingInfo[index].dimmerId >> 8;
    1528:	90 81       	ld	r25, Z
    152a:	81 81       	ldd	r24, Z+1	; 0x01
    152c:	12 96       	adiw	r26, 0x02	; 2
    152e:	8c 93       	st	X, r24
    1530:	12 97       	sbiw	r26, 0x02	; 2
	tempBuffForMappingInfo[3 + slotIndex] = dimmerMappingTable.mappingInfo[index].dimmerId;
    1532:	13 96       	adiw	r26, 0x03	; 3
    1534:	9c 93       	st	X, r25
    1536:	13 97       	sbiw	r26, 0x03	; 3
	tempBuffForMappingInfo[4 + slotIndex] = dimmerMappingTable.mappingInfo[index].isEnable;
    1538:	84 81       	ldd	r24, Z+4	; 0x04
    153a:	14 96       	adiw	r26, 0x04	; 4
    153c:	8c 93       	st	X, r24

	flash_writeBytes(pageAddr, tempBuffForMappingInfo, 255);
    153e:	8d 2d       	mov	r24, r13
    1540:	90 e0       	ldi	r25, 0x00	; 0
    1542:	b7 01       	movw	r22, r14
    1544:	4f ef       	ldi	r20, 0xFF	; 255
    1546:	0e 94 fa 07 	call	0xff4	; 0xff4 <flash_writeBytes>

	/*eeprom_write_block(&(dimmerMappingTable.mappingInfo[index]), &(ee_DimmerSSRMappingInfo[index]),
	 sizeof(DimmerMappingInfo_st));*/
}
    154a:	1f 91       	pop	r17
    154c:	0f 91       	pop	r16
    154e:	ff 90       	pop	r15
    1550:	ef 90       	pop	r14
    1552:	df 90       	pop	r13
    1554:	08 95       	ret

00001556 <updateDimmerMappingTable>:
		return NULL;

	return &(dimmerMappingTable.mappingInfo[i]);
}

int updateDimmerMappingTable(uint16 dimmerId, uint8 channelId, uint8 circuitId) {
    1556:	0f 93       	push	r16
    1558:	1f 93       	push	r17
    155a:	cf 93       	push	r28
    155c:	df 93       	push	r29
    155e:	ec 01       	movw	r28, r24
    1560:	16 2f       	mov	r17, r22
    1562:	04 2f       	mov	r16, r20
	int index;
	int result;

	if ((index = findDimmerMappingInfoById(dimmerId, channelId)) != -1) {
    1564:	0e 94 c0 09 	call	0x1380	; 0x1380 <findDimmerMappingInfoById>
    1568:	8f 5f       	subi	r24, 0xFF	; 255
    156a:	9f 4f       	sbci	r25, 0xFF	; 255
    156c:	19 f0       	breq	.+6      	; 0x1574 <updateDimmerMappingTable+0x1e>
    156e:	20 e0       	ldi	r18, 0x00	; 0
    1570:	30 e0       	ldi	r19, 0x00	; 0
    1572:	16 c0       	rjmp	.+44     	; 0x15a0 <updateDimmerMappingTable+0x4a>
		return 0;
	} else {
		if (addDimmerMappingTable(dimmerId, channelId, circuitId) == NULL)
    1574:	ce 01       	movw	r24, r28
    1576:	61 2f       	mov	r22, r17
    1578:	40 2f       	mov	r20, r16
    157a:	0e 94 70 09 	call	0x12e0	; 0x12e0 <addDimmerMappingTable>
    157e:	89 2b       	or	r24, r25
    1580:	19 f4       	brne	.+6      	; 0x1588 <updateDimmerMappingTable+0x32>
    1582:	22 e0       	ldi	r18, 0x02	; 2
    1584:	30 e0       	ldi	r19, 0x00	; 0
    1586:	0c c0       	rjmp	.+24     	; 0x15a0 <updateDimmerMappingTable+0x4a>
			return 2;
		else
			result = 1;
	}

	index = findDimmerMappingInfoById(dimmerId, channelId);
    1588:	ce 01       	movw	r24, r28
    158a:	61 2f       	mov	r22, r17
    158c:	0e 94 c0 09 	call	0x1380	; 0x1380 <findDimmerMappingInfoById>
	if (index != -1)
    1590:	2f ef       	ldi	r18, 0xFF	; 255
    1592:	8f 3f       	cpi	r24, 0xFF	; 255
    1594:	92 07       	cpc	r25, r18
    1596:	11 f0       	breq	.+4      	; 0x159c <updateDimmerMappingTable+0x46>
		dimmerMappingInfo_WriteToEEPRom(index);
    1598:	0e 94 60 0a 	call	0x14c0	; 0x14c0 <dimmerMappingInfo_WriteToEEPRom>
    159c:	21 e0       	ldi	r18, 0x01	; 1
    159e:	30 e0       	ldi	r19, 0x00	; 0
	return result;
}
    15a0:	c9 01       	movw	r24, r18
    15a2:	df 91       	pop	r29
    15a4:	cf 91       	pop	r28
    15a6:	1f 91       	pop	r17
    15a8:	0f 91       	pop	r16
    15aa:	08 95       	ret

000015ac <initDimmerMappingTable>:
				&& dimmerMappingTable.mappingInfo[i].isEnable == 1)
			return i;
	return -1; // 찾는 값이 없으면 '-1'을 리턴
}

void initDimmerMappingTable() {
    15ac:	0f 93       	push	r16
    15ae:	1f 93       	push	r17
    15b0:	cf 93       	push	r28
    15b2:	df 93       	push	r29
    15b4:	c0 e0       	ldi	r28, 0x00	; 0
    15b6:	d0 e0       	ldi	r29, 0x00	; 0
	uint16 i = 0;
	uint8 j = 0;

	//Page당 51개 mapping 정보 기록. 총 255바이트.
	for (i = 0; i < MaxNumOfDimmerMappingInfo; i += 5) {
		wdt_reset();
    15b8:	a8 95       	wdr
		flash_readBytes(FLASH_ADDR_DIMMERMAPPING_INFO + i / 5, tempBuffForMappingInfo, 255);
    15ba:	ce 01       	movw	r24, r28
    15bc:	65 e0       	ldi	r22, 0x05	; 5
    15be:	70 e0       	ldi	r23, 0x00	; 0
    15c0:	0e 94 3b 47 	call	0x8e76	; 0x8e76 <__udivmodhi4>
    15c4:	cb 01       	movw	r24, r22
    15c6:	44 96       	adiw	r24, 0x14	; 20
    15c8:	62 e3       	ldi	r22, 0x32	; 50
    15ca:	7e e3       	ldi	r23, 0x3E	; 62
    15cc:	4f ef       	ldi	r20, 0xFF	; 255
    15ce:	0e 94 0e 08 	call	0x101c	; 0x101c <flash_readBytes>
    15d2:	a2 e3       	ldi	r26, 0x32	; 50
    15d4:	be e3       	ldi	r27, 0x3E	; 62
    15d6:	fe 01       	movw	r30, r28
    15d8:	ee 0f       	add	r30, r30
    15da:	ff 1f       	adc	r31, r31
    15dc:	ee 0f       	add	r30, r30
    15de:	ff 1f       	adc	r31, r31
    15e0:	ec 0f       	add	r30, r28
    15e2:	fd 1f       	adc	r31, r29
    15e4:	ec 54       	subi	r30, 0x4C	; 76
    15e6:	fd 4c       	sbci	r31, 0xCD	; 205
		for (j = 0; j < 5; j++) {
			dimmerMappingTable.mappingInfo[i + j].channelId = tempBuffForMappingInfo[0 + 5 * j];
    15e8:	8c 91       	ld	r24, X
    15ea:	82 83       	std	Z+2, r24	; 0x02
			dimmerMappingTable.mappingInfo[i + j].circuitId = tempBuffForMappingInfo[1 + 5 * j];
    15ec:	11 96       	adiw	r26, 0x01	; 1
    15ee:	8c 91       	ld	r24, X
    15f0:	11 97       	sbiw	r26, 0x01	; 1
    15f2:	83 83       	std	Z+3, r24	; 0x03
			dimmerMappingTable.mappingInfo[i + j].dimmerId =
    15f4:	12 96       	adiw	r26, 0x02	; 2
    15f6:	1c 91       	ld	r17, X
    15f8:	12 97       	sbiw	r26, 0x02	; 2
    15fa:	00 e0       	ldi	r16, 0x00	; 0
    15fc:	13 96       	adiw	r26, 0x03	; 3
    15fe:	8c 91       	ld	r24, X
    1600:	13 97       	sbiw	r26, 0x03	; 3
    1602:	90 e0       	ldi	r25, 0x00	; 0
    1604:	80 2b       	or	r24, r16
    1606:	91 2b       	or	r25, r17
    1608:	91 83       	std	Z+1, r25	; 0x01
    160a:	80 83       	st	Z, r24
					(tempBuffForMappingInfo[2 + 5 * j] << 8) | tempBuffForMappingInfo[3 + 5 * j];
			dimmerMappingTable.mappingInfo[i + j].isEnable = tempBuffForMappingInfo[4 + 5 * j];
    160c:	14 96       	adiw	r26, 0x04	; 4
    160e:	8c 91       	ld	r24, X
    1610:	14 97       	sbiw	r26, 0x04	; 4
    1612:	84 83       	std	Z+4, r24	; 0x04
    1614:	15 96       	adiw	r26, 0x05	; 5
    1616:	35 96       	adiw	r30, 0x05	; 5

	//Page당 51개 mapping 정보 기록. 총 255바이트.
	for (i = 0; i < MaxNumOfDimmerMappingInfo; i += 5) {
		wdt_reset();
		flash_readBytes(FLASH_ADDR_DIMMERMAPPING_INFO + i / 5, tempBuffForMappingInfo, 255);
		for (j = 0; j < 5; j++) {
    1618:	8e e3       	ldi	r24, 0x3E	; 62
    161a:	ab 34       	cpi	r26, 0x4B	; 75
    161c:	b8 07       	cpc	r27, r24
    161e:	21 f7       	brne	.-56     	; 0x15e8 <initDimmerMappingTable+0x3c>
void initDimmerMappingTable() {
	uint16 i = 0;
	uint8 j = 0;

	//Page당 51개 mapping 정보 기록. 총 255바이트.
	for (i = 0; i < MaxNumOfDimmerMappingInfo; i += 5) {
    1620:	25 96       	adiw	r28, 0x05	; 5
    1622:	c8 32       	cpi	r28, 0x28	; 40
    1624:	d1 05       	cpc	r29, r1
    1626:	41 f6       	brne	.-112    	; 0x15b8 <initDimmerMappingTable+0xc>
	}

	/*for (i = 0; i < MaxNumOfDimmerMappingInfo; i++)
	 eeprom_read_block(&(dimmerMappingTable.mappingInfo[i]), &(ee_DimmerSSRMappingInfo[i]),
	 sizeof(DimmerMappingInfo_st));*/
}
    1628:	df 91       	pop	r29
    162a:	cf 91       	pop	r28
    162c:	1f 91       	pop	r17
    162e:	0f 91       	pop	r16
    1630:	08 95       	ret

00001632 <sensorMappingInfo_WriteToEEPRom>:
		}

		flash_writeBytes(FLASH_ADDR_SENSORMAPPING_INFO + i / 28, tempBuffForMappingInfo, 255);
	}
}
void sensorMappingInfo_WriteToEEPRom(uint16 index) {
    1632:	df 92       	push	r13
    1634:	ef 92       	push	r14
    1636:	ff 92       	push	r15
    1638:	0f 93       	push	r16
    163a:	1f 93       	push	r17
    163c:	8c 01       	movw	r16, r24
	uint8 pageAddr = FLASH_ADDR_SENSORMAPPING_INFO + index / 28;
	flash_readBytes(pageAddr, tempBuffForMappingInfo, 255);
    163e:	6c e1       	ldi	r22, 0x1C	; 28
    1640:	70 e0       	ldi	r23, 0x00	; 0
    1642:	0e 94 3b 47 	call	0x8e76	; 0x8e76 <__udivmodhi4>
    1646:	d6 2e       	mov	r13, r22
    1648:	8a e0       	ldi	r24, 0x0A	; 10
    164a:	d8 0e       	add	r13, r24
    164c:	22 e3       	ldi	r18, 0x32	; 50
    164e:	e2 2e       	mov	r14, r18
    1650:	2e e3       	ldi	r18, 0x3E	; 62
    1652:	f2 2e       	mov	r15, r18
    1654:	8d 2d       	mov	r24, r13
    1656:	90 e0       	ldi	r25, 0x00	; 0
    1658:	b7 01       	movw	r22, r14
    165a:	4f ef       	ldi	r20, 0xFF	; 255
    165c:	0e 94 0e 08 	call	0x101c	; 0x101c <flash_readBytes>
	uint8 slotIndex = (index % 28) * 9;
	;

	//Page당 28개 mapping 정보 기록. 총 252바이트.

	tempBuffForMappingInfo[0 + slotIndex] = sensorMappingTable.mappingInfo[index].circuitId;
    1660:	c8 01       	movw	r24, r16
    1662:	6c e1       	ldi	r22, 0x1C	; 28
    1664:	70 e0       	ldi	r23, 0x00	; 0
    1666:	0e 94 3b 47 	call	0x8e76	; 0x8e76 <__udivmodhi4>
    166a:	9c 01       	movw	r18, r24
    166c:	93 e0       	ldi	r25, 0x03	; 3
    166e:	22 0f       	add	r18, r18
    1670:	33 1f       	adc	r19, r19
    1672:	9a 95       	dec	r25
    1674:	e1 f7       	brne	.-8      	; 0x166e <sensorMappingInfo_WriteToEEPRom+0x3c>
    1676:	82 0f       	add	r24, r18
    1678:	d7 01       	movw	r26, r14
    167a:	a8 0f       	add	r26, r24
    167c:	b1 1d       	adc	r27, r1
    167e:	f8 01       	movw	r30, r16
    1680:	83 e0       	ldi	r24, 0x03	; 3
    1682:	ee 0f       	add	r30, r30
    1684:	ff 1f       	adc	r31, r31
    1686:	8a 95       	dec	r24
    1688:	e1 f7       	brne	.-8      	; 0x1682 <sensorMappingInfo_WriteToEEPRom+0x50>
    168a:	e0 0f       	add	r30, r16
    168c:	f1 1f       	adc	r31, r17
    168e:	eb 54       	subi	r30, 0x4B	; 75
    1690:	fb 4c       	sbci	r31, 0xCB	; 203
    1692:	84 81       	ldd	r24, Z+4	; 0x04
    1694:	8c 93       	st	X, r24
	tempBuffForMappingInfo[1 + slotIndex] = sensorMappingTable.mappingInfo[index].isEnable;
    1696:	80 85       	ldd	r24, Z+8	; 0x08
    1698:	11 96       	adiw	r26, 0x01	; 1
    169a:	8c 93       	st	X, r24
    169c:	11 97       	sbiw	r26, 0x01	; 1
	tempBuffForMappingInfo[2 + slotIndex] = sensorMappingTable.mappingInfo[index].lcId >> 8;
    169e:	90 81       	ld	r25, Z
    16a0:	81 81       	ldd	r24, Z+1	; 0x01
    16a2:	12 96       	adiw	r26, 0x02	; 2
    16a4:	8c 93       	st	X, r24
    16a6:	12 97       	sbiw	r26, 0x02	; 2
	tempBuffForMappingInfo[3 + slotIndex] = sensorMappingTable.mappingInfo[index].lcId;
    16a8:	13 96       	adiw	r26, 0x03	; 3
    16aa:	9c 93       	st	X, r25
    16ac:	13 97       	sbiw	r26, 0x03	; 3
	tempBuffForMappingInfo[4 + slotIndex] = sensorMappingTable.mappingInfo[index].offCtrlMode;
    16ae:	87 81       	ldd	r24, Z+7	; 0x07
    16b0:	14 96       	adiw	r26, 0x04	; 4
    16b2:	8c 93       	st	X, r24
    16b4:	14 97       	sbiw	r26, 0x04	; 4
	tempBuffForMappingInfo[5 + slotIndex] = sensorMappingTable.mappingInfo[index].onCtrlMode;
    16b6:	86 81       	ldd	r24, Z+6	; 0x06
    16b8:	15 96       	adiw	r26, 0x05	; 5
    16ba:	8c 93       	st	X, r24
    16bc:	15 97       	sbiw	r26, 0x05	; 5
	tempBuffForMappingInfo[6 + slotIndex] = sensorMappingTable.mappingInfo[index].onTime;
    16be:	85 81       	ldd	r24, Z+5	; 0x05
    16c0:	16 96       	adiw	r26, 0x06	; 6
    16c2:	8c 93       	st	X, r24
    16c4:	16 97       	sbiw	r26, 0x06	; 6
	tempBuffForMappingInfo[7 + slotIndex] = sensorMappingTable.mappingInfo[index].sensorId >> 8;
    16c6:	92 81       	ldd	r25, Z+2	; 0x02
    16c8:	83 81       	ldd	r24, Z+3	; 0x03
    16ca:	17 96       	adiw	r26, 0x07	; 7
    16cc:	8c 93       	st	X, r24
    16ce:	17 97       	sbiw	r26, 0x07	; 7
	tempBuffForMappingInfo[8 + slotIndex] = sensorMappingTable.mappingInfo[index].sensorId;
    16d0:	18 96       	adiw	r26, 0x08	; 8
    16d2:	9c 93       	st	X, r25

	flash_writeBytes(pageAddr, tempBuffForMappingInfo, 255);
    16d4:	8d 2d       	mov	r24, r13
    16d6:	90 e0       	ldi	r25, 0x00	; 0
    16d8:	b7 01       	movw	r22, r14
    16da:	4f ef       	ldi	r20, 0xFF	; 255
    16dc:	0e 94 fa 07 	call	0xff4	; 0xff4 <flash_writeBytes>

	//eeprom_write_block(&(sensorMappingTable.mappingInfo[index]), &(ee_SensorMappingInfo[index]),
	//	sizeof(SensorMappingInfo_st));

}
    16e0:	1f 91       	pop	r17
    16e2:	0f 91       	pop	r16
    16e4:	ff 90       	pop	r15
    16e6:	ef 90       	pop	r14
    16e8:	df 90       	pop	r13
    16ea:	08 95       	ret

000016ec <updateSensorMappingTable>:

	return result;
}

int updateSensorMappingTable(uint16 lcId, uint16 sensorId, uint8 circuitId, uint8 onTime,
		uint8 onCtrlMode, uint8 offCtrlMode) {
    16ec:	af 92       	push	r10
    16ee:	bf 92       	push	r11
    16f0:	cf 92       	push	r12
    16f2:	df 92       	push	r13
    16f4:	ef 92       	push	r14
    16f6:	ff 92       	push	r15
    16f8:	0f 93       	push	r16
    16fa:	1f 93       	push	r17
    16fc:	cf 93       	push	r28
    16fe:	df 93       	push	r29
    1700:	6c 01       	movw	r12, r24
    1702:	5b 01       	movw	r10, r22
    1704:	14 2f       	mov	r17, r20
    1706:	f2 2e       	mov	r15, r18
	int index;
	int result = 0;
	if ((index = findSensorMappingInfoById(lcId, sensorId, circuitId)) != -1) {
    1708:	0e 94 2f 09 	call	0x125e	; 0x125e <findSensorMappingInfoById>
    170c:	2f ef       	ldi	r18, 0xFF	; 255
    170e:	8f 3f       	cpi	r24, 0xFF	; 255
    1710:	92 07       	cpc	r25, r18
    1712:	81 f0       	breq	.+32     	; 0x1734 <updateSensorMappingTable+0x48>
		sensorMappingTable.mappingInfo[index].onTime = onTime;
    1714:	fc 01       	movw	r30, r24
    1716:	33 e0       	ldi	r19, 0x03	; 3
    1718:	ee 0f       	add	r30, r30
    171a:	ff 1f       	adc	r31, r31
    171c:	3a 95       	dec	r19
    171e:	e1 f7       	brne	.-8      	; 0x1718 <updateSensorMappingTable+0x2c>
    1720:	e8 0f       	add	r30, r24
    1722:	f9 1f       	adc	r31, r25
    1724:	eb 54       	subi	r30, 0x4B	; 75
    1726:	fb 4c       	sbci	r31, 0xCB	; 203
    1728:	f5 82       	std	Z+5, r15	; 0x05
		sensorMappingTable.mappingInfo[index].onCtrlMode = onCtrlMode;
    172a:	06 83       	std	Z+6, r16	; 0x06
		sensorMappingTable.mappingInfo[index].offCtrlMode = offCtrlMode;
    172c:	e7 82       	std	Z+7, r14	; 0x07
    172e:	c2 e0       	ldi	r28, 0x02	; 2
    1730:	d0 e0       	ldi	r29, 0x00	; 0
    1732:	0d c0       	rjmp	.+26     	; 0x174e <updateSensorMappingTable+0x62>
		result = 2;
	} else if (addSensorMappingTable(lcId, sensorId, circuitId, onTime, onCtrlMode,
    1734:	c6 01       	movw	r24, r12
    1736:	b5 01       	movw	r22, r10
    1738:	41 2f       	mov	r20, r17
    173a:	2f 2d       	mov	r18, r15
    173c:	0e 94 ea 08 	call	0x11d4	; 0x11d4 <addSensorMappingTable>
    1740:	89 2b       	or	r24, r25
    1742:	19 f4       	brne	.+6      	; 0x174a <updateSensorMappingTable+0x5e>
    1744:	c0 e0       	ldi	r28, 0x00	; 0
    1746:	d0 e0       	ldi	r29, 0x00	; 0
    1748:	0d c0       	rjmp	.+26     	; 0x1764 <updateSensorMappingTable+0x78>
    174a:	c1 e0       	ldi	r28, 0x01	; 1
    174c:	d0 e0       	ldi	r29, 0x00	; 0
			offCtrlMode) != NULL)
		result = 1;
	else
		return 0;

	index = findSensorMappingInfoById(lcId, sensorId, circuitId);
    174e:	c6 01       	movw	r24, r12
    1750:	b5 01       	movw	r22, r10
    1752:	41 2f       	mov	r20, r17
    1754:	0e 94 2f 09 	call	0x125e	; 0x125e <findSensorMappingInfoById>

	if (index != -1)
    1758:	2f ef       	ldi	r18, 0xFF	; 255
    175a:	8f 3f       	cpi	r24, 0xFF	; 255
    175c:	92 07       	cpc	r25, r18
    175e:	11 f0       	breq	.+4      	; 0x1764 <updateSensorMappingTable+0x78>
		sensorMappingInfo_WriteToEEPRom(index);
    1760:	0e 94 19 0b 	call	0x1632	; 0x1632 <sensorMappingInfo_WriteToEEPRom>

	return result;
}
    1764:	ce 01       	movw	r24, r28
    1766:	df 91       	pop	r29
    1768:	cf 91       	pop	r28
    176a:	1f 91       	pop	r17
    176c:	0f 91       	pop	r16
    176e:	ff 90       	pop	r15
    1770:	ef 90       	pop	r14
    1772:	df 90       	pop	r13
    1774:	cf 90       	pop	r12
    1776:	bf 90       	pop	r11
    1778:	af 90       	pop	r10
    177a:	08 95       	ret

0000177c <updateSensorMappingTableByCircuit>:

	return &(sensorMappingTable.mappingInfo[i]);
}

int updateSensorMappingTableByCircuit(uint8 circuitId, uint8 onTime, uint8 onCtrlMode,
		uint8 offCtrlMode) {
    177c:	cf 92       	push	r12
    177e:	df 92       	push	r13
    1780:	ef 92       	push	r14
    1782:	ff 92       	push	r15
    1784:	0f 93       	push	r16
    1786:	1f 93       	push	r17
    1788:	cf 93       	push	r28
    178a:	df 93       	push	r29
    178c:	c8 2e       	mov	r12, r24
    178e:	d6 2e       	mov	r13, r22
    1790:	e4 2e       	mov	r14, r20
    1792:	f2 2e       	mov	r15, r18
    1794:	c9 eb       	ldi	r28, 0xB9	; 185
    1796:	d4 e3       	ldi	r29, 0x34	; 52
    1798:	00 e0       	ldi	r16, 0x00	; 0
    179a:	10 e0       	ldi	r17, 0x00	; 0
	int index;
	int result = 0;
	uint16 i = 0;

	for (i = 0; i < MaxNumOfSensorMappingInfo; i++)
		if (circuitId == sensorMappingTable.mappingInfo[i].circuitId
    179c:	88 81       	ld	r24, Y
    179e:	c8 16       	cp	r12, r24
    17a0:	51 f4       	brne	.+20     	; 0x17b6 <updateSensorMappingTableByCircuit+0x3a>
    17a2:	8c 81       	ldd	r24, Y+4	; 0x04
    17a4:	81 30       	cpi	r24, 0x01	; 1
    17a6:	39 f4       	brne	.+14     	; 0x17b6 <updateSensorMappingTableByCircuit+0x3a>
				&& sensorMappingTable.mappingInfo[i].isEnable == 1) {
			sensorMappingTable.mappingInfo[i].onTime = onTime;
    17a8:	d9 82       	std	Y+1, r13	; 0x01
			sensorMappingTable.mappingInfo[i].onCtrlMode = onCtrlMode;
    17aa:	ea 82       	std	Y+2, r14	; 0x02
			sensorMappingTable.mappingInfo[i].offCtrlMode = offCtrlMode;
    17ac:	fb 82       	std	Y+3, r15	; 0x03
			sensorMappingInfo_WriteToEEPRom(i);
    17ae:	c8 01       	movw	r24, r16
    17b0:	0e 94 19 0b 	call	0x1632	; 0x1632 <sensorMappingInfo_WriteToEEPRom>
			wdt_reset();
    17b4:	a8 95       	wdr
		uint8 offCtrlMode) {
	int index;
	int result = 0;
	uint16 i = 0;

	for (i = 0; i < MaxNumOfSensorMappingInfo; i++)
    17b6:	0f 5f       	subi	r16, 0xFF	; 255
    17b8:	1f 4f       	sbci	r17, 0xFF	; 255
    17ba:	29 96       	adiw	r28, 0x09	; 9
    17bc:	0f 3f       	cpi	r16, 0xFF	; 255
    17be:	11 05       	cpc	r17, r1
    17c0:	69 f7       	brne	.-38     	; 0x179c <updateSensorMappingTableByCircuit+0x20>
			sensorMappingInfo_WriteToEEPRom(i);
			wdt_reset();
		}

	return result;
}
    17c2:	80 e0       	ldi	r24, 0x00	; 0
    17c4:	90 e0       	ldi	r25, 0x00	; 0
    17c6:	df 91       	pop	r29
    17c8:	cf 91       	pop	r28
    17ca:	1f 91       	pop	r17
    17cc:	0f 91       	pop	r16
    17ce:	ff 90       	pop	r15
    17d0:	ef 90       	pop	r14
    17d2:	df 90       	pop	r13
    17d4:	cf 90       	pop	r12
    17d6:	08 95       	ret

000017d8 <initMappingTable>:

// ---------------------------------------------------------------------------------------------- //
// ------------------ Initialize Mapping Table  ------------------------------------------------------- //
// ---------------------------------------------------------------------------------------------- //
uint8 tempBuffForMappingInfo[255];
void initMappingTable() {
    17d8:	ef 92       	push	r14
    17da:	ff 92       	push	r15
    17dc:	0f 93       	push	r16
    17de:	1f 93       	push	r17
    17e0:	cf 93       	push	r28
    17e2:	df 93       	push	r29
    17e4:	00 e0       	ldi	r16, 0x00	; 0
    17e6:	10 e0       	ldi	r17, 0x00	; 0
	uint16 i = 0;
	uint8 j = 0;

	//Page당 28개 mapping 정보 기록. 총 252바이트.
	for (i = 0; i < MaxNumOfSensorMappingInfo; i += 28) {
		wdt_reset();
    17e8:	a8 95       	wdr
		flash_readBytes(FLASH_ADDR_SENSORMAPPING_INFO + i / 28, tempBuffForMappingInfo, 255);
    17ea:	c8 01       	movw	r24, r16
    17ec:	6c e1       	ldi	r22, 0x1C	; 28
    17ee:	70 e0       	ldi	r23, 0x00	; 0
    17f0:	0e 94 3b 47 	call	0x8e76	; 0x8e76 <__udivmodhi4>
    17f4:	cb 01       	movw	r24, r22
    17f6:	0a 96       	adiw	r24, 0x0a	; 10
    17f8:	62 e3       	ldi	r22, 0x32	; 50
    17fa:	7e e3       	ldi	r23, 0x3E	; 62
    17fc:	4f ef       	ldi	r20, 0xFF	; 255
    17fe:	0e 94 0e 08 	call	0x101c	; 0x101c <flash_readBytes>
    1802:	a2 e3       	ldi	r26, 0x32	; 50
    1804:	be e3       	ldi	r27, 0x3E	; 62
    1806:	f8 01       	movw	r30, r16
    1808:	43 e0       	ldi	r20, 0x03	; 3
    180a:	ee 0f       	add	r30, r30
    180c:	ff 1f       	adc	r31, r31
    180e:	4a 95       	dec	r20
    1810:	e1 f7       	brne	.-8      	; 0x180a <initMappingTable+0x32>
    1812:	e0 0f       	add	r30, r16
    1814:	f1 1f       	adc	r31, r17
    1816:	eb 54       	subi	r30, 0x4B	; 75
    1818:	fb 4c       	sbci	r31, 0xCB	; 203
		for (j = 0; j < 28; j++) {
			sensorMappingTable.mappingInfo[i + j].circuitId = tempBuffForMappingInfo[0 + 9 * j];
    181a:	8c 91       	ld	r24, X
    181c:	84 83       	std	Z+4, r24	; 0x04
			sensorMappingTable.mappingInfo[i + j].isEnable = tempBuffForMappingInfo[1 + 9 * j];
    181e:	11 96       	adiw	r26, 0x01	; 1
    1820:	8c 91       	ld	r24, X
    1822:	11 97       	sbiw	r26, 0x01	; 1
    1824:	80 87       	std	Z+8, r24	; 0x08
			sensorMappingTable.mappingInfo[i + j].lcId = (tempBuffForMappingInfo[2 + 9 * j] << 8)
    1826:	12 96       	adiw	r26, 0x02	; 2
    1828:	fc 90       	ld	r15, X
    182a:	12 97       	sbiw	r26, 0x02	; 2
    182c:	ee 24       	eor	r14, r14
    182e:	13 96       	adiw	r26, 0x03	; 3
    1830:	8c 91       	ld	r24, X
    1832:	13 97       	sbiw	r26, 0x03	; 3
    1834:	90 e0       	ldi	r25, 0x00	; 0
    1836:	8e 29       	or	r24, r14
    1838:	9f 29       	or	r25, r15
    183a:	91 83       	std	Z+1, r25	; 0x01
    183c:	80 83       	st	Z, r24
					| tempBuffForMappingInfo[3 + 9 * j];
			sensorMappingTable.mappingInfo[i + j].offCtrlMode = tempBuffForMappingInfo[4 + 9 * j];
    183e:	14 96       	adiw	r26, 0x04	; 4
    1840:	8c 91       	ld	r24, X
    1842:	14 97       	sbiw	r26, 0x04	; 4
    1844:	87 83       	std	Z+7, r24	; 0x07
			sensorMappingTable.mappingInfo[i + j].onCtrlMode = tempBuffForMappingInfo[5 + 9 * j];
    1846:	15 96       	adiw	r26, 0x05	; 5
    1848:	8c 91       	ld	r24, X
    184a:	15 97       	sbiw	r26, 0x05	; 5
    184c:	86 83       	std	Z+6, r24	; 0x06
			sensorMappingTable.mappingInfo[i + j].onTime = tempBuffForMappingInfo[6 + 9 * j];
    184e:	16 96       	adiw	r26, 0x06	; 6
    1850:	8c 91       	ld	r24, X
    1852:	16 97       	sbiw	r26, 0x06	; 6
    1854:	85 83       	std	Z+5, r24	; 0x05
			sensorMappingTable.mappingInfo[i + j].sensorId =
    1856:	17 96       	adiw	r26, 0x07	; 7
    1858:	dc 91       	ld	r29, X
    185a:	17 97       	sbiw	r26, 0x07	; 7
    185c:	c0 e0       	ldi	r28, 0x00	; 0
    185e:	18 96       	adiw	r26, 0x08	; 8
    1860:	8c 91       	ld	r24, X
    1862:	18 97       	sbiw	r26, 0x08	; 8
    1864:	90 e0       	ldi	r25, 0x00	; 0
    1866:	8c 2b       	or	r24, r28
    1868:	9d 2b       	or	r25, r29
    186a:	93 83       	std	Z+3, r25	; 0x03
    186c:	82 83       	std	Z+2, r24	; 0x02
    186e:	19 96       	adiw	r26, 0x09	; 9
    1870:	39 96       	adiw	r30, 0x09	; 9

	//Page당 28개 mapping 정보 기록. 총 252바이트.
	for (i = 0; i < MaxNumOfSensorMappingInfo; i += 28) {
		wdt_reset();
		flash_readBytes(FLASH_ADDR_SENSORMAPPING_INFO + i / 28, tempBuffForMappingInfo, 255);
		for (j = 0; j < 28; j++) {
    1872:	8f e3       	ldi	r24, 0x3F	; 63
    1874:	ae 32       	cpi	r26, 0x2E	; 46
    1876:	b8 07       	cpc	r27, r24
    1878:	81 f6       	brne	.-96     	; 0x181a <initMappingTable+0x42>
void initMappingTable() {
	uint16 i = 0;
	uint8 j = 0;

	//Page당 28개 mapping 정보 기록. 총 252바이트.
	for (i = 0; i < MaxNumOfSensorMappingInfo; i += 28) {
    187a:	04 5e       	subi	r16, 0xE4	; 228
    187c:	1f 4f       	sbci	r17, 0xFF	; 255
    187e:	81 e0       	ldi	r24, 0x01	; 1
    1880:	08 31       	cpi	r16, 0x18	; 24
    1882:	18 07       	cpc	r17, r24
    1884:	09 f0       	breq	.+2      	; 0x1888 <initMappingTable+0xb0>
    1886:	b0 cf       	rjmp	.-160    	; 0x17e8 <initMappingTable+0x10>

	/*for (i = 0; i < MaxNumOfSensorMappingInfo; i++)
	 eeprom_read_block(&(sensorMappingTable.mappingInfo[i]),
	 &(ee_SensorMappingInfo[i]), sizeof(SensorMappingInfo_st));
	 */
}
    1888:	df 91       	pop	r29
    188a:	cf 91       	pop	r28
    188c:	1f 91       	pop	r17
    188e:	0f 91       	pop	r16
    1890:	ff 90       	pop	r15
    1892:	ef 90       	pop	r14
    1894:	08 95       	ret

00001896 <npc_ProcessSendTimeInfo>:
	}

	timer_set(NCP_PING_TIMER_ID, (pingInterval * 1000));
}

void npc_ProcessSendTimeInfo(uint8 srcNodeType, uint16 seqNum, uint16 srcId, uint16 destId, uint8 msg[], int length) {
    1896:	0f 93       	push	r16
    1898:	1f 93       	push	r17
    189a:	f8 01       	movw	r30, r16
	uint8 hour;
	uint8 min;
	hour = msg[9];
	min = msg[10];
    189c:	92 85       	ldd	r25, Z+10	; 0x0a

	Hour = hour;
    189e:	81 85       	ldd	r24, Z+9	; 0x09
    18a0:	80 93 23 70 	sts	0x7023, r24
	Min = min;
    18a4:	90 93 22 70 	sts	0x7022, r25
}
    18a8:	1f 91       	pop	r17
    18aa:	0f 91       	pop	r16
    18ac:	08 95       	ret

000018ae <ncp_ConnState>:
		npc_SendRegisterNodeReq(0, deviceInfoTable.deviceInfo[i].ieeeId, deviceInfoTable.deviceInfo[i].deviceType, deviceInfoTable.deviceInfo[i].ieeeId);

}
uint8 ncp_ConnState() {
	return ncp_NetState;
}
    18ae:	80 91 10 23 	lds	r24, 0x2310
    18b2:	08 95       	ret

000018b4 <hasToken>:

char hasToken() {
    18b4:	80 91 11 23 	lds	r24, 0x2311
    18b8:	81 11       	cpse	r24, r1
    18ba:	81 e0       	ldi	r24, 0x01	; 1
	if (token == 0)
		return 0;

	return 1;
}
    18bc:	08 95       	ret

000018be <plcs_NCP_ProcessAssignToken>:
		ncp_SendRegisterReqWithoutQueue(zrmpInfo_0.zrm_Id);
	}
}

void plcs_NCP_ProcessAssignToken(uint8 srcNodeType, uint16 seqNum, uint16 srcId, uint16 destId, uint8 msg[], int length) {
	token = 1;
    18be:	81 e0       	ldi	r24, 0x01	; 1
    18c0:	80 93 11 23 	sts	0x2311, r24
}
    18c4:	08 95       	ret

000018c6 <plcs_NCP_ProcessReleaseTokenRes>:

void plcs_NCP_ProcessReleaseTokenRes(uint8 srcNodeType, uint16 seqNum, uint16 srcId, uint16 destId, uint8 msg[], int length) {
	token = 0;
    18c6:	10 92 11 23 	sts	0x2311, r1
}
    18ca:	08 95       	ret

000018cc <handleSensorEvent>:
	DEBUG("\n NODE ID 0X%02X, SENSOR ID %d", nodeId, sensorId);

	handleSensorEvent(nodeId, sensorId);
}

void handleSensorEvent(uint16 lcId, uint16 sensorId) {
    18cc:	cf 93       	push	r28
    18ce:	df 93       	push	r29
    18d0:	9c 01       	movw	r18, r24
    18d2:	c5 eb       	ldi	r28, 0xB5	; 181
    18d4:	d4 e3       	ldi	r29, 0x34	; 52
	uint16 i = 0;
	uint8 circuitId;
	for (i = 0; i < MaxNumOfSensorMappingInfo; i++) {
		if (sensorMappingTable.mappingInfo[i].sensorId == sensorId && sensorMappingTable.mappingInfo[i].lcId == lcId && sensorMappingTable.mappingInfo[i].isEnable == 1) {
    18d6:	8a 81       	ldd	r24, Y+2	; 0x02
    18d8:	9b 81       	ldd	r25, Y+3	; 0x03
    18da:	86 17       	cp	r24, r22
    18dc:	97 07       	cpc	r25, r23
    18de:	09 f0       	breq	.+2      	; 0x18e2 <handleSensorEvent+0x16>
    18e0:	41 c0       	rjmp	.+130    	; 0x1964 <handleSensorEvent+0x98>
    18e2:	88 81       	ld	r24, Y
    18e4:	99 81       	ldd	r25, Y+1	; 0x01
    18e6:	82 17       	cp	r24, r18
    18e8:	93 07       	cpc	r25, r19
    18ea:	e1 f5       	brne	.+120    	; 0x1964 <handleSensorEvent+0x98>
    18ec:	88 85       	ldd	r24, Y+8	; 0x08
    18ee:	81 30       	cpi	r24, 0x01	; 1
    18f0:	c9 f5       	brne	.+114    	; 0x1964 <handleSensorEvent+0x98>
			circuitId = sensorMappingTable.mappingInfo[i].circuitId;
			if (tmp_CircuitInfo.ctrlMode[circuitId] == SENSOR || tmp_CircuitInfo.ctrlMode[circuitId] == SCHEDULE) {
    18f2:	8c 81       	ldd	r24, Y+4	; 0x04
    18f4:	a8 2f       	mov	r26, r24
    18f6:	b0 e0       	ldi	r27, 0x00	; 0
    18f8:	fd 01       	movw	r30, r26
    18fa:	ed 5e       	subi	r30, 0xED	; 237
    18fc:	fa 4d       	sbci	r31, 0xDA	; 218
    18fe:	80 81       	ld	r24, Z
    1900:	82 50       	subi	r24, 0x02	; 2
    1902:	82 30       	cpi	r24, 0x02	; 2
    1904:	78 f5       	brcc	.+94     	; 0x1964 <handleSensorEvent+0x98>
				if (tmp_CircuitInfo.expirationTime[circuitId] < sensorMappingTable.mappingInfo[i].onTime || tmp_CircuitInfo.expirationTime[circuitId] == 0xffff) {
    1906:	fd 01       	movw	r30, r26
    1908:	ee 0f       	add	r30, r30
    190a:	ff 1f       	adc	r31, r31
    190c:	ed 5c       	subi	r30, 0xCD	; 205
    190e:	fa 4d       	sbci	r31, 0xDA	; 218
    1910:	01 90       	ld	r0, Z+
    1912:	f0 81       	ld	r31, Z
    1914:	e0 2d       	mov	r30, r0
    1916:	8d 81       	ldd	r24, Y+5	; 0x05
    1918:	90 e0       	ldi	r25, 0x00	; 0
    191a:	e8 17       	cp	r30, r24
    191c:	f9 07       	cpc	r31, r25
    191e:	18 f0       	brcs	.+6      	; 0x1926 <handleSensorEvent+0x5a>
    1920:	ef 5f       	subi	r30, 0xFF	; 255
    1922:	ff 4f       	sbci	r31, 0xFF	; 255
    1924:	c9 f4       	brne	.+50     	; 0x1958 <handleSensorEvent+0x8c>
					tmp_CircuitInfo.timerCnt[circuitId] = 0;
    1926:	fd 01       	movw	r30, r26
    1928:	ee 0f       	add	r30, r30
    192a:	ff 1f       	adc	r31, r31
    192c:	ed 5a       	subi	r30, 0xAD	; 173
    192e:	fa 4d       	sbci	r31, 0xDA	; 218
    1930:	11 82       	std	Z+1, r1	; 0x01
    1932:	10 82       	st	Z, r1
					tmp_CircuitInfo.expirationTime[circuitId] = sensorMappingTable.mappingInfo[i].onTime;
    1934:	fd 01       	movw	r30, r26
    1936:	ee 0f       	add	r30, r30
    1938:	ff 1f       	adc	r31, r31
    193a:	ed 5c       	subi	r30, 0xCD	; 205
    193c:	fa 4d       	sbci	r31, 0xDA	; 218
    193e:	91 83       	std	Z+1, r25	; 0x01
    1940:	80 83       	st	Z, r24
					tmp_CircuitInfo.offCtrlMode[circuitId] = sensorMappingTable.mappingInfo[i].offCtrlMode;
    1942:	fd 01       	movw	r30, r26
    1944:	ed 5e       	subi	r30, 0xED	; 237
    1946:	fa 4d       	sbci	r31, 0xDA	; 218
    1948:	e0 59       	subi	r30, 0x90	; 144
    194a:	ff 4f       	sbci	r31, 0xFF	; 255
    194c:	8f 81       	ldd	r24, Y+7	; 0x07
    194e:	80 83       	st	Z, r24
					tmp_CircuitInfo.onCtrlMode[circuitId] = sensorMappingTable.mappingInfo[i].onCtrlMode;
    1950:	70 97       	sbiw	r30, 0x10	; 16
    1952:	8e 81       	ldd	r24, Y+6	; 0x06
    1954:	80 83       	st	Z, r24
    1956:	06 c0       	rjmp	.+12     	; 0x1964 <handleSensorEvent+0x98>
				} else {
					tmp_CircuitInfo.timerCnt[circuitId] = 0;
    1958:	aa 0f       	add	r26, r26
    195a:	bb 1f       	adc	r27, r27
    195c:	ad 5a       	subi	r26, 0xAD	; 173
    195e:	ba 4d       	sbci	r27, 0xDA	; 218
    1960:	1d 92       	st	X+, r1
    1962:	1c 92       	st	X, r1
    1964:	29 96       	adiw	r28, 0x09	; 9
}

void handleSensorEvent(uint16 lcId, uint16 sensorId) {
	uint16 i = 0;
	uint8 circuitId;
	for (i = 0; i < MaxNumOfSensorMappingInfo; i++) {
    1966:	8d e3       	ldi	r24, 0x3D	; 61
    1968:	cc 3a       	cpi	r28, 0xAC	; 172
    196a:	d8 07       	cpc	r29, r24
    196c:	09 f0       	breq	.+2      	; 0x1970 <handleSensorEvent+0xa4>
    196e:	b3 cf       	rjmp	.-154    	; 0x18d6 <handleSensorEvent+0xa>
					tmp_CircuitInfo.timerCnt[circuitId] = 0;
				}
			}
		}
	}
}
    1970:	df 91       	pop	r29
    1972:	cf 91       	pop	r28
    1974:	08 95       	ret

00001976 <plcs_GCP_HandleSensorEvent>:

void plcs_GCP_HandleDebugLogLCReset(uint8 srcNodeType, uint16 seqNum, uint16 srcId, uint16 destId, uint8 msg[], int length) {
	debug_Reset();
}

void plcs_GCP_HandleSensorEvent(uint8 srcNodeType, uint16 seqNum, uint16 srcId, uint16 destId, uint8 msg[], int length) {
    1976:	0f 93       	push	r16
    1978:	1f 93       	push	r17
    197a:	f8 01       	movw	r30, r16
	nodeId = msg[9] << 8 | msg[10];
	sensorId = msg[12] << 8 | msg[13];

	DEBUG("\n NODE ID 0X%02X, SENSOR ID %d", nodeId, sensorId);

	handleSensorEvent(nodeId, sensorId);
    197c:	91 85       	ldd	r25, Z+9	; 0x09
    197e:	80 e0       	ldi	r24, 0x00	; 0
    1980:	42 85       	ldd	r20, Z+10	; 0x0a
    1982:	50 e0       	ldi	r21, 0x00	; 0
    1984:	74 85       	ldd	r23, Z+12	; 0x0c
    1986:	60 e0       	ldi	r22, 0x00	; 0
    1988:	25 85       	ldd	r18, Z+13	; 0x0d
    198a:	30 e0       	ldi	r19, 0x00	; 0
    198c:	62 2b       	or	r22, r18
    198e:	73 2b       	or	r23, r19
    1990:	84 2b       	or	r24, r20
    1992:	95 2b       	or	r25, r21
    1994:	0e 94 66 0c 	call	0x18cc	; 0x18cc <handleSensorEvent>
}
    1998:	1f 91       	pop	r17
    199a:	0f 91       	pop	r16
    199c:	08 95       	ret

0000199e <plcs_GCP_HandleNoticeEventNeighbor>:
		applyingSchedule = scheduleType;

	plcs_GCP_SendApplyingScheduleRes(srcNodeType, srcId, seqNum, nodeId, applyingSchedule);
}

void plcs_GCP_HandleNoticeEventNeighbor(uint8 srcNodeType, uint16 seqNum, uint16 srcId, uint16 destId, uint8 msg[], int length) {
    199e:	0f 93       	push	r16
    19a0:	1f 93       	push	r17
    19a2:	f8 01       	movw	r30, r16

	//msg[8]=messagetype
	lcId = msg[11] << 8 | msg[12];
	sensorId = msg[13] << 8 | msg[14];

	handleSensorEvent(lcId, sensorId);
    19a4:	93 85       	ldd	r25, Z+11	; 0x0b
    19a6:	80 e0       	ldi	r24, 0x00	; 0
    19a8:	44 85       	ldd	r20, Z+12	; 0x0c
    19aa:	50 e0       	ldi	r21, 0x00	; 0
    19ac:	75 85       	ldd	r23, Z+13	; 0x0d
    19ae:	60 e0       	ldi	r22, 0x00	; 0
    19b0:	26 85       	ldd	r18, Z+14	; 0x0e
    19b2:	30 e0       	ldi	r19, 0x00	; 0
    19b4:	62 2b       	or	r22, r18
    19b6:	73 2b       	or	r23, r19
    19b8:	84 2b       	or	r24, r20
    19ba:	95 2b       	or	r25, r21
    19bc:	0e 94 66 0c 	call	0x18cc	; 0x18cc <handleSensorEvent>
}
    19c0:	1f 91       	pop	r17
    19c2:	0f 91       	pop	r16
    19c4:	08 95       	ret

000019c6 <getSeqNumGenerator>:
/////////////////////////////////////////////////////////////////////////////////////////////////////////
//Send
/////////////////////////////////////////////////////////////////////////////////////////////////////////
uint16 seqNumGenerator = 0;
uint16 getSeqNumGenerator() {
	return seqNumGenerator++;
    19c6:	20 91 12 23 	lds	r18, 0x2312
    19ca:	30 91 13 23 	lds	r19, 0x2313
    19ce:	2f 5f       	subi	r18, 0xFF	; 255
    19d0:	3f 4f       	sbci	r19, 0xFF	; 255
    19d2:	30 93 13 23 	sts	0x2313, r19
    19d6:	20 93 12 23 	sts	0x2312, r18
    19da:	21 50       	subi	r18, 0x01	; 1
    19dc:	30 40       	sbci	r19, 0x00	; 0
}
    19de:	c9 01       	movw	r24, r18
    19e0:	08 95       	ret

000019e2 <plcs_GetNCPMessage>:

uint8 plcs_GetNCPMessage(uint8 resultMsg[], uint16 destId, uint16 srcId, uint8 payload[], uint8 len) {
    19e2:	ef 92       	push	r14
    19e4:	ff 92       	push	r15
    19e6:	0f 93       	push	r16
    19e8:	cf 93       	push	r28
    19ea:	df 93       	push	r29
    19ec:	ec 01       	movw	r28, r24
    19ee:	79 01       	movw	r14, r18
/////////////////////////////////////////////////////////////////////////////////////////////////////////
//Send
/////////////////////////////////////////////////////////////////////////////////////////////////////////
uint16 seqNumGenerator = 0;
uint16 getSeqNumGenerator() {
	return seqNumGenerator++;
    19f0:	80 91 12 23 	lds	r24, 0x2312
    19f4:	90 91 13 23 	lds	r25, 0x2313
    19f8:	01 96       	adiw	r24, 0x01	; 1
    19fa:	90 93 13 23 	sts	0x2313, r25
    19fe:	80 93 12 23 	sts	0x2312, r24
    1a02:	01 97       	sbiw	r24, 0x01	; 1

uint8 plcs_GetNCPMessage(uint8 resultMsg[], uint16 destId, uint16 srcId, uint8 payload[], uint8 len) {
	uint8 resultLen = 0;
	uint16 seqNum = getSeqNumGenerator();

	resultMsg[resultLen++] = NCP_PROTOCOL_ID;
    1a04:	20 e8       	ldi	r18, 0x80	; 128
    1a06:	28 83       	st	Y, r18
	resultMsg[resultLen++] = PLCS_NCP_PROTOCOL_ID;
    1a08:	21 e0       	ldi	r18, 0x01	; 1
    1a0a:	29 83       	std	Y+1, r18	; 0x01
	resultMsg[resultLen++] = seqNum >> 8;
    1a0c:	9a 83       	std	Y+2, r25	; 0x02
	resultMsg[resultLen++] = seqNum;
    1a0e:	8b 83       	std	Y+3, r24	; 0x03
	resultMsg[resultLen++] = destId >> 8;
    1a10:	7c 83       	std	Y+4, r23	; 0x04
	resultMsg[resultLen++] = destId;
    1a12:	6d 83       	std	Y+5, r22	; 0x05
	resultMsg[resultLen++] = srcId >> 8;
    1a14:	5e 83       	std	Y+6, r21	; 0x06
	resultMsg[resultLen++] = srcId;
    1a16:	4f 83       	std	Y+7, r20	; 0x07
    1a18:	40 e0       	ldi	r20, 0x00	; 0
    1a1a:	50 e0       	ldi	r21, 0x00	; 0
	for (int i = 0; i < len; i++)
    1a1c:	60 2f       	mov	r22, r16
    1a1e:	70 e0       	ldi	r23, 0x00	; 0
    1a20:	0a c0       	rjmp	.+20     	; 0x1a36 <plcs_GetNCPMessage+0x54>
		resultMsg[resultLen++] = payload[i];
    1a22:	fe 01       	movw	r30, r28
    1a24:	e8 0f       	add	r30, r24
    1a26:	f1 1d       	adc	r31, r1
    1a28:	d7 01       	movw	r26, r14
    1a2a:	a4 0f       	add	r26, r20
    1a2c:	b5 1f       	adc	r27, r21
    1a2e:	8c 91       	ld	r24, X
    1a30:	80 83       	st	Z, r24
	resultMsg[resultLen++] = seqNum;
	resultMsg[resultLen++] = destId >> 8;
	resultMsg[resultLen++] = destId;
	resultMsg[resultLen++] = srcId >> 8;
	resultMsg[resultLen++] = srcId;
	for (int i = 0; i < len; i++)
    1a32:	4f 5f       	subi	r20, 0xFF	; 255
    1a34:	5f 4f       	sbci	r21, 0xFF	; 255
    1a36:	84 2f       	mov	r24, r20
    1a38:	88 5f       	subi	r24, 0xF8	; 248
    1a3a:	46 17       	cp	r20, r22
    1a3c:	57 07       	cpc	r21, r23
    1a3e:	8c f3       	brlt	.-30     	; 0x1a22 <plcs_GetNCPMessage+0x40>
		resultMsg[resultLen++] = payload[i];
	return resultLen;
}
    1a40:	80 2f       	mov	r24, r16
    1a42:	88 5f       	subi	r24, 0xF8	; 248
    1a44:	df 91       	pop	r29
    1a46:	cf 91       	pop	r28
    1a48:	0f 91       	pop	r16
    1a4a:	ff 90       	pop	r15
    1a4c:	ef 90       	pop	r14
    1a4e:	08 95       	ret

00001a50 <plcs_GetNCPResMessage>:

uint8 plcs_GetNCPResMessage(uint8 resultMsg[], uint16 destId, uint16 srcId, uint8 payload[], uint8 len, uint16 seqNum) {
    1a50:	ef 92       	push	r14
    1a52:	ff 92       	push	r15
    1a54:	0f 93       	push	r16
    1a56:	cf 93       	push	r28
    1a58:	df 93       	push	r29
    1a5a:	ec 01       	movw	r28, r24
	uint8 resultLen = 0;

	resultMsg[resultLen++] = NCP_PROTOCOL_ID;
    1a5c:	80 e8       	ldi	r24, 0x80	; 128
    1a5e:	88 83       	st	Y, r24
	resultMsg[resultLen++] = PLCS_NCP_PROTOCOL_ID;
    1a60:	81 e0       	ldi	r24, 0x01	; 1
    1a62:	89 83       	std	Y+1, r24	; 0x01
	resultMsg[resultLen++] = seqNum >> 8;
    1a64:	fa 82       	std	Y+2, r15	; 0x02
	resultMsg[resultLen++] = seqNum;
    1a66:	eb 82       	std	Y+3, r14	; 0x03
	resultMsg[resultLen++] = destId >> 8;
    1a68:	7c 83       	std	Y+4, r23	; 0x04
	resultMsg[resultLen++] = destId;
    1a6a:	6d 83       	std	Y+5, r22	; 0x05
	resultMsg[resultLen++] = srcId >> 8;
    1a6c:	5e 83       	std	Y+6, r21	; 0x06
	resultMsg[resultLen++] = srcId;
    1a6e:	4f 83       	std	Y+7, r20	; 0x07
    1a70:	40 e0       	ldi	r20, 0x00	; 0
    1a72:	50 e0       	ldi	r21, 0x00	; 0
	for (int i = 0; i < len; i++)
    1a74:	60 2f       	mov	r22, r16
    1a76:	70 e0       	ldi	r23, 0x00	; 0
    1a78:	0a c0       	rjmp	.+20     	; 0x1a8e <plcs_GetNCPResMessage+0x3e>
		resultMsg[resultLen++] = payload[i];
    1a7a:	fe 01       	movw	r30, r28
    1a7c:	e8 0f       	add	r30, r24
    1a7e:	f1 1d       	adc	r31, r1
    1a80:	d9 01       	movw	r26, r18
    1a82:	a4 0f       	add	r26, r20
    1a84:	b5 1f       	adc	r27, r21
    1a86:	8c 91       	ld	r24, X
    1a88:	80 83       	st	Z, r24
	resultMsg[resultLen++] = seqNum;
	resultMsg[resultLen++] = destId >> 8;
	resultMsg[resultLen++] = destId;
	resultMsg[resultLen++] = srcId >> 8;
	resultMsg[resultLen++] = srcId;
	for (int i = 0; i < len; i++)
    1a8a:	4f 5f       	subi	r20, 0xFF	; 255
    1a8c:	5f 4f       	sbci	r21, 0xFF	; 255
    1a8e:	84 2f       	mov	r24, r20
    1a90:	88 5f       	subi	r24, 0xF8	; 248
    1a92:	46 17       	cp	r20, r22
    1a94:	57 07       	cpc	r21, r23
    1a96:	8c f3       	brlt	.-30     	; 0x1a7a <plcs_GetNCPResMessage+0x2a>
		resultMsg[resultLen++] = payload[i];
	return resultLen;
}
    1a98:	80 2f       	mov	r24, r16
    1a9a:	88 5f       	subi	r24, 0xF8	; 248
    1a9c:	df 91       	pop	r29
    1a9e:	cf 91       	pop	r28
    1aa0:	0f 91       	pop	r16
    1aa2:	ff 90       	pop	r15
    1aa4:	ef 90       	pop	r14
    1aa6:	08 95       	ret

00001aa8 <plcs_GetGCPMessage>:

uint8 plcs_GetGCPMessage(uint8 resultMsg[], uint16 destId, uint16 srcId, uint8 payload[], uint8 len) {
    1aa8:	ef 92       	push	r14
    1aaa:	ff 92       	push	r15
    1aac:	0f 93       	push	r16
    1aae:	cf 93       	push	r28
    1ab0:	df 93       	push	r29
    1ab2:	ec 01       	movw	r28, r24
    1ab4:	79 01       	movw	r14, r18
/////////////////////////////////////////////////////////////////////////////////////////////////////////
//Send
/////////////////////////////////////////////////////////////////////////////////////////////////////////
uint16 seqNumGenerator = 0;
uint16 getSeqNumGenerator() {
	return seqNumGenerator++;
    1ab6:	80 91 12 23 	lds	r24, 0x2312
    1aba:	90 91 13 23 	lds	r25, 0x2313
    1abe:	01 96       	adiw	r24, 0x01	; 1
    1ac0:	90 93 13 23 	sts	0x2313, r25
    1ac4:	80 93 12 23 	sts	0x2312, r24
    1ac8:	01 97       	sbiw	r24, 0x01	; 1

uint8 plcs_GetGCPMessage(uint8 resultMsg[], uint16 destId, uint16 srcId, uint8 payload[], uint8 len) {
	uint8 resultLen = 0;
	uint16 seqNum = getSeqNumGenerator();

	resultMsg[resultLen++] = NCP_PROTOCOL_ID;
    1aca:	20 e8       	ldi	r18, 0x80	; 128
    1acc:	28 83       	st	Y, r18
	resultMsg[resultLen++] = PLCS_GCP_PROTOCOL_ID;
    1ace:	21 e2       	ldi	r18, 0x21	; 33
    1ad0:	29 83       	std	Y+1, r18	; 0x01
	resultMsg[resultLen++] = seqNum >> 8;
    1ad2:	9a 83       	std	Y+2, r25	; 0x02
	resultMsg[resultLen++] = seqNum;
    1ad4:	8b 83       	std	Y+3, r24	; 0x03
	resultMsg[resultLen++] = destId >> 8;
    1ad6:	7c 83       	std	Y+4, r23	; 0x04
	resultMsg[resultLen++] = destId;
    1ad8:	6d 83       	std	Y+5, r22	; 0x05
	resultMsg[resultLen++] = srcId >> 8;
    1ada:	5e 83       	std	Y+6, r21	; 0x06
	resultMsg[resultLen++] = srcId;
    1adc:	4f 83       	std	Y+7, r20	; 0x07
    1ade:	40 e0       	ldi	r20, 0x00	; 0
    1ae0:	50 e0       	ldi	r21, 0x00	; 0
	for (int i = 0; i < len; i++)
    1ae2:	60 2f       	mov	r22, r16
    1ae4:	70 e0       	ldi	r23, 0x00	; 0
    1ae6:	0a c0       	rjmp	.+20     	; 0x1afc <plcs_GetGCPMessage+0x54>
		resultMsg[resultLen++] = payload[i];
    1ae8:	fe 01       	movw	r30, r28
    1aea:	e8 0f       	add	r30, r24
    1aec:	f1 1d       	adc	r31, r1
    1aee:	d7 01       	movw	r26, r14
    1af0:	a4 0f       	add	r26, r20
    1af2:	b5 1f       	adc	r27, r21
    1af4:	8c 91       	ld	r24, X
    1af6:	80 83       	st	Z, r24
	resultMsg[resultLen++] = seqNum;
	resultMsg[resultLen++] = destId >> 8;
	resultMsg[resultLen++] = destId;
	resultMsg[resultLen++] = srcId >> 8;
	resultMsg[resultLen++] = srcId;
	for (int i = 0; i < len; i++)
    1af8:	4f 5f       	subi	r20, 0xFF	; 255
    1afa:	5f 4f       	sbci	r21, 0xFF	; 255
    1afc:	84 2f       	mov	r24, r20
    1afe:	88 5f       	subi	r24, 0xF8	; 248
    1b00:	46 17       	cp	r20, r22
    1b02:	57 07       	cpc	r21, r23
    1b04:	8c f3       	brlt	.-30     	; 0x1ae8 <plcs_GetGCPMessage+0x40>
		resultMsg[resultLen++] = payload[i];
	return resultLen;
}
    1b06:	80 2f       	mov	r24, r16
    1b08:	88 5f       	subi	r24, 0xF8	; 248
    1b0a:	df 91       	pop	r29
    1b0c:	cf 91       	pop	r28
    1b0e:	0f 91       	pop	r16
    1b10:	ff 90       	pop	r15
    1b12:	ef 90       	pop	r14
    1b14:	08 95       	ret

00001b16 <plcs_GetGCPResMessage>:

uint8 plcs_GetGCPResMessage(uint8 resultMsg[], uint16 destId, uint16 srcId, uint8 payload[], uint8 len, uint16 seqNum) {
    1b16:	ef 92       	push	r14
    1b18:	ff 92       	push	r15
    1b1a:	0f 93       	push	r16
    1b1c:	cf 93       	push	r28
    1b1e:	df 93       	push	r29
    1b20:	ec 01       	movw	r28, r24
	uint8 resultLen = 0;

	resultMsg[resultLen++] = NCP_PROTOCOL_ID;
    1b22:	80 e8       	ldi	r24, 0x80	; 128
    1b24:	88 83       	st	Y, r24
	resultMsg[resultLen++] = PLCS_GCP_PROTOCOL_ID;
    1b26:	81 e2       	ldi	r24, 0x21	; 33
    1b28:	89 83       	std	Y+1, r24	; 0x01
	resultMsg[resultLen++] = seqNum >> 8;
    1b2a:	fa 82       	std	Y+2, r15	; 0x02
	resultMsg[resultLen++] = seqNum;
    1b2c:	eb 82       	std	Y+3, r14	; 0x03
	resultMsg[resultLen++] = destId >> 8;
    1b2e:	7c 83       	std	Y+4, r23	; 0x04
	resultMsg[resultLen++] = destId;
    1b30:	6d 83       	std	Y+5, r22	; 0x05
	resultMsg[resultLen++] = srcId >> 8;
    1b32:	5e 83       	std	Y+6, r21	; 0x06
	resultMsg[resultLen++] = srcId;
    1b34:	4f 83       	std	Y+7, r20	; 0x07
    1b36:	40 e0       	ldi	r20, 0x00	; 0
    1b38:	50 e0       	ldi	r21, 0x00	; 0
	for (int i = 0; i < len; i++)
    1b3a:	60 2f       	mov	r22, r16
    1b3c:	70 e0       	ldi	r23, 0x00	; 0
    1b3e:	0a c0       	rjmp	.+20     	; 0x1b54 <plcs_GetGCPResMessage+0x3e>
		resultMsg[resultLen++] = payload[i];
    1b40:	fe 01       	movw	r30, r28
    1b42:	e8 0f       	add	r30, r24
    1b44:	f1 1d       	adc	r31, r1
    1b46:	d9 01       	movw	r26, r18
    1b48:	a4 0f       	add	r26, r20
    1b4a:	b5 1f       	adc	r27, r21
    1b4c:	8c 91       	ld	r24, X
    1b4e:	80 83       	st	Z, r24
	resultMsg[resultLen++] = seqNum;
	resultMsg[resultLen++] = destId >> 8;
	resultMsg[resultLen++] = destId;
	resultMsg[resultLen++] = srcId >> 8;
	resultMsg[resultLen++] = srcId;
	for (int i = 0; i < len; i++)
    1b50:	4f 5f       	subi	r20, 0xFF	; 255
    1b52:	5f 4f       	sbci	r21, 0xFF	; 255
    1b54:	84 2f       	mov	r24, r20
    1b56:	88 5f       	subi	r24, 0xF8	; 248
    1b58:	46 17       	cp	r20, r22
    1b5a:	57 07       	cpc	r21, r23
    1b5c:	8c f3       	brlt	.-30     	; 0x1b40 <plcs_GetGCPResMessage+0x2a>
		resultMsg[resultLen++] = payload[i];
	return resultLen;
}
    1b5e:	80 2f       	mov	r24, r16
    1b60:	88 5f       	subi	r24, 0xF8	; 248
    1b62:	df 91       	pop	r29
    1b64:	cf 91       	pop	r28
    1b66:	0f 91       	pop	r16
    1b68:	ff 90       	pop	r15
    1b6a:	ef 90       	pop	r14
    1b6c:	08 95       	ret

00001b6e <gcp_GetNoticeMode>:
	sendMessage(dstNodeType, dstNodeId, tmp_Buff, resultLen);
}

uint8 gcp_GetNoticeMode() {
	return g_NoticeMode;
}
    1b6e:	80 91 02 22 	lds	r24, 0x2202
    1b72:	08 95       	ret

00001b74 <gcp_SetNoticeMode>:
void gcp_SetNoticeMode(uint8 enable) {
	g_NoticeMode = enable;
    1b74:	80 93 02 22 	sts	0x2202, r24
}
    1b78:	08 95       	ret

00001b7a <plcs_GCP_SendDebugLogLCRes>:
	resultLen = plcs_GetGCPMessage(tmp_Buff, 0, zrmpInfo_0.zrm_Id, payload, len);
	sendMessage(dstNodeType, dstNodeId, tmp_Buff, resultLen);
}

void plcs_GCP_SendDebugLogLCRes(uint8 dstNodeType, uint16 dstNodeId, uint16 seqNum, uint16 nodeId, uint16 rebootCnt, uint8 lastRebootTime[], uint16 serverConnectionCnt,
		uint8 lastServerConnectionTime[]) {
    1b7a:	5f 92       	push	r5
    1b7c:	6f 92       	push	r6
    1b7e:	7f 92       	push	r7
    1b80:	8f 92       	push	r8
    1b82:	9f 92       	push	r9
    1b84:	af 92       	push	r10
    1b86:	bf 92       	push	r11
    1b88:	cf 92       	push	r12
    1b8a:	df 92       	push	r13
    1b8c:	ef 92       	push	r14
    1b8e:	ff 92       	push	r15
    1b90:	0f 93       	push	r16
    1b92:	1f 93       	push	r17
    1b94:	df 93       	push	r29
    1b96:	cf 93       	push	r28
    1b98:	cd b7       	in	r28, 0x3d	; 61
    1b9a:	de b7       	in	r29, 0x3e	; 62
    1b9c:	a8 97       	sbiw	r28, 0x28	; 40
    1b9e:	0f b6       	in	r0, 0x3f	; 63
    1ba0:	f8 94       	cli
    1ba2:	de bf       	out	0x3e, r29	; 62
    1ba4:	0f be       	out	0x3f, r0	; 63
    1ba6:	cd bf       	out	0x3d, r28	; 61
    1ba8:	58 2e       	mov	r5, r24
    1baa:	3b 01       	movw	r6, r22
    1bac:	4a 01       	movw	r8, r20
    1bae:	f7 01       	movw	r30, r14
    1bb0:	d5 01       	movw	r26, r10
	int len = 0;
	uint8 i = 0;
	uint8 payload[40];
	uint8 resultLen = 0;

	payload[len++] = PLCS_GCP_RES_DEBUG_LOG_LC;
    1bb2:	84 e9       	ldi	r24, 0x94	; 148
    1bb4:	89 83       	std	Y+1, r24	; 0x01
	payload[len++] = (uint8) (nodeId >> 8);
    1bb6:	3a 83       	std	Y+2, r19	; 0x02
	payload[len++] = (uint8) nodeId;
    1bb8:	2b 83       	std	Y+3, r18	; 0x03
	payload[len++] = (uint8) (rebootCnt >> 8);
    1bba:	1c 83       	std	Y+4, r17	; 0x04
	payload[len++] = (uint8) rebootCnt;
    1bbc:	0d 83       	std	Y+5, r16	; 0x05

	for (i = 0; i < 2; i++)
		payload[len++] = lastRebootTime[i];
    1bbe:	80 81       	ld	r24, Z
    1bc0:	8e 83       	std	Y+6, r24	; 0x06
    1bc2:	81 81       	ldd	r24, Z+1	; 0x01
    1bc4:	8f 83       	std	Y+7, r24	; 0x07

	payload[len++] = (uint8) (serverConnectionCnt >> 8);
    1bc6:	d8 86       	std	Y+8, r13	; 0x08
	payload[len++] = (uint8) (serverConnectionCnt);
    1bc8:	c9 86       	std	Y+9, r12	; 0x09
	for (i = 0; i < 2; i++)
		payload[len++] = lastServerConnectionTime[i];
    1bca:	8c 91       	ld	r24, X
    1bcc:	8a 87       	std	Y+10, r24	; 0x0a
