Archive member included because of file (symbol)

c:/winavr-20100110/bin/../lib/gcc/avr/4.3.3/avr6\libgcc.a(_udivmodqi4.o)
                              ./src/PLCS_Protocol.o (__udivmodqi4)
c:/winavr-20100110/bin/../lib/gcc/avr/4.3.3/avr6\libgcc.a(_udivmodhi4.o)
                              ./src/MappingTable.o (__udivmodhi4)
c:/winavr-20100110/bin/../lib/gcc/avr/4.3.3/avr6\libgcc.a(_exit.o)
                              c:/winavr-20100110/bin/../lib/gcc/avr/4.3.3/../../../../avr/lib/avr6/crtm2560.o (exit)
c:/winavr-20100110/bin/../lib/gcc/avr/4.3.3/avr6\libgcc.a(_clear_bss.o)
                              ./src/DeviceInfo.o (__do_clear_bss)
c:/winavr-20100110/bin/../lib/gcc/avr/4.3.3/avr6\libgcc.a(_fixunssfsi.o)
                              ./src/PLCS_Protocol.o (__fixunssfsi)
c:/winavr-20100110/bin/../lib/gcc/avr/4.3.3/avr6\libgcc.a(_addsub_sf.o)
                              c:/winavr-20100110/bin/../lib/gcc/avr/4.3.3/avr6\libgcc.a(_fixunssfsi.o) (__subsf3)
c:/winavr-20100110/bin/../lib/gcc/avr/4.3.3/avr6\libgcc.a(_mul_sf.o)
                              ./src/PLCS_Protocol.o (__mulsf3)
c:/winavr-20100110/bin/../lib/gcc/avr/4.3.3/avr6\libgcc.a(_gt_sf.o)
                              ./src/PLCS_Protocol.o (__gtsf2)
c:/winavr-20100110/bin/../lib/gcc/avr/4.3.3/avr6\libgcc.a(_ge_sf.o)
                              c:/winavr-20100110/bin/../lib/gcc/avr/4.3.3/avr6\libgcc.a(_fixunssfsi.o) (__gesf2)
c:/winavr-20100110/bin/../lib/gcc/avr/4.3.3/avr6\libgcc.a(_lt_sf.o)
                              ./src/PLCS_Protocol.o (__ltsf2)
c:/winavr-20100110/bin/../lib/gcc/avr/4.3.3/avr6\libgcc.a(_sf_to_si.o)
                              c:/winavr-20100110/bin/../lib/gcc/avr/4.3.3/avr6\libgcc.a(_fixunssfsi.o) (__fixsfsi)
c:/winavr-20100110/bin/../lib/gcc/avr/4.3.3/avr6\libgcc.a(_thenan_sf.o)
                              c:/winavr-20100110/bin/../lib/gcc/avr/4.3.3/avr6\libgcc.a(_addsub_sf.o) (__thenan_sf)
c:/winavr-20100110/bin/../lib/gcc/avr/4.3.3/avr6\libgcc.a(_usi_to_sf.o)
                              ./src/PLCS_Protocol.o (__floatunsisf)
c:/winavr-20100110/bin/../lib/gcc/avr/4.3.3/avr6\libgcc.a(_prologue.o)
                              c:/winavr-20100110/bin/../lib/gcc/avr/4.3.3/avr6\libgcc.a(_addsub_sf.o) (__prologue_saves__)
c:/winavr-20100110/bin/../lib/gcc/avr/4.3.3/avr6\libgcc.a(_epilogue.o)
                              c:/winavr-20100110/bin/../lib/gcc/avr/4.3.3/avr6\libgcc.a(_addsub_sf.o) (__epilogue_restores__)
c:/winavr-20100110/bin/../lib/gcc/avr/4.3.3/avr6\libgcc.a(_clzsi2.o)
                              c:/winavr-20100110/bin/../lib/gcc/avr/4.3.3/avr6\libgcc.a(_usi_to_sf.o) (__clzsi2)
c:/winavr-20100110/bin/../lib/gcc/avr/4.3.3/avr6\libgcc.a(_pack_sf.o)
                              c:/winavr-20100110/bin/../lib/gcc/avr/4.3.3/avr6\libgcc.a(_addsub_sf.o) (__pack_f)
c:/winavr-20100110/bin/../lib/gcc/avr/4.3.3/avr6\libgcc.a(_unpack_sf.o)
                              c:/winavr-20100110/bin/../lib/gcc/avr/4.3.3/avr6\libgcc.a(_addsub_sf.o) (__unpack_f)
c:/winavr-20100110/bin/../lib/gcc/avr/4.3.3/avr6\libgcc.a(_fpcmp_parts_sf.o)
                              c:/winavr-20100110/bin/../lib/gcc/avr/4.3.3/avr6\libgcc.a(_gt_sf.o) (__fpcmp_parts_f)
c:/winavr-20100110/bin/../lib/gcc/avr/4.3.3/avr6\libgcc.a(_clz.o)
                              c:/winavr-20100110/bin/../lib/gcc/avr/4.3.3/avr6\libgcc.a(_clzsi2.o) (__clz_tab)
c:/winavr-20100110/bin/../lib/gcc/avr/4.3.3/../../../../avr/lib/avr6\libc.a(memcpy.o)
                              ./src/XNetProtocol.o (memcpy)
c:/winavr-20100110/bin/../lib/gcc/avr/4.3.3/../../../../avr/lib/avr6\libc.a(eewr_dword_atmega2560.o)
                              ./src/PLCS_Protocol.o (__eewr_dword_m2560)
c:/winavr-20100110/bin/../lib/gcc/avr/4.3.3/../../../../avr/lib/avr6\libc.a(eewr_word_atmega2560.o)
                              c:/winavr-20100110/bin/../lib/gcc/avr/4.3.3/../../../../avr/lib/avr6\libc.a(eewr_dword_atmega2560.o) (__eewr_word_m2560)
c:/winavr-20100110/bin/../lib/gcc/avr/4.3.3/../../../../avr/lib/avr6\libc.a(eewr_byte_atmega2560.o)
                              c:/winavr-20100110/bin/../lib/gcc/avr/4.3.3/../../../../avr/lib/avr6\libc.a(eewr_word_atmega2560.o) (__eewr_byte_m2560)

Allocating common symbols
Common symbol       size              file

debug_DebugInfo     0x8               ./src/PLCS_Protocol.o
SensorPacket        0x40              ./src/main.o
msgFromZigbee       0x40              ./src/main.o
tempBuffForDeviceInfo
                    0xff              ./src/DeviceInfo.o
Min                 0x1               ./src/main.o
tmp_CircuitInfo     0x1e0             ./src/DeviceInfo.o
tempBuffForSchedule
                    0xff              ./src/ScheduleTable.o
dimmerMappingTable  0xc8              ./src/DimmerProtocol.o
uart1_tx_buff       0x1               ./src/Uart.o
xcps_rx_packet_zigbee_0
                    0x40              ./src/Xcps.o
data1               0x1               ./src/Uart.o
tempBuffForDebug    0xa               ./src/debug.o
data2               0x1               ./src/Uart.o
defaultScheduleTable
                    0x1f0             ./src/DeviceInfo.o
Hour                0x1               ./src/main.o
status3             0x1               ./src/Uart.o
sendBuffData_1      0xc90             ./src/ZRMProtocol.o
deviceInfoTable     0x411             ./src/DeviceInfo.o
uart0_rx_buff       0x80              ./src/Uart.o
status2             0x1               ./src/Uart.o
xcps_tx_packet_zigbee_0
                    0x40              ./src/Xcps.o
uart3_rx_buff       0x80              ./src/Uart.o
tmp_PrevCircuitInfo
                    0x1e0             ./src/DeviceInfo.o
tmp_DevInfo_D       0xd               ./src/PLCS_Protocol.o
dimmerControlInfoList
                    0x119             ./src/DimmerProtocol.o
sendMessageList     0xc80             ./src/XNetProtocol.o
xcps_rx_packet_zigbee_1
                    0x40              ./src/Xcps.o
ctrl_Cmd            0x2               ./src/PLCS_Protocol.o
dev_Count           0x1               ./src/PLCS_Protocol.o
sendMPRMessageList  0x280             ./src/XNetProtocol.o
status1             0x1               ./src/Uart.o
uart0_tx_buff       0x1               ./src/Uart.o
tmp_BuffForRFUP     0x40              ./src/RFU_Protocol.o
sendBuffData_0      0xc90             ./src/ZRMProtocol.o
tmpBuffForDimmer    0x20              ./src/DimmerProtocol.o
tmp_Buff_MPR        0x40              ./src/MPRProtocol.o
tempBuffForPatternInfo
                    0xff              ./src/PatternBasedControl.o
xcps_rx_packet_rs485
                    0x40              ./src/Xcps.o
tmp_Buff            0x40              ./src/PLCS_Protocol.o
ZigbeePacket        0x40              ./src/main.o
data0               0x1               ./src/Uart.o
tempBuffForMappingInfo
                    0xff              ./src/MappingTable.o
messageLength       0x32              ./src/XNetProtocol.o
sensorMappingTable  0x8f7             ./src/DimmerProtocol.o
uart3_tx_buff       0x1               ./src/Uart.o
uart2_rx_buff       0x80              ./src/Uart.o
SSRTable            0x2               ./src/PLCS_Protocol.o
uart2_tx_buff       0x1               ./src/Uart.o
uart1_rx_buff       0x80              ./src/Uart.o
z_ieee_Id           0x4               ./src/PLCS_Protocol.o
timerCount          0x4               ./src/Timer.o
data3               0x1               ./src/Uart.o
scheduleTable_1     0x1f0             ./src/DeviceInfo.o
tmp_DevInfo_P       0x2               ./src/PLCS_Protocol.o
NowTime             0x1               ./src/main.o
zrmpInfo_0          0x6               ./src/DimmerProtocol.o
GatewayPacket       0x40              ./src/main.o
mprMessageLength    0xa               ./src/XNetProtocol.o
xcps_rx_packet_rs485ForMPR
                    0x40              ./src/Xcps.o
patternTable        0x150             ./src/PLCS_Protocol.o
device_Type         0x2               ./src/PLCS_Protocol.o
xcps_tx_packet_zigbee_1
                    0x40              ./src/Xcps.o
status0             0x1               ./src/Uart.o
timer_list          0x4b              ./src/Timer.o
scheduleTable_2     0x1f0             ./src/DeviceInfo.o
tmp_BuffForZRM      0x40              ./src/ZRMProtocol.o
MPRPacket           0x40              ./src/main.o
tmpBuffForMDP       0x40              ./src/DimmerProtocol.o

Memory Configuration

Name             Origin             Length             Attributes
text             0x00000000         0x00100000         xr
data             0x00800200         0x0000fe00         rw !x
eeprom           0x00810000         0x00010000         rw !x
fuse             0x00820000         0x00000400         rw !x
lock             0x00830000         0x00000400         rw !x
signature        0x00840000         0x00000400         rw !x
*default*        0x00000000         0xffffffff

Linker script and memory map

Address of section .data set to 0x800200
LOAD c:/winavr-20100110/bin/../lib/gcc/avr/4.3.3/../../../../avr/lib/avr6/crtm2560.o
Address of section .data set to 0x802200
                0x00807fff                __heap_end = 0x807fff
LOAD ./src/DeviceInfo.o
LOAD ./src/DimmerProtocol.o
LOAD ./src/Flash.o
LOAD ./src/MPRProtocol.o
LOAD ./src/MappingTable.o
LOAD ./src/PLCS_Protocol.o
LOAD ./src/PatternBasedControl.o
LOAD ./src/RFU_Protocol.o
LOAD ./src/SSRContol.o
LOAD ./src/ScheduleTable.o
LOAD ./src/Timer.o
LOAD ./src/Uart.o
LOAD ./src/XNetProtocol.o
LOAD ./src/Xcps.o
LOAD ./src/ZRMProtocol.o
LOAD ./src/debug.o
LOAD ./src/main.o
LOAD ./src/rotary.o
LOAD ./src/util.o
LOAD c:/winavr-20100110/bin/../lib/gcc/avr/4.3.3/avr6\libgcc.a
LOAD c:/winavr-20100110/bin/../lib/gcc/avr/4.3.3/../../../../avr/lib/avr6\libm.a
LOAD c:/winavr-20100110/bin/../lib/gcc/avr/4.3.3/avr6\libgcc.a
LOAD c:/winavr-20100110/bin/../lib/gcc/avr/4.3.3/../../../../avr/lib/avr6\libc.a
LOAD c:/winavr-20100110/bin/../lib/gcc/avr/4.3.3/avr6\libgcc.a

.hash
 *(.hash)

.dynsym
 *(.dynsym)

.dynstr
 *(.dynstr)

.gnu.version
 *(.gnu.version)

.gnu.version_d
 *(.gnu.version_d)

.gnu.version_r
 *(.gnu.version_r)

.rel.init
 *(.rel.init)

.rela.init
 *(.rela.init)

.rel.text
 *(.rel.text)
 *(.rel.text.*)
 *(.rel.gnu.linkonce.t*)

.rela.text
 *(.rela.text)
 *(.rela.text.*)
 *(.rela.gnu.linkonce.t*)

.rel.fini
 *(.rel.fini)

.rela.fini
 *(.rela.fini)

.rel.rodata
 *(.rel.rodata)
 *(.rel.rodata.*)
 *(.rel.gnu.linkonce.r*)

.rela.rodata
 *(.rela.rodata)
 *(.rela.rodata.*)
 *(.rela.gnu.linkonce.r*)

.rel.data
 *(.rel.data)
 *(.rel.data.*)
 *(.rel.gnu.linkonce.d*)

.rela.data
 *(.rela.data)
 *(.rela.data.*)
 *(.rela.gnu.linkonce.d*)

.rel.ctors
 *(.rel.ctors)

.rela.ctors
 *(.rela.ctors)

.rel.dtors
 *(.rel.dtors)

.rela.dtors
 *(.rela.dtors)

.rel.got
 *(.rel.got)

.rela.got
 *(.rela.got)

.rel.bss
 *(.rel.bss)

.rela.bss
 *(.rela.bss)

.rel.plt
 *(.rel.plt)

.rela.plt
 *(.rela.plt)

.text           0x00000000     0x8f58
 *(.vectors)
 .vectors       0x00000000       0xe4 c:/winavr-20100110/bin/../lib/gcc/avr/4.3.3/../../../../avr/lib/avr6/crtm2560.o
                0x00000000                __vectors
                0x00000000                __vector_default
 *(.vectors)
 *(.progmem.gcc*)
 *(.progmem*)
                0x000000e4                . = ALIGN (0x2)
                0x000000e4                __trampolines_start = .
 *(.trampolines)
 .trampolines   0x000000e4        0x0 linker stubs
 *(.trampolines*)
                0x000000e4                __trampolines_end = .
 *(.jumptables)
 *(.jumptables*)
 *(.lowtext)
 *(.lowtext*)
                0x000000e4                __ctors_start = .
 *(.ctors)
                0x000000e4                __ctors_end = .
                0x000000e4                __dtors_start = .
 *(.dtors)
                0x000000e4                __dtors_end = .
 SORT(*)(.ctors)
 SORT(*)(.dtors)
 *(.init0)
 .init0         0x000000e4        0x0 c:/winavr-20100110/bin/../lib/gcc/avr/4.3.3/../../../../avr/lib/avr6/crtm2560.o
                0x000000e4                __init
 *(.init0)
 *(.init1)
 .init1         0x000000e4        0xe ./src/main.o
                0x000000e4                xmem_enable
 *(.init1)
 *(.init2)
 .init2         0x000000f2       0x10 c:/winavr-20100110/bin/../lib/gcc/avr/4.3.3/../../../../avr/lib/avr6/crtm2560.o
 *(.init2)
 *(.init3)
 *(.init3)
 *(.init4)
 .init4         0x00000102       0x1a c:/winavr-20100110/bin/../lib/gcc/avr/4.3.3/../../../../avr/lib/avr6/crtm2560.o
                0x00000102                __do_copy_data
 .init4         0x0000011c       0x10 c:/winavr-20100110/bin/../lib/gcc/avr/4.3.3/avr6\libgcc.a(_clear_bss.o)
                0x0000011c                __do_clear_bss
 *(.init4)
 *(.init5)
 *(.init5)
 *(.init6)
 *(.init6)
 *(.init7)
 *(.init7)
 *(.init8)
 *(.init8)
 *(.init9)
 .init9         0x0000012c        0x8 c:/winavr-20100110/bin/../lib/gcc/avr/4.3.3/../../../../avr/lib/avr6/crtm2560.o
 *(.init9)
 *(.text)
 .text          0x00000134        0x4 c:/winavr-20100110/bin/../lib/gcc/avr/4.3.3/../../../../avr/lib/avr6/crtm2560.o
                0x00000134                __vector_22
                0x00000134                __vector_28
                0x00000134                __vector_1
                0x00000134                __vector_34
                0x00000134                __vector_24
                0x00000134                __vector_12
                0x00000134                __vector_46
                0x00000134                __bad_interrupt
                0x00000134                __vector_6
                0x00000134                __vector_31
                0x00000134                __vector_35
                0x00000134                __vector_39
                0x00000134                __vector_3
                0x00000134                __vector_23
                0x00000134                __vector_30
                0x00000134                __vector_45
                0x00000134                __vector_11
                0x00000134                __vector_13
                0x00000134                __vector_17
                0x00000134                __vector_19
                0x00000134                __vector_7
                0x00000134                __vector_49
                0x00000134                __vector_41
                0x00000134                __vector_43
                0x00000134                __vector_5
                0x00000134                __vector_33
                0x00000134                __vector_47
                0x00000134                __vector_4
                0x00000134                __vector_44
                0x00000134                __vector_9
                0x00000134                __vector_2
                0x00000134                __vector_21
                0x00000134                __vector_15
                0x00000134                __vector_29
                0x00000134                __vector_40
                0x00000134                __vector_8
                0x00000134                __vector_48
                0x00000134                __vector_14
                0x00000134                __vector_10
                0x00000134                __vector_50
                0x00000134                __vector_16
                0x00000134                __vector_18
                0x00000134                __vector_20
                0x00000134                __vector_42
 .text          0x00000138      0x69c ./src/DeviceInfo.o
                0x00000312                deviceInfo_IsUpdatedSSRInfo
                0x000002fc                deviceInfo_UpdateSSRInfo
                0x0000019c                addDeviceTable
                0x000006a8                ssrInfo_WriteToEEPRom
                0x000001f6                updateDeviceTable
                0x000004ec                ssrInfo_WriteToEEPRomOfIndex
                0x0000036a                initDeviceTable
                0x0000016e                isContainNodeOfId
                0x00000632                handleDeviceControl
                0x000002be                removeDeviceTable
                0x00000248                removeNode
                0x000002f6                countDevice
                0x000002c4                countDeviceTable
                0x00000138                findNodeById
 .text          0x000007d4      0x43a ./src/DimmerProtocol.o
                0x00000b1c                updateDimmerControlInfoList
                0x00000864                dimmer_DimmingConvert
                0x000007f6                plcs_GetDCPMessage
                0x00000abc                dimmer_control
                0x000007f0                initDimmerControlInfoList
                0x000008d0                dimmer_SendReqDimming
                0x000007d4                getSeqNumGeneratorForDimmer
                0x00000a58                MDP_SendDimmingReqToMDP
                0x000009e2                plcs_GetMDPMessage
 .text          0x00000c0e      0x4bc ./src/Flash.o
                0x00000ede                flash_writeUint32
                0x00000d1c                flash_bufferToMainMemory
                0x00000cb2                flash_bufferWrite
                0x00000c0e                flash_init
                0x00000c1a                clk
                0x00000ff4                flash_writeBytes
                0x00000e76                flash_readUint16
                0x00000da8                flash_bufferReadUint8
                0x000010a2                flash_readStatus
                0x00000dde                flash_readUint8
                0x00000f28                flash_readUint32
                0x00000c2c                flash_writeByteToSI
                0x00000c6c                flash_readByteFromSO
                0x00000d6c                flash_writeUint8
                0x00000e34                flash_writeUint16
                0x0000101c                flash_readBytes
 .text          0x000010ca       0xa2 ./src/MPRProtocol.o
                0x000010f4                plcs_NCP_AssignToken
                0x000010e6                mpr_ReleaseToken
                0x000010d0                mpr_HasToken
                0x00001154                mpr_AssignToken
                0x000010ca                mpr_GetAssignedTokenId
 .text          0x0000116c      0x72a ./src/MappingTable.o
                0x000012e0                addDimmerMappingTable
                0x00001380                findDimmerMappingInfoById
                0x0000118c                getSensorMappingInfoByIndex
                0x00001424                sensorMappingInfo_WriteAll
                0x0000177c                updateSensorMappingTableByCircuit
                0x000017d8                initMappingTable
                0x000013b4                dimmerMappingInfo_WriteAll
                0x00001290                getDimmerMappingTableSize
                0x000011d4                addSensorMappingTable
                0x000015ac                initDimmerMappingTable
                0x000012ac                getDimmerMappingInfoByIndex
                0x0000134c                findDimmerMappingInfoByPair
                0x000014c0                dimmerMappingInfo_WriteToEEPRom
                0x0000125e                findSensorMappingInfoById
                0x00001556                updateDimmerMappingTable
                0x00001632                sensorMappingInfo_WriteToEEPRom
                0x000016ec                updateSensorMappingTable
                0x0000116c                getSensorMappingTableSize
 .text          0x00001896     0x2d0a ./src/PLCS_Protocol.o
                0x00003c38                ncp_SendRegisterReqWithoutQueue
                0x00001b74                gcp_SetNoticeMode
                0x00002dac                plcs_GCP_HandleDimmerMappingSizeReq
                0x000040e0                ncp_ProcessRegisterReq
                0x0000226c                plcs_GCP_SendScheduleInfoRes
                0x00002c38                ncp_SendPingRes
                0x0000243c                plcs_GCP_HandleScheduleSizeReq
                0x00001e12                plcs_GCP_SendApplyingScheduleRes
                0x00001aa8                plcs_GetGCPMessage
                0x000019e2                plcs_GetNCPMessage
                0x00001b16                plcs_GetGCPResMessage
                0x0000408a                ncp_ProcessRegisterRes
                0x00003ca2                plcs_NCP_ProcessRegisterBroadcastReq
                0x00002fca                plcs_GCP_HandleSensorMappingInfoReq
                0x00001c30                plcs_GCP_HandleDebugLogLCReq
                0x000018be                plcs_NCP_ProcessAssignToken
                0x00001d0a                plcs_GCP_SendAddScheduleListRes
                0x00002df8                plcs_GCP_SendDimmerMappingInfoRes
                0x0000314c                plcs_GCP_HandleAddScheduleListReq
                0x00001fd8                plcs_GCP_SendMappingDimmerListRes
                0x000023b4                plcs_GCP_SendScheduleSizeRes
                0x00002cc0                ncp_SendRegisterReq
                0x000039ae                plcs_GCP_HandleControlSensorReq
                0x00004146                NCP_ProcessMessage
                0x00002fee                handleSwitchEvent
                0x00002544                plcs_GCP_SendSensorMappingSizeRes
                0x00001c88                plcs_GCP_SendNoticeEvent
                0x00001f54                plcs_GCP_SendResetDimmerMappingRes
                0x00003038                plcs_GCP_HandleControlCircuitReq
                0x00002ea0                plcs_GCP_HandleDimmerMappingInfoReq
                0x0000354a                plcs_GCP_HandleMappingDimmerReq
                0x000018cc                handleSensorEvent
                0x000037b2                plcs_GCP_HandleMappingSensorReq
                0x000018b4                hasToken
                0x00001e96                plcs_GCP_HandleApplyingScheduleReq
                0x00002ec4                plcs_GCP_HandleSensorMappingSizeReq
                0x000019c6                getSeqNumGenerator
                0x000018ae                ncp_ConnState
                0x00003298                plcs_GCP_HandleAddScheduleReq
                0x00003b32                registerAllNodetoServer
                0x00002948                plcs_GCP_SendNumOfDeviceRes
                0x000030a2                plcs_GCP_HandleDebugLogLCReset
                0x00001b6e                gcp_GetNoticeMode
                0x00002f10                plcs_GCP_SendSensorMappingInfoRes
                0x00002924                plcs_GCP_HandleDeviceInfoReq
                0x000030a8                plcs_GCP_HandleResetScheduleReq
                0x00003348                plcs_GCP_HandleResetDimmerMappingReq
                0x0000199e                plcs_GCP_HandleNoticeEventNeighbor
                0x00003882                plcs_GCP_HandleUpdatePowermeterReq
                0x0000238a                plcs_GCP_HandleScheduleInfoReq
                0x000029cc                plcs_GCP_HandleNumOfDeviceReq
                0x00002a26                plcs_GCP_HandlePowermeterReq
                0x00003b78                ncp_ProcessPingRes
                0x00001976                plcs_GCP_HandleSensorEvent
                0x000041c2                plcs_GCP_ProcessMessage
                0x00003920                plcs_GCP_HandleUpdatePowermeterLCReq
                0x0000277c                plcs_GCP_SendStateInfoRes
                0x000020e0                plcs_GCP_SendResetSensorMappingRes
                0x000018c6                plcs_NCP_ProcessReleaseTokenRes
                0x000033a2                plcs_GCP_HandleMappingDimmerListReq
                0x00003a34                npc_SendRegisterNodeReq
                0x00003bc0                ncp_ProcessPingReq
                0x000024c0                plcs_GCP_SendDimmerMappingSizeRes
                0x00002d3a                ncp_SendPingReq
                0x000035f2                plcs_GCP_HandleResetSensorMappingReq
                0x00002a8c                plcs_GCP_HandleControlRebootReq
                0x000026f8                plcs_GCP_SendControlCircuitRes
                0x00002b3a                plcs_NCP_Send_NCPReqReleaseToken
                0x00003a12                plcs_GCP_HandleControlNoticeModeReq
                0x00001896                npc_ProcessSendTimeInfo
                0x0000205c                plcs_GCP_SendMappingDimmerRes
                0x00001d8e                plcs_GCP_SendAddScheduleRes
                0x00001ed0                plcs_GCP_SendResetScheduleRes
                0x0000363c                plcs_GCP_HandleMappingSensorListReq
                0x00002ad2                plcs_GCP_HandleStateInfoReq
                0x000021e8                plcs_GCP_SendMappingSensorRes
                0x00001b7a                plcs_GCP_SendDebugLogLCRes
                0x00002832                plcs_GCP_SendDeviceInfoRes
                0x00001a50                plcs_GetNCPResMessage
                0x00002bb2                ncp_SendRegisterRes
                0x00002674                plcs_GCP_SendControlSensorRes
                0x00002164                plcs_GCP_SendMappingSensorListRes
                0x000025c8                plcs_GCP_SendPowermeterRes
 .text          0x000045a0      0x29e ./src/PatternBasedControl.o
                0x00004702                patternTable_WriteToEEPRom
                0x000047ec                addPatternInfoToTable
                0x0000464a                initPatternTable
                0x000047d6                resetPatternTable
                0x000045a0                getCtrlModeOnTime
 .text          0x0000483e      0x72e ./src/RFU_Protocol.o
                0x00004ba8                plcs_RFUP_SetReadyToUpgradeFirmware
                0x00004e14                plcs_RFUP_HandleUpgradeFirmwareReq
                0x00004ec0                plcs_RFUP_ProcessMessage
                0x00004bb4                plcs_RFUP_SendDataRes
                0x00004c44                plcs_RFUP_SendUpgradeFirmwareRes
                0x00004922                plcs_RFUP_CheckDownloadedFirmwareAt
                0x00004840                getSeqNumGeneratorForRFUP
                0x0000485c                plcs_GetRFUPMessage
                0x000049f6                plcs_RFUP_CheckDownloadedFirmware
                0x000048ca                plcs_GetRFUPResMessage
                0x0000483e                plcs_RFUP_Reboot
                0x00004ab6                plcs_RFUP_WriteFirmwareData
                0x00004cd4                plcs_RFUP_HandleSendDataReq
 .text          0x00004f6c       0xc8 ./src/SSRContol.o
                0x00004fb4                SSR_init
                0x00004f6c                GetSSRState
                0x00005000                SSR_Off_Index
                0x00004f82                SSR_On_Index
 .text          0x00005034      0x6da ./src/ScheduleTable.o
                0x00005102                isContainScheduleAt
                0x00005422                schedule_WriteToEEPRomAll
                0x000056e0                resetScheduleTimeTable
                0x00005034                getControlModeAt
                0x00005290                initScheduleTimeTable
                0x000055e6                schedule_WriteToEEPRom
                0x0000551c                addScheduleList
                0x00005178                addSchedule
 .text          0x0000570e      0x152 ./src/Timer.o
                0x000057da                __vector_32
                0x00005738                timer_get
                0x00005792                timer_init
                0x0000570e                timer_set
                0x00005772                timer_clear
 .text          0x00005860      0x73c ./src/Uart.o
                0x00005bdc                __vector_38
                0x00005dc0                USART2_Receive
                0x00005ab4                USART0_Receive
                0x00005920                USART1_TxEnable
                0x00005e80                __vector_55
                0x00005942                USART2_TxDisable
                0x0000596e                USART3_TxDisable
                0x00005984                __vector_25
                0x00005958                USART3_TxEnable
                0x00005e16                __vector_54
                0x00005e02                USART2_Transmit
                0x00005ee8                __vector_56
                0x00005f46                USART3_Receive
                0x00005a56                __vector_27
                0x0000592c                USART2_TxEnable
                0x00005cfa                __vector_52
                0x00005b74                __vector_37
                0x00005f88                USART3_Transmit
                0x00005c90                __vector_51
                0x00005c3a                USART1_Receive
                0x00005b0a                __vector_36
                0x000059ee                __vector_26
                0x00005c7c                USART1_Transmit
                0x00005af6                USART0_Transmit
                0x00005d62                __vector_53
                0x00005860                InitUART
                0x00005926                USART1_TxDisable
 .text          0x00005f9c      0x446 ./src/XNetProtocol.o
                0x00006080                sendServerMessage
                0x00005fb2                getMPRMessageListSize
                0x00005fce                sendStackedServerMessage
                0x00006240                XNetCommandFromGateway
                0x00005fc8                sendServerMessageWithoutQueue
                0x000061d0                XNetCommandFromMPR
                0x00005f9c                getMessageListSize
                0x000060e6                sendMessage
                0x00006304                XNetHandlerFromZigbee
                0x0000601a                sendMPRMessage
                0x00006184                sendStackedMPRMessage
 .text          0x000063e2      0x962 ./src/Xcps.o
                0x00006760                xcps_recv_rs485
                0x0000641e                xcps_init_rs485ForMPR
                0x000068f8                xcps_recv_rs485ForMPR
                0x00006a90                xcps_send_rs485ForMPR
                0x0000662a                xcps_recv_zigbee_1
                0x00006c70                xcps_send_zigbee_1
                0x0000640a                xcps_init_rs485
                0x00006432                xcps_send_zigbee_0
                0x000063f6                xcps_init_zigbee_1
                0x00006b80                xcps_send_rs485
                0x000064f4                xcps_recv_zigbee_0
                0x000063e2                xcps_init_zigbee_0
 .text          0x00006d44      0x6ac ./src/ZRMProtocol.o
                0x00006f38                ZRMsendPing
                0x00006d44                getZRMMessageListSize
                0x00006eb6                ZRMSendSetPanID
                0x00007048                addMessageToSendBuff
                0x00006f0e                ZRMsendConfig
                0x00006de0                ZRM_getTranlatedCode
                0x00006e56                ZRMSendSetPreconfig
                0x00006d78                getLastResult
                0x00006ee4                ZRMSendReset
                0x00007114                sendToZigbee
                0x0000727a                sendQueueingMessage
                0x00006e86                ZRMSendSetChannel
                0x00006d6a                getZigbeeState
                0x00006d86                ZRM_getOriginalCode
                0x0000723a                getMessageFromSendBuff
                0x00006f5c                ZRMPMessage
                0x00007166                getMessageFromSendBuffWORemove
 .text          0x000073f0      0x116 ./src/debug.o
                0x000073f0                debug_ReadLog
                0x000074b6                debug_UpdateReboot
                0x000074de                debug_Reset
                0x00007450                debug_UpdateLog
                0x000074a0                debug_UpdateConnection
 .text          0x00007506      0xc00 ./src/main.o
                0x00007794                DimmerControl_Task
                0x00007568                WDT_INIT
                0x00007652                sendSensorToken
                0x000076b6                Token_Task
                0x0000766c                SensorToken_Task
                0x000078f2                MPRRx_Task
                0x00007778                NoticeMode_Task
                0x00007528                resetZigbee0
                0x00007912                GatewayTx_Task
                0x00007586                StandAlone_Task
                0x00007f6e                main
                0x00007506                InitMCU
                0x00007734                Led_Task
                0x000078c0                MPRTx_Task
                0x0000788e                ZigbeeSend_Task
                0x00007ba4                ControlTask
                0x000079ea                GatewayRx_Task
                0x00007a0a                Zigbee_Task
                0x00007540                resetZigbee1
 .text          0x00008106       0x34 ./src/rotary.o
                0x00008106                initRotary
                0x00008128                rotary_GetValue
 .text          0x0000813a       0xe0 ./src/util.o
                0x0000813a                toUint16
                0x00008198                toUint8
                0x000081f2                toHexCharacterOfLowerByte
 .text          0x0000821a        0x0 c:/winavr-20100110/bin/../lib/gcc/avr/4.3.3/avr6\libgcc.a(_udivmodqi4.o)
 .text          0x0000821a        0x0 c:/winavr-20100110/bin/../lib/gcc/avr/4.3.3/avr6\libgcc.a(_udivmodhi4.o)
 .text          0x0000821a        0x0 c:/winavr-20100110/bin/../lib/gcc/avr/4.3.3/avr6\libgcc.a(_exit.o)
 .text          0x0000821a        0x0 c:/winavr-20100110/bin/../lib/gcc/avr/4.3.3/avr6\libgcc.a(_clear_bss.o)
 .text          0x0000821a       0x58 c:/winavr-20100110/bin/../lib/gcc/avr/4.3.3/avr6\libgcc.a(_fixunssfsi.o)
                0x0000821a                __fixunssfsi
 .text          0x00008272      0x354 c:/winavr-20100110/bin/../lib/gcc/avr/4.3.3/avr6\libgcc.a(_addsub_sf.o)
                0x0000850a                __subsf3
                0x0000856c                __addsf3
 .text          0x000085c6      0x1f4 c:/winavr-20100110/bin/../lib/gcc/avr/4.3.3/avr6\libgcc.a(_mul_sf.o)
                0x000085c6                __mulsf3
 .text          0x000087ba       0x60 c:/winavr-20100110/bin/../lib/gcc/avr/4.3.3/avr6\libgcc.a(_gt_sf.o)
                0x000087ba                __gtsf2
 .text          0x0000881a       0x60 c:/winavr-20100110/bin/../lib/gcc/avr/4.3.3/avr6\libgcc.a(_ge_sf.o)
                0x0000881a                __gesf2
 .text          0x0000887a       0x60 c:/winavr-20100110/bin/../lib/gcc/avr/4.3.3/avr6\libgcc.a(_lt_sf.o)
                0x0000887a                __ltsf2
 .text          0x000088da       0xa8 c:/winavr-20100110/bin/../lib/gcc/avr/4.3.3/avr6\libgcc.a(_sf_to_si.o)
                0x000088da                __fixsfsi
 .text          0x00008982        0x0 c:/winavr-20100110/bin/../lib/gcc/avr/4.3.3/avr6\libgcc.a(_thenan_sf.o)
 .text          0x00008982       0xf2 c:/winavr-20100110/bin/../lib/gcc/avr/4.3.3/avr6\libgcc.a(_usi_to_sf.o)
                0x00008982                __floatunsisf
 .text          0x00008a74        0x0 c:/winavr-20100110/bin/../lib/gcc/avr/4.3.3/avr6\libgcc.a(_prologue.o)
 .text          0x00008a74        0x0 c:/winavr-20100110/bin/../lib/gcc/avr/4.3.3/avr6\libgcc.a(_epilogue.o)
 .text          0x00008a74       0x9e c:/winavr-20100110/bin/../lib/gcc/avr/4.3.3/avr6\libgcc.a(_clzsi2.o)
                0x00008a74                __clzsi2
 .text          0x00008b12      0x1aa c:/winavr-20100110/bin/../lib/gcc/avr/4.3.3/avr6\libgcc.a(_pack_sf.o)
                0x00008b12                __pack_f
 .text          0x00008cbc       0xf0 c:/winavr-20100110/bin/../lib/gcc/avr/4.3.3/avr6\libgcc.a(_unpack_sf.o)
                0x00008cbc                __unpack_f
 .text          0x00008dac       0xb2 c:/winavr-20100110/bin/../lib/gcc/avr/4.3.3/avr6\libgcc.a(_fpcmp_parts_sf.o)
                0x00008dac                __fpcmp_parts_f
 .text          0x00008e5e        0x0 c:/winavr-20100110/bin/../lib/gcc/avr/4.3.3/avr6\libgcc.a(_clz.o)
 .text          0x00008e5e        0x0 c:/winavr-20100110/bin/../lib/gcc/avr/4.3.3/../../../../avr/lib/avr6\libc.a(memcpy.o)
 .text          0x00008e5e        0x0 c:/winavr-20100110/bin/../lib/gcc/avr/4.3.3/../../../../avr/lib/avr6\libc.a(eewr_dword_atmega2560.o)
 .text          0x00008e5e        0x0 c:/winavr-20100110/bin/../lib/gcc/avr/4.3.3/../../../../avr/lib/avr6\libc.a(eewr_word_atmega2560.o)
 .text          0x00008e5e        0x0 c:/winavr-20100110/bin/../lib/gcc/avr/4.3.3/../../../../avr/lib/avr6\libc.a(eewr_byte_atmega2560.o)
                0x00008e5e                . = ALIGN (0x2)
 *(.text.*)
 .text.libgcc   0x00008e5e       0x18 c:/winavr-20100110/bin/../lib/gcc/avr/4.3.3/avr6\libgcc.a(_udivmodqi4.o)
                0x00008e5e                __udivmodqi4
 .text.libgcc   0x00008e76       0x28 c:/winavr-20100110/bin/../lib/gcc/avr/4.3.3/avr6\libgcc.a(_udivmodhi4.o)
                0x00008e76                __udivmodhi4
 .text.libgcc   0x00008e9e        0x0 c:/winavr-20100110/bin/../lib/gcc/avr/4.3.3/avr6\libgcc.a(_exit.o)
 .text.libgcc   0x00008e9e        0x0 c:/winavr-20100110/bin/../lib/gcc/avr/4.3.3/avr6\libgcc.a(_clear_bss.o)
 .text.libgcc   0x00008e9e       0x38 c:/winavr-20100110/bin/../lib/gcc/avr/4.3.3/avr6\libgcc.a(_prologue.o)
                0x00008e9e                __prologue_saves__
 .text.libgcc   0x00008ed6       0x36 c:/winavr-20100110/bin/../lib/gcc/avr/4.3.3/avr6\libgcc.a(_epilogue.o)
                0x00008ed6                __epilogue_restores__
 .text.avr-libc
                0x00008f0c       0x12 c:/winavr-20100110/bin/../lib/gcc/avr/4.3.3/../../../../avr/lib/avr6\libc.a(memcpy.o)
                0x00008f0c                memcpy
 .text.avr-libc
                0x00008f1e       0x10 c:/winavr-20100110/bin/../lib/gcc/avr/4.3.3/../../../../avr/lib/avr6\libc.a(eewr_dword_atmega2560.o)
                0x00008f1e                __eewr_dword_m2560
                0x00008f1e                __eewr_float_m2560
 .text.avr-libc
                0x00008f2e        0xa c:/winavr-20100110/bin/../lib/gcc/avr/4.3.3/../../../../avr/lib/avr6\libc.a(eewr_word_atmega2560.o)
                0x00008f2e                __eewr_word_m2560
 .text.avr-libc
                0x00008f38       0x1c c:/winavr-20100110/bin/../lib/gcc/avr/4.3.3/../../../../avr/lib/avr6\libc.a(eewr_byte_atmega2560.o)
                0x00008f3a                __eewr_r18_m2560
                0x00008f38                __eewr_byte_m2560
                0x00008f54                . = ALIGN (0x2)
 *(.fini9)
 .fini9         0x00008f54        0x0 c:/winavr-20100110/bin/../lib/gcc/avr/4.3.3/avr6\libgcc.a(_exit.o)
                0x00008f54                exit
                0x00008f54                _exit
 *(.fini9)
 *(.fini8)
 *(.fini8)
 *(.fini7)
 *(.fini7)
 *(.fini6)
 *(.fini6)
 *(.fini5)
 *(.fini5)
 *(.fini4)
 *(.fini4)
 *(.fini3)
 *(.fini3)
 *(.fini2)
 *(.fini2)
 *(.fini1)
 *(.fini1)
 *(.fini0)
 .fini0         0x00008f54        0x4 c:/winavr-20100110/bin/../lib/gcc/avr/4.3.3/avr6\libgcc.a(_exit.o)
 *(.fini0)
                0x00008f58                _etext = .

.data           0x00802200      0x10e load address 0x00008f58
                0x00802200                PROVIDE (__data_start, .)
 *(.data)
 .data          0x00802200        0x0 c:/winavr-20100110/bin/../lib/gcc/avr/4.3.3/../../../../avr/lib/avr6/crtm2560.o
 .data          0x00802200        0x0 ./src/DeviceInfo.o
 .data          0x00802200        0x0 ./src/DimmerProtocol.o
 .data          0x00802200        0x0 ./src/Flash.o
 .data          0x00802200        0x2 ./src/MPRProtocol.o
                0x00802200                mprToken
 .data          0x00802202        0x0 ./src/MappingTable.o
 .data          0x00802202        0x1 ./src/PLCS_Protocol.o
                0x00802202                g_NoticeMode
 .data          0x00802203        0x0 ./src/PatternBasedControl.o
 .data          0x00802203        0x0 ./src/RFU_Protocol.o
 .data          0x00802203        0x0 ./src/SSRContol.o
 .data          0x00802203        0x0 ./src/ScheduleTable.o
 .data          0x00802203        0x0 ./src/Timer.o
 .data          0x00802203        0x0 ./src/Uart.o
 .data          0x00802203        0x0 ./src/XNetProtocol.o
 .data          0x00802203        0x0 ./src/Xcps.o
 .data          0x00802203        0x0 ./src/ZRMProtocol.o
 .data          0x00802203        0x0 ./src/debug.o
 .data          0x00802203        0x2 ./src/main.o
 .data          0x00802205        0x0 ./src/rotary.o
 .data          0x00802205        0x0 ./src/util.o
 .data          0x00802205        0x0 c:/winavr-20100110/bin/../lib/gcc/avr/4.3.3/avr6\libgcc.a(_udivmodqi4.o)
 .data          0x00802205        0x0 c:/winavr-20100110/bin/../lib/gcc/avr/4.3.3/avr6\libgcc.a(_udivmodhi4.o)
 .data          0x00802205        0x0 c:/winavr-20100110/bin/../lib/gcc/avr/4.3.3/avr6\libgcc.a(_exit.o)
 .data          0x00802205        0x0 c:/winavr-20100110/bin/../lib/gcc/avr/4.3.3/avr6\libgcc.a(_clear_bss.o)
 .data          0x00802205        0x0 c:/winavr-20100110/bin/../lib/gcc/avr/4.3.3/avr6\libgcc.a(_fixunssfsi.o)
 .data          0x00802205        0x0 c:/winavr-20100110/bin/../lib/gcc/avr/4.3.3/avr6\libgcc.a(_addsub_sf.o)
 .data          0x00802205        0x0 c:/winavr-20100110/bin/../lib/gcc/avr/4.3.3/avr6\libgcc.a(_mul_sf.o)
 .data          0x00802205        0x0 c:/winavr-20100110/bin/../lib/gcc/avr/4.3.3/avr6\libgcc.a(_gt_sf.o)
 .data          0x00802205        0x0 c:/winavr-20100110/bin/../lib/gcc/avr/4.3.3/avr6\libgcc.a(_ge_sf.o)
 .data          0x00802205        0x0 c:/winavr-20100110/bin/../lib/gcc/avr/4.3.3/avr6\libgcc.a(_lt_sf.o)
 .data          0x00802205        0x0 c:/winavr-20100110/bin/../lib/gcc/avr/4.3.3/avr6\libgcc.a(_sf_to_si.o)
 .data          0x00802205        0x8 c:/winavr-20100110/bin/../lib/gcc/avr/4.3.3/avr6\libgcc.a(_thenan_sf.o)
                0x00802205                __thenan_sf
 .data          0x0080220d        0x0 c:/winavr-20100110/bin/../lib/gcc/avr/4.3.3/avr6\libgcc.a(_usi_to_sf.o)
 .data          0x0080220d        0x0 c:/winavr-20100110/bin/../lib/gcc/avr/4.3.3/avr6\libgcc.a(_prologue.o)
 .data          0x0080220d        0x0 c:/winavr-20100110/bin/../lib/gcc/avr/4.3.3/avr6\libgcc.a(_epilogue.o)
 .data          0x0080220d        0x0 c:/winavr-20100110/bin/../lib/gcc/avr/4.3.3/avr6\libgcc.a(_clzsi2.o)
 .data          0x0080220d        0x0 c:/winavr-20100110/bin/../lib/gcc/avr/4.3.3/avr6\libgcc.a(_pack_sf.o)
 .data          0x0080220d        0x0 c:/winavr-20100110/bin/../lib/gcc/avr/4.3.3/avr6\libgcc.a(_unpack_sf.o)
 .data          0x0080220d        0x0 c:/winavr-20100110/bin/../lib/gcc/avr/4.3.3/avr6\libgcc.a(_fpcmp_parts_sf.o)
 .data          0x0080220d      0x100 c:/winavr-20100110/bin/../lib/gcc/avr/4.3.3/avr6\libgcc.a(_clz.o)
                0x0080220d                __clz_tab
 .data          0x0080230d        0x0 c:/winavr-20100110/bin/../lib/gcc/avr/4.3.3/../../../../avr/lib/avr6\libc.a(memcpy.o)
 .data          0x0080230d        0x0 c:/winavr-20100110/bin/../lib/gcc/avr/4.3.3/../../../../avr/lib/avr6\libc.a(eewr_dword_atmega2560.o)
 .data          0x0080230d        0x0 c:/winavr-20100110/bin/../lib/gcc/avr/4.3.3/../../../../avr/lib/avr6\libc.a(eewr_word_atmega2560.o)
 .data          0x0080230d        0x0 c:/winavr-20100110/bin/../lib/gcc/avr/4.3.3/../../../../avr/lib/avr6\libc.a(eewr_byte_atmega2560.o)
 *(.data*)
 *(.rodata)
 *(.rodata*)
 *(.gnu.linkonce.d*)
                0x0080230e                . = ALIGN (0x2)
 *fill*         0x0080230d        0x1 00
                0x0080230e                _edata = .
                0x0080230e                PROVIDE (__data_end, .)

.bss            0x0080230e     0x4dd7
                0x0080230e                PROVIDE (__bss_start, .)
 *(.bss)
 .bss           0x0080230e        0x0 c:/winavr-20100110/bin/../lib/gcc/avr/4.3.3/../../../../avr/lib/avr6/crtm2560.o
 .bss           0x0080230e        0x0 ./src/DeviceInfo.o
 .bss           0x0080230e        0x2 ./src/DimmerProtocol.o
 .bss           0x00802310        0x0 ./src/Flash.o
 .bss           0x00802310        0x0 ./src/MPRProtocol.o
 .bss           0x00802310        0x0 ./src/MappingTable.o
 .bss           0x00802310        0x4 ./src/PLCS_Protocol.o
                0x00802310                ncp_NetState
                0x00802312                seqNumGenerator
                0x00802311                token
 .bss           0x00802314        0x0 ./src/PatternBasedControl.o
 .bss           0x00802314        0x2 ./src/RFU_Protocol.o
                0x00802314                seqNumGeneratorForRFUP
 .bss           0x00802316        0x0 ./src/SSRContol.o
 .bss           0x00802316        0x0 ./src/ScheduleTable.o
 .bss           0x00802316        0x0 ./src/Timer.o
 .bss           0x00802316       0x18 ./src/Uart.o
                0x00802324                uart2_rx_len
                0x0080231c                uart1_rx_front
                0x0080232d                uart3_tx_len
                0x00802325                uart2_tx_front
                0x00802319                uart0_tx_front
                0x0080231f                uart1_tx_front
                0x00802317                uart0_rx_tail
                0x0080231d                uart1_rx_tail
                0x0080232c                uart3_tx_tail
                0x0080231a                uart0_tx_tail
                0x00802320                uart1_tx_tail
                0x00802327                uart2_tx_len
                0x0080232b                uart3_tx_front
                0x00802326                uart2_tx_tail
                0x0080232a                uart3_rx_len
                0x00802322                uart2_rx_front
                0x00802329                uart3_rx_tail
                0x00802321                uart1_tx_len
                0x00802316                uart0_rx_front
                0x00802323                uart2_rx_tail
                0x0080231e                uart1_rx_len
                0x00802318                uart0_rx_len
                0x0080231b                uart0_tx_len
                0x00802328                uart3_rx_front
 .bss           0x0080232e        0x4 ./src/XNetProtocol.o
                0x0080232f                messageList_Head
                0x00802330                mprMessageList_Tail
                0x0080232e                messageList_Tail
                0x00802331                mprMessageList_Head
 .bss           0x00802332       0x20 ./src/Xcps.o
                0x0080233c                xcps_pdu_len_rs485ForMPR
                0x00802336                xcps_rxlen_rs485
                0x00802334                xcps_rxlen_zigbee_1
                0x0080233a                xcps_rxlen_rs485ForMPR
                0x00802338                xcps_pdu_len_rs485
                0x00802332                xcps_rxlen_zigbee_0
 .bss           0x00802352       0x9a ./src/ZRMProtocol.o
                0x00802356                lastResult_0
                0x00802355                sendBuffForZRM_Tail_1
                0x00802352                sendBuffForZRM_Head_0
                0x00802354                sendBuffForZRM_Head_1
                0x00802353                sendBuffForZRM_Tail_0
                0x00802357                lastResult_1
 .bss           0x008023ec        0x0 ./src/debug.o
 .bss           0x008023ec       0x28 ./src/main.o
                0x008023ec                applyingSchedule
                0x008023ed                g_PowerMeterValue
 .bss           0x00802414        0x0 ./src/rotary.o
 .bss           0x00802414        0x0 ./src/util.o
 .bss           0x00802414        0x0 c:/winavr-20100110/bin/../lib/gcc/avr/4.3.3/avr6\libgcc.a(_udivmodqi4.o)
 .bss           0x00802414        0x0 c:/winavr-20100110/bin/../lib/gcc/avr/4.3.3/avr6\libgcc.a(_udivmodhi4.o)
 .bss           0x00802414        0x0 c:/winavr-20100110/bin/../lib/gcc/avr/4.3.3/avr6\libgcc.a(_exit.o)
 .bss           0x00802414        0x0 c:/winavr-20100110/bin/../lib/gcc/avr/4.3.3/avr6\libgcc.a(_clear_bss.o)
 .bss           0x00802414        0x0 c:/winavr-20100110/bin/../lib/gcc/avr/4.3.3/avr6\libgcc.a(_fixunssfsi.o)
 .bss           0x00802414        0x0 c:/winavr-20100110/bin/../lib/gcc/avr/4.3.3/avr6\libgcc.a(_addsub_sf.o)
 .bss           0x00802414        0x0 c:/winavr-20100110/bin/../lib/gcc/avr/4.3.3/avr6\libgcc.a(_mul_sf.o)
 .bss           0x00802414        0x0 c:/winavr-20100110/bin/../lib/gcc/avr/4.3.3/avr6\libgcc.a(_gt_sf.o)
 .bss           0x00802414        0x0 c:/winavr-20100110/bin/../lib/gcc/avr/4.3.3/avr6\libgcc.a(_ge_sf.o)
 .bss           0x00802414        0x0 c:/winavr-20100110/bin/../lib/gcc/avr/4.3.3/avr6\libgcc.a(_lt_sf.o)
 .bss           0x00802414        0x0 c:/winavr-20100110/bin/../lib/gcc/avr/4.3.3/avr6\libgcc.a(_sf_to_si.o)
 .bss           0x00802414        0x0 c:/winavr-20100110/bin/../lib/gcc/avr/4.3.3/avr6\libgcc.a(_thenan_sf.o)
 .bss           0x00802414        0x0 c:/winavr-20100110/bin/../lib/gcc/avr/4.3.3/avr6\libgcc.a(_usi_to_sf.o)
 .bss           0x00802414        0x0 c:/winavr-20100110/bin/../lib/gcc/avr/4.3.3/avr6\libgcc.a(_prologue.o)
 .bss           0x00802414        0x0 c:/winavr-20100110/bin/../lib/gcc/avr/4.3.3/avr6\libgcc.a(_epilogue.o)
 .bss           0x00802414        0x0 c:/winavr-20100110/bin/../lib/gcc/avr/4.3.3/avr6\libgcc.a(_clzsi2.o)
 .bss           0x00802414        0x0 c:/winavr-20100110/bin/../lib/gcc/avr/4.3.3/avr6\libgcc.a(_pack_sf.o)
 .bss           0x00802414        0x0 c:/winavr-20100110/bin/../lib/gcc/avr/4.3.3/avr6\libgcc.a(_unpack_sf.o)
 .bss           0x00802414        0x0 c:/winavr-20100110/bin/../lib/gcc/avr/4.3.3/avr6\libgcc.a(_fpcmp_parts_sf.o)
 .bss           0x00802414        0x0 c:/winavr-20100110/bin/../lib/gcc/avr/4.3.3/avr6\libgcc.a(_clz.o)
 .bss           0x00802414        0x0 c:/winavr-20100110/bin/../lib/gcc/avr/4.3.3/../../../../avr/lib/avr6\libc.a(memcpy.o)
 .bss           0x00802414        0x0 c:/winavr-20100110/bin/../lib/gcc/avr/4.3.3/../../../../avr/lib/avr6\libc.a(eewr_dword_atmega2560.o)
 .bss           0x00802414        0x0 c:/winavr-20100110/bin/../lib/gcc/avr/4.3.3/../../../../avr/lib/avr6\libc.a(eewr_word_atmega2560.o)
 .bss           0x00802414        0x0 c:/winavr-20100110/bin/../lib/gcc/avr/4.3.3/../../../../avr/lib/avr6\libc.a(eewr_byte_atmega2560.o)
 *(.bss*)
 *(COMMON)
 COMMON         0x00802414      0xea0 ./src/DeviceInfo.o
                0x00802414                tempBuffForDeviceInfo
                0x00802513                tmp_CircuitInfo
                0x008026f3                defaultScheduleTable
                0x008028e3                deviceInfoTable
                0x00802cf4                tmp_PrevCircuitInfo
                0x00802ed4                scheduleTable_1
                0x008030c4                scheduleTable_2
 COMMON         0x008032b4      0xb3e ./src/DimmerProtocol.o
                0x008032b4                dimmerMappingTable
                0x0080337c                dimmerControlInfoList
                0x00803495                tmpBuffForDimmer
                0x008034b5                sensorMappingTable
                0x00803dac                zrmpInfo_0
                0x00803db2                tmpBuffForMDP
 COMMON         0x00803df2       0x40 ./src/MPRProtocol.o
                0x00803df2                tmp_Buff_MPR
 COMMON         0x00803e32       0xff ./src/MappingTable.o
                0x00803e32                tempBuffForMappingInfo
 COMMON         0x00803f31      0x1b2 ./src/PLCS_Protocol.o
                0x00803f31                debug_DebugInfo
                0x00803f39                tmp_DevInfo_D
                0x00803f46                ctrl_Cmd
                0x00803f48                dev_Count
                0x00803f49                tmp_Buff
                0x00803f89                SSRTable
                0x00803f8b                z_ieee_Id
                0x00803f8f                tmp_DevInfo_P
                0x00803f91                patternTable
                0x008040e1                device_Type
 COMMON         0x008040e3       0xff ./src/PatternBasedControl.o
                0x008040e3                tempBuffForPatternInfo
 COMMON         0x008041e2       0x40 ./src/RFU_Protocol.o
                0x008041e2                tmp_BuffForRFUP
 COMMON         0x00804222       0xff ./src/ScheduleTable.o
                0x00804222                tempBuffForSchedule
 COMMON         0x00804321       0x4f ./src/Timer.o
                0x00804321                timerCount
                0x00804325                timer_list
 COMMON         0x00804370      0x20c ./src/Uart.o
                0x00804370                uart1_tx_buff
                0x00804371                data1
                0x00804372                data2
                0x00804373                status3
                0x00804374                uart0_rx_buff
                0x008043f4                status2
                0x008043f5                uart3_rx_buff
                0x00804475                status1
                0x00804476                uart0_tx_buff
                0x00804477                data0
                0x00804478                uart3_tx_buff
                0x00804479                uart2_rx_buff
                0x008044f9                uart2_tx_buff
                0x008044fa                uart1_rx_buff
                0x0080457a                data3
                0x0080457b                status0
 COMMON         0x0080457c      0xf3c ./src/XNetProtocol.o
                0x0080457c                sendMessageList
                0x008051fc                sendMPRMessageList
                0x0080547c                messageLength
                0x008054ae                mprMessageLength
 COMMON         0x008054b8      0x180 ./src/Xcps.o
                0x008054b8                xcps_rx_packet_zigbee_0
                0x008054f8                xcps_tx_packet_zigbee_0
                0x00805538                xcps_rx_packet_zigbee_1
                0x00805578                xcps_rx_packet_rs485
                0x008055b8                xcps_rx_packet_rs485ForMPR
                0x008055f8                xcps_tx_packet_zigbee_1
 COMMON         0x00805638     0x1960 ./src/ZRMProtocol.o
                0x00805638                sendBuffData_1
                0x008062c8                sendBuffData_0
                0x00806f58                tmp_BuffForZRM
 COMMON         0x00806f98        0xa ./src/debug.o
                0x00806f98                tempBuffForDebug
 COMMON         0x00806fa2      0x143 ./src/main.o
                0x00806fa2                SensorPacket
                0x00806fe2                msgFromZigbee
                0x00807022                Min
                0x00807023                Hour
                0x00807024                ZigbeePacket
                0x00807064                NowTime
                0x00807065                GatewayPacket
                0x008070a5                MPRPacket
                0x008070e5                PROVIDE (__bss_end, .)
                0x00008f58                __data_load_start = LOADADDR (.data)
                0x00009066                __data_load_end = (__data_load_start + SIZEOF (.data))

.noinit         0x008070e5        0x0
                0x008070e5                PROVIDE (__noinit_start, .)
 *(.noinit*)
                0x008070e5                PROVIDE (__noinit_end, .)
                0x008070e5                _end = .
                0x008070e5                PROVIDE (__heap_start, .)

.eeprom         0x00810000      0xb13
 *(.eeprom*)
 .eeprom        0x00810000      0x9c3 ./src/MappingTable.o
                0x00810000                ee_SensorMappingInfo
                0x008108f7                ee_SensorMappingTableSize
                0x008109c1                ee_DimmerMappingTableSize
                0x008108f9                ee_DimmerSSRMappingInfo
 .eeprom        0x008109c3      0x150 ./src/PatternBasedControl.o
                0x008109d3                ee_PatternInfo
                0x008109c3                ee_PatternInfoTableSize
                0x00810b13                __eeprom_end = .

.fuse
 *(.fuse)
 *(.lfuse)
 *(.hfuse)
 *(.efuse)

.lock
 *(.lock*)

.signature
 *(.signature*)

.stab           0x00000000    0x10aac
 *(.stab)
 .stab          0x00000000      0xf78 ./src/DeviceInfo.o
 .stab          0x00000f78      0x9d8 ./src/DimmerProtocol.o
                                0xd8c (size before relaxing)
 .stab          0x00001950      0xd2c ./src/Flash.o
                                0xfc0 (size before relaxing)
 .stab          0x0000267c      0x36c ./src/MPRProtocol.o
                                0x768 (size before relaxing)
 .stab          0x000029e8      0xf00 ./src/MappingTable.o
                               0x126c (size before relaxing)
 .stab          0x000038e8     0x5304 ./src/PLCS_Protocol.o
                               0x5760 (size before relaxing)
 .stab          0x00008bec      0x618 ./src/PatternBasedControl.o
                                0x9cc (size before relaxing)
 .stab          0x00009204      0xda4 ./src/RFU_Protocol.o
                               0x11a0 (size before relaxing)
 .stab          0x00009fa8      0x348 ./src/SSRContol.o
                                0x678 (size before relaxing)
 .stab          0x0000a2f0      0xb4c ./src/ScheduleTable.o
                                0xeb8 (size before relaxing)
 .stab          0x0000ae3c      0x3a8 ./src/Timer.o
                                0x66c (size before relaxing)
 .stab          0x0000b1e4     0x1038 ./src/Uart.o
                               0x1344 (size before relaxing)
 .stab          0x0000c21c      0xa98 ./src/XNetProtocol.o
                                0xea0 (size before relaxing)
 .stab          0x0000ccb4      0xf48 ./src/Xcps.o
                               0x1254 (size before relaxing)
 .stab          0x0000dbfc      0xee8 ./src/ZRMProtocol.o
                               0x1278 (size before relaxing)
 .stab          0x0000eae4      0x390 ./src/debug.o
                                0x654 (size before relaxing)
 .stab          0x0000ee74     0x1740 ./src/main.o
                               0x1c08 (size before relaxing)
 .stab          0x000105b4      0x1e0 ./src/rotary.o
                                0x4a4 (size before relaxing)
 .stab          0x00010794      0x318 ./src/util.o
                                0x5dc (size before relaxing)

.stabstr        0x00000000     0x6e4b
 *(.stabstr)
 .stabstr       0x00000000     0x6e4b ./src/DeviceInfo.o

.stab.excl
 *(.stab.excl)

.stab.exclstr
 *(.stab.exclstr)

.stab.index
 *(.stab.index)

.stab.indexstr
 *(.stab.indexstr)

.comment
 *(.comment)

.debug
 *(.debug)

.line
 *(.line)

.debug_srcinfo
 *(.debug_srcinfo)

.debug_sfnames
 *(.debug_sfnames)

.debug_aranges  0x00000000      0x180
 *(.debug_aranges)
 .debug_aranges
                0x00000000       0x20 c:/winavr-20100110/bin/../lib/gcc/avr/4.3.3/avr6\libgcc.a(_fixunssfsi.o)
 .debug_aranges
                0x00000020       0x20 c:/winavr-20100110/bin/../lib/gcc/avr/4.3.3/avr6\libgcc.a(_addsub_sf.o)
 .debug_aranges
                0x00000040       0x20 c:/winavr-20100110/bin/../lib/gcc/avr/4.3.3/avr6\libgcc.a(_mul_sf.o)
 .debug_aranges
                0x00000060       0x20 c:/winavr-20100110/bin/../lib/gcc/avr/4.3.3/avr6\libgcc.a(_gt_sf.o)
 .debug_aranges
                0x00000080       0x20 c:/winavr-20100110/bin/../lib/gcc/avr/4.3.3/avr6\libgcc.a(_ge_sf.o)
 .debug_aranges
                0x000000a0       0x20 c:/winavr-20100110/bin/../lib/gcc/avr/4.3.3/avr6\libgcc.a(_lt_sf.o)
 .debug_aranges
                0x000000c0       0x20 c:/winavr-20100110/bin/../lib/gcc/avr/4.3.3/avr6\libgcc.a(_sf_to_si.o)
 .debug_aranges
                0x000000e0       0x20 c:/winavr-20100110/bin/../lib/gcc/avr/4.3.3/avr6\libgcc.a(_usi_to_sf.o)
 .debug_aranges
                0x00000100       0x20 c:/winavr-20100110/bin/../lib/gcc/avr/4.3.3/avr6\libgcc.a(_clzsi2.o)
 .debug_aranges
                0x00000120       0x20 c:/winavr-20100110/bin/../lib/gcc/avr/4.3.3/avr6\libgcc.a(_pack_sf.o)
 .debug_aranges
                0x00000140       0x20 c:/winavr-20100110/bin/../lib/gcc/avr/4.3.3/avr6\libgcc.a(_unpack_sf.o)
 .debug_aranges
                0x00000160       0x20 c:/winavr-20100110/bin/../lib/gcc/avr/4.3.3/avr6\libgcc.a(_fpcmp_parts_sf.o)

.debug_pubnames
                0x00000000      0x1d3
 *(.debug_pubnames)
 .debug_pubnames
                0x00000000       0x23 c:/winavr-20100110/bin/../lib/gcc/avr/4.3.3/avr6\libgcc.a(_fixunssfsi.o)
 .debug_pubnames
                0x00000023       0x2c c:/winavr-20100110/bin/../lib/gcc/avr/4.3.3/avr6\libgcc.a(_addsub_sf.o)
 .debug_pubnames
                0x0000004f       0x1f c:/winavr-20100110/bin/../lib/gcc/avr/4.3.3/avr6\libgcc.a(_mul_sf.o)
 .debug_pubnames
                0x0000006e       0x1e c:/winavr-20100110/bin/../lib/gcc/avr/4.3.3/avr6\libgcc.a(_gt_sf.o)
 .debug_pubnames
                0x0000008c       0x1e c:/winavr-20100110/bin/../lib/gcc/avr/4.3.3/avr6\libgcc.a(_ge_sf.o)
 .debug_pubnames
                0x000000aa       0x1e c:/winavr-20100110/bin/../lib/gcc/avr/4.3.3/avr6\libgcc.a(_lt_sf.o)
 .debug_pubnames
                0x000000c8       0x20 c:/winavr-20100110/bin/../lib/gcc/avr/4.3.3/avr6\libgcc.a(_sf_to_si.o)
 .debug_pubnames
                0x000000e8       0x22 c:/winavr-20100110/bin/../lib/gcc/avr/4.3.3/avr6\libgcc.a(_thenan_sf.o)
 .debug_pubnames
                0x0000010a       0x24 c:/winavr-20100110/bin/../lib/gcc/avr/4.3.3/avr6\libgcc.a(_usi_to_sf.o)
 .debug_pubnames
                0x0000012e       0x1f c:/winavr-20100110/bin/../lib/gcc/avr/4.3.3/avr6\libgcc.a(_clzsi2.o)
 .debug_pubnames
                0x0000014d       0x1f c:/winavr-20100110/bin/../lib/gcc/avr/4.3.3/avr6\libgcc.a(_pack_sf.o)
 .debug_pubnames
                0x0000016c       0x21 c:/winavr-20100110/bin/../lib/gcc/avr/4.3.3/avr6\libgcc.a(_unpack_sf.o)
 .debug_pubnames
                0x0000018d       0x26 c:/winavr-20100110/bin/../lib/gcc/avr/4.3.3/avr6\libgcc.a(_fpcmp_parts_sf.o)
 .debug_pubnames
                0x000001b3       0x20 c:/winavr-20100110/bin/../lib/gcc/avr/4.3.3/avr6\libgcc.a(_clz.o)

.debug_info     0x00000000     0x200f
 *(.debug_info)
 .debug_info    0x00000000       0xb1 c:/winavr-20100110/bin/../lib/gcc/avr/4.3.3/avr6\libgcc.a(_fixunssfsi.o)
 .debug_info    0x000000b1      0x47a c:/winavr-20100110/bin/../lib/gcc/avr/4.3.3/avr6\libgcc.a(_addsub_sf.o)
 .debug_info    0x0000052b      0x485 c:/winavr-20100110/bin/../lib/gcc/avr/4.3.3/avr6\libgcc.a(_mul_sf.o)
 .debug_info    0x000009b0      0x27f c:/winavr-20100110/bin/../lib/gcc/avr/4.3.3/avr6\libgcc.a(_gt_sf.o)
 .debug_info    0x00000c2f      0x27f c:/winavr-20100110/bin/../lib/gcc/avr/4.3.3/avr6\libgcc.a(_ge_sf.o)
 .debug_info    0x00000eae      0x27f c:/winavr-20100110/bin/../lib/gcc/avr/4.3.3/avr6\libgcc.a(_lt_sf.o)
 .debug_info    0x0000112d      0x2b0 c:/winavr-20100110/bin/../lib/gcc/avr/4.3.3/avr6\libgcc.a(_sf_to_si.o)
 .debug_info    0x000013dd      0x12c c:/winavr-20100110/bin/../lib/gcc/avr/4.3.3/avr6\libgcc.a(_thenan_sf.o)
 .debug_info    0x00001509      0x206 c:/winavr-20100110/bin/../lib/gcc/avr/4.3.3/avr6\libgcc.a(_usi_to_sf.o)
 .debug_info    0x0000170f      0x117 c:/winavr-20100110/bin/../lib/gcc/avr/4.3.3/avr6\libgcc.a(_clzsi2.o)
 .debug_info    0x00001826      0x2df c:/winavr-20100110/bin/../lib/gcc/avr/4.3.3/avr6\libgcc.a(_pack_sf.o)
 .debug_info    0x00001b05      0x251 c:/winavr-20100110/bin/../lib/gcc/avr/4.3.3/avr6\libgcc.a(_unpack_sf.o)
 .debug_info    0x00001d56      0x210 c:/winavr-20100110/bin/../lib/gcc/avr/4.3.3/avr6\libgcc.a(_fpcmp_parts_sf.o)
 .debug_info    0x00001f66       0xa9 c:/winavr-20100110/bin/../lib/gcc/avr/4.3.3/avr6\libgcc.a(_clz.o)
 *(.gnu.linkonce.wi.*)

.debug_abbrev   0x00000000     0x1170
 *(.debug_abbrev)
 .debug_abbrev  0x00000000       0x5d c:/winavr-20100110/bin/../lib/gcc/avr/4.3.3/avr6\libgcc.a(_fixunssfsi.o)
 .debug_abbrev  0x0000005d      0x1ea c:/winavr-20100110/bin/../lib/gcc/avr/4.3.3/avr6\libgcc.a(_addsub_sf.o)
 .debug_abbrev  0x00000247      0x21b c:/winavr-20100110/bin/../lib/gcc/avr/4.3.3/avr6\libgcc.a(_mul_sf.o)
 .debug_abbrev  0x00000462      0x15a c:/winavr-20100110/bin/../lib/gcc/avr/4.3.3/avr6\libgcc.a(_gt_sf.o)
 .debug_abbrev  0x000005bc      0x15a c:/winavr-20100110/bin/../lib/gcc/avr/4.3.3/avr6\libgcc.a(_ge_sf.o)
 .debug_abbrev  0x00000716      0x15a c:/winavr-20100110/bin/../lib/gcc/avr/4.3.3/avr6\libgcc.a(_lt_sf.o)
 .debug_abbrev  0x00000870      0x17f c:/winavr-20100110/bin/../lib/gcc/avr/4.3.3/avr6\libgcc.a(_sf_to_si.o)
 .debug_abbrev  0x000009ef       0xad c:/winavr-20100110/bin/../lib/gcc/avr/4.3.3/avr6\libgcc.a(_thenan_sf.o)
 .debug_abbrev  0x00000a9c      0x157 c:/winavr-20100110/bin/../lib/gcc/avr/4.3.3/avr6\libgcc.a(_usi_to_sf.o)
 .debug_abbrev  0x00000bf3       0xc4 c:/winavr-20100110/bin/../lib/gcc/avr/4.3.3/avr6\libgcc.a(_clzsi2.o)
 .debug_abbrev  0x00000cb7      0x1c0 c:/winavr-20100110/bin/../lib/gcc/avr/4.3.3/avr6\libgcc.a(_pack_sf.o)
 .debug_abbrev  0x00000e77      0x154 c:/winavr-20100110/bin/../lib/gcc/avr/4.3.3/avr6\libgcc.a(_unpack_sf.o)
 .debug_abbrev  0x00000fcb      0x13b c:/winavr-20100110/bin/../lib/gcc/avr/4.3.3/avr6\libgcc.a(_fpcmp_parts_sf.o)
 .debug_abbrev  0x00001106       0x6a c:/winavr-20100110/bin/../lib/gcc/avr/4.3.3/avr6\libgcc.a(_clz.o)

.debug_line     0x00000000     0x1001
 *(.debug_line)
 .debug_line    0x00000000       0xa7 c:/winavr-20100110/bin/../lib/gcc/avr/4.3.3/avr6\libgcc.a(_fixunssfsi.o)
 .debug_line    0x000000a7      0x2af c:/winavr-20100110/bin/../lib/gcc/avr/4.3.3/avr6\libgcc.a(_addsub_sf.o)
 .debug_line    0x00000356      0x239 c:/winavr-20100110/bin/../lib/gcc/avr/4.3.3/avr6\libgcc.a(_mul_sf.o)
 .debug_line    0x0000058f       0xd3 c:/winavr-20100110/bin/../lib/gcc/avr/4.3.3/avr6\libgcc.a(_gt_sf.o)
 .debug_line    0x00000662       0xd3 c:/winavr-20100110/bin/../lib/gcc/avr/4.3.3/avr6\libgcc.a(_ge_sf.o)
 .debug_line    0x00000735       0xd3 c:/winavr-20100110/bin/../lib/gcc/avr/4.3.3/avr6\libgcc.a(_lt_sf.o)
 .debug_line    0x00000808      0x109 c:/winavr-20100110/bin/../lib/gcc/avr/4.3.3/avr6\libgcc.a(_sf_to_si.o)
 .debug_line    0x00000911       0x90 c:/winavr-20100110/bin/../lib/gcc/avr/4.3.3/avr6\libgcc.a(_thenan_sf.o)
 .debug_line    0x000009a1      0x133 c:/winavr-20100110/bin/../lib/gcc/avr/4.3.3/avr6\libgcc.a(_usi_to_sf.o)
 .debug_line    0x00000ad4       0xa5 c:/winavr-20100110/bin/../lib/gcc/avr/4.3.3/avr6\libgcc.a(_clzsi2.o)
 .debug_line    0x00000b79      0x18a c:/winavr-20100110/bin/../lib/gcc/avr/4.3.3/avr6\libgcc.a(_pack_sf.o)
 .debug_line    0x00000d03      0x14b c:/winavr-20100110/bin/../lib/gcc/avr/4.3.3/avr6\libgcc.a(_unpack_sf.o)
 .debug_line    0x00000e4e      0x137 c:/winavr-20100110/bin/../lib/gcc/avr/4.3.3/avr6\libgcc.a(_fpcmp_parts_sf.o)
 .debug_line    0x00000f85       0x7c c:/winavr-20100110/bin/../lib/gcc/avr/4.3.3/avr6\libgcc.a(_clz.o)

.debug_frame    0x00000000      0x1a0
 *(.debug_frame)
 .debug_frame   0x00000000       0x20 c:/winavr-20100110/bin/../lib/gcc/avr/4.3.3/avr6\libgcc.a(_fixunssfsi.o)
 .debug_frame   0x00000020       0x40 c:/winavr-20100110/bin/../lib/gcc/avr/4.3.3/avr6\libgcc.a(_addsub_sf.o)
 .debug_frame   0x00000060       0x20 c:/winavr-20100110/bin/../lib/gcc/avr/4.3.3/avr6\libgcc.a(_mul_sf.o)
 .debug_frame   0x00000080       0x20 c:/winavr-20100110/bin/../lib/gcc/avr/4.3.3/avr6\libgcc.a(_gt_sf.o)
 .debug_frame   0x000000a0       0x20 c:/winavr-20100110/bin/../lib/gcc/avr/4.3.3/avr6\libgcc.a(_ge_sf.o)
 .debug_frame   0x000000c0       0x20 c:/winavr-20100110/bin/../lib/gcc/avr/4.3.3/avr6\libgcc.a(_lt_sf.o)
 .debug_frame   0x000000e0       0x20 c:/winavr-20100110/bin/../lib/gcc/avr/4.3.3/avr6\libgcc.a(_sf_to_si.o)
 .debug_frame   0x00000100       0x20 c:/winavr-20100110/bin/../lib/gcc/avr/4.3.3/avr6\libgcc.a(_usi_to_sf.o)
 .debug_frame   0x00000120       0x20 c:/winavr-20100110/bin/../lib/gcc/avr/4.3.3/avr6\libgcc.a(_clzsi2.o)
 .debug_frame   0x00000140       0x20 c:/winavr-20100110/bin/../lib/gcc/avr/4.3.3/avr6\libgcc.a(_pack_sf.o)
 .debug_frame   0x00000160       0x20 c:/winavr-20100110/bin/../lib/gcc/avr/4.3.3/avr6\libgcc.a(_unpack_sf.o)
 .debug_frame   0x00000180       0x20 c:/winavr-20100110/bin/../lib/gcc/avr/4.3.3/avr6\libgcc.a(_fpcmp_parts_sf.o)

.debug_str      0x00000000      0x2c1
 *(.debug_str)
 .debug_str     0x00000000       0xbf c:/winavr-20100110/bin/../lib/gcc/avr/4.3.3/avr6\libgcc.a(_fixunssfsi.o)
                                 0xfe (size before relaxing)
 .debug_str     0x000000bf      0x14d c:/winavr-20100110/bin/../lib/gcc/avr/4.3.3/avr6\libgcc.a(_addsub_sf.o)
                                0x206 (size before relaxing)
 .debug_str     0x0000020c       0x27 c:/winavr-20100110/bin/../lib/gcc/avr/4.3.3/avr6\libgcc.a(_mul_sf.o)
                                0x1bf (size before relaxing)
 .debug_str     0x00000233        0x8 c:/winavr-20100110/bin/../lib/gcc/avr/4.3.3/avr6\libgcc.a(_gt_sf.o)
                                0x195 (size before relaxing)
 .debug_str     0x0000023b        0x8 c:/winavr-20100110/bin/../lib/gcc/avr/4.3.3/avr6\libgcc.a(_ge_sf.o)
                                0x195 (size before relaxing)
 .debug_str     0x00000243        0x8 c:/winavr-20100110/bin/../lib/gcc/avr/4.3.3/avr6\libgcc.a(_lt_sf.o)
                                0x195 (size before relaxing)
 .debug_str     0x0000024b        0xa c:/winavr-20100110/bin/../lib/gcc/avr/4.3.3/avr6\libgcc.a(_sf_to_si.o)
                                0x19e (size before relaxing)
 .debug_str     0x00000000      0x103 c:/winavr-20100110/bin/../lib/gcc/avr/4.3.3/avr6\libgcc.a(_thenan_sf.o)
 .debug_str     0x00000255       0x21 c:/winavr-20100110/bin/../lib/gcc/avr/4.3.3/avr6\libgcc.a(_usi_to_sf.o)
                                0x177 (size before relaxing)
 .debug_str     0x00000276       0x20 c:/winavr-20100110/bin/../lib/gcc/avr/4.3.3/avr6\libgcc.a(_clzsi2.o)
                                0x111 (size before relaxing)
 .debug_str     0x00000296       0x10 c:/winavr-20100110/bin/../lib/gcc/avr/4.3.3/avr6\libgcc.a(_pack_sf.o)
                                0x19d (size before relaxing)
 .debug_str     0x000002a6        0xb c:/winavr-20100110/bin/../lib/gcc/avr/4.3.3/avr6\libgcc.a(_unpack_sf.o)
                                0x17f (size before relaxing)
 .debug_str     0x000002b1       0x10 c:/winavr-20100110/bin/../lib/gcc/avr/4.3.3/avr6\libgcc.a(_fpcmp_parts_sf.o)
                                0x163 (size before relaxing)
 .debug_str     0x00000000       0xf4 c:/winavr-20100110/bin/../lib/gcc/avr/4.3.3/avr6\libgcc.a(_clz.o)

.debug_loc      0x00000000      0x8ae
 *(.debug_loc)
 .debug_loc     0x00000000       0x34 c:/winavr-20100110/bin/../lib/gcc/avr/4.3.3/avr6\libgcc.a(_fixunssfsi.o)
 .debug_loc     0x00000034      0x32a c:/winavr-20100110/bin/../lib/gcc/avr/4.3.3/avr6\libgcc.a(_addsub_sf.o)
 .debug_loc     0x0000035e      0x104 c:/winavr-20100110/bin/../lib/gcc/avr/4.3.3/avr6\libgcc.a(_mul_sf.o)
 .debug_loc     0x00000462       0x3c c:/winavr-20100110/bin/../lib/gcc/avr/4.3.3/avr6\libgcc.a(_gt_sf.o)
 .debug_loc     0x0000049e       0x3c c:/winavr-20100110/bin/../lib/gcc/avr/4.3.3/avr6\libgcc.a(_ge_sf.o)
 .debug_loc     0x000004da       0x3c c:/winavr-20100110/bin/../lib/gcc/avr/4.3.3/avr6\libgcc.a(_lt_sf.o)
 .debug_loc     0x00000516       0x7e c:/winavr-20100110/bin/../lib/gcc/avr/4.3.3/avr6\libgcc.a(_sf_to_si.o)
 .debug_loc     0x00000594       0x4c c:/winavr-20100110/bin/../lib/gcc/avr/4.3.3/avr6\libgcc.a(_usi_to_sf.o)
 .debug_loc     0x000005e0       0x94 c:/winavr-20100110/bin/../lib/gcc/avr/4.3.3/avr6\libgcc.a(_clzsi2.o)
 .debug_loc     0x00000674      0x13e c:/winavr-20100110/bin/../lib/gcc/avr/4.3.3/avr6\libgcc.a(_pack_sf.o)
 .debug_loc     0x000007b2       0xac c:/winavr-20100110/bin/../lib/gcc/avr/4.3.3/avr6\libgcc.a(_unpack_sf.o)
 .debug_loc     0x0000085e       0x50 c:/winavr-20100110/bin/../lib/gcc/avr/4.3.3/avr6\libgcc.a(_fpcmp_parts_sf.o)

.debug_macinfo
 *(.debug_macinfo)
OUTPUT(LC-200_STANDALONE.elf elf32-avr)
LOAD linker stubs

.debug_ranges   0x00000000       0x50
 .debug_ranges  0x00000000       0x50 c:/winavr-20100110/bin/../lib/gcc/avr/4.3.3/avr6\libgcc.a(_mul_sf.o)

Cross Reference Table

Symbol                                            File
ControlTask                                       ./src/main.o
DimmerControl_Task                                ./src/main.o
GatewayPacket                                     ./src/main.o
GatewayRx_Task                                    ./src/main.o
GatewayTx_Task                                    ./src/main.o
GetSSRState                                       ./src/SSRContol.o
Hour                                              ./src/main.o
                                                  ./src/debug.o
                                                  ./src/PLCS_Protocol.o
InitMCU                                           ./src/main.o
InitUART                                          ./src/Uart.o
                                                  ./src/main.o
Led_Task                                          ./src/main.o
MDP_SendDimmingReqToMDP                           ./src/DimmerProtocol.o
MPRPacket                                         ./src/main.o
MPRRx_Task                                        ./src/main.o
MPRTx_Task                                        ./src/main.o
Min                                               ./src/main.o
                                                  ./src/debug.o
                                                  ./src/PLCS_Protocol.o
NCP_ProcessMessage                                ./src/PLCS_Protocol.o
                                                  ./src/XNetProtocol.o
NoticeMode_Task                                   ./src/main.o
NowTime                                           ./src/main.o
SSRTable                                          ./src/PLCS_Protocol.o
SSR_Off_Index                                     ./src/SSRContol.o
                                                  ./src/main.o
SSR_On_Index                                      ./src/SSRContol.o
                                                  ./src/main.o
SSR_init                                          ./src/SSRContol.o
SensorPacket                                      ./src/main.o
SensorToken_Task                                  ./src/main.o
StandAlone_Task                                   ./src/main.o
Token_Task                                        ./src/main.o
USART0_Receive                                    ./src/Uart.o
                                                  ./src/main.o
USART0_Transmit                                   ./src/Uart.o
                                                  ./src/main.o
USART1_Receive                                    ./src/Uart.o
                                                  ./src/main.o
USART1_Transmit                                   ./src/Uart.o
                                                  ./src/main.o
USART1_TxDisable                                  ./src/Uart.o
                                                  ./src/Xcps.o
USART1_TxEnable                                   ./src/Uart.o
                                                  ./src/Xcps.o
USART2_Receive                                    ./src/Uart.o
                                                  ./src/main.o
USART2_Transmit                                   ./src/Uart.o
                                                  ./src/main.o
USART2_TxDisable                                  ./src/Uart.o
                                                  ./src/Xcps.o
USART2_TxEnable                                   ./src/Uart.o
                                                  ./src/Xcps.o
USART3_Receive                                    ./src/Uart.o
                                                  ./src/main.o
USART3_Transmit                                   ./src/Uart.o
                                                  ./src/main.o
USART3_TxDisable                                  ./src/Uart.o
USART3_TxEnable                                   ./src/Uart.o
                                                  ./src/Xcps.o
WDT_INIT                                          ./src/main.o
XNetCommandFromGateway                            ./src/XNetProtocol.o
                                                  ./src/main.o
XNetCommandFromMPR                                ./src/XNetProtocol.o
                                                  ./src/main.o
XNetHandlerFromZigbee                             ./src/XNetProtocol.o
                                                  ./src/main.o
ZRMPMessage                                       ./src/ZRMProtocol.o
                                                  ./src/main.o
ZRMSendReset                                      ./src/ZRMProtocol.o
ZRMSendSetChannel                                 ./src/ZRMProtocol.o
ZRMSendSetPanID                                   ./src/ZRMProtocol.o
ZRMSendSetPreconfig                               ./src/ZRMProtocol.o
                                                  ./src/main.o
ZRM_getOriginalCode                               ./src/ZRMProtocol.o
                                                  ./src/main.o
ZRM_getTranlatedCode                              ./src/ZRMProtocol.o
ZRMsendConfig                                     ./src/ZRMProtocol.o
ZRMsendPing                                       ./src/ZRMProtocol.o
                                                  ./src/main.o
ZigbeePacket                                      ./src/main.o
ZigbeeSend_Task                                   ./src/main.o
Zigbee_Task                                       ./src/main.o
__addsf3                                          c:/winavr-20100110/bin/../lib/gcc/avr/4.3.3/avr6\libgcc.a(_addsub_sf.o)
                                                  ./src/PLCS_Protocol.o
__bad_interrupt                                   c:/winavr-20100110/bin/../lib/gcc/avr/4.3.3/../../../../avr/lib/avr6/crtm2560.o
__bss_end                                         c:/winavr-20100110/bin/../lib/gcc/avr/4.3.3/avr6\libgcc.a(_clear_bss.o)
__bss_start                                       c:/winavr-20100110/bin/../lib/gcc/avr/4.3.3/avr6\libgcc.a(_clear_bss.o)
__clz_tab                                         c:/winavr-20100110/bin/../lib/gcc/avr/4.3.3/avr6\libgcc.a(_clz.o)
                                                  c:/winavr-20100110/bin/../lib/gcc/avr/4.3.3/avr6\libgcc.a(_clzsi2.o)
__clzsi2                                          c:/winavr-20100110/bin/../lib/gcc/avr/4.3.3/avr6\libgcc.a(_clzsi2.o)
                                                  c:/winavr-20100110/bin/../lib/gcc/avr/4.3.3/avr6\libgcc.a(_usi_to_sf.o)
__data_end                                        c:/winavr-20100110/bin/../lib/gcc/avr/4.3.3/../../../../avr/lib/avr6/crtm2560.o
__data_load_start                                 c:/winavr-20100110/bin/../lib/gcc/avr/4.3.3/../../../../avr/lib/avr6/crtm2560.o
__data_start                                      c:/winavr-20100110/bin/../lib/gcc/avr/4.3.3/../../../../avr/lib/avr6/crtm2560.o
__do_clear_bss                                    c:/winavr-20100110/bin/../lib/gcc/avr/4.3.3/avr6\libgcc.a(_clear_bss.o)
                                                  ./src/main.o
                                                  ./src/debug.o
                                                  ./src/ZRMProtocol.o
                                                  ./src/Xcps.o
                                                  ./src/XNetProtocol.o
                                                  ./src/Uart.o
                                                  ./src/Timer.o
                                                  ./src/ScheduleTable.o
                                                  ./src/SSRContol.o
                                                  ./src/RFU_Protocol.o
                                                  ./src/PatternBasedControl.o
                                                  ./src/PLCS_Protocol.o
                                                  ./src/MappingTable.o
                                                  ./src/MPRProtocol.o
                                                  ./src/DimmerProtocol.o
                                                  ./src/DeviceInfo.o
__do_copy_data                                    c:/winavr-20100110/bin/../lib/gcc/avr/4.3.3/../../../../avr/lib/avr6/crtm2560.o
                                                  c:/winavr-20100110/bin/../lib/gcc/avr/4.3.3/avr6\libgcc.a(_clz.o)
                                                  c:/winavr-20100110/bin/../lib/gcc/avr/4.3.3/avr6\libgcc.a(_thenan_sf.o)
                                                  ./src/main.o
                                                  ./src/PLCS_Protocol.o
                                                  ./src/MPRProtocol.o
__eewr_byte_m2560                                 c:/winavr-20100110/bin/../lib/gcc/avr/4.3.3/../../../../avr/lib/avr6\libc.a(eewr_byte_atmega2560.o)
                                                  c:/winavr-20100110/bin/../lib/gcc/avr/4.3.3/../../../../avr/lib/avr6\libc.a(eewr_word_atmega2560.o)
__eewr_dword_m2560                                c:/winavr-20100110/bin/../lib/gcc/avr/4.3.3/../../../../avr/lib/avr6\libc.a(eewr_dword_atmega2560.o)
                                                  ./src/PLCS_Protocol.o
__eewr_float_m2560                                c:/winavr-20100110/bin/../lib/gcc/avr/4.3.3/../../../../avr/lib/avr6\libc.a(eewr_dword_atmega2560.o)
__eewr_r18_m2560                                  c:/winavr-20100110/bin/../lib/gcc/avr/4.3.3/../../../../avr/lib/avr6\libc.a(eewr_byte_atmega2560.o)
                                                  c:/winavr-20100110/bin/../lib/gcc/avr/4.3.3/../../../../avr/lib/avr6\libc.a(eewr_word_atmega2560.o)
                                                  c:/winavr-20100110/bin/../lib/gcc/avr/4.3.3/../../../../avr/lib/avr6\libc.a(eewr_dword_atmega2560.o)
__eewr_word_m2560                                 c:/winavr-20100110/bin/../lib/gcc/avr/4.3.3/../../../../avr/lib/avr6\libc.a(eewr_word_atmega2560.o)
                                                  c:/winavr-20100110/bin/../lib/gcc/avr/4.3.3/../../../../avr/lib/avr6\libc.a(eewr_dword_atmega2560.o)
__epilogue_restores__                             c:/winavr-20100110/bin/../lib/gcc/avr/4.3.3/avr6\libgcc.a(_epilogue.o)
                                                  c:/winavr-20100110/bin/../lib/gcc/avr/4.3.3/avr6\libgcc.a(_usi_to_sf.o)
                                                  c:/winavr-20100110/bin/../lib/gcc/avr/4.3.3/avr6\libgcc.a(_sf_to_si.o)
                                                  c:/winavr-20100110/bin/../lib/gcc/avr/4.3.3/avr6\libgcc.a(_lt_sf.o)
                                                  c:/winavr-20100110/bin/../lib/gcc/avr/4.3.3/avr6\libgcc.a(_ge_sf.o)
                                                  c:/winavr-20100110/bin/../lib/gcc/avr/4.3.3/avr6\libgcc.a(_gt_sf.o)
                                                  c:/winavr-20100110/bin/../lib/gcc/avr/4.3.3/avr6\libgcc.a(_mul_sf.o)
                                                  c:/winavr-20100110/bin/../lib/gcc/avr/4.3.3/avr6\libgcc.a(_addsub_sf.o)
__fixsfsi                                         c:/winavr-20100110/bin/../lib/gcc/avr/4.3.3/avr6\libgcc.a(_sf_to_si.o)
                                                  c:/winavr-20100110/bin/../lib/gcc/avr/4.3.3/avr6\libgcc.a(_fixunssfsi.o)
__fixunssfsi                                      c:/winavr-20100110/bin/../lib/gcc/avr/4.3.3/avr6\libgcc.a(_fixunssfsi.o)
                                                  ./src/PLCS_Protocol.o
__floatunsisf                                     c:/winavr-20100110/bin/../lib/gcc/avr/4.3.3/avr6\libgcc.a(_usi_to_sf.o)
                                                  ./src/PLCS_Protocol.o
__fpcmp_parts_f                                   c:/winavr-20100110/bin/../lib/gcc/avr/4.3.3/avr6\libgcc.a(_fpcmp_parts_sf.o)
                                                  c:/winavr-20100110/bin/../lib/gcc/avr/4.3.3/avr6\libgcc.a(_lt_sf.o)
                                                  c:/winavr-20100110/bin/../lib/gcc/avr/4.3.3/avr6\libgcc.a(_ge_sf.o)
                                                  c:/winavr-20100110/bin/../lib/gcc/avr/4.3.3/avr6\libgcc.a(_gt_sf.o)
__gesf2                                           c:/winavr-20100110/bin/../lib/gcc/avr/4.3.3/avr6\libgcc.a(_ge_sf.o)
                                                  c:/winavr-20100110/bin/../lib/gcc/avr/4.3.3/avr6\libgcc.a(_fixunssfsi.o)
__gtsf2                                           c:/winavr-20100110/bin/../lib/gcc/avr/4.3.3/avr6\libgcc.a(_gt_sf.o)
                                                  ./src/PLCS_Protocol.o
__heap_end                                        c:/winavr-20100110/bin/../lib/gcc/avr/4.3.3/../../../../avr/lib/avr6/crtm2560.o
__init                                            c:/winavr-20100110/bin/../lib/gcc/avr/4.3.3/../../../../avr/lib/avr6/crtm2560.o
__ltsf2                                           c:/winavr-20100110/bin/../lib/gcc/avr/4.3.3/avr6\libgcc.a(_lt_sf.o)
                                                  ./src/PLCS_Protocol.o
__mulsf3                                          c:/winavr-20100110/bin/../lib/gcc/avr/4.3.3/avr6\libgcc.a(_mul_sf.o)
                                                  ./src/PLCS_Protocol.o
__pack_f                                          c:/winavr-20100110/bin/../lib/gcc/avr/4.3.3/avr6\libgcc.a(_pack_sf.o)
                                                  c:/winavr-20100110/bin/../lib/gcc/avr/4.3.3/avr6\libgcc.a(_usi_to_sf.o)
                                                  c:/winavr-20100110/bin/../lib/gcc/avr/4.3.3/avr6\libgcc.a(_mul_sf.o)
                                                  c:/winavr-20100110/bin/../lib/gcc/avr/4.3.3/avr6\libgcc.a(_addsub_sf.o)
__prologue_saves__                                c:/winavr-20100110/bin/../lib/gcc/avr/4.3.3/avr6\libgcc.a(_prologue.o)
                                                  c:/winavr-20100110/bin/../lib/gcc/avr/4.3.3/avr6\libgcc.a(_usi_to_sf.o)
                                                  c:/winavr-20100110/bin/../lib/gcc/avr/4.3.3/avr6\libgcc.a(_sf_to_si.o)
                                                  c:/winavr-20100110/bin/../lib/gcc/avr/4.3.3/avr6\libgcc.a(_lt_sf.o)
                                                  c:/winavr-20100110/bin/../lib/gcc/avr/4.3.3/avr6\libgcc.a(_ge_sf.o)
                                                  c:/winavr-20100110/bin/../lib/gcc/avr/4.3.3/avr6\libgcc.a(_gt_sf.o)
                                                  c:/winavr-20100110/bin/../lib/gcc/avr/4.3.3/avr6\libgcc.a(_mul_sf.o)
                                                  c:/winavr-20100110/bin/../lib/gcc/avr/4.3.3/avr6\libgcc.a(_addsub_sf.o)
__stack                                           c:/winavr-20100110/bin/../lib/gcc/avr/4.3.3/../../../../avr/lib/avr6/crtm2560.o
__subsf3                                          c:/winavr-20100110/bin/../lib/gcc/avr/4.3.3/avr6\libgcc.a(_addsub_sf.o)
                                                  c:/winavr-20100110/bin/../lib/gcc/avr/4.3.3/avr6\libgcc.a(_fixunssfsi.o)
__thenan_sf                                       c:/winavr-20100110/bin/../lib/gcc/avr/4.3.3/avr6\libgcc.a(_thenan_sf.o)
                                                  c:/winavr-20100110/bin/../lib/gcc/avr/4.3.3/avr6\libgcc.a(_mul_sf.o)
                                                  c:/winavr-20100110/bin/../lib/gcc/avr/4.3.3/avr6\libgcc.a(_addsub_sf.o)
__udivmodhi4                                      c:/winavr-20100110/bin/../lib/gcc/avr/4.3.3/avr6\libgcc.a(_udivmodhi4.o)
                                                  ./src/main.o
                                                  ./src/RFU_Protocol.o
                                                  ./src/PLCS_Protocol.o
                                                  ./src/MappingTable.o
__udivmodqi4                                      c:/winavr-20100110/bin/../lib/gcc/avr/4.3.3/avr6\libgcc.a(_udivmodqi4.o)
                                                  ./src/ScheduleTable.o
                                                  ./src/PatternBasedControl.o
                                                  ./src/PLCS_Protocol.o
__unpack_f                                        c:/winavr-20100110/bin/../lib/gcc/avr/4.3.3/avr6\libgcc.a(_unpack_sf.o)
                                                  c:/winavr-20100110/bin/../lib/gcc/avr/4.3.3/avr6\libgcc.a(_sf_to_si.o)
                                                  c:/winavr-20100110/bin/../lib/gcc/avr/4.3.3/avr6\libgcc.a(_lt_sf.o)
                                                  c:/winavr-20100110/bin/../lib/gcc/avr/4.3.3/avr6\libgcc.a(_ge_sf.o)
                                                  c:/winavr-20100110/bin/../lib/gcc/avr/4.3.3/avr6\libgcc.a(_gt_sf.o)
                                                  c:/winavr-20100110/bin/../lib/gcc/avr/4.3.3/avr6\libgcc.a(_mul_sf.o)
                                                  c:/winavr-20100110/bin/../lib/gcc/avr/4.3.3/avr6\libgcc.a(_addsub_sf.o)
__vector_1                                        c:/winavr-20100110/bin/../lib/gcc/avr/4.3.3/../../../../avr/lib/avr6/crtm2560.o
__vector_10                                       c:/winavr-20100110/bin/../lib/gcc/avr/4.3.3/../../../../avr/lib/avr6/crtm2560.o
__vector_11                                       c:/winavr-20100110/bin/../lib/gcc/avr/4.3.3/../../../../avr/lib/avr6/crtm2560.o
__vector_12                                       c:/winavr-20100110/bin/../lib/gcc/avr/4.3.3/../../../../avr/lib/avr6/crtm2560.o
__vector_13                                       c:/winavr-20100110/bin/../lib/gcc/avr/4.3.3/../../../../avr/lib/avr6/crtm2560.o
__vector_14                                       c:/winavr-20100110/bin/../lib/gcc/avr/4.3.3/../../../../avr/lib/avr6/crtm2560.o
__vector_15                                       c:/winavr-20100110/bin/../lib/gcc/avr/4.3.3/../../../../avr/lib/avr6/crtm2560.o
__vector_16                                       c:/winavr-20100110/bin/../lib/gcc/avr/4.3.3/../../../../avr/lib/avr6/crtm2560.o
__vector_17                                       c:/winavr-20100110/bin/../lib/gcc/avr/4.3.3/../../../../avr/lib/avr6/crtm2560.o
__vector_18                                       c:/winavr-20100110/bin/../lib/gcc/avr/4.3.3/../../../../avr/lib/avr6/crtm2560.o
__vector_19                                       c:/winavr-20100110/bin/../lib/gcc/avr/4.3.3/../../../../avr/lib/avr6/crtm2560.o
__vector_2                                        c:/winavr-20100110/bin/../lib/gcc/avr/4.3.3/../../../../avr/lib/avr6/crtm2560.o
__vector_20                                       c:/winavr-20100110/bin/../lib/gcc/avr/4.3.3/../../../../avr/lib/avr6/crtm2560.o
__vector_21                                       c:/winavr-20100110/bin/../lib/gcc/avr/4.3.3/../../../../avr/lib/avr6/crtm2560.o
__vector_22                                       c:/winavr-20100110/bin/../lib/gcc/avr/4.3.3/../../../../avr/lib/avr6/crtm2560.o
__vector_23                                       c:/winavr-20100110/bin/../lib/gcc/avr/4.3.3/../../../../avr/lib/avr6/crtm2560.o
__vector_24                                       c:/winavr-20100110/bin/../lib/gcc/avr/4.3.3/../../../../avr/lib/avr6/crtm2560.o
__vector_25                                       ./src/Uart.o
                                                  c:/winavr-20100110/bin/../lib/gcc/avr/4.3.3/../../../../avr/lib/avr6/crtm2560.o
__vector_26                                       ./src/Uart.o
                                                  c:/winavr-20100110/bin/../lib/gcc/avr/4.3.3/../../../../avr/lib/avr6/crtm2560.o
__vector_27                                       ./src/Uart.o
                                                  c:/winavr-20100110/bin/../lib/gcc/avr/4.3.3/../../../../avr/lib/avr6/crtm2560.o
__vector_28                                       c:/winavr-20100110/bin/../lib/gcc/avr/4.3.3/../../../../avr/lib/avr6/crtm2560.o
__vector_29                                       c:/winavr-20100110/bin/../lib/gcc/avr/4.3.3/../../../../avr/lib/avr6/crtm2560.o
__vector_3                                        c:/winavr-20100110/bin/../lib/gcc/avr/4.3.3/../../../../avr/lib/avr6/crtm2560.o
__vector_30                                       c:/winavr-20100110/bin/../lib/gcc/avr/4.3.3/../../../../avr/lib/avr6/crtm2560.o
__vector_31                                       c:/winavr-20100110/bin/../lib/gcc/avr/4.3.3/../../../../avr/lib/avr6/crtm2560.o
__vector_32                                       ./src/Timer.o
                                                  c:/winavr-20100110/bin/../lib/gcc/avr/4.3.3/../../../../avr/lib/avr6/crtm2560.o
__vector_33                                       c:/winavr-20100110/bin/../lib/gcc/avr/4.3.3/../../../../avr/lib/avr6/crtm2560.o
__vector_34                                       c:/winavr-20100110/bin/../lib/gcc/avr/4.3.3/../../../../avr/lib/avr6/crtm2560.o
__vector_35                                       c:/winavr-20100110/bin/../lib/gcc/avr/4.3.3/../../../../avr/lib/avr6/crtm2560.o
__vector_36                                       ./src/Uart.o
                                                  c:/winavr-20100110/bin/../lib/gcc/avr/4.3.3/../../../../avr/lib/avr6/crtm2560.o
__vector_37                                       ./src/Uart.o
                                                  c:/winavr-20100110/bin/../lib/gcc/avr/4.3.3/../../../../avr/lib/avr6/crtm2560.o
__vector_38                                       ./src/Uart.o
                                                  c:/winavr-20100110/bin/../lib/gcc/avr/4.3.3/../../../../avr/lib/avr6/crtm2560.o
__vector_39                                       c:/winavr-20100110/bin/../lib/gcc/avr/4.3.3/../../../../avr/lib/avr6/crtm2560.o
__vector_4                                        c:/winavr-20100110/bin/../lib/gcc/avr/4.3.3/../../../../avr/lib/avr6/crtm2560.o
__vector_40                                       c:/winavr-20100110/bin/../lib/gcc/avr/4.3.3/../../../../avr/lib/avr6/crtm2560.o
__vector_41                                       c:/winavr-20100110/bin/../lib/gcc/avr/4.3.3/../../../../avr/lib/avr6/crtm2560.o
__vector_42                                       c:/winavr-20100110/bin/../lib/gcc/avr/4.3.3/../../../../avr/lib/avr6/crtm2560.o
__vector_43                                       c:/winavr-20100110/bin/../lib/gcc/avr/4.3.3/../../../../avr/lib/avr6/crtm2560.o
__vector_44                                       c:/winavr-20100110/bin/../lib/gcc/avr/4.3.3/../../../../avr/lib/avr6/crtm2560.o
__vector_45                                       c:/winavr-20100110/bin/../lib/gcc/avr/4.3.3/../../../../avr/lib/avr6/crtm2560.o
__vector_46                                       c:/winavr-20100110/bin/../lib/gcc/avr/4.3.3/../../../../avr/lib/avr6/crtm2560.o
__vector_47                                       c:/winavr-20100110/bin/../lib/gcc/avr/4.3.3/../../../../avr/lib/avr6/crtm2560.o
__vector_48                                       c:/winavr-20100110/bin/../lib/gcc/avr/4.3.3/../../../../avr/lib/avr6/crtm2560.o
__vector_49                                       c:/winavr-20100110/bin/../lib/gcc/avr/4.3.3/../../../../avr/lib/avr6/crtm2560.o
__vector_5                                        c:/winavr-20100110/bin/../lib/gcc/avr/4.3.3/../../../../avr/lib/avr6/crtm2560.o
__vector_50                                       c:/winavr-20100110/bin/../lib/gcc/avr/4.3.3/../../../../avr/lib/avr6/crtm2560.o
__vector_51                                       ./src/Uart.o
                                                  c:/winavr-20100110/bin/../lib/gcc/avr/4.3.3/../../../../avr/lib/avr6/crtm2560.o
__vector_52                                       ./src/Uart.o
                                                  c:/winavr-20100110/bin/../lib/gcc/avr/4.3.3/../../../../avr/lib/avr6/crtm2560.o
__vector_53                                       ./src/Uart.o
                                                  c:/winavr-20100110/bin/../lib/gcc/avr/4.3.3/../../../../avr/lib/avr6/crtm2560.o
__vector_54                                       ./src/Uart.o
                                                  c:/winavr-20100110/bin/../lib/gcc/avr/4.3.3/../../../../avr/lib/avr6/crtm2560.o
__vector_55                                       ./src/Uart.o
                                                  c:/winavr-20100110/bin/../lib/gcc/avr/4.3.3/../../../../avr/lib/avr6/crtm2560.o
__vector_56                                       ./src/Uart.o
                                                  c:/winavr-20100110/bin/../lib/gcc/avr/4.3.3/../../../../avr/lib/avr6/crtm2560.o
__vector_6                                        c:/winavr-20100110/bin/../lib/gcc/avr/4.3.3/../../../../avr/lib/avr6/crtm2560.o
__vector_7                                        c:/winavr-20100110/bin/../lib/gcc/avr/4.3.3/../../../../avr/lib/avr6/crtm2560.o
__vector_8                                        c:/winavr-20100110/bin/../lib/gcc/avr/4.3.3/../../../../avr/lib/avr6/crtm2560.o
__vector_9                                        c:/winavr-20100110/bin/../lib/gcc/avr/4.3.3/../../../../avr/lib/avr6/crtm2560.o
__vector_default                                  c:/winavr-20100110/bin/../lib/gcc/avr/4.3.3/../../../../avr/lib/avr6/crtm2560.o
__vectors                                         c:/winavr-20100110/bin/../lib/gcc/avr/4.3.3/../../../../avr/lib/avr6/crtm2560.o
_exit                                             c:/winavr-20100110/bin/../lib/gcc/avr/4.3.3/avr6\libgcc.a(_exit.o)
addDeviceTable                                    ./src/DeviceInfo.o
                                                  ./src/XNetProtocol.o
addDimmerMappingTable                             ./src/MappingTable.o
addMessageToSendBuff                              ./src/ZRMProtocol.o
addPatternInfoToTable                             ./src/PatternBasedControl.o
addSchedule                                       ./src/ScheduleTable.o
                                                  ./src/PLCS_Protocol.o
addScheduleList                                   ./src/ScheduleTable.o
                                                  ./src/PLCS_Protocol.o
addSensorMappingTable                             ./src/MappingTable.o
applyingSchedule                                  ./src/main.o
                                                  ./src/PLCS_Protocol.o
clk                                               ./src/Flash.o
countDevice                                       ./src/DeviceInfo.o
countDeviceTable                                  ./src/DeviceInfo.o
ctrl_Cmd                                          ./src/PLCS_Protocol.o
data0                                             ./src/Uart.o
data1                                             ./src/Uart.o
data2                                             ./src/Uart.o
data3                                             ./src/Uart.o
debug_DebugInfo                                   ./src/main.o
                                                  ./src/debug.o
                                                  ./src/PLCS_Protocol.o
debug_ReadLog                                     ./src/debug.o
                                                  ./src/main.o
debug_Reset                                       ./src/debug.o
                                                  ./src/PLCS_Protocol.o
debug_UpdateConnection                            ./src/debug.o
                                                  ./src/PLCS_Protocol.o
debug_UpdateLog                                   ./src/debug.o
debug_UpdateReboot                                ./src/debug.o
                                                  ./src/main.o
defaultScheduleTable                              ./src/main.o
                                                  ./src/ScheduleTable.o
                                                  ./src/PLCS_Protocol.o
                                                  ./src/DeviceInfo.o
dev_Count                                         ./src/PLCS_Protocol.o
deviceInfoTable                                   ./src/main.o
                                                  ./src/ZRMProtocol.o
                                                  ./src/XNetProtocol.o
                                                  ./src/ScheduleTable.o
                                                  ./src/SSRContol.o
                                                  ./src/RFU_Protocol.o
                                                  ./src/PatternBasedControl.o
                                                  ./src/PLCS_Protocol.o
                                                  ./src/MPRProtocol.o
                                                  ./src/DimmerProtocol.o
                                                  ./src/DeviceInfo.o
deviceInfo_IsUpdatedSSRInfo                       ./src/DeviceInfo.o
deviceInfo_UpdateSSRInfo                          ./src/DeviceInfo.o
device_Type                                       ./src/PLCS_Protocol.o
dimmerControlInfoList                             ./src/main.o
                                                  ./src/DimmerProtocol.o
dimmerMappingInfo_WriteAll                        ./src/MappingTable.o
                                                  ./src/PLCS_Protocol.o
dimmerMappingInfo_WriteToEEPRom                   ./src/MappingTable.o
dimmerMappingTable                                ./src/main.o
                                                  ./src/PLCS_Protocol.o
                                                  ./src/MappingTable.o
                                                  ./src/DimmerProtocol.o
dimmer_DimmingConvert                             ./src/DimmerProtocol.o
dimmer_SendReqDimming                             ./src/DimmerProtocol.o
dimmer_control                                    ./src/DimmerProtocol.o
                                                  ./src/main.o
ee_DimmerMappingTableSize                         ./src/MappingTable.o
ee_DimmerSSRMappingInfo                           ./src/MappingTable.o
ee_PatternInfo                                    ./src/PatternBasedControl.o
ee_PatternInfoTableSize                           ./src/PatternBasedControl.o
ee_SensorMappingInfo                              ./src/MappingTable.o
ee_SensorMappingTableSize                         ./src/MappingTable.o
exit                                              c:/winavr-20100110/bin/../lib/gcc/avr/4.3.3/avr6\libgcc.a(_exit.o)
                                                  c:/winavr-20100110/bin/../lib/gcc/avr/4.3.3/../../../../avr/lib/avr6/crtm2560.o
findDimmerMappingInfoById                         ./src/MappingTable.o
                                                  ./src/PLCS_Protocol.o
findDimmerMappingInfoByPair                       ./src/MappingTable.o
findNodeById                                      ./src/DeviceInfo.o
                                                  ./src/XNetProtocol.o
                                                  ./src/RFU_Protocol.o
                                                  ./src/PLCS_Protocol.o
                                                  ./src/DimmerProtocol.o
findSensorMappingInfoById                         ./src/MappingTable.o
                                                  ./src/PLCS_Protocol.o
flash_bufferReadUint8                             ./src/Flash.o
flash_bufferToMainMemory                          ./src/Flash.o
flash_bufferWrite                                 ./src/Flash.o
flash_init                                        ./src/Flash.o
                                                  ./src/main.o
flash_readByteFromSO                              ./src/Flash.o
flash_readBytes                                   ./src/Flash.o
                                                  ./src/debug.o
                                                  ./src/ScheduleTable.o
                                                  ./src/RFU_Protocol.o
                                                  ./src/PatternBasedControl.o
                                                  ./src/MappingTable.o
                                                  ./src/DeviceInfo.o
flash_readStatus                                  ./src/Flash.o
flash_readUint16                                  ./src/Flash.o
flash_readUint32                                  ./src/Flash.o
flash_readUint8                                   ./src/Flash.o
flash_writeByteToSI                               ./src/Flash.o
flash_writeBytes                                  ./src/Flash.o
                                                  ./src/debug.o
                                                  ./src/ScheduleTable.o
                                                  ./src/RFU_Protocol.o
                                                  ./src/PatternBasedControl.o
                                                  ./src/MappingTable.o
                                                  ./src/DeviceInfo.o
flash_writeUint16                                 ./src/Flash.o
flash_writeUint32                                 ./src/Flash.o
flash_writeUint8                                  ./src/Flash.o
                                                  ./src/RFU_Protocol.o
g_NoticeMode                                      ./src/PLCS_Protocol.o
g_PowerMeterValue                                 ./src/main.o
                                                  ./src/PLCS_Protocol.o
gcp_GetNoticeMode                                 ./src/PLCS_Protocol.o
gcp_SetNoticeMode                                 ./src/PLCS_Protocol.o
                                                  ./src/main.o
getControlModeAt                                  ./src/ScheduleTable.o
                                                  ./src/main.o
getCtrlModeOnTime                                 ./src/PatternBasedControl.o
getDimmerMappingInfoByIndex                       ./src/MappingTable.o
                                                  ./src/PLCS_Protocol.o
                                                  ./src/DimmerProtocol.o
getDimmerMappingTableSize                         ./src/MappingTable.o
                                                  ./src/PLCS_Protocol.o
                                                  ./src/DimmerProtocol.o
getLastResult                                     ./src/ZRMProtocol.o
getMPRMessageListSize                             ./src/XNetProtocol.o
getMessageFromSendBuff                            ./src/ZRMProtocol.o
getMessageFromSendBuffWORemove                    ./src/ZRMProtocol.o
getMessageListSize                                ./src/XNetProtocol.o
getSensorMappingInfoByIndex                       ./src/MappingTable.o
                                                  ./src/PLCS_Protocol.o
getSensorMappingTableSize                         ./src/MappingTable.o
                                                  ./src/PLCS_Protocol.o
getSeqNumGenerator                                ./src/PLCS_Protocol.o
                                                  ./src/main.o
                                                  ./src/DimmerProtocol.o
getSeqNumGeneratorForDimmer                       ./src/DimmerProtocol.o
getSeqNumGeneratorForRFUP                         ./src/RFU_Protocol.o
getZRMMessageListSize                             ./src/ZRMProtocol.o
getZigbeeState                                    ./src/ZRMProtocol.o
                                                  ./src/main.o
handleDeviceControl                               ./src/DeviceInfo.o
                                                  ./src/PLCS_Protocol.o
handleSensorEvent                                 ./src/PLCS_Protocol.o
handleSwitchEvent                                 ./src/PLCS_Protocol.o
hasToken                                          ./src/PLCS_Protocol.o
                                                  ./src/main.o
initDeviceTable                                   ./src/DeviceInfo.o
                                                  ./src/main.o
initDimmerControlInfoList                         ./src/DimmerProtocol.o
initDimmerMappingTable                            ./src/MappingTable.o
                                                  ./src/main.o
initMappingTable                                  ./src/MappingTable.o
                                                  ./src/main.o
initPatternTable                                  ./src/PatternBasedControl.o
                                                  ./src/main.o
initRotary                                        ./src/rotary.o
                                                  ./src/main.o
initScheduleTimeTable                             ./src/ScheduleTable.o
                                                  ./src/main.o
isContainNodeOfId                                 ./src/DeviceInfo.o
isContainScheduleAt                               ./src/ScheduleTable.o
                                                  ./src/PLCS_Protocol.o
lastResult_0                                      ./src/ZRMProtocol.o
lastResult_1                                      ./src/ZRMProtocol.o
main                                              ./src/main.o
                                                  c:/winavr-20100110/bin/../lib/gcc/avr/4.3.3/../../../../avr/lib/avr6/crtm2560.o
memcpy                                            c:/winavr-20100110/bin/../lib/gcc/avr/4.3.3/../../../../avr/lib/avr6\libc.a(memcpy.o)
                                                  ./src/ZRMProtocol.o
                                                  ./src/XNetProtocol.o
messageLength                                     ./src/XNetProtocol.o
messageList_Head                                  ./src/XNetProtocol.o
messageList_Tail                                  ./src/XNetProtocol.o
mprMessageLength                                  ./src/XNetProtocol.o
mprMessageList_Head                               ./src/XNetProtocol.o
mprMessageList_Tail                               ./src/XNetProtocol.o
mprToken                                          ./src/MPRProtocol.o
mpr_AssignToken                                   ./src/MPRProtocol.o
                                                  ./src/main.o
mpr_GetAssignedTokenId                            ./src/MPRProtocol.o
mpr_HasToken                                      ./src/MPRProtocol.o
                                                  ./src/main.o
mpr_ReleaseToken                                  ./src/MPRProtocol.o
                                                  ./src/main.o
msgFromZigbee                                     ./src/main.o
ncp_ConnState                                     ./src/PLCS_Protocol.o
                                                  ./src/main.o
ncp_NetState                                      ./src/PLCS_Protocol.o
ncp_ProcessPingReq                                ./src/PLCS_Protocol.o
ncp_ProcessPingRes                                ./src/PLCS_Protocol.o
ncp_ProcessRegisterReq                            ./src/PLCS_Protocol.o
ncp_ProcessRegisterRes                            ./src/PLCS_Protocol.o
ncp_SendPingReq                                   ./src/PLCS_Protocol.o
                                                  ./src/main.o
ncp_SendPingRes                                   ./src/PLCS_Protocol.o
ncp_SendRegisterReq                               ./src/PLCS_Protocol.o
                                                  ./src/main.o
ncp_SendRegisterReqWithoutQueue                   ./src/PLCS_Protocol.o
ncp_SendRegisterRes                               ./src/PLCS_Protocol.o
npc_ProcessSendTimeInfo                           ./src/PLCS_Protocol.o
npc_SendRegisterNodeReq                           ./src/PLCS_Protocol.o
                                                  ./src/main.o
patternTable                                      ./src/main.o
                                                  ./src/PatternBasedControl.o
                                                  ./src/PLCS_Protocol.o
patternTable_WriteToEEPRom                        ./src/PatternBasedControl.o
plcs_GCP_HandleAddScheduleListReq                 ./src/PLCS_Protocol.o
plcs_GCP_HandleAddScheduleReq                     ./src/PLCS_Protocol.o
plcs_GCP_HandleApplyingScheduleReq                ./src/PLCS_Protocol.o
plcs_GCP_HandleControlCircuitReq                  ./src/PLCS_Protocol.o
plcs_GCP_HandleControlNoticeModeReq               ./src/PLCS_Protocol.o
plcs_GCP_HandleControlRebootReq                   ./src/PLCS_Protocol.o
plcs_GCP_HandleControlSensorReq                   ./src/PLCS_Protocol.o
plcs_GCP_HandleDebugLogLCReq                      ./src/PLCS_Protocol.o
plcs_GCP_HandleDebugLogLCReset                    ./src/PLCS_Protocol.o
plcs_GCP_HandleDeviceInfoReq                      ./src/PLCS_Protocol.o
plcs_GCP_HandleDimmerMappingInfoReq               ./src/PLCS_Protocol.o
plcs_GCP_HandleDimmerMappingSizeReq               ./src/PLCS_Protocol.o
plcs_GCP_HandleMappingDimmerListReq               ./src/PLCS_Protocol.o
plcs_GCP_HandleMappingDimmerReq                   ./src/PLCS_Protocol.o
plcs_GCP_HandleMappingSensorListReq               ./src/PLCS_Protocol.o
plcs_GCP_HandleMappingSensorReq                   ./src/PLCS_Protocol.o
plcs_GCP_HandleNoticeEventNeighbor                ./src/PLCS_Protocol.o
plcs_GCP_HandleNumOfDeviceReq                     ./src/PLCS_Protocol.o
plcs_GCP_HandlePowermeterReq                      ./src/PLCS_Protocol.o
plcs_GCP_HandleResetDimmerMappingReq              ./src/PLCS_Protocol.o
plcs_GCP_HandleResetScheduleReq                   ./src/PLCS_Protocol.o
plcs_GCP_HandleResetSensorMappingReq              ./src/PLCS_Protocol.o
plcs_GCP_HandleScheduleInfoReq                    ./src/PLCS_Protocol.o
plcs_GCP_HandleScheduleSizeReq                    ./src/PLCS_Protocol.o
plcs_GCP_HandleSensorEvent                        ./src/PLCS_Protocol.o
plcs_GCP_HandleSensorMappingInfoReq               ./src/PLCS_Protocol.o
plcs_GCP_HandleSensorMappingSizeReq               ./src/PLCS_Protocol.o
plcs_GCP_HandleStateInfoReq                       ./src/PLCS_Protocol.o
plcs_GCP_HandleUpdatePowermeterLCReq              ./src/PLCS_Protocol.o
plcs_GCP_HandleUpdatePowermeterReq                ./src/PLCS_Protocol.o
plcs_GCP_ProcessMessage                           ./src/PLCS_Protocol.o
                                                  ./src/XNetProtocol.o
plcs_GCP_SendAddScheduleListRes                   ./src/PLCS_Protocol.o
plcs_GCP_SendAddScheduleRes                       ./src/PLCS_Protocol.o
plcs_GCP_SendApplyingScheduleRes                  ./src/PLCS_Protocol.o
plcs_GCP_SendControlCircuitRes                    ./src/PLCS_Protocol.o
plcs_GCP_SendControlSensorRes                     ./src/PLCS_Protocol.o
plcs_GCP_SendDebugLogLCRes                        ./src/PLCS_Protocol.o
plcs_GCP_SendDeviceInfoRes                        ./src/PLCS_Protocol.o
plcs_GCP_SendDimmerMappingInfoRes                 ./src/PLCS_Protocol.o
plcs_GCP_SendDimmerMappingSizeRes                 ./src/PLCS_Protocol.o
plcs_GCP_SendMappingDimmerListRes                 ./src/PLCS_Protocol.o
plcs_GCP_SendMappingDimmerRes                     ./src/PLCS_Protocol.o
plcs_GCP_SendMappingSensorListRes                 ./src/PLCS_Protocol.o
plcs_GCP_SendMappingSensorRes                     ./src/PLCS_Protocol.o
plcs_GCP_SendNoticeEvent                          ./src/PLCS_Protocol.o
plcs_GCP_SendNumOfDeviceRes                       ./src/PLCS_Protocol.o
plcs_GCP_SendPowermeterRes                        ./src/PLCS_Protocol.o
plcs_GCP_SendResetDimmerMappingRes                ./src/PLCS_Protocol.o
plcs_GCP_SendResetScheduleRes                     ./src/PLCS_Protocol.o
plcs_GCP_SendResetSensorMappingRes                ./src/PLCS_Protocol.o
plcs_GCP_SendScheduleInfoRes                      ./src/PLCS_Protocol.o
plcs_GCP_SendScheduleSizeRes                      ./src/PLCS_Protocol.o
plcs_GCP_SendSensorMappingInfoRes                 ./src/PLCS_Protocol.o
plcs_GCP_SendSensorMappingSizeRes                 ./src/PLCS_Protocol.o
plcs_GCP_SendStateInfoRes                         ./src/PLCS_Protocol.o
                                                  ./src/main.o
plcs_GetDCPMessage                                ./src/DimmerProtocol.o
plcs_GetGCPMessage                                ./src/PLCS_Protocol.o
                                                  ./src/main.o
plcs_GetGCPResMessage                             ./src/PLCS_Protocol.o
                                                  ./src/main.o
plcs_GetMDPMessage                                ./src/DimmerProtocol.o
plcs_GetNCPMessage                                ./src/PLCS_Protocol.o
                                                  ./src/MPRProtocol.o
plcs_GetNCPResMessage                             ./src/PLCS_Protocol.o
plcs_GetRFUPMessage                               ./src/RFU_Protocol.o
plcs_GetRFUPResMessage                            ./src/RFU_Protocol.o
plcs_NCP_AssignToken                              ./src/MPRProtocol.o
plcs_NCP_ProcessAssignToken                       ./src/PLCS_Protocol.o
plcs_NCP_ProcessRegisterBroadcastReq              ./src/PLCS_Protocol.o
plcs_NCP_ProcessReleaseTokenRes                   ./src/PLCS_Protocol.o
plcs_NCP_Send_NCPReqReleaseToken                  ./src/PLCS_Protocol.o
                                                  ./src/main.o
plcs_RFUP_CheckDownloadedFirmware                 ./src/RFU_Protocol.o
plcs_RFUP_CheckDownloadedFirmwareAt               ./src/RFU_Protocol.o
plcs_RFUP_HandleSendDataReq                       ./src/RFU_Protocol.o
plcs_RFUP_HandleUpgradeFirmwareReq                ./src/RFU_Protocol.o
plcs_RFUP_ProcessMessage                          ./src/RFU_Protocol.o
                                                  ./src/XNetProtocol.o
plcs_RFUP_Reboot                                  ./src/RFU_Protocol.o
plcs_RFUP_SendDataRes                             ./src/RFU_Protocol.o
plcs_RFUP_SendUpgradeFirmwareRes                  ./src/RFU_Protocol.o
plcs_RFUP_SetReadyToUpgradeFirmware               ./src/RFU_Protocol.o
plcs_RFUP_WriteFirmwareData                       ./src/RFU_Protocol.o
registerAllNodetoServer                           ./src/PLCS_Protocol.o
removeDeviceTable                                 ./src/DeviceInfo.o
removeNode                                        ./src/DeviceInfo.o
resetPatternTable                                 ./src/PatternBasedControl.o
resetScheduleTimeTable                            ./src/ScheduleTable.o
resetZigbee0                                      ./src/main.o
resetZigbee1                                      ./src/main.o
rotary_GetValue                                   ./src/rotary.o
                                                  ./src/ZRMProtocol.o
scheduleTable_1                                   ./src/main.o
                                                  ./src/ScheduleTable.o
                                                  ./src/PLCS_Protocol.o
                                                  ./src/DeviceInfo.o
scheduleTable_2                                   ./src/main.o
                                                  ./src/ScheduleTable.o
                                                  ./src/PLCS_Protocol.o
                                                  ./src/DeviceInfo.o
schedule_WriteToEEPRom                            ./src/ScheduleTable.o
                                                  ./src/PLCS_Protocol.o
schedule_WriteToEEPRomAll                         ./src/ScheduleTable.o
                                                  ./src/PLCS_Protocol.o
sendBuffData_0                                    ./src/ZRMProtocol.o
sendBuffData_1                                    ./src/ZRMProtocol.o
sendBuffForZRM_Head_0                             ./src/ZRMProtocol.o
sendBuffForZRM_Head_1                             ./src/ZRMProtocol.o
sendBuffForZRM_Tail_0                             ./src/ZRMProtocol.o
sendBuffForZRM_Tail_1                             ./src/ZRMProtocol.o
sendMPRMessage                                    ./src/XNetProtocol.o
sendMPRMessageList                                ./src/XNetProtocol.o
sendMessage                                       ./src/XNetProtocol.o
                                                  ./src/main.o
                                                  ./src/RFU_Protocol.o
                                                  ./src/PLCS_Protocol.o
                                                  ./src/DimmerProtocol.o
sendMessageList                                   ./src/XNetProtocol.o
sendQueueingMessage                               ./src/ZRMProtocol.o
                                                  ./src/main.o
sendSensorToken                                   ./src/main.o
sendServerMessage                                 ./src/XNetProtocol.o
                                                  ./src/PLCS_Protocol.o
sendServerMessageWithoutQueue                     ./src/XNetProtocol.o
                                                  ./src/PLCS_Protocol.o
sendStackedMPRMessage                             ./src/XNetProtocol.o
                                                  ./src/main.o
sendStackedServerMessage                          ./src/XNetProtocol.o
                                                  ./src/main.o
sendToZigbee                                      ./src/ZRMProtocol.o
                                                  ./src/XNetProtocol.o
                                                  ./src/PLCS_Protocol.o
                                                  ./src/DimmerProtocol.o
sensorMappingInfo_WriteAll                        ./src/MappingTable.o
                                                  ./src/PLCS_Protocol.o
sensorMappingInfo_WriteToEEPRom                   ./src/MappingTable.o
sensorMappingTable                                ./src/main.o
                                                  ./src/PLCS_Protocol.o
                                                  ./src/MappingTable.o
                                                  ./src/DimmerProtocol.o
seqNumGenerator                                   ./src/PLCS_Protocol.o
seqNumGeneratorForRFUP                            ./src/RFU_Protocol.o
ssrInfo_WriteToEEPRom                             ./src/DeviceInfo.o
ssrInfo_WriteToEEPRomOfIndex                      ./src/DeviceInfo.o
status0                                           ./src/Uart.o
status1                                           ./src/Uart.o
status2                                           ./src/Uart.o
status3                                           ./src/Uart.o
tempBuffForDebug                                  ./src/debug.o
tempBuffForDeviceInfo                             ./src/DeviceInfo.o
tempBuffForMappingInfo                            ./src/MappingTable.o
tempBuffForPatternInfo                            ./src/PatternBasedControl.o
tempBuffForSchedule                               ./src/ScheduleTable.o
timerCount                                        ./src/Timer.o
timer_clear                                       ./src/Timer.o
                                                  ./src/main.o
timer_get                                         ./src/Timer.o
                                                  ./src/main.o
timer_init                                        ./src/Timer.o
                                                  ./src/main.o
timer_list                                        ./src/Timer.o
timer_set                                         ./src/Timer.o
                                                  ./src/main.o
                                                  ./src/PLCS_Protocol.o
tmpBuffForDimmer                                  ./src/DimmerProtocol.o
tmpBuffForMDP                                     ./src/DimmerProtocol.o
tmp_Buff                                          ./src/PLCS_Protocol.o
tmp_BuffForRFUP                                   ./src/RFU_Protocol.o
tmp_BuffForZRM                                    ./src/main.o
                                                  ./src/ZRMProtocol.o
tmp_Buff_MPR                                      ./src/MPRProtocol.o
tmp_CircuitInfo                                   ./src/main.o
                                                  ./src/ZRMProtocol.o
                                                  ./src/XNetProtocol.o
                                                  ./src/ScheduleTable.o
                                                  ./src/SSRContol.o
                                                  ./src/RFU_Protocol.o
                                                  ./src/PatternBasedControl.o
                                                  ./src/PLCS_Protocol.o
                                                  ./src/MPRProtocol.o
                                                  ./src/DimmerProtocol.o
                                                  ./src/DeviceInfo.o
tmp_DevInfo_D                                     ./src/main.o
                                                  ./src/PLCS_Protocol.o
tmp_DevInfo_P                                     ./src/PLCS_Protocol.o
tmp_PrevCircuitInfo                               ./src/main.o
                                                  ./src/ZRMProtocol.o
                                                  ./src/XNetProtocol.o
                                                  ./src/ScheduleTable.o
                                                  ./src/SSRContol.o
                                                  ./src/RFU_Protocol.o
                                                  ./src/PatternBasedControl.o
                                                  ./src/PLCS_Protocol.o
                                                  ./src/MPRProtocol.o
                                                  ./src/DimmerProtocol.o
                                                  ./src/DeviceInfo.o
toHexCharacterOfLowerByte                         ./src/util.o
toUint16                                          ./src/util.o
toUint8                                           ./src/util.o
token                                             ./src/PLCS_Protocol.o
uart0_rx_buff                                     ./src/Uart.o
uart0_rx_front                                    ./src/Uart.o
uart0_rx_len                                      ./src/Uart.o
uart0_rx_tail                                     ./src/Uart.o
uart0_tx_buff                                     ./src/Uart.o
uart0_tx_front                                    ./src/Uart.o
uart0_tx_len                                      ./src/Uart.o
uart0_tx_tail                                     ./src/Uart.o
uart1_rx_buff                                     ./src/Uart.o
uart1_rx_front                                    ./src/Uart.o
uart1_rx_len                                      ./src/Uart.o
uart1_rx_tail                                     ./src/Uart.o
uart1_tx_buff                                     ./src/Uart.o
uart1_tx_front                                    ./src/Uart.o
uart1_tx_len                                      ./src/Uart.o
uart1_tx_tail                                     ./src/Uart.o
uart2_rx_buff                                     ./src/Uart.o
uart2_rx_front                                    ./src/Uart.o
uart2_rx_len                                      ./src/Uart.o
uart2_rx_tail                                     ./src/Uart.o
uart2_tx_buff                                     ./src/Uart.o
uart2_tx_front                                    ./src/Uart.o
uart2_tx_len                                      ./src/Uart.o
uart2_tx_tail                                     ./src/Uart.o
uart3_rx_buff                                     ./src/Uart.o
uart3_rx_front                                    ./src/Uart.o
uart3_rx_len                                      ./src/Uart.o
uart3_rx_tail                                     ./src/Uart.o
uart3_tx_buff                                     ./src/Uart.o
uart3_tx_front                                    ./src/Uart.o
uart3_tx_len                                      ./src/Uart.o
uart3_tx_tail                                     ./src/Uart.o
updateDeviceTable                                 ./src/DeviceInfo.o
                                                  ./src/main.o
                                                  ./src/PLCS_Protocol.o
updateDimmerControlInfoList                       ./src/DimmerProtocol.o
                                                  ./src/main.o
                                                  ./src/PLCS_Protocol.o
updateDimmerMappingTable                          ./src/MappingTable.o
                                                  ./src/PLCS_Protocol.o
updateSensorMappingTable                          ./src/MappingTable.o
                                                  ./src/PLCS_Protocol.o
updateSensorMappingTableByCircuit                 ./src/MappingTable.o
                                                  ./src/PLCS_Protocol.o
xcps_init_rs485                                   ./src/Xcps.o
                                                  ./src/main.o
xcps_init_rs485ForMPR                             ./src/Xcps.o
                                                  ./src/main.o
xcps_init_zigbee_0                                ./src/Xcps.o
                                                  ./src/main.o
xcps_init_zigbee_1                                ./src/Xcps.o
                                                  ./src/main.o
xcps_pdu_len_rs485                                ./src/Xcps.o
xcps_pdu_len_rs485ForMPR                          ./src/Xcps.o
xcps_recv_rs485                                   ./src/Xcps.o
                                                  ./src/main.o
xcps_recv_rs485ForMPR                             ./src/Xcps.o
                                                  ./src/main.o
xcps_recv_zigbee_0                                ./src/Xcps.o
                                                  ./src/main.o
xcps_recv_zigbee_1                                ./src/Xcps.o
                                                  ./src/main.o
xcps_rx_packet_rs485                              ./src/Xcps.o
xcps_rx_packet_rs485ForMPR                        ./src/Xcps.o
xcps_rx_packet_zigbee_0                           ./src/Xcps.o
xcps_rx_packet_zigbee_1                           ./src/Xcps.o
xcps_rxlen_rs485                                  ./src/Xcps.o
xcps_rxlen_rs485ForMPR                            ./src/Xcps.o
xcps_rxlen_zigbee_0                               ./src/Xcps.o
xcps_rxlen_zigbee_1                               ./src/Xcps.o
xcps_send_rs485                                   ./src/Xcps.o
                                                  ./src/XNetProtocol.o
xcps_send_rs485ForMPR                             ./src/Xcps.o
                                                  ./src/XNetProtocol.o
                                                  ./src/MPRProtocol.o
                                                  ./src/DimmerProtocol.o
xcps_send_zigbee_0                                ./src/Xcps.o
                                                  ./src/ZRMProtocol.o
xcps_send_zigbee_1                                ./src/Xcps.o
                                                  ./src/main.o
                                                  ./src/ZRMProtocol.o
xcps_tx_packet_zigbee_0                           ./src/Xcps.o
xcps_tx_packet_zigbee_1                           ./src/Xcps.o
xmem_enable                                       ./src/main.o
z_ieee_Id                                         ./src/PLCS_Protocol.o
zrmpInfo_0                                        ./src/main.o
                                                  ./src/ZRMProtocol.o
                                                  ./src/XNetProtocol.o
                                                  ./src/RFU_Protocol.o
                                                  ./src/PatternBasedControl.o
                                                  ./src/PLCS_Protocol.o
                                                  ./src/MPRProtocol.o
                                                  ./src/DimmerProtocol.o
