:020000023000CC
:10F000000D9472F80D9493F80D9493F80D9493F871
:10F010000D9493F80D9493F80D9493F80D9493F840
:10F020000D9493F80D9493F80D9493F80D9493F830
:10F030000D9493F80D9493F80D9493F80D9493F820
:10F040000D9493F80D9493F80D9493F80D9493F810
:10F050000D9493F80D9493F80D9493F80D9493F800
:10F060000D9493F80D9493F80D9493F80D9493F8F0
:10F070000D9493F80D9493F80D9493F80D9493F8E0
:10F080000D9493F80D9493F80D9493F80D9493F8D0
:10F090000D9493F80D9493F80D9493F80D9493F8C0
:10F0A0000D9493F80D9493F80D9493F80D9493F8B0
:10F0B0000D9493F80D9493F80D9493F80D9493F8A0
:10F0C0000D9493F80D9493F80D9493F80D9493F890
:10F0D0000D9493F80D9493F80D9493F80D9493F880
:10F0E0000D9493F811241FBECFEFD1E2DEBFCDBF48
:10F0F00001E00CBF12E0A0E0B2E0E0E8FBEF03E0CB
:10F100000BBF02C007900D92A030B107D9F713E0F2
:10F11000A0E0B2E001C01D92A730B107E1F70F9463
:10F1200004FD0D94BEFD0D9400F88AB183648AB984
:10F130005798589A08958AE1982F9A95F1F7599A15
:10F140008A95F1F7599808950F931F93CF93DF9302
:10F15000C7E0D0E0082F10E0C8010C2E02C0959542
:10F1600087950A94E2F780FF02C05E9A01C05E981C
:10F170000F949BF821978FEFCF3FD80769F7DF9166
:10F18000CF911F910F910895EF92FF920F931F93CC
:10F19000CF93DF93C7E0D0E010E000E681E0E82EF7
:10F1A000F12C8BB180278BB94F9B08C0C7010C2E67
:10F1B00002C0880F991F0A94E2F7182B0F949BF84E
:10F1C00021978FEFCF3FD80761F7812FDF91CF9144
:10F1D0001F910F91FF90EF900895DF92EF92FF92B1
:10F1E0000F931F93CF93DF938C01D62EF42EE52E31
:10F1F000589880EA9FE00197F1F784E80F94A4F80B
:10F2000080E00F94A4F8812F0F94A4F8802F0F941E
:10F21000A4F82F2D3E2DC901EC0110E004C0899106
:10F220000F94A4F81F5F1D15D0F380EA9FE00197AB
:10F23000F1F7589ADF91CF911F910F91FF90EF90C6
:10F24000DF900895EF92FF920F931F938C015898CF
:10F2500030EAE32E3FE0F32EC7010197F1F783E890
:10F260000F94A4F8C801880F892F881F990B9195D6
:10F270000F94A4F8802F880F0F94A4F880E00F94C7
:10F28000A4F8C7010197F1F7589A1F910F91FF90C9
:10F29000EF9008950F931F93DF93CF930F92CDB705
:10F2A000DEB78C01698380E090E061E0AE014F5FE2
:10F2B0005F4F0F94EDF8C8010F9422F980E49CE9A8
:10F2C0000197F1F70F90CF91DF911F910F91089562
:10F2D0000F931F938C0158980F949BF884ED0F9413
:10F2E000A4F880E00F94A4F8812F0F94A4F8802F45
:10F2F0000F94A4F880E00F94A4F80F94C4F8589ADF
:10F300001F910F9108950F931F938C01589880EAD5
:10F310009FE00197F1F782ED0F94A4F8C801880FE0
:10F32000892F881F990B91950F94A4F8802F880F2F
:10F330000F94A4F880E00F94A4F800E080E00F940C
:10F34000A4F80F5F0430D1F70F94C4F8E0EAFFE0AF
:10F350003197F1F7589A1F910F9108950F931F93CA
:10F36000DF93CF930F920F92CDB7DEB78C017A83E4
:10F37000698380E090E062E0AE014F5F5F4F0F94E1
:10F38000EDF8C8010F9422F980E49CE90197F1F7A8
:10F390000F900F90CF91DF911F910F9108950F93D0
:10F3A0001F938C01589880EA9FE00197F1F782ED56
:10F3B0000F94A4F8C801880F892F881F990B919585
:10F3C0000F94A4F8802F880F0F94A4F880E00F9476
:10F3D000A4F800E080E00F94A4F80F5F0430D1F7A8
:10F3E0000F94C4F8082F10E00F94C4F8E0EAFFE08F
:10F3F0003197F1F7589A382F20E0202B312BC90193
:10F400001F910F9108950F931F93DF93CF9300D017
:10F410000F92CDB7DEB78C0149835A836B837C830F
:10F4200080E090E064E0AE014F5F5F4F0F94EDF835
:10F43000C8010F9422F980E49CE90197F1F70F903D
:10F440000F900F900F90CF91DF911F910F91089522
:10F450009F92AF92BF92CF92DF92EF92FF920F9363
:10F460001F938C01589880EA9FE00197F1F782ED95
:10F470000F94A4F8C801880F892F881F990B9195C4
:10F480000F94A4F8802F880F0F94A4F880E00F94B5
:10F49000A4F800E080E00F94A4F80F5F0430D1F7E7
:10F4A0000F94C4F8A82EBB24CC24DD240F94C4F8F8
:10F4B000982E0F94C4F8E82E0F94C4F8FF2400E0AF
:10F4C00010E08701FF24EE2490E0A0E0B0E0B82F28
:10F4D000AA2799278827E82AF92A0A2B1B2BEA282A
:10F4E000FB280C291D2980EA9FE00197F1F7589A23
:10F4F000992D80E0AA2797FDA095BA2FE82AF92A2E
:10F500000A2B1B2BB701C8011F910F91FF90EF90A1
:10F51000DF90CF90BF90AF909F9008950F931F936F
:10F520008C019B0180E090E0642FA9010F94EDF81D
:10F53000C8010F9422F980E49CE90197F1F71F912B
:10F540000F9108950F931F93DF93CF93CDB7DEB73D
:10F55000CF5FD0400FB6F894DEBF0FBECDBF8C0199
:10F56000FE013196CF01AF01860F911D2FEF01C033
:10F570002193E817F907E1F780E090E00F94EDF8A8
:10F58000C8010F9422F980E49CE90197F1F7C1507A
:10F59000DF4F0FB6F894DEBF0FBECDBFCF91DF9126
:10F5A0001F910F910895DF92EF92FF920F931F9397
:10F5B000CF93DF938C01F62EE72ED42E589880EA55
:10F5C0009FE00197F1F782ED0F94A4F8C801880F2E
:10F5D000892F881F990B91950F94A4F8802F880F7D
:10F5E0000F94A4F880E00F94A4F800E080E00F945A
:10F5F000A4F80F5F0430D1F78F2D9E2D9C01E901F7
:10F6000000E004C00F94C4F889930F5F0D15D0F388
:10F6100080EA9FE00197F1F7589A8D2DDF91CF9105
:10F620001F910F91FF90EF90DF9008950F931F931C
:10F63000589800EA1FE0C8010197F1F787ED0F9491
:10F64000A4F80F94C4F8F8013197F1F7589A1F9174
:10F650000F91089540E050E00AC020E030E02F5FB5
:10F660003F4F6CE020383607D1F74F5F5F4F4817A8
:10F67000590798F30895982F8091C00085FFFCCF1B
:10F680009093C60081E090E00895DF92EF92FF92A0
:10F690000F931F93F999FECFE0900003F0900103C0
:10F6A000009102031091030383E0F70100935B00D4
:10F6B00080935700E89507B600FCFDCFA0E0B2E0CC
:10F6C00020E030E040E050E0DD24D39411967C91BE
:10F6D000119760E08C91FB01E80FF11DCF010C0147
:10F6E000F90140935B00D0925700E89511241296DF
:10F6F0002E5F3F4F4F4F5F4FF3E0A030BF0731F712
:10F7000085E0F70100935B0080935700E89507B60A
:10F7100000FCFDCF81E180935700E8951F910F9188
:10F72000FF90EF90DF900895CF92DF92EF92FF92DB
:10F730000F931F93CF93DF93E0900003F0900103AA
:10F740000091020310910303C0E0D2E0B801A701C9
:10F75000DE016BBFFA01279136911196FC9111974A
:10F76000E0E08C916F01C80ED11C2C153D0561F1B4
:10F770008091C00085FFFCCF8FEF8093C600809101
:10F78000C00085FFFCCF8FEF8093C6008091C00042
:10F7900085FFFCCFBB27A12F902F8F2D8093C60014
:10F7A0008091C00085FFFCCFE092C60098818091D7
:10F7B000C00085FFFCCF9093C600219683E0C03047
:10F7C000D807A1F780E00BC04E5F5F4F6F4F7F4FB0
:10F7D000129683E0A030B80709F0BBCF81E0DF913B
:10F7E000CF911F910F91FF90EF90DF90CF900895F0
:10F7F00008951BBE81E085BF15BE0C9400000895DE
:10F8000084B7877F84BF2FE088E190E00FB6F8943B
:10F81000A895809360000FBE2093600008952F92FA
:10F820003F924F925F926F927F928F929F92AF9290
:10F83000BF92CF92DF92EF92FF920F931F93DF93CD
:10F84000CF93CDB7DEB7CF5FD0400FB6F894DEBF11
:10F850000FBECDBF39E3A32EB12C00E010E03E0176
:10F860000894611C711C2DEF222E312C2C0E3D1E94
:10F87000A895C501B3014FEF0F94D3FA730194E03B
:10F88000C92ED12CF70190818381992309F082C080
:10F89000813009F07FC00115110531F10F9445FB4E
:10F8A0000F9494FB882309F494C0E0E0F2E08FEF1A
:10F8B000819393E0E030F907D9F7980140E050E0F8
:10F8C0008091000390910103A0910203B091030382
:10F8D000820F931FA41FB51F809300039093010311
:10F8E000A0930203B09303038091C00085FFFCCF77
:10F8F00083E68093C6008091C00085FFFCCF83E63D
:10F900008093C6008091C00085FFFCCF83E6809382
:10F91000C6008091C00085FFFCCF83E68093C600BF
:10F9200081E058C0F801E050FE4FD401A20FB31F90
:10F930008C9180830F5F1F4FE1E000301E0739F587
:10F940000F9445FB0F9494FB882309F442C08091E7
:10F95000000390910103A0910203B0910303805032
:10F960009F4FAF4FBF4F8093000390930103A0932D
:10F970000203B0930303E0E0F2E08FEF819393E0A2
:10F98000E030F907D1F720E031E000E010E02F5F30
:10F990003F4F07C020E030E0492E552443018C0C36
:10F9A0009D1C2415350508F4BDCFE5E1F0E0EE0E11
:10F9B000FF1ECE0EDF1EE214F30409F063CF08949D
:10F9C000A11CB11CF0E0AF16F2E0BF0609F050CF69
:10F9D00001C080E0C150DF4F0FB6F894DEBF0FBE0C
:10F9E000CDBFCF91DF911F910F91FF90EF90DF90EE
:10F9F000CF90BF90AF909F908F907F906F905F90CF
:10FA00004F903F902F9008951F93CF93DF9384B72B
:10FA1000877F84BF2FE088E190E00FB6F894A89527
:10FA2000809360000FBE209360000F9495F882E0F1
:10FA30008093C00088E98093C10086E08093C20073
:10FA40001092C50088E08093C40088E390E00F9492
:10FA500083F9182FF89484E690E00F942AFB9D9A7E
:10FA600020E030E071E660E240E951E0A895809145
:10FA7000C00085FFFCCF7093C60084B3862784BB8B
:10FA800080ED97E0FA013197F1F70197D9F784B348
:10FA9000862784BB80ED97E0FA013197F1F7019753
:10FAA000D9F72F5F3F4F2230310501F788E893E106
:10FAB00020E931E0F9013197F1F70197D9F71130D9
:10FAC00051F50F940FFC882379F484B7877F84BFA6
:10FAD0002FE088E190E00FB6F894A895809360003D
:10FAE0000FBE20936000FFCF88E390E00F9483F96E
:10FAF000813089F488E390E060E00F944AF9C9E32B
:10FB0000D0E0CE016FEF0F94A2FAA895219682E083
:10FB1000C030D807B1F720E030E072E660E240E99B
:10FB200051E0A8958091C00085FFFCCF7093C6007E
:10FB300084B3862784BB80ED97E0FA013197F1F713
:10FB40000197D9F784B3862784BB80ED97E0FA014B
:10FB50003197F1F70197D9F72F5F3F4F23303105E8
:10FB600001F778941BBE81E085BF15BE0C940000A0
:10FB700080E090E0DF91CF911F910895F894FFCF3E
:040000033000F000D9
:00000001FF
