
MDP-102.elf:     file format elf32-avr

Sections:
Idx Name          Size      VMA       LMA       File off  Algn
  0 .text         0000088c  00000000  00000000  00000094  2**1
                  CONTENTS, ALLOC, LOAD, READONLY, CODE
  1 .data         00000002  00800060  0000088c  00000920  2**0
                  CONTENTS, ALLOC, LOAD, DATA
  2 .bss          000000bc  00800062  00800062  00000922  2**0
                  ALLOC
  3 .stab         00001c98  00000000  00000000  00000924  2**2
                  CONTENTS, READONLY, DEBUGGING
  4 .stabstr      000011bb  00000000  00000000  000025bc  2**0
                  CONTENTS, READONLY, DEBUGGING

Disassembly of section .text:

00000000 <__vectors>:
   0:	12 c0       	rjmp	.+36     	; 0x26 <__ctors_end>
   2:	2c c0       	rjmp	.+88     	; 0x5c <__bad_interrupt>
   4:	2b c0       	rjmp	.+86     	; 0x5c <__bad_interrupt>
   6:	2a c0       	rjmp	.+84     	; 0x5c <__bad_interrupt>
   8:	29 c0       	rjmp	.+82     	; 0x5c <__bad_interrupt>
   a:	28 c0       	rjmp	.+80     	; 0x5c <__bad_interrupt>
   c:	27 c0       	rjmp	.+78     	; 0x5c <__bad_interrupt>
   e:	26 c0       	rjmp	.+76     	; 0x5c <__bad_interrupt>
  10:	25 c0       	rjmp	.+74     	; 0x5c <__bad_interrupt>
  12:	d0 c3       	rjmp	.+1952   	; 0x7b4 <__vector_9>
  14:	23 c0       	rjmp	.+70     	; 0x5c <__bad_interrupt>
  16:	8e c0       	rjmp	.+284    	; 0x134 <__vector_11>
  18:	21 c0       	rjmp	.+66     	; 0x5c <__bad_interrupt>
  1a:	20 c0       	rjmp	.+64     	; 0x5c <__bad_interrupt>
  1c:	1f c0       	rjmp	.+62     	; 0x5c <__bad_interrupt>
  1e:	1e c0       	rjmp	.+60     	; 0x5c <__bad_interrupt>
  20:	1d c0       	rjmp	.+58     	; 0x5c <__bad_interrupt>
  22:	1c c0       	rjmp	.+56     	; 0x5c <__bad_interrupt>
  24:	1b c0       	rjmp	.+54     	; 0x5c <__bad_interrupt>

00000026 <__ctors_end>:
  26:	11 24       	eor	r1, r1
  28:	1f be       	out	0x3f, r1	; 63
  2a:	cf e5       	ldi	r28, 0x5F	; 95
  2c:	d4 e0       	ldi	r29, 0x04	; 4
  2e:	de bf       	out	0x3e, r29	; 62
  30:	cd bf       	out	0x3d, r28	; 61

00000032 <__do_copy_data>:
  32:	10 e0       	ldi	r17, 0x00	; 0
  34:	a0 e6       	ldi	r26, 0x60	; 96
  36:	b0 e0       	ldi	r27, 0x00	; 0
  38:	ec e8       	ldi	r30, 0x8C	; 140
  3a:	f8 e0       	ldi	r31, 0x08	; 8
  3c:	02 c0       	rjmp	.+4      	; 0x42 <.do_copy_data_start>

0000003e <.do_copy_data_loop>:
  3e:	05 90       	lpm	r0, Z+
  40:	0d 92       	st	X+, r0

00000042 <.do_copy_data_start>:
  42:	a2 36       	cpi	r26, 0x62	; 98
  44:	b1 07       	cpc	r27, r17
  46:	d9 f7       	brne	.-10     	; 0x3e <.do_copy_data_loop>

00000048 <__do_clear_bss>:
  48:	11 e0       	ldi	r17, 0x01	; 1
  4a:	a2 e6       	ldi	r26, 0x62	; 98
  4c:	b0 e0       	ldi	r27, 0x00	; 0
  4e:	01 c0       	rjmp	.+2      	; 0x52 <.do_clear_bss_start>

00000050 <.do_clear_bss_loop>:
  50:	1d 92       	st	X+, r1

00000052 <.do_clear_bss_start>:
  52:	ae 31       	cpi	r26, 0x1E	; 30
  54:	b1 07       	cpc	r27, r17
  56:	e1 f7       	brne	.-8      	; 0x50 <.do_clear_bss_loop>
  58:	3f d2       	rcall	.+1150   	; 0x4d8 <main>
  5a:	16 c4       	rjmp	.+2092   	; 0x888 <_exit>

0000005c <__bad_interrupt>:
  5c:	d1 cf       	rjmp	.-94     	; 0x0 <__vectors>

0000005e <MDP_SetWatchdogResetCount>:
		watchdogResetCount = eeprom_read_byte((uint8_t*)WATCHDOG_RESET_COUNT_VALUE);
	}
	return watchdogResetCount;
}

uint8 MDP_SetWatchdogResetCount(uint8 value){
  5e:	68 2f       	mov	r22, r24
	if(watchdogResetCount !=value){
  60:	80 91 61 00 	lds	r24, 0x0061
  64:	86 17       	cp	r24, r22
  66:	29 f0       	breq	.+10     	; 0x72 <MDP_SetWatchdogResetCount+0x14>
		watchdogResetCount=value;
  68:	60 93 61 00 	sts	0x0061, r22
		eeprom_write_byte((uint8_t*)WATCHDOG_RESET_COUNT_VALUE, value);
  6c:	88 ec       	ldi	r24, 0xC8	; 200
  6e:	90 e0       	ldi	r25, 0x00	; 0
  70:	fe d3       	rcall	.+2044   	; 0x86e <__eewr_byte_m8>
	}
}
  72:	08 95       	ret

00000074 <MDP_GetWatchdogResetCount>:
	}
	return isWatchdogEnabled;
}

uint8 MDP_GetWatchdogResetCount(){
	if(watchdogResetCount==255){
  74:	80 91 61 00 	lds	r24, 0x0061
  78:	8f 3f       	cpi	r24, 0xFF	; 255
  7a:	29 f4       	brne	.+10     	; 0x86 <MDP_GetWatchdogResetCount+0x12>
		watchdogResetCount = eeprom_read_byte((uint8_t*)WATCHDOG_RESET_COUNT_VALUE);
  7c:	88 ec       	ldi	r24, 0xC8	; 200
  7e:	90 e0       	ldi	r25, 0x00	; 0
  80:	ee d3       	rcall	.+2012   	; 0x85e <__eerd_byte_m8>
  82:	80 93 61 00 	sts	0x0061, r24
	}
	return watchdogResetCount;
}
  86:	80 91 61 00 	lds	r24, 0x0061
  8a:	08 95       	ret

0000008c <MDP_ProcessDimmingReq>:
	default:
		break;
	}
}

void MDP_ProcessDimmingReq(uint8 msg[], int length) {
  8c:	fc 01       	movw	r30, r24
	uint8 channelId = 0;
	uint8 dimmingLevel = 0;

	channelId = msg[11];
  8e:	83 85       	ldd	r24, Z+11	; 0x0b
	dimmingLevel = msg[12];
  90:	94 85       	ldd	r25, Z+12	; 0x0c

	if (channelId < 4)
  92:	84 30       	cpi	r24, 0x04	; 4
  94:	30 f4       	brcc	.+12     	; 0xa2 <MDP_ProcessDimmingReq+0x16>
		g_DimmingLevel[channelId] = dimmingLevel;
  96:	e8 2f       	mov	r30, r24
  98:	f0 e0       	ldi	r31, 0x00	; 0
  9a:	ee 50       	subi	r30, 0x0E	; 14
  9c:	ff 4f       	sbci	r31, 0xFF	; 255
  9e:	90 83       	st	Z, r25
  a0:	0a c0       	rjmp	.+20     	; 0xb6 <MDP_ProcessDimmingReq+0x2a>
	else if (channelId == 0xff)
  a2:	8f 3f       	cpi	r24, 0xFF	; 255
  a4:	41 f4       	brne	.+16     	; 0xb6 <MDP_ProcessDimmingReq+0x2a>
		g_DimmingLevel[0] = g_DimmingLevel[1] = g_DimmingLevel[2] =
  a6:	90 93 f5 00 	sts	0x00F5, r25
  aa:	90 93 f4 00 	sts	0x00F4, r25
  ae:	90 93 f3 00 	sts	0x00F3, r25
  b2:	90 93 f2 00 	sts	0x00F2, r25
				g_DimmingLevel[3] = dimmingLevel;
	g_TestFlag = 1;
  b6:	81 e0       	ldi	r24, 0x01	; 1
  b8:	80 93 6f 00 	sts	0x006F, r24

	PORTD ^= 0x40;
  bc:	82 b3       	in	r24, 0x12	; 18
  be:	90 e4       	ldi	r25, 0x40	; 64
  c0:	89 27       	eor	r24, r25
  c2:	82 bb       	out	0x12, r24	; 18

	if(MDP_GetWatchdogResetCount()>0)
  c4:	d7 df       	rcall	.-82     	; 0x74 <MDP_GetWatchdogResetCount>
  c6:	88 23       	and	r24, r24
  c8:	11 f0       	breq	.+4      	; 0xce <MDP_ProcessDimmingReq+0x42>
		MDP_SetWatchdogResetCount(0);
  ca:	80 e0       	ldi	r24, 0x00	; 0
  cc:	c8 df       	rcall	.-112    	; 0x5e <MDP_SetWatchdogResetCount>
  ce:	08 95       	ret

000000d0 <MDP_IsWatchdogEnable>:
	if (eeprom_read_byte((uint8_t*) WATCHDOG_ENABLE_VALUE) != isWatchdogEnabled)
		eeprom_write_byte((uint8_t*) WATCHDOG_ENABLE_VALUE, isWatchdogEnabled);
}

uint8 MDP_IsWatchdogEnable(){
	if(isWatchdogEnabled==255){
  d0:	80 91 60 00 	lds	r24, 0x0060
  d4:	8f 3f       	cpi	r24, 0xFF	; 255
  d6:	29 f4       	brne	.+10     	; 0xe2 <MDP_IsWatchdogEnable+0x12>
		isWatchdogEnabled = eeprom_read_byte((uint8_t*) WATCHDOG_ENABLE_VALUE);
  d8:	84 e6       	ldi	r24, 0x64	; 100
  da:	90 e0       	ldi	r25, 0x00	; 0
  dc:	c0 d3       	rcall	.+1920   	; 0x85e <__eerd_byte_m8>
  de:	80 93 60 00 	sts	0x0060, r24
	}
	return isWatchdogEnabled;
}
  e2:	80 91 60 00 	lds	r24, 0x0060
  e6:	08 95       	ret

000000e8 <MDP_ProcessSetWatchdogReq>:

	if(MDP_GetWatchdogResetCount()>0)
		MDP_SetWatchdogResetCount(0);
}

void MDP_ProcessSetWatchdogReq(uint8 msg[], int length) {
  e8:	1f 93       	push	r17
	isWatchdogEnabled = msg[11];
  ea:	fc 01       	movw	r30, r24
  ec:	13 85       	ldd	r17, Z+11	; 0x0b
  ee:	10 93 60 00 	sts	0x0060, r17
	if (eeprom_read_byte((uint8_t*) WATCHDOG_ENABLE_VALUE) != isWatchdogEnabled)
  f2:	84 e6       	ldi	r24, 0x64	; 100
  f4:	90 e0       	ldi	r25, 0x00	; 0
  f6:	b3 d3       	rcall	.+1894   	; 0x85e <__eerd_byte_m8>
  f8:	81 17       	cp	r24, r17
  fa:	21 f0       	breq	.+8      	; 0x104 <MDP_ProcessSetWatchdogReq+0x1c>
		eeprom_write_byte((uint8_t*) WATCHDOG_ENABLE_VALUE, isWatchdogEnabled);
  fc:	84 e6       	ldi	r24, 0x64	; 100
  fe:	90 e0       	ldi	r25, 0x00	; 0
 100:	61 2f       	mov	r22, r17
 102:	b5 d3       	rcall	.+1898   	; 0x86e <__eewr_byte_m8>
}
 104:	1f 91       	pop	r17
 106:	08 95       	ret

00000108 <MDP_ProcessMessage>:
#include "nc_protocol.h"
#include <avr/eeprom.h>

uint8 isWatchdogEnabled = 255;
uint8 watchdogResetCount=255;
void MDP_ProcessMessage(uint8 msg[], int length) {
 108:	fc 01       	movw	r30, r24
	uint8 msgType;

	msgType = msg[8];

	switch (msgType) { // Msg Type of NCP
 10a:	80 85       	ldd	r24, Z+8	; 0x08
 10c:	82 33       	cpi	r24, 0x32	; 50
 10e:	19 f0       	breq	.+6      	; 0x116 <MDP_ProcessMessage+0xe>
 110:	80 34       	cpi	r24, 0x40	; 64
 112:	31 f4       	brne	.+12     	; 0x120 <MDP_ProcessMessage+0x18>
 114:	03 c0       	rjmp	.+6      	; 0x11c <MDP_ProcessMessage+0x14>
	case PLCS_DP_REQ_DIMMING:
		MDP_ProcessDimmingReq(msg, length);
 116:	cf 01       	movw	r24, r30
 118:	b9 df       	rcall	.-142    	; 0x8c <MDP_ProcessDimmingReq>
 11a:	08 95       	ret
		break;
	case PLCS_DP_REQ_WATCHDOG:
		MDP_ProcessSetWatchdogReq(msg, length);
 11c:	cf 01       	movw	r24, r30
 11e:	e4 df       	rcall	.-56     	; 0xe8 <MDP_ProcessSetWatchdogReq>
 120:	08 95       	ret

00000122 <InitUART>:
uint8 uart_rx_len = 0;//------------------------------------------------------//



void InitUART(void) {
	UCSRA=0x00;
 122:	1b b8       	out	0x0b, r1	; 11
	UCSRB=0x90;
 124:	80 e9       	ldi	r24, 0x90	; 144
 126:	8a b9       	out	0x0a, r24	; 10
	UCSRC=0x86;
 128:	86 e8       	ldi	r24, 0x86	; 134
 12a:	80 bd       	out	0x20, r24	; 32
	UBRRH=0x00;
 12c:	10 bc       	out	0x20, r1	; 32
	UBRRL=0x33; //9600
 12e:	83 e3       	ldi	r24, 0x33	; 51
 130:	89 b9       	out	0x09, r24	; 9
}
 132:	08 95       	ret

00000134 <__vector_11>:

//--------------------- USART0 -------------------------//
//------------------------------------------------------//
uint8 status;
uint8 data;
ISR(USART_RXC_vect) {
 134:	1f 92       	push	r1
 136:	0f 92       	push	r0
 138:	0f b6       	in	r0, 0x3f	; 63
 13a:	0f 92       	push	r0
 13c:	11 24       	eor	r1, r1
 13e:	2f 93       	push	r18
 140:	8f 93       	push	r24
 142:	9f 93       	push	r25
 144:	ef 93       	push	r30
 146:	ff 93       	push	r31
	DISABLE_INTERRUPT();
 148:	f8 94       	cli
	while (((status = UCSRA) & (1 << RXC)) == 0)
 14a:	8b b1       	in	r24, 0x0b	; 11
 14c:	87 ff       	sbrs	r24, 7
 14e:	fd cf       	rjmp	.-6      	; 0x14a <__vector_11+0x16>
 150:	80 93 b1 00 	sts	0x00B1, r24
		;

	data = UDR;
 154:	2c b1       	in	r18, 0x0c	; 12
 156:	20 93 70 00 	sts	0x0070, r18

	uart_rx_buff[uart_rx_tail] = data;
 15a:	80 91 63 00 	lds	r24, 0x0063
 15e:	90 e0       	ldi	r25, 0x00	; 0
 160:	fc 01       	movw	r30, r24
 162:	ef 58       	subi	r30, 0x8F	; 143
 164:	ff 4f       	sbci	r31, 0xFF	; 255
 166:	20 83       	st	Z, r18
	uart_rx_tail = (uart_rx_tail + 1) % USART_BUFF_SIZE;
 168:	01 96       	adiw	r24, 0x01	; 1
 16a:	8f 73       	andi	r24, 0x3F	; 63
 16c:	90 70       	andi	r25, 0x00	; 0
 16e:	80 93 63 00 	sts	0x0063, r24
	uart_rx_len++;
 172:	80 91 64 00 	lds	r24, 0x0064
 176:	8f 5f       	subi	r24, 0xFF	; 255
 178:	80 93 64 00 	sts	0x0064, r24
	ENABLE_INTERRUPT();
 17c:	78 94       	sei
}
 17e:	ff 91       	pop	r31
 180:	ef 91       	pop	r30
 182:	9f 91       	pop	r25
 184:	8f 91       	pop	r24
 186:	2f 91       	pop	r18
 188:	0f 90       	pop	r0
 18a:	0f be       	out	0x3f, r0	; 63
 18c:	0f 90       	pop	r0
 18e:	1f 90       	pop	r1
 190:	18 95       	reti

00000192 <USART_Receive>:

//------------------------------------------------------//

//------------------------------------------------------//
int USART_Receive(uint8 *buff) {
 192:	dc 01       	movw	r26, r24

	DISABLE_INTERRUPT();
 194:	f8 94       	cli

	if (uart_rx_len > 0) {
 196:	80 91 64 00 	lds	r24, 0x0064
 19a:	88 23       	and	r24, r24
 19c:	b1 f0       	breq	.+44     	; 0x1ca <USART_Receive+0x38>
		uart_rx_len--;
 19e:	81 50       	subi	r24, 0x01	; 1
 1a0:	80 93 64 00 	sts	0x0064, r24
		ENABLE_INTERRUPT();
 1a4:	78 94       	sei
		*buff = uart_rx_buff[uart_rx_front];
 1a6:	e0 91 62 00 	lds	r30, 0x0062
 1aa:	f0 e0       	ldi	r31, 0x00	; 0
 1ac:	ef 58       	subi	r30, 0x8F	; 143
 1ae:	ff 4f       	sbci	r31, 0xFF	; 255
 1b0:	80 81       	ld	r24, Z
 1b2:	8c 93       	st	X, r24
		uart_rx_front = (uart_rx_front + 1) % USART_BUFF_SIZE;
 1b4:	80 91 62 00 	lds	r24, 0x0062
 1b8:	90 e0       	ldi	r25, 0x00	; 0
 1ba:	01 96       	adiw	r24, 0x01	; 1
 1bc:	8f 73       	andi	r24, 0x3F	; 63
 1be:	90 70       	andi	r25, 0x00	; 0
 1c0:	80 93 62 00 	sts	0x0062, r24
 1c4:	21 e0       	ldi	r18, 0x01	; 1
 1c6:	30 e0       	ldi	r19, 0x00	; 0
 1c8:	03 c0       	rjmp	.+6      	; 0x1d0 <USART_Receive+0x3e>

		return 1;
	}

	ENABLE_INTERRUPT();
 1ca:	78 94       	sei
 1cc:	20 e0       	ldi	r18, 0x00	; 0
 1ce:	30 e0       	ldi	r19, 0x00	; 0

	return 0;
}
 1d0:	c9 01       	movw	r24, r18
 1d2:	08 95       	ret

000001d4 <USART_Transmit>:

int USART_Transmit(uint8 buff) {
	while ((UCSRA & (1 << UDRE)) == 0)
 1d4:	5d 9b       	sbis	0x0b, 5	; 11
 1d6:	fe cf       	rjmp	.-4      	; 0x1d4 <USART_Transmit>
		;
	// tx isr.

	UDR = buff;
 1d8:	8c b9       	out	0x0c, r24	; 12
	return 1;
}
 1da:	81 e0       	ldi	r24, 0x01	; 1
 1dc:	90 e0       	ldi	r25, 0x00	; 0
 1de:	08 95       	ret

000001e0 <XNetHandler>:
#include <string.h>
#include "NC_Protocol.h"
#include "Xcps.h"
#include "MD_Protocol.h"

uint8 XNetHandler(uint8 buff[], int buff_length) {
 1e0:	fc 01       	movw	r30, r24
	uint8 pid;
	uint8 subPid;

	pid = buff[0];
	subPid = buff[1];
 1e2:	91 81       	ldd	r25, Z+1	; 0x01

	switch (pid) {
 1e4:	80 81       	ld	r24, Z
 1e6:	80 38       	cpi	r24, 0x80	; 128
 1e8:	21 f4       	brne	.+8      	; 0x1f2 <XNetHandler+0x12>
	case NCP_PROTOCOL_ID: {
		switch (subPid) {
 1ea:	91 31       	cpi	r25, 0x11	; 17
 1ec:	11 f4       	brne	.+4      	; 0x1f2 <XNetHandler+0x12>
		case PLCS_DP_PROTOCOL_ID:
			MDP_ProcessMessage(buff, buff_length);
 1ee:	cf 01       	movw	r24, r30
 1f0:	8b df       	rcall	.-234    	; 0x108 <MDP_ProcessMessage>
	default:
		break;
	}

	return 1;
}
 1f2:	81 e0       	ldi	r24, 0x01	; 1
 1f4:	08 95       	ret

000001f6 <xcps_init>:

/**

 **/
int xcps_init(usart_getter getter, usart_putter putter) {
	xcps_getter = getter;
 1f6:	90 93 6a 00 	sts	0x006A, r25
 1fa:	80 93 69 00 	sts	0x0069, r24
	xcps_putter = putter;
 1fe:	70 93 6e 00 	sts	0x006E, r23
 202:	60 93 6d 00 	sts	0x006D, r22

	return 0;
}
 206:	80 e0       	ldi	r24, 0x00	; 0
 208:	90 e0       	ldi	r25, 0x00	; 0
 20a:	08 95       	ret

0000020c <xcps_recv>:

int xcps_recv(uint8 *buff, int buff_length) {
 20c:	0f 93       	push	r16
 20e:	1f 93       	push	r17
 210:	df 93       	push	r29
 212:	cf 93       	push	r28
 214:	0f 92       	push	r0
 216:	cd b7       	in	r28, 0x3d	; 61
 218:	de b7       	in	r29, 0x3e	; 62
 21a:	8c 01       	movw	r16, r24
	uint8 temp;
	int i;
	int checkSum = 0;

	// check getter.
	if (!xcps_getter)
 21c:	e0 91 69 00 	lds	r30, 0x0069
 220:	f0 91 6a 00 	lds	r31, 0x006A
 224:	30 97       	sbiw	r30, 0x00	; 0
 226:	19 f4       	brne	.+6      	; 0x22e <xcps_recv+0x22>
 228:	2f ef       	ldi	r18, 0xFF	; 255
 22a:	3f ef       	ldi	r19, 0xFF	; 255
 22c:	ac c0       	rjmp	.+344    	; 0x386 <xcps_recv+0x17a>
		return -1;

	if (xcps_getter(&temp) < 1)
 22e:	ce 01       	movw	r24, r28
 230:	01 96       	adiw	r24, 0x01	; 1
 232:	09 95       	icall
 234:	18 16       	cp	r1, r24
 236:	19 06       	cpc	r1, r25
 238:	0c f0       	brlt	.+2      	; 0x23c <xcps_recv+0x30>
 23a:	a3 c0       	rjmp	.+326    	; 0x382 <xcps_recv+0x176>
		return 0;

	if (xcps_rxlen >= XCPS_MAX_PDU)
 23c:	20 91 65 00 	lds	r18, 0x0065
 240:	30 91 66 00 	lds	r19, 0x0066
 244:	20 34       	cpi	r18, 0x40	; 64
 246:	31 05       	cpc	r19, r1
 248:	24 f0       	brlt	.+8      	; 0x252 <xcps_recv+0x46>
		xcps_state = 0;
 24a:	10 92 6c 00 	sts	0x006C, r1
 24e:	10 92 6b 00 	sts	0x006B, r1

	switch (xcps_state) {
 252:	80 91 6b 00 	lds	r24, 0x006B
 256:	90 91 6c 00 	lds	r25, 0x006C
 25a:	82 30       	cpi	r24, 0x02	; 2
 25c:	91 05       	cpc	r25, r1
 25e:	09 f4       	brne	.+2      	; 0x262 <xcps_recv+0x56>
 260:	46 c0       	rjmp	.+140    	; 0x2ee <xcps_recv+0xe2>
 262:	83 30       	cpi	r24, 0x03	; 3
 264:	91 05       	cpc	r25, r1
 266:	34 f4       	brge	.+12     	; 0x274 <xcps_recv+0x68>
 268:	00 97       	sbiw	r24, 0x00	; 0
 26a:	b1 f0       	breq	.+44     	; 0x298 <xcps_recv+0x8c>
 26c:	01 97       	sbiw	r24, 0x01	; 1
 26e:	09 f0       	breq	.+2      	; 0x272 <xcps_recv+0x66>
 270:	84 c0       	rjmp	.+264    	; 0x37a <xcps_recv+0x16e>
 272:	27 c0       	rjmp	.+78     	; 0x2c2 <xcps_recv+0xb6>
 274:	83 30       	cpi	r24, 0x03	; 3
 276:	91 05       	cpc	r25, r1
 278:	21 f0       	breq	.+8      	; 0x282 <xcps_recv+0x76>
 27a:	04 97       	sbiw	r24, 0x04	; 4
 27c:	09 f0       	breq	.+2      	; 0x280 <xcps_recv+0x74>
 27e:	7d c0       	rjmp	.+250    	; 0x37a <xcps_recv+0x16e>
 280:	61 c0       	rjmp	.+194    	; 0x344 <xcps_recv+0x138>
			xcps_state = 3;

		break;

	case 3: // data end, check checksum.
		for (i = 2; i < (2 + xcps_pdu_len); i++)
 282:	60 91 67 00 	lds	r22, 0x0067
 286:	70 91 68 00 	lds	r23, 0x0068
 28a:	6f 5f       	subi	r22, 0xFF	; 255
 28c:	7f 4f       	sbci	r23, 0xFF	; 255
 28e:	22 e0       	ldi	r18, 0x02	; 2
 290:	30 e0       	ldi	r19, 0x00	; 0
 292:	40 e0       	ldi	r20, 0x00	; 0
 294:	50 e0       	ldi	r21, 0x00	; 0
 296:	49 c0       	rjmp	.+146    	; 0x32a <xcps_recv+0x11e>
	if (xcps_rxlen >= XCPS_MAX_PDU)
		xcps_state = 0;

	switch (xcps_state) {
	case 0:
		xcps_rxlen = 0;
 298:	10 92 66 00 	sts	0x0066, r1
 29c:	10 92 65 00 	sts	0x0065, r1

		if (temp == ZS_SFLAG) {
 2a0:	29 81       	ldd	r18, Y+1	; 0x01
 2a2:	2a 3f       	cpi	r18, 0xFA	; 250
 2a4:	09 f0       	breq	.+2      	; 0x2a8 <xcps_recv+0x9c>
 2a6:	6d c0       	rjmp	.+218    	; 0x382 <xcps_recv+0x176>
			xcps_state = 1;
 2a8:	81 e0       	ldi	r24, 0x01	; 1
 2aa:	90 e0       	ldi	r25, 0x00	; 0
 2ac:	90 93 6c 00 	sts	0x006C, r25
 2b0:	80 93 6b 00 	sts	0x006B, r24
			xcps_rx_packet[xcps_rxlen++] = temp;
 2b4:	20 93 b2 00 	sts	0x00B2, r18
 2b8:	90 93 66 00 	sts	0x0066, r25
 2bc:	80 93 65 00 	sts	0x0065, r24
 2c0:	60 c0       	rjmp	.+192    	; 0x382 <xcps_recv+0x176>
			// don't change state, keep find start flag.
		}
		break;

	case 1: // found start flag
		xcps_rx_packet[xcps_rxlen++] = temp;
 2c2:	89 81       	ldd	r24, Y+1	; 0x01
 2c4:	f9 01       	movw	r30, r18
 2c6:	ee 54       	subi	r30, 0x4E	; 78
 2c8:	ff 4f       	sbci	r31, 0xFF	; 255
 2ca:	80 83       	st	Z, r24
 2cc:	2f 5f       	subi	r18, 0xFF	; 255
 2ce:	3f 4f       	sbci	r19, 0xFF	; 255
 2d0:	30 93 66 00 	sts	0x0066, r19
 2d4:	20 93 65 00 	sts	0x0065, r18
		xcps_state = 2;
 2d8:	22 e0       	ldi	r18, 0x02	; 2
 2da:	30 e0       	ldi	r19, 0x00	; 0
 2dc:	30 93 6c 00 	sts	0x006C, r19
 2e0:	20 93 6b 00 	sts	0x006B, r18
		xcps_pdu_len = temp;
 2e4:	80 93 67 00 	sts	0x0067, r24
 2e8:	10 92 68 00 	sts	0x0068, r1
 2ec:	4a c0       	rjmp	.+148    	; 0x382 <xcps_recv+0x176>

		break;

	case 2: // found length
		// fill data.
		xcps_rx_packet[xcps_rxlen++] = temp;
 2ee:	f9 01       	movw	r30, r18
 2f0:	ee 54       	subi	r30, 0x4E	; 78
 2f2:	ff 4f       	sbci	r31, 0xFF	; 255
 2f4:	89 81       	ldd	r24, Y+1	; 0x01
 2f6:	80 83       	st	Z, r24
 2f8:	2f 5f       	subi	r18, 0xFF	; 255
 2fa:	3f 4f       	sbci	r19, 0xFF	; 255
 2fc:	30 93 66 00 	sts	0x0066, r19
 300:	20 93 65 00 	sts	0x0065, r18

		// check length.
		if (xcps_rxlen >= (2 + xcps_pdu_len))
 304:	80 91 67 00 	lds	r24, 0x0067
 308:	90 91 68 00 	lds	r25, 0x0068
 30c:	01 96       	adiw	r24, 0x01	; 1
 30e:	82 17       	cp	r24, r18
 310:	93 07       	cpc	r25, r19
 312:	bc f5       	brge	.+110    	; 0x382 <xcps_recv+0x176>
			xcps_state = 3;
 314:	83 e0       	ldi	r24, 0x03	; 3
 316:	90 e0       	ldi	r25, 0x00	; 0
 318:	10 c0       	rjmp	.+32     	; 0x33a <xcps_recv+0x12e>

		break;

	case 3: // data end, check checksum.
		for (i = 2; i < (2 + xcps_pdu_len); i++)
			checkSum += (xcps_rx_packet[i] & 0xFF);
 31a:	f9 01       	movw	r30, r18
 31c:	ee 54       	subi	r30, 0x4E	; 78
 31e:	ff 4f       	sbci	r31, 0xFF	; 255
 320:	80 81       	ld	r24, Z
 322:	48 0f       	add	r20, r24
 324:	51 1d       	adc	r21, r1
			xcps_state = 3;

		break;

	case 3: // data end, check checksum.
		for (i = 2; i < (2 + xcps_pdu_len); i++)
 326:	2f 5f       	subi	r18, 0xFF	; 255
 328:	3f 4f       	sbci	r19, 0xFF	; 255
 32a:	62 17       	cp	r22, r18
 32c:	73 07       	cpc	r23, r19
 32e:	ac f7       	brge	.-22     	; 0x31a <xcps_recv+0x10e>
			checkSum += (xcps_rx_packet[i] & 0xFF);

		if (temp == (uint8) checkSum) // Checksum ok.
 330:	89 81       	ldd	r24, Y+1	; 0x01
 332:	84 17       	cp	r24, r20
 334:	11 f5       	brne	.+68     	; 0x37a <xcps_recv+0x16e>
			xcps_state = 4;
 336:	84 e0       	ldi	r24, 0x04	; 4
 338:	90 e0       	ldi	r25, 0x00	; 0
 33a:	90 93 6c 00 	sts	0x006C, r25
 33e:	80 93 6b 00 	sts	0x006B, r24
 342:	1f c0       	rjmp	.+62     	; 0x382 <xcps_recv+0x176>
		else
			xcps_state = 0;
		break;

	case 4:
		if (temp == ZS_EFLAG) {
 344:	89 81       	ldd	r24, Y+1	; 0x01
 346:	8f 3a       	cpi	r24, 0xAF	; 175
 348:	c1 f4       	brne	.+48     	; 0x37a <xcps_recv+0x16e>
			xcps_state = 0;
 34a:	10 92 6c 00 	sts	0x006C, r1
 34e:	10 92 6b 00 	sts	0x006B, r1
 352:	a4 eb       	ldi	r26, 0xB4	; 180
 354:	b0 e0       	ldi	r27, 0x00	; 0
 356:	40 e0       	ldi	r20, 0x00	; 0
 358:	50 e0       	ldi	r21, 0x00	; 0
 35a:	07 c0       	rjmp	.+14     	; 0x36a <xcps_recv+0x15e>

			// return data to caller.
			for (i = 0; i < xcps_pdu_len; i++)
				buff[i] = xcps_rx_packet[2 + i];
 35c:	f8 01       	movw	r30, r16
 35e:	e4 0f       	add	r30, r20
 360:	f5 1f       	adc	r31, r21
 362:	8d 91       	ld	r24, X+
 364:	80 83       	st	Z, r24
	case 4:
		if (temp == ZS_EFLAG) {
			xcps_state = 0;

			// return data to caller.
			for (i = 0; i < xcps_pdu_len; i++)
 366:	4f 5f       	subi	r20, 0xFF	; 255
 368:	5f 4f       	sbci	r21, 0xFF	; 255
 36a:	20 91 67 00 	lds	r18, 0x0067
 36e:	30 91 68 00 	lds	r19, 0x0068
 372:	42 17       	cp	r20, r18
 374:	53 07       	cpc	r21, r19
 376:	94 f3       	brlt	.-28     	; 0x35c <xcps_recv+0x150>
 378:	06 c0       	rjmp	.+12     	; 0x386 <xcps_recv+0x17a>
		}
		break;

	default:
		// if you here, something wrong. --> recover to state 0.
		xcps_state = 0;
 37a:	10 92 6c 00 	sts	0x006C, r1
 37e:	10 92 6b 00 	sts	0x006B, r1
 382:	20 e0       	ldi	r18, 0x00	; 0
 384:	30 e0       	ldi	r19, 0x00	; 0
		break;
	}
	return 0;
}
 386:	c9 01       	movw	r24, r18
 388:	0f 90       	pop	r0
 38a:	cf 91       	pop	r28
 38c:	df 91       	pop	r29
 38e:	1f 91       	pop	r17
 390:	0f 91       	pop	r16
 392:	08 95       	ret

00000394 <xcps_getOriginalCode>:

int xcps_getOriginalCode(uint8 *resultBuff, uint8 *buff, int buff_length) {
 394:	0f 93       	push	r16
 396:	1f 93       	push	r17
 398:	a0 e0       	ldi	r26, 0x00	; 0
 39a:	b0 e0       	ldi	r27, 0x00	; 0
			if (buff[i + 1] == 0xFF)
				resultBuff[resultLen++] = 0xFF;
			else if (buff[i + 1] == 0x01)
				resultBuff[resultLen++] = 0xFA;
			else if (buff[i + 1] == 0x02)
				resultBuff[resultLen++] = 0xAF;
 39c:	0f ea       	ldi	r16, 0xAF	; 175
	for (i = 0; i < buff_length; i++) {
		if (buff[i] == 0xFF) {
			if (buff[i + 1] == 0xFF)
				resultBuff[resultLen++] = 0xFF;
			else if (buff[i + 1] == 0x01)
				resultBuff[resultLen++] = 0xFA;
 39e:	1a ef       	ldi	r17, 0xFA	; 250
 3a0:	24 c0       	rjmp	.+72     	; 0x3ea <xcps_getOriginalCode+0x56>

int xcps_getOriginalCode(uint8 *resultBuff, uint8 *buff, int buff_length) {
	unsigned char resultLen = 0;
	unsigned char i = 0;
	for (i = 0; i < buff_length; i++) {
		if (buff[i] == 0xFF) {
 3a2:	fb 01       	movw	r30, r22
 3a4:	e2 0f       	add	r30, r18
 3a6:	f3 1f       	adc	r31, r19
 3a8:	20 81       	ld	r18, Z
 3aa:	2f 3f       	cpi	r18, 0xFF	; 255
 3ac:	c1 f4       	brne	.+48     	; 0x3de <xcps_getOriginalCode+0x4a>
			if (buff[i + 1] == 0xFF)
 3ae:	21 81       	ldd	r18, Z+1	; 0x01
 3b0:	2f 3f       	cpi	r18, 0xFF	; 255
 3b2:	29 f4       	brne	.+10     	; 0x3be <xcps_getOriginalCode+0x2a>
				resultBuff[resultLen++] = 0xFF;
 3b4:	fc 01       	movw	r30, r24
 3b6:	ea 0f       	add	r30, r26
 3b8:	f1 1d       	adc	r31, r1
 3ba:	20 83       	st	Z, r18
 3bc:	0d c0       	rjmp	.+26     	; 0x3d8 <xcps_getOriginalCode+0x44>
			else if (buff[i + 1] == 0x01)
 3be:	21 30       	cpi	r18, 0x01	; 1
 3c0:	29 f4       	brne	.+10     	; 0x3cc <xcps_getOriginalCode+0x38>
				resultBuff[resultLen++] = 0xFA;
 3c2:	fc 01       	movw	r30, r24
 3c4:	ea 0f       	add	r30, r26
 3c6:	f1 1d       	adc	r31, r1
 3c8:	10 83       	st	Z, r17
 3ca:	06 c0       	rjmp	.+12     	; 0x3d8 <xcps_getOriginalCode+0x44>
			else if (buff[i + 1] == 0x02)
 3cc:	22 30       	cpi	r18, 0x02	; 2
 3ce:	29 f4       	brne	.+10     	; 0x3da <xcps_getOriginalCode+0x46>
				resultBuff[resultLen++] = 0xAF;
 3d0:	fc 01       	movw	r30, r24
 3d2:	ea 0f       	add	r30, r26
 3d4:	f1 1d       	adc	r31, r1
 3d6:	00 83       	st	Z, r16
 3d8:	af 5f       	subi	r26, 0xFF	; 255
			i++;
 3da:	bf 5f       	subi	r27, 0xFF	; 255
 3dc:	05 c0       	rjmp	.+10     	; 0x3e8 <xcps_getOriginalCode+0x54>
		} else
			resultBuff[resultLen++] = buff[i];
 3de:	fc 01       	movw	r30, r24
 3e0:	ea 0f       	add	r30, r26
 3e2:	f1 1d       	adc	r31, r1
 3e4:	20 83       	st	Z, r18
 3e6:	af 5f       	subi	r26, 0xFF	; 255
}

int xcps_getOriginalCode(uint8 *resultBuff, uint8 *buff, int buff_length) {
	unsigned char resultLen = 0;
	unsigned char i = 0;
	for (i = 0; i < buff_length; i++) {
 3e8:	bf 5f       	subi	r27, 0xFF	; 255
 3ea:	2b 2f       	mov	r18, r27
 3ec:	30 e0       	ldi	r19, 0x00	; 0
 3ee:	24 17       	cp	r18, r20
 3f0:	35 07       	cpc	r19, r21
 3f2:	bc f2       	brlt	.-82     	; 0x3a2 <xcps_getOriginalCode+0xe>
			i++;
		} else
			resultBuff[resultLen++] = buff[i];
	}
	return resultLen;
}
 3f4:	8a 2f       	mov	r24, r26
 3f6:	90 e0       	ldi	r25, 0x00	; 0
 3f8:	1f 91       	pop	r17
 3fa:	0f 91       	pop	r16
 3fc:	08 95       	ret

000003fe <xcps_getTrnalatedCode>:
int xcps_getTrnalatedCode(uint8 *resultBuff, uint8 *buff, int buff_length) {
 3fe:	0f 93       	push	r16
 400:	1f 93       	push	r17
 402:	9c 01       	movw	r18, r24
 404:	80 e0       	ldi	r24, 0x00	; 0
 406:	a0 e0       	ldi	r26, 0x00	; 0
	for (i = 0; i < buff_length; i++) {
		if (buff[i] == 0xFA) {
			resultBuff[resultLen++] = 0xFF;
			resultBuff[resultLen++] = 0x01;
		} else if (buff[i] == 0xAF) {
			resultBuff[resultLen++] = 0xFF;
 408:	bf ef       	ldi	r27, 0xFF	; 255
			resultBuff[resultLen++] = 0x02;
 40a:	02 e0       	ldi	r16, 0x02	; 2
	unsigned char resultLen = 0;
	unsigned char i = 0;
	for (i = 0; i < buff_length; i++) {
		if (buff[i] == 0xFA) {
			resultBuff[resultLen++] = 0xFF;
			resultBuff[resultLen++] = 0x01;
 40c:	11 e0       	ldi	r17, 0x01	; 1
 40e:	2d c0       	rjmp	.+90     	; 0x46a <__stack+0xb>
}
int xcps_getTrnalatedCode(uint8 *resultBuff, uint8 *buff, int buff_length) {
	unsigned char resultLen = 0;
	unsigned char i = 0;
	for (i = 0; i < buff_length; i++) {
		if (buff[i] == 0xFA) {
 410:	e6 0f       	add	r30, r22
 412:	f7 1f       	adc	r31, r23
 414:	90 81       	ld	r25, Z
 416:	9a 3f       	cpi	r25, 0xFA	; 250
 418:	51 f4       	brne	.+20     	; 0x42e <xcps_getTrnalatedCode+0x30>
			resultBuff[resultLen++] = 0xFF;
 41a:	f9 01       	movw	r30, r18
 41c:	e8 0f       	add	r30, r24
 41e:	f1 1d       	adc	r31, r1
 420:	b0 83       	st	Z, r27
 422:	8f 5f       	subi	r24, 0xFF	; 255
			resultBuff[resultLen++] = 0x01;
 424:	f9 01       	movw	r30, r18
 426:	e8 0f       	add	r30, r24
 428:	f1 1d       	adc	r31, r1
 42a:	10 83       	st	Z, r17
 42c:	0b c0       	rjmp	.+22     	; 0x444 <xcps_getTrnalatedCode+0x46>
		} else if (buff[i] == 0xAF) {
 42e:	9f 3a       	cpi	r25, 0xAF	; 175
 430:	59 f4       	brne	.+22     	; 0x448 <xcps_getTrnalatedCode+0x4a>
			resultBuff[resultLen++] = 0xFF;
 432:	f9 01       	movw	r30, r18
 434:	e8 0f       	add	r30, r24
 436:	f1 1d       	adc	r31, r1
 438:	b0 83       	st	Z, r27
 43a:	8f 5f       	subi	r24, 0xFF	; 255
			resultBuff[resultLen++] = 0x02;
 43c:	f9 01       	movw	r30, r18
 43e:	e8 0f       	add	r30, r24
 440:	f1 1d       	adc	r31, r1
 442:	00 83       	st	Z, r16
 444:	8f 5f       	subi	r24, 0xFF	; 255
 446:	10 c0       	rjmp	.+32     	; 0x468 <__stack+0x9>
 448:	e8 2f       	mov	r30, r24
 44a:	f0 e0       	ldi	r31, 0x00	; 0
 44c:	8f 5f       	subi	r24, 0xFF	; 255
		} else if (buff[i] == 0xFF) {
 44e:	9f 3f       	cpi	r25, 0xFF	; 255
 450:	41 f4       	brne	.+16     	; 0x462 <__stack+0x3>
			resultBuff[resultLen++] = 0xFF;
 452:	e2 0f       	add	r30, r18
 454:	f3 1f       	adc	r31, r19
 456:	90 83       	st	Z, r25
			resultBuff[resultLen++] = 0xFF;
 458:	f9 01       	movw	r30, r18
 45a:	e8 0f       	add	r30, r24
 45c:	f1 1d       	adc	r31, r1
 45e:	90 83       	st	Z, r25
 460:	f1 cf       	rjmp	.-30     	; 0x444 <xcps_getTrnalatedCode+0x46>
		} else
			resultBuff[resultLen++] = buff[i];
 462:	e2 0f       	add	r30, r18
 464:	f3 1f       	adc	r31, r19
 466:	90 83       	st	Z, r25
	return resultLen;
}
int xcps_getTrnalatedCode(uint8 *resultBuff, uint8 *buff, int buff_length) {
	unsigned char resultLen = 0;
	unsigned char i = 0;
	for (i = 0; i < buff_length; i++) {
 468:	af 5f       	subi	r26, 0xFF	; 255
 46a:	ea 2f       	mov	r30, r26
 46c:	f0 e0       	ldi	r31, 0x00	; 0
 46e:	e4 17       	cp	r30, r20
 470:	f5 07       	cpc	r31, r21
 472:	74 f2       	brlt	.-100    	; 0x410 <xcps_getTrnalatedCode+0x12>
			resultBuff[resultLen++] = 0xFF;
		} else
			resultBuff[resultLen++] = buff[i];
	}
	return resultLen;
}
 474:	90 e0       	ldi	r25, 0x00	; 0
 476:	1f 91       	pop	r17
 478:	0f 91       	pop	r16
 47a:	08 95       	ret

0000047c <_WDR>:
//	functions
//
void _WDR() {
	int i = 0;

	WDTCR = 0x18;
 47c:	88 e1       	ldi	r24, 0x18	; 24
 47e:	81 bd       	out	0x21, r24	; 33
	WDTCR = 0x00;
 480:	11 bc       	out	0x21, r1	; 33
	for (i = 0; i < 5; i++)
		;

	WDTCR = 0x18;
 482:	81 bd       	out	0x21, r24	; 33
	WDTCR = 0x0F;
 484:	8f e0       	ldi	r24, 0x0F	; 15
 486:	81 bd       	out	0x21, r24	; 33
	for (i = 0; i < 5; i++)
		;
}
 488:	08 95       	ret

0000048a <delay>:
void at8_init(void);

void delay(long t) {
	while (t--)
		;
}
 48a:	08 95       	ret

0000048c <at8_init>:

//-----------------------------------------------------------------------------
//
void at8_init(void) {
	//-------------------------------
	PORTB = 0x3F;
 48c:	8f e3       	ldi	r24, 0x3F	; 63
 48e:	88 bb       	out	0x18, r24	; 24
	DDRB = 0x00;
 490:	17 ba       	out	0x17, r1	; 23
	PORTC = 0x00;
 492:	15 ba       	out	0x15, r1	; 21
	DDRC = 0x00;
 494:	14 ba       	out	0x14, r1	; 20
	// dip switch
	// 	: PD5(8Digit)-?, PD6(4Digit)-?, PD7(2Digit)-I, PB0(1Digit)-I
	// dmx512
	// 	: PD0(UART)-I,
	//
	PORTB = 0x02;
 496:	92 e0       	ldi	r25, 0x02	; 2
 498:	98 bb       	out	0x18, r25	; 24
	DDRB = 0x02;
 49a:	97 bb       	out	0x17, r25	; 23
	PORTC = 0x1E;
 49c:	8e e1       	ldi	r24, 0x1E	; 30
 49e:	85 bb       	out	0x15, r24	; 21
	DDRC &= ~(0x1E);
 4a0:	84 b3       	in	r24, 0x14	; 20
 4a2:	81 7e       	andi	r24, 0xE1	; 225
 4a4:	84 bb       	out	0x14, r24	; 20

	DDRD = 0x60;
 4a6:	80 e6       	ldi	r24, 0x60	; 96
 4a8:	81 bb       	out	0x11, r24	; 17

	//-------------------------------
	// Timer/Counter 0 initialization
	// Clock source: System Clock
	// Clock value: 15.625 kHz
	TCCR0 = 0x05;
 4aa:	85 e0       	ldi	r24, 0x05	; 5
 4ac:	83 bf       	out	0x33, r24	; 51
//	TCNT0=0x69;
	TCNT0 = 0xF0;
 4ae:	80 ef       	ldi	r24, 0xF0	; 240
 4b0:	82 bf       	out	0x32, r24	; 50
	// Input Capture on Falling Edge
	// Timer 1 Overflow Interrupt: Off
	// Input Capture Interrupt: Off
	// Compare A Match Interrupt: Off
	// Compare B Match Interrupt: Off
	TCCR1A = 0xA1; // 0xA2: 9 bit. top=0x01FF., 0xA1: 8 bit. top=0x00FF.
 4b2:	81 ea       	ldi	r24, 0xA1	; 161
 4b4:	8f bd       	out	0x2f, r24	; 47
	TCCR1B = 0x02; // no prescaling, 2=1/8 prescale, 3=1/64 prescale, ...
 4b6:	9e bd       	out	0x2e, r25	; 46
	TCNT1H = 0x00; // initial counting value
 4b8:	1d bc       	out	0x2d, r1	; 45
	TCNT1L = 0x00;
 4ba:	1c bc       	out	0x2c, r1	; 44
	ICR1H = 0x00;
 4bc:	17 bc       	out	0x27, r1	; 39
	ICR1L = 0x00; //0x00;
 4be:	16 bc       	out	0x26, r1	; 38
	OCR1AH = 0x00;
 4c0:	1b bc       	out	0x2b, r1	; 43
	OCR1AL = 0x00; //0x00; (A-port) dimming control value. (initial value)
 4c2:	1a bc       	out	0x2a, r1	; 42
	OCR1BH = 0x00;
 4c4:	19 bc       	out	0x29, r1	; 41
	OCR1BL = 0x00; //0x00; (B-port) dimming control value. (initial value)
 4c6:	18 bc       	out	0x28, r1	; 40
	// Timer/Counter 2 initialization
	// Clock source: System Clock
	// Clock value: Timer 2 Stopped
	// Mode: Normal top=FFh
	// OC2 output: Disconnected
	ASSR = 0x00;
 4c8:	12 bc       	out	0x22, r1	; 34
	TCCR2 = 0x00;
 4ca:	15 bc       	out	0x25, r1	; 37
	TCNT2 = 0x00;
 4cc:	14 bc       	out	0x24, r1	; 36
	OCR2 = 0x00;
 4ce:	13 bc       	out	0x23, r1	; 35

	// External Interrupt(s) initialization
	// INT0: Off
	// INT1: Off
	MCUCR = 0x00;
 4d0:	15 be       	out	0x35, r1	; 53

	// Timer(s)/Counter(s) Interrupt(s) initialization
	TIMSK = 0x01;
 4d2:	81 e0       	ldi	r24, 0x01	; 1
 4d4:	89 bf       	out	0x39, r24	; 57
}
 4d6:	08 95       	ret

000004d8 <main>:
}

uint8 g_DimmingLevel[4];
uint8 g_TestFlag = 0;

int main() {
 4d8:	cf 92       	push	r12
 4da:	df 92       	push	r13
 4dc:	ef 92       	push	r14
 4de:	ff 92       	push	r15
 4e0:	0f 93       	push	r16
 4e2:	1f 93       	push	r17
 4e4:	df 93       	push	r29
 4e6:	cf 93       	push	r28
 4e8:	cd b7       	in	r28, 0x3d	; 61
 4ea:	de b7       	in	r29, 0x3e	; 62
 4ec:	c1 54       	subi	r28, 0x41	; 65
 4ee:	d0 40       	sbci	r29, 0x00	; 0
 4f0:	0f b6       	in	r0, 0x3f	; 63
 4f2:	f8 94       	cli
 4f4:	de bf       	out	0x3e, r29	; 62
 4f6:	0f be       	out	0x3f, r0	; 63
 4f8:	cd bf       	out	0x3d, r28	; 61
 4fa:	80 e2       	ldi	r24, 0x20	; 32
 4fc:	9e e4       	ldi	r25, 0x4E	; 78
    milliseconds can be achieved.
 */
void
_delay_loop_2(uint16_t __count)
{
	__asm__ volatile (
 4fe:	28 ec       	ldi	r18, 0xC8	; 200
 500:	30 e0       	ldi	r19, 0x00	; 0
 502:	f9 01       	movw	r30, r18
 504:	31 97       	sbiw	r30, 0x01	; 1
 506:	f1 f7       	brne	.-4      	; 0x504 <main+0x2c>
		__ticks = (uint16_t) (__ms * 10.0);
		while(__ticks)
		{
			// wait 1/10 ms
			_delay_loop_2(((F_CPU) / 4e3) / 10);
			__ticks --;
 508:	01 97       	sbiw	r24, 0x01	; 1
		__ticks = 1;
	else if (__tmp > 65535)
	{
		//	__ticks = requested delay in 1/10 ms
		__ticks = (uint16_t) (__ms * 10.0);
		while(__ticks)
 50a:	d9 f7       	brne	.-10     	; 0x502 <main+0x2a>
	uint8 UsartPacket[64];

	MSLEEP(2000);

	//
	_WDR();
 50c:	b7 df       	rcall	.-146    	; 0x47c <_WDR>

	//
	at8_init();
 50e:	be df       	rcall	.-132    	; 0x48c <at8_init>

	// init system timer. (using TIM0)
	timer_init();
 510:	3e d1       	rcall	.+636    	; 0x78e <timer_init>

	asm("sei");
 512:	78 94       	sei
	// Global enable interrupts

	_WDR();
 514:	b3 df       	rcall	.-154    	; 0x47c <_WDR>

	// initialize dmx driver
	InitUART();
 516:	05 de       	rcall	.-1014   	; 0x122 <InitUART>
	xcps_init(USART_Receive, USART_Transmit);
 518:	89 ec       	ldi	r24, 0xC9	; 201
 51a:	90 e0       	ldi	r25, 0x00	; 0
 51c:	6a ee       	ldi	r22, 0xEA	; 234
 51e:	70 e0       	ldi	r23, 0x00	; 0
 520:	6a de       	rcall	.-812    	; 0x1f6 <xcps_init>

	// initialize dmx buffer, dmxID = 0
	g_DimmingLevel[0] = g_DimmingLevel[1] = g_DimmingLevel[2] =	g_DimmingLevel[3] = 0xff;
 522:	8f ef       	ldi	r24, 0xFF	; 255
 524:	80 93 f5 00 	sts	0x00F5, r24
 528:	80 93 f4 00 	sts	0x00F4, r24
 52c:	80 93 f3 00 	sts	0x00F3, r24
 530:	80 93 f2 00 	sts	0x00F2, r24

	// Shutdown is toggled for stabilization of led driver chipset
	timer_set(0, 100);
 534:	80 e0       	ldi	r24, 0x00	; 0
 536:	90 e0       	ldi	r25, 0x00	; 0
 538:	44 e6       	ldi	r20, 0x64	; 100
 53a:	50 e0       	ldi	r21, 0x00	; 0
 53c:	60 e0       	ldi	r22, 0x00	; 0
 53e:	70 e0       	ldi	r23, 0x00	; 0
 540:	e4 d0       	rcall	.+456    	; 0x70a <timer_set>

	//fadeIn, fadeOut Dimming control timer
	timer_set(1, 50);
 542:	81 e0       	ldi	r24, 0x01	; 1
 544:	90 e0       	ldi	r25, 0x00	; 0
 546:	42 e3       	ldi	r20, 0x32	; 50
 548:	50 e0       	ldi	r21, 0x00	; 0
 54a:	60 e0       	ldi	r22, 0x00	; 0
 54c:	70 e0       	ldi	r23, 0x00	; 0
 54e:	dd d0       	rcall	.+442    	; 0x70a <timer_set>

	//ChannelId reading timer: Rotary Switch.
	timer_set(2, 1000);
 550:	82 e0       	ldi	r24, 0x02	; 2
 552:	90 e0       	ldi	r25, 0x00	; 0
 554:	48 ee       	ldi	r20, 0xE8	; 232
 556:	53 e0       	ldi	r21, 0x03	; 3
 558:	60 e0       	ldi	r22, 0x00	; 0
 55a:	70 e0       	ldi	r23, 0x00	; 0
 55c:	d6 d0       	rcall	.+428    	; 0x70a <timer_set>

	timer_set(3, 1000); // 1sec
 55e:	83 e0       	ldi	r24, 0x03	; 3
 560:	90 e0       	ldi	r25, 0x00	; 0
 562:	48 ee       	ldi	r20, 0xE8	; 232
 564:	53 e0       	ldi	r21, 0x03	; 3
 566:	60 e0       	ldi	r22, 0x00	; 0
 568:	70 e0       	ldi	r23, 0x00	; 0
 56a:	cf d0       	rcall	.+414    	; 0x70a <timer_set>

	timer_set(5, 1000); // 1sec
 56c:	85 e0       	ldi	r24, 0x05	; 5
 56e:	90 e0       	ldi	r25, 0x00	; 0
 570:	48 ee       	ldi	r20, 0xE8	; 232
 572:	53 e0       	ldi	r21, 0x03	; 3
 574:	60 e0       	ldi	r22, 0x00	; 0
 576:	70 e0       	ldi	r23, 0x00	; 0
 578:	c8 d0       	rcall	.+400    	; 0x70a <timer_set>
	while (1) {
		SHUT_DOWN(ENABLE);
 57a:	a8 98       	cbi	0x15, 0	; 21
		SHUT_DOWN(DISABLE);
 57c:	a8 9a       	sbi	0x15, 0	; 21
		if (timer_isfired(0)) {
 57e:	80 e0       	ldi	r24, 0x00	; 0
 580:	90 e0       	ldi	r25, 0x00	; 0
 582:	d8 d0       	rcall	.+432    	; 0x734 <timer_get>
 584:	89 2b       	or	r24, r25
 586:	c9 f7       	brne	.-14     	; 0x57a <main+0xa2>
			break;
		}
	}
	SHUT_DOWN(DISABLE);
 588:	a8 9a       	sbi	0x15, 0	; 21
	PWM_OUT(0xFF);
 58a:	8f ef       	ldi	r24, 0xFF	; 255
 58c:	8a bd       	out	0x2a, r24	; 42
 58e:	00 e0       	ldi	r16, 0x00	; 0
 590:	10 e0       	ldi	r17, 0x00	; 0
 592:	22 96       	adiw	r28, 0x02	; 2
 594:	1f ae       	std	Y+63, r1	; 0x3f
 596:	22 97       	sbiw	r28, 0x02	; 2
 598:	ff 24       	eor	r15, r15

	while (1) {
		if ((Recvlen = xcps_recv(UsartPacket, 64)) > 0)
 59a:	6e 01       	movw	r12, r28
 59c:	08 94       	sec
 59e:	c1 1c       	adc	r12, r1
 5a0:	d1 1c       	adc	r13, r1
			}

		if (timer_isfired(3)) {
			_WDR();

			PORTD ^= 0x20;
 5a2:	80 e2       	ldi	r24, 0x20	; 32
 5a4:	e8 2e       	mov	r14, r24
	}
	SHUT_DOWN(DISABLE);
	PWM_OUT(0xFF);

	while (1) {
		if ((Recvlen = xcps_recv(UsartPacket, 64)) > 0)
 5a6:	c6 01       	movw	r24, r12
 5a8:	60 e4       	ldi	r22, 0x40	; 64
 5aa:	70 e0       	ldi	r23, 0x00	; 0
 5ac:	2f de       	rcall	.-930    	; 0x20c <xcps_recv>
 5ae:	68 2f       	mov	r22, r24
 5b0:	88 23       	and	r24, r24
 5b2:	19 f0       	breq	.+6      	; 0x5ba <main+0xe2>
			XNetHandler(UsartPacket, Recvlen);
 5b4:	c6 01       	movw	r24, r12
 5b6:	70 e0       	ldi	r23, 0x00	; 0
 5b8:	13 de       	rcall	.-986    	; 0x1e0 <XNetHandler>

		if (MDP_IsWatchdogEnable() && MDP_GetWatchdogResetCount() < 10)
 5ba:	8a dd       	rcall	.-1260   	; 0xd0 <MDP_IsWatchdogEnable>
 5bc:	88 23       	and	r24, r24
 5be:	d1 f0       	breq	.+52     	; 0x5f4 <main+0x11c>
 5c0:	59 dd       	rcall	.-1358   	; 0x74 <MDP_GetWatchdogResetCount>
 5c2:	8a 30       	cpi	r24, 0x0A	; 10
 5c4:	b8 f4       	brcc	.+46     	; 0x5f4 <main+0x11c>
			if (timer_isfired(5)) {
 5c6:	85 e0       	ldi	r24, 0x05	; 5
 5c8:	90 e0       	ldi	r25, 0x00	; 0
 5ca:	b4 d0       	rcall	.+360    	; 0x734 <timer_get>
 5cc:	89 2b       	or	r24, r25
 5ce:	91 f4       	brne	.+36     	; 0x5f4 <main+0x11c>
				g_TestFlag++;
 5d0:	80 91 6f 00 	lds	r24, 0x006F
 5d4:	8f 5f       	subi	r24, 0xFF	; 255
 5d6:	80 93 6f 00 	sts	0x006F, r24
				if (g_TestFlag > 10) {
 5da:	8b 30       	cpi	r24, 0x0B	; 11
 5dc:	20 f0       	brcs	.+8      	; 0x5e6 <main+0x10e>
					MDP_SetWatchdogResetCount(MDP_GetWatchdogResetCount() + 1);
 5de:	4a dd       	rcall	.-1388   	; 0x74 <MDP_GetWatchdogResetCount>
 5e0:	8f 5f       	subi	r24, 0xFF	; 255
 5e2:	3d dd       	rcall	.-1414   	; 0x5e <MDP_SetWatchdogResetCount>
 5e4:	ff cf       	rjmp	.-2      	; 0x5e4 <main+0x10c>
					while (1)
						;
				}

				timer_set(5, 1000); // 1sec
 5e6:	85 e0       	ldi	r24, 0x05	; 5
 5e8:	90 e0       	ldi	r25, 0x00	; 0
 5ea:	48 ee       	ldi	r20, 0xE8	; 232
 5ec:	53 e0       	ldi	r21, 0x03	; 3
 5ee:	60 e0       	ldi	r22, 0x00	; 0
 5f0:	70 e0       	ldi	r23, 0x00	; 0
 5f2:	8b d0       	rcall	.+278    	; 0x70a <timer_set>
			}

		if (timer_isfired(3)) {
 5f4:	83 e0       	ldi	r24, 0x03	; 3
 5f6:	90 e0       	ldi	r25, 0x00	; 0
 5f8:	9d d0       	rcall	.+314    	; 0x734 <timer_get>
 5fa:	89 2b       	or	r24, r25
 5fc:	01 f5       	brne	.+64     	; 0x63e <main+0x166>
			_WDR();
 5fe:	3e df       	rcall	.-388    	; 0x47c <_WDR>

			PORTD ^= 0x20;
 600:	82 b3       	in	r24, 0x12	; 18
 602:	8e 25       	eor	r24, r14
 604:	82 bb       	out	0x12, r24	; 18

			DIPC = (PINC & 0x1E);
 606:	83 b3       	in	r24, 0x13	; 19

			dmxID = MAX_DMX_ID;

			if (DIPC & (0x01 << 4))
 608:	8e 71       	andi	r24, 0x1E	; 30
 60a:	84 fd       	sbrc	r24, 4
 60c:	03 c0       	rjmp	.+6      	; 0x614 <main+0x13c>
 60e:	ef e0       	ldi	r30, 0x0F	; 15
 610:	f0 e0       	ldi	r31, 0x00	; 0
 612:	02 c0       	rjmp	.+4      	; 0x618 <main+0x140>
 614:	e7 e0       	ldi	r30, 0x07	; 7
 616:	f0 e0       	ldi	r31, 0x00	; 0
				dmxID -= 8;
			if (DIPC & (0x01 << 3))
 618:	83 fd       	sbrc	r24, 3
				dmxID -= 4;
 61a:	34 97       	sbiw	r30, 0x04	; 4
			if (DIPC & (0x01 << 2))
 61c:	82 fd       	sbrc	r24, 2
				dmxID -= 2;
 61e:	32 97       	sbiw	r30, 0x02	; 2
			if (DIPC & (0x01 << 1))
 620:	81 fd       	sbrc	r24, 1
				dmxID -= 1;
 622:	31 97       	sbiw	r30, 0x01	; 1
 624:	8f 01       	movw	r16, r30
 626:	e4 30       	cpi	r30, 0x04	; 4
 628:	f1 05       	cpc	r31, r1
 62a:	10 f0       	brcs	.+4      	; 0x630 <main+0x158>
 62c:	03 e0       	ldi	r16, 0x03	; 3
 62e:	10 e0       	ldi	r17, 0x00	; 0

			if (dmxID >= 4)
				dmxID = 3;
			//dmxID = 0;

			timer_set(3, 500); // 1sec
 630:	83 e0       	ldi	r24, 0x03	; 3
 632:	90 e0       	ldi	r25, 0x00	; 0
 634:	44 ef       	ldi	r20, 0xF4	; 244
 636:	51 e0       	ldi	r21, 0x01	; 1
 638:	60 e0       	ldi	r22, 0x00	; 0
 63a:	70 e0       	ldi	r23, 0x00	; 0
 63c:	66 d0       	rcall	.+204    	; 0x70a <timer_set>
		}

		// dimming level control : PWM
		if (OCR1AL != g_DimmingLevel[dmxID]) {
 63e:	8a b5       	in	r24, 0x2a	; 42
 640:	f8 01       	movw	r30, r16
 642:	ee 50       	subi	r30, 0x0E	; 14
 644:	ff 4f       	sbci	r31, 0xFF	; 255
 646:	90 81       	ld	r25, Z
 648:	89 17       	cp	r24, r25
 64a:	09 f4       	brne	.+2      	; 0x64e <main+0x176>
 64c:	ac cf       	rjmp	.-168    	; 0x5a6 <main+0xce>
			if (OCR1AL == 0x00) {
 64e:	8a b5       	in	r24, 0x2a	; 42
 650:	88 23       	and	r24, r24
 652:	31 f4       	brne	.+12     	; 0x660 <main+0x188>
				SHUT_DOWN(ENABLE);
 654:	a8 98       	cbi	0x15, 0	; 21
 656:	41 e0       	ldi	r20, 0x01	; 1
 658:	22 96       	adiw	r28, 0x02	; 2
 65a:	4f af       	std	Y+63, r20	; 0x3f
 65c:	22 97       	sbiw	r28, 0x02	; 2
 65e:	17 c0       	rjmp	.+46     	; 0x68e <main+0x1b6>
				jiffies = 1;
			} else {
				if (jiffies == 1) {
 660:	22 96       	adiw	r28, 0x02	; 2
 662:	5f ad       	ldd	r21, Y+63	; 0x3f
 664:	22 97       	sbiw	r28, 0x02	; 2
 666:	51 30       	cpi	r21, 0x01	; 1
 668:	79 f4       	brne	.+30     	; 0x688 <main+0x1b0>
					jiffies = 0;

					// Shutdown is toggled for stabilization of led driver chipset
					timer_set(0, 100);
 66a:	80 e0       	ldi	r24, 0x00	; 0
 66c:	90 e0       	ldi	r25, 0x00	; 0
 66e:	44 e6       	ldi	r20, 0x64	; 100
 670:	50 e0       	ldi	r21, 0x00	; 0
 672:	60 e0       	ldi	r22, 0x00	; 0
 674:	70 e0       	ldi	r23, 0x00	; 0
 676:	49 d0       	rcall	.+146    	; 0x70a <timer_set>
					while (1) {
						SHUT_DOWN(ENABLE);
 678:	a8 98       	cbi	0x15, 0	; 21
						SHUT_DOWN(DISABLE);
 67a:	a8 9a       	sbi	0x15, 0	; 21
						if (timer_isfired(0))
 67c:	80 e0       	ldi	r24, 0x00	; 0
 67e:	90 e0       	ldi	r25, 0x00	; 0
 680:	59 d0       	rcall	.+178    	; 0x734 <timer_get>
 682:	89 2b       	or	r24, r25
 684:	c9 f7       	brne	.-14     	; 0x678 <main+0x1a0>
							break;
					}
					SHUT_DOWN(DISABLE);
 686:	a8 9a       	sbi	0x15, 0	; 21
 688:	22 96       	adiw	r28, 0x02	; 2
 68a:	1f ae       	std	Y+63, r1	; 0x3f
 68c:	22 97       	sbiw	r28, 0x02	; 2
					jiffies = 0;
				}
			}

			if (timer_isfired(1)) {
 68e:	81 e0       	ldi	r24, 0x01	; 1
 690:	90 e0       	ldi	r25, 0x00	; 0
 692:	50 d0       	rcall	.+160    	; 0x734 <timer_get>
 694:	89 2b       	or	r24, r25
 696:	09 f0       	breq	.+2      	; 0x69a <main+0x1c2>
 698:	86 cf       	rjmp	.-244    	; 0x5a6 <main+0xce>
				if (g_DimmingLevel[dmxID] > OCR1AL) {
 69a:	f8 01       	movw	r30, r16
 69c:	ee 50       	subi	r30, 0x0E	; 14
 69e:	ff 4f       	sbci	r31, 0xFF	; 255
 6a0:	80 81       	ld	r24, Z
 6a2:	9a b5       	in	r25, 0x2a	; 42
 6a4:	28 2f       	mov	r18, r24
 6a6:	30 e0       	ldi	r19, 0x00	; 0
 6a8:	98 17       	cp	r25, r24
 6aa:	70 f4       	brcc	.+28     	; 0x6c8 <main+0x1f0>
					value = (g_DimmingLevel[dmxID] - OCR1AL) / 10;
 6ac:	8a b5       	in	r24, 0x2a	; 42
 6ae:	a9 01       	movw	r20, r18
 6b0:	48 1b       	sub	r20, r24
 6b2:	51 09       	sbc	r21, r1
 6b4:	ca 01       	movw	r24, r20
 6b6:	6a e0       	ldi	r22, 0x0A	; 10
 6b8:	70 e0       	ldi	r23, 0x00	; 0
 6ba:	aa d0       	rcall	.+340    	; 0x810 <__divmodhi4>
					if (value < 5)
 6bc:	65 30       	cpi	r22, 0x05	; 5
 6be:	08 f4       	brcc	.+2      	; 0x6c2 <main+0x1ea>
 6c0:	61 e0       	ldi	r22, 0x01	; 1
						value = 1;
					PWM_OUT(OCR1AL+value);
 6c2:	8a b5       	in	r24, 0x2a	; 42
 6c4:	86 0f       	add	r24, r22
 6c6:	15 c0       	rjmp	.+42     	; 0x6f2 <main+0x21a>
				} else {
					value = (OCR1AL - g_DimmingLevel[dmxID]) / 10;
 6c8:	8a b5       	in	r24, 0x2a	; 42
					if (value > 5)
 6ca:	90 e0       	ldi	r25, 0x00	; 0
 6cc:	82 1b       	sub	r24, r18
 6ce:	93 0b       	sbc	r25, r19
 6d0:	6a e0       	ldi	r22, 0x0A	; 10
 6d2:	70 e0       	ldi	r23, 0x00	; 0
 6d4:	9d d0       	rcall	.+314    	; 0x810 <__divmodhi4>
 6d6:	66 30       	cpi	r22, 0x06	; 6
 6d8:	10 f4       	brcc	.+4      	; 0x6de <main+0x206>
 6da:	91 e0       	ldi	r25, 0x01	; 1
 6dc:	01 c0       	rjmp	.+2      	; 0x6e0 <main+0x208>
 6de:	93 e0       	ldi	r25, 0x03	; 3
						value = 3;
					else
						value = 1;

					if (fadeOutCnt < 5)
 6e0:	54 e0       	ldi	r21, 0x04	; 4
 6e2:	5f 15       	cp	r21, r15
 6e4:	10 f4       	brcc	.+4      	; 0x6ea <main+0x212>
 6e6:	ff 24       	eor	r15, r15
 6e8:	01 c0       	rjmp	.+2      	; 0x6ec <main+0x214>
 6ea:	90 e0       	ldi	r25, 0x00	; 0
						value = 0;
					else
						fadeOutCnt = 0;

					fadeOutCnt++;
 6ec:	f3 94       	inc	r15
					PWM_OUT(OCR1AL-value);
 6ee:	8a b5       	in	r24, 0x2a	; 42
 6f0:	89 1b       	sub	r24, r25
 6f2:	8a bd       	out	0x2a, r24	; 42
				}
				timer_clear(1);
 6f4:	81 e0       	ldi	r24, 0x01	; 1
 6f6:	90 e0       	ldi	r25, 0x00	; 0
 6f8:	3a d0       	rcall	.+116    	; 0x76e <timer_clear>
				timer_set(1, 1);
 6fa:	81 e0       	ldi	r24, 0x01	; 1
 6fc:	90 e0       	ldi	r25, 0x00	; 0
 6fe:	41 e0       	ldi	r20, 0x01	; 1
 700:	50 e0       	ldi	r21, 0x00	; 0
 702:	60 e0       	ldi	r22, 0x00	; 0
 704:	70 e0       	ldi	r23, 0x00	; 0
 706:	01 d0       	rcall	.+2      	; 0x70a <timer_set>
 708:	4e cf       	rjmp	.-356    	; 0x5a6 <main+0xce>

0000070a <timer_set>:
sys_timer timer_list[MAX_SYS_TIMER];

int timer_set(int timer_id, uint32 time_value)
{
	
	if ( (timer_id >= 0) && (timer_id < MAX_SYS_TIMER) )
 70a:	88 30       	cpi	r24, 0x08	; 8
 70c:	91 05       	cpc	r25, r1
 70e:	78 f4       	brcc	.+30     	; 0x72e <timer_set+0x24>
	{
	//	asm("cli");
		timer_list[timer_id].value = time_value;
 710:	fc 01       	movw	r30, r24
 712:	ee 0f       	add	r30, r30
 714:	ff 1f       	adc	r31, r31
 716:	ee 0f       	add	r30, r30
 718:	ff 1f       	adc	r31, r31
 71a:	e8 0f       	add	r30, r24
 71c:	f9 1f       	adc	r31, r25
 71e:	ea 50       	subi	r30, 0x0A	; 10
 720:	ff 4f       	sbci	r31, 0xFF	; 255
 722:	41 83       	std	Z+1, r20	; 0x01
 724:	52 83       	std	Z+2, r21	; 0x02
 726:	63 83       	std	Z+3, r22	; 0x03
 728:	74 83       	std	Z+4, r23	; 0x04
		timer_list[timer_id].running = 1;
 72a:	81 e0       	ldi	r24, 0x01	; 1
 72c:	80 83       	st	Z, r24
	//	asm("sei");
	}
	return 0;
}
 72e:	80 e0       	ldi	r24, 0x00	; 0
 730:	90 e0       	ldi	r25, 0x00	; 0
 732:	08 95       	ret

00000734 <timer_get>:


int timer_get(int timer_id)
{
	if ( (timer_id >= 0) && (timer_id < MAX_SYS_TIMER) )
 734:	88 30       	cpi	r24, 0x08	; 8
 736:	91 05       	cpc	r25, r1
 738:	b0 f4       	brcc	.+44     	; 0x766 <timer_get+0x32>
	{
		if (timer_list[timer_id].running)
 73a:	fc 01       	movw	r30, r24
 73c:	ee 0f       	add	r30, r30
 73e:	ff 1f       	adc	r31, r31
 740:	ee 0f       	add	r30, r30
 742:	ff 1f       	adc	r31, r31
 744:	e8 0f       	add	r30, r24
 746:	f9 1f       	adc	r31, r25
 748:	ea 50       	subi	r30, 0x0A	; 10
 74a:	ff 4f       	sbci	r31, 0xFF	; 255
 74c:	80 81       	ld	r24, Z
 74e:	88 23       	and	r24, r24
 750:	51 f0       	breq	.+20     	; 0x766 <timer_get+0x32>
 752:	20 e0       	ldi	r18, 0x00	; 0
 754:	30 e0       	ldi	r19, 0x00	; 0
 756:	81 81       	ldd	r24, Z+1	; 0x01
 758:	92 81       	ldd	r25, Z+2	; 0x02
 75a:	a3 81       	ldd	r26, Z+3	; 0x03
 75c:	b4 81       	ldd	r27, Z+4	; 0x04
 75e:	00 97       	sbiw	r24, 0x00	; 0
 760:	a1 05       	cpc	r26, r1
 762:	b1 05       	cpc	r27, r1
 764:	11 f0       	breq	.+4      	; 0x76a <timer_get+0x36>
 766:	21 e0       	ldi	r18, 0x01	; 1
 768:	30 e0       	ldi	r19, 0x00	; 0
	else
	{
		// return as not fired.
		return 1;
	}
}
 76a:	c9 01       	movw	r24, r18
 76c:	08 95       	ret

0000076e <timer_clear>:

int timer_clear(int timer_id)
{
	if ( (timer_id >= 0) && (timer_id < MAX_SYS_TIMER) )
 76e:	88 30       	cpi	r24, 0x08	; 8
 770:	91 05       	cpc	r25, r1
 772:	50 f4       	brcc	.+20     	; 0x788 <timer_clear+0x1a>
	{
		timer_list[timer_id].running = 0;
 774:	fc 01       	movw	r30, r24
 776:	ee 0f       	add	r30, r30
 778:	ff 1f       	adc	r31, r31
 77a:	ee 0f       	add	r30, r30
 77c:	ff 1f       	adc	r31, r31
 77e:	e8 0f       	add	r30, r24
 780:	f9 1f       	adc	r31, r25
 782:	ea 50       	subi	r30, 0x0A	; 10
 784:	ff 4f       	sbci	r31, 0xFF	; 255
 786:	10 82       	st	Z, r1
	}
	return 0;
}
 788:	80 e0       	ldi	r24, 0x00	; 0
 78a:	90 e0       	ldi	r25, 0x00	; 0
 78c:	08 95       	ret

0000078e <timer_init>:
	initialize timer.

	use TIM0.
*/
void timer_init()
{
 78e:	e6 ef       	ldi	r30, 0xF6	; 246
 790:	f0 e0       	ldi	r31, 0x00	; 0
	for (int i=0; i<MAX_SYS_TIMER; i++)
	{
		timer_list[i].running = 0;
 792:	10 82       	st	Z, r1
		timer_list[i].value = 0;
 794:	11 82       	std	Z+1, r1	; 0x01
 796:	12 82       	std	Z+2, r1	; 0x02
 798:	13 82       	std	Z+3, r1	; 0x03
 79a:	14 82       	std	Z+4, r1	; 0x04
 79c:	35 96       	adiw	r30, 0x05	; 5

	use TIM0.
*/
void timer_init()
{
	for (int i=0; i<MAX_SYS_TIMER; i++)
 79e:	81 e0       	ldi	r24, 0x01	; 1
 7a0:	ee 31       	cpi	r30, 0x1E	; 30
 7a2:	f8 07       	cpc	r31, r24
 7a4:	b1 f7       	brne	.-20     	; 0x792 <timer_init+0x4>
	// Mode: Normal top=FFh
	// OC0 output: Disconnected

	// TIMER_1MS	// atmega8.
	// overflow interrupt setting. 1ms interval tick.
    TCCR0=0x05;
 7a6:	85 e0       	ldi	r24, 0x05	; 5
 7a8:	83 bf       	out	0x33, r24	; 51
//    TCNT0=0x69;
	TCNT0=0xF8;
 7aa:	88 ef       	ldi	r24, 0xF8	; 248
 7ac:	82 bf       	out	0x32, r24	; 50

	TIMSK=0x01;
 7ae:	81 e0       	ldi	r24, 0x01	; 1
 7b0:	89 bf       	out	0x39, r24	; 57
		// 0x02: OCIE0 - timer0 compare match interrupt enable.
}
 7b2:	08 95       	ret

000007b4 <__vector_9>:
#if	defined(__GNUC__) // GNU Compiler
	ISR(TIMER0_OVF_vect)
#else
interrupt [TIM0_OVF] void timer0_ovf_isr(void)
#endif
{ 
 7b4:	1f 92       	push	r1
 7b6:	0f 92       	push	r0
 7b8:	0f b6       	in	r0, 0x3f	; 63
 7ba:	0f 92       	push	r0
 7bc:	11 24       	eor	r1, r1
 7be:	8f 93       	push	r24
 7c0:	9f 93       	push	r25
 7c2:	af 93       	push	r26
 7c4:	bf 93       	push	r27
 7c6:	ef 93       	push	r30
 7c8:	ff 93       	push	r31
 7ca:	e7 ef       	ldi	r30, 0xF7	; 247
 7cc:	f0 e0       	ldi	r31, 0x00	; 0
	// 1ms timer.

	// timer decreasing.
	for (i=0; i<MAX_SYS_TIMER; i++)
	{
		if (timer_list[i].value > 0)
 7ce:	80 81       	ld	r24, Z
 7d0:	91 81       	ldd	r25, Z+1	; 0x01
 7d2:	a2 81       	ldd	r26, Z+2	; 0x02
 7d4:	b3 81       	ldd	r27, Z+3	; 0x03
 7d6:	00 97       	sbiw	r24, 0x00	; 0
 7d8:	a1 05       	cpc	r26, r1
 7da:	b1 05       	cpc	r27, r1
 7dc:	39 f0       	breq	.+14     	; 0x7ec <__vector_9+0x38>
		{
			timer_list[i].value--;
 7de:	01 97       	sbiw	r24, 0x01	; 1
 7e0:	a1 09       	sbc	r26, r1
 7e2:	b1 09       	sbc	r27, r1
 7e4:	80 83       	st	Z, r24
 7e6:	91 83       	std	Z+1, r25	; 0x01
 7e8:	a2 83       	std	Z+2, r26	; 0x02
 7ea:	b3 83       	std	Z+3, r27	; 0x03
 7ec:	35 96       	adiw	r30, 0x05	; 5
//	_WDR();

	// 1ms timer.

	// timer decreasing.
	for (i=0; i<MAX_SYS_TIMER; i++)
 7ee:	81 e0       	ldi	r24, 0x01	; 1
 7f0:	ef 31       	cpi	r30, 0x1F	; 31
 7f2:	f8 07       	cpc	r31, r24
 7f4:	61 f7       	brne	.-40     	; 0x7ce <__vector_9+0x1a>
			timer_list[i].value--;
		}
	}
	
	// reset timer init.
	TCNT0=0xF8;		// init value; only OVF int.
 7f6:	88 ef       	ldi	r24, 0xF8	; 248
 7f8:	82 bf       	out	0x32, r24	; 50
}
 7fa:	ff 91       	pop	r31
 7fc:	ef 91       	pop	r30
 7fe:	bf 91       	pop	r27
 800:	af 91       	pop	r26
 802:	9f 91       	pop	r25
 804:	8f 91       	pop	r24
 806:	0f 90       	pop	r0
 808:	0f be       	out	0x3f, r0	; 63
 80a:	0f 90       	pop	r0
 80c:	1f 90       	pop	r1
 80e:	18 95       	reti

00000810 <__divmodhi4>:
 810:	97 fb       	bst	r25, 7
 812:	09 2e       	mov	r0, r25
 814:	07 26       	eor	r0, r23
 816:	0a d0       	rcall	.+20     	; 0x82c <__divmodhi4_neg1>
 818:	77 fd       	sbrc	r23, 7
 81a:	04 d0       	rcall	.+8      	; 0x824 <__divmodhi4_neg2>
 81c:	0c d0       	rcall	.+24     	; 0x836 <__udivmodhi4>
 81e:	06 d0       	rcall	.+12     	; 0x82c <__divmodhi4_neg1>
 820:	00 20       	and	r0, r0
 822:	1a f4       	brpl	.+6      	; 0x82a <__divmodhi4_exit>

00000824 <__divmodhi4_neg2>:
 824:	70 95       	com	r23
 826:	61 95       	neg	r22
 828:	7f 4f       	sbci	r23, 0xFF	; 255

0000082a <__divmodhi4_exit>:
 82a:	08 95       	ret

0000082c <__divmodhi4_neg1>:
 82c:	f6 f7       	brtc	.-4      	; 0x82a <__divmodhi4_exit>
 82e:	90 95       	com	r25
 830:	81 95       	neg	r24
 832:	9f 4f       	sbci	r25, 0xFF	; 255
 834:	08 95       	ret

00000836 <__udivmodhi4>:
 836:	aa 1b       	sub	r26, r26
 838:	bb 1b       	sub	r27, r27
 83a:	51 e1       	ldi	r21, 0x11	; 17
 83c:	07 c0       	rjmp	.+14     	; 0x84c <__udivmodhi4_ep>

0000083e <__udivmodhi4_loop>:
 83e:	aa 1f       	adc	r26, r26
 840:	bb 1f       	adc	r27, r27
 842:	a6 17       	cp	r26, r22
 844:	b7 07       	cpc	r27, r23
 846:	10 f0       	brcs	.+4      	; 0x84c <__udivmodhi4_ep>
 848:	a6 1b       	sub	r26, r22
 84a:	b7 0b       	sbc	r27, r23

0000084c <__udivmodhi4_ep>:
 84c:	88 1f       	adc	r24, r24
 84e:	99 1f       	adc	r25, r25
 850:	5a 95       	dec	r21
 852:	a9 f7       	brne	.-22     	; 0x83e <__udivmodhi4_loop>
 854:	80 95       	com	r24
 856:	90 95       	com	r25
 858:	bc 01       	movw	r22, r24
 85a:	cd 01       	movw	r24, r26
 85c:	08 95       	ret

0000085e <__eerd_byte_m8>:
 85e:	e1 99       	sbic	0x1c, 1	; 28
 860:	fe cf       	rjmp	.-4      	; 0x85e <__eerd_byte_m8>
 862:	9f bb       	out	0x1f, r25	; 31
 864:	8e bb       	out	0x1e, r24	; 30
 866:	e0 9a       	sbi	0x1c, 0	; 28
 868:	99 27       	eor	r25, r25
 86a:	8d b3       	in	r24, 0x1d	; 29
 86c:	08 95       	ret

0000086e <__eewr_byte_m8>:
 86e:	26 2f       	mov	r18, r22

00000870 <__eewr_r18_m8>:
 870:	e1 99       	sbic	0x1c, 1	; 28
 872:	fe cf       	rjmp	.-4      	; 0x870 <__eewr_r18_m8>
 874:	9f bb       	out	0x1f, r25	; 31
 876:	8e bb       	out	0x1e, r24	; 30
 878:	2d bb       	out	0x1d, r18	; 29
 87a:	0f b6       	in	r0, 0x3f	; 63
 87c:	f8 94       	cli
 87e:	e2 9a       	sbi	0x1c, 2	; 28
 880:	e1 9a       	sbi	0x1c, 1	; 28
 882:	0f be       	out	0x3f, r0	; 63
 884:	01 96       	adiw	r24, 0x01	; 1
 886:	08 95       	ret

00000888 <_exit>:
 888:	f8 94       	cli

0000088a <__stop_program>:
 88a:	ff cf       	rjmp	.-2      	; 0x88a <__stop_program>
