Archive member included because of file (symbol)

c:/winavr-20100110/bin/../lib/gcc/avr/4.3.3/avr5\libgcc.a(_udivmodhi4.o)
                              ./src/RFU_Protocol.o (__udivmodhi4)
c:/winavr-20100110/bin/../lib/gcc/avr/4.3.3/avr5\libgcc.a(_exit.o)
                              c:/winavr-20100110/bin/../lib/gcc/avr/4.3.3/../../../../avr/lib/avr5/crtm328p.o (exit)
c:/winavr-20100110/bin/../lib/gcc/avr/4.3.3/avr5\libgcc.a(_clear_bss.o)
                              ./src/GC_Protocol.o (__do_clear_bss)
c:/winavr-20100110/bin/../lib/gcc/avr/4.3.3/../../../../avr/lib/avr5\libc.a(memcpy.o)
                              ./src/ZRMProtocol.o (memcpy)

Allocating common symbols
Common symbol       size              file

msgFromZigbee       0x40              ./src/main.o
xcps_rx_packet_zigbee
                    0x40              ./src/Xcps.o
sendBuffData        0x230             ./src/ZRMProtocol.o
tmp_zrmp            0x8               ./src/GC_Protocol.o
tmp_BuffForRFUP     0x40              ./src/RFU_Protocol.o
xcps_rx_packet_rs485
                    0x40              ./src/Xcps.o
tmp_Buff            0x40              ./src/GC_Protocol.o
ZigbeePacket        0x40              ./src/main.o
data                0x1               ./src/Uart.o
timerCount          0x4               ./src/Timer.o
uart_rx_buff        0x40              ./src/Uart.o
timer_list          0x4b              ./src/Timer.o
status              0x1               ./src/Uart.o
tmp_BuffForZRM      0x20              ./src/ZRMProtocol.o

Memory Configuration

Name             Origin             Length             Attributes
text             0x00000000         0x00020000         xr
data             0x00800060         0x0000ffa0         rw !x
eeprom           0x00810000         0x00010000         rw !x
fuse             0x00820000         0x00000400         rw !x
lock             0x00830000         0x00000400         rw !x
signature        0x00840000         0x00000400         rw !x
*default*        0x00000000         0xffffffff

Linker script and memory map

Address of section .data set to 0x800100
LOAD c:/winavr-20100110/bin/../lib/gcc/avr/4.3.3/../../../../avr/lib/avr5/crtm328p.o
LOAD ./src/Adc.o
LOAD ./src/Flash.o
LOAD ./src/GC_Protocol.o
LOAD ./src/RFU_Protocol.o
LOAD ./src/Timer.o
LOAD ./src/Uart.o
LOAD ./src/XNetProtocol.o
LOAD ./src/Xcps.o
LOAD ./src/ZRMProtocol.o
LOAD ./src/main.o
LOAD ./src/rotary.o
LOAD ./src/util.o
LOAD c:/winavr-20100110/bin/../lib/gcc/avr/4.3.3/avr5\libgcc.a
LOAD c:/winavr-20100110/bin/../lib/gcc/avr/4.3.3/../../../../avr/lib/avr5\libc.a
LOAD c:/winavr-20100110/bin/../lib/gcc/avr/4.3.3/avr5\libgcc.a

.hash
 *(.hash)

.dynsym
 *(.dynsym)

.dynstr
 *(.dynstr)

.gnu.version
 *(.gnu.version)

.gnu.version_d
 *(.gnu.version_d)

.gnu.version_r
 *(.gnu.version_r)

.rel.init
 *(.rel.init)

.rela.init
 *(.rela.init)

.rel.text
 *(.rel.text)
 *(.rel.text.*)
 *(.rel.gnu.linkonce.t*)

.rela.text
 *(.rela.text)
 *(.rela.text.*)
 *(.rela.gnu.linkonce.t*)

.rel.fini
 *(.rel.fini)

.rela.fini
 *(.rela.fini)

.rel.rodata
 *(.rel.rodata)
 *(.rel.rodata.*)
 *(.rel.gnu.linkonce.r*)

.rela.rodata
 *(.rela.rodata)
 *(.rela.rodata.*)
 *(.rela.gnu.linkonce.r*)

.rel.data
 *(.rel.data)
 *(.rel.data.*)
 *(.rel.gnu.linkonce.d*)

.rela.data
 *(.rela.data)
 *(.rela.data.*)
 *(.rela.gnu.linkonce.d*)

.rel.ctors
 *(.rel.ctors)

.rela.ctors
 *(.rela.ctors)

.rel.dtors
 *(.rel.dtors)

.rela.dtors
 *(.rela.dtors)

.rel.got
 *(.rel.got)

.rela.got
 *(.rela.got)

.rel.bss
 *(.rel.bss)

.rela.bss
 *(.rela.bss)

.rel.plt
 *(.rel.plt)

.rela.plt
 *(.rela.plt)

.text           0x00000000     0x23dc
 *(.vectors)
 .vectors       0x00000000       0x68 c:/winavr-20100110/bin/../lib/gcc/avr/4.3.3/../../../../avr/lib/avr5/crtm328p.o
                0x00000000                __vectors
                0x00000000                __vector_default
 *(.vectors)
 *(.progmem.gcc*)
 *(.progmem*)
                0x00000068                . = ALIGN (0x2)
                0x00000068                __trampolines_start = .
 *(.trampolines)
 .trampolines   0x00000068        0x0 linker stubs
 *(.trampolines*)
                0x00000068                __trampolines_end = .
 *(.jumptables)
 *(.jumptables*)
 *(.lowtext)
 *(.lowtext*)
                0x00000068                __ctors_start = .
 *(.ctors)
                0x00000068                __ctors_end = .
                0x00000068                __dtors_start = .
 *(.dtors)
                0x00000068                __dtors_end = .
 SORT(*)(.ctors)
 SORT(*)(.dtors)
 *(.init0)
 .init0         0x00000068        0x0 c:/winavr-20100110/bin/../lib/gcc/avr/4.3.3/../../../../avr/lib/avr5/crtm328p.o
                0x00000068                __init
 *(.init0)
 *(.init1)
 *(.init1)
 *(.init2)
 .init2         0x00000068        0xc c:/winavr-20100110/bin/../lib/gcc/avr/4.3.3/../../../../avr/lib/avr5/crtm328p.o
 *(.init2)
 *(.init3)
 *(.init3)
 *(.init4)
 .init4         0x00000074       0x10 c:/winavr-20100110/bin/../lib/gcc/avr/4.3.3/avr5\libgcc.a(_clear_bss.o)
                0x00000074                __do_clear_bss
 *(.init4)
 *(.init5)
 *(.init5)
 *(.init6)
 *(.init6)
 *(.init7)
 *(.init7)
 *(.init8)
 *(.init8)
 *(.init9)
 .init9         0x00000084        0x8 c:/winavr-20100110/bin/../lib/gcc/avr/4.3.3/../../../../avr/lib/avr5/crtm328p.o
 *(.init9)
 *(.text)
 .text          0x0000008c        0x4 c:/winavr-20100110/bin/../lib/gcc/avr/4.3.3/../../../../avr/lib/avr5/crtm328p.o
                0x0000008c                __vector_22
                0x0000008c                __vector_24
                0x0000008c                __vector_12
                0x0000008c                __bad_interrupt
                0x0000008c                __vector_6
                0x0000008c                __vector_3
                0x0000008c                __vector_23
                0x0000008c                __vector_25
                0x0000008c                __vector_11
                0x0000008c                __vector_13
                0x0000008c                __vector_17
                0x0000008c                __vector_19
                0x0000008c                __vector_7
                0x0000008c                __vector_5
                0x0000008c                __vector_4
                0x0000008c                __vector_9
                0x0000008c                __vector_21
                0x0000008c                __vector_15
                0x0000008c                __vector_8
                0x0000008c                __vector_10
                0x0000008c                __vector_16
                0x0000008c                __vector_20
 .text          0x00000090       0x40 ./src/Adc.o
                0x0000009c                adc_getValue
                0x00000090                initADC
 .text          0x000000d0      0x4c0 ./src/Flash.o
                0x000003a4                flash_writeUint32
                0x000001e4                flash_bufferToMainMemory
                0x0000017a                flash_bufferWrite
                0x000000d0                flash_init
                0x000000dc                clk
                0x000004ba                flash_writeBytes
                0x0000033c                flash_readUint16
                0x00000270                flash_bufferReadUint8
                0x00000568                flash_readStatus
                0x000002a6                flash_readUint8
                0x000003ee                flash_readUint32
                0x000000f4                flash_writeByteToSI
                0x00000134                flash_readByteFromSO
                0x00000234                flash_writeUint8
                0x000002fc                flash_writeUint16
                0x000004e2                flash_readBytes
 .text          0x00000590      0x5c0 ./src/GC_Protocol.o
                0x000006e4                plcs_GetGCPMessage
                0x0000061e                plcs_GetNCPMessage
                0x00000752                plcs_GetGCPResMessage
                0x000005fc                ncp_setNCPState
                0x0000092c                ncp_SendRegisterReq
                0x00000602                getSeqNumGenerator
                0x000005f6                ncp_ConnState
                0x000005c8                ncp_ProcessRegisterResFromZigbee
                0x00000a06                plcs_GCP_HandleUpdatePowermeterReq
                0x000008f6                plcs_GCP_HandlePowermeterReq
                0x00000ab8                plcs_GCP_ProcessMessageFromZigbee
                0x00000590                NCP_ProcessMessageFromZigbee
                0x000007b8                plcs_GCP_SendStateInfoRes
                0x0000099e                ncp_SendPingReq
                0x000005e8                ncp_ProcessPingResFromZigbee
                0x0000083e                plcs_GCP_HandleStateInfoReq
                0x0000068c                plcs_GetNCPResMessage
                0x0000085c                plcs_GCP_SendPowermeterRes
 .text          0x00000b50      0x5b4 ./src/RFU_Protocol.o
                0x00000eba                plcs_RFUP_SetReadyToUpgradeFirmware
                0x0000108c                plcs_RFUP_HandleUpgradeFirmwareReq
                0x000010c6                plcs_RFUP_ProcessMessage
                0x00000ec6                plcs_RFUP_SendDataRes
                0x0000100c                plcs_RFUP_SendUpgradeFirmwareRes
                0x00000c34                plcs_RFUP_CheckDownloadedFirmwareAt
                0x00000b52                getSeqNumGeneratorForRFUP
                0x00000b6e                plcs_GetRFUPMessage
                0x00000d08                plcs_RFUP_CheckDownloadedFirmware
                0x00000bdc                plcs_GetRFUPResMessage
                0x00000b50                plcs_RFUP_Reboot
                0x00000dc8                plcs_RFUP_WriteFirmwareData
                0x00000f46                plcs_RFUP_HandleSendDataReq
 .text          0x00001104      0x138 ./src/Timer.o
                0x0000112e                timer_get
                0x00001188                timer_init
                0x00001104                timer_set
                0x000011bc                __vector_14
                0x00001168                timer_clear
 .text          0x0000123c       0xdc ./src/Uart.o
                0x00001304                USART_Transmit
                0x000012c2                USART_Receive
                0x0000123c                InitUART
                0x00001260                __vector_18
 .text          0x00001318       0x6e ./src/XNetProtocol.o
                0x00001318                XNetHandlerFromZigbee
 .text          0x00001386      0x422 ./src/Xcps.o
                0x00001632                xcps_recv_rs485
                0x00001386                xcps_init_zigbee
                0x00001426                xcps_recv_zigbee
                0x0000139a                xcps_init_rs485
                0x000013ae                xcps_send_zigbee
                0x0000155c                xcps_send_rs485
 .text          0x000017a8      0x564 ./src/ZRMProtocol.o
                0x00001924                ZRMsendPing
                0x000017a8                getZRMMessageListSize
                0x000018d2                ZRMSendSetPanID
                0x00001a4c                addMessageToSendBuff
                0x0000190a                ZRMsendConfig
                0x0000181c                ZRM_getTranlatedCode
                0x00001892                ZRMSendSetPreconfig
                0x000017bc                getLastResult
                0x000018f0                ZRMSendReset
                0x00001ab2                sendToZigbee
                0x00001bfe                sendQueueingMessage
                0x000018b2                ZRMSendSetChannel
                0x000017b6                getZigbeeState
                0x000017c2                ZRM_getOriginalCode
                0x00001b76                getMessageFromSendBuff
                0x00001938                ZRMPMessage
                0x00001af8                getMessageFromSendBuffWORemove
 .text          0x00001d0c      0x564 ./src/main.o
                0x00001ddc                __vector_1
                0x00002010                ZigbeeUsart_Task
                0x00001d3c                WDT_INIT
                0x00001d24                resetZigbee
                0x00001f3e                ADC_Task
                0x00001f16                WTD_Task
                0x00001d12                InitExternalInterrupt
                0x00001e5e                Powermeter_Task
                0x00002130                main
                0x00001d0c                InitMCU
                0x00001d5a                __vector_2
                0x00001fa8                NCP_Task
                0x00002106                ZigbeeSend_Task
 .text          0x00002270       0x4e ./src/rotary.o
                0x00002270                initRotary
                0x00002296                rotary_GetValue
 .text          0x000022be       0xe0 ./src/util.o
                0x000022be                toUint16
                0x0000231c                toUint8
                0x00002376                toHexCharacterOfLowerByte
 .text          0x0000239e        0x0 c:/winavr-20100110/bin/../lib/gcc/avr/4.3.3/avr5\libgcc.a(_udivmodhi4.o)
 .text          0x0000239e        0x0 c:/winavr-20100110/bin/../lib/gcc/avr/4.3.3/avr5\libgcc.a(_exit.o)
 .text          0x0000239e        0x0 c:/winavr-20100110/bin/../lib/gcc/avr/4.3.3/avr5\libgcc.a(_clear_bss.o)
 .text          0x0000239e        0x0 c:/winavr-20100110/bin/../lib/gcc/avr/4.3.3/../../../../avr/lib/avr5\libc.a(memcpy.o)
                0x0000239e                . = ALIGN (0x2)
 *(.text.*)
 .text.libgcc   0x0000239e       0x28 c:/winavr-20100110/bin/../lib/gcc/avr/4.3.3/avr5\libgcc.a(_udivmodhi4.o)
                0x0000239e                __udivmodhi4
 .text.libgcc   0x000023c6        0x0 c:/winavr-20100110/bin/../lib/gcc/avr/4.3.3/avr5\libgcc.a(_exit.o)
 .text.libgcc   0x000023c6        0x0 c:/winavr-20100110/bin/../lib/gcc/avr/4.3.3/avr5\libgcc.a(_clear_bss.o)
 .text.avr-libc
                0x000023c6       0x12 c:/winavr-20100110/bin/../lib/gcc/avr/4.3.3/../../../../avr/lib/avr5\libc.a(memcpy.o)
                0x000023c6                memcpy
                0x000023d8                . = ALIGN (0x2)
 *(.fini9)
 .fini9         0x000023d8        0x0 c:/winavr-20100110/bin/../lib/gcc/avr/4.3.3/avr5\libgcc.a(_exit.o)
                0x000023d8                exit
                0x000023d8                _exit
 *(.fini9)
 *(.fini8)
 *(.fini8)
 *(.fini7)
 *(.fini7)
 *(.fini6)
 *(.fini6)
 *(.fini5)
 *(.fini5)
 *(.fini4)
 *(.fini4)
 *(.fini3)
 *(.fini3)
 *(.fini2)
 *(.fini2)
 *(.fini1)
 *(.fini1)
 *(.fini0)
 .fini0         0x000023d8        0x4 c:/winavr-20100110/bin/../lib/gcc/avr/4.3.3/avr5\libgcc.a(_exit.o)
 *(.fini0)
                0x000023dc                _etext = .

.data           0x00800100        0x0 load address 0x000023dc
                0x00800100                PROVIDE (__data_start, .)
 *(.data)
 .data          0x00800100        0x0 c:/winavr-20100110/bin/../lib/gcc/avr/4.3.3/../../../../avr/lib/avr5/crtm328p.o
 .data          0x00800100        0x0 ./src/Adc.o
 .data          0x00800100        0x0 ./src/Flash.o
 .data          0x00800100        0x0 ./src/GC_Protocol.o
 .data          0x00800100        0x0 ./src/RFU_Protocol.o
 .data          0x00800100        0x0 ./src/Timer.o
 .data          0x00800100        0x0 ./src/Uart.o
 .data          0x00800100        0x0 ./src/XNetProtocol.o
 .data          0x00800100        0x0 ./src/Xcps.o
 .data          0x00800100        0x0 ./src/ZRMProtocol.o
 .data          0x00800100        0x0 ./src/main.o
 .data          0x00800100        0x0 ./src/rotary.o
 .data          0x00800100        0x0 ./src/util.o
 .data          0x00800100        0x0 c:/winavr-20100110/bin/../lib/gcc/avr/4.3.3/avr5\libgcc.a(_udivmodhi4.o)
 .data          0x00800100        0x0 c:/winavr-20100110/bin/../lib/gcc/avr/4.3.3/avr5\libgcc.a(_exit.o)
 .data          0x00800100        0x0 c:/winavr-20100110/bin/../lib/gcc/avr/4.3.3/avr5\libgcc.a(_clear_bss.o)
 .data          0x00800100        0x0 c:/winavr-20100110/bin/../lib/gcc/avr/4.3.3/../../../../avr/lib/avr5\libc.a(memcpy.o)
 *(.data*)
 *(.rodata)
 *(.rodata*)
 *(.gnu.linkonce.d*)
                0x00800100                . = ALIGN (0x2)
                0x00800100                _edata = .
                0x00800100                PROVIDE (__data_end, .)

.bss            0x00800100      0x4c7
                0x00800100                PROVIDE (__bss_start, .)
 *(.bss)
 .bss           0x00800100        0x0 c:/winavr-20100110/bin/../lib/gcc/avr/4.3.3/../../../../avr/lib/avr5/crtm328p.o
 .bss           0x00800100        0x0 ./src/Adc.o
 .bss           0x00800100        0x0 ./src/Flash.o
 .bss           0x00800100        0x3 ./src/GC_Protocol.o
                0x00800100                ncp_NetState
                0x00800101                seqNumGenerator
 .bss           0x00800103        0x2 ./src/RFU_Protocol.o
                0x00800103                seqNumGeneratorForRFUP
 .bss           0x00800105        0x0 ./src/Timer.o
 .bss           0x00800105        0x3 ./src/Uart.o
                0x00800105                uart_rx_front
                0x00800107                uart_rx_len
                0x00800106                uart_rx_tail
 .bss           0x00800108        0x0 ./src/XNetProtocol.o
 .bss           0x00800108       0x10 ./src/Xcps.o
                0x00800108                xcps_rxlen_zigbee
                0x0080010c                xcps_state_rs485
                0x0080010e                xcps_rxlen_rs485
                0x0080010a                xcps_pdu_len_rs485
 .bss           0x00800118       0x2f ./src/ZRMProtocol.o
                0x0080011a                lastResult
                0x00800118                sendBuffForZRM_Head
                0x00800119                sendBuffForZRM_Tail
 .bss           0x00800147       0x17 ./src/main.o
                0x00800157                g_Temperature
                0x00800159                g_Illumination
                0x00800147                g_PowerMeterValue
 .bss           0x0080015e        0x0 ./src/rotary.o
 .bss           0x0080015e        0x0 ./src/util.o
 .bss           0x0080015e        0x0 c:/winavr-20100110/bin/../lib/gcc/avr/4.3.3/avr5\libgcc.a(_udivmodhi4.o)
 .bss           0x0080015e        0x0 c:/winavr-20100110/bin/../lib/gcc/avr/4.3.3/avr5\libgcc.a(_exit.o)
 .bss           0x0080015e        0x0 c:/winavr-20100110/bin/../lib/gcc/avr/4.3.3/avr5\libgcc.a(_clear_bss.o)
 .bss           0x0080015e        0x0 c:/winavr-20100110/bin/../lib/gcc/avr/4.3.3/../../../../avr/lib/avr5\libc.a(memcpy.o)
 *(.bss*)
 *(COMMON)
 COMMON         0x0080015e       0x48 ./src/GC_Protocol.o
                0x0080015e                tmp_zrmp
                0x00800166                tmp_Buff
 COMMON         0x008001a6       0x40 ./src/RFU_Protocol.o
                0x008001a6                tmp_BuffForRFUP
 COMMON         0x008001e6       0x4f ./src/Timer.o
                0x008001e6                timerCount
                0x008001ea                timer_list
 COMMON         0x00800235       0x42 ./src/Uart.o
                0x00800235                data
                0x00800236                uart_rx_buff
                0x00800276                status
 COMMON         0x00800277       0x80 ./src/Xcps.o
                0x00800277                xcps_rx_packet_zigbee
                0x008002b7                xcps_rx_packet_rs485
 COMMON         0x008002f7      0x250 ./src/ZRMProtocol.o
                0x008002f7                sendBuffData
                0x00800527                tmp_BuffForZRM
 COMMON         0x00800547       0x80 ./src/main.o
                0x00800547                msgFromZigbee
                0x00800587                ZigbeePacket
                0x008005c7                PROVIDE (__bss_end, .)
                0x000023dc                __data_load_start = LOADADDR (.data)
                0x000023dc                __data_load_end = (__data_load_start + SIZEOF (.data))

.noinit         0x008005c7        0x0
                0x008005c7                PROVIDE (__noinit_start, .)
 *(.noinit*)
                0x008005c7                PROVIDE (__noinit_end, .)
                0x008005c7                _end = .
                0x008005c7                PROVIDE (__heap_start, .)

.eeprom         0x00810000        0x0
 *(.eeprom*)
                0x00810000                __eeprom_end = .

.fuse
 *(.fuse)
 *(.lfuse)
 *(.hfuse)
 *(.efuse)

.lock
 *(.lock*)

.signature
 *(.signature*)

.stab           0x00000000     0x5700
 *(.stab)
 .stab          0x00000000      0x438 ./src/Adc.o
 .stab          0x00000438      0xd14 ./src/Flash.o
                                0xf48 (size before relaxing)
 .stab          0x0000114c      0xec4 ./src/GC_Protocol.o
                               0x10c8 (size before relaxing)
 .stab          0x00002010      0xbdc ./src/RFU_Protocol.o
                                0xf0c (size before relaxing)
 .stab          0x00002bec      0x384 ./src/Timer.o
                                0x5b8 (size before relaxing)
 .stab          0x00002f70      0x354 ./src/Uart.o
                                0x5ac (size before relaxing)
 .stab          0x000032c4      0x258 ./src/XNetProtocol.o
                                0x594 (size before relaxing)
 .stab          0x0000351c      0x750 ./src/Xcps.o
                                0x990 (size before relaxing)
 .stab          0x00003c6c      0xbb8 ./src/ZRMProtocol.o
                                0xedc (size before relaxing)
 .stab          0x00004824      0x984 ./src/main.o
                                0xca8 (size before relaxing)
 .stab          0x000051a8      0x264 ./src/rotary.o
                                0x498 (size before relaxing)
 .stab          0x0000540c      0x2f4 ./src/util.o
                                0x504 (size before relaxing)

.stabstr        0x00000000     0x23ad
 *(.stabstr)
 .stabstr       0x00000000     0x23ad ./src/Adc.o

.stab.excl
 *(.stab.excl)

.stab.exclstr
 *(.stab.exclstr)

.stab.index
 *(.stab.index)

.stab.indexstr
 *(.stab.indexstr)

.comment
 *(.comment)

.debug
 *(.debug)

.line
 *(.line)

.debug_srcinfo
 *(.debug_srcinfo)

.debug_sfnames
 *(.debug_sfnames)

.debug_aranges
 *(.debug_aranges)

.debug_pubnames
 *(.debug_pubnames)

.debug_info
 *(.debug_info)
 *(.gnu.linkonce.wi.*)

.debug_abbrev
 *(.debug_abbrev)

.debug_line
 *(.debug_line)

.debug_frame
 *(.debug_frame)

.debug_str
 *(.debug_str)

.debug_loc
 *(.debug_loc)

.debug_macinfo
 *(.debug_macinfo)
OUTPUT(MDF200.elf elf32-avr)
LOAD linker stubs
