
DRT_101_NRF_rev1.2.elf:     file format elf32-avr

Sections:
Idx Name          Size      VMA       LMA       File off  Algn
  0 .data         0000000a  00800100  00001a1a  00001aae  2**0
                  CONTENTS, ALLOC, LOAD, DATA
  1 .text         00001a1a  00000000  00000000  00000094  2**1
                  CONTENTS, ALLOC, LOAD, READONLY, CODE
  2 .bss          00000670  0080010a  0080010a  00001ab8  2**0
                  ALLOC
  3 .stab         00004d04  00000000  00000000  00001ab8  2**2
                  CONTENTS, READONLY, DEBUGGING
  4 .stabstr      0000215a  00000000  00000000  000067bc  2**0
                  CONTENTS, READONLY, DEBUGGING

Disassembly of section .text:

00000000 <__vectors>:
       0:	0c 94 46 00 	jmp	0x8c	; 0x8c <__ctors_end>
       4:	0c 94 65 00 	jmp	0xca	; 0xca <__bad_interrupt>
       8:	0c 94 65 00 	jmp	0xca	; 0xca <__bad_interrupt>
       c:	0c 94 65 00 	jmp	0xca	; 0xca <__bad_interrupt>
      10:	0c 94 65 00 	jmp	0xca	; 0xca <__bad_interrupt>
      14:	0c 94 65 00 	jmp	0xca	; 0xca <__bad_interrupt>
      18:	0c 94 65 00 	jmp	0xca	; 0xca <__bad_interrupt>
      1c:	0c 94 65 00 	jmp	0xca	; 0xca <__bad_interrupt>
      20:	0c 94 65 00 	jmp	0xca	; 0xca <__bad_interrupt>
      24:	0c 94 65 00 	jmp	0xca	; 0xca <__bad_interrupt>
      28:	0c 94 65 00 	jmp	0xca	; 0xca <__bad_interrupt>
      2c:	0c 94 65 00 	jmp	0xca	; 0xca <__bad_interrupt>
      30:	0c 94 65 00 	jmp	0xca	; 0xca <__bad_interrupt>
      34:	0c 94 65 00 	jmp	0xca	; 0xca <__bad_interrupt>
      38:	0c 94 65 00 	jmp	0xca	; 0xca <__bad_interrupt>
      3c:	0c 94 65 00 	jmp	0xca	; 0xca <__bad_interrupt>
      40:	0c 94 65 00 	jmp	0xca	; 0xca <__bad_interrupt>
      44:	0c 94 65 00 	jmp	0xca	; 0xca <__bad_interrupt>
      48:	0c 94 4a 07 	jmp	0xe94	; 0xe94 <__vector_18>
      4c:	0c 94 74 07 	jmp	0xee8	; 0xee8 <__vector_19>
      50:	0c 94 a1 07 	jmp	0xf42	; 0xf42 <__vector_20>
      54:	0c 94 65 00 	jmp	0xca	; 0xca <__bad_interrupt>
      58:	0c 94 65 00 	jmp	0xca	; 0xca <__bad_interrupt>
      5c:	0c 94 65 00 	jmp	0xca	; 0xca <__bad_interrupt>
      60:	0c 94 65 00 	jmp	0xca	; 0xca <__bad_interrupt>
      64:	0c 94 65 00 	jmp	0xca	; 0xca <__bad_interrupt>
      68:	0c 94 ef 06 	jmp	0xdde	; 0xdde <__vector_26>
      6c:	0c 94 65 00 	jmp	0xca	; 0xca <__bad_interrupt>
      70:	0c 94 65 00 	jmp	0xca	; 0xca <__bad_interrupt>
      74:	0c 94 65 00 	jmp	0xca	; 0xca <__bad_interrupt>
      78:	0c 94 f1 07 	jmp	0xfe2	; 0xfe2 <__vector_30>
      7c:	0c 94 1e 08 	jmp	0x103c	; 0x103c <__vector_31>
      80:	0c 94 50 08 	jmp	0x10a0	; 0x10a0 <__vector_32>
      84:	0c 94 65 00 	jmp	0xca	; 0xca <__bad_interrupt>
      88:	0c 94 65 00 	jmp	0xca	; 0xca <__bad_interrupt>

0000008c <__ctors_end>:
      8c:	11 24       	eor	r1, r1
      8e:	1f be       	out	0x3f, r1	; 63
      90:	cf ef       	ldi	r28, 0xFF	; 255
      92:	d0 e1       	ldi	r29, 0x10	; 16
      94:	de bf       	out	0x3e, r29	; 62
      96:	cd bf       	out	0x3d, r28	; 61

00000098 <__do_copy_data>:
      98:	11 e0       	ldi	r17, 0x01	; 1
      9a:	a0 e0       	ldi	r26, 0x00	; 0
      9c:	b1 e0       	ldi	r27, 0x01	; 1
      9e:	ea e1       	ldi	r30, 0x1A	; 26
      a0:	fa e1       	ldi	r31, 0x1A	; 26
      a2:	00 e0       	ldi	r16, 0x00	; 0
      a4:	0b bf       	out	0x3b, r16	; 59
      a6:	02 c0       	rjmp	.+4      	; 0xac <__do_copy_data+0x14>
      a8:	07 90       	elpm	r0, Z+
      aa:	0d 92       	st	X+, r0
      ac:	aa 30       	cpi	r26, 0x0A	; 10
      ae:	b1 07       	cpc	r27, r17
      b0:	d9 f7       	brne	.-10     	; 0xa8 <__do_copy_data+0x10>

000000b2 <__do_clear_bss>:
      b2:	17 e0       	ldi	r17, 0x07	; 7
      b4:	aa e0       	ldi	r26, 0x0A	; 10
      b6:	b1 e0       	ldi	r27, 0x01	; 1
      b8:	01 c0       	rjmp	.+2      	; 0xbc <.do_clear_bss_start>

000000ba <.do_clear_bss_loop>:
      ba:	1d 92       	st	X+, r1

000000bc <.do_clear_bss_start>:
      bc:	aa 37       	cpi	r26, 0x7A	; 122
      be:	b1 07       	cpc	r27, r17
      c0:	e1 f7       	brne	.-8      	; 0xba <.do_clear_bss_loop>
      c2:	0e 94 be 03 	call	0x77c	; 0x77c <main>
      c6:	0c 94 0b 0d 	jmp	0x1a16	; 0x1a16 <_exit>

000000ca <__bad_interrupt>:
      ca:	0c 94 00 00 	jmp	0	; 0x0 <__vectors>

000000ce <rotary__GetValue>:
 IRQ(PB4)   CSN(PD6)   CE(PD7)
 */
uint8_t RF_CHANNEL;
uint8_t rotary__GetValue() {
	uint8_t id = 0;
	if ((PINE & _BV(7)) == 0) {
      ce:	21 b1       	in	r18, 0x01	; 1
      d0:	20 95       	com	r18
      d2:	22 1f       	adc	r18, r18
      d4:	22 27       	eor	r18, r18
      d6:	22 1f       	adc	r18, r18
      d8:	22 0f       	add	r18, r18
      da:	22 0f       	add	r18, r18
      dc:	22 0f       	add	r18, r18
		id |= _BV(3);
	}
	if ((PINE & _BV(6)) == 0) {
      de:	0e 9b       	sbis	0x01, 6	; 1
		id |= _BV(2);
      e0:	24 60       	ori	r18, 0x04	; 4
	}
	if ((PINE & _BV(5)) == 0) {
      e2:	0d 9b       	sbis	0x01, 5	; 1
		id |= _BV(1);
      e4:	22 60       	ori	r18, 0x02	; 2
	}
	if ((PINE & _BV(4)) == 0) {
      e6:	0c 9b       	sbis	0x01, 4	; 1
		id |= _BV(0);
      e8:	21 60       	ori	r18, 0x01	; 1
	}

	if (id == 0) {
      ea:	22 23       	and	r18, r18
      ec:	11 f4       	brne	.+4      	; 0xf2 <rotary__GetValue+0x24>
		RF_CHANNEL = 94;
      ee:	8e e5       	ldi	r24, 0x5E	; 94
      f0:	05 c0       	rjmp	.+10     	; 0xfc <rotary__GetValue+0x2e>
	} else {
		RF_CHANNEL = 94 + (2 * id);
      f2:	82 2f       	mov	r24, r18
      f4:	90 e0       	ldi	r25, 0x00	; 0
      f6:	8f 96       	adiw	r24, 0x2f	; 47
      f8:	88 0f       	add	r24, r24
      fa:	99 1f       	adc	r25, r25
      fc:	80 93 34 01 	sts	0x0134, r24

	}
	return id;
}
     100:	82 2f       	mov	r24, r18
     102:	08 95       	ret

00000104 <SPI_RW>:
uint8_t RX_BUF[TX_PLOAD_WIDTH];

uint8_t TX_BUF[TX_PLOAD_WIDTH];
uint8_t RF_CHANNEL;
uint8_t SPI_RW(uint8_t Data) {
	SPDR = Data;
     104:	8f b9       	out	0x0f, r24	; 15
	while (!(SPSR & 0x80))
     106:	77 9b       	sbis	0x0e, 7	; 14
     108:	fe cf       	rjmp	.-4      	; 0x106 <SPI_RW+0x2>
		;
	return SPDR;
     10a:	8f b1       	in	r24, 0x0f	; 15
}
     10c:	08 95       	ret

0000010e <SPI_RW_Reg>:
/****向寄存器reg写一个字节，同时返回状态字节**************/
/****Reg to register a byte written while returning state bytes****/
uint8_t SPI_RW_Reg(uint8_t reg, uint8_t value) {
	uint8_t status;

	CSN_0;
     10e:	dc 98       	cbi	0x1b, 4	; 27
uint8_t RX_BUF[TX_PLOAD_WIDTH];

uint8_t TX_BUF[TX_PLOAD_WIDTH];
uint8_t RF_CHANNEL;
uint8_t SPI_RW(uint8_t Data) {
	SPDR = Data;
     110:	8f b9       	out	0x0f, r24	; 15
	while (!(SPSR & 0x80))
     112:	77 9b       	sbis	0x0e, 7	; 14
     114:	fe cf       	rjmp	.-4      	; 0x112 <SPI_RW_Reg+0x4>
		;
	return SPDR;
     116:	8f b1       	in	r24, 0x0f	; 15
uint8_t RX_BUF[TX_PLOAD_WIDTH];

uint8_t TX_BUF[TX_PLOAD_WIDTH];
uint8_t RF_CHANNEL;
uint8_t SPI_RW(uint8_t Data) {
	SPDR = Data;
     118:	6f b9       	out	0x0f, r22	; 15
	while (!(SPSR & 0x80))
     11a:	77 9b       	sbis	0x0e, 7	; 14
     11c:	fe cf       	rjmp	.-4      	; 0x11a <SPI_RW_Reg+0xc>
		;
	return SPDR;
     11e:	9f b1       	in	r25, 0x0f	; 15
	uint8_t status;

	CSN_0;
	status = SPI_RW(reg); //select register  and write value to it
	SPI_RW(value);
	CSN_1;
     120:	dc 9a       	sbi	0x1b, 4	; 27
	return (status);
}
     122:	08 95       	ret

00000124 <SPI_Read_Reg>:

/****向寄存器reg读一个字节，同时返回状态字节**************/
/****To register reg read a byte, and return to state bytes*****/
uint8_t SPI_Read_Reg(uint8_t reg) {
	uint8_t status;
	CSN_0;
     124:	dc 98       	cbi	0x1b, 4	; 27
uint8_t RX_BUF[TX_PLOAD_WIDTH];

uint8_t TX_BUF[TX_PLOAD_WIDTH];
uint8_t RF_CHANNEL;
uint8_t SPI_RW(uint8_t Data) {
	SPDR = Data;
     126:	8f b9       	out	0x0f, r24	; 15
	while (!(SPSR & 0x80))
     128:	77 9b       	sbis	0x0e, 7	; 14
     12a:	fe cf       	rjmp	.-4      	; 0x128 <SPI_Read_Reg+0x4>
		;
	return SPDR;
     12c:	8f b1       	in	r24, 0x0f	; 15
uint8_t RX_BUF[TX_PLOAD_WIDTH];

uint8_t TX_BUF[TX_PLOAD_WIDTH];
uint8_t RF_CHANNEL;
uint8_t SPI_RW(uint8_t Data) {
	SPDR = Data;
     12e:	1f b8       	out	0x0f, r1	; 15
	while (!(SPSR & 0x80))
     130:	77 9b       	sbis	0x0e, 7	; 14
     132:	fe cf       	rjmp	.-4      	; 0x130 <SPI_Read_Reg+0xc>
		;
	return SPDR;
     134:	8f b1       	in	r24, 0x0f	; 15
	uint8_t status;
	CSN_0;
	SPI_RW(reg);
	status = SPI_RW(0);

	CSN_1;
     136:	dc 9a       	sbi	0x1b, 4	; 27
	return (status);
}
     138:	08 95       	ret

0000013a <SPI_Read_Buf>:
/********Read the bytes bytes of data****************/

uint8_t SPI_Read_Buf(uint8_t reg, uint8_t *pBuf, uint8_t bytes) {
	uint8_t status, byte_ctr;

	CSN_0;
     13a:	dc 98       	cbi	0x1b, 4	; 27
uint8_t RX_BUF[TX_PLOAD_WIDTH];

uint8_t TX_BUF[TX_PLOAD_WIDTH];
uint8_t RF_CHANNEL;
uint8_t SPI_RW(uint8_t Data) {
	SPDR = Data;
     13c:	8f b9       	out	0x0f, r24	; 15
	while (!(SPSR & 0x80))
     13e:	77 9b       	sbis	0x0e, 7	; 14
     140:	fe cf       	rjmp	.-4      	; 0x13e <SPI_Read_Buf+0x4>
		;
	return SPDR;
     142:	5f b1       	in	r21, 0x0f	; 15
     144:	fb 01       	movw	r30, r22
     146:	90 e0       	ldi	r25, 0x00	; 0
     148:	06 c0       	rjmp	.+12     	; 0x156 <SPI_Read_Buf+0x1c>
uint8_t RX_BUF[TX_PLOAD_WIDTH];

uint8_t TX_BUF[TX_PLOAD_WIDTH];
uint8_t RF_CHANNEL;
uint8_t SPI_RW(uint8_t Data) {
	SPDR = Data;
     14a:	1f b8       	out	0x0f, r1	; 15
	while (!(SPSR & 0x80))
     14c:	77 9b       	sbis	0x0e, 7	; 14
     14e:	fe cf       	rjmp	.-4      	; 0x14c <SPI_Read_Buf+0x12>
		;
	return SPDR;
     150:	8f b1       	in	r24, 0x0f	; 15
	uint8_t status, byte_ctr;

	CSN_0;
	status = SPI_RW(reg);
	for (byte_ctr = 0; byte_ctr < bytes; byte_ctr++)
		pBuf[byte_ctr] = SPI_RW(0);
     152:	81 93       	st	Z+, r24
uint8_t SPI_Read_Buf(uint8_t reg, uint8_t *pBuf, uint8_t bytes) {
	uint8_t status, byte_ctr;

	CSN_0;
	status = SPI_RW(reg);
	for (byte_ctr = 0; byte_ctr < bytes; byte_ctr++)
     154:	9f 5f       	subi	r25, 0xFF	; 255
     156:	94 17       	cp	r25, r20
     158:	c0 f3       	brcs	.-16     	; 0x14a <SPI_Read_Buf+0x10>
		pBuf[byte_ctr] = SPI_RW(0);

	CSN_1;
     15a:	dc 9a       	sbi	0x1b, 4	; 27
	return (status);
}
     15c:	85 2f       	mov	r24, r21
     15e:	08 95       	ret

00000160 <SPI_Write_Buf>:

/****************写入bytes字节的数据*******************/
/****************Write bytes bytes of data*************/
uint8_t SPI_Write_Buf(uint8_t reg, uint8_t *pBuf, uint8_t bytes) {
	uint8_t status, byte_ctr;
	CSN_0;
     160:	dc 98       	cbi	0x1b, 4	; 27
uint8_t RX_BUF[TX_PLOAD_WIDTH];

uint8_t TX_BUF[TX_PLOAD_WIDTH];
uint8_t RF_CHANNEL;
uint8_t SPI_RW(uint8_t Data) {
	SPDR = Data;
     162:	8f b9       	out	0x0f, r24	; 15
	while (!(SPSR & 0x80))
     164:	77 9b       	sbis	0x0e, 7	; 14
     166:	fe cf       	rjmp	.-4      	; 0x164 <SPI_Write_Buf+0x4>
		;
	return SPDR;
     168:	5f b1       	in	r21, 0x0f	; 15
    can be achieved.
*/
void
_delay_loop_1(uint8_t __count)
{
	__asm__ volatile (
     16a:	85 e3       	ldi	r24, 0x35	; 53
     16c:	8a 95       	dec	r24
     16e:	f1 f7       	brne	.-4      	; 0x16c <SPI_Write_Buf+0xc>
     170:	fb 01       	movw	r30, r22
     172:	06 c0       	rjmp	.+12     	; 0x180 <SPI_Write_Buf+0x20>
	CSN_0;
	status = SPI_RW(reg);
	_delay_us(10);
	for (byte_ctr = 0; byte_ctr < bytes; byte_ctr++) {
//		printf("Pbuf = %X\n\r", *pBuf);
		SPI_RW(*pBuf++);
     174:	80 81       	ld	r24, Z
uint8_t RX_BUF[TX_PLOAD_WIDTH];

uint8_t TX_BUF[TX_PLOAD_WIDTH];
uint8_t RF_CHANNEL;
uint8_t SPI_RW(uint8_t Data) {
	SPDR = Data;
     176:	8f b9       	out	0x0f, r24	; 15
	while (!(SPSR & 0x80))
     178:	77 9b       	sbis	0x0e, 7	; 14
     17a:	fe cf       	rjmp	.-4      	; 0x178 <SPI_Write_Buf+0x18>
	CSN_0;
	status = SPI_RW(reg);
	_delay_us(10);
	for (byte_ctr = 0; byte_ctr < bytes; byte_ctr++) {
//		printf("Pbuf = %X\n\r", *pBuf);
		SPI_RW(*pBuf++);
     17c:	31 96       	adiw	r30, 0x01	; 1
uint8_t RF_CHANNEL;
uint8_t SPI_RW(uint8_t Data) {
	SPDR = Data;
	while (!(SPSR & 0x80))
		;
	return SPDR;
     17e:	8f b1       	in	r24, 0x0f	; 15
uint8_t SPI_Write_Buf(uint8_t reg, uint8_t *pBuf, uint8_t bytes) {
	uint8_t status, byte_ctr;
	CSN_0;
	status = SPI_RW(reg);
	_delay_us(10);
	for (byte_ctr = 0; byte_ctr < bytes; byte_ctr++) {
     180:	8e 2f       	mov	r24, r30
     182:	86 1b       	sub	r24, r22
     184:	84 17       	cp	r24, r20
     186:	b0 f3       	brcs	.-20     	; 0x174 <SPI_Write_Buf+0x14>
//		printf("Pbuf = %X\n\r", *pBuf);
		SPI_RW(*pBuf++);
	}
	CSN_1;
     188:	dc 9a       	sbi	0x1b, 4	; 27
	return (status);
}
     18a:	85 2f       	mov	r24, r21
     18c:	08 95       	ret

0000018e <nRF24L01_RxPacket>:

/*接收函数，返回1表示有数据收到，否则没有数据接收到**/
/*Receive function, and returns 1 said data received, or no data to receive*/
uint8_t nRF24L01_RxPacket(uint8_t* rx_buf) {
     18e:	0f 93       	push	r16
     190:	1f 93       	push	r17
     192:	bc 01       	movw	r22, r24
	uint8_t status, revale = 0;
	CE_0;
     194:	db 98       	cbi	0x1b, 3	; 27
     196:	85 e3       	ldi	r24, 0x35	; 53
     198:	8a 95       	dec	r24
     19a:	f1 f7       	brne	.-4      	; 0x198 <nRF24L01_RxPacket+0xa>
uint8_t RX_BUF[TX_PLOAD_WIDTH];

uint8_t TX_BUF[TX_PLOAD_WIDTH];
uint8_t RF_CHANNEL;
uint8_t SPI_RW(uint8_t Data) {
	SPDR = Data;
     19c:	87 e0       	ldi	r24, 0x07	; 7
     19e:	8f b9       	out	0x0f, r24	; 15
	while (!(SPSR & 0x80))
     1a0:	77 9b       	sbis	0x0e, 7	; 14
     1a2:	fe cf       	rjmp	.-4      	; 0x1a0 <nRF24L01_RxPacket+0x12>
		;
	return SPDR;
     1a4:	0f b1       	in	r16, 0x0f	; 15
	_delay_us(10);
	status = SPI_RW(STATUS); // 读取状态寄存其来判断数据接收状况	(Check the state judge read data receiving condition)

//	printf("STATUS接受状态：0x%2x\r\n", status);

	if (status & RX_DR) // 判断是否接收到数据(Judge whether to receive data)
     1a6:	06 fd       	sbrc	r16, 6
     1a8:	02 c0       	rjmp	.+4      	; 0x1ae <nRF24L01_RxPacket+0x20>
     1aa:	10 e0       	ldi	r17, 0x00	; 0
     1ac:	05 c0       	rjmp	.+10     	; 0x1b8 <nRF24L01_RxPacket+0x2a>
	{
		SPI_Read_Buf(RD_RX_PLOAD, rx_buf, TX_PLOAD_WIDTH); // read receive payload from RX_FIFO buffer
     1ae:	81 e6       	ldi	r24, 0x61	; 97
     1b0:	40 e2       	ldi	r20, 0x20	; 32
     1b2:	0e 94 9d 00 	call	0x13a	; 0x13a <SPI_Read_Buf>
     1b6:	11 e0       	ldi	r17, 0x01	; 1

		revale = 1;
	}
	SPI_RW_Reg(WRITE_REG_NRF24L01 + STATUS, status); //接收到数据后RX_DR,TX_DS,MAX_PT都置高为1，通过写1来清楚中断标志
     1b8:	87 e2       	ldi	r24, 0x27	; 39
     1ba:	60 2f       	mov	r22, r16
     1bc:	0e 94 87 00 	call	0x10e	; 0x10e <SPI_RW_Reg>
	CE_1;
     1c0:	db 9a       	sbi	0x1b, 3	; 27
	return revale;
}
     1c2:	81 2f       	mov	r24, r17
     1c4:	1f 91       	pop	r17
     1c6:	0f 91       	pop	r16
     1c8:	08 95       	ret

000001ca <nRF24L01_TxPacket>:

/****************发送函数***************************/
void nRF24L01_TxPacket(uint8_t * tx_buf) {
     1ca:	0f 93       	push	r16
     1cc:	1f 93       	push	r17
     1ce:	8c 01       	movw	r16, r24
	CE_0; //StandBy I模式
     1d0:	db 98       	cbi	0x1b, 3	; 27
	SPI_Write_Buf(WRITE_REG_NRF24L01 + RX_ADDR_P0, TX_ADDRESS, TX_ADR_WIDTH); // 装载接收端地址	(Loading the receiver address)
     1d2:	8a e2       	ldi	r24, 0x2A	; 42
     1d4:	60 e0       	ldi	r22, 0x00	; 0
     1d6:	71 e0       	ldi	r23, 0x01	; 1
     1d8:	45 e0       	ldi	r20, 0x05	; 5
     1da:	0e 94 b0 00 	call	0x160	; 0x160 <SPI_Write_Buf>
	SPI_Write_Buf(WR_TX_PLOAD, tx_buf, TX_PLOAD_WIDTH); // 装载数据(Load data)
     1de:	80 ea       	ldi	r24, 0xA0	; 160
     1e0:	b8 01       	movw	r22, r16
     1e2:	40 e2       	ldi	r20, 0x20	; 32
     1e4:	0e 94 b0 00 	call	0x160	; 0x160 <SPI_Write_Buf>
	SPI_RW_Reg(WRITE_REG_NRF24L01 + CONFIG, 0x0e); // IRQ收发完成中断响应，16位CRC，主发送(IRQ transceiver complete interrupt response, 16 CRC, the Lord sent)
     1e8:	80 e2       	ldi	r24, 0x20	; 32
     1ea:	6e e0       	ldi	r22, 0x0E	; 14
     1ec:	0e 94 87 00 	call	0x10e	; 0x10e <SPI_RW_Reg>
//	printf("\r\nSend data：0x%d\r\n", tx_buf);
	CE_1; //置高CE，激发数据发送(Buy high CE, stimulate the data sent)
     1f0:	db 9a       	sbi	0x1b, 3	; 27
     1f2:	85 e3       	ldi	r24, 0x35	; 53
     1f4:	8a 95       	dec	r24
     1f6:	f1 f7       	brne	.-4      	; 0x1f4 <nRF24L01_TxPacket+0x2a>
	_delay_us(10);
}
     1f8:	1f 91       	pop	r17
     1fa:	0f 91       	pop	r16
     1fc:	08 95       	ret

000001fe <RX_Mode>:

void RX_Mode(void) {
	CE_0;
     1fe:	db 98       	cbi	0x1b, 3	; 27
	SPI_Write_Buf(WRITE_REG_NRF24L01 + RX_ADDR_P0, TX_ADDRESS, TX_ADR_WIDTH); // 接收设备接收通道0使用和发送设备相同的发送地址(Receiving device to receive and transmit channels 0 to use the device to send the same address)
     200:	8a e2       	ldi	r24, 0x2A	; 42
     202:	60 e0       	ldi	r22, 0x00	; 0
     204:	71 e0       	ldi	r23, 0x01	; 1
     206:	45 e0       	ldi	r20, 0x05	; 5
     208:	0e 94 b0 00 	call	0x160	; 0x160 <SPI_Write_Buf>
	SPI_RW_Reg(WRITE_REG_NRF24L01 + RX_PW_P0, TX_PLOAD_WIDTH); // 接收通道0选择和发送通道相同有效数据宽度 (Receive Channel 0 select and send the same channel width of valid data)
     20c:	81 e3       	ldi	r24, 0x31	; 49
     20e:	60 e2       	ldi	r22, 0x20	; 32
     210:	0e 94 87 00 	call	0x10e	; 0x10e <SPI_RW_Reg>
	SPI_RW_Reg(WRITE_REG_NRF24L01 + EN_AA, 0x01); // 使能接收通道0自动应答(Enable automatic answering receive channel 0)
     214:	81 e2       	ldi	r24, 0x21	; 33
     216:	61 e0       	ldi	r22, 0x01	; 1
     218:	0e 94 87 00 	call	0x10e	; 0x10e <SPI_RW_Reg>
	SPI_RW_Reg(WRITE_REG_NRF24L01 + EN_RXADDR, 0x01); // 使能接收通道0(Enable Receive Channel 0)
     21c:	82 e2       	ldi	r24, 0x22	; 34
     21e:	61 e0       	ldi	r22, 0x01	; 1
     220:	0e 94 87 00 	call	0x10e	; 0x10e <SPI_RW_Reg>
	SPI_RW_Reg(WRITE_REG_NRF24L01 + RF_CH, RF_CHANNEL); // 选择射频通道0x40(Select the RF channel 0x40)
     224:	85 e2       	ldi	r24, 0x25	; 37
     226:	60 91 34 01 	lds	r22, 0x0134
     22a:	0e 94 87 00 	call	0x10e	; 0x10e <SPI_RW_Reg>
	SPI_RW_Reg(WRITE_REG_NRF24L01 + RF_SETUP, 0x07); // 数据传输率1Mbps，发射功率0dBm，低噪声放大器增益(Data transfer rate 1Mbps, transmitting power 0dBm, low-noise amplifier gain)
     22e:	86 e2       	ldi	r24, 0x26	; 38
     230:	67 e0       	ldi	r22, 0x07	; 7
     232:	0e 94 87 00 	call	0x10e	; 0x10e <SPI_RW_Reg>
	SPI_RW_Reg(WRITE_REG_NRF24L01 + CONFIG, 0x0f); // CRC使能，16位CRC校验，上电，接收模式 (CRC is enabled, the 16-bit CRC, the power, the receive mode)
     236:	80 e2       	ldi	r24, 0x20	; 32
     238:	6f e0       	ldi	r22, 0x0F	; 15
     23a:	0e 94 87 00 	call	0x10e	; 0x10e <SPI_RW_Reg>
	CE_1;
     23e:	db 9a       	sbi	0x1b, 3	; 27
     240:	85 e3       	ldi	r24, 0x35	; 53
     242:	8a 95       	dec	r24
     244:	f1 f7       	brne	.-4      	; 0x242 <RX_Mode+0x44>
	_delay_us(10);
}
     246:	08 95       	ret

00000248 <TX_Mode>:

void TX_Mode(uint8_t * tx_buf) {
     248:	0f 93       	push	r16
     24a:	1f 93       	push	r17
	CE_0;
     24c:	db 98       	cbi	0x1b, 3	; 27
	SPI_Write_Buf(WRITE_REG_NRF24L01 + TX_ADDR, TX_ADDRESS, TX_ADR_WIDTH); // 写入发送地址(Written to the transmit address)
     24e:	00 e0       	ldi	r16, 0x00	; 0
     250:	11 e0       	ldi	r17, 0x01	; 1
     252:	80 e3       	ldi	r24, 0x30	; 48
     254:	b8 01       	movw	r22, r16
     256:	45 e0       	ldi	r20, 0x05	; 5
     258:	0e 94 b0 00 	call	0x160	; 0x160 <SPI_Write_Buf>
	SPI_Write_Buf(WRITE_REG_NRF24L01 + RX_ADDR_P0, TX_ADDRESS, TX_ADR_WIDTH); // 为了应答接收设备，接收通道0地址和发送地址相同(In order to answer the receiving device, the receiving channel 0 address and send the address the same)
     25c:	8a e2       	ldi	r24, 0x2A	; 42
     25e:	b8 01       	movw	r22, r16
     260:	45 e0       	ldi	r20, 0x05	; 5
     262:	0e 94 b0 00 	call	0x160	; 0x160 <SPI_Write_Buf>
	SPI_Write_Buf(WR_TX_PLOAD, TX_BUF, TX_PLOAD_WIDTH); // 装载数据(Loading data)
     266:	80 ea       	ldi	r24, 0xA0	; 160
     268:	65 e5       	ldi	r22, 0x55	; 85
     26a:	71 e0       	ldi	r23, 0x01	; 1
     26c:	40 e2       	ldi	r20, 0x20	; 32
     26e:	0e 94 b0 00 	call	0x160	; 0x160 <SPI_Write_Buf>
	SPI_RW_Reg(WRITE_REG_NRF24L01 + EN_AA, 0x00); // 使能接收通道0自动应答(Enable automatic answering receive channel 0)
     272:	81 e2       	ldi	r24, 0x21	; 33
     274:	60 e0       	ldi	r22, 0x00	; 0
     276:	0e 94 87 00 	call	0x10e	; 0x10e <SPI_RW_Reg>
	SPI_RW_Reg(WRITE_REG_NRF24L01 + EN_RXADDR, 0x01); // 使能接收通道0(Enable Receive Channel 0)
     27a:	82 e2       	ldi	r24, 0x22	; 34
     27c:	61 e0       	ldi	r22, 0x01	; 1
     27e:	0e 94 87 00 	call	0x10e	; 0x10e <SPI_RW_Reg>
	SPI_RW_Reg(WRITE_REG_NRF24L01 + SETUP_RETR, 0x1f); // 自动重发延时等待250us+86us，自动重发10次(Automatic retransmission delay to wait 250us +86 us, automatic repeat 10 times)
     282:	84 e2       	ldi	r24, 0x24	; 36
     284:	6f e1       	ldi	r22, 0x1F	; 31
     286:	0e 94 87 00 	call	0x10e	; 0x10e <SPI_RW_Reg>
	SPI_RW_Reg(WRITE_REG_NRF24L01 + RF_CH, RF_CHANNEL); // 选择射频通道0x40(Select the RF channel 0x40)
     28a:	85 e2       	ldi	r24, 0x25	; 37
     28c:	60 91 34 01 	lds	r22, 0x0134
     290:	0e 94 87 00 	call	0x10e	; 0x10e <SPI_RW_Reg>
	SPI_RW_Reg(WRITE_REG_NRF24L01 + RF_SETUP, 0x07); // 数据传输率1Mbps，发射功率0dBm，低噪声放大器增益(Data transfer rate 1Mbps, transmitting power 0dBm, low-noise amplifier gain)
     294:	86 e2       	ldi	r24, 0x26	; 38
     296:	67 e0       	ldi	r22, 0x07	; 7
     298:	0e 94 87 00 	call	0x10e	; 0x10e <SPI_RW_Reg>
	SPI_RW_Reg(WRITE_REG_NRF24L01 + RX_PW_P0, 10); // 接收通道0选择和发送通道相同有效数据宽度(/ / Receive channel 0 select and send the same channel width of valid data)
     29c:	81 e3       	ldi	r24, 0x31	; 49
     29e:	6a e0       	ldi	r22, 0x0A	; 10
     2a0:	0e 94 87 00 	call	0x10e	; 0x10e <SPI_RW_Reg>
	SPI_RW_Reg(WRITE_REG_NRF24L01 + CONFIG, 0x0e); // CRC使能，16位CRC校验，上电(CRC is enabled, the 16-bit CRC, power)
     2a4:	80 e2       	ldi	r24, 0x20	; 32
     2a6:	6e e0       	ldi	r22, 0x0E	; 14
     2a8:	0e 94 87 00 	call	0x10e	; 0x10e <SPI_RW_Reg>
//	SPI_RW_Reg(WRITE_REG_NRF24L01 + RF_CH, RF_CHANNEL); // 选择射频通道0x40(Select the RF channel 0x40)
//	SPI_RW_Reg(WRITE_REG_NRF24L01 + RF_SETUP, 0x07); // 数据传输率1Mbps，发射功率0dBm，低噪声放大器增益(Data transfer rate 1Mbps, transmitting power 0dBm, low-noise amplifier gain)
//	SPI_RW_Reg(WRITE_REG_NRF24L01 + RX_PW_P0, 10); // 接收通道0选择和发送通道相同有效数据宽度(/ / Receive channel 0 select and send the same channel width of valid data)
//	SPI_RW_Reg(WRITE_REG_NRF24L01 + CONFIG, 0x08); // CRC使能，16位CRC校验，上电(CRC is enabled, the 16-bit CRC, power)

	CE_1;
     2ac:	db 9a       	sbi	0x1b, 3	; 27
     2ae:	85 e3       	ldi	r24, 0x35	; 53
     2b0:	8a 95       	dec	r24
     2b2:	f1 f7       	brne	.-4      	; 0x2b0 <TX_Mode+0x68>
	_delay_us(10);
}
     2b4:	1f 91       	pop	r17
     2b6:	0f 91       	pop	r16
     2b8:	08 95       	ret

000002ba <nRF24L01_Initial>:

void nRF24L01_Initial(void) {
	/* IRQ(PB4)   CSN(PD6)   CE(PD7) */
	/* MISO(PB3)  MOSI(PB2)  SCK(PB1) SS(PB0) */

	DDRB |= (1 << 1) | (1 << 2) | (1 << 0); // ->output
     2ba:	87 b3       	in	r24, 0x17	; 23
     2bc:	87 60       	ori	r24, 0x07	; 7
     2be:	87 bb       	out	0x17, r24	; 23
	DDRB &= ~(1 << 3);
     2c0:	bb 98       	cbi	0x17, 3	; 23
	PORTB |= (1 << 3) | (1 << 2) | (1 << 1);
     2c2:	88 b3       	in	r24, 0x18	; 24
     2c4:	8e 60       	ori	r24, 0x0E	; 14
     2c6:	88 bb       	out	0x18, r24	; 24
	PORTB &= ~(1 << 0);
     2c8:	c0 98       	cbi	0x18, 0	; 24

	DDRD &= ~(1 << 0);
     2ca:	88 98       	cbi	0x11, 0	; 17
	PORTB |= (1 << 0);
     2cc:	c0 9a       	sbi	0x18, 0	; 24

	DDRA |= (1 << 3) | (1 << 4);
     2ce:	8a b3       	in	r24, 0x1a	; 26
     2d0:	88 61       	ori	r24, 0x18	; 24
     2d2:	8a bb       	out	0x1a, r24	; 26
	PORTA |= (1 << 3) | (1 << 4);
     2d4:	8b b3       	in	r24, 0x1b	; 27
     2d6:	88 61       	ori	r24, 0x18	; 24
     2d8:	8b bb       	out	0x1b, r24	; 27
//    while(1);
//	SPCR = 0X5E;
//    SPSR=0x00;
	SPCR = 0x50; //使能SPI ， 设置SPI为主模式，空闲时CLI为1，第一个上升沿采集数据，时钟    FOSC/16
     2da:	80 e5       	ldi	r24, 0x50	; 80
     2dc:	8d b9       	out	0x0d, r24	; 13
	SPSR = 0x00; //setup SPI
     2de:	1e b8       	out	0x0e, r1	; 14

	CSN_1;
     2e0:	dc 9a       	sbi	0x1b, 4	; 27
	CE_0;
     2e2:	db 98       	cbi	0x1b, 3	; 27
}
     2e4:	08 95       	ret

000002e6 <nRF24L01_Config>:

/****************** 配置函数********************************/
void nRF24L01_Config(void) {

	SPI_RW_Reg(WRITE_REG_NRF24L01 + CONFIG, 0x0e); // Set PWR_UP bit, enable CRC(2 bytes) &Prim:RX. RX_DR enabled..
     2e6:	80 e2       	ldi	r24, 0x20	; 32
     2e8:	6e e0       	ldi	r22, 0x0E	; 14
     2ea:	0e 94 87 00 	call	0x10e	; 0x10e <SPI_RW_Reg>
	SPI_RW_Reg(WRITE_REG_NRF24L01 + EN_AA, 0x3f);
     2ee:	81 e2       	ldi	r24, 0x21	; 33
     2f0:	6f e3       	ldi	r22, 0x3F	; 63
     2f2:	0e 94 87 00 	call	0x10e	; 0x10e <SPI_RW_Reg>
	SPI_RW_Reg(WRITE_REG_NRF24L01 + EN_RXADDR, 0x3f); // Enable Pipe0
     2f6:	82 e2       	ldi	r24, 0x22	; 34
     2f8:	6f e3       	ldi	r22, 0x3F	; 63
     2fa:	0e 94 87 00 	call	0x10e	; 0x10e <SPI_RW_Reg>
//	SPI_RW_Reg(WRITE_REG_NRF24L01 + SETUP_AW, 0x02); // Setup address width=5 bytes
//	SPI_RW_Reg(WRITE_REG_NRF24L01 + SETUP_RETR, 0x1a); // 500us + 86us, 10 retrans...
	SPI_RW_Reg(WRITE_REG_NRF24L01 + RF_CH, RF_CHANNEL);
     2fe:	85 e2       	ldi	r24, 0x25	; 37
     300:	60 91 34 01 	lds	r22, 0x0134
     304:	0e 94 87 00 	call	0x10e	; 0x10e <SPI_RW_Reg>
	SPI_RW_Reg(WRITE_REG_NRF24L01 + RF_SETUP, 0x07); // TX_PWR:0dBm, Datarate:2Mbps,
     308:	86 e2       	ldi	r24, 0x26	; 38
     30a:	67 e0       	ldi	r22, 0x07	; 7
     30c:	0e 94 87 00 	call	0x10e	; 0x10e <SPI_RW_Reg>
}
     310:	08 95       	ret

00000312 <NRF24L01_Send>:

void NRF24L01_Send(void) {
	uint8_t status = 0x00;

	CE_0;
     312:	db 98       	cbi	0x1b, 3	; 27
//	TX_Mode(TX_BUF);
	nRF24L01_TxPacket(TX_BUF);
     314:	85 e5       	ldi	r24, 0x55	; 85
     316:	91 e0       	ldi	r25, 0x01	; 1
     318:	0e 94 e5 00 	call	0x1ca	; 0x1ca <nRF24L01_TxPacket>
     31c:	85 e3       	ldi	r24, 0x35	; 53
     31e:	8a 95       	dec	r24
     320:	f1 f7       	brne	.-4      	; 0x31e <NRF24L01_Send+0xc>
//	while(IRQ);
	_delay_us(10);
	status = SPI_Read_Reg(STATUS); // 读取状态寄存其来判断数据接收状况(Read the status register to determine its data reception status)
     322:	87 e0       	ldi	r24, 0x07	; 7
     324:	0e 94 92 00 	call	0x124	; 0x124 <SPI_Read_Reg>
//	printf("STATUS=0x%02x\r\n", status);
	if (status & TX_DS) /*tx_ds == 0x20*/
     328:	85 ff       	sbrs	r24, 5
     32a:	03 c0       	rjmp	.+6      	; 0x332 <NRF24L01_Send+0x20>
	{
//		printf("STATUS=0x%x\r\n", status);
//		printf("Send ok\r\n", status);

		SPI_RW_Reg(WRITE_REG_NRF24L01 + STATUS, 0x20); // 清除TX，让IRQ拉低；(Clear TX, let IRQ low;)
     32c:	87 e2       	ldi	r24, 0x27	; 39
     32e:	60 e2       	ldi	r22, 0x20	; 32
     330:	04 c0       	rjmp	.+8      	; 0x33a <NRF24L01_Send+0x28>
	} else if (status & MAX_RT) /* status = 0x10*/
     332:	84 ff       	sbrs	r24, 4
     334:	04 c0       	rjmp	.+8      	; 0x33e <NRF24L01_Send+0x2c>
	{
//		printf("Send to achieve maximum number of sending!!\r\n");
		SPI_RW_Reg(WRITE_REG_NRF24L01 + STATUS, 0x10); // 清除TX，让IRQ拉低；	(Clear TX, let IRQ low;)
     336:	87 e2       	ldi	r24, 0x27	; 39
     338:	60 e1       	ldi	r22, 0x10	; 16
     33a:	0e 94 87 00 	call	0x10e	; 0x10e <SPI_RW_Reg>
	}
	CE_1;
     33e:	db 9a       	sbi	0x1b, 3	; 27
}
     340:	08 95       	ret

00000342 <NRF24L01_Receive>:
//		SPI_RW_Reg(WRITE_REG_NRF24L01 + STATUS, 0x40); // 清除TX，让IRQ拉低(Clear TX, let IRQ low)
////		printf("Receiving data:0x%x\r\n", RX_BUF[0]);
//	}
//	CE_1;
//
}
     342:	08 95       	ret

00000344 <getSeqNumGeneratorForGCP>:
}

///////////////////////////////////////////////////////////////////////////////
uint16 seqNumGeneratorForGCP = 0;
uint16 getSeqNumGeneratorForGCP() {
	return seqNumGeneratorForGCP++;
     344:	20 91 0a 01 	lds	r18, 0x010A
     348:	30 91 0b 01 	lds	r19, 0x010B
     34c:	2f 5f       	subi	r18, 0xFF	; 255
     34e:	3f 4f       	sbci	r19, 0xFF	; 255
     350:	30 93 0b 01 	sts	0x010B, r19
     354:	20 93 0a 01 	sts	0x010A, r18
     358:	21 50       	subi	r18, 0x01	; 1
     35a:	30 40       	sbci	r19, 0x00	; 0
}
     35c:	c9 01       	movw	r24, r18
     35e:	08 95       	ret

00000360 <plcs_GetGCPMessage>:

uint8 plcs_GetGCPMessage(uint8 resultMsg[], uint16 destId, uint16 srcId,
		uint8 payload[], uint8 len) {
     360:	ef 92       	push	r14
     362:	ff 92       	push	r15
     364:	0f 93       	push	r16
     366:	cf 93       	push	r28
     368:	df 93       	push	r29
     36a:	ec 01       	movw	r28, r24
     36c:	79 01       	movw	r14, r18
}

///////////////////////////////////////////////////////////////////////////////
uint16 seqNumGeneratorForGCP = 0;
uint16 getSeqNumGeneratorForGCP() {
	return seqNumGeneratorForGCP++;
     36e:	80 91 0a 01 	lds	r24, 0x010A
     372:	90 91 0b 01 	lds	r25, 0x010B
     376:	01 96       	adiw	r24, 0x01	; 1
     378:	90 93 0b 01 	sts	0x010B, r25
     37c:	80 93 0a 01 	sts	0x010A, r24
     380:	01 97       	sbiw	r24, 0x01	; 1
uint8 plcs_GetGCPMessage(uint8 resultMsg[], uint16 destId, uint16 srcId,
		uint8 payload[], uint8 len) {
	uint8 resultLen = 0;
	uint16 seqNum = getSeqNumGeneratorForGCP();

	resultMsg[resultLen++] = NCP_PROTOCOL_ID;
     382:	20 e8       	ldi	r18, 0x80	; 128
     384:	28 83       	st	Y, r18
	resultMsg[resultLen++] = PLCS_GCP_PROTOCOL_ID;
     386:	21 e2       	ldi	r18, 0x21	; 33
     388:	29 83       	std	Y+1, r18	; 0x01
	resultMsg[resultLen++] = seqNum >> 8;
     38a:	9a 83       	std	Y+2, r25	; 0x02
	resultMsg[resultLen++] = seqNum;
     38c:	8b 83       	std	Y+3, r24	; 0x03
	resultMsg[resultLen++] = destId >> 8;
     38e:	7c 83       	std	Y+4, r23	; 0x04
	resultMsg[resultLen++] = destId;
     390:	6d 83       	std	Y+5, r22	; 0x05
	resultMsg[resultLen++] = srcId >> 8;
     392:	5e 83       	std	Y+6, r21	; 0x06
	resultMsg[resultLen++] = srcId;
     394:	4f 83       	std	Y+7, r20	; 0x07
     396:	40 e0       	ldi	r20, 0x00	; 0
     398:	50 e0       	ldi	r21, 0x00	; 0
	for (int i = 0; i < len; i++)
     39a:	60 2f       	mov	r22, r16
     39c:	70 e0       	ldi	r23, 0x00	; 0
     39e:	0a c0       	rjmp	.+20     	; 0x3b4 <plcs_GetGCPMessage+0x54>
		resultMsg[resultLen++] = payload[i];
     3a0:	fe 01       	movw	r30, r28
     3a2:	e8 0f       	add	r30, r24
     3a4:	f1 1d       	adc	r31, r1
     3a6:	d7 01       	movw	r26, r14
     3a8:	a4 0f       	add	r26, r20
     3aa:	b5 1f       	adc	r27, r21
     3ac:	8c 91       	ld	r24, X
     3ae:	80 83       	st	Z, r24
	resultMsg[resultLen++] = seqNum;
	resultMsg[resultLen++] = destId >> 8;
	resultMsg[resultLen++] = destId;
	resultMsg[resultLen++] = srcId >> 8;
	resultMsg[resultLen++] = srcId;
	for (int i = 0; i < len; i++)
     3b0:	4f 5f       	subi	r20, 0xFF	; 255
     3b2:	5f 4f       	sbci	r21, 0xFF	; 255
     3b4:	84 2f       	mov	r24, r20
     3b6:	88 5f       	subi	r24, 0xF8	; 248
     3b8:	46 17       	cp	r20, r22
     3ba:	57 07       	cpc	r21, r23
     3bc:	8c f3       	brlt	.-30     	; 0x3a0 <plcs_GetGCPMessage+0x40>
		resultMsg[resultLen++] = payload[i];
	return resultLen;
}
     3be:	80 2f       	mov	r24, r16
     3c0:	88 5f       	subi	r24, 0xF8	; 248
     3c2:	df 91       	pop	r29
     3c4:	cf 91       	pop	r28
     3c6:	0f 91       	pop	r16
     3c8:	ff 90       	pop	r15
     3ca:	ef 90       	pop	r14
     3cc:	08 95       	ret

000003ce <plcs_GetGCPResMessage>:

uint8 plcs_GetGCPResMessage(uint8 resultMsg[], uint16 destId, uint16 srcId,
		uint8 payload[], uint8 len, uint16 seqNum) {
     3ce:	ef 92       	push	r14
     3d0:	ff 92       	push	r15
     3d2:	0f 93       	push	r16
     3d4:	cf 93       	push	r28
     3d6:	df 93       	push	r29
     3d8:	ec 01       	movw	r28, r24
	uint8 resultLen = 0;

	resultMsg[resultLen++] = NCP_PROTOCOL_ID;
     3da:	80 e8       	ldi	r24, 0x80	; 128
     3dc:	88 83       	st	Y, r24
	resultMsg[resultLen++] = PLCS_GCP_PROTOCOL_ID;
     3de:	81 e2       	ldi	r24, 0x21	; 33
     3e0:	89 83       	std	Y+1, r24	; 0x01
	resultMsg[resultLen++] = seqNum>>8;
     3e2:	fa 82       	std	Y+2, r15	; 0x02
	resultMsg[resultLen++] = seqNum;
     3e4:	eb 82       	std	Y+3, r14	; 0x03
	resultMsg[resultLen++] = destId >> 8;
     3e6:	7c 83       	std	Y+4, r23	; 0x04
	resultMsg[resultLen++] = destId;
     3e8:	6d 83       	std	Y+5, r22	; 0x05
	resultMsg[resultLen++] = srcId >> 8;
     3ea:	5e 83       	std	Y+6, r21	; 0x06
	resultMsg[resultLen++] = srcId;
     3ec:	4f 83       	std	Y+7, r20	; 0x07
     3ee:	40 e0       	ldi	r20, 0x00	; 0
     3f0:	50 e0       	ldi	r21, 0x00	; 0
	for (int i = 0; i < len; i++)
     3f2:	60 2f       	mov	r22, r16
     3f4:	70 e0       	ldi	r23, 0x00	; 0
     3f6:	0a c0       	rjmp	.+20     	; 0x40c <plcs_GetGCPResMessage+0x3e>
		resultMsg[resultLen++] = payload[i];
     3f8:	fe 01       	movw	r30, r28
     3fa:	e8 0f       	add	r30, r24
     3fc:	f1 1d       	adc	r31, r1
     3fe:	d9 01       	movw	r26, r18
     400:	a4 0f       	add	r26, r20
     402:	b5 1f       	adc	r27, r21
     404:	8c 91       	ld	r24, X
     406:	80 83       	st	Z, r24
	resultMsg[resultLen++] = seqNum;
	resultMsg[resultLen++] = destId >> 8;
	resultMsg[resultLen++] = destId;
	resultMsg[resultLen++] = srcId >> 8;
	resultMsg[resultLen++] = srcId;
	for (int i = 0; i < len; i++)
     408:	4f 5f       	subi	r20, 0xFF	; 255
     40a:	5f 4f       	sbci	r21, 0xFF	; 255
     40c:	84 2f       	mov	r24, r20
     40e:	88 5f       	subi	r24, 0xF8	; 248
     410:	46 17       	cp	r20, r22
     412:	57 07       	cpc	r21, r23
     414:	8c f3       	brlt	.-30     	; 0x3f8 <plcs_GetGCPResMessage+0x2a>
		resultMsg[resultLen++] = payload[i];
	return resultLen;
}
     416:	80 2f       	mov	r24, r16
     418:	88 5f       	subi	r24, 0xF8	; 248
     41a:	df 91       	pop	r29
     41c:	cf 91       	pop	r28
     41e:	0f 91       	pop	r16
     420:	ff 90       	pop	r15
     422:	ef 90       	pop	r14
     424:	08 95       	ret

00000426 <plcs_gcp_SendStateInfoRes>:
/////////////////////////////////////////////////////////////////////////////////////////////////////////
//Send
/////////////////////////////////////////////////////////////////////////////////////////////////////////

void plcs_gcp_SendStateInfoRes(uint16 seqNum, uint16 srcId, uint8 value)
{
     426:	cf 92       	push	r12
     428:	df 92       	push	r13
     42a:	ef 92       	push	r14
     42c:	ff 92       	push	r15
     42e:	0f 93       	push	r16
     430:	df 93       	push	r29
     432:	cf 93       	push	r28
     434:	cd b7       	in	r28, 0x3d	; 61
     436:	de b7       	in	r29, 0x3e	; 62
     438:	a0 97       	sbiw	r28, 0x20	; 32
     43a:	0f b6       	in	r0, 0x3f	; 63
     43c:	f8 94       	cli
     43e:	de bf       	out	0x3e, r29	; 62
     440:	0f be       	out	0x3f, r0	; 63
     442:	cd bf       	out	0x3d, r28	; 61
     444:	7c 01       	movw	r14, r24
	int resultLen = 0;
	int len=0;
	uint8 payload[32];

	payload[len++] = PLCS_GCP_RES_STATE_INFO;
     446:	85 e2       	ldi	r24, 0x25	; 37
     448:	89 83       	std	Y+1, r24	; 0x01
	payload[len++] = 0;
     44a:	1a 82       	std	Y+2, r1	; 0x02
	payload[len++] = 0;
     44c:	1b 82       	std	Y+3, r1	; 0x03
	payload[len++] = srcId >> 8;
     44e:	7c 83       	std	Y+4, r23	; 0x04
	payload[len++] = srcId;
     450:	6d 83       	std	Y+5, r22	; 0x05
	payload[len++] = 0x20;
     452:	80 e2       	ldi	r24, 0x20	; 32
     454:	8e 83       	std	Y+6, r24	; 0x06
	payload[len++] = 0x40;
     456:	80 e4       	ldi	r24, 0x40	; 64
     458:	8f 83       	std	Y+7, r24	; 0x07
	payload[len++] = value;
     45a:	48 87       	std	Y+8, r20	; 0x08

	resultLen = plcs_GetGCPResMessage(tmp_BuffForGC, 0, tmp_zrmp.zrm_Id, payload, len, seqNum);
     45c:	85 e7       	ldi	r24, 0x75	; 117
     45e:	c8 2e       	mov	r12, r24
     460:	81 e0       	ldi	r24, 0x01	; 1
     462:	d8 2e       	mov	r13, r24
     464:	40 91 74 07 	lds	r20, 0x0774
     468:	50 91 75 07 	lds	r21, 0x0775
     46c:	c6 01       	movw	r24, r12
     46e:	60 e0       	ldi	r22, 0x00	; 0
     470:	70 e0       	ldi	r23, 0x00	; 0
     472:	9e 01       	movw	r18, r28
     474:	2f 5f       	subi	r18, 0xFF	; 255
     476:	3f 4f       	sbci	r19, 0xFF	; 255
     478:	08 e0       	ldi	r16, 0x08	; 8
     47a:	0e 94 e7 01 	call	0x3ce	; 0x3ce <plcs_GetGCPResMessage>
     47e:	48 2f       	mov	r20, r24

	sendData(0x00, tmp_BuffForGC, resultLen);
     480:	80 e0       	ldi	r24, 0x00	; 0
     482:	90 e0       	ldi	r25, 0x00	; 0
     484:	b6 01       	movw	r22, r12
     486:	50 e0       	ldi	r21, 0x00	; 0
     488:	0e 94 4e 0c 	call	0x189c	; 0x189c <sendData>
}
     48c:	a0 96       	adiw	r28, 0x20	; 32
     48e:	0f b6       	in	r0, 0x3f	; 63
     490:	f8 94       	cli
     492:	de bf       	out	0x3e, r29	; 62
     494:	0f be       	out	0x3f, r0	; 63
     496:	cd bf       	out	0x3d, r28	; 61
     498:	cf 91       	pop	r28
     49a:	df 91       	pop	r29
     49c:	0f 91       	pop	r16
     49e:	ff 90       	pop	r15
     4a0:	ef 90       	pop	r14
     4a2:	df 90       	pop	r13
     4a4:	cf 90       	pop	r12
     4a6:	08 95       	ret

000004a8 <plcs_GCP_HandleStateInfoReq>:
			plcs_GCP_HandleStateInfoReq(srcNetAddr, msg, length);
			break;
		}
}

void plcs_GCP_HandleStateInfoReq(uint16 srcNetAddr, uint8 msg[], int length){
     4a8:	fb 01       	movw	r30, r22
	uint16 seqNum=0;

	seqNum = msg[2] << 8 | msg[3];

	plcs_gcp_SendStateInfoRes(seqNum, tmp_zrmp.zrm_Id, 0);
     4aa:	92 81       	ldd	r25, Z+2	; 0x02
     4ac:	80 e0       	ldi	r24, 0x00	; 0
     4ae:	23 81       	ldd	r18, Z+3	; 0x03
     4b0:	30 e0       	ldi	r19, 0x00	; 0
     4b2:	60 91 74 07 	lds	r22, 0x0774
     4b6:	70 91 75 07 	lds	r23, 0x0775
     4ba:	82 2b       	or	r24, r18
     4bc:	93 2b       	or	r25, r19
     4be:	40 e0       	ldi	r20, 0x00	; 0
     4c0:	0e 94 13 02 	call	0x426	; 0x426 <plcs_gcp_SendStateInfoRes>
}
     4c4:	08 95       	ret

000004c6 <plcs_GCP_ProcessMessageFromZigbee>:
#include "GC_Protocol.h"
#include "NCProtocol.h"
/////////////
uint8 tmp_BuffForGC[64];
//////////////////////////
void plcs_GCP_ProcessMessageFromZigbee(uint16 srcNetAddr, uint8 msg[], int length){
     4c6:	9c 01       	movw	r18, r24
     4c8:	fb 01       	movw	r30, r22
	switch (msg[8]) { // Msg Type of NCP
     4ca:	80 85       	ldd	r24, Z+8	; 0x08
     4cc:	84 32       	cpi	r24, 0x24	; 36
     4ce:	19 f4       	brne	.+6      	; 0x4d6 <plcs_GCP_ProcessMessageFromZigbee+0x10>
		case PLCS_GCP_REQ_STATEINFO:
			plcs_GCP_HandleStateInfoReq(srcNetAddr, msg, length);
     4d0:	c9 01       	movw	r24, r18
     4d2:	0e 94 54 02 	call	0x4a8	; 0x4a8 <plcs_GCP_HandleStateInfoReq>
     4d6:	08 95       	ret

000004d8 <InitMCU>:
uint8 SensorPacket[64];

//-----------------------------------------------------------------------------
//MCU Initialize
void InitMCU() {
	PORTA = 0x00;
     4d8:	1b ba       	out	0x1b, r1	; 27
	DDRA = 0xFF;
     4da:	8f ef       	ldi	r24, 0xFF	; 255
     4dc:	8a bb       	out	0x1a, r24	; 26
	PORTC = 0x0F;
     4de:	9f e0       	ldi	r25, 0x0F	; 15
     4e0:	95 bb       	out	0x15, r25	; 21
	DDRC = 0xFF;
     4e2:	84 bb       	out	0x14, r24	; 20
	PORTD = 0x9F;
     4e4:	9f e9       	ldi	r25, 0x9F	; 159
     4e6:	92 bb       	out	0x12, r25	; 18
	DDRD = 0xFF;
     4e8:	81 bb       	out	0x11, r24	; 17
	PORTF = 0xFF;
     4ea:	80 93 62 00 	sts	0x0062, r24
	DDRF = 0xFF;
     4ee:	80 93 61 00 	sts	0x0061, r24
	PORTG = 0xFF;
     4f2:	80 93 65 00 	sts	0x0065, r24
	DDRG = 0xFF;
     4f6:	80 93 64 00 	sts	0x0064, r24
	DDRE |= _BV(PE0);
     4fa:	10 9a       	sbi	0x02, 0	; 2
	DDRE &= ~_BV(PC4) | _BV(PC5) | _BV(PC6) | _BV(PC7);
     4fc:	14 98       	cbi	0x02, 4	; 2
	PORTE |= _BV(PC4) | _BV(PC5) | _BV(PC6) | _BV(PC7);
     4fe:	83 b1       	in	r24, 0x03	; 3
     500:	80 6f       	ori	r24, 0xF0	; 240
     502:	83 b9       	out	0x03, r24	; 3

}
     504:	08 95       	ret

00000506 <resetZigbee>:

//----------------------------------------------------------------------//
void resetZigbee() {
	PORTD &= ~(0x80);
     506:	97 98       	cbi	0x12, 7	; 18
     508:	88 ee       	ldi	r24, 0xE8	; 232
     50a:	93 e0       	ldi	r25, 0x03	; 3
    milliseconds can be achieved.
 */
void
_delay_loop_2(uint16_t __count)
{
	__asm__ volatile (
     50c:	20 e9       	ldi	r18, 0x90	; 144
     50e:	31 e0       	ldi	r19, 0x01	; 1
     510:	f9 01       	movw	r30, r18
     512:	31 97       	sbiw	r30, 0x01	; 1
     514:	f1 f7       	brne	.-4      	; 0x512 <resetZigbee+0xc>
		__ticks = (uint16_t) (__ms * 10.0);
		while(__ticks)
		{
			// wait 1/10 ms
			_delay_loop_2(((F_CPU) / 4e3) / 10);
			__ticks --;
     516:	01 97       	sbiw	r24, 0x01	; 1
		__ticks = 1;
	else if (__tmp > 65535)
	{
		//	__ticks = requested delay in 1/10 ms
		__ticks = (uint16_t) (__ms * 10.0);
		while(__ticks)
     518:	d9 f7       	brne	.-10     	; 0x510 <resetZigbee+0xa>
	MSLEEP(100);
	PORTD |= 0x80;
     51a:	97 9a       	sbi	0x12, 7	; 18
}
     51c:	08 95       	ret

0000051e <WDT_INIT>:
		}
	}
}

void WDT_INIT() {
	MCUCSR &= ~(1 << WDRF); // WatchDog Init(Low)
     51e:	84 b7       	in	r24, 0x34	; 52
     520:	87 7f       	andi	r24, 0xF7	; 247
     522:	84 bf       	out	0x34, r24	; 52
	wdt_enable(WDTO_2S);
     524:	2f e0       	ldi	r18, 0x0F	; 15
     526:	88 e1       	ldi	r24, 0x18	; 24
     528:	90 e0       	ldi	r25, 0x00	; 0
     52a:	0f b6       	in	r0, 0x3f	; 63
     52c:	f8 94       	cli
     52e:	a8 95       	wdr
     530:	81 bd       	out	0x21, r24	; 33
     532:	0f be       	out	0x3f, r0	; 63
     534:	21 bd       	out	0x21, r18	; 33
	// WatchDog Reset Time(High)
}
     536:	08 95       	ret

00000538 <NCP_Task>:
		timer_set(NCP_REREGISTER_ID, 2000);
	}
}

void NCP_Task() {
	if (timer_isfired(NCP_TIMER_ID)) {
     538:	86 e0       	ldi	r24, 0x06	; 6
     53a:	90 e0       	ldi	r25, 0x00	; 0
     53c:	0e 94 9d 06 	call	0xd3a	; 0xd3a <timer_get>
     540:	89 2b       	or	r24, r25
     542:	49 f5       	brne	.+82     	; 0x596 <NCP_Task+0x5e>
		if (ncp_ConnState() == NCP_NET_NOT_CONNECT) {
     544:	0e 94 d8 05 	call	0xbb0	; 0xbb0 <ncp_ConnState>
     548:	88 23       	and	r24, r24
     54a:	99 f4       	brne	.+38     	; 0x572 <NCP_Task+0x3a>
			if (getState() == ZRM_CONNECT)
     54c:	0e 94 c0 0b 	call	0x1780	; 0x1780 <getState>
     550:	83 30       	cpi	r24, 0x03	; 3
     552:	11 f4       	brne	.+4      	; 0x558 <NCP_Task+0x20>
				ncp_SendRegisterReq();
     554:	0e 94 12 06 	call	0xc24	; 0xc24 <ncp_SendRegisterReq>

			timer_clear(NCP_TIMER_ID);
     558:	86 e0       	ldi	r24, 0x06	; 6
     55a:	90 e0       	ldi	r25, 0x00	; 0
     55c:	0e 94 ba 06 	call	0xd74	; 0xd74 <timer_clear>
			timer_set(NCP_TIMER_ID, 10000);
     560:	86 e0       	ldi	r24, 0x06	; 6
     562:	90 e0       	ldi	r25, 0x00	; 0
     564:	40 e1       	ldi	r20, 0x10	; 16
     566:	57 e2       	ldi	r21, 0x27	; 39
     568:	60 e0       	ldi	r22, 0x00	; 0
     56a:	70 e0       	ldi	r23, 0x00	; 0
     56c:	0e 94 88 06 	call	0xd10	; 0xd10 <timer_set>
     570:	08 95       	ret
		} else {
			if (getState() == ZRM_CONNECT)
     572:	0e 94 c0 0b 	call	0x1780	; 0x1780 <getState>
     576:	83 30       	cpi	r24, 0x03	; 3
     578:	11 f4       	brne	.+4      	; 0x57e <NCP_Task+0x46>
				ncp_SendPingReq();
     57a:	0e 94 4c 06 	call	0xc98	; 0xc98 <ncp_SendPingReq>

			timer_clear(NCP_TIMER_ID);
     57e:	86 e0       	ldi	r24, 0x06	; 6
     580:	90 e0       	ldi	r25, 0x00	; 0
     582:	0e 94 ba 06 	call	0xd74	; 0xd74 <timer_clear>
			timer_set(NCP_TIMER_ID, 20000);
     586:	86 e0       	ldi	r24, 0x06	; 6
     588:	90 e0       	ldi	r25, 0x00	; 0
     58a:	40 e2       	ldi	r20, 0x20	; 32
     58c:	5e e4       	ldi	r21, 0x4E	; 78
     58e:	60 e0       	ldi	r22, 0x00	; 0
     590:	70 e0       	ldi	r23, 0x00	; 0
     592:	0e 94 88 06 	call	0xd10	; 0xd10 <timer_set>
     596:	08 95       	ret

00000598 <ZigbeeUsartTask>:
		timer_clear(ON_TEST_TIMER_ID);
		timer_set(ON_TEST_TIMER_ID, 5000);
	}
}

void ZigbeeUsartTask() {
     598:	0f 93       	push	r16
     59a:	1f 93       	push	r17
     59c:	cf 93       	push	r28
     59e:	df 93       	push	r29
	static int Recvlen = 0;
	static uint8 zigbeeHWResetCount = 0;

	if (timer_isfired(ON_ZIGBEE_PING_TIMER_ID)) {
     5a0:	81 e0       	ldi	r24, 0x01	; 1
     5a2:	90 e0       	ldi	r25, 0x00	; 0
     5a4:	0e 94 9d 06 	call	0xd3a	; 0xd3a <timer_get>
     5a8:	89 2b       	or	r24, r25
     5aa:	99 f4       	brne	.+38     	; 0x5d2 <ZigbeeUsartTask+0x3a>
		ZRMsendPing();
     5ac:	0e 94 3f 0c 	call	0x187e	; 0x187e <ZRMsendPing>
		zigbeeHWResetCount++;
     5b0:	80 91 0c 01 	lds	r24, 0x010C
     5b4:	8f 5f       	subi	r24, 0xFF	; 255
     5b6:	80 93 0c 01 	sts	0x010C, r24

		timer_clear(ON_ZIGBEE_PING_TIMER_ID);
     5ba:	81 e0       	ldi	r24, 0x01	; 1
     5bc:	90 e0       	ldi	r25, 0x00	; 0
     5be:	0e 94 ba 06 	call	0xd74	; 0xd74 <timer_clear>
		timer_set(ON_ZIGBEE_PING_TIMER_ID, 10000);
     5c2:	81 e0       	ldi	r24, 0x01	; 1
     5c4:	90 e0       	ldi	r25, 0x00	; 0
     5c6:	40 e1       	ldi	r20, 0x10	; 16
     5c8:	57 e2       	ldi	r21, 0x27	; 39
     5ca:	60 e0       	ldi	r22, 0x00	; 0
     5cc:	70 e0       	ldi	r23, 0x00	; 0
     5ce:	0e 94 88 06 	call	0xd10	; 0xd10 <timer_set>
	}

	if (getState() > 1) {
     5d2:	0e 94 c0 0b 	call	0x1780	; 0x1780 <getState>
     5d6:	82 30       	cpi	r24, 0x02	; 2
     5d8:	30 f4       	brcc	.+12     	; 0x5e6 <ZigbeeUsartTask+0x4e>
		zigbeeHWResetCount = 0;
	} else if (zigbeeHWResetCount > 5) {
     5da:	80 91 0c 01 	lds	r24, 0x010C
     5de:	86 30       	cpi	r24, 0x06	; 6
     5e0:	20 f0       	brcs	.+8      	; 0x5ea <ZigbeeUsartTask+0x52>
		resetZigbee();
     5e2:	0e 94 83 02 	call	0x506	; 0x506 <resetZigbee>
		zigbeeHWResetCount = 0;
     5e6:	10 92 0c 01 	sts	0x010C, r1
	}

	if ((Recvlen = xcps_recv_zigbee(SensorPacket, 64)) > 0) {
     5ea:	85 eb       	ldi	r24, 0xB5	; 181
     5ec:	91 e0       	ldi	r25, 0x01	; 1
     5ee:	60 e4       	ldi	r22, 0x40	; 64
     5f0:	70 e0       	ldi	r23, 0x00	; 0
     5f2:	0e 94 c0 0a 	call	0x1580	; 0x1580 <xcps_recv_zigbee>
     5f6:	ec 01       	movw	r28, r24
     5f8:	90 93 0e 01 	sts	0x010E, r25
     5fc:	80 93 0d 01 	sts	0x010D, r24
     600:	18 16       	cp	r1, r24
     602:	19 06       	cpc	r1, r25
     604:	0c f0       	brlt	.+2      	; 0x608 <ZigbeeUsartTask+0x70>
     606:	3f c0       	rjmp	.+126    	; 0x686 <ZigbeeUsartTask+0xee>
		uint8 buff_len = 0;
		uint16 Src_Addr;
		uint16 Dst_Addr;
		uint16 destId = 0;

		switch (SensorPacket[0]) {
     608:	80 91 b5 01 	lds	r24, 0x01B5
     60c:	88 23       	and	r24, r24
     60e:	19 f0       	breq	.+6      	; 0x616 <ZigbeeUsartTask+0x7e>
     610:	80 31       	cpi	r24, 0x10	; 16
     612:	c9 f5       	brne	.+114    	; 0x686 <ZigbeeUsartTask+0xee>
     614:	09 c0       	rjmp	.+18     	; 0x628 <ZigbeeUsartTask+0x90>
		case 0x00: // Send to GMProtocols (Gateway <-> RFM)
			buff_len = (Recvlen - 1);
			ZRMPMessage(&SensorPacket[1], buff_len);
     616:	ce 01       	movw	r24, r28
     618:	81 50       	subi	r24, 0x01	; 1
     61a:	68 2f       	mov	r22, r24
     61c:	86 eb       	ldi	r24, 0xB6	; 182
     61e:	91 e0       	ldi	r25, 0x01	; 1
     620:	70 e0       	ldi	r23, 0x00	; 0
     622:	0e 94 9c 0c 	call	0x1938	; 0x1938 <ZRMPMessage>
     626:	2f c0       	rjmp	.+94     	; 0x686 <ZigbeeUsartTask+0xee>
			break;
		case 0x10:
			Dst_Addr = (uint16) (SensorPacket[1] << 8) | (SensorPacket[2]);
			Src_Addr = (uint16) (SensorPacket[3] << 8) | (SensorPacket[4]);
     628:	10 91 b8 01 	lds	r17, 0x01B8
     62c:	00 91 b9 01 	lds	r16, 0x01B9

			destId = (uint16) (SensorPacket[9] << 8) | (SensorPacket[10]);
			buff_len = (Recvlen - 5);
			if (destId == tmp_zrmp.zrm_Id) {
     630:	90 91 be 01 	lds	r25, 0x01BE
     634:	80 e0       	ldi	r24, 0x00	; 0
     636:	20 91 bf 01 	lds	r18, 0x01BF
     63a:	30 e0       	ldi	r19, 0x00	; 0
     63c:	82 2b       	or	r24, r18
     63e:	93 2b       	or	r25, r19
     640:	20 91 74 07 	lds	r18, 0x0774
     644:	30 91 75 07 	lds	r19, 0x0775
     648:	82 17       	cp	r24, r18
     64a:	93 07       	cpc	r25, r19
     64c:	e1 f4       	brne	.+56     	; 0x686 <ZigbeeUsartTask+0xee>
				timer_clear(NCP_REREGISTER_ID);
     64e:	87 e0       	ldi	r24, 0x07	; 7
     650:	90 e0       	ldi	r25, 0x00	; 0
     652:	0e 94 ba 06 	call	0xd74	; 0xd74 <timer_clear>
				timer_set(NCP_REREGISTER_ID, 2000);
     656:	87 e0       	ldi	r24, 0x07	; 7
     658:	90 e0       	ldi	r25, 0x00	; 0
     65a:	40 ed       	ldi	r20, 0xD0	; 208
     65c:	57 e0       	ldi	r21, 0x07	; 7
     65e:	60 e0       	ldi	r22, 0x00	; 0
     660:	70 e0       	ldi	r23, 0x00	; 0
     662:	0e 94 88 06 	call	0xd10	; 0xd10 <timer_set>

				XNetHandler(Src_Addr, &SensorPacket[5], buff_len - 5);
     666:	91 2f       	mov	r25, r17
     668:	80 e0       	ldi	r24, 0x00	; 0
     66a:	20 2f       	mov	r18, r16
     66c:	30 e0       	ldi	r19, 0x00	; 0
     66e:	be 01       	movw	r22, r28
     670:	65 50       	subi	r22, 0x05	; 5
     672:	46 2f       	mov	r20, r22
     674:	50 e0       	ldi	r21, 0x00	; 0
     676:	45 50       	subi	r20, 0x05	; 5
     678:	50 40       	sbci	r21, 0x00	; 0
     67a:	82 2b       	or	r24, r18
     67c:	93 2b       	or	r25, r19
     67e:	6a eb       	ldi	r22, 0xBA	; 186
     680:	71 e0       	ldi	r23, 0x01	; 1
     682:	0e 94 a5 08 	call	0x114a	; 0x114a <XNetHandler>
		default: // Error Mesaage
			break;
		}
	}

	if (timer_isfired(NCP_REREGISTER_ID)) {
     686:	87 e0       	ldi	r24, 0x07	; 7
     688:	90 e0       	ldi	r25, 0x00	; 0
     68a:	0e 94 9d 06 	call	0xd3a	; 0xd3a <timer_get>
     68e:	89 2b       	or	r24, r25
     690:	71 f4       	brne	.+28     	; 0x6ae <ZigbeeUsartTask+0x116>
		ncp_SendRegisterReq();
     692:	0e 94 12 06 	call	0xc24	; 0xc24 <ncp_SendRegisterReq>

		timer_clear(NCP_REREGISTER_ID);
     696:	87 e0       	ldi	r24, 0x07	; 7
     698:	90 e0       	ldi	r25, 0x00	; 0
     69a:	0e 94 ba 06 	call	0xd74	; 0xd74 <timer_clear>
		timer_set(NCP_REREGISTER_ID, 2000);
     69e:	87 e0       	ldi	r24, 0x07	; 7
     6a0:	90 e0       	ldi	r25, 0x00	; 0
     6a2:	40 ed       	ldi	r20, 0xD0	; 208
     6a4:	57 e0       	ldi	r21, 0x07	; 7
     6a6:	60 e0       	ldi	r22, 0x00	; 0
     6a8:	70 e0       	ldi	r23, 0x00	; 0
     6aa:	0e 94 88 06 	call	0xd10	; 0xd10 <timer_set>
	}
}
     6ae:	df 91       	pop	r29
     6b0:	cf 91       	pop	r28
     6b2:	1f 91       	pop	r17
     6b4:	0f 91       	pop	r16
     6b6:	08 95       	ret

000006b8 <ledTask>:
}

/***** Task Led(Toggle) *****/
void ledTask() {
	static uint8 mode = 0;
	if (timer_isfired(ON_WTD_TIMER_ID)) {
     6b8:	82 e0       	ldi	r24, 0x02	; 2
     6ba:	90 e0       	ldi	r25, 0x00	; 0
     6bc:	0e 94 9d 06 	call	0xd3a	; 0xd3a <timer_get>
     6c0:	89 2b       	or	r24, r25
     6c2:	89 f4       	brne	.+34     	; 0x6e6 <ledTask+0x2e>
		wdt_reset();
     6c4:	a8 95       	wdr

		MDP_NRFSendDimmingReqToMDP(1, 1);
     6c6:	81 e0       	ldi	r24, 0x01	; 1
     6c8:	61 e0       	ldi	r22, 0x01	; 1
     6ca:	0e 94 dd 04 	call	0x9ba	; 0x9ba <MDP_NRFSendDimmingReqToMDP>
		timer_clear(ON_WTD_TIMER_ID);
     6ce:	82 e0       	ldi	r24, 0x02	; 2
     6d0:	90 e0       	ldi	r25, 0x00	; 0
     6d2:	0e 94 ba 06 	call	0xd74	; 0xd74 <timer_clear>
		timer_set(ON_WTD_TIMER_ID, 100);
     6d6:	82 e0       	ldi	r24, 0x02	; 2
     6d8:	90 e0       	ldi	r25, 0x00	; 0
     6da:	44 e6       	ldi	r20, 0x64	; 100
     6dc:	50 e0       	ldi	r21, 0x00	; 0
     6de:	60 e0       	ldi	r22, 0x00	; 0
     6e0:	70 e0       	ldi	r23, 0x00	; 0
     6e2:	0e 94 88 06 	call	0xd10	; 0xd10 <timer_set>
	}

	if (timer_isfired(ON_TEST_TIMER_ID)) {
     6e6:	85 e0       	ldi	r24, 0x05	; 5
     6e8:	90 e0       	ldi	r25, 0x00	; 0
     6ea:	0e 94 9d 06 	call	0xd3a	; 0xd3a <timer_get>
     6ee:	89 2b       	or	r24, r25
     6f0:	09 f0       	breq	.+2      	; 0x6f4 <ledTask+0x3c>
     6f2:	43 c0       	rjmp	.+134    	; 0x77a <ledTask+0xc2>
		if (rotary_GetValue() == 0x00) {
     6f4:	0e 94 fc 0c 	call	0x19f8	; 0x19f8 <rotary_GetValue>
     6f8:	88 23       	and	r24, r24
     6fa:	79 f5       	brne	.+94     	; 0x75a <ledTask+0xa2>
			if (mode == 0) {
     6fc:	80 91 0f 01 	lds	r24, 0x010F
     700:	88 23       	and	r24, r24
     702:	29 f4       	brne	.+10     	; 0x70e <ledTask+0x56>
				mode++;
     704:	81 e0       	ldi	r24, 0x01	; 1
     706:	80 93 0f 01 	sts	0x010F, r24
				lastSendDimmingLevel[0] = 0x34;
     70a:	84 e3       	ldi	r24, 0x34	; 52
     70c:	06 c0       	rjmp	.+12     	; 0x71a <ledTask+0x62>
				lastSendDimmingLevel[1] = 0x34;
				lastSendDimmingLevel[2] = 0x34;
				lastSendDimmingLevel[3] = 0x34;
				MDP_SendDimmingReqToMDP(1, 1);
//				MDP_TESTSendDimmingReqToMDP(0xff, 0x33);
			} else if (mode == 1) {
     70e:	81 30       	cpi	r24, 0x01	; 1
     710:	69 f4       	brne	.+26     	; 0x72c <ledTask+0x74>
				mode++;
     712:	82 e0       	ldi	r24, 0x02	; 2
     714:	80 93 0f 01 	sts	0x010F, r24
				lastSendDimmingLevel[0] = 0x67;
     718:	87 e6       	ldi	r24, 0x67	; 103
     71a:	80 93 05 01 	sts	0x0105, r24
				lastSendDimmingLevel[1] = 0x67;
     71e:	80 93 06 01 	sts	0x0106, r24
				lastSendDimmingLevel[2] = 0x67;
     722:	80 93 07 01 	sts	0x0107, r24
				lastSendDimmingLevel[3] = 0x67;
     726:	80 93 08 01 	sts	0x0108, r24
     72a:	17 c0       	rjmp	.+46     	; 0x75a <ledTask+0xa2>
				MDP_SendDimmingReqToMDP(1, 1);
//				MDP_TESTSendDimmingReqToMDP(0xff, 0x66);
			} else if (mode == 2) {
     72c:	82 30       	cpi	r24, 0x02	; 2
     72e:	29 f4       	brne	.+10     	; 0x73a <ledTask+0x82>
				mode++;
     730:	83 e0       	ldi	r24, 0x03	; 3
     732:	80 93 0f 01 	sts	0x010F, r24
				lastSendDimmingLevel[0] = 0x9A;
     736:	8a e9       	ldi	r24, 0x9A	; 154
     738:	f0 cf       	rjmp	.-32     	; 0x71a <ledTask+0x62>
				lastSendDimmingLevel[1] = 0x9A;
				lastSendDimmingLevel[2] = 0x9A;
				lastSendDimmingLevel[3] = 0x9A;
				MDP_SendDimmingReqToMDP(1, 1);
//				MDP_TESTSendDimmingReqToMDP(0xff, 0x99);
			} else if (mode == 3) {
     73a:	83 30       	cpi	r24, 0x03	; 3
     73c:	29 f4       	brne	.+10     	; 0x748 <ledTask+0x90>
				mode++;
     73e:	84 e0       	ldi	r24, 0x04	; 4
     740:	80 93 0f 01 	sts	0x010F, r24
				lastSendDimmingLevel[0] = 0xCD;
     744:	8d ec       	ldi	r24, 0xCD	; 205
     746:	e9 cf       	rjmp	.-46     	; 0x71a <ledTask+0x62>
				lastSendDimmingLevel[1] = 0xCD;
				lastSendDimmingLevel[2] = 0xCD;
				lastSendDimmingLevel[3] = 0xCD;
				MDP_SendDimmingReqToMDP(1, 1);
//				MDP_TESTSendDimmingReqToMDP(0xff, 0xcc);
			} else if (mode == 4) {
     748:	84 30       	cpi	r24, 0x04	; 4
     74a:	21 f4       	brne	.+8      	; 0x754 <ledTask+0x9c>
				mode = 0;
     74c:	10 92 0f 01 	sts	0x010F, r1
				lastSendDimmingLevel[0] = 0xFE;
     750:	8e ef       	ldi	r24, 0xFE	; 254
     752:	e3 cf       	rjmp	.-58     	; 0x71a <ledTask+0x62>
				lastSendDimmingLevel[2] = 0xFE;
				lastSendDimmingLevel[3] = 0xFE;
				MDP_SendDimmingReqToMDP(1, 1);
//				MDP_TESTSendDimmingReqToMDP(0xff, 0xFE);
			} else {
				mode = 0;
     754:	10 92 0f 01 	sts	0x010F, r1
     758:	04 c0       	rjmp	.+8      	; 0x762 <ledTask+0xaa>
			}
//			MDP_SendSetWatchdogReqToMDP(0);
		} else {
			MDP_SendDimmingReqToMDP(1, 1);
     75a:	81 e0       	ldi	r24, 0x01	; 1
     75c:	61 e0       	ldi	r22, 0x01	; 1
     75e:	0e 94 27 05 	call	0xa4e	; 0xa4e <MDP_SendDimmingReqToMDP>
		}

		timer_clear(ON_TEST_TIMER_ID);
     762:	85 e0       	ldi	r24, 0x05	; 5
     764:	90 e0       	ldi	r25, 0x00	; 0
     766:	0e 94 ba 06 	call	0xd74	; 0xd74 <timer_clear>
		timer_set(ON_TEST_TIMER_ID, 5000);
     76a:	85 e0       	ldi	r24, 0x05	; 5
     76c:	90 e0       	ldi	r25, 0x00	; 0
     76e:	48 e8       	ldi	r20, 0x88	; 136
     770:	53 e1       	ldi	r21, 0x13	; 19
     772:	60 e0       	ldi	r22, 0x00	; 0
     774:	70 e0       	ldi	r23, 0x00	; 0
     776:	0e 94 88 06 	call	0xd10	; 0xd10 <timer_set>
     77a:	08 95       	ret

0000077c <main>:
		}
	}
}

void WDT_INIT() {
	MCUCSR &= ~(1 << WDRF); // WatchDog Init(Low)
     77c:	84 b7       	in	r24, 0x34	; 52
     77e:	87 7f       	andi	r24, 0xF7	; 247
     780:	84 bf       	out	0x34, r24	; 52
	wdt_enable(WDTO_2S);
     782:	2f e0       	ldi	r18, 0x0F	; 15
     784:	88 e1       	ldi	r24, 0x18	; 24
     786:	90 e0       	ldi	r25, 0x00	; 0
     788:	0f b6       	in	r0, 0x3f	; 63
     78a:	f8 94       	cli
     78c:	a8 95       	wdr
     78e:	81 bd       	out	0x21, r24	; 33
     790:	0f be       	out	0x3f, r0	; 63
     792:	21 bd       	out	0x21, r18	; 33
// Main function
//-----------------------------------------------------------------------------
int main(void) {

	WDT_INIT();
	InitMCU();
     794:	0e 94 6c 02 	call	0x4d8	; 0x4d8 <InitMCU>
	initRotary();
     798:	0e 94 f5 0c 	call	0x19ea	; 0x19ea <initRotary>
	InitUART();
     79c:	0e 94 32 07 	call	0xe64	; 0xe64 <InitUART>
	timer_init();
     7a0:	0e 94 ca 06 	call	0xd94	; 0xd94 <timer_init>
	rotary__GetValue();
     7a4:	0e 94 67 00 	call	0xce	; 0xce <rotary__GetValue>
	nRF24L01_Initial();
     7a8:	0e 94 5d 01 	call	0x2ba	; 0x2ba <nRF24L01_Initial>

	// initialize dmx driver
	MDP_SendDimmingReqToMDP(0xff, 0xFF);
     7ac:	8f ef       	ldi	r24, 0xFF	; 255
     7ae:	6f ef       	ldi	r22, 0xFF	; 255
     7b0:	0e 94 27 05 	call	0xa4e	; 0xa4e <MDP_SendDimmingReqToMDP>

	//DMX512Send();
	PORTC = 0x00;
     7b4:	15 ba       	out	0x15, r1	; 21

	TCCR1A = 0x00;
     7b6:	1f bc       	out	0x2f, r1	; 47
	TCCR1B = 0x06;
     7b8:	86 e0       	ldi	r24, 0x06	; 6
     7ba:	8e bd       	out	0x2e, r24	; 46
	TCNT1H = 0xFF;
     7bc:	8f ef       	ldi	r24, 0xFF	; 255
     7be:	8d bd       	out	0x2d, r24	; 45
	TCNT1L = 0xFF;
     7c0:	8c bd       	out	0x2c, r24	; 44

	TIMSK |= 0x04;
     7c2:	87 b7       	in	r24, 0x37	; 55
     7c4:	84 60       	ori	r24, 0x04	; 4
     7c6:	87 bf       	out	0x37, r24	; 55

	ZRMSendSetPreconfig(0x15);
     7c8:	85 e1       	ldi	r24, 0x15	; 21
     7ca:	0e 94 dd 0b 	call	0x17ba	; 0x17ba <ZRMSendSetPreconfig>
     7ce:	88 ee       	ldi	r24, 0xE8	; 232
     7d0:	93 e0       	ldi	r25, 0x03	; 3
     7d2:	20 e9       	ldi	r18, 0x90	; 144
     7d4:	31 e0       	ldi	r19, 0x01	; 1
     7d6:	f9 01       	movw	r30, r18
     7d8:	31 97       	sbiw	r30, 0x01	; 1
     7da:	f1 f7       	brne	.-4      	; 0x7d8 <main+0x5c>
		{
			// wait 1/10 ms
			_delay_loop_2(((F_CPU) / 4e3) / 10);
			__ticks --;
     7dc:	01 97       	sbiw	r24, 0x01	; 1
		__ticks = 1;
	else if (__tmp > 65535)
	{
		//	__ticks = requested delay in 1/10 ms
		__ticks = (uint16_t) (__ms * 10.0);
		while(__ticks)
     7de:	d9 f7       	brne	.-10     	; 0x7d6 <main+0x5a>
	MSLEEP(100);
	ZRMSendReset();
     7e0:	0e 94 1b 0c 	call	0x1836	; 0x1836 <ZRMSendReset>
     7e4:	80 e1       	ldi	r24, 0x10	; 16
     7e6:	97 e2       	ldi	r25, 0x27	; 39
     7e8:	20 e9       	ldi	r18, 0x90	; 144
     7ea:	31 e0       	ldi	r19, 0x01	; 1
     7ec:	f9 01       	movw	r30, r18
     7ee:	31 97       	sbiw	r30, 0x01	; 1
     7f0:	f1 f7       	brne	.-4      	; 0x7ee <main+0x72>
		{
			// wait 1/10 ms
			_delay_loop_2(((F_CPU) / 4e3) / 10);
			__ticks --;
     7f2:	01 97       	sbiw	r24, 0x01	; 1
		__ticks = 1;
	else if (__tmp > 65535)
	{
		//	__ticks = requested delay in 1/10 ms
		__ticks = (uint16_t) (__ms * 10.0);
		while(__ticks)
     7f4:	d9 f7       	brne	.-10     	; 0x7ec <main+0x70>
	MSLEEP(1000);

	timer_set(ON_WTD_TIMER_ID, 500);
     7f6:	82 e0       	ldi	r24, 0x02	; 2
     7f8:	90 e0       	ldi	r25, 0x00	; 0
     7fa:	44 ef       	ldi	r20, 0xF4	; 244
     7fc:	51 e0       	ldi	r21, 0x01	; 1
     7fe:	60 e0       	ldi	r22, 0x00	; 0
     800:	70 e0       	ldi	r23, 0x00	; 0
     802:	0e 94 88 06 	call	0xd10	; 0xd10 <timer_set>
	timer_set(ON_TEST_TIMER_ID, 3000);
     806:	85 e0       	ldi	r24, 0x05	; 5
     808:	90 e0       	ldi	r25, 0x00	; 0
     80a:	48 eb       	ldi	r20, 0xB8	; 184
     80c:	5b e0       	ldi	r21, 0x0B	; 11
     80e:	60 e0       	ldi	r22, 0x00	; 0
     810:	70 e0       	ldi	r23, 0x00	; 0
     812:	0e 94 88 06 	call	0xd10	; 0xd10 <timer_set>

	timer_set(ON_ZIGBEE_PING_TIMER_ID, 3000);
     816:	81 e0       	ldi	r24, 0x01	; 1
     818:	90 e0       	ldi	r25, 0x00	; 0
     81a:	48 eb       	ldi	r20, 0xB8	; 184
     81c:	5b e0       	ldi	r21, 0x0B	; 11
     81e:	60 e0       	ldi	r22, 0x00	; 0
     820:	70 e0       	ldi	r23, 0x00	; 0
     822:	0e 94 88 06 	call	0xd10	; 0xd10 <timer_set>
	timer_set(ON_ONTIME_TIMER_ID, 100);
     826:	84 e0       	ldi	r24, 0x04	; 4
     828:	90 e0       	ldi	r25, 0x00	; 0
     82a:	44 e6       	ldi	r20, 0x64	; 100
     82c:	50 e0       	ldi	r21, 0x00	; 0
     82e:	60 e0       	ldi	r22, 0x00	; 0
     830:	70 e0       	ldi	r23, 0x00	; 0
     832:	0e 94 88 06 	call	0xd10	; 0xd10 <timer_set>
	timer_set(NCP_TIMER_ID, 2000);
     836:	86 e0       	ldi	r24, 0x06	; 6
     838:	90 e0       	ldi	r25, 0x00	; 0
     83a:	40 ed       	ldi	r20, 0xD0	; 208
     83c:	57 e0       	ldi	r21, 0x07	; 7
     83e:	60 e0       	ldi	r22, 0x00	; 0
     840:	70 e0       	ldi	r23, 0x00	; 0
     842:	0e 94 88 06 	call	0xd10	; 0xd10 <timer_set>

	tmp_zrmp.zrm_State = ZRM_INIT;
     846:	10 92 76 07 	sts	0x0776, r1

	xcps_init_zigbee(USART0_Receive, USART0_Transmit);
     84a:	8d ec       	ldi	r24, 0xCD	; 205
     84c:	97 e0       	ldi	r25, 0x07	; 7
     84e:	6b ee       	ldi	r22, 0xEB	; 235
     850:	77 e0       	ldi	r23, 0x07	; 7
     852:	0e 94 bd 08 	call	0x117a	; 0x117a <xcps_init_zigbee>
	xcps_init_rs485(USART1_Receive, USART1_Transmit);
     856:	8d e7       	ldi	r24, 0x7D	; 125
     858:	98 e0       	ldi	r25, 0x08	; 8
     85a:	6b e9       	ldi	r22, 0x9B	; 155
     85c:	78 e0       	ldi	r23, 0x08	; 8
     85e:	0e 94 c8 08 	call	0x1190	; 0x1190 <xcps_init_rs485>
//	FILE mystdout =
//			FDEV_SETUP_STREAM((void *)USART0_Transmit, NULL, _FDEV_SETUP_WRITE);
//	stdout = &mystdout;
//
//	DEBUG("\n\r=========START PROGRAM ===========\n\r");
	TX_Mode(0);
     862:	80 e0       	ldi	r24, 0x00	; 0
     864:	90 e0       	ldi	r25, 0x00	; 0
     866:	0e 94 24 01 	call	0x248	; 0x248 <TX_Mode>
	while (1) {
		ledTask();
     86a:	0e 94 5c 03 	call	0x6b8	; 0x6b8 <ledTask>
		ZigbeeUsartTask();
     86e:	0e 94 cc 02 	call	0x598	; 0x598 <ZigbeeUsartTask>
		NCP_Task();
     872:	0e 94 9c 02 	call	0x538	; 0x538 <NCP_Task>
     876:	f9 cf       	rjmp	.-14     	; 0x86a <main+0xee>

00000878 <getSeqNumGeneratorForMDP>:

////////////////////////////////////

uint16 seqNumGeneratorForMDP = 0;
uint16 getSeqNumGeneratorForMDP() {
	return seqNumGeneratorForMDP++;
     878:	20 91 10 01 	lds	r18, 0x0110
     87c:	30 91 11 01 	lds	r19, 0x0111
     880:	2f 5f       	subi	r18, 0xFF	; 255
     882:	3f 4f       	sbci	r19, 0xFF	; 255
     884:	30 93 11 01 	sts	0x0111, r19
     888:	20 93 10 01 	sts	0x0110, r18
     88c:	21 50       	subi	r18, 0x01	; 1
     88e:	30 40       	sbci	r19, 0x00	; 0
}
     890:	c9 01       	movw	r24, r18
     892:	08 95       	ret

00000894 <plcs_GetMDPMessage>:

uint8 plcs_GetMDPMessage(uint8 resultMsg[], uint16 destId, uint16 srcId,
		uint8 payload[], uint8 len) {
     894:	ef 92       	push	r14
     896:	ff 92       	push	r15
     898:	0f 93       	push	r16
     89a:	cf 93       	push	r28
     89c:	df 93       	push	r29
     89e:	ec 01       	movw	r28, r24
     8a0:	79 01       	movw	r14, r18

////////////////////////////////////

uint16 seqNumGeneratorForMDP = 0;
uint16 getSeqNumGeneratorForMDP() {
	return seqNumGeneratorForMDP++;
     8a2:	80 91 10 01 	lds	r24, 0x0110
     8a6:	90 91 11 01 	lds	r25, 0x0111
     8aa:	01 96       	adiw	r24, 0x01	; 1
     8ac:	90 93 11 01 	sts	0x0111, r25
     8b0:	80 93 10 01 	sts	0x0110, r24
     8b4:	01 97       	sbiw	r24, 0x01	; 1
uint8 plcs_GetMDPMessage(uint8 resultMsg[], uint16 destId, uint16 srcId,
		uint8 payload[], uint8 len) {
	uint8 resultLen = 0;
	uint16 seqNum = getSeqNumGeneratorForMDP();

	resultMsg[resultLen++] = NCP_PROTOCOL_ID;
     8b6:	20 e8       	ldi	r18, 0x80	; 128
     8b8:	28 83       	st	Y, r18
	resultMsg[resultLen++] = PLCS_DP_PROTOCOL_ID;
     8ba:	21 e1       	ldi	r18, 0x11	; 17
     8bc:	29 83       	std	Y+1, r18	; 0x01
	resultMsg[resultLen++] = seqNum >> 8;
     8be:	9a 83       	std	Y+2, r25	; 0x02
	resultMsg[resultLen++] = seqNum;
     8c0:	8b 83       	std	Y+3, r24	; 0x03
	resultMsg[resultLen++] = destId >> 8;
     8c2:	7c 83       	std	Y+4, r23	; 0x04
	resultMsg[resultLen++] = destId;
     8c4:	6d 83       	std	Y+5, r22	; 0x05
	resultMsg[resultLen++] = srcId >> 8;
     8c6:	5e 83       	std	Y+6, r21	; 0x06
	resultMsg[resultLen++] = srcId;
     8c8:	4f 83       	std	Y+7, r20	; 0x07
     8ca:	40 e0       	ldi	r20, 0x00	; 0
     8cc:	50 e0       	ldi	r21, 0x00	; 0
	for (int i = 0; i < len; i++)
     8ce:	60 2f       	mov	r22, r16
     8d0:	70 e0       	ldi	r23, 0x00	; 0
     8d2:	0a c0       	rjmp	.+20     	; 0x8e8 <plcs_GetMDPMessage+0x54>
		resultMsg[resultLen++] = payload[i];
     8d4:	fe 01       	movw	r30, r28
     8d6:	e8 0f       	add	r30, r24
     8d8:	f1 1d       	adc	r31, r1
     8da:	d7 01       	movw	r26, r14
     8dc:	a4 0f       	add	r26, r20
     8de:	b5 1f       	adc	r27, r21
     8e0:	8c 91       	ld	r24, X
     8e2:	80 83       	st	Z, r24
	resultMsg[resultLen++] = seqNum;
	resultMsg[resultLen++] = destId >> 8;
	resultMsg[resultLen++] = destId;
	resultMsg[resultLen++] = srcId >> 8;
	resultMsg[resultLen++] = srcId;
	for (int i = 0; i < len; i++)
     8e4:	4f 5f       	subi	r20, 0xFF	; 255
     8e6:	5f 4f       	sbci	r21, 0xFF	; 255
     8e8:	84 2f       	mov	r24, r20
     8ea:	88 5f       	subi	r24, 0xF8	; 248
     8ec:	46 17       	cp	r20, r22
     8ee:	57 07       	cpc	r21, r23
     8f0:	8c f3       	brlt	.-30     	; 0x8d4 <plcs_GetMDPMessage+0x40>
		resultMsg[resultLen++] = payload[i];
	return resultLen;
}
     8f2:	80 2f       	mov	r24, r16
     8f4:	88 5f       	subi	r24, 0xF8	; 248
     8f6:	df 91       	pop	r29
     8f8:	cf 91       	pop	r28
     8fa:	0f 91       	pop	r16
     8fc:	ff 90       	pop	r15
     8fe:	ef 90       	pop	r14
     900:	08 95       	ret

00000902 <MDP_SendSetWatchdogReqToMDP>:

	resultLen = plcs_GetMDPMessage(tmpBuffForMDP, 0, 0, payload, len);

	xcps_send_NRF24L01(tmpBuffForMDP, resultLen);
}
void MDP_SendSetWatchdogReqToMDP(uint8 isEnable) {
     902:	0f 93       	push	r16
     904:	df 93       	push	r29
     906:	cf 93       	push	r28
     908:	cd b7       	in	r28, 0x3d	; 61
     90a:	de b7       	in	r29, 0x3e	; 62
     90c:	2a 97       	sbiw	r28, 0x0a	; 10
     90e:	0f b6       	in	r0, 0x3f	; 63
     910:	f8 94       	cli
     912:	de bf       	out	0x3e, r29	; 62
     914:	0f be       	out	0x3f, r0	; 63
     916:	cd bf       	out	0x3d, r28	; 61
	int len = 0;
	uint8 payload[10];
	uint8 resultLen;

	len = 0;
	payload[len++] = PLCS_DP_REQ_WATCHDOG;
     918:	90 e4       	ldi	r25, 0x40	; 64
     91a:	99 83       	std	Y+1, r25	; 0x01
	payload[len++] = tmp_zrmp.zrm_Id >> 8;
     91c:	20 91 74 07 	lds	r18, 0x0774
     920:	90 91 75 07 	lds	r25, 0x0775
     924:	9a 83       	std	Y+2, r25	; 0x02
	payload[len++] = tmp_zrmp.zrm_Id;
     926:	2b 83       	std	Y+3, r18	; 0x03
	payload[len++] = isEnable;
     928:	8c 83       	std	Y+4, r24	; 0x04

	resultLen = plcs_GetMDPMessage(tmpBuffForMDP, 0, 0, payload, len);
     92a:	85 ef       	ldi	r24, 0xF5	; 245
     92c:	91 e0       	ldi	r25, 0x01	; 1
     92e:	60 e0       	ldi	r22, 0x00	; 0
     930:	70 e0       	ldi	r23, 0x00	; 0
     932:	40 e0       	ldi	r20, 0x00	; 0
     934:	50 e0       	ldi	r21, 0x00	; 0
     936:	9e 01       	movw	r18, r28
     938:	2f 5f       	subi	r18, 0xFF	; 255
     93a:	3f 4f       	sbci	r19, 0xFF	; 255
     93c:	04 e0       	ldi	r16, 0x04	; 4
     93e:	0e 94 4a 04 	call	0x894	; 0x894 <plcs_GetMDPMessage>

//	xcps_send_rs485(tmpBuffForMDP, resultLen);
}
     942:	2a 96       	adiw	r28, 0x0a	; 10
     944:	0f b6       	in	r0, 0x3f	; 63
     946:	f8 94       	cli
     948:	de bf       	out	0x3e, r29	; 62
     94a:	0f be       	out	0x3f, r0	; 63
     94c:	cd bf       	out	0x3d, r28	; 61
     94e:	cf 91       	pop	r28
     950:	df 91       	pop	r29
     952:	0f 91       	pop	r16
     954:	08 95       	ret

00000956 <plcs_GetMDPResMessage>:
		resultMsg[resultLen++] = payload[i];
	return resultLen;
}

uint8 plcs_GetMDPResMessage(uint8 resultMsg[], uint16 destId, uint16 srcId,
		uint8 payload[], uint8 len, uint16 seqNum) {
     956:	ef 92       	push	r14
     958:	ff 92       	push	r15
     95a:	0f 93       	push	r16
     95c:	cf 93       	push	r28
     95e:	df 93       	push	r29
     960:	ec 01       	movw	r28, r24
	uint8 resultLen = 0;

	resultMsg[resultLen++] = NCP_PROTOCOL_ID;
     962:	80 e8       	ldi	r24, 0x80	; 128
     964:	88 83       	st	Y, r24
	resultMsg[resultLen++] = PLCS_DP_PROTOCOL_ID;
     966:	81 e1       	ldi	r24, 0x11	; 17
     968:	89 83       	std	Y+1, r24	; 0x01
	resultMsg[resultLen++] = seqNum >> 8;
     96a:	fa 82       	std	Y+2, r15	; 0x02
	resultMsg[resultLen++] = seqNum;
     96c:	eb 82       	std	Y+3, r14	; 0x03
	resultMsg[resultLen++] = destId >> 8;
     96e:	7c 83       	std	Y+4, r23	; 0x04
	resultMsg[resultLen++] = destId;
     970:	6d 83       	std	Y+5, r22	; 0x05
	resultMsg[resultLen++] = srcId >> 8;
     972:	5e 83       	std	Y+6, r21	; 0x06
	resultMsg[resultLen++] = srcId;
     974:	4f 83       	std	Y+7, r20	; 0x07
     976:	40 e0       	ldi	r20, 0x00	; 0
     978:	50 e0       	ldi	r21, 0x00	; 0
	for (int i = 0; i < len; i++)
     97a:	60 2f       	mov	r22, r16
     97c:	70 e0       	ldi	r23, 0x00	; 0
     97e:	0a c0       	rjmp	.+20     	; 0x994 <plcs_GetMDPResMessage+0x3e>
		resultMsg[resultLen++] = payload[i];
     980:	fe 01       	movw	r30, r28
     982:	e8 0f       	add	r30, r24
     984:	f1 1d       	adc	r31, r1
     986:	d9 01       	movw	r26, r18
     988:	a4 0f       	add	r26, r20
     98a:	b5 1f       	adc	r27, r21
     98c:	8c 91       	ld	r24, X
     98e:	80 83       	st	Z, r24
	resultMsg[resultLen++] = seqNum;
	resultMsg[resultLen++] = destId >> 8;
	resultMsg[resultLen++] = destId;
	resultMsg[resultLen++] = srcId >> 8;
	resultMsg[resultLen++] = srcId;
	for (int i = 0; i < len; i++)
     990:	4f 5f       	subi	r20, 0xFF	; 255
     992:	5f 4f       	sbci	r21, 0xFF	; 255
     994:	84 2f       	mov	r24, r20
     996:	88 5f       	subi	r24, 0xF8	; 248
     998:	46 17       	cp	r20, r22
     99a:	57 07       	cpc	r21, r23
     99c:	8c f3       	brlt	.-30     	; 0x980 <plcs_GetMDPResMessage+0x2a>
		resultMsg[resultLen++] = payload[i];
	return resultLen;
}
     99e:	80 2f       	mov	r24, r16
     9a0:	88 5f       	subi	r24, 0xF8	; 248
     9a2:	df 91       	pop	r29
     9a4:	cf 91       	pop	r28
     9a6:	0f 91       	pop	r16
     9a8:	ff 90       	pop	r15
     9aa:	ef 90       	pop	r14
     9ac:	08 95       	ret

000009ae <MDP_GetLastSendDimmingLevel>:

uint8 MDP_GetLastSendDimmingLevel(uint8 channelNum) {
     9ae:	e5 e0       	ldi	r30, 0x05	; 5
     9b0:	f1 e0       	ldi	r31, 0x01	; 1
     9b2:	e8 0f       	add	r30, r24
     9b4:	f1 1d       	adc	r31, r1
	return lastSendDimmingLevel[channelNum];
}
     9b6:	80 81       	ld	r24, Z
     9b8:	08 95       	ret

000009ba <MDP_NRFSendDimmingReqToMDP>:

	xcps_send_NRF24L01(tmpBuffForMDP, resultLen);
	_delay_ms(1);
	xcps_send_rs485(tmpBuffForMDP, resultLen);
}
void MDP_NRFSendDimmingReqToMDP(uint8 channel, uint8 dimmingLevel) {
     9ba:	ef 92       	push	r14
     9bc:	ff 92       	push	r15
     9be:	0f 93       	push	r16
     9c0:	df 93       	push	r29
     9c2:	cf 93       	push	r28
     9c4:	cd b7       	in	r28, 0x3d	; 61
     9c6:	de b7       	in	r29, 0x3e	; 62
     9c8:	2f 97       	sbiw	r28, 0x0f	; 15
     9ca:	0f b6       	in	r0, 0x3f	; 63
     9cc:	f8 94       	cli
     9ce:	de bf       	out	0x3e, r29	; 62
     9d0:	0f be       	out	0x3f, r0	; 63
     9d2:	cd bf       	out	0x3d, r28	; 61
	int len = 0;
	uint8 payload[15];
	uint8 resultLen;

	len = 0;
	payload[len++] = PLCS_DP_REQ_DIMMING;
     9d4:	82 e3       	ldi	r24, 0x32	; 50
     9d6:	89 83       	std	Y+1, r24	; 0x01
	payload[len++] = tmp_zrmp.zrm_Id >> 8;
     9d8:	90 91 74 07 	lds	r25, 0x0774
     9dc:	80 91 75 07 	lds	r24, 0x0775
     9e0:	8a 83       	std	Y+2, r24	; 0x02
	payload[len++] = tmp_zrmp.zrm_Id;
     9e2:	9b 83       	std	Y+3, r25	; 0x03
	payload[len++] = 0x00;
     9e4:	1c 82       	std	Y+4, r1	; 0x04
	payload[len++] = lastSendDimmingLevel[0];
     9e6:	80 91 05 01 	lds	r24, 0x0105
     9ea:	8d 83       	std	Y+5, r24	; 0x05
	payload[len++] = 0x01;
     9ec:	81 e0       	ldi	r24, 0x01	; 1
     9ee:	8e 83       	std	Y+6, r24	; 0x06
	payload[len++] = lastSendDimmingLevel[1];
     9f0:	80 91 06 01 	lds	r24, 0x0106
     9f4:	8f 83       	std	Y+7, r24	; 0x07
	payload[len++] = 0x02;
     9f6:	82 e0       	ldi	r24, 0x02	; 2
     9f8:	88 87       	std	Y+8, r24	; 0x08
	payload[len++] = lastSendDimmingLevel[2];
     9fa:	80 91 07 01 	lds	r24, 0x0107
     9fe:	89 87       	std	Y+9, r24	; 0x09
	payload[len++] = 0x03;
     a00:	83 e0       	ldi	r24, 0x03	; 3
     a02:	8a 87       	std	Y+10, r24	; 0x0a
	payload[len++] = lastSendDimmingLevel[3];
     a04:	80 91 08 01 	lds	r24, 0x0108
     a08:	8b 87       	std	Y+11, r24	; 0x0b
	payload[len++] = rotary__GetValue();
     a0a:	0e 94 67 00 	call	0xce	; 0xce <rotary__GetValue>
     a0e:	8c 87       	std	Y+12, r24	; 0x0c

	resultLen = plcs_GetMDPMessage(tmpBuffForMDP, 0, 0, payload, len);
     a10:	85 ef       	ldi	r24, 0xF5	; 245
     a12:	e8 2e       	mov	r14, r24
     a14:	81 e0       	ldi	r24, 0x01	; 1
     a16:	f8 2e       	mov	r15, r24
     a18:	c7 01       	movw	r24, r14
     a1a:	60 e0       	ldi	r22, 0x00	; 0
     a1c:	70 e0       	ldi	r23, 0x00	; 0
     a1e:	40 e0       	ldi	r20, 0x00	; 0
     a20:	50 e0       	ldi	r21, 0x00	; 0
     a22:	9e 01       	movw	r18, r28
     a24:	2f 5f       	subi	r18, 0xFF	; 255
     a26:	3f 4f       	sbci	r19, 0xFF	; 255
     a28:	0c e0       	ldi	r16, 0x0C	; 12
     a2a:	0e 94 4a 04 	call	0x894	; 0x894 <plcs_GetMDPMessage>
     a2e:	68 2f       	mov	r22, r24

	xcps_send_NRF24L01(tmpBuffForMDP, resultLen);
     a30:	c7 01       	movw	r24, r14
     a32:	0e 94 87 0b 	call	0x170e	; 0x170e <xcps_send_NRF24L01>
}
     a36:	2f 96       	adiw	r28, 0x0f	; 15
     a38:	0f b6       	in	r0, 0x3f	; 63
     a3a:	f8 94       	cli
     a3c:	de bf       	out	0x3e, r29	; 62
     a3e:	0f be       	out	0x3f, r0	; 63
     a40:	cd bf       	out	0x3d, r28	; 61
     a42:	cf 91       	pop	r28
     a44:	df 91       	pop	r29
     a46:	0f 91       	pop	r16
     a48:	ff 90       	pop	r15
     a4a:	ef 90       	pop	r14
     a4c:	08 95       	ret

00000a4e <MDP_SendDimmingReqToMDP>:

/////////////////////////////////////////////////////////////////////////////////////////////////////////
//Send
/////////////////////////////////////////////////////////////////////////////////////////////////////////

void MDP_SendDimmingReqToMDP(uint8 channel, uint8 dimmingLevel) {
     a4e:	ef 92       	push	r14
     a50:	ff 92       	push	r15
     a52:	0f 93       	push	r16
     a54:	1f 93       	push	r17
     a56:	df 93       	push	r29
     a58:	cf 93       	push	r28
     a5a:	cd b7       	in	r28, 0x3d	; 61
     a5c:	de b7       	in	r29, 0x3e	; 62
     a5e:	2f 97       	sbiw	r28, 0x0f	; 15
     a60:	0f b6       	in	r0, 0x3f	; 63
     a62:	f8 94       	cli
     a64:	de bf       	out	0x3e, r29	; 62
     a66:	0f be       	out	0x3f, r0	; 63
     a68:	cd bf       	out	0x3d, r28	; 61
	int len = 0;
	uint8 payload[15];
	uint8 resultLen;

	len = 0;
	payload[len++] = PLCS_DP_REQ_DIMMING;
     a6a:	82 e3       	ldi	r24, 0x32	; 50
     a6c:	89 83       	std	Y+1, r24	; 0x01
	payload[len++] = tmp_zrmp.zrm_Id >> 8;
     a6e:	90 91 74 07 	lds	r25, 0x0774
     a72:	80 91 75 07 	lds	r24, 0x0775
     a76:	8a 83       	std	Y+2, r24	; 0x02
	payload[len++] = tmp_zrmp.zrm_Id;
     a78:	9b 83       	std	Y+3, r25	; 0x03
	payload[len++] = 0x00;
     a7a:	1c 82       	std	Y+4, r1	; 0x04
	payload[len++] = lastSendDimmingLevel[0];
     a7c:	80 91 05 01 	lds	r24, 0x0105
     a80:	8d 83       	std	Y+5, r24	; 0x05
	payload[len++] = 0x01;
     a82:	81 e0       	ldi	r24, 0x01	; 1
     a84:	8e 83       	std	Y+6, r24	; 0x06
	payload[len++] = lastSendDimmingLevel[1];
     a86:	80 91 06 01 	lds	r24, 0x0106
     a8a:	8f 83       	std	Y+7, r24	; 0x07
	payload[len++] = 0x02;
     a8c:	82 e0       	ldi	r24, 0x02	; 2
     a8e:	88 87       	std	Y+8, r24	; 0x08
	payload[len++] = lastSendDimmingLevel[2];
     a90:	80 91 07 01 	lds	r24, 0x0107
     a94:	89 87       	std	Y+9, r24	; 0x09
	payload[len++] = 0x03;
     a96:	83 e0       	ldi	r24, 0x03	; 3
     a98:	8a 87       	std	Y+10, r24	; 0x0a
	payload[len++] = lastSendDimmingLevel[3];
     a9a:	80 91 08 01 	lds	r24, 0x0108
     a9e:	8b 87       	std	Y+11, r24	; 0x0b
	payload[len++] = rotary__GetValue();
     aa0:	0e 94 67 00 	call	0xce	; 0xce <rotary__GetValue>
     aa4:	8c 87       	std	Y+12, r24	; 0x0c

	resultLen = plcs_GetMDPMessage(tmpBuffForMDP, 0, 0, payload, len);
     aa6:	95 ef       	ldi	r25, 0xF5	; 245
     aa8:	e9 2e       	mov	r14, r25
     aaa:	91 e0       	ldi	r25, 0x01	; 1
     aac:	f9 2e       	mov	r15, r25
     aae:	c7 01       	movw	r24, r14
     ab0:	60 e0       	ldi	r22, 0x00	; 0
     ab2:	70 e0       	ldi	r23, 0x00	; 0
     ab4:	40 e0       	ldi	r20, 0x00	; 0
     ab6:	50 e0       	ldi	r21, 0x00	; 0
     ab8:	9e 01       	movw	r18, r28
     aba:	2f 5f       	subi	r18, 0xFF	; 255
     abc:	3f 4f       	sbci	r19, 0xFF	; 255
     abe:	0c e0       	ldi	r16, 0x0C	; 12
     ac0:	0e 94 4a 04 	call	0x894	; 0x894 <plcs_GetMDPMessage>
     ac4:	18 2f       	mov	r17, r24

	xcps_send_NRF24L01(tmpBuffForMDP, resultLen);
     ac6:	c7 01       	movw	r24, r14
     ac8:	61 2f       	mov	r22, r17
     aca:	0e 94 87 0b 	call	0x170e	; 0x170e <xcps_send_NRF24L01>
     ace:	80 ea       	ldi	r24, 0xA0	; 160
     ad0:	9f e0       	ldi	r25, 0x0F	; 15
     ad2:	01 97       	sbiw	r24, 0x01	; 1
     ad4:	f1 f7       	brne	.-4      	; 0xad2 <MDP_SendDimmingReqToMDP+0x84>
	_delay_ms(1);
	xcps_send_rs485(tmpBuffForMDP, resultLen);
     ad6:	c7 01       	movw	r24, r14
     ad8:	61 2f       	mov	r22, r17
     ada:	70 e0       	ldi	r23, 0x00	; 0
     adc:	0e 94 4f 09 	call	0x129e	; 0x129e <xcps_send_rs485>
}
     ae0:	2f 96       	adiw	r28, 0x0f	; 15
     ae2:	0f b6       	in	r0, 0x3f	; 63
     ae4:	f8 94       	cli
     ae6:	de bf       	out	0x3e, r29	; 62
     ae8:	0f be       	out	0x3f, r0	; 63
     aea:	cd bf       	out	0x3d, r28	; 61
     aec:	cf 91       	pop	r28
     aee:	df 91       	pop	r29
     af0:	1f 91       	pop	r17
     af2:	0f 91       	pop	r16
     af4:	ff 90       	pop	r15
     af6:	ef 90       	pop	r14
     af8:	08 95       	ret

00000afa <MDP_HandleDimmingReq>:
	}
}

uint8 lastSendDimmingLevel[4] = { 0xff, 0xff, 0xff, 0xff };

void MDP_HandleDimmingReq(uint8 msg[], int length) {
     afa:	fc 01       	movw	r30, r24
	uint8 channelId = 0;
	uint8 dimmingLevel = 0;

	channelId = msg[11];
     afc:	83 85       	ldd	r24, Z+11	; 0x0b
	dimmingLevel = msg[12];
     afe:	64 85       	ldd	r22, Z+12	; 0x0c

	if (channelId < 4) {
     b00:	84 30       	cpi	r24, 0x04	; 4
     b02:	38 f4       	brcc	.+14     	; 0xb12 <MDP_HandleDimmingReq+0x18>
		lastSendDimmingLevel[channelId] = dimmingLevel;
     b04:	e8 2f       	mov	r30, r24
     b06:	f0 e0       	ldi	r31, 0x00	; 0
     b08:	eb 5f       	subi	r30, 0xFB	; 251
     b0a:	fe 4f       	sbci	r31, 0xFE	; 254
     b0c:	60 83       	st	Z, r22
		MDP_SendDimmingReqToMDP(channelId, dimmingLevel);
     b0e:	0e 94 27 05 	call	0xa4e	; 0xa4e <MDP_SendDimmingReqToMDP>
     b12:	08 95       	ret

00000b14 <plcs_MDP_ProcessMessageFromZigbee>:
#include "NCProtocol.h"
#include "NRF24L01/NRF24L01.h"
uint8 tmpBuffForMDP[64];

void plcs_MDP_ProcessMessageFromZigbee(uint16 srcNetAddr, uint8 msg[],
		int length) {
     b14:	fb 01       	movw	r30, r22
	switch (msg[8]) { // Msg Type of NCP
     b16:	80 85       	ldd	r24, Z+8	; 0x08
     b18:	82 33       	cpi	r24, 0x32	; 50
     b1a:	21 f4       	brne	.+8      	; 0xb24 <plcs_MDP_ProcessMessageFromZigbee+0x10>
	case PLCS_DP_REQ_DIMMING:
		MDP_HandleDimmingReq(msg, length);
     b1c:	cb 01       	movw	r24, r22
     b1e:	ba 01       	movw	r22, r20
     b20:	0e 94 7d 05 	call	0xafa	; 0xafa <MDP_HandleDimmingReq>
     b24:	08 95       	ret

00000b26 <ncp_ProcessMessage>:
uint8 pingCount = 0;

uint8 tmp_BuffForNCP[64];
// --------------------------------------------------------------------------- //

void ncp_ProcessMessage(uint16 srcNetAddr, uint8 msg[], int length) {
     b26:	fb 01       	movw	r30, r22
	switch (msg[8]) { // Msg Type of NCP
     b28:	80 85       	ldd	r24, Z+8	; 0x08
     b2a:	82 30       	cpi	r24, 0x02	; 2
     b2c:	19 f0       	breq	.+6      	; 0xb34 <ncp_ProcessMessage+0xe>
     b2e:	82 31       	cpi	r24, 0x12	; 18
     b30:	b9 f4       	brne	.+46     	; 0xb60 <ncp_ProcessMessage+0x3a>
     b32:	08 c0       	rjmp	.+16     	; 0xb44 <ncp_ProcessMessage+0x1e>

	//msg[8] = messageType
	seqNum = msg[2] << 8 | msg[3];
	flag = msg[10];

	if (flag == 0x01) {
     b34:	82 85       	ldd	r24, Z+10	; 0x0a
     b36:	81 30       	cpi	r24, 0x01	; 1
     b38:	11 f4       	brne	.+4      	; 0xb3e <ncp_ProcessMessage+0x18>
		ncp_NetState = NCP_NET_NOT_CONNECT;
     b3a:	10 92 12 01 	sts	0x0112, r1
		pingCount = 0;
	} else {
		pingCount = 0;
     b3e:	10 92 13 01 	sts	0x0113, r1
     b42:	08 95       	ret
	//msg[8] == messageType
	seqNum = msg[2] << 8 | msg[3];
	nodeId = (uint16) ((msg[6] << 8) | (msg[7]));
	result = (uint16) ((msg[9] << 8) | (msg[10]));

	if (result == 0)
     b44:	91 85       	ldd	r25, Z+9	; 0x09
     b46:	80 e0       	ldi	r24, 0x00	; 0
     b48:	22 85       	ldd	r18, Z+10	; 0x0a
     b4a:	30 e0       	ldi	r19, 0x00	; 0
     b4c:	82 2b       	or	r24, r18
     b4e:	93 2b       	or	r25, r19
     b50:	89 2b       	or	r24, r25
     b52:	21 f4       	brne	.+8      	; 0xb5c <ncp_ProcessMessage+0x36>
		ncp_NetState = NCP_NET_REGISTER;
     b54:	81 e0       	ldi	r24, 0x01	; 1
     b56:	80 93 12 01 	sts	0x0112, r24
     b5a:	08 95       	ret
	else
		ncp_NetState = NCP_NET_NOT_CONNECT;
     b5c:	10 92 12 01 	sts	0x0112, r1
     b60:	08 95       	ret

00000b62 <ncp_ProcessPingRes>:
		ncp_ProcessRegisterRes(srcNetAddr, msg, length);
		break;
	}
}

void ncp_ProcessPingRes(uint16 srcNetAddr, uint8 msg[], int length) {
     b62:	fb 01       	movw	r30, r22

	//msg[8] = messageType
	seqNum = msg[2] << 8 | msg[3];
	flag = msg[10];

	if (flag == 0x01) {
     b64:	82 85       	ldd	r24, Z+10	; 0x0a
     b66:	81 30       	cpi	r24, 0x01	; 1
     b68:	11 f4       	brne	.+4      	; 0xb6e <ncp_ProcessPingRes+0xc>
		ncp_NetState = NCP_NET_NOT_CONNECT;
     b6a:	10 92 12 01 	sts	0x0112, r1
		pingCount = 0;
	} else {
		pingCount = 0;
     b6e:	10 92 13 01 	sts	0x0113, r1
     b72:	08 95       	ret

00000b74 <ncp_ProcessRegisterRes>:
	}
}

void ncp_ProcessRegisterRes(uint16 srcNetAddr, uint8 msg[], int length) {
     b74:	fb 01       	movw	r30, r22
	//msg[8] == messageType
	seqNum = msg[2] << 8 | msg[3];
	nodeId = (uint16) ((msg[6] << 8) | (msg[7]));
	result = (uint16) ((msg[9] << 8) | (msg[10]));

	if (result == 0)
     b76:	91 85       	ldd	r25, Z+9	; 0x09
     b78:	80 e0       	ldi	r24, 0x00	; 0
     b7a:	22 85       	ldd	r18, Z+10	; 0x0a
     b7c:	30 e0       	ldi	r19, 0x00	; 0
     b7e:	82 2b       	or	r24, r18
     b80:	93 2b       	or	r25, r19
     b82:	89 2b       	or	r24, r25
     b84:	21 f4       	brne	.+8      	; 0xb8e <ncp_ProcessRegisterRes+0x1a>
		ncp_NetState = NCP_NET_REGISTER;
     b86:	81 e0       	ldi	r24, 0x01	; 1
     b88:	80 93 12 01 	sts	0x0112, r24
     b8c:	08 95       	ret
	else
		ncp_NetState = NCP_NET_NOT_CONNECT;
     b8e:	10 92 12 01 	sts	0x0112, r1
     b92:	08 95       	ret

00000b94 <getSeqNumGenerator>:
}
//////////////////////////////

uint16 seqNumGenerator = 0;
uint16 getSeqNumGenerator() {
	return seqNumGenerator++;
     b94:	20 91 14 01 	lds	r18, 0x0114
     b98:	30 91 15 01 	lds	r19, 0x0115
     b9c:	2f 5f       	subi	r18, 0xFF	; 255
     b9e:	3f 4f       	sbci	r19, 0xFF	; 255
     ba0:	30 93 15 01 	sts	0x0115, r19
     ba4:	20 93 14 01 	sts	0x0114, r18
     ba8:	21 50       	subi	r18, 0x01	; 1
     baa:	30 40       	sbci	r19, 0x00	; 0
}
     bac:	c9 01       	movw	r24, r18
     bae:	08 95       	ret

00000bb0 <ncp_ConnState>:

uint8 ncp_ConnState() {
	return ncp_NetState;
}
     bb0:	80 91 12 01 	lds	r24, 0x0112
     bb4:	08 95       	ret

00000bb6 <plcs_GetNCPMessage>:
uint8 plcs_GetNCPMessage(uint8 resultMsg[], uint16 destId, uint16 srcId,
		uint8 payload[], uint8 len) {
     bb6:	ef 92       	push	r14
     bb8:	ff 92       	push	r15
     bba:	0f 93       	push	r16
     bbc:	cf 93       	push	r28
     bbe:	df 93       	push	r29
     bc0:	ec 01       	movw	r28, r24
     bc2:	79 01       	movw	r14, r18
}
//////////////////////////////

uint16 seqNumGenerator = 0;
uint16 getSeqNumGenerator() {
	return seqNumGenerator++;
     bc4:	80 91 14 01 	lds	r24, 0x0114
     bc8:	90 91 15 01 	lds	r25, 0x0115
     bcc:	01 96       	adiw	r24, 0x01	; 1
     bce:	90 93 15 01 	sts	0x0115, r25
     bd2:	80 93 14 01 	sts	0x0114, r24
     bd6:	01 97       	sbiw	r24, 0x01	; 1
		uint8 payload[], uint8 len) {
	uint8 resultLen = 0;

	uint16 seqNum = getSeqNumGenerator();

	resultMsg[resultLen++] = NCP_PROTOCOL_ID;
     bd8:	20 e8       	ldi	r18, 0x80	; 128
     bda:	28 83       	st	Y, r18
	resultMsg[resultLen++] = PLCS_NCP_PROTOCOL_ID;
     bdc:	21 e0       	ldi	r18, 0x01	; 1
     bde:	29 83       	std	Y+1, r18	; 0x01
	resultMsg[resultLen++] = seqNum >> 8;
     be0:	9a 83       	std	Y+2, r25	; 0x02
	resultMsg[resultLen++] = seqNum;
     be2:	8b 83       	std	Y+3, r24	; 0x03
	resultMsg[resultLen++] = destId >> 8;
     be4:	7c 83       	std	Y+4, r23	; 0x04
	resultMsg[resultLen++] = destId;
     be6:	6d 83       	std	Y+5, r22	; 0x05
	resultMsg[resultLen++] = srcId >> 8;
     be8:	5e 83       	std	Y+6, r21	; 0x06
	resultMsg[resultLen++] = srcId;
     bea:	4f 83       	std	Y+7, r20	; 0x07
     bec:	40 e0       	ldi	r20, 0x00	; 0
     bee:	50 e0       	ldi	r21, 0x00	; 0
	for (int i = 0; i < len; i++)
     bf0:	60 2f       	mov	r22, r16
     bf2:	70 e0       	ldi	r23, 0x00	; 0
     bf4:	0a c0       	rjmp	.+20     	; 0xc0a <plcs_GetNCPMessage+0x54>
		resultMsg[resultLen++] = payload[i];
     bf6:	fe 01       	movw	r30, r28
     bf8:	e8 0f       	add	r30, r24
     bfa:	f1 1d       	adc	r31, r1
     bfc:	d7 01       	movw	r26, r14
     bfe:	a4 0f       	add	r26, r20
     c00:	b5 1f       	adc	r27, r21
     c02:	8c 91       	ld	r24, X
     c04:	80 83       	st	Z, r24
	resultMsg[resultLen++] = seqNum;
	resultMsg[resultLen++] = destId >> 8;
	resultMsg[resultLen++] = destId;
	resultMsg[resultLen++] = srcId >> 8;
	resultMsg[resultLen++] = srcId;
	for (int i = 0; i < len; i++)
     c06:	4f 5f       	subi	r20, 0xFF	; 255
     c08:	5f 4f       	sbci	r21, 0xFF	; 255
     c0a:	84 2f       	mov	r24, r20
     c0c:	88 5f       	subi	r24, 0xF8	; 248
     c0e:	46 17       	cp	r20, r22
     c10:	57 07       	cpc	r21, r23
     c12:	8c f3       	brlt	.-30     	; 0xbf6 <plcs_GetNCPMessage+0x40>
		resultMsg[resultLen++] = payload[i];
	return resultLen;
}
     c14:	80 2f       	mov	r24, r16
     c16:	88 5f       	subi	r24, 0xF8	; 248
     c18:	df 91       	pop	r29
     c1a:	cf 91       	pop	r28
     c1c:	0f 91       	pop	r16
     c1e:	ff 90       	pop	r15
     c20:	ef 90       	pop	r14
     c22:	08 95       	ret

00000c24 <ncp_SendRegisterReq>:

	sendData(0, tmp_BuffForNCP, resultLen);

}

void ncp_SendRegisterReq() {
     c24:	ef 92       	push	r14
     c26:	ff 92       	push	r15
     c28:	0f 93       	push	r16
     c2a:	df 93       	push	r29
     c2c:	cf 93       	push	r28
     c2e:	cd b7       	in	r28, 0x3d	; 61
     c30:	de b7       	in	r29, 0x3e	; 62
     c32:	2a 97       	sbiw	r28, 0x0a	; 10
     c34:	0f b6       	in	r0, 0x3f	; 63
     c36:	f8 94       	cli
     c38:	de bf       	out	0x3e, r29	; 62
     c3a:	0f be       	out	0x3f, r0	; 63
     c3c:	cd bf       	out	0x3d, r28	; 61
	int len = 0;
	uint8 payload[10];
	uint8 resultLen = 0;

	payload[len++] = NCP_REQ_REGISTER;
     c3e:	81 e1       	ldi	r24, 0x11	; 17
     c40:	89 83       	std	Y+1, r24	; 0x01
	payload[len++] = (uint8) (PLCS_ZDIMMER_TYPE >> 8);
     c42:	80 e2       	ldi	r24, 0x20	; 32
     c44:	8a 83       	std	Y+2, r24	; 0x02
	payload[len++] = (uint8) PLCS_ZDIMMER_TYPE;
     c46:	80 e4       	ldi	r24, 0x40	; 64
     c48:	8b 83       	std	Y+3, r24	; 0x03
	payload[len++] = FW_VERSION;
     c4a:	8e e1       	ldi	r24, 0x1E	; 30
     c4c:	8c 83       	std	Y+4, r24	; 0x04
	payload[len++] = FW_VERSION;
     c4e:	8d 83       	std	Y+5, r24	; 0x05

	resultLen = plcs_GetNCPMessage(tmp_BuffForNCP, 0, tmp_zrmp.zrm_Id, payload,
     c50:	88 e3       	ldi	r24, 0x38	; 56
     c52:	e8 2e       	mov	r14, r24
     c54:	82 e0       	ldi	r24, 0x02	; 2
     c56:	f8 2e       	mov	r15, r24
     c58:	40 91 74 07 	lds	r20, 0x0774
     c5c:	50 91 75 07 	lds	r21, 0x0775
     c60:	c7 01       	movw	r24, r14
     c62:	60 e0       	ldi	r22, 0x00	; 0
     c64:	70 e0       	ldi	r23, 0x00	; 0
     c66:	9e 01       	movw	r18, r28
     c68:	2f 5f       	subi	r18, 0xFF	; 255
     c6a:	3f 4f       	sbci	r19, 0xFF	; 255
     c6c:	05 e0       	ldi	r16, 0x05	; 5
     c6e:	0e 94 db 05 	call	0xbb6	; 0xbb6 <plcs_GetNCPMessage>
     c72:	48 2f       	mov	r20, r24
			len);
	sendData(0, tmp_BuffForNCP, resultLen);
     c74:	80 e0       	ldi	r24, 0x00	; 0
     c76:	90 e0       	ldi	r25, 0x00	; 0
     c78:	b7 01       	movw	r22, r14
     c7a:	50 e0       	ldi	r21, 0x00	; 0
     c7c:	0e 94 4e 0c 	call	0x189c	; 0x189c <sendData>
}
     c80:	2a 96       	adiw	r28, 0x0a	; 10
     c82:	0f b6       	in	r0, 0x3f	; 63
     c84:	f8 94       	cli
     c86:	de bf       	out	0x3e, r29	; 62
     c88:	0f be       	out	0x3f, r0	; 63
     c8a:	cd bf       	out	0x3d, r28	; 61
     c8c:	cf 91       	pop	r28
     c8e:	df 91       	pop	r29
     c90:	0f 91       	pop	r16
     c92:	ff 90       	pop	r15
     c94:	ef 90       	pop	r14
     c96:	08 95       	ret

00000c98 <ncp_SendPingReq>:
		ncp_NetState = NCP_NET_NOT_CONNECT;
}

////////////////////////////////

void ncp_SendPingReq() {
     c98:	0f 93       	push	r16
     c9a:	df 93       	push	r29
     c9c:	cf 93       	push	r28
     c9e:	cd b7       	in	r28, 0x3d	; 61
     ca0:	de b7       	in	r29, 0x3e	; 62
     ca2:	2a 97       	sbiw	r28, 0x0a	; 10
     ca4:	0f b6       	in	r0, 0x3f	; 63
     ca6:	f8 94       	cli
     ca8:	de bf       	out	0x3e, r29	; 62
     caa:	0f be       	out	0x3f, r0	; 63
     cac:	cd bf       	out	0x3d, r28	; 61
	int len = 0;
	uint8 payload[10];
	uint8 resultLen = 0;

	pingCount++;
     cae:	80 91 13 01 	lds	r24, 0x0113
     cb2:	8f 5f       	subi	r24, 0xFF	; 255
     cb4:	80 93 13 01 	sts	0x0113, r24

	payload[len++] = NCP_REQ_PING;
     cb8:	81 e0       	ldi	r24, 0x01	; 1
     cba:	89 83       	std	Y+1, r24	; 0x01
	payload[len++] = 0;
     cbc:	1a 82       	std	Y+2, r1	; 0x02
	payload[len++] = 0;
     cbe:	1b 82       	std	Y+3, r1	; 0x03

	resultLen = plcs_GetNCPMessage(tmp_BuffForNCP, 0, tmp_zrmp.zrm_Id, payload,
     cc0:	40 91 74 07 	lds	r20, 0x0774
     cc4:	50 91 75 07 	lds	r21, 0x0775
     cc8:	88 e3       	ldi	r24, 0x38	; 56
     cca:	92 e0       	ldi	r25, 0x02	; 2
     ccc:	60 e0       	ldi	r22, 0x00	; 0
     cce:	70 e0       	ldi	r23, 0x00	; 0
     cd0:	9e 01       	movw	r18, r28
     cd2:	2f 5f       	subi	r18, 0xFF	; 255
     cd4:	3f 4f       	sbci	r19, 0xFF	; 255
     cd6:	03 e0       	ldi	r16, 0x03	; 3
     cd8:	0e 94 db 05 	call	0xbb6	; 0xbb6 <plcs_GetNCPMessage>
     cdc:	48 2f       	mov	r20, r24
			len);

	if(pingCount>3) {
     cde:	80 91 13 01 	lds	r24, 0x0113
     ce2:	84 30       	cpi	r24, 0x04	; 4
     ce4:	20 f0       	brcs	.+8      	; 0xcee <ncp_SendPingReq+0x56>
		ncp_NetState=NCP_NET_NOT_CONNECT;
     ce6:	10 92 12 01 	sts	0x0112, r1
		pingCount=0;
     cea:	10 92 13 01 	sts	0x0113, r1
	}

	sendData(0, tmp_BuffForNCP, resultLen);
     cee:	80 e0       	ldi	r24, 0x00	; 0
     cf0:	90 e0       	ldi	r25, 0x00	; 0
     cf2:	68 e3       	ldi	r22, 0x38	; 56
     cf4:	72 e0       	ldi	r23, 0x02	; 2
     cf6:	50 e0       	ldi	r21, 0x00	; 0
     cf8:	0e 94 4e 0c 	call	0x189c	; 0x189c <sendData>

}
     cfc:	2a 96       	adiw	r28, 0x0a	; 10
     cfe:	0f b6       	in	r0, 0x3f	; 63
     d00:	f8 94       	cli
     d02:	de bf       	out	0x3e, r29	; 62
     d04:	0f be       	out	0x3f, r0	; 63
     d06:	cd bf       	out	0x3d, r28	; 61
     d08:	cf 91       	pop	r28
     d0a:	df 91       	pop	r29
     d0c:	0f 91       	pop	r16
     d0e:	08 95       	ret

00000d10 <timer_set>:


int timer_set(int timer_id, uint32 time_value)
{
	
	if ( (timer_id >= 0) && (timer_id < MAX_SYS_TIMER) )
     d10:	8a 30       	cpi	r24, 0x0A	; 10
     d12:	91 05       	cpc	r25, r1
     d14:	78 f4       	brcc	.+30     	; 0xd34 <timer_set+0x24>
	{
		//DISABLE_INTERRUPT();
		
		timer_list[timer_id].value = time_value;
     d16:	fc 01       	movw	r30, r24
     d18:	ee 0f       	add	r30, r30
     d1a:	ff 1f       	adc	r31, r31
     d1c:	ee 0f       	add	r30, r30
     d1e:	ff 1f       	adc	r31, r31
     d20:	e8 0f       	add	r30, r24
     d22:	f9 1f       	adc	r31, r25
     d24:	ee 57       	subi	r30, 0x7E	; 126
     d26:	fd 4f       	sbci	r31, 0xFD	; 253
     d28:	41 83       	std	Z+1, r20	; 0x01
     d2a:	52 83       	std	Z+2, r21	; 0x02
     d2c:	63 83       	std	Z+3, r22	; 0x03
     d2e:	74 83       	std	Z+4, r23	; 0x04
		timer_list[timer_id].running = 1;
     d30:	81 e0       	ldi	r24, 0x01	; 1
     d32:	80 83       	st	Z, r24
		
		//ENABLE_INTERRUPT();
	}
	return 0;
}
     d34:	80 e0       	ldi	r24, 0x00	; 0
     d36:	90 e0       	ldi	r25, 0x00	; 0
     d38:	08 95       	ret

00000d3a <timer_get>:


int timer_get(int timer_id)
{
	if ( (timer_id >= 0) && (timer_id < MAX_SYS_TIMER) )
     d3a:	8a 30       	cpi	r24, 0x0A	; 10
     d3c:	91 05       	cpc	r25, r1
     d3e:	b0 f4       	brcc	.+44     	; 0xd6c <timer_get+0x32>
	{
		if (timer_list[timer_id].running)
     d40:	fc 01       	movw	r30, r24
     d42:	ee 0f       	add	r30, r30
     d44:	ff 1f       	adc	r31, r31
     d46:	ee 0f       	add	r30, r30
     d48:	ff 1f       	adc	r31, r31
     d4a:	e8 0f       	add	r30, r24
     d4c:	f9 1f       	adc	r31, r25
     d4e:	ee 57       	subi	r30, 0x7E	; 126
     d50:	fd 4f       	sbci	r31, 0xFD	; 253
     d52:	80 81       	ld	r24, Z
     d54:	88 23       	and	r24, r24
     d56:	51 f0       	breq	.+20     	; 0xd6c <timer_get+0x32>
     d58:	20 e0       	ldi	r18, 0x00	; 0
     d5a:	30 e0       	ldi	r19, 0x00	; 0
     d5c:	81 81       	ldd	r24, Z+1	; 0x01
     d5e:	92 81       	ldd	r25, Z+2	; 0x02
     d60:	a3 81       	ldd	r26, Z+3	; 0x03
     d62:	b4 81       	ldd	r27, Z+4	; 0x04
     d64:	00 97       	sbiw	r24, 0x00	; 0
     d66:	a1 05       	cpc	r26, r1
     d68:	b1 05       	cpc	r27, r1
     d6a:	11 f0       	breq	.+4      	; 0xd70 <timer_get+0x36>
     d6c:	21 e0       	ldi	r18, 0x01	; 1
     d6e:	30 e0       	ldi	r19, 0x00	; 0
	else
	{
		// return as not fired.
		return 1;
	}
}
     d70:	c9 01       	movw	r24, r18
     d72:	08 95       	ret

00000d74 <timer_clear>:



int timer_clear(int timer_id)
{
	if ( (timer_id >= 0) && (timer_id < MAX_SYS_TIMER) )
     d74:	8a 30       	cpi	r24, 0x0A	; 10
     d76:	91 05       	cpc	r25, r1
     d78:	50 f4       	brcc	.+20     	; 0xd8e <timer_clear+0x1a>
	{
		timer_list[timer_id].running = 0;
     d7a:	fc 01       	movw	r30, r24
     d7c:	ee 0f       	add	r30, r30
     d7e:	ff 1f       	adc	r31, r31
     d80:	ee 0f       	add	r30, r30
     d82:	ff 1f       	adc	r31, r31
     d84:	e8 0f       	add	r30, r24
     d86:	f9 1f       	adc	r31, r25
     d88:	ee 57       	subi	r30, 0x7E	; 126
     d8a:	fd 4f       	sbci	r31, 0xFD	; 253
     d8c:	10 82       	st	Z, r1
	}
	
	return 0;
}
     d8e:	80 e0       	ldi	r24, 0x00	; 0
     d90:	90 e0       	ldi	r25, 0x00	; 0
     d92:	08 95       	ret

00000d94 <timer_init>:
	- timer utility init
	- timer register setting
*/
void timer_init()
{
	DISABLE_INTERRUPT();
     d94:	f8 94       	cli
     d96:	e2 e8       	ldi	r30, 0x82	; 130
     d98:	f2 e0       	ldi	r31, 0x02	; 2
	for (int i=0; i<MAX_SYS_TIMER; i++)
	{
		timer_list[i].running = 0;
     d9a:	10 82       	st	Z, r1
		timer_list[i].value = 0;
     d9c:	11 82       	std	Z+1, r1	; 0x01
     d9e:	12 82       	std	Z+2, r1	; 0x02
     da0:	13 82       	std	Z+3, r1	; 0x03
     da2:	14 82       	std	Z+4, r1	; 0x04
     da4:	35 96       	adiw	r30, 0x05	; 5
	- timer register setting
*/
void timer_init()
{
	DISABLE_INTERRUPT();
	for (int i=0; i<MAX_SYS_TIMER; i++)
     da6:	82 e0       	ldi	r24, 0x02	; 2
     da8:	e4 3b       	cpi	r30, 0xB4	; 180
     daa:	f8 07       	cpc	r31, r24
     dac:	b1 f7       	brne	.-20     	; 0xd9a <timer_init+0x6>
	// TCCR0 : FOC0, WGM00, COM01, COM00, WGM01, CS02, CS01, CS00
	// CS12,CS11,CS10 : 1=clk, 2=clk/8, 3=clk/32, 4=clk/64, 5=clk/128, 6=clk/256, 7=clk/1024.
	// WGM01,WGM00 : 0x10=CTC(Clear Timer on Compare match) mode; top = OCR0, 
	// timer control : CLK_io = system clock = 8 MHz.

	TCNT3H = 0x00;
     dae:	10 92 89 00 	sts	0x0089, r1
	TCNT3L = 0x00;
     db2:	10 92 88 00 	sts	0x0088, r1

	TCCR3A = 0x40;				// Normal mode.  WGMn[3-0] = b0100.
     db6:	80 e4       	ldi	r24, 0x40	; 64
     db8:	80 93 8b 00 	sts	0x008B, r24
								// COM1A1,A0 = b00, normal port operation.(CTC mode)
	TCCR3B = 0x0C;				// CSn2/1/0 = b100, clk_io/256, CTC mode.
     dbc:	8c e0       	ldi	r24, 0x0C	; 12
     dbe:	80 93 8a 00 	sts	0x008A, r24
	TCCR3C = 0x00;
     dc2:	10 92 8c 00 	sts	0x008C, r1
	
	OCR3AH = 0x00;
     dc6:	10 92 87 00 	sts	0x0087, r1
	OCR3AL = TIMER_TCNT;		//value=31 for 8Mhz;		// 1ms
     dca:	8e e3       	ldi	r24, 0x3E	; 62
     dcc:	80 93 86 00 	sts	0x0086, r24

	ETIMSK |=0x10;				// enable OCIE3A, don't touch other flags.
     dd0:	80 91 7d 00 	lds	r24, 0x007D
     dd4:	80 61       	ori	r24, 0x10	; 16
     dd6:	80 93 7d 00 	sts	0x007D, r24
	
#endif
 	ENABLE_INTERRUPT();
     dda:	78 94       	sei

}
     ddc:	08 95       	ret

00000dde <__vector_26>:



#ifdef	USE_TIMER3
ISR(TIMER3_COMPA_vect)
{ 
     dde:	1f 92       	push	r1
     de0:	0f 92       	push	r0
     de2:	0f b6       	in	r0, 0x3f	; 63
     de4:	0f 92       	push	r0
     de6:	0b b6       	in	r0, 0x3b	; 59
     de8:	0f 92       	push	r0
     dea:	11 24       	eor	r1, r1
     dec:	8f 93       	push	r24
     dee:	9f 93       	push	r25
     df0:	af 93       	push	r26
     df2:	bf 93       	push	r27
     df4:	ef 93       	push	r30
     df6:	ff 93       	push	r31
	int i;
	
	// Need not clear TCNT1, it is automatically cleared on CTC mode.(Clear Timer on Compare match)
	// TCNT1 = 0;
	// 1ms timer.
	timerCount++;
     df8:	80 91 7e 02 	lds	r24, 0x027E
     dfc:	90 91 7f 02 	lds	r25, 0x027F
     e00:	a0 91 80 02 	lds	r26, 0x0280
     e04:	b0 91 81 02 	lds	r27, 0x0281
     e08:	01 96       	adiw	r24, 0x01	; 1
     e0a:	a1 1d       	adc	r26, r1
     e0c:	b1 1d       	adc	r27, r1
     e0e:	80 93 7e 02 	sts	0x027E, r24
     e12:	90 93 7f 02 	sts	0x027F, r25
     e16:	a0 93 80 02 	sts	0x0280, r26
     e1a:	b0 93 81 02 	sts	0x0281, r27
     e1e:	e3 e8       	ldi	r30, 0x83	; 131
     e20:	f2 e0       	ldi	r31, 0x02	; 2
	
	// timer decreasing.
	for (i=0; i<MAX_SYS_TIMER; i++)
	{
		if (timer_list[i].value > 0)
     e22:	80 81       	ld	r24, Z
     e24:	91 81       	ldd	r25, Z+1	; 0x01
     e26:	a2 81       	ldd	r26, Z+2	; 0x02
     e28:	b3 81       	ldd	r27, Z+3	; 0x03
     e2a:	00 97       	sbiw	r24, 0x00	; 0
     e2c:	a1 05       	cpc	r26, r1
     e2e:	b1 05       	cpc	r27, r1
     e30:	39 f0       	breq	.+14     	; 0xe40 <__vector_26+0x62>
		{
			timer_list[i].value--;
     e32:	01 97       	sbiw	r24, 0x01	; 1
     e34:	a1 09       	sbc	r26, r1
     e36:	b1 09       	sbc	r27, r1
     e38:	80 83       	st	Z, r24
     e3a:	91 83       	std	Z+1, r25	; 0x01
     e3c:	a2 83       	std	Z+2, r26	; 0x02
     e3e:	b3 83       	std	Z+3, r27	; 0x03
     e40:	35 96       	adiw	r30, 0x05	; 5
	// TCNT1 = 0;
	// 1ms timer.
	timerCount++;
	
	// timer decreasing.
	for (i=0; i<MAX_SYS_TIMER; i++)
     e42:	82 e0       	ldi	r24, 0x02	; 2
     e44:	e5 3b       	cpi	r30, 0xB5	; 181
     e46:	f8 07       	cpc	r31, r24
     e48:	61 f7       	brne	.-40     	; 0xe22 <__vector_26+0x44>
		{
			timer_list[i].value--;
		}
	}

}
     e4a:	ff 91       	pop	r31
     e4c:	ef 91       	pop	r30
     e4e:	bf 91       	pop	r27
     e50:	af 91       	pop	r26
     e52:	9f 91       	pop	r25
     e54:	8f 91       	pop	r24
     e56:	0f 90       	pop	r0
     e58:	0b be       	out	0x3b, r0	; 59
     e5a:	0f 90       	pop	r0
     e5c:	0f be       	out	0x3f, r0	; 63
     e5e:	0f 90       	pop	r0
     e60:	1f 90       	pop	r1
     e62:	18 95       	reti

00000e64 <InitUART>:
//***************************************************************************//
#endif

void InitUART(void)
{
	UCSR0A = 0x02;		// U2X = 0
     e64:	82 e0       	ldi	r24, 0x02	; 2
     e66:	8b b9       	out	0x0b, r24	; 11
	UCSR0B = 0xD8;
     e68:	88 ed       	ldi	r24, 0xD8	; 216
     e6a:	8a b9       	out	0x0a, r24	; 10
	UCSR0C = 0x06;		  
     e6c:	96 e0       	ldi	r25, 0x06	; 6
     e6e:	90 93 95 00 	sts	0x0095, r25
	UBRR0H = 0x00;
     e72:	10 92 90 00 	sts	0x0090, r1
	UBRR0L = 0x10;		// 115200 bps, double speed
     e76:	80 e1       	ldi	r24, 0x10	; 16
     e78:	89 b9       	out	0x09, r24	; 9


	UCSR1A=0x00;
     e7a:	10 92 9b 00 	sts	0x009B, r1
	UCSR1B=0x08;
     e7e:	88 e0       	ldi	r24, 0x08	; 8
     e80:	80 93 9a 00 	sts	0x009A, r24
	UCSR1C=0x06;
     e84:	90 93 9d 00 	sts	0x009D, r25
	UBRR1H=0x00;
     e88:	10 92 98 00 	sts	0x0098, r1
	UBRR1L=0x67; //9600
     e8c:	87 e6       	ldi	r24, 0x67	; 103
     e8e:	80 93 99 00 	sts	0x0099, r24

#ifdef DEBUG_ENABLE
	stdout = &mystdout;
#endif
}
     e92:	08 95       	ret

00000e94 <__vector_18>:


//--------------------- USART0 -------------------------//
//------------------------------------------------------//
ISR(USART0_RX_vect)
{
     e94:	1f 92       	push	r1
     e96:	0f 92       	push	r0
     e98:	0f b6       	in	r0, 0x3f	; 63
     e9a:	0f 92       	push	r0
     e9c:	0b b6       	in	r0, 0x3b	; 59
     e9e:	0f 92       	push	r0
     ea0:	11 24       	eor	r1, r1
     ea2:	2f 93       	push	r18
     ea4:	8f 93       	push	r24
     ea6:	9f 93       	push	r25
     ea8:	ef 93       	push	r30
     eaa:	ff 93       	push	r31
	uint8 status;
	uint8 data;

    while (((status = UCSR0A) & (1 << RXC)) == 0);
     eac:	5f 9b       	sbis	0x0b, 7	; 11
     eae:	fe cf       	rjmp	.-4      	; 0xeac <__vector_18+0x18>

	data = UDR0;
     eb0:	2c b1       	in	r18, 0x0c	; 12

	uart0_rx_buff[uart0_rx_tail] = data;
     eb2:	80 91 17 01 	lds	r24, 0x0117
     eb6:	90 e0       	ldi	r25, 0x00	; 0
     eb8:	fc 01       	movw	r30, r24
     eba:	ec 54       	subi	r30, 0x4C	; 76
     ebc:	fc 4f       	sbci	r31, 0xFC	; 252
     ebe:	20 83       	st	Z, r18
	uart0_rx_tail = (uart0_rx_tail+1) % USART_BUFF_SIZE;
     ec0:	01 96       	adiw	r24, 0x01	; 1
     ec2:	80 93 17 01 	sts	0x0117, r24
	uart0_rx_len ++;
     ec6:	80 91 18 01 	lds	r24, 0x0118
     eca:	8f 5f       	subi	r24, 0xFF	; 255
     ecc:	80 93 18 01 	sts	0x0118, r24
}
     ed0:	ff 91       	pop	r31
     ed2:	ef 91       	pop	r30
     ed4:	9f 91       	pop	r25
     ed6:	8f 91       	pop	r24
     ed8:	2f 91       	pop	r18
     eda:	0f 90       	pop	r0
     edc:	0b be       	out	0x3b, r0	; 59
     ede:	0f 90       	pop	r0
     ee0:	0f be       	out	0x3f, r0	; 63
     ee2:	0f 90       	pop	r0
     ee4:	1f 90       	pop	r1
     ee6:	18 95       	reti

00000ee8 <__vector_19>:


ISR(USART0_UDRE_vect)
{
     ee8:	1f 92       	push	r1
     eea:	0f 92       	push	r0
     eec:	0f b6       	in	r0, 0x3f	; 63
     eee:	0f 92       	push	r0
     ef0:	0b b6       	in	r0, 0x3b	; 59
     ef2:	0f 92       	push	r0
     ef4:	11 24       	eor	r1, r1
     ef6:	2f 93       	push	r18
     ef8:	3f 93       	push	r19
     efa:	8f 93       	push	r24
     efc:	9f 93       	push	r25
     efe:	ef 93       	push	r30
     f00:	ff 93       	push	r31
	uint8 buff;

 	if (uart0_tx_len > 0)
     f02:	30 91 1b 01 	lds	r19, 0x011B
     f06:	33 23       	and	r19, r19
     f08:	71 f0       	breq	.+28     	; 0xf26 <__vector_19+0x3e>
	{
		buff = uart0_tx_buff[uart0_tx_front];
     f0a:	80 91 19 01 	lds	r24, 0x0119
     f0e:	90 e0       	ldi	r25, 0x00	; 0
     f10:	fc 01       	movw	r30, r24
     f12:	ec 54       	subi	r30, 0x4C	; 76
     f14:	fb 4f       	sbci	r31, 0xFB	; 251
     f16:	20 81       	ld	r18, Z

	    	UDR0 = buff;
     f18:	2c b9       	out	0x0c, r18	; 12

		uart0_tx_front = (uart0_tx_front+1) % USART_BUFF_SIZE;
     f1a:	01 96       	adiw	r24, 0x01	; 1
     f1c:	80 93 19 01 	sts	0x0119, r24
		uart0_tx_len--;
     f20:	31 50       	subi	r19, 0x01	; 1
     f22:	30 93 1b 01 	sts	0x011B, r19
	}

    UCSR0B &= ~0x20;    // RXCIE, UDRIE, RXEN, TXEN
     f26:	55 98       	cbi	0x0a, 5	; 10
}
     f28:	ff 91       	pop	r31
     f2a:	ef 91       	pop	r30
     f2c:	9f 91       	pop	r25
     f2e:	8f 91       	pop	r24
     f30:	3f 91       	pop	r19
     f32:	2f 91       	pop	r18
     f34:	0f 90       	pop	r0
     f36:	0b be       	out	0x3b, r0	; 59
     f38:	0f 90       	pop	r0
     f3a:	0f be       	out	0x3f, r0	; 63
     f3c:	0f 90       	pop	r0
     f3e:	1f 90       	pop	r1
     f40:	18 95       	reti

00000f42 <__vector_20>:


ISR(USART0_TX_vect)
{
     f42:	1f 92       	push	r1
     f44:	0f 92       	push	r0
     f46:	0f b6       	in	r0, 0x3f	; 63
     f48:	0f 92       	push	r0
     f4a:	0b b6       	in	r0, 0x3b	; 59
     f4c:	0f 92       	push	r0
     f4e:	11 24       	eor	r1, r1
     f50:	2f 93       	push	r18
     f52:	3f 93       	push	r19
     f54:	8f 93       	push	r24
     f56:	9f 93       	push	r25
     f58:	ef 93       	push	r30
     f5a:	ff 93       	push	r31
	uint8 buff;

	if (uart0_tx_len > 0)
     f5c:	30 91 1b 01 	lds	r19, 0x011B
     f60:	33 23       	and	r19, r19
     f62:	71 f0       	breq	.+28     	; 0xf80 <__vector_20+0x3e>
	{
		buff = uart0_tx_buff[uart0_tx_front];
     f64:	80 91 19 01 	lds	r24, 0x0119
     f68:	90 e0       	ldi	r25, 0x00	; 0
     f6a:	fc 01       	movw	r30, r24
     f6c:	ec 54       	subi	r30, 0x4C	; 76
     f6e:	fb 4f       	sbci	r31, 0xFB	; 251
     f70:	20 81       	ld	r18, Z
		//while ((UCSR1A & (1<<UDRE))==0);
		// tx isr.

		UDR0 = buff;
     f72:	2c b9       	out	0x0c, r18	; 12

		uart0_tx_front = (uart0_tx_front+1) % USART_BUFF_SIZE;
     f74:	01 96       	adiw	r24, 0x01	; 1
     f76:	80 93 19 01 	sts	0x0119, r24
		uart0_tx_len--;
     f7a:	31 50       	subi	r19, 0x01	; 1
     f7c:	30 93 1b 01 	sts	0x011B, r19
	}
}
     f80:	ff 91       	pop	r31
     f82:	ef 91       	pop	r30
     f84:	9f 91       	pop	r25
     f86:	8f 91       	pop	r24
     f88:	3f 91       	pop	r19
     f8a:	2f 91       	pop	r18
     f8c:	0f 90       	pop	r0
     f8e:	0b be       	out	0x3b, r0	; 59
     f90:	0f 90       	pop	r0
     f92:	0f be       	out	0x3f, r0	; 63
     f94:	0f 90       	pop	r0
     f96:	1f 90       	pop	r1
     f98:	18 95       	reti

00000f9a <USART0_Receive>:
//------------------------------------------------------//

//------------------------------------------------------//
int USART0_Receive(uint8 *buff)
{
     f9a:	dc 01       	movw	r26, r24
	
	DISABLE_INTERRUPT();
     f9c:	f8 94       	cli
 
	if (uart0_rx_len > 0)
     f9e:	80 91 18 01 	lds	r24, 0x0118
     fa2:	88 23       	and	r24, r24
     fa4:	99 f0       	breq	.+38     	; 0xfcc <USART0_Receive+0x32>
	{		
		uart0_rx_len--;
     fa6:	81 50       	subi	r24, 0x01	; 1
     fa8:	80 93 18 01 	sts	0x0118, r24
    	ENABLE_INTERRUPT();
     fac:	78 94       	sei
		*buff = uart0_rx_buff[uart0_rx_front]; 		
     fae:	e0 91 16 01 	lds	r30, 0x0116
     fb2:	f0 e0       	ldi	r31, 0x00	; 0
     fb4:	ec 54       	subi	r30, 0x4C	; 76
     fb6:	fc 4f       	sbci	r31, 0xFC	; 252
     fb8:	80 81       	ld	r24, Z
     fba:	8c 93       	st	X, r24
		uart0_rx_front = (uart0_rx_front+1) % USART_BUFF_SIZE;
     fbc:	80 91 16 01 	lds	r24, 0x0116
     fc0:	8f 5f       	subi	r24, 0xFF	; 255
     fc2:	80 93 16 01 	sts	0x0116, r24
     fc6:	21 e0       	ldi	r18, 0x01	; 1
     fc8:	30 e0       	ldi	r19, 0x00	; 0
     fca:	03 c0       	rjmp	.+6      	; 0xfd2 <USART0_Receive+0x38>

		return 1;
	}

   	ENABLE_INTERRUPT();
     fcc:	78 94       	sei
     fce:	20 e0       	ldi	r18, 0x00	; 0
     fd0:	30 e0       	ldi	r19, 0x00	; 0

	return 0;
}
     fd2:	c9 01       	movw	r24, r18
     fd4:	08 95       	ret

00000fd6 <USART0_Transmit>:


int USART0_Transmit(uint8 buff)
{

	while ((UCSR0A & (1<<UDRE))==0);
     fd6:	5d 9b       	sbis	0x0b, 5	; 11
     fd8:	fe cf       	rjmp	.-4      	; 0xfd6 <USART0_Transmit>
		// tx isr.

	UDR0 = buff;
     fda:	8c b9       	out	0x0c, r24	; 12
	}

   	ENABLE_INTERRUPT();
*/	
	return 0;
}
     fdc:	81 e0       	ldi	r24, 0x01	; 1
     fde:	90 e0       	ldi	r25, 0x00	; 0
     fe0:	08 95       	ret

00000fe2 <__vector_30>:

//--------------------- USART1 --------------------------//
//------------------------------------------------------//

ISR(USART1_RX_vect)
{
     fe2:	1f 92       	push	r1
     fe4:	0f 92       	push	r0
     fe6:	0f b6       	in	r0, 0x3f	; 63
     fe8:	0f 92       	push	r0
     fea:	0b b6       	in	r0, 0x3b	; 59
     fec:	0f 92       	push	r0
     fee:	11 24       	eor	r1, r1
     ff0:	2f 93       	push	r18
     ff2:	8f 93       	push	r24
     ff4:	9f 93       	push	r25
     ff6:	ef 93       	push	r30
     ff8:	ff 93       	push	r31
	uint8 status;
	uint8 data;

    	while (((status = UCSR1A) & (1 << RXC))==0);
     ffa:	80 91 9b 00 	lds	r24, 0x009B
     ffe:	87 ff       	sbrs	r24, 7
    1000:	fc cf       	rjmp	.-8      	; 0xffa <__vector_30+0x18>

	data = UDR1;
    1002:	20 91 9c 00 	lds	r18, 0x009C

	uart1_rx_buff[uart1_rx_tail] = data;
    1006:	80 91 1d 01 	lds	r24, 0x011D
    100a:	90 e0       	ldi	r25, 0x00	; 0
    100c:	fc 01       	movw	r30, r24
    100e:	ec 54       	subi	r30, 0x4C	; 76
    1010:	fa 4f       	sbci	r31, 0xFA	; 250
    1012:	20 83       	st	Z, r18
	uart1_rx_tail = (uart1_rx_tail+1) % USART_BUFF_SIZE;
    1014:	01 96       	adiw	r24, 0x01	; 1
    1016:	80 93 1d 01 	sts	0x011D, r24
	uart1_rx_len ++;
    101a:	80 91 1e 01 	lds	r24, 0x011E
    101e:	8f 5f       	subi	r24, 0xFF	; 255
    1020:	80 93 1e 01 	sts	0x011E, r24
}
    1024:	ff 91       	pop	r31
    1026:	ef 91       	pop	r30
    1028:	9f 91       	pop	r25
    102a:	8f 91       	pop	r24
    102c:	2f 91       	pop	r18
    102e:	0f 90       	pop	r0
    1030:	0b be       	out	0x3b, r0	; 59
    1032:	0f 90       	pop	r0
    1034:	0f be       	out	0x3f, r0	; 63
    1036:	0f 90       	pop	r0
    1038:	1f 90       	pop	r1
    103a:	18 95       	reti

0000103c <__vector_31>:


ISR(USART1_UDRE_vect)
{
    103c:	1f 92       	push	r1
    103e:	0f 92       	push	r0
    1040:	0f b6       	in	r0, 0x3f	; 63
    1042:	0f 92       	push	r0
    1044:	0b b6       	in	r0, 0x3b	; 59
    1046:	0f 92       	push	r0
    1048:	11 24       	eor	r1, r1
    104a:	2f 93       	push	r18
    104c:	3f 93       	push	r19
    104e:	8f 93       	push	r24
    1050:	9f 93       	push	r25
    1052:	ef 93       	push	r30
    1054:	ff 93       	push	r31
	uint8 buff;

 	if (uart1_tx_len > 0)
    1056:	30 91 21 01 	lds	r19, 0x0121
    105a:	33 23       	and	r19, r19
    105c:	79 f0       	breq	.+30     	; 0x107c <__vector_31+0x40>
	{
		buff = uart1_tx_buff[uart1_tx_front];
    105e:	80 91 1f 01 	lds	r24, 0x011F
    1062:	90 e0       	ldi	r25, 0x00	; 0
    1064:	fc 01       	movw	r30, r24
    1066:	ec 54       	subi	r30, 0x4C	; 76
    1068:	fd 4f       	sbci	r31, 0xFD	; 253
    106a:	20 81       	ld	r18, Z

	    	UDR1 = buff;
    106c:	20 93 9c 00 	sts	0x009C, r18

		uart1_tx_front = (uart1_tx_front+1) % USART_BUFF_SIZE;
    1070:	01 96       	adiw	r24, 0x01	; 1
    1072:	80 93 1f 01 	sts	0x011F, r24
		uart1_tx_len--;
    1076:	31 50       	subi	r19, 0x01	; 1
    1078:	30 93 21 01 	sts	0x0121, r19
	}

    UCSR1B &= ~0x20;    // RXCIE, UDRIE, RXEN, TXEN
    107c:	80 91 9a 00 	lds	r24, 0x009A
    1080:	8f 7d       	andi	r24, 0xDF	; 223
    1082:	80 93 9a 00 	sts	0x009A, r24
}
    1086:	ff 91       	pop	r31
    1088:	ef 91       	pop	r30
    108a:	9f 91       	pop	r25
    108c:	8f 91       	pop	r24
    108e:	3f 91       	pop	r19
    1090:	2f 91       	pop	r18
    1092:	0f 90       	pop	r0
    1094:	0b be       	out	0x3b, r0	; 59
    1096:	0f 90       	pop	r0
    1098:	0f be       	out	0x3f, r0	; 63
    109a:	0f 90       	pop	r0
    109c:	1f 90       	pop	r1
    109e:	18 95       	reti

000010a0 <__vector_32>:


ISR(USART1_TX_vect)
{
    10a0:	1f 92       	push	r1
    10a2:	0f 92       	push	r0
    10a4:	0f b6       	in	r0, 0x3f	; 63
    10a6:	0f 92       	push	r0
    10a8:	0b b6       	in	r0, 0x3b	; 59
    10aa:	0f 92       	push	r0
    10ac:	11 24       	eor	r1, r1
    10ae:	2f 93       	push	r18
    10b0:	3f 93       	push	r19
    10b2:	8f 93       	push	r24
    10b4:	9f 93       	push	r25
    10b6:	ef 93       	push	r30
    10b8:	ff 93       	push	r31
	uint8 buff;

	if (uart1_tx_len > 0)
    10ba:	30 91 21 01 	lds	r19, 0x0121
    10be:	33 23       	and	r19, r19
    10c0:	79 f0       	breq	.+30     	; 0x10e0 <__vector_32+0x40>
	{
		buff = uart1_tx_buff[uart1_tx_front];
    10c2:	80 91 1f 01 	lds	r24, 0x011F
    10c6:	90 e0       	ldi	r25, 0x00	; 0
    10c8:	fc 01       	movw	r30, r24
    10ca:	ec 54       	subi	r30, 0x4C	; 76
    10cc:	fd 4f       	sbci	r31, 0xFD	; 253
    10ce:	20 81       	ld	r18, Z
		//while ((UCSR1A & (1<<UDRE))==0);
		// tx isr.
	   	 UDR1 = buff;
    10d0:	20 93 9c 00 	sts	0x009C, r18
		uart1_tx_front = (uart1_tx_front+1) % USART_BUFF_SIZE;
    10d4:	01 96       	adiw	r24, 0x01	; 1
    10d6:	80 93 1f 01 	sts	0x011F, r24
		uart1_tx_len--;
    10da:	31 50       	subi	r19, 0x01	; 1
    10dc:	30 93 21 01 	sts	0x0121, r19
	}
}
    10e0:	ff 91       	pop	r31
    10e2:	ef 91       	pop	r30
    10e4:	9f 91       	pop	r25
    10e6:	8f 91       	pop	r24
    10e8:	3f 91       	pop	r19
    10ea:	2f 91       	pop	r18
    10ec:	0f 90       	pop	r0
    10ee:	0b be       	out	0x3b, r0	; 59
    10f0:	0f 90       	pop	r0
    10f2:	0f be       	out	0x3f, r0	; 63
    10f4:	0f 90       	pop	r0
    10f6:	1f 90       	pop	r1
    10f8:	18 95       	reti

000010fa <USART1_Receive>:
//------------------------------------------------------//

int USART1_Receive(uint8 *buff)
{
    10fa:	dc 01       	movw	r26, r24
	DISABLE_INTERRUPT();
    10fc:	f8 94       	cli
	
	if (uart1_rx_len > 0)
    10fe:	80 91 1e 01 	lds	r24, 0x011E
    1102:	88 23       	and	r24, r24
    1104:	99 f0       	breq	.+38     	; 0x112c <__stack+0x2d>
	{
		uart1_rx_len--;
    1106:	81 50       	subi	r24, 0x01	; 1
    1108:	80 93 1e 01 	sts	0x011E, r24
    	ENABLE_INTERRUPT();
    110c:	78 94       	sei
		*buff = uart1_rx_buff[uart1_rx_front];
    110e:	e0 91 1c 01 	lds	r30, 0x011C
    1112:	f0 e0       	ldi	r31, 0x00	; 0
    1114:	ec 54       	subi	r30, 0x4C	; 76
    1116:	fa 4f       	sbci	r31, 0xFA	; 250
    1118:	80 81       	ld	r24, Z
    111a:	8c 93       	st	X, r24
		uart1_rx_front = (uart1_rx_front+1) % USART_BUFF_SIZE;
    111c:	80 91 1c 01 	lds	r24, 0x011C
    1120:	8f 5f       	subi	r24, 0xFF	; 255
    1122:	80 93 1c 01 	sts	0x011C, r24
    1126:	21 e0       	ldi	r18, 0x01	; 1
    1128:	30 e0       	ldi	r19, 0x00	; 0
    112a:	03 c0       	rjmp	.+6      	; 0x1132 <__stack+0x33>

		return 1;
	}

   	ENABLE_INTERRUPT();
    112c:	78 94       	sei
    112e:	20 e0       	ldi	r18, 0x00	; 0
    1130:	30 e0       	ldi	r19, 0x00	; 0

	return 0;
}
    1132:	c9 01       	movw	r24, r18
    1134:	08 95       	ret

00001136 <USART1_Transmit>:


int USART1_Transmit(uint8 buff)
{
    1136:	98 2f       	mov	r25, r24
	while ((UCSR1A & (1<<UDRE))==0);
    1138:	80 91 9b 00 	lds	r24, 0x009B
    113c:	85 ff       	sbrs	r24, 5
    113e:	fc cf       	rjmp	.-8      	; 0x1138 <USART1_Transmit+0x2>
		// tx isr.
   	 UDR1 = buff;
    1140:	90 93 9c 00 	sts	0x009C, r25
	return 1;
}
    1144:	81 e0       	ldi	r24, 0x01	; 1
    1146:	90 e0       	ldi	r25, 0x00	; 0
    1148:	08 95       	ret

0000114a <XNetHandler>:

// --------------------------------------------------------------------------- //
uint8 tmp_Buff[64];
// --------------------------------------------------------------------------- //

void XNetHandler(uint16 srcNetAddr, uint8 msg[], int buff_length) {
    114a:	9c 01       	movw	r18, r24
    114c:	fb 01       	movw	r30, r22
	uint8 pid;
	uint8 subPid;
	uint8 msgType;

	pid = msg[0];
	subPid = msg[1];
    114e:	91 81       	ldd	r25, Z+1	; 0x01
	switch (pid) {
    1150:	80 81       	ld	r24, Z
    1152:	80 38       	cpi	r24, 0x80	; 128
    1154:	89 f4       	brne	.+34     	; 0x1178 <XNetHandler+0x2e>
	case NCP_PROTOCOL_ID: {
		switch (subPid) {
    1156:	91 31       	cpi	r25, 0x11	; 17
    1158:	61 f0       	breq	.+24     	; 0x1172 <XNetHandler+0x28>
    115a:	91 32       	cpi	r25, 0x21	; 33
    115c:	31 f0       	breq	.+12     	; 0x116a <XNetHandler+0x20>
    115e:	91 30       	cpi	r25, 0x01	; 1
    1160:	59 f4       	brne	.+22     	; 0x1178 <XNetHandler+0x2e>
		case PLCS_NCP_PROTOCOL_ID:
			ncp_ProcessMessage(srcNetAddr, msg, buff_length);
    1162:	c9 01       	movw	r24, r18
    1164:	0e 94 93 05 	call	0xb26	; 0xb26 <ncp_ProcessMessage>
    1168:	08 95       	ret
			break;
		case PLCS_GCP_PROTOCOL_ID:
			plcs_GCP_ProcessMessageFromZigbee(srcNetAddr, msg, buff_length);
    116a:	c9 01       	movw	r24, r18
    116c:	0e 94 63 02 	call	0x4c6	; 0x4c6 <plcs_GCP_ProcessMessageFromZigbee>
    1170:	08 95       	ret
			break;
		case PLCS_DP_PROTOCOL_ID:
			plcs_MDP_ProcessMessageFromZigbee(srcNetAddr, msg, buff_length);
    1172:	c9 01       	movw	r24, r18
    1174:	0e 94 8a 05 	call	0xb14	; 0xb14 <plcs_MDP_ProcessMessageFromZigbee>
    1178:	08 95       	ret

0000117a <xcps_init_zigbee>:

/**

 **/
int xcps_init_zigbee(usart_getter getter, usart_putter putter) {
	xcps_getter_zigbee = getter;
    117a:	90 93 31 01 	sts	0x0131, r25
    117e:	80 93 30 01 	sts	0x0130, r24
	xcps_putter_zigbee = putter;
    1182:	70 93 33 01 	sts	0x0133, r23
    1186:	60 93 32 01 	sts	0x0132, r22

	return 0;
}
    118a:	80 e0       	ldi	r24, 0x00	; 0
    118c:	90 e0       	ldi	r25, 0x00	; 0
    118e:	08 95       	ret

00001190 <xcps_init_rs485>:

int xcps_init_rs485(usart_getter getter, usart_putter putter) {
	xcps_getter_rs485 = getter;
    1190:	90 93 2b 01 	sts	0x012B, r25
    1194:	80 93 2a 01 	sts	0x012A, r24
	xcps_putter_rs485 = putter;
    1198:	70 93 2f 01 	sts	0x012F, r23
    119c:	60 93 2e 01 	sts	0x012E, r22

	//xcps_TxDisabler_rs485();

	return 0;
}
    11a0:	80 e0       	ldi	r24, 0x00	; 0
    11a2:	90 e0       	ldi	r25, 0x00	; 0
    11a4:	08 95       	ret

000011a6 <xcps_send_zigbee>:

/**

 */
int xcps_send_zigbee(const uint8 *data, int length) {
    11a6:	cf 92       	push	r12
    11a8:	df 92       	push	r13
    11aa:	ef 92       	push	r14
    11ac:	ff 92       	push	r15
    11ae:	0f 93       	push	r16
    11b0:	1f 93       	push	r17
    11b2:	df 93       	push	r29
    11b4:	cf 93       	push	r28
    11b6:	cd b7       	in	r28, 0x3d	; 61
    11b8:	de b7       	in	r29, 0x3e	; 62
    11ba:	c0 54       	subi	r28, 0x40	; 64
    11bc:	d0 40       	sbci	r29, 0x00	; 0
    11be:	0f b6       	in	r0, 0x3f	; 63
    11c0:	f8 94       	cli
    11c2:	de bf       	out	0x3e, r29	; 62
    11c4:	0f be       	out	0x3f, r0	; 63
    11c6:	cd bf       	out	0x3d, r28	; 61
    11c8:	ac 01       	movw	r20, r24
	uint8 buff[XCPS_MAX_PDU];
	int i, msgLen = 0;
	int checkSum = 0;

	// check putter.
	if (!xcps_putter_zigbee)
    11ca:	80 91 32 01 	lds	r24, 0x0132
    11ce:	90 91 33 01 	lds	r25, 0x0133
    11d2:	89 2b       	or	r24, r25
    11d4:	19 f4       	brne	.+6      	; 0x11dc <xcps_send_zigbee+0x36>
    11d6:	2f ef       	ldi	r18, 0xFF	; 255
    11d8:	3f ef       	ldi	r19, 0xFF	; 255
    11da:	50 c0       	rjmp	.+160    	; 0x127c <xcps_send_zigbee+0xd6>
		return -1;

	buff[msgLen++] = ZS_SFLAG; //Start Byte_1
    11dc:	8a ef       	ldi	r24, 0xFA	; 250
    11de:	89 83       	std	Y+1, r24	; 0x01
	buff[msgLen++] = (uint8) (length); //Dest Addr
    11e0:	6a 83       	std	Y+2, r22	; 0x02
    11e2:	20 e0       	ldi	r18, 0x00	; 0
    11e4:	30 e0       	ldi	r19, 0x00	; 0
    11e6:	02 e0       	ldi	r16, 0x02	; 2
    11e8:	10 e0       	ldi	r17, 0x00	; 0

	for (i = 0; i < length; i++)
		buff[msgLen++] = data[i];
    11ea:	7e 01       	movw	r14, r28
    11ec:	08 94       	sec
    11ee:	e1 1c       	adc	r14, r1
    11f0:	f1 1c       	adc	r15, r1
    11f2:	0c c0       	rjmp	.+24     	; 0x120c <xcps_send_zigbee+0x66>
    11f4:	f7 01       	movw	r30, r14
    11f6:	e0 0f       	add	r30, r16
    11f8:	f1 1f       	adc	r31, r17
    11fa:	da 01       	movw	r26, r20
    11fc:	a2 0f       	add	r26, r18
    11fe:	b3 1f       	adc	r27, r19
    1200:	8c 91       	ld	r24, X
    1202:	80 83       	st	Z, r24
    1204:	0f 5f       	subi	r16, 0xFF	; 255
    1206:	1f 4f       	sbci	r17, 0xFF	; 255
		return -1;

	buff[msgLen++] = ZS_SFLAG; //Start Byte_1
	buff[msgLen++] = (uint8) (length); //Dest Addr

	for (i = 0; i < length; i++)
    1208:	2f 5f       	subi	r18, 0xFF	; 255
    120a:	3f 4f       	sbci	r19, 0xFF	; 255
    120c:	26 17       	cp	r18, r22
    120e:	37 07       	cpc	r19, r23
    1210:	8c f3       	brlt	.-30     	; 0x11f4 <xcps_send_zigbee+0x4e>
    1212:	22 e0       	ldi	r18, 0x02	; 2
    1214:	30 e0       	ldi	r19, 0x00	; 0
    1216:	40 e0       	ldi	r20, 0x00	; 0
    1218:	50 e0       	ldi	r21, 0x00	; 0
    121a:	de 01       	movw	r26, r28
    121c:	11 96       	adiw	r26, 0x01	; 1
    121e:	08 c0       	rjmp	.+16     	; 0x1230 <xcps_send_zigbee+0x8a>
		buff[msgLen++] = data[i];

	// calc checksum.
	for (i = 2; i < msgLen; i++)
		checkSum += ((uint8) buff[i] & 0xFF);
    1220:	fd 01       	movw	r30, r26
    1222:	e2 0f       	add	r30, r18
    1224:	f3 1f       	adc	r31, r19
    1226:	80 81       	ld	r24, Z
    1228:	48 0f       	add	r20, r24
    122a:	51 1d       	adc	r21, r1

	for (i = 0; i < length; i++)
		buff[msgLen++] = data[i];

	// calc checksum.
	for (i = 2; i < msgLen; i++)
    122c:	2f 5f       	subi	r18, 0xFF	; 255
    122e:	3f 4f       	sbci	r19, 0xFF	; 255
    1230:	20 17       	cp	r18, r16
    1232:	31 07       	cpc	r19, r17
    1234:	ac f3       	brlt	.-22     	; 0x1220 <xcps_send_zigbee+0x7a>
		checkSum += ((uint8) buff[i] & 0xFF);

	buff[msgLen++] = (uint8) (checkSum & 0xFF);
    1236:	fd 01       	movw	r30, r26
    1238:	e0 0f       	add	r30, r16
    123a:	f1 1f       	adc	r31, r17
    123c:	40 83       	st	Z, r20
    123e:	78 01       	movw	r14, r16
    1240:	08 94       	sec
    1242:	e1 1c       	adc	r14, r1
    1244:	f1 1c       	adc	r15, r1

	// end flag.
	buff[msgLen++] = ZS_EFLAG;
    1246:	ae 0d       	add	r26, r14
    1248:	bf 1d       	adc	r27, r15
    124a:	8f ea       	ldi	r24, 0xAF	; 175
    124c:	8c 93       	st	X, r24
    124e:	00 e0       	ldi	r16, 0x00	; 0
    1250:	10 e0       	ldi	r17, 0x00	; 0
	for (i = 0; i < msgLen; i++)
		xcps_putter_zigbee(buff[i]);
    1252:	6e 01       	movw	r12, r28
    1254:	08 94       	sec
    1256:	c1 1c       	adc	r12, r1
    1258:	d1 1c       	adc	r13, r1
    125a:	f6 01       	movw	r30, r12
    125c:	e0 0f       	add	r30, r16
    125e:	f1 1f       	adc	r31, r17
    1260:	20 91 32 01 	lds	r18, 0x0132
    1264:	30 91 33 01 	lds	r19, 0x0133
    1268:	80 81       	ld	r24, Z
    126a:	f9 01       	movw	r30, r18
    126c:	09 95       	icall

	buff[msgLen++] = (uint8) (checkSum & 0xFF);

	// end flag.
	buff[msgLen++] = ZS_EFLAG;
	for (i = 0; i < msgLen; i++)
    126e:	0f 5f       	subi	r16, 0xFF	; 255
    1270:	1f 4f       	sbci	r17, 0xFF	; 255
    1272:	e0 16       	cp	r14, r16
    1274:	f1 06       	cpc	r15, r17
    1276:	8c f7       	brge	.-30     	; 0x125a <xcps_send_zigbee+0xb4>
    1278:	20 e0       	ldi	r18, 0x00	; 0
    127a:	30 e0       	ldi	r19, 0x00	; 0
		xcps_putter_zigbee(buff[i]);

	return 0;
}
    127c:	c9 01       	movw	r24, r18
    127e:	c0 5c       	subi	r28, 0xC0	; 192
    1280:	df 4f       	sbci	r29, 0xFF	; 255
    1282:	0f b6       	in	r0, 0x3f	; 63
    1284:	f8 94       	cli
    1286:	de bf       	out	0x3e, r29	; 62
    1288:	0f be       	out	0x3f, r0	; 63
    128a:	cd bf       	out	0x3d, r28	; 61
    128c:	cf 91       	pop	r28
    128e:	df 91       	pop	r29
    1290:	1f 91       	pop	r17
    1292:	0f 91       	pop	r16
    1294:	ff 90       	pop	r15
    1296:	ef 90       	pop	r14
    1298:	df 90       	pop	r13
    129a:	cf 90       	pop	r12
    129c:	08 95       	ret

0000129e <xcps_send_rs485>:
}

// -------------------------------------------------------------------------------------------------------------------------------------- //
// -------------------------------------------------------------------------------------------------------------------------------------- //
// -------------------------------------------------------------------------------------------------------------------------------------- //
int xcps_send_rs485(const uint8 *data, int length) {
    129e:	cf 92       	push	r12
    12a0:	df 92       	push	r13
    12a2:	ef 92       	push	r14
    12a4:	ff 92       	push	r15
    12a6:	0f 93       	push	r16
    12a8:	1f 93       	push	r17
    12aa:	df 93       	push	r29
    12ac:	cf 93       	push	r28
    12ae:	cd b7       	in	r28, 0x3d	; 61
    12b0:	de b7       	in	r29, 0x3e	; 62
    12b2:	c0 54       	subi	r28, 0x40	; 64
    12b4:	d0 40       	sbci	r29, 0x00	; 0
    12b6:	0f b6       	in	r0, 0x3f	; 63
    12b8:	f8 94       	cli
    12ba:	de bf       	out	0x3e, r29	; 62
    12bc:	0f be       	out	0x3f, r0	; 63
    12be:	cd bf       	out	0x3d, r28	; 61
    12c0:	ac 01       	movw	r20, r24
	uint8 buff[XCPS_MAX_PDU];
	int i, msgLen = 0;
	int checkSum = 0;

	// check putter.
	if (!xcps_putter_rs485)
    12c2:	80 91 2e 01 	lds	r24, 0x012E
    12c6:	90 91 2f 01 	lds	r25, 0x012F
    12ca:	89 2b       	or	r24, r25
    12cc:	19 f4       	brne	.+6      	; 0x12d4 <xcps_send_rs485+0x36>
    12ce:	2f ef       	ldi	r18, 0xFF	; 255
    12d0:	3f ef       	ldi	r19, 0xFF	; 255
    12d2:	50 c0       	rjmp	.+160    	; 0x1374 <xcps_send_rs485+0xd6>
		return -1;

	buff[msgLen++] = ZS_SFLAG; //Start Byte_1
    12d4:	8a ef       	ldi	r24, 0xFA	; 250
    12d6:	89 83       	std	Y+1, r24	; 0x01
	buff[msgLen++] = (uint8) (length);
    12d8:	6a 83       	std	Y+2, r22	; 0x02
    12da:	20 e0       	ldi	r18, 0x00	; 0
    12dc:	30 e0       	ldi	r19, 0x00	; 0
    12de:	02 e0       	ldi	r16, 0x02	; 2
    12e0:	10 e0       	ldi	r17, 0x00	; 0

	for (i = 0; i < length; i++)
		buff[msgLen++] = data[i];
    12e2:	7e 01       	movw	r14, r28
    12e4:	08 94       	sec
    12e6:	e1 1c       	adc	r14, r1
    12e8:	f1 1c       	adc	r15, r1
    12ea:	0c c0       	rjmp	.+24     	; 0x1304 <xcps_send_rs485+0x66>
    12ec:	f7 01       	movw	r30, r14
    12ee:	e0 0f       	add	r30, r16
    12f0:	f1 1f       	adc	r31, r17
    12f2:	da 01       	movw	r26, r20
    12f4:	a2 0f       	add	r26, r18
    12f6:	b3 1f       	adc	r27, r19
    12f8:	8c 91       	ld	r24, X
    12fa:	80 83       	st	Z, r24
    12fc:	0f 5f       	subi	r16, 0xFF	; 255
    12fe:	1f 4f       	sbci	r17, 0xFF	; 255
		return -1;

	buff[msgLen++] = ZS_SFLAG; //Start Byte_1
	buff[msgLen++] = (uint8) (length);

	for (i = 0; i < length; i++)
    1300:	2f 5f       	subi	r18, 0xFF	; 255
    1302:	3f 4f       	sbci	r19, 0xFF	; 255
    1304:	26 17       	cp	r18, r22
    1306:	37 07       	cpc	r19, r23
    1308:	8c f3       	brlt	.-30     	; 0x12ec <xcps_send_rs485+0x4e>
    130a:	22 e0       	ldi	r18, 0x02	; 2
    130c:	30 e0       	ldi	r19, 0x00	; 0
    130e:	40 e0       	ldi	r20, 0x00	; 0
    1310:	50 e0       	ldi	r21, 0x00	; 0
    1312:	de 01       	movw	r26, r28
    1314:	11 96       	adiw	r26, 0x01	; 1
    1316:	08 c0       	rjmp	.+16     	; 0x1328 <xcps_send_rs485+0x8a>
		buff[msgLen++] = data[i];

	// calc checksum.
	for (i = 2; i < msgLen; i++)
		checkSum += ((uint8) buff[i] & 0xFF);
    1318:	fd 01       	movw	r30, r26
    131a:	e2 0f       	add	r30, r18
    131c:	f3 1f       	adc	r31, r19
    131e:	80 81       	ld	r24, Z
    1320:	48 0f       	add	r20, r24
    1322:	51 1d       	adc	r21, r1

	for (i = 0; i < length; i++)
		buff[msgLen++] = data[i];

	// calc checksum.
	for (i = 2; i < msgLen; i++)
    1324:	2f 5f       	subi	r18, 0xFF	; 255
    1326:	3f 4f       	sbci	r19, 0xFF	; 255
    1328:	20 17       	cp	r18, r16
    132a:	31 07       	cpc	r19, r17
    132c:	ac f3       	brlt	.-22     	; 0x1318 <xcps_send_rs485+0x7a>
		checkSum += ((uint8) buff[i] & 0xFF);

	buff[msgLen++] = (uint8) (checkSum & 0xFF);
    132e:	fd 01       	movw	r30, r26
    1330:	e0 0f       	add	r30, r16
    1332:	f1 1f       	adc	r31, r17
    1334:	40 83       	st	Z, r20
    1336:	78 01       	movw	r14, r16
    1338:	08 94       	sec
    133a:	e1 1c       	adc	r14, r1
    133c:	f1 1c       	adc	r15, r1

	// end flag.
	buff[msgLen++] = ZS_EFLAG;
    133e:	ae 0d       	add	r26, r14
    1340:	bf 1d       	adc	r27, r15
    1342:	8f ea       	ldi	r24, 0xAF	; 175
    1344:	8c 93       	st	X, r24
    1346:	00 e0       	ldi	r16, 0x00	; 0
    1348:	10 e0       	ldi	r17, 0x00	; 0
	//xcps_TxEnabler_rs485();
	//MSLEEP(1);
	for (i = 0; i < msgLen; i++)
		xcps_putter_rs485(buff[i]);
    134a:	6e 01       	movw	r12, r28
    134c:	08 94       	sec
    134e:	c1 1c       	adc	r12, r1
    1350:	d1 1c       	adc	r13, r1
    1352:	f6 01       	movw	r30, r12
    1354:	e0 0f       	add	r30, r16
    1356:	f1 1f       	adc	r31, r17
    1358:	20 91 2e 01 	lds	r18, 0x012E
    135c:	30 91 2f 01 	lds	r19, 0x012F
    1360:	80 81       	ld	r24, Z
    1362:	f9 01       	movw	r30, r18
    1364:	09 95       	icall

	// end flag.
	buff[msgLen++] = ZS_EFLAG;
	//xcps_TxEnabler_rs485();
	//MSLEEP(1);
	for (i = 0; i < msgLen; i++)
    1366:	0f 5f       	subi	r16, 0xFF	; 255
    1368:	1f 4f       	sbci	r17, 0xFF	; 255
    136a:	e0 16       	cp	r14, r16
    136c:	f1 06       	cpc	r15, r17
    136e:	8c f7       	brge	.-30     	; 0x1352 <xcps_send_rs485+0xb4>
    1370:	20 e0       	ldi	r18, 0x00	; 0
    1372:	30 e0       	ldi	r19, 0x00	; 0
		xcps_putter_rs485(buff[i]);
	//xcps_TxDisabler_rs485();

	return 0;
}
    1374:	c9 01       	movw	r24, r18
    1376:	c0 5c       	subi	r28, 0xC0	; 192
    1378:	df 4f       	sbci	r29, 0xFF	; 255
    137a:	0f b6       	in	r0, 0x3f	; 63
    137c:	f8 94       	cli
    137e:	de bf       	out	0x3e, r29	; 62
    1380:	0f be       	out	0x3f, r0	; 63
    1382:	cd bf       	out	0x3d, r28	; 61
    1384:	cf 91       	pop	r28
    1386:	df 91       	pop	r29
    1388:	1f 91       	pop	r17
    138a:	0f 91       	pop	r16
    138c:	ff 90       	pop	r15
    138e:	ef 90       	pop	r14
    1390:	df 90       	pop	r13
    1392:	cf 90       	pop	r12
    1394:	08 95       	ret

00001396 <xcps_recv_rs485>:
}

/**

 */
int xcps_recv_rs485(uint8 *buff, int buff_length) {
    1396:	0f 93       	push	r16
    1398:	1f 93       	push	r17
    139a:	df 93       	push	r29
    139c:	cf 93       	push	r28
    139e:	0f 92       	push	r0
    13a0:	cd b7       	in	r28, 0x3d	; 61
    13a2:	de b7       	in	r29, 0x3e	; 62
    13a4:	8c 01       	movw	r16, r24
	uint8 temp;
	int i;
	int checkSum = 0;

	// check getter.
	if (!xcps_getter_rs485)
    13a6:	e0 91 2a 01 	lds	r30, 0x012A
    13aa:	f0 91 2b 01 	lds	r31, 0x012B
    13ae:	30 97       	sbiw	r30, 0x00	; 0
    13b0:	19 f4       	brne	.+6      	; 0x13b8 <xcps_recv_rs485+0x22>
    13b2:	2f ef       	ldi	r18, 0xFF	; 255
    13b4:	3f ef       	ldi	r19, 0xFF	; 255
    13b6:	a8 c0       	rjmp	.+336    	; 0x1508 <xcps_recv_rs485+0x172>
		return -1;

	if (xcps_getter_rs485(&temp) < 1)
    13b8:	ce 01       	movw	r24, r28
    13ba:	01 96       	adiw	r24, 0x01	; 1
    13bc:	09 95       	icall
    13be:	18 16       	cp	r1, r24
    13c0:	19 06       	cpc	r1, r25
    13c2:	0c f0       	brlt	.+2      	; 0x13c6 <xcps_recv_rs485+0x30>
    13c4:	9f c0       	rjmp	.+318    	; 0x1504 <xcps_recv_rs485+0x16e>
		return 0;

	switch (xcps_state_rs485) {
    13c6:	80 91 2c 01 	lds	r24, 0x012C
    13ca:	90 91 2d 01 	lds	r25, 0x012D
    13ce:	82 30       	cpi	r24, 0x02	; 2
    13d0:	91 05       	cpc	r25, r1
    13d2:	09 f4       	brne	.+2      	; 0x13d6 <xcps_recv_rs485+0x40>
    13d4:	49 c0       	rjmp	.+146    	; 0x1468 <xcps_recv_rs485+0xd2>
    13d6:	83 30       	cpi	r24, 0x03	; 3
    13d8:	91 05       	cpc	r25, r1
    13da:	34 f4       	brge	.+12     	; 0x13e8 <xcps_recv_rs485+0x52>
    13dc:	00 97       	sbiw	r24, 0x00	; 0
    13de:	b1 f0       	breq	.+44     	; 0x140c <xcps_recv_rs485+0x76>
    13e0:	01 97       	sbiw	r24, 0x01	; 1
    13e2:	09 f0       	breq	.+2      	; 0x13e6 <xcps_recv_rs485+0x50>
    13e4:	8b c0       	rjmp	.+278    	; 0x14fc <xcps_recv_rs485+0x166>
    13e6:	27 c0       	rjmp	.+78     	; 0x1436 <xcps_recv_rs485+0xa0>
    13e8:	83 30       	cpi	r24, 0x03	; 3
    13ea:	91 05       	cpc	r25, r1
    13ec:	21 f0       	breq	.+8      	; 0x13f6 <xcps_recv_rs485+0x60>
    13ee:	04 97       	sbiw	r24, 0x04	; 4
    13f0:	09 f0       	breq	.+2      	; 0x13f4 <xcps_recv_rs485+0x5e>
    13f2:	84 c0       	rjmp	.+264    	; 0x14fc <xcps_recv_rs485+0x166>
    13f4:	68 c0       	rjmp	.+208    	; 0x14c6 <xcps_recv_rs485+0x130>
		if (xcps_rxlen_rs485 >= (2 + xcps_pdu_len_rs485))
			xcps_state_rs485 = 3;
		break;

	case 3: // data end, check checksum.
		for (i = 2; i < (2 + xcps_pdu_len_rs485); i++)
    13f6:	60 91 28 01 	lds	r22, 0x0128
    13fa:	70 91 29 01 	lds	r23, 0x0129
    13fe:	6f 5f       	subi	r22, 0xFF	; 255
    1400:	7f 4f       	sbci	r23, 0xFF	; 255
    1402:	22 e0       	ldi	r18, 0x02	; 2
    1404:	30 e0       	ldi	r19, 0x00	; 0
    1406:	40 e0       	ldi	r20, 0x00	; 0
    1408:	50 e0       	ldi	r21, 0x00	; 0
    140a:	50 c0       	rjmp	.+160    	; 0x14ac <xcps_recv_rs485+0x116>
	if (xcps_getter_rs485(&temp) < 1)
		return 0;

	switch (xcps_state_rs485) {
	case 0:
		xcps_rxlen_rs485 = 0;
    140c:	10 92 27 01 	sts	0x0127, r1
    1410:	10 92 26 01 	sts	0x0126, r1

		if (temp == ZS_SFLAG) {
    1414:	29 81       	ldd	r18, Y+1	; 0x01
    1416:	2a 3f       	cpi	r18, 0xFA	; 250
    1418:	09 f0       	breq	.+2      	; 0x141c <xcps_recv_rs485+0x86>
    141a:	74 c0       	rjmp	.+232    	; 0x1504 <xcps_recv_rs485+0x16e>
			xcps_state_rs485 = 1;
    141c:	81 e0       	ldi	r24, 0x01	; 1
    141e:	90 e0       	ldi	r25, 0x00	; 0
    1420:	90 93 2d 01 	sts	0x012D, r25
    1424:	80 93 2c 01 	sts	0x012C, r24
			xcps_rx_packet_rs485[xcps_rxlen_rs485++] = temp;
    1428:	20 93 34 07 	sts	0x0734, r18
    142c:	90 93 27 01 	sts	0x0127, r25
    1430:	80 93 26 01 	sts	0x0126, r24
    1434:	67 c0       	rjmp	.+206    	; 0x1504 <xcps_recv_rs485+0x16e>
			// don't change state, keep find start flag.
		}
		break;

	case 1: // found start flag
		xcps_rx_packet_rs485[xcps_rxlen_rs485++] = temp;
    1436:	80 91 26 01 	lds	r24, 0x0126
    143a:	90 91 27 01 	lds	r25, 0x0127
    143e:	29 81       	ldd	r18, Y+1	; 0x01
    1440:	fc 01       	movw	r30, r24
    1442:	ec 5c       	subi	r30, 0xCC	; 204
    1444:	f8 4f       	sbci	r31, 0xF8	; 248
    1446:	20 83       	st	Z, r18
    1448:	01 96       	adiw	r24, 0x01	; 1
    144a:	90 93 27 01 	sts	0x0127, r25
    144e:	80 93 26 01 	sts	0x0126, r24
		xcps_state_rs485 = 2;
    1452:	82 e0       	ldi	r24, 0x02	; 2
    1454:	90 e0       	ldi	r25, 0x00	; 0
    1456:	90 93 2d 01 	sts	0x012D, r25
    145a:	80 93 2c 01 	sts	0x012C, r24
		xcps_pdu_len_rs485 = temp;
    145e:	20 93 28 01 	sts	0x0128, r18
    1462:	10 92 29 01 	sts	0x0129, r1
    1466:	4e c0       	rjmp	.+156    	; 0x1504 <xcps_recv_rs485+0x16e>

		break;

	case 2: // found length
		// fill data.
		xcps_rx_packet_rs485[xcps_rxlen_rs485++] = temp;
    1468:	20 91 26 01 	lds	r18, 0x0126
    146c:	30 91 27 01 	lds	r19, 0x0127
    1470:	f9 01       	movw	r30, r18
    1472:	ec 5c       	subi	r30, 0xCC	; 204
    1474:	f8 4f       	sbci	r31, 0xF8	; 248
    1476:	89 81       	ldd	r24, Y+1	; 0x01
    1478:	80 83       	st	Z, r24
    147a:	2f 5f       	subi	r18, 0xFF	; 255
    147c:	3f 4f       	sbci	r19, 0xFF	; 255
    147e:	30 93 27 01 	sts	0x0127, r19
    1482:	20 93 26 01 	sts	0x0126, r18

		// check length.
		if (xcps_rxlen_rs485 >= (2 + xcps_pdu_len_rs485))
    1486:	80 91 28 01 	lds	r24, 0x0128
    148a:	90 91 29 01 	lds	r25, 0x0129
    148e:	01 96       	adiw	r24, 0x01	; 1
    1490:	82 17       	cp	r24, r18
    1492:	93 07       	cpc	r25, r19
    1494:	bc f5       	brge	.+110    	; 0x1504 <xcps_recv_rs485+0x16e>
			xcps_state_rs485 = 3;
    1496:	83 e0       	ldi	r24, 0x03	; 3
    1498:	90 e0       	ldi	r25, 0x00	; 0
    149a:	10 c0       	rjmp	.+32     	; 0x14bc <xcps_recv_rs485+0x126>
		break;

	case 3: // data end, check checksum.
		for (i = 2; i < (2 + xcps_pdu_len_rs485); i++)
			checkSum += (xcps_rx_packet_rs485[i] & 0xFF);
    149c:	f9 01       	movw	r30, r18
    149e:	ec 5c       	subi	r30, 0xCC	; 204
    14a0:	f8 4f       	sbci	r31, 0xF8	; 248
    14a2:	80 81       	ld	r24, Z
    14a4:	48 0f       	add	r20, r24
    14a6:	51 1d       	adc	r21, r1
		if (xcps_rxlen_rs485 >= (2 + xcps_pdu_len_rs485))
			xcps_state_rs485 = 3;
		break;

	case 3: // data end, check checksum.
		for (i = 2; i < (2 + xcps_pdu_len_rs485); i++)
    14a8:	2f 5f       	subi	r18, 0xFF	; 255
    14aa:	3f 4f       	sbci	r19, 0xFF	; 255
    14ac:	62 17       	cp	r22, r18
    14ae:	73 07       	cpc	r23, r19
    14b0:	ac f7       	brge	.-22     	; 0x149c <xcps_recv_rs485+0x106>
			checkSum += (xcps_rx_packet_rs485[i] & 0xFF);

		if (temp == (uint8) checkSum) // Checksum ok.
    14b2:	89 81       	ldd	r24, Y+1	; 0x01
    14b4:	84 17       	cp	r24, r20
    14b6:	11 f5       	brne	.+68     	; 0x14fc <xcps_recv_rs485+0x166>
			xcps_state_rs485 = 4;
    14b8:	84 e0       	ldi	r24, 0x04	; 4
    14ba:	90 e0       	ldi	r25, 0x00	; 0
    14bc:	90 93 2d 01 	sts	0x012D, r25
    14c0:	80 93 2c 01 	sts	0x012C, r24
    14c4:	1f c0       	rjmp	.+62     	; 0x1504 <xcps_recv_rs485+0x16e>
		else
			xcps_state_rs485 = 0;
		break;

	case 4:
		if (temp == ZS_EFLAG) {
    14c6:	89 81       	ldd	r24, Y+1	; 0x01
    14c8:	8f 3a       	cpi	r24, 0xAF	; 175
    14ca:	c1 f4       	brne	.+48     	; 0x14fc <xcps_recv_rs485+0x166>
			xcps_state_rs485 = 0;
    14cc:	10 92 2d 01 	sts	0x012D, r1
    14d0:	10 92 2c 01 	sts	0x012C, r1
    14d4:	a6 e3       	ldi	r26, 0x36	; 54
    14d6:	b7 e0       	ldi	r27, 0x07	; 7
    14d8:	40 e0       	ldi	r20, 0x00	; 0
    14da:	50 e0       	ldi	r21, 0x00	; 0
    14dc:	07 c0       	rjmp	.+14     	; 0x14ec <xcps_recv_rs485+0x156>

			// return data to caller.
			for (i = 0; i < xcps_pdu_len_rs485; i++)
				buff[i] = xcps_rx_packet_rs485[2 + i];
    14de:	f8 01       	movw	r30, r16
    14e0:	e4 0f       	add	r30, r20
    14e2:	f5 1f       	adc	r31, r21
    14e4:	8d 91       	ld	r24, X+
    14e6:	80 83       	st	Z, r24
	case 4:
		if (temp == ZS_EFLAG) {
			xcps_state_rs485 = 0;

			// return data to caller.
			for (i = 0; i < xcps_pdu_len_rs485; i++)
    14e8:	4f 5f       	subi	r20, 0xFF	; 255
    14ea:	5f 4f       	sbci	r21, 0xFF	; 255
    14ec:	20 91 28 01 	lds	r18, 0x0128
    14f0:	30 91 29 01 	lds	r19, 0x0129
    14f4:	42 17       	cp	r20, r18
    14f6:	53 07       	cpc	r21, r19
    14f8:	94 f3       	brlt	.-28     	; 0x14de <xcps_recv_rs485+0x148>
    14fa:	06 c0       	rjmp	.+12     	; 0x1508 <xcps_recv_rs485+0x172>
		}
		break;

	default:
		// if you here, something wrong. --> recover to state 0.
		xcps_state_rs485 = 0;
    14fc:	10 92 2d 01 	sts	0x012D, r1
    1500:	10 92 2c 01 	sts	0x012C, r1
    1504:	20 e0       	ldi	r18, 0x00	; 0
    1506:	30 e0       	ldi	r19, 0x00	; 0
		break;
	}
	return 0;
}
    1508:	c9 01       	movw	r24, r18
    150a:	0f 90       	pop	r0
    150c:	cf 91       	pop	r28
    150e:	df 91       	pop	r29
    1510:	1f 91       	pop	r17
    1512:	0f 91       	pop	r16
    1514:	08 95       	ret

00001516 <xcps_getOriginalCode>:

int xcps_getOriginalCode(uint8 *resultBuff, uint8 *buff, int buff_length) {
    1516:	0f 93       	push	r16
    1518:	1f 93       	push	r17
    151a:	a0 e0       	ldi	r26, 0x00	; 0
    151c:	b0 e0       	ldi	r27, 0x00	; 0
			if (buff[i + 1] == 0xFF)
				resultBuff[resultLen++] = 0xFF;
			else if (buff[i + 1] == 0x01)
				resultBuff[resultLen++] = 0xFA;
			else if (buff[i + 1] == 0x02)
				resultBuff[resultLen++] = 0xAF;
    151e:	0f ea       	ldi	r16, 0xAF	; 175
	for (i = 0; i < buff_length; i++) {
		if (buff[i] == 0xFF) {
			if (buff[i + 1] == 0xFF)
				resultBuff[resultLen++] = 0xFF;
			else if (buff[i + 1] == 0x01)
				resultBuff[resultLen++] = 0xFA;
    1520:	1a ef       	ldi	r17, 0xFA	; 250
    1522:	24 c0       	rjmp	.+72     	; 0x156c <xcps_getOriginalCode+0x56>

int xcps_getOriginalCode(uint8 *resultBuff, uint8 *buff, int buff_length) {
	unsigned char resultLen = 0;
	unsigned char i = 0;
	for (i = 0; i < buff_length; i++) {
		if (buff[i] == 0xFF) {
    1524:	fb 01       	movw	r30, r22
    1526:	e2 0f       	add	r30, r18
    1528:	f3 1f       	adc	r31, r19
    152a:	20 81       	ld	r18, Z
    152c:	2f 3f       	cpi	r18, 0xFF	; 255
    152e:	c1 f4       	brne	.+48     	; 0x1560 <xcps_getOriginalCode+0x4a>
			if (buff[i + 1] == 0xFF)
    1530:	21 81       	ldd	r18, Z+1	; 0x01
    1532:	2f 3f       	cpi	r18, 0xFF	; 255
    1534:	29 f4       	brne	.+10     	; 0x1540 <xcps_getOriginalCode+0x2a>
				resultBuff[resultLen++] = 0xFF;
    1536:	fc 01       	movw	r30, r24
    1538:	ea 0f       	add	r30, r26
    153a:	f1 1d       	adc	r31, r1
    153c:	20 83       	st	Z, r18
    153e:	0d c0       	rjmp	.+26     	; 0x155a <xcps_getOriginalCode+0x44>
			else if (buff[i + 1] == 0x01)
    1540:	21 30       	cpi	r18, 0x01	; 1
    1542:	29 f4       	brne	.+10     	; 0x154e <xcps_getOriginalCode+0x38>
				resultBuff[resultLen++] = 0xFA;
    1544:	fc 01       	movw	r30, r24
    1546:	ea 0f       	add	r30, r26
    1548:	f1 1d       	adc	r31, r1
    154a:	10 83       	st	Z, r17
    154c:	06 c0       	rjmp	.+12     	; 0x155a <xcps_getOriginalCode+0x44>
			else if (buff[i + 1] == 0x02)
    154e:	22 30       	cpi	r18, 0x02	; 2
    1550:	29 f4       	brne	.+10     	; 0x155c <xcps_getOriginalCode+0x46>
				resultBuff[resultLen++] = 0xAF;
    1552:	fc 01       	movw	r30, r24
    1554:	ea 0f       	add	r30, r26
    1556:	f1 1d       	adc	r31, r1
    1558:	00 83       	st	Z, r16
    155a:	af 5f       	subi	r26, 0xFF	; 255
			i++;
    155c:	bf 5f       	subi	r27, 0xFF	; 255
    155e:	05 c0       	rjmp	.+10     	; 0x156a <xcps_getOriginalCode+0x54>
		} else
			resultBuff[resultLen++] = buff[i];
    1560:	fc 01       	movw	r30, r24
    1562:	ea 0f       	add	r30, r26
    1564:	f1 1d       	adc	r31, r1
    1566:	20 83       	st	Z, r18
    1568:	af 5f       	subi	r26, 0xFF	; 255
}

int xcps_getOriginalCode(uint8 *resultBuff, uint8 *buff, int buff_length) {
	unsigned char resultLen = 0;
	unsigned char i = 0;
	for (i = 0; i < buff_length; i++) {
    156a:	bf 5f       	subi	r27, 0xFF	; 255
    156c:	2b 2f       	mov	r18, r27
    156e:	30 e0       	ldi	r19, 0x00	; 0
    1570:	24 17       	cp	r18, r20
    1572:	35 07       	cpc	r19, r21
    1574:	bc f2       	brlt	.-82     	; 0x1524 <xcps_getOriginalCode+0xe>
			i++;
		} else
			resultBuff[resultLen++] = buff[i];
	}
	return resultLen;
}
    1576:	8a 2f       	mov	r24, r26
    1578:	90 e0       	ldi	r25, 0x00	; 0
    157a:	1f 91       	pop	r17
    157c:	0f 91       	pop	r16
    157e:	08 95       	ret

00001580 <xcps_recv_zigbee>:
		xcps_putter_zigbee(buff[i]);

	return 0;
}

int xcps_recv_zigbee(uint8 *buff, int buff_length) {
    1580:	ef 92       	push	r14
    1582:	ff 92       	push	r15
    1584:	0f 93       	push	r16
    1586:	1f 93       	push	r17
    1588:	df 93       	push	r29
    158a:	cf 93       	push	r28
    158c:	cd b7       	in	r28, 0x3d	; 61
    158e:	de b7       	in	r29, 0x3e	; 62
    1590:	c1 54       	subi	r28, 0x41	; 65
    1592:	d0 40       	sbci	r29, 0x00	; 0
    1594:	0f b6       	in	r0, 0x3f	; 63
    1596:	f8 94       	cli
    1598:	de bf       	out	0x3e, r29	; 62
    159a:	0f be       	out	0x3f, r0	; 63
    159c:	cd bf       	out	0x3d, r28	; 61
    159e:	f8 2e       	mov	r15, r24
    15a0:	e9 2e       	mov	r14, r25
    15a2:	8b 01       	movw	r16, r22
	int i;
	int checkSum = 0;
	int len = 0;

	// check getter.
	if (!xcps_getter_zigbee)
    15a4:	e0 91 30 01 	lds	r30, 0x0130
    15a8:	f0 91 31 01 	lds	r31, 0x0131
    15ac:	30 97       	sbiw	r30, 0x00	; 0
    15ae:	19 f4       	brne	.+6      	; 0x15b6 <xcps_recv_zigbee+0x36>
    15b0:	2f ef       	ldi	r18, 0xFF	; 255
    15b2:	3f ef       	ldi	r19, 0xFF	; 255
    15b4:	5e c0       	rjmp	.+188    	; 0x1672 <xcps_recv_zigbee+0xf2>
		return -1;

	if (xcps_getter_zigbee(&temp) < 1)
    15b6:	ce 01       	movw	r24, r28
    15b8:	01 96       	adiw	r24, 0x01	; 1
    15ba:	09 95       	icall
    15bc:	18 16       	cp	r1, r24
    15be:	19 06       	cpc	r1, r25
    15c0:	0c f0       	brlt	.+2      	; 0x15c4 <xcps_recv_zigbee+0x44>
    15c2:	55 c0       	rjmp	.+170    	; 0x166e <xcps_recv_zigbee+0xee>
		return 0;

	if (xcps_rxlen_zigbee >= buff_length)
    15c4:	80 91 22 01 	lds	r24, 0x0122
    15c8:	90 91 23 01 	lds	r25, 0x0123
    15cc:	80 17       	cp	r24, r16
    15ce:	91 07       	cpc	r25, r17
    15d0:	24 f0       	brlt	.+8      	; 0x15da <xcps_recv_zigbee+0x5a>
		xcps_rxlen_zigbee = 0;
    15d2:	10 92 23 01 	sts	0x0123, r1
    15d6:	10 92 22 01 	sts	0x0122, r1

	if (temp == ZS_SFLAG) {
    15da:	89 81       	ldd	r24, Y+1	; 0x01
    15dc:	8a 3f       	cpi	r24, 0xFA	; 250
    15de:	49 f4       	brne	.+18     	; 0x15f2 <xcps_recv_zigbee+0x72>
		xcps_rxlen_zigbee = 0;
		xcps_rx_packet_zigbee[xcps_rxlen_zigbee++] = temp;
    15e0:	80 93 f4 06 	sts	0x06F4, r24
    15e4:	81 e0       	ldi	r24, 0x01	; 1
    15e6:	90 e0       	ldi	r25, 0x00	; 0
    15e8:	90 93 23 01 	sts	0x0123, r25
    15ec:	80 93 22 01 	sts	0x0122, r24
    15f0:	3e c0       	rjmp	.+124    	; 0x166e <xcps_recv_zigbee+0xee>
    15f2:	40 91 22 01 	lds	r20, 0x0122
    15f6:	50 91 23 01 	lds	r21, 0x0123
	} else if (temp == ZS_EFLAG) {
    15fa:	8f 3a       	cpi	r24, 0xAF	; 175
    15fc:	71 f5       	brne	.+92     	; 0x165a <xcps_recv_zigbee+0xda>
		uint8 len = 0;
		uint8 resultLen = 0;
		uint8 resultBuff[64];

		//getOriginalCode from translated code
		len = xcps_getOriginalCode(resultBuff, &xcps_rx_packet_zigbee[1],
    15fe:	41 50       	subi	r20, 0x01	; 1
    1600:	50 40       	sbci	r21, 0x00	; 0
    1602:	ce 01       	movw	r24, r28
    1604:	02 96       	adiw	r24, 0x02	; 2
    1606:	65 ef       	ldi	r22, 0xF5	; 245
    1608:	76 e0       	ldi	r23, 0x06	; 6
    160a:	0e 94 8b 0a 	call	0x1516	; 0x1516 <xcps_getOriginalCode>
    160e:	28 2f       	mov	r18, r24
    1610:	22 50       	subi	r18, 0x02	; 2
				xcps_rxlen_zigbee - 1) - 2;

		//length
		if (len != resultBuff[0])
    1612:	8a 81       	ldd	r24, Y+2	; 0x02
    1614:	28 17       	cp	r18, r24
    1616:	59 f5       	brne	.+86     	; 0x166e <xcps_recv_zigbee+0xee>
    1618:	81 e0       	ldi	r24, 0x01	; 1
    161a:	90 e0       	ldi	r25, 0x00	; 0
			return 0;
		//checksum		
		for (i = 1; i < len; i++)
    161c:	42 2f       	mov	r20, r18
    161e:	50 e0       	ldi	r21, 0x00	; 0
    1620:	01 c0       	rjmp	.+2      	; 0x1624 <xcps_recv_zigbee+0xa4>
    1622:	01 96       	adiw	r24, 0x01	; 1
    1624:	84 17       	cp	r24, r20
    1626:	95 07       	cpc	r25, r21
    1628:	e4 f3       	brlt	.-8      	; 0x1622 <xcps_recv_zigbee+0xa2>
    162a:	8f 2d       	mov	r24, r15
    162c:	9e 2d       	mov	r25, r14
    162e:	9c 01       	movw	r18, r24
    1630:	d9 01       	movw	r26, r18
    1632:	20 e0       	ldi	r18, 0x00	; 0
    1634:	30 e0       	ldi	r19, 0x00	; 0
			checkSum += ((uint8) resultBuff[i] & 0xFF);
		//if(checkSum!=resultBuff[len-1]) return 0;

		for (i = 1; i <= len; i++) {
			buff[resultLen++] = resultBuff[i];
    1636:	be 01       	movw	r22, r28
    1638:	6e 5f       	subi	r22, 0xFE	; 254
    163a:	7f 4f       	sbci	r23, 0xFF	; 255
    163c:	05 c0       	rjmp	.+10     	; 0x1648 <xcps_recv_zigbee+0xc8>
    163e:	fb 01       	movw	r30, r22
    1640:	e2 0f       	add	r30, r18
    1642:	f3 1f       	adc	r31, r19
    1644:	80 81       	ld	r24, Z
    1646:	8d 93       	st	X+, r24
    1648:	82 2f       	mov	r24, r18
    164a:	2f 5f       	subi	r18, 0xFF	; 255
    164c:	3f 4f       	sbci	r19, 0xFF	; 255
		//checksum		
		for (i = 1; i < len; i++)
			checkSum += ((uint8) resultBuff[i] & 0xFF);
		//if(checkSum!=resultBuff[len-1]) return 0;

		for (i = 1; i <= len; i++) {
    164e:	42 17       	cp	r20, r18
    1650:	53 07       	cpc	r21, r19
    1652:	ac f7       	brge	.-22     	; 0x163e <xcps_recv_zigbee+0xbe>
			buff[resultLen++] = resultBuff[i];
		}
		//xcps_send_zigbee(xcps_rx_packet_zigbee, resultLen);

		//MSLEEP(3);
		return resultLen;
    1654:	28 2f       	mov	r18, r24
    1656:	30 e0       	ldi	r19, 0x00	; 0
    1658:	0c c0       	rjmp	.+24     	; 0x1672 <xcps_recv_zigbee+0xf2>
	} else {
		xcps_rx_packet_zigbee[xcps_rxlen_zigbee++] = temp;
    165a:	fa 01       	movw	r30, r20
    165c:	ec 50       	subi	r30, 0x0C	; 12
    165e:	f9 4f       	sbci	r31, 0xF9	; 249
    1660:	80 83       	st	Z, r24
    1662:	4f 5f       	subi	r20, 0xFF	; 255
    1664:	5f 4f       	sbci	r21, 0xFF	; 255
    1666:	50 93 23 01 	sts	0x0123, r21
    166a:	40 93 22 01 	sts	0x0122, r20
    166e:	20 e0       	ldi	r18, 0x00	; 0
    1670:	30 e0       	ldi	r19, 0x00	; 0
	}
	return 0;
}
    1672:	c9 01       	movw	r24, r18
    1674:	cf 5b       	subi	r28, 0xBF	; 191
    1676:	df 4f       	sbci	r29, 0xFF	; 255
    1678:	0f b6       	in	r0, 0x3f	; 63
    167a:	f8 94       	cli
    167c:	de bf       	out	0x3e, r29	; 62
    167e:	0f be       	out	0x3f, r0	; 63
    1680:	cd bf       	out	0x3d, r28	; 61
    1682:	cf 91       	pop	r28
    1684:	df 91       	pop	r29
    1686:	1f 91       	pop	r17
    1688:	0f 91       	pop	r16
    168a:	ff 90       	pop	r15
    168c:	ef 90       	pop	r14
    168e:	08 95       	ret

00001690 <xcps_getTrnalatedCode>:
		} else
			resultBuff[resultLen++] = buff[i];
	}
	return resultLen;
}
int xcps_getTrnalatedCode(uint8 *resultBuff, uint8 *buff, int buff_length) {
    1690:	0f 93       	push	r16
    1692:	1f 93       	push	r17
    1694:	9c 01       	movw	r18, r24
    1696:	80 e0       	ldi	r24, 0x00	; 0
    1698:	a0 e0       	ldi	r26, 0x00	; 0
	for (i = 0; i < buff_length; i++) {
		if (buff[i] == 0xFA) {
			resultBuff[resultLen++] = 0xFF;
			resultBuff[resultLen++] = 0x01;
		} else if (buff[i] == 0xAF) {
			resultBuff[resultLen++] = 0xFF;
    169a:	bf ef       	ldi	r27, 0xFF	; 255
			resultBuff[resultLen++] = 0x02;
    169c:	02 e0       	ldi	r16, 0x02	; 2
	unsigned char resultLen = 0;
	unsigned char i = 0;
	for (i = 0; i < buff_length; i++) {
		if (buff[i] == 0xFA) {
			resultBuff[resultLen++] = 0xFF;
			resultBuff[resultLen++] = 0x01;
    169e:	11 e0       	ldi	r17, 0x01	; 1
    16a0:	2d c0       	rjmp	.+90     	; 0x16fc <xcps_getTrnalatedCode+0x6c>
}
int xcps_getTrnalatedCode(uint8 *resultBuff, uint8 *buff, int buff_length) {
	unsigned char resultLen = 0;
	unsigned char i = 0;
	for (i = 0; i < buff_length; i++) {
		if (buff[i] == 0xFA) {
    16a2:	e6 0f       	add	r30, r22
    16a4:	f7 1f       	adc	r31, r23
    16a6:	90 81       	ld	r25, Z
    16a8:	9a 3f       	cpi	r25, 0xFA	; 250
    16aa:	51 f4       	brne	.+20     	; 0x16c0 <xcps_getTrnalatedCode+0x30>
			resultBuff[resultLen++] = 0xFF;
    16ac:	f9 01       	movw	r30, r18
    16ae:	e8 0f       	add	r30, r24
    16b0:	f1 1d       	adc	r31, r1
    16b2:	b0 83       	st	Z, r27
    16b4:	8f 5f       	subi	r24, 0xFF	; 255
			resultBuff[resultLen++] = 0x01;
    16b6:	f9 01       	movw	r30, r18
    16b8:	e8 0f       	add	r30, r24
    16ba:	f1 1d       	adc	r31, r1
    16bc:	10 83       	st	Z, r17
    16be:	0b c0       	rjmp	.+22     	; 0x16d6 <xcps_getTrnalatedCode+0x46>
		} else if (buff[i] == 0xAF) {
    16c0:	9f 3a       	cpi	r25, 0xAF	; 175
    16c2:	59 f4       	brne	.+22     	; 0x16da <xcps_getTrnalatedCode+0x4a>
			resultBuff[resultLen++] = 0xFF;
    16c4:	f9 01       	movw	r30, r18
    16c6:	e8 0f       	add	r30, r24
    16c8:	f1 1d       	adc	r31, r1
    16ca:	b0 83       	st	Z, r27
    16cc:	8f 5f       	subi	r24, 0xFF	; 255
			resultBuff[resultLen++] = 0x02;
    16ce:	f9 01       	movw	r30, r18
    16d0:	e8 0f       	add	r30, r24
    16d2:	f1 1d       	adc	r31, r1
    16d4:	00 83       	st	Z, r16
    16d6:	8f 5f       	subi	r24, 0xFF	; 255
    16d8:	10 c0       	rjmp	.+32     	; 0x16fa <xcps_getTrnalatedCode+0x6a>
    16da:	e8 2f       	mov	r30, r24
    16dc:	f0 e0       	ldi	r31, 0x00	; 0
    16de:	8f 5f       	subi	r24, 0xFF	; 255
		} else if (buff[i] == 0xFF) {
    16e0:	9f 3f       	cpi	r25, 0xFF	; 255
    16e2:	41 f4       	brne	.+16     	; 0x16f4 <xcps_getTrnalatedCode+0x64>
			resultBuff[resultLen++] = 0xFF;
    16e4:	e2 0f       	add	r30, r18
    16e6:	f3 1f       	adc	r31, r19
    16e8:	90 83       	st	Z, r25
			resultBuff[resultLen++] = 0xFF;
    16ea:	f9 01       	movw	r30, r18
    16ec:	e8 0f       	add	r30, r24
    16ee:	f1 1d       	adc	r31, r1
    16f0:	90 83       	st	Z, r25
    16f2:	f1 cf       	rjmp	.-30     	; 0x16d6 <xcps_getTrnalatedCode+0x46>
		} else
			resultBuff[resultLen++] = buff[i];
    16f4:	e2 0f       	add	r30, r18
    16f6:	f3 1f       	adc	r31, r19
    16f8:	90 83       	st	Z, r25
	return resultLen;
}
int xcps_getTrnalatedCode(uint8 *resultBuff, uint8 *buff, int buff_length) {
	unsigned char resultLen = 0;
	unsigned char i = 0;
	for (i = 0; i < buff_length; i++) {
    16fa:	af 5f       	subi	r26, 0xFF	; 255
    16fc:	ea 2f       	mov	r30, r26
    16fe:	f0 e0       	ldi	r31, 0x00	; 0
    1700:	e4 17       	cp	r30, r20
    1702:	f5 07       	cpc	r31, r21
    1704:	74 f2       	brlt	.-100    	; 0x16a2 <xcps_getTrnalatedCode+0x12>
			resultBuff[resultLen++] = 0xFF;
		} else
			resultBuff[resultLen++] = buff[i];
	}
	return resultLen;
}
    1706:	90 e0       	ldi	r25, 0x00	; 0
    1708:	1f 91       	pop	r17
    170a:	0f 91       	pop	r16
    170c:	08 95       	ret

0000170e <xcps_send_NRF24L01>:
		xcps_putter_rs485(buff[i]);
	//xcps_TxDisabler_rs485();

	return 0;
}
int xcps_send_NRF24L01(const uint8 *data, uint8 length) {
    170e:	0f 93       	push	r16
    1710:	1f 93       	push	r17
    1712:	cf 93       	push	r28
    1714:	df 93       	push	r29

	// check putter.
//	if (!xcps_putter_rs485)
//		return -1;

	TX_BUF[msgLen++] = ZS_SFLAG; //Start Byte_1
    1716:	2a ef       	ldi	r18, 0xFA	; 250
    1718:	20 93 55 01 	sts	0x0155, r18
	TX_BUF[msgLen++] = (uint8) (length);
    171c:	60 93 56 01 	sts	0x0156, r22
    1720:	ec 01       	movw	r28, r24
    1722:	e7 e5       	ldi	r30, 0x57	; 87
    1724:	f1 e0       	ldi	r31, 0x01	; 1
    1726:	df 01       	movw	r26, r30

	for (i = 0; i < length; i++)
    1728:	70 e0       	ldi	r23, 0x00	; 0
    172a:	6e 5f       	subi	r22, 0xFE	; 254
    172c:	7f 4f       	sbci	r23, 0xFF	; 255
    172e:	9b 01       	movw	r18, r22
    1730:	2b 5a       	subi	r18, 0xAB	; 171
    1732:	3e 4f       	sbci	r19, 0xFE	; 254
    1734:	02 c0       	rjmp	.+4      	; 0x173a <xcps_send_NRF24L01+0x2c>
		TX_BUF[msgLen++] = data[i];
    1736:	89 91       	ld	r24, Y+
    1738:	8d 93       	st	X+, r24
//		return -1;

	TX_BUF[msgLen++] = ZS_SFLAG; //Start Byte_1
	TX_BUF[msgLen++] = (uint8) (length);

	for (i = 0; i < length; i++)
    173a:	a2 17       	cp	r26, r18
    173c:	b3 07       	cpc	r27, r19
    173e:	d9 f7       	brne	.-10     	; 0x1736 <xcps_send_NRF24L01+0x28>
    1740:	90 e0       	ldi	r25, 0x00	; 0
    1742:	02 c0       	rjmp	.+4      	; 0x1748 <xcps_send_NRF24L01+0x3a>
		TX_BUF[msgLen++] = data[i];

	// calc checksum.
	for (i = 2; i < msgLen; i++)
		checkSum += ((uint8) TX_BUF[i] & 0xFF);
    1744:	81 91       	ld	r24, Z+
    1746:	98 0f       	add	r25, r24

	for (i = 0; i < length; i++)
		TX_BUF[msgLen++] = data[i];

	// calc checksum.
	for (i = 2; i < msgLen; i++)
    1748:	ea 17       	cp	r30, r26
    174a:	fb 07       	cpc	r31, r27
    174c:	d9 f7       	brne	.-10     	; 0x1744 <xcps_send_NRF24L01+0x36>
		checkSum += ((uint8) TX_BUF[i] & 0xFF);

	TX_BUF[msgLen++] = (uint8) (checkSum & 0xFF);
    174e:	fb 01       	movw	r30, r22
    1750:	eb 5a       	subi	r30, 0xAB	; 171
    1752:	fe 4f       	sbci	r31, 0xFE	; 254
    1754:	90 83       	st	Z, r25

	// end flag.
	TX_BUF[msgLen++] = ZS_EFLAG;
    1756:	8f ea       	ldi	r24, 0xAF	; 175
    1758:	81 83       	std	Z+1, r24	; 0x01
	//xcps_TxEnabler_rs485();
	NRF24L01_Send();
    175a:	0e 94 89 01 	call	0x312	; 0x312 <NRF24L01_Send>
    175e:	00 ea       	ldi	r16, 0xA0	; 160
    1760:	1f e0       	ldi	r17, 0x0F	; 15
    1762:	c8 01       	movw	r24, r16
    1764:	01 97       	sbiw	r24, 0x01	; 1
    1766:	f1 f7       	brne	.-4      	; 0x1764 <xcps_send_NRF24L01+0x56>
	_delay_ms(1);
	NRF24L01_Send();
    1768:	0e 94 89 01 	call	0x312	; 0x312 <NRF24L01_Send>
    176c:	c8 01       	movw	r24, r16
    176e:	01 97       	sbiw	r24, 0x01	; 1
    1770:	f1 f7       	brne	.-4      	; 0x176e <xcps_send_NRF24L01+0x60>
//	for (i = 0; i < msgLen; i++)
//		xcps_putter_rs485(buff[i]);
//	//xcps_TxDisabler_rs485();

	return 0;
}
    1772:	80 e0       	ldi	r24, 0x00	; 0
    1774:	90 e0       	ldi	r25, 0x00	; 0
    1776:	df 91       	pop	r29
    1778:	cf 91       	pop	r28
    177a:	1f 91       	pop	r17
    177c:	0f 91       	pop	r16
    177e:	08 95       	ret

00001780 <getState>:
}

uint8 getState()
{
	return tmp_zrmp.zrm_State;
}
    1780:	80 91 76 07 	lds	r24, 0x0776
    1784:	08 95       	ret

00001786 <sendData_Remote>:

void sendData_Remote(uint16 dst_Addr, uint8 msg[], int length)
{
	int len = 0;

	tmp_Buff[len++] = 0x11;
    1786:	21 e1       	ldi	r18, 0x11	; 17
    1788:	20 93 b4 06 	sts	0x06B4, r18
	tmp_Buff[len++] = (uint8)(dst_Addr >> 8);
    178c:	90 93 b5 06 	sts	0x06B5, r25
	tmp_Buff[len++] = (uint8)(dst_Addr);
    1790:	80 93 b6 06 	sts	0x06B6, r24
	tmp_Buff[len++] = (uint8)(tmp_zrmp.zrm_Id >> 8);
    1794:	90 91 74 07 	lds	r25, 0x0774
    1798:	80 91 75 07 	lds	r24, 0x0775
    179c:	80 93 b7 06 	sts	0x06B7, r24
	tmp_Buff[len++] = (uint8)(tmp_zrmp.zrm_Id);
    17a0:	90 93 b8 06 	sts	0x06B8, r25

	xcps_send_zigbee(tmp_Buff, len);
    17a4:	84 eb       	ldi	r24, 0xB4	; 180
    17a6:	96 e0       	ldi	r25, 0x06	; 6
    17a8:	65 e0       	ldi	r22, 0x05	; 5
    17aa:	70 e0       	ldi	r23, 0x00	; 0
    17ac:	0e 94 d3 08 	call	0x11a6	; 0x11a6 <xcps_send_zigbee>
    17b0:	80 ee       	ldi	r24, 0xE0	; 224
    17b2:	9e e2       	ldi	r25, 0x2E	; 46
    17b4:	01 97       	sbiw	r24, 0x01	; 1
    17b6:	f1 f7       	brne	.-4      	; 0x17b4 <sendData_Remote+0x2e>
	MSLEEP(3);
}
    17b8:	08 95       	ret

000017ba <ZRMSendSetPreconfig>:
}

void ZRMSendSetPreconfig(uint8 preconfig){
	int len = 0;

	tmp_Buff[len++] = ZRMP_PROTOCOL_ID;
    17ba:	10 92 b4 06 	sts	0x06B4, r1
	tmp_Buff[len++] = ZRMP_REQ_CONFIG_SET;
    17be:	90 e4       	ldi	r25, 0x40	; 64
    17c0:	90 93 b5 06 	sts	0x06B5, r25
	tmp_Buff[len++] = 0x05;
    17c4:	95 e0       	ldi	r25, 0x05	; 5
    17c6:	90 93 b6 06 	sts	0x06B6, r25
	tmp_Buff[len++] = (preconfig&0xff);
    17ca:	80 93 b7 06 	sts	0x06B7, r24

	
	xcps_send_zigbee(tmp_Buff, len);	
    17ce:	84 eb       	ldi	r24, 0xB4	; 180
    17d0:	96 e0       	ldi	r25, 0x06	; 6
    17d2:	64 e0       	ldi	r22, 0x04	; 4
    17d4:	70 e0       	ldi	r23, 0x00	; 0
    17d6:	0e 94 d3 08 	call	0x11a6	; 0x11a6 <xcps_send_zigbee>
    17da:	80 ee       	ldi	r24, 0xE0	; 224
    17dc:	9e e2       	ldi	r25, 0x2E	; 46
    17de:	01 97       	sbiw	r24, 0x01	; 1
    17e0:	f1 f7       	brne	.-4      	; 0x17de <ZRMSendSetPreconfig+0x24>
	MSLEEP(3);
}
    17e2:	08 95       	ret

000017e4 <ZRMSendSetChannel>:
}

void ZRMSendSetChannel(uint8 channel){
	int len = 0;

	tmp_Buff[len++] = ZRMP_PROTOCOL_ID;
    17e4:	10 92 b4 06 	sts	0x06B4, r1
	tmp_Buff[len++] = ZRMP_REQ_CONFIG_SET;
    17e8:	90 e4       	ldi	r25, 0x40	; 64
    17ea:	90 93 b5 06 	sts	0x06B5, r25
	tmp_Buff[len++] = 0x02;
    17ee:	92 e0       	ldi	r25, 0x02	; 2
    17f0:	90 93 b6 06 	sts	0x06B6, r25
	tmp_Buff[len++] = (channel&0xff);
    17f4:	80 93 b7 06 	sts	0x06B7, r24

	
	xcps_send_zigbee(tmp_Buff, len);	
    17f8:	84 eb       	ldi	r24, 0xB4	; 180
    17fa:	96 e0       	ldi	r25, 0x06	; 6
    17fc:	64 e0       	ldi	r22, 0x04	; 4
    17fe:	70 e0       	ldi	r23, 0x00	; 0
    1800:	0e 94 d3 08 	call	0x11a6	; 0x11a6 <xcps_send_zigbee>
    1804:	80 ee       	ldi	r24, 0xE0	; 224
    1806:	9e e2       	ldi	r25, 0x2E	; 46
    1808:	01 97       	sbiw	r24, 0x01	; 1
    180a:	f1 f7       	brne	.-4      	; 0x1808 <ZRMSendSetChannel+0x24>
	MSLEEP(3);
}
    180c:	08 95       	ret

0000180e <ZRMSendSetPanID>:
}

void ZRMSendSetPanID(uint16 panId){
	int len = 0;

	tmp_Buff[len++] = ZRMP_PROTOCOL_ID;
    180e:	10 92 b4 06 	sts	0x06B4, r1
	tmp_Buff[len++] = ZRMP_REQ_PANID_SET;
    1812:	20 e3       	ldi	r18, 0x30	; 48
    1814:	20 93 b5 06 	sts	0x06B5, r18
	tmp_Buff[len++] = panId >> 8;
    1818:	90 93 b6 06 	sts	0x06B6, r25
	tmp_Buff[len++] = (panId&0xff);
    181c:	80 93 b7 06 	sts	0x06B7, r24

	
	xcps_send_zigbee(tmp_Buff, len);	
    1820:	84 eb       	ldi	r24, 0xB4	; 180
    1822:	96 e0       	ldi	r25, 0x06	; 6
    1824:	64 e0       	ldi	r22, 0x04	; 4
    1826:	70 e0       	ldi	r23, 0x00	; 0
    1828:	0e 94 d3 08 	call	0x11a6	; 0x11a6 <xcps_send_zigbee>
    182c:	80 ee       	ldi	r24, 0xE0	; 224
    182e:	9e e2       	ldi	r25, 0x2E	; 46
    1830:	01 97       	sbiw	r24, 0x01	; 1
    1832:	f1 f7       	brne	.-4      	; 0x1830 <ZRMSendSetPanID+0x22>
	MSLEEP(3);
}
    1834:	08 95       	ret

00001836 <ZRMSendReset>:
}

void ZRMSendReset(){
	int len = 0;
	
	tmp_Buff[len++] = ZRMP_PROTOCOL_ID;
    1836:	10 92 b4 06 	sts	0x06B4, r1
	tmp_Buff[len++] = ZRMP_REQ_RESET;
    183a:	81 e0       	ldi	r24, 0x01	; 1
    183c:	80 93 b5 06 	sts	0x06B5, r24
	tmp_Buff[len++] = ZRMP_REQ_RESET;
    1840:	80 93 b6 06 	sts	0x06B6, r24
	
	xcps_send_zigbee(tmp_Buff, len);
    1844:	84 eb       	ldi	r24, 0xB4	; 180
    1846:	96 e0       	ldi	r25, 0x06	; 6
    1848:	63 e0       	ldi	r22, 0x03	; 3
    184a:	70 e0       	ldi	r23, 0x00	; 0
    184c:	0e 94 d3 08 	call	0x11a6	; 0x11a6 <xcps_send_zigbee>
    1850:	80 ee       	ldi	r24, 0xE0	; 224
    1852:	9e e2       	ldi	r25, 0x2E	; 46
    1854:	01 97       	sbiw	r24, 0x01	; 1
    1856:	f1 f7       	brne	.-4      	; 0x1854 <ZRMSendReset+0x1e>
	MSLEEP(3);
}
    1858:	08 95       	ret

0000185a <ZRMsendConfig>:

void ZRMsendConfig()
{
	int len = 0;

	tmp_Buff[len++] = ZRMP_PROTOCOL_ID;
    185a:	10 92 b4 06 	sts	0x06B4, r1
	tmp_Buff[len++] = ZRMP_REQ_CONFIG;
    185e:	80 e1       	ldi	r24, 0x10	; 16
    1860:	80 93 b5 06 	sts	0x06B5, r24
	tmp_Buff[len++] = ZRMP_MSG_FORMAT;
    1864:	10 92 b6 06 	sts	0x06B6, r1
	
	xcps_send_zigbee(tmp_Buff, len);	
    1868:	84 eb       	ldi	r24, 0xB4	; 180
    186a:	96 e0       	ldi	r25, 0x06	; 6
    186c:	63 e0       	ldi	r22, 0x03	; 3
    186e:	70 e0       	ldi	r23, 0x00	; 0
    1870:	0e 94 d3 08 	call	0x11a6	; 0x11a6 <xcps_send_zigbee>
    1874:	80 ee       	ldi	r24, 0xE0	; 224
    1876:	9e e2       	ldi	r25, 0x2E	; 46
    1878:	01 97       	sbiw	r24, 0x01	; 1
    187a:	f1 f7       	brne	.-4      	; 0x1878 <ZRMsendConfig+0x1e>
	MSLEEP(3);
}
    187c:	08 95       	ret

0000187e <ZRMsendPing>:

void ZRMsendPing()
{
	int len = 0;
	
	tmp_Buff[len++] = ZRMP_PROTOCOL_ID;
    187e:	10 92 b4 06 	sts	0x06B4, r1
	tmp_Buff[len++] = ZRMP_REQ_PING;
    1882:	10 92 b5 06 	sts	0x06B5, r1
	
	xcps_send_zigbee(tmp_Buff, len);
    1886:	84 eb       	ldi	r24, 0xB4	; 180
    1888:	96 e0       	ldi	r25, 0x06	; 6
    188a:	62 e0       	ldi	r22, 0x02	; 2
    188c:	70 e0       	ldi	r23, 0x00	; 0
    188e:	0e 94 d3 08 	call	0x11a6	; 0x11a6 <xcps_send_zigbee>
    1892:	80 ee       	ldi	r24, 0xE0	; 224
    1894:	9e e2       	ldi	r25, 0x2E	; 46
    1896:	01 97       	sbiw	r24, 0x01	; 1
    1898:	f1 f7       	brne	.-4      	; 0x1896 <ZRMsendPing+0x18>
	MSLEEP(3);
}
    189a:	08 95       	ret

0000189c <sendData>:
}


//
void sendData(uint16 dst_Addr, uint8 msg[], int length)
{
    189c:	ef 92       	push	r14
    189e:	ff 92       	push	r15
    18a0:	0f 93       	push	r16
    18a2:	1f 93       	push	r17
    18a4:	df 93       	push	r29
    18a6:	cf 93       	push	r28
    18a8:	cd b7       	in	r28, 0x3d	; 61
    18aa:	de b7       	in	r29, 0x3e	; 62
    18ac:	c0 58       	subi	r28, 0x80	; 128
    18ae:	d0 40       	sbci	r29, 0x00	; 0
    18b0:	0f b6       	in	r0, 0x3f	; 63
    18b2:	f8 94       	cli
    18b4:	de bf       	out	0x3e, r29	; 62
    18b6:	0f be       	out	0x3f, r0	; 63
    18b8:	cd bf       	out	0x3d, r28	; 61
    18ba:	7b 01       	movw	r14, r22
    18bc:	8a 01       	movw	r16, r20
	int resultLen;
	int i=0;
	uint8 tmp_Buff[64];	
	uint8 resultBuff[64];

	tmp_Buff[len++] = 0x10;
    18be:	20 e1       	ldi	r18, 0x10	; 16
    18c0:	29 83       	std	Y+1, r18	; 0x01
	tmp_Buff[len++] = (uint8)(dst_Addr >> 8);
    18c2:	9a 83       	std	Y+2, r25	; 0x02
	tmp_Buff[len++] = (uint8)(dst_Addr);
    18c4:	8b 83       	std	Y+3, r24	; 0x03
	tmp_Buff[len++] = (uint8)(tmp_zrmp.zrm_Id >> 8);
    18c6:	90 91 74 07 	lds	r25, 0x0774
    18ca:	80 91 75 07 	lds	r24, 0x0775
    18ce:	8c 83       	std	Y+4, r24	; 0x04
	tmp_Buff[len++] = (uint8)(tmp_zrmp.zrm_Id);
    18d0:	9d 83       	std	Y+5, r25	; 0x05
    18d2:	45 e0       	ldi	r20, 0x05	; 5
    18d4:	50 e0       	ldi	r21, 0x00	; 0
    18d6:	20 e0       	ldi	r18, 0x00	; 0
    18d8:	30 e0       	ldi	r19, 0x00	; 0
    18da:	be 01       	movw	r22, r28
    18dc:	6f 5f       	subi	r22, 0xFF	; 255
    18de:	7f 4f       	sbci	r23, 0xFF	; 255
    18e0:	0c c0       	rjmp	.+24     	; 0x18fa <sendData+0x5e>
	for(i=0; i < length; i++)
		tmp_Buff[len++] = msg[i];
    18e2:	fb 01       	movw	r30, r22
    18e4:	e4 0f       	add	r30, r20
    18e6:	f5 1f       	adc	r31, r21
    18e8:	d7 01       	movw	r26, r14
    18ea:	a2 0f       	add	r26, r18
    18ec:	b3 1f       	adc	r27, r19
    18ee:	8c 91       	ld	r24, X
    18f0:	80 83       	st	Z, r24
    18f2:	4f 5f       	subi	r20, 0xFF	; 255
    18f4:	5f 4f       	sbci	r21, 0xFF	; 255
	tmp_Buff[len++] = 0x10;
	tmp_Buff[len++] = (uint8)(dst_Addr >> 8);
	tmp_Buff[len++] = (uint8)(dst_Addr);
	tmp_Buff[len++] = (uint8)(tmp_zrmp.zrm_Id >> 8);
	tmp_Buff[len++] = (uint8)(tmp_zrmp.zrm_Id);
	for(i=0; i < length; i++)
    18f6:	2f 5f       	subi	r18, 0xFF	; 255
    18f8:	3f 4f       	sbci	r19, 0xFF	; 255
    18fa:	20 17       	cp	r18, r16
    18fc:	31 07       	cpc	r19, r17
    18fe:	8c f3       	brlt	.-30     	; 0x18e2 <sendData+0x46>
		tmp_Buff[len++] = msg[i];
	
	//(uint8 *resultBuff, uint8 *buff, int buff_length){
	resultLen = xcps_getTrnalatedCode(resultBuff, tmp_Buff, len);
    1900:	8e 01       	movw	r16, r28
    1902:	0f 5b       	subi	r16, 0xBF	; 191
    1904:	1f 4f       	sbci	r17, 0xFF	; 255
    1906:	c8 01       	movw	r24, r16
    1908:	0e 94 48 0b 	call	0x1690	; 0x1690 <xcps_getTrnalatedCode>
    190c:	bc 01       	movw	r22, r24
		
	xcps_send_zigbee(resultBuff, resultLen);
    190e:	c8 01       	movw	r24, r16
    1910:	0e 94 d3 08 	call	0x11a6	; 0x11a6 <xcps_send_zigbee>
    1914:	80 ee       	ldi	r24, 0xE0	; 224
    1916:	9e e2       	ldi	r25, 0x2E	; 46
    1918:	01 97       	sbiw	r24, 0x01	; 1
    191a:	f1 f7       	brne	.-4      	; 0x1918 <sendData+0x7c>
	MSLEEP(3);
}
    191c:	c0 58       	subi	r28, 0x80	; 128
    191e:	df 4f       	sbci	r29, 0xFF	; 255
    1920:	0f b6       	in	r0, 0x3f	; 63
    1922:	f8 94       	cli
    1924:	de bf       	out	0x3e, r29	; 62
    1926:	0f be       	out	0x3f, r0	; 63
    1928:	cd bf       	out	0x3d, r28	; 61
    192a:	cf 91       	pop	r28
    192c:	df 91       	pop	r29
    192e:	1f 91       	pop	r17
    1930:	0f 91       	pop	r16
    1932:	ff 90       	pop	r15
    1934:	ef 90       	pop	r14
    1936:	08 95       	ret

00001938 <ZRMPMessage>:

#define PanIDEnable 1


void ZRMPMessage(uint8 buff[], int buff_length)
{
    1938:	ff 92       	push	r15
    193a:	0f 93       	push	r16
    193c:	1f 93       	push	r17
    193e:	fc 01       	movw	r30, r24
	switch(buff[0])
    1940:	f0 80       	ld	r15, Z
    1942:	81 e1       	ldi	r24, 0x11	; 17
    1944:	f8 16       	cp	r15, r24
    1946:	89 f1       	breq	.+98     	; 0x19aa <ZRMPMessage+0x72>
    1948:	81 ea       	ldi	r24, 0xA1	; 161
    194a:	f8 16       	cp	r15, r24
    194c:	09 f4       	brne	.+2      	; 0x1950 <ZRMPMessage+0x18>
    194e:	47 c0       	rjmp	.+142    	; 0x19de <ZRMPMessage+0xa6>
    1950:	81 e0       	ldi	r24, 0x01	; 1
    1952:	f8 16       	cp	r15, r24
    1954:	09 f0       	breq	.+2      	; 0x1958 <ZRMPMessage+0x20>
    1956:	45 c0       	rjmp	.+138    	; 0x19e2 <ZRMPMessage+0xaa>
	{
		case ZRMP_RES_PING:
			// Response Ping			
			tmp_zrmp.zrm_Id = (uint16)(buff[11] << 8) | (buff[12]);
    1958:	93 85       	ldd	r25, Z+11	; 0x0b
    195a:	80 e0       	ldi	r24, 0x00	; 0
    195c:	24 85       	ldd	r18, Z+12	; 0x0c
    195e:	30 e0       	ldi	r19, 0x00	; 0
    1960:	82 2b       	or	r24, r18
    1962:	93 2b       	or	r25, r19
    1964:	90 93 75 07 	sts	0x0775, r25
    1968:	80 93 74 07 	sts	0x0774, r24
			tmp_zrmp.zrm_Panid = (uint16)(buff[13] << 8) | (buff[14]);
    196c:	95 85       	ldd	r25, Z+13	; 0x0d
    196e:	80 e0       	ldi	r24, 0x00	; 0
    1970:	06 85       	ldd	r16, Z+14	; 0x0e
    1972:	10 e0       	ldi	r17, 0x00	; 0
    1974:	08 2b       	or	r16, r24
    1976:	19 2b       	or	r17, r25
    1978:	10 93 78 07 	sts	0x0778, r17
    197c:	00 93 77 07 	sts	0x0777, r16
			if(PanIDEnable==1){
				if(tmp_zrmp.zrm_Panid != (0x0100 | rotary_GetValue())){
    1980:	0e 94 fc 0c 	call	0x19f8	; 0x19f8 <rotary_GetValue>
    1984:	90 e0       	ldi	r25, 0x00	; 0
    1986:	91 60       	ori	r25, 0x01	; 1
    1988:	08 17       	cp	r16, r24
    198a:	19 07       	cpc	r17, r25
    198c:	59 f0       	breq	.+22     	; 0x19a4 <ZRMPMessage+0x6c>
					tmp_zrmp.zrm_State = ZRM_INIT;
    198e:	10 92 76 07 	sts	0x0776, r1
					ZRMSendSetPanID(0x0100 | rotary_GetValue());
    1992:	0e 94 fc 0c 	call	0x19f8	; 0x19f8 <rotary_GetValue>
    1996:	90 e0       	ldi	r25, 0x00	; 0
    1998:	91 60       	ori	r25, 0x01	; 1
    199a:	0e 94 07 0c 	call	0x180e	; 0x180e <ZRMSendSetPanID>
					ZRMSendReset();
    199e:	0e 94 1b 0c 	call	0x1836	; 0x1836 <ZRMSendReset>
    19a2:	1f c0       	rjmp	.+62     	; 0x19e2 <ZRMPMessage+0xaa>
				}
				else{
					//if(tmp_zrmp.zrm_State!=ZRM_CONNECT)	
					{
						tmp_zrmp.zrm_State = ZRM_PING_COMPLETE;			
    19a4:	f0 92 76 07 	sts	0x0776, r15
    19a8:	13 c0       	rjmp	.+38     	; 0x19d0 <ZRMPMessage+0x98>
			break;
			
		case ZRMP_RES_CONFIG:
			// Response Config
			if(PanIDEnable==1){
				tmp_zrmp.zrm_Channel = buff[9];
    19aa:	01 85       	ldd	r16, Z+9	; 0x09
    19ac:	00 93 79 07 	sts	0x0779, r16

				if(tmp_zrmp.zrm_Channel != (rotary_GetValue()%16 + 11)) {
    19b0:	0e 94 fc 0c 	call	0x19f8	; 0x19f8 <rotary_GetValue>
    19b4:	10 e0       	ldi	r17, 0x00	; 0
    19b6:	90 e0       	ldi	r25, 0x00	; 0
    19b8:	8f 70       	andi	r24, 0x0F	; 15
    19ba:	90 70       	andi	r25, 0x00	; 0
    19bc:	0b 96       	adiw	r24, 0x0b	; 11
    19be:	08 17       	cp	r16, r24
    19c0:	19 07       	cpc	r17, r25
    19c2:	49 f0       	breq	.+18     	; 0x19d6 <ZRMPMessage+0x9e>
					ZRMSendSetChannel(rotary_GetValue()%16 + 11);
    19c4:	0e 94 fc 0c 	call	0x19f8	; 0x19f8 <rotary_GetValue>
    19c8:	8f 70       	andi	r24, 0x0F	; 15
    19ca:	85 5f       	subi	r24, 0xF5	; 245
    19cc:	0e 94 f2 0b 	call	0x17e4	; 0x17e4 <ZRMSendSetChannel>
					ZRMsendConfig();
    19d0:	0e 94 2d 0c 	call	0x185a	; 0x185a <ZRMsendConfig>
    19d4:	06 c0       	rjmp	.+12     	; 0x19e2 <ZRMPMessage+0xaa>
				}else
					tmp_zrmp.zrm_State = ZRM_CONNECT;
    19d6:	83 e0       	ldi	r24, 0x03	; 3
    19d8:	80 93 76 07 	sts	0x0776, r24
    19dc:	02 c0       	rjmp	.+4      	; 0x19e2 <ZRMPMessage+0xaa>

		case ZRMP_RES_NWK_INIT:
#ifdef DEBUG_ENABLE
//			printf("\nZigbee Module Initalize");
#endif			
			ZRMsendPing();
    19de:	0e 94 3f 0c 	call	0x187e	; 0x187e <ZRMsendPing>
			
		default:
			// ERROR
			break;
	}
}
    19e2:	1f 91       	pop	r17
    19e4:	0f 91       	pop	r16
    19e6:	ff 90       	pop	r15
    19e8:	08 95       	ret

000019ea <initRotary>:
#include "rotary.h"
#include <avr/io.h>
#include <avr/iom128.h>

void initRotary() {
	DDRB &= ~(0xF0);
    19ea:	87 b3       	in	r24, 0x17	; 23
    19ec:	8f 70       	andi	r24, 0x0F	; 15
    19ee:	87 bb       	out	0x17, r24	; 23
	PORTB |= 0xF0;
    19f0:	88 b3       	in	r24, 0x18	; 24
    19f2:	80 6f       	ori	r24, 0xF0	; 240
    19f4:	88 bb       	out	0x18, r24	; 24
}
    19f6:	08 95       	ret

000019f8 <rotary_GetValue>:

uint8 rotary_GetValue() {

	uint8 id = 0;

	if ((PINB & _BV(7)) == 0) {
    19f8:	86 b3       	in	r24, 0x16	; 22
    19fa:	80 95       	com	r24
    19fc:	88 1f       	adc	r24, r24
    19fe:	88 27       	eor	r24, r24
    1a00:	88 1f       	adc	r24, r24
    1a02:	88 0f       	add	r24, r24
    1a04:	88 0f       	add	r24, r24
    1a06:	88 0f       	add	r24, r24
		id |= _BV(3);
	}
	if ((PINB & _BV(6)) == 0) {
    1a08:	b6 9b       	sbis	0x16, 6	; 22
		id |= _BV(2);
    1a0a:	84 60       	ori	r24, 0x04	; 4
	}
	if ((PINB & _BV(5)) == 0) {
    1a0c:	b5 9b       	sbis	0x16, 5	; 22
		id |= _BV(1);
    1a0e:	82 60       	ori	r24, 0x02	; 2
	}
	if ((PINB & _BV(4)) == 0) {
    1a10:	b4 9b       	sbis	0x16, 4	; 22
		id |= _BV(0);
    1a12:	81 60       	ori	r24, 0x01	; 1
	}
	return id;
}
    1a14:	08 95       	ret

00001a16 <_exit>:
    1a16:	f8 94       	cli

00001a18 <__stop_program>:
    1a18:	ff cf       	rjmp	.-2      	; 0x1a18 <__stop_program>
