:100000000C9434000C94F00E0C94AF0E0C9446003B
:100010000C9446000C9446000C9446000C94460048
:100020000C9446000C9446000C9446000C94460038
:100030000C9446000C9446000C94E0080C94460086
:100040000C9446000C9446000C9432090C94460023
:100050000C9446000C9446000C9446000C94460008
:100060000C9446000C94460011241FBECFEFD8E03C
:10007000DEBFCDBF15E0A0E0B1E001C01D92A73CFE
:10008000B107E1F70E949A100C94EE110C94000055
:1000900010927C0084E880937A00089580937C001D
:1000A00080E49CE90197F1F780917A008064809365
:1000B0007A0080917A0084FFFCCF80917A00806181
:1000C00080937A002091780030917900C9010895D9
:1000D00087B1876087B93B98409A089582E0982F4E
:1000E0009A95F1F7419A982F9A95F1F741988A9548
:1000F000F1F708950F931F93CF93DF93C7E0D0E0FC
:10010000082F10E0C8010C2E02C0959587950A941F
:10011000E2F780FF02C0429A01C042980E946E003E
:1001200021978FEFCF3FD80769F7DF91CF911F91CC
:100130000F910895EF92FF921F93CF93DF93C7E043
:10014000D0E010E081E0E82EF12C339B08C0C7011D
:100150000C2E02C0880F991F0A94E2F7182B0E94F8
:100160006E0021978FEFCF3FD80779F7812FDF916E
:10017000CF911F91FF90EF900895DF92EF92FF9241
:100180000F931F93CF93DF938C01D62EF42EE52E81
:10019000409880ED97E00197F1F784E80E947A009B
:1001A00080E00E947A00812F0E947A00802F0E94B6
:1001B0007A002F2D3E2DC901EC0110E004C0899179
:1001C0000E947A001F5F1D15D0F380ED97E0019724
:1001D000F1F7409ADF91CF911F910F91FF90EF902F
:1001E000DF900895EF92FF920F931F938C01409838
:1001F00030EDE32E37E0F32EC7010197F1F783E8E6
:100200000E947A00C801880F892F881F990B919549
:100210000E947A00802F880F0E947A0080E00E945E
:100220007A00C7010197F1F7409A1F910F91FF9053
:10023000EF9008950F931F93DF93CF930F92CDB755
:10024000DEB78C01698380E090E061E0AE014F5F32
:100250005F4F0E94BD00C8010E94F20080E29EE450
:100260000197F1F70F90CF91DF911F910F910895B2
:100270000F931F938C0140980E946E0084ED0E94A2
:100280007A0080E00E947A00812F0E947A00802FFD
:100290000E947A0080E00E947A000E949A00409AB0
:1002A0001F910F9108950F931F938C01409880ED3B
:1002B00097E00197F1F782ED0E947A00C801880F5C
:1002C000892F881F990B91950E947A00802F880FA3
:1002D0000E947A0080E00E947A0000E080E00E94A4
:1002E0007A000F5F0430D1F70E949A00E0EDF7E04A
:1002F0003197F1F7409A1F910F9108950F931F9333
:10030000DF93CF9300D0CDB7DEB78C017A836983BA
:1003100080E090E062E0AE014F5F5F4F0E94BD0061
:10032000C8010E94F20080E29EE40197F1F70F906D
:100330000F90CF91DF911F910F9108950F931F930D
:100340008C01409880ED97E00197F1F782ED0E94D3
:100350007A00C801880F892F881F990B91950E94F8
:100360007A00802F880F0E947A0080E00E947A0035
:1003700000E080E00E947A000F5F0430D1F70E9415
:100380009A00082F10E00E949A00E0EDF7E0319704
:10039000F1F7409A382F20E0202B312BC9011F9113
:1003A0000F9108950F931F93DF93CF9300D000D048
:1003B000CDB7DEB78C0149835A836B837C8380E0A1
:1003C00090E064E0AE014F5F5F4F0E94BD00C80146
:1003D0000E94F20080E29EE40197F1F70F900F90E7
:1003E0000F900F90CF91DF911F910F9108959F92E1
:1003F000AF92BF92CF92DF92EF92FF920F931F9333
:100400008C01409880ED97E00197F1F782ED0E9412
:100410007A00C801880F892F881F990B91950E9437
:100420007A00802F880F0E947A0080E00E947A0074
:1004300000E080E00E947A000F5F0430D1F70E9454
:100440009A00A82EBB24CC24DD240E949A00982E6A
:100450000E949A00E82E0E949A00FF2400E010E01B
:100460008701FF24EE2490E0A0E0B0E0B82FAA2797
:1004700099278827E82AF92A0A2B1B2BEA28FB2828
:100480000C291D2980ED97E00197F1F7409A992DED
:1004900080E0AA2797FDA095BA2FE82AF92A0A2B0F
:1004A0001B2BB701C8011F910F91FF90EF90DF90B8
:1004B000CF90BF90AF909F9008950F931F938C01A2
:1004C0009B0180E090E0642FA9010E94BD00C8015B
:1004D0000E94F20080E29EE40197F1F71F910F91D4
:1004E0000895DF92EF92FF920F931F93CF93DF93C4
:1004F0008C01F62EE72ED42E409880ED97E00197E0
:10050000F1F782ED0E947A00C801880F892F881FB9
:10051000990B91950E947A00802F880F0E947A0093
:1005200080E00E947A0000E080E00E947A000F5F85
:100530000430D1F78F2D9E2D9C01E90100E004C00D
:100540000E949A0089930F5F0D15D0F380ED97E01C
:100550000197F1F7409A8D2DDF91CF911F910F9167
:10056000FF90EF90DF9008950F931F93409800ED58
:1005700017E0C8010197F1F787ED0E947A000E9409
:100580009A00F8013197F1F7409A1F910F91089561
:10059000FA018085823019F08231A9F406C0828583
:1005A000813089F4109200010895918580E02285C0
:1005B00030E0822B932B892B21F481E08093000182
:1005C0000895109200010895FA01918580E0228536
:1005D00030E0822B932B892B21F481E08093000162
:1005E0000895109200010895FA018285813011F476
:1005F00010920001089580910001089580930001F8
:10060000089520910101309102012F5F3F4F3093F7
:1006100002012093010121503040C9010895EF9259
:10062000FF920F93CF93DF93EC0179018091010149
:10063000909102010196909302018093010101972C
:1006400020E8288321E029839A838B837C836D8330
:100650005E834F8340E050E0602F70E00AC0FE01EF
:10066000E80FF11DD701A40FB51F8C9180834F5F58
:100670005F4F842F885F461757078CF3802F885F62
:10068000DF91CF910F91FF90EF900895EF92FF923D
:100690000F93CF93DF93EC0180E8888381E0898317
:1006A000FA82EB827C836D835E834F8340E050E06F
:1006B000602F70E00AC0FE01E80FF11DD901A40F00
:1006C000B51F8C9180834F5F5F4F842F885F4617E3
:1006D00057078CF3802F885FDF91CF910F91FF90A8
:1006E000EF900895EF92FF920F93CF93DF93EC0179
:1006F000790180910101909102010196909302018C
:1007000080930101019720E8288321E229839A83BD
:100710008B837C836D835E834F8340E050E0602F4A
:1007200070E00AC0FE01E80FF11DD701A40FB51F4C
:100730008C9180834F5F5F4F842F885F46175707E8
:100740008CF3802F885FDF91CF910F91FF90EF9016
:100750000895EF92FF920F93CF93DF93DC0180E82F
:100760008C9381E211968C9311971296FC921297BA
:100770001396EC92139714967C93149715966C939A
:10078000159716965C93169717964C931797E90151
:1007900090E006C0FD01E80FF11D899180839F5F05
:1007A000892F885F9017B0F3802F885FDF91CF91FA
:1007B0000F91FF90EF900895CF92DF92EF92FF920A
:1007C0000F93DF93CF93CDB7DEB764970FB6F8944E
:1007D000DEBF0FBECDBF7C0185E289831A821B82FA
:1007E0007C836D8380E28E8380E68F835887498780
:1007F0003A872B8786E6C82E81E0D82E40915F018C
:1008000050916001C60160E070E09E012F5F3F4F94
:100810000BE00E94A903482F80E090E0B6010E94FF
:100820005B0D64960FB6F894DEBF0FBECDBFCF91BF
:10083000DF910F91FF90EF90DF90CF90089540915E
:100840005701509158012091590130915A016091FE
:100850005F01709160010E94DC030895CF92DF92E6
:10086000EF92FF920F931F93DF93CF93CDB7DEB735
:1008700064970FB6F894DEBF0FBECDBF7C0181E454
:1008800089831A821B827C836D834E83832F9927F1
:10089000AA27BB278F83C901AA27BB278887BB2725
:1008A000A32F922F812F89870A8796E6C92E91E080
:1008B000D92E40915F0150916001C60160E070E067
:1008C0009E012F5F3F4F0AE00E94A903482F80E05E
:1008D00090E0B6010E945B0D64960FB6F894DEBFFF
:1008E0000FBECDBFCF91DF911F910F91FF90EF9081
:1008F000DF90CF9008950F931F93F9014585443001
:1009000090F4E42FF0E0EE0FFF1FEE0FFF1FE95B06
:10091000FE4F008111812281338160915F017091CE
:1009200060010E942E041F910F910895EF92FF9293
:100930000F93DF93CF93CDB7DEB72A970FB6F89416
:10094000DEBF0FBECDBF81E1898380E28A8380E66E
:100950008B8380E18C838D83E6E6EE2EE1E0FE2E34
:1009600040915F0150916001C70160E070E09E011D
:100970002F5F3F4F05E00E940F03482F80E090E07B
:10098000B7010E945B0D2A960FB6F894DEBF0FBE2A
:10099000CDBFCF91DF910F91FF90EF900895EF922F
:1009A000FF920F93DF93CF93CDB7DEB72A970FB6A1
:1009B000F894DEBF0FBECDBF81E089831A821B820F
:1009C000F6E6EF2EF1E0FF2E40915F0150916001BD
:1009D000C70160E070E09E012F5F3F4F03E00E947F
:1009E0000F03482F80E090E0B7010E945B0D2A962C
:1009F0000FB6F894DEBF0FBECDBFCF91DF910F9140
:100A0000FF90EF900895DF92EF92FF920F931F9364
:100A1000CF93DF93EB01F901D584E6848785308994
:100A2000218993E09D1508F441C0FF2400E010E007
:100A30001E2D0027FF24EE2490E0A0E0B0E0DC01B2
:100A400099278827E82AF92A0A2B1B2B822F90E066
:100A5000A0E0B0E0E82AF92A0A2B1B2B832F90E0B4
:100A6000A0E0B0E0BA2FA92F982F8827E82AF92A0A
:100A70000A2B1B2BED2DF0E0EE0FFF1FEE0FFF1FDB
:100A8000E95BFE4FE082F182028313834081518152
:100A9000628173818D2D90E00E94D20180E090E010
:100AA000BE014D2D980187010E942E04DF91CF9148
:100AB0001F910F91FF90EF90DF900895EF92FF92BA
:100AC0000F931F93CF93DF93EC018B01DA01790130
:100AD00012969C91129780E013962C911397E22F17
:100AE000F0E0E82BF92B18968C911897803451F090
:100AF000813428F48432B1F08A3329F523C0843458
:100B000011F508C0CF01BE01A8019D0187010E9417
:100B10007B0419C0CF01BE01A8019D0187010E947D
:100B2000030511C04091570150915801209159017E
:100B300030915A0160915F0170916001CF010E9474
:100B4000DC0301C0FFCFDF91CF911F910F91FF9088
:100B5000EF900895FFCF20910301309104012F5FA2
:100B60003F4F309304012093030121503040C901CD
:100B70000895EF92FF920F93CF93DF93EC017901E9
:100B80008091030190910401019690930401809358
:100B90000301019720E8288320EA29839A838B8325
:100BA0007C836D835E834F8340E050E0602F70E074
:100BB0000AC0FE01E80FF11DD701A40FB51F8C91EB
:100BC00080834F5F5F4F842F885F461757078CF3F2
:100BD000802F885FDF91CF910F91FF90EF90089564
:100BE000EF92FF920F93CF93DF93EC0180E888831D
:100BF00080EA8983FA82EB827C836D835E834F83F4
:100C000040E050E0602F70E00AC0FE01E80FF11DE7
:100C1000D901A40FB51F8C9180834F5F5F4F842F44
:100C2000885F461757078CF3802F885FDF91CF913D
:100C30000F91FF90EF900895EF92FF920F931F9303
:100C4000DF93CF93CDB7DEB7C050D1400FB6F89445
:100C5000DEBF0FBECDBF8C016CE070E00E94D111F1
:100C6000CB0141967E010894E11CF11CB7014FEFC6
:100C70000E947102C8016CE070E00E94D1119C01D9
:100C800085E190E0289F602D11242F5F3F4F289F22
:100C9000D001299FB00D389FB00D11248E010C5F3B
:100CA0001F4FA7011FC0A895F801E20FF31F908105
:100CB000FA01E20FF31F8081882311F49130B9F01B
:100CC000FA01E20FF31F90E02B5E3F4F240F351F18
:100CD0008191980FE217F307D9F7992311F080E07B
:100CE00007C06B5E262F30E02A173B07E0F281E059
:100CF000C050DF4F0FB6F894DEBF0FBECDBFCF910F
:100D0000DF911F910F91FF90EF900895CF92DF92A6
:100D1000EF92FF920F931F93DF93CF93CDB7DEB780
:100D2000C050D1400FB6F894DEBF0FBECDBF6E01EC
:100D30000894C11CD11CF601CE0181961192E817CE
:100D4000F907E1F701E110E07E010894E11CF11CD4
:100D5000A895C801B7014FEF0E947102F60120E08B
:100D600030E0A89593818081882311F49130E9F0D7
:100D7000D701A20FB31F90E0AF014B5E5F4F8D9183
:100D8000980FA417B507D9F7992311F080E00EC08A
:100D90002B5E3F4F2C3F310511F0FD01E2CF0F5F7D
:100DA0001F4F82E00030180799F681E0C050DF4FF6
:100DB0000FB6F894DEBF0FBECDBFCF91DF911F916C
:100DC0000F91FF90EF90DF90CF9008958F929F92B8
:100DD000AF92BF92CF92DF92EF92FF920F931F9349
:100DE000DF93CF93CDB7DEB7CC5FD0400FB6F8948A
:100DF000DEBF0FBECDBF7B01842ED22EC32E861741
:100E0000970708F447C0CB016CE070E00E94D11155
:100E10005B0181E190E0A80EB91EC5018E010F5F54
:100E20001F4FB8014CEF0E9471022D2D3C2DC901BE
:100E30006C01C7016CE070E00E94D11195E1899FBF
:100E400070011124E00EF11EF601D7019C2C02C0A6
:100E500081918D938E2F89198815D0F3C5018E014C
:100E60000F5F1F4FB8014CEF0E945D02C501B80132
:100E70004CEF0E94710208C0F60191916F01F701D9
:100E800081917F01981731F48C2D89198815A0F371
:100E900081E001C080E0C450DF4F0FB6F894DEBFA0
:100EA0000FBECDBFCF91DF911F910F91FF90EF90BB
:100EB000DF90CF90BF90AF909F908F900895682F54
:100EC00080E190E00E941A010895CF92DF92EF92A4
:100ED000FF920F93DF93CF93CDB7DEB72A970FB66C
:100EE000F894DEBF0FBECDBF7C0184E0898380E231
:100EF0008A8380E68B831C821D8240915F01509122
:100F000060015E834F83688786EAC82E81E0D82E11
:100F1000C60160E070E09E012F5F3F4F08E00E9435
:100F2000F005482F80E090E0B6010E945B0D2A9604
:100F30000FB6F894DEBF0FBECDBFCF91DF910F91FA
:100F4000FF90EF90DF90CF900895EF92FF920F9374
:100F50001F93DF93CF93CDB7DEB765970FB6F894A5
:100F6000DEBF0FBECDBF7C01D9011F967C911F97BC
:100F700050962C91509751960C91519752966C9196
:100F8000529753961C9153971631A8F5AE014F5FB7
:100F90005F4FFA01CE0146961192E817F907E1F783
:100FA000FA0104C053968C915397819311968E2F1A
:100FB000841B8117B8F3902F80E0062F10E0082BD8
:100FC000192B972F80E030E0822B932BB80145E15D
:100FD0009E012F5F3F4F0E94E606882341F0C80123
:100FE0000E941C06882319F0C70160E002C0C701F7
:100FF00060E10E94650765960FB6F894DEBF0FBEEC
:10100000CDBFCF91DF911F910F91FF90EF90089589
:10101000CF92DF92EF92FF920F93DF93CF93CDB7F2
:10102000DEB72A970FB6F894DEBF0FBECDBF7C01A6
:1010300082E0898380E28A8380E68B831C821D8222
:1010400040915F01509160015E834F83688796EA0B
:10105000C92E91E0D92EC60160E070E09E012F5F9D
:101060003F4F08E00E94F005482F80E090E0B60175
:101070000E945B0D2A960FB6F894DEBF0FBECDBF5F
:10108000CF91DF910F91FF90EF90DF90CF90089577
:10109000CF93DF93EC0181E190E00E9486068823E4
:1010A00041F080E190E061E00E941A01CE0160E031
:1010B00007C080E190E060E00E941A01CE0160E18B
:1010C0000E940808DF91CF910895EF92FF920F934D
:1010D0001F93F801A085A13019F0A33081F408C056
:1010E000CB01BA01A901980187010E94480807C0F5
:1010F000CB01BA01A901980187010E94A5071F91A0
:101100000F91FF90EF9008958F30910578F4FC01D6
:10111000EE0FFF1FEE0FFF1FE80FF91FE651FE4F06
:10112000418352836383748381E0808380E090E015
:1011300008958F309105B0F4FC01EE0FFF1FEE0F04
:10114000FF1FE80FF91FE651FE4F8081882351F001
:1011500020E030E081819281A381B4810097A105D4
:10116000B10511F021E030E0C90108958F309105FB
:1011700050F4FC01EE0FFF1FEE0FFF1FE80FF91FE9
:10118000E651FE4F108280E090E00895F894EAEE78
:10119000F1E010821182128213821482359682E06D
:1011A000E533F807B1F716BC14BC84E085BD8FE1C8
:1011B00087BD80916E00826080936E007894089560
:1011C0001F920F920FB60F9211248F939F93AF939C
:1011D000BF93EF93FF938091E6019091E701A09177
:1011E000E801B091E9010196A11DB11D8093E601CE
:1011F0009093E701A093E801B093E901EBEEF1E0F1
:1012000080819181A281B3810097A105B10539F058
:101210000197A109B10980839183A283B383359695
:1012200082E0E633F80761F716BCFF91EF91BF91BA
:10123000AF919F918F910F900FBE0F901F901895B7
:1012400082E08093C00088E98093C10086E08093AB
:10125000C2001092C50088E08093C400519A509853
:10126000589A08951F920F920FB60F9211242F9340
:101270008F939F93EF93FF93F8948091C00087FF23
:10128000FCCF809376022091C60020933502809196
:10129000060190E0FC01EA5CFD4F208301968F730C
:1012A000907080930601809107018F5F8093070102
:1012B0007894FF91EF919F918F912F910F900FBE96
:1012C0000F901F901895DC01F894809107018823F6
:1012D000B1F08150809307017894E0910501F0E02E
:1012E000EA5CFD4F80818C938091050190E001962E
:1012F0008F7390708093050121E030E003C07894F3
:1013000020E030E0C9010895982F8091C00085FF4A
:10131000FCCF9093C60081E090E00895EF92FF9299
:101320000F931F939C01FB017A019181808180388A
:1013300031F5913269F0903AA1F0913001F580E0F9
:1013400090E060E070E0AF0197010E94C80217C012
:1013500080E090E060E070E0AF0197010E945E05E0
:101360000EC0728160E0838190E0682B792BC90107
:1013700040E050E020E030E08F010E94650881E00D
:101380001F910F91FF90EF90089590931501809316
:101390001401709317016093160180E008959093F3
:1013A000110180931001709313016093120180E08A
:1013B0000895FF920F931F93CF93DF93F62E4091E2
:1013C0001601509117014115510511F48FEF27C0F7
:1013D000EC01FC0100E090E003C08191080F9F5FE9
:1013E0009F15D8F38AEFFA010995E0911601F09163
:1013F00017018F2D099510E003C0899109951F5F92
:10140000E0911601F09117011F15B8F3802F09958F
:10141000E0911601F09117018FEA099580E0DF91C4
:10142000CF911F910F91FF900895FF920F931F93FB
:10143000DF93CF930F92CDB7DEB7082FF92E162F7B
:10144000E0911401F0911501309711F44FEF80C035
:10145000CE0101960995181619060CF078C0212FB7
:1014600030E080910801909109018217930724F0E0
:101470001092090110920801409108015091090150
:101480002981FA01E958FD4F2083CA010196909302
:101490000901809308012A3F71F4809177028A3F05
:1014A00009F455C02093770281E090E09093090100
:1014B000809308014CC02F3A09F049C006970CF4FC
:1014C00046C080917802282F30E0CA010297281781
:1014D0003907ECF5CA0103972817390764F082171A
:1014E000930749F4A9E7B2E090E0FA0131979F0130
:1014F00029583D4F07C0109209011092080127C0DA
:101500008D91980FA217B307D9F7E958FD4F808145
:101510009817E9F4802F9F2D9C01D90122E030E03B
:1015200007C0F901E958FD4F80818D932F5F3F4F30
:10153000422F42508091080190910901029728178B
:1015400039077CF3109209011092080101C040E0B4
:10155000842F0F90CF91DF911F910F91FF900895ED
:10156000CF92DF92EF92FF920F931F93DF93CF936F
:10157000CDB7DEB7C054D0400FB6F894DEBF0FBE73
:10158000CDBFAC018091120190911301892B11F410
:101590008FEF41C08AEF89836A83DE0113968D0144
:1015A00070E06E5F7F4F9E012F5F3F4F260F371F0A
:1015B00006C0FA018191AF01F80181938F010217F2
:1015C0001307B9F720E002C08D91280FA017B107CB
:1015D000D9F7CE010196FC01E60FF71F20837B01AE
:1015E0000894E11CF11CFC01EE0DFF1D2FEA208385
:1015F00000E010E06C01F601E00FF11F20911201F4
:10160000309113018081F90109950F5F1F4FE0169A
:10161000F1068CF780E0C05CDF4F0FB6F894DEBFB8
:101620000FBECDBFCF91DF911F910F91FF90EF9033
:10163000DF90CF9008950F931F93DF93CF930F9276
:10164000CDB7DEB78C01E0911001F0911101309718
:1016500011F48FEFA5C0CE01019609951816190651
:101660000CF09DC080910C0190910D01823091058C
:1016700009F448C08330910534F40097A9F001972C
:1016800009F089C026C08330910521F0049709F044
:1016900082C066C040910A0150910B014F5F5F4FBD
:1016A00022E030E090E04FC010920F0110920E0146
:1016B00029812A3F09F073C081E090E090930D01E9
:1016C00080930C012093B70290930F0180930E0139
:1016D00066C080910E0190910F012981FC01E954AF
:1016E000FD4F2083019690930F0180930E0182E0BD
:1016F00090E090930D0180930C0120930A011092C9
:101700000B014DC020910E0130910F01F901E954F8
:10171000FD4F898180832F5F3F4F30930F012093CE
:101720000E0180910A0190910B0101968217930797
:10173000B4F583E090E00FC0F901E954FD4F8081DA
:10174000980F2F5F3F4F42175307B4F789818917CE
:1017500011F584E090E090930D0180930C011FC07F
:1017600089818F3AC1F410920D0110920C01A9EBFE
:10177000B2E020E030E007C0F801E20FF31F8D91E6
:1017800080832F5F3F4F80910A0190910B012817B2
:10179000390794F305C010920D0110920C0180E0FE
:1017A0000F90CF91DF911F910F91089580911901B2
:1017B00090911801891B8F70089580915E010895A2
:1017C00080911A01089530E050E0BFEAAAEF24C0EA
:1017D000FB01E50FF11D20812F3FC1F421812F3F37
:1017E00029F4FC01E30FF11D20830DC0213029F401
:1017F000FC01E30FF11DA08306C0223029F4FC0197
:10180000E30FF11DB0833F5F5F5F05C0FC01E30F95
:10181000F11D20833F5F5F5F5417D0F2832F08953F
:10182000CF93DF93DC01EB0180E020E03FEF62E04B
:1018300051E02CC098819A3F51F4FD01E80FF11D51
:1018400030838F5FFD01E80FF11D50830BC09F3A7D
:1018500059F4FD01E80FF11D30838F5FFD01E80FA2
:10186000F11D60838F5F10C0E82FF0E08F5F9F3F16
:1018700041F4EA0FFB1F9083FD01E80FF11D9083F7
:10188000F1CFEA0FFB1F90832F5F2196241790F270
:10189000DF91CF9108951092270590E49093280549
:1018A00095E09093290580932A0587E295E064E00E
:1018B0000E94D90908951092270590E49093280575
:1018C00092E09093290580932A0587E295E064E0F1
:1018D0000E94D90908951092270520E32093280536
:1018E0009093290580932A0587E295E064E00E94A1
:1018F000D90908951092270581E0809328058093E7
:10190000290587E295E063E00E94D90908951092C5
:10191000270580E1809328051092290587E295E04C
:1019200063E00E94D90908951092270510922805B6
:1019300087E295E062E00E94D90908950F931F9312
:10194000CF93DF93FC018081833009F47AC0843027
:1019500030F4813059F0823009F075C06EC08131A9
:1019600009F44EC0813A09F06EC064C0938580E0EE
:10197000248530E0822B932B9093600180935F014C
:10198000958580E0268530E0822B932B9093620131
:1019900080936101978580E02089C22FD0E0C82B19
:1019A000D92B8091640190916501C817D90741F046
:1019B00085E090E048EE53E060E070E00E9484082B
:1019C000D0936501C093640100916101109162019F
:1019D0000E944D1190E091600817190749F00E948C
:1019E0004D1190E091600E946B0C0E947A0C2BC00C
:1019F00080915E018330B9F081E080935E0113C075
:101A00000185009363010E944D1110E090E08F70FA
:101A100090700B960817190749F00E944D118F70AE
:101A2000855F0E945B0C0E94870C0DC083E0809351
:101A30005E0109C00E94940C06C081E080931A01E7
:101A400002C010921A01DF91CF911F910F9108955A
:101A50001F93CF93DF93EC01142F90911901809184
:101A60001801292F281B822F8F708F3001F123E25C
:101A7000929F9001112426503D4FC90150E00E94D1
:101A8000E51140911901242F30E083E290E0289F76
:101A9000F001299FF00D389FF00D1124E950FD4F02
:101AA0001283D183C0834F5F4F7040931901DF9140
:101AB000CF911F910895EF92FF920F931F93F82EED
:101AC000E92E07E215E080E1809327059093280531
:101AD000F092290510922A0510922B05C80105964F
:101AE0000E94100C482F4B5F8F2D9E2DB8010E9435
:101AF000280D1F910F91FF90EF9008950F931F9362
:101B0000CF93DF93EC019091180180911901891B0B
:101B10008F7011F420E02BC0892F90E0BE016D5F23
:101B20007F4F03E210E0809F9001819F300D909FD6
:101B3000300D1124F901E950FD4F428126503D4FEF
:101B4000CB01B90150E00E94E5118091180190E0AD
:101B5000809FF001819FF00D909FF00D1124E950BE
:101B6000FD4F22812A838081918199838883822FEE
:101B7000DF91CF911F910F9108950F931F93CF93F2
:101B8000DF93EC019091180180911901891B8F70EE
:101B900011F430E030C0892F90E0BE016D5F7F4FBF
:101BA00003E210E0809F9001819F300D909F300DE7
:101BB0001124F901E950FD4F428126503D4FCB01E0
:101BC000B90150E00E94E51120911801822F90E0A8
:101BD000809FF001819FF00D909FF00D1124E9503E
:101BE000FD4F32813A8380819181998388832F5F71
:101BF0002F7020931801832FDF91CF911F910F91A8
:101C000008958091190190911801891B8F70B1F08E
:101C100080915E01833091F480911A01813071F4DA
:101C200084E291E00E94BD0D10921B0110921C01F4
:101C300010921D0110921E0110921A01809119013B
:101C400090911801891B8F7009F461C080915E0129
:101C5000833009F05CC080911A01823011F58091C7
:101C60001F0190912001A0912101B09122010196C4
:101C7000A11DB11D80931F0190932001A09321010C
:101C8000B09322010397A105B10508F440C010925A
:101C90001F01109220011092210110922201109236
:101CA0001A0184E291E00E947E0D80932301882333
:101CB00071F180911B0190911C01A0911D01B091C7
:101CC0001E010196A11DB11D80931B0190931C0163
:101CD000A0931D01B0931E010B97A105B10560F003
:101CE00010921B0110921C0110921D0110921E01F6
:101CF00081E080931A01089582E080931A0187E2BF
:101D000091E0609126010E94D90910922301089563
:101D1000209A289A0895E9E6F0E080818F60808318
:101D20008DB383608DBB0895289888EE93E028ECEE
:101D300030E0F9013197F1F70197D9F7289A089522
:101D400084B7877F84BF2FE088E190E00FB6F894D6
:101D5000A895809360000FBE2093600008951F92A5
:101D60000F920FB60F9211242F933F934F935F93CF
:101D70006F937F938F939F93AF93BF93EF93FF9353
:101D800080914B0190914C01A0914D01B0914E0179
:101D90000196A11DB11D80934B0190934C01A0931E
:101DA0004D01B0934E0140914B0150914C01609117
:101DB0004D0170914E0181E090E00E94D201FF91AF
:101DC000EF91BF91AF919F918F917F916F915F91B3
:101DD0004F913F912F910F900FBE0F901F9018952C
:101DE0001F920F920FB60F9211242F933F934F9390
:101DF0005F936F937F938F939F93AF93BF93EF9373
:101E0000FF938091470190914801A0914901B091C1
:101E10004A010196A11DB11D80934701909348018D
:101E2000A0934901B0934A01409147015091480164
:101E30006091490170914A0180E090E00E94D201D6
:101E4000FF91EF91BF91AF919F918F917F916F9192
:101E50005F914F913F912F910F900FBE0F901F9068
:101E600018950F931F9381E090E00E949908892BA9
:101E700009F050C00091470110914801209149019B
:101E800030914A0160915F017091600180E090E0C3
:101E900040E00E942E0400914B0110914C012091D2
:101EA0004D0130914E0160915F017091600180E0C1
:101EB00090E041E00E942E0400914F0110915001EA
:101EC000209151013091520160915F017091600148
:101ED00080E090E042E00E942E04009153011091B6
:101EE0005401209155013091560160915F0170912C
:101EF000600180E090E043E00E942E0481E090E0E9
:101F00000E94B60881E090E040E157E260E070E0B6
:101F10000E9484081F910F91089584E090E00E9430
:101F20009908892B69F4A89584E090E00E94B6088E
:101F300084E090E044E650E060E070E00E948408B5
:101F4000089582E090E00E949908892B71F586E05F
:101F50000E944E00909358018093570187E00E94A1
:101F60004E0090935A01809359010E94FB028130E8
:101F700081F44091570150915801209159013091BD
:101F80005A0160915F017091600180E090E00E94D1
:101F9000DC0382E090E00E94B60882E090E040E13D
:101FA00057E260E070E00E948408089585E090E0C8
:101FB0000E949908892B69F50E94FB02882399F4F5
:101FC0000E94DD0B833011F40E94960485E090E0BE
:101FD0000E94B60885E090E040E157E260E070E0E2
:101FE0000E94840808950E94DD0B833031F40E9422
:101FF000FB02813011F40E94CF0485E090E00E9442
:10200000B60885E090E040E157E260E070E00E94B1
:10201000840808950F931F9383E090E00E9499082D
:10202000892B11F50E94940C80915B018F5F809346
:102030005B010E94DD0B833059F483E090E00E9445
:10204000B60883E090E040E157E260E070E00AC04B
:1020500083E090E00E94B60883E090E048EE53E011
:1020600060E070E00E94840880915B01863020F07F
:102070000E94940E10925B0187E895E060E40E9454
:10208000150A482F90E090935D0180935C01892BA5
:10209000C9F180918705882319F0803199F50AC02C
:1020A00010925B01415088E895E0642F70E00E9437
:1020B0009E0C28C010918A0500918B05455087E43D
:1020C00095E06CE875E00E94E30B482F90914B057A
:1020D00080E020914C0530E0822B932B20915F0112
:1020E000309160018217930769F410925B01912F80
:1020F00080E0202F30E0822B932B67E475E050E0E6
:102100000E948E091F910F91089586E090E00E9431
:102110009908892B71F486E090E00E94B60886E069
:1021200090E044E650E060E070E00E9484080E9485
:10213000010E0895209A289A0E943A110E942009BF
:102140000E94C6080E9468000E944800A89580E18D
:1021500097E228EC30E0F9013197F1F70197D9F7D0
:1021600084B7877F84BF2FE088E190E00FB6F894B2
:10217000A895809360000FBE20936000A89583E629
:1021800099E064E879E00E94C50984E090E044E6C3
:1021900050E060E070E00E94840885E090E040E15B
:1021A00057E260E070E00E94840881E090E048EE31
:1021B00053E060E070E00E94840882E090E040E13B
:1021C00057E260E070E00E94840886E090E040E121
:1021D00057E260E070E00E94840883E090E048EEFF
:1021E00053E060E070E00E94840880E090E00E948C
:1021F000F7016093470170934801809349019093E0
:102200004A0181E090E00E94F70160934B017093D6
:102210004C0180934D0190934E0182E090E00E942A
:10222000F70160934F017093500180935101909397
:10223000520183E090E00E94F70160935301709394
:1022400054018093550190935601809169008F60ED
:10225000809369008DB383608DBB0E948D0F0E94B7
:102260000A100E94D60F0E94310F0E94A10F0E94F7
:102270008510F3CF8AB18F708AB984B1897F84B910
:1022800087B18F7C87B98BB1806F8BB985B1866040
:1022900085B988B1806388B90895359902C080E80E
:1022A00001C080E04F9B8064349B80624C9B8061C6
:1022B0004D9B88601A9B84604E9B8260199B816055
:1022C0000895FC0120E030E04CE050E09081892F3F
:1022D00080538A3020F4892F90E0C09710C0892F56
:1022E0008154863020F4892F90E0C79708C0892F49
:1022F0008156863060F4892F90E087559040042EF7
:1023000002C0880F991F0A94E2F7282B392B3196C7
:10231000445050408FEF4C3F5807C1F6C901089513
:10232000FC0140E024E030E09081892F80538A3026
:1023300020F4892F90E0C09710C0892F81548630F7
:1023400020F4892F90E0C79708C0892F81568630E6
:1023500058F4892F90E087559040022E02C0880FD4
:10236000991F0A94E2F7482B3196245030408FEFA2
:102370002C3F3807C9F6842F0895282F30E02F709E
:1023800030702A3031051CF48F70805D08952A501A
:1023900030402630310510F080E008958F70895C60
:1023A0000895AA1BBB1B51E107C0AA1FBB1FA6179C
:1023B000B70710F0A61BB70B881F991F5A95A9F7EE
:1023C00080959095BC01CD010895FB01DC0102C010
:1023D00001900D9241505040D8F70895F894FFCFE6
:107000000C9434380C9446380C9446380C9446381A
:107010000C9446380C9446380C9446380C944638F8
:107020000C9446380C9446380C9446380C944638E8
:107030000C9446380C9446380C9446380C944638D8
:107040000C9446380C9446380C9446380C944638C8
:107050000C9446380C9446380C9446380C944638B8
:107060000C9446380C94463811241FBECFEFD8E05C
:10707000DEBFCDBF11E0A0E0B1E001C01D92A53898
:10708000B107E1F70E947B3C0C94243D0C9400383E
:1070900087B1876087B93B98409A089582E0982F1E
:1070A0009A95F1F7419A982F9A95F1F741988A9518
:1070B000F1F708950F931F93CF93DF93C7E0D0E0CC
:1070C000082F10E0C8010C2E02C0959587950A94F0
:1070D000E2F780FF02C0429A01C042980E944E38F7
:1070E00021978FEFCF3FD80769F7DF91CF911F919D
:1070F0000F910895EF92FF920F931F93CF93DF9319
:10710000C7E0D0E010E000E681E0E82EF12C8BB182
:1071100080278BB9339B08C0C7010C2E02C0880F93
:10712000991F0A94E2F7182B0E944E3821978FEF8F
:10713000CF3FD80761F7812FDF91CF911F910F913A
:10714000FF90EF900895DF92EF92FF920F931F93BD
:10715000CF93DF938C01D62EF42EE52E409880ED50
:1071600097E00197F1F784E80E945A3880E00E9486
:107170005A38812F0E945A38802F0E945A382F2D5A
:107180003E2DC901EC0110E004C089910E945A38DB
:107190001F5F1D15D0F380ED97E00197F1F7409A3E
:1071A000DF91CF911F910F91FF90EF90DF900895A5
:1071B000EF92FF920F931F938C01409830EDE32ED6
:1071C00037E0F32EC7010197F1F783E80E945A38A0
:1071D000C801880F892F881F990B91950E945A38F2
:1071E000802F880F0E945A3880E00E945A38C701C9
:1071F0000197F1F7409A1F910F91FF90EF9008953A
:107200000F931F93DF93CF930F92CDB7DEB78C010F
:10721000698380E090E061E0AE014F5F5F4F0E94C4
:10722000A338C8010E94D83880E29EE40197F1F7A4
:107230000F90CF91DF911F910F9108950F931F939E
:107240008C0140980E944E3884ED0E945A3880E0AC
:107250000E945A38812F0E945A38802F0E945A3833
:1072600080E00E945A380E947A38409A1F910F910C
:1072700008950F931F938C01409880ED97E001973C
:10728000F1F782ED0E945A38C801880F892F881FB4
:10729000990B91950E945A38802F880F0E945A3876
:1072A00080E00E945A3800E080E00E945A380F5F68
:1072B0000430D1F70E947A38E0EDF7E03197F1F72A
:1072C000409A1F910F9108950F931F93DF93CF93CF
:1072D00000D0CDB7DEB78C017A83698380E090E07F
:1072E00062E0AE014F5F5F4F0E94A338C8010E9469
:1072F000D83880E29EE40197F1F70F900F90CF917C
:10730000DF911F910F9108950F931F938C01409867
:1073100080ED97E00197F1F782ED0E945A38C8019D
:10732000880F892F881F990B91950E945A38802FBA
:10733000880F0E945A3880E00E945A3800E080E0AE
:107340000E945A380F5F0430D1F70E947A38082F14
:1073500010E00E947A38E0EDF7E03197F1F7409ABB
:10736000382F20E0202B312BC9011F910F91089558
:107370000F931F93DF93CF9300D000D0CDB7DEB72C
:107380008C0149835A836B837C8380E090E064E0C6
:10739000AE014F5F5F4F0E94A338C8010E94D838EA
:1073A00080E29EE40197F1F70F900F900F900F90FD
:1073B000CF91DF911F910F9108959F92AF92BF924D
:1073C000CF92DF92EF92FF920F931F938C01409820
:1073D00080ED97E00197F1F782ED0E945A38C801DD
:1073E000880F892F881F990B91950E945A38802FFA
:1073F000880F0E945A3880E00E945A3800E080E0EE
:107400000E945A380F5F0430D1F70E947A38A82EB4
:10741000BB24CC24DD240E947A38982E0E947A382E
:10742000E82E0E947A38FF2400E010E08701FF2454
:10743000EE2490E0A0E0B0E0B82FAA279927882793
:10744000E82AF92A0A2B1B2BEA28FB280C291D29DC
:1074500080ED97E00197F1F7409A992D80E0AA27F7
:1074600097FDA095BA2FE82AF92A0A2B1B2BB70102
:10747000C8011F910F91FF90EF90DF90CF90BF90C8
:10748000AF909F9008950F931F938C019B0180E014
:1074900090E0642FA9010E94A338C8010E94D83847
:1074A00080E29EE40197F1F71F910F9108950F93E9
:1074B0001F93DF93CF93CDB7DEB7CF5FD0400FB62A
:1074C000F894DEBF0FBECDBF8C01FE013196CF0117
:1074D000AF01860F911D2FEF01C02193E817F90727
:1074E000E1F780E090E00E94A338C8010E94D838FC
:1074F00080E29EE40197F1F7C150DF4F0FB6F89498
:10750000DEBF0FBECDBFCF91DF911F910F910895C8
:10751000DF92EF92FF920F931F93CF93DF938C0133
:10752000F62EE72ED42E409880ED97E00197F1F7E4
:1075300082ED0E945A38C801880F892F881F990B45
:1075400091950E945A38802F880F0E945A3880E007
:107550000E945A3800E080E00E945A380F5F0430E1
:10756000D1F78F2D9E2D9C01E90100E004C00E94FF
:107570007A3889930F5F0D15D0F380ED97E001976E
:10758000F1F7409A8D2DDF91CF911F910F91FF90D0
:10759000EF90DF9008950F931F93409800ED17E050
:1075A000C8010197F1F787ED0E945A380E947A3896
:1075B000F8013197F1F7409A1F910F91089540E03B
:1075C00050E00AC020E030E02F5F3F4F6CE02038F1
:1075D0003607D1F74F5F5F4F4817590798F3089563
:1075E000982F8091C00085FFFCCF9093C60081E06A
:1075F00090E00895CF93DF93F999FECF40918001F9
:107600005091810183E0FA0180935700E89507B615
:1076100000FCFDCFA0E0B1E0E0E0F0E061E0119619
:107620003C91119720E08C91E901C80FD11D0E010A
:1076300060935700E895112432961296E038F105D0
:1076400071F785E0FA0180935700E89507B600FCD2
:10765000FDCF81E180935700E895DF91CF910895A8
:107660000F931F93CF93DF930091800110918101BD
:10767000C0E0D1E0C801BC01DE01FB0125913491DD
:1076800011965C91119740E08C91FA01E80FF11D81
:107690002E173F0741F18091C00085FFFCCF8FEF8F
:1076A0008093C6008091C00085FFFCCF8FEF809350
:1076B000C6008091C00085FFFCCF1093C60080916A
:1076C000C00085FFFCCF0093C60098818091C00068
:1076D00085FFFCCF9093C6002196F1E0C038DF070C
:1076E000A1F780E009C06E5F7F4F129681E0A0385D
:1076F000B80709F0C2CF81E0DF91CF911F910F91C0
:107700000895089581E085BF15BE0C94000008958A
:1077100084B7877F84BF2FE088E190E00FB6F894AC
:10772000A895809360000FBE2093600008952F926B
:107730003F924F925F926F927F928F929F92AF9201
:10774000BF92CF92DF92EF92FF920F931F93DF933E
:10775000CF93CDB7DEB7CF5FD0400FB6F894DEBF82
:107760000FBECDBF21E1A22EB12CDD244E01089425
:10777000811C911CCC24CA949DEF292E312C2C0EF7
:107780003D1EC501B4014FEF0E94883A8401F40107
:1077900090818091C00085FFFCCF9093C600319608
:1077A000E215F305A9F784E0E82EF12CF8019081A9
:1077B0008381992309F066C0813009F063C0DD2020
:1077C000C9F00E94FA3A0E94303B882309F478C03D
:1077D000E0E0F1E08FEF819391E0E038F907D9F72D
:1077E00080918001909181018D0D911D9093810177
:1077F000809380018091C00085FFFCCF83E6809359
:10780000C6008091C00085FFFCCF83E68093C60050
:107810008091C00085FFFCCF83E68093C6008091F5
:10782000C00085FFFCCF83E68093C60081E049C09D
:10783000ED2DF0E0E050FF4FD301A20FB31F8C916C
:107840008083D394E0E8DE16D1F40E94FA3A0E94D5
:10785000303B8823A9F1809180019091810180586B
:107860009F4F9093810180938001E0E0F1E0C1920D
:1078700081E0E038F807D9F720E830E0DD242F5F19
:107880003F4F07C020E030E0492E552434016E0CF4
:107890007F1C2415350560F20B5E1F4FE5E1F0E01B
:1078A000EE0EFF1E0215130509F080CF0894A11CEF
:1078B000B11CF0E0AF16F2E0BF0609F062CF01C0E4
:1078C00080E0C150DF4F0FB6F894DEBF0FBECDBFD2
:1078D000CF91DF911F910F91FF90EF90DF90CF90AC
:1078E000BF90AF909F908F907F906F905F904F90E0
:1078F0003F902F9008951F93CF93DF9384B7877F96
:1079000084BF2FE088E190E00FB6F894A8958093AB
:1079100060000FBE2093600088E10FB6F89480935A
:107920006000109260000FBE0E94483882E0809391
:10793000C00088E98093C10086E08093C200109265
:10794000C50088E08093C40080E190E00E9439394E
:10795000182FF89484E690E00E94DF3A20E030E0AF
:1079600061E648EC50E08091C00085FFFCCF609359
:10797000C60080ED97E0FA013197F1F70197D9F74A
:1079800080ED97E0FA013197F1F70197D9F72F5F72
:107990003F4F2230310539F788E893E128EC30E099
:1079A000F9013197F1F70197D9F7113019F50E94D4
:1079B000973B882379F484B7877F84BF2FE088E1E1
:1079C00090E00FB6F894A895809360000FBE2093C6
:1079D0006000FFCF80E190E060E00E940039C1E1EB
:1079E000D0E0CE016FEF0E94573A219682E0C0307E
:1079F000D807B9F720E030E062E648EC50E080912B
:107A0000C00085FFFCCF6093C60080ED97E0FA01CF
:107A10003197F1F70197D9F780ED97E0FA013197A7
:107A2000F1F70197D9F72F5F3F4F2330310539F731
:107A3000789481E085BF15BE0C94000080E090E052
:0C7A4000DF91CF911F910895F894FFCFC3
:040000030000700089
:00000001FF