:100000000C9434000C9451000C9451000C94510049
:100010000C9451000C9451000C9451000C9451001C
:100020000C9451000C9451000C9451000C9451000C
:100030000C9451000C9451000C94E3080C94510062
:100040000C9451000C9451000C9435090C945100FF
:100050000C9451000C9451000C9451000C945100DC
:100060000C9451000C94510011241FBECFEFD8E026
:10007000DEBFCDBF12E0A0E0B1E0E4E5F9E202C0EE
:1000800005900D92A430B107D9F717E0A4E0B2E0D3
:1000900001C01D92AD30B107E1F70E949A100C9497
:1000A000A8140C94000010927C0080E880BF85EAC0
:1000B00080937A00EBE7F0E08081887F808381EC99
:1000C00080937E000895229A8AB184648AB95798F1
:1000D0002A9A089582E0982F9A95F1F75A9A982FC4
:1000E0009A95F1F75A988A95F1F708950F931F930F
:1000F000CF93DF93C7E0D0E0082F10E0C8010C2EAB
:1001000002C0959587950A94E2F780FF02C05E9A37
:1001100001C05E980E946A0021978FEFCF3FD807F9
:1001200069F7DF91CF911F910F910895EF92FF92A0
:100130001F93CF93DF93C7E0D0E010E081E0E82E7B
:10014000F12C4F9B08C0C7010C2E02C0880F991FCD
:100150000A94E2F7182B0E946A0021978FEFCF3F95
:10016000D80779F7812FDF91CF911F91FF90EF9002
:100170000895DF92EF92FF920F931F93CF93DF9337
:100180008C01D62EF42EE52E2A9880ED97E001976B
:10019000F1F784E80E94760080E00E947600812FCB
:1001A0000E947600802F0E9476002F2D3E2DC901DF
:1001B000EC0110E004C089910E9476001F5F1D15BC
:1001C000D0F380ED97E00197F1F72A9ADF91CF9174
:1001D0001F910F91FF90EF90DF900895EF92FF92A3
:1001E0000F931F938C012A9830EDE32E37E0F32E06
:1001F000C7010197F1F783E80E947600C801880FD4
:10020000892F881F990B91950E947600802F880F67
:100210000E94760080E00E947600C7010197F1F706
:100220002A9A1F910F91FF90EF9008950F931F93BB
:10023000DF93CF930F92CDB7DEB78C01698380E057
:1002400090E061E0AE014F5F5F4F0E94B900C801CE
:100250000E94EE0080E29EE40197F1F70F90CF91AB
:10026000DF911F910F9108950F931F938C012A988E
:100270000E946A0084ED0E94760080E00E94760071
:10028000812F0E947600802F0E94760080E00E94DD
:1002900076000E9496002A9A1F910F9108950F935D
:1002A0001F938C012A9880ED97E00197F1F782ED7A
:1002B0000E947600C801880F892F881F990B91959D
:1002C0000E947600802F880F0E94760080E00E94B6
:1002D000760000E080E00E9476000F5F0430D1F7E6
:1002E0000E949600E0EDF7E03197F1F72A9A1F910E
:1002F0000F9108950F931F93DF93CF9300D0CDB745
:10030000DEB78C017A83698380E090E062E0AE0121
:100310004F5F5F4F0E94B900C8010E94EE0080E26B
:100320009EE40197F1F70F900F90CF91DF911F910D
:100330000F9108950F931F938C012A9880ED97E0F9
:100340000197F1F782ED0E947600C801880F892F8E
:10035000881F990B91950E947600802F880F0E942C
:10036000760080E00E94760000E080E00E94760047
:100370000F5F0430D1F70E949600082F10E00E9412
:100380009600E0EDF7E03197F1F72A9A382F20E058
:10039000202B312BC9011F910F9108950F931F93AB
:1003A000DF93CF9300D000D0CDB7DEB78C01498367
:1003B0005A836B837C8380E090E064E0AE014F5F02
:1003C0005F4F0E94B900C8010E94EE0080E29EE4E7
:1003D0000197F1F70F900F900F900F90CF91DF9151
:1003E0001F910F9108959F92AF92BF92CF92DF928B
:1003F000EF92FF920F931F938C012A9880ED97E064
:100400000197F1F782ED0E947600C801880F892FCD
:10041000881F990B91950E947600802F880F0E946B
:10042000760080E00E94760000E080E00E94760086
:100430000F5F0430D1F70E949600A82EBB24CC2475
:10044000DD240E949600982E0E949600E82E0E94BD
:100450009600FF2400E010E08701FF24EE2490E0E6
:10046000A0E0B0E0B82FAA2799278827E82AF92A20
:100470000A2B1B2BEA28FB280C291D2980ED97E06D
:100480000197F1F72A9A992D80E0AA2797FDA09568
:10049000BA2FE82AF92A0A2B1B2BB701C8011F9192
:1004A0000F91FF90EF90DF90CF90BF90AF909F9013
:1004B00008950F931F938C019B0180E090E0642FBF
:1004C000A9010E94B900C8010E94EE0080E29EE4EA
:1004D0000197F1F71F910F910895DF92EF92FF922C
:1004E0000F931F93CF93DF938C01F62EE72ED42E1C
:1004F0002A9880ED97E00197F1F782ED0E9476004F
:10050000C801880F892F881F990B91950E9476004A
:10051000802F880F0E94760080E00E94760000E025
:1005200080E00E9476000F5F0430D1F78F2D9E2D62
:100530009C01E90100E004C00E94960089930F5FCE
:100540000D15D0F380ED97E00197F1F72A9A8D2DE4
:10055000DF91CF911F910F91FF90EF90DF90089561
:100560000F931F932A9800ED17E0C8010197F1F748
:1005700087ED0E9476000E949600F8013197F1F70E
:100580002A9A1F910F910895FFCF20910802309170
:1005900009022F5F3F4F3093090220930802215038
:1005A0003040C9010895EF92FF920F93CF93DF93EC
:1005B000EC0180E8888381E28983FA82EB827C8384
:1005C0006D835E834F8340E050E0602F70E00AC08F
:1005D000FE01E80FF11DD901A40FB51F8C91808396
:1005E0004F5F5F4F842F885F461757078CF3802F2C
:1005F000885FDF91CF910F91FF90EF9008958091E8
:1006000001010895809100010895809301010895EA
:10061000809300010895809104029091050208954D
:1006200080910602909107020895909305028093AD
:100630000402089590930702809306020895AF92F2
:10064000BF92DF92EF92FF920F931F93CF93DF93AE
:10065000EC01E62E172FD42EF52E59010E94F60438
:1006600020E8288321E229839A838B831C83ED82EF
:10067000FE82DF8220E030E0402F50E00AC0FE0121
:10068000E80FF11DD501A20FB31F8C9180832F5F5E
:100690003F4F822F885F241735078CF3802F885FA8
:1006A000DF91CF911F910F91FF90EF90DF90BF905E
:1006B000AF900895CF92DF92EF92FF920F931F9326
:1006C000CF93DF939AE790936302109264021092A3
:1006D0006502D0905C02C0905D02C0926602D0922A
:1006E0006702FA01E20FF11DEF2FFF0FFF0BE093FE
:1006F0006802240F209369029AE0099F8001112467
:1007000000936A02E99E70011124E0926B028093CB
:100710006C02262F372FE901AAE0B0E0282F30E045
:100720002B5F3F4F220F331F0CC08981FD01ED5914
:10073000FD4F80838881FD01EC59FD4F8083129627
:100740002296A217B30789F781E892E060E070E093
:100750004D2D5C2D23E632E00A2F0E941F03482F07
:1007600080E090E061E872E00E942E0CDF91CF9172
:100770001F910F91FF90EF90DF90CF900895EF922F
:10078000FF920F9383E880936302109264021092A9
:10079000650240915C0250915D0250936602409365
:1007A00067021092680221E8E22E22E0F22EC701D1
:1007B00060E070E023E632E006E00E941F03482F6D
:1007C00080E090E0B7010E942E0C0F91FF90EF9017
:1007D0000895FA018585813019F41092000103C053
:1007E00081E0809300010E94BF030895CF92DF92C1
:1007F000EF92FF920F937C0181E880936302109245
:1008000064021092650240915C0250915D02509327
:100810006602409367021092680231E8C32E32E00C
:10082000D32EC60160E070E023E632E006E00E94CD
:10083000D302482F80E090E0B6010E942E0C0F9169
:10084000FF90EF90DF90CF900895FA01928180E0C1
:10085000238130E0458540930101822B932B0E9438
:10086000F6030895EF92FF920F9380E7809363025F
:10087000109264021092650281E0809366024091BA
:100880005C0250915D02509367024093680261E8F8
:10089000E62E62E0F62EC70160E070E023E632E06B
:1008A00006E00E941F03482F80E090E0B7010E94FD
:1008B0002E0C0F91FF90EF900895EF92FF920F93FF
:1008C00085E2809363021092640210926502409167
:1008D0005C0250915D02509366024093670280E291
:1008E0008093680280E58093690280910101809382
:1008F0006A02909104028091050280936B029093AA
:100900006C02909106028091070280936D02909391
:100910006E0271E8E72E72E0F72EC70160E070E02A
:1009200023E632E00CE00E941F03482F80E090E0B5
:10093000B7010E942E0C0F91FF90EF9008950E9436
:100940005D040895FA0140854A3369F04B3318F489
:10095000443289F405C0403839F0423861F408C0A7
:100960000E945D040895FFCFAF010E942504089501
:10097000AF010E94E9030895FA018085823019F0E1
:100980008231B9F408C08285813011F410920A02D4
:1009900010920B020895918580E0228530E0822B31
:1009A000932B892B21F481E080930A020895109201
:1009B0000A020895FA01918580E0228530E0822BB9
:1009C000932B892B21F481E080930A0208951092E1
:1009D0000A020895FA018285813011F410920A0208
:1009E00010920B02089580910A02089520910C0242
:1009F00030910D022F5F3F4F30930D0220930C0278
:100A000021503040C9010895EF92FF920F93CF9388
:100A1000DF93EC01790180910C0290910D02019617
:100A200090930D0280930C02019720E8288321E027
:100A300029839A838B837C836D835E834F8340E01D
:100A400050E0602F70E00AC0FE01E80FF11DD701F1
:100A5000A40FB51F8C9180834F5F5F4F842F885FF9
:100A6000461757078CF3802F885FDF91CF910F9146
:100A7000FF90EF900895EF92FF920F93DF93CF9343
:100A8000CDB7DEB72A970FB6F894DEBF0FBECDBF45
:100A900081E1898380E28A8380E58B8380E18C8396
:100AA0008D8381ECE82E82E0F82E40915C0250911B
:100AB0005D02C70160E070E09E012F5F3F4F05E0DF
:100AC0000E940405482F80E090E0B7010E942E0CA0
:100AD0002A960FB6F894DEBF0FBECDBFCF91DF913F
:100AE0000F91FF90EF900895EF92FF920F93DF9395
:100AF000CF93CDB7DEB72A970FB6F894DEBF0FBEFF
:100B0000CDBF80910B028F5F80930B0281E08983C0
:100B10001A821B8291ECE92E92E0F92E40915C0240
:100B200050915D02C70160E070E09E012F5F3F4F72
:100B300003E00E940405482F80E090E0B7010E9486
:100B40002E0C2A960FB6F894DEBF0FBECDBFCF9104
:100B5000DF910F91FF90EF900895FFCF20910E024B
:100B600030910F022F5F3F4F30930F0220930E0200
:100B700021503040C9010895EF92FF920F93CF9317
:100B8000DF93EC01790180910E0290910F020196A2
:100B900090930F0280930E02019720E8288320EAA9
:100BA00029839A838B837C836D835E834F8340E0AC
:100BB00050E0602F70E00AC0FE01E80FF11DD70180
:100BC000A40FB51F8C9180834F5F5F4F842F885F88
:100BD000461757078CF3802F885FDF91CF910F91D5
:100BE000FF90EF900895EF92FF920F93CF93DF93D2
:100BF000EC0180E8888380EA8983FA82EB827C8337
:100C00006D835E834F8340E050E0602F70E00AC048
:100C1000FE01E80FF11DD901A40FB51F8C9180834F
:100C20004F5F5F4F842F885F461757078CF3802FE5
:100C3000885FDF91CF910F91FF90EF900895EF9231
:100C4000FF920F931F93DF93CF93CDB7DEB7C050C2
:100C5000D1400FB6F894DEBF0FBECDBF8C016CE063
:100C600070E00E945414CB0141967E010894E11C6F
:100C7000F11CB7014FEF0E946D02C8016CE070E0FB
:100C80000E9454149C0185E190E0289F602D11245E
:100C90002F5F3F4F289FD001299FB00D389FB00D87
:100CA00011248E010C5F1F4FA7011FC0A895F801EA
:100CB000E20FF31F9081FA01E20FF31F8081882376
:100CC00011F49130B9F0FA01E20FF31F90E02B5EBE
:100CD0003F4F240F351F8191980FE217F307D9F783
:100CE000992311F080E007C06B5E262F30E02A17B1
:100CF0003B07E0F281E0C050DF4F0FB6F894DEBF53
:100D00000FBECDBFCF91DF911F910F91FF90EF905C
:100D10000895CF92DF92EF92FF920F931F93DF938C
:100D2000CF93CDB7DEB7C050D1400FB6F894DEBF39
:100D30000FBECDBF6E010894C11CD11CF601CE01BF
:100D400081961192E817F907E1F701E110E07E01C1
:100D50000894E11CF11CA895C801B7014FEF0E944F
:100D60006D02F60120E030E0A89593818081882310
:100D700011F49130E9F0D701A20FB31F90E0AF0159
:100D80004B5E5F4F8D91980FA417B507D9F7992344
:100D900011F080E00EC02B5E3F4F2C3F310511F06B
:100DA000FD01E2CF0F5F1F4F82E00030180799F678
:100DB00081E0C050DF4F0FB6F894DEBF0FBECDBF4D
:100DC000CF91DF911F910F91FF90EF90DF90CF9027
:100DD00008958F929F92AF92BF92CF92DF92EF923F
:100DE000FF920F931F93DF93CF93CDB7DEB7CC5F06
:100DF000D0400FB6F894DEBF0FBECDBF7B01842E6E
:100E0000D22EC32E8617970708F447C0CB016CE09B
:100E100070E00E9454145B0181E190E0A80EB91EBD
:100E2000C5018E010F5F1F4FB8014CEF0E946D028C
:100E30002D2D3C2DC9016C01C7016CE070E00E94B2
:100E4000541495E1899F70011124E00EF11EF60102
:100E5000D7019C2C02C081918D938E2F8919881502
:100E6000D0F3C5018E010F5F1F4FB8014CEF0E94F8
:100E70005902C501B8014CEF0E946D0208C0F6018D
:100E800091916F01F70181917F01981731F48C2DB9
:100E900089198815A0F381E001C080E0C450DF4FBC
:100EA0000FB6F894DEBF0FBECDBFCF91DF911F917B
:100EB0000F91FF90EF90DF90CF90BF90AF909F90F9
:100EC0008F900895682F80E190E00E9416010895A8
:100ED000CF92DF92EF92FF920F93DF93CF93CDB734
:100EE000DEB72A970FB6F894DEBF0FBECDBF7C01E8
:100EF00084E0898380E28A8380E58B831C821D8263
:100F000040915C0250915D025E834F83688781E06F
:100F1000C82E83E0D82EC60160E070E09E012F5FEE
:100F20003F4F08E00E94F305482F80E090E0B601B3
:100F30000E942E0C2A960FB6F894DEBF0FBECDBFCE
:100F4000CF91DF910F91FF90EF90DF90CF900895B8
:100F5000EF92FF920F931F93DF93CF93CDB7DEB73E
:100F600065970FB6F894DEBF0FBECDBF7C01D901E7
:100F70001F967C911F9750962C91509751960C91EB
:100F8000519752966C91529753961C9153971631E4
:100F9000A8F5AE014F5F5F4FFA01CE014696119260
:100FA000E817F907E1F7FA0104C053968C915397BB
:100FB000819311968E2F841B8117B8F3902F80E0B8
:100FC000062F10E0082B192B972F80E030E0822BA2
:100FD000932BB80145E19E012F5F3F4F0E94E90628
:100FE000882341F0C8010E941F06882319F0C70119
:100FF00060E002C0C70160E10E94680765960FB615
:10100000F894DEBF0FBECDBFCF91DF911F910F913E
:10101000FF90EF900895CF92DF92EF92FF920F939F
:10102000DF93CF93CDB7DEB72A970FB6F894DEBF24
:101030000FBECDBF7C0182E0898380E28A8380E598
:101040008B831C821D8240915C0250915D025E8305
:101050004F83688791E0C92E93E0D92EC60160E0E6
:1010600070E09E012F5F3F4F08E00E94F305482F7C
:1010700080E090E0B6010E942E0C2A960FB6F894FC
:10108000DEBF0FBECDBFCF91DF910F91FF90EF90EC
:10109000DF90CF900895CF93DF93EC0181E190E052
:1010A0000E948906882341F080E190E061E00E947F
:1010B0001601CE0160E007C080E190E060E00E9490
:1010C0001601CE0160E10E940B08DF91CF910895D7
:1010D000EF92FF920F931F93F801A085A13019F0B2
:1010E000A33081F408C0CB01BA01A901980187019E
:1010F0000E944B0807C0CB01BA01A90198018701E2
:101100000E94A8071F910F91FF90EF9008958F30D4
:10111000910578F4FC01EE0FFF1FEE0FFF1FE80FA3
:10112000F91FEB5BFC4F418352836383748381E03F
:10113000808380E090E008958F309105B0F4FC0149
:10114000EE0FFF1FEE0FFF1FE80FF91FEB5BFC4FC9
:101150008081882351F020E030E081819281A38159
:10116000B4810097A105B10511F021E030E0C9017B
:1011700008958F30910550F4FC01EE0FFF1FEE0F24
:10118000FF1FE80FF91FEB5BFC4F108280E090E03F
:101190000895F894E5E4F3E010821182128213823C
:1011A0001482359683E0E039F807B1F716BC14BC19
:1011B00084E085BD8FE187BD80916E008260809361
:1011C0006E00789408951F920F920FB60F9211241B
:1011D0008F939F93AF93BF93EF93FF9380914103BE
:1011E00090914203A0914303B09144030196A11D45
:1011F000B11D8093410390934203A0934303B093A6
:101200004403E6E4F3E080819181A281B3810097F9
:10121000A105B10539F00197A109B1098083918336
:10122000A283B383359683E0E139F80761F716BCF2
:10123000FF91EF91BF91AF919F918F910F900FBE52
:101240000F901F90189582E08093C00088E98093EA
:10125000C10086E08093C2001092C50088E08093B0
:10126000C400519A5098589A08951F920F920FB641
:101270000F9211242F938F939F93EF93FF93F894E2
:101280008091C00087FFFCCF8093D1032091C600DE
:10129000209390038091110290E0FC01EF56FC4FE7
:1012A000208301968F7390708093110280911202B7
:1012B0008F5F809312027894FF91EF919F918F91AD
:1012C0002F910F900FBE0F901F901895DC01F8948E
:1012D000809112028823B1F0815080931202789499
:1012E000E0911002F0E0EF56FC4F80818C938091EA
:1012F000100290E001968F7390708093100221E0AD
:1013000030E003C0789420E030E0C9010895982FC0
:101310008091C00085FFFCCF9093C60081E090E0F3
:101320000895EF92FF920F931F93FB017A01918131
:101330008081803839F5913269F0903AA1F091308E
:1013400009F580E090E060E070E0AF0197010E9455
:10135000BC0418C080E090E060E070E0AF0197014D
:101360000E94A2040FC0728160E0838190E0682B2C
:10137000792B80E090E040E050E020E030E08F0109
:101380000E94680881E01F910F91FF90EF900895EF
:10139000909318028093170270931A0260931902B7
:1013A00080E00895FF920F931F93CF93DF93F62E63
:1013B0004091190250911A024115510511F48FEF15
:1013C00027C0EC01FC0190E000E003C08191080F10
:1013D0009F5F9F15D8F38AEFFA010995E0911902F2
:1013E000F0911A028F2D099510E003C0899109959B
:1013F0001F5FE0911902F0911A021F15B8F3802FB8
:101400000995E0911902F0911A028FEA099580E09E
:10141000DF91CF911F910F91FF900895FF920F934D
:101420001F93DF93CF930F92CDB7DEB7082FF92E1E
:10143000162FE0911702F0911802309711F44FEF38
:1014400080C0CE0101960995181619060CF078C0D7
:10145000212F30E08091130290911402821793079C
:1014600024F0109214021092130240911302509132
:1014700014022981FA01EE52FC4F2083CA01019621
:1014800090931402809313022A3F71F48091D20347
:101490008A3F09F455C02093D20381E090E09093F5
:1014A0001402809313024CC02F3A09F049C00697EA
:1014B0000CF446C08091D303282F30E0CA01029774
:1014C00028173907ECF5CA0103972817390764F084
:1014D0008217930749F4A4EDB3E090E0FA01319745
:1014E0009F012E523C4F07C010921402109213021B
:1014F00027C08D91980FA217B307D9F7EE52FC4F72
:1015000080819817E9F4802F9F2D9C01D90122E05A
:1015100030E007C0F901EE52FC4F80818D932F5FC0
:101520003F4F422F42508091130290911402029734
:10153000281739077CF3109214021092130201C08D
:1015400040E0842F0F90CF91DF911F910F91FF907A
:10155000089580911C0290911B02891B8F70089541
:1015600080915B02089580911D02089530E050E063
:10157000BFEAAAEF24C0FB01E50FF11D20812F3F38
:10158000C1F421812F3F29F4FC01E30FF11D2083D9
:101590000DC0213029F4FC01E30FF11DA08306C02A
:1015A000223029F4FC01E30FF11DB0833F5F5F5F40
:1015B00005C0FC01E30FF11D20833F5F5F5F5417FF
:1015C000D0F2832F0895CF93DF93DC01EB0180E00D
:1015D00020E03FEF62E051E02CC098819A3F51F447
:1015E000FD01E80FF11D30838F5FFD01E80FF11D54
:1015F00050830BC09F3A59F4FD01E80FF11D308371
:101600008F5FFD01E80FF11D60838F5F10C0E82F31
:10161000F0E08F5F9F3F41F4EA0FFB1F9083FD01D5
:10162000E80FF11D9083F1CFEA0FFB1F90832F5F2E
:101630002196241790F2DF91CF91089510924206DF
:1016400090E49093430695E090934406809345067A
:1016500082E496E064E00E94D20908951092420666
:1016600090E49093430692E090934406809345065D
:1016700082E496E064E00E94D20908951092420646
:1016800020E320934306909344068093450682E42A
:1016900096E064E00E94D20908951092420681E02B
:1016A000809343068093440682E496E063E00E94C0
:1016B000D20908951092420680E180934306109269
:1016C000440682E496E063E00E94D20908951092F5
:1016D00042061092430682E496E062E00E94D2093C
:1016E00008950F931F93CF93DF93FC018081833084
:1016F00009F47AC0843030F4813059F0823009F036
:1017000075C06EC0813109F44EC0813A09F06EC0D7
:1017100064C0938580E0248530E0822B932B9093E6
:101720005D0280935C02958580E0268530E0822B07
:10173000932B90935F0280935E02978580E02089CF
:10174000C22FD0E0C82BD92B809161029091620208
:10175000C817D90741F084E090E048EE53E060E01C
:1017600070E00E948708D0936202C09361020091EA
:101770005E0210915F020E944D1190E09160081787
:10178000190749F00E944D1190E091600E943E0BB4
:101790000E944D0B2BC080915B028330B9F081E039
:1017A00080935B0213C00185009360020E944D117B
:1017B00010E090E08F7090700B960817190749F0B1
:1017C0000E944D118F70855F0E942E0B0E945A0B54
:1017D0000DC083E080935B0209C00E94670B06C0C6
:1017E00081E080931D0202C010921D02DF91CF9113
:1017F0001F910F9108951F93CF93DF93EC01142F46
:1018000090911C0280911B02292F281B822F8F7020
:101810008F3001F123E2929F900111242B5E3B4F08
:10182000C90150E00E949F1440911C02242F30E017
:1018300083E290E0289FF001299FF00D389FF00D82
:101840001124EE5EFB4F1283D183C0834F5F4F7034
:1018500040931C02DF91CF911F910895EF92FF9268
:101860000F931F93F82EE92E02E416E080E1809397
:10187000420690934306F092440610924506109259
:101880004606C80105960E94E30A482F4B5F8F2D3C
:101890009E2DB8010E94FB0B1F910F91FF90EF90BE
:1018A00008950F931F93CF93DF93EC0190911B0248
:1018B00080911C02891B8F7011F420E02BC0892FAE
:1018C00090E0BE016D5F7F4F03E210E0809F9001CA
:1018D000819F300D909F300D1124F901EE5EFB4F7A
:1018E00042812B5E3B4FCB01B90150E00E949F1417
:1018F00080911B0290E0809FF001819FF00D909FEE
:10190000F00D1124EE5EFB4F22812A8380819181AC
:1019100099838883822FDF91CF911F910F91089532
:101920000F931F93CF93DF93EC0190911B02809153
:101930001C02891B8F7011F430E030C0892F90E0B9
:10194000BE016D5F7F4F03E210E0809F9001819F99
:10195000300D909F300D1124F901EE5EFB4F428156
:101960002B5E3B4FCB01B90150E00E949F142091A8
:101970001B02822F90E0809FF001819FF00D909FCD
:10198000F00D1124EE5EFB4F32813A83808191810C
:10199000998388832F5F2F7020931B02832FDF9101
:1019A000CF911F910F91089580911C0290911B027D
:1019B000891B8F70B1F080915B02833091F480912C
:1019C0001D02813071F487E292E00E94900C109227
:1019D0001E0210921F0210922002109221021092F9
:1019E0001D0280911C0290911B02891B8F7009F4CB
:1019F00061C080915B02833009F05CC080911D0260
:101A0000823011F58091220290912302A09124024C
:101A1000B09125020196A11DB11D809322029093E1
:101A20002302A0932402B09325020397A105B105D8
:101A300008F440C010922202109223021092240255
:101A40001092250210921D0287E292E00E94510C32
:101A500080932602882371F180911E0290911F02CB
:101A6000A0912002B09121020196A11DB11D809389
:101A70001E0290931F02A0932002B09321020B97A5
:101A8000A105B10560F010921E0210921F02109283
:101A900020021092210281E080931D02089582E0CD
:101AA00080931D028AE292E0609129020E94D2098D
:101AB0001092260208958AB1806C8AB98BB1806C2D
:101AC0008BB984B1836084B985B1836085B9229A6A
:101AD0002A9A239A2B98519A509A81E08BB90895AB
:101AE00084B7877F84BF2FE088E190E00FB6F89439
:101AF000A895809360000FBE2093600008952898F9
:101B000088EE93E028EC30E0F9013197F1F7019786
:101B1000D9F7289A0895E4EEF6E0828193818193C3
:101B2000919386E0E63FF807C1F78091A206909175
:101B3000A3069183808380914D02893088F480913F
:101B40004D02E82FF0E02091A2063091A306EE0F9F
:101B5000FF1FE850F94F318320838F5F80934D0240
:101B6000089587E090E00E949C08892B09F58091F8
:101B70004E02813031F42B9A10924E02109257028D
:101B80000BC0809157028F5F809357028B3020F0FB
:101B90002B9884E18093570287E090E00E94B90877
:101BA00087E090E044E650E060E070E00E94870843
:101BB000089583E090E00E949C08892B69F4A89521
:101BC00083E090E00E94B90883E090E044E650E0B2
:101BD00060E070E00E948708089589E090E00E942C
:101BE0009C08892B71F489E090E00E94B90889E093
:101BF00090E042E350E060E070E00E9487080E94BD
:101C0000D40C089581E090E00E949C08892B11F586
:101C100080917A00806480937A0080917A0084FFBA
:101C2000FCCF80917800909179009093A3068093E7
:101C3000A20680917A00806180937A0081E090E032
:101C40000E94B90881E090E04AE050E060E070E076
:101C50000E94870888E090E00E949C08892B09F088
:101C600044C086E080937C0080E49CE90197F1F712
:101C700080917A00806480937A0080917A0084FF5A
:101C8000FCCF80917800909179000E94150380919B
:101C90007A00806180937A0087E080937C0080E402
:101CA0009CE90197F1F780917A00806480937A0033
:101CB00080917A0084FFFCCF809178009091790028
:101CC0000E941A0380917A00806180937A001092BA
:101CD0007C0088E090E00E94B90888E090E048EB42
:101CE0005BE060E070E00E9487080895BF92CF92A9
:101CF000DF92EF92FF920F931F93CF93DF93109297
:101D00004B0210924C0252EFC52E56E0D52E7601B2
:101D100047E0B42EF701C081D181809102019091FA
:101D20000301C817D90708F498C000910201109167
:101D300003010E94FF02C01BD10B90E0C817D90716
:101D400008F48BC0B39482E090E0E80EF91E9AE0AC
:101D5000B91601F784E180934B02BB24B39437E0BA
:101D6000F32EF601C081D18180910201909103018F
:101D70008C179D07C8F000910201109103010E9489
:101D8000FF020C1B1D0B90E00817190768F0F39475
:101D900082E090E0C80ED91E9AE0F91611F784E1AE
:101DA00080934B02BB24B39424EEE22E26E0F22E65
:101DB000DD24F701C081D18180910201909103015E
:101DC0008C179D0768F400910201109103010E9495
:101DD000FF02C01BD10B90E08C179D0770F40CC064
:101DE00000910201109103010E94FF020C1B1D0BC8
:101DF00090E08017910708F4D39482E090E0E80E19
:101E0000F91E98EFE91696E0F90699F66D2D70E047
:101E1000882777FD8095982F0E94011220E030E0FE
:101E200040E950E40E94D11118163CF4EAE0DE0EBD
:101E3000D0924C02BB24B39402C0D0924C02B09218
:101E40004A0280914A02DF91CF911F910F91FF903A
:101E5000EF90DF90CF90BF900895BB2480CFCF92BA
:101E6000DF92EF920F931F9385E090E00E949C0811
:101E7000892BE1F50E940203882361F50E94B00AD4
:101E80008330A9F410914D02C0900201D09003015B
:101E90000E94FF02282F00914B02E0904C02812FFC
:101EA00068EF76E0A6010E945A0310924D028091DD
:101EB00055029091560201969093560280935502D6
:101EC000895B9B4038F081E00E9408031092560223
:101ED0001092550285E090E00E94B90885E090E0FC
:101EE00044E650E060E070E00E9487081F910F9187
:101EF000EF90DF90CF9008950F931F930E94FF0201
:101F0000082F10910C070E94FF02181749F00E9439
:101F1000FF0280930C0780E090E0602F0E94160182
:101F200086E090E00E949C08892B09F05AC00E942C
:101F30008B0D8091500280934F020E94760E809309
:101F40005002882329F0299A81E080934E0201C033
:101F500029980E94B00A833031F580914F0288237E
:101F600021F4809150028130F1F42091510230919E
:101F7000520280915302909154028217930798F471
:101F80000E94320410925202109251028091530228
:101F90009091540221E08C32920728F44496909359
:101FA000540280935302809151029091520221E099
:101FB0008139920728F0109254021092530205C002
:101FC0000196909352028093510286E090E00E9425
:101FD000B90886E090E04AE050E060E070E00E94DE
:101FE00087081F910F91089584E090E00E949C085B
:101FF000892B31F50E94B00A8330B1F40E94F304BA
:10200000882319F40E943B0502C00E94740584E0F5
:1020100090E00E94B90884E090E040E355E760E07A
:1020200070E00E948708089584E090E00E94B9085B
:1020300084E090E048EE53E060E070E00E948708A2
:1020400008950F931F9382E090E00E949C08892BD3
:1020500011F50E94670B809158028F5F80935802A0
:102060000E94B00A833059F482E090E00E94B908DF
:1020700082E090E040E157E260E070E00AC082E078
:1020800090E00E94B90882E090E048EE53E060E002
:1020900070E00E948708809158028D3320F00E94E2
:1020A0007F0D1092580284EA96E060E40E940E0AC6
:1020B000482F90E090935A0280935902892BB9F1EE
:1020C0008091A406882319F0803189F508C0415019
:1020D00085EA96E0642F70E00E94710B28C0109191
:1020E000A7060091A806455082E696E069EA76E0E8
:1020F0000E94B60A482F9091660680E020916706FC
:1021000030E0822B932B20915C0230915D0282178C
:10211000930769F4912F80E0202F30E0822B932BDE
:1021200062E676E050E00E949109109258021F91F9
:102130000F91089584B7877F84BF2FE088E190E0F6
:102140000FB6F894A895809360000FBE20936000AE
:102150000E945B0D0E9440110E9423090E94C90841
:102160000E9453000E94630080E090E00E944F01B3
:10217000982F81508E3F08F090E590930C07892F9F
:102180000E94050320E032E048EC50E0A89585B1BC
:10219000832785B988E893E1FA013197F1F7019730
:1021A000D9F7A89585B1832785B988E893E1FA0125
:1021B0003197F1F70197D9F72F5F253039F7A895B7
:1021C00086E699E067E879E00E94C80985E090E03A
:1021D00044E650E060E070E00E94870886E090E00E
:1021E0004AE050E060E070E00E94870887E090E0FD
:1021F00048EE53E060E070E00E94870888E090E0DD
:1022000040E157E260E070E00E94870883E090E0E0
:1022100044E650E060E070E00E94870884E090E0CF
:1022200048EE53E060E070E00E94870881E090E0B3
:1022300045E050E060E070E00E94870882E090E0B6
:1022400048EE53E060E070E00E94870889E090E08B
:1022500040E157E260E070E00E94870878940E94B5
:10226000D90D0E9421100E94F40F0E947C0F0E9441
:102270002F0F0E94020E0E94B10D0E94ED0DEFCFB4
:102280008AB1877C8AB987B1817C87B98BB1886331
:102290008BB988B18E6388B90895359902C088E0FA
:1022A00001C080E0349B8460339B8260329B8160FC
:1022B0004D9B80684C9B80644B9B8062319B80610E
:1022C0000895FC0120E030E04CE050E09081892F3F
:1022D00080538A3020F4892F90E0C09710C0892F56
:1022E0008154863020F4892F90E0C79708C0892F49
:1022F0008156863060F4892F90E087559040042EF7
:1023000002C0880F991F0A94E2F7282B392B3196C7
:10231000445050408FEF4C3F5807C1F6C901089513
:10232000FC0140E024E030E09081892F80538A3026
:1023300020F4892F90E0C09710C0892F81548630F7
:1023400020F4892F90E0C79708C0892F81568630E6
:1023500058F4892F90E087559040022E02C0880FD4
:10236000991F0A94E2F7482B3196245030408FEFA2
:102370002C3F3807C9F6842F0895282F30E02F709E
:1023800030702A3031051CF48F70805D08952A501A
:1023900030402630310510F080E008958F70895C60
:1023A0000895A8E1B0E0E7EDF1E10C9474146983BD
:1023B0007A838B839C832D833E834F83588789E068
:1023C000E82EF12CEC0EFD1ECE010196B7010E9405
:1023D00083138E010F5E1F4FCE010596B8010E9438
:1023E00083138985823040F08989823028F0C701C3
:1023F000B8010E94FB1301C08FEF6896E6E00C94D1
:102400009014A8E0B0E0E7E0F2E10C9471149B01B5
:10241000AC0183E08983DA01C9018827B7FD839580
:102420009927AA27BB27B82E21153105410551054B
:1024300019F482E089833AC08823A9F0203080E033
:10244000380780E0480780E8580729F460E070E02A
:1024500080E09FEC30C0EE24FF248701E21AF30AEB
:10246000040B150B02C079018A018EE1C82ED12C14
:10247000DC82CB82ED82FE820F831887C801B70110
:102480000E945F1201971816190684F4082E04C0E2
:10249000EE0CFF1C001F111F0A94D2F7ED82FE8282
:1024A0000F831887C81AD90ADC82CB82BA82CE0180
:1024B00001960E94AE122896E9E00C948D14EF92DA
:1024C000FF920F931F937B018C0180E0E81680E060
:1024D000F80681E0080780E0180788F48FEFE81617
:1024E000F1040105110531F028F088E090E0A0E04A
:1024F000B0E017C080E090E0A0E0B0E012C080E063
:10250000E81680E0F80680E0080781E0180728F068
:1025100088E190E0A0E0B0E004C080E190E0A0E0BD
:10252000B0E020E230E040E050E0281B390B4A0BDD
:102530005B0B04C016950795F794E7948A95D2F73C
:10254000F701EC5FFE4F8081281B310941095109D9
:10255000C9011F910F91FF90EF900895DF92EF92C4
:10256000FF920F931F93FC01E480F5800681178191
:10257000D1808081823048F480E090E0A0E1B0E03A
:10258000E82AF92A0A2B1B2BA5C0843009F49FC026
:10259000823021F4EE24FF24870105C0E114F10408
:1025A0000105110519F4E0E0F0E096C06281738145
:1025B0009FEF623879070CF05BC022E83FEF261BE3
:1025C000370B2A3131052CF020E030E040E050E0BC
:1025D0002AC0B801A701022E04C0769567955795C9
:1025E00047950A94D2F781E090E0A0E0B0E004C003
:1025F000880F991FAA1FBB1F2A95D2F70197A1091F
:10260000B1098E219F21A023B1230097A105B10517
:1026100021F081E090E0A0E0B0E09A01AB01282B2E
:10262000392B4A2B5B2BDA01C9018F779070A07090
:10263000B07080349105A105B10539F427FF09C0B8
:10264000205C3F4F4F4F5F4F04C0215C3F4F4F4FC7
:102650005F4FE0E0F0E02030A0E03A07A0E04A075A
:10266000A0E45A0710F0E1E0F0E079018A0127C008
:102670006038710564F5FB01E158FF4FD801C701CF
:102680008F779070A070B07080349105A105B1056E
:1026900039F4E7FE0DC080E490E0A0E0B0E004C0B3
:1026A0008FE390E0A0E0B0E0E80EF91E0A1F1B1FC8
:1026B00017FF05C016950795F794E794319687E0C4
:1026C00016950795F794E7948A95D1F705C0EE24FF
:1026D000FF248701EFEFF0E06E2F6795662767957F
:1026E000902F9F77D794DD24D7948E2F8695492FEE
:1026F000462B582F5D29B701CA011F910F91FF90FA
:10270000EF90DF900895FC01DB014081518122812F
:10271000622F6F7770E0221F2227221F9381892F5B
:10272000880F822B282F30E0991F9927991F119627
:102730009C93119721153105A9F5411551056105A6
:10274000710511F482E037C082E89FEF13969C93E5
:102750008E9312979A01AB0167E0220F331F441F3B
:10276000551F6A95D1F783E08C930DC0220F331F5C
:10277000441F551F12968D919C91139701971396A4
:102780009C938E931297203080E0380780E04807B2
:1027900080E4580758F314962D933D934D935C9322
:1027A000179708952F3F310579F4411551056105BB
:1027B000710519F484E08C93089564FF03C081E0EF
:1027C0008C9312C01C9210C02F57304013963C932C
:1027D0002E93129783E08C9387E0440F551F661F5A
:1027E000771F8A95D1F7706414964D935D936D931E
:1027F0007C93179708951F93DC01FB019C91923005
:1028000008F447C08081823008F443C0943051F40A
:1028100011961C91843099F58181682F70E0611BBD
:1028200071093FC0843021F0923031F48230B9F127
:102830008181882389F12DC011961C9111978230D6
:10284000F1F081811817D9F412962D913C911397CC
:10285000828193818217930794F028173907BCF07F
:1028600014968D919D910D90BC91A02D2481358160
:1028700046815781281739074A075B0718F4112347
:1028800041F00AC082179307A407B50740F411234B
:1028900019F061E070E005C06FEF7FEF02C060E00B
:1028A00070E0CB011F910895AA1BBB1B51E107C02B
:1028B000AA1FBB1FA617B70710F0A61BB70B881FD0
:1028C000991F5A95A9F780959095BC01CD0108955F
:1028D0002F923F924F925F926F927F928F929F9230
:1028E000AF92BF92CF92DF92EF92FF920F931F931E
:1028F000CF93DF93CDB7DEB7CA1BDB0B0FB6F894CF
:10290000DEBF0FBECDBF09942A88398848885F840E
:102910006E847D848C849B84AA84B984C884DF807F
:10292000EE80FD800C811B81AA81B981CE0FD11D63
:102930000FB6F894DEBF0FBECDBFED010895FB01C9
:10294000DC0102C001900D9241505040D8F708952B
:04295000F894FFCF29
:1029540001504001000102020303030304040404C0
:102964000404040405050505050505050505050517
:1029740005050505060606060606060606060606F7
:1029840006060606060606060606060606060606E3
:1029940006060606070707070707070707070707C7
:1029A40007070707070707070707070707070707B3
:1029B40007070707070707070707070707070707A3
:1029C4000707070707070707070707070707070793
:1029D4000707070708080808080808080808080877
:1029E4000808080808080808080808080808080863
:1029F4000808080808080808080808080808080853
:102A04000808080808080808080808080808080842
:102A14000808080808080808080808080808080832
:102A24000808080808080808080808080808080822
:102A34000808080808080808080808080808080812
:102A44000808080808080808080808080808080802
:042A5400080808085E
:107000000C9434380C9446380C9446380C9446381A
:107010000C9446380C9446380C9446380C944638F8
:107020000C9446380C9446380C9446380C944638E8
:107030000C9446380C9446380C9446380C944638D8
:107040000C9446380C9446380C9446380C944638C8
:107050000C9446380C9446380C9446380C944638B8
:107060000C9446380C94463811241FBECFEFD8E05C
:10707000DEBFCDBF11E0A0E0B1E001C01D92A53898
:10708000B107E1F70E947C3C0C94343D0C9400382D
:10709000229A8AB184648AB957982A9A089582E01C
:1070A000982F9A95F1F75A9A982F9A95F1F75A983E
:1070B0008A95F1F708950F931F93CF93DF93C7E05D
:1070C000D0E0082F10E0C8010C2E02C095958795DE
:1070D0000A94E2F780FF02C05E9A01C05E980E94A7
:1070E0004F3821978FEFCF3FD80769F7DF91CF91C6
:1070F0001F910F910895EF92FF920F931F93CF93DB
:10710000DF93C7E0D0E010E000E681E0E82EF12C4C
:107110008BB180278BB94F9B08C0C7010C2E02C0D2
:10712000880F991F0A94E2F7182B0E944F38219775
:107130008FEFCF3FD80761F7812FDF91CF911F915C
:107140000F91FF90EF900895DF92EF92FF920F93CF
:107150001F93CF93DF938C01D62EF42EE52E2A9821
:1071600080ED97E00197F1F784E80E945B3880E0BA
:107170000E945B38812F0E945B38802F0E945B3811
:107180002F2D3E2DC901EC0110E004C089910E9411
:107190005B381F5F1D15D0F380ED97E00197F1F785
:1071A0002A9ADF91CF911F910F91FF90EF90DF907E
:1071B0000895EF92FF920F931F938C012A9830ED60
:1071C000E32E37E0F32EC7010197F1F783E80E9421
:1071D0005B38C801880F892F881F990B91950E94F1
:1071E0005B38802F880F0E945B3880E00E945B38FC
:1071F000C7010197F1F72A9A1F910F91FF90EF9025
:1072000008950F931F93DF93CF930F92CDB7DEB7FF
:107210008C01698380E090E061E0AE014F5F5F4FD9
:107220000E94A438C8010E94D93880E29EE40197E8
:10723000F1F70F90CF91DF911F910F9108950F9368
:107240001F938C012A980E944F3884ED0E945B386E
:1072500080E00E945B38812F0E945B38802F0E9463
:107260005B3880E00E945B380E947B382A9A1F912D
:107270000F9108950F931F938C012A9880ED97E04A
:107280000197F1F782ED0E945B38C801880F892FC2
:10729000881F990B91950E945B38802F880F0E9460
:1072A0005B3880E00E945B3800E080E00E945B3841
:1072B0000F5F0430D1F70E947B38E0EDF7E03197A3
:1072C000F1F72A9A1F910F9108950F931F93DF935F
:1072D000CF9300D0CDB7DEB78C017A83698380E08D
:1072E00090E062E0AE014F5F5F4F0E94A438C8019A
:1072F0000E94D93880E29EE40197F1F70F900F9039
:10730000CF91DF911F910F9108950F931F938C01DF
:107310002A9880ED97E00197F1F782ED0E945B38A3
:10732000C801880F892F881F990B91950E945B389F
:10733000802F880F0E945B3880E00E945B3800E05D
:1073400080E00E945B380F5F0430D1F70E947B38E9
:10735000082F10E00E947B38E0EDF7E03197F1F75D
:107360002A9A382F20E0202B312BC9011F910F9131
:1073700008950F931F93DF93CF9300D000D0CDB724
:10738000DEB78C0149835A836B837C8380E090E075
:1073900064E0AE014F5F5F4F0E94A438C8010E94B5
:1073A000D93880E29EE40197F1F70F900F900F908B
:1073B0000F90CF91DF911F910F9108959F92AF92FF
:1073C000BF92CF92DF92EF92FF920F931F938C01A7
:1073D0002A9880ED97E00197F1F782ED0E945B38E3
:1073E000C801880F892F881F990B91950E945B38DF
:1073F000802F880F0E945B3880E00E945B3800E09D
:1074000080E00E945B380F5F0430D1F70E947B3828
:10741000A82EBB24CC24DD240E947B38982E0E9409
:107420007B38E82E0E947B38FF2400E010E08701C3
:10743000FF24EE2490E0A0E0B0E0B82FAA2799271F
:107440008827E82AF92A0A2B1B2BEA28FB280C2973
:107450001D2980ED97E00197F1F72A9A992D80E098
:10746000AA2797FDA095BA2FE82AF92A0A2B1B2BE9
:10747000B701C8011F910F91FF90EF90DF90CF905F
:10748000BF90AF909F9008950F931F938C019B0125
:1074900080E090E0642FA9010E94A438C8010E94F6
:1074A000D93880E29EE40197F1F71F910F9108957A
:1074B0000F931F93DF93CF93CDB7DEB7CF5FD0404D
:1074C0000FB6F894DEBF0FBECDBF8C01FE01319622
:1074D000CF01AF01860F911D2FEF01C02193E81757
:1074E000F907E1F780E090E00E94A438C8010E940B
:1074F000D93880E29EE40197F1F7C150DF4F0FB613
:10750000F894DEBF0FBECDBFCF91DF911F910F91D9
:107510000895DF92EF92FF920F931F93CF93DF9323
:107520008C01F62EE72ED42E2A9880ED97E0019755
:10753000F1F782ED0E945B38C801880F892F881F00
:10754000990B91950E945B38802F880F0E945B38C1
:1075500080E00E945B3800E080E00E945B380F5FB3
:107560000430D1F78F2D9E2D9C01E90100E004C06D
:107570000E947B3889930F5F0D15D0F380ED97E063
:107580000197F1F72A9A8D2DDF91CF911F910F91DD
:10759000FF90EF90DF9008950F931F932A9800EDCE
:1075A00017E0C8010197F1F787ED0E945B380E9450
:1075B0007B38F8013197F1F72A9A1F910F910895BE
:1075C00040E050E00AC020E030E02F5F3F4F6CE029
:1075D00020383607D1F74F5F5F4F4817590798F3A8
:1075E0000895982F8091C00085FFFCCF9093C6002E
:1075F00081E090E00895CF93DF93F999FECF409119
:1076000080015091810183E0FA0180935700E89551
:1076100007B600FCFDCFA0E0B1E0E0E0F0E061E003
:1076200011963C91119720E08C91E901C80FD11D72
:107630000E0160935700E895112432961296E038B7
:10764000F10571F785E0FA0180935700E89507B6D8
:1076500000FCFDCF81E180935700E895DF91CF9149
:1076600008950F931F93CF93DF93009180011091A2
:107670008101C0E0D1E0C801BC01DE01FB01259120
:10768000349111965C91119740E08C91FA01E80FCA
:10769000F11D2E173F0741F18091C00085FFFCCFFF
:1076A0008FEF8093C6008091C00085FFFCCF8FEFE5
:1076B0008093C6008091C00085FFFCCF1093C60068
:1076C0008091C00085FFFCCF0093C6009881809117
:1076D000C00085FFFCCF9093C6002196F1E0C03832
:1076E000DF07A1F780E009C06E5F7F4F129681E04F
:1076F000A038B80709F0C2CF81E0DF91CF911F9188
:107700000F910895089581E085BF15BE0C94000087
:10771000089584B7877F84BF2FE088E190E00FB69B
:10772000F894A895809360000FBE209360000895A0
:107730002F923F924F925F926F927F928F929F9281
:10774000AF92BF92CF92DF92EF92FF920F931F936F
:10775000DF93CF93CDB7DEB7CF5FD0400FB6F894AD
:10776000DEBF0FBECDBF21E1A22EB12CDD244E0124
:107770000894811C911CCC24CA949DEF292E312C95
:107780002C0E3D1EC501B4014FEF0E94893A8401C1
:10779000F40190818091C00085FFFCCF9093C600DA
:1077A0003196E215F305A9F784E0E82EF12CF801F3
:1077B00090818381992309F066C0813009F063C00C
:1077C000DD20C9F00E94FB3A0E94313B882309F476
:1077D00078C0E0E0F1E08FEF819391E0E038F907C5
:1077E000D9F780918001909181018D0D911D909329
:1077F0008101809380018091C00085FFFCCF83E6EA
:107800008093C6008091C00085FFFCCF83E6809303
:10781000C6008091C00085FFFCCF83E68093C60040
:107820008091C00085FFFCCF83E68093C60081E095
:1078300049C0ED2DF0E0E050FF4FD301A20FB31F80
:107840008C918083D394E0E8DE16D1F40E94FB3A59
:107850000E94313B8823A9F18091800190918101A0
:1078600080589F4F9093810180938001E0E0F1E088
:10787000C19281E0E038F807D9F720E830E0DD2454
:107880002F5F3F4F07C020E030E0492E55243401E0
:107890006E0C7F1C2415350560F20B5E1F4FE5E171
:1078A000F0E0EE0EFF1E0215130509F080CF0894DC
:1078B000A11CB11CF0E0AF16F2E0BF0609F062CFE8
:1078C00001C080E0C150DF4F0FB6F894DEBF0FBE9D
:1078D000CDBFCF91DF911F910F91FF90EF90DF907F
:1078E000CF90BF90AF909F908F907F906F905F9060
:1078F0004F903F902F9008951F93CF93DF9384B7BD
:10790000877F84BF2FE088E190E00FB6F894A895B8
:10791000809360000FBE2093600088E10FB6F8945A
:1079200080936000109260000FBE0E94483882E091
:107930008093C00088E98093C10086E08093C200F4
:107940001092C50088E08093C40080E190E00E941E
:107950003A39182FF89484E690E00E94E03A219A90
:1079600020E030E071E662E048EC50E08091C00039
:1079700085FFFCCF7093C60085B1862785B980ED61
:1079800097E0FA013197F1F70197D9F785B186278A
:1079900085B980ED97E0FA013197F1F70197D9F7B2
:1079A0002F5F3F4F2230310509F788E893E128EC3B
:1079B00030E0F9013197F1F70197D9F7113019F556
:1079C0000E94983B882379F484B7877F84BF2FE097
:1079D00088E190E00FB6F894A895809360000FBE00
:1079E00020936000FFCF80E190E060E00E940139C9
:1079F000C1E1D0E0CE016FEF0E94583A219682E0BB
:107A0000C030D807B9F720E030E072E662E048EC19
:107A100050E08091C00085FFFCCF7093C60085B117
:107A2000862785B980ED97E0FA013197F1F7019744
:107A3000D9F785B1862785B980ED97E0FA013197AE
:107A4000F1F70197D9F72F5F3F4F2330310509F741
:107A5000789481E085BF15BE0C94000080E090E032
:0C7A6000DF91CF911F910895F894FFCFA3
:040000030000700089
:00000001FF