Archive member included because of file (symbol)

c:/winavr-20100110/bin/../lib/gcc/avr/4.3.3/avr6\libgcc.a(_udivmodqi4.o)
                              ./src/PLCS_Protocol.o (__udivmodqi4)
c:/winavr-20100110/bin/../lib/gcc/avr/4.3.3/avr6\libgcc.a(_udivmodhi4.o)
                              ./src/MappingTable.o (__udivmodhi4)
c:/winavr-20100110/bin/../lib/gcc/avr/4.3.3/avr6\libgcc.a(_udivmodsi4.o)
                              ./src/main.o (__udivmodsi4)
c:/winavr-20100110/bin/../lib/gcc/avr/4.3.3/avr6\libgcc.a(_exit.o)
                              c:/winavr-20100110/bin/../lib/gcc/avr/4.3.3/../../../../avr/lib/avr6/crtm2560.o (exit)
c:/winavr-20100110/bin/../lib/gcc/avr/4.3.3/avr6\libgcc.a(_clear_bss.o)
                              ./src/DeviceInfo.o (__do_clear_bss)
c:/winavr-20100110/bin/../lib/gcc/avr/4.3.3/avr6\libgcc.a(_fixunssfsi.o)
                              ./src/PLCS_Protocol.o (__fixunssfsi)
c:/winavr-20100110/bin/../lib/gcc/avr/4.3.3/avr6\libgcc.a(_addsub_sf.o)
                              c:/winavr-20100110/bin/../lib/gcc/avr/4.3.3/avr6\libgcc.a(_fixunssfsi.o) (__subsf3)
c:/winavr-20100110/bin/../lib/gcc/avr/4.3.3/avr6\libgcc.a(_mul_sf.o)
                              ./src/PLCS_Protocol.o (__mulsf3)
c:/winavr-20100110/bin/../lib/gcc/avr/4.3.3/avr6\libgcc.a(_div_sf.o)
                              ./src/main.o (__divsf3)
c:/winavr-20100110/bin/../lib/gcc/avr/4.3.3/avr6\libgcc.a(_gt_sf.o)
                              ./src/PLCS_Protocol.o (__gtsf2)
c:/winavr-20100110/bin/../lib/gcc/avr/4.3.3/avr6\libgcc.a(_ge_sf.o)
                              c:/winavr-20100110/bin/../lib/gcc/avr/4.3.3/avr6\libgcc.a(_fixunssfsi.o) (__gesf2)
c:/winavr-20100110/bin/../lib/gcc/avr/4.3.3/avr6\libgcc.a(_lt_sf.o)
                              ./src/PLCS_Protocol.o (__ltsf2)
c:/winavr-20100110/bin/../lib/gcc/avr/4.3.3/avr6\libgcc.a(_si_to_sf.o)
                              ./src/main.o (__floatsisf)
c:/winavr-20100110/bin/../lib/gcc/avr/4.3.3/avr6\libgcc.a(_sf_to_si.o)
                              c:/winavr-20100110/bin/../lib/gcc/avr/4.3.3/avr6\libgcc.a(_fixunssfsi.o) (__fixsfsi)
c:/winavr-20100110/bin/../lib/gcc/avr/4.3.3/avr6\libgcc.a(_thenan_sf.o)
                              c:/winavr-20100110/bin/../lib/gcc/avr/4.3.3/avr6\libgcc.a(_addsub_sf.o) (__thenan_sf)
c:/winavr-20100110/bin/../lib/gcc/avr/4.3.3/avr6\libgcc.a(_usi_to_sf.o)
                              ./src/PLCS_Protocol.o (__floatunsisf)
c:/winavr-20100110/bin/../lib/gcc/avr/4.3.3/avr6\libgcc.a(_prologue.o)
                              c:/winavr-20100110/bin/../lib/gcc/avr/4.3.3/avr6\libgcc.a(_addsub_sf.o) (__prologue_saves__)
c:/winavr-20100110/bin/../lib/gcc/avr/4.3.3/avr6\libgcc.a(_epilogue.o)
                              c:/winavr-20100110/bin/../lib/gcc/avr/4.3.3/avr6\libgcc.a(_addsub_sf.o) (__epilogue_restores__)
c:/winavr-20100110/bin/../lib/gcc/avr/4.3.3/avr6\libgcc.a(_clzsi2.o)
                              c:/winavr-20100110/bin/../lib/gcc/avr/4.3.3/avr6\libgcc.a(_si_to_sf.o) (__clzsi2)
c:/winavr-20100110/bin/../lib/gcc/avr/4.3.3/avr6\libgcc.a(_pack_sf.o)
                              c:/winavr-20100110/bin/../lib/gcc/avr/4.3.3/avr6\libgcc.a(_addsub_sf.o) (__pack_f)
c:/winavr-20100110/bin/../lib/gcc/avr/4.3.3/avr6\libgcc.a(_unpack_sf.o)
                              c:/winavr-20100110/bin/../lib/gcc/avr/4.3.3/avr6\libgcc.a(_addsub_sf.o) (__unpack_f)
c:/winavr-20100110/bin/../lib/gcc/avr/4.3.3/avr6\libgcc.a(_fpcmp_parts_sf.o)
                              c:/winavr-20100110/bin/../lib/gcc/avr/4.3.3/avr6\libgcc.a(_gt_sf.o) (__fpcmp_parts_f)
c:/winavr-20100110/bin/../lib/gcc/avr/4.3.3/avr6\libgcc.a(_clz.o)
                              c:/winavr-20100110/bin/../lib/gcc/avr/4.3.3/avr6\libgcc.a(_clzsi2.o) (__clz_tab)
c:/winavr-20100110/bin/../lib/gcc/avr/4.3.3/../../../../avr/lib/avr6\libc.a(memcpy.o)
                              ./src/XNetProtocol.o (memcpy)
c:/winavr-20100110/bin/../lib/gcc/avr/4.3.3/../../../../avr/lib/avr6\libc.a(iob.o)
                              ./src/main.o (__iob)
c:/winavr-20100110/bin/../lib/gcc/avr/4.3.3/../../../../avr/lib/avr6\libc.a(printf_p.o)
                              ./src/main.o (printf_P)
c:/winavr-20100110/bin/../lib/gcc/avr/4.3.3/../../../../avr/lib/avr6\libc.a(vfprintf_std.o)
                              c:/winavr-20100110/bin/../lib/gcc/avr/4.3.3/../../../../avr/lib/avr6\libc.a(printf_p.o) (vfprintf)
c:/winavr-20100110/bin/../lib/gcc/avr/4.3.3/../../../../avr/lib/avr6\libc.a(eewr_dword_atmega2560.o)
                              ./src/PLCS_Protocol.o (__eewr_dword_m2560)
c:/winavr-20100110/bin/../lib/gcc/avr/4.3.3/../../../../avr/lib/avr6\libc.a(eewr_word_atmega2560.o)
                              c:/winavr-20100110/bin/../lib/gcc/avr/4.3.3/../../../../avr/lib/avr6\libc.a(eewr_dword_atmega2560.o) (__eewr_word_m2560)
c:/winavr-20100110/bin/../lib/gcc/avr/4.3.3/../../../../avr/lib/avr6\libc.a(strnlen_P.o)
                              c:/winavr-20100110/bin/../lib/gcc/avr/4.3.3/../../../../avr/lib/avr6\libc.a(vfprintf_std.o) (strnlen_P)
c:/winavr-20100110/bin/../lib/gcc/avr/4.3.3/../../../../avr/lib/avr6\libc.a(strnlen.o)
                              c:/winavr-20100110/bin/../lib/gcc/avr/4.3.3/../../../../avr/lib/avr6\libc.a(vfprintf_std.o) (strnlen)
c:/winavr-20100110/bin/../lib/gcc/avr/4.3.3/../../../../avr/lib/avr6\libc.a(fputc.o)
                              c:/winavr-20100110/bin/../lib/gcc/avr/4.3.3/../../../../avr/lib/avr6\libc.a(vfprintf_std.o) (fputc)
c:/winavr-20100110/bin/../lib/gcc/avr/4.3.3/../../../../avr/lib/avr6\libc.a(ultoa_invert.o)
                              c:/winavr-20100110/bin/../lib/gcc/avr/4.3.3/../../../../avr/lib/avr6\libc.a(vfprintf_std.o) (__ultoa_invert)
c:/winavr-20100110/bin/../lib/gcc/avr/4.3.3/../../../../avr/lib/avr6\libc.a(eewr_byte_atmega2560.o)
                              c:/winavr-20100110/bin/../lib/gcc/avr/4.3.3/../../../../avr/lib/avr6\libc.a(eewr_word_atmega2560.o) (__eewr_byte_m2560)

Allocating common symbols
Common symbol       size              file

debug_DebugInfo     0x8               ./src/PLCS_Protocol.o
SensorPacket        0x40              ./src/main.o
msgFromZigbee       0x40              ./src/main.o
tempBuffForDeviceInfo
                    0xff              ./src/DeviceInfo.o
Min                 0x1               ./src/main.o
tmp_CircuitInfo     0x1e0             ./src/DeviceInfo.o
tempBuffForSchedule
                    0xff              ./src/ScheduleTable.o
dimmerMappingTable  0xc8              ./src/DimmerProtocol.o
uart1_tx_buff       0x1               ./src/Uart.o
xcps_rx_packet_zigbee_0
                    0x40              ./src/Xcps.o
data1               0x1               ./src/Uart.o
tempBuffForDebug    0xa               ./src/debug.o
data2               0x1               ./src/Uart.o
defaultScheduleTable
                    0x1f0             ./src/DeviceInfo.o
Hour                0x1               ./src/main.o
status3             0x1               ./src/Uart.o
sendBuffData_1      0xc90             ./src/ZRMProtocol.o
deviceInfoTable     0x411             ./src/DeviceInfo.o
uart0_rx_buff       0x80              ./src/Uart.o
status2             0x1               ./src/Uart.o
xcps_tx_packet_zigbee_0
                    0x40              ./src/Xcps.o
uart3_rx_buff       0x80              ./src/Uart.o
tmp_PrevCircuitInfo
                    0x1e0             ./src/DeviceInfo.o
tmp_DevInfo_D       0xd               ./src/PLCS_Protocol.o
dimmerControlInfoList
                    0x119             ./src/DimmerProtocol.o
sendMessageList     0xc80             ./src/XNetProtocol.o
xcps_rx_packet_zigbee_1
                    0x40              ./src/Xcps.o
ctrl_Cmd            0x2               ./src/PLCS_Protocol.o
dev_Count           0x1               ./src/PLCS_Protocol.o
sendMPRMessageList  0x280             ./src/XNetProtocol.o
status1             0x1               ./src/Uart.o
zrmpInfo_1          0x6               ./src/DimmerProtocol.o
uart0_tx_buff       0x1               ./src/Uart.o
tmp_BuffForRFUP     0x40              ./src/RFU_Protocol.o
sendBuffData_0      0xc90             ./src/ZRMProtocol.o
tmpBuffForDimmer    0x20              ./src/DimmerProtocol.o
tmp_Buff_MPR        0x40              ./src/MPRProtocol.o
tempBuffForPatternInfo
                    0xff              ./src/PatternBasedControl.o
xcps_rx_packet_rs485
                    0x40              ./src/Xcps.o
tmp_Buff            0x40              ./src/PLCS_Protocol.o
ZigbeePacket        0x40              ./src/main.o
data0               0x1               ./src/Uart.o
tempBuffForMappingInfo
                    0xff              ./src/MappingTable.o
messageLength       0x32              ./src/XNetProtocol.o
sensorMappingTable  0x8f7             ./src/DimmerProtocol.o
uart3_tx_buff       0x1               ./src/Uart.o
uart2_rx_buff       0x80              ./src/Uart.o
SSRTable            0x2               ./src/PLCS_Protocol.o
uart2_tx_buff       0x1               ./src/Uart.o
uart1_rx_buff       0x80              ./src/Uart.o
z_ieee_Id           0x4               ./src/PLCS_Protocol.o
timerCount          0x4               ./src/Timer.o
data3               0x1               ./src/Uart.o
scheduleTable_1     0x1f0             ./src/DeviceInfo.o
tmp_DevInfo_P       0x2               ./src/PLCS_Protocol.o
NowTime             0x1               ./src/main.o
zrmpInfo_0          0x6               ./src/DimmerProtocol.o
GatewayPacket       0x40              ./src/main.o
mprMessageLength    0xa               ./src/XNetProtocol.o
xcps_rx_packet_rs485ForMPR
                    0x40              ./src/Xcps.o
patternTable        0x150             ./src/PLCS_Protocol.o
__iob               0x6               c:/winavr-20100110/bin/../lib/gcc/avr/4.3.3/../../../../avr/lib/avr6\libc.a(iob.o)
device_Type         0x2               ./src/PLCS_Protocol.o
xcps_tx_packet_zigbee_1
                    0x40              ./src/Xcps.o
status0             0x1               ./src/Uart.o
timer_list          0x4b              ./src/Timer.o
scheduleTable_2     0x1f0             ./src/DeviceInfo.o
tmp_BuffForZRM      0x40              ./src/ZRMProtocol.o
MPRPacket           0x40              ./src/main.o

Memory Configuration

Name             Origin             Length             Attributes
text             0x00000000         0x00100000         xr
data             0x00800200         0x0000fe00         rw !x
eeprom           0x00810000         0x00010000         rw !x
fuse             0x00820000         0x00000400         rw !x
lock             0x00830000         0x00000400         rw !x
signature        0x00840000         0x00000400         rw !x
*default*        0x00000000         0xffffffff

Linker script and memory map

Address of section .data set to 0x800200
LOAD c:/winavr-20100110/bin/../lib/gcc/avr/4.3.3/../../../../avr/lib/avr6/crtm2560.o
Address of section .data set to 0x802200
                0x00807fff                __heap_end = 0x807fff
LOAD ./src/DeviceInfo.o
LOAD ./src/DimmerProtocol.o
LOAD ./src/Flash.o
LOAD ./src/MPRProtocol.o
LOAD ./src/MappingTable.o
LOAD ./src/PLCS_Protocol.o
LOAD ./src/PatternBasedControl.o
LOAD ./src/RFU_Protocol.o
LOAD ./src/SSRContol.o
LOAD ./src/ScheduleTable.o
LOAD ./src/Timer.o
LOAD ./src/Uart.o
LOAD ./src/XNetProtocol.o
LOAD ./src/Xcps.o
LOAD ./src/ZRMProtocol.o
LOAD ./src/debug.o
LOAD ./src/main.o
LOAD ./src/rotary.o
LOAD ./src/util.o
LOAD c:/winavr-20100110/bin/../lib/gcc/avr/4.3.3/avr6\libgcc.a
LOAD c:/winavr-20100110/bin/../lib/gcc/avr/4.3.3/../../../../avr/lib/avr6\libm.a
LOAD c:/winavr-20100110/bin/../lib/gcc/avr/4.3.3/../../../../avr/lib/avr6\libc.a
LOAD c:/winavr-20100110/bin/../lib/gcc/avr/4.3.3/avr6\libgcc.a
LOAD c:/winavr-20100110/bin/../lib/gcc/avr/4.3.3/../../../../avr/lib/avr6\libc.a
LOAD c:/winavr-20100110/bin/../lib/gcc/avr/4.3.3/avr6\libgcc.a

.hash
 *(.hash)

.dynsym
 *(.dynsym)

.dynstr
 *(.dynstr)

.gnu.version
 *(.gnu.version)

.gnu.version_d
 *(.gnu.version_d)

.gnu.version_r
 *(.gnu.version_r)

.rel.init
 *(.rel.init)

.rela.init
 *(.rela.init)

.rel.text
 *(.rel.text)
 *(.rel.text.*)
 *(.rel.gnu.linkonce.t*)

.rela.text
 *(.rela.text)
 *(.rela.text.*)
 *(.rela.gnu.linkonce.t*)

.rel.fini
 *(.rel.fini)

.rela.fini
 *(.rela.fini)

.rel.rodata
 *(.rel.rodata)
 *(.rel.rodata.*)
 *(.rel.gnu.linkonce.r*)

.rela.rodata
 *(.rela.rodata)
 *(.rela.rodata.*)
 *(.rela.gnu.linkonce.r*)

.rel.data
 *(.rel.data)
 *(.rel.data.*)
 *(.rel.gnu.linkonce.d*)

.rela.data
 *(.rela.data)
 *(.rela.data.*)
 *(.rela.gnu.linkonce.d*)

.rel.ctors
 *(.rel.ctors)

.rela.ctors
 *(.rela.ctors)

.rel.dtors
 *(.rel.dtors)

.rela.dtors
 *(.rela.dtors)

.rel.got
 *(.rel.got)

.rela.got
 *(.rela.got)

.rel.bss
 *(.rel.bss)

.rela.bss
 *(.rela.bss)

.rel.plt
 *(.rel.plt)

.rela.plt
 *(.rela.plt)

.text           0x00000000     0x9bcc
 *(.vectors)
 .vectors       0x00000000       0xe4 c:/winavr-20100110/bin/../lib/gcc/avr/4.3.3/../../../../avr/lib/avr6/crtm2560.o
                0x00000000                __vectors
                0x00000000                __vector_default
 *(.vectors)
 *(.progmem.gcc*)
 *(.progmem*)
 .progmem.data  0x000000e4      0x116 ./src/main.o
                0x000001fa                . = ALIGN (0x2)
                0x000001fa                __trampolines_start = .
 *(.trampolines)
 .trampolines   0x000001fa        0x0 linker stubs
 *(.trampolines*)
                0x000001fa                __trampolines_end = .
 *(.jumptables)
 *(.jumptables*)
 *(.lowtext)
 *(.lowtext*)
                0x000001fa                __ctors_start = .
 *(.ctors)
                0x000001fa                __ctors_end = .
                0x000001fa                __dtors_start = .
 *(.dtors)
                0x000001fa                __dtors_end = .
 SORT(*)(.ctors)
 SORT(*)(.dtors)
 *(.init0)
 .init0         0x000001fa        0x0 c:/winavr-20100110/bin/../lib/gcc/avr/4.3.3/../../../../avr/lib/avr6/crtm2560.o
                0x000001fa                __init
 *(.init0)
 *(.init1)
 .init1         0x000001fa        0xe ./src/main.o
                0x000001fa                xmem_enable
 *(.init1)
 *(.init2)
 .init2         0x00000208       0x10 c:/winavr-20100110/bin/../lib/gcc/avr/4.3.3/../../../../avr/lib/avr6/crtm2560.o
 *(.init2)
 *(.init3)
 *(.init3)
 *(.init4)
 .init4         0x00000218       0x1a c:/winavr-20100110/bin/../lib/gcc/avr/4.3.3/../../../../avr/lib/avr6/crtm2560.o
                0x00000218                __do_copy_data
 .init4         0x00000232       0x10 c:/winavr-20100110/bin/../lib/gcc/avr/4.3.3/avr6\libgcc.a(_clear_bss.o)
                0x00000232                __do_clear_bss
 *(.init4)
 *(.init5)
 *(.init5)
 *(.init6)
 *(.init6)
 *(.init7)
 *(.init7)
 *(.init8)
 *(.init8)
 *(.init9)
 .init9         0x00000242        0x8 c:/winavr-20100110/bin/../lib/gcc/avr/4.3.3/../../../../avr/lib/avr6/crtm2560.o
 *(.init9)
 *(.text)
 .text          0x0000024a        0x4 c:/winavr-20100110/bin/../lib/gcc/avr/4.3.3/../../../../avr/lib/avr6/crtm2560.o
                0x0000024a                __vector_22
                0x0000024a                __vector_28
                0x0000024a                __vector_1
                0x0000024a                __vector_34
                0x0000024a                __vector_24
                0x0000024a                __vector_12
                0x0000024a                __vector_46
                0x0000024a                __bad_interrupt
                0x0000024a                __vector_6
                0x0000024a                __vector_31
                0x0000024a                __vector_35
                0x0000024a                __vector_39
                0x0000024a                __vector_3
                0x0000024a                __vector_23
                0x0000024a                __vector_30
                0x0000024a                __vector_45
                0x0000024a                __vector_11
                0x0000024a                __vector_13
                0x0000024a                __vector_17
                0x0000024a                __vector_19
                0x0000024a                __vector_7
                0x0000024a                __vector_49
                0x0000024a                __vector_41
                0x0000024a                __vector_43
                0x0000024a                __vector_5
                0x0000024a                __vector_33
                0x0000024a                __vector_47
                0x0000024a                __vector_4
                0x0000024a                __vector_44
                0x0000024a                __vector_9
                0x0000024a                __vector_2
                0x0000024a                __vector_21
                0x0000024a                __vector_15
                0x0000024a                __vector_29
                0x0000024a                __vector_40
                0x0000024a                __vector_8
                0x0000024a                __vector_48
                0x0000024a                __vector_14
                0x0000024a                __vector_10
                0x0000024a                __vector_50
                0x0000024a                __vector_16
                0x0000024a                __vector_18
                0x0000024a                __vector_20
                0x0000024a                __vector_42
 .text          0x0000024e      0x69c ./src/DeviceInfo.o
                0x00000428                deviceInfo_IsUpdatedSSRInfo
                0x00000412                deviceInfo_UpdateSSRInfo
                0x000002b2                addDeviceTable
                0x000007be                ssrInfo_WriteToEEPRom
                0x0000030c                updateDeviceTable
                0x00000602                ssrInfo_WriteToEEPRomOfIndex
                0x00000480                initDeviceTable
                0x00000284                isContainNodeOfId
                0x00000748                handleDeviceControl
                0x000003d4                removeDeviceTable
                0x0000035e                removeNode
                0x0000040c                countDevice
                0x000003da                countDeviceTable
                0x0000024e                findNodeById
 .text          0x000008ea      0x300 ./src/DimmerProtocol.o
                0x00000af8                updateDimmerControlInfoList
                0x0000097a                dimmer_DimmingConvert
                0x0000090c                plcs_GetDCPMessage
                0x00000906                initDimmerControlInfoList
                0x000009e6                dimmer_SendReqDimming
                0x000008ea                getSeqNumGeneratorForDimmer
 .text          0x00000bea      0x4bc ./src/Flash.o
                0x00000eba                flash_writeUint32
                0x00000cf8                flash_bufferToMainMemory
                0x00000c8e                flash_bufferWrite
                0x00000bea                flash_init
                0x00000bf6                clk
                0x00000fd0                flash_writeBytes
                0x00000e52                flash_readUint16
                0x00000d84                flash_bufferReadUint8
                0x0000107e                flash_readStatus
                0x00000dba                flash_readUint8
                0x00000f04                flash_readUint32
                0x00000c08                flash_writeByteToSI
                0x00000c48                flash_readByteFromSO
                0x00000d48                flash_writeUint8
                0x00000e10                flash_writeUint16
                0x00000ff8                flash_readBytes
 .text          0x000010a6       0xa2 ./src/MPRProtocol.o
                0x000010d0                plcs_NCP_AssignToken
                0x000010c2                mpr_ReleaseToken
                0x000010ac                mpr_HasToken
                0x00001130                mpr_AssignToken
                0x000010a6                mpr_GetAssignedTokenId
 .text          0x00001148      0x72a ./src/MappingTable.o
                0x000012bc                addDimmerMappingTable
                0x0000135c                findDimmerMappingInfoById
                0x00001168                getSensorMappingInfoByIndex
                0x00001400                sensorMappingInfo_WriteAll
                0x00001758                updateSensorMappingTableByCircuit
                0x000017b4                initMappingTable
                0x00001390                dimmerMappingInfo_WriteAll
                0x0000126c                getDimmerMappingTableSize
                0x000011b0                addSensorMappingTable
                0x00001588                initDimmerMappingTable
                0x00001288                getDimmerMappingInfoByIndex
                0x00001328                findDimmerMappingInfoByPair
                0x0000149c                dimmerMappingInfo_WriteToEEPRom
                0x0000123a                findSensorMappingInfoById
                0x00001532                updateDimmerMappingTable
                0x0000160e                sensorMappingInfo_WriteToEEPRom
                0x000016c8                updateSensorMappingTable
                0x00001148                getSensorMappingTableSize
 .text          0x00001872     0x2d0c ./src/PLCS_Protocol.o
                0x00003c16                ncp_SendRegisterReqWithoutQueue
                0x00001b50                gcp_SetNoticeMode
                0x00002d88                plcs_GCP_HandleDimmerMappingSizeReq
                0x000040be                ncp_ProcessRegisterReq
                0x00002248                plcs_GCP_SendScheduleInfoRes
                0x00002c14                ncp_SendPingRes
                0x00002418                plcs_GCP_HandleScheduleSizeReq
                0x00001dee                plcs_GCP_SendApplyingScheduleRes
                0x00001a84                plcs_GetGCPMessage
                0x000019be                plcs_GetNCPMessage
                0x00001af2                plcs_GetGCPResMessage
                0x00004068                ncp_ProcessRegisterRes
                0x00003c80                plcs_NCP_ProcessRegisterBroadcastReq
                0x00002fa6                plcs_GCP_HandleSensorMappingInfoReq
                0x00001c0c                plcs_GCP_HandleDebugLogLCReq
                0x0000189a                plcs_NCP_ProcessAssignToken
                0x00001ce6                plcs_GCP_SendAddScheduleListRes
                0x00002dd4                plcs_GCP_SendDimmerMappingInfoRes
                0x00003128                plcs_GCP_HandleAddScheduleListReq
                0x00001fb4                plcs_GCP_SendMappingDimmerListRes
                0x00002390                plcs_GCP_SendScheduleSizeRes
                0x00002c9c                ncp_SendRegisterReq
                0x0000398a                plcs_GCP_HandleControlSensorReq
                0x00004124                NCP_ProcessMessage
                0x00002fca                handleSwitchEvent
                0x00002520                plcs_GCP_SendSensorMappingSizeRes
                0x00001c64                plcs_GCP_SendNoticeEvent
                0x00001f30                plcs_GCP_SendResetDimmerMappingRes
                0x00003014                plcs_GCP_HandleControlCircuitReq
                0x00002e7c                plcs_GCP_HandleDimmerMappingInfoReq
                0x00003526                plcs_GCP_HandleMappingDimmerReq
                0x000018a8                handleSensorEvent
                0x0000378e                plcs_GCP_HandleMappingSensorReq
                0x00001890                hasToken
                0x00001e72                plcs_GCP_HandleApplyingScheduleReq
                0x00002ea0                plcs_GCP_HandleSensorMappingSizeReq
                0x000019a2                getSeqNumGenerator
                0x0000188a                ncp_ConnState
                0x00003274                plcs_GCP_HandleAddScheduleReq
                0x00003b10                registerAllNodetoServer
                0x00002924                plcs_GCP_SendNumOfDeviceRes
                0x0000307e                plcs_GCP_HandleDebugLogLCReset
                0x00001b4a                gcp_GetNoticeMode
                0x00002eec                plcs_GCP_SendSensorMappingInfoRes
                0x00002900                plcs_GCP_HandleDeviceInfoReq
                0x00003084                plcs_GCP_HandleResetScheduleReq
                0x00003324                plcs_GCP_HandleResetDimmerMappingReq
                0x0000197a                plcs_GCP_HandleNoticeEventNeighbor
                0x0000385e                plcs_GCP_HandleUpdatePowermeterReq
                0x00002366                plcs_GCP_HandleScheduleInfoReq
                0x000029a8                plcs_GCP_HandleNumOfDeviceReq
                0x00002a02                plcs_GCP_HandlePowermeterReq
                0x00003b56                ncp_ProcessPingRes
                0x00001952                plcs_GCP_HandleSensorEvent
                0x000041a0                plcs_GCP_ProcessMessage
                0x000038fc                plcs_GCP_HandleUpdatePowermeterLCReq
                0x00002758                plcs_GCP_SendStateInfoRes
                0x000020bc                plcs_GCP_SendResetSensorMappingRes
                0x000018a2                plcs_NCP_ProcessReleaseTokenRes
                0x0000337e                plcs_GCP_HandleMappingDimmerListReq
                0x00003a10                npc_SendRegisterNodeReq
                0x00003b9e                ncp_ProcessPingReq
                0x0000249c                plcs_GCP_SendDimmerMappingSizeRes
                0x00002d16                ncp_SendPingReq
                0x000035ce                plcs_GCP_HandleResetSensorMappingReq
                0x00002a68                plcs_GCP_HandleControlRebootReq
                0x000026d4                plcs_GCP_SendControlCircuitRes
                0x00002b16                plcs_NCP_Send_NCPReqReleaseToken
                0x000039ee                plcs_GCP_HandleControlNoticeModeReq
                0x00001872                npc_ProcessSendTimeInfo
                0x00002038                plcs_GCP_SendMappingDimmerRes
                0x00001d6a                plcs_GCP_SendAddScheduleRes
                0x00001eac                plcs_GCP_SendResetScheduleRes
                0x00003618                plcs_GCP_HandleMappingSensorListReq
                0x00002aae                plcs_GCP_HandleStateInfoReq
                0x000021c4                plcs_GCP_SendMappingSensorRes
                0x00001b56                plcs_GCP_SendDebugLogLCRes
                0x0000280e                plcs_GCP_SendDeviceInfoRes
                0x00001a2c                plcs_GetNCPResMessage
                0x00002b8e                ncp_SendRegisterRes
                0x00002650                plcs_GCP_SendControlSensorRes
                0x00002140                plcs_GCP_SendMappingSensorListRes
                0x000025a4                plcs_GCP_SendPowermeterRes
 .text          0x0000457e      0x29e ./src/PatternBasedControl.o
                0x000046e0                patternTable_WriteToEEPRom
                0x000047ca                addPatternInfoToTable
                0x00004628                initPatternTable
                0x000047b4                resetPatternTable
                0x0000457e                getCtrlModeOnTime
 .text          0x0000481c      0x72e ./src/RFU_Protocol.o
                0x00004b86                plcs_RFUP_SetReadyToUpgradeFirmware
                0x00004df2                plcs_RFUP_HandleUpgradeFirmwareReq
                0x00004e9e                plcs_RFUP_ProcessMessage
                0x00004b92                plcs_RFUP_SendDataRes
                0x00004c22                plcs_RFUP_SendUpgradeFirmwareRes
                0x00004900                plcs_RFUP_CheckDownloadedFirmwareAt
                0x0000481e                getSeqNumGeneratorForRFUP
                0x0000483a                plcs_GetRFUPMessage
                0x000049d4                plcs_RFUP_CheckDownloadedFirmware
                0x000048a8                plcs_GetRFUPResMessage
                0x0000481c                plcs_RFUP_Reboot
                0x00004a94                plcs_RFUP_WriteFirmwareData
                0x00004cb2                plcs_RFUP_HandleSendDataReq
 .text          0x00004f4a       0xc8 ./src/SSRContol.o
                0x00004f92                SSR_init
                0x00004f4a                GetSSRState
                0x00004fde                SSR_Off_Index
                0x00004f60                SSR_On_Index
 .text          0x00005012      0x6da ./src/ScheduleTable.o
                0x000050e0                isContainScheduleAt
                0x00005400                schedule_WriteToEEPRomAll
                0x000056be                resetScheduleTimeTable
                0x00005012                getControlModeAt
                0x0000526e                initScheduleTimeTable
                0x000055c4                schedule_WriteToEEPRom
                0x000054fa                addScheduleList
                0x00005156                addSchedule
 .text          0x000056ec      0x152 ./src/Timer.o
                0x000057b8                __vector_32
                0x00005716                timer_get
                0x00005770                timer_init
                0x000056ec                timer_set
                0x00005750                timer_clear
 .text          0x0000583e      0x6fc ./src/Uart.o
                0x00005b7a                __vector_38
                0x00005d5e                USART2_Receive
                0x00005a52                USART0_Receive
                0x00005902                USART1_TxEnable
                0x00005e1e                __vector_55
                0x00005916                USART2_TxDisable
                0x00005922                __vector_25
                0x00005db4                __vector_54
                0x00005da0                USART2_Transmit
                0x00005e86                __vector_56
                0x00005ee4                USART3_Receive
                0x000059f4                __vector_27
                0x0000590a                USART2_TxEnable
                0x00005c98                __vector_52
                0x00005b12                __vector_37
                0x00005f26                USART3_Transmit
                0x00005c2e                __vector_51
                0x00005bd8                USART1_Receive
                0x00005aa8                __vector_36
                0x0000598c                __vector_26
                0x00005c1a                USART1_Transmit
                0x00005a94                USART0_Transmit
                0x00005d00                __vector_53
                0x0000583e                InitUART
                0x00005906                USART1_TxDisable
 .text          0x00005f3a      0x452 ./src/XNetProtocol.o
                0x0000601e                sendServerMessage
                0x00005f50                getMPRMessageListSize
                0x00005f6c                sendStackedServerMessage
                0x000061ea                XNetCommandFromGateway
                0x00005f66                sendServerMessageWithoutQueue
                0x0000617a                XNetCommandFromMPR
                0x00005f3a                getMessageListSize
                0x00006084                sendMessage
                0x000062ae                XNetHandlerFromZigbee
                0x00005fb8                sendMPRMessage
                0x0000612e                sendStackedMPRMessage
 .text          0x0000638c      0x950 ./src/Xcps.o
                0x000067cc                xcps_recv_rs485
                0x000063c8                xcps_init_rs485ForMPR
                0x00006964                xcps_recv_rs485ForMPR
                0x00006afc                xcps_send_rs485ForMPR
                0x00006696                xcps_recv_zigbee_1
                0x000065d4                xcps_send_zigbee_1
                0x000063b4                xcps_init_rs485
                0x000063dc                xcps_send_zigbee_0
                0x000063a0                xcps_init_zigbee_1
                0x00006bec                xcps_send_rs485
                0x0000649e                xcps_recv_zigbee_0
                0x0000638c                xcps_init_zigbee_0
 .text          0x00006cdc      0x70e ./src/ZRMProtocol.o
                0x00006ed4                ZRMsendPing
                0x00006cdc                getZRMMessageListSize
                0x00006e52                ZRMSendSetPanID
                0x00007058                addMessageToSendBuff
                0x00006eaa                ZRMsendConfig
                0x00006d7c                ZRM_getTranlatedCode
                0x00006df2                ZRMSendSetPreconfig
                0x00006d12                getLastResult
                0x00006e80                ZRMSendReset
                0x00007124                sendToZigbee
                0x0000728a                sendQueueingMessage
                0x00006e22                ZRMSendSetChannel
                0x00006d02                getZigbeeState
                0x00006d22                ZRM_getOriginalCode
                0x0000724a                getMessageFromSendBuff
                0x00006ef8                ZRMPMessage
                0x00007176                getMessageFromSendBuffWORemove
 .text          0x000073ea      0x116 ./src/debug.o
                0x000073ea                debug_ReadLog
                0x000074b0                debug_UpdateReboot
                0x000074d8                debug_Reset
                0x0000744a                debug_UpdateLog
                0x0000749a                debug_UpdateConnection
 .text          0x00007500     0x1090 ./src/main.o
                0x0000781a                DimmerControl_Task
                0x00007562                WDT_INIT
                0x0000773c                Token_Task
                0x00007978                MPRRx_Task
                0x000077fe                NoticeMode_Task
                0x00007522                resetZigbee0
                0x00007998                GatewayTx_Task
                0x00007580                main
                0x00007500                InitMCU
                0x000077ba                Led_Task
                0x00007946                MPRTx_Task
                0x00007914                ZigbeeSend_Task
                0x00007db0                ControlTask
                0x00007a70                GatewayRx_Task
                0x00007a90                Zigbee_Task
                0x0000753a                resetZigbee1
 .text          0x00008590       0x34 ./src/rotary.o
                0x00008590                initRotary
                0x000085b2                rotary_GetValue
 .text          0x000085c4       0xe0 ./src/util.o
                0x000085c4                toUint16
                0x00008622                toUint8
                0x0000867c                toHexCharacterOfLowerByte
 .text          0x000086a4        0x0 c:/winavr-20100110/bin/../lib/gcc/avr/4.3.3/avr6\libgcc.a(_udivmodqi4.o)
 .text          0x000086a4        0x0 c:/winavr-20100110/bin/../lib/gcc/avr/4.3.3/avr6\libgcc.a(_udivmodhi4.o)
 .text          0x000086a4        0x0 c:/winavr-20100110/bin/../lib/gcc/avr/4.3.3/avr6\libgcc.a(_udivmodsi4.o)
 .text          0x000086a4        0x0 c:/winavr-20100110/bin/../lib/gcc/avr/4.3.3/avr6\libgcc.a(_exit.o)
 .text          0x000086a4        0x0 c:/winavr-20100110/bin/../lib/gcc/avr/4.3.3/avr6\libgcc.a(_clear_bss.o)
 .text          0x000086a4       0x58 c:/winavr-20100110/bin/../lib/gcc/avr/4.3.3/avr6\libgcc.a(_fixunssfsi.o)
                0x000086a4                __fixunssfsi
 .text          0x000086fc      0x354 c:/winavr-20100110/bin/../lib/gcc/avr/4.3.3/avr6\libgcc.a(_addsub_sf.o)
                0x00008994                __subsf3
                0x000089f6                __addsf3
 .text          0x00008a50      0x1f4 c:/winavr-20100110/bin/../lib/gcc/avr/4.3.3/avr6\libgcc.a(_mul_sf.o)
                0x00008a50                __mulsf3
 .text          0x00008c44      0x158 c:/winavr-20100110/bin/../lib/gcc/avr/4.3.3/avr6\libgcc.a(_div_sf.o)
                0x00008c44                __divsf3
 .text          0x00008d9c       0x60 c:/winavr-20100110/bin/../lib/gcc/avr/4.3.3/avr6\libgcc.a(_gt_sf.o)
                0x00008d9c                __gtsf2
 .text          0x00008dfc       0x60 c:/winavr-20100110/bin/../lib/gcc/avr/4.3.3/avr6\libgcc.a(_ge_sf.o)
                0x00008dfc                __gesf2
 .text          0x00008e5c       0x60 c:/winavr-20100110/bin/../lib/gcc/avr/4.3.3/avr6\libgcc.a(_lt_sf.o)
                0x00008e5c                __ltsf2
 .text          0x00008ebc       0xbc c:/winavr-20100110/bin/../lib/gcc/avr/4.3.3/avr6\libgcc.a(_si_to_sf.o)
                0x00008ebc                __floatsisf
 .text          0x00008f78       0xa8 c:/winavr-20100110/bin/../lib/gcc/avr/4.3.3/avr6\libgcc.a(_sf_to_si.o)
                0x00008f78                __fixsfsi
 .text          0x00009020        0x0 c:/winavr-20100110/bin/../lib/gcc/avr/4.3.3/avr6\libgcc.a(_thenan_sf.o)
 .text          0x00009020       0xf2 c:/winavr-20100110/bin/../lib/gcc/avr/4.3.3/avr6\libgcc.a(_usi_to_sf.o)
                0x00009020                __floatunsisf
 .text          0x00009112        0x0 c:/winavr-20100110/bin/../lib/gcc/avr/4.3.3/avr6\libgcc.a(_prologue.o)
 .text          0x00009112        0x0 c:/winavr-20100110/bin/../lib/gcc/avr/4.3.3/avr6\libgcc.a(_epilogue.o)
 .text          0x00009112       0x9e c:/winavr-20100110/bin/../lib/gcc/avr/4.3.3/avr6\libgcc.a(_clzsi2.o)
                0x00009112                __clzsi2
 .text          0x000091b0      0x1aa c:/winavr-20100110/bin/../lib/gcc/avr/4.3.3/avr6\libgcc.a(_pack_sf.o)
                0x000091b0                __pack_f
 .text          0x0000935a       0xf0 c:/winavr-20100110/bin/../lib/gcc/avr/4.3.3/avr6\libgcc.a(_unpack_sf.o)
                0x0000935a                __unpack_f
 .text          0x0000944a       0xb2 c:/winavr-20100110/bin/../lib/gcc/avr/4.3.3/avr6\libgcc.a(_fpcmp_parts_sf.o)
                0x0000944a                __fpcmp_parts_f
 .text          0x000094fc        0x0 c:/winavr-20100110/bin/../lib/gcc/avr/4.3.3/avr6\libgcc.a(_clz.o)
 .text          0x000094fc        0x0 c:/winavr-20100110/bin/../lib/gcc/avr/4.3.3/../../../../avr/lib/avr6\libc.a(memcpy.o)
 .text          0x000094fc        0x0 c:/winavr-20100110/bin/../lib/gcc/avr/4.3.3/../../../../avr/lib/avr6\libc.a(iob.o)
 .text          0x000094fc        0x0 c:/winavr-20100110/bin/../lib/gcc/avr/4.3.3/../../../../avr/lib/avr6\libc.a(printf_p.o)
 .text          0x000094fc        0x0 c:/winavr-20100110/bin/../lib/gcc/avr/4.3.3/../../../../avr/lib/avr6\libc.a(vfprintf_std.o)
 .text          0x000094fc        0x0 c:/winavr-20100110/bin/../lib/gcc/avr/4.3.3/../../../../avr/lib/avr6\libc.a(eewr_dword_atmega2560.o)
 .text          0x000094fc        0x0 c:/winavr-20100110/bin/../lib/gcc/avr/4.3.3/../../../../avr/lib/avr6\libc.a(eewr_word_atmega2560.o)
 .text          0x000094fc        0x0 c:/winavr-20100110/bin/../lib/gcc/avr/4.3.3/../../../../avr/lib/avr6\libc.a(strnlen_P.o)
 .text          0x000094fc        0x0 c:/winavr-20100110/bin/../lib/gcc/avr/4.3.3/../../../../avr/lib/avr6\libc.a(strnlen.o)
 .text          0x000094fc        0x0 c:/winavr-20100110/bin/../lib/gcc/avr/4.3.3/../../../../avr/lib/avr6\libc.a(fputc.o)
 .text          0x000094fc        0x0 c:/winavr-20100110/bin/../lib/gcc/avr/4.3.3/../../../../avr/lib/avr6\libc.a(ultoa_invert.o)
 .text          0x000094fc        0x0 c:/winavr-20100110/bin/../lib/gcc/avr/4.3.3/../../../../avr/lib/avr6\libc.a(eewr_byte_atmega2560.o)
                0x000094fc                . = ALIGN (0x2)
 *(.text.*)
 .text.libgcc   0x000094fc       0x18 c:/winavr-20100110/bin/../lib/gcc/avr/4.3.3/avr6\libgcc.a(_udivmodqi4.o)
                0x000094fc                __udivmodqi4
 .text.libgcc   0x00009514       0x28 c:/winavr-20100110/bin/../lib/gcc/avr/4.3.3/avr6\libgcc.a(_udivmodhi4.o)
                0x00009514                __udivmodhi4
 .text.libgcc   0x0000953c       0x44 c:/winavr-20100110/bin/../lib/gcc/avr/4.3.3/avr6\libgcc.a(_udivmodsi4.o)
                0x0000953c                __udivmodsi4
 .text.libgcc   0x00009580        0x0 c:/winavr-20100110/bin/../lib/gcc/avr/4.3.3/avr6\libgcc.a(_exit.o)
 .text.libgcc   0x00009580        0x0 c:/winavr-20100110/bin/../lib/gcc/avr/4.3.3/avr6\libgcc.a(_clear_bss.o)
 .text.libgcc   0x00009580       0x38 c:/winavr-20100110/bin/../lib/gcc/avr/4.3.3/avr6\libgcc.a(_prologue.o)
                0x00009580                __prologue_saves__
 .text.libgcc   0x000095b8       0x36 c:/winavr-20100110/bin/../lib/gcc/avr/4.3.3/avr6\libgcc.a(_epilogue.o)
                0x000095b8                __epilogue_restores__
 .text.avr-libc
                0x000095ee       0x12 c:/winavr-20100110/bin/../lib/gcc/avr/4.3.3/../../../../avr/lib/avr6\libc.a(memcpy.o)
                0x000095ee                memcpy
 .text.avr-libc
                0x00009600       0x46 c:/winavr-20100110/bin/../lib/gcc/avr/4.3.3/../../../../avr/lib/avr6\libc.a(printf_p.o)
                0x00009600                printf_P
 .text.avr-libc
                0x00009646      0x40c c:/winavr-20100110/bin/../lib/gcc/avr/4.3.3/../../../../avr/lib/avr6\libc.a(vfprintf_std.o)
                0x00009646                vfprintf
 .text.avr-libc
                0x00009a52       0x10 c:/winavr-20100110/bin/../lib/gcc/avr/4.3.3/../../../../avr/lib/avr6\libc.a(eewr_dword_atmega2560.o)
                0x00009a52                __eewr_dword_m2560
                0x00009a52                __eewr_float_m2560
 .text.avr-libc
                0x00009a62        0xa c:/winavr-20100110/bin/../lib/gcc/avr/4.3.3/../../../../avr/lib/avr6\libc.a(eewr_word_atmega2560.o)
                0x00009a62                __eewr_word_m2560
 .text.avr-libc
                0x00009a6c       0x16 c:/winavr-20100110/bin/../lib/gcc/avr/4.3.3/../../../../avr/lib/avr6\libc.a(strnlen_P.o)
                0x00009a6c                strnlen_P
 .text.avr-libc
                0x00009a82       0x16 c:/winavr-20100110/bin/../lib/gcc/avr/4.3.3/../../../../avr/lib/avr6\libc.a(strnlen.o)
                0x00009a82                strnlen
 .text.avr-libc
                0x00009a98       0x58 c:/winavr-20100110/bin/../lib/gcc/avr/4.3.3/../../../../avr/lib/avr6\libc.a(fputc.o)
                0x00009a98                fputc
 .text.avr-libc
                0x00009af0       0xbc c:/winavr-20100110/bin/../lib/gcc/avr/4.3.3/../../../../avr/lib/avr6\libc.a(ultoa_invert.o)
                0x00009af0                __ultoa_invert
 .text.avr-libc
                0x00009bac       0x1c c:/winavr-20100110/bin/../lib/gcc/avr/4.3.3/../../../../avr/lib/avr6\libc.a(eewr_byte_atmega2560.o)
                0x00009bae                __eewr_r18_m2560
                0x00009bac                __eewr_byte_m2560
                0x00009bc8                . = ALIGN (0x2)
 *(.fini9)
 .fini9         0x00009bc8        0x0 c:/winavr-20100110/bin/../lib/gcc/avr/4.3.3/avr6\libgcc.a(_exit.o)
                0x00009bc8                exit
                0x00009bc8                _exit
 *(.fini9)
 *(.fini8)
 *(.fini8)
 *(.fini7)
 *(.fini7)
 *(.fini6)
 *(.fini6)
 *(.fini5)
 *(.fini5)
 *(.fini4)
 *(.fini4)
 *(.fini3)
 *(.fini3)
 *(.fini2)
 *(.fini2)
 *(.fini1)
 *(.fini1)
 *(.fini0)
 .fini0         0x00009bc8        0x4 c:/winavr-20100110/bin/../lib/gcc/avr/4.3.3/avr6\libgcc.a(_exit.o)
 *(.fini0)
                0x00009bcc                _etext = .

.data           0x00802200      0x10e load address 0x00009bcc
                0x00802200                PROVIDE (__data_start, .)
 *(.data)
 .data          0x00802200        0x0 c:/winavr-20100110/bin/../lib/gcc/avr/4.3.3/../../../../avr/lib/avr6/crtm2560.o
 .data          0x00802200        0x0 ./src/DeviceInfo.o
 .data          0x00802200        0x0 ./src/DimmerProtocol.o
 .data          0x00802200        0x0 ./src/Flash.o
 .data          0x00802200        0x2 ./src/MPRProtocol.o
                0x00802200                mprToken
 .data          0x00802202        0x0 ./src/MappingTable.o
 .data          0x00802202        0x1 ./src/PLCS_Protocol.o
                0x00802202                g_NoticeMode
 .data          0x00802203        0x0 ./src/PatternBasedControl.o
 .data          0x00802203        0x0 ./src/RFU_Protocol.o
 .data          0x00802203        0x0 ./src/SSRContol.o
 .data          0x00802203        0x0 ./src/ScheduleTable.o
 .data          0x00802203        0x0 ./src/Timer.o
 .data          0x00802203        0x0 ./src/Uart.o
 .data          0x00802203        0x0 ./src/XNetProtocol.o
 .data          0x00802203        0x0 ./src/Xcps.o
 .data          0x00802203        0x0 ./src/ZRMProtocol.o
 .data          0x00802203        0x0 ./src/debug.o
 .data          0x00802203        0x2 ./src/main.o
 .data          0x00802205        0x0 ./src/rotary.o
 .data          0x00802205        0x0 ./src/util.o
 .data          0x00802205        0x0 c:/winavr-20100110/bin/../lib/gcc/avr/4.3.3/avr6\libgcc.a(_udivmodqi4.o)
 .data          0x00802205        0x0 c:/winavr-20100110/bin/../lib/gcc/avr/4.3.3/avr6\libgcc.a(_udivmodhi4.o)
 .data          0x00802205        0x0 c:/winavr-20100110/bin/../lib/gcc/avr/4.3.3/avr6\libgcc.a(_udivmodsi4.o)
 .data          0x00802205        0x0 c:/winavr-20100110/bin/../lib/gcc/avr/4.3.3/avr6\libgcc.a(_exit.o)
 .data          0x00802205        0x0 c:/winavr-20100110/bin/../lib/gcc/avr/4.3.3/avr6\libgcc.a(_clear_bss.o)
 .data          0x00802205        0x0 c:/winavr-20100110/bin/../lib/gcc/avr/4.3.3/avr6\libgcc.a(_fixunssfsi.o)
 .data          0x00802205        0x0 c:/winavr-20100110/bin/../lib/gcc/avr/4.3.3/avr6\libgcc.a(_addsub_sf.o)
 .data          0x00802205        0x0 c:/winavr-20100110/bin/../lib/gcc/avr/4.3.3/avr6\libgcc.a(_mul_sf.o)
 .data          0x00802205        0x0 c:/winavr-20100110/bin/../lib/gcc/avr/4.3.3/avr6\libgcc.a(_div_sf.o)
 .data          0x00802205        0x0 c:/winavr-20100110/bin/../lib/gcc/avr/4.3.3/avr6\libgcc.a(_gt_sf.o)
 .data          0x00802205        0x0 c:/winavr-20100110/bin/../lib/gcc/avr/4.3.3/avr6\libgcc.a(_ge_sf.o)
 .data          0x00802205        0x0 c:/winavr-20100110/bin/../lib/gcc/avr/4.3.3/avr6\libgcc.a(_lt_sf.o)
 .data          0x00802205        0x0 c:/winavr-20100110/bin/../lib/gcc/avr/4.3.3/avr6\libgcc.a(_si_to_sf.o)
 .data          0x00802205        0x0 c:/winavr-20100110/bin/../lib/gcc/avr/4.3.3/avr6\libgcc.a(_sf_to_si.o)
 .data          0x00802205        0x8 c:/winavr-20100110/bin/../lib/gcc/avr/4.3.3/avr6\libgcc.a(_thenan_sf.o)
                0x00802205                __thenan_sf
 .data          0x0080220d        0x0 c:/winavr-20100110/bin/../lib/gcc/avr/4.3.3/avr6\libgcc.a(_usi_to_sf.o)
 .data          0x0080220d        0x0 c:/winavr-20100110/bin/../lib/gcc/avr/4.3.3/avr6\libgcc.a(_prologue.o)
 .data          0x0080220d        0x0 c:/winavr-20100110/bin/../lib/gcc/avr/4.3.3/avr6\libgcc.a(_epilogue.o)
 .data          0x0080220d        0x0 c:/winavr-20100110/bin/../lib/gcc/avr/4.3.3/avr6\libgcc.a(_clzsi2.o)
 .data          0x0080220d        0x0 c:/winavr-20100110/bin/../lib/gcc/avr/4.3.3/avr6\libgcc.a(_pack_sf.o)
 .data          0x0080220d        0x0 c:/winavr-20100110/bin/../lib/gcc/avr/4.3.3/avr6\libgcc.a(_unpack_sf.o)
 .data          0x0080220d        0x0 c:/winavr-20100110/bin/../lib/gcc/avr/4.3.3/avr6\libgcc.a(_fpcmp_parts_sf.o)
 .data          0x0080220d      0x100 c:/winavr-20100110/bin/../lib/gcc/avr/4.3.3/avr6\libgcc.a(_clz.o)
                0x0080220d                __clz_tab
 .data          0x0080230d        0x0 c:/winavr-20100110/bin/../lib/gcc/avr/4.3.3/../../../../avr/lib/avr6\libc.a(memcpy.o)
 .data          0x0080230d        0x0 c:/winavr-20100110/bin/../lib/gcc/avr/4.3.3/../../../../avr/lib/avr6\libc.a(iob.o)
 .data          0x0080230d        0x0 c:/winavr-20100110/bin/../lib/gcc/avr/4.3.3/../../../../avr/lib/avr6\libc.a(printf_p.o)
 .data          0x0080230d        0x0 c:/winavr-20100110/bin/../lib/gcc/avr/4.3.3/../../../../avr/lib/avr6\libc.a(vfprintf_std.o)
 .data          0x0080230d        0x0 c:/winavr-20100110/bin/../lib/gcc/avr/4.3.3/../../../../avr/lib/avr6\libc.a(eewr_dword_atmega2560.o)
 .data          0x0080230d        0x0 c:/winavr-20100110/bin/../lib/gcc/avr/4.3.3/../../../../avr/lib/avr6\libc.a(eewr_word_atmega2560.o)
 .data          0x0080230d        0x0 c:/winavr-20100110/bin/../lib/gcc/avr/4.3.3/../../../../avr/lib/avr6\libc.a(strnlen_P.o)
 .data          0x0080230d        0x0 c:/winavr-20100110/bin/../lib/gcc/avr/4.3.3/../../../../avr/lib/avr6\libc.a(strnlen.o)
 .data          0x0080230d        0x0 c:/winavr-20100110/bin/../lib/gcc/avr/4.3.3/../../../../avr/lib/avr6\libc.a(fputc.o)
 .data          0x0080230d        0x0 c:/winavr-20100110/bin/../lib/gcc/avr/4.3.3/../../../../avr/lib/avr6\libc.a(ultoa_invert.o)
 .data          0x0080230d        0x0 c:/winavr-20100110/bin/../lib/gcc/avr/4.3.3/../../../../avr/lib/avr6\libc.a(eewr_byte_atmega2560.o)
 *(.data*)
 *(.rodata)
 *(.rodata*)
 *(.gnu.linkonce.d*)
                0x0080230e                . = ALIGN (0x2)
 *fill*         0x0080230d        0x1 00
                0x0080230e                _edata = .
                0x0080230e                PROVIDE (__data_end, .)

.bss            0x0080230e     0x4da6
                0x0080230e                PROVIDE (__bss_start, .)
 *(.bss)
 .bss           0x0080230e        0x0 c:/winavr-20100110/bin/../lib/gcc/avr/4.3.3/../../../../avr/lib/avr6/crtm2560.o
 .bss           0x0080230e        0x0 ./src/DeviceInfo.o
 .bss           0x0080230e        0x2 ./src/DimmerProtocol.o
 .bss           0x00802310        0x0 ./src/Flash.o
 .bss           0x00802310        0x0 ./src/MPRProtocol.o
 .bss           0x00802310        0x0 ./src/MappingTable.o
 .bss           0x00802310        0x4 ./src/PLCS_Protocol.o
                0x00802310                ncp_NetState
                0x00802312                seqNumGenerator
                0x00802311                token
 .bss           0x00802314        0x0 ./src/PatternBasedControl.o
 .bss           0x00802314        0x2 ./src/RFU_Protocol.o
                0x00802314                seqNumGeneratorForRFUP
 .bss           0x00802316        0x0 ./src/SSRContol.o
 .bss           0x00802316        0x0 ./src/ScheduleTable.o
 .bss           0x00802316        0x0 ./src/Timer.o
 .bss           0x00802316       0x18 ./src/Uart.o
                0x00802324                uart2_rx_len
                0x0080231c                uart1_rx_front
                0x0080232d                uart3_tx_len
                0x00802325                uart2_tx_front
                0x00802319                uart0_tx_front
                0x0080231f                uart1_tx_front
                0x00802317                uart0_rx_tail
                0x0080231d                uart1_rx_tail
                0x0080232c                uart3_tx_tail
                0x0080231a                uart0_tx_tail
                0x00802320                uart1_tx_tail
                0x00802327                uart2_tx_len
                0x0080232b                uart3_tx_front
                0x00802326                uart2_tx_tail
                0x0080232a                uart3_rx_len
                0x00802322                uart2_rx_front
                0x00802329                uart3_rx_tail
                0x00802321                uart1_tx_len
                0x00802316                uart0_rx_front
                0x00802323                uart2_rx_tail
                0x0080231e                uart1_rx_len
                0x00802318                uart0_rx_len
                0x0080231b                uart0_tx_len
                0x00802328                uart3_rx_front
 .bss           0x0080232e        0x4 ./src/XNetProtocol.o
                0x0080232f                messageList_Head
                0x00802330                mprMessageList_Tail
                0x0080232e                messageList_Tail
                0x00802331                mprMessageList_Head
 .bss           0x00802332       0x20 ./src/Xcps.o
                0x0080233c                xcps_pdu_len_rs485ForMPR
                0x00802336                xcps_rxlen_rs485
                0x00802334                xcps_rxlen_zigbee_1
                0x0080233a                xcps_rxlen_rs485ForMPR
                0x00802338                xcps_pdu_len_rs485
                0x00802332                xcps_rxlen_zigbee_0
 .bss           0x00802352       0x9a ./src/ZRMProtocol.o
                0x00802356                lastResult_0
                0x00802355                sendBuffForZRM_Tail_1
                0x00802352                sendBuffForZRM_Head_0
                0x00802354                sendBuffForZRM_Head_1
                0x00802353                sendBuffForZRM_Tail_0
                0x00802357                lastResult_1
 .bss           0x008023ec        0x0 ./src/debug.o
 .bss           0x008023ec       0x2b ./src/main.o
                0x008023ec                applyingSchedule
                0x008023ed                g_PowerMeterValue
 .bss           0x00802417        0x0 ./src/rotary.o
 .bss           0x00802417        0x0 ./src/util.o
 .bss           0x00802417        0x0 c:/winavr-20100110/bin/../lib/gcc/avr/4.3.3/avr6\libgcc.a(_udivmodqi4.o)
 .bss           0x00802417        0x0 c:/winavr-20100110/bin/../lib/gcc/avr/4.3.3/avr6\libgcc.a(_udivmodhi4.o)
 .bss           0x00802417        0x0 c:/winavr-20100110/bin/../lib/gcc/avr/4.3.3/avr6\libgcc.a(_udivmodsi4.o)
 .bss           0x00802417        0x0 c:/winavr-20100110/bin/../lib/gcc/avr/4.3.3/avr6\libgcc.a(_exit.o)
 .bss           0x00802417        0x0 c:/winavr-20100110/bin/../lib/gcc/avr/4.3.3/avr6\libgcc.a(_clear_bss.o)
 .bss           0x00802417        0x0 c:/winavr-20100110/bin/../lib/gcc/avr/4.3.3/avr6\libgcc.a(_fixunssfsi.o)
 .bss           0x00802417        0x0 c:/winavr-20100110/bin/../lib/gcc/avr/4.3.3/avr6\libgcc.a(_addsub_sf.o)
 .bss           0x00802417        0x0 c:/winavr-20100110/bin/../lib/gcc/avr/4.3.3/avr6\libgcc.a(_mul_sf.o)
 .bss           0x00802417        0x0 c:/winavr-20100110/bin/../lib/gcc/avr/4.3.3/avr6\libgcc.a(_div_sf.o)
 .bss           0x00802417        0x0 c:/winavr-20100110/bin/../lib/gcc/avr/4.3.3/avr6\libgcc.a(_gt_sf.o)
 .bss           0x00802417        0x0 c:/winavr-20100110/bin/../lib/gcc/avr/4.3.3/avr6\libgcc.a(_ge_sf.o)
 .bss           0x00802417        0x0 c:/winavr-20100110/bin/../lib/gcc/avr/4.3.3/avr6\libgcc.a(_lt_sf.o)
 .bss           0x00802417        0x0 c:/winavr-20100110/bin/../lib/gcc/avr/4.3.3/avr6\libgcc.a(_si_to_sf.o)
 .bss           0x00802417        0x0 c:/winavr-20100110/bin/../lib/gcc/avr/4.3.3/avr6\libgcc.a(_sf_to_si.o)
 .bss           0x00802417        0x0 c:/winavr-20100110/bin/../lib/gcc/avr/4.3.3/avr6\libgcc.a(_thenan_sf.o)
 .bss           0x00802417        0x0 c:/winavr-20100110/bin/../lib/gcc/avr/4.3.3/avr6\libgcc.a(_usi_to_sf.o)
 .bss           0x00802417        0x0 c:/winavr-20100110/bin/../lib/gcc/avr/4.3.3/avr6\libgcc.a(_prologue.o)
 .bss           0x00802417        0x0 c:/winavr-20100110/bin/../lib/gcc/avr/4.3.3/avr6\libgcc.a(_epilogue.o)
 .bss           0x00802417        0x0 c:/winavr-20100110/bin/../lib/gcc/avr/4.3.3/avr6\libgcc.a(_clzsi2.o)
 .bss           0x00802417        0x0 c:/winavr-20100110/bin/../lib/gcc/avr/4.3.3/avr6\libgcc.a(_pack_sf.o)
 .bss           0x00802417        0x0 c:/winavr-20100110/bin/../lib/gcc/avr/4.3.3/avr6\libgcc.a(_unpack_sf.o)
 .bss           0x00802417        0x0 c:/winavr-20100110/bin/../lib/gcc/avr/4.3.3/avr6\libgcc.a(_fpcmp_parts_sf.o)
 .bss           0x00802417        0x0 c:/winavr-20100110/bin/../lib/gcc/avr/4.3.3/avr6\libgcc.a(_clz.o)
 .bss           0x00802417        0x0 c:/winavr-20100110/bin/../lib/gcc/avr/4.3.3/../../../../avr/lib/avr6\libc.a(memcpy.o)
 .bss           0x00802417        0x0 c:/winavr-20100110/bin/../lib/gcc/avr/4.3.3/../../../../avr/lib/avr6\libc.a(iob.o)
 .bss           0x00802417        0x0 c:/winavr-20100110/bin/../lib/gcc/avr/4.3.3/../../../../avr/lib/avr6\libc.a(printf_p.o)
 .bss           0x00802417        0x0 c:/winavr-20100110/bin/../lib/gcc/avr/4.3.3/../../../../avr/lib/avr6\libc.a(vfprintf_std.o)
 .bss           0x00802417        0x0 c:/winavr-20100110/bin/../lib/gcc/avr/4.3.3/../../../../avr/lib/avr6\libc.a(eewr_dword_atmega2560.o)
 .bss           0x00802417        0x0 c:/winavr-20100110/bin/../lib/gcc/avr/4.3.3/../../../../avr/lib/avr6\libc.a(eewr_word_atmega2560.o)
 .bss           0x00802417        0x0 c:/winavr-20100110/bin/../lib/gcc/avr/4.3.3/../../../../avr/lib/avr6\libc.a(strnlen_P.o)
 .bss           0x00802417        0x0 c:/winavr-20100110/bin/../lib/gcc/avr/4.3.3/../../../../avr/lib/avr6\libc.a(strnlen.o)
 .bss           0x00802417        0x0 c:/winavr-20100110/bin/../lib/gcc/avr/4.3.3/../../../../avr/lib/avr6\libc.a(fputc.o)
 .bss           0x00802417        0x0 c:/winavr-20100110/bin/../lib/gcc/avr/4.3.3/../../../../avr/lib/avr6\libc.a(ultoa_invert.o)
 .bss           0x00802417        0x0 c:/winavr-20100110/bin/../lib/gcc/avr/4.3.3/../../../../avr/lib/avr6\libc.a(eewr_byte_atmega2560.o)
 *(.bss*)
 *(COMMON)
 COMMON         0x00802417      0xea0 ./src/DeviceInfo.o
                0x00802417                tempBuffForDeviceInfo
                0x00802516                tmp_CircuitInfo
                0x008026f6                defaultScheduleTable
                0x008028e6                deviceInfoTable
                0x00802cf7                tmp_PrevCircuitInfo
                0x00802ed7                scheduleTable_1
                0x008030c7                scheduleTable_2
 COMMON         0x008032b7      0xb04 ./src/DimmerProtocol.o
                0x008032b7                dimmerMappingTable
                0x0080337f                dimmerControlInfoList
                0x00803498                zrmpInfo_1
                0x0080349e                tmpBuffForDimmer
                0x008034be                sensorMappingTable
                0x00803db5                zrmpInfo_0
 COMMON         0x00803dbb       0x40 ./src/MPRProtocol.o
                0x00803dbb                tmp_Buff_MPR
 COMMON         0x00803dfb       0xff ./src/MappingTable.o
                0x00803dfb                tempBuffForMappingInfo
 COMMON         0x00803efa      0x1b2 ./src/PLCS_Protocol.o
                0x00803efa                debug_DebugInfo
                0x00803f02                tmp_DevInfo_D
                0x00803f0f                ctrl_Cmd
                0x00803f11                dev_Count
                0x00803f12                tmp_Buff
                0x00803f52                SSRTable
                0x00803f54                z_ieee_Id
                0x00803f58                tmp_DevInfo_P
                0x00803f5a                patternTable
                0x008040aa                device_Type
 COMMON         0x008040ac       0xff ./src/PatternBasedControl.o
                0x008040ac                tempBuffForPatternInfo
 COMMON         0x008041ab       0x40 ./src/RFU_Protocol.o
                0x008041ab                tmp_BuffForRFUP
 COMMON         0x008041eb       0xff ./src/ScheduleTable.o
                0x008041eb                tempBuffForSchedule
 COMMON         0x008042ea       0x4f ./src/Timer.o
                0x008042ea                timerCount
                0x008042ee                timer_list
 COMMON         0x00804339      0x20c ./src/Uart.o
                0x00804339                uart1_tx_buff
                0x0080433a                data1
                0x0080433b                data2
                0x0080433c                status3
                0x0080433d                uart0_rx_buff
                0x008043bd                status2
                0x008043be                uart3_rx_buff
                0x0080443e                status1
                0x0080443f                uart0_tx_buff
                0x00804440                data0
                0x00804441                uart3_tx_buff
                0x00804442                uart2_rx_buff
                0x008044c2                uart2_tx_buff
                0x008044c3                uart1_rx_buff
                0x00804543                data3
                0x00804544                status0
 COMMON         0x00804545      0xf3c ./src/XNetProtocol.o
                0x00804545                sendMessageList
                0x008051c5                sendMPRMessageList
                0x00805445                messageLength
                0x00805477                mprMessageLength
 COMMON         0x00805481      0x180 ./src/Xcps.o
                0x00805481                xcps_rx_packet_zigbee_0
                0x008054c1                xcps_tx_packet_zigbee_0
                0x00805501                xcps_rx_packet_zigbee_1
                0x00805541                xcps_rx_packet_rs485
                0x00805581                xcps_rx_packet_rs485ForMPR
                0x008055c1                xcps_tx_packet_zigbee_1
 COMMON         0x00805601     0x1960 ./src/ZRMProtocol.o
                0x00805601                sendBuffData_1
                0x00806291                sendBuffData_0
                0x00806f21                tmp_BuffForZRM
 COMMON         0x00806f61        0xa ./src/debug.o
                0x00806f61                tempBuffForDebug
 COMMON         0x00806f6b      0x143 ./src/main.o
                0x00806f6b                SensorPacket
                0x00806fab                msgFromZigbee
                0x00806feb                Min
                0x00806fec                Hour
                0x00806fed                ZigbeePacket
                0x0080702d                NowTime
                0x0080702e                GatewayPacket
                0x0080706e                MPRPacket
 COMMON         0x008070ae        0x6 c:/winavr-20100110/bin/../lib/gcc/avr/4.3.3/../../../../avr/lib/avr6\libc.a(iob.o)
                0x008070ae                __iob
                0x008070b4                PROVIDE (__bss_end, .)
                0x00009bcc                __data_load_start = LOADADDR (.data)
                0x00009cda                __data_load_end = (__data_load_start + SIZEOF (.data))

.noinit         0x008070b4        0x0
                0x008070b4                PROVIDE (__noinit_start, .)
 *(.noinit*)
                0x008070b4                PROVIDE (__noinit_end, .)
                0x008070b4                _end = .
                0x008070b4                PROVIDE (__heap_start, .)

.eeprom         0x00810000      0xb13
 *(.eeprom*)
 .eeprom        0x00810000      0x9c3 ./src/MappingTable.o
                0x00810000                ee_SensorMappingInfo
                0x008108f7                ee_SensorMappingTableSize
                0x008109c1                ee_DimmerMappingTableSize
                0x008108f9                ee_DimmerSSRMappingInfo
 .eeprom        0x008109c3      0x150 ./src/PatternBasedControl.o
                0x008109d3                ee_PatternInfo
                0x008109c3                ee_PatternInfoTableSize
                0x00810b13                __eeprom_end = .

.fuse
 *(.fuse)
 *(.lfuse)
 *(.hfuse)
 *(.efuse)

.lock
 *(.lock*)

.signature
 *(.signature*)

.stab           0x00000000    0x10d28
 *(.stab)
 .stab          0x00000000      0xf78 ./src/DeviceInfo.o
 .stab          0x00000f78      0x798 ./src/DimmerProtocol.o
                                0xb4c (size before relaxing)
 .stab          0x00001710      0xd20 ./src/Flash.o
                                0xf24 (size before relaxing)
 .stab          0x00002430      0x378 ./src/MPRProtocol.o
                                0x774 (size before relaxing)
 .stab          0x000027a8      0xf00 ./src/MappingTable.o
                               0x126c (size before relaxing)
 .stab          0x000036a8     0x5310 ./src/PLCS_Protocol.o
                               0x576c (size before relaxing)
 .stab          0x000089b8      0x624 ./src/PatternBasedControl.o
                                0x9d8 (size before relaxing)
 .stab          0x00008fdc      0xdb0 ./src/RFU_Protocol.o
                               0x11ac (size before relaxing)
 .stab          0x00009d8c      0x348 ./src/SSRContol.o
                                0x678 (size before relaxing)
 .stab          0x0000a0d4      0xb4c ./src/ScheduleTable.o
                                0xeb8 (size before relaxing)
 .stab          0x0000ac20      0x39c ./src/Timer.o
                                0x5d0 (size before relaxing)
 .stab          0x0000afbc      0xf90 ./src/Uart.o
                               0x120c (size before relaxing)
 .stab          0x0000bf4c      0xabc ./src/XNetProtocol.o
                                0xec4 (size before relaxing)
 .stab          0x0000ca08      0xf30 ./src/Xcps.o
                               0x11ac (size before relaxing)
 .stab          0x0000d938     0x1020 ./src/ZRMProtocol.o
                               0x13b0 (size before relaxing)
 .stab          0x0000e958      0x36c ./src/debug.o
                                0x57c (size before relaxing)
 .stab          0x0000ecc4     0x1b9c ./src/main.o
                               0x2064 (size before relaxing)
 .stab          0x00010860      0x1d4 ./src/rotary.o
                                0x408 (size before relaxing)
 .stab          0x00010a34      0x2f4 ./src/util.o
                                0x504 (size before relaxing)

.stabstr        0x00000000     0x6ecd
 *(.stabstr)
 .stabstr       0x00000000     0x6ecd ./src/DeviceInfo.o

.stab.excl
 *(.stab.excl)

.stab.exclstr
 *(.stab.exclstr)

.stab.index
 *(.stab.index)

.stab.indexstr
 *(.stab.indexstr)

.comment
 *(.comment)

.debug
 *(.debug)

.line
 *(.line)

.debug_srcinfo
 *(.debug_srcinfo)

.debug_sfnames
 *(.debug_sfnames)

.debug_aranges  0x00000000      0x1c0
 *(.debug_aranges)
 .debug_aranges
                0x00000000       0x20 c:/winavr-20100110/bin/../lib/gcc/avr/4.3.3/avr6\libgcc.a(_fixunssfsi.o)
 .debug_aranges
                0x00000020       0x20 c:/winavr-20100110/bin/../lib/gcc/avr/4.3.3/avr6\libgcc.a(_addsub_sf.o)
 .debug_aranges
                0x00000040       0x20 c:/winavr-20100110/bin/../lib/gcc/avr/4.3.3/avr6\libgcc.a(_mul_sf.o)
 .debug_aranges
                0x00000060       0x20 c:/winavr-20100110/bin/../lib/gcc/avr/4.3.3/avr6\libgcc.a(_div_sf.o)
 .debug_aranges
                0x00000080       0x20 c:/winavr-20100110/bin/../lib/gcc/avr/4.3.3/avr6\libgcc.a(_gt_sf.o)
 .debug_aranges
                0x000000a0       0x20 c:/winavr-20100110/bin/../lib/gcc/avr/4.3.3/avr6\libgcc.a(_ge_sf.o)
 .debug_aranges
                0x000000c0       0x20 c:/winavr-20100110/bin/../lib/gcc/avr/4.3.3/avr6\libgcc.a(_lt_sf.o)
 .debug_aranges
                0x000000e0       0x20 c:/winavr-20100110/bin/../lib/gcc/avr/4.3.3/avr6\libgcc.a(_si_to_sf.o)
 .debug_aranges
                0x00000100       0x20 c:/winavr-20100110/bin/../lib/gcc/avr/4.3.3/avr6\libgcc.a(_sf_to_si.o)
 .debug_aranges
                0x00000120       0x20 c:/winavr-20100110/bin/../lib/gcc/avr/4.3.3/avr6\libgcc.a(_usi_to_sf.o)
 .debug_aranges
                0x00000140       0x20 c:/winavr-20100110/bin/../lib/gcc/avr/4.3.3/avr6\libgcc.a(_clzsi2.o)
 .debug_aranges
                0x00000160       0x20 c:/winavr-20100110/bin/../lib/gcc/avr/4.3.3/avr6\libgcc.a(_pack_sf.o)
 .debug_aranges
                0x00000180       0x20 c:/winavr-20100110/bin/../lib/gcc/avr/4.3.3/avr6\libgcc.a(_unpack_sf.o)
 .debug_aranges
                0x000001a0       0x20 c:/winavr-20100110/bin/../lib/gcc/avr/4.3.3/avr6\libgcc.a(_fpcmp_parts_sf.o)

.debug_pubnames
                0x00000000      0x214
 *(.debug_pubnames)
 .debug_pubnames
                0x00000000       0x23 c:/winavr-20100110/bin/../lib/gcc/avr/4.3.3/avr6\libgcc.a(_fixunssfsi.o)
 .debug_pubnames
                0x00000023       0x2c c:/winavr-20100110/bin/../lib/gcc/avr/4.3.3/avr6\libgcc.a(_addsub_sf.o)
 .debug_pubnames
                0x0000004f       0x1f c:/winavr-20100110/bin/../lib/gcc/avr/4.3.3/avr6\libgcc.a(_mul_sf.o)
 .debug_pubnames
                0x0000006e       0x1f c:/winavr-20100110/bin/../lib/gcc/avr/4.3.3/avr6\libgcc.a(_div_sf.o)
 .debug_pubnames
                0x0000008d       0x1e c:/winavr-20100110/bin/../lib/gcc/avr/4.3.3/avr6\libgcc.a(_gt_sf.o)
 .debug_pubnames
                0x000000ab       0x1e c:/winavr-20100110/bin/../lib/gcc/avr/4.3.3/avr6\libgcc.a(_ge_sf.o)
 .debug_pubnames
                0x000000c9       0x1e c:/winavr-20100110/bin/../lib/gcc/avr/4.3.3/avr6\libgcc.a(_lt_sf.o)
 .debug_pubnames
                0x000000e7       0x22 c:/winavr-20100110/bin/../lib/gcc/avr/4.3.3/avr6\libgcc.a(_si_to_sf.o)
 .debug_pubnames
                0x00000109       0x20 c:/winavr-20100110/bin/../lib/gcc/avr/4.3.3/avr6\libgcc.a(_sf_to_si.o)
 .debug_pubnames
                0x00000129       0x22 c:/winavr-20100110/bin/../lib/gcc/avr/4.3.3/avr6\libgcc.a(_thenan_sf.o)
 .debug_pubnames
                0x0000014b       0x24 c:/winavr-20100110/bin/../lib/gcc/avr/4.3.3/avr6\libgcc.a(_usi_to_sf.o)
 .debug_pubnames
                0x0000016f       0x1f c:/winavr-20100110/bin/../lib/gcc/avr/4.3.3/avr6\libgcc.a(_clzsi2.o)
 .debug_pubnames
                0x0000018e       0x1f c:/winavr-20100110/bin/../lib/gcc/avr/4.3.3/avr6\libgcc.a(_pack_sf.o)
 .debug_pubnames
                0x000001ad       0x21 c:/winavr-20100110/bin/../lib/gcc/avr/4.3.3/avr6\libgcc.a(_unpack_sf.o)
 .debug_pubnames
                0x000001ce       0x26 c:/winavr-20100110/bin/../lib/gcc/avr/4.3.3/avr6\libgcc.a(_fpcmp_parts_sf.o)
 .debug_pubnames
                0x000001f4       0x20 c:/winavr-20100110/bin/../lib/gcc/avr/4.3.3/avr6\libgcc.a(_clz.o)

.debug_info     0x00000000     0x2612
 *(.debug_info)
 .debug_info    0x00000000       0xb1 c:/winavr-20100110/bin/../lib/gcc/avr/4.3.3/avr6\libgcc.a(_fixunssfsi.o)
 .debug_info    0x000000b1      0x47a c:/winavr-20100110/bin/../lib/gcc/avr/4.3.3/avr6\libgcc.a(_addsub_sf.o)
 .debug_info    0x0000052b      0x485 c:/winavr-20100110/bin/../lib/gcc/avr/4.3.3/avr6\libgcc.a(_mul_sf.o)
 .debug_info    0x000009b0      0x3fc c:/winavr-20100110/bin/../lib/gcc/avr/4.3.3/avr6\libgcc.a(_div_sf.o)
 .debug_info    0x00000dac      0x27f c:/winavr-20100110/bin/../lib/gcc/avr/4.3.3/avr6\libgcc.a(_gt_sf.o)
 .debug_info    0x0000102b      0x27f c:/winavr-20100110/bin/../lib/gcc/avr/4.3.3/avr6\libgcc.a(_ge_sf.o)
 .debug_info    0x000012aa      0x27f c:/winavr-20100110/bin/../lib/gcc/avr/4.3.3/avr6\libgcc.a(_lt_sf.o)
 .debug_info    0x00001529      0x207 c:/winavr-20100110/bin/../lib/gcc/avr/4.3.3/avr6\libgcc.a(_si_to_sf.o)
 .debug_info    0x00001730      0x2b0 c:/winavr-20100110/bin/../lib/gcc/avr/4.3.3/avr6\libgcc.a(_sf_to_si.o)
 .debug_info    0x000019e0      0x12c c:/winavr-20100110/bin/../lib/gcc/avr/4.3.3/avr6\libgcc.a(_thenan_sf.o)
 .debug_info    0x00001b0c      0x206 c:/winavr-20100110/bin/../lib/gcc/avr/4.3.3/avr6\libgcc.a(_usi_to_sf.o)
 .debug_info    0x00001d12      0x117 c:/winavr-20100110/bin/../lib/gcc/avr/4.3.3/avr6\libgcc.a(_clzsi2.o)
 .debug_info    0x00001e29      0x2df c:/winavr-20100110/bin/../lib/gcc/avr/4.3.3/avr6\libgcc.a(_pack_sf.o)
 .debug_info    0x00002108      0x251 c:/winavr-20100110/bin/../lib/gcc/avr/4.3.3/avr6\libgcc.a(_unpack_sf.o)
 .debug_info    0x00002359      0x210 c:/winavr-20100110/bin/../lib/gcc/avr/4.3.3/avr6\libgcc.a(_fpcmp_parts_sf.o)
 .debug_info    0x00002569       0xa9 c:/winavr-20100110/bin/../lib/gcc/avr/4.3.3/avr6\libgcc.a(_clz.o)
 *(.gnu.linkonce.wi.*)

.debug_abbrev   0x00000000     0x14ce
 *(.debug_abbrev)
 .debug_abbrev  0x00000000       0x5d c:/winavr-20100110/bin/../lib/gcc/avr/4.3.3/avr6\libgcc.a(_fixunssfsi.o)
 .debug_abbrev  0x0000005d      0x1ea c:/winavr-20100110/bin/../lib/gcc/avr/4.3.3/avr6\libgcc.a(_addsub_sf.o)
 .debug_abbrev  0x00000247      0x21b c:/winavr-20100110/bin/../lib/gcc/avr/4.3.3/avr6\libgcc.a(_mul_sf.o)
 .debug_abbrev  0x00000462      0x216 c:/winavr-20100110/bin/../lib/gcc/avr/4.3.3/avr6\libgcc.a(_div_sf.o)
 .debug_abbrev  0x00000678      0x15a c:/winavr-20100110/bin/../lib/gcc/avr/4.3.3/avr6\libgcc.a(_gt_sf.o)
 .debug_abbrev  0x000007d2      0x15a c:/winavr-20100110/bin/../lib/gcc/avr/4.3.3/avr6\libgcc.a(_ge_sf.o)
 .debug_abbrev  0x0000092c      0x15a c:/winavr-20100110/bin/../lib/gcc/avr/4.3.3/avr6\libgcc.a(_lt_sf.o)
 .debug_abbrev  0x00000a86      0x148 c:/winavr-20100110/bin/../lib/gcc/avr/4.3.3/avr6\libgcc.a(_si_to_sf.o)
 .debug_abbrev  0x00000bce      0x17f c:/winavr-20100110/bin/../lib/gcc/avr/4.3.3/avr6\libgcc.a(_sf_to_si.o)
 .debug_abbrev  0x00000d4d       0xad c:/winavr-20100110/bin/../lib/gcc/avr/4.3.3/avr6\libgcc.a(_thenan_sf.o)
 .debug_abbrev  0x00000dfa      0x157 c:/winavr-20100110/bin/../lib/gcc/avr/4.3.3/avr6\libgcc.a(_usi_to_sf.o)
 .debug_abbrev  0x00000f51       0xc4 c:/winavr-20100110/bin/../lib/gcc/avr/4.3.3/avr6\libgcc.a(_clzsi2.o)
 .debug_abbrev  0x00001015      0x1c0 c:/winavr-20100110/bin/../lib/gcc/avr/4.3.3/avr6\libgcc.a(_pack_sf.o)
 .debug_abbrev  0x000011d5      0x154 c:/winavr-20100110/bin/../lib/gcc/avr/4.3.3/avr6\libgcc.a(_unpack_sf.o)
 .debug_abbrev  0x00001329      0x13b c:/winavr-20100110/bin/../lib/gcc/avr/4.3.3/avr6\libgcc.a(_fpcmp_parts_sf.o)
 .debug_abbrev  0x00001464       0x6a c:/winavr-20100110/bin/../lib/gcc/avr/4.3.3/avr6\libgcc.a(_clz.o)

.debug_line     0x00000000     0x130b
 *(.debug_line)
 .debug_line    0x00000000       0xa7 c:/winavr-20100110/bin/../lib/gcc/avr/4.3.3/avr6\libgcc.a(_fixunssfsi.o)
 .debug_line    0x000000a7      0x2af c:/winavr-20100110/bin/../lib/gcc/avr/4.3.3/avr6\libgcc.a(_addsub_sf.o)
 .debug_line    0x00000356      0x239 c:/winavr-20100110/bin/../lib/gcc/avr/4.3.3/avr6\libgcc.a(_mul_sf.o)
 .debug_line    0x0000058f      0x1d5 c:/winavr-20100110/bin/../lib/gcc/avr/4.3.3/avr6\libgcc.a(_div_sf.o)
 .debug_line    0x00000764       0xd3 c:/winavr-20100110/bin/../lib/gcc/avr/4.3.3/avr6\libgcc.a(_gt_sf.o)
 .debug_line    0x00000837       0xd3 c:/winavr-20100110/bin/../lib/gcc/avr/4.3.3/avr6\libgcc.a(_ge_sf.o)
 .debug_line    0x0000090a       0xd3 c:/winavr-20100110/bin/../lib/gcc/avr/4.3.3/avr6\libgcc.a(_lt_sf.o)
 .debug_line    0x000009dd      0x135 c:/winavr-20100110/bin/../lib/gcc/avr/4.3.3/avr6\libgcc.a(_si_to_sf.o)
 .debug_line    0x00000b12      0x109 c:/winavr-20100110/bin/../lib/gcc/avr/4.3.3/avr6\libgcc.a(_sf_to_si.o)
 .debug_line    0x00000c1b       0x90 c:/winavr-20100110/bin/../lib/gcc/avr/4.3.3/avr6\libgcc.a(_thenan_sf.o)
 .debug_line    0x00000cab      0x133 c:/winavr-20100110/bin/../lib/gcc/avr/4.3.3/avr6\libgcc.a(_usi_to_sf.o)
 .debug_line    0x00000dde       0xa5 c:/winavr-20100110/bin/../lib/gcc/avr/4.3.3/avr6\libgcc.a(_clzsi2.o)
 .debug_line    0x00000e83      0x18a c:/winavr-20100110/bin/../lib/gcc/avr/4.3.3/avr6\libgcc.a(_pack_sf.o)
 .debug_line    0x0000100d      0x14b c:/winavr-20100110/bin/../lib/gcc/avr/4.3.3/avr6\libgcc.a(_unpack_sf.o)
 .debug_line    0x00001158      0x137 c:/winavr-20100110/bin/../lib/gcc/avr/4.3.3/avr6\libgcc.a(_fpcmp_parts_sf.o)
 .debug_line    0x0000128f       0x7c c:/winavr-20100110/bin/../lib/gcc/avr/4.3.3/avr6\libgcc.a(_clz.o)

.debug_frame    0x00000000      0x1e0
 *(.debug_frame)
 .debug_frame   0x00000000       0x20 c:/winavr-20100110/bin/../lib/gcc/avr/4.3.3/avr6\libgcc.a(_fixunssfsi.o)
 .debug_frame   0x00000020       0x40 c:/winavr-20100110/bin/../lib/gcc/avr/4.3.3/avr6\libgcc.a(_addsub_sf.o)
 .debug_frame   0x00000060       0x20 c:/winavr-20100110/bin/../lib/gcc/avr/4.3.3/avr6\libgcc.a(_mul_sf.o)
 .debug_frame   0x00000080       0x20 c:/winavr-20100110/bin/../lib/gcc/avr/4.3.3/avr6\libgcc.a(_div_sf.o)
 .debug_frame   0x000000a0       0x20 c:/winavr-20100110/bin/../lib/gcc/avr/4.3.3/avr6\libgcc.a(_gt_sf.o)
 .debug_frame   0x000000c0       0x20 c:/winavr-20100110/bin/../lib/gcc/avr/4.3.3/avr6\libgcc.a(_ge_sf.o)
 .debug_frame   0x000000e0       0x20 c:/winavr-20100110/bin/../lib/gcc/avr/4.3.3/avr6\libgcc.a(_lt_sf.o)
 .debug_frame   0x00000100       0x20 c:/winavr-20100110/bin/../lib/gcc/avr/4.3.3/avr6\libgcc.a(_si_to_sf.o)
 .debug_frame   0x00000120       0x20 c:/winavr-20100110/bin/../lib/gcc/avr/4.3.3/avr6\libgcc.a(_sf_to_si.o)
 .debug_frame   0x00000140       0x20 c:/winavr-20100110/bin/../lib/gcc/avr/4.3.3/avr6\libgcc.a(_usi_to_sf.o)
 .debug_frame   0x00000160       0x20 c:/winavr-20100110/bin/../lib/gcc/avr/4.3.3/avr6\libgcc.a(_clzsi2.o)
 .debug_frame   0x00000180       0x20 c:/winavr-20100110/bin/../lib/gcc/avr/4.3.3/avr6\libgcc.a(_pack_sf.o)
 .debug_frame   0x000001a0       0x20 c:/winavr-20100110/bin/../lib/gcc/avr/4.3.3/avr6\libgcc.a(_unpack_sf.o)
 .debug_frame   0x000001c0       0x20 c:/winavr-20100110/bin/../lib/gcc/avr/4.3.3/avr6\libgcc.a(_fpcmp_parts_sf.o)

.debug_str      0x00000000      0x307
 *(.debug_str)
 .debug_str     0x00000000       0xbf c:/winavr-20100110/bin/../lib/gcc/avr/4.3.3/avr6\libgcc.a(_fixunssfsi.o)
                                 0xfe (size before relaxing)
 .debug_str     0x000000bf      0x14d c:/winavr-20100110/bin/../lib/gcc/avr/4.3.3/avr6\libgcc.a(_addsub_sf.o)
                                0x206 (size before relaxing)
 .debug_str     0x0000020c       0x27 c:/winavr-20100110/bin/../lib/gcc/avr/4.3.3/avr6\libgcc.a(_mul_sf.o)
                                0x1bf (size before relaxing)
 .debug_str     0x00000233       0x35 c:/winavr-20100110/bin/../lib/gcc/avr/4.3.3/avr6\libgcc.a(_div_sf.o)
                                0x1c8 (size before relaxing)
 .debug_str     0x00000268        0x8 c:/winavr-20100110/bin/../lib/gcc/avr/4.3.3/avr6\libgcc.a(_gt_sf.o)
                                0x195 (size before relaxing)
 .debug_str     0x00000270        0x8 c:/winavr-20100110/bin/../lib/gcc/avr/4.3.3/avr6\libgcc.a(_ge_sf.o)
                                0x195 (size before relaxing)
 .debug_str     0x00000278        0x8 c:/winavr-20100110/bin/../lib/gcc/avr/4.3.3/avr6\libgcc.a(_lt_sf.o)
                                0x195 (size before relaxing)
 .debug_str     0x00000280       0x1e c:/winavr-20100110/bin/../lib/gcc/avr/4.3.3/avr6\libgcc.a(_si_to_sf.o)
                                0x17b (size before relaxing)
 .debug_str     0x0000029e        0xa c:/winavr-20100110/bin/../lib/gcc/avr/4.3.3/avr6\libgcc.a(_sf_to_si.o)
                                0x19e (size before relaxing)
 .debug_str     0x00000000      0x103 c:/winavr-20100110/bin/../lib/gcc/avr/4.3.3/avr6\libgcc.a(_thenan_sf.o)
 .debug_str     0x000002a8       0x14 c:/winavr-20100110/bin/../lib/gcc/avr/4.3.3/avr6\libgcc.a(_usi_to_sf.o)
                                0x177 (size before relaxing)
 .debug_str     0x000002bc       0x20 c:/winavr-20100110/bin/../lib/gcc/avr/4.3.3/avr6\libgcc.a(_clzsi2.o)
                                0x111 (size before relaxing)
 .debug_str     0x000002dc       0x10 c:/winavr-20100110/bin/../lib/gcc/avr/4.3.3/avr6\libgcc.a(_pack_sf.o)
                                0x19d (size before relaxing)
 .debug_str     0x000002ec        0xb c:/winavr-20100110/bin/../lib/gcc/avr/4.3.3/avr6\libgcc.a(_unpack_sf.o)
                                0x17f (size before relaxing)
 .debug_str     0x000002f7       0x10 c:/winavr-20100110/bin/../lib/gcc/avr/4.3.3/avr6\libgcc.a(_fpcmp_parts_sf.o)
                                0x163 (size before relaxing)
 .debug_str     0x00000000       0xf4 c:/winavr-20100110/bin/../lib/gcc/avr/4.3.3/avr6\libgcc.a(_clz.o)

.debug_loc      0x00000000      0xa1a
 *(.debug_loc)
 .debug_loc     0x00000000       0x34 c:/winavr-20100110/bin/../lib/gcc/avr/4.3.3/avr6\libgcc.a(_fixunssfsi.o)
 .debug_loc     0x00000034      0x32a c:/winavr-20100110/bin/../lib/gcc/avr/4.3.3/avr6\libgcc.a(_addsub_sf.o)
 .debug_loc     0x0000035e      0x104 c:/winavr-20100110/bin/../lib/gcc/avr/4.3.3/avr6\libgcc.a(_mul_sf.o)
 .debug_loc     0x00000462       0xc0 c:/winavr-20100110/bin/../lib/gcc/avr/4.3.3/avr6\libgcc.a(_div_sf.o)
 .debug_loc     0x00000522       0x3c c:/winavr-20100110/bin/../lib/gcc/avr/4.3.3/avr6\libgcc.a(_gt_sf.o)
 .debug_loc     0x0000055e       0x3c c:/winavr-20100110/bin/../lib/gcc/avr/4.3.3/avr6\libgcc.a(_ge_sf.o)
 .debug_loc     0x0000059a       0x3c c:/winavr-20100110/bin/../lib/gcc/avr/4.3.3/avr6\libgcc.a(_lt_sf.o)
 .debug_loc     0x000005d6       0xac c:/winavr-20100110/bin/../lib/gcc/avr/4.3.3/avr6\libgcc.a(_si_to_sf.o)
 .debug_loc     0x00000682       0x7e c:/winavr-20100110/bin/../lib/gcc/avr/4.3.3/avr6\libgcc.a(_sf_to_si.o)
 .debug_loc     0x00000700       0x4c c:/winavr-20100110/bin/../lib/gcc/avr/4.3.3/avr6\libgcc.a(_usi_to_sf.o)
 .debug_loc     0x0000074c       0x94 c:/winavr-20100110/bin/../lib/gcc/avr/4.3.3/avr6\libgcc.a(_clzsi2.o)
 .debug_loc     0x000007e0      0x13e c:/winavr-20100110/bin/../lib/gcc/avr/4.3.3/avr6\libgcc.a(_pack_sf.o)
 .debug_loc     0x0000091e       0xac c:/winavr-20100110/bin/../lib/gcc/avr/4.3.3/avr6\libgcc.a(_unpack_sf.o)
 .debug_loc     0x000009ca       0x50 c:/winavr-20100110/bin/../lib/gcc/avr/4.3.3/avr6\libgcc.a(_fpcmp_parts_sf.o)

.debug_macinfo
 *(.debug_macinfo)
OUTPUT(LC-200_485Testing_MASTER.elf elf32-avr)
LOAD linker stubs

.debug_ranges   0x00000000       0x50
 .debug_ranges  0x00000000       0x50 c:/winavr-20100110/bin/../lib/gcc/avr/4.3.3/avr6\libgcc.a(_mul_sf.o)

Cross Reference Table

Symbol                                            File
ControlTask                                       ./src/main.o
DimmerControl_Task                                ./src/main.o
GatewayPacket                                     ./src/main.o
GatewayRx_Task                                    ./src/main.o
GatewayTx_Task                                    ./src/main.o
GetSSRState                                       ./src/SSRContol.o
Hour                                              ./src/main.o
                                                  ./src/debug.o
                                                  ./src/PLCS_Protocol.o
InitMCU                                           ./src/main.o
InitUART                                          ./src/Uart.o
                                                  ./src/main.o
Led_Task                                          ./src/main.o
MPRPacket                                         ./src/main.o
MPRRx_Task                                        ./src/main.o
MPRTx_Task                                        ./src/main.o
Min                                               ./src/main.o
                                                  ./src/debug.o
                                                  ./src/PLCS_Protocol.o
NCP_ProcessMessage                                ./src/PLCS_Protocol.o
                                                  ./src/XNetProtocol.o
NoticeMode_Task                                   ./src/main.o
NowTime                                           ./src/main.o
SSRTable                                          ./src/PLCS_Protocol.o
SSR_Off_Index                                     ./src/SSRContol.o
                                                  ./src/main.o
SSR_On_Index                                      ./src/SSRContol.o
                                                  ./src/main.o
SSR_init                                          ./src/SSRContol.o
                                                  ./src/main.o
SensorPacket                                      ./src/main.o
Token_Task                                        ./src/main.o
USART0_Receive                                    ./src/Uart.o
USART0_Transmit                                   ./src/Uart.o
USART1_Receive                                    ./src/Uart.o
USART1_Transmit                                   ./src/Uart.o
USART1_TxDisable                                  ./src/Uart.o
                                                  ./src/Xcps.o
USART1_TxEnable                                   ./src/Uart.o
                                                  ./src/Xcps.o
USART2_Receive                                    ./src/Uart.o
                                                  ./src/main.o
USART2_Transmit                                   ./src/Uart.o
                                                  ./src/main.o
USART2_TxDisable                                  ./src/Uart.o
                                                  ./src/main.o
                                                  ./src/Xcps.o
USART2_TxEnable                                   ./src/Uart.o
                                                  ./src/main.o
                                                  ./src/Xcps.o
USART3_Receive                                    ./src/Uart.o
USART3_Transmit                                   ./src/Uart.o
                                                  ./src/main.o
WDT_INIT                                          ./src/main.o
XNetCommandFromGateway                            ./src/XNetProtocol.o
                                                  ./src/main.o
XNetCommandFromMPR                                ./src/XNetProtocol.o
                                                  ./src/main.o
XNetHandlerFromZigbee                             ./src/XNetProtocol.o
                                                  ./src/main.o
ZRMPMessage                                       ./src/ZRMProtocol.o
                                                  ./src/main.o
ZRMSendReset                                      ./src/ZRMProtocol.o
ZRMSendSetChannel                                 ./src/ZRMProtocol.o
ZRMSendSetPanID                                   ./src/ZRMProtocol.o
ZRMSendSetPreconfig                               ./src/ZRMProtocol.o
ZRM_getOriginalCode                               ./src/ZRMProtocol.o
                                                  ./src/main.o
ZRM_getTranlatedCode                              ./src/ZRMProtocol.o
ZRMsendConfig                                     ./src/ZRMProtocol.o
ZRMsendPing                                       ./src/ZRMProtocol.o
                                                  ./src/main.o
ZigbeePacket                                      ./src/main.o
ZigbeeSend_Task                                   ./src/main.o
Zigbee_Task                                       ./src/main.o
__addsf3                                          c:/winavr-20100110/bin/../lib/gcc/avr/4.3.3/avr6\libgcc.a(_addsub_sf.o)
                                                  ./src/PLCS_Protocol.o
__bad_interrupt                                   c:/winavr-20100110/bin/../lib/gcc/avr/4.3.3/../../../../avr/lib/avr6/crtm2560.o
__bss_end                                         c:/winavr-20100110/bin/../lib/gcc/avr/4.3.3/avr6\libgcc.a(_clear_bss.o)
__bss_start                                       c:/winavr-20100110/bin/../lib/gcc/avr/4.3.3/avr6\libgcc.a(_clear_bss.o)
__clz_tab                                         c:/winavr-20100110/bin/../lib/gcc/avr/4.3.3/avr6\libgcc.a(_clz.o)
                                                  c:/winavr-20100110/bin/../lib/gcc/avr/4.3.3/avr6\libgcc.a(_clzsi2.o)
__clzsi2                                          c:/winavr-20100110/bin/../lib/gcc/avr/4.3.3/avr6\libgcc.a(_clzsi2.o)
                                                  c:/winavr-20100110/bin/../lib/gcc/avr/4.3.3/avr6\libgcc.a(_usi_to_sf.o)
                                                  c:/winavr-20100110/bin/../lib/gcc/avr/4.3.3/avr6\libgcc.a(_si_to_sf.o)
__data_end                                        c:/winavr-20100110/bin/../lib/gcc/avr/4.3.3/../../../../avr/lib/avr6/crtm2560.o
__data_load_start                                 c:/winavr-20100110/bin/../lib/gcc/avr/4.3.3/../../../../avr/lib/avr6/crtm2560.o
__data_start                                      c:/winavr-20100110/bin/../lib/gcc/avr/4.3.3/../../../../avr/lib/avr6/crtm2560.o
__divsf3                                          c:/winavr-20100110/bin/../lib/gcc/avr/4.3.3/avr6\libgcc.a(_div_sf.o)
                                                  ./src/main.o
__do_clear_bss                                    c:/winavr-20100110/bin/../lib/gcc/avr/4.3.3/avr6\libgcc.a(_clear_bss.o)
                                                  c:/winavr-20100110/bin/../lib/gcc/avr/4.3.3/../../../../avr/lib/avr6\libc.a(iob.o)
                                                  ./src/main.o
                                                  ./src/debug.o
                                                  ./src/ZRMProtocol.o
                                                  ./src/Xcps.o
                                                  ./src/XNetProtocol.o
                                                  ./src/Uart.o
                                                  ./src/Timer.o
                                                  ./src/ScheduleTable.o
                                                  ./src/SSRContol.o
                                                  ./src/RFU_Protocol.o
                                                  ./src/PatternBasedControl.o
                                                  ./src/PLCS_Protocol.o
                                                  ./src/MappingTable.o
                                                  ./src/MPRProtocol.o
                                                  ./src/DimmerProtocol.o
                                                  ./src/DeviceInfo.o
__do_copy_data                                    c:/winavr-20100110/bin/../lib/gcc/avr/4.3.3/../../../../avr/lib/avr6/crtm2560.o
                                                  c:/winavr-20100110/bin/../lib/gcc/avr/4.3.3/avr6\libgcc.a(_clz.o)
                                                  c:/winavr-20100110/bin/../lib/gcc/avr/4.3.3/avr6\libgcc.a(_thenan_sf.o)
                                                  ./src/main.o
                                                  ./src/PLCS_Protocol.o
                                                  ./src/MPRProtocol.o
__eewr_byte_m2560                                 c:/winavr-20100110/bin/../lib/gcc/avr/4.3.3/../../../../avr/lib/avr6\libc.a(eewr_byte_atmega2560.o)
                                                  c:/winavr-20100110/bin/../lib/gcc/avr/4.3.3/../../../../avr/lib/avr6\libc.a(eewr_word_atmega2560.o)
__eewr_dword_m2560                                c:/winavr-20100110/bin/../lib/gcc/avr/4.3.3/../../../../avr/lib/avr6\libc.a(eewr_dword_atmega2560.o)
                                                  ./src/PLCS_Protocol.o
__eewr_float_m2560                                c:/winavr-20100110/bin/../lib/gcc/avr/4.3.3/../../../../avr/lib/avr6\libc.a(eewr_dword_atmega2560.o)
__eewr_r18_m2560                                  c:/winavr-20100110/bin/../lib/gcc/avr/4.3.3/../../../../avr/lib/avr6\libc.a(eewr_byte_atmega2560.o)
                                                  c:/winavr-20100110/bin/../lib/gcc/avr/4.3.3/../../../../avr/lib/avr6\libc.a(eewr_word_atmega2560.o)
                                                  c:/winavr-20100110/bin/../lib/gcc/avr/4.3.3/../../../../avr/lib/avr6\libc.a(eewr_dword_atmega2560.o)
__eewr_word_m2560                                 c:/winavr-20100110/bin/../lib/gcc/avr/4.3.3/../../../../avr/lib/avr6\libc.a(eewr_word_atmega2560.o)
                                                  c:/winavr-20100110/bin/../lib/gcc/avr/4.3.3/../../../../avr/lib/avr6\libc.a(eewr_dword_atmega2560.o)
__epilogue_restores__                             c:/winavr-20100110/bin/../lib/gcc/avr/4.3.3/avr6\libgcc.a(_epilogue.o)
                                                  c:/winavr-20100110/bin/../lib/gcc/avr/4.3.3/avr6\libgcc.a(_usi_to_sf.o)
                                                  c:/winavr-20100110/bin/../lib/gcc/avr/4.3.3/avr6\libgcc.a(_sf_to_si.o)
                                                  c:/winavr-20100110/bin/../lib/gcc/avr/4.3.3/avr6\libgcc.a(_si_to_sf.o)
                                                  c:/winavr-20100110/bin/../lib/gcc/avr/4.3.3/avr6\libgcc.a(_lt_sf.o)
                                                  c:/winavr-20100110/bin/../lib/gcc/avr/4.3.3/avr6\libgcc.a(_ge_sf.o)
                                                  c:/winavr-20100110/bin/../lib/gcc/avr/4.3.3/avr6\libgcc.a(_gt_sf.o)
                                                  c:/winavr-20100110/bin/../lib/gcc/avr/4.3.3/avr6\libgcc.a(_div_sf.o)
                                                  c:/winavr-20100110/bin/../lib/gcc/avr/4.3.3/avr6\libgcc.a(_mul_sf.o)
                                                  c:/winavr-20100110/bin/../lib/gcc/avr/4.3.3/avr6\libgcc.a(_addsub_sf.o)
__fixsfsi                                         c:/winavr-20100110/bin/../lib/gcc/avr/4.3.3/avr6\libgcc.a(_sf_to_si.o)
                                                  c:/winavr-20100110/bin/../lib/gcc/avr/4.3.3/avr6\libgcc.a(_fixunssfsi.o)
__fixunssfsi                                      c:/winavr-20100110/bin/../lib/gcc/avr/4.3.3/avr6\libgcc.a(_fixunssfsi.o)
                                                  ./src/PLCS_Protocol.o
__floatsisf                                       c:/winavr-20100110/bin/../lib/gcc/avr/4.3.3/avr6\libgcc.a(_si_to_sf.o)
                                                  ./src/main.o
__floatunsisf                                     c:/winavr-20100110/bin/../lib/gcc/avr/4.3.3/avr6\libgcc.a(_usi_to_sf.o)
                                                  ./src/PLCS_Protocol.o
__fpcmp_parts_f                                   c:/winavr-20100110/bin/../lib/gcc/avr/4.3.3/avr6\libgcc.a(_fpcmp_parts_sf.o)
                                                  c:/winavr-20100110/bin/../lib/gcc/avr/4.3.3/avr6\libgcc.a(_lt_sf.o)
                                                  c:/winavr-20100110/bin/../lib/gcc/avr/4.3.3/avr6\libgcc.a(_ge_sf.o)
                                                  c:/winavr-20100110/bin/../lib/gcc/avr/4.3.3/avr6\libgcc.a(_gt_sf.o)
__gesf2                                           c:/winavr-20100110/bin/../lib/gcc/avr/4.3.3/avr6\libgcc.a(_ge_sf.o)
                                                  c:/winavr-20100110/bin/../lib/gcc/avr/4.3.3/avr6\libgcc.a(_fixunssfsi.o)
__gtsf2                                           c:/winavr-20100110/bin/../lib/gcc/avr/4.3.3/avr6\libgcc.a(_gt_sf.o)
                                                  ./src/main.o
                                                  ./src/PLCS_Protocol.o
__heap_end                                        c:/winavr-20100110/bin/../lib/gcc/avr/4.3.3/../../../../avr/lib/avr6/crtm2560.o
__init                                            c:/winavr-20100110/bin/../lib/gcc/avr/4.3.3/../../../../avr/lib/avr6/crtm2560.o
__iob                                             c:/winavr-20100110/bin/../lib/gcc/avr/4.3.3/../../../../avr/lib/avr6\libc.a(printf_p.o)
                                                  c:/winavr-20100110/bin/../lib/gcc/avr/4.3.3/../../../../avr/lib/avr6\libc.a(iob.o)
                                                  ./src/main.o
__ltsf2                                           c:/winavr-20100110/bin/../lib/gcc/avr/4.3.3/avr6\libgcc.a(_lt_sf.o)
                                                  ./src/PLCS_Protocol.o
__mulsf3                                          c:/winavr-20100110/bin/../lib/gcc/avr/4.3.3/avr6\libgcc.a(_mul_sf.o)
                                                  ./src/PLCS_Protocol.o
__pack_f                                          c:/winavr-20100110/bin/../lib/gcc/avr/4.3.3/avr6\libgcc.a(_pack_sf.o)
                                                  c:/winavr-20100110/bin/../lib/gcc/avr/4.3.3/avr6\libgcc.a(_usi_to_sf.o)
                                                  c:/winavr-20100110/bin/../lib/gcc/avr/4.3.3/avr6\libgcc.a(_si_to_sf.o)
                                                  c:/winavr-20100110/bin/../lib/gcc/avr/4.3.3/avr6\libgcc.a(_div_sf.o)
                                                  c:/winavr-20100110/bin/../lib/gcc/avr/4.3.3/avr6\libgcc.a(_mul_sf.o)
                                                  c:/winavr-20100110/bin/../lib/gcc/avr/4.3.3/avr6\libgcc.a(_addsub_sf.o)
__prologue_saves__                                c:/winavr-20100110/bin/../lib/gcc/avr/4.3.3/avr6\libgcc.a(_prologue.o)
                                                  c:/winavr-20100110/bin/../lib/gcc/avr/4.3.3/avr6\libgcc.a(_usi_to_sf.o)
                                                  c:/winavr-20100110/bin/../lib/gcc/avr/4.3.3/avr6\libgcc.a(_sf_to_si.o)
                                                  c:/winavr-20100110/bin/../lib/gcc/avr/4.3.3/avr6\libgcc.a(_si_to_sf.o)
                                                  c:/winavr-20100110/bin/../lib/gcc/avr/4.3.3/avr6\libgcc.a(_lt_sf.o)
                                                  c:/winavr-20100110/bin/../lib/gcc/avr/4.3.3/avr6\libgcc.a(_ge_sf.o)
                                                  c:/winavr-20100110/bin/../lib/gcc/avr/4.3.3/avr6\libgcc.a(_gt_sf.o)
                                                  c:/winavr-20100110/bin/../lib/gcc/avr/4.3.3/avr6\libgcc.a(_div_sf.o)
                                                  c:/winavr-20100110/bin/../lib/gcc/avr/4.3.3/avr6\libgcc.a(_mul_sf.o)
                                                  c:/winavr-20100110/bin/../lib/gcc/avr/4.3.3/avr6\libgcc.a(_addsub_sf.o)
__stack                                           c:/winavr-20100110/bin/../lib/gcc/avr/4.3.3/../../../../avr/lib/avr6/crtm2560.o
__subsf3                                          c:/winavr-20100110/bin/../lib/gcc/avr/4.3.3/avr6\libgcc.a(_addsub_sf.o)
                                                  c:/winavr-20100110/bin/../lib/gcc/avr/4.3.3/avr6\libgcc.a(_fixunssfsi.o)
__thenan_sf                                       c:/winavr-20100110/bin/../lib/gcc/avr/4.3.3/avr6\libgcc.a(_thenan_sf.o)
                                                  c:/winavr-20100110/bin/../lib/gcc/avr/4.3.3/avr6\libgcc.a(_div_sf.o)
                                                  c:/winavr-20100110/bin/../lib/gcc/avr/4.3.3/avr6\libgcc.a(_mul_sf.o)
                                                  c:/winavr-20100110/bin/../lib/gcc/avr/4.3.3/avr6\libgcc.a(_addsub_sf.o)
__udivmodhi4                                      c:/winavr-20100110/bin/../lib/gcc/avr/4.3.3/avr6\libgcc.a(_udivmodhi4.o)
                                                  ./src/main.o
                                                  ./src/RFU_Protocol.o
                                                  ./src/PLCS_Protocol.o
                                                  ./src/MappingTable.o
__udivmodqi4                                      c:/winavr-20100110/bin/../lib/gcc/avr/4.3.3/avr6\libgcc.a(_udivmodqi4.o)
                                                  ./src/ScheduleTable.o
                                                  ./src/PatternBasedControl.o
                                                  ./src/PLCS_Protocol.o
__udivmodsi4                                      c:/winavr-20100110/bin/../lib/gcc/avr/4.3.3/avr6\libgcc.a(_udivmodsi4.o)
                                                  ./src/main.o
__ultoa_invert                                    c:/winavr-20100110/bin/../lib/gcc/avr/4.3.3/../../../../avr/lib/avr6\libc.a(ultoa_invert.o)
                                                  c:/winavr-20100110/bin/../lib/gcc/avr/4.3.3/../../../../avr/lib/avr6\libc.a(vfprintf_std.o)
__unpack_f                                        c:/winavr-20100110/bin/../lib/gcc/avr/4.3.3/avr6\libgcc.a(_unpack_sf.o)
                                                  c:/winavr-20100110/bin/../lib/gcc/avr/4.3.3/avr6\libgcc.a(_sf_to_si.o)
                                                  c:/winavr-20100110/bin/../lib/gcc/avr/4.3.3/avr6\libgcc.a(_lt_sf.o)
                                                  c:/winavr-20100110/bin/../lib/gcc/avr/4.3.3/avr6\libgcc.a(_ge_sf.o)
                                                  c:/winavr-20100110/bin/../lib/gcc/avr/4.3.3/avr6\libgcc.a(_gt_sf.o)
                                                  c:/winavr-20100110/bin/../lib/gcc/avr/4.3.3/avr6\libgcc.a(_div_sf.o)
                                                  c:/winavr-20100110/bin/../lib/gcc/avr/4.3.3/avr6\libgcc.a(_mul_sf.o)
                                                  c:/winavr-20100110/bin/../lib/gcc/avr/4.3.3/avr6\libgcc.a(_addsub_sf.o)
__vector_1                                        c:/winavr-20100110/bin/../lib/gcc/avr/4.3.3/../../../../avr/lib/avr6/crtm2560.o
__vector_10                                       c:/winavr-20100110/bin/../lib/gcc/avr/4.3.3/../../../../avr/lib/avr6/crtm2560.o
__vector_11                                       c:/winavr-20100110/bin/../lib/gcc/avr/4.3.3/../../../../avr/lib/avr6/crtm2560.o
__vector_12                                       c:/winavr-20100110/bin/../lib/gcc/avr/4.3.3/../../../../avr/lib/avr6/crtm2560.o
__vector_13                                       c:/winavr-20100110/bin/../lib/gcc/avr/4.3.3/../../../../avr/lib/avr6/crtm2560.o
__vector_14                                       c:/winavr-20100110/bin/../lib/gcc/avr/4.3.3/../../../../avr/lib/avr6/crtm2560.o
__vector_15                                       c:/winavr-20100110/bin/../lib/gcc/avr/4.3.3/../../../../avr/lib/avr6/crtm2560.o
__vector_16                                       c:/winavr-20100110/bin/../lib/gcc/avr/4.3.3/../../../../avr/lib/avr6/crtm2560.o
__vector_17                                       c:/winavr-20100110/bin/../lib/gcc/avr/4.3.3/../../../../avr/lib/avr6/crtm2560.o
__vector_18                                       c:/winavr-20100110/bin/../lib/gcc/avr/4.3.3/../../../../avr/lib/avr6/crtm2560.o
__vector_19                                       c:/winavr-20100110/bin/../lib/gcc/avr/4.3.3/../../../../avr/lib/avr6/crtm2560.o
__vector_2                                        c:/winavr-20100110/bin/../lib/gcc/avr/4.3.3/../../../../avr/lib/avr6/crtm2560.o
__vector_20                                       c:/winavr-20100110/bin/../lib/gcc/avr/4.3.3/../../../../avr/lib/avr6/crtm2560.o
__vector_21                                       c:/winavr-20100110/bin/../lib/gcc/avr/4.3.3/../../../../avr/lib/avr6/crtm2560.o
__vector_22                                       c:/winavr-20100110/bin/../lib/gcc/avr/4.3.3/../../../../avr/lib/avr6/crtm2560.o
__vector_23                                       c:/winavr-20100110/bin/../lib/gcc/avr/4.3.3/../../../../avr/lib/avr6/crtm2560.o
__vector_24                                       c:/winavr-20100110/bin/../lib/gcc/avr/4.3.3/../../../../avr/lib/avr6/crtm2560.o
__vector_25                                       ./src/Uart.o
                                                  c:/winavr-20100110/bin/../lib/gcc/avr/4.3.3/../../../../avr/lib/avr6/crtm2560.o
__vector_26                                       ./src/Uart.o
                                                  c:/winavr-20100110/bin/../lib/gcc/avr/4.3.3/../../../../avr/lib/avr6/crtm2560.o
__vector_27                                       ./src/Uart.o
                                                  c:/winavr-20100110/bin/../lib/gcc/avr/4.3.3/../../../../avr/lib/avr6/crtm2560.o
__vector_28                                       c:/winavr-20100110/bin/../lib/gcc/avr/4.3.3/../../../../avr/lib/avr6/crtm2560.o
__vector_29                                       c:/winavr-20100110/bin/../lib/gcc/avr/4.3.3/../../../../avr/lib/avr6/crtm2560.o
__vector_3                                        c:/winavr-20100110/bin/../lib/gcc/avr/4.3.3/../../../../avr/lib/avr6/crtm2560.o
__vector_30                                       c:/winavr-20100110/bin/../lib/gcc/avr/4.3.3/../../../../avr/lib/avr6/crtm2560.o
__vector_31                                       c:/winavr-20100110/bin/../lib/gcc/avr/4.3.3/../../../../avr/lib/avr6/crtm2560.o
__vector_32                                       ./src/Timer.o
                                                  c:/winavr-20100110/bin/../lib/gcc/avr/4.3.3/../../../../avr/lib/avr6/crtm2560.o
__vector_33                                       c:/winavr-20100110/bin/../lib/gcc/avr/4.3.3/../../../../avr/lib/avr6/crtm2560.o
__vector_34                                       c:/winavr-20100110/bin/../lib/gcc/avr/4.3.3/../../../../avr/lib/avr6/crtm2560.o
__vector_35                                       c:/winavr-20100110/bin/../lib/gcc/avr/4.3.3/../../../../avr/lib/avr6/crtm2560.o
__vector_36                                       ./src/Uart.o
                                                  c:/winavr-20100110/bin/../lib/gcc/avr/4.3.3/../../../../avr/lib/avr6/crtm2560.o
__vector_37                                       ./src/Uart.o
                                                  c:/winavr-20100110/bin/../lib/gcc/avr/4.3.3/../../../../avr/lib/avr6/crtm2560.o
__vector_38                                       ./src/Uart.o
                                                  c:/winavr-20100110/bin/../lib/gcc/avr/4.3.3/../../../../avr/lib/avr6/crtm2560.o
__vector_39                                       c:/winavr-20100110/bin/../lib/gcc/avr/4.3.3/../../../../avr/lib/avr6/crtm2560.o
__vector_4                                        c:/winavr-20100110/bin/../lib/gcc/avr/4.3.3/../../../../avr/lib/avr6/crtm2560.o
__vector_40                                       c:/winavr-20100110/bin/../lib/gcc/avr/4.3.3/../../../../avr/lib/avr6/crtm2560.o
__vector_41                                       c:/winavr-20100110/bin/../lib/gcc/avr/4.3.3/../../../../avr/lib/avr6/crtm2560.o
__vector_42                                       c:/winavr-20100110/bin/../lib/gcc/avr/4.3.3/../../../../avr/lib/avr6/crtm2560.o
__vector_43                                       c:/winavr-20100110/bin/../lib/gcc/avr/4.3.3/../../../../avr/lib/avr6/crtm2560.o
__vector_44                                       c:/winavr-20100110/bin/../lib/gcc/avr/4.3.3/../../../../avr/lib/avr6/crtm2560.o
__vector_45                                       c:/winavr-20100110/bin/../lib/gcc/avr/4.3.3/../../../../avr/lib/avr6/crtm2560.o
__vector_46                                       c:/winavr-20100110/bin/../lib/gcc/avr/4.3.3/../../../../avr/lib/avr6/crtm2560.o
__vector_47                                       c:/winavr-20100110/bin/../lib/gcc/avr/4.3.3/../../../../avr/lib/avr6/crtm2560.o
__vector_48                                       c:/winavr-20100110/bin/../lib/gcc/avr/4.3.3/../../../../avr/lib/avr6/crtm2560.o
__vector_49                                       c:/winavr-20100110/bin/../lib/gcc/avr/4.3.3/../../../../avr/lib/avr6/crtm2560.o
__vector_5                                        c:/winavr-20100110/bin/../lib/gcc/avr/4.3.3/../../../../avr/lib/avr6/crtm2560.o
__vector_50                                       c:/winavr-20100110/bin/../lib/gcc/avr/4.3.3/../../../../avr/lib/avr6/crtm2560.o
__vector_51                                       ./src/Uart.o
                                                  c:/winavr-20100110/bin/../lib/gcc/avr/4.3.3/../../../../avr/lib/avr6/crtm2560.o
__vector_52                                       ./src/Uart.o
                                                  c:/winavr-20100110/bin/../lib/gcc/avr/4.3.3/../../../../avr/lib/avr6/crtm2560.o
__vector_53                                       ./src/Uart.o
                                                  c:/winavr-20100110/bin/../lib/gcc/avr/4.3.3/../../../../avr/lib/avr6/crtm2560.o
__vector_54                                       ./src/Uart.o
                                                  c:/winavr-20100110/bin/../lib/gcc/avr/4.3.3/../../../../avr/lib/avr6/crtm2560.o
__vector_55                                       ./src/Uart.o
                                                  c:/winavr-20100110/bin/../lib/gcc/avr/4.3.3/../../../../avr/lib/avr6/crtm2560.o
__vector_56                                       ./src/Uart.o
                                                  c:/winavr-20100110/bin/../lib/gcc/avr/4.3.3/../../../../avr/lib/avr6/crtm2560.o
__vector_6                                        c:/winavr-20100110/bin/../lib/gcc/avr/4.3.3/../../../../avr/lib/avr6/crtm2560.o
__vector_7                                        c:/winavr-20100110/bin/../lib/gcc/avr/4.3.3/../../../../avr/lib/avr6/crtm2560.o
__vector_8                                        c:/winavr-20100110/bin/../lib/gcc/avr/4.3.3/../../../../avr/lib/avr6/crtm2560.o
__vector_9                                        c:/winavr-20100110/bin/../lib/gcc/avr/4.3.3/../../../../avr/lib/avr6/crtm2560.o
__vector_default                                  c:/winavr-20100110/bin/../lib/gcc/avr/4.3.3/../../../../avr/lib/avr6/crtm2560.o
__vectors                                         c:/winavr-20100110/bin/../lib/gcc/avr/4.3.3/../../../../avr/lib/avr6/crtm2560.o
_exit                                             c:/winavr-20100110/bin/../lib/gcc/avr/4.3.3/avr6\libgcc.a(_exit.o)
addDeviceTable                                    ./src/DeviceInfo.o
                                                  ./src/XNetProtocol.o
addDimmerMappingTable                             ./src/MappingTable.o
addMessageToSendBuff                              ./src/ZRMProtocol.o
addPatternInfoToTable                             ./src/PatternBasedControl.o
addSchedule                                       ./src/ScheduleTable.o
                                                  ./src/PLCS_Protocol.o
addScheduleList                                   ./src/ScheduleTable.o
                                                  ./src/PLCS_Protocol.o
addSensorMappingTable                             ./src/MappingTable.o
applyingSchedule                                  ./src/main.o
                                                  ./src/PLCS_Protocol.o
clk                                               ./src/Flash.o
countDevice                                       ./src/DeviceInfo.o
countDeviceTable                                  ./src/DeviceInfo.o
ctrl_Cmd                                          ./src/PLCS_Protocol.o
data0                                             ./src/Uart.o
data1                                             ./src/Uart.o
data2                                             ./src/Uart.o
data3                                             ./src/Uart.o
debug_DebugInfo                                   ./src/main.o
                                                  ./src/debug.o
                                                  ./src/PLCS_Protocol.o
debug_ReadLog                                     ./src/debug.o
debug_Reset                                       ./src/debug.o
                                                  ./src/PLCS_Protocol.o
debug_UpdateConnection                            ./src/debug.o
                                                  ./src/main.o
                                                  ./src/PLCS_Protocol.o
debug_UpdateLog                                   ./src/debug.o
debug_UpdateReboot                                ./src/debug.o
defaultScheduleTable                              ./src/main.o
                                                  ./src/ScheduleTable.o
                                                  ./src/PLCS_Protocol.o
                                                  ./src/DeviceInfo.o
dev_Count                                         ./src/PLCS_Protocol.o
deviceInfoTable                                   ./src/main.o
                                                  ./src/ZRMProtocol.o
                                                  ./src/XNetProtocol.o
                                                  ./src/ScheduleTable.o
                                                  ./src/SSRContol.o
                                                  ./src/RFU_Protocol.o
                                                  ./src/PatternBasedControl.o
                                                  ./src/PLCS_Protocol.o
                                                  ./src/MPRProtocol.o
                                                  ./src/DimmerProtocol.o
                                                  ./src/DeviceInfo.o
deviceInfo_IsUpdatedSSRInfo                       ./src/DeviceInfo.o
deviceInfo_UpdateSSRInfo                          ./src/DeviceInfo.o
device_Type                                       ./src/PLCS_Protocol.o
dimmerControlInfoList                             ./src/main.o
                                                  ./src/DimmerProtocol.o
dimmerMappingInfo_WriteAll                        ./src/MappingTable.o
                                                  ./src/PLCS_Protocol.o
dimmerMappingInfo_WriteToEEPRom                   ./src/MappingTable.o
dimmerMappingTable                                ./src/main.o
                                                  ./src/PLCS_Protocol.o
                                                  ./src/MappingTable.o
                                                  ./src/DimmerProtocol.o
dimmer_DimmingConvert                             ./src/DimmerProtocol.o
dimmer_SendReqDimming                             ./src/DimmerProtocol.o
                                                  ./src/main.o
ee_DimmerMappingTableSize                         ./src/MappingTable.o
ee_DimmerSSRMappingInfo                           ./src/MappingTable.o
ee_PatternInfo                                    ./src/PatternBasedControl.o
ee_PatternInfoTableSize                           ./src/PatternBasedControl.o
ee_SensorMappingInfo                              ./src/MappingTable.o
ee_SensorMappingTableSize                         ./src/MappingTable.o
exit                                              c:/winavr-20100110/bin/../lib/gcc/avr/4.3.3/avr6\libgcc.a(_exit.o)
                                                  c:/winavr-20100110/bin/../lib/gcc/avr/4.3.3/../../../../avr/lib/avr6/crtm2560.o
findDimmerMappingInfoById                         ./src/MappingTable.o
                                                  ./src/PLCS_Protocol.o
findDimmerMappingInfoByPair                       ./src/MappingTable.o
findNodeById                                      ./src/DeviceInfo.o
                                                  ./src/main.o
                                                  ./src/XNetProtocol.o
                                                  ./src/RFU_Protocol.o
                                                  ./src/PLCS_Protocol.o
                                                  ./src/DimmerProtocol.o
findSensorMappingInfoById                         ./src/MappingTable.o
                                                  ./src/PLCS_Protocol.o
flash_bufferReadUint8                             ./src/Flash.o
flash_bufferToMainMemory                          ./src/Flash.o
flash_bufferWrite                                 ./src/Flash.o
flash_init                                        ./src/Flash.o
flash_readByteFromSO                              ./src/Flash.o
flash_readBytes                                   ./src/Flash.o
                                                  ./src/debug.o
                                                  ./src/ScheduleTable.o
                                                  ./src/RFU_Protocol.o
                                                  ./src/PatternBasedControl.o
                                                  ./src/MappingTable.o
                                                  ./src/DeviceInfo.o
flash_readStatus                                  ./src/Flash.o
flash_readUint16                                  ./src/Flash.o
flash_readUint32                                  ./src/Flash.o
flash_readUint8                                   ./src/Flash.o
flash_writeByteToSI                               ./src/Flash.o
flash_writeBytes                                  ./src/Flash.o
                                                  ./src/debug.o
                                                  ./src/ScheduleTable.o
                                                  ./src/RFU_Protocol.o
                                                  ./src/PatternBasedControl.o
                                                  ./src/MappingTable.o
                                                  ./src/DeviceInfo.o
flash_writeUint16                                 ./src/Flash.o
flash_writeUint32                                 ./src/Flash.o
flash_writeUint8                                  ./src/Flash.o
                                                  ./src/RFU_Protocol.o
fputc                                             c:/winavr-20100110/bin/../lib/gcc/avr/4.3.3/../../../../avr/lib/avr6\libc.a(fputc.o)
                                                  c:/winavr-20100110/bin/../lib/gcc/avr/4.3.3/../../../../avr/lib/avr6\libc.a(vfprintf_std.o)
g_NoticeMode                                      ./src/PLCS_Protocol.o
g_PowerMeterValue                                 ./src/main.o
                                                  ./src/PLCS_Protocol.o
gcp_GetNoticeMode                                 ./src/PLCS_Protocol.o
gcp_SetNoticeMode                                 ./src/PLCS_Protocol.o
                                                  ./src/main.o
getControlModeAt                                  ./src/ScheduleTable.o
                                                  ./src/main.o
getCtrlModeOnTime                                 ./src/PatternBasedControl.o
getDimmerMappingInfoByIndex                       ./src/MappingTable.o
                                                  ./src/PLCS_Protocol.o
                                                  ./src/DimmerProtocol.o
getDimmerMappingTableSize                         ./src/MappingTable.o
                                                  ./src/PLCS_Protocol.o
                                                  ./src/DimmerProtocol.o
getLastResult                                     ./src/ZRMProtocol.o
getMPRMessageListSize                             ./src/XNetProtocol.o
getMessageFromSendBuff                            ./src/ZRMProtocol.o
getMessageFromSendBuffWORemove                    ./src/ZRMProtocol.o
getMessageListSize                                ./src/XNetProtocol.o
getSensorMappingInfoByIndex                       ./src/MappingTable.o
                                                  ./src/PLCS_Protocol.o
getSensorMappingTableSize                         ./src/MappingTable.o
                                                  ./src/PLCS_Protocol.o
getSeqNumGenerator                                ./src/PLCS_Protocol.o
getSeqNumGeneratorForDimmer                       ./src/DimmerProtocol.o
getSeqNumGeneratorForRFUP                         ./src/RFU_Protocol.o
getZRMMessageListSize                             ./src/ZRMProtocol.o
getZigbeeState                                    ./src/ZRMProtocol.o
                                                  ./src/main.o
handleDeviceControl                               ./src/DeviceInfo.o
                                                  ./src/PLCS_Protocol.o
handleSensorEvent                                 ./src/PLCS_Protocol.o
handleSwitchEvent                                 ./src/PLCS_Protocol.o
hasToken                                          ./src/PLCS_Protocol.o
                                                  ./src/main.o
initDeviceTable                                   ./src/DeviceInfo.o
initDimmerControlInfoList                         ./src/DimmerProtocol.o
initDimmerMappingTable                            ./src/MappingTable.o
initMappingTable                                  ./src/MappingTable.o
initPatternTable                                  ./src/PatternBasedControl.o
initRotary                                        ./src/rotary.o
initScheduleTimeTable                             ./src/ScheduleTable.o
isContainNodeOfId                                 ./src/DeviceInfo.o
isContainScheduleAt                               ./src/ScheduleTable.o
                                                  ./src/PLCS_Protocol.o
lastResult_0                                      ./src/ZRMProtocol.o
lastResult_1                                      ./src/ZRMProtocol.o
main                                              ./src/main.o
                                                  c:/winavr-20100110/bin/../lib/gcc/avr/4.3.3/../../../../avr/lib/avr6/crtm2560.o
memcpy                                            c:/winavr-20100110/bin/../lib/gcc/avr/4.3.3/../../../../avr/lib/avr6\libc.a(memcpy.o)
                                                  ./src/ZRMProtocol.o
                                                  ./src/XNetProtocol.o
messageLength                                     ./src/XNetProtocol.o
messageList_Head                                  ./src/XNetProtocol.o
messageList_Tail                                  ./src/XNetProtocol.o
mprMessageLength                                  ./src/XNetProtocol.o
mprMessageList_Head                               ./src/XNetProtocol.o
mprMessageList_Tail                               ./src/XNetProtocol.o
mprToken                                          ./src/MPRProtocol.o
mpr_AssignToken                                   ./src/MPRProtocol.o
                                                  ./src/main.o
mpr_GetAssignedTokenId                            ./src/MPRProtocol.o
mpr_HasToken                                      ./src/MPRProtocol.o
                                                  ./src/main.o
mpr_ReleaseToken                                  ./src/MPRProtocol.o
                                                  ./src/main.o
msgFromZigbee                                     ./src/main.o
ncp_ConnState                                     ./src/PLCS_Protocol.o
                                                  ./src/main.o
ncp_NetState                                      ./src/PLCS_Protocol.o
ncp_ProcessPingReq                                ./src/PLCS_Protocol.o
ncp_ProcessPingRes                                ./src/PLCS_Protocol.o
ncp_ProcessRegisterReq                            ./src/PLCS_Protocol.o
ncp_ProcessRegisterRes                            ./src/PLCS_Protocol.o
ncp_SendPingReq                                   ./src/PLCS_Protocol.o
                                                  ./src/main.o
ncp_SendPingRes                                   ./src/PLCS_Protocol.o
ncp_SendRegisterReq                               ./src/PLCS_Protocol.o
                                                  ./src/main.o
ncp_SendRegisterReqWithoutQueue                   ./src/PLCS_Protocol.o
ncp_SendRegisterRes                               ./src/PLCS_Protocol.o
npc_ProcessSendTimeInfo                           ./src/PLCS_Protocol.o
npc_SendRegisterNodeReq                           ./src/PLCS_Protocol.o
patternTable                                      ./src/main.o
                                                  ./src/PatternBasedControl.o
                                                  ./src/PLCS_Protocol.o
patternTable_WriteToEEPRom                        ./src/PatternBasedControl.o
plcs_GCP_HandleAddScheduleListReq                 ./src/PLCS_Protocol.o
plcs_GCP_HandleAddScheduleReq                     ./src/PLCS_Protocol.o
plcs_GCP_HandleApplyingScheduleReq                ./src/PLCS_Protocol.o
plcs_GCP_HandleControlCircuitReq                  ./src/PLCS_Protocol.o
plcs_GCP_HandleControlNoticeModeReq               ./src/PLCS_Protocol.o
plcs_GCP_HandleControlRebootReq                   ./src/PLCS_Protocol.o
plcs_GCP_HandleControlSensorReq                   ./src/PLCS_Protocol.o
plcs_GCP_HandleDebugLogLCReq                      ./src/PLCS_Protocol.o
plcs_GCP_HandleDebugLogLCReset                    ./src/PLCS_Protocol.o
plcs_GCP_HandleDeviceInfoReq                      ./src/PLCS_Protocol.o
plcs_GCP_HandleDimmerMappingInfoReq               ./src/PLCS_Protocol.o
plcs_GCP_HandleDimmerMappingSizeReq               ./src/PLCS_Protocol.o
plcs_GCP_HandleMappingDimmerListReq               ./src/PLCS_Protocol.o
plcs_GCP_HandleMappingDimmerReq                   ./src/PLCS_Protocol.o
plcs_GCP_HandleMappingSensorListReq               ./src/PLCS_Protocol.o
plcs_GCP_HandleMappingSensorReq                   ./src/PLCS_Protocol.o
plcs_GCP_HandleNoticeEventNeighbor                ./src/PLCS_Protocol.o
plcs_GCP_HandleNumOfDeviceReq                     ./src/PLCS_Protocol.o
plcs_GCP_HandlePowermeterReq                      ./src/PLCS_Protocol.o
plcs_GCP_HandleResetDimmerMappingReq              ./src/PLCS_Protocol.o
plcs_GCP_HandleResetScheduleReq                   ./src/PLCS_Protocol.o
plcs_GCP_HandleResetSensorMappingReq              ./src/PLCS_Protocol.o
plcs_GCP_HandleScheduleInfoReq                    ./src/PLCS_Protocol.o
plcs_GCP_HandleScheduleSizeReq                    ./src/PLCS_Protocol.o
plcs_GCP_HandleSensorEvent                        ./src/PLCS_Protocol.o
plcs_GCP_HandleSensorMappingInfoReq               ./src/PLCS_Protocol.o
plcs_GCP_HandleSensorMappingSizeReq               ./src/PLCS_Protocol.o
plcs_GCP_HandleStateInfoReq                       ./src/PLCS_Protocol.o
plcs_GCP_HandleUpdatePowermeterLCReq              ./src/PLCS_Protocol.o
plcs_GCP_HandleUpdatePowermeterReq                ./src/PLCS_Protocol.o
plcs_GCP_ProcessMessage                           ./src/PLCS_Protocol.o
                                                  ./src/XNetProtocol.o
plcs_GCP_SendAddScheduleListRes                   ./src/PLCS_Protocol.o
plcs_GCP_SendAddScheduleRes                       ./src/PLCS_Protocol.o
plcs_GCP_SendApplyingScheduleRes                  ./src/PLCS_Protocol.o
plcs_GCP_SendControlCircuitRes                    ./src/PLCS_Protocol.o
plcs_GCP_SendControlSensorRes                     ./src/PLCS_Protocol.o
plcs_GCP_SendDebugLogLCRes                        ./src/PLCS_Protocol.o
plcs_GCP_SendDeviceInfoRes                        ./src/PLCS_Protocol.o
plcs_GCP_SendDimmerMappingInfoRes                 ./src/PLCS_Protocol.o
plcs_GCP_SendDimmerMappingSizeRes                 ./src/PLCS_Protocol.o
plcs_GCP_SendMappingDimmerListRes                 ./src/PLCS_Protocol.o
plcs_GCP_SendMappingDimmerRes                     ./src/PLCS_Protocol.o
plcs_GCP_SendMappingSensorListRes                 ./src/PLCS_Protocol.o
plcs_GCP_SendMappingSensorRes                     ./src/PLCS_Protocol.o
plcs_GCP_SendNoticeEvent                          ./src/PLCS_Protocol.o
plcs_GCP_SendNumOfDeviceRes                       ./src/PLCS_Protocol.o
plcs_GCP_SendPowermeterRes                        ./src/PLCS_Protocol.o
                                                  ./src/main.o
plcs_GCP_SendResetDimmerMappingRes                ./src/PLCS_Protocol.o
plcs_GCP_SendResetScheduleRes                     ./src/PLCS_Protocol.o
plcs_GCP_SendResetSensorMappingRes                ./src/PLCS_Protocol.o
plcs_GCP_SendScheduleInfoRes                      ./src/PLCS_Protocol.o
plcs_GCP_SendScheduleSizeRes                      ./src/PLCS_Protocol.o
plcs_GCP_SendSensorMappingInfoRes                 ./src/PLCS_Protocol.o
plcs_GCP_SendSensorMappingSizeRes                 ./src/PLCS_Protocol.o
plcs_GCP_SendStateInfoRes                         ./src/PLCS_Protocol.o
                                                  ./src/main.o
plcs_GetDCPMessage                                ./src/DimmerProtocol.o
plcs_GetGCPMessage                                ./src/PLCS_Protocol.o
                                                  ./src/main.o
plcs_GetGCPResMessage                             ./src/PLCS_Protocol.o
plcs_GetNCPMessage                                ./src/PLCS_Protocol.o
                                                  ./src/MPRProtocol.o
plcs_GetNCPResMessage                             ./src/PLCS_Protocol.o
plcs_GetRFUPMessage                               ./src/RFU_Protocol.o
plcs_GetRFUPResMessage                            ./src/RFU_Protocol.o
plcs_NCP_AssignToken                              ./src/MPRProtocol.o
plcs_NCP_ProcessAssignToken                       ./src/PLCS_Protocol.o
plcs_NCP_ProcessRegisterBroadcastReq              ./src/PLCS_Protocol.o
plcs_NCP_ProcessReleaseTokenRes                   ./src/PLCS_Protocol.o
plcs_NCP_Send_NCPReqReleaseToken                  ./src/PLCS_Protocol.o
                                                  ./src/main.o
plcs_RFUP_CheckDownloadedFirmware                 ./src/RFU_Protocol.o
plcs_RFUP_CheckDownloadedFirmwareAt               ./src/RFU_Protocol.o
plcs_RFUP_HandleSendDataReq                       ./src/RFU_Protocol.o
plcs_RFUP_HandleUpgradeFirmwareReq                ./src/RFU_Protocol.o
plcs_RFUP_ProcessMessage                          ./src/RFU_Protocol.o
                                                  ./src/XNetProtocol.o
plcs_RFUP_Reboot                                  ./src/RFU_Protocol.o
plcs_RFUP_SendDataRes                             ./src/RFU_Protocol.o
plcs_RFUP_SendUpgradeFirmwareRes                  ./src/RFU_Protocol.o
plcs_RFUP_SetReadyToUpgradeFirmware               ./src/RFU_Protocol.o
plcs_RFUP_WriteFirmwareData                       ./src/RFU_Protocol.o
printf_P                                          c:/winavr-20100110/bin/../lib/gcc/avr/4.3.3/../../../../avr/lib/avr6\libc.a(printf_p.o)
                                                  ./src/main.o
registerAllNodetoServer                           ./src/PLCS_Protocol.o
removeDeviceTable                                 ./src/DeviceInfo.o
removeNode                                        ./src/DeviceInfo.o
resetPatternTable                                 ./src/PatternBasedControl.o
resetScheduleTimeTable                            ./src/ScheduleTable.o
resetZigbee0                                      ./src/main.o
resetZigbee1                                      ./src/main.o
rotary_GetValue                                   ./src/rotary.o
                                                  ./src/ZRMProtocol.o
scheduleTable_1                                   ./src/main.o
                                                  ./src/ScheduleTable.o
                                                  ./src/PLCS_Protocol.o
                                                  ./src/DeviceInfo.o
scheduleTable_2                                   ./src/main.o
                                                  ./src/ScheduleTable.o
                                                  ./src/PLCS_Protocol.o
                                                  ./src/DeviceInfo.o
schedule_WriteToEEPRom                            ./src/ScheduleTable.o
                                                  ./src/PLCS_Protocol.o
schedule_WriteToEEPRomAll                         ./src/ScheduleTable.o
                                                  ./src/PLCS_Protocol.o
sendBuffData_0                                    ./src/ZRMProtocol.o
sendBuffData_1                                    ./src/ZRMProtocol.o
sendBuffForZRM_Head_0                             ./src/ZRMProtocol.o
sendBuffForZRM_Head_1                             ./src/ZRMProtocol.o
sendBuffForZRM_Tail_0                             ./src/ZRMProtocol.o
sendBuffForZRM_Tail_1                             ./src/ZRMProtocol.o
sendMPRMessage                                    ./src/XNetProtocol.o
sendMPRMessageList                                ./src/XNetProtocol.o
sendMessage                                       ./src/XNetProtocol.o
                                                  ./src/main.o
                                                  ./src/RFU_Protocol.o
                                                  ./src/PLCS_Protocol.o
                                                  ./src/DimmerProtocol.o
sendMessageList                                   ./src/XNetProtocol.o
sendQueueingMessage                               ./src/ZRMProtocol.o
                                                  ./src/main.o
sendServerMessage                                 ./src/XNetProtocol.o
                                                  ./src/PLCS_Protocol.o
sendServerMessageWithoutQueue                     ./src/XNetProtocol.o
                                                  ./src/PLCS_Protocol.o
sendStackedMPRMessage                             ./src/XNetProtocol.o
                                                  ./src/main.o
sendStackedServerMessage                          ./src/XNetProtocol.o
                                                  ./src/main.o
sendToZigbee                                      ./src/ZRMProtocol.o
                                                  ./src/XNetProtocol.o
                                                  ./src/PLCS_Protocol.o
                                                  ./src/DimmerProtocol.o
sensorMappingInfo_WriteAll                        ./src/MappingTable.o
                                                  ./src/PLCS_Protocol.o
sensorMappingInfo_WriteToEEPRom                   ./src/MappingTable.o
sensorMappingTable                                ./src/main.o
                                                  ./src/PLCS_Protocol.o
                                                  ./src/MappingTable.o
                                                  ./src/DimmerProtocol.o
seqNumGenerator                                   ./src/PLCS_Protocol.o
seqNumGeneratorForRFUP                            ./src/RFU_Protocol.o
ssrInfo_WriteToEEPRom                             ./src/DeviceInfo.o
ssrInfo_WriteToEEPRomOfIndex                      ./src/DeviceInfo.o
status0                                           ./src/Uart.o
status1                                           ./src/Uart.o
status2                                           ./src/Uart.o
status3                                           ./src/Uart.o
strnlen                                           c:/winavr-20100110/bin/../lib/gcc/avr/4.3.3/../../../../avr/lib/avr6\libc.a(strnlen.o)
                                                  c:/winavr-20100110/bin/../lib/gcc/avr/4.3.3/../../../../avr/lib/avr6\libc.a(vfprintf_std.o)
strnlen_P                                         c:/winavr-20100110/bin/../lib/gcc/avr/4.3.3/../../../../avr/lib/avr6\libc.a(strnlen_P.o)
                                                  c:/winavr-20100110/bin/../lib/gcc/avr/4.3.3/../../../../avr/lib/avr6\libc.a(vfprintf_std.o)
tempBuffForDebug                                  ./src/debug.o
tempBuffForDeviceInfo                             ./src/DeviceInfo.o
tempBuffForMappingInfo                            ./src/MappingTable.o
tempBuffForPatternInfo                            ./src/PatternBasedControl.o
tempBuffForSchedule                               ./src/ScheduleTable.o
timerCount                                        ./src/Timer.o
timer_clear                                       ./src/Timer.o
                                                  ./src/main.o
timer_get                                         ./src/Timer.o
                                                  ./src/main.o
timer_init                                        ./src/Timer.o
                                                  ./src/main.o
timer_list                                        ./src/Timer.o
timer_set                                         ./src/Timer.o
                                                  ./src/main.o
                                                  ./src/PLCS_Protocol.o
tmpBuffForDimmer                                  ./src/DimmerProtocol.o
tmp_Buff                                          ./src/PLCS_Protocol.o
tmp_BuffForRFUP                                   ./src/RFU_Protocol.o
tmp_BuffForZRM                                    ./src/ZRMProtocol.o
tmp_Buff_MPR                                      ./src/MPRProtocol.o
tmp_CircuitInfo                                   ./src/main.o
                                                  ./src/ZRMProtocol.o
                                                  ./src/XNetProtocol.o
                                                  ./src/ScheduleTable.o
                                                  ./src/SSRContol.o
                                                  ./src/RFU_Protocol.o
                                                  ./src/PatternBasedControl.o
                                                  ./src/PLCS_Protocol.o
                                                  ./src/MPRProtocol.o
                                                  ./src/DimmerProtocol.o
                                                  ./src/DeviceInfo.o
tmp_DevInfo_D                                     ./src/main.o
                                                  ./src/PLCS_Protocol.o
tmp_DevInfo_P                                     ./src/PLCS_Protocol.o
tmp_PrevCircuitInfo                               ./src/main.o
                                                  ./src/ZRMProtocol.o
                                                  ./src/XNetProtocol.o
                                                  ./src/ScheduleTable.o
                                                  ./src/SSRContol.o
                                                  ./src/RFU_Protocol.o
                                                  ./src/PatternBasedControl.o
                                                  ./src/PLCS_Protocol.o
                                                  ./src/MPRProtocol.o
                                                  ./src/DimmerProtocol.o
                                                  ./src/DeviceInfo.o
toHexCharacterOfLowerByte                         ./src/util.o
toUint16                                          ./src/util.o
toUint8                                           ./src/util.o
token                                             ./src/PLCS_Protocol.o
uart0_rx_buff                                     ./src/Uart.o
uart0_rx_front                                    ./src/Uart.o
uart0_rx_len                                      ./src/Uart.o
uart0_rx_tail                                     ./src/Uart.o
uart0_tx_buff                                     ./src/Uart.o
uart0_tx_front                                    ./src/Uart.o
uart0_tx_len                                      ./src/Uart.o
uart0_tx_tail                                     ./src/Uart.o
uart1_rx_buff                                     ./src/Uart.o
uart1_rx_front                                    ./src/Uart.o
uart1_rx_len                                      ./src/Uart.o
uart1_rx_tail                                     ./src/Uart.o
uart1_tx_buff                                     ./src/Uart.o
uart1_tx_front                                    ./src/Uart.o
uart1_tx_len                                      ./src/Uart.o
uart1_tx_tail                                     ./src/Uart.o
uart2_rx_buff                                     ./src/Uart.o
uart2_rx_front                                    ./src/Uart.o
uart2_rx_len                                      ./src/Uart.o
uart2_rx_tail                                     ./src/Uart.o
uart2_tx_buff                                     ./src/Uart.o
uart2_tx_front                                    ./src/Uart.o
uart2_tx_len                                      ./src/Uart.o
uart2_tx_tail                                     ./src/Uart.o
uart3_rx_buff                                     ./src/Uart.o
uart3_rx_front                                    ./src/Uart.o
uart3_rx_len                                      ./src/Uart.o
uart3_rx_tail                                     ./src/Uart.o
uart3_tx_buff                                     ./src/Uart.o
uart3_tx_front                                    ./src/Uart.o
uart3_tx_len                                      ./src/Uart.o
uart3_tx_tail                                     ./src/Uart.o
updateDeviceTable                                 ./src/DeviceInfo.o
                                                  ./src/PLCS_Protocol.o
updateDimmerControlInfoList                       ./src/DimmerProtocol.o
                                                  ./src/PLCS_Protocol.o
updateDimmerMappingTable                          ./src/MappingTable.o
                                                  ./src/PLCS_Protocol.o
updateSensorMappingTable                          ./src/MappingTable.o
                                                  ./src/PLCS_Protocol.o
updateSensorMappingTableByCircuit                 ./src/MappingTable.o
                                                  ./src/PLCS_Protocol.o
vfprintf                                          c:/winavr-20100110/bin/../lib/gcc/avr/4.3.3/../../../../avr/lib/avr6\libc.a(vfprintf_std.o)
                                                  c:/winavr-20100110/bin/../lib/gcc/avr/4.3.3/../../../../avr/lib/avr6\libc.a(printf_p.o)
xcps_init_rs485                                   ./src/Xcps.o
xcps_init_rs485ForMPR                             ./src/Xcps.o
xcps_init_zigbee_0                                ./src/Xcps.o
xcps_init_zigbee_1                                ./src/Xcps.o
xcps_pdu_len_rs485                                ./src/Xcps.o
xcps_pdu_len_rs485ForMPR                          ./src/Xcps.o
xcps_recv_rs485                                   ./src/Xcps.o
                                                  ./src/main.o
xcps_recv_rs485ForMPR                             ./src/Xcps.o
                                                  ./src/main.o
xcps_recv_zigbee_0                                ./src/Xcps.o
                                                  ./src/main.o
xcps_recv_zigbee_1                                ./src/Xcps.o
                                                  ./src/main.o
xcps_rx_packet_rs485                              ./src/Xcps.o
xcps_rx_packet_rs485ForMPR                        ./src/Xcps.o
xcps_rx_packet_zigbee_0                           ./src/Xcps.o
xcps_rx_packet_zigbee_1                           ./src/Xcps.o
xcps_rxlen_rs485                                  ./src/Xcps.o
xcps_rxlen_rs485ForMPR                            ./src/Xcps.o
xcps_rxlen_zigbee_0                               ./src/Xcps.o
xcps_rxlen_zigbee_1                               ./src/Xcps.o
xcps_send_rs485                                   ./src/Xcps.o
                                                  ./src/XNetProtocol.o
xcps_send_rs485ForMPR                             ./src/Xcps.o
                                                  ./src/XNetProtocol.o
                                                  ./src/MPRProtocol.o
xcps_send_zigbee_0                                ./src/Xcps.o
                                                  ./src/ZRMProtocol.o
xcps_send_zigbee_1                                ./src/Xcps.o
                                                  ./src/ZRMProtocol.o
xcps_tx_packet_zigbee_0                           ./src/Xcps.o
xcps_tx_packet_zigbee_1                           ./src/Xcps.o
xmem_enable                                       ./src/main.o
z_ieee_Id                                         ./src/PLCS_Protocol.o
zrmpInfo_0                                        ./src/main.o
                                                  ./src/ZRMProtocol.o
                                                  ./src/XNetProtocol.o
                                                  ./src/RFU_Protocol.o
                                                  ./src/PatternBasedControl.o
                                                  ./src/PLCS_Protocol.o
                                                  ./src/MPRProtocol.o
                                                  ./src/DimmerProtocol.o
zrmpInfo_1                                        ./src/main.o
                                                  ./src/ZRMProtocol.o
                                                  ./src/XNetProtocol.o
                                                  ./src/RFU_Protocol.o
                                                  ./src/PatternBasedControl.o
                                                  ./src/PLCS_Protocol.o
                                                  ./src/MPRProtocol.o
                                                  ./src/DimmerProtocol.o
